{
  "abi": [
    {
      "inputs": [
        {
          "internalType": "contract ERC20",
          "name": "_asset",
          "type": "address"
        },
        {
          "internalType": "contract FlywheelCore",
          "name": "_flywheel",
          "type": "address"
        }
      ],
      "stateMutability": "nonpayable",
      "type": "constructor"
    },
    {
      "anonymous": false,
      "inputs": [
        {
          "indexed": true,
          "internalType": "address",
          "name": "owner",
          "type": "address"
        },
        {
          "indexed": true,
          "internalType": "address",
          "name": "spender",
          "type": "address"
        },
        {
          "indexed": false,
          "internalType": "uint256",
          "name": "amount",
          "type": "uint256"
        }
      ],
      "name": "Approval",
      "type": "event"
    },
    {
      "anonymous": false,
      "inputs": [
        {
          "indexed": true,
          "internalType": "address",
          "name": "caller",
          "type": "address"
        },
        {
          "indexed": true,
          "internalType": "address",
          "name": "owner",
          "type": "address"
        },
        {
          "indexed": false,
          "internalType": "uint256",
          "name": "assets",
          "type": "uint256"
        },
        {
          "indexed": false,
          "internalType": "uint256",
          "name": "shares",
          "type": "uint256"
        }
      ],
      "name": "Deposit",
      "type": "event"
    },
    {
      "anonymous": false,
      "inputs": [
        {
          "indexed": true,
          "internalType": "address",
          "name": "from",
          "type": "address"
        },
        {
          "indexed": true,
          "internalType": "address",
          "name": "to",
          "type": "address"
        },
        {
          "indexed": false,
          "internalType": "uint256",
          "name": "amount",
          "type": "uint256"
        }
      ],
      "name": "Transfer",
      "type": "event"
    },
    {
      "anonymous": false,
      "inputs": [
        {
          "indexed": true,
          "internalType": "address",
          "name": "caller",
          "type": "address"
        },
        {
          "indexed": true,
          "internalType": "address",
          "name": "receiver",
          "type": "address"
        },
        {
          "indexed": true,
          "internalType": "address",
          "name": "owner",
          "type": "address"
        },
        {
          "indexed": false,
          "internalType": "uint256",
          "name": "assets",
          "type": "uint256"
        },
        {
          "indexed": false,
          "internalType": "uint256",
          "name": "shares",
          "type": "uint256"
        }
      ],
      "name": "Withdraw",
      "type": "event"
    },
    {
      "inputs": [],
      "name": "DOMAIN_SEPARATOR",
      "outputs": [
        {
          "internalType": "bytes32",
          "name": "",
          "type": "bytes32"
        }
      ],
      "stateMutability": "view",
      "type": "function"
    },
    {
      "inputs": [
        {
          "internalType": "address",
          "name": "",
          "type": "address"
        },
        {
          "internalType": "address",
          "name": "",
          "type": "address"
        }
      ],
      "name": "allowance",
      "outputs": [
        {
          "internalType": "uint256",
          "name": "",
          "type": "uint256"
        }
      ],
      "stateMutability": "view",
      "type": "function"
    },
    {
      "inputs": [
        {
          "internalType": "address",
          "name": "spender",
          "type": "address"
        },
        {
          "internalType": "uint256",
          "name": "amount",
          "type": "uint256"
        }
      ],
      "name": "approve",
      "outputs": [
        {
          "internalType": "bool",
          "name": "",
          "type": "bool"
        }
      ],
      "stateMutability": "nonpayable",
      "type": "function"
    },
    {
      "inputs": [],
      "name": "asset",
      "outputs": [
        {
          "internalType": "contract ERC20",
          "name": "",
          "type": "address"
        }
      ],
      "stateMutability": "view",
      "type": "function"
    },
    {
      "inputs": [
        {
          "internalType": "address",
          "name": "",
          "type": "address"
        }
      ],
      "name": "balanceOf",
      "outputs": [
        {
          "internalType": "uint256",
          "name": "",
          "type": "uint256"
        }
      ],
      "stateMutability": "view",
      "type": "function"
    },
    {
      "inputs": [
        {
          "internalType": "address",
          "name": "account",
          "type": "address"
        }
      ],
      "name": "balanceOfUnderlying",
      "outputs": [
        {
          "internalType": "uint256",
          "name": "",
          "type": "uint256"
        }
      ],
      "stateMutability": "view",
      "type": "function"
    },
    {
      "inputs": [
        {
          "internalType": "uint256",
          "name": "shares",
          "type": "uint256"
        }
      ],
      "name": "convertToAssets",
      "outputs": [
        {
          "internalType": "uint256",
          "name": "",
          "type": "uint256"
        }
      ],
      "stateMutability": "view",
      "type": "function"
    },
    {
      "inputs": [
        {
          "internalType": "uint256",
          "name": "assets",
          "type": "uint256"
        }
      ],
      "name": "convertToShares",
      "outputs": [
        {
          "internalType": "uint256",
          "name": "",
          "type": "uint256"
        }
      ],
      "stateMutability": "view",
      "type": "function"
    },
    {
      "inputs": [],
      "name": "decimals",
      "outputs": [
        {
          "internalType": "uint8",
          "name": "",
          "type": "uint8"
        }
      ],
      "stateMutability": "view",
      "type": "function"
    },
    {
      "inputs": [
        {
          "internalType": "uint256",
          "name": "assets",
          "type": "uint256"
        },
        {
          "internalType": "address",
          "name": "receiver",
          "type": "address"
        }
      ],
      "name": "deposit",
      "outputs": [
        {
          "internalType": "uint256",
          "name": "shares",
          "type": "uint256"
        }
      ],
      "stateMutability": "nonpayable",
      "type": "function"
    },
    {
      "inputs": [],
      "name": "flywheel",
      "outputs": [
        {
          "internalType": "contract FlywheelCore",
          "name": "",
          "type": "address"
        }
      ],
      "stateMutability": "view",
      "type": "function"
    },
    {
      "inputs": [
        {
          "internalType": "address",
          "name": "",
          "type": "address"
        }
      ],
      "name": "maxDeposit",
      "outputs": [
        {
          "internalType": "uint256",
          "name": "",
          "type": "uint256"
        }
      ],
      "stateMutability": "view",
      "type": "function"
    },
    {
      "inputs": [
        {
          "internalType": "address",
          "name": "",
          "type": "address"
        }
      ],
      "name": "maxMint",
      "outputs": [
        {
          "internalType": "uint256",
          "name": "",
          "type": "uint256"
        }
      ],
      "stateMutability": "view",
      "type": "function"
    },
    {
      "inputs": [
        {
          "internalType": "address",
          "name": "owner",
          "type": "address"
        }
      ],
      "name": "maxRedeem",
      "outputs": [
        {
          "internalType": "uint256",
          "name": "",
          "type": "uint256"
        }
      ],
      "stateMutability": "view",
      "type": "function"
    },
    {
      "inputs": [
        {
          "internalType": "address",
          "name": "owner",
          "type": "address"
        }
      ],
      "name": "maxWithdraw",
      "outputs": [
        {
          "internalType": "uint256",
          "name": "",
          "type": "uint256"
        }
      ],
      "stateMutability": "view",
      "type": "function"
    },
    {
      "inputs": [
        {
          "internalType": "uint256",
          "name": "shares",
          "type": "uint256"
        },
        {
          "internalType": "address",
          "name": "receiver",
          "type": "address"
        }
      ],
      "name": "mint",
      "outputs": [
        {
          "internalType": "uint256",
          "name": "assets",
          "type": "uint256"
        }
      ],
      "stateMutability": "nonpayable",
      "type": "function"
    },
    {
      "inputs": [],
      "name": "name",
      "outputs": [
        {
          "internalType": "string",
          "name": "",
          "type": "string"
        }
      ],
      "stateMutability": "view",
      "type": "function"
    },
    {
      "inputs": [
        {
          "internalType": "address",
          "name": "",
          "type": "address"
        }
      ],
      "name": "nonces",
      "outputs": [
        {
          "internalType": "uint256",
          "name": "",
          "type": "uint256"
        }
      ],
      "stateMutability": "view",
      "type": "function"
    },
    {
      "inputs": [
        {
          "internalType": "address",
          "name": "owner",
          "type": "address"
        },
        {
          "internalType": "address",
          "name": "spender",
          "type": "address"
        },
        {
          "internalType": "uint256",
          "name": "value",
          "type": "uint256"
        },
        {
          "internalType": "uint256",
          "name": "deadline",
          "type": "uint256"
        },
        {
          "internalType": "uint8",
          "name": "v",
          "type": "uint8"
        },
        {
          "internalType": "bytes32",
          "name": "r",
          "type": "bytes32"
        },
        {
          "internalType": "bytes32",
          "name": "s",
          "type": "bytes32"
        }
      ],
      "name": "permit",
      "outputs": [],
      "stateMutability": "nonpayable",
      "type": "function"
    },
    {
      "inputs": [
        {
          "internalType": "uint256",
          "name": "assets",
          "type": "uint256"
        }
      ],
      "name": "previewDeposit",
      "outputs": [
        {
          "internalType": "uint256",
          "name": "",
          "type": "uint256"
        }
      ],
      "stateMutability": "view",
      "type": "function"
    },
    {
      "inputs": [
        {
          "internalType": "uint256",
          "name": "shares",
          "type": "uint256"
        }
      ],
      "name": "previewMint",
      "outputs": [
        {
          "internalType": "uint256",
          "name": "",
          "type": "uint256"
        }
      ],
      "stateMutability": "view",
      "type": "function"
    },
    {
      "inputs": [
        {
          "internalType": "uint256",
          "name": "shares",
          "type": "uint256"
        }
      ],
      "name": "previewRedeem",
      "outputs": [
        {
          "internalType": "uint256",
          "name": "",
          "type": "uint256"
        }
      ],
      "stateMutability": "view",
      "type": "function"
    },
    {
      "inputs": [
        {
          "internalType": "uint256",
          "name": "assets",
          "type": "uint256"
        }
      ],
      "name": "previewWithdraw",
      "outputs": [
        {
          "internalType": "uint256",
          "name": "",
          "type": "uint256"
        }
      ],
      "stateMutability": "view",
      "type": "function"
    },
    {
      "inputs": [
        {
          "internalType": "uint256",
          "name": "shares",
          "type": "uint256"
        },
        {
          "internalType": "address",
          "name": "receiver",
          "type": "address"
        },
        {
          "internalType": "address",
          "name": "owner",
          "type": "address"
        }
      ],
      "name": "redeem",
      "outputs": [
        {
          "internalType": "uint256",
          "name": "assets",
          "type": "uint256"
        }
      ],
      "stateMutability": "nonpayable",
      "type": "function"
    },
    {
      "inputs": [],
      "name": "symbol",
      "outputs": [
        {
          "internalType": "string",
          "name": "",
          "type": "string"
        }
      ],
      "stateMutability": "view",
      "type": "function"
    },
    {
      "inputs": [],
      "name": "totalAssets",
      "outputs": [
        {
          "internalType": "uint256",
          "name": "",
          "type": "uint256"
        }
      ],
      "stateMutability": "view",
      "type": "function"
    },
    {
      "inputs": [],
      "name": "totalSupply",
      "outputs": [
        {
          "internalType": "uint256",
          "name": "",
          "type": "uint256"
        }
      ],
      "stateMutability": "view",
      "type": "function"
    },
    {
      "inputs": [
        {
          "internalType": "address",
          "name": "to",
          "type": "address"
        },
        {
          "internalType": "uint256",
          "name": "amount",
          "type": "uint256"
        }
      ],
      "name": "transfer",
      "outputs": [
        {
          "internalType": "bool",
          "name": "",
          "type": "bool"
        }
      ],
      "stateMutability": "nonpayable",
      "type": "function"
    },
    {
      "inputs": [
        {
          "internalType": "address",
          "name": "from",
          "type": "address"
        },
        {
          "internalType": "address",
          "name": "to",
          "type": "address"
        },
        {
          "internalType": "uint256",
          "name": "amount",
          "type": "uint256"
        }
      ],
      "name": "transferFrom",
      "outputs": [
        {
          "internalType": "bool",
          "name": "",
          "type": "bool"
        }
      ],
      "stateMutability": "nonpayable",
      "type": "function"
    },
    {
      "inputs": [
        {
          "internalType": "uint256",
          "name": "assets",
          "type": "uint256"
        },
        {
          "internalType": "address",
          "name": "receiver",
          "type": "address"
        },
        {
          "internalType": "address",
          "name": "owner",
          "type": "address"
        }
      ],
      "name": "withdraw",
      "outputs": [
        {
          "internalType": "uint256",
          "name": "shares",
          "type": "uint256"
        }
      ],
      "stateMutability": "nonpayable",
      "type": "function"
    }
  ],
  "bytecode": {
    "object": "0x6101206040523480156200001257600080fd5b5060405162001b5b38038062001b5b83398101604081905262000035916200036f565b81826001600160a01b03166306fdde036040518163ffffffff1660e01b8152600401600060405180830381865afa15801562000075573d6000803e3d6000fd5b505050506040513d6000823e601f3d908101601f191682016040526200009f9190810190620003f7565b604051602001620000b19190620004af565b604051602081830303815290604052836001600160a01b03166395d89b416040518163ffffffff1660e01b8152600401600060405180830381865afa158015620000ff573d6000803e3d6000fd5b505050506040513d6000823e601f3d908101601f19168201604052620001299190810190620003f7565b6040516020016200013b9190620004ef565b6040516020818303038152906040528181846001600160a01b031663313ce5676040518163ffffffff1660e01b8152600401602060405180830381865afa1580156200018b573d6000803e3d6000fd5b505050506040513d601f19601f82011682018060405250810190620001b191906200051b565b8251620001c6906000906020860190620002b0565b508151620001dc906001906020850190620002b0565b5060ff81166080524660a052620001f262000214565b60c0525050506001600160a01b0392831660e052505016610100525062000628565b60007f8b73c3c69bb8fe3d512ecc4cf759cc79239f7b179b0ffacaa9a75d522b39400f600060405162000248919062000584565b6040805191829003822060208301939093528101919091527fc89efdaa54c0f20c7adf612882df0950f5a951637e0307cdcb4c672f298b8bc660608201524660808201523060a082015260c00160405160208183030381529060405280519060200120905090565b828054620002be9062000547565b90600052602060002090601f016020900481019282620002e257600085556200032d565b82601f10620002fd57805160ff19168380011785556200032d565b828001600101855582156200032d579182015b828111156200032d57825182559160200191906001019062000310565b506200033b9291506200033f565b5090565b5b808211156200033b576000815560010162000340565b6001600160a01b03811681146200036c57600080fd5b50565b600080604083850312156200038357600080fd5b8251620003908162000356565b6020840151909250620003a38162000356565b809150509250929050565b634e487b7160e01b600052604160045260246000fd5b60005b83811015620003e1578181015183820152602001620003c7565b83811115620003f1576000848401525b50505050565b6000602082840312156200040a57600080fd5b81516001600160401b03808211156200042257600080fd5b818401915084601f8301126200043757600080fd5b8151818111156200044c576200044c620003ae565b604051601f8201601f19908116603f01168101908382118183101715620004775762000477620003ae565b816040528281528760208487010111156200049157600080fd5b620004a4836020830160208801620003c4565b979650505050505050565b65026b4b230b9960d51b815260008251620004d2816006850160208701620003c4565b650815985d5b1d60d21b6006939091019283015250600c01919050565b6136bb60f11b8152600082516200050e816002850160208701620003c4565b9190910160020192915050565b6000602082840312156200052e57600080fd5b815160ff811681146200054057600080fd5b9392505050565b600181811c908216806200055c57607f821691505b602082108114156200057e57634e487b7160e01b600052602260045260246000fd5b50919050565b600080835481600182811c915080831680620005a157607f831692505b6020808410821415620005c257634e487b7160e01b86526022600452602486fd5b818015620005d95760018114620005eb576200061a565b60ff198616895284890196506200061a565b60008a81526020902060005b86811015620006125781548b820152908501908301620005f7565b505084890196505b509498975050505050505050565b60805160a05160c05160e051610100516114cb6200069060003960006103670152600081816102ba015281816104b701528181610834015281816108cc01528181610ab00152610bef0152600061078b0152600061075b0152600061027901526114cb6000f3fe608060405234801561001057600080fd5b50600436106101da5760003560e01c80637acf5b9211610104578063ba087652116100a2578063d505accf11610071578063d505accf14610423578063d905777e14610438578063dd62ed3e14610461578063ef8b30f71461048c57600080fd5b8063ba087652146103fd578063c63d75b614610307578063c6e6f59214610410578063ce96cb77146102f457600080fd5b806395d89b41116100de57806395d89b41146103bc578063a9059cbb146103c4578063b3d7f6b9146103d7578063b460af94146103ea57600080fd5b80637acf5b92146103625780637ecebe001461038957806394bf804d146103a957600080fd5b8063313ce5671161017c578063402d267d1161014b578063402d267d146103075780634cdad5061461031c5780636e553f651461032f57806370a082311461034257600080fd5b8063313ce567146102745780633644e515146102ad57806338d52e0f146102b55780633af9e669146102f457600080fd5b8063095ea7b3116101b8578063095ea7b3146102225780630a28a4771461024557806318160ddd1461025857806323b872dd1461026157600080fd5b806301e1d114146101df57806306fdde03146101fa57806307a2d13a1461020f575b600080fd5b6101e761049f565b6040519081526020015b60405180910390f35b61020261052f565b6040516101f19190611130565b6101e761021d366004611185565b6105bd565b6102356102303660046111ba565b6105ea565b60405190151581526020016101f1565b6101e7610253366004611185565b610657565b6101e760025481565b61023561026f3660046111e4565b610677565b61029b7f000000000000000000000000000000000000000000000000000000000000000081565b60405160ff90911681526020016101f1565b6101e7610757565b6102dc7f000000000000000000000000000000000000000000000000000000000000000081565b6040516001600160a01b0390911681526020016101f1565b6101e7610302366004611220565b6107ad565b6101e7610315366004611220565b5060001990565b6101e761032a366004611185565b6107cf565b6101e761033d36600461123b565b6107da565b6101e7610350366004611220565b60036020526000908152604090205481565b6102dc7f000000000000000000000000000000000000000000000000000000000000000081565b6101e7610397366004611220565b60056020526000908152604090205481565b6101e76103b736600461123b565b6108b2565b610202610941565b6102356103d23660046111ba565b61094e565b6101e76103e5366004611185565b6109b4565b6101e76103f8366004611267565b6109d3565b6101e761040b366004611267565b610ad7565b6101e761041e366004611185565b610c16565b6104366104313660046112a3565b610c36565b005b6101e7610446366004611220565b6001600160a01b031660009081526003602052604090205490565b6101e761046f366004611316565b600460209081526000928352604080842090915290825290205481565b6101e761049a366004611185565b610e7a565b6040516370a0823160e01b81523060048201526000907f00000000000000000000000000000000000000000000000000000000000000006001600160a01b0316906370a0823190602401602060405180830381865afa158015610506573d6000803e3d6000fd5b505050506040513d601f19601f8201168201806040525081019061052a9190611340565b905090565b6000805461053c90611359565b80601f016020809104026020016040519081016040528092919081815260200182805461056890611359565b80156105b55780601f1061058a576101008083540402835291602001916105b5565b820191906000526020600020905b81548152906001019060200180831161059857829003601f168201915b505050505081565b60025460009080156105e1576105dc6105d461049f565b849083610e85565b6105e3565b825b9392505050565b3360008181526004602090815260408083206001600160a01b038716808552925280832085905551919290917f8c5be1e5ebec7d5bd14f71427d1e84f3dd0314c0f7b2291e5b200ac8c7c3b925906106459086815260200190565b60405180910390a35060015b92915050565b60025460009080156105e1576105dc8161066f61049f565b859190610ea4565b6001600160a01b038316600090815260046020908152604080832033845290915281205460001981146106d3576106ae83826113aa565b6001600160a01b03861660009081526004602090815260408083203384529091529020555b6001600160a01b038516600090815260036020526040812080548592906106fb9084906113aa565b90915550506001600160a01b0380851660008181526003602052604090819020805487019055519091871690600080516020611476833981519152906107449087815260200190565b60405180910390a3506001949350505050565b60007f000000000000000000000000000000000000000000000000000000000000000046146107885761052a610ed2565b507f000000000000000000000000000000000000000000000000000000000000000090565b6001600160a01b038116600090815260036020526040812054610651906105bd565b6000610651826105bd565b60006107e583610e7a565b9050806108275760405162461bcd60e51b815260206004820152600b60248201526a5a45524f5f53484152455360a81b60448201526064015b60405180910390fd5b61085c6001600160a01b037f000000000000000000000000000000000000000000000000000000000000000016333086610f6c565b6108668282610ff6565b60408051848152602081018390526001600160a01b0384169133917fdcbc1c05240f31ff3ad067ef1ee35ce4997762752e3a095284754544f4c709d791015b60405180910390a3610651565b60006108bd836109b4565b90506108f46001600160a01b037f000000000000000000000000000000000000000000000000000000000000000016333084610f6c565b6108fe8284610ff6565b60408051828152602081018590526001600160a01b0384169133917fdcbc1c05240f31ff3ad067ef1ee35ce4997762752e3a095284754544f4c709d791016108a5565b6001805461053c90611359565b3360009081526003602052604081208054839190839061096f9084906113aa565b90915550506001600160a01b03831660008181526003602052604090819020805485019055513390600080516020611476833981519152906106459086815260200190565b60025460009080156105e1576105dc6109cb61049f565b849083610ea4565b60006109de84610657565b9050336001600160a01b03831614610a4e576001600160a01b03821660009081526004602090815260408083203384529091529020546000198114610a4c57610a2782826113aa565b6001600160a01b03841660009081526004602090815260408083203384529091529020555b505b610a588282611050565b60408051858152602081018390526001600160a01b03808516929086169133917ffbde797d201c681b91056529119e0b02407c7bb96a4a2c75c01fc9667232c8db910160405180910390a46105e36001600160a01b037f00000000000000000000000000000000000000000000000000000000000000001684866110b2565b6000336001600160a01b03831614610b47576001600160a01b03821660009081526004602090815260408083203384529091529020546000198114610b4557610b2085826113aa565b6001600160a01b03841660009081526004602090815260408083203384529091529020555b505b610b50846107cf565b905080610b8d5760405162461bcd60e51b815260206004820152600b60248201526a5a45524f5f41535345545360a81b604482015260640161081e565b610b978285611050565b60408051828152602081018690526001600160a01b03808516929086169133917ffbde797d201c681b91056529119e0b02407c7bb96a4a2c75c01fc9667232c8db910160405180910390a46105e36001600160a01b037f00000000000000000000000000000000000000000000000000000000000000001684836110b2565b60025460009080156105e1576105dc81610c2e61049f565b859190610e85565b42841015610c865760405162461bcd60e51b815260206004820152601760248201527f5045524d49545f444541444c494e455f45585049524544000000000000000000604482015260640161081e565b60006001610c92610757565b6001600160a01b038a811660008181526005602090815260409182902080546001810190915582517f6e71edae12b1b97f4d1f60370fef10105fa2faae0126114a169c64845d6126c98184015280840194909452938d166060840152608083018c905260a083019390935260c08083018b90528151808403909101815260e08301909152805192019190912061190160f01b6101008301526101028201929092526101228101919091526101420160408051601f198184030181528282528051602091820120600084529083018083525260ff871690820152606081018590526080810184905260a0016020604051602081039080840390855afa158015610d9e573d6000803e3d6000fd5b5050604051601f1901519150506001600160a01b03811615801590610dd45750876001600160a01b0316816001600160a01b0316145b610e115760405162461bcd60e51b815260206004820152600e60248201526d24a72b20a624a22fa9a4a3a722a960911b604482015260640161081e565b6001600160a01b0390811660009081526004602090815260408083208a8516808552908352928190208990555188815291928a16917f8c5be1e5ebec7d5bd14f71427d1e84f3dd0314c0f7b2291e5b200ac8c7c3b925910160405180910390a350505050505050565b600061065182610c16565b828202811515841585830485141716610e9d57600080fd5b0492915050565b828202811515841585830485141716610ebc57600080fd5b6001826001830304018115150290509392505050565b60007f8b73c3c69bb8fe3d512ecc4cf759cc79239f7b179b0ffacaa9a75d522b39400f6000604051610f0491906113c1565b6040805191829003822060208301939093528101919091527fc89efdaa54c0f20c7adf612882df0950f5a951637e0307cdcb4c672f298b8bc660608201524660808201523060a082015260c00160405160208183030381529060405280519060200120905090565b60006040516323b872dd60e01b81528460048201528360248201528260448201526020600060648360008a5af13d15601f3d1160016000511416171691505080610fef5760405162461bcd60e51b81526020600482015260146024820152731514905394d1915497d19493d357d1905253115160621b604482015260640161081e565b5050505050565b8060026000828254611008919061145d565b90915550506001600160a01b03821660008181526003602090815260408083208054860190555184815260008051602061147683398151915291015b60405180910390a35050565b6001600160a01b038216600090815260036020526040812080548392906110789084906113aa565b90915550506002805482900390556040518181526000906001600160a01b0384169060008051602061147683398151915290602001611044565b600060405163a9059cbb60e01b8152836004820152826024820152602060006044836000895af13d15601f3d116001600051141617169150508061112a5760405162461bcd60e51b815260206004820152600f60248201526e1514905394d1915497d19052531151608a1b604482015260640161081e565b50505050565b600060208083528351808285015260005b8181101561115d57858101830151858201604001528201611141565b8181111561116f576000604083870101525b50601f01601f1916929092016040019392505050565b60006020828403121561119757600080fd5b5035919050565b80356001600160a01b03811681146111b557600080fd5b919050565b600080604083850312156111cd57600080fd5b6111d68361119e565b946020939093013593505050565b6000806000606084860312156111f957600080fd5b6112028461119e565b92506112106020850161119e565b9150604084013590509250925092565b60006020828403121561123257600080fd5b6105e38261119e565b6000806040838503121561124e57600080fd5b8235915061125e6020840161119e565b90509250929050565b60008060006060848603121561127c57600080fd5b8335925061128c6020850161119e565b915061129a6040850161119e565b90509250925092565b600080600080600080600060e0888a0312156112be57600080fd5b6112c78861119e565b96506112d56020890161119e565b95506040880135945060608801359350608088013560ff811681146112f957600080fd5b9699959850939692959460a0840135945060c09093013592915050565b6000806040838503121561132957600080fd5b6113328361119e565b915061125e6020840161119e565b60006020828403121561135257600080fd5b5051919050565b600181811c9082168061136d57607f821691505b6020821081141561138e57634e487b7160e01b600052602260045260246000fd5b50919050565b634e487b7160e01b600052601160045260246000fd5b6000828210156113bc576113bc611394565b500390565b600080835481600182811c9150808316806113dd57607f831692505b60208084108214156113fd57634e487b7160e01b86526022600452602486fd5b81801561141157600181146114225761144f565b60ff1986168952848901965061144f565b60008a81526020902060005b868110156114475781548b82015290850190830161142e565b505084890196505b509498975050505050505050565b6000821982111561147057611470611394565b50019056feddf252ad1be2c89b69c2b068fc378daa952ba7f163c4a11628f55a4df523b3efa26469706673582212202eccdd3039505f90bb512ce5957a40782ccbaf81bbdb5f01a765d45ccaf03e2264736f6c634300080a0033",
    "linkReferences": {}
  },
  "methodIdentifiers": {
    "DOMAIN_SEPARATOR()": "3644e515",
    "allowance(address,address)": "dd62ed3e",
    "approve(address,uint256)": "095ea7b3",
    "asset()": "38d52e0f",
    "balanceOf(address)": "70a08231",
    "balanceOfUnderlying(address)": "3af9e669",
    "convertToAssets(uint256)": "07a2d13a",
    "convertToShares(uint256)": "c6e6f592",
    "decimals()": "313ce567",
    "deposit(uint256,address)": "6e553f65",
    "flywheel()": "7acf5b92",
    "maxDeposit(address)": "402d267d",
    "maxMint(address)": "c63d75b6",
    "maxRedeem(address)": "d905777e",
    "maxWithdraw(address)": "ce96cb77",
    "mint(uint256,address)": "94bf804d",
    "name()": "06fdde03",
    "nonces(address)": "7ecebe00",
    "permit(address,address,uint256,uint256,uint8,bytes32,bytes32)": "d505accf",
    "previewDeposit(uint256)": "ef8b30f7",
    "previewMint(uint256)": "b3d7f6b9",
    "previewRedeem(uint256)": "4cdad506",
    "previewWithdraw(uint256)": "0a28a477",
    "redeem(uint256,address,address)": "ba087652",
    "symbol()": "95d89b41",
    "totalAssets()": "01e1d114",
    "totalSupply()": "18160ddd",
    "transfer(address,uint256)": "a9059cbb",
    "transferFrom(address,address,uint256)": "23b872dd",
    "withdraw(uint256,address,address)": "b460af94"
  },
  "id": 55
}