{
  "abi": [
    {
      "inputs": [],
      "name": "FEE_DENOMINATOR",
      "outputs": [
        {
          "internalType": "uint256",
          "name": "",
          "type": "uint256"
        }
      ],
      "stateMutability": "view",
      "type": "function"
    },
    {
      "inputs": [],
      "name": "STABILIZER",
      "outputs": [
        {
          "internalType": "contract Stabilizer",
          "name": "",
          "type": "address"
        }
      ],
      "stateMutability": "view",
      "type": "function"
    },
    {
      "inputs": [
        {
          "internalType": "contract IERC20Upgradeable",
          "name": "inputToken",
          "type": "address"
        },
        {
          "internalType": "uint256",
          "name": "inputAmount",
          "type": "uint256"
        },
        {
          "internalType": "bytes",
          "name": "strategyData",
          "type": "bytes"
        }
      ],
      "name": "redeem",
      "outputs": [
        {
          "internalType": "contract IERC20Upgradeable",
          "name": "outputToken",
          "type": "address"
        },
        {
          "internalType": "uint256",
          "name": "outputAmount",
          "type": "uint256"
        }
      ],
      "stateMutability": "nonpayable",
      "type": "function"
    }
  ],
  "bytecode": {
    "object": "0x6080604052600080546001600160a01b031916737ec0d931affba01b77711c2cd07c76b970795cdd17905534801561003657600080fd5b50610a96806100466000396000f3fe608060405234801561001057600080fd5b50600436106100415760003560e01c806310badf4e1461004657806387245c471461007d578063d73792a9146100a8575b600080fd5b610059610054366004610851565b6100bf565b604080516001600160a01b0390931683526020830191909152015b60405180910390f35b600054610090906001600160a01b031681565b6040516001600160a01b039091168152602001610074565b6100b161271081565b604051908152602001610074565b6000805481906100da9086906001600160a01b0316866103d8565b60008060009054906101000a90046001600160a01b03166001600160a01b031663115f4fee6040518163ffffffff1660e01b8152600401602060405180830381865afa15801561012e573d6000803e3d6000fd5b505050506040513d601f19601f82011682018060405250810190610152919061091e565b905060008060009054906101000a90046001600160a01b03166001600160a01b031663cd3293de6040518163ffffffff1660e01b8152600401602060405180830381865afa1580156101a8573d6000803e3d6000fd5b505050506040513d601f19601f820116820180604052508101906101cc919061091e565b9050806001600160a01b0316876001600160a01b031614156102e65760008054906101000a90046001600160a01b03166001600160a01b031663470624026040518163ffffffff1660e01b8152600401602060405180830381865afa158015610239573d6000803e3d6000fd5b505050506040513d601f19601f8201168201806040525081019061025d919061093b565b6102699061271061096a565b61027561271088610982565b61027f91906109a1565b600054604051636cb504a560e11b8152600481018390529194506001600160a01b03169063d96a094a90602401600060405180830381600087803b1580156102c657600080fd5b505af11580156102da573d6000803e3d6000fd5b505050508193506103ce565b816001600160a01b0316876001600160a01b031614156103ce576000546040516372424d9960e11b8152600481018890526001600160a01b039091169063e4849b3290602401600060405180830381600087803b15801561034657600080fd5b505af115801561035a573d6000803e3d6000fd5b50506040516370a0823160e01b815230600482015292955085926001600160a01b03841692506370a082319150602401602060405180830381865afa1580156103a7573d6000803e3d6000fd5b505050506040513d601f19601f820116820180604052508101906103cb919061093b565b92505b5050935093915050565b604051636eb1769f60e11b81523060048201526001600160a01b0383811660248301526000919085169063dd62ed3e90604401602060405180830381865afa158015610428573d6000803e3d6000fd5b505050506040513d601f19601f8201168201806040525081019061044c919061093b565b905081811015610487578015610471576104716001600160a01b03851684600061048d565b6104876001600160a01b0385168460001961048d565b50505050565b8015806105075750604051636eb1769f60e11b81523060048201526001600160a01b03838116602483015284169063dd62ed3e90604401602060405180830381865afa1580156104e1573d6000803e3d6000fd5b505050506040513d601f19601f82011682018060405250810190610505919061093b565b155b6105775760405162461bcd60e51b815260206004820152603660248201527f5361666545524332303a20617070726f76652066726f6d206e6f6e2d7a65726f60448201527520746f206e6f6e2d7a65726f20616c6c6f77616e636560501b60648201526084015b60405180910390fd5b604080516001600160a01b038416602482015260448082018490528251808303909101815260649091019091526020810180516001600160e01b031663095ea7b360e01b1790526105c99084906105ce565b505050565b6000610623826040518060400160405280602081526020017f5361666545524332303a206c6f772d6c6576656c2063616c6c206661696c6564815250856001600160a01b03166106a09092919063ffffffff16565b8051909150156105c9578080602001905181019061064191906109c3565b6105c95760405162461bcd60e51b815260206004820152602a60248201527f5361666545524332303a204552433230206f7065726174696f6e20646964206e6044820152691bdd081cdd58d8d9595960b21b606482015260840161056e565b60606106af84846000856106b9565b90505b9392505050565b60608247101561071a5760405162461bcd60e51b815260206004820152602660248201527f416464726573733a20696e73756666696369656e742062616c616e636520666f6044820152651c8818d85b1b60d21b606482015260840161056e565b6001600160a01b0385163b6107715760405162461bcd60e51b815260206004820152601d60248201527f416464726573733a2063616c6c20746f206e6f6e2d636f6e7472616374000000604482015260640161056e565b600080866001600160a01b0316858760405161078d9190610a11565b60006040518083038185875af1925050503d80600081146107ca576040519150601f19603f3d011682016040523d82523d6000602084013e6107cf565b606091505b50915091506107df8282866107ea565b979650505050505050565b606083156107f95750816106b2565b8251156108095782518084602001fd5b8160405162461bcd60e51b815260040161056e9190610a2d565b6001600160a01b038116811461083857600080fd5b50565b634e487b7160e01b600052604160045260246000fd5b60008060006060848603121561086657600080fd5b833561087181610823565b925060208401359150604084013567ffffffffffffffff8082111561089557600080fd5b818601915086601f8301126108a957600080fd5b8135818111156108bb576108bb61083b565b604051601f8201601f19908116603f011681019083821181831017156108e3576108e361083b565b816040528281528960208487010111156108fc57600080fd5b8260208601602083013760006020848301015280955050505050509250925092565b60006020828403121561093057600080fd5b81516106b281610823565b60006020828403121561094d57600080fd5b5051919050565b634e487b7160e01b600052601160045260246000fd5b6000821982111561097d5761097d610954565b500190565b600081600019048311821515161561099c5761099c610954565b500290565b6000826109be57634e487b7160e01b600052601260045260246000fd5b500490565b6000602082840312156109d557600080fd5b815180151581146106b257600080fd5b60005b83811015610a005781810151838201526020016109e8565b838111156104875750506000910152565b60008251610a238184602087016109e5565b9190910192915050565b6020815260008251806020840152610a4c8160408501602087016109e5565b601f01601f1916919091016040019291505056fea2646970667358221220906f1db0d3a5a15300a6519da1930942f51f71751ff3096dd4d34d8ffe7a870f64736f6c634300080a0033",
    "linkReferences": {}
  }
}