{
  "abi": [
    {
      "inputs": [
        {
          "internalType": "contract ERC20",
          "name": "_asset",
          "type": "address"
        },
        {
          "internalType": "contract FlywheelCore",
          "name": "_flywheel",
          "type": "address"
        },
        {
          "internalType": "uint256",
          "name": "_poolId",
          "type": "uint256"
        },
        {
          "internalType": "contract ERC20",
          "name": "_autoToken",
          "type": "address"
        },
        {
          "internalType": "contract IAutofarmV2",
          "name": "_autofarm",
          "type": "address"
        }
      ],
      "stateMutability": "nonpayable",
      "type": "constructor"
    },
    {
      "anonymous": false,
      "inputs": [
        {
          "indexed": true,
          "internalType": "address",
          "name": "owner",
          "type": "address"
        },
        {
          "indexed": true,
          "internalType": "address",
          "name": "spender",
          "type": "address"
        },
        {
          "indexed": false,
          "internalType": "uint256",
          "name": "amount",
          "type": "uint256"
        }
      ],
      "name": "Approval",
      "type": "event"
    },
    {
      "anonymous": false,
      "inputs": [
        {
          "indexed": true,
          "internalType": "address",
          "name": "caller",
          "type": "address"
        },
        {
          "indexed": true,
          "internalType": "address",
          "name": "owner",
          "type": "address"
        },
        {
          "indexed": false,
          "internalType": "uint256",
          "name": "assets",
          "type": "uint256"
        },
        {
          "indexed": false,
          "internalType": "uint256",
          "name": "shares",
          "type": "uint256"
        }
      ],
      "name": "Deposit",
      "type": "event"
    },
    {
      "anonymous": false,
      "inputs": [
        {
          "indexed": true,
          "internalType": "address",
          "name": "from",
          "type": "address"
        },
        {
          "indexed": true,
          "internalType": "address",
          "name": "to",
          "type": "address"
        },
        {
          "indexed": false,
          "internalType": "uint256",
          "name": "amount",
          "type": "uint256"
        }
      ],
      "name": "Transfer",
      "type": "event"
    },
    {
      "anonymous": false,
      "inputs": [
        {
          "indexed": true,
          "internalType": "address",
          "name": "caller",
          "type": "address"
        },
        {
          "indexed": true,
          "internalType": "address",
          "name": "receiver",
          "type": "address"
        },
        {
          "indexed": true,
          "internalType": "address",
          "name": "owner",
          "type": "address"
        },
        {
          "indexed": false,
          "internalType": "uint256",
          "name": "assets",
          "type": "uint256"
        },
        {
          "indexed": false,
          "internalType": "uint256",
          "name": "shares",
          "type": "uint256"
        }
      ],
      "name": "Withdraw",
      "type": "event"
    },
    {
      "inputs": [],
      "name": "DOMAIN_SEPARATOR",
      "outputs": [
        {
          "internalType": "bytes32",
          "name": "",
          "type": "bytes32"
        }
      ],
      "stateMutability": "view",
      "type": "function"
    },
    {
      "inputs": [
        {
          "internalType": "address",
          "name": "",
          "type": "address"
        },
        {
          "internalType": "address",
          "name": "",
          "type": "address"
        }
      ],
      "name": "allowance",
      "outputs": [
        {
          "internalType": "uint256",
          "name": "",
          "type": "uint256"
        }
      ],
      "stateMutability": "view",
      "type": "function"
    },
    {
      "inputs": [
        {
          "internalType": "address",
          "name": "spender",
          "type": "address"
        },
        {
          "internalType": "uint256",
          "name": "amount",
          "type": "uint256"
        }
      ],
      "name": "approve",
      "outputs": [
        {
          "internalType": "bool",
          "name": "",
          "type": "bool"
        }
      ],
      "stateMutability": "nonpayable",
      "type": "function"
    },
    {
      "inputs": [],
      "name": "asset",
      "outputs": [
        {
          "internalType": "contract ERC20",
          "name": "",
          "type": "address"
        }
      ],
      "stateMutability": "view",
      "type": "function"
    },
    {
      "inputs": [],
      "name": "autofarm",
      "outputs": [
        {
          "internalType": "contract IAutofarmV2",
          "name": "",
          "type": "address"
        }
      ],
      "stateMutability": "view",
      "type": "function"
    },
    {
      "inputs": [
        {
          "internalType": "address",
          "name": "",
          "type": "address"
        }
      ],
      "name": "balanceOf",
      "outputs": [
        {
          "internalType": "uint256",
          "name": "",
          "type": "uint256"
        }
      ],
      "stateMutability": "view",
      "type": "function"
    },
    {
      "inputs": [
        {
          "internalType": "address",
          "name": "account",
          "type": "address"
        }
      ],
      "name": "balanceOfUnderlying",
      "outputs": [
        {
          "internalType": "uint256",
          "name": "",
          "type": "uint256"
        }
      ],
      "stateMutability": "view",
      "type": "function"
    },
    {
      "inputs": [
        {
          "internalType": "uint256",
          "name": "shares",
          "type": "uint256"
        }
      ],
      "name": "convertToAssets",
      "outputs": [
        {
          "internalType": "uint256",
          "name": "",
          "type": "uint256"
        }
      ],
      "stateMutability": "view",
      "type": "function"
    },
    {
      "inputs": [
        {
          "internalType": "uint256",
          "name": "assets",
          "type": "uint256"
        }
      ],
      "name": "convertToShares",
      "outputs": [
        {
          "internalType": "uint256",
          "name": "",
          "type": "uint256"
        }
      ],
      "stateMutability": "view",
      "type": "function"
    },
    {
      "inputs": [],
      "name": "decimals",
      "outputs": [
        {
          "internalType": "uint8",
          "name": "",
          "type": "uint8"
        }
      ],
      "stateMutability": "view",
      "type": "function"
    },
    {
      "inputs": [
        {
          "internalType": "uint256",
          "name": "assets",
          "type": "uint256"
        },
        {
          "internalType": "address",
          "name": "receiver",
          "type": "address"
        }
      ],
      "name": "deposit",
      "outputs": [
        {
          "internalType": "uint256",
          "name": "shares",
          "type": "uint256"
        }
      ],
      "stateMutability": "nonpayable",
      "type": "function"
    },
    {
      "inputs": [],
      "name": "flywheel",
      "outputs": [
        {
          "internalType": "contract FlywheelCore",
          "name": "",
          "type": "address"
        }
      ],
      "stateMutability": "view",
      "type": "function"
    },
    {
      "inputs": [
        {
          "internalType": "address",
          "name": "",
          "type": "address"
        }
      ],
      "name": "maxDeposit",
      "outputs": [
        {
          "internalType": "uint256",
          "name": "",
          "type": "uint256"
        }
      ],
      "stateMutability": "view",
      "type": "function"
    },
    {
      "inputs": [
        {
          "internalType": "address",
          "name": "",
          "type": "address"
        }
      ],
      "name": "maxMint",
      "outputs": [
        {
          "internalType": "uint256",
          "name": "",
          "type": "uint256"
        }
      ],
      "stateMutability": "view",
      "type": "function"
    },
    {
      "inputs": [
        {
          "internalType": "address",
          "name": "owner",
          "type": "address"
        }
      ],
      "name": "maxRedeem",
      "outputs": [
        {
          "internalType": "uint256",
          "name": "",
          "type": "uint256"
        }
      ],
      "stateMutability": "view",
      "type": "function"
    },
    {
      "inputs": [
        {
          "internalType": "address",
          "name": "owner",
          "type": "address"
        }
      ],
      "name": "maxWithdraw",
      "outputs": [
        {
          "internalType": "uint256",
          "name": "",
          "type": "uint256"
        }
      ],
      "stateMutability": "view",
      "type": "function"
    },
    {
      "inputs": [
        {
          "internalType": "uint256",
          "name": "shares",
          "type": "uint256"
        },
        {
          "internalType": "address",
          "name": "receiver",
          "type": "address"
        }
      ],
      "name": "mint",
      "outputs": [
        {
          "internalType": "uint256",
          "name": "assets",
          "type": "uint256"
        }
      ],
      "stateMutability": "nonpayable",
      "type": "function"
    },
    {
      "inputs": [],
      "name": "name",
      "outputs": [
        {
          "internalType": "string",
          "name": "",
          "type": "string"
        }
      ],
      "stateMutability": "view",
      "type": "function"
    },
    {
      "inputs": [
        {
          "internalType": "address",
          "name": "",
          "type": "address"
        }
      ],
      "name": "nonces",
      "outputs": [
        {
          "internalType": "uint256",
          "name": "",
          "type": "uint256"
        }
      ],
      "stateMutability": "view",
      "type": "function"
    },
    {
      "inputs": [
        {
          "internalType": "address",
          "name": "owner",
          "type": "address"
        },
        {
          "internalType": "address",
          "name": "spender",
          "type": "address"
        },
        {
          "internalType": "uint256",
          "name": "value",
          "type": "uint256"
        },
        {
          "internalType": "uint256",
          "name": "deadline",
          "type": "uint256"
        },
        {
          "internalType": "uint8",
          "name": "v",
          "type": "uint8"
        },
        {
          "internalType": "bytes32",
          "name": "r",
          "type": "bytes32"
        },
        {
          "internalType": "bytes32",
          "name": "s",
          "type": "bytes32"
        }
      ],
      "name": "permit",
      "outputs": [],
      "stateMutability": "nonpayable",
      "type": "function"
    },
    {
      "inputs": [],
      "name": "poolId",
      "outputs": [
        {
          "internalType": "uint256",
          "name": "",
          "type": "uint256"
        }
      ],
      "stateMutability": "view",
      "type": "function"
    },
    {
      "inputs": [
        {
          "internalType": "uint256",
          "name": "assets",
          "type": "uint256"
        }
      ],
      "name": "previewDeposit",
      "outputs": [
        {
          "internalType": "uint256",
          "name": "",
          "type": "uint256"
        }
      ],
      "stateMutability": "view",
      "type": "function"
    },
    {
      "inputs": [
        {
          "internalType": "uint256",
          "name": "shares",
          "type": "uint256"
        }
      ],
      "name": "previewMint",
      "outputs": [
        {
          "internalType": "uint256",
          "name": "",
          "type": "uint256"
        }
      ],
      "stateMutability": "view",
      "type": "function"
    },
    {
      "inputs": [
        {
          "internalType": "uint256",
          "name": "shares",
          "type": "uint256"
        }
      ],
      "name": "previewRedeem",
      "outputs": [
        {
          "internalType": "uint256",
          "name": "",
          "type": "uint256"
        }
      ],
      "stateMutability": "view",
      "type": "function"
    },
    {
      "inputs": [
        {
          "internalType": "uint256",
          "name": "assets",
          "type": "uint256"
        }
      ],
      "name": "previewWithdraw",
      "outputs": [
        {
          "internalType": "uint256",
          "name": "",
          "type": "uint256"
        }
      ],
      "stateMutability": "view",
      "type": "function"
    },
    {
      "inputs": [
        {
          "internalType": "uint256",
          "name": "shares",
          "type": "uint256"
        },
        {
          "internalType": "address",
          "name": "receiver",
          "type": "address"
        },
        {
          "internalType": "address",
          "name": "owner",
          "type": "address"
        }
      ],
      "name": "redeem",
      "outputs": [
        {
          "internalType": "uint256",
          "name": "assets",
          "type": "uint256"
        }
      ],
      "stateMutability": "nonpayable",
      "type": "function"
    },
    {
      "inputs": [],
      "name": "symbol",
      "outputs": [
        {
          "internalType": "string",
          "name": "",
          "type": "string"
        }
      ],
      "stateMutability": "view",
      "type": "function"
    },
    {
      "inputs": [],
      "name": "totalAssets",
      "outputs": [
        {
          "internalType": "uint256",
          "name": "",
          "type": "uint256"
        }
      ],
      "stateMutability": "view",
      "type": "function"
    },
    {
      "inputs": [],
      "name": "totalSupply",
      "outputs": [
        {
          "internalType": "uint256",
          "name": "",
          "type": "uint256"
        }
      ],
      "stateMutability": "view",
      "type": "function"
    },
    {
      "inputs": [
        {
          "internalType": "address",
          "name": "to",
          "type": "address"
        },
        {
          "internalType": "uint256",
          "name": "amount",
          "type": "uint256"
        }
      ],
      "name": "transfer",
      "outputs": [
        {
          "internalType": "bool",
          "name": "",
          "type": "bool"
        }
      ],
      "stateMutability": "nonpayable",
      "type": "function"
    },
    {
      "inputs": [
        {
          "internalType": "address",
          "name": "from",
          "type": "address"
        },
        {
          "internalType": "address",
          "name": "to",
          "type": "address"
        },
        {
          "internalType": "uint256",
          "name": "amount",
          "type": "uint256"
        }
      ],
      "name": "transferFrom",
      "outputs": [
        {
          "internalType": "bool",
          "name": "",
          "type": "bool"
        }
      ],
      "stateMutability": "nonpayable",
      "type": "function"
    },
    {
      "inputs": [
        {
          "internalType": "uint256",
          "name": "assets",
          "type": "uint256"
        },
        {
          "internalType": "address",
          "name": "receiver",
          "type": "address"
        },
        {
          "internalType": "address",
          "name": "owner",
          "type": "address"
        }
      ],
      "name": "withdraw",
      "outputs": [
        {
          "internalType": "uint256",
          "name": "shares",
          "type": "uint256"
        }
      ],
      "stateMutability": "nonpayable",
      "type": "function"
    }
  ],
  "bytecode": {
    "object": "0x6101606040523480156200001257600080fd5b5060405162001f4638038062001f468339810160408190526200003591620004e1565b84856001600160a01b03166306fdde036040518163ffffffff1660e01b8152600401600060405180830381865afa15801562000075573d6000803e3d6000fd5b505050506040513d6000823e601f3d908101601f191682016040526200009f91908101906200059e565b604051602001620000b1919062000656565b604051602081830303815290604052866001600160a01b03166395d89b416040518163ffffffff1660e01b8152600401600060405180830381865afa158015620000ff573d6000803e3d6000fd5b505050506040513d6000823e601f3d908101601f191682016040526200012991908101906200059e565b6040516020016200013b919062000696565b6040516020818303038152906040528181846001600160a01b031663313ce5676040518163ffffffff1660e01b8152600401602060405180830381865afa1580156200018b573d6000803e3d6000fd5b505050506040513d601f19601f82011682018060405250810190620001b19190620006c2565b8251620001c690600090602086019062000422565b508151620001dc90600190602085019062000422565b5060ff81166080524660a052620001f262000386565b60c052505050506001600160a01b0391821660e08190526101008690528383166101208190529287166101405260405163095ea7b360e01b8152600481019390935260001960248401529163095ea7b391506044016020604051808303816000875af115801562000267573d6000803e3d6000fd5b505050506040513d601f19601f820116820180604052508101906200028d9190620006ee565b50816001600160a01b031663095ea7b3610140516001600160a01b031663f046ee5c6040518163ffffffff1660e01b8152600401602060405180830381865afa158015620002df573d6000803e3d6000fd5b505050506040513d601f19601f8201168201806040525081019062000305919062000712565b6040516001600160e01b031960e084901b1681526001600160a01b03909116600482015260001960248201526044016020604051808303816000875af115801562000354573d6000803e3d6000fd5b505050506040513d601f19601f820116820180604052508101906200037a9190620006ee565b50505050505062000813565b60007f8b73c3c69bb8fe3d512ecc4cf759cc79239f7b179b0ffacaa9a75d522b39400f6000604051620003ba91906200076f565b6040805191829003822060208301939093528101919091527fc89efdaa54c0f20c7adf612882df0950f5a951637e0307cdcb4c672f298b8bc660608201524660808201523060a082015260c00160405160208183030381529060405280519060200120905090565b828054620004309062000732565b90600052602060002090601f0160209004810192826200045457600085556200049f565b82601f106200046f57805160ff19168380011785556200049f565b828001600101855582156200049f579182015b828111156200049f57825182559160200191906001019062000482565b50620004ad929150620004b1565b5090565b5b80821115620004ad5760008155600101620004b2565b6001600160a01b0381168114620004de57600080fd5b50565b600080600080600060a08688031215620004fa57600080fd5b85516200050781620004c8565b60208701519095506200051a81620004c8565b6040870151606088015191955093506200053481620004c8565b60808701519092506200054781620004c8565b809150509295509295909350565b634e487b7160e01b600052604160045260246000fd5b60005b83811015620005885781810151838201526020016200056e565b8381111562000598576000848401525b50505050565b600060208284031215620005b157600080fd5b81516001600160401b0380821115620005c957600080fd5b818401915084601f830112620005de57600080fd5b815181811115620005f357620005f362000555565b604051601f8201601f19908116603f011681019083821181831017156200061e576200061e62000555565b816040528281528760208487010111156200063857600080fd5b6200064b8360208301602088016200056b565b979650505050505050565b65026b4b230b9960d51b815260008251620006798160068501602087016200056b565b650815985d5b1d60d21b6006939091019283015250600c01919050565b6136bb60f11b815260008251620006b58160028501602087016200056b565b9190910160020192915050565b600060208284031215620006d557600080fd5b815160ff81168114620006e757600080fd5b9392505050565b6000602082840312156200070157600080fd5b81518015158114620006e757600080fd5b6000602082840312156200072557600080fd5b8151620006e781620004c8565b600181811c908216806200074757607f821691505b602082108114156200076957634e487b7160e01b600052602260045260246000fd5b50919050565b600080835481600182811c9150808316806200078c57607f831692505b6020808410821415620007ad57634e487b7160e01b86526022600452602486fd5b818015620007c45760018114620007d65762000805565b60ff1986168952848901965062000805565b60008a81526020902060005b86811015620007fd5781548b820152908501908301620007e2565b505084890196505b509498975050505050505050565b60805160a05160c05160e051610100516101205161014051611692620008b460003960006103cb01526000818161035e015281816105410152818161113b01526111e0015260008181610322015281816105120152818161110e01526111b30152600081816102d0015281816108be0152818161095a01528181610b550152610c9e01526000610815015260006107e50152600061028f01526116926000f3fe608060405234801561001057600080fd5b50600436106101f05760003560e01c806370a082311161010f578063ba087652116100a2578063d505accf11610071578063d505accf14610487578063d905777e1461049c578063dd62ed3e146104c5578063ef8b30f7146104f057600080fd5b8063ba08765214610461578063c63d75b614610344578063c6e6f59214610474578063ce96cb771461030a57600080fd5b806395d89b41116100de57806395d89b4114610420578063a9059cbb14610428578063b3d7f6b91461043b578063b460af941461044e57600080fd5b806370a08231146103a65780637acf5b92146103c65780637ecebe00146103ed57806394bf804d1461040d57600080fd5b80633644e51511610187578063402d267d11610156578063402d267d14610344578063465f0fbd146103595780634cdad506146103805780636e553f651461039357600080fd5b80633644e515146102c357806338d52e0f146102cb5780633af9e6691461030a5780633e0dc34e1461031d57600080fd5b80630a28a477116101c35780630a28a4771461025b57806318160ddd1461026e57806323b872dd14610277578063313ce5671461028a57600080fd5b806301e1d114146101f557806306fdde031461021057806307a2d13a14610225578063095ea7b314610238575b600080fd5b6101fd610503565b6040519081526020015b60405180910390f35b6102186105b9565b60405161020791906112f7565b6101fd61023336600461134c565b610647565b61024b610246366004611381565b610674565b6040519015158152602001610207565b6101fd61026936600461134c565b6106e1565b6101fd60025481565b61024b6102853660046113ab565b610701565b6102b17f000000000000000000000000000000000000000000000000000000000000000081565b60405160ff9091168152602001610207565b6101fd6107e1565b6102f27f000000000000000000000000000000000000000000000000000000000000000081565b6040516001600160a01b039091168152602001610207565b6101fd6103183660046113e7565b610837565b6101fd7f000000000000000000000000000000000000000000000000000000000000000081565b6101fd6103523660046113e7565b5060001990565b6102f27f000000000000000000000000000000000000000000000000000000000000000081565b6101fd61038e36600461134c565b610859565b6101fd6103a1366004611402565b610864565b6101fd6103b43660046113e7565b60036020526000908152604090205481565b6102f27f000000000000000000000000000000000000000000000000000000000000000081565b6101fd6103fb3660046113e7565b60056020526000908152604090205481565b6101fd61041b366004611402565b610940565b6102186109dc565b61024b610436366004611381565b6109e9565b6101fd61044936600461134c565b610a4f565b6101fd61045c36600461142e565b610a6e565b6101fd61046f36600461142e565b610b7c565b6101fd61048236600461134c565b610cc5565b61049a61049536600461146a565b610ce5565b005b6101fd6104aa3660046113e7565b6001600160a01b031660009081526003602052604090205490565b6101fd6104d33660046114dd565b600460209081526000928352604080842090915290825290205481565b6101fd6104fe36600461134c565b610f29565b604051631ee136bb60e21b81527f000000000000000000000000000000000000000000000000000000000000000060048201523060248201526000907f00000000000000000000000000000000000000000000000000000000000000006001600160a01b031690637b84daec90604401602060405180830381865afa158015610590573d6000803e3d6000fd5b505050506040513d601f19601f820116820180604052508101906105b49190611507565b905090565b600080546105c690611520565b80601f01602080910402602001604051908101604052809291908181526020018280546105f290611520565b801561063f5780601f106106145761010080835404028352916020019161063f565b820191906000526020600020905b81548152906001019060200180831161062257829003601f168201915b505050505081565b600254600090801561066b5761066661065e610503565b849083610f34565b61066d565b825b9392505050565b3360008181526004602090815260408083206001600160a01b038716808552925280832085905551919290917f8c5be1e5ebec7d5bd14f71427d1e84f3dd0314c0f7b2291e5b200ac8c7c3b925906106cf9086815260200190565b60405180910390a35060015b92915050565b600254600090801561066b57610666816106f9610503565b859190610f53565b6001600160a01b0383166000908152600460209081526040808320338452909152812054600019811461075d576107388382611571565b6001600160a01b03861660009081526004602090815260408083203384529091529020555b6001600160a01b03851660009081526003602052604081208054859290610785908490611571565b90915550506001600160a01b038085166000818152600360205260409081902080548701905551909187169060008051602061163d833981519152906107ce9087815260200190565b60405180910390a3506001949350505050565b60007f00000000000000000000000000000000000000000000000000000000000000004614610812576105b4610f81565b507f000000000000000000000000000000000000000000000000000000000000000090565b6001600160a01b0381166000908152600360205260408120546106db90610647565b60006106db82610647565b600061086f83610f29565b9050806108b15760405162461bcd60e51b815260206004820152600b60248201526a5a45524f5f53484152455360a81b60448201526064015b60405180910390fd5b6108e66001600160a01b037f00000000000000000000000000000000000000000000000000000000000000001633308661101b565b6108f082826110a5565b60408051848152602081018390526001600160a01b0384169133917fdcbc1c05240f31ff3ad067ef1ee35ce4997762752e3a095284754544f4c709d7910160405180910390a36106db83826110ff565b600061094b83610a4f565b90506109826001600160a01b037f00000000000000000000000000000000000000000000000000000000000000001633308461101b565b61098c82846110a5565b60408051828152602081018590526001600160a01b0384169133917fdcbc1c05240f31ff3ad067ef1ee35ce4997762752e3a095284754544f4c709d7910160405180910390a36106db81846110ff565b600180546105c690611520565b33600090815260036020526040812080548391908390610a0a908490611571565b90915550506001600160a01b0383166000818152600360205260409081902080548501905551339060008051602061163d833981519152906106cf9086815260200190565b600254600090801561066b57610666610a66610503565b849083610f53565b6000610a79846106e1565b9050336001600160a01b03831614610ae9576001600160a01b03821660009081526004602090815260408083203384529091529020546000198114610ae757610ac28282611571565b6001600160a01b03841660009081526004602090815260408083203384529091529020555b505b610af384826111a4565b610afd8282611217565b60408051858152602081018390526001600160a01b03808516929086169133917ffbde797d201c681b91056529119e0b02407c7bb96a4a2c75c01fc9667232c8db910160405180910390a461066d6001600160a01b037f0000000000000000000000000000000000000000000000000000000000000000168486611279565b6000336001600160a01b03831614610bec576001600160a01b03821660009081526004602090815260408083203384529091529020546000198114610bea57610bc58582611571565b6001600160a01b03841660009081526004602090815260408083203384529091529020555b505b610bf584610859565b905080610c325760405162461bcd60e51b815260206004820152600b60248201526a5a45524f5f41535345545360a81b60448201526064016108a8565b610c3c81856111a4565b610c468285611217565b60408051828152602081018690526001600160a01b03808516929086169133917ffbde797d201c681b91056529119e0b02407c7bb96a4a2c75c01fc9667232c8db910160405180910390a461066d6001600160a01b037f0000000000000000000000000000000000000000000000000000000000000000168483611279565b600254600090801561066b5761066681610cdd610503565b859190610f34565b42841015610d355760405162461bcd60e51b815260206004820152601760248201527f5045524d49545f444541444c494e455f4558504952454400000000000000000060448201526064016108a8565b60006001610d416107e1565b6001600160a01b038a811660008181526005602090815260409182902080546001810190915582517f6e71edae12b1b97f4d1f60370fef10105fa2faae0126114a169c64845d6126c98184015280840194909452938d166060840152608083018c905260a083019390935260c08083018b90528151808403909101815260e08301909152805192019190912061190160f01b6101008301526101028201929092526101228101919091526101420160408051601f198184030181528282528051602091820120600084529083018083525260ff871690820152606081018590526080810184905260a0016020604051602081039080840390855afa158015610e4d573d6000803e3d6000fd5b5050604051601f1901519150506001600160a01b03811615801590610e835750876001600160a01b0316816001600160a01b0316145b610ec05760405162461bcd60e51b815260206004820152600e60248201526d24a72b20a624a22fa9a4a3a722a960911b60448201526064016108a8565b6001600160a01b0390811660009081526004602090815260408083208a8516808552908352928190208990555188815291928a16917f8c5be1e5ebec7d5bd14f71427d1e84f3dd0314c0f7b2291e5b200ac8c7c3b925910160405180910390a350505050505050565b60006106db82610cc5565b828202811515841585830485141716610f4c57600080fd5b0492915050565b828202811515841585830485141716610f6b57600080fd5b6001826001830304018115150290509392505050565b60007f8b73c3c69bb8fe3d512ecc4cf759cc79239f7b179b0ffacaa9a75d522b39400f6000604051610fb39190611588565b6040805191829003822060208301939093528101919091527fc89efdaa54c0f20c7adf612882df0950f5a951637e0307cdcb4c672f298b8bc660608201524660808201523060a082015260c00160405160208183030381529060405280519060200120905090565b60006040516323b872dd60e01b81528460048201528360248201528260448201526020600060648360008a5af13d15601f3d116001600051141617169150508061109e5760405162461bcd60e51b81526020600482015260146024820152731514905394d1915497d19493d357d1905253115160621b60448201526064016108a8565b5050505050565b80600260008282546110b79190611624565b90915550506001600160a01b03821660008181526003602090815260408083208054860190555184815260008051602061163d83398151915291015b60405180910390a35050565b604051631c57762b60e31b81527f00000000000000000000000000000000000000000000000000000000000000006004820152602481018390527f00000000000000000000000000000000000000000000000000000000000000006001600160a01b03169063e2bbb158906044015b600060405180830381600087803b15801561118857600080fd5b505af115801561119c573d6000803e3d6000fd5b505050505050565b604051630441a3e760e41b81527f00000000000000000000000000000000000000000000000000000000000000006004820152602481018390527f00000000000000000000000000000000000000000000000000000000000000006001600160a01b03169063441a3e709060440161116e565b6001600160a01b0382166000908152600360205260408120805483929061123f908490611571565b90915550506002805482900390556040518181526000906001600160a01b0384169060008051602061163d833981519152906020016110f3565b600060405163a9059cbb60e01b8152836004820152826024820152602060006044836000895af13d15601f3d11600160005114161716915050806112f15760405162461bcd60e51b815260206004820152600f60248201526e1514905394d1915497d19052531151608a1b60448201526064016108a8565b50505050565b600060208083528351808285015260005b8181101561132457858101830151858201604001528201611308565b81811115611336576000604083870101525b50601f01601f1916929092016040019392505050565b60006020828403121561135e57600080fd5b5035919050565b80356001600160a01b038116811461137c57600080fd5b919050565b6000806040838503121561139457600080fd5b61139d83611365565b946020939093013593505050565b6000806000606084860312156113c057600080fd5b6113c984611365565b92506113d760208501611365565b9150604084013590509250925092565b6000602082840312156113f957600080fd5b61066d82611365565b6000806040838503121561141557600080fd5b8235915061142560208401611365565b90509250929050565b60008060006060848603121561144357600080fd5b8335925061145360208501611365565b915061146160408501611365565b90509250925092565b600080600080600080600060e0888a03121561148557600080fd5b61148e88611365565b965061149c60208901611365565b95506040880135945060608801359350608088013560ff811681146114c057600080fd5b9699959850939692959460a0840135945060c09093013592915050565b600080604083850312156114f057600080fd5b6114f983611365565b915061142560208401611365565b60006020828403121561151957600080fd5b5051919050565b600181811c9082168061153457607f821691505b6020821081141561155557634e487b7160e01b600052602260045260246000fd5b50919050565b634e487b7160e01b600052601160045260246000fd5b6000828210156115835761158361155b565b500390565b600080835481600182811c9150808316806115a457607f831692505b60208084108214156115c457634e487b7160e01b86526022600452602486fd5b8180156115d857600181146115e957611616565b60ff19861689528489019650611616565b60008a81526020902060005b8681101561160e5781548b8201529085019083016115f5565b505084890196505b509498975050505050505050565b600082198211156116375761163761155b565b50019056feddf252ad1be2c89b69c2b068fc378daa952ba7f163c4a11628f55a4df523b3efa2646970667358221220c8feb4b5c660f820b18b50a5c32d9f7b1d57eb9f70effb8bb88965657a76cd0564736f6c634300080a0033",
    "linkReferences": {}
  }
}