{
  "abi": [
    {
      "anonymous": false,
      "inputs": [
        {
          "indexed": false,
          "internalType": "uint256",
          "name": "cashPrior",
          "type": "uint256"
        },
        {
          "indexed": false,
          "internalType": "uint256",
          "name": "interestAccumulated",
          "type": "uint256"
        },
        {
          "indexed": false,
          "internalType": "uint256",
          "name": "borrowIndex",
          "type": "uint256"
        },
        {
          "indexed": false,
          "internalType": "uint256",
          "name": "totalBorrows",
          "type": "uint256"
        }
      ],
      "name": "AccrueInterest",
      "type": "event"
    },
    {
      "anonymous": false,
      "inputs": [
        {
          "indexed": true,
          "internalType": "address",
          "name": "owner",
          "type": "address"
        },
        {
          "indexed": true,
          "internalType": "address",
          "name": "spender",
          "type": "address"
        },
        {
          "indexed": false,
          "internalType": "uint256",
          "name": "amount",
          "type": "uint256"
        }
      ],
      "name": "Approval",
      "type": "event"
    },
    {
      "anonymous": false,
      "inputs": [
        {
          "indexed": false,
          "internalType": "address",
          "name": "borrower",
          "type": "address"
        },
        {
          "indexed": false,
          "internalType": "uint256",
          "name": "borrowAmount",
          "type": "uint256"
        },
        {
          "indexed": false,
          "internalType": "uint256",
          "name": "accountBorrows",
          "type": "uint256"
        },
        {
          "indexed": false,
          "internalType": "uint256",
          "name": "totalBorrows",
          "type": "uint256"
        }
      ],
      "name": "Borrow",
      "type": "event"
    },
    {
      "anonymous": false,
      "inputs": [
        {
          "indexed": false,
          "internalType": "uint256",
          "name": "error",
          "type": "uint256"
        },
        {
          "indexed": false,
          "internalType": "uint256",
          "name": "info",
          "type": "uint256"
        },
        {
          "indexed": false,
          "internalType": "uint256",
          "name": "detail",
          "type": "uint256"
        }
      ],
      "name": "Failure",
      "type": "event"
    },
    {
      "anonymous": false,
      "inputs": [
        {
          "indexed": false,
          "internalType": "address",
          "name": "liquidator",
          "type": "address"
        },
        {
          "indexed": false,
          "internalType": "address",
          "name": "borrower",
          "type": "address"
        },
        {
          "indexed": false,
          "internalType": "uint256",
          "name": "repayAmount",
          "type": "uint256"
        },
        {
          "indexed": false,
          "internalType": "address",
          "name": "cTokenCollateral",
          "type": "address"
        },
        {
          "indexed": false,
          "internalType": "uint256",
          "name": "seizeTokens",
          "type": "uint256"
        }
      ],
      "name": "LiquidateBorrow",
      "type": "event"
    },
    {
      "anonymous": false,
      "inputs": [
        {
          "indexed": false,
          "internalType": "address",
          "name": "minter",
          "type": "address"
        },
        {
          "indexed": false,
          "internalType": "uint256",
          "name": "mintAmount",
          "type": "uint256"
        },
        {
          "indexed": false,
          "internalType": "uint256",
          "name": "mintTokens",
          "type": "uint256"
        }
      ],
      "name": "Mint",
      "type": "event"
    },
    {
      "anonymous": false,
      "inputs": [
        {
          "indexed": false,
          "internalType": "uint256",
          "name": "oldAdminFeeMantissa",
          "type": "uint256"
        },
        {
          "indexed": false,
          "internalType": "uint256",
          "name": "newAdminFeeMantissa",
          "type": "uint256"
        }
      ],
      "name": "NewAdminFee",
      "type": "event"
    },
    {
      "anonymous": false,
      "inputs": [
        {
          "indexed": false,
          "internalType": "contract ComptrollerInterface",
          "name": "oldComptroller",
          "type": "address"
        },
        {
          "indexed": false,
          "internalType": "contract ComptrollerInterface",
          "name": "newComptroller",
          "type": "address"
        }
      ],
      "name": "NewComptroller",
      "type": "event"
    },
    {
      "anonymous": false,
      "inputs": [
        {
          "indexed": false,
          "internalType": "uint256",
          "name": "oldFuseFeeMantissa",
          "type": "uint256"
        },
        {
          "indexed": false,
          "internalType": "uint256",
          "name": "newFuseFeeMantissa",
          "type": "uint256"
        }
      ],
      "name": "NewFuseFee",
      "type": "event"
    },
    {
      "anonymous": false,
      "inputs": [
        {
          "indexed": false,
          "internalType": "address",
          "name": "oldImplementation",
          "type": "address"
        },
        {
          "indexed": false,
          "internalType": "address",
          "name": "newImplementation",
          "type": "address"
        }
      ],
      "name": "NewImplementation",
      "type": "event"
    },
    {
      "anonymous": false,
      "inputs": [
        {
          "indexed": false,
          "internalType": "contract InterestRateModel",
          "name": "oldInterestRateModel",
          "type": "address"
        },
        {
          "indexed": false,
          "internalType": "contract InterestRateModel",
          "name": "newInterestRateModel",
          "type": "address"
        }
      ],
      "name": "NewMarketInterestRateModel",
      "type": "event"
    },
    {
      "anonymous": false,
      "inputs": [
        {
          "indexed": false,
          "internalType": "uint256",
          "name": "oldReserveFactorMantissa",
          "type": "uint256"
        },
        {
          "indexed": false,
          "internalType": "uint256",
          "name": "newReserveFactorMantissa",
          "type": "uint256"
        }
      ],
      "name": "NewReserveFactor",
      "type": "event"
    },
    {
      "anonymous": false,
      "inputs": [
        {
          "indexed": false,
          "internalType": "address",
          "name": "redeemer",
          "type": "address"
        },
        {
          "indexed": false,
          "internalType": "uint256",
          "name": "redeemAmount",
          "type": "uint256"
        },
        {
          "indexed": false,
          "internalType": "uint256",
          "name": "redeemTokens",
          "type": "uint256"
        }
      ],
      "name": "Redeem",
      "type": "event"
    },
    {
      "anonymous": false,
      "inputs": [
        {
          "indexed": false,
          "internalType": "address",
          "name": "payer",
          "type": "address"
        },
        {
          "indexed": false,
          "internalType": "address",
          "name": "borrower",
          "type": "address"
        },
        {
          "indexed": false,
          "internalType": "uint256",
          "name": "repayAmount",
          "type": "uint256"
        },
        {
          "indexed": false,
          "internalType": "uint256",
          "name": "accountBorrows",
          "type": "uint256"
        },
        {
          "indexed": false,
          "internalType": "uint256",
          "name": "totalBorrows",
          "type": "uint256"
        }
      ],
      "name": "RepayBorrow",
      "type": "event"
    },
    {
      "anonymous": false,
      "inputs": [
        {
          "indexed": false,
          "internalType": "address",
          "name": "benefactor",
          "type": "address"
        },
        {
          "indexed": false,
          "internalType": "uint256",
          "name": "addAmount",
          "type": "uint256"
        },
        {
          "indexed": false,
          "internalType": "uint256",
          "name": "newTotalReserves",
          "type": "uint256"
        }
      ],
      "name": "ReservesAdded",
      "type": "event"
    },
    {
      "anonymous": false,
      "inputs": [
        {
          "indexed": false,
          "internalType": "address",
          "name": "admin",
          "type": "address"
        },
        {
          "indexed": false,
          "internalType": "uint256",
          "name": "reduceAmount",
          "type": "uint256"
        },
        {
          "indexed": false,
          "internalType": "uint256",
          "name": "newTotalReserves",
          "type": "uint256"
        }
      ],
      "name": "ReservesReduced",
      "type": "event"
    },
    {
      "anonymous": false,
      "inputs": [
        {
          "indexed": true,
          "internalType": "address",
          "name": "from",
          "type": "address"
        },
        {
          "indexed": true,
          "internalType": "address",
          "name": "to",
          "type": "address"
        },
        {
          "indexed": false,
          "internalType": "uint256",
          "name": "amount",
          "type": "uint256"
        }
      ],
      "name": "Transfer",
      "type": "event"
    },
    {
      "inputs": [
        {
          "internalType": "bytes",
          "name": "data",
          "type": "bytes"
        }
      ],
      "name": "_becomeImplementation",
      "outputs": [],
      "stateMutability": "nonpayable",
      "type": "function"
    },
    {
      "inputs": [
        {
          "internalType": "address",
          "name": "compLikeDelegatee",
          "type": "address"
        }
      ],
      "name": "_delegateCompLikeTo",
      "outputs": [],
      "stateMutability": "nonpayable",
      "type": "function"
    },
    {
      "inputs": [],
      "name": "_prepare",
      "outputs": [],
      "stateMutability": "payable",
      "type": "function"
    },
    {
      "inputs": [
        {
          "internalType": "uint256",
          "name": "reduceAmount",
          "type": "uint256"
        }
      ],
      "name": "_reduceReserves",
      "outputs": [
        {
          "internalType": "uint256",
          "name": "",
          "type": "uint256"
        }
      ],
      "stateMutability": "nonpayable",
      "type": "function"
    },
    {
      "inputs": [
        {
          "internalType": "uint256",
          "name": "newAdminFeeMantissa",
          "type": "uint256"
        }
      ],
      "name": "_setAdminFee",
      "outputs": [
        {
          "internalType": "uint256",
          "name": "",
          "type": "uint256"
        }
      ],
      "stateMutability": "nonpayable",
      "type": "function"
    },
    {
      "inputs": [
        {
          "internalType": "address",
          "name": "implementation_",
          "type": "address"
        },
        {
          "internalType": "bool",
          "name": "allowResign",
          "type": "bool"
        },
        {
          "internalType": "bytes",
          "name": "becomeImplementationData",
          "type": "bytes"
        }
      ],
      "name": "_setImplementationSafe",
      "outputs": [],
      "stateMutability": "nonpayable",
      "type": "function"
    },
    {
      "inputs": [
        {
          "internalType": "contract InterestRateModel",
          "name": "newInterestRateModel",
          "type": "address"
        }
      ],
      "name": "_setInterestRateModel",
      "outputs": [
        {
          "internalType": "uint256",
          "name": "",
          "type": "uint256"
        }
      ],
      "stateMutability": "nonpayable",
      "type": "function"
    },
    {
      "inputs": [
        {
          "internalType": "string",
          "name": "_name",
          "type": "string"
        },
        {
          "internalType": "string",
          "name": "_symbol",
          "type": "string"
        }
      ],
      "name": "_setNameAndSymbol",
      "outputs": [],
      "stateMutability": "nonpayable",
      "type": "function"
    },
    {
      "inputs": [
        {
          "internalType": "uint256",
          "name": "newReserveFactorMantissa",
          "type": "uint256"
        }
      ],
      "name": "_setReserveFactor",
      "outputs": [
        {
          "internalType": "uint256",
          "name": "",
          "type": "uint256"
        }
      ],
      "stateMutability": "nonpayable",
      "type": "function"
    },
    {
      "inputs": [
        {
          "internalType": "uint256",
          "name": "withdrawAmount",
          "type": "uint256"
        }
      ],
      "name": "_withdrawAdminFees",
      "outputs": [
        {
          "internalType": "uint256",
          "name": "",
          "type": "uint256"
        }
      ],
      "stateMutability": "nonpayable",
      "type": "function"
    },
    {
      "inputs": [
        {
          "internalType": "uint256",
          "name": "withdrawAmount",
          "type": "uint256"
        }
      ],
      "name": "_withdrawFuseFees",
      "outputs": [
        {
          "internalType": "uint256",
          "name": "",
          "type": "uint256"
        }
      ],
      "stateMutability": "nonpayable",
      "type": "function"
    },
    {
      "inputs": [],
      "name": "accrualBlockNumber",
      "outputs": [
        {
          "internalType": "uint256",
          "name": "",
          "type": "uint256"
        }
      ],
      "stateMutability": "view",
      "type": "function"
    },
    {
      "inputs": [],
      "name": "accrueInterest",
      "outputs": [
        {
          "internalType": "uint256",
          "name": "",
          "type": "uint256"
        }
      ],
      "stateMutability": "nonpayable",
      "type": "function"
    },
    {
      "inputs": [],
      "name": "adminFeeMantissa",
      "outputs": [
        {
          "internalType": "uint256",
          "name": "",
          "type": "uint256"
        }
      ],
      "stateMutability": "view",
      "type": "function"
    },
    {
      "inputs": [
        {
          "internalType": "address",
          "name": "owner",
          "type": "address"
        },
        {
          "internalType": "address",
          "name": "spender",
          "type": "address"
        }
      ],
      "name": "allowance",
      "outputs": [
        {
          "internalType": "uint256",
          "name": "",
          "type": "uint256"
        }
      ],
      "stateMutability": "view",
      "type": "function"
    },
    {
      "inputs": [
        {
          "internalType": "address",
          "name": "spender",
          "type": "address"
        },
        {
          "internalType": "uint256",
          "name": "amount",
          "type": "uint256"
        }
      ],
      "name": "approve",
      "outputs": [
        {
          "internalType": "bool",
          "name": "",
          "type": "bool"
        }
      ],
      "stateMutability": "nonpayable",
      "type": "function"
    },
    {
      "inputs": [
        {
          "internalType": "address",
          "name": "_token",
          "type": "address"
        },
        {
          "internalType": "address",
          "name": "_spender",
          "type": "address"
        }
      ],
      "name": "approve",
      "outputs": [],
      "stateMutability": "nonpayable",
      "type": "function"
    },
    {
      "inputs": [
        {
          "internalType": "address",
          "name": "owner",
          "type": "address"
        }
      ],
      "name": "balanceOf",
      "outputs": [
        {
          "internalType": "uint256",
          "name": "",
          "type": "uint256"
        }
      ],
      "stateMutability": "view",
      "type": "function"
    },
    {
      "inputs": [
        {
          "internalType": "address",
          "name": "owner",
          "type": "address"
        }
      ],
      "name": "balanceOfUnderlying",
      "outputs": [
        {
          "internalType": "uint256",
          "name": "",
          "type": "uint256"
        }
      ],
      "stateMutability": "nonpayable",
      "type": "function"
    },
    {
      "inputs": [
        {
          "internalType": "uint256",
          "name": "borrowAmount",
          "type": "uint256"
        }
      ],
      "name": "borrow",
      "outputs": [
        {
          "internalType": "uint256",
          "name": "",
          "type": "uint256"
        }
      ],
      "stateMutability": "nonpayable",
      "type": "function"
    },
    {
      "inputs": [
        {
          "internalType": "address",
          "name": "account",
          "type": "address"
        }
      ],
      "name": "borrowBalanceCurrent",
      "outputs": [
        {
          "internalType": "uint256",
          "name": "",
          "type": "uint256"
        }
      ],
      "stateMutability": "nonpayable",
      "type": "function"
    },
    {
      "inputs": [
        {
          "internalType": "address",
          "name": "account",
          "type": "address"
        }
      ],
      "name": "borrowBalanceStored",
      "outputs": [
        {
          "internalType": "uint256",
          "name": "",
          "type": "uint256"
        }
      ],
      "stateMutability": "view",
      "type": "function"
    },
    {
      "inputs": [],
      "name": "borrowIndex",
      "outputs": [
        {
          "internalType": "uint256",
          "name": "",
          "type": "uint256"
        }
      ],
      "stateMutability": "view",
      "type": "function"
    },
    {
      "inputs": [],
      "name": "borrowRatePerBlock",
      "outputs": [
        {
          "internalType": "uint256",
          "name": "",
          "type": "uint256"
        }
      ],
      "stateMutability": "view",
      "type": "function"
    },
    {
      "inputs": [],
      "name": "claim",
      "outputs": [],
      "stateMutability": "nonpayable",
      "type": "function"
    },
    {
      "inputs": [],
      "name": "comptroller",
      "outputs": [
        {
          "internalType": "contract ComptrollerInterface",
          "name": "",
          "type": "address"
        }
      ],
      "stateMutability": "view",
      "type": "function"
    },
    {
      "inputs": [],
      "name": "decimals",
      "outputs": [
        {
          "internalType": "uint8",
          "name": "",
          "type": "uint8"
        }
      ],
      "stateMutability": "view",
      "type": "function"
    },
    {
      "inputs": [],
      "name": "exchangeRateCurrent",
      "outputs": [
        {
          "internalType": "uint256",
          "name": "",
          "type": "uint256"
        }
      ],
      "stateMutability": "nonpayable",
      "type": "function"
    },
    {
      "inputs": [],
      "name": "exchangeRateStored",
      "outputs": [
        {
          "internalType": "uint256",
          "name": "",
          "type": "uint256"
        }
      ],
      "stateMutability": "view",
      "type": "function"
    },
    {
      "inputs": [],
      "name": "feeSeizeShareMantissa",
      "outputs": [
        {
          "internalType": "uint256",
          "name": "",
          "type": "uint256"
        }
      ],
      "stateMutability": "view",
      "type": "function"
    },
    {
      "inputs": [],
      "name": "fuseAdmin",
      "outputs": [
        {
          "internalType": "address payable",
          "name": "",
          "type": "address"
        }
      ],
      "stateMutability": "view",
      "type": "function"
    },
    {
      "inputs": [],
      "name": "fuseFeeMantissa",
      "outputs": [
        {
          "internalType": "uint256",
          "name": "",
          "type": "uint256"
        }
      ],
      "stateMutability": "view",
      "type": "function"
    },
    {
      "inputs": [
        {
          "internalType": "address",
          "name": "account",
          "type": "address"
        }
      ],
      "name": "getAccountSnapshot",
      "outputs": [
        {
          "internalType": "uint256",
          "name": "",
          "type": "uint256"
        },
        {
          "internalType": "uint256",
          "name": "",
          "type": "uint256"
        },
        {
          "internalType": "uint256",
          "name": "",
          "type": "uint256"
        },
        {
          "internalType": "uint256",
          "name": "",
          "type": "uint256"
        }
      ],
      "stateMutability": "view",
      "type": "function"
    },
    {
      "inputs": [],
      "name": "getCash",
      "outputs": [
        {
          "internalType": "uint256",
          "name": "",
          "type": "uint256"
        }
      ],
      "stateMutability": "view",
      "type": "function"
    },
    {
      "inputs": [],
      "name": "implementation",
      "outputs": [
        {
          "internalType": "address",
          "name": "",
          "type": "address"
        }
      ],
      "stateMutability": "view",
      "type": "function"
    },
    {
      "inputs": [
        {
          "internalType": "address",
          "name": "underlying_",
          "type": "address"
        },
        {
          "internalType": "contract ComptrollerInterface",
          "name": "comptroller_",
          "type": "address"
        },
        {
          "internalType": "address payable",
          "name": "fuseAdmin_",
          "type": "address"
        },
        {
          "internalType": "contract InterestRateModel",
          "name": "interestRateModel_",
          "type": "address"
        },
        {
          "internalType": "string",
          "name": "name_",
          "type": "string"
        },
        {
          "internalType": "string",
          "name": "symbol_",
          "type": "string"
        },
        {
          "internalType": "uint256",
          "name": "reserveFactorMantissa_",
          "type": "uint256"
        },
        {
          "internalType": "uint256",
          "name": "adminFeeMantissa_",
          "type": "uint256"
        }
      ],
      "name": "initialize",
      "outputs": [],
      "stateMutability": "nonpayable",
      "type": "function"
    },
    {
      "inputs": [
        {
          "internalType": "contract ComptrollerInterface",
          "name": "comptroller_",
          "type": "address"
        },
        {
          "internalType": "address payable",
          "name": "fuseAdmin_",
          "type": "address"
        },
        {
          "internalType": "contract InterestRateModel",
          "name": "interestRateModel_",
          "type": "address"
        },
        {
          "internalType": "uint256",
          "name": "initialExchangeRateMantissa_",
          "type": "uint256"
        },
        {
          "internalType": "string",
          "name": "name_",
          "type": "string"
        },
        {
          "internalType": "string",
          "name": "symbol_",
          "type": "string"
        },
        {
          "internalType": "uint8",
          "name": "decimals_",
          "type": "uint8"
        },
        {
          "internalType": "uint256",
          "name": "reserveFactorMantissa_",
          "type": "uint256"
        },
        {
          "internalType": "uint256",
          "name": "adminFeeMantissa_",
          "type": "uint256"
        }
      ],
      "name": "initialize",
      "outputs": [],
      "stateMutability": "nonpayable",
      "type": "function"
    },
    {
      "inputs": [],
      "name": "interestRateModel",
      "outputs": [
        {
          "internalType": "contract InterestRateModel",
          "name": "",
          "type": "address"
        }
      ],
      "stateMutability": "view",
      "type": "function"
    },
    {
      "inputs": [],
      "name": "isCEther",
      "outputs": [
        {
          "internalType": "bool",
          "name": "",
          "type": "bool"
        }
      ],
      "stateMutability": "nonpayable",
      "type": "function"
    },
    {
      "inputs": [],
      "name": "isCToken",
      "outputs": [
        {
          "internalType": "bool",
          "name": "",
          "type": "bool"
        }
      ],
      "stateMutability": "nonpayable",
      "type": "function"
    },
    {
      "inputs": [
        {
          "internalType": "address",
          "name": "borrower",
          "type": "address"
        },
        {
          "internalType": "uint256",
          "name": "repayAmount",
          "type": "uint256"
        },
        {
          "internalType": "contract CTokenInterface",
          "name": "cTokenCollateral",
          "type": "address"
        }
      ],
      "name": "liquidateBorrow",
      "outputs": [
        {
          "internalType": "uint256",
          "name": "",
          "type": "uint256"
        }
      ],
      "stateMutability": "nonpayable",
      "type": "function"
    },
    {
      "inputs": [
        {
          "internalType": "uint256",
          "name": "mintAmount",
          "type": "uint256"
        }
      ],
      "name": "mint",
      "outputs": [
        {
          "internalType": "uint256",
          "name": "",
          "type": "uint256"
        }
      ],
      "stateMutability": "nonpayable",
      "type": "function"
    },
    {
      "inputs": [],
      "name": "name",
      "outputs": [
        {
          "internalType": "string",
          "name": "",
          "type": "string"
        }
      ],
      "stateMutability": "view",
      "type": "function"
    },
    {
      "inputs": [],
      "name": "protocolSeizeShareMantissa",
      "outputs": [
        {
          "internalType": "uint256",
          "name": "",
          "type": "uint256"
        }
      ],
      "stateMutability": "view",
      "type": "function"
    },
    {
      "inputs": [
        {
          "internalType": "uint256",
          "name": "redeemTokens",
          "type": "uint256"
        }
      ],
      "name": "redeem",
      "outputs": [
        {
          "internalType": "uint256",
          "name": "",
          "type": "uint256"
        }
      ],
      "stateMutability": "nonpayable",
      "type": "function"
    },
    {
      "inputs": [
        {
          "internalType": "uint256",
          "name": "redeemAmount",
          "type": "uint256"
        }
      ],
      "name": "redeemUnderlying",
      "outputs": [
        {
          "internalType": "uint256",
          "name": "",
          "type": "uint256"
        }
      ],
      "stateMutability": "nonpayable",
      "type": "function"
    },
    {
      "inputs": [
        {
          "internalType": "uint256",
          "name": "repayAmount",
          "type": "uint256"
        }
      ],
      "name": "repayBorrow",
      "outputs": [
        {
          "internalType": "uint256",
          "name": "",
          "type": "uint256"
        }
      ],
      "stateMutability": "nonpayable",
      "type": "function"
    },
    {
      "inputs": [
        {
          "internalType": "address",
          "name": "borrower",
          "type": "address"
        },
        {
          "internalType": "uint256",
          "name": "repayAmount",
          "type": "uint256"
        }
      ],
      "name": "repayBorrowBehalf",
      "outputs": [
        {
          "internalType": "uint256",
          "name": "",
          "type": "uint256"
        }
      ],
      "stateMutability": "nonpayable",
      "type": "function"
    },
    {
      "inputs": [],
      "name": "reserveFactorMantissa",
      "outputs": [
        {
          "internalType": "uint256",
          "name": "",
          "type": "uint256"
        }
      ],
      "stateMutability": "view",
      "type": "function"
    },
    {
      "inputs": [
        {
          "internalType": "address",
          "name": "liquidator",
          "type": "address"
        },
        {
          "internalType": "address",
          "name": "borrower",
          "type": "address"
        },
        {
          "internalType": "uint256",
          "name": "seizeTokens",
          "type": "uint256"
        }
      ],
      "name": "seize",
      "outputs": [
        {
          "internalType": "uint256",
          "name": "",
          "type": "uint256"
        }
      ],
      "stateMutability": "nonpayable",
      "type": "function"
    },
    {
      "inputs": [],
      "name": "supplyRatePerBlock",
      "outputs": [
        {
          "internalType": "uint256",
          "name": "",
          "type": "uint256"
        }
      ],
      "stateMutability": "view",
      "type": "function"
    },
    {
      "inputs": [],
      "name": "symbol",
      "outputs": [
        {
          "internalType": "string",
          "name": "",
          "type": "string"
        }
      ],
      "stateMutability": "view",
      "type": "function"
    },
    {
      "inputs": [],
      "name": "totalAdminFees",
      "outputs": [
        {
          "internalType": "uint256",
          "name": "",
          "type": "uint256"
        }
      ],
      "stateMutability": "view",
      "type": "function"
    },
    {
      "inputs": [],
      "name": "totalBorrows",
      "outputs": [
        {
          "internalType": "uint256",
          "name": "",
          "type": "uint256"
        }
      ],
      "stateMutability": "view",
      "type": "function"
    },
    {
      "inputs": [],
      "name": "totalBorrowsCurrent",
      "outputs": [
        {
          "internalType": "uint256",
          "name": "",
          "type": "uint256"
        }
      ],
      "stateMutability": "nonpayable",
      "type": "function"
    },
    {
      "inputs": [],
      "name": "totalFuseFees",
      "outputs": [
        {
          "internalType": "uint256",
          "name": "",
          "type": "uint256"
        }
      ],
      "stateMutability": "view",
      "type": "function"
    },
    {
      "inputs": [],
      "name": "totalReserves",
      "outputs": [
        {
          "internalType": "uint256",
          "name": "",
          "type": "uint256"
        }
      ],
      "stateMutability": "view",
      "type": "function"
    },
    {
      "inputs": [],
      "name": "totalSupply",
      "outputs": [
        {
          "internalType": "uint256",
          "name": "",
          "type": "uint256"
        }
      ],
      "stateMutability": "view",
      "type": "function"
    },
    {
      "inputs": [
        {
          "internalType": "address",
          "name": "dst",
          "type": "address"
        },
        {
          "internalType": "uint256",
          "name": "amount",
          "type": "uint256"
        }
      ],
      "name": "transfer",
      "outputs": [
        {
          "internalType": "bool",
          "name": "",
          "type": "bool"
        }
      ],
      "stateMutability": "nonpayable",
      "type": "function"
    },
    {
      "inputs": [
        {
          "internalType": "address",
          "name": "src",
          "type": "address"
        },
        {
          "internalType": "address",
          "name": "dst",
          "type": "address"
        },
        {
          "internalType": "uint256",
          "name": "amount",
          "type": "uint256"
        }
      ],
      "name": "transferFrom",
      "outputs": [
        {
          "internalType": "bool",
          "name": "",
          "type": "bool"
        }
      ],
      "stateMutability": "nonpayable",
      "type": "function"
    },
    {
      "inputs": [],
      "name": "underlying",
      "outputs": [
        {
          "internalType": "address",
          "name": "",
          "type": "address"
        }
      ],
      "stateMutability": "view",
      "type": "function"
    }
  ],
  "bytecode": {
    "object": "0x608060405234801561001057600080fd5b50615f2180620000216000396000f3fe6080604052600436106103a25760003560e01c80637e5465ba116101e7578063ae9d70b01161010d578063dc028ab1116100a0578063f5e3c4621161006f578063f5e3c46214610a83578063f8f9da2814610aa3578063fca7820b14610ab8578063fe9c44ae14610ad857600080fd5b8063dc028ab1146109e7578063dd62ed3e146109fd578063f2b3abbd14610a43578063f3fdb15a14610a6357600080fd5b8063c37f68e2116100dc578063c37f68e214610951578063c5ebeaec14610991578063db006a75146109b1578063dbfe7c19146109d157600080fd5b8063ae9d70b0146108eb578063b2a02ff114610900578063bd6d894d14610920578063be99f1191461093557600080fd5b806395dd919311610185578063a7b820df11610154578063a7b820df14610881578063a9059cbb146108a1578063aa5af0fd146108c1578063ac784ddc146108d757600080fd5b806395dd91931461080c578063a03dce8d1461082c578063a0712d681461084c578063a6afed951461086c57600080fd5b80638d02d9a1116101c15780638d02d9a1146107ab5780638f840ddd146107c157806391dd36c6146107d757806395d89b41146107f757600080fd5b80637e5465ba1461074b5780637f1e06be1461076b578063852a12e31461078b57600080fd5b80633af9e669116102cc5780635fe3b5671161026a5780636c540baf116102395780636c540baf146106ca5780636f307dc3146106e057806370a082311461070057806373acee981461073657600080fd5b80635fe3b56714610659578063601a0bf11461067957806361feacff146106995780636752e702146106af57600080fd5b80634e71d92d116102a65780634e71d92d146105ea57806350d85b73146105f957806356e67728146106195780635c60da1b1461063957600080fd5b80633af9e6691461059f5780633b1d21a2146105bf57806347bd3718146105d457600080fd5b806318160ddd1161034457806323b872dd1161031357806323b872dd146105135780632608f81814610533578063313ce5671461055357806334154d4c1461057f57600080fd5b806318160ddd146104c0578063182df0f5146104d65780631db78944146104eb578063219ef65c146104f357600080fd5b80630e752702116103805780630e7527021461042457806315761d5114610452578063173b99041461048a57806317bfdfbc146104a057600080fd5b806306db3ecd146103a757806306fdde03146103c9578063095ea7b3146103f4575b600080fd5b3480156103b357600080fd5b506103c76103c23660046157da565b610aec565b005b3480156103d557600080fd5b506103de610bfa565b6040516103eb91906158f4565b60405180910390f35b34801561040057600080fd5b5061041461040f366004615907565b610c88565b60405190151581526020016103eb565b34801561043057600080fd5b5061044461043f366004615933565b610cf8565b6040519081526020016103eb565b34801561045e57600080fd5b50600154610472906001600160a01b031681565b6040516001600160a01b0390911681526020016103eb565b34801561049657600080fd5b50610444600b5481565b3480156104ac57600080fd5b506104446104bb36600461594c565b610d0c565b3480156104cc57600080fd5b5061044460125481565b3480156104e257600080fd5b50610444610d63565b6103c7610df4565b3480156104ff57600080fd5b506103c761050e366004615983565b610f25565b34801561051f57600080fd5b5061041461052e366004615a4b565b611254565b34801561053f57600080fd5b5061044461054e366004615907565b61127a565b34801561055f57600080fd5b5060055461056d9060ff1681565b60405160ff90911681526020016103eb565b34801561058b57600080fd5b506103c761059a366004615ace565b611290565b3480156105ab57600080fd5b506104446105ba36600461594c565b6112f7565b3480156105cb57600080fd5b506104446113a7565b3480156105e057600080fd5b50610444600e5481565b3480156105f657600080fd5b50005b34801561060557600080fd5b506103c7610614366004615b48565b6113b6565b34801561062557600080fd5b506103c7610634366004615ba1565b61143a565b34801561064557600080fd5b50600054610472906001600160a01b031681565b34801561066557600080fd5b50600654610472906001600160a01b031681565b34801561068557600080fd5b50610444610694366004615933565b611493565b3480156106a557600080fd5b5061044460105481565b3480156106bb57600080fd5b50610444666379da05b6000081565b3480156106d657600080fd5b50610444600c5481565b3480156106ec57600080fd5b50601654610472906001600160a01b031681565b34801561070c57600080fd5b5061044461071b36600461594c565b6001600160a01b031660009081526013602052604090205490565b34801561074257600080fd5b506104446114ea565b34801561075757600080fd5b506103c7610766366004615be3565b61152f565b34801561077757600080fd5b506103c761078636600461594c565b61162c565b34801561079757600080fd5b506104446107a6366004615933565b6116f1565b3480156107b757600080fd5b5061044460095481565b3480156107cd57600080fd5b50610444600f5481565b3480156107e357600080fd5b506104446107f2366004615933565b6116fc565b34801561080357600080fd5b506103de61173f565b34801561081857600080fd5b5061044461082736600461594c565b61174c565b34801561083857600080fd5b50610444610847366004615933565b6117ed565b34801561085857600080fd5b50610444610867366004615933565b611830565b34801561087857600080fd5b5061044461183c565b34801561088d57600080fd5b5061044461089c366004615933565b6119f3565b3480156108ad57600080fd5b506104146108bc366004615907565b611a36565b3480156108cd57600080fd5b50610444600d5481565b3480156108e357600080fd5b506000610414565b3480156108f757600080fd5b50610444611a63565b34801561090c57600080fd5b5061044461091b366004615a4b565b611b26565b34801561092c57600080fd5b50610444611b4a565b34801561094157600080fd5b5061044467016345785d8a000081565b34801561095d57600080fd5b5061097161096c36600461594c565b611b90565b6040805194855260208501939093529183015260608201526080016103eb565b34801561099d57600080fd5b506104446109ac366004615933565b611c31565b3480156109bd57600080fd5b506104446109cc366004615933565b611c3c565b3480156109dd57600080fd5b50610444600a5481565b3480156109f357600080fd5b5061044460115481565b348015610a0957600080fd5b50610444610a18366004615be3565b6001600160a01b03918216600090815260146020908152604080832093909416825291909152205490565b348015610a4f57600080fd5b50610444610a5e36600461594c565b611c47565b348015610a6f57600080fd5b50600754610472906001600160a01b031681565b348015610a8f57600080fd5b50610444610a9e366004615c1c565b611c7f565b348015610aaf57600080fd5b50610444611c97565b348015610ac457600080fd5b50610444610ad3366004615933565b611cfb565b348015610ae457600080fd5b506001610414565b60006702c68af0bb14000090506000896001600160a01b031663313ce5676040518163ffffffff1660e01b8152600401602060405180830381865afa158015610b39573d6000803e3d6000fd5b505050506040513d601f19601f82011682018060405250810190610b5d9190615c5e565b9050610b70898989858a8a878b8b610f25565b601680546001600160a01b0319166001600160a01b038c16908117909155604080516318160ddd60e01b815290516318160ddd916004808201926020929091908290030181865afa158015610bc9573d6000803e3d6000fd5b505050506040513d601f19601f82011682018060405250810190610bed9190615c7b565b5050505050505050505050565b60038054610c0790615c94565b80601f0160208091040260200160405190810160405280929190818152602001828054610c3390615c94565b8015610c805780601f10610c5557610100808354040283529160200191610c80565b820191906000526020600020905b815481529060010190602001808311610c6357829003601f168201915b505050505081565b3360008181526014602090815260408083206001600160a01b03871680855292528083208590555191929182907f8c5be1e5ebec7d5bd14f71427d1e84f3dd0314c0f7b2291e5b200ac8c7c3b92590610ce49087815260200190565b60405180910390a360019150505b92915050565b600080610d0483611d3e565b509392505050565b600080610d1881611da6565b6000610d2261183c565b14610d485760405162461bcd60e51b8152600401610d3f90615cdf565b60405180910390fd5b610d518361174c565b91505b610d5d81611e6a565b50919050565b6000806000610d70611ed5565b90925090506000826003811115610d8957610d89615cc9565b14610cf25760405162461bcd60e51b815260206004820152603560248201527f65786368616e67655261746553746f7265643a2065786368616e67655261746560448201527414dd1bdc9959125b9d195c9b985b0819985a5b1959605a1b6064820152608401610d3f565b333014801590610e765750600660009054906101000a90046001600160a01b03166001600160a01b031663dd5cd22c6040518163ffffffff1660e01b8152600401602060405180830381865afa158015610e52573d6000803e3d6000fd5b505050506040513d601f19601f82011682018060405250810190610e769190615d0f565b15610f2357600154600080546040516345cc970560e01b81526001600160a01b039182166004820152919283928392909116906345cc970590602401600060405180830381865afa158015610ecf573d6000803e3d6000fd5b505050506040513d6000823e601f3d908101601f19168201604052610ef79190810190615d2c565b60005492955090935091506001600160a01b03808516911614610f1f57610f1f838383611fa2565b5050505b565b336001600160a01b03891614610f8f5760405162461bcd60e51b815260206004820152602960248201527f6f6e6c7920467573652061646d696e206d617920696e697469616c697a6520746044820152681a19481b585c9ad95d60ba1b6064820152608401610d3f565b600c54158015610f9f5750600d54155b610ff75760405162461bcd60e51b815260206004820152602360248201527f6d61726b6574206d6179206f6e6c7920626520696e697469616c697a6564206f6044820152626e636560e81b6064820152608401610d3f565b600180546001600160a01b0319166001600160a01b038a1617905560088690558561107d5760405162461bcd60e51b815260206004820152603060248201527f696e697469616c2065786368616e67652072617465206d75737420626520677260448201526f32b0ba32b9103a3430b7103d32b9379760811b6064820152608401610d3f565b60006110888a612127565b905080156110d85760405162461bcd60e51b815260206004820152601a60248201527f73657474696e6720636f6d7074726f6c6c6572206661696c65640000000000006044820152606401610d3f565b43600c55670de0b6b3a7640000600d556110f188612252565b9050801561114c5760405162461bcd60e51b815260206004820152602260248201527f73657474696e6720696e7465726573742072617465206d6f64656c206661696c604482015261195960f21b6064820152608401610d3f565b855161115f9060039060208901906155e7565b5084516111739060049060208801906155e7565b506005805460ff191660ff861617905561118c836124c2565b905080156111dc5760405162461bcd60e51b815260206004820152601d60248201527f73657474696e67207265736572766520666163746f72206661696c65640000006044820152606401610d3f565b6111e582612561565b905080156112355760405162461bcd60e51b815260206004820152601860248201527f73657474696e672061646d696e20666565206661696c656400000000000000006044820152606401610d3f565b50506002805460ff60b01b1916600160b01b1790555050505050505050565b60008061126081611da6565b600061126e3387878761267b565b149150610d0481611e6a565b6000806112878484612919565b50949350505050565b611298612983565b6112d75760405162461bcd60e51b815260206004820152601060248201526f31b0b63632b9103737ba1030b236b4b760811b6044820152606401610d3f565b6112e360038585615667565b506112f060048383615667565b5050505050565b600080604051806020016040528061130d611b4a565b90526001600160a01b038416600090815260136020526040812054919250908190611339908490612aee565b9092509050600082600381111561135257611352615cc9565b1461139f5760405162461bcd60e51b815260206004820152601f60248201527f62616c616e636520636f756c64206e6f742062652063616c63756c61746564006044820152606401610d3f565b949350505050565b60006113b1612b41565b905090565b6113be612983565b6113f35760405162461bcd60e51b815260206004820152600660248201526510b0b236b4b760d11b6044820152606401610d3f565b611434848484848080601f016020809104026020016040519081016040528093929190818152602001838380828437600092019190915250611fa292505050565b50505050565b3330148061144b575061144b612983565b61147f5760405162461bcd60e51b815260206004820152600560248201526410b9b2b63360d91b6044820152606401610d3f565b5050600280546001600160b01b0319169055565b60008061149f81611da6565b60006114a961183c565b905080156114d5576114cd8160118111156114c6576114c6615cc9565b603b612bb0565b925050610d54565b6114de84612c29565b925050610d5d81611e6a565b6000806114f681611da6565b600061150061183c565b1461151d5760405162461bcd60e51b8152600401610d3f90615cdf565b600e54915061152b81611e6a565b5090565b611537612983565b61156c5760405162461bcd60e51b815260206004820152600660248201526510b0b236b4b760d11b6044820152606401610d3f565b6016546001600160a01b03838116911614156115b85760405162461bcd60e51b815260206004820152600b60248201526a21756e6465726c79696e6760a81b6044820152606401610d3f565b60405163095ea7b360e01b81526001600160a01b038281166004830152600019602483015283169063095ea7b3906044016020604051808303816000875af1158015611608573d6000803e3d6000fd5b505050506040513d601f19601f82011682018060405250810190610f1f9190615d0f565b611634612983565b6116965760405162461bcd60e51b815260206004820152602d60248201527f6f6e6c79207468652061646d696e206d6179207365742074686520636f6d702d60448201526c6c696b652064656c656761746560981b6064820152608401610d3f565b6016546040516317066a5760e21b81526001600160a01b03838116600483015290911690635c19a95c90602401600060405180830381600087803b1580156116dd57600080fd5b505af11580156112f0573d6000803e3d6000fd5b6000610cf282612cda565b60008061170881611da6565b600061171261183c565b90508015611736576114cd81601181111561172f5761172f615cc9565b6052612bb0565b6114de84612561565b60048054610c0790615c94565b600080600061175a84612d20565b9092509050600082600381111561177357611773615cc9565b146117e65760405162461bcd60e51b815260206004820152603760248201527f626f72726f7742616c616e636553746f7265643a20626f72726f7742616c616e60448201527f636553746f726564496e7465726e616c206661696c65640000000000000000006064820152608401610d3f565b9392505050565b6000806117f981611da6565b600061180361183c565b90508015611827576114cd81601181111561182057611820615cc9565b6033612bb0565b6114de84612dd9565b600080610d0483612e4c565b600c5460009043908114156118545760005b91505090565b600061185e612b41565b90506000600760009054906101000a90046001600160a01b03166001600160a01b03166315f2405383600e546118a3600f5461189e601054601154612e92565b612e92565b6040516001600160e01b031960e086901b168152600481019390935260248301919091526044820152606401602060405180830381865afa1580156118ec573d6000803e3d6000fd5b505050506040513d601f19601f820116820180604052508101906119109190615c7b565b905065048c273950008111156119685760405162461bcd60e51b815260206004820152601c60248201527f626f72726f772072617465206973206162737572646c792068696768000000006044820152606401610d3f565b60008061197785600c54612ec8565b9092509050600082600381111561199057611990615cc9565b146119dd5760405162461bcd60e51b815260206004820152601f60248201527f636f756c64206e6f742063616c63756c61746520626c6f636b2064656c7461006044820152606401610d3f565b6119e985858584612ef3565b9550505050505090565b6000806119ff81611da6565b6000611a0961183c565b90508015611a2d576114cd816011811115611a2657611a26615cc9565b6037612bb0565b6114de8461301f565b600080611a4281611da6565b6000611a503333878761267b565b149150611a5c81611e6a565b5092915050565b6007546000906001600160a01b031663b8168816611a7f612b41565b600e54611a96600f5461189e601054601154612e92565b600954600a54600b54611aa99190615de2565b611ab39190615de2565b6040516001600160e01b031960e087901b16815260048101949094526024840192909252604483015260648201526084015b602060405180830381865afa158015611b02573d6000803e3d6000fd5b505050506040513d601f19601f820116820180604052508101906113b19190615c7b565b60006001611b3381611da6565b611b3f338686866130fd565b9150610d0481611e6a565b600080611b5681611da6565b6000611b6061183c565b14611b7d5760405162461bcd60e51b8152600401610d3f90615cdf565b611b85610d63565b915061152b81611e6a565b6001600160a01b038116600090815260136020526040812054819081908190818080611bbb89612d20565b935090506000816003811115611bd357611bd3615cc9565b14611bf15760095b6000806000975097509750975050505050611c2a565b611bf9611ed5565b925090506000816003811115611c1157611c11615cc9565b14611c1d576009611bdb565b5060009650919450925090505b9193509193565b6000610cf2826135fa565b6000610cf28261363e565b600080611c5261183c565b90508015611c76576117e6816011811115611c6f57611c6f615cc9565b604b612bb0565b6117e683612252565b600080611c8d85858561367d565b5095945050505050565b6007546000906001600160a01b03166315f24053611cb3612b41565b600e54611cca600f5461189e601054601154612e92565b6040516001600160e01b031960e086901b168152600481019390935260248301919091526044820152606401611ae5565b600080611d0781611da6565b6000611d1161183c565b90508015611d35576114cd816011811115611d2e57611d2e615cc9565b6059612bb0565b6114de846124c2565b6000806000611d4c81611da6565b6000611d5661183c565b90508015611d8657611d7a816011811115611d7357611d73615cc9565b6041612bb0565b60009350935050611d97565b611d91333387613771565b93509350505b611da081611e6a565b50915091565b600254600160b01b900460ff16611dec5760405162461bcd60e51b815260206004820152600a6024820152691c994b595b9d195c995960b21b6044820152606401610d3f565b80611e5a57600660009054906101000a90046001600160a01b03166001600160a01b031663c90c20b16040518163ffffffff1660e01b8152600401600060405180830381600087803b158015611e4157600080fd5b505af1158015611e55573d6000803e3d6000fd5b505050505b506002805460ff60b01b19169055565b6002805460ff60b01b1916600160b01b17905580611ed257600660009054906101000a90046001600160a01b03166001600160a01b031663632e51426040518163ffffffff1660e01b8152600401600060405180830381600087803b1580156116dd57600080fd5b50565b601254600090819080611eef575050600854600092909150565b6000611ef9612b41565b90506000611f136040518060200160405280600081525090565b6000611f3584600e54611f30600f5461189e601054601154612e92565b613b8b565b935090506000816003811115611f4d57611f4d615cc9565b14611f5f579660009650945050505050565b611f698386613bdd565b925090506000816003811115611f8157611f81615cc9565b14611f93579660009650945050505050565b50516000969095509350505050565b6001546000546040516338e6a07360e11b81526001600160a01b039182166004820152858216602482015284151560448201529116906371cd40e690606401602060405180830381865afa158015611ffe573d6000803e3d6000fd5b505050506040513d601f19601f820116820180604052508101906120229190615d0f565b6120565760405162461bcd60e51b8152602060048201526005602482015264085a5b5c1b60da1b6044820152606401610d3f565b600080546001600160a01b038581166001600160a01b03198316179092556040519116906120d990309061208e9085906024016158f4565b60408051601f19818403018152918152602080830180516001600160e01b0316630adccee560e31b17905281518083019092526007825266216265636f6d6560c81b90820152613ca8565b50600054604080516001600160a01b03808516825290921660208301527fd604de94d45953f9138079ec1b82d533cb2160c906d1076d1f7ed54befbca97a910160405180910390a150505050565b600080600660009054906101000a90046001600160a01b03169050826001600160a01b0316627e3dd26040518163ffffffff1660e01b8152600401602060405180830381865afa15801561217f573d6000803e3d6000fd5b505050506040513d601f19601f820116820180604052508101906121a39190615d0f565b6121ef5760405162461bcd60e51b815260206004820152601c60248201527f6d61726b6572206d6574686f642072657475726e65642066616c7365000000006044820152606401610d3f565b600680546001600160a01b0319166001600160a01b0385811691821790925560408051928416835260208301919091527f7ac369dbd14fa5ea3f473ed67cc9d598964a77501540ba6751eb0b3decf5870d91015b60405180910390a160006117e6565b60008061225d612983565b61226d576117e66001604d612bb0565b43600c5414612282576117e6600a604c612bb0565b600760009054906101000a90046001600160a01b03169050826001600160a01b0316632191f92a6040518163ffffffff1660e01b8152600401602060405180830381865afa1580156122d8573d6000803e3d6000fd5b505050506040513d601f19601f820116820180604052508101906122fc9190615d0f565b6123485760405162461bcd60e51b815260206004820152601c60248201527f6d61726b6572206d6574686f642072657475726e65642066616c7365000000006044820152606401610d3f565b600780546001600160a01b0319166001600160a01b0385811691821790925560408051928416835260208301919091527fedffc32e068c7c95dfd4bdfd5c4d939a084d6b11c4199eac8436ed234d72f926910160405180910390a16001600160a01b038116156124365760408051600481526024810182526020810180516001600160e01b0316636cc1140b60e11b17905290516001600160a01b038316916123f091615dfa565b6000604051808303816000865af19150503d806000811461242d576040519150601f19603f3d011682016040523d82523d6000602084013e612432565b606091505b5050505b60408051600481526024810182526020810180516001600160e01b031663742a137b60e11b17905290516001600160a01b0385169161247491615dfa565b6000604051808303816000865af19150503d80600081146124b1576040519150601f19603f3d011682016040523d82523d6000602084013e6124b6565b606091505b50600091506117e69050565b60006124cc612983565b6124dc57610cf26001605a612bb0565b43600c54146124f157610cf2600a605b612bb0565b670de0b6b3a764000061251161250984600954612e92565b600a54612e92565b111561252357610cf26002605c612bb0565b600b80549083905560408051828152602081018590527faaa68312e2ea9d50e16af5068410ab56e1a1fd06037b1a35664812c30f8214609101612243565b600043600c541461257857610cf2600a6054612bb0565b6000198214156125885760095491505b6000612592613d44565b9050670de0b6b3a76400006125b26125ac600b5486612e92565b83612e92565b11156125c4576117e660026055612bb0565b8260095414612628576125d5612983565b6125e5576117e660016053612bb0565b600980549084905560408051828152602081018690527fcdd0b588250e1398549f79cfdb8217c186688822905d6715b0834ea1c865594a910160405180910390a1505b80600a541461267457600a80549082905560408051828152602081018490527f92eef861b6533b7d3417f39c2ad7b460eed4e88a32fa3604f30e718b7602e7dc910160405180910390a1505b60006117e6565b6006546040516317b9b84b60e31b81523060048201526001600160a01b038581166024830152848116604483015260648201849052600092839291169063bdcdc258906084016020604051808303816000875af11580156126e0573d6000803e3d6000fd5b505050506040513d601f19601f820116820180604052508101906127049190615c7b565b90508015612721576127196003605d83613d8e565b91505061139f565b836001600160a01b0316856001600160a01b03161415612747576127196002605e612bb0565b6000856001600160a01b0316876001600160a01b0316141561276c5750600019612794565b506001600160a01b038086166000908152601460209081526040808320938a16835292905220545b6000806000806127a48589612ec8565b909450925060008460038111156127bd576127bd615cc9565b146127db576127ce6009605e612bb0565b965050505050505061139f565b6001600160a01b038a166000908152601360205260409020546127fe9089612ec8565b9094509150600084600381111561281757612817615cc9565b14612828576127ce6009605f612bb0565b6001600160a01b03891660009081526013602052604090205461284b9089613e30565b9094509050600084600381111561286457612864615cc9565b14612875576127ce60096060612bb0565b6001600160a01b03808b16600090815260136020526040808220859055918b1681522081905560001985146128cd576001600160a01b03808b166000908152601460209081526040808320938f168352929052208390555b886001600160a01b03168a6001600160a01b0316600080516020615ef58339815191528a60405161290091815260200190565b60405180910390a35060009a9950505050505050505050565b600080600061292781611da6565b600061293161183c565b905080156129615761295581601181111561294e5761294e615cc9565b6040612bb0565b60009350935050612972565b61296c338787613771565b93509350505b61297b81611e6a565b509250929050565b600654604080516303e1469160e61b815290516000926001600160a01b031691829163f851a440916004808201926020929091908290030181865afa1580156129d0573d6000803e3d6000fd5b505050506040513d601f19601f820116820180604052508101906129f49190615e16565b6001600160a01b0316336001600160a01b0316148015612a715750806001600160a01b0316630a755ec26040518163ffffffff1660e01b8152600401602060405180830381865afa158015612a4d573d6000803e3d6000fd5b505050506040513d601f19601f82011682018060405250810190612a719190615d0f565b8061184e57506001546001600160a01b03163314801561184e5750806001600160a01b0316632f1069ba6040518163ffffffff1660e01b8152600401602060405180830381865afa158015612aca573d6000803e3d6000fd5b505050506040513d601f19601f8201168201806040525081019061184e9190615d0f565b600080600080612afe8686613e60565b90925090506000826003811115612b1757612b17615cc9565b14612b285750915060009050612b3a565b6000612b3382613edc565b9350935050505b9250929050565b6016546040516370a0823160e01b81523060048201526000916001600160a01b03169081906370a0823190602401602060405180830381865afa158015612b8c573d6000803e3d6000fd5b505050506040513d601f19601f8201168201806040525081019061184e9190615c7b565b60007f45b96fe442630264581b197e84bbada861235052c5a1aadfff9ea4e40a969aa0836011811115612be557612be5615cc9565b836063811115612bf757612bf7615cc9565b60408051928352602083019190915260009082015260600160405180910390a18260118111156117e6576117e6615cc9565b600080612c34612983565b612c44576117e66001603c612bb0565b43600c5414612c59576117e6600a603e612bb0565b82612c62612b41565b1015612c74576117e6600e603d612bb0565b600f54831115612c8a576117e66002603f612bb0565b612c96600f5484613ef4565b600f8190559050612ca73384613f2e565b7f3bad0c59cf2f06e7314077049f48a93578cd16f5ef92329f1dab1420a99c177e33848360405161224393929190615e33565b600080612ce681611da6565b6000612cf061183c565b90508015612d14576114cd816011811115612d0d57612d0d615cc9565b602a612bb0565b6114de33600086613fb3565b6001600160a01b038116600090815260156020526040812080548291829182918291612d555750600096879650945050505050565b612d658160000154600d54614539565b90945092506000846003811115612d7e57612d7e615cc9565b14612d9157509195600095509350505050565b612d9f838260010154614583565b90945091506000846003811115612db857612db8615cc9565b14612dcb57509195600095509350505050565b506000969095509350505050565b60008043600c5414612df1576117e6600a6035612bb0565b82612dfa612b41565b1015612e0c576117e6600e6034612bb0565b601154831115612e22576117e660026036612bb0565b612e2e60115484613ef4565b6011819055600154909150612674906001600160a01b031684613f2e565b6000806000612e5a81611da6565b6000612e6461183c565b90508015612e8857611d7a816011811115612e8157612e81615cc9565b6020612bb0565b611d9133866145ae565b60006117e68383604051806040016040528060118152602001706164646974696f6e206f766572666c6f7760781b81525061496c565b600080838311612ee7576000612ede8486615e54565b91509150612b3a565b50600390506000612b3a565b600080612f0e6040518060200160405280868152508461499d565b90506000612f1e82600e546149ce565b90506000612f2e82600e54612e92565b90506000612f4f6040518060200160405280600b5481525084600f546149e6565b90506000612f706040518060200160405280600a54815250856011546149e6565b90506000612f916040518060200160405280600954815250866010546149e6565b90506000612fa487600d54600d546149e6565b600c8d9055600d819055600e869055600f85905560118490556010839055604080518d815260208101899052908101829052606081018790529091507f4dec04e750ca11537cabcd8a9eab06494de08da3735bc8871cd41250e190bc049060800160405180910390a160009c9b505050505050505050505050565b60008043600c5414613037576117e6600a6039612bb0565b82613040612b41565b1015613052576117e6600e6038612bb0565b601054831115613068576117e66002603a612bb0565b61307460105484613ef4565b905080601081905550612674600660009054906101000a90046001600160a01b03166001600160a01b031663f851a4406040518163ffffffff1660e01b8152600401602060405180830381865afa1580156130d3573d6000803e3d6000fd5b505050506040513d601f19601f820116820180604052508101906130f79190615e16565b84613f2e565b60065460405163d02f735160e01b81523060048201526001600160a01b0386811660248301528581166044830152848116606483015260848201849052600092839291169063d02f73519060a4016020604051808303816000875af115801561316a573d6000803e3d6000fd5b505050506040513d601f19601f8201168201806040525081019061318e9190615c7b565b905080156131a3576127196003601d83613d8e565b846001600160a01b0316846001600160a01b031614156131c9576127196006601e612bb0565b61322e604080516101808101909152806000815260200160008152602001600081526020016000815260200160008152602001600081526020016000815260200160008152602001600081526020016000815260200160008152602001600081525090565b6001600160a01b0385166000908152601360205260409020546132519085612ec8565b602083018190528282600381111561326b5761326b615cc9565b600381111561327c5761327c615cc9565b905250600090508151600381111561329657613296615cc9565b146132c6576132bd6009601c836000015160038111156132b8576132b8615cc9565b613d8e565b9250505061139f565b6132e5846040518060200160405280666379da05b60000815250614a07565b6080820152604080516020810190915267016345785d8a0000815261330b908590614a07565b610140820152608081015161333090613325908690613ef4565b826101400151613ef4565b606082015261333d611ed5565b60c083018190528282600381111561335757613357615cc9565b600381111561336857613368615cc9565b905250600090508151600381111561338257613382615cc9565b146133cf5760405162461bcd60e51b815260206004820152601860248201527f65786368616e67652072617465206d617468206572726f7200000000000000006044820152606401610d3f565b6133ef60405180602001604052808360c0015181525082608001516149ce565b60a0820152604080516020810190915260c0820151815261014082015161341691906149ce565b610160820152600f5460a082015161342e9190612e92565b60e082015260125460808201516134489161332591613ef4565b6101208201526011546101608201516134619190612e92565b6101008201526001600160a01b038616600090815260136020526040902054606082015161348f9190613e30565b60408301819052828260038111156134a9576134a9615cc9565b60038111156134ba576134ba615cc9565b90525060009050815160038111156134d4576134d4615cc9565b146134f6576132bd6009601b836000015160038111156132b8576132b8615cc9565b60e0810151600f556101208101516012556101008101516011556020808201516001600160a01b0387811660008181526013855260408082209490945583860151928b1680825290849020929092556060850151925192835290929091600080516020615ef5833981519152910160405180910390a3306001600160a01b0316856001600160a01b0316600080516020615ef583398151915283608001516040516135a391815260200190565b60405180910390a360a081015160e08201516040517fa91e67c5ea634cd43a12c5a482724b03de01e85ca68702a53d0c2f45cb7c1dc5926135e5923092615e33565b60405180910390a16000979650505050505050565b60008061360681611da6565b600061361061183c565b90508015613634576114cd81601181111561362d5761362d615cc9565b600a612bb0565b6114de3385614a2a565b60008061364a81611da6565b600061365461183c565b90508015613671576114cd816011811115612d0d57612d0d615cc9565b6114de33856000613fb3565b600080600061368b81611da6565b600061369561183c565b905080156136c5576136b98160118111156136b2576136b2615cc9565b6011612bb0565b6000935093505061375f565b846001600160a01b031663a6afed956040518163ffffffff1660e01b81526004016020604051808303816000875af1158015613705573d6000803e3d6000fd5b505050506040513d601f19601f820116820180604052508101906137299190615c7b565b9050801561374d576136b981601181111561374657613746615cc9565b6012612bb0565b61375933888888614dbe565b93509350505b61376881611e6a565b50935093915050565b600654604051631200453160e11b81523060048201526001600160a01b03858116602483015284811660448301526064820184905260009283928392909116906324008a62906084016020604051808303816000875af11580156137d9573d6000803e3d6000fd5b505050506040513d601f19601f820116820180604052508101906137fd9190615c7b565b9050801561381e576138126003604383613d8e565b60009250925050613b83565b43600c541461383357613812600a6044612bb0565b61387c6040805161010081019091528060008152602001600081526020016000815260200160008152602001600081526020016000815260200160008152602001600081525090565b6001600160a01b03861660009081526015602052604090206001015460608201526138a686612d20565b60808301819052602083018260038111156138c3576138c3615cc9565b60038111156138d4576138d4615cc9565b90525060009050816020015160038111156138f1576138f1615cc9565b146139205761391360096042836020015160038111156132b8576132b8615cc9565b6000935093505050613b83565b6000198514156139395760808101516040820152613941565b604081018590525b61394f87826040015161527f565b60e08201819052608082015161396491612ec8565b60a083018190526020830182600381111561398157613981615cc9565b600381111561399257613992615cc9565b90525060009050816020015160038111156139af576139af615cc9565b14613a225760405162461bcd60e51b815260206004820152603a60248201527f52455041595f424f52524f575f4e45575f4143434f554e545f424f52524f575f60448201527f42414c414e43455f43414c43554c4154494f4e5f4641494c45440000000000006064820152608401610d3f565b613a32600e548260e00151612ec8565b60c0830181905260208301826003811115613a4f57613a4f615cc9565b6003811115613a6057613a60615cc9565b9052506000905081602001516003811115613a7d57613a7d615cc9565b14613ae45760405162461bcd60e51b815260206004820152603160248201527f52455041595f424f52524f575f4e45575f544f54414c5f42414c414e43455f43604482015270105310d55310551253d397d19052531151607a1b6064820152608401610d3f565b60a081810180516001600160a01b03898116600081815260156020908152604091829020948555600d5460019095019490945560c0870151600e81905560e088015195518251948f16855294840192909252820193909352606081019190915260808101919091527f1a2a22cb034d26d1854bdc6666a5b91fe25efbbb5dcad3b0355478d6f5c362a1910160405180910390a160e00151600093509150505b935093915050565b600080600080613b9b8787613e30565b90925090506000826003811115613bb457613bb4615cc9565b14613bc55750915060009050613b83565b613bcf8186612ec8565b935093505050935093915050565b6000613bf56040518060200160405280600081525090565b600080613c0a86670de0b6b3a7640000614539565b90925090506000826003811115613c2357613c23615cc9565b14613c4257506040805160208101909152600081529092509050612b3a565b600080613c4f8388614583565b90925090506000826003811115613c6857613c68615cc9565b14613c8b5781604051806020016040528060008152509550955050505050612b3a565b604080516020810190915290815260009890975095505050505050565b6060600080856001600160a01b031685604051613cc59190615dfa565b6000604051808303816000865af19150503d8060008114613d02576040519150601f19603f3d011682016040523d82523d6000602084013e613d07565b606091505b509150915081613d3b57805115613d215780518082602001fd5b8360405162461bcd60e51b8152600401610d3f91906158f4565b95945050505050565b6001546040805163dd86fea160e01b815290516000926001600160a01b03169163dd86fea19160048083019260209291908290030181865afa158015611b02573d6000803e3d6000fd5b60007f45b96fe442630264581b197e84bbada861235052c5a1aadfff9ea4e40a969aa0846011811115613dc357613dc3615cc9565b846063811115613dd557613dd5615cc9565b604080519283526020830191909152810184905260600160405180910390a16003846011811115613e0857613e08615cc9565b14613e2457836011811115613e1f57613e1f615cc9565b61139f565b61139f826103e8615de2565b60008080613e3e8486615de2565b9050848110613e5257600092509050612b3a565b600260009250925050612b3a565b6000613e786040518060200160405280600081525090565b600080613e89866000015186614539565b90925090506000826003811115613ea257613ea2615cc9565b14613ec157506040805160208101909152600081529092509050612b3a565b60408051602081019091529081526000969095509350505050565b8051600090610cf290670de0b6b3a764000090615e6b565b60006117e68383604051806040016040528060158152602001747375627472616374696f6e20756e646572666c6f7760581b815250615449565b604080516001600160a01b038416602482015260448082018490528251808303909101815260649091018252602080820180516001600160e01b031663a9059cbb60e01b1790528251808401909352601983527f544f4b454e5f5452414e534645525f4f55545f4641494c45440000000000000090830152613faf91615478565b5050565b6000821580613fc0575081155b6140295760405162461bcd60e51b815260206004820152603460248201527f6f6e65206f662072656465656d546f6b656e73496e206f722072656465656d416044820152736d6f756e74496e206d757374206265207a65726f60601b6064820152608401610d3f565b61406a6040805160e0810190915280600081526020016000815260200160008152602001600081526020016000815260200160008152602001600081525090565b614072611ed5565b604083018190526020830182600381111561408f5761408f615cc9565b60038111156140a0576140a0615cc9565b90525060009050816020015160038111156140bd576140bd615cc9565b146140e7576140df6009602e836020015160038111156132b8576132b8615cc9565b9150506117e6565b831561418057606081018490526040805160208101825290820151815261410e9085612aee565b608083018190526020830182600381111561412b5761412b615cc9565b600381111561413c5761413c615cc9565b905250600090508160200151600381111561415957614159615cc9565b1461417b576140df6009602c836020015160038111156132b8576132b8615cc9565b614211565b61419c83604051806020016040528084604001518152506154cf565b60608301819052602083018260038111156141b9576141b9615cc9565b60038111156141ca576141ca615cc9565b90525060009050816020015160038111156141e7576141e7615cc9565b14614209576140df6009602d836020015160038111156132b8576132b8615cc9565b608081018390525b600654606082015160405163eabe7d9160e01b81526000926001600160a01b03169163eabe7d919161424a9130918b9190600401615e8d565b6020604051808303816000875af1158015614269573d6000803e3d6000fd5b505050506040513d601f19601f8201168201806040525081019061428d9190615c7b565b905080156142ab576142a26003602b83613d8e565b925050506117e6565b43600c54146142c0576142a2600a602f612bb0565b6142d06012548360600151612ec8565b60a08401819052602084018260038111156142ed576142ed615cc9565b60038111156142fe576142fe615cc9565b905250600090508260200151600381111561431b5761431b615cc9565b1461433d576142a260096031846020015160038111156132b8576132b8615cc9565b6001600160a01b03861660009081526013602052604090205460608301516143659190612ec8565b60c084018190526020840182600381111561438257614382615cc9565b600381111561439357614393615cc9565b90525060009050826020015160038111156143b0576143b0615cc9565b146143d2576142a260096030846020015160038111156132b8576132b8615cc9565b81608001516143df612b41565b10156143f1576142a2600e6032612bb0565b60a082015160125560c08201516001600160a01b0387166000908152601360205260409020556080820151614427908790613f2e565b306001600160a01b0316866001600160a01b0316600080516020615ef5833981519152846060015160405161445e91815260200190565b60405180910390a3608082015160608301516040517fe5b754fb1abb7f01b499791d0b820ae3b6af3424ac1c59768edb53f4ec31a929926144a0928a92615e33565b60405180910390a1600654608083015160608401516040516351dff98960e01b81523060048201526001600160a01b038a81166024830152604482019390935260648101919091529116906351dff98990608401600060405180830381600087803b15801561450e57600080fd5b505af1158015614522573d6000803e3d6000fd5b506000925061452f915050565b9695505050505050565b6000808361454c57506000905080612b3a565b60006145588486615eb1565b9050836145658683615e6b565b1461457857600260009250925050612b3a565b600092509050612b3a565b600080826145975750600190506000612b3a565b60006145a38486615e6b565b915091509250929050565b600654604051634ef4c3e160e01b8152600091829182916001600160a01b031690634ef4c3e1906145e790309089908990600401615e8d565b6020604051808303816000875af1158015614606573d6000803e3d6000fd5b505050506040513d601f19601f8201168201806040525081019061462a9190615c7b565b9050801561464b5761463f6003602183613d8e565b60009250925050612b3a565b43600c54146146605761463f600a6024612bb0565b6146a16040805160e0810190915280600081526020016000815260200160008152602001600081526020016000815260200160008152602001600081525090565b6146a9611ed5565b60408301819052602083018260038111156146c6576146c6615cc9565b60038111156146d7576146d7615cc9565b90525060009050816020015160038111156146f4576146f4615cc9565b146147235761471660096023836020015160038111156132b8576132b8615cc9565b6000935093505050612b3a565b61472d868661527f565b60c082018190526040805160208101825290830151815261474e91906154cf565b606083018190526020830182600381111561476b5761476b615cc9565b600381111561477c5761477c615cc9565b905250600090508160200151600381111561479957614799615cc9565b146147e65760405162461bcd60e51b815260206004820181905260248201527f4d494e545f45584348414e47455f43414c43554c4154494f4e5f4641494c45446044820152606401610d3f565b6147f66012548260600151612e92565b60808201526001600160a01b03861660009081526013602052604090205460608201516148239190612e92565b60a0820181905260808201516012556001600160a01b038716600090815260136020526040908190209190915560c0820151606083015191517f4c209b5fc8ad50758f13e2e1088ba56a560dff690a1c6fef26394f4c03821c4f9261488c928a92909190615e33565b60405180910390a1856001600160a01b0316306001600160a01b0316600080516020615ef583398151915283606001516040516148cb91815260200190565b60405180910390a360065460c082015160608301516040516341c728b960e01b81523060048201526001600160a01b038a81166024830152604482019390935260648101919091529116906341c728b990608401600060405180830381600087803b15801561493957600080fd5b505af115801561494d573d6000803e3d6000fd5b506000925061495a915050565b8160c001519350935050509250929050565b6000806149798486615de2565b905082858210156112875760405162461bcd60e51b8152600401610d3f91906158f4565b60408051602081019091526000815260405180602001604052806149c58560000151856154df565b90529392505050565b6000806149db848461499d565b905061139f81613edc565b6000806149f3858561499d565b9050613d3b614a0182613edc565b84612e92565b6000670de0b6b3a7640000614a208484600001516154df565b6117e69190615e6b565b60065460405163368f515360e21b815260009182916001600160a01b039091169063da3d454c90614a6390309088908890600401615e8d565b6020604051808303816000875af1158015614a82573d6000803e3d6000fd5b505050506040513d601f19601f82011682018060405250810190614aa69190615c7b565b90508015614ac357614abb6003601083613d8e565b915050610cf2565b43600c5414614ad857614abb600a600c612bb0565b6000614ae2612b41565b905083811015614b0157614af8600e600b612bb0565b92505050610cf2565b614b2d604080516080810190915280600081526020016000815260200160008152602001600081525090565b614b3686612d20565b6020830181905282826003811115614b5057614b50615cc9565b6003811115614b6157614b61615cc9565b9052506000905081516003811115614b7b57614b7b615cc9565b14614ba657614b9c600980836000015160038111156132b8576132b8615cc9565b9350505050610cf2565b614bb4816020015186613e30565b6040830181905282826003811115614bce57614bce615cc9565b6003811115614bdf57614bdf615cc9565b9052506000905081516003811115614bf957614bf9615cc9565b14614c1b57614b9c6009600e836000015160038111156132b8576132b8615cc9565b6006546040828101519051631de6c8a560e21b815230600482015260248101919091526001600160a01b039091169063779b2294906044016020604051808303816000875af1158015614c72573d6000803e3d6000fd5b505050506040513d601f19601f82011682018060405250810190614c969190615c7b565b92508215614cab57614b9c6003601085613d8e565b614cb7600e5486613e30565b6060830181905282826003811115614cd157614cd1615cc9565b6003811115614ce257614ce2615cc9565b9052506000905081516003811115614cfc57614cfc615cc9565b14614d1e57614b9c6009600d836000015160038111156132b8576132b8615cc9565b6040808201516001600160a01b0388166000908152601560205291909120908155600d546001909101556060810151600e55614d5a8686613f2e565b60408082015160608084015183516001600160a01b038b168152602081018a9052938401929092528201527f13ed6866d4e1ee6da46f845c46d7e54120883d75c5ea9a2dacc1c4ca8984ab809060800160405180910390a160009695505050505050565b600654604051632fe3f38f60e11b81523060048201526001600160a01b03838116602483015286811660448301528581166064830152608482018590526000928392839290911690635fc7e71e9060a4016020604051808303816000875af1158015614e2e573d6000803e3d6000fd5b505050506040513d601f19601f82011682018060405250810190614e529190615c7b565b90508015614e7357614e676003601483613d8e565b60009250925050615276565b43600c5414614e8857614e67600a6018612bb0565b43846001600160a01b0316636c540baf6040518163ffffffff1660e01b8152600401602060405180830381865afa158015614ec7573d6000803e3d6000fd5b505050506040513d601f19601f82011682018060405250810190614eeb9190615c7b565b14614efc57614e67600a6013612bb0565b866001600160a01b0316866001600160a01b03161415614f2257614e6760066019612bb0565b84614f3357614e6760076017612bb0565b600019851415614f4957614e6760076016612bb0565b600080614f57898989613771565b90925090508115614f8c57614f7e826011811115614f7757614f77615cc9565b601a612bb0565b600094509450505050615276565b60065460405163c488847b60e01b815260009182916001600160a01b039091169063c488847b90614fc59030908c908890600401615e8d565b6040805180830381865afa158015614fe1573d6000803e3d6000fd5b505050506040513d601f19601f820116820180604052508101906150059190615ed0565b909250905081156150745760405162461bcd60e51b815260206004820152603360248201527f4c49515549444154455f434f4d5054524f4c4c45525f43414c43554c4154455f604482015272105353d5539517d4d152569157d19052531151606a1b6064820152608401610d3f565b6040516370a0823160e01b81526001600160a01b038b811660048301528291908a16906370a0823190602401602060405180830381865afa1580156150bd573d6000803e3d6000fd5b505050506040513d601f19601f820116820180604052508101906150e19190615c7b565b101561512f5760405162461bcd60e51b815260206004820152601860248201527f4c49515549444154455f5345495a455f544f4f5f4d55434800000000000000006044820152606401610d3f565b60006001600160a01b0389163014156151555761514e308d8d856130fd565b90506151cb565b60405163b2a02ff160e01b81526001600160a01b038a169063b2a02ff190615185908f908f908790600401615e8d565b6020604051808303816000875af11580156151a4573d6000803e3d6000fd5b505050506040513d601f19601f820116820180604052508101906151c89190615c7b565b90505b80156152105760405162461bcd60e51b81526020600482015260146024820152731d1bdad95b881cd95a5e9d5c994819985a5b195960621b6044820152606401610d3f565b604080516001600160a01b038e811682528d811660208301528183018790528b1660608201526080810184905290517f298637f684da70674f26509b10f07ec2fbc77a335ab1e7d6215a4b2484d8bb529181900360a00190a16000975092955050505050505b94509492505050565b6016546040516370a0823160e01b815230600482015260009182916001600160a01b03909116906370a0823190602401602060405180830381865afa1580156152cc573d6000803e3d6000fd5b505050506040513d601f19601f820116820180604052508101906152f09190615c7b565b90506153806323b872dd60e01b85308660405160240161531293929190615e8d565b604051602081830303815290604052906001600160e01b0319166020820180516001600160e01b0383818316178352505050506040518060400160405280601881526020017f544f4b454e5f5452414e534645525f494e5f4641494c45440000000000000000815250615478565b6016546040516370a0823160e01b81523060048201526000916001600160a01b0316906370a0823190602401602060405180830381865afa1580156153c9573d6000803e3d6000fd5b505050506040513d601f19601f820116820180604052508101906153ed9190615c7b565b90508181101561543f5760405162461bcd60e51b815260206004820152601a60248201527f544f4b454e5f5452414e534645525f494e5f4f564552464c4f570000000000006044820152606401610d3f565b613d3b8282615e54565b6000818484111561546d5760405162461bcd60e51b8152600401610d3f91906158f4565b5061139f8385615e54565b601654600090615492906001600160a01b03168484613ca8565b805190915015610f1f57808060200190518101906154b09190615d0f565b82906114345760405162461bcd60e51b8152600401610d3f91906158f4565b600080600080612afe8686615521565b60006117e683836040518060400160405280601781526020017f6d756c7469706c69636174696f6e206f766572666c6f77000000000000000000815250615594565b60006155396040518060200160405280600081525090565b60008061554e670de0b6b3a764000087614539565b9092509050600082600381111561556757615567615cc9565b1461558657506040805160208101909152600081529092509050612b3a565b612b33818660000151613bdd565b60008315806155a1575082155b156155ae575060006117e6565b60006155ba8486615eb1565b9050836155c78683615e6b565b1483906112875760405162461bcd60e51b8152600401610d3f91906158f4565b8280546155f390615c94565b90600052602060002090601f016020900481019282615615576000855561565b565b82601f1061562e57805160ff191683800117855561565b565b8280016001018555821561565b579182015b8281111561565b578251825591602001919060010190615640565b5061152b9291506156db565b82805461567390615c94565b90600052602060002090601f016020900481019282615695576000855561565b565b82601f106156ae5782800160ff1982351617855561565b565b8280016001018555821561565b579182015b8281111561565b5782358255916020019190600101906156c0565b5b8082111561152b57600081556001016156dc565b6001600160a01b0381168114611ed257600080fd5b8035615710816156f0565b919050565b634e487b7160e01b600052604160045260246000fd5b604051601f8201601f1916810167ffffffffffffffff8111828210171561575457615754615715565b604052919050565b600067ffffffffffffffff82111561577657615776615715565b50601f01601f191660200190565b600082601f83011261579557600080fd5b81356157a86157a38261575c565b61572b565b8181528460208386010111156157bd57600080fd5b816020850160208301376000918101602001919091529392505050565b600080600080600080600080610100898b0312156157f757600080fd5b8835615802816156f0565b97506020890135615812816156f0565b96506040890135615822816156f0565b95506060890135615832816156f0565b9450608089013567ffffffffffffffff8082111561584f57600080fd5b61585b8c838d01615784565b955060a08b013591508082111561587157600080fd5b5061587e8b828c01615784565b93505060c0890135915060e089013590509295985092959890939650565b60005b838110156158b757818101518382015260200161589f565b838111156114345750506000910152565b600081518084526158e081602086016020860161589c565b601f01601f19169290920160200192915050565b6020815260006117e660208301846158c8565b6000806040838503121561591a57600080fd5b8235615925816156f0565b946020939093013593505050565b60006020828403121561594557600080fd5b5035919050565b60006020828403121561595e57600080fd5b81356117e6816156f0565b60ff81168114611ed257600080fd5b803561571081615969565b60008060008060008060008060006101208a8c0312156159a257600080fd5b89356159ad816156f0565b985060208a01356159bd816156f0565b97506159cb60408b01615705565b965060608a0135955060808a013567ffffffffffffffff808211156159ef57600080fd5b6159fb8d838e01615784565b965060a08c0135915080821115615a1157600080fd5b50615a1e8c828d01615784565b945050615a2d60c08b01615978565b925060e08a013591506101008a013590509295985092959850929598565b600080600060608486031215615a6057600080fd5b8335615a6b816156f0565b92506020840135615a7b816156f0565b929592945050506040919091013590565b60008083601f840112615a9e57600080fd5b50813567ffffffffffffffff811115615ab657600080fd5b602083019150836020828501011115612b3a57600080fd5b60008060008060408587031215615ae457600080fd5b843567ffffffffffffffff80821115615afc57600080fd5b615b0888838901615a8c565b90965094506020870135915080821115615b2157600080fd5b50615b2e87828801615a8c565b95989497509550505050565b8015158114611ed257600080fd5b60008060008060608587031215615b5e57600080fd5b8435615b69816156f0565b93506020850135615b7981615b3a565b9250604085013567ffffffffffffffff811115615b9557600080fd5b615b2e87828801615a8c565b60008060208385031215615bb457600080fd5b823567ffffffffffffffff811115615bcb57600080fd5b615bd785828601615a8c565b90969095509350505050565b60008060408385031215615bf657600080fd5b8235615c01816156f0565b91506020830135615c11816156f0565b809150509250929050565b600080600060608486031215615c3157600080fd5b8335615c3c816156f0565b9250602084013591506040840135615c53816156f0565b809150509250925092565b600060208284031215615c7057600080fd5b81516117e681615969565b600060208284031215615c8d57600080fd5b5051919050565b600181811c90821680615ca857607f821691505b60208210811415610d5d57634e487b7160e01b600052602260045260246000fd5b634e487b7160e01b600052602160045260246000fd5b6020808252601690820152751858d8dc9d59481a5b9d195c995cdd0819985a5b195960521b604082015260600190565b600060208284031215615d2157600080fd5b81516117e681615b3a565b600080600060608486031215615d4157600080fd5b8351615d4c816156f0565b6020850151909350615d5d81615b3a565b604085015190925067ffffffffffffffff811115615d7a57600080fd5b8401601f81018613615d8b57600080fd5b8051615d996157a38261575c565b818152876020838501011115615dae57600080fd5b615dbf82602083016020860161589c565b8093505050509250925092565b634e487b7160e01b600052601160045260246000fd5b60008219821115615df557615df5615dcc565b500190565b60008251615e0c81846020870161589c565b9190910192915050565b600060208284031215615e2857600080fd5b81516117e6816156f0565b6001600160a01b039390931683526020830191909152604082015260600190565b600082821015615e6657615e66615dcc565b500390565b600082615e8857634e487b7160e01b600052601260045260246000fd5b500490565b6001600160a01b039384168152919092166020820152604081019190915260600190565b6000816000190483118215151615615ecb57615ecb615dcc565b500290565b60008060408385031215615ee357600080fd5b50508051602090910151909290915056feddf252ad1be2c89b69c2b068fc378daa952ba7f163c4a11628f55a4df523b3efa164736f6c634300080a000a",
    "linkReferences": {}
  },
  "methodIdentifiers": {
    "_becomeImplementation(bytes)": "56e67728",
    "_delegateCompLikeTo(address)": "7f1e06be",
    "_prepare()": "1db78944",
    "_reduceReserves(uint256)": "601a0bf1",
    "_setAdminFee(uint256)": "91dd36c6",
    "_setImplementationSafe(address,bool,bytes)": "50d85b73",
    "_setInterestRateModel(address)": "f2b3abbd",
    "_setNameAndSymbol(string,string)": "34154d4c",
    "_setReserveFactor(uint256)": "fca7820b",
    "_withdrawAdminFees(uint256)": "a7b820df",
    "_withdrawFuseFees(uint256)": "a03dce8d",
    "accrualBlockNumber()": "6c540baf",
    "accrueInterest()": "a6afed95",
    "adminFeeMantissa()": "8d02d9a1",
    "allowance(address,address)": "dd62ed3e",
    "approve(address,address)": "7e5465ba",
    "approve(address,uint256)": "095ea7b3",
    "balanceOf(address)": "70a08231",
    "balanceOfUnderlying(address)": "3af9e669",
    "borrow(uint256)": "c5ebeaec",
    "borrowBalanceCurrent(address)": "17bfdfbc",
    "borrowBalanceStored(address)": "95dd9193",
    "borrowIndex()": "aa5af0fd",
    "borrowRatePerBlock()": "f8f9da28",
    "claim()": "4e71d92d",
    "comptroller()": "5fe3b567",
    "decimals()": "313ce567",
    "exchangeRateCurrent()": "bd6d894d",
    "exchangeRateStored()": "182df0f5",
    "feeSeizeShareMantissa()": "be99f119",
    "fuseAdmin()": "15761d51",
    "fuseFeeMantissa()": "dbfe7c19",
    "getAccountSnapshot(address)": "c37f68e2",
    "getCash()": "3b1d21a2",
    "implementation()": "5c60da1b",
    "initialize(address,address,address,address,string,string,uint256,uint256)": "06db3ecd",
    "initialize(address,address,address,uint256,string,string,uint8,uint256,uint256)": "219ef65c",
    "interestRateModel()": "f3fdb15a",
    "isCEther()": "ac784ddc",
    "isCToken()": "fe9c44ae",
    "liquidateBorrow(address,uint256,address)": "f5e3c462",
    "mint(uint256)": "a0712d68",
    "name()": "06fdde03",
    "protocolSeizeShareMantissa()": "6752e702",
    "redeem(uint256)": "db006a75",
    "redeemUnderlying(uint256)": "852a12e3",
    "repayBorrow(uint256)": "0e752702",
    "repayBorrowBehalf(address,uint256)": "2608f818",
    "reserveFactorMantissa()": "173b9904",
    "seize(address,address,uint256)": "b2a02ff1",
    "supplyRatePerBlock()": "ae9d70b0",
    "symbol()": "95d89b41",
    "totalAdminFees()": "61feacff",
    "totalBorrows()": "47bd3718",
    "totalBorrowsCurrent()": "73acee98",
    "totalFuseFees()": "dc028ab1",
    "totalReserves()": "8f840ddd",
    "totalSupply()": "18160ddd",
    "transfer(address,uint256)": "a9059cbb",
    "transferFrom(address,address,uint256)": "23b872dd",
    "underlying()": "6f307dc3"
  },
  "id": 13
}