{
  "abi": [
    {
      "anonymous": false,
      "inputs": [
        {
          "indexed": false,
          "internalType": "uint8",
          "name": "version",
          "type": "uint8"
        }
      ],
      "name": "Initialized",
      "type": "event"
    },
    {
      "anonymous": false,
      "inputs": [
        {
          "indexed": true,
          "internalType": "address",
          "name": "previousOwner",
          "type": "address"
        },
        {
          "indexed": true,
          "internalType": "address",
          "name": "newOwner",
          "type": "address"
        }
      ],
      "name": "OwnershipTransferred",
      "type": "event"
    },
    {
      "inputs": [
        {
          "internalType": "address[]",
          "name": "targets",
          "type": "address[]"
        },
        {
          "internalType": "bytes[]",
          "name": "data",
          "type": "bytes[]"
        }
      ],
      "name": "_callPool",
      "outputs": [],
      "stateMutability": "nonpayable",
      "type": "function"
    },
    {
      "inputs": [
        {
          "internalType": "address[]",
          "name": "targets",
          "type": "address[]"
        },
        {
          "internalType": "bytes",
          "name": "data",
          "type": "bytes"
        }
      ],
      "name": "_callPool",
      "outputs": [],
      "stateMutability": "nonpayable",
      "type": "function"
    },
    {
      "inputs": [
        {
          "internalType": "address[]",
          "name": "oldImplementations",
          "type": "address[]"
        },
        {
          "internalType": "address[]",
          "name": "newImplementations",
          "type": "address[]"
        },
        {
          "internalType": "bool[]",
          "name": "allowResign",
          "type": "bool[]"
        },
        {
          "internalType": "bool[]",
          "name": "statuses",
          "type": "bool[]"
        }
      ],
      "name": "_editCErc20DelegateWhitelist",
      "outputs": [],
      "stateMutability": "nonpayable",
      "type": "function"
    },
    {
      "inputs": [
        {
          "internalType": "address[]",
          "name": "oldImplementations",
          "type": "address[]"
        },
        {
          "internalType": "address[]",
          "name": "newImplementations",
          "type": "address[]"
        },
        {
          "internalType": "bool[]",
          "name": "allowResign",
          "type": "bool[]"
        },
        {
          "internalType": "bool[]",
          "name": "statuses",
          "type": "bool[]"
        }
      ],
      "name": "_editCEtherDelegateWhitelist",
      "outputs": [],
      "stateMutability": "nonpayable",
      "type": "function"
    },
    {
      "inputs": [
        {
          "internalType": "address[]",
          "name": "oldImplementations",
          "type": "address[]"
        },
        {
          "internalType": "address[]",
          "name": "newImplementations",
          "type": "address[]"
        },
        {
          "internalType": "bool[]",
          "name": "statuses",
          "type": "bool[]"
        }
      ],
      "name": "_editComptrollerImplementationWhitelist",
      "outputs": [],
      "stateMutability": "nonpayable",
      "type": "function"
    },
    {
      "inputs": [
        {
          "internalType": "address",
          "name": "",
          "type": "address"
        }
      ],
      "name": "_latestCErc20Delegate",
      "outputs": [
        {
          "internalType": "address",
          "name": "implementation",
          "type": "address"
        },
        {
          "internalType": "bool",
          "name": "allowResign",
          "type": "bool"
        },
        {
          "internalType": "bytes",
          "name": "becomeImplementationData",
          "type": "bytes"
        }
      ],
      "stateMutability": "view",
      "type": "function"
    },
    {
      "inputs": [
        {
          "internalType": "address",
          "name": "",
          "type": "address"
        }
      ],
      "name": "_latestCEtherDelegate",
      "outputs": [
        {
          "internalType": "address",
          "name": "implementation",
          "type": "address"
        },
        {
          "internalType": "bool",
          "name": "allowResign",
          "type": "bool"
        },
        {
          "internalType": "bytes",
          "name": "becomeImplementationData",
          "type": "bytes"
        }
      ],
      "stateMutability": "view",
      "type": "function"
    },
    {
      "inputs": [
        {
          "internalType": "address",
          "name": "comptroller",
          "type": "address"
        },
        {
          "internalType": "int256",
          "name": "rate",
          "type": "int256"
        }
      ],
      "name": "_setCustomInterestFeeRate",
      "outputs": [],
      "stateMutability": "nonpayable",
      "type": "function"
    },
    {
      "inputs": [
        {
          "internalType": "uint256",
          "name": "_defaultInterestFeeRate",
          "type": "uint256"
        }
      ],
      "name": "_setDefaultInterestFeeRate",
      "outputs": [],
      "stateMutability": "nonpayable",
      "type": "function"
    },
    {
      "inputs": [
        {
          "internalType": "address",
          "name": "oldImplementation",
          "type": "address"
        },
        {
          "internalType": "address",
          "name": "newImplementation",
          "type": "address"
        },
        {
          "internalType": "bool",
          "name": "allowResign",
          "type": "bool"
        },
        {
          "internalType": "bytes",
          "name": "becomeImplementationData",
          "type": "bytes"
        }
      ],
      "name": "_setLatestCErc20Delegate",
      "outputs": [],
      "stateMutability": "nonpayable",
      "type": "function"
    },
    {
      "inputs": [
        {
          "internalType": "address",
          "name": "oldImplementation",
          "type": "address"
        },
        {
          "internalType": "address",
          "name": "newImplementation",
          "type": "address"
        },
        {
          "internalType": "bool",
          "name": "allowResign",
          "type": "bool"
        },
        {
          "internalType": "bytes",
          "name": "becomeImplementationData",
          "type": "bytes"
        }
      ],
      "name": "_setLatestCEtherDelegate",
      "outputs": [],
      "stateMutability": "nonpayable",
      "type": "function"
    },
    {
      "inputs": [
        {
          "internalType": "address",
          "name": "oldImplementation",
          "type": "address"
        },
        {
          "internalType": "address",
          "name": "newImplementation",
          "type": "address"
        }
      ],
      "name": "_setLatestComptrollerImplementation",
      "outputs": [],
      "stateMutability": "nonpayable",
      "type": "function"
    },
    {
      "inputs": [
        {
          "internalType": "uint256",
          "name": "_minBorrowEth",
          "type": "uint256"
        },
        {
          "internalType": "uint256",
          "name": "_maxSupplyEth",
          "type": "uint256"
        },
        {
          "internalType": "uint256",
          "name": "_maxUtilizationRate",
          "type": "uint256"
        }
      ],
      "name": "_setPoolLimits",
      "outputs": [],
      "stateMutability": "nonpayable",
      "type": "function"
    },
    {
      "inputs": [
        {
          "internalType": "address",
          "name": "erc20Contract",
          "type": "address"
        }
      ],
      "name": "_withdrawAssets",
      "outputs": [],
      "stateMutability": "nonpayable",
      "type": "function"
    },
    {
      "inputs": [
        {
          "internalType": "address",
          "name": "",
          "type": "address"
        },
        {
          "internalType": "address",
          "name": "",
          "type": "address"
        },
        {
          "internalType": "bool",
          "name": "",
          "type": "bool"
        }
      ],
      "name": "cErc20DelegateWhitelist",
      "outputs": [
        {
          "internalType": "bool",
          "name": "",
          "type": "bool"
        }
      ],
      "stateMutability": "view",
      "type": "function"
    },
    {
      "inputs": [
        {
          "internalType": "address",
          "name": "",
          "type": "address"
        },
        {
          "internalType": "address",
          "name": "",
          "type": "address"
        },
        {
          "internalType": "bool",
          "name": "",
          "type": "bool"
        }
      ],
      "name": "cEtherDelegateWhitelist",
      "outputs": [
        {
          "internalType": "bool",
          "name": "",
          "type": "bool"
        }
      ],
      "stateMutability": "view",
      "type": "function"
    },
    {
      "inputs": [
        {
          "internalType": "address",
          "name": "",
          "type": "address"
        },
        {
          "internalType": "address",
          "name": "",
          "type": "address"
        }
      ],
      "name": "comptrollerImplementationWhitelist",
      "outputs": [
        {
          "internalType": "bool",
          "name": "",
          "type": "bool"
        }
      ],
      "stateMutability": "view",
      "type": "function"
    },
    {
      "inputs": [
        {
          "internalType": "address",
          "name": "",
          "type": "address"
        }
      ],
      "name": "customInterestFeeRates",
      "outputs": [
        {
          "internalType": "int256",
          "name": "",
          "type": "int256"
        }
      ],
      "stateMutability": "view",
      "type": "function"
    },
    {
      "inputs": [],
      "name": "defaultInterestFeeRate",
      "outputs": [
        {
          "internalType": "uint256",
          "name": "",
          "type": "uint256"
        }
      ],
      "stateMutability": "view",
      "type": "function"
    },
    {
      "inputs": [
        {
          "internalType": "bytes",
          "name": "constructorData",
          "type": "bytes"
        }
      ],
      "name": "deployCErc20",
      "outputs": [
        {
          "internalType": "address",
          "name": "",
          "type": "address"
        }
      ],
      "stateMutability": "nonpayable",
      "type": "function"
    },
    {
      "inputs": [
        {
          "internalType": "bytes",
          "name": "constructorData",
          "type": "bytes"
        }
      ],
      "name": "deployCEther",
      "outputs": [
        {
          "internalType": "address",
          "name": "",
          "type": "address"
        }
      ],
      "stateMutability": "nonpayable",
      "type": "function"
    },
    {
      "inputs": [
        {
          "internalType": "uint256",
          "name": "_defaultInterestFeeRate",
          "type": "uint256"
        }
      ],
      "name": "initialize",
      "outputs": [],
      "stateMutability": "nonpayable",
      "type": "function"
    },
    {
      "inputs": [],
      "name": "interestFeeRate",
      "outputs": [
        {
          "internalType": "uint256",
          "name": "",
          "type": "uint256"
        }
      ],
      "stateMutability": "view",
      "type": "function"
    },
    {
      "inputs": [
        {
          "internalType": "address",
          "name": "oldImplementation",
          "type": "address"
        }
      ],
      "name": "latestCErc20Delegate",
      "outputs": [
        {
          "internalType": "address",
          "name": "",
          "type": "address"
        },
        {
          "internalType": "bool",
          "name": "",
          "type": "bool"
        },
        {
          "internalType": "bytes",
          "name": "",
          "type": "bytes"
        }
      ],
      "stateMutability": "view",
      "type": "function"
    },
    {
      "inputs": [
        {
          "internalType": "address",
          "name": "oldImplementation",
          "type": "address"
        }
      ],
      "name": "latestCEtherDelegate",
      "outputs": [
        {
          "internalType": "address",
          "name": "",
          "type": "address"
        },
        {
          "internalType": "bool",
          "name": "",
          "type": "bool"
        },
        {
          "internalType": "bytes",
          "name": "",
          "type": "bytes"
        }
      ],
      "stateMutability": "view",
      "type": "function"
    },
    {
      "inputs": [
        {
          "internalType": "address",
          "name": "oldImplementation",
          "type": "address"
        }
      ],
      "name": "latestComptrollerImplementation",
      "outputs": [
        {
          "internalType": "address",
          "name": "",
          "type": "address"
        }
      ],
      "stateMutability": "view",
      "type": "function"
    },
    {
      "inputs": [],
      "name": "maxSupplyEth",
      "outputs": [
        {
          "internalType": "uint256",
          "name": "",
          "type": "uint256"
        }
      ],
      "stateMutability": "view",
      "type": "function"
    },
    {
      "inputs": [],
      "name": "maxUtilizationRate",
      "outputs": [
        {
          "internalType": "uint256",
          "name": "",
          "type": "uint256"
        }
      ],
      "stateMutability": "view",
      "type": "function"
    },
    {
      "inputs": [],
      "name": "minBorrowEth",
      "outputs": [
        {
          "internalType": "uint256",
          "name": "",
          "type": "uint256"
        }
      ],
      "stateMutability": "view",
      "type": "function"
    },
    {
      "inputs": [],
      "name": "owner",
      "outputs": [
        {
          "internalType": "address",
          "name": "",
          "type": "address"
        }
      ],
      "stateMutability": "view",
      "type": "function"
    },
    {
      "inputs": [],
      "name": "renounceOwnership",
      "outputs": [],
      "stateMutability": "nonpayable",
      "type": "function"
    },
    {
      "inputs": [
        {
          "internalType": "address",
          "name": "newOwner",
          "type": "address"
        }
      ],
      "name": "transferOwnership",
      "outputs": [],
      "stateMutability": "nonpayable",
      "type": "function"
    },
    {
      "stateMutability": "payable",
      "type": "receive"
    }
  ],
  "bytecode": {
    "object": "0x608060405234801561001057600080fd5b5061384f806100206000396000f3fe6080604052600436106200020f5760003560e01c8063930d24381162000117578063c5232b4711620000a1578063e35a4801116200006c578063e35a4801146200069d578063f2fde38b14620006c2578063fdb25fb114620006e7578063fe4b84df14620006ff57600080fd5b8063c5232b471462000617578063d64517b21462000648578063dd86fea1146200066d578063dfcb48bd146200068557600080fd5b8063a430e61711620000e2578063a430e6171462000563578063b01b86fd1462000588578063bbcdd6d314620005ad578063c11cd44014620005d257600080fd5b8063930d243814620004c25780639b86a9b514620004e75780639c7be708146200050c5780639d244f9f146200052457600080fd5b8063715018a611620001995780638754e4fd11620001645780638754e4fd146200041a5780638abe0b7514620004585780638d3bb8ef146200047d5780638da5cb5b14620004a257600080fd5b8063715018a6146200036057806371cd40e6146200037857806375365b8714620003ce57806384651d7314620003f357600080fd5b80632acbff3911620001da5780632acbff3914620002cc5780632f876d3214620002f15780633465b6e1146200031657806345cc9705146200033b57600080fd5b806301758fc2146200021c5780630284db76146200024357806306bc46111462000282578063183a3f7214620002a757600080fd5b366200021757005b600080fd5b3480156200022957600080fd5b50620002416200023b3660046200230e565b62000724565b005b3480156200025057600080fd5b506200026862000262366004620023f5565b62000949565b604051620002799392919062002476565b60405180910390f35b3480156200028f57600080fd5b5062000241620002a1366004620024ad565b62000a0c565b348015620002b457600080fd5b5062000268620002c6366004620023f5565b62000a80565b348015620002d957600080fd5b5062000241620002eb366004620024dc565b62000aba565b348015620002fe57600080fd5b5062000241620003103660046200254f565b62000c25565b3480156200032357600080fd5b506200024162000335366004620023f5565b62000c60565b3480156200034857600080fd5b50620002686200035a366004620023f5565b62000e9d565b3480156200036d57600080fd5b506200024162000fc5565b3480156200038557600080fd5b50620003bd620003973660046200258b565b606a60209081526000938452604080852082529284528284209052825290205460ff1681565b604051901515815260200162000279565b348015620003db57600080fd5b5062000241620003ed36600462002622565b62001000565b3480156200040057600080fd5b506200040b60655481565b60405190815260200162000279565b3480156200042757600080fd5b506200043f62000439366004620026a8565b620010ee565b6040516001600160a01b03909116815260200162000279565b3480156200046557600080fd5b506200026862000477366004620023f5565b62001223565b3480156200048a57600080fd5b50620002416200049c366004620026ee565b62001283565b348015620004af57600080fd5b506033546001600160a01b03166200043f565b348015620004cf57600080fd5b5062000241620004e136600462002792565b62001447565b348015620004f457600080fd5b506200043f62000506366004620026a8565b620014a2565b3480156200051957600080fd5b506200040b60675481565b3480156200053157600080fd5b50620003bd6200054336600462002792565b606960209081526000928352604080842090915290825290205460ff1681565b3480156200057057600080fd5b50620002416200058236600462002622565b620015cd565b3480156200059557600080fd5b5062000241620005a7366004620027d0565b620016b1565b348015620005ba57600080fd5b506200043f620005cc366004620023f5565b620017a1565b348015620005df57600080fd5b50620003bd620005f13660046200258b565b606b60209081526000938452604080852082529284528284209052825290205460ff1681565b3480156200062457600080fd5b506200040b62000636366004620023f5565b606f6020526000908152604090205481565b3480156200065557600080fd5b5062000241620006673660046200230e565b620017ec565b3480156200067a57600080fd5b506200040b620019fd565b3480156200069257600080fd5b506200040b60685481565b348015620006aa57600080fd5b5062000241620006bc36600462002837565b62001afe565b348015620006cf57600080fd5b5062000241620006e1366004620023f5565b62001b5b565b348015620006f457600080fd5b506200040b60665481565b3480156200070c57600080fd5b50620002416200071e36600462002837565b62001bfa565b6033546001600160a01b031633146200075a5760405162461bcd60e51b8152600401620007519062002851565b60405180910390fd5b84158015906200076957508487145b80156200077557508483145b80156200078157508481145b620008045760405162461bcd60e51b815260206004820152604660248201527f4e6f2043457263323044656c656761746520696d706c656d656e746174696f6e60448201527f7320737570706c696564206f72206172726179206c656e67746873206e6f742060648201526532b8bab0b61760d11b608482015260a40162000751565b60005b858110156200093e5782828281811062000825576200082562002886565b90506020020160208101906200083c91906200289c565b606a60008b8b8581811062000855576200085562002886565b90506020020160208101906200086c9190620023f5565b6001600160a01b03166001600160a01b031681526020019081526020016000206000898985818110620008a357620008a362002886565b9050602002016020810190620008ba9190620023f5565b6001600160a01b03166001600160a01b031681526020019081526020016000206000878785818110620008f157620008f162002886565b90506020020160208101906200090891906200289c565b151581526020810191909152604001600020805460ff1916911515919091179055806200093581620028bc565b91505062000807565b505050505050505050565b606e60205260009081526040902080546001820180546001600160a01b03831693600160a01b90930460ff169291906200098390620028e6565b80601f0160208091040260200160405190810160405280929190818152602001828054620009b190620028e6565b801562000a025780601f10620009d65761010080835404028352916020019162000a02565b820191906000526020600020905b815481529060010190602001808311620009e457829003601f168201915b5050505050905083565b6033546001600160a01b0316331462000a395760405162461bcd60e51b8152600401620007519062002851565b670de0b6b3a764000081131562000a645760405162461bcd60e51b8152600401620007519062002923565b6001600160a01b039091166000908152606f6020526040902055565b606d60205260009081526040902080546001820180546001600160a01b03831693600160a01b90930460ff169291906200098390620028e6565b6033546001600160a01b0316331462000ae75760405162461bcd60e51b8152600401620007519062002851565b821580159062000af657508281145b62000b5c5760405162461bcd60e51b815260206004820152602f60248201527f4172726179206c656e67746873206d75737420626520657175616c20616e642060448201526e33b932b0ba32b9103a3430b710181760891b606482015260840162000751565b60005b8381101562000c1e5762000c0883838381811062000b815762000b8162002886565b905060200281019062000b9591906200296e565b8080601f01602080910402602001604051908101604052809392919081815260200183838082843760009201919091525089925088915085905081811062000be15762000be162002886565b905060200201602081019062000bf89190620023f5565b6001600160a01b03169062001cb1565b508062000c1581620028bc565b91505062000b5f565b5050505050565b6033546001600160a01b0316331462000c525760405162461bcd60e51b8152600401620007519062002851565b606692909255606755606855565b6001600160a01b03811662000d9d57478062000cc95760405162461bcd60e51b815260206004820152602160248201527f4e6f2062616c616e636520617661696c61626c6520746f2077697468647261776044820152601760f91b606482015260840162000751565b600062000cde6033546001600160a01b031690565b6001600160a01b03168260405160006040518083038185875af1925050503d806000811462000d2a576040519150601f19603f3d011682016040523d82523d6000602084013e62000d2f565b606091505b505090508062000d985760405162461bcd60e51b815260206004820152602d60248201527f4661696c656420746f207472616e73666572204554482062616c616e6365207460448201526c379036b9b39739b2b73232b91760991b606482015260840162000751565b505050565b6040516370a0823160e01b815230600482015281906000906001600160a01b038316906370a0823190602401602060405180830381865afa15801562000de7573d6000803e3d6000fd5b505050506040513d601f19601f8201168201806040525081019062000e0d9190620029b8565b90506000811162000e715760405162461bcd60e51b815260206004820152602760248201527f4e6f20746f6b656e2062616c616e636520617661696c61626c6520746f2077696044820152663a34323930bb9760c91b606482015260840162000751565b62000d9862000e886033546001600160a01b031690565b6001600160a01b038416908362001cfc565b50565b6001600160a01b038181166000908152606d6020908152604080832081516060808201845282549687168252600160a01b90960460ff1615159381019390935260018101805494958695909486949093929084019162000efd90620028e6565b80601f016020809104026020016040519081016040528092919081815260200182805462000f2b90620028e6565b801562000f7c5780601f1062000f505761010080835404028352916020019162000f7c565b820191906000526020600020905b81548152906001019060200180831162000f5e57829003601f168201915b50505091909252505081519192506060916001600160a01b03161515905062000fa9578560008262000fb6565b8151602083015160408401515b94509450945050509193909250565b6033546001600160a01b0316331462000ff25760405162461bcd60e51b8152600401620007519062002851565b62000ffe600062001d50565b565b6033546001600160a01b031633146200102d5760405162461bcd60e51b8152600401620007519062002851565b6040518060600160405280856001600160a01b03168152602001841515815260200183838080601f01602080910402602001604051908101604052809392919081815260200183838082843760009201829052509390945250506001600160a01b038089168252606d602090815260409283902085518154878401511515600160a01b026001600160a81b03199091169190941617929092178255918401518051919350620010e4926001850192910190620021fd565b5050505050505050565b60008080620011016040828688620029d2565b81019062001110919062002792565b90925090506001600160a01b03811633146200116f5760405162461bcd60e51b815260206004820152601a60248201527f436f6d7074726f6c6c6572206973206e6f742073656e6465722e000000000000604482015260640162000751565b6040516bffffffffffffffffffffffff1933606090811b8216602084015284901b166034820152436048820152600090606801604051602081830303815290604052805190602001209050600060405180602001620011ce906200228c565b601f1982820381018352601f909101166040819052620011f6919089908990602001620029fe565b60405160208183030381529060405290506000620012176000848462001da2565b98975050505050505050565b6001600160a01b038181166000908152606e6020908152604080832081516060808201845282549687168252600160a01b90960460ff1615159381019390935260018101805494958695909486949093929084019162000efd90620028e6565b6033546001600160a01b03163314620012b05760405162461bcd60e51b8152600401620007519062002851565b8215801590620012bf57508285145b8015620012cb57508281145b6200134b5760405162461bcd60e51b815260206004820152604360248201527f4e6f20436f6d7074726f6c6c657220696d706c656d656e746174696f6e73207360448201527f7570706c696564206f72206172726179206c656e67746873206e6f742065717560648201526230b61760e91b608482015260a40162000751565b60005b838110156200143e578282828181106200136c576200136c62002886565b90506020020160208101906200138391906200289c565b606960008989858181106200139c576200139c62002886565b9050602002016020810190620013b39190620023f5565b6001600160a01b03166001600160a01b031681526020019081526020016000206000878785818110620013ea57620013ea62002886565b9050602002016020810190620014019190620023f5565b6001600160a01b031681526020810191909152604001600020805460ff1916911515919091179055806200143581620028bc565b9150506200134e565b50505050505050565b6033546001600160a01b03163314620014745760405162461bcd60e51b8152600401620007519062002851565b6001600160a01b039182166000908152606c6020526040902080546001600160a01b03191691909216179055565b600080620014b46020828587620029d2565b810190620014c39190620023f5565b90506001600160a01b03811633146200151f5760405162461bcd60e51b815260206004820152601a60248201527f436f6d7074726f6c6c6572206973206e6f742073656e6465722e000000000000604482015260640162000751565b6040516bffffffffffffffffffffffff193360601b1660208201526000603482018190524360488301529060680160405160208183030381529060405280519060200120905060006040518060200162001579906200229a565b601f1982820381018352601f909101166040819052620015a1919088908890602001620029fe565b60405160208183030381529060405290506000620015c26000848462001da2565b979650505050505050565b6033546001600160a01b03163314620015fa5760405162461bcd60e51b8152600401620007519062002851565b6040518060600160405280856001600160a01b03168152602001841515815260200183838080601f01602080910402602001604051908101604052809392919081815260200183838082843760009201829052509390945250506001600160a01b038089168252606e602090815260409283902085518154878401511515600160a01b026001600160a81b03199091169190941617929092178255918401518051919350620010e4926001850192910190620021fd565b6033546001600160a01b03163314620016de5760405162461bcd60e51b8152600401620007519062002851565b826200172d5760405162461bcd60e51b815260206004820152601e60248201527f4e6f2074617267657420616464726573736573207370656369666965642e0000604482015260640162000751565b60005b8381101562000c1e576200178b83838080601f01602080910402602001604051908101604052809392919081815260200183838082843760009201919091525089925088915085905081811062000be15762000be162002886565b50806200179881620028bc565b91505062001730565b6001600160a01b038181166000908152606c6020526040812054909116620017ca5781620017e6565b6001600160a01b038083166000908152606c6020526040902054165b92915050565b6033546001600160a01b03163314620018195760405162461bcd60e51b8152600401620007519062002851565b84158015906200182857508487145b80156200183457508483145b80156200184057508481145b620018c35760405162461bcd60e51b815260206004820152604660248201527f4e6f2043457468657244656c656761746520696d706c656d656e746174696f6e60448201527f7320737570706c696564206f72206172726179206c656e67746873206e6f742060648201526532b8bab0b61760d11b608482015260a40162000751565b60005b858110156200093e57828282818110620018e457620018e462002886565b9050602002016020810190620018fb91906200289c565b606b60008b8b8581811062001914576200191462002886565b90506020020160208101906200192b9190620023f5565b6001600160a01b03166001600160a01b03168152602001908152602001600020600089898581811062001962576200196262002886565b9050602002016020810190620019799190620023f5565b6001600160a01b03166001600160a01b031681526020019081526020016000206000878785818110620019b057620019b062002886565b9050602002016020810190620019c791906200289c565b151581526020810191909152604001600020805460ff191691151591909117905580620019f481620028bc565b915050620018c6565b60408051600481526024810182526020810180516001600160e01b0316635fe3b56760e01b179052905160009182918291339162001a3c919062002a28565b600060405180830381855afa9150503d806000811462001a79576040519150601f19603f3d011682016040523d82523d6000602084013e62001a7e565b606091505b509150915081801562001a92575080516020145b1562001af45760008180602001905181019062001ab0919062002a46565b6001600160a01b0381166000908152606f602052604081205491925081131562001adc57949350505050565b600081121562001af157600094505050505090565b50505b6065549250505090565b6033546001600160a01b0316331462001b2b5760405162461bcd60e51b8152600401620007519062002851565b670de0b6b3a764000081111562001b565760405162461bcd60e51b8152600401620007519062002923565b606555565b6033546001600160a01b0316331462001b885760405162461bcd60e51b8152600401620007519062002851565b6001600160a01b03811662001bef5760405162461bcd60e51b815260206004820152602660248201527f4f776e61626c653a206e6577206f776e657220697320746865207a65726f206160448201526564647265737360d01b606482015260840162000751565b62000e9a8162001d50565b600062001c08600162001eb2565b9050801562001c21576000805461ff0019166101001790555b670de0b6b3a764000082111562001c4c5760405162461bcd60e51b8152600401620007519062002923565b62001c5662001f42565b60658290556000196067819055606855801562001cad576000805461ff0019169055604051600181527f7f26b83ff96e1f2b6a682f133852f6798a09c465da95921460cefb38474024989060200160405180910390a15b5050565b606062001cf583836040518060400160405280601e81526020017f416464726573733a206c6f772d6c6576656c2063616c6c206661696c6564000081525062001f76565b9392505050565b604080516001600160a01b038416602482015260448082018490528251808303909101815260649091019091526020810180516001600160e01b031663a9059cbb60e01b17905262000d9890849062001f87565b603380546001600160a01b038381166001600160a01b0319831681179093556040519116919082907f8be0079c531659141344cd1fd0a4f28419497f9722a3daafe3b4186f6b6457e090600090a35050565b6000808447101562001df75760405162461bcd60e51b815260206004820152601d60248201527f437265617465323a20696e73756666696369656e742062616c616e6365000000604482015260640162000751565b825162001e475760405162461bcd60e51b815260206004820181905260248201527f437265617465323a2062797465636f6465206c656e677468206973207a65726f604482015260640162000751565b8383516020850187f590506001600160a01b03811662001eaa5760405162461bcd60e51b815260206004820152601960248201527f437265617465323a204661696c6564206f6e206465706c6f7900000000000000604482015260640162000751565b949350505050565b60008054610100900460ff161562001efe578160ff16600114801562001ed75750303b155b62001ef65760405162461bcd60e51b8152600401620007519062002a66565b506000919050565b60005460ff80841691161062001f285760405162461bcd60e51b8152600401620007519062002a66565b506000805460ff191660ff92909216919091179055600190565b600054610100900460ff1662001f6c5760405162461bcd60e51b8152600401620007519062002ab4565b62000ffe62002060565b606062001eaa848460008562002095565b600062001fde826040518060400160405280602081526020017f5361666545524332303a206c6f772d6c6576656c2063616c6c206661696c6564815250856001600160a01b031662001f769092919063ffffffff16565b80519091501562000d98578080602001905181019062001fff919062002aff565b62000d985760405162461bcd60e51b815260206004820152602a60248201527f5361666545524332303a204552433230206f7065726174696f6e20646964206e6044820152691bdd081cdd58d8d9595960b21b606482015260840162000751565b600054610100900460ff166200208a5760405162461bcd60e51b8152600401620007519062002ab4565b62000ffe3362001d50565b606082471015620020f85760405162461bcd60e51b815260206004820152602660248201527f416464726573733a20696e73756666696369656e742062616c616e636520666f6044820152651c8818d85b1b60d21b606482015260840162000751565b6001600160a01b0385163b620021515760405162461bcd60e51b815260206004820152601d60248201527f416464726573733a2063616c6c20746f206e6f6e2d636f6e7472616374000000604482015260640162000751565b600080866001600160a01b031685876040516200216f919062002a28565b60006040518083038185875af1925050503d8060008114620021ae576040519150601f19603f3d011682016040523d82523d6000602084013e620021b3565b606091505b5091509150620015c282828660608315620021d057508162001cf5565b825115620021e15782518084602001fd5b8160405162461bcd60e51b815260040162000751919062002b1f565b8280546200220b90620028e6565b90600052602060002090601f0160209004810192826200222f57600085556200227a565b82601f106200224a57805160ff19168380011785556200227a565b828001600101855582156200227a579182015b828111156200227a5782518255916020019190600101906200225d565b5062002288929150620022a8565b5090565b6106bf8062002b3583390190565b61062680620031f483390190565b5b80821115620022885760008155600101620022a9565b60008083601f840112620022d257600080fd5b50813567ffffffffffffffff811115620022eb57600080fd5b6020830191508360208260051b85010111156200230757600080fd5b9250929050565b6000806000806000806000806080898b0312156200232b57600080fd5b883567ffffffffffffffff808211156200234457600080fd5b620023528c838d01620022bf565b909a50985060208b01359150808211156200236c57600080fd5b6200237a8c838d01620022bf565b909850965060408b01359150808211156200239457600080fd5b620023a28c838d01620022bf565b909650945060608b0135915080821115620023bc57600080fd5b50620023cb8b828c01620022bf565b999c989b5096995094979396929594505050565b6001600160a01b038116811462000e9a57600080fd5b6000602082840312156200240857600080fd5b813562001cf581620023df565b60005b838110156200243257818101518382015260200162002418565b8381111562002442576000848401525b50505050565b600081518084526200246281602086016020860162002415565b601f01601f19169290920160200192915050565b6001600160a01b03841681528215156020820152606060408201819052600090620024a49083018462002448565b95945050505050565b60008060408385031215620024c157600080fd5b8235620024ce81620023df565b946020939093013593505050565b60008060008060408587031215620024f357600080fd5b843567ffffffffffffffff808211156200250c57600080fd5b6200251a88838901620022bf565b909650945060208701359150808211156200253457600080fd5b506200254387828801620022bf565b95989497509550505050565b6000806000606084860312156200256557600080fd5b505081359360208301359350604090920135919050565b801515811462000e9a57600080fd5b600080600060608486031215620025a157600080fd5b8335620025ae81620023df565b92506020840135620025c081620023df565b91506040840135620025d2816200257c565b809150509250925092565b60008083601f840112620025f057600080fd5b50813567ffffffffffffffff8111156200260957600080fd5b6020830191508360208285010111156200230757600080fd5b6000806000806000608086880312156200263b57600080fd5b85356200264881620023df565b945060208601356200265a81620023df565b935060408601356200266c816200257c565b9250606086013567ffffffffffffffff8111156200268957600080fd5b6200269788828901620025dd565b969995985093965092949392505050565b60008060208385031215620026bc57600080fd5b823567ffffffffffffffff811115620026d457600080fd5b620026e285828601620025dd565b90969095509350505050565b600080600080600080606087890312156200270857600080fd5b863567ffffffffffffffff808211156200272157600080fd5b6200272f8a838b01620022bf565b909850965060208901359150808211156200274957600080fd5b620027578a838b01620022bf565b909650945060408901359150808211156200277157600080fd5b506200278089828a01620022bf565b979a9699509497509295939492505050565b60008060408385031215620027a657600080fd5b8235620027b381620023df565b91506020830135620027c581620023df565b809150509250929050565b60008060008060408587031215620027e757600080fd5b843567ffffffffffffffff808211156200280057600080fd5b6200280e88838901620022bf565b909650945060208701359150808211156200282857600080fd5b506200254387828801620025dd565b6000602082840312156200284a57600080fd5b5035919050565b6020808252818101527f4f776e61626c653a2063616c6c6572206973206e6f7420746865206f776e6572604082015260600190565b634e487b7160e01b600052603260045260246000fd5b600060208284031215620028af57600080fd5b813562001cf5816200257c565b6000600019821415620028df57634e487b7160e01b600052601160045260246000fd5b5060010190565b600181811c90821680620028fb57607f821691505b602082108114156200291d57634e487b7160e01b600052602260045260246000fd5b50919050565b6020808252602b908201527f496e7465726573742066656520726174652063616e6e6f74206265206d6f726560408201526a103a3430b710189818129760a91b606082015260800190565b6000808335601e198436030181126200298657600080fd5b83018035915067ffffffffffffffff821115620029a257600080fd5b6020019150368190038213156200230757600080fd5b600060208284031215620029cb57600080fd5b5051919050565b60008085851115620029e357600080fd5b83861115620029f157600080fd5b5050820193919092039150565b6000845162002a1281846020890162002415565b8201838582376000930192835250909392505050565b6000825162002a3c81846020870162002415565b9190910192915050565b60006020828403121562002a5957600080fd5b815162001cf581620023df565b6020808252602e908201527f496e697469616c697a61626c653a20636f6e747261637420697320616c72656160408201526d191e481a5b9a5d1a585b1a5e995960921b606082015260800190565b6020808252602b908201527f496e697469616c697a61626c653a20636f6e7472616374206973206e6f74206960408201526a6e697469616c697a696e6760a81b606082015260800190565b60006020828403121562002b1257600080fd5b815162001cf5816200257c565b60208152600062001cf560208301846200244856fe608060405234801561001057600080fd5b506040516106bf3803806106bf83398101604081905261002f91610246565b610085848b8b8b8b8b8b8989604051602401610052989796959493929190610363565b60408051601f198184030181529190526020810180516001600160e01b039081166306db3ecd60e01b179091526100e316565b506100d384856000866040516024016100a0939291906103cc565b60408051601f198184030181529190526020810180516001600160e01b039081166350d85b7360e01b179091526100e316565b505050505050505050505061041d565b6060600080846001600160a01b0316846040516101009190610401565b600060405180830381855af49150503d806000811461013b576040519150601f19603f3d011682016040523d82523d6000602084013e610140565b606091505b50915091506000821415610155573d60208201fd5b949350505050565b80516001600160a01b038116811461017457600080fd5b919050565b634e487b7160e01b600052604160045260246000fd5b60005b838110156101aa578181015183820152602001610192565b838111156101b9576000848401525b50505050565b600082601f8301126101d057600080fd5b81516001600160401b03808211156101ea576101ea610179565b604051601f8301601f19908116603f0116810190828211818310171561021257610212610179565b8160405283815286602085880101111561022b57600080fd5b61023c84602083016020890161018f565b9695505050505050565b6000806000806000806000806000806101408b8d03121561026657600080fd5b61026f8b61015d565b995061027d60208c0161015d565b985061028b60408c0161015d565b975061029960608c0161015d565b60808c01519097506001600160401b03808211156102b657600080fd5b6102c28e838f016101bf565b975060a08d01519150808211156102d857600080fd5b6102e48e838f016101bf565b96506102f260c08e0161015d565b955060e08d015191508082111561030857600080fd5b506103158d828e016101bf565b9350506101008b015191506101208b015190509295989b9194979a5092959850565b6000815180845261034f81602086016020860161018f565b601f01601f19169290920160200192915050565b6001600160a01b0389811682528881166020830152878116604083015286166060820152610100608082018190526000906103a083820188610337565b905082810360a08401526103b48187610337565b60c0840195909552505060e001529695505050505050565b6001600160a01b038416815282151560208201526060604082018190526000906103f890830184610337565b95945050505050565b6000825161041381846020870161018f565b9190910192915050565b6102938061042c6000396000f3fe6080604052600436106100225760003560e01c80635c60da1b1461015c57610029565b3661002957005b34156100a15760405162461bcd60e51b815260206004820152603760248201527f43457263323044656c656761746f723a66616c6c6261636b3a2063616e6e6f7460448201527f2073656e642076616c756520746f2066616c6c6261636b000000000000000000606482015260840160405180910390fd5b6000546040805160048152602481019091526020810180516001600160e01b031663076de25160e21b1790526100e0916001600160a01b031690610198565b50600080546040516001600160a01b03909116906101019083903690610212565b600060405180830381855af49150503d806000811461013c576040519150601f19603f3d011682016040523d82523d6000602084013e610141565b606091505b505090506040513d6000823e818015610158573d82f35b3d82fd5b34801561016857600080fd5b5060005461017c906001600160a01b031681565b6040516001600160a01b03909116815260200160405180910390f35b6060600080846001600160a01b0316846040516101b59190610222565b600060405180830381855af49150503d80600081146101f0576040519150601f19603f3d011682016040523d82523d6000602084013e6101f5565b606091505b5091509150600082141561020a573d60208201fd5b949350505050565b8183823760009101908152919050565b6000825160005b818110156102435760208186018101518583015201610229565b81811115610252576000828501525b50919091019291505056fea2646970667358221220aa493d60d6746a6acd4821a96ddeba894a073cdee8adfbe5d54cd768f49bc89f64736f6c634300080a0033608060405234801561001057600080fd5b5060405161062638038061062683398101604081905261002f91610243565b610083848a8a8a8a8a8888604051602401610050979695949392919061034e565b60408051601f198184030181529190526020810180516001600160e01b0390811663a0b0d28960e01b179091526100e016565b506100d1848560008660405160240161009e939291906103ab565b60408051601f198184030181529190526020810180516001600160e01b039081166350d85b7360e01b179091526100e016565b505050505050505050506103fc565b6060600080846001600160a01b0316846040516100fd91906103e0565b600060405180830381855af49150503d8060008114610138576040519150601f19603f3d011682016040523d82523d6000602084013e61013d565b606091505b50915091506000821415610152573d60208201fd5b949350505050565b80516001600160a01b038116811461017157600080fd5b919050565b634e487b7160e01b600052604160045260246000fd5b60005b838110156101a757818101518382015260200161018f565b838111156101b6576000848401525b50505050565b600082601f8301126101cd57600080fd5b81516001600160401b03808211156101e7576101e7610176565b604051601f8301601f19908116603f0116810190828211818310171561020f5761020f610176565b8160405283815286602085880101111561022857600080fd5b61023984602083016020890161018c565b9695505050505050565b60008060008060008060008060006101208a8c03121561026257600080fd5b61026b8a61015a565b985061027960208b0161015a565b975061028760408b0161015a565b60608b01519097506001600160401b03808211156102a457600080fd5b6102b08d838e016101bc565b975060808c01519150808211156102c657600080fd5b6102d28d838e016101bc565b96506102e060a08d0161015a565b955060c08c01519150808211156102f657600080fd5b506103038c828d016101bc565b93505060e08a015191506101008a015190509295985092959850929598565b6000815180845261033a81602086016020860161018c565b601f01601f19169290920160200192915050565b6001600160a01b03888116825287811660208301528616604082015260e06060820181905260009061038290830187610322565b82810360808401526103948187610322565b60a0840195909552505060c0015295945050505050565b6001600160a01b038416815282151560208201526060604082018190526000906103d790830184610322565b95945050505050565b600082516103f281846020870161018c565b9190910192915050565b61021b8061040b6000396000f3fe6080604052600436106100225760003560e01c80635c60da1b146100e457610029565b3661002957005b6000546040805160048152602481019091526020810180516001600160e01b031663076de25160e21b179052610068916001600160a01b031690610120565b50600080546040516001600160a01b0390911690610089908390369061019a565b600060405180830381855af49150503d80600081146100c4576040519150601f19603f3d011682016040523d82523d6000602084013e6100c9565b606091505b505090506040513d6000823e8180156100e0573d82f35b3d82fd5b3480156100f057600080fd5b50600054610104906001600160a01b031681565b6040516001600160a01b03909116815260200160405180910390f35b6060600080846001600160a01b03168460405161013d91906101aa565b600060405180830381855af49150503d8060008114610178576040519150601f19603f3d011682016040523d82523d6000602084013e61017d565b606091505b50915091506000821415610192573d60208201fd5b949350505050565b8183823760009101908152919050565b6000825160005b818110156101cb57602081860181015185830152016101b1565b818111156101da576000828501525b50919091019291505056fea26469706673582212201c8d0326ac3af9710fbf69478da53f3308afa5f6d5cc2b84c9e593c04dc2dff064736f6c634300080a0033a2646970667358221220d84e30192c15adf55fdcc7c03b6a4f342b4005a28ec3baa93580c305b23831d164736f6c634300080a0033",
    "linkReferences": {}
  }
}