{
  "abi": [
    {
      "anonymous": false,
      "inputs": [
        {
          "indexed": false,
          "internalType": "uint256",
          "name": "error",
          "type": "uint256"
        },
        {
          "indexed": false,
          "internalType": "uint256",
          "name": "info",
          "type": "uint256"
        },
        {
          "indexed": false,
          "internalType": "uint256",
          "name": "detail",
          "type": "uint256"
        }
      ],
      "name": "Failure",
      "type": "event"
    },
    {
      "anonymous": false,
      "inputs": [
        {
          "indexed": false,
          "internalType": "uint8",
          "name": "version",
          "type": "uint8"
        }
      ],
      "name": "Initialized",
      "type": "event"
    },
    {
      "anonymous": false,
      "inputs": [
        {
          "indexed": false,
          "internalType": "address",
          "name": "oldAdmin",
          "type": "address"
        },
        {
          "indexed": false,
          "internalType": "address",
          "name": "newAdmin",
          "type": "address"
        }
      ],
      "name": "NewAdmin",
      "type": "event"
    },
    {
      "anonymous": false,
      "inputs": [
        {
          "indexed": false,
          "internalType": "address",
          "name": "oldPendingAdmin",
          "type": "address"
        },
        {
          "indexed": false,
          "internalType": "address",
          "name": "newPendingAdmin",
          "type": "address"
        }
      ],
      "name": "NewPendingAdmin",
      "type": "event"
    },
    {
      "anonymous": false,
      "inputs": [
        {
          "indexed": true,
          "internalType": "address",
          "name": "previousOwner",
          "type": "address"
        },
        {
          "indexed": true,
          "internalType": "address",
          "name": "newOwner",
          "type": "address"
        }
      ],
      "name": "OwnershipTransferred",
      "type": "event"
    },
    {
      "inputs": [],
      "name": "_acceptAdmin",
      "outputs": [
        {
          "internalType": "uint256",
          "name": "",
          "type": "uint256"
        }
      ],
      "stateMutability": "nonpayable",
      "type": "function"
    },
    {
      "inputs": [
        {
          "internalType": "address[]",
          "name": "targets",
          "type": "address[]"
        },
        {
          "internalType": "bytes[]",
          "name": "data",
          "type": "bytes[]"
        }
      ],
      "name": "_callPool",
      "outputs": [],
      "stateMutability": "nonpayable",
      "type": "function"
    },
    {
      "inputs": [
        {
          "internalType": "address[]",
          "name": "targets",
          "type": "address[]"
        },
        {
          "internalType": "bytes",
          "name": "data",
          "type": "bytes"
        }
      ],
      "name": "_callPool",
      "outputs": [],
      "stateMutability": "nonpayable",
      "type": "function"
    },
    {
      "inputs": [
        {
          "internalType": "address[]",
          "name": "oldImplementations",
          "type": "address[]"
        },
        {
          "internalType": "address[]",
          "name": "newImplementations",
          "type": "address[]"
        },
        {
          "internalType": "bool[]",
          "name": "allowResign",
          "type": "bool[]"
        },
        {
          "internalType": "bool[]",
          "name": "statuses",
          "type": "bool[]"
        }
      ],
      "name": "_editCErc20DelegateWhitelist",
      "outputs": [],
      "stateMutability": "nonpayable",
      "type": "function"
    },
    {
      "inputs": [
        {
          "internalType": "address[]",
          "name": "oldImplementations",
          "type": "address[]"
        },
        {
          "internalType": "address[]",
          "name": "newImplementations",
          "type": "address[]"
        },
        {
          "internalType": "bool[]",
          "name": "allowResign",
          "type": "bool[]"
        },
        {
          "internalType": "bool[]",
          "name": "statuses",
          "type": "bool[]"
        }
      ],
      "name": "_editCEtherDelegateWhitelist",
      "outputs": [],
      "stateMutability": "nonpayable",
      "type": "function"
    },
    {
      "inputs": [
        {
          "internalType": "address[]",
          "name": "oldImplementations",
          "type": "address[]"
        },
        {
          "internalType": "address[]",
          "name": "newImplementations",
          "type": "address[]"
        },
        {
          "internalType": "bool[]",
          "name": "statuses",
          "type": "bool[]"
        }
      ],
      "name": "_editComptrollerImplementationWhitelist",
      "outputs": [],
      "stateMutability": "nonpayable",
      "type": "function"
    },
    {
      "inputs": [
        {
          "internalType": "address",
          "name": "",
          "type": "address"
        }
      ],
      "name": "_latestCErc20Delegate",
      "outputs": [
        {
          "internalType": "address",
          "name": "implementation",
          "type": "address"
        },
        {
          "internalType": "bool",
          "name": "allowResign",
          "type": "bool"
        },
        {
          "internalType": "bytes",
          "name": "becomeImplementationData",
          "type": "bytes"
        }
      ],
      "stateMutability": "view",
      "type": "function"
    },
    {
      "inputs": [
        {
          "internalType": "address",
          "name": "",
          "type": "address"
        }
      ],
      "name": "_latestCEtherDelegate",
      "outputs": [
        {
          "internalType": "address",
          "name": "implementation",
          "type": "address"
        },
        {
          "internalType": "bool",
          "name": "allowResign",
          "type": "bool"
        },
        {
          "internalType": "bytes",
          "name": "becomeImplementationData",
          "type": "bytes"
        }
      ],
      "stateMutability": "view",
      "type": "function"
    },
    {
      "inputs": [
        {
          "internalType": "address",
          "name": "comptroller",
          "type": "address"
        },
        {
          "internalType": "int256",
          "name": "rate",
          "type": "int256"
        }
      ],
      "name": "_setCustomInterestFeeRate",
      "outputs": [],
      "stateMutability": "nonpayable",
      "type": "function"
    },
    {
      "inputs": [
        {
          "internalType": "uint256",
          "name": "_defaultInterestFeeRate",
          "type": "uint256"
        }
      ],
      "name": "_setDefaultInterestFeeRate",
      "outputs": [],
      "stateMutability": "nonpayable",
      "type": "function"
    },
    {
      "inputs": [
        {
          "internalType": "address",
          "name": "oldImplementation",
          "type": "address"
        },
        {
          "internalType": "address",
          "name": "newImplementation",
          "type": "address"
        },
        {
          "internalType": "bool",
          "name": "allowResign",
          "type": "bool"
        },
        {
          "internalType": "bytes",
          "name": "becomeImplementationData",
          "type": "bytes"
        }
      ],
      "name": "_setLatestCErc20Delegate",
      "outputs": [],
      "stateMutability": "nonpayable",
      "type": "function"
    },
    {
      "inputs": [
        {
          "internalType": "address",
          "name": "oldImplementation",
          "type": "address"
        },
        {
          "internalType": "address",
          "name": "newImplementation",
          "type": "address"
        },
        {
          "internalType": "bool",
          "name": "allowResign",
          "type": "bool"
        },
        {
          "internalType": "bytes",
          "name": "becomeImplementationData",
          "type": "bytes"
        }
      ],
      "name": "_setLatestCEtherDelegate",
      "outputs": [],
      "stateMutability": "nonpayable",
      "type": "function"
    },
    {
      "inputs": [
        {
          "internalType": "address",
          "name": "oldImplementation",
          "type": "address"
        },
        {
          "internalType": "address",
          "name": "newImplementation",
          "type": "address"
        }
      ],
      "name": "_setLatestComptrollerImplementation",
      "outputs": [],
      "stateMutability": "nonpayable",
      "type": "function"
    },
    {
      "inputs": [
        {
          "internalType": "address",
          "name": "newPendingAdmin",
          "type": "address"
        }
      ],
      "name": "_setPendingAdmin",
      "outputs": [
        {
          "internalType": "uint256",
          "name": "",
          "type": "uint256"
        }
      ],
      "stateMutability": "nonpayable",
      "type": "function"
    },
    {
      "inputs": [
        {
          "internalType": "uint256",
          "name": "_minBorrowEth",
          "type": "uint256"
        },
        {
          "internalType": "uint256",
          "name": "_maxSupplyEth",
          "type": "uint256"
        },
        {
          "internalType": "uint256",
          "name": "_maxUtilizationRate",
          "type": "uint256"
        }
      ],
      "name": "_setPoolLimits",
      "outputs": [],
      "stateMutability": "nonpayable",
      "type": "function"
    },
    {
      "inputs": [
        {
          "internalType": "address",
          "name": "erc20Contract",
          "type": "address"
        }
      ],
      "name": "_withdrawAssets",
      "outputs": [],
      "stateMutability": "nonpayable",
      "type": "function"
    },
    {
      "inputs": [],
      "name": "admin",
      "outputs": [
        {
          "internalType": "address",
          "name": "",
          "type": "address"
        }
      ],
      "stateMutability": "view",
      "type": "function"
    },
    {
      "inputs": [],
      "name": "adminHasRights",
      "outputs": [
        {
          "internalType": "bool",
          "name": "",
          "type": "bool"
        }
      ],
      "stateMutability": "view",
      "type": "function"
    },
    {
      "inputs": [
        {
          "internalType": "address",
          "name": "",
          "type": "address"
        },
        {
          "internalType": "address",
          "name": "",
          "type": "address"
        },
        {
          "internalType": "bool",
          "name": "",
          "type": "bool"
        }
      ],
      "name": "cErc20DelegateWhitelist",
      "outputs": [
        {
          "internalType": "bool",
          "name": "",
          "type": "bool"
        }
      ],
      "stateMutability": "view",
      "type": "function"
    },
    {
      "inputs": [
        {
          "internalType": "address",
          "name": "",
          "type": "address"
        },
        {
          "internalType": "address",
          "name": "",
          "type": "address"
        },
        {
          "internalType": "bool",
          "name": "",
          "type": "bool"
        }
      ],
      "name": "cEtherDelegateWhitelist",
      "outputs": [
        {
          "internalType": "bool",
          "name": "",
          "type": "bool"
        }
      ],
      "stateMutability": "view",
      "type": "function"
    },
    {
      "inputs": [],
      "name": "comptrollerImplementation",
      "outputs": [
        {
          "internalType": "address",
          "name": "",
          "type": "address"
        }
      ],
      "stateMutability": "view",
      "type": "function"
    },
    {
      "inputs": [
        {
          "internalType": "address",
          "name": "",
          "type": "address"
        },
        {
          "internalType": "address",
          "name": "",
          "type": "address"
        }
      ],
      "name": "comptrollerImplementationWhitelist",
      "outputs": [
        {
          "internalType": "bool",
          "name": "",
          "type": "bool"
        }
      ],
      "stateMutability": "view",
      "type": "function"
    },
    {
      "inputs": [
        {
          "internalType": "address",
          "name": "",
          "type": "address"
        }
      ],
      "name": "customInterestFeeRates",
      "outputs": [
        {
          "internalType": "int256",
          "name": "",
          "type": "int256"
        }
      ],
      "stateMutability": "view",
      "type": "function"
    },
    {
      "inputs": [],
      "name": "defaultInterestFeeRate",
      "outputs": [
        {
          "internalType": "uint256",
          "name": "",
          "type": "uint256"
        }
      ],
      "stateMutability": "view",
      "type": "function"
    },
    {
      "inputs": [
        {
          "internalType": "bytes",
          "name": "constructorData",
          "type": "bytes"
        }
      ],
      "name": "deployCErc20",
      "outputs": [
        {
          "internalType": "address",
          "name": "",
          "type": "address"
        }
      ],
      "stateMutability": "nonpayable",
      "type": "function"
    },
    {
      "inputs": [
        {
          "internalType": "bytes",
          "name": "constructorData",
          "type": "bytes"
        }
      ],
      "name": "deployCEther",
      "outputs": [
        {
          "internalType": "address",
          "name": "",
          "type": "address"
        }
      ],
      "stateMutability": "nonpayable",
      "type": "function"
    },
    {
      "inputs": [],
      "name": "fuseAdmin",
      "outputs": [
        {
          "internalType": "address payable",
          "name": "",
          "type": "address"
        }
      ],
      "stateMutability": "view",
      "type": "function"
    },
    {
      "inputs": [],
      "name": "fuseAdminHasRights",
      "outputs": [
        {
          "internalType": "bool",
          "name": "",
          "type": "bool"
        }
      ],
      "stateMutability": "view",
      "type": "function"
    },
    {
      "inputs": [
        {
          "internalType": "uint256",
          "name": "_defaultInterestFeeRate",
          "type": "uint256"
        }
      ],
      "name": "initialize",
      "outputs": [],
      "stateMutability": "nonpayable",
      "type": "function"
    },
    {
      "inputs": [],
      "name": "interestFeeRate",
      "outputs": [
        {
          "internalType": "uint256",
          "name": "",
          "type": "uint256"
        }
      ],
      "stateMutability": "view",
      "type": "function"
    },
    {
      "inputs": [
        {
          "internalType": "address",
          "name": "oldImplementation",
          "type": "address"
        }
      ],
      "name": "latestCErc20Delegate",
      "outputs": [
        {
          "internalType": "address",
          "name": "",
          "type": "address"
        },
        {
          "internalType": "bool",
          "name": "",
          "type": "bool"
        },
        {
          "internalType": "bytes",
          "name": "",
          "type": "bytes"
        }
      ],
      "stateMutability": "view",
      "type": "function"
    },
    {
      "inputs": [
        {
          "internalType": "address",
          "name": "oldImplementation",
          "type": "address"
        }
      ],
      "name": "latestCEtherDelegate",
      "outputs": [
        {
          "internalType": "address",
          "name": "",
          "type": "address"
        },
        {
          "internalType": "bool",
          "name": "",
          "type": "bool"
        },
        {
          "internalType": "bytes",
          "name": "",
          "type": "bytes"
        }
      ],
      "stateMutability": "view",
      "type": "function"
    },
    {
      "inputs": [
        {
          "internalType": "address",
          "name": "oldImplementation",
          "type": "address"
        }
      ],
      "name": "latestComptrollerImplementation",
      "outputs": [
        {
          "internalType": "address",
          "name": "",
          "type": "address"
        }
      ],
      "stateMutability": "view",
      "type": "function"
    },
    {
      "inputs": [],
      "name": "maxSupplyEth",
      "outputs": [
        {
          "internalType": "uint256",
          "name": "",
          "type": "uint256"
        }
      ],
      "stateMutability": "view",
      "type": "function"
    },
    {
      "inputs": [],
      "name": "maxUtilizationRate",
      "outputs": [
        {
          "internalType": "uint256",
          "name": "",
          "type": "uint256"
        }
      ],
      "stateMutability": "view",
      "type": "function"
    },
    {
      "inputs": [],
      "name": "minBorrowEth",
      "outputs": [
        {
          "internalType": "uint256",
          "name": "",
          "type": "uint256"
        }
      ],
      "stateMutability": "view",
      "type": "function"
    },
    {
      "inputs": [],
      "name": "owner",
      "outputs": [
        {
          "internalType": "address",
          "name": "",
          "type": "address"
        }
      ],
      "stateMutability": "view",
      "type": "function"
    },
    {
      "inputs": [],
      "name": "pendingAdmin",
      "outputs": [
        {
          "internalType": "address",
          "name": "",
          "type": "address"
        }
      ],
      "stateMutability": "view",
      "type": "function"
    },
    {
      "inputs": [],
      "name": "pendingComptrollerImplementation",
      "outputs": [
        {
          "internalType": "address",
          "name": "",
          "type": "address"
        }
      ],
      "stateMutability": "view",
      "type": "function"
    },
    {
      "inputs": [],
      "name": "renounceOwnership",
      "outputs": [],
      "stateMutability": "nonpayable",
      "type": "function"
    },
    {
      "inputs": [
        {
          "internalType": "address",
          "name": "newOwner",
          "type": "address"
        }
      ],
      "name": "transferOwnership",
      "outputs": [],
      "stateMutability": "nonpayable",
      "type": "function"
    },
    {
      "stateMutability": "payable",
      "type": "receive"
    }
  ],
  "bytecode": {
    "object": "0x60806040526067805461ffff60a01b191661010160a01b17905534801561002557600080fd5b50613bbf806100356000396000f3fe6080604052600436106200027b5760003560e01c8063930d24381162000153578063c5232b4711620000c5578063e35a48011162000084578063e35a480114620007fc578063e9c714f21462000821578063f2fde38b1462000839578063f851a440146200085e578063fdb25fb11462000880578063fe4b84df146200089857600080fd5b8063c5232b471462000754578063d64517b21462000785578063dcfbc0c714620007aa578063dd86fea114620007cc578063dfcb48bd14620007e457600080fd5b8063b01b86fd1162000112578063b01b86fd146200067e578063b71d1a0c14620006a3578063bb82aa5e14620006c8578063bbcdd6d314620006ea578063c11cd440146200070f57600080fd5b8063930d243814620005b85780639b86a9b514620005dd5780639c7be70814620006025780639d244f9f146200061a578063a430e617146200065957600080fd5b80633465b6e111620001ed57806384651d7311620001ac57806384651d7314620005025780638754e4fd14620005295780638abe0b75146200054e5780638d3bb8ef14620005735780638da5cb5b146200059857600080fd5b80633465b6e1146200043657806345cc9705146200045b578063715018a6146200048057806371cd40e6146200049857806375365b8714620004dd57600080fd5b8063183a3f72116200023a578063183a3f7214620003825780632678224714620003a75780632acbff3914620003c95780632f1069ba14620003ee5780632f876d32146200041157600080fd5b806301758fc214620002885780630284db7614620002af57806306bc461114620002ee5780630a755ec2146200031357806315761d51146200034757600080fd5b366200028357005b600080fd5b3480156200029557600080fd5b50620002ad620002a7366004620026e3565b620008bd565b005b348015620002bc57600080fd5b50620002d4620002ce366004620027ca565b62000ae2565b604051620002e5939291906200284b565b60405180910390f35b348015620002fb57600080fd5b50620002ad6200030d36600462002882565b62000ba5565b3480156200032057600080fd5b506067546200033690600160a81b900460ff1681565b6040519015158152602001620002e5565b3480156200035457600080fd5b5060655462000369906001600160a01b031681565b6040516001600160a01b039091168152602001620002e5565b3480156200038f57600080fd5b50620002d4620003a1366004620027ca565b62000c19565b348015620003b457600080fd5b5060675462000369906001600160a01b031681565b348015620003d657600080fd5b50620002ad620003e8366004620028b1565b62000c53565b348015620003fb57600080fd5b506067546200033690600160a01b900460ff1681565b3480156200041e57600080fd5b50620002ad6200043036600462002924565b62000dbe565b3480156200044357600080fd5b50620002ad62000455366004620027ca565b62000df9565b3480156200046857600080fd5b50620002d46200047a366004620027ca565b62001036565b3480156200048d57600080fd5b50620002ad6200115e565b348015620004a557600080fd5b5062000336620004b736600462002960565b606f60209081526000938452604080852082529284528284209052825290205460ff1681565b348015620004ea57600080fd5b50620002ad620004fc366004620029f7565b62001199565b3480156200050f57600080fd5b506200051a606a5481565b604051908152602001620002e5565b3480156200053657600080fd5b50620003696200054836600462002a7d565b62001287565b3480156200055b57600080fd5b50620002d46200056d366004620027ca565b620013bc565b3480156200058057600080fd5b50620002ad6200059236600462002ac3565b6200141c565b348015620005a557600080fd5b506033546001600160a01b031662000369565b348015620005c557600080fd5b50620002ad620005d736600462002b67565b620015e0565b348015620005ea57600080fd5b5062000369620005fc36600462002a7d565b6200163b565b3480156200060f57600080fd5b506200051a606c5481565b3480156200062757600080fd5b50620003366200063936600462002b67565b606e60209081526000928352604080842090915290825290205460ff1681565b3480156200066657600080fd5b50620002ad62000678366004620029f7565b62001766565b3480156200068b57600080fd5b50620002ad6200069d36600462002ba5565b6200184a565b348015620006b057600080fd5b506200051a620006c2366004620027ca565b6200193a565b348015620006d557600080fd5b5060685462000369906001600160a01b031681565b348015620006f757600080fd5b506200036962000709366004620027ca565b620019c6565b3480156200071c57600080fd5b50620003366200072e36600462002960565b607060209081526000938452604080852082529284528284209052825290205460ff1681565b3480156200076157600080fd5b506200051a62000773366004620027ca565b60746020526000908152604090205481565b3480156200079257600080fd5b50620002ad620007a4366004620026e3565b62001a0e565b348015620007b757600080fd5b5060695462000369906001600160a01b031681565b348015620007d957600080fd5b506200051a62001c1f565b348015620007f157600080fd5b506200051a606d5481565b3480156200080957600080fd5b50620002ad6200081b36600462002c0c565b62001d20565b3480156200082e57600080fd5b506200051a62001d7d565b3480156200084657600080fd5b50620002ad62000858366004620027ca565b62001e60565b3480156200086b57600080fd5b5060665462000369906001600160a01b031681565b3480156200088d57600080fd5b506200051a606b5481565b348015620008a557600080fd5b50620002ad620008b736600462002c0c565b62001eff565b6033546001600160a01b03163314620008f35760405162461bcd60e51b8152600401620008ea9062002c26565b60405180910390fd5b84158015906200090257508487145b80156200090e57508483145b80156200091a57508481145b6200099d5760405162461bcd60e51b815260206004820152604660248201527f4e6f2043457263323044656c656761746520696d706c656d656e746174696f6e60448201527f7320737570706c696564206f72206172726179206c656e67746873206e6f742060648201526532b8bab0b61760d11b608482015260a401620008ea565b60005b8581101562000ad757828282818110620009be57620009be62002c5b565b9050602002016020810190620009d5919062002c71565b606f60008b8b85818110620009ee57620009ee62002c5b565b905060200201602081019062000a059190620027ca565b6001600160a01b03166001600160a01b03168152602001908152602001600020600089898581811062000a3c5762000a3c62002c5b565b905060200201602081019062000a539190620027ca565b6001600160a01b03166001600160a01b03168152602001908152602001600020600087878581811062000a8a5762000a8a62002c5b565b905060200201602081019062000aa1919062002c71565b151581526020810191909152604001600020805460ff19169115159190911790558062000ace8162002c91565b915050620009a0565b505050505050505050565b607360205260009081526040902080546001820180546001600160a01b03831693600160a01b90930460ff1692919062000b1c9062002cbb565b80601f016020809104026020016040519081016040528092919081815260200182805462000b4a9062002cbb565b801562000b9b5780601f1062000b6f5761010080835404028352916020019162000b9b565b820191906000526020600020905b81548152906001019060200180831162000b7d57829003601f168201915b5050505050905083565b6033546001600160a01b0316331462000bd25760405162461bcd60e51b8152600401620008ea9062002c26565b670de0b6b3a764000081131562000bfd5760405162461bcd60e51b8152600401620008ea9062002cf8565b6001600160a01b03909116600090815260746020526040902055565b607260205260009081526040902080546001820180546001600160a01b03831693600160a01b90930460ff1692919062000b1c9062002cbb565b6033546001600160a01b0316331462000c805760405162461bcd60e51b8152600401620008ea9062002c26565b821580159062000c8f57508281145b62000cf55760405162461bcd60e51b815260206004820152602f60248201527f4172726179206c656e67746873206d75737420626520657175616c20616e642060448201526e33b932b0ba32b9103a3430b710181760891b6064820152608401620008ea565b60005b8381101562000db75762000da183838381811062000d1a5762000d1a62002c5b565b905060200281019062000d2e919062002d43565b8080601f01602080910402602001604051908101604052809392919081815260200183838082843760009201919091525089925088915085905081811062000d7a5762000d7a62002c5b565b905060200201602081019062000d919190620027ca565b6001600160a01b03169062001fb6565b508062000dae8162002c91565b91505062000cf8565b5050505050565b6033546001600160a01b0316331462000deb5760405162461bcd60e51b8152600401620008ea9062002c26565b606b92909255606c55606d55565b6001600160a01b03811662000f3657478062000e625760405162461bcd60e51b815260206004820152602160248201527f4e6f2062616c616e636520617661696c61626c6520746f2077697468647261776044820152601760f91b6064820152608401620008ea565b600062000e776033546001600160a01b031690565b6001600160a01b03168260405160006040518083038185875af1925050503d806000811462000ec3576040519150601f19603f3d011682016040523d82523d6000602084013e62000ec8565b606091505b505090508062000f315760405162461bcd60e51b815260206004820152602d60248201527f4661696c656420746f207472616e73666572204554482062616c616e6365207460448201526c379036b9b39739b2b73232b91760991b6064820152608401620008ea565b505050565b6040516370a0823160e01b815230600482015281906000906001600160a01b038316906370a0823190602401602060405180830381865afa15801562000f80573d6000803e3d6000fd5b505050506040513d601f19601f8201168201806040525081019062000fa6919062002d8d565b9050600081116200100a5760405162461bcd60e51b815260206004820152602760248201527f4e6f20746f6b656e2062616c616e636520617661696c61626c6520746f2077696044820152663a34323930bb9760c91b6064820152608401620008ea565b62000f31620010216033546001600160a01b031690565b6001600160a01b038416908362001ffa565b50565b6001600160a01b03818116600090815260726020908152604080832081516060808201845282549687168252600160a01b90960460ff16151593810193909352600181018054949586959094869490939290840191620010969062002cbb565b80601f0160208091040260200160405190810160405280929190818152602001828054620010c49062002cbb565b8015620011155780601f10620010e95761010080835404028352916020019162001115565b820191906000526020600020905b815481529060010190602001808311620010f757829003601f168201915b50505091909252505081519192506060916001600160a01b0316151590506200114257856000826200114f565b8151602083015160408401515b94509450945050509193909250565b6033546001600160a01b031633146200118b5760405162461bcd60e51b8152600401620008ea9062002c26565b6200119760006200204e565b565b6033546001600160a01b03163314620011c65760405162461bcd60e51b8152600401620008ea9062002c26565b6040518060600160405280856001600160a01b03168152602001841515815260200183838080601f01602080910402602001604051908101604052809392919081815260200183838082843760009201829052509390945250506001600160a01b0380891682526072602090815260409283902085518154878401511515600160a01b026001600160a81b031990911691909416179290921782559184015180519193506200127d926001850192910190620025d2565b5050505050505050565b600080806200129a604082868862002da7565b810190620012a9919062002b67565b90925090506001600160a01b0381163314620013085760405162461bcd60e51b815260206004820152601a60248201527f436f6d7074726f6c6c6572206973206e6f742073656e6465722e0000000000006044820152606401620008ea565b6040516bffffffffffffffffffffffff1933606090811b8216602084015284901b166034820152436048820152600090606801604051602081830303815290604052805190602001209050600060405180602001620013679062002661565b601f1982820381018352601f9091011660408190526200138f91908990899060200162002dd3565b60405160208183030381529060405290506000620013b060008484620020a0565b98975050505050505050565b6001600160a01b03818116600090815260736020908152604080832081516060808201845282549687168252600160a01b90960460ff16151593810193909352600181018054949586959094869490939290840191620010969062002cbb565b6033546001600160a01b03163314620014495760405162461bcd60e51b8152600401620008ea9062002c26565b82158015906200145857508285145b80156200146457508281145b620014e45760405162461bcd60e51b815260206004820152604360248201527f4e6f20436f6d7074726f6c6c657220696d706c656d656e746174696f6e73207360448201527f7570706c696564206f72206172726179206c656e67746873206e6f742065717560648201526230b61760e91b608482015260a401620008ea565b60005b83811015620015d75782828281811062001505576200150562002c5b565b90506020020160208101906200151c919062002c71565b606e600089898581811062001535576200153562002c5b565b90506020020160208101906200154c9190620027ca565b6001600160a01b03166001600160a01b03168152602001908152602001600020600087878581811062001583576200158362002c5b565b90506020020160208101906200159a9190620027ca565b6001600160a01b031681526020810191909152604001600020805460ff191691151591909117905580620015ce8162002c91565b915050620014e7565b50505050505050565b6033546001600160a01b031633146200160d5760405162461bcd60e51b8152600401620008ea9062002c26565b6001600160a01b03918216600090815260716020526040902080546001600160a01b03191691909216179055565b6000806200164d602082858762002da7565b8101906200165c9190620027ca565b90506001600160a01b0381163314620016b85760405162461bcd60e51b815260206004820152601a60248201527f436f6d7074726f6c6c6572206973206e6f742073656e6465722e0000000000006044820152606401620008ea565b6040516bffffffffffffffffffffffff193360601b1660208201526000603482018190524360488301529060680160405160208183030381529060405280519060200120905060006040518060200162001712906200266f565b601f1982820381018352601f9091011660408190526200173a91908890889060200162002dd3565b604051602081830303815290604052905060006200175b60008484620020a0565b979650505050505050565b6033546001600160a01b03163314620017935760405162461bcd60e51b8152600401620008ea9062002c26565b6040518060600160405280856001600160a01b03168152602001841515815260200183838080601f01602080910402602001604051908101604052809392919081815260200183838082843760009201829052509390945250506001600160a01b0380891682526073602090815260409283902085518154878401511515600160a01b026001600160a81b031990911691909416179290921782559184015180519193506200127d926001850192910190620025d2565b6033546001600160a01b03163314620018775760405162461bcd60e51b8152600401620008ea9062002c26565b82620018c65760405162461bcd60e51b815260206004820152601e60248201527f4e6f2074617267657420616464726573736573207370656369666965642e00006044820152606401620008ea565b60005b8381101562000db7576200192483838080601f01602080910402602001604051908101604052809392919081815260200183838082843760009201919091525089925088915085905081811062000d7a5762000d7a62002c5b565b5080620019318162002c91565b915050620018c9565b600062001946620021b0565b6200195f57620019596001601062002205565b92915050565b606780546001600160a01b038481166001600160a01b031983168117909355604080519190921680825260208201939093527fca4f2f25d0898edd99413412fb94012f9e54ec8142f9b093e7720646a95b16a9910160405180910390a160005b9392505050565b6001600160a01b03818116600090815260716020526040812054909116620019ef578162001959565b506001600160a01b039081166000908152607160205260409020541690565b6033546001600160a01b0316331462001a3b5760405162461bcd60e51b8152600401620008ea9062002c26565b841580159062001a4a57508487145b801562001a5657508483145b801562001a6257508481145b62001ae55760405162461bcd60e51b815260206004820152604660248201527f4e6f2043457468657244656c656761746520696d706c656d656e746174696f6e60448201527f7320737570706c696564206f72206172726179206c656e67746873206e6f742060648201526532b8bab0b61760d11b608482015260a401620008ea565b60005b8581101562000ad75782828281811062001b065762001b0662002c5b565b905060200201602081019062001b1d919062002c71565b607060008b8b8581811062001b365762001b3662002c5b565b905060200201602081019062001b4d9190620027ca565b6001600160a01b03166001600160a01b03168152602001908152602001600020600089898581811062001b845762001b8462002c5b565b905060200201602081019062001b9b9190620027ca565b6001600160a01b03166001600160a01b03168152602001908152602001600020600087878581811062001bd25762001bd262002c5b565b905060200201602081019062001be9919062002c71565b151581526020810191909152604001600020805460ff19169115159190911790558062001c168162002c91565b91505062001ae8565b60408051600481526024810182526020810180516001600160e01b0316635fe3b56760e01b179052905160009182918291339162001c5e919062002e13565b600060405180830381855afa9150503d806000811462001c9b576040519150601f19603f3d011682016040523d82523d6000602084013e62001ca0565b606091505b509150915081801562001cb4575080516020145b1562001d165760008180602001905181019062001cd2919062002e31565b6001600160a01b03811660009081526074602052604081205491925081131562001cfe57949350505050565b600081121562001d1357600094505050505090565b50505b606a549250505090565b6033546001600160a01b0316331462001d4d5760405162461bcd60e51b8152600401620008ea9062002c26565b670de0b6b3a764000081111562001d785760405162461bcd60e51b8152600401620008ea9062002cf8565b606a55565b6067546000906001600160a01b0316331462001da65762001da16001600062002205565b905090565b60668054606780546001600160a01b038082166001600160a01b031980861682179096559490911690915560408051919092168082526020820184905292917ff9ffabca9c8276e99321725bcb43fb076a6c66a54b7f21c4e8146d8519b417dc910160405180910390a1606754604080516001600160a01b03808516825290921660208301527fca4f2f25d0898edd99413412fb94012f9e54ec8142f9b093e7720646a95b16a9910160405180910390a160009250505090565b6033546001600160a01b0316331462001e8d5760405162461bcd60e51b8152600401620008ea9062002c26565b6001600160a01b03811662001ef45760405162461bcd60e51b815260206004820152602660248201527f4f776e61626c653a206e6577206f776e657220697320746865207a65726f206160448201526564647265737360d01b6064820152608401620008ea565b62001033816200204e565b600062001f0d600162002287565b9050801562001f26576000805461ff0019166101001790555b670de0b6b3a764000082111562001f515760405162461bcd60e51b8152600401620008ea9062002cf8565b62001f5b62002317565b606a829055600019606c819055606d55801562001fb2576000805461ff0019169055604051600181527f7f26b83ff96e1f2b6a682f133852f6798a09c465da95921460cefb38474024989060200160405180910390a15b5050565b6060620019bf83836040518060400160405280601e81526020017f416464726573733a206c6f772d6c6576656c2063616c6c206661696c656400008152506200234b565b604080516001600160a01b038416602482015260448082018490528251808303909101815260649091019091526020810180516001600160e01b031663a9059cbb60e01b17905262000f319084906200235c565b603380546001600160a01b038381166001600160a01b0319831681179093556040519116919082907f8be0079c531659141344cd1fd0a4f28419497f9722a3daafe3b4186f6b6457e090600090a35050565b60008084471015620020f55760405162461bcd60e51b815260206004820152601d60248201527f437265617465323a20696e73756666696369656e742062616c616e63650000006044820152606401620008ea565b8251620021455760405162461bcd60e51b815260206004820181905260248201527f437265617465323a2062797465636f6465206c656e677468206973207a65726f6044820152606401620008ea565b8383516020850187f590506001600160a01b038116620021a85760405162461bcd60e51b815260206004820152601960248201527f437265617465323a204661696c6564206f6e206465706c6f79000000000000006044820152606401620008ea565b949350505050565b6066546000906001600160a01b031633148015620021d75750606754600160a81b900460ff165b8062001da157506065546001600160a01b03163314801562001da1575050606754600160a01b900460ff1690565b60007f45b96fe442630264581b197e84bbada861235052c5a1aadfff9ea4e40a969aa08360158111156200223d576200223d62002dfd565b83601b81111562002252576200225262002dfd565b60408051928352602083019190915260009082015260600160405180910390a1826015811115620019bf57620019bf62002dfd565b60008054610100900460ff1615620022d3578160ff166001148015620022ac5750303b155b620022cb5760405162461bcd60e51b8152600401620008ea9062002e51565b506000919050565b60005460ff808416911610620022fd5760405162461bcd60e51b8152600401620008ea9062002e51565b506000805460ff191660ff92909216919091179055600190565b600054610100900460ff16620023415760405162461bcd60e51b8152600401620008ea9062002e9f565b6200119762002435565b6060620021a884846000856200246a565b6000620023b3826040518060400160405280602081526020017f5361666545524332303a206c6f772d6c6576656c2063616c6c206661696c6564815250856001600160a01b03166200234b9092919063ffffffff16565b80519091501562000f315780806020019051810190620023d4919062002eea565b62000f315760405162461bcd60e51b815260206004820152602a60248201527f5361666545524332303a204552433230206f7065726174696f6e20646964206e6044820152691bdd081cdd58d8d9595960b21b6064820152608401620008ea565b600054610100900460ff166200245f5760405162461bcd60e51b8152600401620008ea9062002e9f565b62001197336200204e565b606082471015620024cd5760405162461bcd60e51b815260206004820152602660248201527f416464726573733a20696e73756666696369656e742062616c616e636520666f6044820152651c8818d85b1b60d21b6064820152608401620008ea565b6001600160a01b0385163b620025265760405162461bcd60e51b815260206004820152601d60248201527f416464726573733a2063616c6c20746f206e6f6e2d636f6e74726163740000006044820152606401620008ea565b600080866001600160a01b0316858760405162002544919062002e13565b60006040518083038185875af1925050503d806000811462002583576040519150601f19603f3d011682016040523d82523d6000602084013e62002588565b606091505b50915091506200175b82828660608315620025a5575081620019bf565b825115620025b65782518084602001fd5b8160405162461bcd60e51b8152600401620008ea919062002f0a565b828054620025e09062002cbb565b90600052602060002090601f0160209004810192826200260457600085556200264f565b82601f106200261f57805160ff19168380011785556200264f565b828001600101855582156200264f579182015b828111156200264f57825182559160200191906001019062002632565b506200265d9291506200267d565b5090565b6106968062002f2083390190565b6105fd80620035b683390190565b5b808211156200265d57600081556001016200267e565b60008083601f840112620026a757600080fd5b50813567ffffffffffffffff811115620026c057600080fd5b6020830191508360208260051b8501011115620026dc57600080fd5b9250929050565b6000806000806000806000806080898b0312156200270057600080fd5b883567ffffffffffffffff808211156200271957600080fd5b620027278c838d0162002694565b909a50985060208b01359150808211156200274157600080fd5b6200274f8c838d0162002694565b909850965060408b01359150808211156200276957600080fd5b620027778c838d0162002694565b909650945060608b01359150808211156200279157600080fd5b50620027a08b828c0162002694565b999c989b5096995094979396929594505050565b6001600160a01b03811681146200103357600080fd5b600060208284031215620027dd57600080fd5b8135620019bf81620027b4565b60005b8381101562002807578181015183820152602001620027ed565b8381111562002817576000848401525b50505050565b6000815180845262002837816020860160208601620027ea565b601f01601f19169290920160200192915050565b6001600160a01b0384168152821515602082015260606040820181905260009062002879908301846200281d565b95945050505050565b600080604083850312156200289657600080fd5b8235620028a381620027b4565b946020939093013593505050565b60008060008060408587031215620028c857600080fd5b843567ffffffffffffffff80821115620028e157600080fd5b620028ef8883890162002694565b909650945060208701359150808211156200290957600080fd5b50620029188782880162002694565b95989497509550505050565b6000806000606084860312156200293a57600080fd5b505081359360208301359350604090920135919050565b80151581146200103357600080fd5b6000806000606084860312156200297657600080fd5b83356200298381620027b4565b925060208401356200299581620027b4565b91506040840135620029a78162002951565b809150509250925092565b60008083601f840112620029c557600080fd5b50813567ffffffffffffffff811115620029de57600080fd5b602083019150836020828501011115620026dc57600080fd5b60008060008060006080868803121562002a1057600080fd5b853562002a1d81620027b4565b9450602086013562002a2f81620027b4565b9350604086013562002a418162002951565b9250606086013567ffffffffffffffff81111562002a5e57600080fd5b62002a6c88828901620029b2565b969995985093965092949392505050565b6000806020838503121562002a9157600080fd5b823567ffffffffffffffff81111562002aa957600080fd5b62002ab785828601620029b2565b90969095509350505050565b6000806000806000806060878903121562002add57600080fd5b863567ffffffffffffffff8082111562002af657600080fd5b62002b048a838b0162002694565b9098509650602089013591508082111562002b1e57600080fd5b62002b2c8a838b0162002694565b9096509450604089013591508082111562002b4657600080fd5b5062002b5589828a0162002694565b979a9699509497509295939492505050565b6000806040838503121562002b7b57600080fd5b823562002b8881620027b4565b9150602083013562002b9a81620027b4565b809150509250929050565b6000806000806040858703121562002bbc57600080fd5b843567ffffffffffffffff8082111562002bd557600080fd5b62002be38883890162002694565b9096509450602087013591508082111562002bfd57600080fd5b506200291887828801620029b2565b60006020828403121562002c1f57600080fd5b5035919050565b6020808252818101527f4f776e61626c653a2063616c6c6572206973206e6f7420746865206f776e6572604082015260600190565b634e487b7160e01b600052603260045260246000fd5b60006020828403121562002c8457600080fd5b8135620019bf8162002951565b600060001982141562002cb457634e487b7160e01b600052601160045260246000fd5b5060010190565b600181811c9082168062002cd057607f821691505b6020821081141562002cf257634e487b7160e01b600052602260045260246000fd5b50919050565b6020808252602b908201527f496e7465726573742066656520726174652063616e6e6f74206265206d6f726560408201526a103a3430b710189818129760a91b606082015260800190565b6000808335601e1984360301811262002d5b57600080fd5b83018035915067ffffffffffffffff82111562002d7757600080fd5b602001915036819003821315620026dc57600080fd5b60006020828403121562002da057600080fd5b5051919050565b6000808585111562002db857600080fd5b8386111562002dc657600080fd5b5050820193919092039150565b6000845162002de7818460208901620027ea565b8201838582376000930192835250909392505050565b634e487b7160e01b600052602160045260246000fd5b6000825162002e27818460208701620027ea565b9190910192915050565b60006020828403121562002e4457600080fd5b8151620019bf81620027b4565b6020808252602e908201527f496e697469616c697a61626c653a20636f6e747261637420697320616c72656160408201526d191e481a5b9a5d1a585b1a5e995960921b606082015260800190565b6020808252602b908201527f496e697469616c697a61626c653a20636f6e7472616374206973206e6f74206960408201526a6e697469616c697a696e6760a81b606082015260800190565b60006020828403121562002efd57600080fd5b8151620019bf8162002951565b602081526000620019bf60208301846200281d56fe608060405234801561001057600080fd5b5060405161069638038061069683398101604081905261002f91610246565b610085848b8b8b8b8b8b8989604051602401610052989796959493929190610363565b60408051601f198184030181529190526020810180516001600160e01b039081166306db3ecd60e01b179091526100e316565b506100d384856000866040516024016100a0939291906103cc565b60408051601f198184030181529190526020810180516001600160e01b039081166350d85b7360e01b179091526100e316565b505050505050505050505061041d565b6060600080846001600160a01b0316846040516101009190610401565b600060405180830381855af49150503d806000811461013b576040519150601f19603f3d011682016040523d82523d6000602084013e610140565b606091505b50915091506000821415610155573d60208201fd5b949350505050565b80516001600160a01b038116811461017457600080fd5b919050565b634e487b7160e01b600052604160045260246000fd5b60005b838110156101aa578181015183820152602001610192565b838111156101b9576000848401525b50505050565b600082601f8301126101d057600080fd5b81516001600160401b03808211156101ea576101ea610179565b604051601f8301601f19908116603f0116810190828211818310171561021257610212610179565b8160405283815286602085880101111561022b57600080fd5b61023c84602083016020890161018f565b9695505050505050565b6000806000806000806000806000806101408b8d03121561026657600080fd5b61026f8b61015d565b995061027d60208c0161015d565b985061028b60408c0161015d565b975061029960608c0161015d565b60808c01519097506001600160401b03808211156102b657600080fd5b6102c28e838f016101bf565b975060a08d01519150808211156102d857600080fd5b6102e48e838f016101bf565b96506102f260c08e0161015d565b955060e08d015191508082111561030857600080fd5b506103158d828e016101bf565b9350506101008b015191506101208b015190509295989b9194979a5092959850565b6000815180845261034f81602086016020860161018f565b601f01601f19169290920160200192915050565b6001600160a01b0389811682528881166020830152878116604083015286166060820152610100608082018190526000906103a083820188610337565b905082810360a08401526103b48187610337565b60c0840195909552505060e001529695505050505050565b6001600160a01b038416815282151560208201526060604082018190526000906103f890830184610337565b95945050505050565b6000825161041381846020870161018f565b9190910192915050565b61026a8061042c6000396000f3fe6080604052600436106100225760003560e01c80635c60da1b1461015c57610029565b3661002957005b34156100a15760405162461bcd60e51b815260206004820152603760248201527f43457263323044656c656761746f723a66616c6c6261636b3a2063616e6e6f7460448201527f2073656e642076616c756520746f2066616c6c6261636b000000000000000000606482015260840160405180910390fd5b6000546040805160048152602481019091526020810180516001600160e01b031663076de25160e21b1790526100e0916001600160a01b031690610198565b50600080546040516001600160a01b03909116906101019083903690610212565b600060405180830381855af49150503d806000811461013c576040519150601f19603f3d011682016040523d82523d6000602084013e610141565b606091505b505090506040513d6000823e818015610158573d82f35b3d82fd5b34801561016857600080fd5b5060005461017c906001600160a01b031681565b6040516001600160a01b03909116815260200160405180910390f35b6060600080846001600160a01b0316846040516101b59190610222565b600060405180830381855af49150503d80600081146101f0576040519150601f19603f3d011682016040523d82523d6000602084013e6101f5565b606091505b5091509150600082141561020a573d60208201fd5b949350505050565b8183823760009101908152919050565b6000825160005b818110156102435760208186018101518583015201610229565b81811115610252576000828501525b50919091019291505056fea164736f6c634300080a000a608060405234801561001057600080fd5b506040516105fd3803806105fd83398101604081905261002f91610243565b610083848a8a8a8a8a8888604051602401610050979695949392919061034e565b60408051601f198184030181529190526020810180516001600160e01b0390811663a0b0d28960e01b179091526100e016565b506100d1848560008660405160240161009e939291906103ab565b60408051601f198184030181529190526020810180516001600160e01b039081166350d85b7360e01b179091526100e016565b505050505050505050506103fc565b6060600080846001600160a01b0316846040516100fd91906103e0565b600060405180830381855af49150503d8060008114610138576040519150601f19603f3d011682016040523d82523d6000602084013e61013d565b606091505b50915091506000821415610152573d60208201fd5b949350505050565b80516001600160a01b038116811461017157600080fd5b919050565b634e487b7160e01b600052604160045260246000fd5b60005b838110156101a757818101518382015260200161018f565b838111156101b6576000848401525b50505050565b600082601f8301126101cd57600080fd5b81516001600160401b03808211156101e7576101e7610176565b604051601f8301601f19908116603f0116810190828211818310171561020f5761020f610176565b8160405283815286602085880101111561022857600080fd5b61023984602083016020890161018c565b9695505050505050565b60008060008060008060008060006101208a8c03121561026257600080fd5b61026b8a61015a565b985061027960208b0161015a565b975061028760408b0161015a565b60608b01519097506001600160401b03808211156102a457600080fd5b6102b08d838e016101bc565b975060808c01519150808211156102c657600080fd5b6102d28d838e016101bc565b96506102e060a08d0161015a565b955060c08c01519150808211156102f657600080fd5b506103038c828d016101bc565b93505060e08a015191506101008a015190509295985092959850929598565b6000815180845261033a81602086016020860161018c565b601f01601f19169290920160200192915050565b6001600160a01b03888116825287811660208301528616604082015260e06060820181905260009061038290830187610322565b82810360808401526103948187610322565b60a0840195909552505060c0015295945050505050565b6001600160a01b038416815282151560208201526060604082018190526000906103d790830184610322565b95945050505050565b600082516103f281846020870161018c565b9190910192915050565b6101f28061040b6000396000f3fe6080604052600436106100225760003560e01c80635c60da1b146100e457610029565b3661002957005b6000546040805160048152602481019091526020810180516001600160e01b031663076de25160e21b179052610068916001600160a01b031690610120565b50600080546040516001600160a01b0390911690610089908390369061019a565b600060405180830381855af49150503d80600081146100c4576040519150601f19603f3d011682016040523d82523d6000602084013e6100c9565b606091505b505090506040513d6000823e8180156100e0573d82f35b3d82fd5b3480156100f057600080fd5b50600054610104906001600160a01b031681565b6040516001600160a01b03909116815260200160405180910390f35b6060600080846001600160a01b03168460405161013d91906101aa565b600060405180830381855af49150503d8060008114610178576040519150601f19603f3d011682016040523d82523d6000602084013e61017d565b606091505b50915091506000821415610192573d60208201fd5b949350505050565b8183823760009101908152919050565b6000825160005b818110156101cb57602081860181015185830152016101b1565b818111156101da576000828501525b50919091019291505056fea164736f6c634300080a000aa164736f6c634300080a000a",
    "linkReferences": {}
  },
  "methodIdentifiers": {
    "_acceptAdmin()": "e9c714f2",
    "_callPool(address[],bytes)": "b01b86fd",
    "_callPool(address[],bytes[])": "2acbff39",
    "_editCErc20DelegateWhitelist(address[],address[],bool[],bool[])": "01758fc2",
    "_editCEtherDelegateWhitelist(address[],address[],bool[],bool[])": "d64517b2",
    "_editComptrollerImplementationWhitelist(address[],address[],bool[])": "8d3bb8ef",
    "_latestCErc20Delegate(address)": "183a3f72",
    "_latestCEtherDelegate(address)": "0284db76",
    "_setCustomInterestFeeRate(address,int256)": "06bc4611",
    "_setDefaultInterestFeeRate(uint256)": "e35a4801",
    "_setLatestCErc20Delegate(address,address,bool,bytes)": "75365b87",
    "_setLatestCEtherDelegate(address,address,bool,bytes)": "a430e617",
    "_setLatestComptrollerImplementation(address,address)": "930d2438",
    "_setPendingAdmin(address)": "b71d1a0c",
    "_setPoolLimits(uint256,uint256,uint256)": "2f876d32",
    "_withdrawAssets(address)": "3465b6e1",
    "admin()": "f851a440",
    "adminHasRights()": "0a755ec2",
    "cErc20DelegateWhitelist(address,address,bool)": "71cd40e6",
    "cEtherDelegateWhitelist(address,address,bool)": "c11cd440",
    "comptrollerImplementation()": "bb82aa5e",
    "comptrollerImplementationWhitelist(address,address)": "9d244f9f",
    "customInterestFeeRates(address)": "c5232b47",
    "defaultInterestFeeRate()": "84651d73",
    "deployCErc20(bytes)": "8754e4fd",
    "deployCEther(bytes)": "9b86a9b5",
    "fuseAdmin()": "15761d51",
    "fuseAdminHasRights()": "2f1069ba",
    "initialize(uint256)": "fe4b84df",
    "interestFeeRate()": "dd86fea1",
    "latestCErc20Delegate(address)": "45cc9705",
    "latestCEtherDelegate(address)": "8abe0b75",
    "latestComptrollerImplementation(address)": "bbcdd6d3",
    "maxSupplyEth()": "9c7be708",
    "maxUtilizationRate()": "dfcb48bd",
    "minBorrowEth()": "fdb25fb1",
    "owner()": "8da5cb5b",
    "pendingAdmin()": "26782247",
    "pendingComptrollerImplementation()": "dcfbc0c7",
    "renounceOwnership()": "715018a6",
    "transferOwnership(address)": "f2fde38b"
  },
  "id": 0
}