{
  "abi": [
    {
      "anonymous": false,
      "inputs": [
        {
          "indexed": true,
          "internalType": "contract CToken",
          "name": "cToken",
          "type": "address"
        },
        {
          "indexed": false,
          "internalType": "uint256",
          "name": "newSpeed",
          "type": "uint256"
        }
      ],
      "name": "CompBorrowSpeedUpdated",
      "type": "event"
    },
    {
      "anonymous": false,
      "inputs": [
        {
          "indexed": false,
          "internalType": "address",
          "name": "recipient",
          "type": "address"
        },
        {
          "indexed": false,
          "internalType": "uint256",
          "name": "amount",
          "type": "uint256"
        }
      ],
      "name": "CompGranted",
      "type": "event"
    },
    {
      "anonymous": false,
      "inputs": [
        {
          "indexed": true,
          "internalType": "contract CToken",
          "name": "cToken",
          "type": "address"
        },
        {
          "indexed": false,
          "internalType": "uint256",
          "name": "newSpeed",
          "type": "uint256"
        }
      ],
      "name": "CompSupplySpeedUpdated",
      "type": "event"
    },
    {
      "anonymous": false,
      "inputs": [
        {
          "indexed": true,
          "internalType": "address",
          "name": "contributor",
          "type": "address"
        },
        {
          "indexed": false,
          "internalType": "uint256",
          "name": "newSpeed",
          "type": "uint256"
        }
      ],
      "name": "ContributorCompSpeedUpdated",
      "type": "event"
    },
    {
      "anonymous": false,
      "inputs": [
        {
          "indexed": true,
          "internalType": "contract CToken",
          "name": "cToken",
          "type": "address"
        },
        {
          "indexed": true,
          "internalType": "address",
          "name": "borrower",
          "type": "address"
        },
        {
          "indexed": false,
          "internalType": "uint256",
          "name": "compDelta",
          "type": "uint256"
        },
        {
          "indexed": false,
          "internalType": "uint256",
          "name": "compBorrowIndex",
          "type": "uint256"
        }
      ],
      "name": "DistributedBorrowerComp",
      "type": "event"
    },
    {
      "anonymous": false,
      "inputs": [
        {
          "indexed": true,
          "internalType": "contract CToken",
          "name": "cToken",
          "type": "address"
        },
        {
          "indexed": true,
          "internalType": "address",
          "name": "supplier",
          "type": "address"
        },
        {
          "indexed": false,
          "internalType": "uint256",
          "name": "compDelta",
          "type": "uint256"
        },
        {
          "indexed": false,
          "internalType": "uint256",
          "name": "compSupplyIndex",
          "type": "uint256"
        }
      ],
      "name": "DistributedSupplierComp",
      "type": "event"
    },
    {
      "anonymous": false,
      "inputs": [
        {
          "indexed": false,
          "internalType": "address",
          "name": "oldAdmin",
          "type": "address"
        },
        {
          "indexed": false,
          "internalType": "address",
          "name": "newAdmin",
          "type": "address"
        }
      ],
      "name": "NewAdmin",
      "type": "event"
    },
    {
      "anonymous": false,
      "inputs": [
        {
          "indexed": false,
          "internalType": "address",
          "name": "oldPendingAdmin",
          "type": "address"
        },
        {
          "indexed": false,
          "internalType": "address",
          "name": "newPendingAdmin",
          "type": "address"
        }
      ],
      "name": "NewPendingAdmin",
      "type": "event"
    },
    {
      "inputs": [],
      "name": "_acceptAdmin",
      "outputs": [],
      "stateMutability": "nonpayable",
      "type": "function"
    },
    {
      "inputs": [
        {
          "internalType": "address",
          "name": "recipient",
          "type": "address"
        },
        {
          "internalType": "uint256",
          "name": "amount",
          "type": "uint256"
        }
      ],
      "name": "_grantComp",
      "outputs": [],
      "stateMutability": "nonpayable",
      "type": "function"
    },
    {
      "inputs": [
        {
          "internalType": "contract CToken",
          "name": "cToken",
          "type": "address"
        },
        {
          "internalType": "uint256",
          "name": "compSpeed",
          "type": "uint256"
        }
      ],
      "name": "_setCompBorrowSpeed",
      "outputs": [],
      "stateMutability": "nonpayable",
      "type": "function"
    },
    {
      "inputs": [
        {
          "internalType": "contract CToken[]",
          "name": "cTokens",
          "type": "address[]"
        },
        {
          "internalType": "uint256[]",
          "name": "supplySpeeds",
          "type": "uint256[]"
        },
        {
          "internalType": "uint256[]",
          "name": "borrowSpeeds",
          "type": "uint256[]"
        }
      ],
      "name": "_setCompSpeeds",
      "outputs": [],
      "stateMutability": "nonpayable",
      "type": "function"
    },
    {
      "inputs": [
        {
          "internalType": "contract CToken",
          "name": "cToken",
          "type": "address"
        },
        {
          "internalType": "uint256",
          "name": "compSpeed",
          "type": "uint256"
        }
      ],
      "name": "_setCompSupplySpeed",
      "outputs": [],
      "stateMutability": "nonpayable",
      "type": "function"
    },
    {
      "inputs": [
        {
          "internalType": "address",
          "name": "contributor",
          "type": "address"
        },
        {
          "internalType": "uint256",
          "name": "compSpeed",
          "type": "uint256"
        }
      ],
      "name": "_setContributorCompSpeed",
      "outputs": [],
      "stateMutability": "nonpayable",
      "type": "function"
    },
    {
      "inputs": [
        {
          "internalType": "address",
          "name": "newPendingAdmin",
          "type": "address"
        }
      ],
      "name": "_setPendingAdmin",
      "outputs": [],
      "stateMutability": "nonpayable",
      "type": "function"
    },
    {
      "inputs": [],
      "name": "admin",
      "outputs": [
        {
          "internalType": "address",
          "name": "",
          "type": "address"
        }
      ],
      "stateMutability": "view",
      "type": "function"
    },
    {
      "inputs": [
        {
          "internalType": "uint256",
          "name": "",
          "type": "uint256"
        }
      ],
      "name": "allMarkets",
      "outputs": [
        {
          "internalType": "contract CToken",
          "name": "",
          "type": "address"
        }
      ],
      "stateMutability": "view",
      "type": "function"
    },
    {
      "inputs": [
        {
          "internalType": "address",
          "name": "holder",
          "type": "address"
        },
        {
          "internalType": "contract CToken[]",
          "name": "cTokens",
          "type": "address[]"
        }
      ],
      "name": "claimRewards",
      "outputs": [],
      "stateMutability": "nonpayable",
      "type": "function"
    },
    {
      "inputs": [
        {
          "internalType": "address[]",
          "name": "holders",
          "type": "address[]"
        },
        {
          "internalType": "contract CToken[]",
          "name": "cTokens",
          "type": "address[]"
        },
        {
          "internalType": "bool",
          "name": "borrowers",
          "type": "bool"
        },
        {
          "internalType": "bool",
          "name": "suppliers",
          "type": "bool"
        }
      ],
      "name": "claimRewards",
      "outputs": [],
      "stateMutability": "nonpayable",
      "type": "function"
    },
    {
      "inputs": [
        {
          "internalType": "address",
          "name": "holder",
          "type": "address"
        }
      ],
      "name": "claimRewards",
      "outputs": [],
      "stateMutability": "nonpayable",
      "type": "function"
    },
    {
      "inputs": [
        {
          "internalType": "address",
          "name": "",
          "type": "address"
        }
      ],
      "name": "compAccrued",
      "outputs": [
        {
          "internalType": "uint256",
          "name": "",
          "type": "uint256"
        }
      ],
      "stateMutability": "view",
      "type": "function"
    },
    {
      "inputs": [
        {
          "internalType": "address",
          "name": "",
          "type": "address"
        }
      ],
      "name": "compBorrowSpeeds",
      "outputs": [
        {
          "internalType": "uint256",
          "name": "",
          "type": "uint256"
        }
      ],
      "stateMutability": "view",
      "type": "function"
    },
    {
      "inputs": [
        {
          "internalType": "address",
          "name": "",
          "type": "address"
        }
      ],
      "name": "compBorrowState",
      "outputs": [
        {
          "internalType": "uint224",
          "name": "index",
          "type": "uint224"
        },
        {
          "internalType": "uint32",
          "name": "block",
          "type": "uint32"
        }
      ],
      "stateMutability": "view",
      "type": "function"
    },
    {
      "inputs": [
        {
          "internalType": "address",
          "name": "",
          "type": "address"
        },
        {
          "internalType": "address",
          "name": "",
          "type": "address"
        }
      ],
      "name": "compBorrowerIndex",
      "outputs": [
        {
          "internalType": "uint256",
          "name": "",
          "type": "uint256"
        }
      ],
      "stateMutability": "view",
      "type": "function"
    },
    {
      "inputs": [
        {
          "internalType": "address",
          "name": "",
          "type": "address"
        }
      ],
      "name": "compContributorSpeeds",
      "outputs": [
        {
          "internalType": "uint256",
          "name": "",
          "type": "uint256"
        }
      ],
      "stateMutability": "view",
      "type": "function"
    },
    {
      "inputs": [],
      "name": "compInitialIndex",
      "outputs": [
        {
          "internalType": "uint224",
          "name": "",
          "type": "uint224"
        }
      ],
      "stateMutability": "view",
      "type": "function"
    },
    {
      "inputs": [
        {
          "internalType": "address",
          "name": "",
          "type": "address"
        },
        {
          "internalType": "address",
          "name": "",
          "type": "address"
        }
      ],
      "name": "compSupplierIndex",
      "outputs": [
        {
          "internalType": "uint256",
          "name": "",
          "type": "uint256"
        }
      ],
      "stateMutability": "view",
      "type": "function"
    },
    {
      "inputs": [
        {
          "internalType": "address",
          "name": "",
          "type": "address"
        }
      ],
      "name": "compSupplySpeeds",
      "outputs": [
        {
          "internalType": "uint256",
          "name": "",
          "type": "uint256"
        }
      ],
      "stateMutability": "view",
      "type": "function"
    },
    {
      "inputs": [
        {
          "internalType": "address",
          "name": "",
          "type": "address"
        }
      ],
      "name": "compSupplyState",
      "outputs": [
        {
          "internalType": "uint224",
          "name": "index",
          "type": "uint224"
        },
        {
          "internalType": "uint32",
          "name": "block",
          "type": "uint32"
        }
      ],
      "stateMutability": "view",
      "type": "function"
    },
    {
      "inputs": [
        {
          "internalType": "address",
          "name": "cToken",
          "type": "address"
        },
        {
          "internalType": "address",
          "name": "borrower",
          "type": "address"
        }
      ],
      "name": "flywheelPreBorrowerAction",
      "outputs": [],
      "stateMutability": "nonpayable",
      "type": "function"
    },
    {
      "inputs": [
        {
          "internalType": "address",
          "name": "cToken",
          "type": "address"
        },
        {
          "internalType": "address",
          "name": "supplier",
          "type": "address"
        }
      ],
      "name": "flywheelPreSupplierAction",
      "outputs": [],
      "stateMutability": "nonpayable",
      "type": "function"
    },
    {
      "inputs": [
        {
          "internalType": "address",
          "name": "cToken",
          "type": "address"
        },
        {
          "internalType": "address",
          "name": "src",
          "type": "address"
        },
        {
          "internalType": "address",
          "name": "dst",
          "type": "address"
        }
      ],
      "name": "flywheelPreTransferAction",
      "outputs": [],
      "stateMutability": "nonpayable",
      "type": "function"
    },
    {
      "inputs": [],
      "name": "getAllMarkets",
      "outputs": [
        {
          "internalType": "contract CToken[]",
          "name": "",
          "type": "address[]"
        }
      ],
      "stateMutability": "view",
      "type": "function"
    },
    {
      "inputs": [],
      "name": "getBlockNumber",
      "outputs": [
        {
          "internalType": "uint256",
          "name": "",
          "type": "uint256"
        }
      ],
      "stateMutability": "view",
      "type": "function"
    },
    {
      "inputs": [],
      "name": "implementation",
      "outputs": [
        {
          "internalType": "address",
          "name": "",
          "type": "address"
        }
      ],
      "stateMutability": "view",
      "type": "function"
    },
    {
      "inputs": [
        {
          "internalType": "address",
          "name": "_rewardToken",
          "type": "address"
        }
      ],
      "name": "initialize",
      "outputs": [],
      "stateMutability": "nonpayable",
      "type": "function"
    },
    {
      "inputs": [],
      "name": "isRewardsDistributor",
      "outputs": [
        {
          "internalType": "bool",
          "name": "",
          "type": "bool"
        }
      ],
      "stateMutability": "view",
      "type": "function"
    },
    {
      "inputs": [
        {
          "internalType": "address",
          "name": "",
          "type": "address"
        }
      ],
      "name": "lastContributorBlock",
      "outputs": [
        {
          "internalType": "uint256",
          "name": "",
          "type": "uint256"
        }
      ],
      "stateMutability": "view",
      "type": "function"
    },
    {
      "inputs": [],
      "name": "pendingAdmin",
      "outputs": [
        {
          "internalType": "address",
          "name": "",
          "type": "address"
        }
      ],
      "stateMutability": "view",
      "type": "function"
    },
    {
      "inputs": [],
      "name": "rewardToken",
      "outputs": [
        {
          "internalType": "address",
          "name": "",
          "type": "address"
        }
      ],
      "stateMutability": "view",
      "type": "function"
    },
    {
      "inputs": [
        {
          "internalType": "address",
          "name": "contributor",
          "type": "address"
        }
      ],
      "name": "updateContributorRewards",
      "outputs": [],
      "stateMutability": "nonpayable",
      "type": "function"
    }
  ],
  "bytecode": {
    "object": "0x608060405234801561001057600080fd5b50612b43806100206000396000f3fe608060405234801561001057600080fd5b50600436106101fb5760003560e01c8063a7f0e2311161011a578063ca0af043116100ad578063e9c714f21161007c578063e9c714f214610524578063ef5cfb8c1461052c578063f4a433c01461053f578063f7c618c11461055f578063f851a4401461057257600080fd5b8063ca0af043146104b3578063cc7ebdc4146104de578063e3af317b146104fe578063e6e162e81461051157600080fd5b8063b21be7fd116100e9578063b21be7fd14610442578063b71d1a0c1461046d578063bea6b8b814610480578063c4d66de8146104a057600080fd5b8063a7f0e231146103d4578063a8b4394814610402578063abc6d72d14610415578063b0772d0b1461042d57600080fd5b8063598ee1cb116101925780636b79c38d116101615780636b79c38d1461030d578063741b2525146103695780638c57804e1461037c578063986ab838146103b457600080fd5b8063598ee1cb146102b45780635c60da1b146102c757806365999470146102da5780636aa875b5146102ed57600080fd5b806342cbb15c116101ce57806342cbb15c1461026b5780634e081c951461027b57806352d84d1e1461028e57806354eb76fa146102a157600080fd5b80631c9161e0146102005780632026ffa314610215578063267822471461022857806327efe3cb14610258575b600080fd5b61021361020e366004612466565b610585565b005b61021361022336600461257e565b6105c3565b60015461023b906001600160a01b031681565b6040516001600160a01b0390911681526020015b60405180910390f35b6102136102663660046125ce565b61062b565b435b60405190815260200161024f565b6102136102893660046125fa565b61072d565b61023b61029c366004612645565b610771565b6102136102af36600461267c565b61079b565b6102136102c23660046125ce565b610a20565b60025461023b906001600160a01b031681565b6102136102e83660046125ce565b610aea565b61026d6102fb36600461275f565b60056020526000908152604090205481565b61034561031b36600461275f565b6007602052600090815260409020546001600160e01b03811690600160e01b900463ffffffff1682565b604080516001600160e01b03909316835263ffffffff90911660208301520161024f565b61021361037736600461275f565b610b1e565b61034561038a36600461275f565b6008602052600090815260409020546001600160e01b03811690600160e01b900463ffffffff1682565b61026d6103c236600461275f565b600c6020526000908152604090205481565b6103ea6ec097ce7bc90715b34b9f100000000081565b6040516001600160e01b03909116815260200161024f565b6102136104103660046127d7565b610bcb565b61041d600181565b604051901515815260200161024f565b610435610cff565b60405161024f919061285f565b61026d610450366004612466565b600960209081526000928352604080842090915290825290205481565b61021361047b36600461275f565b610d61565b61026d61048e36600461275f565b600d6020526000908152604090205481565b6102136104ae36600461275f565b610e35565b61026d6104c1366004612466565b600a60209081526000928352604080842090915290825290205481565b61026d6104ec36600461275f565b600b6020526000908152604090205481565b61021361050c3660046125ce565b610f73565b61021361051f366004612466565b610fa7565b610213611056565b61021361053a36600461275f565b611185565b61026d61054d36600461275f565b60066020526000908152604090205481565b60035461023b906001600160a01b031681565b60005461023b906001600160a01b031681565b6001600160a01b0382166000908152600760205260409020546001600160e01b0316156105bf576105b5826111ec565b6105bf828261145a565b5050565b6040805160018082528183019092526000916020808301908036833701905050905082816000815181106105f9576105f96128ac565b60200260200101906001600160a01b031690816001600160a01b031681525050610626818360018061079b565b505050565b6000546001600160a01b0316331461068a5760405162461bcd60e51b815260206004820152601960248201527f6f6e6c792061646d696e2063616e206772616e7420636f6d700000000000000060448201526064015b60405180910390fd5b600061069683836115fe565b905080156106e65760405162461bcd60e51b815260206004820152601b60248201527f696e73756666696369656e7420636f6d7020666f72206772616e7400000000006044820152606401610681565b604080516001600160a01b0385168152602081018490527f98b2f82a3a07f223a0be64b3d0f47711c64dccd1feafb94aa28156b38cd9695c910160405180910390a1505050565b6001600160a01b0383166000908152600760205260409020546001600160e01b0316156106265761075d836111ec565b610767838361145a565b610626838261145a565b6004818154811061078157600080fd5b6000918252602090912001546001600160a01b0316905081565b60005b83518110156109565760008482815181106107bb576107bb6128ac565b60200260200101519050831515600115151480156107f957506001600160a01b0381166000908152600860205260409020546001600160e01b031615155b156108c05760006040518060200160405280836001600160a01b031663aa5af0fd6040518163ffffffff1660e01b8152600401602060405180830381865afa158015610849573d6000803e3d6000fd5b505050506040513d601f19601f8201168201806040525081019061086d91906128c2565b9052905061087b82826116ff565b60005b87518110156108bd576108ab8389838151811061089d5761089d6128ac565b602002602001015184611978565b806108b5816128f1565b91505061087e565b50505b60018315151480156108f257506001600160a01b0381166000908152600760205260409020546001600160e01b031615155b1561094357610900816111ec565b60005b86518110156109415761092f82888381518110610922576109226128ac565b602002602001015161145a565b80610939816128f1565b915050610903565b505b508061094e816128f1565b91505061079e565b5060005b8451811015610a19576109c4858281518110610978576109786128ac565b6020026020010151600b6000888581518110610996576109966128ac565b60200260200101516001600160a01b03166001600160a01b03168152602001908152602001600020546115fe565b600b60008784815181106109da576109da6128ac565b60200260200101516001600160a01b03166001600160a01b03168152602001908152602001600020819055508080610a11906128f1565b91505061095a565b5050505050565b6000546001600160a01b03163314610a4a5760405162461bcd60e51b81526004016106819061290c565b610a5382610b1e565b80610a76576001600160a01b0382166000908152600d6020526040812055610a91565b436001600160a01b0383166000908152600d60205260409020555b6001600160a01b0382166000818152600c602052604090819020839055517f386537fa92edc3319af95f1f904dcf1900021e4f3f4e08169a577a09076e66b390610ade9084815260200190565b60405180910390a25050565b6000546001600160a01b03163314610b145760405162461bcd60e51b81526004016106819061290c565b6105bf8282611ade565b6001600160a01b0381166000908152600c6020908152604080832054600d90925282205490914391610b51908390611d48565b9050600081118015610b635750600083115b15610bc5576000610b748285611d89565b6001600160a01b0386166000908152600b602052604081205491925090610b9b9083611dcb565b6001600160a01b0387166000908152600b6020908152604080832093909355600d90522084905550505b50505050565b6000546001600160a01b03163314610bf55760405162461bcd60e51b81526004016106819061290c565b8251825181148015610c075750815181145b610c6c5760405162461bcd60e51b815260206004820152603060248201527f526577617264734469737472696275746f723a3a5f736574436f6d705370656560448201526f191cc81a5b9d985b1a59081a5b9c1d5d60821b6064820152608401610681565b60005b81811015610a1957610cb3858281518110610c8c57610c8c6128ac565b6020026020010151858381518110610ca657610ca66128ac565b6020026020010151611e01565b610cef858281518110610cc857610cc86128ac565b6020026020010151848381518110610ce257610ce26128ac565b6020026020010151611ade565b610cf8816128f1565b9050610c6f565b60606004805480602002602001604051908101604052809291908181526020018280548015610d5757602002820191906000526020600020905b81546001600160a01b03168152600190910190602001808311610d39575b5050505050905090565b6000546001600160a01b03163314610dd35760405162461bcd60e51b815260206004820152602f60248201527f526577617264734469737472696275746f723a5f73657450656e64696e67416460448201526e6d696e3a2061646d696e206f6e6c7960881b6064820152608401610681565b600180546001600160a01b038381166001600160a01b031983168117909355604080519190921680825260208201939093527fca4f2f25d0898edd99413412fb94012f9e54ec8142f9b093e7720646a95b16a991015b60405180910390a15050565b6000546001600160a01b03163314610e8f5760405162461bcd60e51b815260206004820152601a60248201527f4f6e6c792061646d696e2063616e20696e697469616c697a652e0000000000006044820152606401610681565b6003546001600160a01b031615610edf5760405162461bcd60e51b815260206004820152601460248201527320b63932b0b23c9034b734ba34b0b634bd32b21760611b6044820152606401610681565b6001600160a01b038116610f515760405162461bcd60e51b815260206004820152603360248201527f43616e6e6f7420696e697469616c697a652072657761726420746f6b656e207460448201527237903a3432903d32b9379030b2323932b9b99760691b6064820152608401610681565b600380546001600160a01b0319166001600160a01b0392909216919091179055565b6000546001600160a01b03163314610f9d5760405162461bcd60e51b81526004016106819061290c565b6105bf8282611e01565b6001600160a01b0382166000908152600860205260409020546001600160e01b0316156105bf5760006040518060200160405280846001600160a01b031663aa5af0fd6040518163ffffffff1660e01b8152600401602060405180830381865afa158015611019573d6000803e3d6000fd5b505050506040513d601f19601f8201168201806040525081019061103d91906128c2565b9052905061104b83826116ff565b610626838383611978565b6001546001600160a01b03163314801561106f57503315155b6110d75760405162461bcd60e51b815260206004820152603360248201527f526577617264734469737472696275746f723a5f61636365707441646d696e3a6044820152722070656e64696e672061646d696e206f6e6c7960681b6064820152608401610681565b60008054600180546001600160a01b038082166001600160a01b031980861682179096559490911690915560408051919092168082526020820184905292917ff9ffabca9c8276e99321725bcb43fb076a6c66a54b7f21c4e8146d8519b417dc910160405180910390a1600154604080516001600160a01b03808516825290921660208301527fca4f2f25d0898edd99413412fb94012f9e54ec8142f9b093e7720646a95b16a99101610e29565b6111e98160048054806020026020016040519081016040528092919081815260200182805480156111df57602002820191906000526020600020905b81546001600160a01b031681526001909101906020018083116111c1575b50505050506105c3565b50565b6001600160a01b038116600090815260076020908152604080832060059092528220549091438354909150600090611232908390600160e01b900463ffffffff16611d48565b90506000811180156112445750600083115b156113e9576000856001600160a01b03166318160ddd6040518163ffffffff1660e01b8152600401602060405180830381865afa158015611289573d6000803e3d6000fd5b505050506040513d601f19601f820116820180604052508101906112ad91906128c2565b905060006112bb8386611d89565b905060008083116112db57604051806020016040528060008152506112e5565b6112e58284611fc3565b604080516020810190915288546001600160e01b0316815290915060009061130d9083612008565b9050604051806040016040528061135d83600001516040518060400160405280601a81526020017f6e657720696e6465782065786365656473203232342062697473000000000000815250612034565b6001600160e01b03168152602001611398886040518060400160405280601c8152602001600080516020612aee833981519152815250612063565b63ffffffff9081169091526001600160a01b038b16600090815260076020908152604090912083519390910151909116600160e01b026001600160e01b0390921691909117905550610a1992505050565b600081118015611402575083546001600160e01b031615155b15610a1957611434826040518060400160405280601c8152602001600080516020612aee833981519152815250612063565b845463ffffffff91909116600160e01b026001600160e01b039091161784555050505050565b6001600160a01b0380831660008181526007602090815260408083208151808401835281546001600160e01b03168152825180850184529585526009845282852096881680865287855292852080548752815193909552959092529091558151909291901580156114cb5750815115155b156114e3576ec097ce7bc90715b34b9f100000000081525b60006114ef838361208b565b6040516370a0823160e01b81526001600160a01b0387811660048301529192506000918816906370a0823190602401602060405180830381865afa15801561153b573d6000803e3d6000fd5b505050506040513d601f19601f8201168201806040525081019061155f91906128c2565b9050600061156d82846120b7565b6001600160a01b0388166000908152600b6020526040812054919250906115949083611dcb565b6001600160a01b038981166000818152600b60209081526040918290208590558a518251888152918201529394509092918c16917f2caecd17d02f56fa897705dcc740da2d237c373f70686f4e0d9bd3bf0400ea7a910160405180910390a3505050505050505050565b6003546040516370a0823160e01b81523060048201526000916001600160a01b031690829082906370a0823190602401602060405180830381865afa15801561164b573d6000803e3d6000fd5b505050506040513d601f19601f8201168201806040525081019061166f91906128c2565b90506000841180156116815750808411155b156116f35760405163a9059cbb60e01b81526001600160a01b0386811660048301526024820186905283169063a9059cbb90604401600060405180830381600087803b1580156116d057600080fd5b505af11580156116e4573d6000803e3d6000fd5b505050506000925050506116f9565b83925050505b92915050565b6001600160a01b038216600090815260086020908152604080832060069092528220549091438354909150600090611745908390600160e01b900463ffffffff16611d48565b90506000811180156117575750600083115b156119055760006117c9876001600160a01b03166347bd37186040518163ffffffff1660e01b8152600401602060405180830381865afa15801561179f573d6000803e3d6000fd5b505050506040513d601f19601f820116820180604052508101906117c391906128c2565b876120e1565b905060006117d78386611d89565b905060008083116117f75760405180602001604052806000815250611801565b6118018284611fc3565b604080516020810190915288546001600160e01b031681529091506000906118299083612008565b9050604051806040016040528061187983600001516040518060400160405280601a81526020017f6e657720696e6465782065786365656473203232342062697473000000000000815250612034565b6001600160e01b031681526020016118b4886040518060400160405280601c8152602001600080516020612aee833981519152815250612063565b63ffffffff9081169091526001600160a01b038c16600090815260086020908152604090912083519390910151909116600160e01b026001600160e01b039092169190911790555061197092505050565b60008111801561191e575083546001600160e01b031615155b1561197057611950826040518060400160405280601c8152602001600080516020612aee833981519152815250612063565b845463ffffffff91909116600160e01b026001600160e01b039091161784555b505050505050565b6001600160a01b0380841660008181526008602090815260408083208151808401835281546001600160e01b0316815282518085018452958552600a84528285209689168086528785529285208054875281519390955295909252909155815190929190156119705760006119ed838361208b565b6040516395dd919360e01b81526001600160a01b038881166004830152919250600091611a3e91908a16906395dd919390602401602060405180830381865afa15801561179f573d6000803e3d6000fd5b90506000611a4c82846120b7565b6001600160a01b0389166000908152600b602052604081205491925090611a739083611dcb565b6001600160a01b038a81166000818152600b60209081526040918290208590558a518251888152918201529394509092918d16917f1fc3ecc087d8d2d15e23d0032af5a47059c3892d003d8e139fdcb6bb327c99a6910160405180910390a350505050505050505050565b6001600160a01b0382166000908152600660205260409020548015611b805760006040518060200160405280856001600160a01b031663aa5af0fd6040518163ffffffff1660e01b8152600401602060405180830381865afa158015611b48573d6000803e3d6000fd5b505050506040513d601f19601f82011682018060405250810190611b6c91906128c2565b90529050611b7a84826116ff565b50611ce7565b8115611ce757611b8f836120ff565b6001600160a01b0383166000908152600860205260409020546001600160e01b0316611ca357604080518082019091526ec097ce7bc90715b34b9f1000000000815260208101611c03435b6040518060400160405280601c8152602001600080516020612aee833981519152815250612063565b63ffffffff9081169091526001600160a01b0385166000908152600860209081526040808320855195830151909416600160e01b026001600160e01b039586161790935560079052205416611c9e57600480546001810182556000919091527f8a35acfbc15ff81a39ae7d344fd709f28e8600b4aa8c65c6b64bfe7fe36bd19b0180546001600160a01b0319166001600160a01b0385161790555b611ce7565b611cac43611bda565b6001600160a01b0384166000908152600860205260409020805463ffffffff92909216600160e01b026001600160e01b039092169190911790555b818114610626576001600160a01b03831660008181526006602052604090819020849055517f20af8e791cc98f74b2d7a391c80980ca8e5aebf3d4060bf581997b6acae2e53790611d3b9085815260200190565b60405180910390a2505050565b6000611d828383604051806040016040528060158152602001747375627472616374696f6e20756e646572666c6f7760581b815250612333565b9392505050565b6000611d8283836040518060400160405280601781526020017f6d756c7469706c69636174696f6e206f766572666c6f7700000000000000000081525061236a565b6000611d828383604051806040016040528060118152602001706164646974696f6e206f766572666c6f7760781b8152506123c6565b6001600160a01b0382166000908152600560205260409020548015611e2e57611e29836111ec565b611f6f565b8115611f6f57611e3d836120ff565b6001600160a01b0383166000908152600760205260409020546001600160e01b0316611f2b57604080518082019091526ec097ce7bc90715b34b9f1000000000815260208101611e8c43611bda565b63ffffffff9081169091526001600160a01b0385166000908152600760209081526040808320855195830151909416600160e01b026001600160e01b039586161790935560089052205416611e2957600480546001810182556000919091527f8a35acfbc15ff81a39ae7d344fd709f28e8600b4aa8c65c6b64bfe7fe36bd19b0180546001600160a01b0319166001600160a01b038516179055611f6f565b611f3443611bda565b6001600160a01b0384166000908152600760205260409020805463ffffffff92909216600160e01b026001600160e01b039092169190911790555b818114610626576001600160a01b03831660008181526005602052604090819020849055517fdeafccd0c0b768b2529f7dcbbe58e155d6023059150b7490ed4535cc3744b92d90611d3b9085815260200190565b6040805160208101909152600081526040518060200160405280611fff611ff9866ec097ce7bc90715b34b9f1000000000611d89565b856123f7565b90529392505050565b6040805160208101909152600081526040518060200160405280611fff85600001518560000151611dcb565b600081600160e01b841061205b5760405162461bcd60e51b81526004016106819190612943565b509192915050565b600081640100000000841061205b5760405162461bcd60e51b81526004016106819190612943565b6040805160208101909152600081526040518060200160405280611fff85600001518560000151611d48565b60006ec097ce7bc90715b34b9f10000000006120d7848460000151611d89565b611d829190612998565b6000611d826120f884670de0b6b3a7640000611d89565b83516123f7565b6000816001600160a01b0316635fe3b5676040518163ffffffff1660e01b8152600401602060405180830381865afa15801561213f573d6000803e3d6000fd5b505050506040513d601f19601f8201168201806040525081019061216391906129ba565b604051638e8f294b60e01b81526001600160a01b038481166004830152919250600091831690638e8f294b906024016040805180830381865afa1580156121ae573d6000803e3d6000fd5b505050506040513d601f19601f820116820180604052508101906121d291906129d7565b5090506001811515146122275760405162461bcd60e51b815260206004820152601960248201527f636f6d70206d61726b6574206973206e6f74206c6973746564000000000000006044820152606401610681565b600080836001600160a01b0316633605b51b6040518163ffffffff1660e01b8152600401600060405180830381865afa158015612268573d6000803e3d6000fd5b505050506040513d6000823e601f3d908101601f191682016040526122909190810190612a05565b905060005b81518110156122e857306001600160a01b03168282815181106122ba576122ba6128ac565b60200260200101516001600160a01b031614156122d657600192505b806122e0816128f1565b915050612295565b50600182151514610a195760405162461bcd60e51b8152602060048201526015602482015274191a5cdd1c9a589d5d1bdc881b9bdd081859191959605a1b6044820152606401610681565b600081848411156123575760405162461bcd60e51b81526004016106819190612943565b506123628385612a9f565b949350505050565b6000831580612377575082155b1561238457506000611d82565b60006123908486612ab6565b90508361239d8683612998565b1483906123bd5760405162461bcd60e51b81526004016106819190612943565b50949350505050565b6000806123d38486612ad5565b905082858210156123bd5760405162461bcd60e51b81526004016106819190612943565b6000611d8283836040518060400160405280600e81526020016d646976696465206279207a65726f60901b815250600081836124465760405162461bcd60e51b81526004016106819190612943565b506123628385612998565b6001600160a01b03811681146111e957600080fd5b6000806040838503121561247957600080fd5b823561248481612451565b9150602083013561249481612451565b809150509250929050565b634e487b7160e01b600052604160045260246000fd5b604051601f8201601f1916810167ffffffffffffffff811182821017156124de576124de61249f565b604052919050565b600067ffffffffffffffff8211156125005761250061249f565b5060051b60200190565b600082601f83011261251b57600080fd5b8135602061253061252b836124e6565b6124b5565b82815260059290921b8401810191818101908684111561254f57600080fd5b8286015b8481101561257357803561256681612451565b8352918301918301612553565b509695505050505050565b6000806040838503121561259157600080fd5b823561259c81612451565b9150602083013567ffffffffffffffff8111156125b857600080fd5b6125c48582860161250a565b9150509250929050565b600080604083850312156125e157600080fd5b82356125ec81612451565b946020939093013593505050565b60008060006060848603121561260f57600080fd5b833561261a81612451565b9250602084013561262a81612451565b9150604084013561263a81612451565b809150509250925092565b60006020828403121561265757600080fd5b5035919050565b80151581146111e957600080fd5b80356126778161265e565b919050565b6000806000806080858703121561269257600080fd5b843567ffffffffffffffff808211156126aa57600080fd5b818701915087601f8301126126be57600080fd5b813560206126ce61252b836124e6565b82815260059290921b8401810191818101908b8411156126ed57600080fd5b948201945b8386101561271457853561270581612451565b825294820194908201906126f2565b9850508801359250508082111561272a57600080fd5b506127378782880161250a565b9350506127466040860161266c565b91506127546060860161266c565b905092959194509250565b60006020828403121561277157600080fd5b8135611d8281612451565b600082601f83011261278d57600080fd5b8135602061279d61252b836124e6565b82815260059290921b840181019181810190868411156127bc57600080fd5b8286015b8481101561257357803583529183019183016127c0565b6000806000606084860312156127ec57600080fd5b833567ffffffffffffffff8082111561280457600080fd5b6128108783880161250a565b9450602086013591508082111561282657600080fd5b6128328783880161277c565b9350604086013591508082111561284857600080fd5b506128558682870161277c565b9150509250925092565b6020808252825182820181905260009190848201906040850190845b818110156128a05783516001600160a01b03168352928401929184019160010161287b565b50909695505050505050565b634e487b7160e01b600052603260045260246000fd5b6000602082840312156128d457600080fd5b5051919050565b634e487b7160e01b600052601160045260246000fd5b6000600019821415612905576129056128db565b5060010190565b6020808252601d908201527f6f6e6c792061646d696e2063616e2073657420636f6d70207370656564000000604082015260600190565b600060208083528351808285015260005b8181101561297057858101830151858201604001528201612954565b81811115612982576000604083870101525b50601f01601f1916929092016040019392505050565b6000826129b557634e487b7160e01b600052601260045260246000fd5b500490565b6000602082840312156129cc57600080fd5b8151611d8281612451565b600080604083850312156129ea57600080fd5b82516129f58161265e565b6020939093015192949293505050565b60006020808385031215612a1857600080fd5b825167ffffffffffffffff811115612a2f57600080fd5b8301601f81018513612a4057600080fd5b8051612a4e61252b826124e6565b81815260059190911b82018301908381019087831115612a6d57600080fd5b928401925b82841015612a94578351612a8581612451565b82529284019290840190612a72565b979650505050505050565b600082821015612ab157612ab16128db565b500390565b6000816000190483118215151615612ad057612ad06128db565b500290565b60008219821115612ae857612ae86128db565b50019056fe626c6f636b206e756d6265722065786365656473203332206269747300000000a26469706673582212207c99f33c5b3568c4551dccba2dbed9b5c2ecad460b447f5924b046970ca3802664736f6c634300080a0033",
    "linkReferences": {}
  }
}