{
  "address": "0x2FeeDb3E5F688B3399fF816D4950eA0BE707EF71",
  "abi": [
    {
      "inputs": [],
      "stateMutability": "nonpayable",
      "type": "constructor"
    },
    {
      "anonymous": false,
      "inputs": [
        {
          "indexed": false,
          "internalType": "uint256",
          "name": "cashPrior",
          "type": "uint256"
        },
        {
          "indexed": false,
          "internalType": "uint256",
          "name": "interestAccumulated",
          "type": "uint256"
        },
        {
          "indexed": false,
          "internalType": "uint256",
          "name": "borrowIndex",
          "type": "uint256"
        },
        {
          "indexed": false,
          "internalType": "uint256",
          "name": "totalBorrows",
          "type": "uint256"
        }
      ],
      "name": "AccrueInterest",
      "type": "event"
    },
    {
      "anonymous": false,
      "inputs": [
        {
          "indexed": true,
          "internalType": "address",
          "name": "owner",
          "type": "address"
        },
        {
          "indexed": true,
          "internalType": "address",
          "name": "spender",
          "type": "address"
        },
        {
          "indexed": false,
          "internalType": "uint256",
          "name": "amount",
          "type": "uint256"
        }
      ],
      "name": "Approval",
      "type": "event"
    },
    {
      "anonymous": false,
      "inputs": [
        {
          "indexed": false,
          "internalType": "address",
          "name": "borrower",
          "type": "address"
        },
        {
          "indexed": false,
          "internalType": "uint256",
          "name": "borrowAmount",
          "type": "uint256"
        },
        {
          "indexed": false,
          "internalType": "uint256",
          "name": "accountBorrows",
          "type": "uint256"
        },
        {
          "indexed": false,
          "internalType": "uint256",
          "name": "totalBorrows",
          "type": "uint256"
        }
      ],
      "name": "Borrow",
      "type": "event"
    },
    {
      "anonymous": false,
      "inputs": [
        {
          "indexed": false,
          "internalType": "uint256",
          "name": "error",
          "type": "uint256"
        },
        {
          "indexed": false,
          "internalType": "uint256",
          "name": "info",
          "type": "uint256"
        },
        {
          "indexed": false,
          "internalType": "uint256",
          "name": "detail",
          "type": "uint256"
        }
      ],
      "name": "Failure",
      "type": "event"
    },
    {
      "anonymous": false,
      "inputs": [
        {
          "indexed": false,
          "internalType": "address",
          "name": "liquidator",
          "type": "address"
        },
        {
          "indexed": false,
          "internalType": "address",
          "name": "borrower",
          "type": "address"
        },
        {
          "indexed": false,
          "internalType": "uint256",
          "name": "repayAmount",
          "type": "uint256"
        },
        {
          "indexed": false,
          "internalType": "address",
          "name": "cTokenCollateral",
          "type": "address"
        },
        {
          "indexed": false,
          "internalType": "uint256",
          "name": "seizeTokens",
          "type": "uint256"
        }
      ],
      "name": "LiquidateBorrow",
      "type": "event"
    },
    {
      "anonymous": false,
      "inputs": [
        {
          "indexed": false,
          "internalType": "address",
          "name": "minter",
          "type": "address"
        },
        {
          "indexed": false,
          "internalType": "uint256",
          "name": "mintAmount",
          "type": "uint256"
        },
        {
          "indexed": false,
          "internalType": "uint256",
          "name": "mintTokens",
          "type": "uint256"
        }
      ],
      "name": "Mint",
      "type": "event"
    },
    {
      "anonymous": false,
      "inputs": [
        {
          "indexed": false,
          "internalType": "uint256",
          "name": "oldAdminFeeMantissa",
          "type": "uint256"
        },
        {
          "indexed": false,
          "internalType": "uint256",
          "name": "newAdminFeeMantissa",
          "type": "uint256"
        }
      ],
      "name": "NewAdminFee",
      "type": "event"
    },
    {
      "anonymous": false,
      "inputs": [
        {
          "indexed": false,
          "internalType": "contract ComptrollerInterface",
          "name": "oldComptroller",
          "type": "address"
        },
        {
          "indexed": false,
          "internalType": "contract ComptrollerInterface",
          "name": "newComptroller",
          "type": "address"
        }
      ],
      "name": "NewComptroller",
      "type": "event"
    },
    {
      "anonymous": false,
      "inputs": [
        {
          "indexed": false,
          "internalType": "uint256",
          "name": "oldFuseFeeMantissa",
          "type": "uint256"
        },
        {
          "indexed": false,
          "internalType": "uint256",
          "name": "newFuseFeeMantissa",
          "type": "uint256"
        }
      ],
      "name": "NewFuseFee",
      "type": "event"
    },
    {
      "anonymous": false,
      "inputs": [
        {
          "indexed": false,
          "internalType": "address",
          "name": "oldImplementation",
          "type": "address"
        },
        {
          "indexed": false,
          "internalType": "address",
          "name": "newImplementation",
          "type": "address"
        }
      ],
      "name": "NewImplementation",
      "type": "event"
    },
    {
      "anonymous": false,
      "inputs": [
        {
          "indexed": false,
          "internalType": "contract InterestRateModel",
          "name": "oldInterestRateModel",
          "type": "address"
        },
        {
          "indexed": false,
          "internalType": "contract InterestRateModel",
          "name": "newInterestRateModel",
          "type": "address"
        }
      ],
      "name": "NewMarketInterestRateModel",
      "type": "event"
    },
    {
      "anonymous": false,
      "inputs": [
        {
          "indexed": false,
          "internalType": "uint256",
          "name": "oldReserveFactorMantissa",
          "type": "uint256"
        },
        {
          "indexed": false,
          "internalType": "uint256",
          "name": "newReserveFactorMantissa",
          "type": "uint256"
        }
      ],
      "name": "NewReserveFactor",
      "type": "event"
    },
    {
      "anonymous": false,
      "inputs": [
        {
          "indexed": false,
          "internalType": "address",
          "name": "redeemer",
          "type": "address"
        },
        {
          "indexed": false,
          "internalType": "uint256",
          "name": "redeemAmount",
          "type": "uint256"
        },
        {
          "indexed": false,
          "internalType": "uint256",
          "name": "redeemTokens",
          "type": "uint256"
        }
      ],
      "name": "Redeem",
      "type": "event"
    },
    {
      "anonymous": false,
      "inputs": [
        {
          "indexed": false,
          "internalType": "address",
          "name": "payer",
          "type": "address"
        },
        {
          "indexed": false,
          "internalType": "address",
          "name": "borrower",
          "type": "address"
        },
        {
          "indexed": false,
          "internalType": "uint256",
          "name": "repayAmount",
          "type": "uint256"
        },
        {
          "indexed": false,
          "internalType": "uint256",
          "name": "accountBorrows",
          "type": "uint256"
        },
        {
          "indexed": false,
          "internalType": "uint256",
          "name": "totalBorrows",
          "type": "uint256"
        }
      ],
      "name": "RepayBorrow",
      "type": "event"
    },
    {
      "anonymous": false,
      "inputs": [
        {
          "indexed": false,
          "internalType": "address",
          "name": "benefactor",
          "type": "address"
        },
        {
          "indexed": false,
          "internalType": "uint256",
          "name": "addAmount",
          "type": "uint256"
        },
        {
          "indexed": false,
          "internalType": "uint256",
          "name": "newTotalReserves",
          "type": "uint256"
        }
      ],
      "name": "ReservesAdded",
      "type": "event"
    },
    {
      "anonymous": false,
      "inputs": [
        {
          "indexed": false,
          "internalType": "address",
          "name": "admin",
          "type": "address"
        },
        {
          "indexed": false,
          "internalType": "uint256",
          "name": "reduceAmount",
          "type": "uint256"
        },
        {
          "indexed": false,
          "internalType": "uint256",
          "name": "newTotalReserves",
          "type": "uint256"
        }
      ],
      "name": "ReservesReduced",
      "type": "event"
    },
    {
      "anonymous": false,
      "inputs": [
        {
          "indexed": true,
          "internalType": "address",
          "name": "from",
          "type": "address"
        },
        {
          "indexed": true,
          "internalType": "address",
          "name": "to",
          "type": "address"
        },
        {
          "indexed": false,
          "internalType": "uint256",
          "name": "amount",
          "type": "uint256"
        }
      ],
      "name": "Transfer",
      "type": "event"
    },
    {
      "inputs": [
        {
          "internalType": "bytes",
          "name": "data",
          "type": "bytes"
        }
      ],
      "name": "_becomeImplementation",
      "outputs": [],
      "stateMutability": "nonpayable",
      "type": "function"
    },
    {
      "inputs": [
        {
          "internalType": "address",
          "name": "compLikeDelegatee",
          "type": "address"
        }
      ],
      "name": "_delegateCompLikeTo",
      "outputs": [],
      "stateMutability": "nonpayable",
      "type": "function"
    },
    {
      "inputs": [],
      "name": "_prepare",
      "outputs": [],
      "stateMutability": "payable",
      "type": "function"
    },
    {
      "inputs": [
        {
          "internalType": "uint256",
          "name": "reduceAmount",
          "type": "uint256"
        }
      ],
      "name": "_reduceReserves",
      "outputs": [
        {
          "internalType": "uint256",
          "name": "",
          "type": "uint256"
        }
      ],
      "stateMutability": "nonpayable",
      "type": "function"
    },
    {
      "inputs": [
        {
          "internalType": "uint256",
          "name": "newAdminFeeMantissa",
          "type": "uint256"
        }
      ],
      "name": "_setAdminFee",
      "outputs": [
        {
          "internalType": "uint256",
          "name": "",
          "type": "uint256"
        }
      ],
      "stateMutability": "nonpayable",
      "type": "function"
    },
    {
      "inputs": [
        {
          "internalType": "address",
          "name": "implementation_",
          "type": "address"
        },
        {
          "internalType": "bool",
          "name": "allowResign",
          "type": "bool"
        },
        {
          "internalType": "bytes",
          "name": "becomeImplementationData",
          "type": "bytes"
        }
      ],
      "name": "_setImplementationSafe",
      "outputs": [],
      "stateMutability": "nonpayable",
      "type": "function"
    },
    {
      "inputs": [
        {
          "internalType": "contract InterestRateModel",
          "name": "newInterestRateModel",
          "type": "address"
        }
      ],
      "name": "_setInterestRateModel",
      "outputs": [
        {
          "internalType": "uint256",
          "name": "",
          "type": "uint256"
        }
      ],
      "stateMutability": "nonpayable",
      "type": "function"
    },
    {
      "inputs": [
        {
          "internalType": "string",
          "name": "_name",
          "type": "string"
        },
        {
          "internalType": "string",
          "name": "_symbol",
          "type": "string"
        }
      ],
      "name": "_setNameAndSymbol",
      "outputs": [],
      "stateMutability": "nonpayable",
      "type": "function"
    },
    {
      "inputs": [
        {
          "internalType": "uint256",
          "name": "newReserveFactorMantissa",
          "type": "uint256"
        }
      ],
      "name": "_setReserveFactor",
      "outputs": [
        {
          "internalType": "uint256",
          "name": "",
          "type": "uint256"
        }
      ],
      "stateMutability": "nonpayable",
      "type": "function"
    },
    {
      "inputs": [
        {
          "internalType": "uint256",
          "name": "withdrawAmount",
          "type": "uint256"
        }
      ],
      "name": "_withdrawAdminFees",
      "outputs": [
        {
          "internalType": "uint256",
          "name": "",
          "type": "uint256"
        }
      ],
      "stateMutability": "nonpayable",
      "type": "function"
    },
    {
      "inputs": [
        {
          "internalType": "uint256",
          "name": "withdrawAmount",
          "type": "uint256"
        }
      ],
      "name": "_withdrawFuseFees",
      "outputs": [
        {
          "internalType": "uint256",
          "name": "",
          "type": "uint256"
        }
      ],
      "stateMutability": "nonpayable",
      "type": "function"
    },
    {
      "inputs": [],
      "name": "accrualBlockNumber",
      "outputs": [
        {
          "internalType": "uint256",
          "name": "",
          "type": "uint256"
        }
      ],
      "stateMutability": "view",
      "type": "function"
    },
    {
      "inputs": [],
      "name": "accrueInterest",
      "outputs": [
        {
          "internalType": "uint256",
          "name": "",
          "type": "uint256"
        }
      ],
      "stateMutability": "nonpayable",
      "type": "function"
    },
    {
      "inputs": [],
      "name": "adminFeeMantissa",
      "outputs": [
        {
          "internalType": "uint256",
          "name": "",
          "type": "uint256"
        }
      ],
      "stateMutability": "view",
      "type": "function"
    },
    {
      "inputs": [
        {
          "internalType": "address",
          "name": "owner",
          "type": "address"
        },
        {
          "internalType": "address",
          "name": "spender",
          "type": "address"
        }
      ],
      "name": "allowance",
      "outputs": [
        {
          "internalType": "uint256",
          "name": "",
          "type": "uint256"
        }
      ],
      "stateMutability": "view",
      "type": "function"
    },
    {
      "inputs": [
        {
          "internalType": "address",
          "name": "spender",
          "type": "address"
        },
        {
          "internalType": "uint256",
          "name": "amount",
          "type": "uint256"
        }
      ],
      "name": "approve",
      "outputs": [
        {
          "internalType": "bool",
          "name": "",
          "type": "bool"
        }
      ],
      "stateMutability": "nonpayable",
      "type": "function"
    },
    {
      "inputs": [
        {
          "internalType": "address",
          "name": "owner",
          "type": "address"
        }
      ],
      "name": "balanceOf",
      "outputs": [
        {
          "internalType": "uint256",
          "name": "",
          "type": "uint256"
        }
      ],
      "stateMutability": "view",
      "type": "function"
    },
    {
      "inputs": [
        {
          "internalType": "address",
          "name": "owner",
          "type": "address"
        }
      ],
      "name": "balanceOfUnderlying",
      "outputs": [
        {
          "internalType": "uint256",
          "name": "",
          "type": "uint256"
        }
      ],
      "stateMutability": "nonpayable",
      "type": "function"
    },
    {
      "inputs": [
        {
          "internalType": "uint256",
          "name": "borrowAmount",
          "type": "uint256"
        }
      ],
      "name": "borrow",
      "outputs": [
        {
          "internalType": "uint256",
          "name": "",
          "type": "uint256"
        }
      ],
      "stateMutability": "nonpayable",
      "type": "function"
    },
    {
      "inputs": [
        {
          "internalType": "address",
          "name": "account",
          "type": "address"
        }
      ],
      "name": "borrowBalanceCurrent",
      "outputs": [
        {
          "internalType": "uint256",
          "name": "",
          "type": "uint256"
        }
      ],
      "stateMutability": "nonpayable",
      "type": "function"
    },
    {
      "inputs": [
        {
          "internalType": "address",
          "name": "account",
          "type": "address"
        }
      ],
      "name": "borrowBalanceStored",
      "outputs": [
        {
          "internalType": "uint256",
          "name": "",
          "type": "uint256"
        }
      ],
      "stateMutability": "view",
      "type": "function"
    },
    {
      "inputs": [],
      "name": "borrowIndex",
      "outputs": [
        {
          "internalType": "uint256",
          "name": "",
          "type": "uint256"
        }
      ],
      "stateMutability": "view",
      "type": "function"
    },
    {
      "inputs": [],
      "name": "borrowRatePerBlock",
      "outputs": [
        {
          "internalType": "uint256",
          "name": "",
          "type": "uint256"
        }
      ],
      "stateMutability": "view",
      "type": "function"
    },
    {
      "inputs": [],
      "name": "comptroller",
      "outputs": [
        {
          "internalType": "contract ComptrollerInterface",
          "name": "",
          "type": "address"
        }
      ],
      "stateMutability": "view",
      "type": "function"
    },
    {
      "inputs": [],
      "name": "decimals",
      "outputs": [
        {
          "internalType": "uint8",
          "name": "",
          "type": "uint8"
        }
      ],
      "stateMutability": "view",
      "type": "function"
    },
    {
      "inputs": [],
      "name": "exchangeRateCurrent",
      "outputs": [
        {
          "internalType": "uint256",
          "name": "",
          "type": "uint256"
        }
      ],
      "stateMutability": "nonpayable",
      "type": "function"
    },
    {
      "inputs": [],
      "name": "exchangeRateStored",
      "outputs": [
        {
          "internalType": "uint256",
          "name": "",
          "type": "uint256"
        }
      ],
      "stateMutability": "view",
      "type": "function"
    },
    {
      "inputs": [],
      "name": "feeSeizeShareMantissa",
      "outputs": [
        {
          "internalType": "uint256",
          "name": "",
          "type": "uint256"
        }
      ],
      "stateMutability": "view",
      "type": "function"
    },
    {
      "inputs": [],
      "name": "fuseAdmin",
      "outputs": [
        {
          "internalType": "address payable",
          "name": "",
          "type": "address"
        }
      ],
      "stateMutability": "view",
      "type": "function"
    },
    {
      "inputs": [],
      "name": "fuseFeeMantissa",
      "outputs": [
        {
          "internalType": "uint256",
          "name": "",
          "type": "uint256"
        }
      ],
      "stateMutability": "view",
      "type": "function"
    },
    {
      "inputs": [
        {
          "internalType": "address",
          "name": "account",
          "type": "address"
        }
      ],
      "name": "getAccountSnapshot",
      "outputs": [
        {
          "internalType": "uint256",
          "name": "",
          "type": "uint256"
        },
        {
          "internalType": "uint256",
          "name": "",
          "type": "uint256"
        },
        {
          "internalType": "uint256",
          "name": "",
          "type": "uint256"
        },
        {
          "internalType": "uint256",
          "name": "",
          "type": "uint256"
        }
      ],
      "stateMutability": "view",
      "type": "function"
    },
    {
      "inputs": [],
      "name": "getCash",
      "outputs": [
        {
          "internalType": "uint256",
          "name": "",
          "type": "uint256"
        }
      ],
      "stateMutability": "view",
      "type": "function"
    },
    {
      "inputs": [],
      "name": "implementation",
      "outputs": [
        {
          "internalType": "address",
          "name": "",
          "type": "address"
        }
      ],
      "stateMutability": "view",
      "type": "function"
    },
    {
      "inputs": [
        {
          "internalType": "address",
          "name": "underlying_",
          "type": "address"
        },
        {
          "internalType": "contract ComptrollerInterface",
          "name": "comptroller_",
          "type": "address"
        },
        {
          "internalType": "address payable",
          "name": "fuseAdmin_",
          "type": "address"
        },
        {
          "internalType": "contract InterestRateModel",
          "name": "interestRateModel_",
          "type": "address"
        },
        {
          "internalType": "string",
          "name": "name_",
          "type": "string"
        },
        {
          "internalType": "string",
          "name": "symbol_",
          "type": "string"
        },
        {
          "internalType": "uint256",
          "name": "reserveFactorMantissa_",
          "type": "uint256"
        },
        {
          "internalType": "uint256",
          "name": "adminFeeMantissa_",
          "type": "uint256"
        }
      ],
      "name": "initialize",
      "outputs": [],
      "stateMutability": "nonpayable",
      "type": "function"
    },
    {
      "inputs": [
        {
          "internalType": "contract ComptrollerInterface",
          "name": "comptroller_",
          "type": "address"
        },
        {
          "internalType": "address payable",
          "name": "fuseAdmin_",
          "type": "address"
        },
        {
          "internalType": "contract InterestRateModel",
          "name": "interestRateModel_",
          "type": "address"
        },
        {
          "internalType": "uint256",
          "name": "initialExchangeRateMantissa_",
          "type": "uint256"
        },
        {
          "internalType": "string",
          "name": "name_",
          "type": "string"
        },
        {
          "internalType": "string",
          "name": "symbol_",
          "type": "string"
        },
        {
          "internalType": "uint8",
          "name": "decimals_",
          "type": "uint8"
        },
        {
          "internalType": "uint256",
          "name": "reserveFactorMantissa_",
          "type": "uint256"
        },
        {
          "internalType": "uint256",
          "name": "adminFeeMantissa_",
          "type": "uint256"
        }
      ],
      "name": "initialize",
      "outputs": [],
      "stateMutability": "nonpayable",
      "type": "function"
    },
    {
      "inputs": [],
      "name": "interestRateModel",
      "outputs": [
        {
          "internalType": "contract InterestRateModel",
          "name": "",
          "type": "address"
        }
      ],
      "stateMutability": "view",
      "type": "function"
    },
    {
      "inputs": [],
      "name": "isCEther",
      "outputs": [
        {
          "internalType": "bool",
          "name": "",
          "type": "bool"
        }
      ],
      "stateMutability": "nonpayable",
      "type": "function"
    },
    {
      "inputs": [],
      "name": "isCToken",
      "outputs": [
        {
          "internalType": "bool",
          "name": "",
          "type": "bool"
        }
      ],
      "stateMutability": "nonpayable",
      "type": "function"
    },
    {
      "inputs": [
        {
          "internalType": "address",
          "name": "borrower",
          "type": "address"
        },
        {
          "internalType": "uint256",
          "name": "repayAmount",
          "type": "uint256"
        },
        {
          "internalType": "contract CTokenInterface",
          "name": "cTokenCollateral",
          "type": "address"
        }
      ],
      "name": "liquidateBorrow",
      "outputs": [
        {
          "internalType": "uint256",
          "name": "",
          "type": "uint256"
        }
      ],
      "stateMutability": "nonpayable",
      "type": "function"
    },
    {
      "inputs": [
        {
          "internalType": "uint256",
          "name": "mintAmount",
          "type": "uint256"
        }
      ],
      "name": "mint",
      "outputs": [
        {
          "internalType": "uint256",
          "name": "",
          "type": "uint256"
        }
      ],
      "stateMutability": "nonpayable",
      "type": "function"
    },
    {
      "inputs": [],
      "name": "name",
      "outputs": [
        {
          "internalType": "string",
          "name": "",
          "type": "string"
        }
      ],
      "stateMutability": "view",
      "type": "function"
    },
    {
      "inputs": [],
      "name": "protocolSeizeShareMantissa",
      "outputs": [
        {
          "internalType": "uint256",
          "name": "",
          "type": "uint256"
        }
      ],
      "stateMutability": "view",
      "type": "function"
    },
    {
      "inputs": [
        {
          "internalType": "uint256",
          "name": "redeemTokens",
          "type": "uint256"
        }
      ],
      "name": "redeem",
      "outputs": [
        {
          "internalType": "uint256",
          "name": "",
          "type": "uint256"
        }
      ],
      "stateMutability": "nonpayable",
      "type": "function"
    },
    {
      "inputs": [
        {
          "internalType": "uint256",
          "name": "redeemAmount",
          "type": "uint256"
        }
      ],
      "name": "redeemUnderlying",
      "outputs": [
        {
          "internalType": "uint256",
          "name": "",
          "type": "uint256"
        }
      ],
      "stateMutability": "nonpayable",
      "type": "function"
    },
    {
      "inputs": [
        {
          "internalType": "uint256",
          "name": "repayAmount",
          "type": "uint256"
        }
      ],
      "name": "repayBorrow",
      "outputs": [
        {
          "internalType": "uint256",
          "name": "",
          "type": "uint256"
        }
      ],
      "stateMutability": "nonpayable",
      "type": "function"
    },
    {
      "inputs": [
        {
          "internalType": "address",
          "name": "borrower",
          "type": "address"
        },
        {
          "internalType": "uint256",
          "name": "repayAmount",
          "type": "uint256"
        }
      ],
      "name": "repayBorrowBehalf",
      "outputs": [
        {
          "internalType": "uint256",
          "name": "",
          "type": "uint256"
        }
      ],
      "stateMutability": "nonpayable",
      "type": "function"
    },
    {
      "inputs": [],
      "name": "reserveFactorMantissa",
      "outputs": [
        {
          "internalType": "uint256",
          "name": "",
          "type": "uint256"
        }
      ],
      "stateMutability": "view",
      "type": "function"
    },
    {
      "inputs": [
        {
          "internalType": "address",
          "name": "liquidator",
          "type": "address"
        },
        {
          "internalType": "address",
          "name": "borrower",
          "type": "address"
        },
        {
          "internalType": "uint256",
          "name": "seizeTokens",
          "type": "uint256"
        }
      ],
      "name": "seize",
      "outputs": [
        {
          "internalType": "uint256",
          "name": "",
          "type": "uint256"
        }
      ],
      "stateMutability": "nonpayable",
      "type": "function"
    },
    {
      "inputs": [],
      "name": "supplyRatePerBlock",
      "outputs": [
        {
          "internalType": "uint256",
          "name": "",
          "type": "uint256"
        }
      ],
      "stateMutability": "view",
      "type": "function"
    },
    {
      "inputs": [],
      "name": "symbol",
      "outputs": [
        {
          "internalType": "string",
          "name": "",
          "type": "string"
        }
      ],
      "stateMutability": "view",
      "type": "function"
    },
    {
      "inputs": [],
      "name": "totalAdminFees",
      "outputs": [
        {
          "internalType": "uint256",
          "name": "",
          "type": "uint256"
        }
      ],
      "stateMutability": "view",
      "type": "function"
    },
    {
      "inputs": [],
      "name": "totalBorrows",
      "outputs": [
        {
          "internalType": "uint256",
          "name": "",
          "type": "uint256"
        }
      ],
      "stateMutability": "view",
      "type": "function"
    },
    {
      "inputs": [],
      "name": "totalBorrowsCurrent",
      "outputs": [
        {
          "internalType": "uint256",
          "name": "",
          "type": "uint256"
        }
      ],
      "stateMutability": "nonpayable",
      "type": "function"
    },
    {
      "inputs": [],
      "name": "totalFuseFees",
      "outputs": [
        {
          "internalType": "uint256",
          "name": "",
          "type": "uint256"
        }
      ],
      "stateMutability": "view",
      "type": "function"
    },
    {
      "inputs": [],
      "name": "totalReserves",
      "outputs": [
        {
          "internalType": "uint256",
          "name": "",
          "type": "uint256"
        }
      ],
      "stateMutability": "view",
      "type": "function"
    },
    {
      "inputs": [],
      "name": "totalSupply",
      "outputs": [
        {
          "internalType": "uint256",
          "name": "",
          "type": "uint256"
        }
      ],
      "stateMutability": "view",
      "type": "function"
    },
    {
      "inputs": [
        {
          "internalType": "address",
          "name": "dst",
          "type": "address"
        },
        {
          "internalType": "uint256",
          "name": "amount",
          "type": "uint256"
        }
      ],
      "name": "transfer",
      "outputs": [
        {
          "internalType": "bool",
          "name": "",
          "type": "bool"
        }
      ],
      "stateMutability": "nonpayable",
      "type": "function"
    },
    {
      "inputs": [
        {
          "internalType": "address",
          "name": "src",
          "type": "address"
        },
        {
          "internalType": "address",
          "name": "dst",
          "type": "address"
        },
        {
          "internalType": "uint256",
          "name": "amount",
          "type": "uint256"
        }
      ],
      "name": "transferFrom",
      "outputs": [
        {
          "internalType": "bool",
          "name": "",
          "type": "bool"
        }
      ],
      "stateMutability": "nonpayable",
      "type": "function"
    },
    {
      "inputs": [],
      "name": "underlying",
      "outputs": [
        {
          "internalType": "address",
          "name": "",
          "type": "address"
        }
      ],
      "stateMutability": "view",
      "type": "function"
    }
  ],
  "transactionHash": "0xba41c46283409768eff52ffc2ac7b1ff1af113df624d4a6c8b9a9a4b5f1b7a90",
  "args": [],
  "numDeployments": 10,
  "solcInputHash": "614790565b8c7986374ea2a0c06a77bf",
  "bytecode": "0x608060405234801561001057600080fd5b50615def80620000216000396000f3fe60806040526004361061038c5760003560e01c80637f1e06be116101dc578063b2a02ff111610102578063dc028ab1116100a0578063f5e3c4621161006f578063f5e3c46214610a3e578063f8f9da2814610a5e578063fca7820b14610a73578063fe9c44ae14610a9357600080fd5b8063dc028ab1146109a2578063dd62ed3e146109b8578063f2b3abbd146109fe578063f3fdb15a14610a1e57600080fd5b8063c37f68e2116100dc578063c37f68e21461090c578063c5ebeaec1461094c578063db006a751461096c578063dbfe7c191461098c57600080fd5b8063b2a02ff1146108bb578063bd6d894d146108db578063be99f119146108f057600080fd5b8063a03dce8d1161017a578063a9059cbb11610149578063a9059cbb1461085c578063aa5af0fd1461087c578063ac784ddc14610892578063ae9d70b0146108a657600080fd5b8063a03dce8d146107e7578063a0712d6814610807578063a6afed9514610827578063a7b820df1461083c57600080fd5b80638f840ddd116101b65780638f840ddd1461077c57806391dd36c61461079257806395d89b41146107b257806395dd9193146107c757600080fd5b80637f1e06be14610726578063852a12e3146107465780638d02d9a11461076657600080fd5b806334154d4c116102c15780635fe3b5671161025f5780636c540baf1161022e5780636c540baf146106a55780636f307dc3146106bb57806370a08231146106db57806373acee981461071157600080fd5b80635fe3b56714610634578063601a0bf11461065457806361feacff146106745780636752e7021461068a57600080fd5b806347bd37181161029b57806347bd3718146105be57806350d85b73146105d457806356e67728146105f45780635c60da1b1461061457600080fd5b806334154d4c146105695780633af9e669146105895780633b1d21a2146105a957600080fd5b806318160ddd1161032e578063219ef65c11610308578063219ef65c146104dd57806323b872dd146104fd5780632608f8181461051d578063313ce5671461053d57600080fd5b806318160ddd146104aa578063182df0f5146104c05780631db78944146104d557600080fd5b80630e7527021161036a5780630e7527021461040e57806315761d511461043c578063173b99041461047457806317bfdfbc1461048a57600080fd5b806306db3ecd1461039157806306fdde03146103b3578063095ea7b3146103de575b600080fd5b34801561039d57600080fd5b506103b16103ac36600461567f565b610aa7565b005b3480156103bf57600080fd5b506103c8610bb5565b6040516103d59190615799565b60405180910390f35b3480156103ea57600080fd5b506103fe6103f93660046157ac565b610c43565b60405190151581526020016103d5565b34801561041a57600080fd5b5061042e6104293660046157d8565b610cb3565b6040519081526020016103d5565b34801561044857600080fd5b5060015461045c906001600160a01b031681565b6040516001600160a01b0390911681526020016103d5565b34801561048057600080fd5b5061042e600b5481565b34801561049657600080fd5b5061042e6104a53660046157f1565b610cc7565b3480156104b657600080fd5b5061042e60125481565b3480156104cc57600080fd5b5061042e610d1e565b6103b1610daf565b3480156104e957600080fd5b506103b16104f8366004615828565b610ee0565b34801561050957600080fd5b506103fe6105183660046158f0565b61120f565b34801561052957600080fd5b5061042e6105383660046157ac565b611235565b34801561054957600080fd5b506005546105579060ff1681565b60405160ff90911681526020016103d5565b34801561057557600080fd5b506103b1610584366004615973565b61124b565b34801561059557600080fd5b5061042e6105a43660046157f1565b6112b2565b3480156105b557600080fd5b5061042e611362565b3480156105ca57600080fd5b5061042e600e5481565b3480156105e057600080fd5b506103b16105ef3660046159ed565b611371565b34801561060057600080fd5b506103b161060f366004615a46565b6113f5565b34801561062057600080fd5b5060005461045c906001600160a01b031681565b34801561064057600080fd5b5060065461045c906001600160a01b031681565b34801561066057600080fd5b5061042e61066f3660046157d8565b61144e565b34801561068057600080fd5b5061042e60105481565b34801561069657600080fd5b5061042e666379da05b6000081565b3480156106b157600080fd5b5061042e600c5481565b3480156106c757600080fd5b5060165461045c906001600160a01b031681565b3480156106e757600080fd5b5061042e6106f63660046157f1565b6001600160a01b031660009081526013602052604090205490565b34801561071d57600080fd5b5061042e6114a5565b34801561073257600080fd5b506103b16107413660046157f1565b6114ea565b34801561075257600080fd5b5061042e6107613660046157d8565b6115af565b34801561077257600080fd5b5061042e60095481565b34801561078857600080fd5b5061042e600f5481565b34801561079e57600080fd5b5061042e6107ad3660046157d8565b6115ba565b3480156107be57600080fd5b506103c86115fd565b3480156107d357600080fd5b5061042e6107e23660046157f1565b61160a565b3480156107f357600080fd5b5061042e6108023660046157d8565b6116ab565b34801561081357600080fd5b5061042e6108223660046157d8565b6116ee565b34801561083357600080fd5b5061042e6116fa565b34801561084857600080fd5b5061042e6108573660046157d8565b6118b1565b34801561086857600080fd5b506103fe6108773660046157ac565b6118f4565b34801561088857600080fd5b5061042e600d5481565b34801561089e57600080fd5b5060006103fe565b3480156108b257600080fd5b5061042e611921565b3480156108c757600080fd5b5061042e6108d63660046158f0565b6119e4565b3480156108e757600080fd5b5061042e611a08565b3480156108fc57600080fd5b5061042e67016345785d8a000081565b34801561091857600080fd5b5061092c6109273660046157f1565b611a4e565b6040805194855260208501939093529183015260608201526080016103d5565b34801561095857600080fd5b5061042e6109673660046157d8565b611aef565b34801561097857600080fd5b5061042e6109873660046157d8565b611afa565b34801561099857600080fd5b5061042e600a5481565b3480156109ae57600080fd5b5061042e60115481565b3480156109c457600080fd5b5061042e6109d3366004615a88565b6001600160a01b03918216600090815260146020908152604080832093909416825291909152205490565b348015610a0a57600080fd5b5061042e610a193660046157f1565b611b05565b348015610a2a57600080fd5b5060075461045c906001600160a01b031681565b348015610a4a57600080fd5b5061042e610a59366004615ac1565b611b3d565b348015610a6a57600080fd5b5061042e611b55565b348015610a7f57600080fd5b5061042e610a8e3660046157d8565b611bb9565b348015610a9f57600080fd5b5060016103fe565b60006702c68af0bb14000090506000896001600160a01b031663313ce5676040518163ffffffff1660e01b8152600401602060405180830381865afa158015610af4573d6000803e3d6000fd5b505050506040513d601f19601f82011682018060405250810190610b189190615b03565b9050610b2b898989858a8a878b8b610ee0565b601680546001600160a01b0319166001600160a01b038c16908117909155604080516318160ddd60e01b815290516318160ddd916004808201926020929091908290030181865afa158015610b84573d6000803e3d6000fd5b505050506040513d601f19601f82011682018060405250810190610ba89190615b20565b5050505050505050505050565b60038054610bc290615b39565b80601f0160208091040260200160405190810160405280929190818152602001828054610bee90615b39565b8015610c3b5780601f10610c1057610100808354040283529160200191610c3b565b820191906000526020600020905b815481529060010190602001808311610c1e57829003601f168201915b505050505081565b3360008181526014602090815260408083206001600160a01b03871680855292528083208590555191929182907f8c5be1e5ebec7d5bd14f71427d1e84f3dd0314c0f7b2291e5b200ac8c7c3b92590610c9f9087815260200190565b60405180910390a360019150505b92915050565b600080610cbf83611bfc565b509392505050565b600080610cd381611c64565b6000610cdd6116fa565b14610d035760405162461bcd60e51b8152600401610cfa90615b84565b60405180910390fd5b610d0c8361160a565b91505b610d1881611d28565b50919050565b6000806000610d2b611d93565b90925090506000826003811115610d4457610d44615b6e565b14610cad5760405162461bcd60e51b815260206004820152603560248201527f65786368616e67655261746553746f7265643a2065786368616e67655261746560448201527414dd1bdc9959125b9d195c9b985b0819985a5b1959605a1b6064820152608401610cfa565b333014801590610e315750600660009054906101000a90046001600160a01b03166001600160a01b031663dd5cd22c6040518163ffffffff1660e01b8152600401602060405180830381865afa158015610e0d573d6000803e3d6000fd5b505050506040513d601f19601f82011682018060405250810190610e319190615bb4565b15610ede57600154600080546040516345cc970560e01b81526001600160a01b039182166004820152919283928392909116906345cc970590602401600060405180830381865afa158015610e8a573d6000803e3d6000fd5b505050506040513d6000823e601f3d908101601f19168201604052610eb29190810190615bd1565b60005492955090935091506001600160a01b03808516911614610eda57610eda838383611e60565b5050505b565b336001600160a01b03891614610f4a5760405162461bcd60e51b815260206004820152602960248201527f6f6e6c7920467573652061646d696e206d617920696e697469616c697a6520746044820152681a19481b585c9ad95d60ba1b6064820152608401610cfa565b600c54158015610f5a5750600d54155b610fb25760405162461bcd60e51b815260206004820152602360248201527f6d61726b6574206d6179206f6e6c7920626520696e697469616c697a6564206f6044820152626e636560e81b6064820152608401610cfa565b600180546001600160a01b0319166001600160a01b038a161790556008869055856110385760405162461bcd60e51b815260206004820152603060248201527f696e697469616c2065786368616e67652072617465206d75737420626520677260448201526f32b0ba32b9103a3430b7103d32b9379760811b6064820152608401610cfa565b60006110438a611fe5565b905080156110935760405162461bcd60e51b815260206004820152601a60248201527f73657474696e6720636f6d7074726f6c6c6572206661696c65640000000000006044820152606401610cfa565b43600c55670de0b6b3a7640000600d556110ac88612110565b905080156111075760405162461bcd60e51b815260206004820152602260248201527f73657474696e6720696e7465726573742072617465206d6f64656c206661696c604482015261195960f21b6064820152608401610cfa565b855161111a90600390602089019061548c565b50845161112e90600490602088019061548c565b506005805460ff191660ff861617905561114783612380565b905080156111975760405162461bcd60e51b815260206004820152601d60248201527f73657474696e67207265736572766520666163746f72206661696c65640000006044820152606401610cfa565b6111a08261241f565b905080156111f05760405162461bcd60e51b815260206004820152601860248201527f73657474696e672061646d696e20666565206661696c656400000000000000006044820152606401610cfa565b50506002805460ff60b01b1916600160b01b1790555050505050505050565b60008061121b81611c64565b600061122933878787612539565b149150610cbf81611d28565b60008061124284846127d7565b50949350505050565b611253612841565b6112925760405162461bcd60e51b815260206004820152601060248201526f31b0b63632b9103737ba1030b236b4b760811b6044820152606401610cfa565b61129e6003858561550c565b506112ab6004838361550c565b5050505050565b60008060405180602001604052806112c8611a08565b90526001600160a01b0384166000908152601360205260408120549192509081906112f49084906129ac565b9092509050600082600381111561130d5761130d615b6e565b1461135a5760405162461bcd60e51b815260206004820152601f60248201527f62616c616e636520636f756c64206e6f742062652063616c63756c61746564006044820152606401610cfa565b949350505050565b600061136c6129ff565b905090565b611379612841565b6113ae5760405162461bcd60e51b815260206004820152600660248201526510b0b236b4b760d11b6044820152606401610cfa565b6113ef848484848080601f016020809104026020016040519081016040528093929190818152602001838380828437600092019190915250611e6092505050565b50505050565b333014806114065750611406612841565b61143a5760405162461bcd60e51b815260206004820152600560248201526410b9b2b63360d91b6044820152606401610cfa565b5050600280546001600160b01b0319169055565b60008061145a81611c64565b60006114646116fa565b905080156114905761148881601181111561148157611481615b6e565b603b612a6e565b925050610d0f565b61149984612ae7565b925050610d1881611d28565b6000806114b181611c64565b60006114bb6116fa565b146114d85760405162461bcd60e51b8152600401610cfa90615b84565b600e5491506114e681611d28565b5090565b6114f2612841565b6115545760405162461bcd60e51b815260206004820152602d60248201527f6f6e6c79207468652061646d696e206d6179207365742074686520636f6d702d60448201526c6c696b652064656c656761746560981b6064820152608401610cfa565b6016546040516317066a5760e21b81526001600160a01b03838116600483015290911690635c19a95c90602401600060405180830381600087803b15801561159b57600080fd5b505af11580156112ab573d6000803e3d6000fd5b6000610cad82612b98565b6000806115c681611c64565b60006115d06116fa565b905080156115f4576114888160118111156115ed576115ed615b6e565b6052612a6e565b6114998461241f565b60048054610bc290615b39565b600080600061161884612bde565b9092509050600082600381111561163157611631615b6e565b146116a45760405162461bcd60e51b815260206004820152603760248201527f626f72726f7742616c616e636553746f7265643a20626f72726f7742616c616e60448201527f636553746f726564496e7465726e616c206661696c65640000000000000000006064820152608401610cfa565b9392505050565b6000806116b781611c64565b60006116c16116fa565b905080156116e5576114888160118111156116de576116de615b6e565b6033612a6e565b61149984612c97565b600080610cbf83612d0a565b600c5460009043908114156117125760005b91505090565b600061171c6129ff565b90506000600760009054906101000a90046001600160a01b03166001600160a01b03166315f2405383600e54611761600f5461175c601054601154612d50565b612d50565b6040516001600160e01b031960e086901b168152600481019390935260248301919091526044820152606401602060405180830381865afa1580156117aa573d6000803e3d6000fd5b505050506040513d601f19601f820116820180604052508101906117ce9190615b20565b905065048c273950008111156118265760405162461bcd60e51b815260206004820152601c60248201527f626f72726f772072617465206973206162737572646c792068696768000000006044820152606401610cfa565b60008061183585600c54612d86565b9092509050600082600381111561184e5761184e615b6e565b1461189b5760405162461bcd60e51b815260206004820152601f60248201527f636f756c64206e6f742063616c63756c61746520626c6f636b2064656c7461006044820152606401610cfa565b6118a785858584612db1565b9550505050505090565b6000806118bd81611c64565b60006118c76116fa565b905080156118eb576114888160118111156118e4576118e4615b6e565b6037612a6e565b61149984612edd565b60008061190081611c64565b600061190e33338787612539565b14915061191a81611d28565b5092915050565b6007546000906001600160a01b031663b816881661193d6129ff565b600e54611954600f5461175c601054601154612d50565b600954600a54600b546119679190615c87565b6119719190615c87565b6040516001600160e01b031960e087901b16815260048101949094526024840192909252604483015260648201526084015b602060405180830381865afa1580156119c0573d6000803e3d6000fd5b505050506040513d601f19601f8201168201806040525081019061136c9190615b20565b600060016119f181611c64565b6119fd33868686612fbb565b9150610cbf81611d28565b600080611a1481611c64565b6000611a1e6116fa565b14611a3b5760405162461bcd60e51b8152600401610cfa90615b84565b611a43610d1e565b91506114e681611d28565b6001600160a01b038116600090815260136020526040812054819081908190818080611a7989612bde565b935090506000816003811115611a9157611a91615b6e565b14611aaf5760095b6000806000975097509750975050505050611ae8565b611ab7611d93565b925090506000816003811115611acf57611acf615b6e565b14611adb576009611a99565b5060009650919450925090505b9193509193565b6000610cad826134b8565b6000610cad826134fc565b600080611b106116fa565b90508015611b34576116a4816011811115611b2d57611b2d615b6e565b604b612a6e565b6116a483612110565b600080611b4b85858561353b565b5095945050505050565b6007546000906001600160a01b03166315f24053611b716129ff565b600e54611b88600f5461175c601054601154612d50565b6040516001600160e01b031960e086901b1681526004810193909352602483019190915260448201526064016119a3565b600080611bc581611c64565b6000611bcf6116fa565b90508015611bf357611488816011811115611bec57611bec615b6e565b6059612a6e565b61149984612380565b6000806000611c0a81611c64565b6000611c146116fa565b90508015611c4457611c38816011811115611c3157611c31615b6e565b6041612a6e565b60009350935050611c55565b611c4f33338761362f565b93509350505b611c5e81611d28565b50915091565b600254600160b01b900460ff16611caa5760405162461bcd60e51b815260206004820152600a6024820152691c994b595b9d195c995960b21b6044820152606401610cfa565b80611d1857600660009054906101000a90046001600160a01b03166001600160a01b031663c90c20b16040518163ffffffff1660e01b8152600401600060405180830381600087803b158015611cff57600080fd5b505af1158015611d13573d6000803e3d6000fd5b505050505b506002805460ff60b01b19169055565b6002805460ff60b01b1916600160b01b17905580611d9057600660009054906101000a90046001600160a01b03166001600160a01b031663632e51426040518163ffffffff1660e01b8152600401600060405180830381600087803b15801561159b57600080fd5b50565b601254600090819080611dad575050600854600092909150565b6000611db76129ff565b90506000611dd16040518060200160405280600081525090565b6000611df384600e54611dee600f5461175c601054601154612d50565b613a49565b935090506000816003811115611e0b57611e0b615b6e565b14611e1d579660009650945050505050565b611e278386613a9b565b925090506000816003811115611e3f57611e3f615b6e565b14611e51579660009650945050505050565b50516000969095509350505050565b6001546000546040516338e6a07360e11b81526001600160a01b039182166004820152858216602482015284151560448201529116906371cd40e690606401602060405180830381865afa158015611ebc573d6000803e3d6000fd5b505050506040513d601f19601f82011682018060405250810190611ee09190615bb4565b611f145760405162461bcd60e51b8152602060048201526005602482015264085a5b5c1b60da1b6044820152606401610cfa565b600080546001600160a01b038581166001600160a01b0319831617909255604051911690611f97903090611f4c908590602401615799565b60408051601f19818403018152918152602080830180516001600160e01b0316630adccee560e31b17905281518083019092526007825266216265636f6d6560c81b90820152613b66565b50600054604080516001600160a01b03808516825290921660208301527fd604de94d45953f9138079ec1b82d533cb2160c906d1076d1f7ed54befbca97a910160405180910390a150505050565b600080600660009054906101000a90046001600160a01b03169050826001600160a01b0316627e3dd26040518163ffffffff1660e01b8152600401602060405180830381865afa15801561203d573d6000803e3d6000fd5b505050506040513d601f19601f820116820180604052508101906120619190615bb4565b6120ad5760405162461bcd60e51b815260206004820152601c60248201527f6d61726b6572206d6574686f642072657475726e65642066616c7365000000006044820152606401610cfa565b600680546001600160a01b0319166001600160a01b0385811691821790925560408051928416835260208301919091527f7ac369dbd14fa5ea3f473ed67cc9d598964a77501540ba6751eb0b3decf5870d91015b60405180910390a160006116a4565b60008061211b612841565b61212b576116a46001604d612a6e565b43600c5414612140576116a4600a604c612a6e565b600760009054906101000a90046001600160a01b03169050826001600160a01b0316632191f92a6040518163ffffffff1660e01b8152600401602060405180830381865afa158015612196573d6000803e3d6000fd5b505050506040513d601f19601f820116820180604052508101906121ba9190615bb4565b6122065760405162461bcd60e51b815260206004820152601c60248201527f6d61726b6572206d6574686f642072657475726e65642066616c7365000000006044820152606401610cfa565b600780546001600160a01b0319166001600160a01b0385811691821790925560408051928416835260208301919091527fedffc32e068c7c95dfd4bdfd5c4d939a084d6b11c4199eac8436ed234d72f926910160405180910390a16001600160a01b038116156122f45760408051600481526024810182526020810180516001600160e01b0316636cc1140b60e11b17905290516001600160a01b038316916122ae91615c9f565b6000604051808303816000865af19150503d80600081146122eb576040519150601f19603f3d011682016040523d82523d6000602084013e6122f0565b606091505b5050505b60408051600481526024810182526020810180516001600160e01b031663742a137b60e11b17905290516001600160a01b0385169161233291615c9f565b6000604051808303816000865af19150503d806000811461236f576040519150601f19603f3d011682016040523d82523d6000602084013e612374565b606091505b50600091506116a49050565b600061238a612841565b61239a57610cad6001605a612a6e565b43600c54146123af57610cad600a605b612a6e565b670de0b6b3a76400006123cf6123c784600954612d50565b600a54612d50565b11156123e157610cad6002605c612a6e565b600b80549083905560408051828152602081018590527faaa68312e2ea9d50e16af5068410ab56e1a1fd06037b1a35664812c30f8214609101612101565b600043600c541461243657610cad600a6054612a6e565b6000198214156124465760095491505b6000612450613c02565b9050670de0b6b3a764000061247061246a600b5486612d50565b83612d50565b1115612482576116a460026055612a6e565b82600954146124e657612493612841565b6124a3576116a460016053612a6e565b600980549084905560408051828152602081018690527fcdd0b588250e1398549f79cfdb8217c186688822905d6715b0834ea1c865594a910160405180910390a1505b80600a541461253257600a80549082905560408051828152602081018490527f92eef861b6533b7d3417f39c2ad7b460eed4e88a32fa3604f30e718b7602e7dc910160405180910390a1505b60006116a4565b6006546040516317b9b84b60e31b81523060048201526001600160a01b038581166024830152848116604483015260648201849052600092839291169063bdcdc258906084016020604051808303816000875af115801561259e573d6000803e3d6000fd5b505050506040513d601f19601f820116820180604052508101906125c29190615b20565b905080156125df576125d76003605d83613c4c565b91505061135a565b836001600160a01b0316856001600160a01b03161415612605576125d76002605e612a6e565b6000856001600160a01b0316876001600160a01b0316141561262a5750600019612652565b506001600160a01b038086166000908152601460209081526040808320938a16835292905220545b6000806000806126628589612d86565b9094509250600084600381111561267b5761267b615b6e565b146126995761268c6009605e612a6e565b965050505050505061135a565b6001600160a01b038a166000908152601360205260409020546126bc9089612d86565b909450915060008460038111156126d5576126d5615b6e565b146126e65761268c6009605f612a6e565b6001600160a01b0389166000908152601360205260409020546127099089613cee565b9094509050600084600381111561272257612722615b6e565b146127335761268c60096060612a6e565b6001600160a01b03808b16600090815260136020526040808220859055918b16815220819055600019851461278b576001600160a01b03808b166000908152601460209081526040808320938f168352929052208390555b886001600160a01b03168a6001600160a01b0316600080516020615d9a8339815191528a6040516127be91815260200190565b60405180910390a35060009a9950505050505050505050565b60008060006127e581611c64565b60006127ef6116fa565b9050801561281f5761281381601181111561280c5761280c615b6e565b6040612a6e565b60009350935050612830565b61282a33878761362f565b93509350505b61283981611d28565b509250929050565b600654604080516303e1469160e61b815290516000926001600160a01b031691829163f851a440916004808201926020929091908290030181865afa15801561288e573d6000803e3d6000fd5b505050506040513d601f19601f820116820180604052508101906128b29190615cbb565b6001600160a01b0316336001600160a01b031614801561292f5750806001600160a01b0316630a755ec26040518163ffffffff1660e01b8152600401602060405180830381865afa15801561290b573d6000803e3d6000fd5b505050506040513d601f19601f8201168201806040525081019061292f9190615bb4565b8061170c57506001546001600160a01b03163314801561170c5750806001600160a01b0316632f1069ba6040518163ffffffff1660e01b8152600401602060405180830381865afa158015612988573d6000803e3d6000fd5b505050506040513d601f19601f8201168201806040525081019061170c9190615bb4565b6000806000806129bc8686613d1e565b909250905060008260038111156129d5576129d5615b6e565b146129e657509150600090506129f8565b60006129f182613d9a565b9350935050505b9250929050565b6016546040516370a0823160e01b81523060048201526000916001600160a01b03169081906370a0823190602401602060405180830381865afa158015612a4a573d6000803e3d6000fd5b505050506040513d601f19601f8201168201806040525081019061170c9190615b20565b60007f45b96fe442630264581b197e84bbada861235052c5a1aadfff9ea4e40a969aa0836011811115612aa357612aa3615b6e565b836063811115612ab557612ab5615b6e565b60408051928352602083019190915260009082015260600160405180910390a18260118111156116a4576116a4615b6e565b600080612af2612841565b612b02576116a46001603c612a6e565b43600c5414612b17576116a4600a603e612a6e565b82612b206129ff565b1015612b32576116a4600e603d612a6e565b600f54831115612b48576116a46002603f612a6e565b612b54600f5484613db2565b600f8190559050612b653384613dec565b7f3bad0c59cf2f06e7314077049f48a93578cd16f5ef92329f1dab1420a99c177e33848360405161210193929190615cd8565b600080612ba481611c64565b6000612bae6116fa565b90508015612bd257611488816011811115612bcb57612bcb615b6e565b602a612a6e565b61149933600086613e71565b6001600160a01b038116600090815260156020526040812080548291829182918291612c135750600096879650945050505050565b612c238160000154600d546143e8565b90945092506000846003811115612c3c57612c3c615b6e565b14612c4f57509195600095509350505050565b612c5d838260010154614432565b90945091506000846003811115612c7657612c76615b6e565b14612c8957509195600095509350505050565b506000969095509350505050565b60008043600c5414612caf576116a4600a6035612a6e565b82612cb86129ff565b1015612cca576116a4600e6034612a6e565b601154831115612ce0576116a460026036612a6e565b612cec60115484613db2565b6011819055600154909150612532906001600160a01b031684613dec565b6000806000612d1881611c64565b6000612d226116fa565b90508015612d4657611c38816011811115612d3f57612d3f615b6e565b6020612a6e565b611c4f338661445d565b60006116a48383604051806040016040528060118152602001706164646974696f6e206f766572666c6f7760781b81525061481b565b600080838311612da5576000612d9c8486615cf9565b915091506129f8565b506003905060006129f8565b600080612dcc6040518060200160405280868152508461484c565b90506000612ddc82600e5461487d565b90506000612dec82600e54612d50565b90506000612e0d6040518060200160405280600b5481525084600f54614895565b90506000612e2e6040518060200160405280600a5481525085601154614895565b90506000612e4f604051806020016040528060095481525086601054614895565b90506000612e6287600d54600d54614895565b600c8d9055600d819055600e869055600f85905560118490556010839055604080518d815260208101899052908101829052606081018790529091507f4dec04e750ca11537cabcd8a9eab06494de08da3735bc8871cd41250e190bc049060800160405180910390a160009c9b505050505050505050505050565b60008043600c5414612ef5576116a4600a6039612a6e565b82612efe6129ff565b1015612f10576116a4600e6038612a6e565b601054831115612f26576116a46002603a612a6e565b612f3260105484613db2565b905080601081905550612532600660009054906101000a90046001600160a01b03166001600160a01b031663f851a4406040518163ffffffff1660e01b8152600401602060405180830381865afa158015612f91573d6000803e3d6000fd5b505050506040513d601f19601f82011682018060405250810190612fb59190615cbb565b84613dec565b60065460405163d02f735160e01b81523060048201526001600160a01b0386811660248301528581166044830152848116606483015260848201849052600092839291169063d02f73519060a4016020604051808303816000875af1158015613028573d6000803e3d6000fd5b505050506040513d601f19601f8201168201806040525081019061304c9190615b20565b90508015613061576125d76003601d83613c4c565b846001600160a01b0316846001600160a01b03161415613087576125d76006601e612a6e565b6130ec604080516101808101909152806000815260200160008152602001600081526020016000815260200160008152602001600081526020016000815260200160008152602001600081526020016000815260200160008152602001600081525090565b6001600160a01b03851660009081526013602052604090205461310f9085612d86565b602083018190528282600381111561312957613129615b6e565b600381111561313a5761313a615b6e565b905250600090508151600381111561315457613154615b6e565b146131845761317b6009601c8360000151600381111561317657613176615b6e565b613c4c565b9250505061135a565b6131a3846040518060200160405280666379da05b600008152506148b6565b6080820152604080516020810190915267016345785d8a000081526131c99085906148b6565b61014082015260808101516131ee906131e3908690613db2565b826101400151613db2565b60608201526131fb611d93565b60c083018190528282600381111561321557613215615b6e565b600381111561322657613226615b6e565b905250600090508151600381111561324057613240615b6e565b1461328d5760405162461bcd60e51b815260206004820152601860248201527f65786368616e67652072617465206d617468206572726f7200000000000000006044820152606401610cfa565b6132ad60405180602001604052808360c00151815250826080015161487d565b60a0820152604080516020810190915260c082015181526101408201516132d4919061487d565b610160820152600f5460a08201516132ec9190612d50565b60e08201526012546080820151613306916131e391613db2565b61012082015260115461016082015161331f9190612d50565b6101008201526001600160a01b038616600090815260136020526040902054606082015161334d9190613cee565b604083018190528282600381111561336757613367615b6e565b600381111561337857613378615b6e565b905250600090508151600381111561339257613392615b6e565b146133b45761317b6009601b8360000151600381111561317657613176615b6e565b60e0810151600f556101208101516012556101008101516011556020808201516001600160a01b0387811660008181526013855260408082209490945583860151928b1680825290849020929092556060850151925192835290929091600080516020615d9a833981519152910160405180910390a3306001600160a01b0316856001600160a01b0316600080516020615d9a833981519152836080015160405161346191815260200190565b60405180910390a360a081015160e08201516040517fa91e67c5ea634cd43a12c5a482724b03de01e85ca68702a53d0c2f45cb7c1dc5926134a3923092615cd8565b60405180910390a16000979650505050505050565b6000806134c481611c64565b60006134ce6116fa565b905080156134f2576114888160118111156134eb576134eb615b6e565b600a612a6e565b61149933856148d9565b60008061350881611c64565b60006135126116fa565b9050801561352f57611488816011811115612bcb57612bcb615b6e565b61149933856000613e71565b600080600061354981611c64565b60006135536116fa565b905080156135835761357781601181111561357057613570615b6e565b6011612a6e565b6000935093505061361d565b846001600160a01b031663a6afed956040518163ffffffff1660e01b81526004016020604051808303816000875af11580156135c3573d6000803e3d6000fd5b505050506040513d601f19601f820116820180604052508101906135e79190615b20565b9050801561360b5761357781601181111561360457613604615b6e565b6012612a6e565b61361733888888614c63565b93509350505b61362681611d28565b50935093915050565b600654604051631200453160e11b81523060048201526001600160a01b03858116602483015284811660448301526064820184905260009283928392909116906324008a62906084016020604051808303816000875af1158015613697573d6000803e3d6000fd5b505050506040513d601f19601f820116820180604052508101906136bb9190615b20565b905080156136dc576136d06003604383613c4c565b60009250925050613a41565b43600c54146136f1576136d0600a6044612a6e565b61373a6040805161010081019091528060008152602001600081526020016000815260200160008152602001600081526020016000815260200160008152602001600081525090565b6001600160a01b038616600090815260156020526040902060010154606082015261376486612bde565b608083018190526020830182600381111561378157613781615b6e565b600381111561379257613792615b6e565b90525060009050816020015160038111156137af576137af615b6e565b146137de576137d1600960428360200151600381111561317657613176615b6e565b6000935093505050613a41565b6000198514156137f757608081015160408201526137ff565b604081018590525b61380d878260400151615124565b60e08201819052608082015161382291612d86565b60a083018190526020830182600381111561383f5761383f615b6e565b600381111561385057613850615b6e565b905250600090508160200151600381111561386d5761386d615b6e565b146138e05760405162461bcd60e51b815260206004820152603a60248201527f52455041595f424f52524f575f4e45575f4143434f554e545f424f52524f575f60448201527f42414c414e43455f43414c43554c4154494f4e5f4641494c45440000000000006064820152608401610cfa565b6138f0600e548260e00151612d86565b60c083018190526020830182600381111561390d5761390d615b6e565b600381111561391e5761391e615b6e565b905250600090508160200151600381111561393b5761393b615b6e565b146139a25760405162461bcd60e51b815260206004820152603160248201527f52455041595f424f52524f575f4e45575f544f54414c5f42414c414e43455f43604482015270105310d55310551253d397d19052531151607a1b6064820152608401610cfa565b60a081810180516001600160a01b03898116600081815260156020908152604091829020948555600d5460019095019490945560c0870151600e81905560e088015195518251948f16855294840192909252820193909352606081019190915260808101919091527f1a2a22cb034d26d1854bdc6666a5b91fe25efbbb5dcad3b0355478d6f5c362a1910160405180910390a160e00151600093509150505b935093915050565b600080600080613a598787613cee565b90925090506000826003811115613a7257613a72615b6e565b14613a835750915060009050613a41565b613a8d8186612d86565b935093505050935093915050565b6000613ab36040518060200160405280600081525090565b600080613ac886670de0b6b3a76400006143e8565b90925090506000826003811115613ae157613ae1615b6e565b14613b00575060408051602081019091526000815290925090506129f8565b600080613b0d8388614432565b90925090506000826003811115613b2657613b26615b6e565b14613b4957816040518060200160405280600081525095509550505050506129f8565b604080516020810190915290815260009890975095505050505050565b6060600080856001600160a01b031685604051613b839190615c9f565b6000604051808303816000865af19150503d8060008114613bc0576040519150601f19603f3d011682016040523d82523d6000602084013e613bc5565b606091505b509150915081613bf957805115613bdf5780518082602001fd5b8360405162461bcd60e51b8152600401610cfa9190615799565b95945050505050565b6001546040805163dd86fea160e01b815290516000926001600160a01b03169163dd86fea19160048083019260209291908290030181865afa1580156119c0573d6000803e3d6000fd5b60007f45b96fe442630264581b197e84bbada861235052c5a1aadfff9ea4e40a969aa0846011811115613c8157613c81615b6e565b846063811115613c9357613c93615b6e565b604080519283526020830191909152810184905260600160405180910390a16003846011811115613cc657613cc6615b6e565b14613ce257836011811115613cdd57613cdd615b6e565b61135a565b61135a826103e8615c87565b60008080613cfc8486615c87565b9050848110613d10576000925090506129f8565b6002600092509250506129f8565b6000613d366040518060200160405280600081525090565b600080613d478660000151866143e8565b90925090506000826003811115613d6057613d60615b6e565b14613d7f575060408051602081019091526000815290925090506129f8565b60408051602081019091529081526000969095509350505050565b8051600090610cad90670de0b6b3a764000090615d10565b60006116a48383604051806040016040528060158152602001747375627472616374696f6e20756e646572666c6f7760581b8152506152ee565b604080516001600160a01b038416602482015260448082018490528251808303909101815260649091018252602080820180516001600160e01b031663a9059cbb60e01b1790528251808401909352601983527f544f4b454e5f5452414e534645525f4f55545f4641494c45440000000000000090830152613e6d9161531d565b5050565b6000821580613e7e575081155b613ee75760405162461bcd60e51b815260206004820152603460248201527f6f6e65206f662072656465656d546f6b656e73496e206f722072656465656d416044820152736d6f756e74496e206d757374206265207a65726f60601b6064820152608401610cfa565b613f286040805160e0810190915280600081526020016000815260200160008152602001600081526020016000815260200160008152602001600081525090565b613f30611d93565b6040830181905260208301826003811115613f4d57613f4d615b6e565b6003811115613f5e57613f5e615b6e565b9052506000905081602001516003811115613f7b57613f7b615b6e565b14613fa557613f9d6009602e8360200151600381111561317657613176615b6e565b9150506116a4565b831561403e576060810184905260408051602081018252908201518152613fcc90856129ac565b6080830181905260208301826003811115613fe957613fe9615b6e565b6003811115613ffa57613ffa615b6e565b905250600090508160200151600381111561401757614017615b6e565b1461403957613f9d6009602c8360200151600381111561317657613176615b6e565b6140cf565b61405a8360405180602001604052808460400151815250615374565b606083018190526020830182600381111561407757614077615b6e565b600381111561408857614088615b6e565b90525060009050816020015160038111156140a5576140a5615b6e565b146140c757613f9d6009602d8360200151600381111561317657613176615b6e565b608081018390525b600654606082015160405163eabe7d9160e01b81526000926001600160a01b03169163eabe7d91916141089130918b9190600401615d32565b6020604051808303816000875af1158015614127573d6000803e3d6000fd5b505050506040513d601f19601f8201168201806040525081019061414b9190615b20565b90508015614169576141606003602b83613c4c565b925050506116a4565b43600c541461417e57614160600a602f612a6e565b61418e6012548360600151612d86565b60a08401819052602084018260038111156141ab576141ab615b6e565b60038111156141bc576141bc615b6e565b90525060009050826020015160038111156141d9576141d9615b6e565b146141fb57614160600960318460200151600381111561317657613176615b6e565b6001600160a01b03861660009081526013602052604090205460608301516142239190612d86565b60c084018190526020840182600381111561424057614240615b6e565b600381111561425157614251615b6e565b905250600090508260200151600381111561426e5761426e615b6e565b1461429057614160600960308460200151600381111561317657613176615b6e565b816080015161429d6129ff565b10156142af57614160600e6032612a6e565b6142bd868360800151613dec565b60a082015160125560c08201516001600160a01b0387166000818152601360205260409081902092909255606084015191513092600080516020615d9a8339815191529161430d91815260200190565b60405180910390a3608082015160608301516040517fe5b754fb1abb7f01b499791d0b820ae3b6af3424ac1c59768edb53f4ec31a9299261434f928a92615cd8565b60405180910390a1600654608083015160608401516040516351dff98960e01b81523060048201526001600160a01b038a81166024830152604482019390935260648101919091529116906351dff98990608401600060405180830381600087803b1580156143bd57600080fd5b505af11580156143d1573d6000803e3d6000fd5b50600092506143de915050565b9695505050505050565b600080836143fb575060009050806129f8565b60006144078486615d56565b9050836144148683615d10565b14614427576002600092509250506129f8565b6000925090506129f8565b6000808261444657506001905060006129f8565b60006144528486615d10565b915091509250929050565b600654604051634ef4c3e160e01b8152600091829182916001600160a01b031690634ef4c3e19061449690309089908990600401615d32565b6020604051808303816000875af11580156144b5573d6000803e3d6000fd5b505050506040513d601f19601f820116820180604052508101906144d99190615b20565b905080156144fa576144ee6003602183613c4c565b600092509250506129f8565b43600c541461450f576144ee600a6024612a6e565b6145506040805160e0810190915280600081526020016000815260200160008152602001600081526020016000815260200160008152602001600081525090565b614558611d93565b604083018190526020830182600381111561457557614575615b6e565b600381111561458657614586615b6e565b90525060009050816020015160038111156145a3576145a3615b6e565b146145d2576145c5600960238360200151600381111561317657613176615b6e565b60009350935050506129f8565b6145dc8686615124565b60c08201819052604080516020810182529083015181526145fd9190615374565b606083018190526020830182600381111561461a5761461a615b6e565b600381111561462b5761462b615b6e565b905250600090508160200151600381111561464857614648615b6e565b146146955760405162461bcd60e51b815260206004820181905260248201527f4d494e545f45584348414e47455f43414c43554c4154494f4e5f4641494c45446044820152606401610cfa565b6146a56012548260600151612d50565b60808201526001600160a01b03861660009081526013602052604090205460608201516146d29190612d50565b60a0820181905260808201516012556001600160a01b038716600090815260136020526040908190209190915560c0820151606083015191517f4c209b5fc8ad50758f13e2e1088ba56a560dff690a1c6fef26394f4c03821c4f9261473b928a92909190615cd8565b60405180910390a1856001600160a01b0316306001600160a01b0316600080516020615d9a833981519152836060015160405161477a91815260200190565b60405180910390a360065460c082015160608301516040516341c728b960e01b81523060048201526001600160a01b038a81166024830152604482019390935260648101919091529116906341c728b990608401600060405180830381600087803b1580156147e857600080fd5b505af11580156147fc573d6000803e3d6000fd5b5060009250614809915050565b8160c001519350935050509250929050565b6000806148288486615c87565b905082858210156112425760405162461bcd60e51b8152600401610cfa9190615799565b6040805160208101909152600081526040518060200160405280614874856000015185615384565b90529392505050565b60008061488a848461484c565b905061135a81613d9a565b6000806148a2858561484c565b9050613bf96148b082613d9a565b84612d50565b6000670de0b6b3a76400006148cf848460000151615384565b6116a49190615d10565b60065460405163368f515360e21b815260009182916001600160a01b039091169063da3d454c9061491290309088908890600401615d32565b6020604051808303816000875af1158015614931573d6000803e3d6000fd5b505050506040513d601f19601f820116820180604052508101906149559190615b20565b905080156149725761496a6003601083613c4c565b915050610cad565b43600c54146149875761496a600a600c612a6e565b60006149916129ff565b9050838110156149b0576149a7600e600b612a6e565b92505050610cad565b6149dc604080516080810190915280600081526020016000815260200160008152602001600081525090565b6149e586612bde565b60208301819052828260038111156149ff576149ff615b6e565b6003811115614a1057614a10615b6e565b9052506000905081516003811115614a2a57614a2a615b6e565b14614a5557614a4b6009808360000151600381111561317657613176615b6e565b9350505050610cad565b614a63816020015186613cee565b6040830181905282826003811115614a7d57614a7d615b6e565b6003811115614a8e57614a8e615b6e565b9052506000905081516003811115614aa857614aa8615b6e565b14614aca57614a4b6009600e8360000151600381111561317657613176615b6e565b6006546040828101519051631de6c8a560e21b815230600482015260248101919091526001600160a01b039091169063779b2294906044016020604051808303816000875af1158015614b21573d6000803e3d6000fd5b505050506040513d601f19601f82011682018060405250810190614b459190615b20565b92508215614b5a57614a4b6003601085613c4c565b614b66600e5486613cee565b6060830181905282826003811115614b8057614b80615b6e565b6003811115614b9157614b91615b6e565b9052506000905081516003811115614bab57614bab615b6e565b14614bcd57614a4b6009600d8360000151600381111561317657613176615b6e565b614bd78686613dec565b604081810180516001600160a01b03891660008181526015602090815290859020928355600d54600190930192909255606080860151600e819055935185519283529282018a905293810191909152918201527f13ed6866d4e1ee6da46f845c46d7e54120883d75c5ea9a2dacc1c4ca8984ab809060800160405180910390a160009695505050505050565b600654604051632fe3f38f60e11b81523060048201526001600160a01b03838116602483015286811660448301528581166064830152608482018590526000928392839290911690635fc7e71e9060a4016020604051808303816000875af1158015614cd3573d6000803e3d6000fd5b505050506040513d601f19601f82011682018060405250810190614cf79190615b20565b90508015614d1857614d0c6003601483613c4c565b6000925092505061511b565b43600c5414614d2d57614d0c600a6018612a6e565b43846001600160a01b0316636c540baf6040518163ffffffff1660e01b8152600401602060405180830381865afa158015614d6c573d6000803e3d6000fd5b505050506040513d601f19601f82011682018060405250810190614d909190615b20565b14614da157614d0c600a6013612a6e565b866001600160a01b0316866001600160a01b03161415614dc757614d0c60066019612a6e565b84614dd857614d0c60076017612a6e565b600019851415614dee57614d0c60076016612a6e565b600080614dfc89898961362f565b90925090508115614e3157614e23826011811115614e1c57614e1c615b6e565b601a612a6e565b60009450945050505061511b565b60065460405163c488847b60e01b815260009182916001600160a01b039091169063c488847b90614e6a9030908c908890600401615d32565b6040805180830381865afa158015614e86573d6000803e3d6000fd5b505050506040513d601f19601f82011682018060405250810190614eaa9190615d75565b90925090508115614f195760405162461bcd60e51b815260206004820152603360248201527f4c49515549444154455f434f4d5054524f4c4c45525f43414c43554c4154455f604482015272105353d5539517d4d152569157d19052531151606a1b6064820152608401610cfa565b6040516370a0823160e01b81526001600160a01b038b811660048301528291908a16906370a0823190602401602060405180830381865afa158015614f62573d6000803e3d6000fd5b505050506040513d601f19601f82011682018060405250810190614f869190615b20565b1015614fd45760405162461bcd60e51b815260206004820152601860248201527f4c49515549444154455f5345495a455f544f4f5f4d55434800000000000000006044820152606401610cfa565b60006001600160a01b038916301415614ffa57614ff3308d8d85612fbb565b9050615070565b60405163b2a02ff160e01b81526001600160a01b038a169063b2a02ff19061502a908f908f908790600401615d32565b6020604051808303816000875af1158015615049573d6000803e3d6000fd5b505050506040513d601f19601f8201168201806040525081019061506d9190615b20565b90505b80156150b55760405162461bcd60e51b81526020600482015260146024820152731d1bdad95b881cd95a5e9d5c994819985a5b195960621b6044820152606401610cfa565b604080516001600160a01b038e811682528d811660208301528183018790528b1660608201526080810184905290517f298637f684da70674f26509b10f07ec2fbc77a335ab1e7d6215a4b2484d8bb529181900360a00190a16000975092955050505050505b94509492505050565b6016546040516370a0823160e01b815230600482015260009182916001600160a01b03909116906370a0823190602401602060405180830381865afa158015615171573d6000803e3d6000fd5b505050506040513d601f19601f820116820180604052508101906151959190615b20565b90506152256323b872dd60e01b8530866040516024016151b793929190615d32565b604051602081830303815290604052906001600160e01b0319166020820180516001600160e01b0383818316178352505050506040518060400160405280601881526020017f544f4b454e5f5452414e534645525f494e5f4641494c4544000000000000000081525061531d565b6016546040516370a0823160e01b81523060048201526000916001600160a01b0316906370a0823190602401602060405180830381865afa15801561526e573d6000803e3d6000fd5b505050506040513d601f19601f820116820180604052508101906152929190615b20565b9050818110156152e45760405162461bcd60e51b815260206004820152601a60248201527f544f4b454e5f5452414e534645525f494e5f4f564552464c4f570000000000006044820152606401610cfa565b613bf98282615cf9565b600081848411156153125760405162461bcd60e51b8152600401610cfa9190615799565b5061135a8385615cf9565b601654600090615337906001600160a01b03168484613b66565b805190915015610eda57808060200190518101906153559190615bb4565b82906113ef5760405162461bcd60e51b8152600401610cfa9190615799565b6000806000806129bc86866153c6565b60006116a483836040518060400160405280601781526020017f6d756c7469706c69636174696f6e206f766572666c6f77000000000000000000815250615439565b60006153de6040518060200160405280600081525090565b6000806153f3670de0b6b3a7640000876143e8565b9092509050600082600381111561540c5761540c615b6e565b1461542b575060408051602081019091526000815290925090506129f8565b6129f1818660000151613a9b565b6000831580615446575082155b15615453575060006116a4565b600061545f8486615d56565b90508361546c8683615d10565b1483906112425760405162461bcd60e51b8152600401610cfa9190615799565b82805461549890615b39565b90600052602060002090601f0160209004810192826154ba5760008555615500565b82601f106154d357805160ff1916838001178555615500565b82800160010185558215615500579182015b828111156155005782518255916020019190600101906154e5565b506114e6929150615580565b82805461551890615b39565b90600052602060002090601f01602090048101928261553a5760008555615500565b82601f106155535782800160ff19823516178555615500565b82800160010185558215615500579182015b82811115615500578235825591602001919060010190615565565b5b808211156114e65760008155600101615581565b6001600160a01b0381168114611d9057600080fd5b80356155b581615595565b919050565b634e487b7160e01b600052604160045260246000fd5b604051601f8201601f1916810167ffffffffffffffff811182821017156155f9576155f96155ba565b604052919050565b600067ffffffffffffffff82111561561b5761561b6155ba565b50601f01601f191660200190565b600082601f83011261563a57600080fd5b813561564d61564882615601565b6155d0565b81815284602083860101111561566257600080fd5b816020850160208301376000918101602001919091529392505050565b600080600080600080600080610100898b03121561569c57600080fd5b88356156a781615595565b975060208901356156b781615595565b965060408901356156c781615595565b955060608901356156d781615595565b9450608089013567ffffffffffffffff808211156156f457600080fd5b6157008c838d01615629565b955060a08b013591508082111561571657600080fd5b506157238b828c01615629565b93505060c0890135915060e089013590509295985092959890939650565b60005b8381101561575c578181015183820152602001615744565b838111156113ef5750506000910152565b60008151808452615785816020860160208601615741565b601f01601f19169290920160200192915050565b6020815260006116a4602083018461576d565b600080604083850312156157bf57600080fd5b82356157ca81615595565b946020939093013593505050565b6000602082840312156157ea57600080fd5b5035919050565b60006020828403121561580357600080fd5b81356116a481615595565b60ff81168114611d9057600080fd5b80356155b58161580e565b60008060008060008060008060006101208a8c03121561584757600080fd5b893561585281615595565b985060208a013561586281615595565b975061587060408b016155aa565b965060608a0135955060808a013567ffffffffffffffff8082111561589457600080fd5b6158a08d838e01615629565b965060a08c01359150808211156158b657600080fd5b506158c38c828d01615629565b9450506158d260c08b0161581d565b925060e08a013591506101008a013590509295985092959850929598565b60008060006060848603121561590557600080fd5b833561591081615595565b9250602084013561592081615595565b929592945050506040919091013590565b60008083601f84011261594357600080fd5b50813567ffffffffffffffff81111561595b57600080fd5b6020830191508360208285010111156129f857600080fd5b6000806000806040858703121561598957600080fd5b843567ffffffffffffffff808211156159a157600080fd5b6159ad88838901615931565b909650945060208701359150808211156159c657600080fd5b506159d387828801615931565b95989497509550505050565b8015158114611d9057600080fd5b60008060008060608587031215615a0357600080fd5b8435615a0e81615595565b93506020850135615a1e816159df565b9250604085013567ffffffffffffffff811115615a3a57600080fd5b6159d387828801615931565b60008060208385031215615a5957600080fd5b823567ffffffffffffffff811115615a7057600080fd5b615a7c85828601615931565b90969095509350505050565b60008060408385031215615a9b57600080fd5b8235615aa681615595565b91506020830135615ab681615595565b809150509250929050565b600080600060608486031215615ad657600080fd5b8335615ae181615595565b9250602084013591506040840135615af881615595565b809150509250925092565b600060208284031215615b1557600080fd5b81516116a48161580e565b600060208284031215615b3257600080fd5b5051919050565b600181811c90821680615b4d57607f821691505b60208210811415610d1857634e487b7160e01b600052602260045260246000fd5b634e487b7160e01b600052602160045260246000fd5b6020808252601690820152751858d8dc9d59481a5b9d195c995cdd0819985a5b195960521b604082015260600190565b600060208284031215615bc657600080fd5b81516116a4816159df565b600080600060608486031215615be657600080fd5b8351615bf181615595565b6020850151909350615c02816159df565b604085015190925067ffffffffffffffff811115615c1f57600080fd5b8401601f81018613615c3057600080fd5b8051615c3e61564882615601565b818152876020838501011115615c5357600080fd5b615c64826020830160208601615741565b8093505050509250925092565b634e487b7160e01b600052601160045260246000fd5b60008219821115615c9a57615c9a615c71565b500190565b60008251615cb1818460208701615741565b9190910192915050565b600060208284031215615ccd57600080fd5b81516116a481615595565b6001600160a01b039390931683526020830191909152604082015260600190565b600082821015615d0b57615d0b615c71565b500390565b600082615d2d57634e487b7160e01b600052601260045260246000fd5b500490565b6001600160a01b039384168152919092166020820152604081019190915260600190565b6000816000190483118215151615615d7057615d70615c71565b500290565b60008060408385031215615d8857600080fd5b50508051602090910151909290915056feddf252ad1be2c89b69c2b068fc378daa952ba7f163c4a11628f55a4df523b3efa2646970667358221220f808fc06147713f425da78cce9778f921b941ebfd8a6af20361141146cf50d7664736f6c634300080b0033",
  "devdoc": {
    "author": "Compound",
    "kind": "dev",
    "methods": {
      "_becomeImplementation(bytes)": {
        "params": {
          "data": "The encoded bytes data for any initialization"
        }
      },
      "_delegateCompLikeTo(address)": {
        "details": "CTokens whose underlying are not CompLike should revert here",
        "params": {
          "compLikeDelegatee": "The address to delegate votes to"
        }
      },
      "_prepare()": {
        "details": "Checks comptroller.autoImplementation and upgrades the implementation if necessary"
      },
      "_reduceReserves(uint256)": {
        "params": {
          "reduceAmount": "Amount of reduction to reserves"
        },
        "returns": {
          "_0": "uint 0=success, otherwise a failure (see ErrorReporter.sol for details)"
        }
      },
      "_setAdminFee(uint256)": {
        "details": "Admin function to accrue interest and set a new admin fee",
        "returns": {
          "_0": "uint 0=success, otherwise a failure (see ErrorReporter.sol for details)"
        }
      },
      "_setImplementationSafe(address,bool,bytes)": {
        "params": {
          "allowResign": "Flag to indicate whether to call _resignImplementation on the old implementation",
          "becomeImplementationData": "The encoded bytes data to be passed to _becomeImplementation",
          "implementation_": "The address of the new implementation for delegation"
        }
      },
      "_setInterestRateModel(address)": {
        "details": "Admin function to accrue interest and update the interest rate model",
        "params": {
          "newInterestRateModel": "the new interest rate model to use"
        },
        "returns": {
          "_0": "uint 0=success, otherwise a failure (see ErrorReporter.sol for details)"
        }
      },
      "_setNameAndSymbol(string,string)": {
        "details": "Admin function to update the cToken ERC20 name and symbol",
        "params": {
          "_name": "the new ERC20 token name to use",
          "_symbol": "the new ERC20 token symbol to use"
        }
      },
      "_setReserveFactor(uint256)": {
        "details": "Admin function to accrue interest and set a new reserve factor",
        "returns": {
          "_0": "uint 0=success, otherwise a failure (see ErrorReporter.sol for details)"
        }
      },
      "_withdrawAdminFees(uint256)": {
        "params": {
          "withdrawAmount": "Amount of fees to withdraw"
        },
        "returns": {
          "_0": "uint 0=success, otherwise a failure (see ErrorReporter.sol for details)"
        }
      },
      "_withdrawFuseFees(uint256)": {
        "params": {
          "withdrawAmount": "Amount of fees to withdraw"
        },
        "returns": {
          "_0": "uint 0=success, otherwise a failure (see ErrorReporter.sol for details)"
        }
      },
      "accrueInterest()": {
        "details": "This calculates interest accrued from the last checkpointed block   up to the current block and writes new checkpoint to storage."
      },
      "allowance(address,address)": {
        "params": {
          "owner": "The address of the account which owns the tokens to be spent",
          "spender": "The address of the account which may transfer tokens"
        },
        "returns": {
          "_0": "The number of tokens allowed to be spent (-1 means infinite)"
        }
      },
      "approve(address,uint256)": {
        "details": "This will overwrite the approval amount for `spender`  and is subject to issues noted [here](https://eips.ethereum.org/EIPS/eip-20#approve)",
        "params": {
          "amount": "The number of tokens that are approved (-1 means infinite)",
          "spender": "The address of the account which may transfer tokens"
        },
        "returns": {
          "_0": "Whether or not the approval succeeded"
        }
      },
      "balanceOf(address)": {
        "params": {
          "owner": "The address of the account to query"
        },
        "returns": {
          "_0": "The number of tokens owned by `owner`"
        }
      },
      "balanceOfUnderlying(address)": {
        "details": "This also accrues interest in a transaction",
        "params": {
          "owner": "The address of the account to query"
        },
        "returns": {
          "_0": "The amount of underlying owned by `owner`"
        }
      },
      "borrow(uint256)": {
        "params": {
          "borrowAmount": "The amount of the underlying asset to borrow"
        },
        "returns": {
          "_0": "uint 0=success, otherwise a failure (see ErrorReporter.sol for details)"
        }
      },
      "borrowBalanceCurrent(address)": {
        "params": {
          "account": "The address whose balance should be calculated after updating borrowIndex"
        },
        "returns": {
          "_0": "The calculated balance"
        }
      },
      "borrowBalanceStored(address)": {
        "params": {
          "account": "The address whose balance should be calculated"
        },
        "returns": {
          "_0": "The calculated balance"
        }
      },
      "borrowRatePerBlock()": {
        "returns": {
          "_0": "The borrow interest rate per block, scaled by 1e18"
        }
      },
      "exchangeRateCurrent()": {
        "returns": {
          "_0": "Calculated exchange rate scaled by 1e18"
        }
      },
      "exchangeRateStored()": {
        "details": "This function does not accrue interest before calculating the exchange rate",
        "returns": {
          "_0": "Calculated exchange rate scaled by 1e18"
        }
      },
      "getAccountSnapshot(address)": {
        "details": "This is used by comptroller to more efficiently perform liquidity checks.",
        "params": {
          "account": "Address of the account to snapshot"
        },
        "returns": {
          "_0": "(possible error, token balance, borrow balance, exchange rate mantissa)"
        }
      },
      "getCash()": {
        "returns": {
          "_0": "The quantity of underlying asset owned by this contract"
        }
      },
      "initialize(address,address,address,address,string,string,uint256,uint256)": {
        "params": {
          "comptroller_": "The address of the Comptroller",
          "fuseAdmin_": "The FuseFeeDistributor contract address.",
          "interestRateModel_": "The address of the interest rate model",
          "name_": "ERC-20 name of this token",
          "symbol_": "ERC-20 symbol of this token",
          "underlying_": "The address of the underlying asset"
        }
      },
      "initialize(address,address,address,uint256,string,string,uint8,uint256,uint256)": {
        "params": {
          "comptroller_": "The address of the Comptroller",
          "decimals_": "EIP-20 decimal precision of this token",
          "fuseAdmin_": "The FuseFeeDistributor contract address.",
          "initialExchangeRateMantissa_": "The initial exchange rate, scaled by 1e18",
          "interestRateModel_": "The address of the interest rate model",
          "name_": "EIP-20 name of this token",
          "symbol_": "EIP-20 symbol of this token"
        }
      },
      "liquidateBorrow(address,uint256,address)": {
        "params": {
          "borrower": "The borrower of this cToken to be liquidated",
          "cTokenCollateral": "The market in which to seize collateral from the borrower",
          "repayAmount": "The amount of the underlying borrowed asset to repay"
        },
        "returns": {
          "_0": "uint 0=success, otherwise a failure (see ErrorReporter.sol for details)"
        }
      },
      "mint(uint256)": {
        "details": "Accrues interest whether or not the operation succeeds, unless reverted",
        "params": {
          "mintAmount": "The amount of the underlying asset to supply"
        },
        "returns": {
          "_0": "uint 0=success, otherwise a failure (see ErrorReporter.sol for details)"
        }
      },
      "redeem(uint256)": {
        "details": "Accrues interest whether or not the operation succeeds, unless reverted",
        "params": {
          "redeemTokens": "The number of cTokens to redeem into underlying"
        },
        "returns": {
          "_0": "uint 0=success, otherwise a failure (see ErrorReporter.sol for details)"
        }
      },
      "redeemUnderlying(uint256)": {
        "details": "Accrues interest whether or not the operation succeeds, unless reverted",
        "params": {
          "redeemAmount": "The amount of underlying to redeem"
        },
        "returns": {
          "_0": "uint 0=success, otherwise a failure (see ErrorReporter.sol for details)"
        }
      },
      "repayBorrow(uint256)": {
        "params": {
          "repayAmount": "The amount to repay"
        },
        "returns": {
          "_0": "uint 0=success, otherwise a failure (see ErrorReporter.sol for details)"
        }
      },
      "repayBorrowBehalf(address,uint256)": {
        "params": {
          "borrower": "the account with the debt being payed off",
          "repayAmount": "The amount to repay"
        },
        "returns": {
          "_0": "uint 0=success, otherwise a failure (see ErrorReporter.sol for details)"
        }
      },
      "seize(address,address,uint256)": {
        "details": "Will fail unless called by another cToken during the process of liquidation.  Its absolutely critical to use msg.sender as the borrowed cToken and not a parameter.",
        "params": {
          "borrower": "The account having collateral seized",
          "liquidator": "The account receiving seized collateral",
          "seizeTokens": "The number of cTokens to seize"
        },
        "returns": {
          "_0": "uint 0=success, otherwise a failure (see ErrorReporter.sol for details)"
        }
      },
      "supplyRatePerBlock()": {
        "returns": {
          "_0": "The supply interest rate per block, scaled by 1e18"
        }
      },
      "totalBorrowsCurrent()": {
        "returns": {
          "_0": "The total borrows with interest"
        }
      },
      "transfer(address,uint256)": {
        "params": {
          "amount": "The number of tokens to transfer",
          "dst": "The address of the destination account"
        },
        "returns": {
          "_0": "Whether or not the transfer succeeded"
        }
      },
      "transferFrom(address,address,uint256)": {
        "params": {
          "amount": "The number of tokens to transfer",
          "dst": "The address of the destination account",
          "src": "The address of the source account"
        },
        "returns": {
          "_0": "Whether or not the transfer succeeded"
        }
      }
    },
    "title": "Compound's CErc20Delegate Contract",
    "version": 1
  },
  "userdoc": {
    "events": {
      "AccrueInterest(uint256,uint256,uint256,uint256)": {
        "notice": "Event emitted when interest is accrued"
      },
      "Approval(address,address,uint256)": {
        "notice": "EIP20 Approval event"
      },
      "Borrow(address,uint256,uint256,uint256)": {
        "notice": "Event emitted when underlying is borrowed"
      },
      "LiquidateBorrow(address,address,uint256,address,uint256)": {
        "notice": "Event emitted when a borrow is liquidated"
      },
      "Mint(address,uint256,uint256)": {
        "notice": "Event emitted when tokens are minted"
      },
      "NewAdminFee(uint256,uint256)": {
        "notice": "Event emitted when the admin fee is changed"
      },
      "NewComptroller(address,address)": {
        "notice": "Event emitted when comptroller is changed"
      },
      "NewFuseFee(uint256,uint256)": {
        "notice": "Event emitted when the Fuse fee is changed"
      },
      "NewImplementation(address,address)": {
        "notice": "Emitted when implementation is changed"
      },
      "NewMarketInterestRateModel(address,address)": {
        "notice": "Event emitted when interestRateModel is changed"
      },
      "NewReserveFactor(uint256,uint256)": {
        "notice": "Event emitted when the reserve factor is changed"
      },
      "Redeem(address,uint256,uint256)": {
        "notice": "Event emitted when tokens are redeemed"
      },
      "RepayBorrow(address,address,uint256,uint256,uint256)": {
        "notice": "Event emitted when a borrow is repaid"
      },
      "ReservesAdded(address,uint256,uint256)": {
        "notice": "Event emitted when the reserves are added"
      },
      "ReservesReduced(address,uint256,uint256)": {
        "notice": "Event emitted when the reserves are reduced"
      },
      "Transfer(address,address,uint256)": {
        "notice": "EIP20 Transfer event"
      }
    },
    "kind": "user",
    "methods": {
      "_becomeImplementation(bytes)": {
        "notice": "Called by the delegator on a delegate to initialize it for duty"
      },
      "_delegateCompLikeTo(address)": {
        "notice": "Admin call to delegate the votes of the COMP-like underlying"
      },
      "_prepare()": {
        "notice": "Function called before all delegator functions"
      },
      "_reduceReserves(uint256)": {
        "notice": "Accrues interest and reduces reserves by transferring to admin"
      },
      "_setAdminFee(uint256)": {
        "notice": "accrues interest and sets a new admin fee for the protocol using _setAdminFeeFresh"
      },
      "_setImplementationSafe(address,bool,bytes)": {
        "notice": "Called by the admin to update the implementation of the delegator"
      },
      "_setInterestRateModel(address)": {
        "notice": "accrues interest and updates the interest rate model using _setInterestRateModelFresh"
      },
      "_setNameAndSymbol(string,string)": {
        "notice": "updates the cToken ERC20 name and symbol"
      },
      "_setReserveFactor(uint256)": {
        "notice": "accrues interest and sets a new reserve factor for the protocol using _setReserveFactorFresh"
      },
      "_withdrawAdminFees(uint256)": {
        "notice": "Accrues interest and reduces admin fees by transferring to admin"
      },
      "_withdrawFuseFees(uint256)": {
        "notice": "Accrues interest and reduces Fuse fees by transferring to Fuse"
      },
      "accrualBlockNumber()": {
        "notice": "Block number that interest was last accrued at"
      },
      "accrueInterest()": {
        "notice": "Applies accrued interest to total borrows and reserves"
      },
      "adminFeeMantissa()": {
        "notice": "Fraction of interest currently set aside for admin fees"
      },
      "allowance(address,address)": {
        "notice": "Get the current allowance from `owner` for `spender`"
      },
      "approve(address,uint256)": {
        "notice": "Approve `spender` to transfer up to `amount` from `src`"
      },
      "balanceOf(address)": {
        "notice": "Get the token balance of the `owner`"
      },
      "balanceOfUnderlying(address)": {
        "notice": "Get the underlying balance of the `owner`"
      },
      "borrow(uint256)": {
        "notice": "Sender borrows assets from the protocol to their own address"
      },
      "borrowBalanceCurrent(address)": {
        "notice": "Accrue interest to updated borrowIndex and then calculate account's borrow balance using the updated borrowIndex"
      },
      "borrowBalanceStored(address)": {
        "notice": "Return the borrow balance of account based on stored data"
      },
      "borrowIndex()": {
        "notice": "Accumulator of the total earned interest rate since the opening of the market"
      },
      "borrowRatePerBlock()": {
        "notice": "Returns the current per-block borrow interest rate for this cToken"
      },
      "comptroller()": {
        "notice": "Contract which oversees inter-cToken operations"
      },
      "constructor": {
        "notice": "Construct an empty delegate"
      },
      "decimals()": {
        "notice": "EIP-20 token decimals for this token"
      },
      "exchangeRateCurrent()": {
        "notice": "Accrue interest then return the up-to-date exchange rate"
      },
      "exchangeRateStored()": {
        "notice": "Calculates the exchange rate from the underlying to the CToken"
      },
      "fuseFeeMantissa()": {
        "notice": "Fraction of interest currently set aside for Fuse fees"
      },
      "getAccountSnapshot(address)": {
        "notice": "Get a snapshot of the account's balances, and the cached exchange rate"
      },
      "getCash()": {
        "notice": "Get cash balance of this cToken in the underlying asset"
      },
      "implementation()": {
        "notice": "Implementation address for this contract"
      },
      "initialize(address,address,address,address,string,string,uint256,uint256)": {
        "notice": "Initialize the new money market"
      },
      "initialize(address,address,address,uint256,string,string,uint8,uint256,uint256)": {
        "notice": "Initialize the money market"
      },
      "interestRateModel()": {
        "notice": "Model which tells what the current interest rate should be"
      },
      "isCEther()": {
        "notice": "Indicator that this is or is not a CEther contract (for inspection)"
      },
      "isCToken()": {
        "notice": "Indicator that this is a CToken contract (for inspection)"
      },
      "liquidateBorrow(address,uint256,address)": {
        "notice": "The sender liquidates the borrowers collateral.  The collateral seized is transferred to the liquidator."
      },
      "mint(uint256)": {
        "notice": "Sender supplies assets into the market and receives cTokens in exchange"
      },
      "name()": {
        "notice": "EIP-20 token name for this token"
      },
      "redeem(uint256)": {
        "notice": "Sender redeems cTokens in exchange for the underlying asset"
      },
      "redeemUnderlying(uint256)": {
        "notice": "Sender redeems cTokens in exchange for a specified amount of underlying asset"
      },
      "repayBorrow(uint256)": {
        "notice": "Sender repays their own borrow"
      },
      "repayBorrowBehalf(address,uint256)": {
        "notice": "Sender repays a borrow belonging to borrower"
      },
      "reserveFactorMantissa()": {
        "notice": "Fraction of interest currently set aside for reserves"
      },
      "seize(address,address,uint256)": {
        "notice": "Transfers collateral tokens (this market) to the liquidator."
      },
      "supplyRatePerBlock()": {
        "notice": "Returns the current per-block supply interest rate for this cToken"
      },
      "symbol()": {
        "notice": "EIP-20 token symbol for this token"
      },
      "totalAdminFees()": {
        "notice": "Total amount of admin fees of the underlying held in this market"
      },
      "totalBorrows()": {
        "notice": "Total amount of outstanding borrows of the underlying in this market"
      },
      "totalBorrowsCurrent()": {
        "notice": "Returns the current total borrows plus accrued interest"
      },
      "totalFuseFees()": {
        "notice": "Total amount of Fuse fees of the underlying held in this market"
      },
      "totalReserves()": {
        "notice": "Total amount of reserves of the underlying held in this market"
      },
      "totalSupply()": {
        "notice": "Total number of tokens in circulation"
      },
      "transfer(address,uint256)": {
        "notice": "Transfer `amount` tokens from `msg.sender` to `dst`"
      },
      "transferFrom(address,address,uint256)": {
        "notice": "Transfer `amount` tokens from `src` to `dst`"
      },
      "underlying()": {
        "notice": "Underlying asset for this CToken"
      }
    },
    "notice": "CTokens which wrap an EIP-20 underlying and are delegated to",
    "version": 1
  },
  "storageLayout": {
    "storage": [
      {
        "astId": 10475,
        "contract": "contracts/compound/CErc20Delegate.sol:CErc20Delegate",
        "label": "implementation",
        "offset": 0,
        "slot": "0",
        "type": "t_address"
      },
      {
        "astId": 16441,
        "contract": "contracts/compound/CErc20Delegate.sol:CErc20Delegate",
        "label": "fuseAdmin",
        "offset": 0,
        "slot": "1",
        "type": "t_address_payable"
      },
      {
        "astId": 16444,
        "contract": "contracts/compound/CErc20Delegate.sol:CErc20Delegate",
        "label": "__admin",
        "offset": 0,
        "slot": "2",
        "type": "t_address_payable"
      },
      {
        "astId": 16447,
        "contract": "contracts/compound/CErc20Delegate.sol:CErc20Delegate",
        "label": "__fuseAdminHasRights",
        "offset": 20,
        "slot": "2",
        "type": "t_bool"
      },
      {
        "astId": 16450,
        "contract": "contracts/compound/CErc20Delegate.sol:CErc20Delegate",
        "label": "__adminHasRights",
        "offset": 21,
        "slot": "2",
        "type": "t_bool"
      },
      {
        "astId": 16456,
        "contract": "contracts/compound/CErc20Delegate.sol:CErc20Delegate",
        "label": "_notEntered",
        "offset": 22,
        "slot": "2",
        "type": "t_bool"
      },
      {
        "astId": 16459,
        "contract": "contracts/compound/CErc20Delegate.sol:CErc20Delegate",
        "label": "name",
        "offset": 0,
        "slot": "3",
        "type": "t_string_storage"
      },
      {
        "astId": 16462,
        "contract": "contracts/compound/CErc20Delegate.sol:CErc20Delegate",
        "label": "symbol",
        "offset": 0,
        "slot": "4",
        "type": "t_string_storage"
      },
      {
        "astId": 16465,
        "contract": "contracts/compound/CErc20Delegate.sol:CErc20Delegate",
        "label": "decimals",
        "offset": 0,
        "slot": "5",
        "type": "t_uint8"
      },
      {
        "astId": 16473,
        "contract": "contracts/compound/CErc20Delegate.sol:CErc20Delegate",
        "label": "__pendingAdmin",
        "offset": 1,
        "slot": "5",
        "type": "t_address_payable"
      },
      {
        "astId": 16477,
        "contract": "contracts/compound/CErc20Delegate.sol:CErc20Delegate",
        "label": "comptroller",
        "offset": 0,
        "slot": "6",
        "type": "t_contract(ComptrollerInterface)21306"
      },
      {
        "astId": 16481,
        "contract": "contracts/compound/CErc20Delegate.sol:CErc20Delegate",
        "label": "interestRateModel",
        "offset": 0,
        "slot": "7",
        "type": "t_contract(InterestRateModel)26215"
      },
      {
        "astId": 16483,
        "contract": "contracts/compound/CErc20Delegate.sol:CErc20Delegate",
        "label": "initialExchangeRateMantissa",
        "offset": 0,
        "slot": "8",
        "type": "t_uint256"
      },
      {
        "astId": 16486,
        "contract": "contracts/compound/CErc20Delegate.sol:CErc20Delegate",
        "label": "adminFeeMantissa",
        "offset": 0,
        "slot": "9",
        "type": "t_uint256"
      },
      {
        "astId": 16489,
        "contract": "contracts/compound/CErc20Delegate.sol:CErc20Delegate",
        "label": "fuseFeeMantissa",
        "offset": 0,
        "slot": "10",
        "type": "t_uint256"
      },
      {
        "astId": 16492,
        "contract": "contracts/compound/CErc20Delegate.sol:CErc20Delegate",
        "label": "reserveFactorMantissa",
        "offset": 0,
        "slot": "11",
        "type": "t_uint256"
      },
      {
        "astId": 16495,
        "contract": "contracts/compound/CErc20Delegate.sol:CErc20Delegate",
        "label": "accrualBlockNumber",
        "offset": 0,
        "slot": "12",
        "type": "t_uint256"
      },
      {
        "astId": 16498,
        "contract": "contracts/compound/CErc20Delegate.sol:CErc20Delegate",
        "label": "borrowIndex",
        "offset": 0,
        "slot": "13",
        "type": "t_uint256"
      },
      {
        "astId": 16501,
        "contract": "contracts/compound/CErc20Delegate.sol:CErc20Delegate",
        "label": "totalBorrows",
        "offset": 0,
        "slot": "14",
        "type": "t_uint256"
      },
      {
        "astId": 16504,
        "contract": "contracts/compound/CErc20Delegate.sol:CErc20Delegate",
        "label": "totalReserves",
        "offset": 0,
        "slot": "15",
        "type": "t_uint256"
      },
      {
        "astId": 16507,
        "contract": "contracts/compound/CErc20Delegate.sol:CErc20Delegate",
        "label": "totalAdminFees",
        "offset": 0,
        "slot": "16",
        "type": "t_uint256"
      },
      {
        "astId": 16510,
        "contract": "contracts/compound/CErc20Delegate.sol:CErc20Delegate",
        "label": "totalFuseFees",
        "offset": 0,
        "slot": "17",
        "type": "t_uint256"
      },
      {
        "astId": 16513,
        "contract": "contracts/compound/CErc20Delegate.sol:CErc20Delegate",
        "label": "totalSupply",
        "offset": 0,
        "slot": "18",
        "type": "t_uint256"
      },
      {
        "astId": 16517,
        "contract": "contracts/compound/CErc20Delegate.sol:CErc20Delegate",
        "label": "accountTokens",
        "offset": 0,
        "slot": "19",
        "type": "t_mapping(t_address,t_uint256)"
      },
      {
        "astId": 16523,
        "contract": "contracts/compound/CErc20Delegate.sol:CErc20Delegate",
        "label": "transferAllowances",
        "offset": 0,
        "slot": "20",
        "type": "t_mapping(t_address,t_mapping(t_address,t_uint256))"
      },
      {
        "astId": 16533,
        "contract": "contracts/compound/CErc20Delegate.sol:CErc20Delegate",
        "label": "accountBorrows",
        "offset": 0,
        "slot": "21",
        "type": "t_mapping(t_address,t_struct(BorrowSnapshot)16528_storage)"
      },
      {
        "astId": 16852,
        "contract": "contracts/compound/CErc20Delegate.sol:CErc20Delegate",
        "label": "underlying",
        "offset": 0,
        "slot": "22",
        "type": "t_address"
      }
    ],
    "types": {
      "t_address": {
        "encoding": "inplace",
        "label": "address",
        "numberOfBytes": "20"
      },
      "t_address_payable": {
        "encoding": "inplace",
        "label": "address payable",
        "numberOfBytes": "20"
      },
      "t_bool": {
        "encoding": "inplace",
        "label": "bool",
        "numberOfBytes": "1"
      },
      "t_contract(ComptrollerInterface)21306": {
        "encoding": "inplace",
        "label": "contract ComptrollerInterface",
        "numberOfBytes": "20"
      },
      "t_contract(InterestRateModel)26215": {
        "encoding": "inplace",
        "label": "contract InterestRateModel",
        "numberOfBytes": "20"
      },
      "t_mapping(t_address,t_mapping(t_address,t_uint256))": {
        "encoding": "mapping",
        "key": "t_address",
        "label": "mapping(address => mapping(address => uint256))",
        "numberOfBytes": "32",
        "value": "t_mapping(t_address,t_uint256)"
      },
      "t_mapping(t_address,t_struct(BorrowSnapshot)16528_storage)": {
        "encoding": "mapping",
        "key": "t_address",
        "label": "mapping(address => struct CTokenStorage.BorrowSnapshot)",
        "numberOfBytes": "32",
        "value": "t_struct(BorrowSnapshot)16528_storage"
      },
      "t_mapping(t_address,t_uint256)": {
        "encoding": "mapping",
        "key": "t_address",
        "label": "mapping(address => uint256)",
        "numberOfBytes": "32",
        "value": "t_uint256"
      },
      "t_string_storage": {
        "encoding": "bytes",
        "label": "string",
        "numberOfBytes": "32"
      },
      "t_struct(BorrowSnapshot)16528_storage": {
        "encoding": "inplace",
        "label": "struct CTokenStorage.BorrowSnapshot",
        "members": [
          {
            "astId": 16525,
            "contract": "contracts/compound/CErc20Delegate.sol:CErc20Delegate",
            "label": "principal",
            "offset": 0,
            "slot": "0",
            "type": "t_uint256"
          },
          {
            "astId": 16527,
            "contract": "contracts/compound/CErc20Delegate.sol:CErc20Delegate",
            "label": "interestIndex",
            "offset": 0,
            "slot": "1",
            "type": "t_uint256"
          }
        ],
        "numberOfBytes": "64"
      },
      "t_uint256": {
        "encoding": "inplace",
        "label": "uint256",
        "numberOfBytes": "32"
      },
      "t_uint8": {
        "encoding": "inplace",
        "label": "uint8",
        "numberOfBytes": "1"
      }
    }
  }
}