{
  "address": "0x1705853Ca13129DD267F3fb4d56bbE3D724DE7cd",
  "abi": [
    {
      "inputs": [
        {
          "internalType": "contract IERC20Upgradeable",
          "name": "underlyingCollateral",
          "type": "address"
        },
        {
          "internalType": "uint256",
          "name": "underlyingCollateralSeized",
          "type": "uint256"
        },
        {
          "internalType": "contract IRedemptionStrategy",
          "name": "strategy",
          "type": "address"
        },
        {
          "internalType": "bytes",
          "name": "strategyData",
          "type": "bytes"
        }
      ],
      "name": "redeemCustomCollateral",
      "outputs": [
        {
          "internalType": "contract IERC20Upgradeable",
          "name": "",
          "type": "address"
        },
        {
          "internalType": "uint256",
          "name": "",
          "type": "uint256"
        }
      ],
      "stateMutability": "nonpayable",
      "type": "function"
    },
    {
      "inputs": [
        {
          "internalType": "address",
          "name": "borrower",
          "type": "address"
        },
        {
          "internalType": "contract ICEther",
          "name": "cEther",
          "type": "address"
        },
        {
          "internalType": "contract ICErc20",
          "name": "cErc20Collateral",
          "type": "address"
        },
        {
          "internalType": "uint256",
          "name": "minOutputAmount",
          "type": "uint256"
        },
        {
          "internalType": "address",
          "name": "exchangeSeizedTo",
          "type": "address"
        },
        {
          "internalType": "contract IUniswapV2Router02",
          "name": "uniswapV2Router",
          "type": "address"
        },
        {
          "internalType": "contract IRedemptionStrategy[]",
          "name": "redemptionStrategies",
          "type": "address[]"
        },
        {
          "internalType": "bytes[]",
          "name": "strategyData",
          "type": "bytes[]"
        }
      ],
      "name": "safeLiquidate",
      "outputs": [
        {
          "internalType": "uint256",
          "name": "",
          "type": "uint256"
        }
      ],
      "stateMutability": "payable",
      "type": "function"
    },
    {
      "inputs": [
        {
          "internalType": "address",
          "name": "borrower",
          "type": "address"
        },
        {
          "internalType": "uint256",
          "name": "repayAmount",
          "type": "uint256"
        },
        {
          "internalType": "contract ICErc20",
          "name": "cErc20",
          "type": "address"
        },
        {
          "internalType": "contract ICToken",
          "name": "cTokenCollateral",
          "type": "address"
        },
        {
          "internalType": "uint256",
          "name": "minOutputAmount",
          "type": "uint256"
        },
        {
          "internalType": "address",
          "name": "exchangeSeizedTo",
          "type": "address"
        },
        {
          "internalType": "contract IUniswapV2Router02",
          "name": "uniswapV2Router",
          "type": "address"
        },
        {
          "internalType": "contract IRedemptionStrategy[]",
          "name": "redemptionStrategies",
          "type": "address[]"
        },
        {
          "internalType": "bytes[]",
          "name": "strategyData",
          "type": "bytes[]"
        }
      ],
      "name": "safeLiquidate",
      "outputs": [
        {
          "internalType": "uint256",
          "name": "",
          "type": "uint256"
        }
      ],
      "stateMutability": "nonpayable",
      "type": "function"
    },
    {
      "inputs": [
        {
          "internalType": "address",
          "name": "borrower",
          "type": "address"
        },
        {
          "internalType": "uint256",
          "name": "repayAmount",
          "type": "uint256"
        },
        {
          "internalType": "contract ICEther",
          "name": "cEther",
          "type": "address"
        },
        {
          "internalType": "contract ICErc20",
          "name": "cErc20Collateral",
          "type": "address"
        },
        {
          "internalType": "uint256",
          "name": "minProfitAmount",
          "type": "uint256"
        },
        {
          "internalType": "address",
          "name": "exchangeProfitTo",
          "type": "address"
        },
        {
          "internalType": "contract IUniswapV2Router02",
          "name": "uniswapV2RouterForCollateral",
          "type": "address"
        },
        {
          "internalType": "contract IRedemptionStrategy[]",
          "name": "redemptionStrategies",
          "type": "address[]"
        },
        {
          "internalType": "bytes[]",
          "name": "strategyData",
          "type": "bytes[]"
        },
        {
          "internalType": "uint256",
          "name": "ethToCoinbase",
          "type": "uint256"
        }
      ],
      "name": "safeLiquidateToEthWithFlashLoan",
      "outputs": [
        {
          "internalType": "uint256",
          "name": "",
          "type": "uint256"
        }
      ],
      "stateMutability": "nonpayable",
      "type": "function"
    },
    {
      "inputs": [
        {
          "internalType": "address",
          "name": "borrower",
          "type": "address"
        },
        {
          "internalType": "uint256",
          "name": "repayAmount",
          "type": "uint256"
        },
        {
          "internalType": "contract ICErc20",
          "name": "cErc20",
          "type": "address"
        },
        {
          "internalType": "contract ICToken",
          "name": "cTokenCollateral",
          "type": "address"
        },
        {
          "internalType": "uint256",
          "name": "minProfitAmount",
          "type": "uint256"
        },
        {
          "internalType": "address",
          "name": "exchangeProfitTo",
          "type": "address"
        },
        {
          "internalType": "contract IUniswapV2Router02",
          "name": "uniswapV2RouterForBorrow",
          "type": "address"
        },
        {
          "internalType": "contract IUniswapV2Router02",
          "name": "uniswapV2RouterForCollateral",
          "type": "address"
        },
        {
          "internalType": "contract IRedemptionStrategy[]",
          "name": "redemptionStrategies",
          "type": "address[]"
        },
        {
          "internalType": "bytes[]",
          "name": "strategyData",
          "type": "bytes[]"
        },
        {
          "internalType": "uint256",
          "name": "ethToCoinbase",
          "type": "uint256"
        }
      ],
      "name": "safeLiquidateToTokensWithFlashLoan",
      "outputs": [
        {
          "internalType": "uint256",
          "name": "",
          "type": "uint256"
        }
      ],
      "stateMutability": "nonpayable",
      "type": "function"
    },
    {
      "inputs": [
        {
          "internalType": "address",
          "name": "sender",
          "type": "address"
        },
        {
          "internalType": "uint256",
          "name": "amount0",
          "type": "uint256"
        },
        {
          "internalType": "uint256",
          "name": "amount1",
          "type": "uint256"
        },
        {
          "internalType": "bytes",
          "name": "data",
          "type": "bytes"
        }
      ],
      "name": "uniswapV2Call",
      "outputs": [],
      "stateMutability": "nonpayable",
      "type": "function"
    },
    {
      "stateMutability": "payable",
      "type": "receive"
    }
  ],
  "transactionHash": "0x588e23c03dcfc0ef95328ff2fb9550d91358ba774474adcc3a54c99f229197e6",
  "args": [],
  "numDeployments": 3,
  "solcInputHash": "3d1437e8d55f798e63f8457f025a242e",
  "bytecode": "0x608060405234801561001057600080fd5b50614d30806100206000396000f3fe6080604052600436106100595760003560e01c80630d1b2763146100b857806310d1e85c146100de578063700d5dd7146100fe578063a68ee1191461011e578063b59662581461013e578063c8348b541461017d57600080fd5b366100b357333b6100b15760405162461bcd60e51b815260206004820152601960248201527f53656e646572206973206e6f74206120636f6e74726163742e0000000000000060448201526064015b60405180910390fd5b005b600080fd5b6100cb6100c6366004614003565b61019d565b6040519081526020015b60405180910390f35b3480156100ea57600080fd5b506100b16100f93660046140cd565b61052d565b34801561010a57600080fd5b506100cb610119366004614162565b61074c565b34801561012a57600080fd5b506100cb61013936600461424e565b6109d2565b34801561014a57600080fd5b5061015e61015936600461431c565b610e55565b604080516001600160a01b0390931683526020830191909152016100d5565b34801561018957600080fd5b506100cb610198366004614387565b610ed6565b60008034116101be5760405162461bcd60e51b81526004016100a89061445c565b604051635572051560e11b81526001600160a01b038a81166004830152888116602483015289169063aae40a2a9034906044016000604051808303818588803b15801561020a57600080fd5b505af115801561021e573d6000803e3d6000fd5b5050505050866001600160a01b0316856001600160a01b031614610516576040516370a0823160e01b81523060048201526000906001600160a01b038916906370a0823190602401602060405180830381865afa158015610283573d6000803e3d6000fd5b505050506040513d601f19601f820116820180604052508101906102a791906144b9565b905080156105145760405163db006a7560e01b8152600481018290526000906001600160a01b038a169063db006a75906024016020604051808303816000875af11580156102f9573d6000803e3d6000fd5b505050506040513d601f19601f8201168201806040525081019061031d91906144b9565b9050801561033d5760405162461bcd60e51b81526004016100a8906144d2565b6000896001600160a01b0316636f307dc36040518163ffffffff1660e01b8152600401602060405180830381865afa15801561037d573d6000803e3d6000fd5b505050506040513d601f19601f820116820180604052508101906103a19190614530565b8651909150156105055784518651146103cc5760405162461bcd60e51b81526004016100a89061454d565b6040516370a0823160e01b81523060048201526000906001600160a01b038316906370a0823190602401602060405180830381865afa158015610413573d6000803e3d6000fd5b505050506040513d601f19601f8201168201806040525081019061043791906144b9565b905060005b875181101561050257306001600160a01b031663b596625884848b8581518110610468576104686145d0565b60200260200101518b8681518110610482576104826145d0565b60200260200101516040518563ffffffff1660e01b81526004016104a9949392919061463e565b60408051808303816000875af11580156104c7573d6000803e3d6000fd5b505050506040513d601f19601f820116820180604052508101906104eb9190614671565b9093509150806104fa816146b5565b91505061043c565b50505b61051181898b8a6111ad565b50505b505b6105208587611607565b9998505050505050505050565b600061053d6064604484866146d0565b81019061054a91906146fa565b9050806001600160a01b031663ac784ddc6040518163ffffffff1660e01b8152600401602060405180830381865afa15801561058a573d6000803e3d6000fd5b505050506040513d601f19601f820116820180604052508101906105ae9190614717565b1561067b576000808080808080806105c98a6004818e6146d0565b8101906105d6919061479d565b985098509850985098509850509750975060006103e5886103e86105fa9190614837565b610604919061486c565b905060006103e56106178a6103e8614837565b6106219190614880565b11156106355780610631816146b5565b9150505b61064789898c8a8a8a878b8b8b611826565b600060026101000a8154816001600160a01b0302191690836001600160a01b03160217905550505050505050505050610744565b600080808080808080806106928b6004818f6146d0565b81019061069f9190614894565b9950995099509950995099509950509850985060006103e5896103e86106c59190614837565b6106cf919061486c565b905060006103e56106e28b6103e8614837565b6106ec9190614880565b111561070057806106fc816146b5565b9150505b6107138a8a8d8b8b8b878c8c8c8c611a3c565b600060026101000a8154816001600160a01b0302191690836001600160a01b03160217905550505050505050505050505b505050505050565b6000808b1161076d5760405162461bcd60e51b81526004016100a890614970565b60008060008c6001600160a01b0316636f307dc36040518163ffffffff1660e01b8152600401602060405180830381865afa1580156107b0573d6000803e3d6000fd5b505050506040513d601f19601f820116820180604052508101906107d49190614530565b9050886001600160a01b031663c45a01556040518163ffffffff1660e01b8152600401602060405180830381865afa158015610814573d6000803e3d6000fd5b505050506040513d601f19601f820116820180604052508101906108389190614530565b60405163e6a4390560e01b81526001600160a01b038381166004830152600080516020614cb48339815191526024830152919091169063e6a4390590604401602060405180830381865afa158015610894573d6000803e3d6000fd5b505050506040513d601f19601f820116820180604052508101906108b89190614530565b9250806001600160a01b0316836001600160a01b0316630dfe16816040518163ffffffff1660e01b8152600401602060405180830381865afa158015610902573d6000803e3d6000fd5b505050506040513d601f19601f820116820180604052508101906109269190614530565b6001600160a01b031614915050816001600160a01b031663022c0d9f8261094e576000610950565b8e5b831561095d57600061095f565b8f5b306000366040518663ffffffff1660e01b81526004016109839594939291906149b4565b600060405180830381600087803b15801561099d57600080fd5b505af11580156109b1573d6000803e3d6000fd5b505050506109c0898b86611cd0565b9e9d5050505050505050505050505050565b60008089116109f35760405162461bcd60e51b81526004016100a89061445c565b6000886001600160a01b0316636f307dc36040518163ffffffff1660e01b8152600401602060405180830381865afa158015610a33573d6000803e3d6000fd5b505050506040513d601f19601f82011682018060405250810190610a579190614530565b9050610a6e6001600160a01b03821633308d611e1c565b610a79818a8c611e87565b604051637af1e23160e11b81526001600160a01b038c81166004830152602482018c905289811660448301528a169063f5e3c462906064016020604051808303816000875af1158015610ad0573d6000803e3d6000fd5b505050506040513d601f19601f82011682018060405250810190610af491906144b9565b15610b375760405162461bcd60e51b81526020600482015260136024820152722634b8bab4b230ba34b7b7103330b4b632b21760691b60448201526064016100a8565b876001600160a01b0316866001600160a01b031614610e3c576040516370a0823160e01b81523060048201526000906001600160a01b038a16906370a0823190602401602060405180830381865afa158015610b97573d6000803e3d6000fd5b505050506040513d601f19601f82011682018060405250810190610bbb91906144b9565b90508015610e3a5760405163db006a7560e01b8152600481018290526000906001600160a01b038b169063db006a75906024016020604051808303816000875af1158015610c0d573d6000803e3d6000fd5b505050506040513d601f19601f82011682018060405250810190610c3191906144b9565b90508015610c515760405162461bcd60e51b81526004016100a8906144d2565b896001600160a01b031663ac784ddc6040518163ffffffff1660e01b8152600401602060405180830381865afa158015610c8f573d6000803e3d6000fd5b505050506040513d601f19601f82011682018060405250810190610cb39190614717565b15610cca57610cc56000898b8a6111ad565b610e38565b60008a6001600160a01b0316636f307dc36040518163ffffffff1660e01b8152600401602060405180830381865afa158015610d0a573d6000803e3d6000fd5b505050506040513d601f19601f82011682018060405250810190610d2e9190614530565b875190915015610e2a578551875114610d595760405162461bcd60e51b81526004016100a89061454d565b6040516370a0823160e01b81523060048201526000906001600160a01b038316906370a0823190602401602060405180830381865afa158015610da0573d6000803e3d6000fd5b505050506040513d601f19601f82011682018060405250810190610dc491906144b9565b905060005b8851811015610e2757610e1083838b8481518110610de957610de96145d0565b60200260200101518b8581518110610e0357610e036145d0565b6020026020010151610e55565b909350915080610e1f816146b5565b915050610dc9565b50505b610e36818a8c8b6111ad565b505b505b505b610e468688611607565b9b9a5050505050505050505050565b6000806000610eb2856310badf4e60e01b898988604051602401610e7b93929190614a03565b60408051601f198184030181529190526020810180516001600160e01b03166001600160e01b031990931692909217909152611f36565b905080806020019051810190610ec89190614671565b925092505094509492505050565b6000808a11610ef75760405162461bcd60e51b81526004016100a890614970565b600061106c737a250d5630b4cf539739df2c5dacb4c659f2488d6001600160a01b031663c45a01556040518163ffffffff1660e01b8152600401602060405180830381865afa158015610f4e573d6000803e3d6000fd5b505050506040513d601f19601f82011682018060405250810190610f729190614530565b6001600160a01b038816737a250d5630b4cf539739df2c5dacb4c659f2488d14801561102457508a6001600160a01b0316636f307dc36040518163ffffffff1660e01b8152600401602060405180830381865afa158015610fd7573d6000803e3d6000fd5b505050506040513d601f19601f82011682018060405250810190610ffb9190614530565b6001600160a01b031673a0b86991c6218b36c1d19d4a2e9eb0ce3606eb486001600160a01b0316145b6110425773a0b86991c6218b36c1d19d4a2e9eb0ce3606eb48611058565b732260fac5e5542a773aa44fbcfedf7c193bc2c5995b600080516020614cb4833981519152612021565b90506000816001600160a01b0316630dfe16816040518163ffffffff1660e01b8152600401602060405180830381865afa1580156110ae573d6000803e3d6000fd5b505050506040513d601f19601f820116820180604052508101906110d29190614530565b9050816001600160a01b031663022c0d9f600080516020614cb48339815191526001600160a01b0316836001600160a01b031614611111576000611113565b8d5b6001600160a01b038416600080516020614cb4833981519152141561113957600061113b565b8e5b306000366040518663ffffffff1660e01b815260040161115f9594939291906149b4565b600060405180830381600087803b15801561117957600080fd5b505af115801561118d573d6000803e3d6000fd5b5050505061119c888a86611cd0565b9d9c50505050505050505050505050565b836001600160a01b0316836001600160a01b031614156111cc57611601565b6001600160a01b0384166112f7576001600160a01b038316600080516020614cb4833981519152141561126057600080516020614cb48339815191526001600160a01b031663d0e30db0476040518263ffffffff1660e01b81526004016000604051808303818588803b15801561124257600080fd5b505af1158015611256573d6000803e3d6000fd5b5050505050611601565b806001600160a01b0316637ff36ab54784611289600080516020614cb4833981519152886120fa565b30426040518663ffffffff1660e01b81526004016112aa9493929190614a6e565b60006040518083038185885af11580156112c8573d6000803e3d6000fd5b50505050506040513d6000823e601f3d908101601f191682016040526112f19190810190614aa3565b50611601565b6001600160a01b038416600080516020614cb483398151915214801561132457506001600160a01b038316155b156113f3576040516370a0823160e01b8152306004820152600080516020614cb483398151915290632e1a7d4d9082906370a0823190602401602060405180830381865afa15801561137a573d6000803e3d6000fd5b505050506040513d601f19601f8201168201806040525081019061139e91906144b9565b6040518263ffffffff1660e01b81526004016113bc91815260200190565b600060405180830381600087803b1580156113d657600080fd5b505af11580156113ea573d6000803e3d6000fd5b50505050611601565b6040516370a0823160e01b815230600482015284906000906001600160a01b038316906370a0823190602401602060405180830381865afa15801561143c573d6000803e3d6000fd5b505050506040513d601f19601f8201168201806040525081019061146091906144b9565b905061146d828483611e87565b6001600160a01b03851661151357826001600160a01b03166318cbafe582866114a48a600080516020614cb48339815191526120fa565b30426040518663ffffffff1660e01b81526004016114c6959493929190614b28565b6000604051808303816000875af11580156114e5573d6000803e3d6000fd5b505050506040513d6000823e601f3d908101601f1916820160405261150d9190810190614aa3565b50610744565b826001600160a01b03166338ed17398286600080516020614cb48339815191526001600160a01b03168a6001600160a01b0316148061156857506001600160a01b038916600080516020614cb4833981519152145b61158a576115858a600080516020614cb48339815191528b612187565b611594565b6115948a8a6120fa565b30426040518663ffffffff1660e01b81526004016115b6959493929190614b28565b6000604051808303816000875af11580156115d5573d6000803e3d6000fd5b505050506040513d6000823e601f3d908101601f191682016040526115fd9190810190614aa3565b5050505b50505050565b6000806001600160a01b0384166117355750478281101561167b5760405162461bcd60e51b815260206004820152602860248201527f4d696e696d756d20455448206f757470757420616d6f756e74206e6f742073616044820152673a34b9b334b2b21760c11b60648201526084016100a8565b801561173057604051600090339083908381818185875af1925050503d80600081146116c3576040519150601f19603f3d011682016040523d82523d6000602084013e6116c8565b606091505b505090508061172e5760405162461bcd60e51b815260206004820152602c60248201527f4661696c656420746f207472616e73666572206f75747075742045544820746f60448201526b1036b9b39739b2b73232b91760a11b60648201526084016100a8565b505b61181f565b6040516370a0823160e01b815230600482015284906001600160a01b038216906370a0823190602401602060405180830381865afa15801561177b573d6000803e3d6000fd5b505050506040513d601f19601f8201168201806040525081019061179f91906144b9565b9150838210156118035760405162461bcd60e51b815260206004820152602960248201527f4d696e696d756d20746f6b656e206f757470757420616d6f756e74206e6f742060448201526839b0ba34b334b2b21760b91b60648201526084016100a8565b811561181d5761181d6001600160a01b038216338461224a565b505b9392505050565b604051632e1a7d4d60e01b8152600481018a9052600090600080516020614cb483398151915290632e1a7d4d90602401600060405180830381600087803b15801561187057600080fd5b505af1158015611884573d6000803e3d6000fd5b5050604051635572051560e11b81526001600160a01b038e811660048301528b811660248301528c16925063aae40a2a91508c906044016000604051808303818588803b1580156118d457600080fd5b505af11580156118e8573d6000803e3d6000fd5b50506040516370a0823160e01b8152306004820152600093506001600160a01b038c1692506370a082319150602401602060405180830381865afa158015611934573d6000803e3d6000fd5b505050506040513d601f19601f8201168201806040525081019061195891906144b9565b90506000811161199f5760405162461bcd60e51b815260206004820152601260248201527127379031aa37b5b2b7399039b2b4bd32b21760711b60448201526064016100a8565b60405163db006a7560e01b8152600481018290526000906001600160a01b038b169063db006a75906024016020604051808303816000875af11580156119e9573d6000803e3d6000fd5b505050506040513d601f19601f82011682018060405250810190611a0d91906144b9565b90508015611a2d5760405162461bcd60e51b81526004016100a8906144d2565b61119c8c8b8a8a8a8a8a61227f565b6000808a6001600160a01b0316636f307dc36040518163ffffffff1660e01b8152600401602060405180830381865afa158015611a7d573d6000803e3d6000fd5b505050506040513d601f19601f82011682018060405250810190611aa19190614530565b9050611aae818c8e611e87565b604051637af1e23160e11b81526001600160a01b038e81166004830152602482018e90528b811660448301528c169063f5e3c462906064016020604051808303816000875af1158015611b05573d6000803e3d6000fd5b505050506040513d601f19601f82011682018060405250810190611b2991906144b9565b15611b6c5760405162461bcd60e51b81526020600482015260136024820152722634b8bab4b230ba34b7b7103330b4b632b21760691b60448201526064016100a8565b6040516370a0823160e01b81523060048201526000906001600160a01b038c16906370a0823190602401602060405180830381865afa158015611bb3573d6000803e3d6000fd5b505050506040513d601f19601f82011682018060405250810190611bd791906144b9565b905060008111611c1e5760405162461bcd60e51b815260206004820152601260248201527127379031aa37b5b2b7399039b2b4bd32b21760711b60448201526064016100a8565b60405163db006a7560e01b8152600481018290526000906001600160a01b038d169063db006a75906024016020604051808303816000875af1158015611c68573d6000803e3d6000fd5b505050506040513d601f19601f82011682018060405250810190611c8c91906144b9565b90508015611cac5760405162461bcd60e51b81526004016100a8906144d2565b611cbd8e8d8c8c8c8c8c8c8b612aa1565b9f9e505050505050505050505050505050565b60006001600160a01b038416611d7b57600054611d1b906201000090046001600160a01b031685611d018587614b64565b737a250d5630b4cf539739df2c5dacb4c659f2488d6111ad565b8115611d6a5760405141908390600081818185875af1925050503d8060008114611d61576040519150601f19603f3d011682016040523d82523d6000602084013e611d66565b606091505b5050505b611d748484611607565b905061181f565b8115611dfb57600054611db2906201000090046001600160a01b031683737a250d5630b4cf539739df2c5dacb4c659f2488d613438565b60405141908390600081818185875af1925050503d8060008114611df2576040519150601f19603f3d011682016040523d82523d6000602084013e611df7565b606091505b5050505b600054611d6a906201000090046001600160a01b031685611d018587614b64565b6040516001600160a01b03808516602483015283166044820152606481018290526116019085906323b872dd60e01b906084015b60408051601f198184030181529190526020810180516001600160e01b03166001600160e01b0319909316929092179091526135d1565b604051636eb1769f60e11b81523060048201526001600160a01b0383811660248301526000919085169063dd62ed3e90604401602060405180830381865afa158015611ed7573d6000803e3d6000fd5b505050506040513d601f19601f82011682018060405250810190611efb91906144b9565b905081811015611601578015611f2057611f206001600160a01b0385168460006136a3565b6116016001600160a01b038516846000196136a3565b6060823b611f955760405162461bcd60e51b815260206004820152602660248201527f416464726573733a2064656c65676174652063616c6c20746f206e6f6e2d636f6044820152651b9d1c9858dd60d21b60648201526084016100a8565b600080846001600160a01b031684604051611fb09190614b7c565b600060405180830381855af49150503d8060008114611feb576040519150601f19603f3d011682016040523d82523d6000602084013e611ff0565b606091505b50915091506120188282604051806060016040528060278152602001614cd4602791396137b8565b95945050505050565b600080600061203085856137f1565b6040516bffffffffffffffffffffffff19606084811b8216602084015283901b16603482015291935091508690604801604051602081830303815290604052805190602001206040516020016120d89291906001600160f81b0319815260609290921b6bffffffffffffffffffffffff1916600183015260158201527f96e8ac4277198ff8b6f785478aa9a39f403cb768dd02cbee326c3e7da348845f603582015260550190565b60408051601f1981840301815291905280516020909101209695505050505050565b604080516002808252606080830184529260009291906020830190803683370190505090508381600081518110612133576121336145d0565b60200260200101906001600160a01b031690816001600160a01b0316815250508281600181518110612167576121676145d0565b6001600160a01b0390921660209283029190910190910152905092915050565b604080516003808252608082019092526060916000919060208201848036833701905050905084816000815181106121c1576121c16145d0565b60200260200101906001600160a01b031690816001600160a01b03168152505083816001815181106121f5576121f56145d0565b60200260200101906001600160a01b031690816001600160a01b0316815250508281600281518110612229576122296145d0565b6001600160a01b039092166020928302919091019091015290509392505050565b6040516001600160a01b03831660248201526044810182905261227a90849063a9059cbb60e01b90606401611e50565b505050565b600080876001600160a01b0316636f307dc36040518163ffffffff1660e01b8152600401602060405180830381865afa1580156122c0573d6000803e3d6000fd5b505050506040513d601f19601f820116820180604052508101906122e49190614530565b6040516370a0823160e01b81523060048201529091506000906001600160a01b038316906370a0823190602401602060405180830381865afa15801561232e573d6000803e3d6000fd5b505050506040513d601f19601f8201168201806040525081019061235291906144b9565b8551909150156123d357835185511461237d5760405162461bcd60e51b81526004016100a89061454d565b60005b85518110156123d1576123ba83838884815181106123a0576123a06145d0565b6020026020010151888581518110610e0357610e036145d0565b9093509150806123c9816146b5565b915050612380565b505b6001600160a01b038616737a250d5630b4cf539739df2c5dacb4c659f2488d1480156124cd5750886001600160a01b0316636f307dc36040518163ffffffff1660e01b8152600401602060405180830381865afa158015612438573d6000803e3d6000fd5b505050506040513d601f19601f8201168201806040525081019061245c9190614530565b6001600160a01b031673a0b86991c6218b36c1d19d4a2e9eb0ce3606eb486001600160a01b0316146124a25773a0b86991c6218b36c1d19d4a2e9eb0ce3606eb486124b8565b732260fac5e5542a773aa44fbcfedf7c193bc2c5995b6001600160a01b0316826001600160a01b0316145b156126d2576000612557876001600160a01b031663c45a01556040518163ffffffff1660e01b8152600401602060405180830381865afa158015612515573d6000803e3d6000fd5b505050506040513d601f19601f820116820180604052508101906125399190614530565b8c61255286600080516020614cb48339815191526120fa565b6138e9565b600081518110612569576125696145d0565b60200260200101519050818111156125e95760405162461bcd60e51b815260206004820152603760248201527f466c6173686c6f616e2072657475726e20616d6f756e7420677265617465722060448201527f7468616e207365697a656420636f6c6c61746572616c2e00000000000000000060648201526084016100a8565b60405163a9059cbb60e01b8152336004820152602481018290526001600160a01b0384169063a9059cbb906044016020604051808303816000875af1158015612636573d6000803e3d6000fd5b505050506040513d601f19601f8201168201806040525081019061265a9190614717565b6126cc5760405162461bcd60e51b815260206004820152603760248201527f4661696c656420746f207472616e73666572206e6f6e2d5745544820746f6b6560448201527f6e73206261636b20746f20666c6173686c656e6465722e00000000000000000060648201526084016100a8565b50612a94565b6001600160a01b038216600080516020614cb4833981519152146128c7576001600160a01b03821661276557600080516020614cb48339815191526001600160a01b031663d0e30db0886040518263ffffffff1660e01b81526004016000604051808303818588803b15801561274757600080fd5b505af115801561275b573d6000803e3d6000fd5b50505050506128c7565b612770828783611e87565b816001600160a01b0316886001600160a01b0316141561282257856001600160a01b0316638803dbee88836127b386600080516020614cb48339815191526120fa565b30426040518663ffffffff1660e01b81526004016127d5959493929190614b28565b6000604051808303816000875af11580156127f4573d6000803e3d6000fd5b505050506040513d6000823e601f3d908101601f1916820160405261281c9190810190614aa3565b506128c7565b856001600160a01b03166338ed1739828961284b86600080516020614cb48339815191526120fa565b30426040518663ffffffff1660e01b815260040161286d959493929190614b28565b6000604051808303816000875af115801561288c573d6000803e3d6000fd5b505050506040513d6000823e601f3d908101601f191682016040526128b49190810190614aa3565b50600080516020614cb483398151915291505b6040516370a0823160e01b8152306004820152600080516020614cb4833981519152906370a0823190602401602060405180830381865afa158015612910573d6000803e3d6000fd5b505050506040513d601f19601f8201168201806040525081019061293491906144b9565b8711156129bd5760405162461bcd60e51b815260206004820152604b60248201527f466c6173686c6f616e2072657475726e20616d6f756e7420677265617465722060448201527f7468616e20574554482065786368616e6765642066726f6d207365697a65642060648201526a31b7b63630ba32b930b61760a91b608482015260a4016100a8565b60405163a9059cbb60e01b815233600482015260248101889052600080516020614cb48339815191529063a9059cbb906044016020604051808303816000875af1158015612a0f573d6000803e3d6000fd5b505050506040513d601f19601f82011682018060405250810190612a339190614717565b612a945760405162461bcd60e51b815260206004820152602c60248201527f4661696c656420746f207472616e736665722057455448206261636b20746f2060448201526b333630b9b43632b73232b91760a11b60648201526084016100a8565b5098975050505050505050565b6000886001600160a01b031663ac784ddc6040518163ffffffff1660e01b8152600401602060405180830381865afa158015612ae1573d6000803e3d6000fd5b505050506040513d601f19601f82011682018060405250810190612b059190614717565b15612d185760004790506000612b8f886001600160a01b031663c45a01556040518163ffffffff1660e01b8152600401602060405180830381865afa158015612b52573d6000803e3d6000fd5b505050506040513d601f19601f82011682018060405250810190612b769190614530565b8d612552600080516020614cb4833981519152886120fa565b600081518110612ba157612ba16145d0565b6020026020010151905081811115612c185760405162461bcd60e51b815260206004820152603460248201527f5365697a65642045544820636f6c6c61746572616c206e6f7420656e6f756768604482015273103a37903932b830bc90333630b9b43637b0b71760611b60648201526084016100a8565b600080516020614cb48339815191526001600160a01b031663d0e30db0826040518263ffffffff1660e01b81526004016000604051808303818588803b158015612c6157600080fd5b505af1158015612c75573d6000803e3d6000fd5b505060405163a9059cbb60e01b815233600482015260248101859052600080516020614cb4833981519152935063a9059cbb925060440190506020604051808303816000875af1158015612ccd573d6000803e3d6000fd5b505050506040513d601f19601f82011682018060405250810190612cf19190614717565b612d0d5760405162461bcd60e51b81526004016100a890614b98565b600092505050610520565b6000896001600160a01b0316636f307dc36040518163ffffffff1660e01b8152600401602060405180830381865afa158015612d58573d6000803e3d6000fd5b505050506040513d601f19601f82011682018060405250810190612d7c9190614530565b6040516370a0823160e01b81523060048201529091506000906001600160a01b038316906370a0823190602401602060405180830381865afa158015612dc6573d6000803e3d6000fd5b505050506040513d601f19601f82011682018060405250810190612dea91906144b9565b865190915015612e6b578451865114612e155760405162461bcd60e51b81526004016100a89061454d565b60005b8651811015612e6957612e528383898481518110612e3857612e386145d0565b6020026020010151898581518110610e0357610e036145d0565b909350915080612e61816146b5565b915050612e18565b505b836001600160a01b0316826001600160a01b03161415613069576040516370a0823160e01b81523060048201526001600160a01b038516906370a0823190602401602060405180830381865afa158015612ec9573d6000803e3d6000fd5b505050506040513d601f19601f82011682018060405250810190612eed91906144b9565b891115612f7e5760405162461bcd60e51b815260206004820152605360248201527f546f6b656e20666c6173686c6f616e2072657475726e20616d6f756e7420677260448201527f6561746572207468616e20746f6b656e732065786368616e6765642066726f6d6064820152721039b2b4bd32b21031b7b63630ba32b930b61760691b608482015260a4016100a8565b60405163a9059cbb60e01b8152336004820152602481018a90526001600160a01b0385169063a9059cbb906044016020604051808303816000875af1158015612fcb573d6000803e3d6000fd5b505050506040513d601f19601f82011682018060405250810190612fef9190614717565b6130615760405162461bcd60e51b815260206004820152603a60248201527f4661696c656420746f20726570617920746f6b656e20666c6173686c6f616e2060448201527f6f6e20626f72726f7720286e6f6e2d574554482920736964652e00000000000060648201526084016100a8565b509050610520565b60006130e9896001600160a01b031663c45a01556040518163ffffffff1660e01b8152600401602060405180830381865afa1580156130ac573d6000803e3d6000fd5b505050506040513d601f19601f820116820180604052508101906130d09190614530565b8e612552600080516020614cb4833981519152896120fa565b6000815181106130fb576130fb6145d0565b60200260200101519050600080516020614cb48339815191526001600160a01b0316836001600160a01b03161461327d57613137838984611e87565b826001600160a01b03168b6001600160a01b031614156131e957876001600160a01b0316638803dbee828461317a87600080516020614cb48339815191526120fa565b30426040518663ffffffff1660e01b815260040161319c959493929190614b28565b6000604051808303816000875af11580156131bb573d6000803e3d6000fd5b505050506040513d6000823e601f3d908101601f191682016040526131e39190810190614aa3565b5061327d565b876001600160a01b03166338ed1739838361321287600080516020614cb48339815191526120fa565b30426040518663ffffffff1660e01b8152600401613234959493929190614b28565b6000604051808303816000875af1158015613253573d6000803e3d6000fd5b505050506040513d6000823e601f3d908101601f1916820160405261327b9190810190614aa3565b505b6040516370a0823160e01b8152306004820152600080516020614cb4833981519152906370a0823190602401602060405180830381865afa1580156132c6573d6000803e3d6000fd5b505050506040513d601f19601f820116820180604052508101906132ea91906144b9565b81111561336d5760405162461bcd60e51b8152602060048201526044602482018190527f4e6f7420656e6f75676820574554482065786368616e6765642066726f6d2073908201527f65697a656420636f6c6c61746572616c20746f20726570617920666c6173686c60648201526337b0b71760e11b608482015260a4016100a8565b60405163a9059cbb60e01b815233600482015260248101829052600080516020614cb48339815191529063a9059cbb906044016020604051808303816000875af11580156133bf573d6000803e3d6000fd5b505050506040513d601f19601f820116820180604052508101906133e39190614717565b6133ff5760405162461bcd60e51b81526004016100a890614b98565b826001600160a01b03168b6001600160a01b03161461342c57600080516020614cb483398151915261342e565b825b9350505050610520565b6001600160a01b03831661344b57505050565b6001600160a01b038316600080516020614cb483398151915214156134c557604051632e1a7d4d60e01b815260048101839052600080516020614cb483398151915290632e1a7d4d90602401600060405180830381600087803b1580156134b157600080fd5b505af11580156115fd573d6000803e3d6000fd5b6040516370a0823160e01b815230600482015283906000906001600160a01b038316906370a0823190602401602060405180830381865afa15801561350e573d6000803e3d6000fd5b505050506040513d601f19601f8201168201806040525081019061353291906144b9565b905061353f828483611e87565b826001600160a01b0316634a25d94a858361356889600080516020614cb48339815191526120fa565b30426040518663ffffffff1660e01b815260040161358a959493929190614b28565b6000604051808303816000875af11580156135a9573d6000803e3d6000fd5b505050506040513d6000823e601f3d908101601f191682016040526107449190810190614aa3565b6000613626826040518060400160405280602081526020017f5361666545524332303a206c6f772d6c6576656c2063616c6c206661696c6564815250856001600160a01b0316613a769092919063ffffffff16565b80519091501561227a57808060200190518101906136449190614717565b61227a5760405162461bcd60e51b815260206004820152602a60248201527f5361666545524332303a204552433230206f7065726174696f6e20646964206e6044820152691bdd081cdd58d8d9595960b21b60648201526084016100a8565b80158061371d5750604051636eb1769f60e11b81523060048201526001600160a01b03838116602483015284169063dd62ed3e90604401602060405180830381865afa1580156136f7573d6000803e3d6000fd5b505050506040513d601f19601f8201168201806040525081019061371b91906144b9565b155b6137885760405162461bcd60e51b815260206004820152603660248201527f5361666545524332303a20617070726f76652066726f6d206e6f6e2d7a65726f60448201527520746f206e6f6e2d7a65726f20616c6c6f77616e636560501b60648201526084016100a8565b6040516001600160a01b03831660248201526044810182905261227a90849063095ea7b360e01b90606401611e50565b606083156137c757508161181f565b8251156137d75782518084602001fd5b8160405162461bcd60e51b81526004016100a89190614c0b565b600080826001600160a01b0316846001600160a01b031614156138645760405162461bcd60e51b815260206004820152602560248201527f556e697377617056324c6962726172793a204944454e544943414c5f41444452604482015264455353455360d81b60648201526084016100a8565b826001600160a01b0316846001600160a01b031610613884578284613887565b83835b90925090506001600160a01b0382166138e25760405162461bcd60e51b815260206004820152601e60248201527f556e697377617056324c6962726172793a205a45524f5f41444452455353000060448201526064016100a8565b9250929050565b606060028251101561393d5760405162461bcd60e51b815260206004820152601e60248201527f556e697377617056324c6962726172793a20494e56414c49445f50415448000060448201526064016100a8565b81516001600160401b0381111561395657613956613e38565b60405190808252806020026020018201604052801561397f578160200160208202803683370190505b5090508281600183516139929190614c1e565b815181106139a2576139a26145d0565b6020026020010181815250506000600183516139be9190614c1e565b90505b801561181d57600080613a1187866139da600187614c1e565b815181106139ea576139ea6145d0565b6020026020010151878681518110613a0457613a046145d0565b6020026020010151613a8d565b91509150613a39848481518110613a2a57613a2a6145d0565b60200260200101518383613bc2565b84613a45600186614c1e565b81518110613a5557613a556145d0565b60200260200101818152505050508080613a6e90614c35565b9150506139c1565b6060613a858484600085613ce8565b949350505050565b6000806000613a9c85856137f1565b5060405163e6a4390560e01b81526001600160a01b038781166004830152868116602483015291925060009182919089169063e6a4390590604401602060405180830381865afa158015613af4573d6000803e3d6000fd5b505050506040513d601f19601f82011682018060405250810190613b189190614530565b6001600160a01b0316630902f1ac6040518163ffffffff1660e01b8152600401606060405180830381865afa158015613b55573d6000803e3d6000fd5b505050506040513d601f19601f82011682018060405250810190613b799190614c63565b506001600160701b031691506001600160701b03169150826001600160a01b0316876001600160a01b031614613bb0578082613bb3565b81815b90999098509650505050505050565b6000808411613c285760405162461bcd60e51b815260206004820152602c60248201527f556e697377617056324c6962726172793a20494e53554646494349454e545f4f60448201526b155514155517d05353d5539560a21b60648201526084016100a8565b600083118015613c385750600082115b613c955760405162461bcd60e51b815260206004820152602860248201527f556e697377617056324c6962726172793a20494e53554646494349454e545f4c604482015267495155494449545960c01b60648201526084016100a8565b6000613ca18585614837565b613cad906103e8614837565b90506000613cbb8685614c1e565b613cc7906103e5614837565b9050613cd3818361486c565b613cde906001614b64565b9695505050505050565b606082471015613d495760405162461bcd60e51b815260206004820152602660248201527f416464726573733a20696e73756666696369656e742062616c616e636520666f6044820152651c8818d85b1b60d21b60648201526084016100a8565b843b613d975760405162461bcd60e51b815260206004820152601d60248201527f416464726573733a2063616c6c20746f206e6f6e2d636f6e747261637400000060448201526064016100a8565b600080866001600160a01b03168587604051613db39190614b7c565b60006040518083038185875af1925050503d8060008114613df0576040519150601f19603f3d011682016040523d82523d6000602084013e613df5565b606091505b5091509150613e058282866137b8565b979650505050505050565b6001600160a01b0381168114613e2557600080fd5b50565b8035613e3381613e10565b919050565b634e487b7160e01b600052604160045260246000fd5b604051601f8201601f191681016001600160401b0381118282101715613e7657613e76613e38565b604052919050565b60006001600160401b03821115613e9757613e97613e38565b5060051b60200190565b600082601f830112613eb257600080fd5b81356020613ec7613ec283613e7e565b613e4e565b82815260059290921b84018101918181019086841115613ee657600080fd5b8286015b84811015613f0a578035613efd81613e10565b8352918301918301613eea565b509695505050505050565b600082601f830112613f2657600080fd5b81356001600160401b03811115613f3f57613f3f613e38565b613f52601f8201601f1916602001613e4e565b818152846020838601011115613f6757600080fd5b816020850160208301376000918101602001919091529392505050565b600082601f830112613f9557600080fd5b81356020613fa5613ec283613e7e565b82815260059290921b84018101918181019086841115613fc457600080fd5b8286015b84811015613f0a5780356001600160401b03811115613fe75760008081fd5b613ff58986838b0101613f15565b845250918301918301613fc8565b600080600080600080600080610100898b03121561402057600080fd5b883561402b81613e10565b9750602089013561403b81613e10565b9650604089013561404b81613e10565b955060608901359450608089013561406281613e10565b935060a089013561407281613e10565b925060c08901356001600160401b038082111561408e57600080fd5b61409a8c838d01613ea1565b935060e08b01359150808211156140b057600080fd5b506140bd8b828c01613f84565b9150509295985092959890939650565b6000806000806000608086880312156140e557600080fd5b85356140f081613e10565b9450602086013593506040860135925060608601356001600160401b038082111561411a57600080fd5b818801915088601f83011261412e57600080fd5b81358181111561413d57600080fd5b89602082850101111561414f57600080fd5b9699959850939650602001949392505050565b60008060008060008060008060008060006101608c8e03121561418457600080fd5b61418d8c613e28565b9a5060208c013599506141a260408d01613e28565b98506141b060608d01613e28565b975060808c013596506141c560a08d01613e28565b95506141d360c08d01613e28565b94506141e160e08d01613e28565b93506001600160401b03806101008e013511156141fd57600080fd5b61420e8e6101008f01358f01613ea1565b9350806101208e0135111561422257600080fd5b506142348d6101208e01358e01613f84565b91506101408c013590509295989b509295989b9093969950565b60008060008060008060008060006101208a8c03121561426d57600080fd5b893561427881613e10565b985060208a0135975060408a013561428f81613e10565b965061429d60608b01613e28565b955060808a013594506142b260a08b01613e28565b93506142c060c08b01613e28565b925060e08a01356001600160401b03808211156142dc57600080fd5b6142e88d838e01613ea1565b93506101008c01359150808211156142ff57600080fd5b5061430c8c828d01613f84565b9150509295985092959850929598565b6000806000806080858703121561433257600080fd5b843561433d81613e10565b935060208501359250604085013561435481613e10565b915060608501356001600160401b0381111561436f57600080fd5b61437b87828801613f15565b91505092959194509250565b6000806000806000806000806000806101408b8d0312156143a757600080fd5b6143b08b613e28565b995060208b013598506143c560408c01613e28565b97506143d360608c01613e28565b965060808b013595506143e860a08c01613e28565b94506143f660c08c01613e28565b935060e08b01356001600160401b038082111561441257600080fd5b61441e8e838f01613ea1565b94506101008d013591508082111561443557600080fd5b506144428d828e01613f84565b9250506101208b013590509295989b9194979a5092959850565b60208082526038908201527f526570617920616d6f756e7420287472616e73616374696f6e2076616c75652960408201527f206d7573742062652067726561746572207468616e20302e0000000000000000606082015260800190565b6000602082840312156144cb57600080fd5b5051919050565b602080825260409082018190527f4572726f722063616c6c696e672072656465656d696e67207365697a65642063908201527f546f6b656e3a206572726f7220636f6465206e6f7420657175616c20746f2030606082015260800190565b60006020828403121561454257600080fd5b815161181f81613e10565b6020808252605b908201527f49526564656d7074696f6e537472617465677920636f6e74726163742061727260408201527f617920616e64207374726174656779206461746120627974657320617272617960608201527f206d6e75737420746865207468652073616d65206c656e6774682e0000000000608082015260a00190565b634e487b7160e01b600052603260045260246000fd5b60005b838110156146015781810151838201526020016145e9565b838111156116015750506000910152565b6000815180845261462a8160208601602086016145e6565b601f01601f19169290920160200192915050565b6001600160a01b0385811682526020820185905283166040820152608060608201819052600090613cde90830184614612565b6000806040838503121561468457600080fd5b825161468f81613e10565b6020939093015192949293505050565b634e487b7160e01b600052601160045260246000fd5b60006000198214156146c9576146c961469f565b5060010190565b600080858511156146e057600080fd5b838611156146ed57600080fd5b5050820193919092039150565b60006020828403121561470c57600080fd5b813561181f81613e10565b60006020828403121561472957600080fd5b8151801515811461181f57600080fd5b600082601f83011261474a57600080fd5b8135602061475a613ec283613e7e565b82815260059290921b8401810191818101908684111561477957600080fd5b8286015b84811015613f0a57803561479081613e10565b835291830191830161477d565b60008060008060008060008060006101208a8c0312156147bc57600080fd5b89356147c781613e10565b985060208a0135975060408a01356147de81613e10565b96506147ec60608b01613e28565b955060808a0135945061480160a08b01613e28565b935061480f60c08b01613e28565b925060e08a01356001600160401b038082111561482b57600080fd5b6142e88d838e01614739565b60008160001904831182151516156148515761485161469f565b500290565b634e487b7160e01b600052601260045260246000fd5b60008261487b5761487b614856565b500490565b60008261488f5761488f614856565b500690565b6000806000806000806000806000806101408b8d0312156148b457600080fd5b6148bd8b613e28565b995060208b013598506148d260408c01613e28565b97506148e060608c01613e28565b965060808b013595506148f560a08c01613e28565b945061490360c08c01613e28565b935061491160e08c01613e28565b92506101008b01356001600160401b038082111561492e57600080fd5b61493a8e838f01614739565b93506101208d013591508082111561495157600080fd5b5061495e8d828e01613f84565b9150509295989b9194979a5092959850565b60208082526024908201527f526570617920616d6f756e74206d7573742062652067726561746572207468616040820152633710181760e11b606082015260800190565b858152602081018590526001600160a01b03841660408201526080606082018190528101829052818360a0830137600081830160a090810191909152601f909201601f19160101949350505050565b60018060a01b03841681528260208201526060604082015260006120186060830184614612565b600081518084526020808501945080840160005b83811015614a635781516001600160a01b031687529582019590820190600101614a3e565b509495945050505050565b848152608060208201526000614a876080830186614a2a565b6001600160a01b03949094166040830152506060015292915050565b60006020808385031215614ab657600080fd5b82516001600160401b03811115614acc57600080fd5b8301601f81018513614add57600080fd5b8051614aeb613ec282613e7e565b81815260059190911b82018301908381019087831115614b0a57600080fd5b928401925b82841015613e0557835182529284019290840190614b0f565b85815284602082015260a060408201526000614b4760a0830186614a2a565b6001600160a01b0394909416606083015250608001529392505050565b60008219821115614b7757614b7761469f565b500190565b60008251614b8e8184602087016145e6565b9190910192915050565b6020808252604d908201527f4661696c656420746f20726570617920556e697377617020666c6173686c6f6160408201527f6e207769746820574554482065786368616e6765642066726f6d207365697a6560608201526c321031b7b63630ba32b930b61760991b608082015260a00190565b60208152600061181f6020830184614612565b600082821015614c3057614c3061469f565b500390565b600081614c4457614c4461469f565b506000190190565b80516001600160701b0381168114613e3357600080fd5b600080600060608486031215614c7857600080fd5b614c8184614c4c565b9250614c8f60208501614c4c565b9150604084015163ffffffff81168114614ca857600080fd5b80915050925092509256fe000000000000000000000000c02aaa39b223fe8d0a0e5c4f27ead9083c756cc2416464726573733a206c6f772d6c6576656c2064656c65676174652063616c6c206661696c6564a26469706673582212206a075e33d9b1987cd481b29bd01e76b6c727a31ca89df526354734c8465ab65964736f6c634300080b0033",
  "devdoc": {
    "author": "David Lucid <david@rari.capital> (https://github.com/davidlucid)",
    "details": "Do not transfer ETH or tokens directly to this address. Only send ETH here when using a method, and only approve tokens for transfer to here when using a method. Direct ETH transfers will be rejected and direct token transfers will be lost.",
    "kind": "dev",
    "methods": {
      "redeemCustomCollateral(address,uint256,address,bytes)": {
        "details": "Redeem \"special\" collateral tokens (before swapping the output for borrowed tokens to be repaid via Uniswap). Public visibility because we have to call this function externally if called from a payable FuseSafeLiquidator function (for some reason delegatecall fails when called with msg.value > 0)."
      },
      "safeLiquidate(address,address,address,uint256,address,address,address[],bytes[])": {
        "params": {
          "borrower": "The borrower's Ethereum address.",
          "cErc20Collateral": "The cErc20 collateral contract to be liquidated.",
          "cEther": "The borrowed cEther contract to repay.",
          "exchangeSeizedTo": "If set to an address other than `cTokenCollateral`, exchange seized collateral to this ERC20 token contract address (or the zero address for ETH).",
          "minOutputAmount": "The minimum amount of collateral to seize (or the minimum exchange output if applicable) required for execution. Reverts if this condition is not met.",
          "redemptionStrategies": "The IRedemptionStrategy contracts to use, if any, to redeem \"special\" collateral tokens (before swapping the output for borrowed tokens to be repaid via Uniswap).",
          "strategyData": "The data for the chosen IRedemptionStrategy contracts, if any.",
          "uniswapV2Router": "The UniswapV2Router to use to convert the seized underlying collateral."
        }
      },
      "safeLiquidate(address,uint256,address,address,uint256,address,address,address[],bytes[])": {
        "params": {
          "borrower": "The borrower's Ethereum address.",
          "cErc20": "The borrowed cErc20 to repay.",
          "cTokenCollateral": "The cToken collateral to be liquidated.",
          "exchangeSeizedTo": "If set to an address other than `cTokenCollateral`, exchange seized collateral to this ERC20 token contract address (or the zero address for ETH).",
          "minOutputAmount": "The minimum amount of collateral to seize (or the minimum exchange output if applicable) required for execution. Reverts if this condition is not met.",
          "redemptionStrategies": "The IRedemptionStrategy contracts to use, if any, to redeem \"special\" collateral tokens (before swapping the output for borrowed tokens to be repaid via Uniswap).",
          "repayAmount": "The amount to repay to liquidate the unhealthy loan.",
          "strategyData": "The data for the chosen IRedemptionStrategy contracts, if any.",
          "uniswapV2Router": "The UniswapV2Router to use to convert the seized underlying collateral."
        }
      },
      "safeLiquidateToEthWithFlashLoan(address,uint256,address,address,uint256,address,address,address[],bytes[],uint256)": {
        "params": {
          "borrower": "The borrower's Ethereum address.",
          "cErc20Collateral": "The CErc20 collateral contract to be liquidated.",
          "cEther": "The borrowed CEther contract to repay.",
          "exchangeProfitTo": "If set to an address other than `cErc20Collateral`, exchange seized collateral to this ERC20 token contract address (or the zero address for ETH).",
          "minProfitAmount": "The minimum amount of profit required for execution (in terms of `exchangeProfitTo`). Reverts if this condition is not met.",
          "redemptionStrategies": "The IRedemptionStrategy contracts to use, if any, to redeem \"special\" collateral tokens (before swapping the output for borrowed tokens to be repaid via Uniswap).",
          "repayAmount": "The ETH amount to repay to liquidate the unhealthy loan.",
          "strategyData": "The data for the chosen IRedemptionStrategy contracts, if any.",
          "uniswapV2RouterForCollateral": "The UniswapV2Router to use to convert the underlying collateral to ETH."
        }
      },
      "safeLiquidateToTokensWithFlashLoan(address,uint256,address,address,uint256,address,address,address,address[],bytes[],uint256)": {
        "params": {
          "borrower": "The borrower's Ethereum address.",
          "cErc20": "The borrowed CErc20 contract to repay.",
          "cTokenCollateral": "The cToken collateral contract to be liquidated.",
          "exchangeProfitTo": "If set to an address other than `cTokenCollateral`, exchange seized collateral to this ERC20 token contract address (or the zero address for ETH).",
          "minProfitAmount": "The minimum amount of profit required for execution (in terms of `exchangeProfitTo`). Reverts if this condition is not met.",
          "redemptionStrategies": "The IRedemptionStrategy contracts to use, if any, to redeem \"special\" collateral tokens (before swapping the output for borrowed tokens to be repaid via Uniswap).",
          "repayAmount": "The amount to repay to liquidate the unhealthy loan.",
          "strategyData": "The data for the chosen IRedemptionStrategy contracts, if any.",
          "uniswapV2RouterForBorrow": "The UniswapV2Router to use to convert the ETH to the underlying borrow (and flashloan the underlying borrow for ETH).",
          "uniswapV2RouterForCollateral": "The UniswapV2Router to use to convert the underlying collateral to ETH."
        }
      },
      "uniswapV2Call(address,uint256,uint256,bytes)": {
        "details": "Callback function for Uniswap flashloans."
      }
    },
    "stateVariables": {
      "UNISWAP_V2_ROUTER_02": {
        "details": "UniswapV2Router02 contract object."
      },
      "UNISWAP_V2_ROUTER_02_ADDRESS": {
        "details": "UniswapV2Router02 contract address."
      },
      "WETH": {
        "details": "WETH contract object."
      },
      "WETH_ADDRESS": {
        "details": "WETH contract address."
      },
      "_liquidatorProfitExchangeSource": {
        "details": "Cached liquidator profit exchange source. ERC20 token address or the zero address for ETH. For use in `safeLiquidateToTokensWithFlashLoan`/`safeLiquidateToEthWithFlashLoan` after it is set by `postFlashLoanTokens`/`postFlashLoanWeth`."
      }
    },
    "title": "FuseSafeLiquidator",
    "version": 1
  },
  "userdoc": {
    "kind": "user",
    "methods": {
      "safeLiquidate(address,address,address,uint256,address,address,address[],bytes[])": {
        "notice": "Safely liquidate an unhealthy loan (using capital from the sender), confirming that at least `minOutputAmount` in collateral is seized (or outputted by exchange if applicable). "
      },
      "safeLiquidate(address,uint256,address,address,uint256,address,address,address[],bytes[])": {
        "notice": "Safely liquidate an unhealthy loan (using capital from the sender), confirming that at least `minOutputAmount` in collateral is seized (or outputted by exchange if applicable). "
      },
      "safeLiquidateToEthWithFlashLoan(address,uint256,address,address,uint256,address,address,address[],bytes[],uint256)": {
        "notice": "Safely liquidate an unhealthy loan, confirming that at least `minProfitAmount` in ETH profit is seized. "
      },
      "safeLiquidateToTokensWithFlashLoan(address,uint256,address,address,uint256,address,address,address,address[],bytes[],uint256)": {
        "notice": "Safely liquidate an unhealthy loan, confirming that at least `minProfitAmount` in ETH profit is seized. "
      }
    },
    "notice": "FuseSafeLiquidator safely liquidates unhealthy borrowers (with flashloan support).",
    "version": 1
  },
  "storageLayout": {
    "storage": [
      {
        "astId": 212,
        "contract": "contracts/FuseSafeLiquidator.sol:FuseSafeLiquidator",
        "label": "_initialized",
        "offset": 0,
        "slot": "0",
        "type": "t_bool"
      },
      {
        "astId": 215,
        "contract": "contracts/FuseSafeLiquidator.sol:FuseSafeLiquidator",
        "label": "_initializing",
        "offset": 1,
        "slot": "0",
        "type": "t_bool"
      },
      {
        "astId": 5692,
        "contract": "contracts/FuseSafeLiquidator.sol:FuseSafeLiquidator",
        "label": "_liquidatorProfitExchangeSource",
        "offset": 2,
        "slot": "0",
        "type": "t_address"
      }
    ],
    "types": {
      "t_address": {
        "encoding": "inplace",
        "label": "address",
        "numberOfBytes": "20"
      },
      "t_bool": {
        "encoding": "inplace",
        "label": "bool",
        "numberOfBytes": "1"
      }
    }
  }
}