{
  "address": "0x24C470Ea19414145e96c6684bfaba655F2B702BE",
  "abi": [
    {
      "inputs": [],
      "name": "BTC_TOKEN",
      "outputs": [
        {
          "internalType": "address",
          "name": "",
          "type": "address"
        }
      ],
      "stateMutability": "view",
      "type": "function"
    },
    {
      "inputs": [],
      "name": "STABLE_TOKEN",
      "outputs": [
        {
          "internalType": "address",
          "name": "",
          "type": "address"
        }
      ],
      "stateMutability": "view",
      "type": "function"
    },
    {
      "inputs": [],
      "name": "UNISWAP_V2_ROUTER_02",
      "outputs": [
        {
          "internalType": "contract IUniswapV2Router02",
          "name": "",
          "type": "address"
        }
      ],
      "stateMutability": "view",
      "type": "function"
    },
    {
      "inputs": [],
      "name": "UNISWAP_V2_ROUTER_02_ADDRESS",
      "outputs": [
        {
          "internalType": "address",
          "name": "",
          "type": "address"
        }
      ],
      "stateMutability": "view",
      "type": "function"
    },
    {
      "inputs": [],
      "name": "W_NATIVE",
      "outputs": [
        {
          "internalType": "contract IW_NATIVE",
          "name": "",
          "type": "address"
        }
      ],
      "stateMutability": "view",
      "type": "function"
    },
    {
      "inputs": [],
      "name": "W_NATIVE_ADDRESS",
      "outputs": [
        {
          "internalType": "address",
          "name": "",
          "type": "address"
        }
      ],
      "stateMutability": "view",
      "type": "function"
    },
    {
      "inputs": [
        {
          "internalType": "address",
          "name": "_wtoken",
          "type": "address"
        },
        {
          "internalType": "address",
          "name": "_uniswapV2router",
          "type": "address"
        },
        {
          "internalType": "address",
          "name": "_stableToken",
          "type": "address"
        },
        {
          "internalType": "address",
          "name": "_btcToken",
          "type": "address"
        },
        {
          "internalType": "bytes",
          "name": "_uniswapPairInitHashCode",
          "type": "bytes"
        }
      ],
      "name": "initialize",
      "outputs": [],
      "stateMutability": "nonpayable",
      "type": "function"
    },
    {
      "inputs": [
        {
          "internalType": "address",
          "name": "sender",
          "type": "address"
        },
        {
          "internalType": "uint256",
          "name": "amount0",
          "type": "uint256"
        },
        {
          "internalType": "uint256",
          "name": "amount1",
          "type": "uint256"
        },
        {
          "internalType": "bytes",
          "name": "data",
          "type": "bytes"
        }
      ],
      "name": "pancakeCall",
      "outputs": [],
      "stateMutability": "nonpayable",
      "type": "function"
    },
    {
      "inputs": [
        {
          "internalType": "contract IERC20Upgradeable",
          "name": "underlyingCollateral",
          "type": "address"
        },
        {
          "internalType": "uint256",
          "name": "underlyingCollateralSeized",
          "type": "uint256"
        },
        {
          "internalType": "contract IRedemptionStrategy",
          "name": "strategy",
          "type": "address"
        },
        {
          "internalType": "bytes",
          "name": "strategyData",
          "type": "bytes"
        }
      ],
      "name": "redeemCustomCollateral",
      "outputs": [
        {
          "internalType": "contract IERC20Upgradeable",
          "name": "",
          "type": "address"
        },
        {
          "internalType": "uint256",
          "name": "",
          "type": "uint256"
        }
      ],
      "stateMutability": "nonpayable",
      "type": "function"
    },
    {
      "inputs": [
        {
          "internalType": "address",
          "name": "borrower",
          "type": "address"
        },
        {
          "internalType": "contract ICEther",
          "name": "cEther",
          "type": "address"
        },
        {
          "internalType": "contract ICErc20",
          "name": "cErc20Collateral",
          "type": "address"
        },
        {
          "internalType": "uint256",
          "name": "minOutputAmount",
          "type": "uint256"
        },
        {
          "internalType": "address",
          "name": "exchangeSeizedTo",
          "type": "address"
        },
        {
          "internalType": "contract IUniswapV2Router02",
          "name": "uniswapV2Router",
          "type": "address"
        },
        {
          "internalType": "contract IRedemptionStrategy[]",
          "name": "redemptionStrategies",
          "type": "address[]"
        },
        {
          "internalType": "bytes[]",
          "name": "strategyData",
          "type": "bytes[]"
        }
      ],
      "name": "safeLiquidate",
      "outputs": [
        {
          "internalType": "uint256",
          "name": "",
          "type": "uint256"
        }
      ],
      "stateMutability": "payable",
      "type": "function"
    },
    {
      "inputs": [
        {
          "internalType": "address",
          "name": "borrower",
          "type": "address"
        },
        {
          "internalType": "uint256",
          "name": "repayAmount",
          "type": "uint256"
        },
        {
          "internalType": "contract ICErc20",
          "name": "cErc20",
          "type": "address"
        },
        {
          "internalType": "contract ICToken",
          "name": "cTokenCollateral",
          "type": "address"
        },
        {
          "internalType": "uint256",
          "name": "minOutputAmount",
          "type": "uint256"
        },
        {
          "internalType": "address",
          "name": "exchangeSeizedTo",
          "type": "address"
        },
        {
          "internalType": "contract IUniswapV2Router02",
          "name": "uniswapV2Router",
          "type": "address"
        },
        {
          "internalType": "contract IRedemptionStrategy[]",
          "name": "redemptionStrategies",
          "type": "address[]"
        },
        {
          "internalType": "bytes[]",
          "name": "strategyData",
          "type": "bytes[]"
        }
      ],
      "name": "safeLiquidate",
      "outputs": [
        {
          "internalType": "uint256",
          "name": "",
          "type": "uint256"
        }
      ],
      "stateMutability": "nonpayable",
      "type": "function"
    },
    {
      "inputs": [
        {
          "internalType": "address",
          "name": "borrower",
          "type": "address"
        },
        {
          "internalType": "uint256",
          "name": "repayAmount",
          "type": "uint256"
        },
        {
          "internalType": "contract ICEther",
          "name": "cEther",
          "type": "address"
        },
        {
          "internalType": "contract ICErc20",
          "name": "cErc20Collateral",
          "type": "address"
        },
        {
          "internalType": "uint256",
          "name": "minProfitAmount",
          "type": "uint256"
        },
        {
          "internalType": "address",
          "name": "exchangeProfitTo",
          "type": "address"
        },
        {
          "internalType": "contract IUniswapV2Router02",
          "name": "uniswapV2RouterForCollateral",
          "type": "address"
        },
        {
          "internalType": "contract IRedemptionStrategy[]",
          "name": "redemptionStrategies",
          "type": "address[]"
        },
        {
          "internalType": "bytes[]",
          "name": "strategyData",
          "type": "bytes[]"
        },
        {
          "internalType": "uint256",
          "name": "ethToCoinbase",
          "type": "uint256"
        }
      ],
      "name": "safeLiquidateToEthWithFlashLoan",
      "outputs": [
        {
          "internalType": "uint256",
          "name": "",
          "type": "uint256"
        }
      ],
      "stateMutability": "nonpayable",
      "type": "function"
    },
    {
      "inputs": [
        {
          "internalType": "address",
          "name": "borrower",
          "type": "address"
        },
        {
          "internalType": "uint256",
          "name": "repayAmount",
          "type": "uint256"
        },
        {
          "internalType": "contract ICErc20",
          "name": "cErc20",
          "type": "address"
        },
        {
          "internalType": "contract ICToken",
          "name": "cTokenCollateral",
          "type": "address"
        },
        {
          "internalType": "uint256",
          "name": "minProfitAmount",
          "type": "uint256"
        },
        {
          "internalType": "address",
          "name": "exchangeProfitTo",
          "type": "address"
        },
        {
          "internalType": "contract IUniswapV2Router02",
          "name": "uniswapV2RouterForBorrow",
          "type": "address"
        },
        {
          "internalType": "contract IUniswapV2Router02",
          "name": "uniswapV2RouterForCollateral",
          "type": "address"
        },
        {
          "internalType": "contract IRedemptionStrategy[]",
          "name": "redemptionStrategies",
          "type": "address[]"
        },
        {
          "internalType": "bytes[]",
          "name": "strategyData",
          "type": "bytes[]"
        },
        {
          "internalType": "uint256",
          "name": "ethToCoinbase",
          "type": "uint256"
        }
      ],
      "name": "safeLiquidateToTokensWithFlashLoan",
      "outputs": [
        {
          "internalType": "uint256",
          "name": "",
          "type": "uint256"
        }
      ],
      "stateMutability": "nonpayable",
      "type": "function"
    },
    {
      "inputs": [
        {
          "internalType": "address",
          "name": "sender",
          "type": "address"
        },
        {
          "internalType": "uint256",
          "name": "amount0",
          "type": "uint256"
        },
        {
          "internalType": "uint256",
          "name": "amount1",
          "type": "uint256"
        },
        {
          "internalType": "bytes",
          "name": "data",
          "type": "bytes"
        }
      ],
      "name": "uniswapV2Call",
      "outputs": [],
      "stateMutability": "nonpayable",
      "type": "function"
    },
    {
      "stateMutability": "payable",
      "type": "receive"
    }
  ],
  "transactionHash": "0x2f75134818b4e115a20b7c137050510ee0817c7567e4f7855f64089d20ce1cc5",
  "args": [],
  "numDeployments": 2,
  "solcInputHash": "38b763dd50768b107f6ead41ee6b4570",
  "bytecode": "0x608060405234801561001057600080fd5b50615226806100206000396000f3fe6080604052600436106100e15760003560e01c8063848008121161007f578063b596625811610059578063b5966258146102a4578063b798d3ff146102e3578063ba8bca5a14610303578063c8348b541461032357600080fd5b80638480081214610244578063a68ee11914610264578063a94c12bc1461028457600080fd5b8063700d5dd7116100bb578063700d5dd7146101a65780637754f887146101c6578063789fc9ad146101fe57806381738f131461021e57600080fd5b80630d1b27631461014057806310d1e85c146101665780634a9364171461018657600080fd5b3661013b57333b6101395760405162461bcd60e51b815260206004820152601960248201527f53656e646572206973206e6f74206120636f6e74726163742e0000000000000060448201526064015b60405180910390fd5b005b600080fd5b61015361014e36600461440a565b610343565b6040519081526020015b60405180910390f35b34801561017257600080fd5b506101396101813660046144d4565b6106d3565b34801561019257600080fd5b506101396101a1366004614569565b6108e7565b3480156101b257600080fd5b506101536101c13660046145f0565b610a89565b3480156101d257600080fd5b506003546101e6906001600160a01b031681565b6040516001600160a01b03909116815260200161015d565b34801561020a57600080fd5b506004546101e6906001600160a01b031681565b34801561022a57600080fd5b506000546101e6906201000090046001600160a01b031681565b34801561025057600080fd5b5061013961025f3660046144d4565b610d0a565b34801561027057600080fd5b5061015361027f3660046146dc565b610d1e565b34801561029057600080fd5b506002546101e6906001600160a01b031681565b3480156102b057600080fd5b506102c46102bf3660046147aa565b6111a1565b604080516001600160a01b03909316835260208301919091520161015d565b3480156102ef57600080fd5b506001546101e6906001600160a01b031681565b34801561030f57600080fd5b506006546101e6906001600160a01b031681565b34801561032f57600080fd5b5061015361033e366004614815565b611222565b60008034116103645760405162461bcd60e51b8152600401610130906148ea565b604051635572051560e11b81526001600160a01b038a81166004830152888116602483015289169063aae40a2a9034906044016000604051808303818588803b1580156103b057600080fd5b505af11580156103c4573d6000803e3d6000fd5b5050505050866001600160a01b0316856001600160a01b0316146106bc576040516370a0823160e01b81523060048201526000906001600160a01b038916906370a0823190602401602060405180830381865afa158015610429573d6000803e3d6000fd5b505050506040513d601f19601f8201168201806040525081019061044d9190614947565b905080156106ba5760405163db006a7560e01b8152600481018290526000906001600160a01b038a169063db006a75906024016020604051808303816000875af115801561049f573d6000803e3d6000fd5b505050506040513d601f19601f820116820180604052508101906104c39190614947565b905080156104e35760405162461bcd60e51b815260040161013090614960565b6000896001600160a01b0316636f307dc36040518163ffffffff1660e01b8152600401602060405180830381865afa158015610523573d6000803e3d6000fd5b505050506040513d601f19601f8201168201806040525081019061054791906149be565b8651909150156106ab5784518651146105725760405162461bcd60e51b8152600401610130906149db565b6040516370a0823160e01b81523060048201526000906001600160a01b038316906370a0823190602401602060405180830381865afa1580156105b9573d6000803e3d6000fd5b505050506040513d601f19601f820116820180604052508101906105dd9190614947565b905060005b87518110156106a857306001600160a01b031663b596625884848b858151811061060e5761060e614a5e565b60200260200101518b868151811061062857610628614a5e565b60200260200101516040518563ffffffff1660e01b815260040161064f9493929190614acc565b60408051808303816000875af115801561066d573d6000803e3d6000fd5b505050506040513d601f19601f820116820180604052508101906106919190614aff565b9093509150806106a081614b43565b9150506105e2565b50505b6106b781898b8a611548565b50505b505b6106c685876119ac565b9998505050505050505050565b60006106e3606460448486614b5e565b8101906106f09190614b88565b9050806001600160a01b031663ac784ddc6040518163ffffffff1660e01b8152600401602060405180830381865afa158015610730573d6000803e3d6000fd5b505050506040513d601f19601f820116820180604052508101906107549190614ba5565b1561081c5760008080808080808061076f8a6004818e614b5e565b81019061077c9190614c2b565b985098509850985098509850509750975060006103e5886103e86107a09190614cc5565b6107aa9190614cfa565b905060006103e56107bd8a6103e8614cc5565b6107c79190614d0e565b11156107db57806107d781614b43565b9150505b6107ed89898c8a8a8a878b8b8b611bd1565b600780546001600160a01b0319166001600160a01b0392909216919091179055506108df975050505050505050565b600080808080808080806108338b6004818f614b5e565b8101906108409190614d22565b9950995099509950995099509950509850985060006103e5896103e86108669190614cc5565b6108709190614cfa565b905060006103e56108838b6103e8614cc5565b61088d9190614d0e565b11156108a1578061089d81614b43565b9150505b6108b48a8a8d8b8b8b878c8c8c8c611de4565b600780546001600160a01b0319166001600160a01b0392909216919091179055505050505050505050505b505050505050565b600054610100900460ff166109025760005460ff1615610906565b303b155b6109695760405162461bcd60e51b815260206004820152602e60248201527f496e697469616c697a61626c653a20636f6e747261637420697320616c72656160448201526d191e481a5b9a5d1a585b1a5e995960921b6064820152608401610130565b600054610100900460ff1615801561098b576000805461ffff19166101011790555b6001600160a01b0385166109e15760405162461bcd60e51b815260206004820152601d60248201527f556e69737761705632466163746f7279206e6f7420646566696e65642e0000006044820152606401610130565b6000805462010000600160b01b031916620100006001600160a01b0389811682029290921792839055600280546001600160a01b03199081168a85169081179092556003805482168a86161790556004805482168986161790556001805493909504909316918316919091179092556006805490911690911790558151610a6f90600590602085019061417e565b5080156108df576000805461ff0019169055505050505050565b6000808b11610aaa5760405162461bcd60e51b815260040161013090614dfe565b60008060008c6001600160a01b0316636f307dc36040518163ffffffff1660e01b8152600401602060405180830381865afa158015610aed573d6000803e3d6000fd5b505050506040513d601f19601f82011682018060405250810190610b1191906149be565b9050886001600160a01b031663c45a01556040518163ffffffff1660e01b8152600401602060405180830381865afa158015610b51573d6000803e3d6000fd5b505050506040513d601f19601f82011682018060405250810190610b7591906149be565b60005460405163e6a4390560e01b81526001600160a01b038481166004830152620100009092048216602482015291169063e6a4390590604401602060405180830381865afa158015610bcc573d6000803e3d6000fd5b505050506040513d601f19601f82011682018060405250810190610bf091906149be565b9250806001600160a01b0316836001600160a01b0316630dfe16816040518163ffffffff1660e01b8152600401602060405180830381865afa158015610c3a573d6000803e3d6000fd5b505050506040513d601f19601f82011682018060405250810190610c5e91906149be565b6001600160a01b031614915050816001600160a01b031663022c0d9f82610c86576000610c88565b8e5b8315610c95576000610c97565b8f5b306000366040518663ffffffff1660e01b8152600401610cbb959493929190614e42565b600060405180830381600087803b158015610cd557600080fd5b505af1158015610ce9573d6000803e3d6000fd5b50505050610cf8898b86612078565b9e9d5050505050505050505050505050565b610d1785858585856106d3565b5050505050565b6000808911610d3f5760405162461bcd60e51b8152600401610130906148ea565b6000886001600160a01b0316636f307dc36040518163ffffffff1660e01b8152600401602060405180830381865afa158015610d7f573d6000803e3d6000fd5b505050506040513d601f19601f82011682018060405250810190610da391906149be565b9050610dba6001600160a01b03821633308d61219c565b610dc5818a8c612207565b604051637af1e23160e11b81526001600160a01b038c81166004830152602482018c905289811660448301528a169063f5e3c462906064016020604051808303816000875af1158015610e1c573d6000803e3d6000fd5b505050506040513d601f19601f82011682018060405250810190610e409190614947565b15610e835760405162461bcd60e51b81526020600482015260136024820152722634b8bab4b230ba34b7b7103330b4b632b21760691b6044820152606401610130565b876001600160a01b0316866001600160a01b031614611188576040516370a0823160e01b81523060048201526000906001600160a01b038a16906370a0823190602401602060405180830381865afa158015610ee3573d6000803e3d6000fd5b505050506040513d601f19601f82011682018060405250810190610f079190614947565b905080156111865760405163db006a7560e01b8152600481018290526000906001600160a01b038b169063db006a75906024016020604051808303816000875af1158015610f59573d6000803e3d6000fd5b505050506040513d601f19601f82011682018060405250810190610f7d9190614947565b90508015610f9d5760405162461bcd60e51b815260040161013090614960565b896001600160a01b031663ac784ddc6040518163ffffffff1660e01b8152600401602060405180830381865afa158015610fdb573d6000803e3d6000fd5b505050506040513d601f19601f82011682018060405250810190610fff9190614ba5565b15611016576110116000898b8a611548565b611184565b60008a6001600160a01b0316636f307dc36040518163ffffffff1660e01b8152600401602060405180830381865afa158015611056573d6000803e3d6000fd5b505050506040513d601f19601f8201168201806040525081019061107a91906149be565b8751909150156111765785518751146110a55760405162461bcd60e51b8152600401610130906149db565b6040516370a0823160e01b81523060048201526000906001600160a01b038316906370a0823190602401602060405180830381865afa1580156110ec573d6000803e3d6000fd5b505050506040513d601f19601f820116820180604052508101906111109190614947565b905060005b88518110156111735761115c83838b848151811061113557611135614a5e565b60200260200101518b858151811061114f5761114f614a5e565b60200260200101516111a1565b90935091508061116b81614b43565b915050611115565b50505b611182818a8c8b611548565b505b505b505b61119286886119ac565b9b9a5050505050505050505050565b60008060006111fe856310badf4e60e01b8989886040516024016111c793929190614e91565b60408051601f198184030181529190526020810180516001600160e01b03166001600160e01b0319909316929092179091526122b6565b9050808060200190518101906112149190614aff565b925092505094509492505050565b6000808a116112435760405162461bcd60e51b815260040161013090614dfe565b600061141a600660009054906101000a90046001600160a01b03166001600160a01b031663c45a01556040518163ffffffff1660e01b8152600401602060405180830381865afa15801561129b573d6000803e3d6000fd5b505050506040513d601f19601f820116820180604052508101906112bf91906149be565b6002546001600160a01b038981169116148015611352575060035460408051636f307dc360e01b815290516001600160a01b03928316928e1691636f307dc39160048083019260209291908290030181865afa158015611323573d6000803e3d6000fd5b505050506040513d601f19601f8201168201806040525081019061134791906149be565b6001600160a01b0316145b611367576003546001600160a01b0316611374565b6004546001600160a01b03165b600060029054906101000a90046001600160a01b03166005805461139790614eb8565b80601f01602080910402602001604051908101604052809291908181526020018280546113c390614eb8565b80156114105780601f106113e557610100808354040283529160200191611410565b820191906000526020600020905b8154815290600101906020018083116113f357829003601f168201915b50505050506123aa565b90506000816001600160a01b0316630dfe16816040518163ffffffff1660e01b8152600401602060405180830381865afa15801561145c573d6000803e3d6000fd5b505050506040513d601f19601f8201168201806040525081019061148091906149be565b6000549091506001600160a01b038084169163022c0d9f918085166201000090920416146114af5760006114b1565b8d5b6000546001600160a01b03858116620100009092041614156114d45760006114d6565b8e5b306000366040518663ffffffff1660e01b81526004016114fa959493929190614e42565b600060405180830381600087803b15801561151457600080fd5b505af1158015611528573d6000803e3d6000fd5b50505050611537888a86612078565b9d9c50505050505050505050505050565b836001600160a01b0316836001600160a01b03161415611567576119a6565b6001600160a01b03841661169d576000546001600160a01b03848116620100009092041614156115ff57600160009054906101000a90046001600160a01b03166001600160a01b031663d0e30db0476040518263ffffffff1660e01b81526004016000604051808303818588803b1580156115e157600080fd5b505af11580156115f5573d6000803e3d6000fd5b50505050506119a6565b806001600160a01b0316637ff36ab5478461162f600060029054906101000a90046001600160a01b031688612435565b30426040518663ffffffff1660e01b81526004016116509493929190614f37565b60006040518083038185885af115801561166e573d6000803e3d6000fd5b50505050506040513d6000823e601f3d908101601f191682016040526116979190810190614f6c565b506119a6565b6000546001600160a01b0385811662010000909204161480156116c757506001600160a01b038316155b1561179e576001546000546040516370a0823160e01b81523060048201526001600160a01b0392831692632e1a7d4d9262010000900416906370a0823190602401602060405180830381865afa158015611725573d6000803e3d6000fd5b505050506040513d601f19601f820116820180604052508101906117499190614947565b6040518263ffffffff1660e01b815260040161176791815260200190565b600060405180830381600087803b15801561178157600080fd5b505af1158015611795573d6000803e3d6000fd5b505050506119a6565b6040516370a0823160e01b815230600482015284906000906001600160a01b038316906370a0823190602401602060405180830381865afa1580156117e7573d6000803e3d6000fd5b505050506040513d601f19601f8201168201806040525081019061180b9190614947565b9050611818828483612207565b6001600160a01b0385166118c557826001600160a01b03166318cbafe582866118568a600060029054906101000a90046001600160a01b0316612435565b30426040518663ffffffff1660e01b8152600401611878959493929190614ff1565b6000604051808303816000875af1158015611897573d6000803e3d6000fd5b505050506040513d6000823e601f3d908101601f191682016040526118bf9190810190614f6c565b506108df565b6000546001600160a01b03808516916338ed173991849188918b81166201000090920416148061190857506000546001600160a01b038a81166201000090920416145b61192f5760005461192a908b906201000090046001600160a01b03168b6124c2565b611939565b6119398a8a612435565b30426040518663ffffffff1660e01b815260040161195b959493929190614ff1565b6000604051808303816000875af115801561197a573d6000803e3d6000fd5b505050506040513d6000823e601f3d908101601f191682016040526119a29190810190614f6c565b5050505b50505050565b6000806001600160a01b038416611ae057504782811015611a235760405162461bcd60e51b815260206004820152602b60248201527f4d696e696d756d204e4154495645206f757470757420616d6f756e74206e6f7460448201526a1039b0ba34b9b334b2b21760a91b6064820152608401610130565b8015611adb57604051600090339083908381818185875af1925050503d8060008114611a6b576040519150601f19603f3d011682016040523d82523d6000602084013e611a70565b606091505b5050905080611ad95760405162461bcd60e51b815260206004820152602f60248201527f4661696c656420746f207472616e73666572206f7574707574204e415449564560448201526e103a379036b9b39739b2b73232b91760891b6064820152608401610130565b505b611bca565b6040516370a0823160e01b815230600482015284906001600160a01b038216906370a0823190602401602060405180830381865afa158015611b26573d6000803e3d6000fd5b505050506040513d601f19601f82011682018060405250810190611b4a9190614947565b915083821015611bae5760405162461bcd60e51b815260206004820152602960248201527f4d696e696d756d20746f6b656e206f757470757420616d6f756e74206e6f742060448201526839b0ba34b334b2b21760b91b6064820152608401610130565b8115611bc857611bc86001600160a01b0382163384612585565b505b9392505050565b600154604051632e1a7d4d60e01b8152600481018b90526000916001600160a01b031690632e1a7d4d90602401600060405180830381600087803b158015611c1857600080fd5b505af1158015611c2c573d6000803e3d6000fd5b5050604051635572051560e11b81526001600160a01b038e811660048301528b811660248301528c16925063aae40a2a91508c906044016000604051808303818588803b158015611c7c57600080fd5b505af1158015611c90573d6000803e3d6000fd5b50506040516370a0823160e01b8152306004820152600093506001600160a01b038c1692506370a082319150602401602060405180830381865afa158015611cdc573d6000803e3d6000fd5b505050506040513d601f19601f82011682018060405250810190611d009190614947565b905060008111611d475760405162461bcd60e51b815260206004820152601260248201527127379031aa37b5b2b7399039b2b4bd32b21760711b6044820152606401610130565b60405163db006a7560e01b8152600481018290526000906001600160a01b038b169063db006a75906024016020604051808303816000875af1158015611d91573d6000803e3d6000fd5b505050506040513d601f19601f82011682018060405250810190611db59190614947565b90508015611dd55760405162461bcd60e51b815260040161013090614960565b6115378c8b8a8a8a8a8a6125ba565b6000808a6001600160a01b0316636f307dc36040518163ffffffff1660e01b8152600401602060405180830381865afa158015611e25573d6000803e3d6000fd5b505050506040513d601f19601f82011682018060405250810190611e4991906149be565b9050611e56818c8e612207565b604051637af1e23160e11b81526001600160a01b038e81166004830152602482018e90528b811660448301528c169063f5e3c462906064016020604051808303816000875af1158015611ead573d6000803e3d6000fd5b505050506040513d601f19601f82011682018060405250810190611ed19190614947565b15611f145760405162461bcd60e51b81526020600482015260136024820152722634b8bab4b230ba34b7b7103330b4b632b21760691b6044820152606401610130565b6040516370a0823160e01b81523060048201526000906001600160a01b038c16906370a0823190602401602060405180830381865afa158015611f5b573d6000803e3d6000fd5b505050506040513d601f19601f82011682018060405250810190611f7f9190614947565b905060008111611fc65760405162461bcd60e51b815260206004820152601260248201527127379031aa37b5b2b7399039b2b4bd32b21760711b6044820152606401610130565b60405163db006a7560e01b8152600481018290526000906001600160a01b038d169063db006a75906024016020604051808303816000875af1158015612010573d6000803e3d6000fd5b505050506040513d601f19601f820116820180604052508101906120349190614947565b905080156120545760405162461bcd60e51b815260040161013090614960565b6120658e8d8c8c8c8c8c8c8b612dd2565b9f9e505050505050505050505050505050565b60006001600160a01b038416612114576007546120b4906001600160a01b0316856120a3858761502d565b6006546001600160a01b0316611548565b81156121035760405141908390600081818185875af1925050503d80600081146120fa576040519150601f19603f3d011682016040523d82523d6000602084013e6120ff565b606091505b5050505b61210d84846119ac565b9050611bca565b811561218157600754600654612138916001600160a01b03908116918591166137a0565b60405141908390600081818185875af1925050503d8060008114612178576040519150601f19603f3d011682016040523d82523d6000602084013e61217d565b606091505b5050505b600754612103906001600160a01b0316856120a3858761502d565b6040516001600160a01b03808516602483015283166044820152606481018290526119a69085906323b872dd60e01b906084015b60408051601f198184030181529190526020810180516001600160e01b03166001600160e01b03199093169290921790915261393c565b604051636eb1769f60e11b81523060048201526001600160a01b0383811660248301526000919085169063dd62ed3e90604401602060405180830381865afa158015612257573d6000803e3d6000fd5b505050506040513d601f19601f8201168201806040525081019061227b9190614947565b9050818110156119a65780156122a0576122a06001600160a01b038516846000613a0e565b6119a66001600160a01b03851684600019613a0e565b60606001600160a01b0383163b61231e5760405162461bcd60e51b815260206004820152602660248201527f416464726573733a2064656c65676174652063616c6c20746f206e6f6e2d636f6044820152651b9d1c9858dd60d21b6064820152608401610130565b600080846001600160a01b0316846040516123399190615045565b600060405180830381855af49150503d8060008114612374576040519150601f19603f3d011682016040523d82523d6000602084013e612379565b606091505b50915091506123a182826040518060600160405280602781526020016151ca60279139613b23565b95945050505050565b60008060006123b98686613b5c565b6040516bffffffffffffffffffffffff19606084811b8216602084015283901b16603482015291935091508790604801604051602081830303815290604052805190602001208560405160200161241293929190615061565b60408051601f198184030181529190528051602090910120979650505050505050565b60408051600280825260608083018452926000929190602083019080368337019050509050838160008151811061246e5761246e614a5e565b60200260200101906001600160a01b031690816001600160a01b03168152505082816001815181106124a2576124a2614a5e565b6001600160a01b0390921660209283029190910190910152905092915050565b604080516003808252608082019092526060916000919060208201848036833701905050905084816000815181106124fc576124fc614a5e565b60200260200101906001600160a01b031690816001600160a01b031681525050838160018151811061253057612530614a5e565b60200260200101906001600160a01b031690816001600160a01b031681525050828160028151811061256457612564614a5e565b6001600160a01b039092166020928302919091019091015290509392505050565b6040516001600160a01b0383166024820152604481018290526125b590849063a9059cbb60e01b906064016121d0565b505050565b600080876001600160a01b0316636f307dc36040518163ffffffff1660e01b8152600401602060405180830381865afa1580156125fb573d6000803e3d6000fd5b505050506040513d601f19601f8201168201806040525081019061261f91906149be565b6040516370a0823160e01b81523060048201529091506000906001600160a01b038316906370a0823190602401602060405180830381865afa158015612669573d6000803e3d6000fd5b505050506040513d601f19601f8201168201806040525081019061268d9190614947565b85519091501561270e5783518551146126b85760405162461bcd60e51b8152600401610130906149db565b60005b855181101561270c576126f583838884815181106126db576126db614a5e565b602002602001015188858151811061114f5761114f614a5e565b90935091508061270481614b43565b9150506126bb565b505b6002546001600160a01b0387811691161480156127d7575060035460408051636f307dc360e01b815290516001600160a01b03928316928c1691636f307dc39160048083019260209291908290030181865afa158015612772573d6000803e3d6000fd5b505050506040513d601f19601f8201168201806040525081019061279691906149be565b6001600160a01b0316146127b5576003546001600160a01b03166127c2565b6004546001600160a01b03165b6001600160a01b0316826001600160a01b0316145b156129e3576000612868876001600160a01b031663c45a01556040518163ffffffff1660e01b8152600401602060405180830381865afa15801561281f573d6000803e3d6000fd5b505050506040513d601f19601f8201168201806040525081019061284391906149be565b8c61286386600060029054906101000a90046001600160a01b0316612435565b613c52565b60008151811061287a5761287a614a5e565b60200260200101519050818111156128fa5760405162461bcd60e51b815260206004820152603760248201527f466c6173686c6f616e2072657475726e20616d6f756e7420677265617465722060448201527f7468616e207365697a656420636f6c6c61746572616c2e0000000000000000006064820152608401610130565b60405163a9059cbb60e01b8152336004820152602481018290526001600160a01b0384169063a9059cbb906044016020604051808303816000875af1158015612947573d6000803e3d6000fd5b505050506040513d601f19601f8201168201806040525081019061296b9190614ba5565b6129dd5760405162461bcd60e51b815260206004820152603b60248201527f4661696c656420746f207472616e73666572206e6f6e2d575f4e41544956452060448201527f746f6b656e73206261636b20746f20666c6173686c656e6465722e00000000006064820152608401610130565b50612dc5565b6000546001600160a01b03838116620100009092041614612bed576001600160a01b038216612a7a57600160009054906101000a90046001600160a01b03166001600160a01b031663d0e30db0886040518263ffffffff1660e01b81526004016000604051808303818588803b158015612a5c57600080fd5b505af1158015612a70573d6000803e3d6000fd5b5050505050612bed565b612a85828783612207565b816001600160a01b0316886001600160a01b03161415612b3e57856001600160a01b0316638803dbee8883612acf86600060029054906101000a90046001600160a01b0316612435565b30426040518663ffffffff1660e01b8152600401612af1959493929190614ff1565b6000604051808303816000875af1158015612b10573d6000803e3d6000fd5b505050506040513d6000823e601f3d908101601f19168201604052612b389190810190614f6c565b50612bed565b856001600160a01b03166338ed17398289612b6e86600060029054906101000a90046001600160a01b0316612435565b30426040518663ffffffff1660e01b8152600401612b90959493929190614ff1565b6000604051808303816000875af1158015612baf573d6000803e3d6000fd5b505050506040513d6000823e601f3d908101601f19168201604052612bd79190810190614f6c565b506000546201000090046001600160a01b031691505b6000546040516370a0823160e01b8152306004820152620100009091046001600160a01b0316906370a0823190602401602060405180830381865afa158015612c3a573d6000803e3d6000fd5b505050506040513d601f19601f82011682018060405250810190612c5e9190614947565b871115612ceb5760405162461bcd60e51b815260206004820152604f60248201527f466c6173686c6f616e2072657475726e20616d6f756e7420677265617465722060448201527f7468616e20575f4e41544956452065786368616e6765642066726f6d2073656960648201526e3d32b21031b7b63630ba32b930b61760891b608482015260a401610130565b60015460405163a9059cbb60e01b8152336004820152602481018990526001600160a01b039091169063a9059cbb906044016020604051808303816000875af1158015612d3c573d6000803e3d6000fd5b505050506040513d601f19601f82011682018060405250810190612d609190614ba5565b612dc55760405162461bcd60e51b815260206004820152603060248201527f4661696c656420746f207472616e7366657220575f4e4154495645206261636b60448201526f103a3790333630b9b43632b73232b91760811b6064820152608401610130565b5098975050505050505050565b6000886001600160a01b031663ac784ddc6040518163ffffffff1660e01b8152600401602060405180830381865afa158015612e12573d6000803e3d6000fd5b505050506040513d601f19601f82011682018060405250810190612e369190614ba5565b1561305d5760004790506000612ec5886001600160a01b031663c45a01556040518163ffffffff1660e01b8152600401602060405180830381865afa158015612e83573d6000803e3d6000fd5b505050506040513d601f19601f82011682018060405250810190612ea791906149be565b6000548e90612863906201000090046001600160a01b031688612435565b600081518110612ed757612ed7614a5e565b6020026020010151905081811115612f575760405162461bcd60e51b815260206004820152603760248201527f5365697a6564204e415449564520636f6c6c61746572616c206e6f7420656e6f60448201527f75676820746f20726570617920666c6173686c6f616e2e0000000000000000006064820152608401610130565b600160009054906101000a90046001600160a01b03166001600160a01b031663d0e30db0826040518263ffffffff1660e01b81526004016000604051808303818588803b158015612fa757600080fd5b505af1158015612fbb573d6000803e3d6000fd5b505060015460405163a9059cbb60e01b8152336004820152602481018690526001600160a01b03909116935063a9059cbb925060440190506020604051808303816000875af1158015613012573d6000803e3d6000fd5b505050506040513d601f19601f820116820180604052508101906130369190614ba5565b6130525760405162461bcd60e51b8152600401610130906150aa565b6000925050506106c6565b6000896001600160a01b0316636f307dc36040518163ffffffff1660e01b8152600401602060405180830381865afa15801561309d573d6000803e3d6000fd5b505050506040513d601f19601f820116820180604052508101906130c191906149be565b6040516370a0823160e01b81523060048201529091506000906001600160a01b038316906370a0823190602401602060405180830381865afa15801561310b573d6000803e3d6000fd5b505050506040513d601f19601f8201168201806040525081019061312f9190614947565b8651909150156131b057845186511461315a5760405162461bcd60e51b8152600401610130906149db565b60005b86518110156131ae57613197838389848151811061317d5761317d614a5e565b602002602001015189858151811061114f5761114f614a5e565b9093509150806131a681614b43565b91505061315d565b505b836001600160a01b0316826001600160a01b031614156133ae576040516370a0823160e01b81523060048201526001600160a01b038516906370a0823190602401602060405180830381865afa15801561320e573d6000803e3d6000fd5b505050506040513d601f19601f820116820180604052508101906132329190614947565b8911156132c35760405162461bcd60e51b815260206004820152605360248201527f546f6b656e20666c6173686c6f616e2072657475726e20616d6f756e7420677260448201527f6561746572207468616e20746f6b656e732065786368616e6765642066726f6d6064820152721039b2b4bd32b21031b7b63630ba32b930b61760691b608482015260a401610130565b60405163a9059cbb60e01b8152336004820152602481018a90526001600160a01b0385169063a9059cbb906044016020604051808303816000875af1158015613310573d6000803e3d6000fd5b505050506040513d601f19601f820116820180604052508101906133349190614ba5565b6133a65760405162461bcd60e51b815260206004820152603e60248201527f4661696c656420746f20726570617920746f6b656e20666c6173686c6f616e2060448201527f6f6e20626f72726f7720286e6f6e2d575f4e41544956452920736964652e00006064820152608401610130565b5090506106c6565b6000613433896001600160a01b031663c45a01556040518163ffffffff1660e01b8152600401602060405180830381865afa1580156133f1573d6000803e3d6000fd5b505050506040513d601f19601f8201168201806040525081019061341591906149be565b6000548f90612863906201000090046001600160a01b031689612435565b60008151811061344557613445614a5e565b60200260200101519050600060029054906101000a90046001600160a01b03166001600160a01b0316836001600160a01b0316146135dc57613488838984612207565b826001600160a01b03168b6001600160a01b0316141561354157876001600160a01b0316638803dbee82846134d287600060029054906101000a90046001600160a01b0316612435565b30426040518663ffffffff1660e01b81526004016134f4959493929190614ff1565b6000604051808303816000875af1158015613513573d6000803e3d6000fd5b505050506040513d6000823e601f3d908101601f1916820160405261353b9190810190614f6c565b506135dc565b876001600160a01b03166338ed1739838361357187600060029054906101000a90046001600160a01b0316612435565b30426040518663ffffffff1660e01b8152600401613593959493929190614ff1565b6000604051808303816000875af11580156135b2573d6000803e3d6000fd5b505050506040513d6000823e601f3d908101601f191682016040526135da9190810190614f6c565b505b6000546040516370a0823160e01b8152306004820152620100009091046001600160a01b0316906370a0823190602401602060405180830381865afa158015613629573d6000803e3d6000fd5b505050506040513d601f19601f8201168201806040525081019061364d9190614947565b8111156136d35760405162461bcd60e51b815260206004820152604860248201527f4e6f7420656e6f75676820575f4e41544956452065786368616e67656420667260448201527f6f6d207365697a656420636f6c6c61746572616c20746f20726570617920666c60648201526730b9b43637b0b71760c11b608482015260a401610130565b60015460405163a9059cbb60e01b8152336004820152602481018390526001600160a01b039091169063a9059cbb906044016020604051808303816000875af1158015613724573d6000803e3d6000fd5b505050506040513d601f19601f820116820180604052508101906137489190614ba5565b6137645760405162461bcd60e51b8152600401610130906150aa565b826001600160a01b03168b6001600160a01b031614613794576000546201000090046001600160a01b0316613796565b825b93505050506106c6565b6001600160a01b0383166137b357505050565b6000546001600160a01b038481166201000090920416141561382957600154604051632e1a7d4d60e01b8152600481018490526001600160a01b0390911690632e1a7d4d90602401600060405180830381600087803b15801561381557600080fd5b505af11580156119a2573d6000803e3d6000fd5b6040516370a0823160e01b815230600482015283906000906001600160a01b038316906370a0823190602401602060405180830381865afa158015613872573d6000803e3d6000fd5b505050506040513d601f19601f820116820180604052508101906138969190614947565b90506138a3828483612207565b826001600160a01b0316634a25d94a85836138d389600060029054906101000a90046001600160a01b0316612435565b30426040518663ffffffff1660e01b81526004016138f5959493929190614ff1565b6000604051808303816000875af1158015613914573d6000803e3d6000fd5b505050506040513d6000823e601f3d908101601f191682016040526108df9190810190614f6c565b6000613991826040518060400160405280602081526020017f5361666545524332303a206c6f772d6c6576656c2063616c6c206661696c6564815250856001600160a01b0316613ddf9092919063ffffffff16565b8051909150156125b557808060200190518101906139af9190614ba5565b6125b55760405162461bcd60e51b815260206004820152602a60248201527f5361666545524332303a204552433230206f7065726174696f6e20646964206e6044820152691bdd081cdd58d8d9595960b21b6064820152608401610130565b801580613a885750604051636eb1769f60e11b81523060048201526001600160a01b03838116602483015284169063dd62ed3e90604401602060405180830381865afa158015613a62573d6000803e3d6000fd5b505050506040513d601f19601f82011682018060405250810190613a869190614947565b155b613af35760405162461bcd60e51b815260206004820152603660248201527f5361666545524332303a20617070726f76652066726f6d206e6f6e2d7a65726f60448201527520746f206e6f6e2d7a65726f20616c6c6f77616e636560501b6064820152608401610130565b6040516001600160a01b0383166024820152604481018290526125b590849063095ea7b360e01b906064016121d0565b60608315613b32575081611bca565b825115613b425782518084602001fd5b8160405162461bcd60e51b81526004016101309190615121565b600080826001600160a01b0316846001600160a01b03161415613bcd5760405162461bcd60e51b815260206004820152602360248201527f50616e63616b654c6962726172793a204944454e544943414c5f41444452455360448201526253455360e81b6064820152608401610130565b826001600160a01b0316846001600160a01b031610613bed578284613bf0565b83835b90925090506001600160a01b038216613c4b5760405162461bcd60e51b815260206004820152601c60248201527f50616e63616b654c6962726172793a205a45524f5f41444452455353000000006044820152606401610130565b9250929050565b6060600282511015613ca65760405162461bcd60e51b815260206004820152601c60248201527f50616e63616b654c6962726172793a20494e56414c49445f50415448000000006044820152606401610130565b81516001600160401b03811115613cbf57613cbf61423f565b604051908082528060200260200182016040528015613ce8578160200160208202803683370190505b509050828160018351613cfb9190615134565b81518110613d0b57613d0b614a5e565b602002602001018181525050600060018351613d279190615134565b90505b8015611bc857600080613d7a8786613d43600187615134565b81518110613d5357613d53614a5e565b6020026020010151878681518110613d6d57613d6d614a5e565b6020026020010151613df6565b91509150613da2848481518110613d9357613d93614a5e565b60200260200101518383613f2b565b84613dae600186615134565b81518110613dbe57613dbe614a5e565b60200260200101818152505050508080613dd79061514b565b915050613d2a565b6060613dee848460008561404d565b949350505050565b6000806000613e058585613b5c565b5060405163e6a4390560e01b81526001600160a01b038781166004830152868116602483015291925060009182919089169063e6a4390590604401602060405180830381865afa158015613e5d573d6000803e3d6000fd5b505050506040513d601f19601f82011682018060405250810190613e8191906149be565b6001600160a01b0316630902f1ac6040518163ffffffff1660e01b8152600401606060405180830381865afa158015613ebe573d6000803e3d6000fd5b505050506040513d601f19601f82011682018060405250810190613ee29190615179565b506001600160701b031691506001600160701b03169150826001600160a01b0316876001600160a01b031614613f19578082613f1c565b81815b90999098509650505050505050565b6000808411613f8f5760405162461bcd60e51b815260206004820152602a60248201527f50616e63616b654c6962726172793a20494e53554646494349454e545f4f555460448201526914155517d05353d5539560b21b6064820152608401610130565b600083118015613f9f5750600082115b613ffa5760405162461bcd60e51b815260206004820152602660248201527f50616e63616b654c6962726172793a20494e53554646494349454e545f4c495160448201526555494449545960d01b6064820152608401610130565b60006140068585614cc5565b614012906103e8614cc5565b905060006140208685615134565b61402c906103e5614cc5565b90506140388183614cfa565b61404390600161502d565b9695505050505050565b6060824710156140ae5760405162461bcd60e51b815260206004820152602660248201527f416464726573733a20696e73756666696369656e742062616c616e636520666f6044820152651c8818d85b1b60d21b6064820152608401610130565b6001600160a01b0385163b6141055760405162461bcd60e51b815260206004820152601d60248201527f416464726573733a2063616c6c20746f206e6f6e2d636f6e74726163740000006044820152606401610130565b600080866001600160a01b031685876040516141219190615045565b60006040518083038185875af1925050503d806000811461415e576040519150601f19603f3d011682016040523d82523d6000602084013e614163565b606091505b5091509150614173828286613b23565b979650505050505050565b82805461418a90614eb8565b90600052602060002090601f0160209004810192826141ac57600085556141f2565b82601f106141c557805160ff19168380011785556141f2565b828001600101855582156141f2579182015b828111156141f25782518255916020019190600101906141d7565b506141fe929150614202565b5090565b5b808211156141fe5760008155600101614203565b6001600160a01b038116811461422c57600080fd5b50565b803561423a81614217565b919050565b634e487b7160e01b600052604160045260246000fd5b604051601f8201601f191681016001600160401b038111828210171561427d5761427d61423f565b604052919050565b60006001600160401b0382111561429e5761429e61423f565b5060051b60200190565b600082601f8301126142b957600080fd5b813560206142ce6142c983614285565b614255565b82815260059290921b840181019181810190868411156142ed57600080fd5b8286015b8481101561431157803561430481614217565b83529183019183016142f1565b509695505050505050565b600082601f83011261432d57600080fd5b81356001600160401b038111156143465761434661423f565b614359601f8201601f1916602001614255565b81815284602083860101111561436e57600080fd5b816020850160208301376000918101602001919091529392505050565b600082601f83011261439c57600080fd5b813560206143ac6142c983614285565b82815260059290921b840181019181810190868411156143cb57600080fd5b8286015b848110156143115780356001600160401b038111156143ee5760008081fd5b6143fc8986838b010161431c565b8452509183019183016143cf565b600080600080600080600080610100898b03121561442757600080fd5b883561443281614217565b9750602089013561444281614217565b9650604089013561445281614217565b955060608901359450608089013561446981614217565b935060a089013561447981614217565b925060c08901356001600160401b038082111561449557600080fd5b6144a18c838d016142a8565b935060e08b01359150808211156144b757600080fd5b506144c48b828c0161438b565b9150509295985092959890939650565b6000806000806000608086880312156144ec57600080fd5b85356144f781614217565b9450602086013593506040860135925060608601356001600160401b038082111561452157600080fd5b818801915088601f83011261453557600080fd5b81358181111561454457600080fd5b89602082850101111561455657600080fd5b9699959850939650602001949392505050565b600080600080600060a0868803121561458157600080fd5b853561458c81614217565b9450602086013561459c81614217565b935060408601356145ac81614217565b925060608601356145bc81614217565b915060808601356001600160401b038111156145d757600080fd5b6145e38882890161431c565b9150509295509295909350565b60008060008060008060008060008060006101608c8e03121561461257600080fd5b61461b8c61422f565b9a5060208c0135995061463060408d0161422f565b985061463e60608d0161422f565b975060808c0135965061465360a08d0161422f565b955061466160c08d0161422f565b945061466f60e08d0161422f565b93506001600160401b03806101008e0135111561468b57600080fd5b61469c8e6101008f01358f016142a8565b9350806101208e013511156146b057600080fd5b506146c28d6101208e01358e0161438b565b91506101408c013590509295989b509295989b9093969950565b60008060008060008060008060006101208a8c0312156146fb57600080fd5b893561470681614217565b985060208a0135975060408a013561471d81614217565b965061472b60608b0161422f565b955060808a0135945061474060a08b0161422f565b935061474e60c08b0161422f565b925060e08a01356001600160401b038082111561476a57600080fd5b6147768d838e016142a8565b93506101008c013591508082111561478d57600080fd5b5061479a8c828d0161438b565b9150509295985092959850929598565b600080600080608085870312156147c057600080fd5b84356147cb81614217565b93506020850135925060408501356147e281614217565b915060608501356001600160401b038111156147fd57600080fd5b6148098782880161431c565b91505092959194509250565b6000806000806000806000806000806101408b8d03121561483557600080fd5b61483e8b61422f565b995060208b0135985061485360408c0161422f565b975061486160608c0161422f565b965060808b0135955061487660a08c0161422f565b945061488460c08c0161422f565b935060e08b01356001600160401b03808211156148a057600080fd5b6148ac8e838f016142a8565b94506101008d01359150808211156148c357600080fd5b506148d08d828e0161438b565b9250506101208b013590509295989b9194979a5092959850565b60208082526038908201527f526570617920616d6f756e7420287472616e73616374696f6e2076616c75652960408201527f206d7573742062652067726561746572207468616e20302e0000000000000000606082015260800190565b60006020828403121561495957600080fd5b5051919050565b602080825260409082018190527f4572726f722063616c6c696e672072656465656d696e67207365697a65642063908201527f546f6b656e3a206572726f7220636f6465206e6f7420657175616c20746f2030606082015260800190565b6000602082840312156149d057600080fd5b8151611bca81614217565b6020808252605b908201527f49526564656d7074696f6e537472617465677920636f6e74726163742061727260408201527f617920616e64207374726174656779206461746120627974657320617272617960608201527f206d6e75737420746865207468652073616d65206c656e6774682e0000000000608082015260a00190565b634e487b7160e01b600052603260045260246000fd5b60005b83811015614a8f578181015183820152602001614a77565b838111156119a65750506000910152565b60008151808452614ab8816020860160208601614a74565b601f01601f19169290920160200192915050565b6001600160a01b038581168252602082018590528316604082015260806060820181905260009061404390830184614aa0565b60008060408385031215614b1257600080fd5b8251614b1d81614217565b6020939093015192949293505050565b634e487b7160e01b600052601160045260246000fd5b6000600019821415614b5757614b57614b2d565b5060010190565b60008085851115614b6e57600080fd5b83861115614b7b57600080fd5b5050820193919092039150565b600060208284031215614b9a57600080fd5b8135611bca81614217565b600060208284031215614bb757600080fd5b81518015158114611bca57600080fd5b600082601f830112614bd857600080fd5b81356020614be86142c983614285565b82815260059290921b84018101918181019086841115614c0757600080fd5b8286015b84811015614311578035614c1e81614217565b8352918301918301614c0b565b60008060008060008060008060006101208a8c031215614c4a57600080fd5b8935614c5581614217565b985060208a0135975060408a0135614c6c81614217565b9650614c7a60608b0161422f565b955060808a01359450614c8f60a08b0161422f565b9350614c9d60c08b0161422f565b925060e08a01356001600160401b0380821115614cb957600080fd5b6147768d838e01614bc7565b6000816000190483118215151615614cdf57614cdf614b2d565b500290565b634e487b7160e01b600052601260045260246000fd5b600082614d0957614d09614ce4565b500490565b600082614d1d57614d1d614ce4565b500690565b6000806000806000806000806000806101408b8d031215614d4257600080fd5b614d4b8b61422f565b995060208b01359850614d6060408c0161422f565b9750614d6e60608c0161422f565b965060808b01359550614d8360a08c0161422f565b9450614d9160c08c0161422f565b9350614d9f60e08c0161422f565b92506101008b01356001600160401b0380821115614dbc57600080fd5b614dc88e838f01614bc7565b93506101208d0135915080821115614ddf57600080fd5b50614dec8d828e0161438b565b9150509295989b9194979a5092959850565b60208082526024908201527f526570617920616d6f756e74206d7573742062652067726561746572207468616040820152633710181760e11b606082015260800190565b858152602081018590526001600160a01b03841660408201526080606082018190528101829052818360a0830137600081830160a090810191909152601f909201601f19160101949350505050565b60018060a01b03841681528260208201526060604082015260006123a16060830184614aa0565b600181811c90821680614ecc57607f821691505b60208210811415614eed57634e487b7160e01b600052602260045260246000fd5b50919050565b600081518084526020808501945080840160005b83811015614f2c5781516001600160a01b031687529582019590820190600101614f07565b509495945050505050565b848152608060208201526000614f506080830186614ef3565b6001600160a01b03949094166040830152506060015292915050565b60006020808385031215614f7f57600080fd5b82516001600160401b03811115614f9557600080fd5b8301601f81018513614fa657600080fd5b8051614fb46142c982614285565b81815260059190911b82018301908381019087831115614fd357600080fd5b928401925b8284101561417357835182529284019290840190614fd8565b85815284602082015260a06040820152600061501060a0830186614ef3565b6001600160a01b0394909416606083015250608001529392505050565b6000821982111561504057615040614b2d565b500190565b60008251615057818460208701614a74565b9190910192915050565b60ff60f81b81526bffffffffffffffffffffffff198460601b1660018201528260158201526000825161509b816035850160208701614a74565b91909101603501949350505050565b60208082526051908201527f4661696c656420746f20726570617920556e697377617020666c6173686c6f6160408201527f6e207769746820575f4e41544956452065786368616e6765642066726f6d207360608201527032b4bd32b21031b7b63630ba32b930b61760791b608082015260a00190565b602081526000611bca6020830184614aa0565b60008282101561514657615146614b2d565b500390565b60008161515a5761515a614b2d565b506000190190565b80516001600160701b038116811461423a57600080fd5b60008060006060848603121561518e57600080fd5b61519784615162565b92506151a560208501615162565b9150604084015163ffffffff811681146151be57600080fd5b80915050925092509256fe416464726573733a206c6f772d6c6576656c2064656c65676174652063616c6c206661696c6564a2646970667358221220039dd7ee05ff92c63257de5a4ab0b3fca7509912ca85e2a5c3d97204e92977b064736f6c634300080b0033",
  "devdoc": {
    "author": "David Lucid <david@rari.capital> (https://github.com/davidlucid)",
    "details": "Do not transfer NATIVE or tokens directly to this address. Only send NATIVE here when using a method, and only approve tokens for transfer to here when using a method. Direct NATIVE transfers will be rejected and direct token transfers will be lost.",
    "kind": "dev",
    "methods": {
      "pancakeCall(address,uint256,uint256,bytes)": {
        "details": "Callback function for PCS flashloans."
      },
      "redeemCustomCollateral(address,uint256,address,bytes)": {
        "details": "Redeem \"special\" collateral tokens (before swapping the output for borrowed tokens to be repaid via Uniswap). Public visibility because we have to call this function externally if called from a payable FuseSafeLiquidator function (for some reason delegatecall fails when called with msg.value > 0)."
      },
      "safeLiquidate(address,address,address,uint256,address,address,address[],bytes[])": {
        "params": {
          "borrower": "The borrower's Ethereum address.",
          "cErc20Collateral": "The cErc20 collateral contract to be liquidated.",
          "cEther": "The borrowed cEther contract to repay.",
          "exchangeSeizedTo": "If set to an address other than `cTokenCollateral`, exchange seized collateral to this ERC20 token contract address (or the zero address for NATIVE).",
          "minOutputAmount": "The minimum amount of collateral to seize (or the minimum exchange output if applicable) required for execution. Reverts if this condition is not met.",
          "redemptionStrategies": "The IRedemptionStrategy contracts to use, if any, to redeem \"special\" collateral tokens (before swapping the output for borrowed tokens to be repaid via Uniswap).",
          "strategyData": "The data for the chosen IRedemptionStrategy contracts, if any.",
          "uniswapV2Router": "The UniswapV2Router to use to convert the seized underlying collateral."
        }
      },
      "safeLiquidate(address,uint256,address,address,uint256,address,address,address[],bytes[])": {
        "params": {
          "borrower": "The borrower's Ethereum address.",
          "cErc20": "The borrowed cErc20 to repay.",
          "cTokenCollateral": "The cToken collateral to be liquidated.",
          "exchangeSeizedTo": "If set to an address other than `cTokenCollateral`, exchange seized collateral to this ERC20 token contract address (or the zero address for NATIVE).",
          "minOutputAmount": "The minimum amount of collateral to seize (or the minimum exchange output if applicable) required for execution. Reverts if this condition is not met.",
          "redemptionStrategies": "The IRedemptionStrategy contracts to use, if any, to redeem \"special\" collateral tokens (before swapping the output for borrowed tokens to be repaid via Uniswap).",
          "repayAmount": "The amount to repay to liquidate the unhealthy loan.",
          "strategyData": "The data for the chosen IRedemptionStrategy contracts, if any.",
          "uniswapV2Router": "The UniswapV2Router to use to convert the seized underlying collateral."
        }
      },
      "safeLiquidateToTokensWithFlashLoan(address,uint256,address,address,uint256,address,address,address,address[],bytes[],uint256)": {
        "params": {
          "borrower": "The borrower's Ethereum address.",
          "cErc20": "The borrowed CErc20 contract to repay.",
          "cTokenCollateral": "The cToken collateral contract to be liquidated.",
          "exchangeProfitTo": "If set to an address other than `cTokenCollateral`, exchange seized collateral to this ERC20 token contract address (or the zero address for NATIVE).",
          "minProfitAmount": "The minimum amount of profit required for execution (in terms of `exchangeProfitTo`). Reverts if this condition is not met.",
          "redemptionStrategies": "The IRedemptionStrategy contracts to use, if any, to redeem \"special\" collateral tokens (before swapping the output for borrowed tokens to be repaid via Uniswap).",
          "repayAmount": "The amount to repay to liquidate the unhealthy loan.",
          "strategyData": "The data for the chosen IRedemptionStrategy contracts, if any.",
          "uniswapV2RouterForBorrow": "The UniswapV2Router to use to convert the NATIVE to the underlying borrow (and flashloan the underlying borrow for NATIVE).",
          "uniswapV2RouterForCollateral": "The UniswapV2Router to use to convert the underlying collateral to NATIVE."
        }
      },
      "uniswapV2Call(address,uint256,uint256,bytes)": {
        "details": "Callback function for Uniswap flashloans."
      }
    },
    "stateVariables": {
      "BTC_TOKEN": {
        "details": "Wrapped BTC token to use for flash loans"
      },
      "PAIR_INIT_HASH_CODE": {
        "details": "Wrapped BTC token to use for flash loans"
      },
      "STABLE_TOKEN": {
        "details": "Stable token to use for flash loans"
      },
      "UNISWAP_V2_ROUTER_02": {
        "details": "UniswapV2Router02 contract object."
      },
      "UNISWAP_V2_ROUTER_02_ADDRESS": {
        "details": "UniswapV2Router02 contract address."
      },
      "W_NATIVE": {
        "details": "W_NATIVE contract object."
      },
      "W_NATIVE_ADDRESS": {
        "details": "W_NATIVE contract address."
      },
      "_liquidatorProfitExchangeSource": {
        "details": "Cached liquidator profit exchange source. ERC20 token address or the zero address for NATIVE. For use in `safeLiquidateToTokensWithFlashLoan`/`safeLiquidateToEthWithFlashLoan` after it is set by `postFlashLoanTokens`/`postFlashLoanWeth`."
      }
    },
    "title": "FuseSafeLiquidator",
    "version": 1
  },
  "userdoc": {
    "kind": "user",
    "methods": {
      "safeLiquidate(address,address,address,uint256,address,address,address[],bytes[])": {
        "notice": "Safely liquidate an unhealthy loan (using capital from the sender), confirming that at least `minOutputAmount` in collateral is seized (or outputted by exchange if applicable)."
      },
      "safeLiquidate(address,uint256,address,address,uint256,address,address,address[],bytes[])": {
        "notice": "Safely liquidate an unhealthy loan (using capital from the sender), confirming that at least `minOutputAmount` in collateral is seized (or outputted by exchange if applicable)."
      },
      "safeLiquidateToTokensWithFlashLoan(address,uint256,address,address,uint256,address,address,address,address[],bytes[],uint256)": {
        "notice": "Safely liquidate an unhealthy loan, confirming that at least `minProfitAmount` in NATIVE profit is seized."
      }
    },
    "notice": "FuseSafeLiquidator safely liquidates unhealthy borrowers (with flashloan support).",
    "version": 1
  },
  "storageLayout": {
    "storage": [
      {
        "astId": 210,
        "contract": "contracts/FuseSafeLiquidator.sol:FuseSafeLiquidator",
        "label": "_initialized",
        "offset": 0,
        "slot": "0",
        "type": "t_bool"
      },
      {
        "astId": 213,
        "contract": "contracts/FuseSafeLiquidator.sol:FuseSafeLiquidator",
        "label": "_initializing",
        "offset": 1,
        "slot": "0",
        "type": "t_bool"
      },
      {
        "astId": 8783,
        "contract": "contracts/FuseSafeLiquidator.sol:FuseSafeLiquidator",
        "label": "W_NATIVE_ADDRESS",
        "offset": 2,
        "slot": "0",
        "type": "t_address"
      },
      {
        "astId": 8787,
        "contract": "contracts/FuseSafeLiquidator.sol:FuseSafeLiquidator",
        "label": "W_NATIVE",
        "offset": 0,
        "slot": "1",
        "type": "t_contract(IW_NATIVE)54656"
      },
      {
        "astId": 8790,
        "contract": "contracts/FuseSafeLiquidator.sol:FuseSafeLiquidator",
        "label": "UNISWAP_V2_ROUTER_02_ADDRESS",
        "offset": 0,
        "slot": "2",
        "type": "t_address"
      },
      {
        "astId": 8793,
        "contract": "contracts/FuseSafeLiquidator.sol:FuseSafeLiquidator",
        "label": "STABLE_TOKEN",
        "offset": 0,
        "slot": "3",
        "type": "t_address"
      },
      {
        "astId": 8796,
        "contract": "contracts/FuseSafeLiquidator.sol:FuseSafeLiquidator",
        "label": "BTC_TOKEN",
        "offset": 0,
        "slot": "4",
        "type": "t_address"
      },
      {
        "astId": 8799,
        "contract": "contracts/FuseSafeLiquidator.sol:FuseSafeLiquidator",
        "label": "PAIR_INIT_HASH_CODE",
        "offset": 0,
        "slot": "5",
        "type": "t_bytes_storage"
      },
      {
        "astId": 8803,
        "contract": "contracts/FuseSafeLiquidator.sol:FuseSafeLiquidator",
        "label": "UNISWAP_V2_ROUTER_02",
        "offset": 0,
        "slot": "6",
        "type": "t_contract(IUniswapV2Router02)38175"
      },
      {
        "astId": 8806,
        "contract": "contracts/FuseSafeLiquidator.sol:FuseSafeLiquidator",
        "label": "_liquidatorProfitExchangeSource",
        "offset": 0,
        "slot": "7",
        "type": "t_address"
      }
    ],
    "types": {
      "t_address": {
        "encoding": "inplace",
        "label": "address",
        "numberOfBytes": "20"
      },
      "t_bool": {
        "encoding": "inplace",
        "label": "bool",
        "numberOfBytes": "1"
      },
      "t_bytes_storage": {
        "encoding": "bytes",
        "label": "bytes",
        "numberOfBytes": "32"
      },
      "t_contract(IUniswapV2Router02)38175": {
        "encoding": "inplace",
        "label": "contract IUniswapV2Router02",
        "numberOfBytes": "20"
      },
      "t_contract(IW_NATIVE)54656": {
        "encoding": "inplace",
        "label": "contract IW_NATIVE",
        "numberOfBytes": "20"
      }
    }
  }
}