{
  "address": "0xdEC1DcA21384902d9FA6E00ec3874e8A07D6e8d6",
  "abi": [
    {
      "inputs": [],
      "name": "directory",
      "outputs": [
        {
          "internalType": "contract FusePoolDirectory",
          "name": "",
          "type": "address"
        }
      ],
      "stateMutability": "view",
      "type": "function"
    },
    {
      "inputs": [
        {
          "internalType": "contract IComptroller",
          "name": "comptroller",
          "type": "address"
        },
        {
          "internalType": "address",
          "name": "user",
          "type": "address"
        }
      ],
      "name": "getPoolAssetsByUser",
      "outputs": [
        {
          "components": [
            {
              "internalType": "address",
              "name": "cToken",
              "type": "address"
            },
            {
              "internalType": "address",
              "name": "underlyingToken",
              "type": "address"
            },
            {
              "internalType": "string",
              "name": "underlyingName",
              "type": "string"
            },
            {
              "internalType": "string",
              "name": "underlyingSymbol",
              "type": "string"
            },
            {
              "internalType": "uint256",
              "name": "underlyingDecimals",
              "type": "uint256"
            },
            {
              "internalType": "uint256",
              "name": "underlyingBalance",
              "type": "uint256"
            },
            {
              "internalType": "uint256",
              "name": "supplyRatePerBlock",
              "type": "uint256"
            },
            {
              "internalType": "uint256",
              "name": "borrowRatePerBlock",
              "type": "uint256"
            },
            {
              "internalType": "uint256",
              "name": "totalSupply",
              "type": "uint256"
            },
            {
              "internalType": "uint256",
              "name": "totalBorrow",
              "type": "uint256"
            },
            {
              "internalType": "uint256",
              "name": "supplyBalance",
              "type": "uint256"
            },
            {
              "internalType": "uint256",
              "name": "borrowBalance",
              "type": "uint256"
            },
            {
              "internalType": "uint256",
              "name": "liquidity",
              "type": "uint256"
            },
            {
              "internalType": "bool",
              "name": "membership",
              "type": "bool"
            },
            {
              "internalType": "uint256",
              "name": "exchangeRate",
              "type": "uint256"
            },
            {
              "internalType": "uint256",
              "name": "underlyingPrice",
              "type": "uint256"
            },
            {
              "internalType": "address",
              "name": "oracle",
              "type": "address"
            },
            {
              "internalType": "uint256",
              "name": "collateralFactor",
              "type": "uint256"
            },
            {
              "internalType": "uint256",
              "name": "reserveFactor",
              "type": "uint256"
            },
            {
              "internalType": "uint256",
              "name": "adminFee",
              "type": "uint256"
            },
            {
              "internalType": "uint256",
              "name": "fuseFee",
              "type": "uint256"
            },
            {
              "internalType": "bool",
              "name": "borrowGuardianPaused",
              "type": "bool"
            }
          ],
          "internalType": "struct FusePoolLens.FusePoolAsset[]",
          "name": "",
          "type": "tuple[]"
        }
      ],
      "stateMutability": "nonpayable",
      "type": "function"
    },
    {
      "inputs": [
        {
          "internalType": "contract IComptroller",
          "name": "comptroller",
          "type": "address"
        }
      ],
      "name": "getPoolAssetsWithData",
      "outputs": [
        {
          "components": [
            {
              "internalType": "address",
              "name": "cToken",
              "type": "address"
            },
            {
              "internalType": "address",
              "name": "underlyingToken",
              "type": "address"
            },
            {
              "internalType": "string",
              "name": "underlyingName",
              "type": "string"
            },
            {
              "internalType": "string",
              "name": "underlyingSymbol",
              "type": "string"
            },
            {
              "internalType": "uint256",
              "name": "underlyingDecimals",
              "type": "uint256"
            },
            {
              "internalType": "uint256",
              "name": "underlyingBalance",
              "type": "uint256"
            },
            {
              "internalType": "uint256",
              "name": "supplyRatePerBlock",
              "type": "uint256"
            },
            {
              "internalType": "uint256",
              "name": "borrowRatePerBlock",
              "type": "uint256"
            },
            {
              "internalType": "uint256",
              "name": "totalSupply",
              "type": "uint256"
            },
            {
              "internalType": "uint256",
              "name": "totalBorrow",
              "type": "uint256"
            },
            {
              "internalType": "uint256",
              "name": "supplyBalance",
              "type": "uint256"
            },
            {
              "internalType": "uint256",
              "name": "borrowBalance",
              "type": "uint256"
            },
            {
              "internalType": "uint256",
              "name": "liquidity",
              "type": "uint256"
            },
            {
              "internalType": "bool",
              "name": "membership",
              "type": "bool"
            },
            {
              "internalType": "uint256",
              "name": "exchangeRate",
              "type": "uint256"
            },
            {
              "internalType": "uint256",
              "name": "underlyingPrice",
              "type": "uint256"
            },
            {
              "internalType": "address",
              "name": "oracle",
              "type": "address"
            },
            {
              "internalType": "uint256",
              "name": "collateralFactor",
              "type": "uint256"
            },
            {
              "internalType": "uint256",
              "name": "reserveFactor",
              "type": "uint256"
            },
            {
              "internalType": "uint256",
              "name": "adminFee",
              "type": "uint256"
            },
            {
              "internalType": "uint256",
              "name": "fuseFee",
              "type": "uint256"
            },
            {
              "internalType": "bool",
              "name": "borrowGuardianPaused",
              "type": "bool"
            }
          ],
          "internalType": "struct FusePoolLens.FusePoolAsset[]",
          "name": "",
          "type": "tuple[]"
        }
      ],
      "stateMutability": "nonpayable",
      "type": "function"
    },
    {
      "inputs": [
        {
          "internalType": "contract IComptroller",
          "name": "comptroller",
          "type": "address"
        }
      ],
      "name": "getPoolSummary",
      "outputs": [
        {
          "internalType": "uint256",
          "name": "",
          "type": "uint256"
        },
        {
          "internalType": "uint256",
          "name": "",
          "type": "uint256"
        },
        {
          "internalType": "address[]",
          "name": "",
          "type": "address[]"
        },
        {
          "internalType": "string[]",
          "name": "",
          "type": "string[]"
        },
        {
          "internalType": "bool",
          "name": "",
          "type": "bool"
        }
      ],
      "stateMutability": "nonpayable",
      "type": "function"
    },
    {
      "inputs": [
        {
          "internalType": "contract IComptroller[]",
          "name": "comptrollers",
          "type": "address[]"
        },
        {
          "internalType": "uint256",
          "name": "maxHealth",
          "type": "uint256"
        }
      ],
      "name": "getPoolUsersWithData",
      "outputs": [
        {
          "components": [
            {
              "internalType": "address",
              "name": "account",
              "type": "address"
            },
            {
              "internalType": "uint256",
              "name": "totalBorrow",
              "type": "uint256"
            },
            {
              "internalType": "uint256",
              "name": "totalCollateral",
              "type": "uint256"
            },
            {
              "internalType": "uint256",
              "name": "health",
              "type": "uint256"
            }
          ],
          "internalType": "struct FusePoolLens.FusePoolUser[][]",
          "name": "",
          "type": "tuple[][]"
        },
        {
          "internalType": "uint256[]",
          "name": "",
          "type": "uint256[]"
        },
        {
          "internalType": "uint256[]",
          "name": "",
          "type": "uint256[]"
        },
        {
          "internalType": "bool[]",
          "name": "",
          "type": "bool[]"
        }
      ],
      "stateMutability": "nonpayable",
      "type": "function"
    },
    {
      "inputs": [
        {
          "internalType": "contract IComptroller",
          "name": "comptroller",
          "type": "address"
        },
        {
          "internalType": "uint256",
          "name": "maxHealth",
          "type": "uint256"
        }
      ],
      "name": "getPoolUsersWithData",
      "outputs": [
        {
          "components": [
            {
              "internalType": "address",
              "name": "account",
              "type": "address"
            },
            {
              "internalType": "uint256",
              "name": "totalBorrow",
              "type": "uint256"
            },
            {
              "internalType": "uint256",
              "name": "totalCollateral",
              "type": "uint256"
            },
            {
              "internalType": "uint256",
              "name": "health",
              "type": "uint256"
            }
          ],
          "internalType": "struct FusePoolLens.FusePoolUser[]",
          "name": "",
          "type": "tuple[]"
        },
        {
          "internalType": "uint256",
          "name": "",
          "type": "uint256"
        },
        {
          "internalType": "uint256",
          "name": "",
          "type": "uint256"
        }
      ],
      "stateMutability": "nonpayable",
      "type": "function"
    },
    {
      "inputs": [
        {
          "internalType": "address",
          "name": "account",
          "type": "address"
        }
      ],
      "name": "getPoolsByAccountWithData",
      "outputs": [
        {
          "internalType": "uint256[]",
          "name": "",
          "type": "uint256[]"
        },
        {
          "components": [
            {
              "internalType": "string",
              "name": "name",
              "type": "string"
            },
            {
              "internalType": "address",
              "name": "creator",
              "type": "address"
            },
            {
              "internalType": "address",
              "name": "comptroller",
              "type": "address"
            },
            {
              "internalType": "uint256",
              "name": "blockPosted",
              "type": "uint256"
            },
            {
              "internalType": "uint256",
              "name": "timestampPosted",
              "type": "uint256"
            }
          ],
          "internalType": "struct FusePoolDirectory.FusePool[]",
          "name": "",
          "type": "tuple[]"
        },
        {
          "components": [
            {
              "internalType": "uint256",
              "name": "totalSupply",
              "type": "uint256"
            },
            {
              "internalType": "uint256",
              "name": "totalBorrow",
              "type": "uint256"
            },
            {
              "internalType": "address[]",
              "name": "underlyingTokens",
              "type": "address[]"
            },
            {
              "internalType": "string[]",
              "name": "underlyingSymbols",
              "type": "string[]"
            },
            {
              "internalType": "bool",
              "name": "whitelistedAdmin",
              "type": "bool"
            }
          ],
          "internalType": "struct FusePoolLens.FusePoolData[]",
          "name": "",
          "type": "tuple[]"
        },
        {
          "internalType": "bool[]",
          "name": "",
          "type": "bool[]"
        }
      ],
      "stateMutability": "nonpayable",
      "type": "function"
    },
    {
      "inputs": [
        {
          "internalType": "address",
          "name": "account",
          "type": "address"
        }
      ],
      "name": "getPoolsBySupplier",
      "outputs": [
        {
          "internalType": "uint256[]",
          "name": "",
          "type": "uint256[]"
        },
        {
          "components": [
            {
              "internalType": "string",
              "name": "name",
              "type": "string"
            },
            {
              "internalType": "address",
              "name": "creator",
              "type": "address"
            },
            {
              "internalType": "address",
              "name": "comptroller",
              "type": "address"
            },
            {
              "internalType": "uint256",
              "name": "blockPosted",
              "type": "uint256"
            },
            {
              "internalType": "uint256",
              "name": "timestampPosted",
              "type": "uint256"
            }
          ],
          "internalType": "struct FusePoolDirectory.FusePool[]",
          "name": "",
          "type": "tuple[]"
        }
      ],
      "stateMutability": "view",
      "type": "function"
    },
    {
      "inputs": [
        {
          "internalType": "address",
          "name": "account",
          "type": "address"
        }
      ],
      "name": "getPoolsBySupplierWithData",
      "outputs": [
        {
          "internalType": "uint256[]",
          "name": "",
          "type": "uint256[]"
        },
        {
          "components": [
            {
              "internalType": "string",
              "name": "name",
              "type": "string"
            },
            {
              "internalType": "address",
              "name": "creator",
              "type": "address"
            },
            {
              "internalType": "address",
              "name": "comptroller",
              "type": "address"
            },
            {
              "internalType": "uint256",
              "name": "blockPosted",
              "type": "uint256"
            },
            {
              "internalType": "uint256",
              "name": "timestampPosted",
              "type": "uint256"
            }
          ],
          "internalType": "struct FusePoolDirectory.FusePool[]",
          "name": "",
          "type": "tuple[]"
        },
        {
          "components": [
            {
              "internalType": "uint256",
              "name": "totalSupply",
              "type": "uint256"
            },
            {
              "internalType": "uint256",
              "name": "totalBorrow",
              "type": "uint256"
            },
            {
              "internalType": "address[]",
              "name": "underlyingTokens",
              "type": "address[]"
            },
            {
              "internalType": "string[]",
              "name": "underlyingSymbols",
              "type": "string[]"
            },
            {
              "internalType": "bool",
              "name": "whitelistedAdmin",
              "type": "bool"
            }
          ],
          "internalType": "struct FusePoolLens.FusePoolData[]",
          "name": "",
          "type": "tuple[]"
        },
        {
          "internalType": "bool[]",
          "name": "",
          "type": "bool[]"
        }
      ],
      "stateMutability": "nonpayable",
      "type": "function"
    },
    {
      "inputs": [
        {
          "internalType": "uint256",
          "name": "maxHealth",
          "type": "uint256"
        }
      ],
      "name": "getPublicPoolUsersWithData",
      "outputs": [
        {
          "internalType": "contract IComptroller[]",
          "name": "",
          "type": "address[]"
        },
        {
          "components": [
            {
              "internalType": "address",
              "name": "account",
              "type": "address"
            },
            {
              "internalType": "uint256",
              "name": "totalBorrow",
              "type": "uint256"
            },
            {
              "internalType": "uint256",
              "name": "totalCollateral",
              "type": "uint256"
            },
            {
              "internalType": "uint256",
              "name": "health",
              "type": "uint256"
            }
          ],
          "internalType": "struct FusePoolLens.FusePoolUser[][]",
          "name": "",
          "type": "tuple[][]"
        },
        {
          "internalType": "uint256[]",
          "name": "",
          "type": "uint256[]"
        },
        {
          "internalType": "uint256[]",
          "name": "",
          "type": "uint256[]"
        },
        {
          "internalType": "bool[]",
          "name": "",
          "type": "bool[]"
        }
      ],
      "stateMutability": "nonpayable",
      "type": "function"
    },
    {
      "inputs": [
        {
          "internalType": "bool",
          "name": "whitelistedAdmin",
          "type": "bool"
        }
      ],
      "name": "getPublicPoolsByVerificationWithData",
      "outputs": [
        {
          "internalType": "uint256[]",
          "name": "",
          "type": "uint256[]"
        },
        {
          "components": [
            {
              "internalType": "string",
              "name": "name",
              "type": "string"
            },
            {
              "internalType": "address",
              "name": "creator",
              "type": "address"
            },
            {
              "internalType": "address",
              "name": "comptroller",
              "type": "address"
            },
            {
              "internalType": "uint256",
              "name": "blockPosted",
              "type": "uint256"
            },
            {
              "internalType": "uint256",
              "name": "timestampPosted",
              "type": "uint256"
            }
          ],
          "internalType": "struct FusePoolDirectory.FusePool[]",
          "name": "",
          "type": "tuple[]"
        },
        {
          "components": [
            {
              "internalType": "uint256",
              "name": "totalSupply",
              "type": "uint256"
            },
            {
              "internalType": "uint256",
              "name": "totalBorrow",
              "type": "uint256"
            },
            {
              "internalType": "address[]",
              "name": "underlyingTokens",
              "type": "address[]"
            },
            {
              "internalType": "string[]",
              "name": "underlyingSymbols",
              "type": "string[]"
            },
            {
              "internalType": "bool",
              "name": "whitelistedAdmin",
              "type": "bool"
            }
          ],
          "internalType": "struct FusePoolLens.FusePoolData[]",
          "name": "",
          "type": "tuple[]"
        },
        {
          "internalType": "bool[]",
          "name": "",
          "type": "bool[]"
        }
      ],
      "stateMutability": "nonpayable",
      "type": "function"
    },
    {
      "inputs": [],
      "name": "getPublicPoolsWithData",
      "outputs": [
        {
          "internalType": "uint256[]",
          "name": "",
          "type": "uint256[]"
        },
        {
          "components": [
            {
              "internalType": "string",
              "name": "name",
              "type": "string"
            },
            {
              "internalType": "address",
              "name": "creator",
              "type": "address"
            },
            {
              "internalType": "address",
              "name": "comptroller",
              "type": "address"
            },
            {
              "internalType": "uint256",
              "name": "blockPosted",
              "type": "uint256"
            },
            {
              "internalType": "uint256",
              "name": "timestampPosted",
              "type": "uint256"
            }
          ],
          "internalType": "struct FusePoolDirectory.FusePool[]",
          "name": "",
          "type": "tuple[]"
        },
        {
          "components": [
            {
              "internalType": "uint256",
              "name": "totalSupply",
              "type": "uint256"
            },
            {
              "internalType": "uint256",
              "name": "totalBorrow",
              "type": "uint256"
            },
            {
              "internalType": "address[]",
              "name": "underlyingTokens",
              "type": "address[]"
            },
            {
              "internalType": "string[]",
              "name": "underlyingSymbols",
              "type": "string[]"
            },
            {
              "internalType": "bool",
              "name": "whitelistedAdmin",
              "type": "bool"
            }
          ],
          "internalType": "struct FusePoolLens.FusePoolData[]",
          "name": "",
          "type": "tuple[]"
        },
        {
          "internalType": "bool[]",
          "name": "",
          "type": "bool[]"
        }
      ],
      "stateMutability": "nonpayable",
      "type": "function"
    },
    {
      "inputs": [
        {
          "internalType": "address",
          "name": "account",
          "type": "address"
        }
      ],
      "name": "getWhitelistedPoolsByAccount",
      "outputs": [
        {
          "internalType": "uint256[]",
          "name": "",
          "type": "uint256[]"
        },
        {
          "components": [
            {
              "internalType": "string",
              "name": "name",
              "type": "string"
            },
            {
              "internalType": "address",
              "name": "creator",
              "type": "address"
            },
            {
              "internalType": "address",
              "name": "comptroller",
              "type": "address"
            },
            {
              "internalType": "uint256",
              "name": "blockPosted",
              "type": "uint256"
            },
            {
              "internalType": "uint256",
              "name": "timestampPosted",
              "type": "uint256"
            }
          ],
          "internalType": "struct FusePoolDirectory.FusePool[]",
          "name": "",
          "type": "tuple[]"
        }
      ],
      "stateMutability": "view",
      "type": "function"
    },
    {
      "inputs": [
        {
          "internalType": "address",
          "name": "account",
          "type": "address"
        }
      ],
      "name": "getWhitelistedPoolsByAccountWithData",
      "outputs": [
        {
          "internalType": "uint256[]",
          "name": "",
          "type": "uint256[]"
        },
        {
          "components": [
            {
              "internalType": "string",
              "name": "name",
              "type": "string"
            },
            {
              "internalType": "address",
              "name": "creator",
              "type": "address"
            },
            {
              "internalType": "address",
              "name": "comptroller",
              "type": "address"
            },
            {
              "internalType": "uint256",
              "name": "blockPosted",
              "type": "uint256"
            },
            {
              "internalType": "uint256",
              "name": "timestampPosted",
              "type": "uint256"
            }
          ],
          "internalType": "struct FusePoolDirectory.FusePool[]",
          "name": "",
          "type": "tuple[]"
        },
        {
          "components": [
            {
              "internalType": "uint256",
              "name": "totalSupply",
              "type": "uint256"
            },
            {
              "internalType": "uint256",
              "name": "totalBorrow",
              "type": "uint256"
            },
            {
              "internalType": "address[]",
              "name": "underlyingTokens",
              "type": "address[]"
            },
            {
              "internalType": "string[]",
              "name": "underlyingSymbols",
              "type": "string[]"
            },
            {
              "internalType": "bool",
              "name": "whitelistedAdmin",
              "type": "bool"
            }
          ],
          "internalType": "struct FusePoolLens.FusePoolData[]",
          "name": "",
          "type": "tuple[]"
        },
        {
          "internalType": "bool[]",
          "name": "",
          "type": "bool[]"
        }
      ],
      "stateMutability": "nonpayable",
      "type": "function"
    },
    {
      "inputs": [
        {
          "internalType": "contract FusePoolDirectory",
          "name": "_directory",
          "type": "address"
        },
        {
          "internalType": "string",
          "name": "_name",
          "type": "string"
        },
        {
          "internalType": "string",
          "name": "_symbol",
          "type": "string"
        }
      ],
      "name": "initialize",
      "outputs": [],
      "stateMutability": "nonpayable",
      "type": "function"
    },
    {
      "inputs": [],
      "name": "name",
      "outputs": [
        {
          "internalType": "string",
          "name": "",
          "type": "string"
        }
      ],
      "stateMutability": "view",
      "type": "function"
    },
    {
      "inputs": [],
      "name": "symbol",
      "outputs": [
        {
          "internalType": "string",
          "name": "",
          "type": "string"
        }
      ],
      "stateMutability": "view",
      "type": "function"
    }
  ],
  "transactionHash": "0x4bf5c3e568f4602a7fafbaf6896a816d9975699f78cf190963526e47a27aab06",
  "args": [],
  "numDeployments": 11,
  "solcInputHash": "01d1249b5cf313f282601fc85bc4d51d",
  "bytecode": "0x608060405234801561001057600080fd5b50614bf8806100206000396000f3fe608060405234801561001057600080fd5b506004361061010b5760003560e01c806370733375116100a2578063c3530a6311610071578063c3530a6314610251578063c41c2f2414610264578063d0a164fb1461028f578063d64996e514610297578063dedfe22f146102aa57600080fd5b806370733375146101ff578063906571471461021257806395d89b41146102275780639c00a3d41461022f57600080fd5b806351678684116100de5780635167868414610182578063586f6c10146101a557806359d2fea6146101c8578063635629e6146101ec57600080fd5b806306fdde03146101105780630b9c80bd1461012e5780630c5eb5a41461014f57806327e16c1f1461016f575b600080fd5b6101186102ce565b6040516101259190613ab1565b60405180910390f35b61014161013c366004613ae3565b61035c565b604051610125929190613bc5565b61016261015d366004613bf3565b6108d5565b6040516101259190613c2c565b61016261017d366004613ae3565b61095d565b610195610190366004613ae3565b6109d5565b6040516101259493929190613e5f565b6101b86101b3366004613ff2565b610a78565b6040516101259493929190614137565b6101db6101d6366004613ae3565b610cfb565b60405161012595949392919061418f565b6101956101fa366004613ae3565b6114d5565b61019561020d366004613ae3565b6114e7565b61022561022036600461424d565b6114f9565b005b610118611672565b61024261023d3660046142c2565b61167f565b604051610125939291906142ee565b61014161025f366004613ae3565b611db3565b600354610277906001600160a01b031681565b6040516001600160a01b039091168152602001610125565b6101956120d0565b6101956102a5366004614321565b612175565b6102bd6102b836600461433e565b6121b5565b604051610125959493929190614357565b600180546102db906143f6565b80601f0160208091040260200160405190810160405280929190818152602001828054610307906143f6565b80156103545780601f1061032957610100808354040283529160200191610354565b820191906000526020600020905b81548152906001019060200180831161033757829003601f168201915b505050505081565b6060806000600360009054906101000a90046001600160a01b03166001600160a01b031663d88ff1f46040518163ffffffff1660e01b8152600401600060405180830381865afa1580156103b4573d6000803e3d6000fd5b505050506040513d6000823e601f3d908101601f191682016040526103dc9190810190614576565b90506000805b82518110156105d25760008382815181106103ff576103ff6145aa565b6020026020010151604001519050806001600160a01b03166316dc15fe886040518263ffffffff1660e01b815260040161044891906001600160a01b0391909116815260200190565b602060405180830381865afa925050508015610481575060408051601f3d908101601f1916820190925261047e918101906145d0565b60015b61048a576105bf565b80156105bd576000826001600160a01b031663b0772d0b6040518163ffffffff1660e01b8152600401600060405180830381865afa1580156104d0573d6000803e3d6000fd5b505050506040513d6000823e601f3d908101601f191682016040526104f891908101906145ed565b905060005b81518110156105ba57600082828151811061051a5761051a6145aa565b60209081029190910101516040516370a0823160e01b81526001600160a01b038d81166004830152909116906370a0823190602401602060405180830381865afa15801561056c573d6000803e3d6000fd5b505050506040513d601f19601f82011682018060405250810190610590919061467b565b11156105a857856105a0816146aa565b9650506105ba565b806105b2816146aa565b9150506104fd565b50505b505b50806105ca816146aa565b9150506103e2565b506000816001600160401b038111156105ed576105ed613f3f565b604051908082528060200260200182016040528015610616578160200160208202803683370190505b5090506000826001600160401b0381111561063357610633613f3f565b60405190808252806020026020018201604052801561066c57816020015b6106596138b9565b8152602001906001900390816106515790505b5090506000805b85518110156108c7576000868281518110610690576106906145aa565b6020026020010151604001519050806001600160a01b03166316dc15fe8b6040518263ffffffff1660e01b81526004016106d991906001600160a01b0391909116815260200190565b602060405180830381865afa925050508015610712575060408051601f3d908101601f1916820190925261070f918101906145d0565b60015b61071b576108b4565b80156108b2576000826001600160a01b031663b0772d0b6040518163ffffffff1660e01b8152600401600060405180830381865afa158015610761573d6000803e3d6000fd5b505050506040513d6000823e601f3d908101601f1916820160405261078991908101906145ed565b905060005b81518110156108af5760008282815181106107ab576107ab6145aa565b60200260200101516001600160a01b03166370a082318f6040518263ffffffff1660e01b81526004016107ed91906001600160a01b0391909116815260200190565b602060405180830381865afa15801561080a573d6000803e3d6000fd5b505050506040513d601f19601f8201168201806040525081019061082e919061467b565b111561089d5784888781518110610847576108476145aa565b602002602001018181525050898581518110610865576108656145aa565b602002602001015187878151811061087f5761087f6145aa565b60200260200101819052508580610895906146aa565b9650506108af565b806108a7816146aa565b91505061078e565b50505b505b50806108bf816146aa565b915050610673565b509197909650945050505050565b604051632aff3bff60e21b81526001600160a01b03828116600483015260609160009161095591869182169063abfceffc90602401600060405180830381865afa158015610927573d6000803e3d6000fd5b505050506040513d6000823e601f3d908101601f1916820160405261094f91908101906145ed565b85612312565b949350505050565b60606109cf82836001600160a01b031663b0772d0b6040518163ffffffff1660e01b8152600401600060405180830381865afa1580156109a1573d6000803e3d6000fd5b505050506040513d6000823e601f3d908101601f191682016040526109c991908101906145ed565b33612312565b92915050565b6003546040516351f6c8e360e11b81526001600160a01b03838116600483015260609283928392839260009283929091169063a3ed91c6906024015b600060405180830381865afa158015610a2e573d6000803e3d6000fd5b505050506040513d6000823e601f3d908101601f19168201604052610a5691908101906146c5565b91509150600080610a6683613072565b949a9399509750929550909350505050565b606080606080600086516001600160401b03811115610a9957610a99613f3f565b604051908082528060200260200182016040528015610acc57816020015b6060815260200190600190039081610ab75790505b509050600087516001600160401b03811115610aea57610aea613f3f565b604051908082528060200260200182016040528015610b13578160200160208202803683370190505b509050600088516001600160401b03811115610b3157610b31613f3f565b604051908082528060200260200182016040528015610b5a578160200160208202803683370190505b509050600089516001600160401b03811115610b7857610b78613f3f565b604051908082528060200260200182016040528015610ba1578160200160208202803683370190505b50905060005b8a51811015610cea57306001600160a01b0316639c00a3d48c8381518110610bd157610bd16145aa565b60200260200101518c6040518363ffffffff1660e01b8152600401610c0b9291906001600160a01b03929092168252602082015260400190565b6000604051808303816000875af1925050508015610c4b57506040513d6000823e601f3d908101601f19168201604052610c489190810190614780565b60015b610c78576001828281518110610c6357610c636145aa565b91151560209283029190910190910152610cd8565b82888581518110610c8b57610c8b6145aa565b602002602001018190525081878581518110610ca957610ca96145aa565b60200260200101818152505080868581518110610cc857610cc86145aa565b6020026020010181815250505050505b80610ce2816146aa565b915050610ba7565b509299919850965090945092505050565b60008060608060008060009050600080886001600160a01b031663b0772d0b6040518163ffffffff1660e01b8152600401600060405180830381865afa158015610d49573d6000803e3d6000fd5b505050506040513d6000823e601f3d908101601f19168201604052610d7191908101906145ed565b9050600081516001600160401b03811115610d8e57610d8e613f3f565b604051908082528060200260200182016040528015610db7578160200160208202803683370190505b509050600082516001600160401b03811115610dd557610dd5613f3f565b604051908082528060200260200182016040528015610e0857816020015b6060815260200190600190039081610df35790505b50905060008b6001600160a01b0316637dc0d1d06040518163ffffffff1660e01b8152600401602060405180830381865afa158015610e4b573d6000803e3d6000fd5b505050506040513d601f19601f82011682018060405250810190610e6f9190614865565b905060005b84518110156113cd576000858281518110610e9157610e916145aa565b6020026020010151905060008e6001600160a01b0316638e8f294b836040518263ffffffff1660e01b8152600401610ed891906001600160a01b0391909116815260200190565b6040805180830381865afa158015610ef4573d6000803e3d6000fd5b505050506040513d601f19601f82011682018060405250810190610f189190614882565b50905080610f275750506113bb565b6000826001600160a01b03166373acee986040518163ffffffff1660e01b81526004016020604051808303816000875af1158015610f69573d6000803e3d6000fd5b505050506040513d601f19601f82011682018060405250810190610f8d919061467b565b90506000836001600160a01b031663dc028ab16040518163ffffffff1660e01b8152600401602060405180830381865afa158015610fcf573d6000803e3d6000fd5b505050506040513d601f19601f82011682018060405250810190610ff3919061467b565b846001600160a01b03166361feacff6040518163ffffffff1660e01b8152600401602060405180830381865afa158015611031573d6000803e3d6000fd5b505050506040513d601f19601f82011682018060405250810190611055919061467b565b856001600160a01b0316638f840ddd6040518163ffffffff1660e01b8152600401602060405180830381865afa158015611093573d6000803e3d6000fd5b505050506040513d601f19601f820116820180604052508101906110b7919061467b565b6110c191906148b0565b6110cb91906148b0565b82856001600160a01b0316633b1d21a26040518163ffffffff1660e01b8152600401602060405180830381865afa15801561110a573d6000803e3d6000fd5b505050506040513d601f19601f8201168201806040525081019061112e919061467b565b61113891906148b0565b61114291906148c8565b60405163fc57d4df60e01b81526001600160a01b03868116600483015291925060009188169063fc57d4df90602401602060405180830381865afa15801561118e573d6000803e3d6000fd5b505050506040513d601f19601f820116820180604052508101906111b2919061467b565b9050670de0b6b3a76400006111c782856148df565b6111d191906148fe565b6111db908d6148b0565b9b50670de0b6b3a76400006111f082846148df565b6111fa91906148fe565b611204908c6148b0565b9a50846001600160a01b031663ac784ddc6040518163ffffffff1660e01b8152600401602060405180830381865afa158015611244573d6000803e3d6000fd5b505050506040513d601f19601f8201168201806040525081019061126891906145d0565b156112df576000898781518110611281576112816145aa565b60200260200101906001600160a01b031690816001600160a01b0316815250506040518060400160405280600381526020016208aa8960eb1b8152508887815181106112cf576112cf6145aa565b60200260200101819052506113b5565b846001600160a01b0316636f307dc36040518163ffffffff1660e01b8152600401602060405180830381865afa15801561131d573d6000803e3d6000fd5b505050506040513d601f19601f820116820180604052508101906113419190614865565b898781518110611353576113536145aa565b60200260200101906001600160a01b031690816001600160a01b031681525050611395898781518110611388576113886145aa565b6020026020010151613279565b90508887815181106113a9576113a96145aa565b60200260200101819052505b50505050505b806113c5816146aa565b915050610e74565b506000600360009054906101000a90046001600160a01b03166001600160a01b03166343e20a1d8e6001600160a01b031663f851a4406040518163ffffffff1660e01b8152600401602060405180830381865afa158015611432573d6000803e3d6000fd5b505050506040513d601f19601f820116820180604052508101906114569190614865565b6040516001600160e01b031960e084901b1681526001600160a01b039091166004820152602401602060405180830381865afa15801561149a573d6000803e3d6000fd5b505050506040513d601f19601f820116820180604052508101906114be91906145d0565b959d969c50929a5090985092965092945050505050565b606080606080600080610a568761035c565b606080606080600080610a5687611db3565b600054610100900460ff166115145760005460ff1615611518565b303b155b6115805760405162461bcd60e51b815260206004820152602e60248201527f496e697469616c697a61626c653a20636f6e747261637420697320616c72656160448201526d191e481a5b9a5d1a585b1a5e995960921b60648201526084015b60405180910390fd5b600054610100900460ff161580156115a2576000805461ffff19166101011790555b6001600160a01b0384166116175760405162461bcd60e51b815260206004820152603660248201527f46757365506f6f6c4469726563746f727920696e7374616e63652063616e6e6f6044820152753a103132903a3432903d32b9379030b2323932b9b99760511b6064820152608401611577565b600380546001600160a01b0319166001600160a01b03861617905582516116459060019060208601906138fa565b5081516116599060029060208501906138fa565b50801561166c576000805461ff00191690555b50505050565b600280546102db906143f6565b60606000806000856001600160a01b03166332abcdbe6040518163ffffffff1660e01b8152600401600060405180830381865afa1580156116c4573d6000803e3d6000fd5b505050506040513d6000823e601f3d908101601f191682016040526116ec9190810190614984565b90506000805b82518110156119755760008060006117bc8b8c6001600160a01b031663abfceffc898881518110611725576117256145aa565b60200260200101516040518263ffffffff1660e01b815260040161175891906001600160a01b0391909116815260200190565b600060405180830381865afa158015611775573d6000803e3d6000fd5b505050506040513d6000823e601f3d908101601f1916820160405261179d91908101906145ed565b8887815181106117af576117af6145aa565b6020026020010151612312565b905060005b815181101561190b57670de0b6b3a76400008282815181106117e5576117e56145aa565b60200260200101516101e00151838381518110611804576118046145aa565b6020026020010151610160015161181b91906148df565b61182591906148fe565b61182f90856148b0565b9350818181518110611843576118436145aa565b60200260200101516101a00151156118f957670de0b6b3a7640000828281518110611870576118706145aa565b60200260200101516102200151670de0b6b3a7640000848481518110611898576118986145aa565b60200260200101516101e001518585815181106118b7576118b76145aa565b602002602001015161014001516118ce91906148df565b6118d891906148fe565b6118e291906148df565b6118ec91906148fe565b6118f690846148b0565b92505b80611903816146aa565b9150506117c1565b50600080841161192a576ec097ce7bc90715b34b9f1000000000611947565b8361193d84670de0b6b3a76400006148df565b61194791906148fe565b90508a811161195e578561195a816146aa565b9650505b50505050808061196d906146aa565b9150506116f2565b506000816001600160401b0381111561199057611990613f3f565b6040519080825280602002602001820160405280156119f557816020015b6119e2604051806080016040528060006001600160a01b031681526020016000815260200160008152602001600081525090565b8152602001906001900390816119ae5790505b5090506000805b8451811015611cdc576000806000611ab98d8e6001600160a01b031663abfceffc8b8881518110611a2f57611a2f6145aa565b60200260200101516040518263ffffffff1660e01b8152600401611a6291906001600160a01b0391909116815260200190565b600060405180830381865afa158015611a7f573d6000803e3d6000fd5b505050506040513d6000823e601f3d908101601f19168201604052611aa791908101906145ed565b8a87815181106117af576117af6145aa565b905060005b8151811015611c0857670de0b6b3a7640000828281518110611ae257611ae26145aa565b60200260200101516101e00151838381518110611b0157611b016145aa565b60200260200101516101600151611b1891906148df565b611b2291906148fe565b611b2c90856148b0565b9350818181518110611b4057611b406145aa565b60200260200101516101a0015115611bf657670de0b6b3a7640000828281518110611b6d57611b6d6145aa565b60200260200101516102200151670de0b6b3a7640000848481518110611b9557611b956145aa565b60200260200101516101e00151858581518110611bb457611bb46145aa565b60200260200101516101400151611bcb91906148df565b611bd591906148fe565b611bdf91906148df565b611be991906148fe565b611bf390846148b0565b92505b80611c00816146aa565b915050611abe565b506000808411611c27576ec097ce7bc90715b34b9f1000000000611c44565b83611c3a84670de0b6b3a76400006148df565b611c4491906148fe565b90508c811115611c575750505050611cca565b60405180608001604052808a8781518110611c7457611c746145aa565b60200260200101516001600160a01b0316815260200185815260200184815260200182815250878781518110611cac57611cac6145aa565b60200260200101819052508580611cc2906146aa565b965050505050505b80611cd4816146aa565b9150506119fc565b5081896001600160a01b031663e87554466040518163ffffffff1660e01b8152600401602060405180830381865afa158015611d1c573d6000803e3d6000fd5b505050506040513d601f19601f82011682018060405250810190611d40919061467b565b8a6001600160a01b0316634ada90af6040518163ffffffff1660e01b8152600401602060405180830381865afa158015611d7e573d6000803e3d6000fd5b505050506040513d601f19601f82011682018060405250810190611da2919061467b565b965096509650505050509250925092565b6060806000600360009054906101000a90046001600160a01b03166001600160a01b031663d88ff1f46040518163ffffffff1660e01b8152600401600060405180830381865afa158015611e0b573d6000803e3d6000fd5b505050506040513d6000823e601f3d908101601f19168201604052611e339190810190614576565b90506000805b8251811015611f06576000838281518110611e5657611e566145aa565b6020026020010151604001519050806001600160a01b0316639b19251a886040518263ffffffff1660e01b8152600401611e9f91906001600160a01b0391909116815260200190565b602060405180830381865afa158015611ebc573d6000803e3d6000fd5b505050506040513d601f19601f82011682018060405250810190611ee091906145d0565b15611ef35782611eef816146aa565b9350505b5080611efe816146aa565b915050611e39565b506000816001600160401b03811115611f2157611f21613f3f565b604051908082528060200260200182016040528015611f4a578160200160208202803683370190505b5090506000826001600160401b03811115611f6757611f67613f3f565b604051908082528060200260200182016040528015611fa057816020015b611f8d6138b9565b815260200190600190039081611f855790505b5090506000805b85518110156108c7576000868281518110611fc457611fc46145aa565b6020026020010151604001519050806001600160a01b0316639b19251a8b6040518263ffffffff1660e01b815260040161200d91906001600160a01b0391909116815260200190565b602060405180830381865afa15801561202a573d6000803e3d6000fd5b505050506040513d601f19601f8201168201806040525081019061204e91906145d0565b156120bd5781858481518110612066576120666145aa565b602002602001018181525050868281518110612084576120846145aa565b602002602001015184848151811061209e5761209e6145aa565b602002602001018190525082806120b4906146aa565b935050506108c7565b50806120c8816146aa565b915050611fa7565b606080606080600080600360009054906101000a90046001600160a01b03166001600160a01b0316634ae26ea16040518163ffffffff1660e01b8152600401600060405180830381865afa15801561212c573d6000803e3d6000fd5b505050506040513d6000823e601f3d908101601f1916820160405261215491908101906146c5565b9150915060008061216483613072565b949993985096509294509092505050565b6003546040516310c51ddf60e11b8152821515600482015260609182918291829160009182916001600160a01b039091169063218a3bbe90602401610a11565b6060806060806060806000600360009054906101000a90046001600160a01b03166001600160a01b0316634ae26ea16040518163ffffffff1660e01b8152600401600060405180830381865afa158015612213573d6000803e3d6000fd5b505050506040513d6000823e601f3d908101601f1916820160405261223b91908101906146c5565b91505080516001600160401b0381111561225757612257613f3f565b604051908082528060200260200182016040528015612280578160200160208202803683370190505b50915060005b81518110156122e9578181815181106122a1576122a16145aa565b6020026020010151604001518382815181106122bf576122bf6145aa565b6001600160a01b0390921660209283029190910190910152806122e1816146aa565b915050612286565b50506000806000806122fb858c610a78565b979e929d50909b5099509497509395505050505050565b60606000805b84518110156123e1576000866001600160a01b0316638e8f294b878481518110612344576123446145aa565b60200260200101516040518263ffffffff1660e01b815260040161237791906001600160a01b0391909116815260200190565b6040805180830381865afa158015612393573d6000803e3d6000fd5b505050506040513d601f19601f820116820180604052508101906123b79190614882565b50905080156123ce57826123ca816146aa565b9350505b50806123d9816146aa565b915050612318565b506000816001600160401b038111156123fc576123fc613f3f565b60405190808252806020026020018201604052801561243557816020015b61242261397e565b81526020019060019003908161241a5790505b509050600080876001600160a01b0316637dc0d1d06040518163ffffffff1660e01b8152600401602060405180830381865afa158015612479573d6000803e3d6000fd5b505050506040513d601f19601f8201168201806040525081019061249d9190614865565b905060005b8751811015613065576000808a6001600160a01b0316638e8f294b8b85815181106124cf576124cf6145aa565b60200260200101516040518263ffffffff1660e01b815260040161250291906001600160a01b0391909116815260200190565b6040805180830381865afa15801561251e573d6000803e3d6000fd5b505050506040513d601f19601f820116820180604052508101906125429190614882565b9150915081612552575050613053565b61255a61397e565b60008b858151811061256e5761256e6145aa565b6020908102919091018101516001600160a01b03811680855260408051632b1e137760e21b81529051929450909263ac784ddc926004808401938290030181865afa1580156125c1573d6000803e3d6000fd5b505050506040513d601f19601f820116820180604052508101906125e591906145d0565b1561272957600180546125f7906143f6565b80601f0160208091040260200160405190810160405280929190818152602001828054612623906143f6565b80156126705780601f1061264557610100808354040283529160200191612670565b820191906000526020600020905b81548152906001019060200180831161265357829003601f168201915b505050505082604001819052506002805461268a906143f6565b80601f01602080910402602001604051908101604052809291908181526020018280546126b6906143f6565b80156127035780601f106126d857610100808354040283529160200191612703565b820191906000526020600020905b8154815290600101906020018083116126e657829003601f168201915b50505050506060830152601260808301526001600160a01b038b163160a083015261288f565b806001600160a01b0316636f307dc36040518163ffffffff1660e01b8152600401602060405180830381865afa158015612767573d6000803e3d6000fd5b505050506040513d601f19601f8201168201806040525081019061278b9190614865565b6001600160a01b0316602083018190526127a481613279565b84604001856060018290528290525050806001600160a01b031663313ce5676040518163ffffffff1660e01b8152600401602060405180830381865afa1580156127f2573d6000803e3d6000fd5b505050506040513d601f19601f8201168201806040525081019061281691906149b8565b60ff1660808401526040516370a0823160e01b81526001600160a01b038d811660048301528216906370a0823190602401602060405180830381865afa158015612864573d6000803e3d6000fd5b505050506040513d601f19601f82011682018060405250810190612888919061467b565b60a0840152505b806001600160a01b031663ae9d70b06040518163ffffffff1660e01b8152600401602060405180830381865afa1580156128cd573d6000803e3d6000fd5b505050506040513d601f19601f820116820180604052508101906128f1919061467b565b8260c0018181525050806001600160a01b031663f8f9da286040518163ffffffff1660e01b8152600401602060405180830381865afa158015612938573d6000803e3d6000fd5b505050506040513d601f19601f8201168201806040525081019061295c919061467b565b8260e0018181525050806001600160a01b0316633b1d21a26040518163ffffffff1660e01b8152600401602060405180830381865afa1580156129a3573d6000803e3d6000fd5b505050506040513d601f19601f820116820180604052508101906129c7919061467b565b82610180018181525050806001600160a01b03166373acee986040518163ffffffff1660e01b81526004016020604051808303816000875af1158015612a11573d6000803e3d6000fd5b505050506040513d601f19601f82011682018060405250810190612a35919061467b565b82610120018181525050806001600160a01b031663dc028ab16040518163ffffffff1660e01b8152600401602060405180830381865afa158015612a7d573d6000803e3d6000fd5b505050506040513d601f19601f82011682018060405250810190612aa1919061467b565b816001600160a01b03166361feacff6040518163ffffffff1660e01b8152600401602060405180830381865afa158015612adf573d6000803e3d6000fd5b505050506040513d601f19601f82011682018060405250810190612b03919061467b565b826001600160a01b0316638f840ddd6040518163ffffffff1660e01b8152600401602060405180830381865afa158015612b41573d6000803e3d6000fd5b505050506040513d601f19601f82011682018060405250810190612b65919061467b565b612b6f91906148b0565b612b7991906148b0565b826101200151836101800151612b8f91906148b0565b612b9991906148c8565b610100830152604051633af9e66960e01b81526001600160a01b038c81166004830152821690633af9e669906024016020604051808303816000875af1158015612be7573d6000803e3d6000fd5b505050506040513d601f19601f82011682018060405250810190612c0b919061467b565b6101408301526040516395dd919360e01b81526001600160a01b038c811660048301528216906395dd919390602401602060405180830381865afa158015612c57573d6000803e3d6000fd5b505050506040513d601f19601f82011682018060405250810190612c7b919061467b565b61016083015260405163929fe9a160e01b81526001600160a01b038c8116600483015282811660248301528e169063929fe9a190604401602060405180830381865afa158015612ccf573d6000803e3d6000fd5b505050506040513d601f19601f82011682018060405250810190612cf391906145d0565b15156101a08301526040805163182df0f560e01b815290516001600160a01b0383169163182df0f59160048083019260209291908290030181865afa158015612d40573d6000803e3d6000fd5b505050506040513d601f19601f82011682018060405250810190612d64919061467b565b6101c083015260405163fc57d4df60e01b81526001600160a01b03828116600483015287169063fc57d4df90602401602060405180830381865afa158015612db0573d6000803e3d6000fd5b505050506040513d601f19601f82011682018060405250810190612dd4919061467b565b6101e08301526001600160a01b038681166102008401819052602084015160405163addd509960e01b8152921660048301529063addd509990602401602060405180830381865afa925050508015612e49575060408051601f3d908101601f19168201909252612e4691810190614865565b60015b612e5257612e62565b6001600160a01b03166102008301525b8282610220018181525050806001600160a01b031663173b99046040518163ffffffff1660e01b8152600401602060405180830381865afa158015612eab573d6000803e3d6000fd5b505050506040513d601f19601f82011682018060405250810190612ecf919061467b565b82610240018181525050806001600160a01b0316638d02d9a16040518163ffffffff1660e01b8152600401602060405180830381865afa158015612f17573d6000803e3d6000fd5b505050506040513d601f19601f82011682018060405250810190612f3b919061467b565b82610260018181525050806001600160a01b031663dbfe7c196040518163ffffffff1660e01b8152600401602060405180830381865afa158015612f83573d6000803e3d6000fd5b505050506040513d601f19601f82011682018060405250810190612fa7919061467b565b610280830152604051636d154ea560e01b81526001600160a01b0382811660048301528e1690636d154ea590602401602060405180830381865afa158015612ff3573d6000803e3d6000fd5b505050506040513d601f19601f8201168201806040525081019061301791906145d0565b15156102a083015287518290899089908110613035576130356145aa565b6020026020010181905250868061304b906146aa565b975050505050505b8061305d816146aa565b9150506124a2565b5091979650505050505050565b606080600083516001600160401b0381111561309057613090613f3f565b6040519080825280602002602001820160405280156130f557816020015b6130e26040518060a00160405280600081526020016000815260200160608152602001606081526020016000151581525090565b8152602001906001900390816130ae5790505b509050600084516001600160401b0381111561311357613113613f3f565b60405190808252806020026020018201604052801561313c578160200160208202803683370190505b50905060005b855181101561326e57306001600160a01b03166359d2fea687838151811061316c5761316c6145aa565b6020026020010151604001516040518263ffffffff1660e01b81526004016131a391906001600160a01b0391909116815260200190565b6000604051808303816000875af19250505080156131e357506040513d6000823e601f3d908101601f191682016040526131e091908101906149db565b60015b6132105760018282815181106131fb576131fb6145aa565b9115156020928302919091019091015261325c565b6040518060a0016040528086815260200185815260200184815260200183815260200182151581525088878151811061324b5761324b6145aa565b602002602001018190525050505050505b80613266816146aa565b915050613142565b509094909350915050565b606080739f8f72aa9304c8b593d555f12ef6589cc3a579a26001600160a01b03841614156132e4576040518060400160405280600581526020016426b0b5b2b960d91b8152506040518060400160405280600381526020016226a5a960e91b81525091509150915091565b73b8c77482e45f1f44de1745f52c74426c631bdd526001600160a01b038416141561334a576040518060400160405280600381526020016221272160e91b8152506040518060400160405280600381526020016221272160e91b81525091509150915091565b60008390506000816001600160a01b03166306fdde036040518163ffffffff1660e01b8152600401600060405180830381865afa15801561338f573d6000803e3d6000fd5b505050506040513d6000823e601f3d908101601f191682016040526133b79190810190614ad6565b90506000826001600160a01b03166395d89b416040518163ffffffff1660e01b8152600401600060405180830381865afa1580156133f9573d6000803e3d6000fd5b505050506040513d6000823e601f3d908101601f191682016040526134219190810190614ad6565b9050856001600160a01b0316630dfe16816040518163ffffffff1660e01b8152600401602060405180830381865afa92505050801561347d575060408051601f3d908101601f1916820190925261347a91810190614865565b60015b613486576138ae565b604051692ab734b9bbb0b8102b1960b11b6020820152600090602a0160405160208183030381529060405280519060200120846040516020016134c99190614b0a565b6040516020818303038152906040528051906020012014801561353b5750604051652aa72496ab1960d11b602082015260260160405160208183030381529060405280519060200120836040516020016135239190614b0a565b60405160208183030381529060405280519060200120145b90506000811580156135a857506040517129bab9b434a9bbb0b8102628102a37b5b2b760711b602082015260320160405160208183030381529060405280519060200120856040516020016135909190614b0a565b60405160208183030381529060405280519060200120145b80156136005750604051620534c560ec1b602082015260230160405160208183030381529060405280519060200120846040516020016135e89190614b0a565b60405160208183030381529060405280519060200120145b9050818061360b5750805b156138aa57600083905060008a6001600160a01b031663d21220a76040518163ffffffff1660e01b8152600401602060405180830381865afa158015613655573d6000803e3d6000fd5b505050506040513d601f19601f820116820180604052508101906136799190614865565b9050826136a6576040518060400160405280600881526020016702ab734b9bbb0b8160c51b8152506136ca565b6040518060400160405280600a815260200169029bab9b434a9bbb0b8160b51b8152505b826001600160a01b03166395d89b416040518163ffffffff1660e01b8152600401600060405180830381865afa158015613708573d6000803e3d6000fd5b505050506040513d6000823e601f3d908101601f191682016040526137309190810190614ad6565b826001600160a01b03166395d89b416040518163ffffffff1660e01b8152600401600060405180830381865afa15801561376e573d6000803e3d6000fd5b505050506040513d6000823e601f3d908101601f191682016040526137969190810190614ad6565b6040516020016137a893929190614b26565b6040516020818303038152906040529650816001600160a01b03166395d89b416040518163ffffffff1660e01b8152600401600060405180830381865afa1580156137f7573d6000803e3d6000fd5b505050506040513d6000823e601f3d908101601f1916820160405261381f9190810190614ad6565b816001600160a01b03166395d89b416040518163ffffffff1660e01b8152600401600060405180830381865afa15801561385d573d6000803e3d6000fd5b505050506040513d6000823e601f3d908101601f191682016040526138859190810190614ad6565b604051602001613896929190614b86565b604051602081830303815290604052955050505b5050505b909590945092505050565b6040518060a001604052806060815260200160006001600160a01b0316815260200160006001600160a01b0316815260200160008152602001600081525090565b828054613906906143f6565b90600052602060002090601f016020900481019282613928576000855561396e565b82601f1061394157805160ff191683800117855561396e565b8280016001018555821561396e579182015b8281111561396e578251825591602001919060010190613953565b5061397a929150613a44565b5090565b604051806102c0016040528060006001600160a01b0316815260200160006001600160a01b031681526020016060815260200160608152602001600081526020016000815260200160008152602001600081526020016000815260200160008152602001600081526020016000815260200160008152602001600015158152602001600081526020016000815260200160006001600160a01b03168152602001600081526020016000815260200160008152602001600081526020016000151581525090565b5b8082111561397a5760008155600101613a45565b60005b83811015613a74578181015183820152602001613a5c565b8381111561166c5750506000910152565b60008151808452613a9d816020860160208601613a59565b601f01601f19169290920160200192915050565b602081526000613ac46020830184613a85565b9392505050565b6001600160a01b0381168114613ae057600080fd5b50565b600060208284031215613af557600080fd5b8135613ac481613acb565b600081518084526020808501945080840160005b83811015613b3057815187529582019590820190600101613b14565b509495945050505050565b600081518084526020808501808196508360051b8101915082860160005b85811015613065578284038952815160a08151818752613b7b82880182613a85565b838901516001600160a01b03908116898b01526040808601519091169089015260608085015190890152608093840151939097019290925250509784019790840190600101613b59565b604081526000613bd86040830185613b00565b8281036020840152613bea8185613b3b565b95945050505050565b60008060408385031215613c0657600080fd5b8235613c1181613acb565b91506020830135613c2181613acb565b809150509250929050565b60006020808301818452808551808352604092508286019150828160051b87010184880160005b83811015613d9e57888303603f19018552815180516001600160a01b031684526102c0818901516001600160a01b038116868b015250878201518189870152613c9e82870182613a85565b91505060608083015186830382880152613cb88382613a85565b6080858101519089015260a0808601519089015260c0808601519089015260e08086015190890152610100808601519089015261012080860151908901526101408086015190890152610160808601519089015261018080860151908901526101a0808601511515908901526101c080860151908901526101e08086015190890152610200808601516001600160a01b03169089015261022080860151908901526102408086015190890152610260808601519089015261028080860151908901526102a094850151151594909701939093525050509386019390860190600101613c53565b509098975050505050505050565b600081518084526020808501945080840160005b83811015613b305781516001600160a01b031687529582019590820190600101613dc0565b600081518084526020808501808196508360051b8101915082860160005b85811015613065578284038952613e1b848351613a85565b98850198935090840190600101613e03565b600081518084526020808501945080840160005b83811015613b30578151151587529582019590820190600101613e41565b60006080808352613e7281840188613b00565b602084820381860152613e858289613b3b565b91506040858303818701528288518085528385019150838160051b860101848b0160005b83811015613f1a57601f19888403018552815160a0815185528882015189860152878201518189870152613edf82870182613dac565b91505060608083015186830382880152613ef98382613de5565b938d01511515968d0196909652505094870194925090860190600101613ea9565b505088810360608a0152613f2e818b613e2d565b9d9c50505050505050505050505050565b634e487b7160e01b600052604160045260246000fd5b60405160a081016001600160401b0381118282101715613f7757613f77613f3f565b60405290565b604051608081016001600160401b0381118282101715613f7757613f77613f3f565b604051601f8201601f191681016001600160401b0381118282101715613fc757613fc7613f3f565b604052919050565b60006001600160401b03821115613fe857613fe8613f3f565b5060051b60200190565b6000806040838503121561400557600080fd5b82356001600160401b0381111561401b57600080fd5b8301601f8101851361402c57600080fd5b8035602061404161403c83613fcf565b613f9f565b82815260059290921b8301810191818101908884111561406057600080fd5b938201935b8385101561408757843561407881613acb565b82529382019390820190614065565b98969091013596505050505050565b600081518084526020808501945080840160005b83811015613b3057815180516001600160a01b0316885283810151848901526040808201519089015260609081015190880152608090960195908201906001016140aa565b600081518084526020808501808196508360051b8101915082860160005b85811015613065578284038952614125848351614096565b9885019893509084019060010161410d565b60808152600061414a60808301876140ef565b828103602084015261415c8187613b00565b905082810360408401526141708186613b00565b905082810360608401526141848185613e2d565b979650505050505050565b85815284602082015260a0604082015260006141ae60a0830186613dac565b82810360608401526141c08186613de5565b91505082151560808301529695505050505050565b60006001600160401b038211156141ee576141ee613f3f565b50601f01601f191660200190565b600082601f83011261420d57600080fd5b813561421b61403c826141d5565b81815284602083860101111561423057600080fd5b816020850160208301376000918101602001919091529392505050565b60008060006060848603121561426257600080fd5b833561426d81613acb565b925060208401356001600160401b038082111561428957600080fd5b614295878388016141fc565b935060408601359150808211156142ab57600080fd5b506142b8868287016141fc565b9150509250925092565b600080604083850312156142d557600080fd5b82356142e081613acb565b946020939093013593505050565b6060815260006143016060830186614096565b60208301949094525060400152919050565b8015158114613ae057600080fd5b60006020828403121561433357600080fd5b8135613ac481614313565b60006020828403121561435057600080fd5b5035919050565b60a0808252865190820181905260009060209060c0840190828a01845b828110156143995781516001600160a01b031684529284019290840190600101614374565b505050838103828501526143ad81896140ef565b91505082810360408401526143c28187613b00565b905082810360608401526143d68186613b00565b905082810360808401526143ea8185613e2d565b98975050505050505050565b600181811c9082168061440a57607f821691505b6020821081141561442b57634e487b7160e01b600052602260045260246000fd5b50919050565b600082601f83011261444257600080fd5b815161445061403c826141d5565b81815284602083860101111561446557600080fd5b610955826020830160208701613a59565b600082601f83011261448757600080fd5b8151602061449761403c83613fcf565b82815260059290921b840181019181810190868411156144b657600080fd5b8286015b8481101561456b5780516001600160401b03808211156144da5760008081fd5b9088019060a0828b03601f19018113156144f45760008081fd5b6144fc613f55565b878401518381111561450e5760008081fd5b61451c8d8a83880101614431565b825250604092508284015161453081613acb565b8189015260608481015161454381613acb565b93820193909352608084810151938201939093529201519082015283529183019183016144ba565b509695505050505050565b60006020828403121561458857600080fd5b81516001600160401b0381111561459e57600080fd5b61095584828501614476565b634e487b7160e01b600052603260045260246000fd5b80516145cb81614313565b919050565b6000602082840312156145e257600080fd5b8151613ac481614313565b6000602080838503121561460057600080fd5b82516001600160401b0381111561461657600080fd5b8301601f8101851361462757600080fd5b805161463561403c82613fcf565b81815260059190911b8201830190838101908783111561465457600080fd5b928401925b8284101561418457835161466c81613acb565b82529284019290840190614659565b60006020828403121561468d57600080fd5b5051919050565b634e487b7160e01b600052601160045260246000fd5b60006000198214156146be576146be614694565b5060010190565b600080604083850312156146d857600080fd5b82516001600160401b03808211156146ef57600080fd5b818501915085601f83011261470357600080fd5b8151602061471361403c83613fcf565b82815260059290921b8401810191818101908984111561473257600080fd5b948201945b8386101561475057855182529482019490820190614737565b9188015191965090935050508082111561476957600080fd5b5061477685828601614476565b9150509250929050565b6000806000606080858703121561479657600080fd5b84516001600160401b038111156147ac57600080fd5b8501601f810187136147bd57600080fd5b805160206147cd61403c83613fcf565b82815260079290921b8301810191818101908a8411156147ec57600080fd5b938201935b8385101561484a576080858c03121561480a5760008081fd5b614812613f7d565b855161481d81613acb565b815285840151848201526040808701519082015286860151878201528252608090940193908201906147f1565b91890151604090990151919a98995090979650505050505050565b60006020828403121561487757600080fd5b8151613ac481613acb565b6000806040838503121561489557600080fd5b82516148a081614313565b6020939093015192949293505050565b600082198211156148c3576148c3614694565b500190565b6000828210156148da576148da614694565b500390565b60008160001904831182151516156148f9576148f9614694565b500290565b60008261491b57634e487b7160e01b600052601260045260246000fd5b500490565b600082601f83011261493157600080fd5b8151602061494161403c83613fcf565b82815260059290921b8401810191818101908684111561496057600080fd5b8286015b8481101561456b57805161497781613acb565b8352918301918301614964565b60006020828403121561499657600080fd5b81516001600160401b038111156149ac57600080fd5b61095584828501614920565b6000602082840312156149ca57600080fd5b815160ff81168114613ac457600080fd5b600080600080600060a086880312156149f357600080fd5b85519450602080870151945060408701516001600160401b0380821115614a1957600080fd5b614a258a838b01614920565b95506060890151915080821115614a3b57600080fd5b818901915089601f830112614a4f57600080fd5b8151614a5d61403c82613fcf565b81815260059190911b8301840190848101908c831115614a7c57600080fd5b8585015b83811015614ab457805185811115614a985760008081fd5b614aa68f89838a0101614431565b845250918601918601614a80565b50809750505050505050614aca608087016145c0565b90509295509295909350565b600060208284031215614ae857600080fd5b81516001600160401b03811115614afe57600080fd5b61095584828501614431565b60008251614b1c818460208701613a59565b9190910192915050565b60008451614b38818460208901613a59565b845190830190614b4c818360208901613a59565b602f60f81b91019081528351614b69816001840160208801613a59565b620204c560ec1b6001929091019182015260040195945050505050565b60008351614b98818460208801613a59565b602d60f81b9083019081528351614bb6816001840160208801613a59565b0160010194935050505056fea2646970667358221220376ec0a90385225dcd9c4c4e600c0e61c486e0f95ec69f2bdc5c7417b522783d64736f6c634300080b0033",
  "devdoc": {
    "author": "David Lucid <david@rari.capital> (https://github.com/davidlucid)",
    "kind": "dev",
    "methods": {
      "getPoolAssetsByUser(address,address)": {
        "details": "This function is not designed to be called in a transaction: it is too gas-intensive."
      },
      "getPoolAssetsWithData(address)": {
        "details": "This function is not designed to be called in a transaction: it is too gas-intensive. Ideally, we can add the `view` modifier, but many cToken functions potentially modify the state.",
        "params": {
          "comptroller": "The Comptroller proxy contract of the Fuse pool."
        },
        "returns": {
          "_0": "An array of Fuse pool assets."
        }
      },
      "getPoolUsersWithData(address,uint256)": {
        "details": "This function is not designed to be called in a transaction: it is too gas-intensive. Ideally, we can add the `view` modifier, but many cToken functions potentially modify the state.",
        "params": {
          "comptroller": "The Comptroller proxy contract of the Fuse pool.",
          "maxHealth": "The maximum health (scaled by 1e18) for which to return data."
        },
        "returns": {
          "_0": "An array of Fuse pool users, the pool's close factor, and the pool's liquidation incentive."
        }
      },
      "getPoolUsersWithData(address[],uint256)": {
        "details": "This function is not designed to be called in a transaction: it is too gas-intensive. Ideally, we can add the `view` modifier, but many cToken functions potentially modify the state.",
        "params": {
          "comptrollers": "The Comptroller proxy contracts of the Fuse pools.",
          "maxHealth": "The maximum health (scaled by 1e18) for which to return data."
        },
        "returns": {
          "_0": "An array of arrays of Fuse pool users, an array of pools' close factors, an array of pools' liquidation incentives, and an array of booleans indicating if retrieving each pool's data failed."
        }
      },
      "getPoolsByAccountWithData(address)": {
        "details": "This function is not designed to be called in a transaction: it is too gas-intensive. Ideally, we can add the `view` modifier, but many cToken functions potentially modify the state."
      },
      "getPoolsBySupplier(address)": {
        "details": "This function is not designed to be called in a transaction: it is too gas-intensive."
      },
      "getPoolsBySupplierWithData(address)": {
        "details": "This function is not designed to be called in a transaction: it is too gas-intensive. Ideally, we can add the `view` modifier, but many cToken functions potentially modify the state."
      },
      "getPublicPoolUsersWithData(uint256)": {
        "details": "This function is not designed to be called in a transaction: it is too gas-intensive. Ideally, we can add the `view` modifier, but many cToken functions potentially modify the state.",
        "params": {
          "maxHealth": "The maximum health (scaled by 1e18) for which to return data."
        },
        "returns": {
          "_0": "An array of pools' Comptroller proxy addresses, an array of arrays of Fuse pool users, an array of pools' close factors, an array of pools' liquidation incentives, and an array of booleans indicating if retrieving each pool's data failed."
        }
      },
      "getPublicPoolsByVerificationWithData(bool)": {
        "details": "This function is not designed to be called in a transaction: it is too gas-intensive. Ideally, we can add the `view` modifier, but many cToken functions potentially modify the state."
      },
      "getPublicPoolsWithData()": {
        "details": "This function is not designed to be called in a transaction: it is too gas-intensive. Ideally, we can add the `view` modifier, but many cToken functions potentially modify the state."
      },
      "getWhitelistedPoolsByAccount(address)": {
        "details": "This function is not designed to be called in a transaction: it is too gas-intensive."
      },
      "getWhitelistedPoolsByAccountWithData(address)": {
        "details": "This function is not designed to be called in a transaction: it is too gas-intensive. Ideally, we can add the `view` modifier, but many cToken functions potentially modify the state."
      }
    },
    "title": "FusePoolLens",
    "version": 1
  },
  "userdoc": {
    "kind": "user",
    "methods": {
      "directory()": {
        "notice": "`FusePoolDirectory` contract object."
      },
      "getPoolAssetsByUser(address,address)": {
        "notice": "Returns arrays of FusePoolAsset for a specific user"
      },
      "getPoolAssetsWithData(address)": {
        "notice": "Returns the assets of the specified Fuse pool."
      },
      "getPoolSummary(address)": {
        "notice": "Returns total supply balance (in ETH), total borrow balance (in ETH), underlying token addresses, and underlying token symbols of a Fuse pool."
      },
      "getPoolUsersWithData(address,uint256)": {
        "notice": "Returns the borrowers of the specified Fuse pool."
      },
      "getPoolUsersWithData(address[],uint256)": {
        "notice": "Returns the users of the specified Fuse pools."
      },
      "getPoolsByAccountWithData(address)": {
        "notice": "Returns arrays of the indexes of Fuse pools created by `account`, data, total supply balances (in ETH), total borrow balances (in ETH), arrays of underlying token addresses, arrays of underlying asset symbols, and booleans indicating if retrieving each pool's data failed."
      },
      "getPoolsBySupplier(address)": {
        "notice": "Returns arrays of Fuse pool indexes and data supplied to by `account`."
      },
      "getPoolsBySupplierWithData(address)": {
        "notice": "Returns arrays of the indexes of Fuse pools supplied to by `account`, data, total supply balances (in ETH), total borrow balances (in ETH), arrays of underlying token addresses, arrays of underlying asset symbols, and booleans indicating if retrieving each pool's data failed."
      },
      "getPublicPoolUsersWithData(uint256)": {
        "notice": "Returns the users of each public Fuse pool."
      },
      "getPublicPoolsByVerificationWithData(bool)": {
        "notice": "Returns arrays of all whitelisted public Fuse pool indexes, data, total supply balances (in ETH), total borrow balances (in ETH), arrays of underlying token addresses, arrays of underlying asset symbols, and booleans indicating if retrieving each pool's data failed."
      },
      "getPublicPoolsWithData()": {
        "notice": "Returns arrays of all public Fuse pool indexes, data, total supply balances (in ETH), total borrow balances (in ETH), arrays of underlying token addresses, arrays of underlying asset symbols, and booleans indicating if retrieving each pool's data failed."
      },
      "getWhitelistedPoolsByAccount(address)": {
        "notice": "Returns arrays of Fuse pool indexes and data with a whitelist containing `account`. Note that the whitelist does not have to be enforced."
      },
      "getWhitelistedPoolsByAccountWithData(address)": {
        "notice": "Returns arrays of the indexes of Fuse pools with a whitelist containing `account`, data, total supply balances (in ETH), total borrow balances (in ETH), arrays of underlying token addresses, arrays of underlying asset symbols, and booleans indicating if retrieving each pool's data failed."
      },
      "initialize(address,string,string)": {
        "notice": "Constructor to set the `FusePoolDirectory` contract object."
      }
    },
    "notice": "FusePoolLens returns data on Fuse interest rate pools in mass for viewing by dApps, bots, etc.",
    "version": 1
  },
  "storageLayout": {
    "storage": [
      {
        "astId": 212,
        "contract": "contracts/FusePoolLens.sol:FusePoolLens",
        "label": "_initialized",
        "offset": 0,
        "slot": "0",
        "type": "t_bool"
      },
      {
        "astId": 215,
        "contract": "contracts/FusePoolLens.sol:FusePoolLens",
        "label": "_initializing",
        "offset": 1,
        "slot": "0",
        "type": "t_bool"
      },
      {
        "astId": 3550,
        "contract": "contracts/FusePoolLens.sol:FusePoolLens",
        "label": "name",
        "offset": 0,
        "slot": "1",
        "type": "t_string_storage"
      },
      {
        "astId": 3552,
        "contract": "contracts/FusePoolLens.sol:FusePoolLens",
        "label": "symbol",
        "offset": 0,
        "slot": "2",
        "type": "t_string_storage"
      },
      {
        "astId": 3556,
        "contract": "contracts/FusePoolLens.sol:FusePoolLens",
        "label": "directory",
        "offset": 0,
        "slot": "3",
        "type": "t_contract(FusePoolDirectory)3494"
      }
    ],
    "types": {
      "t_bool": {
        "encoding": "inplace",
        "label": "bool",
        "numberOfBytes": "1"
      },
      "t_contract(FusePoolDirectory)3494": {
        "encoding": "inplace",
        "label": "contract FusePoolDirectory",
        "numberOfBytes": "20"
      },
      "t_string_storage": {
        "encoding": "bytes",
        "label": "string",
        "numberOfBytes": "32"
      }
    }
  }
}