{
  "address": "0x44269C5EF9954Ca2342bAA57Aec21A6DB95AF000",
  "abi": [
    {
      "inputs": [
        {
          "internalType": "address",
          "name": "_wtoken",
          "type": "address"
        }
      ],
      "stateMutability": "nonpayable",
      "type": "constructor"
    },
    {
      "inputs": [],
      "name": "MIN_TWAP_TIME",
      "outputs": [
        {
          "internalType": "uint256",
          "name": "",
          "type": "uint256"
        }
      ],
      "stateMutability": "view",
      "type": "function"
    },
    {
      "inputs": [],
      "name": "OBSERVATION_BUFFER",
      "outputs": [
        {
          "internalType": "uint8",
          "name": "",
          "type": "uint8"
        }
      ],
      "stateMutability": "view",
      "type": "function"
    },
    {
      "inputs": [
        {
          "internalType": "address",
          "name": "",
          "type": "address"
        }
      ],
      "name": "observationCount",
      "outputs": [
        {
          "internalType": "uint256",
          "name": "",
          "type": "uint256"
        }
      ],
      "stateMutability": "view",
      "type": "function"
    },
    {
      "inputs": [
        {
          "internalType": "address",
          "name": "",
          "type": "address"
        },
        {
          "internalType": "uint256",
          "name": "",
          "type": "uint256"
        }
      ],
      "name": "observations",
      "outputs": [
        {
          "internalType": "uint32",
          "name": "timestamp",
          "type": "uint32"
        },
        {
          "internalType": "uint256",
          "name": "price0Cumulative",
          "type": "uint256"
        },
        {
          "internalType": "uint256",
          "name": "price1Cumulative",
          "type": "uint256"
        }
      ],
      "stateMutability": "view",
      "type": "function"
    },
    {
      "inputs": [
        {
          "internalType": "address[]",
          "name": "tokenA",
          "type": "address[]"
        },
        {
          "internalType": "address[]",
          "name": "tokenB",
          "type": "address[]"
        },
        {
          "internalType": "address",
          "name": "factory",
          "type": "address"
        }
      ],
      "name": "pairsFor",
      "outputs": [
        {
          "internalType": "address[]",
          "name": "",
          "type": "address[]"
        }
      ],
      "stateMutability": "view",
      "type": "function"
    },
    {
      "inputs": [
        {
          "internalType": "address",
          "name": "underlying",
          "type": "address"
        },
        {
          "internalType": "address",
          "name": "baseToken",
          "type": "address"
        },
        {
          "internalType": "address",
          "name": "factory",
          "type": "address"
        }
      ],
      "name": "price",
      "outputs": [
        {
          "internalType": "uint256",
          "name": "",
          "type": "uint256"
        }
      ],
      "stateMutability": "view",
      "type": "function"
    },
    {
      "inputs": [
        {
          "internalType": "address",
          "name": "pair",
          "type": "address"
        }
      ],
      "name": "update",
      "outputs": [],
      "stateMutability": "nonpayable",
      "type": "function"
    },
    {
      "inputs": [
        {
          "internalType": "address[]",
          "name": "pairs",
          "type": "address[]"
        }
      ],
      "name": "update",
      "outputs": [],
      "stateMutability": "nonpayable",
      "type": "function"
    },
    {
      "inputs": [
        {
          "internalType": "address[]",
          "name": "pairs",
          "type": "address[]"
        },
        {
          "internalType": "address[]",
          "name": "baseTokens",
          "type": "address[]"
        },
        {
          "internalType": "uint256[]",
          "name": "minPeriods",
          "type": "uint256[]"
        },
        {
          "internalType": "uint256[]",
          "name": "deviationThresholds",
          "type": "uint256[]"
        }
      ],
      "name": "workable",
      "outputs": [
        {
          "internalType": "bool[]",
          "name": "",
          "type": "bool[]"
        }
      ],
      "stateMutability": "view",
      "type": "function"
    },
    {
      "inputs": [],
      "name": "wtoken",
      "outputs": [
        {
          "internalType": "address",
          "name": "",
          "type": "address"
        }
      ],
      "stateMutability": "view",
      "type": "function"
    }
  ],
  "transactionHash": "0xc69b5e2701303d95ed32a2b242af82a69b34b2283b402cc30ad4523e4bda18cb",
  "args": [
    "0xae13d989daC2f0dEbFf460aC112a837C89BAa7cd"
  ],
  "numDeployments": 4,
  "solcInputHash": "cec576f5aa63489edd4cc555b201bbbd",
  "bytecode": "0x60a060405234801561001057600080fd5b50604051611c4f380380611c4f83398101604081905261002f91610040565b6001600160a01b0316608052610070565b60006020828403121561005257600080fd5b81516001600160a01b038116811461006957600080fd5b9392505050565b608051611bc461008b60003960006101720152611bc46000f3fe608060405234801561001057600080fd5b506004361061009e5760003560e01c80638eb7938b116100665780638eb7938b1461013f5780639c0591c81461016d578063af8a9ba5146101ac578063b9b2e68f146101b5578063de555942146101c857600080fd5b806302459966146100a35780631c1b8772146100dd578063290ad26e146100f2578063317f17dc1461010c578063421cd20c1461011f575b600080fd5b6100b66100b13660046115de565b6101e8565b6040805163ffffffff90941684526020840192909252908201526060015b60405180910390f35b6100f06100eb36600461160a565b610225565b005b6100fa600481565b60405160ff90911681526020016100d4565b6100f061011a36600461167a565b61027b565b61013261012d3660046116bc565b610325565b6040516100d49190611740565b61015f61014d36600461160a565b60006020819052908152604090205481565b6040519081526020016100d4565b6101947f000000000000000000000000000000000000000000000000000000000000000081565b6040516001600160a01b0390911681526020016100d4565b61015f61038481565b61015f6101c336600461178d565b610504565b6101db6101d63660046117d8565b610654565b6040516100d4919061189c565b6001602052816000526040600020816004811061020457600080fd5b600302018054600182015460029092015463ffffffff909116935090915083565b61022e816107fa565b6102785760405162461bcd60e51b81526020600482015260166024820152752330b4b632b2103a37903ab83230ba32903830b4b91760511b60448201526064015b60405180910390fd5b50565b6000805b828110156102d2576102b684848381811061029c5761029c6118d6565b90506020020160208101906102b1919061160a565b6107fa565b156102c057600191505b806102ca81611902565b91505061027f565b50806103205760405162461bcd60e51b815260206004820152601e60248201527f4e6f2070616972732063616e20626520757064617465642028796574292e0000604482015260640161026f565b505050565b6060841580159061033557508483145b61039f5760405162461bcd60e51b815260206004820152603560248201527f546f6b656e206172726179206c656e67746873206d7573742062652065717561604482015274361030b7321033b932b0ba32b9103a3430b710181760591b606482015260840161026f565b60008567ffffffffffffffff8111156103ba576103ba61191d565b6040519080825280602002602001820160405280156103e3578160200160208202803683370190505b50905060005b868110156104f957836001600160a01b031663e6a43905898984818110610412576104126118d6565b9050602002016020810190610427919061160a565b888885818110610439576104396118d6565b905060200201602081019061044e919061160a565b6040516001600160e01b031960e085901b1681526001600160a01b03928316600482015291166024820152604401602060405180830381865afa158015610499573d6000803e3d6000fd5b505050506040513d601f19601f820116820180604052508101906104bd9190611933565b8282815181106104cf576104cf6118d6565b6001600160a01b0390921660209283029190910190910152806104f181611902565b9150506103e9565b509695505050505050565b60405163e6a4390560e01b81526001600160a01b0384811660048301528381166024830152600091829184169063e6a4390590604401602060405180830381865afa158015610557573d6000803e3d6000fd5b505050506040513d601f19601f8201168201806040525081019061057b9190611933565b90506000856001600160a01b031663313ce5676040518163ffffffff1660e01b8152600401602060405180830381865afa1580156105bd573d6000803e3d6000fd5b505050506040513d601f19601f820116820180604052508101906105e19190611950565b6105ef9060ff16600a611a57565b9050600160381b81600160381b876001600160a01b0316896001600160a01b0316106106235761061e85610a13565b61062c565b61062c85610c58565b6106369190611a79565b6106409190611a8d565b61064a9190611a79565b9695505050505050565b6060871580159061066457508786145b801561066f57508784145b801561067a57508782145b6106de5760405162461bcd60e51b815260206004820152602f60248201527f4172726179206c656e67746873206d75737420626520657175616c20616e642060448201526e33b932b0ba32b9103a3430b710181760891b606482015260840161026f565b60008867ffffffffffffffff8111156106f9576106f961191d565b604051908082528060200260200182016040528015610722578160200160208202803683370190505b50905060005b898110156107ec576107b88b8b83818110610745576107456118d6565b905060200201602081019061075a919061160a565b8a8a8481811061076c5761076c6118d6565b9050602002016020810190610781919061160a565b898985818110610793576107936118d6565b905060200201358888868181106107ac576107ac6118d6565b90506020020135610e9d565b8282815181106107ca576107ca6118d6565b91151560209283029190910190910152806107e481611902565b915050610728565b509998505050505050505050565b600061080582611020565b61081157506000919050565b6000826001600160a01b0316635909c0d56040518163ffffffff1660e01b8152600401602060405180830381865afa158015610851573d6000803e3d6000fd5b505050506040513d601f19601f820116820180604052508101906108759190611aac565b90506000836001600160a01b0316635a3d54936040518163ffffffff1660e01b8152600401602060405180830381865afa1580156108b7573d6000803e3d6000fd5b505050506040513d601f19601f820116820180604052508101906108db9190611aac565b90506000846001600160a01b0316630902f1ac6040518163ffffffff1660e01b8152600401606060405180830381865afa15801561091d573d6000803e3d6000fd5b505050506040513d601f19601f820116820180604052508101906109419190611ae1565b6040805160608101825263ffffffff8316815260208082018990528183018890526001600160a01b038b166000908152600182528381209181905292909220549295509350915061099490600490611b26565b600481106109a4576109a46118d6565b825160039190910291909101805463ffffffff191663ffffffff90921691909117815560208083015160018301556040928301516002909201919091556001600160a01b038716600090815290819052908120805491610a0383611902565b9091555060019695505050505050565b6001600160a01b03811660009081526020819052604081205480610a795760405162461bcd60e51b815260206004820152601d60248201527f4e6f206c656e6774682d312054574150206f62736572766174696f6e2e000000604482015260640161026f565b6001600160a01b0383166000908152600160208190526040822090600490610aa19085611b3a565b610aab9190611b26565b60048110610abb57610abb6118d6565b6040805160608101825260039290920292909201805463ffffffff1682526001810154602083015260020154918101919091529050610afc61038442611b3a565b815163ffffffff161115610bcf5760018211610b5a5760405162461bcd60e51b815260206004820152601d60248201527f4e6f206c656e6774682d322054574150206f62736572766174696f6e2e000000604482015260640161026f565b6001600160a01b03841660009081526001602052604090206004610b7f600285611b3a565b610b899190611b26565b60048110610b9957610b996118d6565b6040805160608101825260039290920292909201805463ffffffff16825260018101546020830152600201549181019190915290505b8051600090610be49063ffffffff1642611b3a565b9050610384811015610c295760405162461bcd60e51b815260206004820152600e60248201526d2130b2102a2ba0a8103a34b6b29760911b604482015260640161026f565b6000610c34866110ac565b8351909150610c499063ffffffff1642611b3a565b60408401516106409083611b3a565b6001600160a01b03811660009081526020819052604081205480610cbe5760405162461bcd60e51b815260206004820152601d60248201527f4e6f206c656e6774682d312054574150206f62736572766174696f6e2e000000604482015260640161026f565b6001600160a01b0383166000908152600160208190526040822090600490610ce69085611b3a565b610cf09190611b26565b60048110610d0057610d006118d6565b6040805160608101825260039290920292909201805463ffffffff1682526001810154602083015260020154918101919091529050610d4161038442611b3a565b815163ffffffff161115610e145760018211610d9f5760405162461bcd60e51b815260206004820152601d60248201527f4e6f206c656e6774682d322054574150206f62736572766174696f6e2e000000604482015260640161026f565b6001600160a01b03841660009081526001602052604090206004610dc4600285611b3a565b610dce9190611b26565b60048110610dde57610dde6118d6565b6040805160608101825260039290920292909201805463ffffffff16825260018101546020830152600201549181019190915290505b8051600090610e299063ffffffff1642611b3a565b9050610384811015610e6e5760405162461bcd60e51b815260206004820152600e60248201526d2130b2102a2ba0a8103a34b6b29760911b604482015260640161026f565b6000610e79866111ec565b8351909150610e8e9063ffffffff1642611b3a565b60208401516106409083611b3a565b6001600160a01b038416600090815260208190526040812054610ec257506001611018565b6000856001600160a01b0316630902f1ac6040518163ffffffff1660e01b8152600401606060405180830381865afa158015610f02573d6000803e3d6000fd5b505050506040513d601f19601f82011682018060405250810190610f269190611ae1565b92505050610384841015610f3c57610384610f3e565b835b6001600160a01b03871660009081526001602081815260408084209184905290922054600491610f6d91611b3a565b610f779190611b26565b60048110610f8757610f876118d6565b6003020154610f9c9063ffffffff1642611b3a565b118015610fff57506001600160a01b03861660009081526001602081815260408084209184905290922054600491610fd391611b3a565b610fdd9190611b26565b60048110610fed57610fed6118d6565b600302015463ffffffff828116911614155b80156110145750826110118787611305565b10155b9150505b949350505050565b6001600160a01b03811660009081526020819052604081205415806110a657506001600160a01b0382166000908152600160208181526040808420918490529092205461038492916004916110759190611b3a565b61107f9190611b26565b6004811061108f5761108f6118d6565b60030201546110a49063ffffffff1642611b3a565b115b92915050565b600080429050826001600160a01b0316635a3d54936040518163ffffffff1660e01b8152600401602060405180830381865afa1580156110f0573d6000803e3d6000fd5b505050506040513d601f19601f820116820180604052508101906111149190611aac565b91506000806000856001600160a01b0316630902f1ac6040518163ffffffff1660e01b8152600401606060405180830381865afa158015611159573d6000803e3d6000fd5b505050506040513d601f19601f8201168201806040525081019061117d9190611ae1565b92506001600160701b031692506001600160701b031692508363ffffffff168163ffffffff16146111e35760006111b48286611b51565b905063ffffffff81166111cb84607087901b611a79565b6111d59190611a8d565b6111df9087611b76565b9550505b50505050919050565b600080429050826001600160a01b0316635909c0d56040518163ffffffff1660e01b8152600401602060405180830381865afa158015611230573d6000803e3d6000fd5b505050506040513d601f19601f820116820180604052508101906112549190611aac565b91506000806000856001600160a01b0316630902f1ac6040518163ffffffff1660e01b8152600401606060405180830381865afa158015611299573d6000803e3d6000fd5b505050506040513d601f19601f820116820180604052508101906112bd9190611ae1565b92506001600160701b031692506001600160701b03169250428163ffffffff16146111e35760006112ee8286611b51565b905063ffffffff81166111cb85607086901b611a79565b600080836001600160a01b0316630dfe16816040518163ffffffff1660e01b8152600401602060405180830381865afa158015611346573d6000803e3d6000fd5b505050506040513d601f19601f8201168201806040525081019061136a9190611933565b90506001600160a01b0380821690841614156000816113ea57856001600160a01b031663d21220a76040518163ffffffff1660e01b8152600401602060405180830381865afa1580156113c1573d6000803e3d6000fd5b505050506040513d601f19601f820116820180604052508101906113e59190611933565b6113ec565b825b90506000816001600160a01b031663313ce5676040518163ffffffff1660e01b8152600401602060405180830381865afa15801561142e573d6000803e3d6000fd5b505050506040513d601f19601f820116820180604052508101906114529190611950565b6114609060ff16600a611a57565b90506000600160381b82600160381b866114825761147d8b610a13565b61148b565b61148b8b610c58565b6114959190611a79565b61149f9190611a8d565b6114a99190611a79565b9050600080896001600160a01b0316630902f1ac6040518163ffffffff1660e01b8152600401606060405180830381865afa1580156114ec573d6000803e3d6000fd5b505050506040513d601f19601f820116820180604052508101906115109190611ae1565b506001600160701b031691506001600160701b0316915060008661154857816115398685611a8d565b6115439190611a79565b61155d565b826115538684611a8d565b61155d9190611a79565b905060008461157483670de0b6b3a7640000611a8d565b61157e9190611a79565b9050670de0b6b3a76400008110156115a7576115a281670de0b6b3a7640000611b3a565b6115b9565b6115b9670de0b6b3a764000082611b3a565b9c9b505050505050505050505050565b6001600160a01b038116811461027857600080fd5b600080604083850312156115f157600080fd5b82356115fc816115c9565b946020939093013593505050565b60006020828403121561161c57600080fd5b8135611627816115c9565b9392505050565b60008083601f84011261164057600080fd5b50813567ffffffffffffffff81111561165857600080fd5b6020830191508360208260051b850101111561167357600080fd5b9250929050565b6000806020838503121561168d57600080fd5b823567ffffffffffffffff8111156116a457600080fd5b6116b08582860161162e565b90969095509350505050565b6000806000806000606086880312156116d457600080fd5b853567ffffffffffffffff808211156116ec57600080fd5b6116f889838a0161162e565b9097509550602088013591508082111561171157600080fd5b5061171e8882890161162e565b9094509250506040860135611732816115c9565b809150509295509295909350565b6020808252825182820181905260009190848201906040850190845b818110156117815783516001600160a01b03168352928401929184019160010161175c565b50909695505050505050565b6000806000606084860312156117a257600080fd5b83356117ad816115c9565b925060208401356117bd816115c9565b915060408401356117cd816115c9565b809150509250925092565b6000806000806000806000806080898b0312156117f457600080fd5b883567ffffffffffffffff8082111561180c57600080fd5b6118188c838d0161162e565b909a50985060208b013591508082111561183157600080fd5b61183d8c838d0161162e565b909850965060408b013591508082111561185657600080fd5b6118628c838d0161162e565b909650945060608b013591508082111561187b57600080fd5b506118888b828c0161162e565b999c989b5096995094979396929594505050565b6020808252825182820181905260009190848201906040850190845b818110156117815783511515835292840192918401916001016118b8565b634e487b7160e01b600052603260045260246000fd5b634e487b7160e01b600052601160045260246000fd5b6000600019821415611916576119166118ec565b5060010190565b634e487b7160e01b600052604160045260246000fd5b60006020828403121561194557600080fd5b8151611627816115c9565b60006020828403121561196257600080fd5b815160ff8116811461162757600080fd5b600181815b808511156119ae578160001904821115611994576119946118ec565b808516156119a157918102915b93841c9390800290611978565b509250929050565b6000826119c5575060016110a6565b816119d2575060006110a6565b81600181146119e857600281146119f257611a0e565b60019150506110a6565b60ff841115611a0357611a036118ec565b50506001821b6110a6565b5060208310610133831016604e8410600b8410161715611a31575081810a6110a6565b611a3b8383611973565b8060001904821115611a4f57611a4f6118ec565b029392505050565b600061162783836119b6565b634e487b7160e01b600052601260045260246000fd5b600082611a8857611a88611a63565b500490565b6000816000190483118215151615611aa757611aa76118ec565b500290565b600060208284031215611abe57600080fd5b5051919050565b80516001600160701b0381168114611adc57600080fd5b919050565b600080600060608486031215611af657600080fd5b611aff84611ac5565b9250611b0d60208501611ac5565b9150604084015163ffffffff811681146117cd57600080fd5b600082611b3557611b35611a63565b500690565b600082821015611b4c57611b4c6118ec565b500390565b600063ffffffff83811690831681811015611b6e57611b6e6118ec565b039392505050565b60008219821115611b8957611b896118ec565b50019056fea26469706673582212202e095512b4808c3359c1bec055feeca6bca22980f086616bd99a0135bef8eb0564736f6c634300080b0033",
  "devdoc": {
    "author": "David Lucid <david@rari.capital> (https://github.com/davidlucid)",
    "kind": "dev",
    "methods": {
      "constructor": {
        "details": "Constructor to set wtoken address"
      },
      "price(address,address,address)": {
        "details": "Returns the price of `underlying` in terms of `baseToken` given `factory`."
      }
    },
    "stateVariables": {
      "MIN_TWAP_TIME": {
        "details": "Minimum TWAP interval."
      },
      "OBSERVATION_BUFFER": {
        "details": "Length after which observations roll over to index 0."
      },
      "observationCount": {
        "details": "Total observation count for each pair."
      },
      "observations": {
        "details": "Array of cumulative price observations for each pair."
      },
      "wtoken": {
        "details": "wtoken token contract address."
      }
    },
    "title": "UniswapTwapPriceOracleV2Root",
    "version": 1
  },
  "userdoc": {
    "kind": "user",
    "methods": {
      "pairsFor(address[],address[],address)": {
        "notice": "Get pairs for token combinations."
      },
      "update(address)": {
        "notice": "Update one pair."
      },
      "update(address[])": {
        "notice": "Update multiple pairs at once."
      },
      "workable(address[],address[],uint256[],uint256[])": {
        "notice": "Check which of multiple pairs are workable/updatable."
      }
    },
    "notice": "Stores cumulative prices and returns TWAPs for assets on Uniswap V2 pairs.",
    "version": 1
  },
  "storageLayout": {
    "storage": [
      {
        "astId": 40709,
        "contract": "contracts/oracles/default/UniswapTwapPriceOracleV2Root.sol:UniswapTwapPriceOracleV2Root",
        "label": "observationCount",
        "offset": 0,
        "slot": "0",
        "type": "t_mapping(t_address,t_uint256)"
      },
      {
        "astId": 40717,
        "contract": "contracts/oracles/default/UniswapTwapPriceOracleV2Root.sol:UniswapTwapPriceOracleV2Root",
        "label": "observations",
        "offset": 0,
        "slot": "1",
        "type": "t_mapping(t_address,t_array(t_struct(Observation)40700_storage)4_storage)"
      }
    ],
    "types": {
      "t_address": {
        "encoding": "inplace",
        "label": "address",
        "numberOfBytes": "20"
      },
      "t_array(t_struct(Observation)40700_storage)4_storage": {
        "base": "t_struct(Observation)40700_storage",
        "encoding": "inplace",
        "label": "struct UniswapTwapPriceOracleV2Root.Observation[4]",
        "numberOfBytes": "384"
      },
      "t_mapping(t_address,t_array(t_struct(Observation)40700_storage)4_storage)": {
        "encoding": "mapping",
        "key": "t_address",
        "label": "mapping(address => struct UniswapTwapPriceOracleV2Root.Observation[4])",
        "numberOfBytes": "32",
        "value": "t_array(t_struct(Observation)40700_storage)4_storage"
      },
      "t_mapping(t_address,t_uint256)": {
        "encoding": "mapping",
        "key": "t_address",
        "label": "mapping(address => uint256)",
        "numberOfBytes": "32",
        "value": "t_uint256"
      },
      "t_struct(Observation)40700_storage": {
        "encoding": "inplace",
        "label": "struct UniswapTwapPriceOracleV2Root.Observation",
        "members": [
          {
            "astId": 40695,
            "contract": "contracts/oracles/default/UniswapTwapPriceOracleV2Root.sol:UniswapTwapPriceOracleV2Root",
            "label": "timestamp",
            "offset": 0,
            "slot": "0",
            "type": "t_uint32"
          },
          {
            "astId": 40697,
            "contract": "contracts/oracles/default/UniswapTwapPriceOracleV2Root.sol:UniswapTwapPriceOracleV2Root",
            "label": "price0Cumulative",
            "offset": 0,
            "slot": "1",
            "type": "t_uint256"
          },
          {
            "astId": 40699,
            "contract": "contracts/oracles/default/UniswapTwapPriceOracleV2Root.sol:UniswapTwapPriceOracleV2Root",
            "label": "price1Cumulative",
            "offset": 0,
            "slot": "2",
            "type": "t_uint256"
          }
        ],
        "numberOfBytes": "96"
      },
      "t_uint256": {
        "encoding": "inplace",
        "label": "uint256",
        "numberOfBytes": "32"
      },
      "t_uint32": {
        "encoding": "inplace",
        "label": "uint32",
        "numberOfBytes": "4"
      }
    }
  }
}