{
  "address": "0x3948c90E3658A7a0940163Bc5a17aC16f414a110",
  "abi": [
    {
      "inputs": [],
      "name": "baseToken",
      "outputs": [
        {
          "internalType": "address",
          "name": "",
          "type": "address"
        }
      ],
      "stateMutability": "view",
      "type": "function"
    },
    {
      "inputs": [
        {
          "internalType": "contract ICToken",
          "name": "cToken",
          "type": "address"
        }
      ],
      "name": "getUnderlyingPrice",
      "outputs": [
        {
          "internalType": "uint256",
          "name": "",
          "type": "uint256"
        }
      ],
      "stateMutability": "view",
      "type": "function"
    },
    {
      "inputs": [
        {
          "internalType": "address",
          "name": "_rootOracle",
          "type": "address"
        },
        {
          "internalType": "address",
          "name": "_uniswapV2Factory",
          "type": "address"
        },
        {
          "internalType": "address",
          "name": "_baseToken",
          "type": "address"
        },
        {
          "internalType": "address",
          "name": "_wtoken",
          "type": "address"
        }
      ],
      "name": "initialize",
      "outputs": [],
      "stateMutability": "nonpayable",
      "type": "function"
    },
    {
      "inputs": [
        {
          "internalType": "address",
          "name": "underlying",
          "type": "address"
        }
      ],
      "name": "price",
      "outputs": [
        {
          "internalType": "uint256",
          "name": "",
          "type": "uint256"
        }
      ],
      "stateMutability": "view",
      "type": "function"
    },
    {
      "inputs": [],
      "name": "rootOracle",
      "outputs": [
        {
          "internalType": "contract UniswapTwapPriceOracleV2Root",
          "name": "",
          "type": "address"
        }
      ],
      "stateMutability": "view",
      "type": "function"
    },
    {
      "inputs": [],
      "name": "uniswapV2Factory",
      "outputs": [
        {
          "internalType": "address",
          "name": "",
          "type": "address"
        }
      ],
      "stateMutability": "view",
      "type": "function"
    },
    {
      "inputs": [],
      "name": "wtoken",
      "outputs": [
        {
          "internalType": "address",
          "name": "",
          "type": "address"
        }
      ],
      "stateMutability": "view",
      "type": "function"
    }
  ],
  "transactionHash": "0xe1b80e86dc74dcef6d0d2f8aebce24c69102fc576bfd0950f97ed3237b911cd7",
  "args": [],
  "numDeployments": 4,
  "solcInputHash": "cec576f5aa63489edd4cc555b201bbbd",
  "bytecode": "0x608060405234801561001057600080fd5b50610946806100206000396000f3fe608060405234801561001057600080fd5b506004361061007d5760003560e01c8063c55dae631161005b578063c55dae63146100ec578063e3cb23a5146100ff578063f8c8765e14610112578063fc57d4df1461012757600080fd5b806359d0f713146100825780639c0591c8146100b2578063aea91078146100cb575b600080fd5b600254610095906001600160a01b031681565b6040516001600160a01b0390911681526020015b60405180910390f35b600054610095906201000090046001600160a01b031681565b6100de6100d93660046106d5565b61013a565b6040519081526020016100a9565b600354610095906001600160a01b031681565b600154610095906001600160a01b031681565b6101256101203660046106f2565b61014b565b005b6100de6101353660046106d5565b610355565b6000610145826104d5565b92915050565b600054610100900460ff166101665760005460ff161561016a565b303b155b6101d25760405162461bcd60e51b815260206004820152602e60248201527f496e697469616c697a61626c653a20636f6e747261637420697320616c72656160448201526d191e481a5b9a5d1a585b1a5e995960921b60648201526084015b60405180910390fd5b600054610100900460ff161580156101f4576000805461ffff19166101011790555b6001600160a01b03851661025c5760405162461bcd60e51b815260206004820152602960248201527f556e69737761705477617050726963654f7261636c655632526f6f74206e6f74604482015268103232b334b732b21760b91b60648201526084016101c9565b6001600160a01b0384166102b25760405162461bcd60e51b815260206004820152601d60248201527f556e69737761705632466163746f7279206e6f7420646566696e65642e00000060448201526064016101c9565b600180546001600160a01b03199081166001600160a01b0388811691909117909255600280549091168683161790556000805462010000600160b01b0319166201000085841602179055831615610309578261031c565b6000546201000090046001600160a01b03165b600380546001600160a01b0319166001600160a01b0392909216919091179055801561034e576000805461ff00191690555b5050505050565b6000816001600160a01b031663ac784ddc6040518163ffffffff1660e01b8152600401602060405180830381865afa158015610395573d6000803e3d6000fd5b505050506040513d601f19601f820116820180604052508101906103b9919061074e565b156103cd5750670de0b6b3a7640000919050565b6000826001600160a01b0316636f307dc36040518163ffffffff1660e01b8152600401602060405180830381865afa15801561040d573d6000803e3d6000fd5b505050506040513d601f19601f820116820180604052508101906104319190610770565b90506000816001600160a01b031663313ce5676040518163ffffffff1660e01b8152600401602060405180830381865afa158015610473573d6000803e3d6000fd5b505050506040513d601f19601f82011682018060405250810190610497919061078d565b6104a59060ff16600a6108aa565b9050806104b1836104d5565b6104c390670de0b6b3a76400006108b6565b6104cd91906108d5565b949350505050565b600080546001600160a01b03838116620100009092041614156105015750670de0b6b3a7640000919050565b60015460035460025460405163b9b2e68f60e01b81526001600160a01b03868116600483015292831660248201529082166044820152600092919091169063b9b2e68f90606401602060405180830381865afa158015610565573d6000803e3d6000fd5b505050506040513d601f19601f8201168201806040525081019061058991906108f7565b6000546003549192506201000090046001600160a01b039081169116146106b457600360009054906101000a90046001600160a01b03166001600160a01b031663313ce5676040518163ffffffff1660e01b8152600401602060405180830381865afa1580156105fd573d6000803e3d6000fd5b505050506040513d601f19601f82011682018060405250810190610621919061078d565b61062f9060ff16600a6108aa565b6003546040516315d5220f60e31b81526001600160a01b039091166004820152339063aea9107890602401602060405180830381865afa158015610677573d6000803e3d6000fd5b505050506040513d601f19601f8201168201806040525081019061069b91906108f7565b6106a590836108b6565b6106af91906108d5565b6106b6565b805b9392505050565b6001600160a01b03811681146106d257600080fd5b50565b6000602082840312156106e757600080fd5b81356106b6816106bd565b6000806000806080858703121561070857600080fd5b8435610713816106bd565b93506020850135610723816106bd565b92506040850135610733816106bd565b91506060850135610743816106bd565b939692955090935050565b60006020828403121561076057600080fd5b815180151581146106b657600080fd5b60006020828403121561078257600080fd5b81516106b6816106bd565b60006020828403121561079f57600080fd5b815160ff811681146106b657600080fd5b634e487b7160e01b600052601160045260246000fd5b600181815b808511156108015781600019048211156107e7576107e76107b0565b808516156107f457918102915b93841c93908002906107cb565b509250929050565b60008261081857506001610145565b8161082557506000610145565b816001811461083b576002811461084557610861565b6001915050610145565b60ff841115610856576108566107b0565b50506001821b610145565b5060208310610133831016604e8410600b8410161715610884575081810a610145565b61088e83836107c6565b80600019048211156108a2576108a26107b0565b029392505050565b60006106b68383610809565b60008160001904831182151516156108d0576108d06107b0565b500290565b6000826108f257634e487b7160e01b600052601260045260246000fd5b500490565b60006020828403121561090957600080fd5b505191905056fea2646970667358221220c65870ff8d780363bf3da0bfa7e3239ebc68ef08fa8fbd9859eef542b86b8d6d64736f6c634300080b0033",
  "devdoc": {
    "author": "David Lucid <david@rari.capital> (https://github.com/davidlucid)",
    "details": "Implements `PriceOracle` and `BasePriceOracle`.",
    "kind": "dev",
    "methods": {
      "getUnderlyingPrice(address)": {
        "details": "Implements the `PriceOracle` interface for Fuse pools (and Compound v2).",
        "returns": {
          "_0": "Price in ETH of the token underlying `cToken`, scaled by `10 ** (36 - underlyingDecimals)`."
        }
      },
      "initialize(address,address,address,address)": {
        "details": "Constructor that sets the UniswapTwapPriceOracleV2Root, UniswapV2Factory, and base token."
      },
      "price(address)": {
        "details": "Returns the price in ETH of `underlying` (implements `BasePriceOracle`)."
      }
    },
    "stateVariables": {
      "baseToken": {
        "details": "The token on which to base TWAPs (its price must be available via `msg.sender`)."
      },
      "rootOracle": {
        "details": "UniswapTwapPriceOracleV2Root contract address."
      },
      "uniswapV2Factory": {
        "details": "UniswapV2Factory contract address."
      },
      "wtoken": {
        "details": "wtoken token contract address."
      }
    },
    "title": "UniswapTwapPriceOracleV2",
    "version": 1
  },
  "userdoc": {
    "kind": "user",
    "methods": {
      "getUnderlyingPrice(address)": {
        "notice": "Returns the price in ETH of the token underlying `cToken`."
      }
    },
    "notice": "Stores cumulative prices and returns TWAPs for assets on Uniswap V2 pairs.",
    "version": 1
  },
  "storageLayout": {
    "storage": [
      {
        "astId": 212,
        "contract": "contracts/oracles/default/UniswapTwapPriceOracleV2.sol:UniswapTwapPriceOracleV2",
        "label": "_initialized",
        "offset": 0,
        "slot": "0",
        "type": "t_bool"
      },
      {
        "astId": 215,
        "contract": "contracts/oracles/default/UniswapTwapPriceOracleV2.sol:UniswapTwapPriceOracleV2",
        "label": "_initializing",
        "offset": 1,
        "slot": "0",
        "type": "t_bool"
      },
      {
        "astId": 39939,
        "contract": "contracts/oracles/default/UniswapTwapPriceOracleV2.sol:UniswapTwapPriceOracleV2",
        "label": "wtoken",
        "offset": 2,
        "slot": "0",
        "type": "t_address"
      },
      {
        "astId": 39943,
        "contract": "contracts/oracles/default/UniswapTwapPriceOracleV2.sol:UniswapTwapPriceOracleV2",
        "label": "rootOracle",
        "offset": 0,
        "slot": "1",
        "type": "t_contract(UniswapTwapPriceOracleV2Root)41234"
      },
      {
        "astId": 39946,
        "contract": "contracts/oracles/default/UniswapTwapPriceOracleV2.sol:UniswapTwapPriceOracleV2",
        "label": "uniswapV2Factory",
        "offset": 0,
        "slot": "2",
        "type": "t_address"
      },
      {
        "astId": 39949,
        "contract": "contracts/oracles/default/UniswapTwapPriceOracleV2.sol:UniswapTwapPriceOracleV2",
        "label": "baseToken",
        "offset": 0,
        "slot": "3",
        "type": "t_address"
      }
    ],
    "types": {
      "t_address": {
        "encoding": "inplace",
        "label": "address",
        "numberOfBytes": "20"
      },
      "t_bool": {
        "encoding": "inplace",
        "label": "bool",
        "numberOfBytes": "1"
      },
      "t_contract(UniswapTwapPriceOracleV2Root)41234": {
        "encoding": "inplace",
        "label": "contract UniswapTwapPriceOracleV2Root",
        "numberOfBytes": "20"
      }
    }
  }
}