{
  "abi": [
    {
      "anonymous": false,
      "inputs": [
        {
          "indexed": false,
          "internalType": "uint256",
          "name": "cashPrior",
          "type": "uint256"
        },
        {
          "indexed": false,
          "internalType": "uint256",
          "name": "interestAccumulated",
          "type": "uint256"
        },
        {
          "indexed": false,
          "internalType": "uint256",
          "name": "borrowIndex",
          "type": "uint256"
        },
        {
          "indexed": false,
          "internalType": "uint256",
          "name": "totalBorrows",
          "type": "uint256"
        }
      ],
      "name": "AccrueInterest",
      "type": "event"
    },
    {
      "anonymous": false,
      "inputs": [
        {
          "indexed": true,
          "internalType": "address",
          "name": "owner",
          "type": "address"
        },
        {
          "indexed": true,
          "internalType": "address",
          "name": "spender",
          "type": "address"
        },
        {
          "indexed": false,
          "internalType": "uint256",
          "name": "amount",
          "type": "uint256"
        }
      ],
      "name": "Approval",
      "type": "event"
    },
    {
      "anonymous": false,
      "inputs": [
        {
          "indexed": false,
          "internalType": "address",
          "name": "borrower",
          "type": "address"
        },
        {
          "indexed": false,
          "internalType": "uint256",
          "name": "borrowAmount",
          "type": "uint256"
        },
        {
          "indexed": false,
          "internalType": "uint256",
          "name": "accountBorrows",
          "type": "uint256"
        },
        {
          "indexed": false,
          "internalType": "uint256",
          "name": "totalBorrows",
          "type": "uint256"
        }
      ],
      "name": "Borrow",
      "type": "event"
    },
    {
      "anonymous": false,
      "inputs": [
        {
          "indexed": false,
          "internalType": "uint256",
          "name": "error",
          "type": "uint256"
        },
        {
          "indexed": false,
          "internalType": "uint256",
          "name": "info",
          "type": "uint256"
        },
        {
          "indexed": false,
          "internalType": "uint256",
          "name": "detail",
          "type": "uint256"
        }
      ],
      "name": "Failure",
      "type": "event"
    },
    {
      "anonymous": false,
      "inputs": [
        {
          "indexed": false,
          "internalType": "address",
          "name": "liquidator",
          "type": "address"
        },
        {
          "indexed": false,
          "internalType": "address",
          "name": "borrower",
          "type": "address"
        },
        {
          "indexed": false,
          "internalType": "uint256",
          "name": "repayAmount",
          "type": "uint256"
        },
        {
          "indexed": false,
          "internalType": "address",
          "name": "cTokenCollateral",
          "type": "address"
        },
        {
          "indexed": false,
          "internalType": "uint256",
          "name": "seizeTokens",
          "type": "uint256"
        }
      ],
      "name": "LiquidateBorrow",
      "type": "event"
    },
    {
      "anonymous": false,
      "inputs": [
        {
          "indexed": false,
          "internalType": "address",
          "name": "minter",
          "type": "address"
        },
        {
          "indexed": false,
          "internalType": "uint256",
          "name": "mintAmount",
          "type": "uint256"
        },
        {
          "indexed": false,
          "internalType": "uint256",
          "name": "mintTokens",
          "type": "uint256"
        }
      ],
      "name": "Mint",
      "type": "event"
    },
    {
      "anonymous": false,
      "inputs": [
        {
          "indexed": false,
          "internalType": "uint256",
          "name": "oldAdminFeeMantissa",
          "type": "uint256"
        },
        {
          "indexed": false,
          "internalType": "uint256",
          "name": "newAdminFeeMantissa",
          "type": "uint256"
        }
      ],
      "name": "NewAdminFee",
      "type": "event"
    },
    {
      "anonymous": false,
      "inputs": [
        {
          "indexed": false,
          "internalType": "contract ComptrollerInterface",
          "name": "oldComptroller",
          "type": "address"
        },
        {
          "indexed": false,
          "internalType": "contract ComptrollerInterface",
          "name": "newComptroller",
          "type": "address"
        }
      ],
      "name": "NewComptroller",
      "type": "event"
    },
    {
      "anonymous": false,
      "inputs": [
        {
          "indexed": false,
          "internalType": "uint256",
          "name": "oldFuseFeeMantissa",
          "type": "uint256"
        },
        {
          "indexed": false,
          "internalType": "uint256",
          "name": "newFuseFeeMantissa",
          "type": "uint256"
        }
      ],
      "name": "NewFuseFee",
      "type": "event"
    },
    {
      "anonymous": false,
      "inputs": [
        {
          "indexed": false,
          "internalType": "contract InterestRateModel",
          "name": "oldInterestRateModel",
          "type": "address"
        },
        {
          "indexed": false,
          "internalType": "contract InterestRateModel",
          "name": "newInterestRateModel",
          "type": "address"
        }
      ],
      "name": "NewMarketInterestRateModel",
      "type": "event"
    },
    {
      "anonymous": false,
      "inputs": [
        {
          "indexed": false,
          "internalType": "uint256",
          "name": "oldReserveFactorMantissa",
          "type": "uint256"
        },
        {
          "indexed": false,
          "internalType": "uint256",
          "name": "newReserveFactorMantissa",
          "type": "uint256"
        }
      ],
      "name": "NewReserveFactor",
      "type": "event"
    },
    {
      "anonymous": false,
      "inputs": [
        {
          "indexed": false,
          "internalType": "address",
          "name": "redeemer",
          "type": "address"
        },
        {
          "indexed": false,
          "internalType": "uint256",
          "name": "redeemAmount",
          "type": "uint256"
        },
        {
          "indexed": false,
          "internalType": "uint256",
          "name": "redeemTokens",
          "type": "uint256"
        }
      ],
      "name": "Redeem",
      "type": "event"
    },
    {
      "anonymous": false,
      "inputs": [
        {
          "indexed": false,
          "internalType": "address",
          "name": "payer",
          "type": "address"
        },
        {
          "indexed": false,
          "internalType": "address",
          "name": "borrower",
          "type": "address"
        },
        {
          "indexed": false,
          "internalType": "uint256",
          "name": "repayAmount",
          "type": "uint256"
        },
        {
          "indexed": false,
          "internalType": "uint256",
          "name": "accountBorrows",
          "type": "uint256"
        },
        {
          "indexed": false,
          "internalType": "uint256",
          "name": "totalBorrows",
          "type": "uint256"
        }
      ],
      "name": "RepayBorrow",
      "type": "event"
    },
    {
      "anonymous": false,
      "inputs": [
        {
          "indexed": false,
          "internalType": "address",
          "name": "benefactor",
          "type": "address"
        },
        {
          "indexed": false,
          "internalType": "uint256",
          "name": "addAmount",
          "type": "uint256"
        },
        {
          "indexed": false,
          "internalType": "uint256",
          "name": "newTotalReserves",
          "type": "uint256"
        }
      ],
      "name": "ReservesAdded",
      "type": "event"
    },
    {
      "anonymous": false,
      "inputs": [
        {
          "indexed": false,
          "internalType": "address",
          "name": "admin",
          "type": "address"
        },
        {
          "indexed": false,
          "internalType": "uint256",
          "name": "reduceAmount",
          "type": "uint256"
        },
        {
          "indexed": false,
          "internalType": "uint256",
          "name": "newTotalReserves",
          "type": "uint256"
        }
      ],
      "name": "ReservesReduced",
      "type": "event"
    },
    {
      "anonymous": false,
      "inputs": [
        {
          "indexed": true,
          "internalType": "address",
          "name": "from",
          "type": "address"
        },
        {
          "indexed": true,
          "internalType": "address",
          "name": "to",
          "type": "address"
        },
        {
          "indexed": false,
          "internalType": "uint256",
          "name": "amount",
          "type": "uint256"
        }
      ],
      "name": "Transfer",
      "type": "event"
    },
    {
      "inputs": [
        {
          "internalType": "uint256",
          "name": "reduceAmount",
          "type": "uint256"
        }
      ],
      "name": "_reduceReserves",
      "outputs": [
        {
          "internalType": "uint256",
          "name": "",
          "type": "uint256"
        }
      ],
      "stateMutability": "nonpayable",
      "type": "function"
    },
    {
      "inputs": [
        {
          "internalType": "uint256",
          "name": "newAdminFeeMantissa",
          "type": "uint256"
        }
      ],
      "name": "_setAdminFee",
      "outputs": [
        {
          "internalType": "uint256",
          "name": "",
          "type": "uint256"
        }
      ],
      "stateMutability": "nonpayable",
      "type": "function"
    },
    {
      "inputs": [
        {
          "internalType": "contract InterestRateModel",
          "name": "newInterestRateModel",
          "type": "address"
        }
      ],
      "name": "_setInterestRateModel",
      "outputs": [
        {
          "internalType": "uint256",
          "name": "",
          "type": "uint256"
        }
      ],
      "stateMutability": "nonpayable",
      "type": "function"
    },
    {
      "inputs": [
        {
          "internalType": "string",
          "name": "_name",
          "type": "string"
        },
        {
          "internalType": "string",
          "name": "_symbol",
          "type": "string"
        }
      ],
      "name": "_setNameAndSymbol",
      "outputs": [],
      "stateMutability": "nonpayable",
      "type": "function"
    },
    {
      "inputs": [
        {
          "internalType": "uint256",
          "name": "newReserveFactorMantissa",
          "type": "uint256"
        }
      ],
      "name": "_setReserveFactor",
      "outputs": [
        {
          "internalType": "uint256",
          "name": "",
          "type": "uint256"
        }
      ],
      "stateMutability": "nonpayable",
      "type": "function"
    },
    {
      "inputs": [
        {
          "internalType": "uint256",
          "name": "withdrawAmount",
          "type": "uint256"
        }
      ],
      "name": "_withdrawAdminFees",
      "outputs": [
        {
          "internalType": "uint256",
          "name": "",
          "type": "uint256"
        }
      ],
      "stateMutability": "nonpayable",
      "type": "function"
    },
    {
      "inputs": [
        {
          "internalType": "uint256",
          "name": "withdrawAmount",
          "type": "uint256"
        }
      ],
      "name": "_withdrawFuseFees",
      "outputs": [
        {
          "internalType": "uint256",
          "name": "",
          "type": "uint256"
        }
      ],
      "stateMutability": "nonpayable",
      "type": "function"
    },
    {
      "inputs": [],
      "name": "accrualBlockNumber",
      "outputs": [
        {
          "internalType": "uint256",
          "name": "",
          "type": "uint256"
        }
      ],
      "stateMutability": "view",
      "type": "function"
    },
    {
      "inputs": [],
      "name": "accrueInterest",
      "outputs": [
        {
          "internalType": "uint256",
          "name": "",
          "type": "uint256"
        }
      ],
      "stateMutability": "nonpayable",
      "type": "function"
    },
    {
      "inputs": [],
      "name": "adminFeeMantissa",
      "outputs": [
        {
          "internalType": "uint256",
          "name": "",
          "type": "uint256"
        }
      ],
      "stateMutability": "view",
      "type": "function"
    },
    {
      "inputs": [
        {
          "internalType": "address",
          "name": "owner",
          "type": "address"
        },
        {
          "internalType": "address",
          "name": "spender",
          "type": "address"
        }
      ],
      "name": "allowance",
      "outputs": [
        {
          "internalType": "uint256",
          "name": "",
          "type": "uint256"
        }
      ],
      "stateMutability": "view",
      "type": "function"
    },
    {
      "inputs": [
        {
          "internalType": "address",
          "name": "spender",
          "type": "address"
        },
        {
          "internalType": "uint256",
          "name": "amount",
          "type": "uint256"
        }
      ],
      "name": "approve",
      "outputs": [
        {
          "internalType": "bool",
          "name": "",
          "type": "bool"
        }
      ],
      "stateMutability": "nonpayable",
      "type": "function"
    },
    {
      "inputs": [
        {
          "internalType": "address",
          "name": "owner",
          "type": "address"
        }
      ],
      "name": "balanceOf",
      "outputs": [
        {
          "internalType": "uint256",
          "name": "",
          "type": "uint256"
        }
      ],
      "stateMutability": "view",
      "type": "function"
    },
    {
      "inputs": [
        {
          "internalType": "address",
          "name": "owner",
          "type": "address"
        }
      ],
      "name": "balanceOfUnderlying",
      "outputs": [
        {
          "internalType": "uint256",
          "name": "",
          "type": "uint256"
        }
      ],
      "stateMutability": "nonpayable",
      "type": "function"
    },
    {
      "inputs": [
        {
          "internalType": "address",
          "name": "account",
          "type": "address"
        }
      ],
      "name": "borrowBalanceCurrent",
      "outputs": [
        {
          "internalType": "uint256",
          "name": "",
          "type": "uint256"
        }
      ],
      "stateMutability": "nonpayable",
      "type": "function"
    },
    {
      "inputs": [
        {
          "internalType": "address",
          "name": "account",
          "type": "address"
        }
      ],
      "name": "borrowBalanceStored",
      "outputs": [
        {
          "internalType": "uint256",
          "name": "",
          "type": "uint256"
        }
      ],
      "stateMutability": "view",
      "type": "function"
    },
    {
      "inputs": [],
      "name": "borrowIndex",
      "outputs": [
        {
          "internalType": "uint256",
          "name": "",
          "type": "uint256"
        }
      ],
      "stateMutability": "view",
      "type": "function"
    },
    {
      "inputs": [],
      "name": "borrowRatePerBlock",
      "outputs": [
        {
          "internalType": "uint256",
          "name": "",
          "type": "uint256"
        }
      ],
      "stateMutability": "view",
      "type": "function"
    },
    {
      "inputs": [],
      "name": "comptroller",
      "outputs": [
        {
          "internalType": "contract ComptrollerInterface",
          "name": "",
          "type": "address"
        }
      ],
      "stateMutability": "view",
      "type": "function"
    },
    {
      "inputs": [],
      "name": "decimals",
      "outputs": [
        {
          "internalType": "uint8",
          "name": "",
          "type": "uint8"
        }
      ],
      "stateMutability": "view",
      "type": "function"
    },
    {
      "inputs": [],
      "name": "exchangeRateCurrent",
      "outputs": [
        {
          "internalType": "uint256",
          "name": "",
          "type": "uint256"
        }
      ],
      "stateMutability": "nonpayable",
      "type": "function"
    },
    {
      "inputs": [],
      "name": "exchangeRateStored",
      "outputs": [
        {
          "internalType": "uint256",
          "name": "",
          "type": "uint256"
        }
      ],
      "stateMutability": "view",
      "type": "function"
    },
    {
      "inputs": [],
      "name": "feeSeizeShareMantissa",
      "outputs": [
        {
          "internalType": "uint256",
          "name": "",
          "type": "uint256"
        }
      ],
      "stateMutability": "view",
      "type": "function"
    },
    {
      "inputs": [],
      "name": "fuseAdmin",
      "outputs": [
        {
          "internalType": "address payable",
          "name": "",
          "type": "address"
        }
      ],
      "stateMutability": "view",
      "type": "function"
    },
    {
      "inputs": [],
      "name": "fuseFeeMantissa",
      "outputs": [
        {
          "internalType": "uint256",
          "name": "",
          "type": "uint256"
        }
      ],
      "stateMutability": "view",
      "type": "function"
    },
    {
      "inputs": [
        {
          "internalType": "address",
          "name": "account",
          "type": "address"
        }
      ],
      "name": "getAccountSnapshot",
      "outputs": [
        {
          "internalType": "uint256",
          "name": "",
          "type": "uint256"
        },
        {
          "internalType": "uint256",
          "name": "",
          "type": "uint256"
        },
        {
          "internalType": "uint256",
          "name": "",
          "type": "uint256"
        },
        {
          "internalType": "uint256",
          "name": "",
          "type": "uint256"
        }
      ],
      "stateMutability": "view",
      "type": "function"
    },
    {
      "inputs": [],
      "name": "getCash",
      "outputs": [
        {
          "internalType": "uint256",
          "name": "",
          "type": "uint256"
        }
      ],
      "stateMutability": "view",
      "type": "function"
    },
    {
      "inputs": [
        {
          "internalType": "contract ComptrollerInterface",
          "name": "comptroller_",
          "type": "address"
        },
        {
          "internalType": "address payable",
          "name": "fuseAdmin_",
          "type": "address"
        },
        {
          "internalType": "contract InterestRateModel",
          "name": "interestRateModel_",
          "type": "address"
        },
        {
          "internalType": "uint256",
          "name": "initialExchangeRateMantissa_",
          "type": "uint256"
        },
        {
          "internalType": "string",
          "name": "name_",
          "type": "string"
        },
        {
          "internalType": "string",
          "name": "symbol_",
          "type": "string"
        },
        {
          "internalType": "uint8",
          "name": "decimals_",
          "type": "uint8"
        },
        {
          "internalType": "uint256",
          "name": "reserveFactorMantissa_",
          "type": "uint256"
        },
        {
          "internalType": "uint256",
          "name": "adminFeeMantissa_",
          "type": "uint256"
        }
      ],
      "name": "initialize",
      "outputs": [],
      "stateMutability": "nonpayable",
      "type": "function"
    },
    {
      "inputs": [],
      "name": "interestRateModel",
      "outputs": [
        {
          "internalType": "contract InterestRateModel",
          "name": "",
          "type": "address"
        }
      ],
      "stateMutability": "view",
      "type": "function"
    },
    {
      "inputs": [],
      "name": "isCEther",
      "outputs": [
        {
          "internalType": "bool",
          "name": "",
          "type": "bool"
        }
      ],
      "stateMutability": "nonpayable",
      "type": "function"
    },
    {
      "inputs": [],
      "name": "isCToken",
      "outputs": [
        {
          "internalType": "bool",
          "name": "",
          "type": "bool"
        }
      ],
      "stateMutability": "nonpayable",
      "type": "function"
    },
    {
      "inputs": [],
      "name": "name",
      "outputs": [
        {
          "internalType": "string",
          "name": "",
          "type": "string"
        }
      ],
      "stateMutability": "view",
      "type": "function"
    },
    {
      "inputs": [],
      "name": "protocolSeizeShareMantissa",
      "outputs": [
        {
          "internalType": "uint256",
          "name": "",
          "type": "uint256"
        }
      ],
      "stateMutability": "view",
      "type": "function"
    },
    {
      "inputs": [],
      "name": "reserveFactorMantissa",
      "outputs": [
        {
          "internalType": "uint256",
          "name": "",
          "type": "uint256"
        }
      ],
      "stateMutability": "view",
      "type": "function"
    },
    {
      "inputs": [
        {
          "internalType": "address",
          "name": "liquidator",
          "type": "address"
        },
        {
          "internalType": "address",
          "name": "borrower",
          "type": "address"
        },
        {
          "internalType": "uint256",
          "name": "seizeTokens",
          "type": "uint256"
        }
      ],
      "name": "seize",
      "outputs": [
        {
          "internalType": "uint256",
          "name": "",
          "type": "uint256"
        }
      ],
      "stateMutability": "nonpayable",
      "type": "function"
    },
    {
      "inputs": [],
      "name": "supplyRatePerBlock",
      "outputs": [
        {
          "internalType": "uint256",
          "name": "",
          "type": "uint256"
        }
      ],
      "stateMutability": "view",
      "type": "function"
    },
    {
      "inputs": [],
      "name": "symbol",
      "outputs": [
        {
          "internalType": "string",
          "name": "",
          "type": "string"
        }
      ],
      "stateMutability": "view",
      "type": "function"
    },
    {
      "inputs": [],
      "name": "totalAdminFees",
      "outputs": [
        {
          "internalType": "uint256",
          "name": "",
          "type": "uint256"
        }
      ],
      "stateMutability": "view",
      "type": "function"
    },
    {
      "inputs": [],
      "name": "totalBorrows",
      "outputs": [
        {
          "internalType": "uint256",
          "name": "",
          "type": "uint256"
        }
      ],
      "stateMutability": "view",
      "type": "function"
    },
    {
      "inputs": [],
      "name": "totalBorrowsCurrent",
      "outputs": [
        {
          "internalType": "uint256",
          "name": "",
          "type": "uint256"
        }
      ],
      "stateMutability": "nonpayable",
      "type": "function"
    },
    {
      "inputs": [],
      "name": "totalFuseFees",
      "outputs": [
        {
          "internalType": "uint256",
          "name": "",
          "type": "uint256"
        }
      ],
      "stateMutability": "view",
      "type": "function"
    },
    {
      "inputs": [],
      "name": "totalReserves",
      "outputs": [
        {
          "internalType": "uint256",
          "name": "",
          "type": "uint256"
        }
      ],
      "stateMutability": "view",
      "type": "function"
    },
    {
      "inputs": [],
      "name": "totalSupply",
      "outputs": [
        {
          "internalType": "uint256",
          "name": "",
          "type": "uint256"
        }
      ],
      "stateMutability": "view",
      "type": "function"
    },
    {
      "inputs": [
        {
          "internalType": "address",
          "name": "dst",
          "type": "address"
        },
        {
          "internalType": "uint256",
          "name": "amount",
          "type": "uint256"
        }
      ],
      "name": "transfer",
      "outputs": [
        {
          "internalType": "bool",
          "name": "",
          "type": "bool"
        }
      ],
      "stateMutability": "nonpayable",
      "type": "function"
    },
    {
      "inputs": [
        {
          "internalType": "address",
          "name": "src",
          "type": "address"
        },
        {
          "internalType": "address",
          "name": "dst",
          "type": "address"
        },
        {
          "internalType": "uint256",
          "name": "amount",
          "type": "uint256"
        }
      ],
      "name": "transferFrom",
      "outputs": [
        {
          "internalType": "bool",
          "name": "",
          "type": "bool"
        }
      ],
      "stateMutability": "nonpayable",
      "type": "function"
    }
  ],
  "bytecode": {
    "object": "0x608060405234801561001057600080fd5b5061336c806100206000396000f3fe608060405234801561001057600080fd5b506004361061027f5760003560e01c80638f840ddd1161015c578063b2a02ff1116100ce578063dd62ed3e11610087578063dd62ed3e14610527578063f2b3abbd14610560578063f3fdb15a14610573578063f8f9da2814610586578063fca7820b1461058e578063fe9c44ae146105a157600080fd5b8063b2a02ff1146104b8578063bd6d894d146104cb578063be99f119146104d3578063c37f68e2146104e2578063dbfe7c1914610515578063dc028ab11461051e57600080fd5b8063a6afed9511610120578063a6afed9514610472578063a7b820df1461047a578063a9059cbb1461048d578063aa5af0fd146104a0578063ac784ddc146104a9578063ae9d70b0146104b057600080fd5b80638f840ddd1461042857806391dd36c61461043157806395d89b411461044457806395dd91931461044c578063a03dce8d1461045f57600080fd5b80633af9e669116101f557806361feacff116101b957806361feacff146103ce5780636752e702146103d75780636c540baf146103e557806370a08231146103ee57806373acee98146104175780638d02d9a11461041f57600080fd5b80633af9e669146103855780633b1d21a21461039857806347bd37181461039f5780635fe3b567146103a8578063601a0bf1146103bb57600080fd5b806318160ddd1161024757806318160ddd1461031a578063182df0f514610323578063219ef65c1461032b57806323b872dd14610340578063313ce5671461035357806334154d4c1461037257600080fd5b806306fdde0314610284578063095ea7b3146102a257806315761d51146102c5578063173b9904146102f057806317bfdfbc14610307575b600080fd5b61028c6105a8565b6040516102999190612e63565b60405180910390f35b6102b56102b0366004612eab565b610636565b6040519015158152602001610299565b6000546102d8906001600160a01b031681565b6040516001600160a01b039091168152602001610299565b6102f9600a5481565b604051908152602001610299565b6102f9610315366004612ed7565b6106a4565b6102f960115481565b6102f96106fb565b61033e610339366004612fb8565b610792565b005b6102b561034e366004613080565b610ac1565b6004546103609060ff1681565b60405160ff9091168152602001610299565b61033e610380366004613103565b610aef565b6102f9610393366004612ed7565b610b56565b60006102f9565b6102f9600d5481565b6005546102d8906001600160a01b031681565b6102f96103c936600461316f565b610c0b565b6102f9600f5481565b6102f9666379da05b6000081565b6102f9600b5481565b6102f96103fc366004612ed7565b6001600160a01b031660009081526012602052604090205490565b6102f9610c62565b6102f960085481565b6102f9600e5481565b6102f961043f36600461316f565b610ca7565b61028c610cea565b6102f961045a366004612ed7565b610cf7565b6102f961046d36600461316f565b610d98565b6102f9610ddb565b6102f961048836600461316f565b610f87565b6102b561049b366004612eab565b610fca565b6102f9600c5481565b60006102b5565b6102f9610ff7565b6102f96104c6366004613080565b6110b3565b6102f96110d7565b6102f967016345785d8a000081565b6104f56104f0366004612ed7565b61111d565b604080519485526020850193909352918301526060820152608001610299565b6102f960095481565b6102f960105481565b6102f9610535366004613188565b6001600160a01b03918216600090815260136020908152604080832093909416825291909152205490565b6102f961056e366004612ed7565b6111be565b6006546102d8906001600160a01b031681565b6102f96111f6565b6102f961059c36600461316f565b611253565b60016102b5565b600280546105b5906131c1565b80601f01602080910402602001604051908101604052809291908181526020018280546105e1906131c1565b801561062e5780601f106106035761010080835404028352916020019161062e565b820191906000526020600020905b81548152906001019060200180831161061157829003601f168201915b505050505081565b3360008181526013602090815260408083206001600160a01b03871680855292528083208590555191929182907f8c5be1e5ebec7d5bd14f71427d1e84f3dd0314c0f7b2291e5b200ac8c7c3b925906106929087815260200190565b60405180910390a35060019392505050565b6000806106b081611296565b60006106ba610ddb565b146106e05760405162461bcd60e51b81526004016106d79061320c565b60405180910390fd5b6106e983610cf7565b91505b6106f58161135a565b50919050565b60008060006107086113d9565b90925090506000826003811115610721576107216131f6565b1461078c5760405162461bcd60e51b815260206004820152603560248201527f65786368616e67655261746553746f7265643a2065786368616e67655261746560448201527414dd1bdc9959125b9d195c9b985b0819985a5b1959605a1b60648201526084016106d7565b92915050565b336001600160a01b038916146107fc5760405162461bcd60e51b815260206004820152602960248201527f6f6e6c7920467573652061646d696e206d617920696e697469616c697a6520746044820152681a19481b585c9ad95d60ba1b60648201526084016106d7565b600b5415801561080c5750600c54155b6108645760405162461bcd60e51b815260206004820152602360248201527f6d61726b6574206d6179206f6e6c7920626520696e697469616c697a6564206f6044820152626e636560e81b60648201526084016106d7565b600080546001600160a01b0319166001600160a01b038a161790556007869055856108ea5760405162461bcd60e51b815260206004820152603060248201527f696e697469616c2065786368616e67652072617465206d75737420626520677260448201526f32b0ba32b9103a3430b7103d32b9379760811b60648201526084016106d7565b60006108f58a61149b565b905080156109455760405162461bcd60e51b815260206004820152601a60248201527f73657474696e6720636f6d7074726f6c6c6572206661696c656400000000000060448201526064016106d7565b43600b55670de0b6b3a7640000600c5561095e886115c6565b905080156109b95760405162461bcd60e51b815260206004820152602260248201527f73657474696e6720696e7465726573742072617465206d6f64656c206661696c604482015261195960f21b60648201526084016106d7565b85516109cc906002906020890190612d2a565b5084516109e0906003906020880190612d2a565b506004805460ff191660ff86161790556109f983611836565b90508015610a495760405162461bcd60e51b815260206004820152601d60248201527f73657474696e67207265736572766520666163746f72206661696c656400000060448201526064016106d7565b610a52826118d5565b90508015610aa25760405162461bcd60e51b815260206004820152601860248201527f73657474696e672061646d696e20666565206661696c6564000000000000000060448201526064016106d7565b50506001805460ff60b01b1916600160b01b1790555050505050505050565b600080610acd81611296565b6000610adb338787876119ef565b149150610ae78161135a565b509392505050565b610af7611c9f565b610b365760405162461bcd60e51b815260206004820152601060248201526f31b0b63632b9103737ba1030b236b4b760811b60448201526064016106d7565b610b4260028585612daa565b50610b4f60038383612daa565b5050505050565b6000806040518060200160405280610b6c6110d7565b90526001600160a01b038416600090815260126020526040812054919250908190610b98908490611e0a565b90925090506000826003811115610bb157610bb16131f6565b14610bfe5760405162461bcd60e51b815260206004820152601f60248201527f62616c616e636520636f756c64206e6f742062652063616c63756c617465640060448201526064016106d7565b949350505050565b905090565b600080610c1781611296565b6000610c21610ddb565b90508015610c4d57610c45816011811115610c3e57610c3e6131f6565b603b611e5d565b9250506106ec565b610c5684611ed6565b9250506106f58161135a565b600080610c6e81611296565b6000610c78610ddb565b14610c955760405162461bcd60e51b81526004016106d79061320c565b600d549150610ca38161135a565b5090565b600080610cb381611296565b6000610cbd610ddb565b90508015610ce157610c45816011811115610cda57610cda6131f6565b6052611e5d565b610c56846118d5565b600380546105b5906131c1565b6000806000610d0584611f7f565b90925090506000826003811115610d1e57610d1e6131f6565b14610d915760405162461bcd60e51b815260206004820152603760248201527f626f72726f7742616c616e636553746f7265643a20626f72726f7742616c616e60448201527f636553746f726564496e7465726e616c206661696c656400000000000000000060648201526084016106d7565b9392505050565b600080610da481611296565b6000610dae610ddb565b90508015610dd257610c45816011811115610dcb57610dcb6131f6565b6033611e5d565b610c5684612038565b600b546000904390811415610df35760005b91505090565b600080600660009054906101000a90046001600160a01b03166001600160a01b03166315f2405383600d54610e37600e54610e32600f54601054612090565b612090565b6040516001600160e01b031960e086901b168152600481019390935260248301919091526044820152606401602060405180830381865afa158015610e80573d6000803e3d6000fd5b505050506040513d601f19601f82011682018060405250810190610ea4919061323c565b905065048c27395000811115610efc5760405162461bcd60e51b815260206004820152601c60248201527f626f72726f772072617465206973206162737572646c7920686967680000000060448201526064016106d7565b600080610f0b85600b546120c6565b90925090506000826003811115610f2457610f246131f6565b14610f715760405162461bcd60e51b815260206004820152601f60248201527f636f756c64206e6f742063616c63756c61746520626c6f636b2064656c74610060448201526064016106d7565b610f7d858585846120f1565b9550505050505090565b600080610f9381611296565b6000610f9d610ddb565b90508015610fc157610c45816011811115610fba57610fba6131f6565b6037611e5d565b610c568461221d565b600080610fd681611296565b6000610fe4333387876119ef565b149150610ff08161135a565b5092915050565b6006546000906001600160a01b031663b816881682600d54611023600e54610e32600f54601054612090565b600854600954600a54611036919061326b565b611040919061326b565b6040516001600160e01b031960e087901b16815260048101949094526024840192909252604483015260648201526084015b602060405180830381865afa15801561108f573d6000803e3d6000fd5b505050506040513d601f19601f82011682018060405250810190610c06919061323c565b600060016110c081611296565b6110cc338686866122ec565b9150610ae78161135a565b6000806110e381611296565b60006110ed610ddb565b1461110a5760405162461bcd60e51b81526004016106d79061320c565b6111126106fb565b9150610ca38161135a565b6001600160a01b03811660009081526012602052604081205481908190819081808061114889611f7f565b935090506000816003811115611160576111606131f6565b1461117e5760095b60008060009750975097509750505050506111b7565b6111866113d9565b92509050600081600381111561119e5761119e6131f6565b146111aa576009611168565b5060009650919450925090505b9193509193565b6000806111c9610ddb565b905080156111ed57610d918160118111156111e6576111e66131f6565b604b611e5d565b610d91836115c6565b6006546000906001600160a01b03166315f2405382600d54611222600e54610e32600f54601054612090565b6040516001600160e01b031960e086901b168152600481019390935260248301919091526044820152606401611072565b60008061125f81611296565b6000611269610ddb565b9050801561128d57610c45816011811115611286576112866131f6565b6059611e5d565b610c5684611836565b600154600160b01b900460ff166112dc5760405162461bcd60e51b815260206004820152600a6024820152691c994b595b9d195c995960b21b60448201526064016106d7565b8061134a57600560009054906101000a90046001600160a01b03166001600160a01b031663c90c20b16040518163ffffffff1660e01b8152600401600060405180830381600087803b15801561133157600080fd5b505af1158015611345573d6000803e3d6000fd5b505050505b506001805460ff60b01b19169055565b6001805460ff60b01b1916600160b01b179055806113d657600560009054906101000a90046001600160a01b03166001600160a01b031663632e51426040518163ffffffff1660e01b8152600401600060405180830381600087803b1580156113c257600080fd5b505af1158015610b4f573d6000803e3d6000fd5b50565b6011546000908190806113f3575050600754600092909150565b60008061140c6040518060200160405280600081525090565b600061142e84600d54611429600e54610e32600f54601054612090565b612814565b935090506000816003811115611446576114466131f6565b14611458579660009650945050505050565b6114628386612867565b92509050600081600381111561147a5761147a6131f6565b1461148c579660009650945050505050565b50516000969095509350505050565b600080600560009054906101000a90046001600160a01b03169050826001600160a01b0316627e3dd26040518163ffffffff1660e01b8152600401602060405180830381865afa1580156114f3573d6000803e3d6000fd5b505050506040513d601f19601f820116820180604052508101906115179190613283565b6115635760405162461bcd60e51b815260206004820152601c60248201527f6d61726b6572206d6574686f642072657475726e65642066616c73650000000060448201526064016106d7565b600580546001600160a01b0319166001600160a01b0385811691821790925560408051928416835260208301919091527f7ac369dbd14fa5ea3f473ed67cc9d598964a77501540ba6751eb0b3decf5870d91015b60405180910390a16000610d91565b6000806115d1611c9f565b6115e157610d916001604d611e5d565b43600b54146115f657610d91600a604c611e5d565b600660009054906101000a90046001600160a01b03169050826001600160a01b0316632191f92a6040518163ffffffff1660e01b8152600401602060405180830381865afa15801561164c573d6000803e3d6000fd5b505050506040513d601f19601f820116820180604052508101906116709190613283565b6116bc5760405162461bcd60e51b815260206004820152601c60248201527f6d61726b6572206d6574686f642072657475726e65642066616c73650000000060448201526064016106d7565b600680546001600160a01b0319166001600160a01b0385811691821790925560408051928416835260208301919091527fedffc32e068c7c95dfd4bdfd5c4d939a084d6b11c4199eac8436ed234d72f926910160405180910390a16001600160a01b038116156117aa5760408051600481526024810182526020810180516001600160e01b0316636cc1140b60e11b17905290516001600160a01b03831691611764916132a5565b6000604051808303816000865af19150503d80600081146117a1576040519150601f19603f3d011682016040523d82523d6000602084013e6117a6565b606091505b5050505b60408051600481526024810182526020810180516001600160e01b031663742a137b60e11b17905290516001600160a01b038516916117e8916132a5565b6000604051808303816000865af19150503d8060008114611825576040519150601f19603f3d011682016040523d82523d6000602084013e61182a565b606091505b5060009150610d919050565b6000611840611c9f565b6118505761078c6001605a611e5d565b43600b54146118655761078c600a605b611e5d565b670de0b6b3a764000061188561187d84600854612090565b600954612090565b11156118975761078c6002605c611e5d565b600a80549083905560408051828152602081018590527faaa68312e2ea9d50e16af5068410ab56e1a1fd06037b1a35664812c30f82146091016115b7565b600043600b54146118ec5761078c600a6054611e5d565b6000198214156118fc5760085491505b6000611906612932565b9050670de0b6b3a7640000611926611920600a5486612090565b83612090565b111561193857610d9160026055611e5d565b826008541461199c57611949611c9f565b61195957610d9160016053611e5d565b600880549084905560408051828152602081018690527fcdd0b588250e1398549f79cfdb8217c186688822905d6715b0834ea1c865594a910160405180910390a1505b80600954146119e857600980549082905560408051828152602081018490527f92eef861b6533b7d3417f39c2ad7b460eed4e88a32fa3604f30e718b7602e7dc910160405180910390a1505b6000610d91565b6005546040516317b9b84b60e31b81523060048201526001600160a01b038581166024830152848116604483015260648201849052600092839291169063bdcdc258906084016020604051808303816000875af1158015611a54573d6000803e3d6000fd5b505050506040513d601f19601f82011682018060405250810190611a78919061323c565b90508015611a9557611a8d6003605d83612986565b915050610bfe565b836001600160a01b0316856001600160a01b03161415611abb57611a8d6002605e611e5d565b6000856001600160a01b0316876001600160a01b03161415611ae05750600019611b08565b506001600160a01b038086166000908152601360209081526040808320938a16835292905220545b600080600080611b1885896120c6565b90945092506000846003811115611b3157611b316131f6565b14611b4f57611b426009605e611e5d565b9650505050505050610bfe565b6001600160a01b038a16600090815260126020526040902054611b7290896120c6565b90945091506000846003811115611b8b57611b8b6131f6565b14611b9c57611b426009605f611e5d565b6001600160a01b038916600090815260126020526040902054611bbf9089612a28565b90945090506000846003811115611bd857611bd86131f6565b14611be957611b4260096060611e5d565b6001600160a01b03808b16600090815260126020526040808220859055918b168152208190556000198514611c41576001600160a01b03808b166000908152601360209081526040808320938f168352929052208390555b886001600160a01b03168a6001600160a01b03167fddf252ad1be2c89b69c2b068fc378daa952ba7f163c4a11628f55a4df523b3ef8a604051611c8691815260200190565b60405180910390a35060009a9950505050505050505050565b600554604080516303e1469160e61b815290516000926001600160a01b031691829163f851a440916004808201926020929091908290030181865afa158015611cec573d6000803e3d6000fd5b505050506040513d601f19601f82011682018060405250810190611d1091906132c1565b6001600160a01b0316336001600160a01b0316148015611d8d5750806001600160a01b0316630a755ec26040518163ffffffff1660e01b8152600401602060405180830381865afa158015611d69573d6000803e3d6000fd5b505050506040513d601f19601f82011682018060405250810190611d8d9190613283565b80610ded57506000546001600160a01b031633148015610ded5750806001600160a01b0316632f1069ba6040518163ffffffff1660e01b8152600401602060405180830381865afa158015611de6573d6000803e3d6000fd5b505050506040513d601f19601f82011682018060405250810190610ded9190613283565b600080600080611e1a8686612a58565b90925090506000826003811115611e3357611e336131f6565b14611e445750915060009050611e56565b6000611e4f82612ad4565b9350935050505b9250929050565b60007f45b96fe442630264581b197e84bbada861235052c5a1aadfff9ea4e40a969aa0836011811115611e9257611e926131f6565b836063811115611ea457611ea46131f6565b60408051928352602083019190915260009082015260600160405180910390a1826011811115610d9157610d916131f6565b600080611ee1611c9f565b611ef157610d916001603c611e5d565b43600b5414611f0657610d91600a603e611e5d565b8215611f1857610d91600e603d611e5d565b600e54831115611f2e57610d916002603f611e5d565b611f3a600e5484612aec565b600e819055905060408051338152602081018590529081018290527f3bad0c59cf2f06e7314077049f48a93578cd16f5ef92329f1dab1420a99c177e906060016115b7565b6001600160a01b038116600090815260146020526040812080548291829182918291611fb45750600096879650945050505050565b611fc48160000154600c54612b26565b90945092506000846003811115611fdd57611fdd6131f6565b14611ff057509195600095509350505050565b611ffe838260010154612b70565b90945091506000846003811115612017576120176131f6565b1461202a57509195600095509350505050565b506000969095509350505050565b60008043600b541461205057610d91600a6035611e5d565b821561206257610d91600e6034611e5d565b60105483111561207857610d9160026036611e5d565b61208460105484612aec565b601081905590506119e8565b6000610d918383604051806040016040528060118152602001706164646974696f6e206f766572666c6f7760781b815250612b9b565b6000808383116120e55760006120dc84866132de565b91509150611e56565b50600390506000611e56565b60008061210c60405180602001604052808681525084612bd5565b9050600061211c82600d54612c06565b9050600061212c82600d54612090565b9050600061214d6040518060200160405280600a5481525084600e54612c1e565b9050600061216e604051806020016040528060095481525085601054612c1e565b9050600061218f604051806020016040528060085481525086600f54612c1e565b905060006121a287600c54600c54612c1e565b600b8d9055600c819055600d869055600e8590556010849055600f839055604080518d815260208101899052908101829052606081018790529091507f4dec04e750ca11537cabcd8a9eab06494de08da3735bc8871cd41250e190bc049060800160405180910390a160009c9b505050505050505050505050565b60008043600b541461223557610d91600a6039611e5d565b821561224757610d91600e6038611e5d565b600f5483111561225d57610d916002603a611e5d565b612269600f5484612aec565b905080600f819055506119e8600560009054906101000a90046001600160a01b03166001600160a01b031663f851a4406040518163ffffffff1660e01b8152600401602060405180830381865afa1580156122c8573d6000803e3d6000fd5b505050506040513d601f19601f820116820180604052508101906113d691906132c1565b60055460405163d02f735160e01b81523060048201526001600160a01b0386811660248301528581166044830152848116606483015260848201849052600092839291169063d02f73519060a4016020604051808303816000875af1158015612359573d6000803e3d6000fd5b505050506040513d601f19601f8201168201806040525081019061237d919061323c565b9050801561239257611a8d6003601d83612986565b846001600160a01b0316846001600160a01b031614156123b857611a8d6006601e611e5d565b61241d604080516101808101909152806000815260200160008152602001600081526020016000815260200160008152602001600081526020016000815260200160008152602001600081526020016000815260200160008152602001600081525090565b6001600160a01b03851660009081526012602052604090205461244090856120c6565b602083018190528282600381111561245a5761245a6131f6565b600381111561246b5761246b6131f6565b9052506000905081516003811115612485576124856131f6565b146124b5576124ac6009601c836000015160038111156124a7576124a76131f6565b612986565b92505050610bfe565b6124d4846040518060200160405280666379da05b60000815250612c48565b6080820152604080516020810190915267016345785d8a000081526124fa908590612c48565b610140820152608081015161251f90612514908690612aec565b826101400151612aec565b606082015261252c6113d9565b60c0830181905282826003811115612546576125466131f6565b6003811115612557576125576131f6565b9052506000905081516003811115612571576125716131f6565b146125be5760405162461bcd60e51b815260206004820152601860248201527f65786368616e67652072617465206d617468206572726f72000000000000000060448201526064016106d7565b6125de60405180602001604052808360c001518152508260800151612c06565b60a0820152604080516020810190915260c082015181526101408201516126059190612c06565b610160820152600e5460a082015161261d9190612090565b60e082015260115460808201516126379161251491612aec565b6101208201526010546101608201516126509190612090565b6101008201526001600160a01b038616600090815260126020526040902054606082015161267e9190612a28565b6040830181905282826003811115612698576126986131f6565b60038111156126a9576126a96131f6565b90525060009050815160038111156126c3576126c36131f6565b146126e5576124ac6009601b836000015160038111156124a7576124a76131f6565b60e0810151600e556101208101516011556101008101516010556020808201516001600160a01b0387811660008181526012855260408082209490945583860151928b16808252908490209290925560608501519251928352909290917fddf252ad1be2c89b69c2b068fc378daa952ba7f163c4a11628f55a4df523b3ef910160405180910390a3306001600160a01b0316856001600160a01b03167fddf252ad1be2c89b69c2b068fc378daa952ba7f163c4a11628f55a4df523b3ef83608001516040516127b691815260200190565b60405180910390a360a081015160e08201516040805130815260208101939093528201527fa91e67c5ea634cd43a12c5a482724b03de01e85ca68702a53d0c2f45cb7c1dc59060600160405180910390a16000979650505050505050565b6000806000806128248787612a28565b9092509050600082600381111561283d5761283d6131f6565b1461284e575091506000905061285f565b61285881866120c6565b9350935050505b935093915050565b600061287f6040518060200160405280600081525090565b60008061289486670de0b6b3a7640000612b26565b909250905060008260038111156128ad576128ad6131f6565b146128cc57506040805160208101909152600081529092509050611e56565b6000806128d98388612b70565b909250905060008260038111156128f2576128f26131f6565b146129155781604051806020016040528060008152509550955050505050611e56565b604080516020810190915290815260009890975095505050505050565b60008060009054906101000a90046001600160a01b03166001600160a01b031663dd86fea16040518163ffffffff1660e01b8152600401602060405180830381865afa15801561108f573d6000803e3d6000fd5b60007f45b96fe442630264581b197e84bbada861235052c5a1aadfff9ea4e40a969aa08460118111156129bb576129bb6131f6565b8460638111156129cd576129cd6131f6565b604080519283526020830191909152810184905260600160405180910390a16003846011811115612a0057612a006131f6565b14612a1c57836011811115612a1757612a176131f6565b610bfe565b610bfe826103e861326b565b60008080612a36848661326b565b9050848110612a4a57600092509050611e56565b600260009250925050611e56565b6000612a706040518060200160405280600081525090565b600080612a81866000015186612b26565b90925090506000826003811115612a9a57612a9a6131f6565b14612ab957506040805160208101909152600081529092509050611e56565b60408051602081019091529081526000969095509350505050565b805160009061078c90670de0b6b3a7640000906132f5565b6000610d918383604051806040016040528060158152602001747375627472616374696f6e20756e646572666c6f7760581b815250612c6b565b60008083612b3957506000905080611e56565b6000612b458486613317565b905083612b5286836132f5565b14612b6557600260009250925050611e56565b600092509050611e56565b60008082612b845750600190506000611e56565b6000612b9084866132f5565b915091509250929050565b600080612ba8848661326b565b90508285821015612bcc5760405162461bcd60e51b81526004016106d79190612e63565b50949350505050565b6040805160208101909152600081526040518060200160405280612bfd856000015185612c9a565b90529392505050565b600080612c138484612bd5565b9050610bfe81612ad4565b600080612c2b8585612bd5565b9050612c3f612c3982612ad4565b84612090565b95945050505050565b6000670de0b6b3a7640000612c61848460000151612c9a565b610d9191906132f5565b60008184841115612c8f5760405162461bcd60e51b81526004016106d79190612e63565b50610bfe83856132de565b6000610d9183836040518060400160405280601781526020017f6d756c7469706c69636174696f6e206f766572666c6f770000000000000000008152506000831580612ce4575082155b15612cf157506000610d91565b6000612cfd8486613317565b905083612d0a86836132f5565b148390612bcc5760405162461bcd60e51b81526004016106d79190612e63565b828054612d36906131c1565b90600052602060002090601f016020900481019282612d585760008555612d9e565b82601f10612d7157805160ff1916838001178555612d9e565b82800160010185558215612d9e579182015b82811115612d9e578251825591602001919060010190612d83565b50610ca3929150612e1e565b828054612db6906131c1565b90600052602060002090601f016020900481019282612dd85760008555612d9e565b82601f10612df15782800160ff19823516178555612d9e565b82800160010185558215612d9e579182015b82811115612d9e578235825591602001919060010190612e03565b5b80821115610ca35760008155600101612e1f565b60005b83811015612e4e578181015183820152602001612e36565b83811115612e5d576000848401525b50505050565b6020815260008251806020840152612e82816040850160208701612e33565b601f01601f19169190910160400192915050565b6001600160a01b03811681146113d657600080fd5b60008060408385031215612ebe57600080fd5b8235612ec981612e96565b946020939093013593505050565b600060208284031215612ee957600080fd5b8135610d9181612e96565b8035612eff81612e96565b919050565b634e487b7160e01b600052604160045260246000fd5b600082601f830112612f2b57600080fd5b813567ffffffffffffffff80821115612f4657612f46612f04565b604051601f8301601f19908116603f01168101908282118183101715612f6e57612f6e612f04565b81604052838152866020858801011115612f8757600080fd5b836020870160208301376000602085830101528094505050505092915050565b803560ff81168114612eff57600080fd5b60008060008060008060008060006101208a8c031215612fd757600080fd5b8935612fe281612e96565b985060208a0135612ff281612e96565b975061300060408b01612ef4565b965060608a0135955060808a013567ffffffffffffffff8082111561302457600080fd5b6130308d838e01612f1a565b965060a08c013591508082111561304657600080fd5b506130538c828d01612f1a565b94505061306260c08b01612fa7565b925060e08a013591506101008a013590509295985092959850929598565b60008060006060848603121561309557600080fd5b83356130a081612e96565b925060208401356130b081612e96565b929592945050506040919091013590565b60008083601f8401126130d357600080fd5b50813567ffffffffffffffff8111156130eb57600080fd5b602083019150836020828501011115611e5657600080fd5b6000806000806040858703121561311957600080fd5b843567ffffffffffffffff8082111561313157600080fd5b61313d888389016130c1565b9096509450602087013591508082111561315657600080fd5b50613163878288016130c1565b95989497509550505050565b60006020828403121561318157600080fd5b5035919050565b6000806040838503121561319b57600080fd5b82356131a681612e96565b915060208301356131b681612e96565b809150509250929050565b600181811c908216806131d557607f821691505b602082108114156106f557634e487b7160e01b600052602260045260246000fd5b634e487b7160e01b600052602160045260246000fd5b6020808252601690820152751858d8dc9d59481a5b9d195c995cdd0819985a5b195960521b604082015260600190565b60006020828403121561324e57600080fd5b5051919050565b634e487b7160e01b600052601160045260246000fd5b6000821982111561327e5761327e613255565b500190565b60006020828403121561329557600080fd5b81518015158114610d9157600080fd5b600082516132b7818460208701612e33565b9190910192915050565b6000602082840312156132d357600080fd5b8151610d9181612e96565b6000828210156132f0576132f0613255565b500390565b60008261331257634e487b7160e01b600052601260045260246000fd5b500490565b600081600019048311821515161561333157613331613255565b50029056fea2646970667358221220c206f1673f468bbaa1af3a379b09946eb9a994bee4d918f872f995f16336481064736f6c634300080a0033",
    "linkReferences": {}
  }
}