{
  "abi": [
    {
      "inputs": [
        {
          "internalType": "contract CToken",
          "name": "cToken",
          "type": "address"
        },
        {
          "internalType": "address",
          "name": "account",
          "type": "address"
        }
      ],
      "name": "cTokenBalances",
      "outputs": [
        {
          "components": [
            {
              "internalType": "address",
              "name": "cToken",
              "type": "address"
            },
            {
              "internalType": "uint256",
              "name": "balanceOf",
              "type": "uint256"
            },
            {
              "internalType": "uint256",
              "name": "borrowBalanceCurrent",
              "type": "uint256"
            },
            {
              "internalType": "uint256",
              "name": "balanceOfUnderlying",
              "type": "uint256"
            },
            {
              "internalType": "uint256",
              "name": "tokenBalance",
              "type": "uint256"
            },
            {
              "internalType": "uint256",
              "name": "tokenAllowance",
              "type": "uint256"
            }
          ],
          "internalType": "struct CompoundLens.CTokenBalances",
          "name": "",
          "type": "tuple"
        }
      ],
      "stateMutability": "nonpayable",
      "type": "function"
    },
    {
      "inputs": [
        {
          "internalType": "contract CToken[]",
          "name": "cTokens",
          "type": "address[]"
        },
        {
          "internalType": "address",
          "name": "account",
          "type": "address"
        }
      ],
      "name": "cTokenBalancesAll",
      "outputs": [
        {
          "components": [
            {
              "internalType": "address",
              "name": "cToken",
              "type": "address"
            },
            {
              "internalType": "uint256",
              "name": "balanceOf",
              "type": "uint256"
            },
            {
              "internalType": "uint256",
              "name": "borrowBalanceCurrent",
              "type": "uint256"
            },
            {
              "internalType": "uint256",
              "name": "balanceOfUnderlying",
              "type": "uint256"
            },
            {
              "internalType": "uint256",
              "name": "tokenBalance",
              "type": "uint256"
            },
            {
              "internalType": "uint256",
              "name": "tokenAllowance",
              "type": "uint256"
            }
          ],
          "internalType": "struct CompoundLens.CTokenBalances[]",
          "name": "",
          "type": "tuple[]"
        }
      ],
      "stateMutability": "nonpayable",
      "type": "function"
    },
    {
      "inputs": [
        {
          "internalType": "contract CToken",
          "name": "cToken",
          "type": "address"
        }
      ],
      "name": "cTokenMetadata",
      "outputs": [
        {
          "components": [
            {
              "internalType": "address",
              "name": "cToken",
              "type": "address"
            },
            {
              "internalType": "uint256",
              "name": "exchangeRateCurrent",
              "type": "uint256"
            },
            {
              "internalType": "uint256",
              "name": "supplyRatePerBlock",
              "type": "uint256"
            },
            {
              "internalType": "uint256",
              "name": "borrowRatePerBlock",
              "type": "uint256"
            },
            {
              "internalType": "uint256",
              "name": "reserveFactorMantissa",
              "type": "uint256"
            },
            {
              "internalType": "uint256",
              "name": "totalBorrows",
              "type": "uint256"
            },
            {
              "internalType": "uint256",
              "name": "totalReserves",
              "type": "uint256"
            },
            {
              "internalType": "uint256",
              "name": "totalSupply",
              "type": "uint256"
            },
            {
              "internalType": "uint256",
              "name": "totalCash",
              "type": "uint256"
            },
            {
              "internalType": "bool",
              "name": "isListed",
              "type": "bool"
            },
            {
              "internalType": "uint256",
              "name": "collateralFactorMantissa",
              "type": "uint256"
            },
            {
              "internalType": "address",
              "name": "underlyingAssetAddress",
              "type": "address"
            },
            {
              "internalType": "uint256",
              "name": "cTokenDecimals",
              "type": "uint256"
            },
            {
              "internalType": "uint256",
              "name": "underlyingDecimals",
              "type": "uint256"
            }
          ],
          "internalType": "struct CompoundLens.CTokenMetadata",
          "name": "",
          "type": "tuple"
        }
      ],
      "stateMutability": "nonpayable",
      "type": "function"
    },
    {
      "inputs": [
        {
          "internalType": "contract CToken[]",
          "name": "cTokens",
          "type": "address[]"
        }
      ],
      "name": "cTokenMetadataAll",
      "outputs": [
        {
          "components": [
            {
              "internalType": "address",
              "name": "cToken",
              "type": "address"
            },
            {
              "internalType": "uint256",
              "name": "exchangeRateCurrent",
              "type": "uint256"
            },
            {
              "internalType": "uint256",
              "name": "supplyRatePerBlock",
              "type": "uint256"
            },
            {
              "internalType": "uint256",
              "name": "borrowRatePerBlock",
              "type": "uint256"
            },
            {
              "internalType": "uint256",
              "name": "reserveFactorMantissa",
              "type": "uint256"
            },
            {
              "internalType": "uint256",
              "name": "totalBorrows",
              "type": "uint256"
            },
            {
              "internalType": "uint256",
              "name": "totalReserves",
              "type": "uint256"
            },
            {
              "internalType": "uint256",
              "name": "totalSupply",
              "type": "uint256"
            },
            {
              "internalType": "uint256",
              "name": "totalCash",
              "type": "uint256"
            },
            {
              "internalType": "bool",
              "name": "isListed",
              "type": "bool"
            },
            {
              "internalType": "uint256",
              "name": "collateralFactorMantissa",
              "type": "uint256"
            },
            {
              "internalType": "address",
              "name": "underlyingAssetAddress",
              "type": "address"
            },
            {
              "internalType": "uint256",
              "name": "cTokenDecimals",
              "type": "uint256"
            },
            {
              "internalType": "uint256",
              "name": "underlyingDecimals",
              "type": "uint256"
            }
          ],
          "internalType": "struct CompoundLens.CTokenMetadata[]",
          "name": "",
          "type": "tuple[]"
        }
      ],
      "stateMutability": "nonpayable",
      "type": "function"
    },
    {
      "inputs": [
        {
          "internalType": "contract CToken",
          "name": "cToken",
          "type": "address"
        }
      ],
      "name": "cTokenUnderlyingPrice",
      "outputs": [
        {
          "components": [
            {
              "internalType": "address",
              "name": "cToken",
              "type": "address"
            },
            {
              "internalType": "uint256",
              "name": "underlyingPrice",
              "type": "uint256"
            }
          ],
          "internalType": "struct CompoundLens.CTokenUnderlyingPrice",
          "name": "",
          "type": "tuple"
        }
      ],
      "stateMutability": "nonpayable",
      "type": "function"
    },
    {
      "inputs": [
        {
          "internalType": "contract CToken[]",
          "name": "cTokens",
          "type": "address[]"
        }
      ],
      "name": "cTokenUnderlyingPriceAll",
      "outputs": [
        {
          "components": [
            {
              "internalType": "address",
              "name": "cToken",
              "type": "address"
            },
            {
              "internalType": "uint256",
              "name": "underlyingPrice",
              "type": "uint256"
            }
          ],
          "internalType": "struct CompoundLens.CTokenUnderlyingPrice[]",
          "name": "",
          "type": "tuple[]"
        }
      ],
      "stateMutability": "nonpayable",
      "type": "function"
    },
    {
      "inputs": [
        {
          "internalType": "contract Comptroller",
          "name": "comptroller",
          "type": "address"
        },
        {
          "internalType": "address",
          "name": "account",
          "type": "address"
        }
      ],
      "name": "getAccountLimits",
      "outputs": [
        {
          "components": [
            {
              "internalType": "contract CToken[]",
              "name": "markets",
              "type": "address[]"
            },
            {
              "internalType": "uint256",
              "name": "liquidity",
              "type": "uint256"
            },
            {
              "internalType": "uint256",
              "name": "shortfall",
              "type": "uint256"
            }
          ],
          "internalType": "struct CompoundLens.AccountLimits",
          "name": "",
          "type": "tuple"
        }
      ],
      "stateMutability": "nonpayable",
      "type": "function"
    },
    {
      "inputs": [
        {
          "internalType": "contract Comp",
          "name": "comp",
          "type": "address"
        },
        {
          "internalType": "address",
          "name": "account",
          "type": "address"
        }
      ],
      "name": "getCompBalanceMetadata",
      "outputs": [
        {
          "components": [
            {
              "internalType": "uint256",
              "name": "balance",
              "type": "uint256"
            },
            {
              "internalType": "uint256",
              "name": "votes",
              "type": "uint256"
            },
            {
              "internalType": "address",
              "name": "delegate",
              "type": "address"
            }
          ],
          "internalType": "struct CompoundLens.CompBalanceMetadata",
          "name": "",
          "type": "tuple"
        }
      ],
      "stateMutability": "view",
      "type": "function"
    },
    {
      "inputs": [
        {
          "internalType": "contract Comp",
          "name": "comp",
          "type": "address"
        },
        {
          "internalType": "address",
          "name": "account",
          "type": "address"
        },
        {
          "internalType": "uint32[]",
          "name": "blockNumbers",
          "type": "uint32[]"
        }
      ],
      "name": "getCompVotes",
      "outputs": [
        {
          "components": [
            {
              "internalType": "uint256",
              "name": "blockNumber",
              "type": "uint256"
            },
            {
              "internalType": "uint256",
              "name": "votes",
              "type": "uint256"
            }
          ],
          "internalType": "struct CompoundLens.CompVotes[]",
          "name": "",
          "type": "tuple[]"
        }
      ],
      "stateMutability": "view",
      "type": "function"
    },
    {
      "inputs": [
        {
          "internalType": "contract GovernorAlpha",
          "name": "governor",
          "type": "address"
        },
        {
          "internalType": "uint256[]",
          "name": "proposalIds",
          "type": "uint256[]"
        }
      ],
      "name": "getGovProposals",
      "outputs": [
        {
          "components": [
            {
              "internalType": "uint256",
              "name": "proposalId",
              "type": "uint256"
            },
            {
              "internalType": "address",
              "name": "proposer",
              "type": "address"
            },
            {
              "internalType": "uint256",
              "name": "eta",
              "type": "uint256"
            },
            {
              "internalType": "address[]",
              "name": "targets",
              "type": "address[]"
            },
            {
              "internalType": "uint256[]",
              "name": "values",
              "type": "uint256[]"
            },
            {
              "internalType": "string[]",
              "name": "signatures",
              "type": "string[]"
            },
            {
              "internalType": "bytes[]",
              "name": "calldatas",
              "type": "bytes[]"
            },
            {
              "internalType": "uint256",
              "name": "startBlock",
              "type": "uint256"
            },
            {
              "internalType": "uint256",
              "name": "endBlock",
              "type": "uint256"
            },
            {
              "internalType": "uint256",
              "name": "forVotes",
              "type": "uint256"
            },
            {
              "internalType": "uint256",
              "name": "againstVotes",
              "type": "uint256"
            },
            {
              "internalType": "bool",
              "name": "canceled",
              "type": "bool"
            },
            {
              "internalType": "bool",
              "name": "executed",
              "type": "bool"
            }
          ],
          "internalType": "struct CompoundLens.GovProposal[]",
          "name": "",
          "type": "tuple[]"
        }
      ],
      "stateMutability": "view",
      "type": "function"
    },
    {
      "inputs": [
        {
          "internalType": "contract GovernorAlpha",
          "name": "governor",
          "type": "address"
        },
        {
          "internalType": "address",
          "name": "voter",
          "type": "address"
        },
        {
          "internalType": "uint256[]",
          "name": "proposalIds",
          "type": "uint256[]"
        }
      ],
      "name": "getGovReceipts",
      "outputs": [
        {
          "components": [
            {
              "internalType": "uint256",
              "name": "proposalId",
              "type": "uint256"
            },
            {
              "internalType": "bool",
              "name": "hasVoted",
              "type": "bool"
            },
            {
              "internalType": "bool",
              "name": "support",
              "type": "bool"
            },
            {
              "internalType": "uint96",
              "name": "votes",
              "type": "uint96"
            }
          ],
          "internalType": "struct CompoundLens.GovReceipt[]",
          "name": "",
          "type": "tuple[]"
        }
      ],
      "stateMutability": "view",
      "type": "function"
    }
  ],
  "bytecode": {
    "object": "0x608060405234801561001057600080fd5b50612983806100206000396000f3fe608060405234801561001057600080fd5b50600436106100a95760003560e01c8063595642191161007157806359564219146101755780637dd8f6d91461019557806396994869146101b5578063995ed99f146101d5578063bdf950c9146101f5578063c5ae59341461021557600080fd5b80630972bf8b146100ae578063158eca8b146100d75780632b2d5ed6146100f7578063416405d7146101175780634b70d84b14610155575b600080fd5b6100c16100bc366004611af1565b610235565b6040516100ce9190611b87565b60405180910390f35b6100ea6100e5366004611bd5565b610305565b6040516100ce9190611c9d565b61010a610105366004611cac565b6109a9565b6040516100ce9190611ced565b61012a610125366004611d4d565b610a7e565b604080518251815260208084015190820152918101516001600160a01b0316908201526060016100ce565b610168610163366004611cac565b610c1f565b6040516100ce9190611d86565b610188610183366004611dc9565b610cdd565b6040516100ce9190611e2d565b6101a86101a3366004611d4d565b610e79565b6040516100ce9190611e6f565b6101c86101c3366004611ede565b610fb3565b6040516100ce9190612036565b6101e86101e33660046121ce565b611206565b6040516100ce919061228a565b610208610203366004611d4d565b6113a7565b6040516100ce91906122ee565b610228610223366004611bd5565b6116f0565b6040516100ce91906122fc565b6060826000816001600160401b0381111561025257610252612165565b60405190808252806020026020018201604052801561028b57816020015b6102786119cc565b8152602001906001900390816102705790505b50905060005b828110156102f9576102c98787838181106102ae576102ae61231c565b90506020020160208101906102c39190611bd5565b866113a7565b8282815181106102db576102db61231c565b602002602001018190525080806102f190612332565b915050610291565b509150505b9392505050565b61030d611a0b565b6000826001600160a01b031663bd6d894d6040518163ffffffff1660e01b81526004016020604051808303816000875af115801561034f573d6000803e3d6000fd5b505050506040513d601f19601f82011682018060405250810190610373919061235b565b90506000836001600160a01b0316635fe3b5676040518163ffffffff1660e01b8152600401602060405180830381865afa1580156103b5573d6000803e3d6000fd5b505050506040513d601f19601f820116820180604052508101906103d99190612374565b604051638e8f294b60e01b81526001600160a01b038681166004830152919250600091829190841690638e8f294b906024016040805180830381865afa158015610427573d6000803e3d6000fd5b505050506040513d601f19601f8201168201806040525081019061044b91906123a6565b915091506000806104dd886001600160a01b03166395d89b416040518163ffffffff1660e01b8152600401600060405180830381865afa158015610493573d6000803e3d6000fd5b505050506040513d6000823e601f3d908101601f191682016040526104bb9190810190612440565b604051806040016040528060048152602001630c68aa8960e31b81525061185a565b156104ee5750600090506012610621565b6000889050806001600160a01b0316636f307dc36040518163ffffffff1660e01b8152600401602060405180830381865afa158015610531573d6000803e3d6000fd5b505050506040513d601f19601f820116820180604052508101906105559190612374565b9250806001600160a01b0316636f307dc36040518163ffffffff1660e01b8152600401602060405180830381865afa158015610595573d6000803e3d6000fd5b505050506040513d601f19601f820116820180604052508101906105b99190612374565b6001600160a01b031663313ce5676040518163ffffffff1660e01b8152600401602060405180830381865afa1580156105f6573d6000803e3d6000fd5b505050506040513d601f19601f8201168201806040525081019061061a919061247c565b60ff169150505b604051806101c00160405280896001600160a01b03168152602001878152602001896001600160a01b031663ae9d70b06040518163ffffffff1660e01b8152600401602060405180830381865afa158015610680573d6000803e3d6000fd5b505050506040513d601f19601f820116820180604052508101906106a4919061235b565b8152602001896001600160a01b031663f8f9da286040518163ffffffff1660e01b8152600401602060405180830381865afa1580156106e7573d6000803e3d6000fd5b505050506040513d601f19601f8201168201806040525081019061070b919061235b565b8152602001896001600160a01b031663173b99046040518163ffffffff1660e01b8152600401602060405180830381865afa15801561074e573d6000803e3d6000fd5b505050506040513d601f19601f82011682018060405250810190610772919061235b565b8152602001896001600160a01b03166347bd37186040518163ffffffff1660e01b8152600401602060405180830381865afa1580156107b5573d6000803e3d6000fd5b505050506040513d601f19601f820116820180604052508101906107d9919061235b565b8152602001896001600160a01b0316638f840ddd6040518163ffffffff1660e01b8152600401602060405180830381865afa15801561081c573d6000803e3d6000fd5b505050506040513d601f19601f82011682018060405250810190610840919061235b565b8152602001896001600160a01b03166318160ddd6040518163ffffffff1660e01b8152600401602060405180830381865afa158015610883573d6000803e3d6000fd5b505050506040513d601f19601f820116820180604052508101906108a7919061235b565b8152602001896001600160a01b0316633b1d21a26040518163ffffffff1660e01b8152600401602060405180830381865afa1580156108ea573d6000803e3d6000fd5b505050506040513d601f19601f8201168201806040525081019061090e919061235b565b81526020018515158152602001848152602001836001600160a01b03168152602001896001600160a01b031663313ce5676040518163ffffffff1660e01b8152600401602060405180830381865afa15801561096e573d6000803e3d6000fd5b505050506040513d601f19601f82011682018060405250810190610992919061247c565b60ff16815260200191909152979650505050505050565b6060816000816001600160401b038111156109c6576109c6612165565b604051908082528060200260200182016040528015610a0b57816020015b60408051808201909152600080825260208201528152602001906001900390816109e45790505b50905060005b82811015610a7357610a43868683818110610a2e57610a2e61231c565b90506020020160208101906102239190611bd5565b828281518110610a5557610a5561231c565b60200260200101819052508080610a6b90612332565b915050610a11565b509150505b92915050565b610aab6040518060600160405280600081526020016000815260200160006001600160a01b031681525090565b6040805160608101918290526370a0823160e01b9091526001600160a01b038381166064830152819085166370a0823160848301602060405180830381865afa158015610afc573d6000803e3d6000fd5b505050506040513d601f19601f82011682018060405250810190610b20919061235b565b815260405163b4b5ea5760e01b81526001600160a01b03858116600483015260209092019186169063b4b5ea5790602401602060405180830381865afa158015610b6e573d6000803e3d6000fd5b505050506040513d601f19601f82011682018060405250810190610b9291906124b6565b6001600160601b03168152604051632c3e6f0f60e11b81526001600160a01b03858116600483015260209092019186169063587cde1e90602401602060405180830381865afa158015610be9573d6000803e3d6000fd5b505050506040513d601f19601f82011682018060405250810190610c0d9190612374565b6001600160a01b031690529392505050565b6060816000816001600160401b03811115610c3c57610c3c612165565b604051908082528060200260200182016040528015610c7557816020015b610c62611a0b565b815260200190600190039081610c5a5790505b50905060005b82811015610a7357610cad868683818110610c9857610c9861231c565b90506020020160208101906100e59190611bd5565b828281518110610cbf57610cbf61231c565b60200260200101819052508080610cd590612332565b915050610c7b565b60606000826001600160401b03811115610cf957610cf9612165565b604051908082528060200260200182016040528015610d3e57816020015b6040805180820190915260008082526020820152815260200190600190039081610d175790505b50905060005b83811015610e6f576040518060400160405280868684818110610d6957610d6961231c565b9050602002016020810190610d7e91906124d1565b63ffffffff168152602001886001600160a01b031663782d6fe189898987818110610dab57610dab61231c565b9050602002016020810190610dc091906124d1565b6040516001600160e01b031960e085901b1681526001600160a01b03909216600483015263ffffffff166024820152604401602060405180830381865afa158015610e0f573d6000803e3d6000fd5b505050506040513d601f19601f82011682018060405250810190610e3391906124b6565b6001600160601b0316815250828281518110610e5157610e5161231c565b60200260200101819052508080610e6790612332565b915050610d44565b5095945050505050565b610e9d60405180606001604052806060815260200160008152602001600081525090565b604051635ec88c7960e01b81526001600160a01b0383811660048301526000918291829190871690635ec88c7990602401606060405180830381865afa158015610eeb573d6000803e3d6000fd5b505050506040513d601f19601f82011682018060405250810190610f0f91906124f7565b92509250925082600014610f2257600080fd5b604080516060810191829052632aff3bff60e21b9091526001600160a01b0386811660648301528190881663abfceffc60848301600060405180830381865afa158015610f73573d6000803e3d6000fd5b505050506040513d6000823e601f3d908101601f19168201604052610f9b9190810190612525565b81526020810193909352604090920152949350505050565b60606000826001600160401b03811115610fcf57610fcf612165565b60405190808252806020026020018201604052801561107857816020015b611065604051806101a001604052806000815260200160006001600160a01b031681526020016000815260200160608152602001606081526020016060815260200160608152602001600081526020016000815260200160008152602001600081526020016000151581526020016000151581525090565b815260200190600190039081610fed5790505b50905060005b838110156111fd57600080600080896001600160a01b031663328dd9828a8a888181106110ad576110ad61231c565b905060200201356040518263ffffffff1660e01b81526004016110d291815260200190565b600060405180830381865afa1580156110ef573d6000803e3d6000fd5b505050506040513d6000823e601f3d908101601f191682016040526111179190810190612737565b9350935093509350604051806101a001604052806000815260200160006001600160a01b0316815260200160008152602001858152602001848152602001838152602001828152602001600081526020016000815260200160008152602001600081526020016000151581526020016000151581525086868151811061119f5761119f61231c565b60200260200101819052506111e68686815181106111bf576111bf61231c565b60200260200101518b8b8b898181106111da576111da61231c565b905060200201356118b3565b5050505080806111f590612332565b91505061107e565b50949350505050565b80516060906000816001600160401b0381111561122557611225612165565b60405190808252806020026020018201604052801561127757816020015b6040805160808101825260008082526020808301829052928201819052606082015282526000199092019101816112435790505b50905060005b828110156102f9576000876001600160a01b031663e23a9a528784815181106112a8576112a861231c565b6020026020010151896040518363ffffffff1660e01b81526004016112e09291909182526001600160a01b0316602082015260400190565b606060405180830381865afa1580156112fd573d6000803e3d6000fd5b505050506040513d601f19601f820116820180604052508101906113219190612844565b905060405180608001604052808784815181106113405761134061231c565b6020026020010151815260200182600001511515815260200182602001511515815260200182604001516001600160601b03168152508383815181106113885761138861231c565b602002602001018190525050808061139f90612332565b91505061127d565b6113af6119cc565b6040516370a0823160e01b81526001600160a01b038381166004830152600091908516906370a0823190602401602060405180830381865afa1580156113f9573d6000803e3d6000fd5b505050506040513d601f19601f8201168201806040525081019061141d919061235b565b6040516305eff7ef60e21b81526001600160a01b0385811660048301529192506000918616906317bfdfbc906024016020604051808303816000875af115801561146b573d6000803e3d6000fd5b505050506040513d601f19601f8201168201806040525081019061148f919061235b565b604051633af9e66960e01b81526001600160a01b038681166004830152919250600091871690633af9e669906024016020604051808303816000875af11580156114dd573d6000803e3d6000fd5b505050506040513d601f19601f82011682018060405250810190611501919061235b565b9050600080611547886001600160a01b03166395d89b416040518163ffffffff1660e01b8152600401600060405180830381865afa158015610493573d6000803e3d6000fd5b156115615750506001600160a01b038516803190316116b3565b60008890506000816001600160a01b0316636f307dc36040518163ffffffff1660e01b8152600401602060405180830381865afa1580156115a6573d6000803e3d6000fd5b505050506040513d601f19601f820116820180604052508101906115ca9190612374565b6040516370a0823160e01b81526001600160a01b038b81166004830152919250908216906370a0823190602401602060405180830381865afa158015611614573d6000803e3d6000fd5b505050506040513d601f19601f82011682018060405250810190611638919061235b565b604051636eb1769f60e11b81526001600160a01b038b811660048301528c811660248301529195509082169063dd62ed3e90604401602060405180830381865afa15801561168a573d6000803e3d6000fd5b505050506040513d601f19601f820116820180604052508101906116ae919061235b565b925050505b6040805160c0810182526001600160a01b039990991689526020890195909552938701929092526060860152608085015260a08401525090919050565b60408051808201909152600080825260208201526000826001600160a01b0316635fe3b5676040518163ffffffff1660e01b8152600401602060405180830381865afa158015611744573d6000803e3d6000fd5b505050506040513d601f19601f820116820180604052508101906117689190612374565b90506000816001600160a01b0316637dc0d1d06040518163ffffffff1660e01b8152600401602060405180830381865afa1580156117aa573d6000803e3d6000fd5b505050506040513d601f19601f820116820180604052508101906117ce9190612374565b6040805180820182526001600160a01b03808816808352925163fc57d4df60e01b815260048101939093529293509160208301919084169063fc57d4df90602401602060405180830381865afa15801561182c573d6000803e3d6000fd5b505050506040513d601f19601f82011682018060405250810190611850919061235b565b9052949350505050565b60008160405160200161186d91906128af565b604051602081830303815290604052805190602001208360405160200161189491906128af565b6040516020818303038152906040528051906020012014905092915050565b600080600080600080600080896001600160a01b031663013cf08b8a6040518263ffffffff1660e01b81526004016118ed91815260200190565b61012060405180830381865afa15801561190b573d6000803e3d6000fd5b505050506040513d601f19601f8201168201806040525081019061192f91906128cb565b9850985098509850985098509850985050888b6000018181525050878b602001906001600160a01b031690816001600160a01b031681525050868b6040018181525050858b60e0018181525050848b610100018181525050838b610120018181525050828b610140018181525050818b610160019015159081151581525050808b6101800190151590811515815250505050505050505050505050565b6040518060c0016040528060006001600160a01b0316815260200160008152602001600081526020016000815260200160008152602001600081525090565b604051806101c0016040528060006001600160a01b0316815260200160008152602001600081526020016000815260200160008152602001600081526020016000815260200160008152602001600081526020016000151581526020016000815260200160006001600160a01b0316815260200160008152602001600081525090565b60008083601f840112611aa057600080fd5b5081356001600160401b03811115611ab757600080fd5b6020830191508360208260051b8501011115611ad257600080fd5b9250929050565b6001600160a01b0381168114611aee57600080fd5b50565b600080600060408486031215611b0657600080fd5b83356001600160401b03811115611b1c57600080fd5b611b2886828701611a8e565b9094509250506020840135611b3c81611ad9565b809150509250925092565b80516001600160a01b031682526020808201519083015260408082015190830152606080820151908301526080808201519083015260a090810151910152565b6020808252825182820181905260009190848201906040850190845b81811015611bc957611bb6838551611b47565b9284019260c09290920191600101611ba3565b50909695505050505050565b600060208284031215611be757600080fd5b81356102fe81611ad9565b80516001600160a01b031682526020810151602083015260408101516040830152606081015160608301526080810151608083015260a081015160a083015260c081015160c083015260e081015160e083015261010080820151818401525061012080820151611c658285018215159052565b50506101408181015190830152610160808201516001600160a01b03169083015261018080820151908301526101a090810151910152565b6101c08101610a788284611bf2565b60008060208385031215611cbf57600080fd5b82356001600160401b03811115611cd557600080fd5b611ce185828601611a8e565b90969095509350505050565b602080825282518282018190526000919060409081850190868401855b82811015611d4057611d3084835180516001600160a01b03168252602090810151910152565b9284019290850190600101611d0a565b5091979650505050505050565b60008060408385031215611d6057600080fd5b8235611d6b81611ad9565b91506020830135611d7b81611ad9565b809150509250929050565b6020808252825182820181905260009190848201906040850190845b81811015611bc957611db5838551611bf2565b928401926101c09290920191600101611da2565b60008060008060608587031215611ddf57600080fd5b8435611dea81611ad9565b93506020850135611dfa81611ad9565b925060408501356001600160401b03811115611e1557600080fd5b611e2187828801611a8e565b95989497509550505050565b602080825282518282018190526000919060409081850190868401855b82811015611d4057815180518552860151868501529284019290850190600101611e4a565b6020808252825160608383015280516080840181905260009291820190839060a08601905b80831015611ebd5783516001600160a01b03168252928401926001929092019190840190611e94565b50838701516040870152604087015160608701528094505050505092915050565b600080600060408486031215611ef357600080fd5b8335611efe81611ad9565b925060208401356001600160401b03811115611f1957600080fd5b611f2586828701611a8e565b9497909650939450505050565b600081518084526020808501945080840160005b83811015611f6b5781516001600160a01b031687529582019590820190600101611f46565b509495945050505050565b600081518084526020808501945080840160005b83811015611f6b57815187529582019590820190600101611f8a565b60005b83811015611fc1578181015183820152602001611fa9565b83811115611fd0576000848401525b50505050565b600081518084526020808501808196508360051b8101915082860160005b85811015611d405782840389528151805180865261201781888801898501611fa6565b99860199601f01601f1916949094018501935090840190600101611ff4565b60006020808301818452808551808352604092508286019150828160051b87010184880160005b8381101561215757888303603f19018552815180518452878101516001600160a01b038116898601526101a09050878201518886015260608083015182828801526120aa83880182611f32565b92505050608080830151868303828801526120c58382611f76565b9250505060a080830151868303828801526120e08382611fd6565b9250505060c080830151868303828801526120fb8382611fd6565b60e08581015190890152610100808601519089015261012080860151908901526101408086015190890152610160808601511515908901526101809485015115159490970193909352505050938601939086019060010161205d565b509098975050505050505050565b634e487b7160e01b600052604160045260246000fd5b604051601f8201601f191681016001600160401b03811182821017156121a3576121a3612165565b604052919050565b60006001600160401b038211156121c4576121c4612165565b5060051b60200190565b6000806000606084860312156121e357600080fd5b83356121ee81611ad9565b92506020848101356121ff81611ad9565b925060408501356001600160401b0381111561221a57600080fd5b8501601f8101871361222b57600080fd5b803561223e612239826121ab565b61217b565b81815260059190911b8201830190838101908983111561225d57600080fd5b928401925b8284101561227b57833582529284019290840190612262565b80955050505050509250925092565b602080825282518282018190526000919060409081850190868401855b82811015611d405781518051855286810151151587860152858101511515868601526060908101516001600160601b031690850152608090930192908501906001016122a7565b60c08101610a788284611b47565b81516001600160a01b031681526020808301519082015260408101610a78565b634e487b7160e01b600052603260045260246000fd5b600060001982141561235457634e487b7160e01b600052601160045260246000fd5b5060010190565b60006020828403121561236d57600080fd5b5051919050565b60006020828403121561238657600080fd5b81516102fe81611ad9565b805180151581146123a157600080fd5b919050565b600080604083850312156123b957600080fd5b6123c283612391565b9150602083015190509250929050565b60006001600160401b038311156123eb576123eb612165565b6123fe601f8401601f191660200161217b565b905082815283838301111561241257600080fd5b6102fe836020830184611fa6565b600082601f83011261243157600080fd5b6102fe838351602085016123d2565b60006020828403121561245257600080fd5b81516001600160401b0381111561246857600080fd5b61247484828501612420565b949350505050565b60006020828403121561248e57600080fd5b815160ff811681146102fe57600080fd5b80516001600160601b03811681146123a157600080fd5b6000602082840312156124c857600080fd5b6102fe8261249f565b6000602082840312156124e357600080fd5b813563ffffffff811681146102fe57600080fd5b60008060006060848603121561250c57600080fd5b8351925060208401519150604084015190509250925092565b6000602080838503121561253857600080fd5b82516001600160401b0381111561254e57600080fd5b8301601f8101851361255f57600080fd5b805161256d612239826121ab565b81815260059190911b8201830190838101908783111561258c57600080fd5b928401925b828410156125b35783516125a481611ad9565b82529284019290840190612591565b979650505050505050565b600082601f8301126125cf57600080fd5b815160206125df612239836121ab565b82815260059290921b840181019181810190868411156125fe57600080fd5b8286015b848110156126195780518352918301918301612602565b509695505050505050565b600082601f83011261263557600080fd5b81516020612645612239836121ab565b82815260059290921b8401810191818101908684111561266457600080fd5b8286015b848110156126195780516001600160401b038111156126875760008081fd5b6126958986838b0101612420565b845250918301918301612668565b600082601f8301126126b457600080fd5b815160206126c4612239836121ab565b82815260059290921b840181019181810190868411156126e357600080fd5b8286015b848110156126195780516001600160401b038111156127065760008081fd5b8701603f810189136127185760008081fd5b6127298986830151604084016123d2565b8452509183019183016126e7565b6000806000806080858703121561274d57600080fd5b84516001600160401b038082111561276457600080fd5b818701915087601f83011261277857600080fd5b81516020612788612239836121ab565b82815260059290921b8401810191818101908b8411156127a757600080fd5b948201945b838610156127ce5785516127bf81611ad9565b825294820194908201906127ac565b918a01519198509093505050808211156127e757600080fd5b6127f3888389016125be565b9450604087015191508082111561280957600080fd5b61281588838901612624565b9350606087015191508082111561282b57600080fd5b50612838878288016126a3565b91505092959194509250565b60006060828403121561285657600080fd5b604051606081018181106001600160401b038211171561287857612878612165565b60405261288483612391565b815261289260208401612391565b60208201526128a36040840161249f565b60408201529392505050565b600082516128c1818460208701611fa6565b9190910192915050565b60008060008060008060008060006101208a8c0312156128ea57600080fd5b8951985060208a01516128fc81611ad9565b8098505060408a0151965060608a0151955060808a0151945060a08a0151935060c08a0151925061292f60e08b01612391565b915061293e6101008b01612391565b9050929598509295985092959856fea26469706673582212203553b273d600e9e10d66d959170757f3009f32a2723d274ae55adb1e69d781e764736f6c634300080a0033",
    "linkReferences": {}
  }
}