{
  "abi": [
    {
      "inputs": [
        {
          "internalType": "contract ERC20",
          "name": "_asset",
          "type": "address"
        },
        {
          "internalType": "contract IBeefyVault",
          "name": "_beefyVault",
          "type": "address"
        }
      ],
      "stateMutability": "nonpayable",
      "type": "constructor"
    },
    {
      "anonymous": false,
      "inputs": [
        {
          "indexed": true,
          "internalType": "address",
          "name": "owner",
          "type": "address"
        },
        {
          "indexed": true,
          "internalType": "address",
          "name": "spender",
          "type": "address"
        },
        {
          "indexed": false,
          "internalType": "uint256",
          "name": "amount",
          "type": "uint256"
        }
      ],
      "name": "Approval",
      "type": "event"
    },
    {
      "anonymous": false,
      "inputs": [
        {
          "indexed": true,
          "internalType": "address",
          "name": "caller",
          "type": "address"
        },
        {
          "indexed": true,
          "internalType": "address",
          "name": "owner",
          "type": "address"
        },
        {
          "indexed": false,
          "internalType": "uint256",
          "name": "assets",
          "type": "uint256"
        },
        {
          "indexed": false,
          "internalType": "uint256",
          "name": "shares",
          "type": "uint256"
        }
      ],
      "name": "Deposit",
      "type": "event"
    },
    {
      "anonymous": false,
      "inputs": [
        {
          "indexed": true,
          "internalType": "address",
          "name": "from",
          "type": "address"
        },
        {
          "indexed": true,
          "internalType": "address",
          "name": "to",
          "type": "address"
        },
        {
          "indexed": false,
          "internalType": "uint256",
          "name": "amount",
          "type": "uint256"
        }
      ],
      "name": "Transfer",
      "type": "event"
    },
    {
      "anonymous": false,
      "inputs": [
        {
          "indexed": true,
          "internalType": "address",
          "name": "caller",
          "type": "address"
        },
        {
          "indexed": true,
          "internalType": "address",
          "name": "receiver",
          "type": "address"
        },
        {
          "indexed": true,
          "internalType": "address",
          "name": "owner",
          "type": "address"
        },
        {
          "indexed": false,
          "internalType": "uint256",
          "name": "assets",
          "type": "uint256"
        },
        {
          "indexed": false,
          "internalType": "uint256",
          "name": "shares",
          "type": "uint256"
        }
      ],
      "name": "Withdraw",
      "type": "event"
    },
    {
      "inputs": [],
      "name": "DOMAIN_SEPARATOR",
      "outputs": [
        {
          "internalType": "bytes32",
          "name": "",
          "type": "bytes32"
        }
      ],
      "stateMutability": "view",
      "type": "function"
    },
    {
      "inputs": [
        {
          "internalType": "address",
          "name": "",
          "type": "address"
        },
        {
          "internalType": "address",
          "name": "",
          "type": "address"
        }
      ],
      "name": "allowance",
      "outputs": [
        {
          "internalType": "uint256",
          "name": "",
          "type": "uint256"
        }
      ],
      "stateMutability": "view",
      "type": "function"
    },
    {
      "inputs": [
        {
          "internalType": "address",
          "name": "spender",
          "type": "address"
        },
        {
          "internalType": "uint256",
          "name": "amount",
          "type": "uint256"
        }
      ],
      "name": "approve",
      "outputs": [
        {
          "internalType": "bool",
          "name": "",
          "type": "bool"
        }
      ],
      "stateMutability": "nonpayable",
      "type": "function"
    },
    {
      "inputs": [],
      "name": "asset",
      "outputs": [
        {
          "internalType": "contract ERC20",
          "name": "",
          "type": "address"
        }
      ],
      "stateMutability": "view",
      "type": "function"
    },
    {
      "inputs": [
        {
          "internalType": "address",
          "name": "",
          "type": "address"
        }
      ],
      "name": "balanceOf",
      "outputs": [
        {
          "internalType": "uint256",
          "name": "",
          "type": "uint256"
        }
      ],
      "stateMutability": "view",
      "type": "function"
    },
    {
      "inputs": [
        {
          "internalType": "address",
          "name": "account",
          "type": "address"
        }
      ],
      "name": "balanceOfUnderlying",
      "outputs": [
        {
          "internalType": "uint256",
          "name": "",
          "type": "uint256"
        }
      ],
      "stateMutability": "view",
      "type": "function"
    },
    {
      "inputs": [],
      "name": "beefyVault",
      "outputs": [
        {
          "internalType": "contract IBeefyVault",
          "name": "",
          "type": "address"
        }
      ],
      "stateMutability": "view",
      "type": "function"
    },
    {
      "inputs": [
        {
          "internalType": "uint256",
          "name": "shares",
          "type": "uint256"
        }
      ],
      "name": "convertToAssets",
      "outputs": [
        {
          "internalType": "uint256",
          "name": "",
          "type": "uint256"
        }
      ],
      "stateMutability": "view",
      "type": "function"
    },
    {
      "inputs": [
        {
          "internalType": "uint256",
          "name": "assets",
          "type": "uint256"
        }
      ],
      "name": "convertToShares",
      "outputs": [
        {
          "internalType": "uint256",
          "name": "",
          "type": "uint256"
        }
      ],
      "stateMutability": "view",
      "type": "function"
    },
    {
      "inputs": [],
      "name": "decimals",
      "outputs": [
        {
          "internalType": "uint8",
          "name": "",
          "type": "uint8"
        }
      ],
      "stateMutability": "view",
      "type": "function"
    },
    {
      "inputs": [
        {
          "internalType": "uint256",
          "name": "assets",
          "type": "uint256"
        },
        {
          "internalType": "address",
          "name": "receiver",
          "type": "address"
        }
      ],
      "name": "deposit",
      "outputs": [
        {
          "internalType": "uint256",
          "name": "shares",
          "type": "uint256"
        }
      ],
      "stateMutability": "nonpayable",
      "type": "function"
    },
    {
      "inputs": [
        {
          "internalType": "address",
          "name": "",
          "type": "address"
        }
      ],
      "name": "maxDeposit",
      "outputs": [
        {
          "internalType": "uint256",
          "name": "",
          "type": "uint256"
        }
      ],
      "stateMutability": "view",
      "type": "function"
    },
    {
      "inputs": [
        {
          "internalType": "address",
          "name": "",
          "type": "address"
        }
      ],
      "name": "maxMint",
      "outputs": [
        {
          "internalType": "uint256",
          "name": "",
          "type": "uint256"
        }
      ],
      "stateMutability": "view",
      "type": "function"
    },
    {
      "inputs": [
        {
          "internalType": "address",
          "name": "owner",
          "type": "address"
        }
      ],
      "name": "maxRedeem",
      "outputs": [
        {
          "internalType": "uint256",
          "name": "",
          "type": "uint256"
        }
      ],
      "stateMutability": "view",
      "type": "function"
    },
    {
      "inputs": [
        {
          "internalType": "address",
          "name": "owner",
          "type": "address"
        }
      ],
      "name": "maxWithdraw",
      "outputs": [
        {
          "internalType": "uint256",
          "name": "",
          "type": "uint256"
        }
      ],
      "stateMutability": "view",
      "type": "function"
    },
    {
      "inputs": [
        {
          "internalType": "uint256",
          "name": "shares",
          "type": "uint256"
        },
        {
          "internalType": "address",
          "name": "receiver",
          "type": "address"
        }
      ],
      "name": "mint",
      "outputs": [
        {
          "internalType": "uint256",
          "name": "assets",
          "type": "uint256"
        }
      ],
      "stateMutability": "nonpayable",
      "type": "function"
    },
    {
      "inputs": [],
      "name": "name",
      "outputs": [
        {
          "internalType": "string",
          "name": "",
          "type": "string"
        }
      ],
      "stateMutability": "view",
      "type": "function"
    },
    {
      "inputs": [
        {
          "internalType": "address",
          "name": "",
          "type": "address"
        }
      ],
      "name": "nonces",
      "outputs": [
        {
          "internalType": "uint256",
          "name": "",
          "type": "uint256"
        }
      ],
      "stateMutability": "view",
      "type": "function"
    },
    {
      "inputs": [
        {
          "internalType": "address",
          "name": "owner",
          "type": "address"
        },
        {
          "internalType": "address",
          "name": "spender",
          "type": "address"
        },
        {
          "internalType": "uint256",
          "name": "value",
          "type": "uint256"
        },
        {
          "internalType": "uint256",
          "name": "deadline",
          "type": "uint256"
        },
        {
          "internalType": "uint8",
          "name": "v",
          "type": "uint8"
        },
        {
          "internalType": "bytes32",
          "name": "r",
          "type": "bytes32"
        },
        {
          "internalType": "bytes32",
          "name": "s",
          "type": "bytes32"
        }
      ],
      "name": "permit",
      "outputs": [],
      "stateMutability": "nonpayable",
      "type": "function"
    },
    {
      "inputs": [
        {
          "internalType": "uint256",
          "name": "assets",
          "type": "uint256"
        }
      ],
      "name": "previewDeposit",
      "outputs": [
        {
          "internalType": "uint256",
          "name": "",
          "type": "uint256"
        }
      ],
      "stateMutability": "view",
      "type": "function"
    },
    {
      "inputs": [
        {
          "internalType": "uint256",
          "name": "shares",
          "type": "uint256"
        }
      ],
      "name": "previewMint",
      "outputs": [
        {
          "internalType": "uint256",
          "name": "",
          "type": "uint256"
        }
      ],
      "stateMutability": "view",
      "type": "function"
    },
    {
      "inputs": [
        {
          "internalType": "uint256",
          "name": "shares",
          "type": "uint256"
        }
      ],
      "name": "previewRedeem",
      "outputs": [
        {
          "internalType": "uint256",
          "name": "",
          "type": "uint256"
        }
      ],
      "stateMutability": "view",
      "type": "function"
    },
    {
      "inputs": [
        {
          "internalType": "uint256",
          "name": "assets",
          "type": "uint256"
        }
      ],
      "name": "previewWithdraw",
      "outputs": [
        {
          "internalType": "uint256",
          "name": "",
          "type": "uint256"
        }
      ],
      "stateMutability": "view",
      "type": "function"
    },
    {
      "inputs": [
        {
          "internalType": "uint256",
          "name": "shares",
          "type": "uint256"
        },
        {
          "internalType": "address",
          "name": "receiver",
          "type": "address"
        },
        {
          "internalType": "address",
          "name": "owner",
          "type": "address"
        }
      ],
      "name": "redeem",
      "outputs": [
        {
          "internalType": "uint256",
          "name": "assets",
          "type": "uint256"
        }
      ],
      "stateMutability": "nonpayable",
      "type": "function"
    },
    {
      "inputs": [],
      "name": "symbol",
      "outputs": [
        {
          "internalType": "string",
          "name": "",
          "type": "string"
        }
      ],
      "stateMutability": "view",
      "type": "function"
    },
    {
      "inputs": [],
      "name": "totalAssets",
      "outputs": [
        {
          "internalType": "uint256",
          "name": "",
          "type": "uint256"
        }
      ],
      "stateMutability": "view",
      "type": "function"
    },
    {
      "inputs": [],
      "name": "totalSupply",
      "outputs": [
        {
          "internalType": "uint256",
          "name": "",
          "type": "uint256"
        }
      ],
      "stateMutability": "view",
      "type": "function"
    },
    {
      "inputs": [
        {
          "internalType": "address",
          "name": "to",
          "type": "address"
        },
        {
          "internalType": "uint256",
          "name": "amount",
          "type": "uint256"
        }
      ],
      "name": "transfer",
      "outputs": [
        {
          "internalType": "bool",
          "name": "",
          "type": "bool"
        }
      ],
      "stateMutability": "nonpayable",
      "type": "function"
    },
    {
      "inputs": [
        {
          "internalType": "address",
          "name": "from",
          "type": "address"
        },
        {
          "internalType": "address",
          "name": "to",
          "type": "address"
        },
        {
          "internalType": "uint256",
          "name": "amount",
          "type": "uint256"
        }
      ],
      "name": "transferFrom",
      "outputs": [
        {
          "internalType": "bool",
          "name": "",
          "type": "bool"
        }
      ],
      "stateMutability": "nonpayable",
      "type": "function"
    },
    {
      "inputs": [
        {
          "internalType": "uint256",
          "name": "assets",
          "type": "uint256"
        },
        {
          "internalType": "address",
          "name": "receiver",
          "type": "address"
        },
        {
          "internalType": "address",
          "name": "owner",
          "type": "address"
        }
      ],
      "name": "withdraw",
      "outputs": [
        {
          "internalType": "uint256",
          "name": "shares",
          "type": "uint256"
        }
      ],
      "stateMutability": "nonpayable",
      "type": "function"
    }
  ],
  "bytecode": {
    "object": "0x6101206040523480156200001257600080fd5b5060405162001de438038062001de48339810160408190526200003591620003e3565b81826001600160a01b03166306fdde036040518163ffffffff1660e01b8152600401600060405180830381865afa15801562000075573d6000803e3d6000fd5b505050506040513d6000823e601f3d908101601f191682016040526200009f91908101906200046b565b604051602001620000b1919062000523565b604051602081830303815290604052836001600160a01b03166395d89b416040518163ffffffff1660e01b8152600401600060405180830381865afa158015620000ff573d6000803e3d6000fd5b505050506040513d6000823e601f3d908101601f191682016040526200012991908101906200046b565b6040516020016200013b919062000563565b6040516020818303038152906040528181846001600160a01b031663313ce5676040518163ffffffff1660e01b8152600401602060405180830381865afa1580156200018b573d6000803e3d6000fd5b505050506040513d601f19601f82011682018060405250810190620001b191906200058f565b8251620001c690600090602086019062000324565b508151620001dc90600190602085019062000324565b5060ff81166080524660a052620001f262000288565b60c052505050506001600160a01b0391821660e081905291831661010081905260405163095ea7b360e01b81526004810191909152600019602482015263095ea7b391506044016020604051808303816000875af115801562000259573d6000803e3d6000fd5b505050506040513d601f19601f820116820180604052508101906200027f9190620005bb565b505050620006c0565b60007f8b73c3c69bb8fe3d512ecc4cf759cc79239f7b179b0ffacaa9a75d522b39400f6000604051620002bc91906200061c565b6040805191829003822060208301939093528101919091527fc89efdaa54c0f20c7adf612882df0950f5a951637e0307cdcb4c672f298b8bc660608201524660808201523060a082015260c00160405160208183030381529060405280519060200120905090565b8280546200033290620005df565b90600052602060002090601f016020900481019282620003565760008555620003a1565b82601f106200037157805160ff1916838001178555620003a1565b82800160010185558215620003a1579182015b82811115620003a157825182559160200191906001019062000384565b50620003af929150620003b3565b5090565b5b80821115620003af5760008155600101620003b4565b6001600160a01b0381168114620003e057600080fd5b50565b60008060408385031215620003f757600080fd5b82516200040481620003ca565b60208401519092506200041781620003ca565b809150509250929050565b634e487b7160e01b600052604160045260246000fd5b60005b83811015620004555781810151838201526020016200043b565b8381111562000465576000848401525b50505050565b6000602082840312156200047e57600080fd5b81516001600160401b03808211156200049657600080fd5b818401915084601f830112620004ab57600080fd5b815181811115620004c057620004c062000422565b604051601f8201601f19908116603f01168101908382118183101715620004eb57620004eb62000422565b816040528281528760208487010111156200050557600080fd5b6200051883602083016020880162000438565b979650505050505050565b65026b4b230b9960d51b8152600082516200054681600685016020870162000438565b650815985d5b1d60d21b6006939091019283015250600c01919050565b6136bb60f11b8152600082516200058281600285016020870162000438565b9190910160020192915050565b600060208284031215620005a257600080fd5b815160ff81168114620005b457600080fd5b9392505050565b600060208284031215620005ce57600080fd5b81518015158114620005b457600080fd5b600181811c90821680620005f457607f821691505b602082108114156200061657634e487b7160e01b600052602260045260246000fd5b50919050565b600080835481600182811c9150808316806200063957607f831692505b60208084108214156200065a57634e487b7160e01b86526022600452602486fd5b8180156200067157600181146200068357620006b2565b60ff19861689528489019650620006b2565b60008a81526020902060005b86811015620006aa5781548b8201529085019083016200068f565b505084890196505b509498975050505050505050565b60805160a05160c05160e051610100516116a0620007446000396000818161025d015281816104a601528181610528015281816105bd0152818161119801526112170152600081816102f901528181610941015281816109dd01528181610bd80152610d210152600061089801526000610868015260006102b801526116a06000f3fe608060405234801561001057600080fd5b50600436106101da5760003560e01c806370a0823111610104578063ba087652116100a2578063d505accf11610071578063d505accf14610423578063d905777e14610438578063dd62ed3e14610461578063ef8b30f71461048c57600080fd5b8063ba087652146103fd578063c63d75b61461032e578063c6e6f59214610410578063ce96cb771461031b57600080fd5b806395d89b41116100de57806395d89b41146103bc578063a9059cbb146103c4578063b3d7f6b9146103d7578063b460af94146103ea57600080fd5b806370a08231146103695780637ecebe001461038957806394bf804d146103a957600080fd5b806323b872dd1161017c5780633af9e6691161014b5780633af9e6691461031b578063402d267d1461032e5780634cdad506146103435780636e553f651461035657600080fd5b806323b872dd146102a0578063313ce567146102b35780633644e515146102ec57806338d52e0f146102f457600080fd5b8063095ea7b3116101b8578063095ea7b3146102225780630a28a477146102455780630f0d65691461025857806318160ddd1461029757600080fd5b806301e1d114146101df57806306fdde03146101fa57806307a2d13a1461020f575b600080fd5b6101e761049f565b6040519081526020015b60405180910390f35b61020261063c565b6040516101f1919061132e565b6101e761021d366004611383565b6106ca565b6102356102303660046113b8565b6106f7565b60405190151581526020016101f1565b6101e7610253366004611383565b610764565b61027f7f000000000000000000000000000000000000000000000000000000000000000081565b6040516001600160a01b0390911681526020016101f1565b6101e760025481565b6102356102ae3660046113e2565b610784565b6102da7f000000000000000000000000000000000000000000000000000000000000000081565b60405160ff90911681526020016101f1565b6101e7610864565b61027f7f000000000000000000000000000000000000000000000000000000000000000081565b6101e761032936600461141e565b6108ba565b6101e761033c36600461141e565b5060001990565b6101e7610351366004611383565b6108dc565b6101e7610364366004611439565b6108e7565b6101e761037736600461141e565b60036020526000908152604090205481565b6101e761039736600461141e565b60056020526000908152604090205481565b6101e76103b7366004611439565b6109c3565b610202610a5f565b6102356103d23660046113b8565b610a6c565b6101e76103e5366004611383565b610ad2565b6101e76103f8366004611465565b610af1565b6101e761040b366004611465565b610bff565b6101e761041e366004611383565b610d48565b6104366104313660046114a1565b610d68565b005b6101e761044636600461141e565b6001600160a01b031660009081526003602052604090205490565b6101e761046f366004611514565b600460209081526000928352604080842090915290825290205481565b6101e761049a366004611383565b610fac565b60006106377f00000000000000000000000000000000000000000000000000000000000000006001600160a01b031663b69ef8a86040518163ffffffff1660e01b8152600401602060405180830381865afa158015610502573d6000803e3d6000fd5b505050506040513d601f19601f82011682018060405250810190610526919061153e565b7f00000000000000000000000000000000000000000000000000000000000000006001600160a01b03166318160ddd6040518163ffffffff1660e01b8152600401602060405180830381865afa158015610584573d6000803e3d6000fd5b505050506040513d601f19601f820116820180604052508101906105a8919061153e565b6040516370a0823160e01b81523060048201527f00000000000000000000000000000000000000000000000000000000000000006001600160a01b0316906370a0823190602401602060405180830381865afa15801561060c573d6000803e3d6000fd5b505050506040513d601f19601f82011682018060405250810190610630919061153e565b9190610fb7565b905090565b6000805461064990611557565b80601f016020809104026020016040519081016040528092919081815260200182805461067590611557565b80156106c25780601f10610697576101008083540402835291602001916106c2565b820191906000526020600020905b8154815290600101906020018083116106a557829003601f168201915b505050505081565b60025460009080156106ee576106e96106e161049f565b849083610fb7565b6106f0565b825b9392505050565b3360008181526004602090815260408083206001600160a01b038716808552925280832085905551919290917f8c5be1e5ebec7d5bd14f71427d1e84f3dd0314c0f7b2291e5b200ac8c7c3b925906107529086815260200190565b60405180910390a35060015b92915050565b60025460009080156106ee576106e98161077c61049f565b859190610fd6565b6001600160a01b038316600090815260046020908152604080832033845290915281205460001981146107e0576107bb83826115a8565b6001600160a01b03861660009081526004602090815260408083203384529091529020555b6001600160a01b038516600090815260036020526040812080548592906108089084906115a8565b90915550506001600160a01b0380851660008181526003602052604090819020805487019055519091871690600080516020611674833981519152906108519087815260200190565b60405180910390a3506001949350505050565b60007f0000000000000000000000000000000000000000000000000000000000000000461461089557610637611004565b507f000000000000000000000000000000000000000000000000000000000000000090565b6001600160a01b03811660009081526003602052604081205461075e906106ca565b600061075e826106ca565b60006108f283610fac565b9050806109345760405162461bcd60e51b815260206004820152600b60248201526a5a45524f5f53484152455360a81b60448201526064015b60405180910390fd5b6109696001600160a01b037f00000000000000000000000000000000000000000000000000000000000000001633308661109e565b6109738282611128565b60408051848152602081018390526001600160a01b0384169133917fdcbc1c05240f31ff3ad067ef1ee35ce4997762752e3a095284754544f4c709d7910160405180910390a361075e8382611182565b60006109ce83610ad2565b9050610a056001600160a01b037f00000000000000000000000000000000000000000000000000000000000000001633308461109e565b610a0f8284611128565b60408051828152602081018590526001600160a01b0384169133917fdcbc1c05240f31ff3ad067ef1ee35ce4997762752e3a095284754544f4c709d7910160405180910390a361075e8184611182565b6001805461064990611557565b33600090815260036020526040812080548391908390610a8d9084906115a8565b90915550506001600160a01b03831660008181526003602052604090819020805485019055513390600080516020611674833981519152906107529086815260200190565b60025460009080156106ee576106e9610ae961049f565b849083610fd6565b6000610afc84610764565b9050336001600160a01b03831614610b6c576001600160a01b03821660009081526004602090815260408083203384529091529020546000198114610b6a57610b4582826115a8565b6001600160a01b03841660009081526004602090815260408083203384529091529020555b505b610b768482611201565b610b80828261124e565b60408051858152602081018390526001600160a01b03808516929086169133917ffbde797d201c681b91056529119e0b02407c7bb96a4a2c75c01fc9667232c8db910160405180910390a46106f06001600160a01b037f00000000000000000000000000000000000000000000000000000000000000001684866112b0565b6000336001600160a01b03831614610c6f576001600160a01b03821660009081526004602090815260408083203384529091529020546000198114610c6d57610c4885826115a8565b6001600160a01b03841660009081526004602090815260408083203384529091529020555b505b610c78846108dc565b905080610cb55760405162461bcd60e51b815260206004820152600b60248201526a5a45524f5f41535345545360a81b604482015260640161092b565b610cbf8185611201565b610cc9828561124e565b60408051828152602081018690526001600160a01b03808516929086169133917ffbde797d201c681b91056529119e0b02407c7bb96a4a2c75c01fc9667232c8db910160405180910390a46106f06001600160a01b037f00000000000000000000000000000000000000000000000000000000000000001684836112b0565b60025460009080156106ee576106e981610d6061049f565b859190610fb7565b42841015610db85760405162461bcd60e51b815260206004820152601760248201527f5045524d49545f444541444c494e455f45585049524544000000000000000000604482015260640161092b565b60006001610dc4610864565b6001600160a01b038a811660008181526005602090815260409182902080546001810190915582517f6e71edae12b1b97f4d1f60370fef10105fa2faae0126114a169c64845d6126c98184015280840194909452938d166060840152608083018c905260a083019390935260c08083018b90528151808403909101815260e08301909152805192019190912061190160f01b6101008301526101028201929092526101228101919091526101420160408051601f198184030181528282528051602091820120600084529083018083525260ff871690820152606081018590526080810184905260a0016020604051602081039080840390855afa158015610ed0573d6000803e3d6000fd5b5050604051601f1901519150506001600160a01b03811615801590610f065750876001600160a01b0316816001600160a01b0316145b610f435760405162461bcd60e51b815260206004820152600e60248201526d24a72b20a624a22fa9a4a3a722a960911b604482015260640161092b565b6001600160a01b0390811660009081526004602090815260408083208a8516808552908352928190208990555188815291928a16917f8c5be1e5ebec7d5bd14f71427d1e84f3dd0314c0f7b2291e5b200ac8c7c3b925910160405180910390a350505050505050565b600061075e82610d48565b828202811515841585830485141716610fcf57600080fd5b0492915050565b828202811515841585830485141716610fee57600080fd5b6001826001830304018115150290509392505050565b60007f8b73c3c69bb8fe3d512ecc4cf759cc79239f7b179b0ffacaa9a75d522b39400f600060405161103691906115bf565b6040805191829003822060208301939093528101919091527fc89efdaa54c0f20c7adf612882df0950f5a951637e0307cdcb4c672f298b8bc660608201524660808201523060a082015260c00160405160208183030381529060405280519060200120905090565b60006040516323b872dd60e01b81528460048201528360248201528260448201526020600060648360008a5af13d15601f3d11600160005114161716915050806111215760405162461bcd60e51b81526020600482015260146024820152731514905394d1915497d19493d357d1905253115160621b604482015260640161092b565b5050505050565b806002600082825461113a919061165b565b90915550506001600160a01b03821660008181526003602090815260408083208054860190555184815260008051602061167483398151915291015b60405180910390a35050565b60405163b6b55f2560e01b8152600481018390527f00000000000000000000000000000000000000000000000000000000000000006001600160a01b03169063b6b55f25906024015b600060405180830381600087803b1580156111e557600080fd5b505af11580156111f9573d6000803e3d6000fd5b505050505050565b604051632e1a7d4d60e01b8152600481018290527f00000000000000000000000000000000000000000000000000000000000000006001600160a01b031690632e1a7d4d906024016111cb565b6001600160a01b038216600090815260036020526040812080548392906112769084906115a8565b90915550506002805482900390556040518181526000906001600160a01b0384169060008051602061167483398151915290602001611176565b600060405163a9059cbb60e01b8152836004820152826024820152602060006044836000895af13d15601f3d11600160005114161716915050806113285760405162461bcd60e51b815260206004820152600f60248201526e1514905394d1915497d19052531151608a1b604482015260640161092b565b50505050565b600060208083528351808285015260005b8181101561135b5785810183015185820160400152820161133f565b8181111561136d576000604083870101525b50601f01601f1916929092016040019392505050565b60006020828403121561139557600080fd5b5035919050565b80356001600160a01b03811681146113b357600080fd5b919050565b600080604083850312156113cb57600080fd5b6113d48361139c565b946020939093013593505050565b6000806000606084860312156113f757600080fd5b6114008461139c565b925061140e6020850161139c565b9150604084013590509250925092565b60006020828403121561143057600080fd5b6106f08261139c565b6000806040838503121561144c57600080fd5b8235915061145c6020840161139c565b90509250929050565b60008060006060848603121561147a57600080fd5b8335925061148a6020850161139c565b91506114986040850161139c565b90509250925092565b600080600080600080600060e0888a0312156114bc57600080fd5b6114c58861139c565b96506114d36020890161139c565b95506040880135945060608801359350608088013560ff811681146114f757600080fd5b9699959850939692959460a0840135945060c09093013592915050565b6000806040838503121561152757600080fd5b6115308361139c565b915061145c6020840161139c565b60006020828403121561155057600080fd5b5051919050565b600181811c9082168061156b57607f821691505b6020821081141561158c57634e487b7160e01b600052602260045260246000fd5b50919050565b634e487b7160e01b600052601160045260246000fd5b6000828210156115ba576115ba611592565b500390565b600080835481600182811c9150808316806115db57607f831692505b60208084108214156115fb57634e487b7160e01b86526022600452602486fd5b81801561160f57600181146116205761164d565b60ff1986168952848901965061164d565b60008a81526020902060005b868110156116455781548b82015290850190830161162c565b505084890196505b509498975050505050505050565b6000821982111561166e5761166e611592565b50019056feddf252ad1be2c89b69c2b068fc378daa952ba7f163c4a11628f55a4df523b3efa164736f6c634300080a000a",
    "linkReferences": {}
  },
  "methodIdentifiers": {
    "DOMAIN_SEPARATOR()": "3644e515",
    "allowance(address,address)": "dd62ed3e",
    "approve(address,uint256)": "095ea7b3",
    "asset()": "38d52e0f",
    "balanceOf(address)": "70a08231",
    "balanceOfUnderlying(address)": "3af9e669",
    "beefyVault()": "0f0d6569",
    "convertToAssets(uint256)": "07a2d13a",
    "convertToShares(uint256)": "c6e6f592",
    "decimals()": "313ce567",
    "deposit(uint256,address)": "6e553f65",
    "maxDeposit(address)": "402d267d",
    "maxMint(address)": "c63d75b6",
    "maxRedeem(address)": "d905777e",
    "maxWithdraw(address)": "ce96cb77",
    "mint(uint256,address)": "94bf804d",
    "name()": "06fdde03",
    "nonces(address)": "7ecebe00",
    "permit(address,address,uint256,uint256,uint8,bytes32,bytes32)": "d505accf",
    "previewDeposit(uint256)": "ef8b30f7",
    "previewMint(uint256)": "b3d7f6b9",
    "previewRedeem(uint256)": "4cdad506",
    "previewWithdraw(uint256)": "0a28a477",
    "redeem(uint256,address,address)": "ba087652",
    "symbol()": "95d89b41",
    "totalAssets()": "01e1d114",
    "totalSupply()": "18160ddd",
    "transfer(address,uint256)": "a9059cbb",
    "transferFrom(address,address,uint256)": "23b872dd",
    "withdraw(uint256,address,address)": "b460af94"
  },
  "id": 50
}