{
  "abi": [
    {
      "anonymous": false,
      "inputs": [
        {
          "indexed": false,
          "internalType": "address",
          "name": "instance",
          "type": "address"
        }
      ],
      "name": "Deployed",
      "type": "event"
    },
    {
      "inputs": [
        {
          "internalType": "address",
          "name": "master",
          "type": "address"
        },
        {
          "internalType": "bytes",
          "name": "initializer",
          "type": "bytes"
        }
      ],
      "name": "clone",
      "outputs": [
        {
          "internalType": "address",
          "name": "instance",
          "type": "address"
        }
      ],
      "stateMutability": "nonpayable",
      "type": "function"
    }
  ],
  "bytecode": {
    "object": "0x608060405234801561001057600080fd5b50610498806100206000396000f3fe608060405234801561001057600080fd5b506004361061002b5760003560e01c80630fbe133c14610030575b600080fd5b61004361003e36600461033c565b61005f565b6040516001600160a01b03909116815260200160405180910390f35b600061006a83610102565b90506100bf826040518060400160405280601b81526020017f4661696c656420746f20696e697469616c697a6520636c6f6e652e0000000000815250836001600160a01b03166101a39092919063ffffffff16565b506040516001600160a01b03821681527ff40fcec21964ffb566044d083b4073f29f7f7929110ea19e1b3ebe375d89055e9060200160405180910390a192915050565b600060405172602d8060093d393df3363d3d373d3d3d363d7360681b81528260601b60138201526e5af43d82803e903d91602b57fd5bf360881b60278201526036816000f09150506001600160a01b03811661019e5760405162461bcd60e51b8152602060048201526016602482015275115490cc4c4d8dce8818dc99585d194819985a5b195960521b60448201526064015b60405180910390fd5b919050565b60606101b284846000856101bc565b90505b9392505050565b60608247101561021d5760405162461bcd60e51b815260206004820152602660248201527f416464726573733a20696e73756666696369656e742062616c616e636520666f6044820152651c8818d85b1b60d21b6064820152608401610195565b6001600160a01b0385163b6102745760405162461bcd60e51b815260206004820152601d60248201527f416464726573733a2063616c6c20746f206e6f6e2d636f6e74726163740000006044820152606401610195565b600080866001600160a01b03168587604051610290919061043c565b60006040518083038185875af1925050503d80600081146102cd576040519150601f19603f3d011682016040523d82523d6000602084013e6102d2565b606091505b50915091506102e28282866102ed565b979650505050505050565b606083156102fc5750816101b5565b82511561030c5782518084602001fd5b8160405162461bcd60e51b81526004016101959190610458565b634e487b7160e01b600052604160045260246000fd5b6000806040838503121561034f57600080fd5b82356001600160a01b038116811461036657600080fd5b9150602083013567ffffffffffffffff8082111561038357600080fd5b818501915085601f83011261039757600080fd5b8135818111156103a9576103a9610326565b604051601f8201601f19908116603f011681019083821181831017156103d1576103d1610326565b816040528281528860208487010111156103ea57600080fd5b8260208601602083013760006020848301015280955050505050509250929050565b60005b8381101561042757818101518382015260200161040f565b83811115610436576000848401525b50505050565b6000825161044e81846020870161040c565b9190910192915050565b602081526000825180602084015261047781604085016020870161040c565b601f01601f1916919091016040019291505056fea164736f6c634300080a000a",
    "linkReferences": {}
  },
  "methodIdentifiers": {
    "clone(address,bytes)": "0fbe133c"
  },
  "id": 236
}