{
  "abi": [
    {
      "anonymous": false,
      "inputs": [
        {
          "indexed": false,
          "internalType": "uint8",
          "name": "version",
          "type": "uint8"
        }
      ],
      "name": "Initialized",
      "type": "event"
    },
    {
      "inputs": [],
      "name": "directory",
      "outputs": [
        {
          "internalType": "contract FusePoolDirectory",
          "name": "",
          "type": "address"
        }
      ],
      "stateMutability": "view",
      "type": "function"
    },
    {
      "inputs": [
        {
          "internalType": "address",
          "name": "account",
          "type": "address"
        },
        {
          "internalType": "contract ICToken",
          "name": "cTokenModify",
          "type": "address"
        }
      ],
      "name": "getMaxBorrow",
      "outputs": [
        {
          "internalType": "uint256",
          "name": "",
          "type": "uint256"
        }
      ],
      "stateMutability": "nonpayable",
      "type": "function"
    },
    {
      "inputs": [
        {
          "internalType": "address",
          "name": "account",
          "type": "address"
        },
        {
          "internalType": "contract ICToken",
          "name": "cTokenModify",
          "type": "address"
        }
      ],
      "name": "getMaxRedeem",
      "outputs": [
        {
          "internalType": "uint256",
          "name": "",
          "type": "uint256"
        }
      ],
      "stateMutability": "nonpayable",
      "type": "function"
    },
    {
      "inputs": [
        {
          "internalType": "contract IComptroller",
          "name": "comptroller",
          "type": "address"
        }
      ],
      "name": "getPoolOwnership",
      "outputs": [
        {
          "internalType": "address",
          "name": "",
          "type": "address"
        },
        {
          "internalType": "bool",
          "name": "",
          "type": "bool"
        },
        {
          "internalType": "bool",
          "name": "",
          "type": "bool"
        },
        {
          "components": [
            {
              "internalType": "address",
              "name": "cToken",
              "type": "address"
            },
            {
              "internalType": "address",
              "name": "admin",
              "type": "address"
            },
            {
              "internalType": "bool",
              "name": "adminHasRights",
              "type": "bool"
            },
            {
              "internalType": "bool",
              "name": "fuseAdminHasRights",
              "type": "bool"
            }
          ],
          "internalType": "struct FusePoolLensSecondary.CTokenOwnership[]",
          "name": "",
          "type": "tuple[]"
        }
      ],
      "stateMutability": "view",
      "type": "function"
    },
    {
      "inputs": [
        {
          "internalType": "contract IComptroller",
          "name": "comptroller",
          "type": "address"
        }
      ],
      "name": "getRewardSpeedsByPool",
      "outputs": [
        {
          "internalType": "contract ICToken[]",
          "name": "",
          "type": "address[]"
        },
        {
          "internalType": "contract IRewardsDistributor[]",
          "name": "",
          "type": "address[]"
        },
        {
          "internalType": "address[]",
          "name": "",
          "type": "address[]"
        },
        {
          "internalType": "uint256[][]",
          "name": "",
          "type": "uint256[][]"
        },
        {
          "internalType": "uint256[][]",
          "name": "",
          "type": "uint256[][]"
        }
      ],
      "stateMutability": "view",
      "type": "function"
    },
    {
      "inputs": [
        {
          "internalType": "contract IComptroller[]",
          "name": "comptrollers",
          "type": "address[]"
        }
      ],
      "name": "getRewardSpeedsByPools",
      "outputs": [
        {
          "internalType": "contract ICToken[][]",
          "name": "",
          "type": "address[][]"
        },
        {
          "internalType": "contract IRewardsDistributor[][]",
          "name": "",
          "type": "address[][]"
        },
        {
          "internalType": "address[][]",
          "name": "",
          "type": "address[][]"
        },
        {
          "internalType": "uint256[][][]",
          "name": "",
          "type": "uint256[][][]"
        },
        {
          "internalType": "uint256[][][]",
          "name": "",
          "type": "uint256[][][]"
        }
      ],
      "stateMutability": "view",
      "type": "function"
    },
    {
      "inputs": [
        {
          "internalType": "address",
          "name": "supplier",
          "type": "address"
        }
      ],
      "name": "getRewardsDistributorsBySupplier",
      "outputs": [
        {
          "internalType": "uint256[]",
          "name": "",
          "type": "uint256[]"
        },
        {
          "internalType": "contract IComptroller[]",
          "name": "",
          "type": "address[]"
        },
        {
          "internalType": "contract IRewardsDistributor[][]",
          "name": "",
          "type": "address[][]"
        }
      ],
      "stateMutability": "view",
      "type": "function"
    },
    {
      "inputs": [
        {
          "internalType": "address",
          "name": "holder",
          "type": "address"
        },
        {
          "internalType": "contract IRewardsDistributor[]",
          "name": "distributors",
          "type": "address[]"
        }
      ],
      "name": "getUnclaimedRewardsByDistributors",
      "outputs": [
        {
          "internalType": "address[]",
          "name": "",
          "type": "address[]"
        },
        {
          "internalType": "uint256[]",
          "name": "",
          "type": "uint256[]"
        },
        {
          "internalType": "contract ICToken[][]",
          "name": "",
          "type": "address[][]"
        },
        {
          "internalType": "uint256[2][][]",
          "name": "",
          "type": "uint256[2][][]"
        },
        {
          "internalType": "uint256[]",
          "name": "",
          "type": "uint256[]"
        }
      ],
      "stateMutability": "nonpayable",
      "type": "function"
    },
    {
      "inputs": [
        {
          "internalType": "contract FusePoolDirectory",
          "name": "_directory",
          "type": "address"
        }
      ],
      "name": "initialize",
      "outputs": [],
      "stateMutability": "nonpayable",
      "type": "function"
    }
  ],
  "bytecode": {
    "object": "0x608060405234801561001057600080fd5b50612f78806100206000396000f3fe608060405234801561001057600080fd5b50600436106100935760003560e01c806384b3403d1161006657806384b3403d1461011957806397f35ff01461013d578063c41c2f2414610160578063c4d66de814610191578063d24eaf13146101a657600080fd5b80631ec18ec014610098578063338038fa146100be5780633fc5fab5146100e25780636412904214610106575b600080fd5b6100ab6100a63660046123f4565b6101c8565b6040519081526020015b60405180910390f35b6100d16100cc3660046124be565b6101dd565b6040516100b595949392919061263a565b6100f56100f0366004612733565b610786565b6040516100b5959493929190612890565b6100ab6101143660046123f4565b610a08565b61012c61012736600461296f565b610a16565b6040516100b595949392919061298c565b61015061014b36600461296f565b610f33565b6040516100b594939291906129ed565b600054610179906201000090046001600160a01b031681565b6040516001600160a01b0390911681526020016100b5565b6101a461019f36600461296f565b61163b565b005b6101b96101b436600461296f565b611745565b6040516100b593929190612a7d565b60006101d683836001611b33565b9392505050565b6060806060806060600086516001600160401b038111156102005761020061242d565b604051908082528060200260200182016040528015610229578160200160208202803683370190505b509050600087516001600160401b038111156102475761024761242d565b604051908082528060200260200182016040528015610270578160200160208202803683370190505b509050600088516001600160401b0381111561028e5761028e61242d565b6040519080825280602002602001820160405280156102c157816020015b60608152602001906001900390816102ac5790505b509050600089516001600160401b038111156102df576102df61242d565b60405190808252806020026020018201604052801561031257816020015b60608152602001906001900390816102fd5790505b50905060008a516001600160401b038111156103305761033061242d565b604051908082528060200260200182016040528015610359578160200160208202803683370190505b50905060005b8b518110156107725760008c828151811061037c5761037c612ae4565b60200260200101519050806001600160a01b031663f7c618c16040518163ffffffff1660e01b8152600401602060405180830381865afa1580156103c4573d6000803e3d6000fd5b505050506040513d601f19601f820116820180604052508101906103e89190612b05565b8783815181106103fa576103fa612ae4565b60200260200101906001600160a01b031690816001600160a01b031681525050806001600160a01b031663b0772d0b6040518163ffffffff1660e01b8152600401600060405180830381865afa158015610458573d6000803e3d6000fd5b505050506040513d6000823e601f3d908101601f191682016040526104809190810190612b22565b85838151811061049257610492612ae4565b60200260200101819052508482815181106104af576104af612ae4565b6020026020010151516001600160401b038111156104cf576104cf61242d565b60405190808252806020026020018201604052801561050857816020015b6104f56123be565b8152602001906001900390816104ed5790505b5084838151811061051b5761051b612ae4565b602002602001018190525060005b85838151811061053b5761053b612ae4565b602002602001015151811015610631576105888f8388868151811061056257610562612ae4565b6020026020010151848151811061057b5761057b612ae4565b6020026020010151611e36565b86858151811061059a5761059a612ae4565b602002602001015183815181106105b3576105b3612ae4565b60200260200101516000600281106105cd576105cd612ae4565b602002018786815181106105e3576105e3612ae4565b602002602001015184815181106105fc576105fc612ae4565b602002602001015160016002811061061657610616612ae4565b6020020191909152528061062981612bc6565b915050610529565b5060405163331faf7160e21b81526001600160a01b038f8116600483015282169063cc7ebdc490602401602060405180830381865afa158015610678573d6000803e3d6000fd5b505050506040513d601f19601f8201168201806040525081019061069c9190612be1565b8683815181106106ae576106ae612ae4565b6020026020010181815250508682815181106106cc576106cc612ae4565b60209081029190910101516040516370a0823160e01b81526001600160a01b038381166004830152909116906370a0823190602401602060405180830381865afa15801561071e573d6000803e3d6000fd5b505050506040513d601f19601f820116820180604052508101906107429190612be1565b83838151811061075457610754612ae4565b6020908102919091010152508061076a81612bc6565b91505061035f565b50939b929a50909850965090945092505050565b6060806060806060600086516001600160401b038111156107a9576107a961242d565b6040519080825280602002602001820160405280156107dc57816020015b60608152602001906001900390816107c75790505b509050600087516001600160401b038111156107fa576107fa61242d565b60405190808252806020026020018201604052801561082d57816020015b60608152602001906001900390816108185790505b509050600088516001600160401b0381111561084b5761084b61242d565b60405190808252806020026020018201604052801561087e57816020015b60608152602001906001900390816108695790505b509050600089516001600160401b0381111561089c5761089c61242d565b6040519080825280602002602001820160405280156108cf57816020015b60608152602001906001900390816108ba5790505b50905060008a516001600160401b038111156108ed576108ed61242d565b60405190808252806020026020018201604052801561092057816020015b606081526020019060019003908161090b5790505b50905060005b8b518110156109f5576109518c828151811061094457610944612ae4565b6020026020010151610a16565b8a868151811061096357610963612ae4565b602002602001018a878151811061097c5761097c612ae4565b602002602001018a888151811061099557610995612ae4565b602002602001018a89815181106109ae576109ae612ae4565b602002602001018a8a815181106109c7576109c7612ae4565b60200260200101859052859052859052859052859052505050505080806109ed90612bc6565b915050610926565b50939a9299509097509550909350915050565b60006101d683836000611b33565b60608060608060606000866001600160a01b031663b0772d0b6040518163ffffffff1660e01b8152600401600060405180830381865afa158015610a5e573d6000803e3d6000fd5b505050506040513d6000823e601f3d908101601f19168201604052610a869190810190612b22565b90506060876001600160a01b0316633605b51b6040518163ffffffff1660e01b8152600401600060405180830381865afa925050508015610ae957506040513d6000823e601f3d908101601f19168201604052610ae69190810190612bfa565b60015b610b025750604080516000815260208101909152610b05565b90505b600081516001600160401b03811115610b2057610b2061242d565b604051908082528060200260200182016040528015610b49578160200160208202803683370190505b509050600083516001600160401b03811115610b6757610b6761242d565b604051908082528060200260200182016040528015610b9a57816020015b6060815260200190600190039081610b855790505b509050600084516001600160401b03811115610bb857610bb861242d565b604051908082528060200260200182016040528015610beb57816020015b6060815260200190600190039081610bd65790505b50905060005b8451811015610cb157848181518110610c0c57610c0c612ae4565b60200260200101516001600160a01b031663f7c618c16040518163ffffffff1660e01b8152600401602060405180830381865afa158015610c51573d6000803e3d6000fd5b505050506040513d601f19601f82011682018060405250810190610c759190612b05565b848281518110610c8757610c87612ae4565b6001600160a01b039092166020928302919091019091015280610ca981612bc6565b915050610bf1565b5060005b85518110156109f5576000868281518110610cd257610cd2612ae4565b6020026020010151905085516001600160401b03811115610cf557610cf561242d565b604051908082528060200260200182016040528015610d1e578160200160208202803683370190505b50848381518110610d3157610d31612ae4565b602002602001018190525085516001600160401b03811115610d5557610d5561242d565b604051908082528060200260200182016040528015610d7e578160200160208202803683370190505b50838381518110610d9157610d91612ae4565b602002602001018190525060005b8651811015610f1e576000878281518110610dbc57610dbc612ae4565b6020908102919091010151604051636aa875b560e01b81526001600160a01b03858116600483015291925090821690636aa875b590602401602060405180830381865afa158015610e11573d6000803e3d6000fd5b505050506040513d601f19601f82011682018060405250810190610e359190612be1565b868581518110610e4757610e47612ae4565b60200260200101518381518110610e6057610e60612ae4565b60209081029190910101526040516303d290cf60e61b81526001600160a01b03848116600483015282169063f4a433c090602401602060405180830381865afa158015610eb1573d6000803e3d6000fd5b505050506040513d601f19601f82011682018060405250810190610ed59190612be1565b858581518110610ee757610ee7612ae4565b60200260200101518381518110610f0057610f00612ae4565b60209081029190910101525080610f1681612bc6565b915050610d9f565b50508080610f2b90612bc6565b915050610cb5565b600080600060606000856001600160a01b031663f851a4406040518163ffffffff1660e01b8152600401602060405180830381865afa158015610f7a573d6000803e3d6000fd5b505050506040513d601f19601f82011682018060405250810190610f9e9190612b05565b90506000866001600160a01b0316630a755ec26040518163ffffffff1660e01b8152600401602060405180830381865afa158015610fe0573d6000803e3d6000fd5b505050506040513d601f19601f820116820180604052508101906110049190612c98565b90506000876001600160a01b0316632f1069ba6040518163ffffffff1660e01b8152600401602060405180830381865afa158015611046573d6000803e3d6000fd5b505050506040513d601f19601f8201168201806040525081019061106a9190612c98565b90506000886001600160a01b031663b0772d0b6040518163ffffffff1660e01b8152600401600060405180830381865afa1580156110ac573d6000803e3d6000fd5b505050506040513d6000823e601f3d908101601f191682016040526110d49190810190612b22565b90506000805b82518110156113155760008382815181106110f7576110f7612ae4565b6020908102919091010151604051638e8f294b60e01b81526001600160a01b0380831660048301529192506000918e1690638e8f294b906024016040805180830381865afa15801561114d573d6000803e3d6000fd5b505050506040513d601f19601f820116820180604052508101906111719190612cb3565b50905080611180575050611303565b6000826001600160a01b031663f851a4406040518163ffffffff1660e01b8152600401602060405180830381865afa9250505080156111dc575060408051601f3d908101601f191682019092526111d991810190612b05565b60015b6111e857505050611303565b90506000836001600160a01b0316630a755ec26040518163ffffffff1660e01b8152600401602060405180830381865afa15801561122a573d6000803e3d6000fd5b505050506040513d601f19601f8201168201806040525081019061124e9190612c98565b90506000846001600160a01b0316632f1069ba6040518163ffffffff1660e01b8152600401602060405180830381865afa158015611290573d6000803e3d6000fd5b505050506040513d601f19601f820116820180604052508101906112b49190612c98565b90508a6001600160a01b0316836001600160a01b03161415806112db575089151582151514155b806112ea575088151581151514155b156112fd57866112f981612bc6565b9750505b50505050505b8061130d81612bc6565b9150506110da565b506000816001600160401b038111156113305761133061242d565b60405190808252806020026020018201604052801561138257816020015b60408051608081018252600080825260208083018290529282018190526060820152825260001990920191018161134e5790505b5090506000805b84518110156116265760008582815181106113a6576113a6612ae4565b6020026020010151905060008e6001600160a01b0316638e8f294b836040518263ffffffff1660e01b81526004016113ed91906001600160a01b0391909116815260200190565b6040805180830381865afa158015611409573d6000803e3d6000fd5b505050506040513d601f19601f8201168201806040525081019061142d9190612cb3565b5090508061143c575050611614565b6000826001600160a01b031663f851a4406040518163ffffffff1660e01b8152600401602060405180830381865afa925050508015611498575060408051601f3d908101601f1916820190925261149591810190612b05565b60015b6114a457505050611614565b90506000836001600160a01b0316630a755ec26040518163ffffffff1660e01b8152600401602060405180830381865afa1580156114e6573d6000803e3d6000fd5b505050506040513d601f19601f8201168201806040525081019061150a9190612c98565b90506000846001600160a01b0316632f1069ba6040518163ffffffff1660e01b8152600401602060405180830381865afa15801561154c573d6000803e3d6000fd5b505050506040513d601f19601f820116820180604052508101906115709190612c98565b90508c6001600160a01b0316836001600160a01b031614158061159757508b151582151514155b806115a657508a151581151514155b1561160e576040518060800160405280866001600160a01b03168152602001846001600160a01b0316815260200183151581526020018215158152508888815181106115f4576115f4612ae4565b6020026020010181905250868061160a90612bc6565b9750505b50505050505b8061161e81612bc6565b915050611389565b50959b949a5092985091965091945050505050565b600061164760016120e4565b9050801561165f576000805461ff0019166101001790555b6001600160a01b0382166116d95760405162461bcd60e51b815260206004820152603660248201527f46757365506f6f6c4469726563746f727920696e7374616e63652063616e6e6f6044820152753a103132903a3432903d32b9379030b2323932b9b99760511b60648201526084015b60405180910390fd5b6000805462010000600160b01b031916620100006001600160a01b038516021790558015611741576000805461ff0019169055604051600181527f7f26b83ff96e1f2b6a682f133852f6798a09c465da95921460cefb38474024989060200160405180910390a15b5050565b606080606060008060029054906101000a90046001600160a01b03166001600160a01b031663d88ff1f46040518163ffffffff1660e01b8152600401600060405180830381865afa15801561179e573d6000803e3d6000fd5b505050506040513d6000823e601f3d908101601f191682016040526117c69190810190612cdf565b90506000805b8251811015611897578281815181106117e7576117e7612ae4565b6020026020010151604001516001600160a01b03166316dc15fe886040518263ffffffff1660e01b815260040161182d91906001600160a01b0391909116815260200190565b602060405180830381865afa925050508015611866575060408051601f3d908101601f1916820190925261186391810190612c98565b60015b61186f57611885565b8015611883578261187f81612bc6565b9350505b505b8061188f81612bc6565b9150506117cc565b506000816001600160401b038111156118b2576118b261242d565b6040519080825280602002602001820160405280156118db578160200160208202803683370190505b5090506000826001600160401b038111156118f8576118f861242d565b604051908082528060200260200182016040528015611921578160200160208202803683370190505b5090506000836001600160401b0381111561193e5761193e61242d565b60405190808252806020026020018201604052801561197157816020015b606081526020019060019003908161195c5790505b5090506000805b8651811015611b2357600087828151811061199557611995612ae4565b6020026020010151604001519050806001600160a01b03166316dc15fe8d6040518263ffffffff1660e01b81526004016119de91906001600160a01b0391909116815260200190565b602060405180830381865afa925050508015611a17575060408051601f3d908101601f19168201909252611a1491810190612c98565b60015b611a2057611b10565b8015611b0e5782878581518110611a3957611a39612ae4565b60200260200101818152505081868581518110611a5857611a58612ae4565b60200260200101906001600160a01b031690816001600160a01b031681525050816001600160a01b0316633605b51b6040518163ffffffff1660e01b8152600401600060405180830381865afa925050508015611ad757506040513d6000823e601f3d908101601f19168201604052611ad49190810190612bfa565b60015b611ae057611b00565b80868681518110611af357611af3612ae4565b6020026020010181905250505b83611b0a81612bc6565b9450505b505b5080611b1b81612bc6565b915050611978565b5092999198509650945050505050565b604051633af9e66960e01b81526001600160a01b0384811660048301526000918291851690633af9e669906024016020604051808303816000875af1158015611b80573d6000803e3d6000fd5b505050506040513d601f19601f82011682018060405250810190611ba49190612be1565b90506000846001600160a01b0316635fe3b5676040518163ffffffff1660e01b8152600401602060405180830381865afa158015611be6573d6000803e3d6000fd5b505050506040513d601f19601f82011682018060405250810190611c0a9190612b05565b604051635ec88c7960e01b81526001600160a01b03888116600483015291925060009182918291851690635ec88c7990602401606060405180830381865afa158015611c5a573d6000803e3d6000fd5b505050506040513d601f19601f82011682018060405250810190611c7e9190612e6e565b92509250925082600014611cf25760405162461bcd60e51b815260206004820152603560248201527f436f6d7074726f6c6c6572206572726f72207768656e2063616c63756c61746960448201527437339030b1b1b7bab73a103634b8bab4b234ba3c9760591b60648201526084016116d0565b8015611d06576000955050505050506101d6565b600087158015611d83575060405163929fe9a160e01b81523360048201526001600160a01b038a8116602483015286169063929fe9a190604401602060405180830381865afa158015611d5d573d6000803e3d6000fd5b505050506040513d601f19601f82011682018060405250810190611d819190612c98565b155b15611d8f575084611db1565b611d9a838a8a612171565b905087158015611da957508086105b15611db15750845b6000896001600160a01b0316633b1d21a26040518163ffffffff1660e01b8152600401602060405180830381865afa158015611df1573d6000803e3d6000fd5b505050506040513d601f19601f82011682018060405250810190611e159190612be1565b905080821115611e255780611e27565b815b9b9a5050505050505050505050565b60405163331faf7160e21b81526001600160a01b038481166004830152600091829182919086169063cc7ebdc490602401602060405180830381865afa158015611e84573d6000803e3d6000fd5b505050506040513d601f19601f82011682018060405250810190611ea89190612be1565b60405162e48b0f60e51b81526001600160a01b038681166004830152888116602483015291925090861690631c9161e090604401600060405180830381600087803b158015611ef657600080fd5b505af1158015611f0a573d6000803e3d6000fd5b505060405163331faf7160e21b81526001600160a01b0389811660048301526000935084925088169063cc7ebdc490602401602060405180830381865afa158015611f59573d6000803e3d6000fd5b505050506040513d601f19601f82011682018060405250810190611f7d9190612be1565b611f879190612e9c565b60405163331faf7160e21b81526001600160a01b0389811660048301529192509087169063cc7ebdc490602401602060405180830381865afa158015611fd1573d6000803e3d6000fd5b505050506040513d601f19601f82011682018060405250810190611ff59190612be1565b604051631cdc2c5d60e31b81526001600160a01b03878116600483015289811660248301529193509087169063e6e162e890604401600060405180830381600087803b15801561204457600080fd5b505af1158015612058573d6000803e3d6000fd5b505060405163331faf7160e21b81526001600160a01b038a811660048301526000935085925089169063cc7ebdc490602401602060405180830381865afa1580156120a7573d6000803e3d6000fd5b505050506040513d601f19601f820116820180604052508101906120cb9190612be1565b6120d59190612e9c565b91989197509095505050505050565b60008054610100900460ff161561212b578160ff1660011480156121075750303b155b6121235760405162461bcd60e51b81526004016116d090612eb3565b506000919050565b60005460ff8084169116106121525760405162461bcd60e51b81526004016116d090612eb3565b506000805460ff191660ff92909216919091179055600190565b919050565b6000808411612182575060006101d6565b6000836001600160a01b0316635fe3b5676040518163ffffffff1660e01b8152600401602060405180830381865afa1580156121c2573d6000803e3d6000fd5b505050506040513d601f19601f820116820180604052508101906121e69190612b05565b90506000816001600160a01b0316637dc0d1d06040518163ffffffff1660e01b8152600401602060405180830381865afa158015612228573d6000803e3d6000fd5b505050506040513d601f19601f8201168201806040525081019061224c9190612b05565b60405163fc57d4df60e01b81526001600160a01b038781166004830152919091169063fc57d4df90602401602060405180830381865afa158015612294573d6000803e3d6000fd5b505050506040513d601f19601f820116820180604052508101906122b89190612be1565b9050600081116123005760405162461bcd60e51b815260206004820152601360248201527227b930b1b63290383934b1b29032b93937b91760691b60448201526064016116d0565b8361239757604051638e8f294b60e01b81526001600160a01b03868116600483015260009190841690638e8f294b906024016040805180830381865afa15801561234e573d6000803e3d6000fd5b505050506040513d601f19601f820116820180604052508101906123729190612cb3565b9150670de0b6b3a764000090506123898383612f01565b6123939190612f20565b9150505b806123aa87670de0b6b3a7640000612f01565b6123b49190612f20565b9695505050505050565b60405180604001604052806002906020820280368337509192915050565b6001600160a01b03811681146123f157600080fd5b50565b6000806040838503121561240757600080fd5b8235612412816123dc565b91506020830135612422816123dc565b809150509250929050565b634e487b7160e01b600052604160045260246000fd5b60405160a081016001600160401b03811182821017156124655761246561242d565b60405290565b604051601f8201601f191681016001600160401b03811182821017156124935761249361242d565b604052919050565b60006001600160401b038211156124b4576124b461242d565b5060051b60200190565b600080604083850312156124d157600080fd5b82356124dc816123dc565b91506020838101356001600160401b038111156124f857600080fd5b8401601f8101861361250957600080fd5b803561251c6125178261249b565b61246b565b81815260059190911b8201830190838101908883111561253b57600080fd5b928401925b82841015612562578335612553816123dc565b82529284019290840190612540565b80955050505050509250929050565b600081518084526020808501945080840160005b838110156125aa5781516001600160a01b031687529582019590820190600101612585565b509495945050505050565b600081518084526020808501945080840160005b838110156125aa578151875295820195908201906001016125c9565b600081518084526020808501808196508360051b8101915082860160005b8581101561262d57828403895261261b848351612571565b98850198935090840190600101612603565b5091979650505050505050565b60a08152600061264d60a0830188612571565b60208382038185015261266082896125b5565b915060408483038186015261267583896125e5565b925084830360608601528287518085528385019150838160051b860101848a0160005b8381101561270e57878303601f1901855281518051808552908801908885019060005b818110156126f95783518360005b60028110156126e65782518252918d0191908d01906001016126c9565b505050928a0192918901916001016126bb565b50509588019593505090860190600101612698565b50508781036080890152612722818a6125b5565b9d9c50505050505050505050505050565b6000602080838503121561274657600080fd5b82356001600160401b0381111561275c57600080fd5b8301601f8101851361276d57600080fd5b803561277b6125178261249b565b81815260059190911b8201830190838101908783111561279a57600080fd5b928401925b828410156127c15783356127b2816123dc565b8252928401929084019061279f565b979650505050505050565b600081518084526020808501808196508360051b810191508286016000805b8681101561283a578385038a52825180518087529087019087870190845b8181101561282557835183529289019291890191600101612809565b50509a87019a955050918501916001016127eb565b509298975050505050505050565b600081518084526020808501808196508360051b8101915082860160005b8581101561262d57828403895261287e8483516127cc565b98850198935090840190600101612866565b60a0815260006128a360a08301886125e5565b6020838203818501526128b682896125e5565b915083820360408501528187518084528284019150828160051b850101838a016000805b8481101561293657878403601f19018652825180518086529088019088860190845b818110156129215783516001600160a01b03168352928a0192918a01916001016128fc565b505096880196945050918601916001016128da565b505050868103606088015261294b818a612848565b94505050505082810360808401526129638185612848565b98975050505050505050565b60006020828403121561298157600080fd5b81356101d6816123dc565b60a08152600061299f60a0830188612571565b82810360208401526129b18188612571565b905082810360408401526129c58187612571565b905082810360608401526129d981866127cc565b9050828103608084015261296381856127cc565b6000608080830160018060a01b0380891685526020881515818701526040881515818801526060858189015284895180875260a08a019150848b01965060005b81811015612a6a57875180518816845286810151881687850152858101511515868501528401511515848401529685019691880191600101612a2d565b50909d9c50505050505050505050505050565b606081526000612a9060608301866125b5565b82810360208481019190915285518083528682019282019060005b81811015612ad05784516001600160a01b031683529383019391830191600101612aab565b5050848103604086015261296381876125e5565b634e487b7160e01b600052603260045260246000fd5b805161216c816123dc565b600060208284031215612b1757600080fd5b81516101d6816123dc565b60006020808385031215612b3557600080fd5b82516001600160401b03811115612b4b57600080fd5b8301601f81018513612b5c57600080fd5b8051612b6a6125178261249b565b81815260059190911b82018301908381019087831115612b8957600080fd5b928401925b828410156127c1578351612ba1816123dc565b82529284019290840190612b8e565b634e487b7160e01b600052601160045260246000fd5b6000600019821415612bda57612bda612bb0565b5060010190565b600060208284031215612bf357600080fd5b5051919050565b60006020808385031215612c0d57600080fd5b82516001600160401b03811115612c2357600080fd5b8301601f81018513612c3457600080fd5b8051612c426125178261249b565b81815260059190911b82018301908381019087831115612c6157600080fd5b928401925b828410156127c1578351612c79816123dc565b82529284019290840190612c66565b8051801515811461216c57600080fd5b600060208284031215612caa57600080fd5b6101d682612c88565b60008060408385031215612cc657600080fd5b612ccf83612c88565b9150602083015190509250929050565b60006020808385031215612cf257600080fd5b82516001600160401b0380821115612d0957600080fd5b818501915085601f830112612d1d57600080fd5b8151612d2b6125178261249b565b81815260059190911b83018401908481019088831115612d4a57600080fd5b8585015b83811015612e6157805185811115612d6557600080fd5b8601601f1960a0828d0382011215612d7d5760008081fd5b612d85612443565b8983015188811115612d975760008081fd5b8301603f81018e13612da95760008081fd5b8a81015189811115612dbd57612dbd61242d565b612dcd8c85601f8401160161246b565b935080845260408f81838501011115612de65760008081fd5b60005b82811015612e04578381018201518682018f01528d01612de9565b82811115612e155760008e84880101525b50848452612e24818701612afa565b8d85015260609450612e37858701612afa565b9084015250506080838101519282019290925260a090920151908201528352918601918601612d4e565b5098975050505050505050565b600080600060608486031215612e8357600080fd5b8351925060208401519150604084015190509250925092565b600082821015612eae57612eae612bb0565b500390565b6020808252602e908201527f496e697469616c697a61626c653a20636f6e747261637420697320616c72656160408201526d191e481a5b9a5d1a585b1a5e995960921b606082015260800190565b6000816000190483118215151615612f1b57612f1b612bb0565b500290565b600082612f3d57634e487b7160e01b600052601260045260246000fd5b50049056fea2646970667358221220b005a27c927785c28b5874e4a38acbeec699458fe211e6765ae3c83d612864c564736f6c634300080a0033",
    "linkReferences": {}
  }
}