{
  "abi": [
    {
      "anonymous": false,
      "inputs": [
        {
          "indexed": false,
          "internalType": "address",
          "name": "asset",
          "type": "address"
        },
        {
          "indexed": false,
          "internalType": "uint256",
          "name": "previousPriceMantissa",
          "type": "uint256"
        },
        {
          "indexed": false,
          "internalType": "uint256",
          "name": "requestedPriceMantissa",
          "type": "uint256"
        },
        {
          "indexed": false,
          "internalType": "uint256",
          "name": "newPriceMantissa",
          "type": "uint256"
        }
      ],
      "name": "PricePosted",
      "type": "event"
    },
    {
      "inputs": [
        {
          "internalType": "address",
          "name": "asset",
          "type": "address"
        }
      ],
      "name": "assetPrices",
      "outputs": [
        {
          "internalType": "uint256",
          "name": "",
          "type": "uint256"
        }
      ],
      "stateMutability": "view",
      "type": "function"
    },
    {
      "inputs": [
        {
          "internalType": "contract CToken",
          "name": "cToken",
          "type": "address"
        }
      ],
      "name": "getUnderlyingPrice",
      "outputs": [
        {
          "internalType": "uint256",
          "name": "",
          "type": "uint256"
        }
      ],
      "stateMutability": "view",
      "type": "function"
    },
    {
      "inputs": [],
      "name": "isPriceOracle",
      "outputs": [
        {
          "internalType": "bool",
          "name": "",
          "type": "bool"
        }
      ],
      "stateMutability": "view",
      "type": "function"
    },
    {
      "inputs": [
        {
          "internalType": "address",
          "name": "underlying",
          "type": "address"
        }
      ],
      "name": "price",
      "outputs": [
        {
          "internalType": "uint256",
          "name": "",
          "type": "uint256"
        }
      ],
      "stateMutability": "view",
      "type": "function"
    },
    {
      "inputs": [
        {
          "internalType": "address",
          "name": "asset",
          "type": "address"
        },
        {
          "internalType": "uint256",
          "name": "price",
          "type": "uint256"
        }
      ],
      "name": "setDirectPrice",
      "outputs": [],
      "stateMutability": "nonpayable",
      "type": "function"
    },
    {
      "inputs": [
        {
          "internalType": "contract CToken",
          "name": "cToken",
          "type": "address"
        },
        {
          "internalType": "uint256",
          "name": "underlyingPriceMantissa",
          "type": "uint256"
        }
      ],
      "name": "setUnderlyingPrice",
      "outputs": [],
      "stateMutability": "nonpayable",
      "type": "function"
    }
  ],
  "bytecode": {
    "object": "0x608060405234801561001057600080fd5b50610597806100206000396000f3fe608060405234801561001057600080fd5b50600436106100625760003560e01c806309a8acb014610067578063127ffda01461007c5780635e9a523c1461008f57806366331bba146100cb578063aea910781461008f578063fc57d4df146100e3575b600080fd5b61007a6100753660046103e5565b6100f6565b005b61007a61008a3660046103e5565b61016f565b6100b861009d366004610411565b6001600160a01b031660009081526020819052604090205490565b6040519081526020015b60405180910390f35b6100d3600181565b60405190151581526020016100c2565b6100b86100f1366004610411565b61024e565b6001600160a01b03821660008181526020818152604091829020548251938452908301528101829052606081018290527fdd71a1d19fcba687442a1d5c58578f1e409af71a79d10fd95a4d66efd8fa9ae79060800160405180910390a16001600160a01b03909116600090815260208190526040902055565b6000826001600160a01b0316636f307dc36040518163ffffffff1660e01b8152600401602060405180830381865afa1580156101af573d6000803e3d6000fd5b505050506040513d601f19601f820116820180604052508101906101d39190610435565b6001600160a01b03811660008181526020818152604091829020548251938452908301528101849052606081018490529091507fdd71a1d19fcba687442a1d5c58578f1e409af71a79d10fd95a4d66efd8fa9ae79060800160405180910390a16001600160a01b031660009081526020819052604090205550565b60006102db826001600160a01b03166395d89b416040518163ffffffff1660e01b8152600401600060405180830381865afa158015610291573d6000803e3d6000fd5b505050506040513d6000823e601f3d908101601f191682016040526102b99190810190610498565b604051806040016040528060048152602001630c68aa8960e31b815250610374565b156102ef5750670de0b6b3a7640000919050565b600080836001600160a01b0316636f307dc36040518163ffffffff1660e01b8152600401602060405180830381865afa158015610330573d6000803e3d6000fd5b505050506040513d601f19601f820116820180604052508101906103549190610435565b6001600160a01b0316815260208101919091526040016000205492915050565b6000816040516020016103879190610545565b60405160208183030381529060405280519060200120836040516020016103ae9190610545565b6040516020818303038152906040528051906020012014905092915050565b6001600160a01b03811681146103e257600080fd5b50565b600080604083850312156103f857600080fd5b8235610403816103cd565b946020939093013593505050565b60006020828403121561042357600080fd5b813561042e816103cd565b9392505050565b60006020828403121561044757600080fd5b815161042e816103cd565b634e487b7160e01b600052604160045260246000fd5b60005b8381101561048357818101518382015260200161046b565b83811115610492576000848401525b50505050565b6000602082840312156104aa57600080fd5b815167ffffffffffffffff808211156104c257600080fd5b818401915084601f8301126104d657600080fd5b8151818111156104e8576104e8610452565b604051601f8201601f19908116603f0116810190838211818310171561051057610510610452565b8160405282815287602084870101111561052957600080fd5b61053a836020830160208801610468565b979650505050505050565b60008251610557818460208701610468565b919091019291505056fea264697066735822122076861660e36c8818e1f7d0edd3fe2daac4383f2628c7b298619067538280d67864736f6c634300080a0033",
    "linkReferences": {}
  }
}