{
  "abi": [
    {
      "inputs": [
        {
          "internalType": "uint256",
          "name": "_maxSecondsBeforePriceIsStale",
          "type": "uint256"
        }
      ],
      "stateMutability": "nonpayable",
      "type": "constructor"
    },
    {
      "inputs": [
        {
          "internalType": "contract ICToken",
          "name": "cToken",
          "type": "address"
        }
      ],
      "name": "getUnderlyingPrice",
      "outputs": [
        {
          "internalType": "uint256",
          "name": "",
          "type": "uint256"
        }
      ],
      "stateMutability": "view",
      "type": "function"
    },
    {
      "inputs": [
        {
          "internalType": "address",
          "name": "underlying",
          "type": "address"
        }
      ],
      "name": "hasPriceFeed",
      "outputs": [
        {
          "internalType": "bool",
          "name": "",
          "type": "bool"
        }
      ],
      "stateMutability": "view",
      "type": "function"
    },
    {
      "inputs": [],
      "name": "maxSecondsBeforePriceIsStale",
      "outputs": [
        {
          "internalType": "uint256",
          "name": "",
          "type": "uint256"
        }
      ],
      "stateMutability": "view",
      "type": "function"
    },
    {
      "inputs": [
        {
          "internalType": "address",
          "name": "underlying",
          "type": "address"
        }
      ],
      "name": "price",
      "outputs": [
        {
          "internalType": "uint256",
          "name": "",
          "type": "uint256"
        }
      ],
      "stateMutability": "view",
      "type": "function"
    }
  ],
  "bytecode": {
    "object": "0x608060405234801561001057600080fd5b506040516103fe3803806103fe83398101604081905261002f91610037565b600055610050565b60006020828403121561004957600080fd5b5051919050565b61039f8061005f6000396000f3fe608060405234801561001057600080fd5b506004361061004c5760003560e01c80630b7983a214610051578063aea910781461007a578063e073a2411461009b578063fc57d4df146100a4575b600080fd5b61006561005f3660046102a4565b50600190565b60405190151581526020015b60405180910390f35b61008d6100883660046102a4565b6100b7565b604051908152602001610071565b61008d60005481565b61008d6100b23660046102a4565b6100c8565b60006100c2826101b5565b92915050565b6000816001600160a01b031663ac784ddc6040518163ffffffff1660e01b8152600401602060405180830381865afa158015610108573d6000803e3d6000fd5b505050506040513d601f19601f8201168201806040525081019061012c91906102c8565b156101405750670de0b6b3a7640000919050565b6000826001600160a01b0316636f307dc36040518163ffffffff1660e01b8152600401602060405180830381865afa158015610180573d6000803e3d6000fd5b505050506040513d601f19601f820116820180604052508101906101a491906102ea565b50670de0b6b3a76400009392505050565b600073c02aaa39b223fe8d0a0e5c4f27ead9083c756cc26001600160a01b03831614156101eb5750670de0b6b3a7640000919050565b600160006101f7610229565b9050670de0b6b3a76400008161020d848361031d565b6102179190610352565b6102219190610352565b949350505050565b6000806063423360405160200161025c92919091825260601b6bffffffffffffffffffffffff1916602082015260340190565b6040516020818303038152906040528051906020012060001c61027f9190610366565b90506100c281600161037a565b6001600160a01b03811681146102a157600080fd5b50565b6000602082840312156102b657600080fd5b81356102c18161028c565b9392505050565b6000602082840312156102da57600080fd5b815180151581146102c157600080fd5b6000602082840312156102fc57600080fd5b81516102c18161028c565b634e487b7160e01b600052601160045260246000fd5b600081600019048311821515161561033757610337610307565b500290565b634e487b7160e01b600052601260045260246000fd5b6000826103615761036161033c565b500490565b6000826103755761037561033c565b500690565b6000821982111561038d5761038d610307565b50019056fea164736f6c634300080a000a",
    "linkReferences": {}
  },
  "methodIdentifiers": {
    "getUnderlyingPrice(address)": "fc57d4df",
    "hasPriceFeed(address)": "0b7983a2",
    "maxSecondsBeforePriceIsStale()": "e073a241",
    "price(address)": "aea91078"
  },
  "id": 158
}