{
  "abi": [
    {
      "inputs": [],
      "name": "target",
      "outputs": [
        {
          "internalType": "address",
          "name": "",
          "type": "address"
        }
      ],
      "stateMutability": "view",
      "type": "function"
    }
  ],
  "bytecode": {
    "object": "0x6080604052348015600f57600080fd5b5060918061001e6000396000f3fe6080604052348015600f57600080fd5b506004361060285760003560e01c8063d4b8399214602d575b600080fd5b600054603f906001600160a01b031681565b6040516001600160a01b03909116815260200160405180910390f3fea264697066735822122067969d12db90adb3616abd45db3ed3a1c028056d8abe5a6a3b67da9b99b1ea4064736f6c634300080a0033",
    "linkReferences": {}
  },
  "methodIdentifiers": {
    "target()": "d4b83992"
  },
  "id": 113
}