{
  "abi": [
    {
      "inputs": [],
      "name": "target",
      "outputs": [
        {
          "internalType": "address",
          "name": "",
          "type": "address"
        }
      ],
      "stateMutability": "view",
      "type": "function"
    }
  ],
  "bytecode": {
    "object": "0x6080604052348015600f57600080fd5b5060688061001e6000396000f3fe6080604052348015600f57600080fd5b506004361060285760003560e01c8063d4b8399214602d575b600080fd5b600054603f906001600160a01b031681565b6040516001600160a01b03909116815260200160405180910390f3fea164736f6c634300080a000a",
    "linkReferences": {}
  },
  "methodIdentifiers": {
    "target()": "d4b83992"
  },
  "id": 113
}