{
  "abi": [
    {
      "anonymous": false,
      "inputs": [
        {
          "indexed": false,
          "internalType": "uint256",
          "name": "cashPrior",
          "type": "uint256"
        },
        {
          "indexed": false,
          "internalType": "uint256",
          "name": "interestAccumulated",
          "type": "uint256"
        },
        {
          "indexed": false,
          "internalType": "uint256",
          "name": "borrowIndex",
          "type": "uint256"
        },
        {
          "indexed": false,
          "internalType": "uint256",
          "name": "totalBorrows",
          "type": "uint256"
        }
      ],
      "name": "AccrueInterest",
      "type": "event"
    },
    {
      "anonymous": false,
      "inputs": [
        {
          "indexed": true,
          "internalType": "address",
          "name": "owner",
          "type": "address"
        },
        {
          "indexed": true,
          "internalType": "address",
          "name": "spender",
          "type": "address"
        },
        {
          "indexed": false,
          "internalType": "uint256",
          "name": "amount",
          "type": "uint256"
        }
      ],
      "name": "Approval",
      "type": "event"
    },
    {
      "anonymous": false,
      "inputs": [
        {
          "indexed": false,
          "internalType": "address",
          "name": "borrower",
          "type": "address"
        },
        {
          "indexed": false,
          "internalType": "uint256",
          "name": "borrowAmount",
          "type": "uint256"
        },
        {
          "indexed": false,
          "internalType": "uint256",
          "name": "accountBorrows",
          "type": "uint256"
        },
        {
          "indexed": false,
          "internalType": "uint256",
          "name": "totalBorrows",
          "type": "uint256"
        }
      ],
      "name": "Borrow",
      "type": "event"
    },
    {
      "anonymous": false,
      "inputs": [
        {
          "indexed": false,
          "internalType": "uint256",
          "name": "error",
          "type": "uint256"
        },
        {
          "indexed": false,
          "internalType": "uint256",
          "name": "info",
          "type": "uint256"
        },
        {
          "indexed": false,
          "internalType": "uint256",
          "name": "detail",
          "type": "uint256"
        }
      ],
      "name": "Failure",
      "type": "event"
    },
    {
      "anonymous": false,
      "inputs": [
        {
          "indexed": false,
          "internalType": "address",
          "name": "liquidator",
          "type": "address"
        },
        {
          "indexed": false,
          "internalType": "address",
          "name": "borrower",
          "type": "address"
        },
        {
          "indexed": false,
          "internalType": "uint256",
          "name": "repayAmount",
          "type": "uint256"
        },
        {
          "indexed": false,
          "internalType": "address",
          "name": "cTokenCollateral",
          "type": "address"
        },
        {
          "indexed": false,
          "internalType": "uint256",
          "name": "seizeTokens",
          "type": "uint256"
        }
      ],
      "name": "LiquidateBorrow",
      "type": "event"
    },
    {
      "anonymous": false,
      "inputs": [
        {
          "indexed": false,
          "internalType": "address",
          "name": "minter",
          "type": "address"
        },
        {
          "indexed": false,
          "internalType": "uint256",
          "name": "mintAmount",
          "type": "uint256"
        },
        {
          "indexed": false,
          "internalType": "uint256",
          "name": "mintTokens",
          "type": "uint256"
        }
      ],
      "name": "Mint",
      "type": "event"
    },
    {
      "anonymous": false,
      "inputs": [
        {
          "indexed": false,
          "internalType": "uint256",
          "name": "oldAdminFeeMantissa",
          "type": "uint256"
        },
        {
          "indexed": false,
          "internalType": "uint256",
          "name": "newAdminFeeMantissa",
          "type": "uint256"
        }
      ],
      "name": "NewAdminFee",
      "type": "event"
    },
    {
      "anonymous": false,
      "inputs": [
        {
          "indexed": false,
          "internalType": "contract ComptrollerInterface",
          "name": "oldComptroller",
          "type": "address"
        },
        {
          "indexed": false,
          "internalType": "contract ComptrollerInterface",
          "name": "newComptroller",
          "type": "address"
        }
      ],
      "name": "NewComptroller",
      "type": "event"
    },
    {
      "anonymous": false,
      "inputs": [
        {
          "indexed": false,
          "internalType": "uint256",
          "name": "oldFuseFeeMantissa",
          "type": "uint256"
        },
        {
          "indexed": false,
          "internalType": "uint256",
          "name": "newFuseFeeMantissa",
          "type": "uint256"
        }
      ],
      "name": "NewFuseFee",
      "type": "event"
    },
    {
      "anonymous": false,
      "inputs": [
        {
          "indexed": false,
          "internalType": "address",
          "name": "oldImplementation",
          "type": "address"
        },
        {
          "indexed": false,
          "internalType": "address",
          "name": "newImplementation",
          "type": "address"
        }
      ],
      "name": "NewImplementation",
      "type": "event"
    },
    {
      "anonymous": false,
      "inputs": [
        {
          "indexed": false,
          "internalType": "contract InterestRateModel",
          "name": "oldInterestRateModel",
          "type": "address"
        },
        {
          "indexed": false,
          "internalType": "contract InterestRateModel",
          "name": "newInterestRateModel",
          "type": "address"
        }
      ],
      "name": "NewMarketInterestRateModel",
      "type": "event"
    },
    {
      "anonymous": false,
      "inputs": [
        {
          "indexed": false,
          "internalType": "uint256",
          "name": "oldReserveFactorMantissa",
          "type": "uint256"
        },
        {
          "indexed": false,
          "internalType": "uint256",
          "name": "newReserveFactorMantissa",
          "type": "uint256"
        }
      ],
      "name": "NewReserveFactor",
      "type": "event"
    },
    {
      "anonymous": false,
      "inputs": [
        {
          "indexed": false,
          "internalType": "address",
          "name": "redeemer",
          "type": "address"
        },
        {
          "indexed": false,
          "internalType": "uint256",
          "name": "redeemAmount",
          "type": "uint256"
        },
        {
          "indexed": false,
          "internalType": "uint256",
          "name": "redeemTokens",
          "type": "uint256"
        }
      ],
      "name": "Redeem",
      "type": "event"
    },
    {
      "anonymous": false,
      "inputs": [
        {
          "indexed": false,
          "internalType": "address",
          "name": "payer",
          "type": "address"
        },
        {
          "indexed": false,
          "internalType": "address",
          "name": "borrower",
          "type": "address"
        },
        {
          "indexed": false,
          "internalType": "uint256",
          "name": "repayAmount",
          "type": "uint256"
        },
        {
          "indexed": false,
          "internalType": "uint256",
          "name": "accountBorrows",
          "type": "uint256"
        },
        {
          "indexed": false,
          "internalType": "uint256",
          "name": "totalBorrows",
          "type": "uint256"
        }
      ],
      "name": "RepayBorrow",
      "type": "event"
    },
    {
      "anonymous": false,
      "inputs": [
        {
          "indexed": false,
          "internalType": "address",
          "name": "benefactor",
          "type": "address"
        },
        {
          "indexed": false,
          "internalType": "uint256",
          "name": "addAmount",
          "type": "uint256"
        },
        {
          "indexed": false,
          "internalType": "uint256",
          "name": "newTotalReserves",
          "type": "uint256"
        }
      ],
      "name": "ReservesAdded",
      "type": "event"
    },
    {
      "anonymous": false,
      "inputs": [
        {
          "indexed": false,
          "internalType": "address",
          "name": "admin",
          "type": "address"
        },
        {
          "indexed": false,
          "internalType": "uint256",
          "name": "reduceAmount",
          "type": "uint256"
        },
        {
          "indexed": false,
          "internalType": "uint256",
          "name": "newTotalReserves",
          "type": "uint256"
        }
      ],
      "name": "ReservesReduced",
      "type": "event"
    },
    {
      "anonymous": false,
      "inputs": [
        {
          "indexed": true,
          "internalType": "address",
          "name": "from",
          "type": "address"
        },
        {
          "indexed": true,
          "internalType": "address",
          "name": "to",
          "type": "address"
        },
        {
          "indexed": false,
          "internalType": "uint256",
          "name": "amount",
          "type": "uint256"
        }
      ],
      "name": "Transfer",
      "type": "event"
    },
    {
      "inputs": [
        {
          "internalType": "bytes",
          "name": "data",
          "type": "bytes"
        }
      ],
      "name": "_becomeImplementation",
      "outputs": [],
      "stateMutability": "nonpayable",
      "type": "function"
    },
    {
      "inputs": [
        {
          "internalType": "address",
          "name": "compLikeDelegatee",
          "type": "address"
        }
      ],
      "name": "_delegateCompLikeTo",
      "outputs": [],
      "stateMutability": "nonpayable",
      "type": "function"
    },
    {
      "inputs": [],
      "name": "_prepare",
      "outputs": [],
      "stateMutability": "payable",
      "type": "function"
    },
    {
      "inputs": [
        {
          "internalType": "uint256",
          "name": "reduceAmount",
          "type": "uint256"
        }
      ],
      "name": "_reduceReserves",
      "outputs": [
        {
          "internalType": "uint256",
          "name": "",
          "type": "uint256"
        }
      ],
      "stateMutability": "nonpayable",
      "type": "function"
    },
    {
      "inputs": [
        {
          "internalType": "uint256",
          "name": "newAdminFeeMantissa",
          "type": "uint256"
        }
      ],
      "name": "_setAdminFee",
      "outputs": [
        {
          "internalType": "uint256",
          "name": "",
          "type": "uint256"
        }
      ],
      "stateMutability": "nonpayable",
      "type": "function"
    },
    {
      "inputs": [
        {
          "internalType": "address",
          "name": "implementation_",
          "type": "address"
        },
        {
          "internalType": "bool",
          "name": "allowResign",
          "type": "bool"
        },
        {
          "internalType": "bytes",
          "name": "becomeImplementationData",
          "type": "bytes"
        }
      ],
      "name": "_setImplementationSafe",
      "outputs": [],
      "stateMutability": "nonpayable",
      "type": "function"
    },
    {
      "inputs": [
        {
          "internalType": "contract InterestRateModel",
          "name": "newInterestRateModel",
          "type": "address"
        }
      ],
      "name": "_setInterestRateModel",
      "outputs": [
        {
          "internalType": "uint256",
          "name": "",
          "type": "uint256"
        }
      ],
      "stateMutability": "nonpayable",
      "type": "function"
    },
    {
      "inputs": [
        {
          "internalType": "string",
          "name": "_name",
          "type": "string"
        },
        {
          "internalType": "string",
          "name": "_symbol",
          "type": "string"
        }
      ],
      "name": "_setNameAndSymbol",
      "outputs": [],
      "stateMutability": "nonpayable",
      "type": "function"
    },
    {
      "inputs": [
        {
          "internalType": "uint256",
          "name": "newReserveFactorMantissa",
          "type": "uint256"
        }
      ],
      "name": "_setReserveFactor",
      "outputs": [
        {
          "internalType": "uint256",
          "name": "",
          "type": "uint256"
        }
      ],
      "stateMutability": "nonpayable",
      "type": "function"
    },
    {
      "inputs": [
        {
          "internalType": "uint256",
          "name": "withdrawAmount",
          "type": "uint256"
        }
      ],
      "name": "_withdrawAdminFees",
      "outputs": [
        {
          "internalType": "uint256",
          "name": "",
          "type": "uint256"
        }
      ],
      "stateMutability": "nonpayable",
      "type": "function"
    },
    {
      "inputs": [
        {
          "internalType": "uint256",
          "name": "withdrawAmount",
          "type": "uint256"
        }
      ],
      "name": "_withdrawFuseFees",
      "outputs": [
        {
          "internalType": "uint256",
          "name": "",
          "type": "uint256"
        }
      ],
      "stateMutability": "nonpayable",
      "type": "function"
    },
    {
      "inputs": [],
      "name": "accrualBlockNumber",
      "outputs": [
        {
          "internalType": "uint256",
          "name": "",
          "type": "uint256"
        }
      ],
      "stateMutability": "view",
      "type": "function"
    },
    {
      "inputs": [],
      "name": "accrueInterest",
      "outputs": [
        {
          "internalType": "uint256",
          "name": "",
          "type": "uint256"
        }
      ],
      "stateMutability": "nonpayable",
      "type": "function"
    },
    {
      "inputs": [],
      "name": "adminFeeMantissa",
      "outputs": [
        {
          "internalType": "uint256",
          "name": "",
          "type": "uint256"
        }
      ],
      "stateMutability": "view",
      "type": "function"
    },
    {
      "inputs": [
        {
          "internalType": "address",
          "name": "owner",
          "type": "address"
        },
        {
          "internalType": "address",
          "name": "spender",
          "type": "address"
        }
      ],
      "name": "allowance",
      "outputs": [
        {
          "internalType": "uint256",
          "name": "",
          "type": "uint256"
        }
      ],
      "stateMutability": "view",
      "type": "function"
    },
    {
      "inputs": [
        {
          "internalType": "address",
          "name": "spender",
          "type": "address"
        },
        {
          "internalType": "uint256",
          "name": "amount",
          "type": "uint256"
        }
      ],
      "name": "approve",
      "outputs": [
        {
          "internalType": "bool",
          "name": "",
          "type": "bool"
        }
      ],
      "stateMutability": "nonpayable",
      "type": "function"
    },
    {
      "inputs": [
        {
          "internalType": "address",
          "name": "owner",
          "type": "address"
        }
      ],
      "name": "balanceOf",
      "outputs": [
        {
          "internalType": "uint256",
          "name": "",
          "type": "uint256"
        }
      ],
      "stateMutability": "view",
      "type": "function"
    },
    {
      "inputs": [
        {
          "internalType": "address",
          "name": "owner",
          "type": "address"
        }
      ],
      "name": "balanceOfUnderlying",
      "outputs": [
        {
          "internalType": "uint256",
          "name": "",
          "type": "uint256"
        }
      ],
      "stateMutability": "nonpayable",
      "type": "function"
    },
    {
      "inputs": [
        {
          "internalType": "uint256",
          "name": "borrowAmount",
          "type": "uint256"
        }
      ],
      "name": "borrow",
      "outputs": [
        {
          "internalType": "uint256",
          "name": "",
          "type": "uint256"
        }
      ],
      "stateMutability": "nonpayable",
      "type": "function"
    },
    {
      "inputs": [
        {
          "internalType": "address",
          "name": "account",
          "type": "address"
        }
      ],
      "name": "borrowBalanceCurrent",
      "outputs": [
        {
          "internalType": "uint256",
          "name": "",
          "type": "uint256"
        }
      ],
      "stateMutability": "nonpayable",
      "type": "function"
    },
    {
      "inputs": [
        {
          "internalType": "address",
          "name": "account",
          "type": "address"
        }
      ],
      "name": "borrowBalanceStored",
      "outputs": [
        {
          "internalType": "uint256",
          "name": "",
          "type": "uint256"
        }
      ],
      "stateMutability": "view",
      "type": "function"
    },
    {
      "inputs": [],
      "name": "borrowIndex",
      "outputs": [
        {
          "internalType": "uint256",
          "name": "",
          "type": "uint256"
        }
      ],
      "stateMutability": "view",
      "type": "function"
    },
    {
      "inputs": [],
      "name": "borrowRatePerBlock",
      "outputs": [
        {
          "internalType": "uint256",
          "name": "",
          "type": "uint256"
        }
      ],
      "stateMutability": "view",
      "type": "function"
    },
    {
      "inputs": [],
      "name": "comptroller",
      "outputs": [
        {
          "internalType": "contract ComptrollerInterface",
          "name": "",
          "type": "address"
        }
      ],
      "stateMutability": "view",
      "type": "function"
    },
    {
      "inputs": [],
      "name": "daiJoinAddress",
      "outputs": [
        {
          "internalType": "address",
          "name": "",
          "type": "address"
        }
      ],
      "stateMutability": "view",
      "type": "function"
    },
    {
      "inputs": [],
      "name": "decimals",
      "outputs": [
        {
          "internalType": "uint8",
          "name": "",
          "type": "uint8"
        }
      ],
      "stateMutability": "view",
      "type": "function"
    },
    {
      "inputs": [],
      "name": "exchangeRateCurrent",
      "outputs": [
        {
          "internalType": "uint256",
          "name": "",
          "type": "uint256"
        }
      ],
      "stateMutability": "nonpayable",
      "type": "function"
    },
    {
      "inputs": [],
      "name": "exchangeRateStored",
      "outputs": [
        {
          "internalType": "uint256",
          "name": "",
          "type": "uint256"
        }
      ],
      "stateMutability": "view",
      "type": "function"
    },
    {
      "inputs": [],
      "name": "feeSeizeShareMantissa",
      "outputs": [
        {
          "internalType": "uint256",
          "name": "",
          "type": "uint256"
        }
      ],
      "stateMutability": "view",
      "type": "function"
    },
    {
      "inputs": [],
      "name": "fuseAdmin",
      "outputs": [
        {
          "internalType": "address payable",
          "name": "",
          "type": "address"
        }
      ],
      "stateMutability": "view",
      "type": "function"
    },
    {
      "inputs": [],
      "name": "fuseFeeMantissa",
      "outputs": [
        {
          "internalType": "uint256",
          "name": "",
          "type": "uint256"
        }
      ],
      "stateMutability": "view",
      "type": "function"
    },
    {
      "inputs": [
        {
          "internalType": "address",
          "name": "account",
          "type": "address"
        }
      ],
      "name": "getAccountSnapshot",
      "outputs": [
        {
          "internalType": "uint256",
          "name": "",
          "type": "uint256"
        },
        {
          "internalType": "uint256",
          "name": "",
          "type": "uint256"
        },
        {
          "internalType": "uint256",
          "name": "",
          "type": "uint256"
        },
        {
          "internalType": "uint256",
          "name": "",
          "type": "uint256"
        }
      ],
      "stateMutability": "view",
      "type": "function"
    },
    {
      "inputs": [],
      "name": "getCash",
      "outputs": [
        {
          "internalType": "uint256",
          "name": "",
          "type": "uint256"
        }
      ],
      "stateMutability": "view",
      "type": "function"
    },
    {
      "inputs": [],
      "name": "implementation",
      "outputs": [
        {
          "internalType": "address",
          "name": "",
          "type": "address"
        }
      ],
      "stateMutability": "view",
      "type": "function"
    },
    {
      "inputs": [
        {
          "internalType": "address",
          "name": "underlying_",
          "type": "address"
        },
        {
          "internalType": "contract ComptrollerInterface",
          "name": "comptroller_",
          "type": "address"
        },
        {
          "internalType": "address payable",
          "name": "fuseAdmin_",
          "type": "address"
        },
        {
          "internalType": "contract InterestRateModel",
          "name": "interestRateModel_",
          "type": "address"
        },
        {
          "internalType": "string",
          "name": "name_",
          "type": "string"
        },
        {
          "internalType": "string",
          "name": "symbol_",
          "type": "string"
        },
        {
          "internalType": "uint256",
          "name": "reserveFactorMantissa_",
          "type": "uint256"
        },
        {
          "internalType": "uint256",
          "name": "adminFeeMantissa_",
          "type": "uint256"
        }
      ],
      "name": "initialize",
      "outputs": [],
      "stateMutability": "nonpayable",
      "type": "function"
    },
    {
      "inputs": [
        {
          "internalType": "contract ComptrollerInterface",
          "name": "comptroller_",
          "type": "address"
        },
        {
          "internalType": "address payable",
          "name": "fuseAdmin_",
          "type": "address"
        },
        {
          "internalType": "contract InterestRateModel",
          "name": "interestRateModel_",
          "type": "address"
        },
        {
          "internalType": "uint256",
          "name": "initialExchangeRateMantissa_",
          "type": "uint256"
        },
        {
          "internalType": "string",
          "name": "name_",
          "type": "string"
        },
        {
          "internalType": "string",
          "name": "symbol_",
          "type": "string"
        },
        {
          "internalType": "uint8",
          "name": "decimals_",
          "type": "uint8"
        },
        {
          "internalType": "uint256",
          "name": "reserveFactorMantissa_",
          "type": "uint256"
        },
        {
          "internalType": "uint256",
          "name": "adminFeeMantissa_",
          "type": "uint256"
        }
      ],
      "name": "initialize",
      "outputs": [],
      "stateMutability": "nonpayable",
      "type": "function"
    },
    {
      "inputs": [],
      "name": "interestRateModel",
      "outputs": [
        {
          "internalType": "contract InterestRateModel",
          "name": "",
          "type": "address"
        }
      ],
      "stateMutability": "view",
      "type": "function"
    },
    {
      "inputs": [],
      "name": "isCEther",
      "outputs": [
        {
          "internalType": "bool",
          "name": "",
          "type": "bool"
        }
      ],
      "stateMutability": "nonpayable",
      "type": "function"
    },
    {
      "inputs": [],
      "name": "isCToken",
      "outputs": [
        {
          "internalType": "bool",
          "name": "",
          "type": "bool"
        }
      ],
      "stateMutability": "nonpayable",
      "type": "function"
    },
    {
      "inputs": [
        {
          "internalType": "address",
          "name": "borrower",
          "type": "address"
        },
        {
          "internalType": "uint256",
          "name": "repayAmount",
          "type": "uint256"
        },
        {
          "internalType": "contract CTokenInterface",
          "name": "cTokenCollateral",
          "type": "address"
        }
      ],
      "name": "liquidateBorrow",
      "outputs": [
        {
          "internalType": "uint256",
          "name": "",
          "type": "uint256"
        }
      ],
      "stateMutability": "nonpayable",
      "type": "function"
    },
    {
      "inputs": [
        {
          "internalType": "uint256",
          "name": "mintAmount",
          "type": "uint256"
        }
      ],
      "name": "mint",
      "outputs": [
        {
          "internalType": "uint256",
          "name": "",
          "type": "uint256"
        }
      ],
      "stateMutability": "nonpayable",
      "type": "function"
    },
    {
      "inputs": [],
      "name": "name",
      "outputs": [
        {
          "internalType": "string",
          "name": "",
          "type": "string"
        }
      ],
      "stateMutability": "view",
      "type": "function"
    },
    {
      "inputs": [],
      "name": "potAddress",
      "outputs": [
        {
          "internalType": "address",
          "name": "",
          "type": "address"
        }
      ],
      "stateMutability": "view",
      "type": "function"
    },
    {
      "inputs": [],
      "name": "protocolSeizeShareMantissa",
      "outputs": [
        {
          "internalType": "uint256",
          "name": "",
          "type": "uint256"
        }
      ],
      "stateMutability": "view",
      "type": "function"
    },
    {
      "inputs": [
        {
          "internalType": "uint256",
          "name": "redeemTokens",
          "type": "uint256"
        }
      ],
      "name": "redeem",
      "outputs": [
        {
          "internalType": "uint256",
          "name": "",
          "type": "uint256"
        }
      ],
      "stateMutability": "nonpayable",
      "type": "function"
    },
    {
      "inputs": [
        {
          "internalType": "uint256",
          "name": "redeemAmount",
          "type": "uint256"
        }
      ],
      "name": "redeemUnderlying",
      "outputs": [
        {
          "internalType": "uint256",
          "name": "",
          "type": "uint256"
        }
      ],
      "stateMutability": "nonpayable",
      "type": "function"
    },
    {
      "inputs": [
        {
          "internalType": "uint256",
          "name": "repayAmount",
          "type": "uint256"
        }
      ],
      "name": "repayBorrow",
      "outputs": [
        {
          "internalType": "uint256",
          "name": "",
          "type": "uint256"
        }
      ],
      "stateMutability": "nonpayable",
      "type": "function"
    },
    {
      "inputs": [
        {
          "internalType": "address",
          "name": "borrower",
          "type": "address"
        },
        {
          "internalType": "uint256",
          "name": "repayAmount",
          "type": "uint256"
        }
      ],
      "name": "repayBorrowBehalf",
      "outputs": [
        {
          "internalType": "uint256",
          "name": "",
          "type": "uint256"
        }
      ],
      "stateMutability": "nonpayable",
      "type": "function"
    },
    {
      "inputs": [],
      "name": "reserveFactorMantissa",
      "outputs": [
        {
          "internalType": "uint256",
          "name": "",
          "type": "uint256"
        }
      ],
      "stateMutability": "view",
      "type": "function"
    },
    {
      "inputs": [
        {
          "internalType": "address",
          "name": "liquidator",
          "type": "address"
        },
        {
          "internalType": "address",
          "name": "borrower",
          "type": "address"
        },
        {
          "internalType": "uint256",
          "name": "seizeTokens",
          "type": "uint256"
        }
      ],
      "name": "seize",
      "outputs": [
        {
          "internalType": "uint256",
          "name": "",
          "type": "uint256"
        }
      ],
      "stateMutability": "nonpayable",
      "type": "function"
    },
    {
      "inputs": [],
      "name": "supplyRatePerBlock",
      "outputs": [
        {
          "internalType": "uint256",
          "name": "",
          "type": "uint256"
        }
      ],
      "stateMutability": "view",
      "type": "function"
    },
    {
      "inputs": [],
      "name": "symbol",
      "outputs": [
        {
          "internalType": "string",
          "name": "",
          "type": "string"
        }
      ],
      "stateMutability": "view",
      "type": "function"
    },
    {
      "inputs": [],
      "name": "totalAdminFees",
      "outputs": [
        {
          "internalType": "uint256",
          "name": "",
          "type": "uint256"
        }
      ],
      "stateMutability": "view",
      "type": "function"
    },
    {
      "inputs": [],
      "name": "totalBorrows",
      "outputs": [
        {
          "internalType": "uint256",
          "name": "",
          "type": "uint256"
        }
      ],
      "stateMutability": "view",
      "type": "function"
    },
    {
      "inputs": [],
      "name": "totalBorrowsCurrent",
      "outputs": [
        {
          "internalType": "uint256",
          "name": "",
          "type": "uint256"
        }
      ],
      "stateMutability": "nonpayable",
      "type": "function"
    },
    {
      "inputs": [],
      "name": "totalFuseFees",
      "outputs": [
        {
          "internalType": "uint256",
          "name": "",
          "type": "uint256"
        }
      ],
      "stateMutability": "view",
      "type": "function"
    },
    {
      "inputs": [],
      "name": "totalReserves",
      "outputs": [
        {
          "internalType": "uint256",
          "name": "",
          "type": "uint256"
        }
      ],
      "stateMutability": "view",
      "type": "function"
    },
    {
      "inputs": [],
      "name": "totalSupply",
      "outputs": [
        {
          "internalType": "uint256",
          "name": "",
          "type": "uint256"
        }
      ],
      "stateMutability": "view",
      "type": "function"
    },
    {
      "inputs": [
        {
          "internalType": "address",
          "name": "dst",
          "type": "address"
        },
        {
          "internalType": "uint256",
          "name": "amount",
          "type": "uint256"
        }
      ],
      "name": "transfer",
      "outputs": [
        {
          "internalType": "bool",
          "name": "",
          "type": "bool"
        }
      ],
      "stateMutability": "nonpayable",
      "type": "function"
    },
    {
      "inputs": [
        {
          "internalType": "address",
          "name": "src",
          "type": "address"
        },
        {
          "internalType": "address",
          "name": "dst",
          "type": "address"
        },
        {
          "internalType": "uint256",
          "name": "amount",
          "type": "uint256"
        }
      ],
      "name": "transferFrom",
      "outputs": [
        {
          "internalType": "bool",
          "name": "",
          "type": "bool"
        }
      ],
      "stateMutability": "nonpayable",
      "type": "function"
    },
    {
      "inputs": [],
      "name": "underlying",
      "outputs": [
        {
          "internalType": "address",
          "name": "",
          "type": "address"
        }
      ],
      "stateMutability": "view",
      "type": "function"
    },
    {
      "inputs": [],
      "name": "vatAddress",
      "outputs": [
        {
          "internalType": "address",
          "name": "",
          "type": "address"
        }
      ],
      "stateMutability": "view",
      "type": "function"
    }
  ],
  "bytecode": {
    "object": "0x608060405234801561001057600080fd5b5061676d80620000216000396000f3fe6080604052600436106103ad5760003560e01c8063852a12e3116101e7578063ae9d70b01161010d578063dc028ab1116100a0578063f5e3c4621161006f578063f5e3c46214610abf578063f8f9da2814610adf578063fca7820b14610af4578063fe9c44ae14610b1457600080fd5b8063dc028ab114610a23578063dd62ed3e14610a39578063f2b3abbd14610a7f578063f3fdb15a14610a9f57600080fd5b8063c37f68e2116100dc578063c37f68e21461098d578063c5ebeaec146109cd578063db006a75146109ed578063dbfe7c1914610a0d57600080fd5b8063ae9d70b014610927578063b2a02ff11461093c578063bd6d894d1461095c578063be99f1191461097157600080fd5b806395dd919311610185578063a7b820df11610154578063a7b820df146108bd578063a9059cbb146108dd578063aa5af0fd146108fd578063ac784ddc1461091357600080fd5b806395dd919314610848578063a03dce8d14610868578063a0712d6814610888578063a6afed95146108a857600080fd5b80638d925ccd116101c15780638d925ccd146107dd5780638f840ddd146107fd57806391dd36c61461081357806395d89b411461083357600080fd5b8063852a12e3146107875780638a8df2e6146107a75780638d02d9a1146107c757600080fd5b80633af9e669116102d757806361feacff1161026a5780636f307dc3116102395780636f307dc3146106fc57806370a082311461071c57806373acee98146107525780637f1e06be1461076757600080fd5b806361feacff1461069557806366ced602146106ab5780636752e702146106cb5780636c540baf146106e657600080fd5b806356e67728116102a657806356e67728146106155780635c60da1b146106355780635fe3b56714610655578063601a0bf11461067557600080fd5b80633af9e669146105aa5780633b1d21a2146105ca57806347bd3718146105df57806350d85b73146105f557600080fd5b806318160ddd1161034f57806323b872dd1161031e57806323b872dd1461051e5780632608f8181461053e578063313ce5671461055e57806334154d4c1461058a57600080fd5b806318160ddd146104cb578063182df0f5146104e15780631db78944146104f6578063219ef65c146104fe57600080fd5b80630e7527021161038b5780630e7527021461042f57806315761d511461045d578063173b99041461049557806317bfdfbc146104ab57600080fd5b806306db3ecd146103b257806306fdde03146103d4578063095ea7b3146103ff575b600080fd5b3480156103be57600080fd5b506103d26103cd366004615ffd565b610b28565b005b3480156103e057600080fd5b506103e9610c36565b6040516103f69190616117565b60405180910390f35b34801561040b57600080fd5b5061041f61041a36600461612a565b610cc4565b60405190151581526020016103f6565b34801561043b57600080fd5b5061044f61044a366004616156565b610d34565b6040519081526020016103f6565b34801561046957600080fd5b5060015461047d906001600160a01b031681565b6040516001600160a01b0390911681526020016103f6565b3480156104a157600080fd5b5061044f600b5481565b3480156104b757600080fd5b5061044f6104c636600461616f565b610d48565b3480156104d757600080fd5b5061044f60125481565b3480156104ed57600080fd5b5061044f610d9f565b6103d2610e30565b34801561050a57600080fd5b506103d26105193660046161a6565b610f61565b34801561052a57600080fd5b5061041f61053936600461626e565b611290565b34801561054a57600080fd5b5061044f61055936600461612a565b6112b6565b34801561056a57600080fd5b506005546105789060ff1681565b60405160ff90911681526020016103f6565b34801561059657600080fd5b506103d26105a53660046162f1565b6112cc565b3480156105b657600080fd5b5061044f6105c536600461616f565b611333565b3480156105d657600080fd5b5061044f6113e3565b3480156105eb57600080fd5b5061044f600e5481565b34801561060157600080fd5b506103d261061036600461636b565b6113f2565b34801561062157600080fd5b506103d26106303660046163c4565b611476565b34801561064157600080fd5b5060005461047d906001600160a01b031681565b34801561066157600080fd5b5060065461047d906001600160a01b031681565b34801561068157600080fd5b5061044f610690366004616156565b61150a565b3480156106a157600080fd5b5061044f60105481565b3480156106b757600080fd5b5060185461047d906001600160a01b031681565b3480156106d757600080fd5b5061044f666379da05b6000081565b3480156106f257600080fd5b5061044f600c5481565b34801561070857600080fd5b5060165461047d906001600160a01b031681565b34801561072857600080fd5b5061044f61073736600461616f565b6001600160a01b031660009081526013602052604090205490565b34801561075e57600080fd5b5061044f611561565b34801561077357600080fd5b506103d261078236600461616f565b6115a6565b34801561079357600080fd5b5061044f6107a2366004616156565b61166b565b3480156107b357600080fd5b5060175461047d906001600160a01b031681565b3480156107d357600080fd5b5061044f60095481565b3480156107e957600080fd5b5060195461047d906001600160a01b031681565b34801561080957600080fd5b5061044f600f5481565b34801561081f57600080fd5b5061044f61082e366004616156565b611676565b34801561083f57600080fd5b506103e96116b9565b34801561085457600080fd5b5061044f61086336600461616f565b6116c6565b34801561087457600080fd5b5061044f610883366004616156565b611767565b34801561089457600080fd5b5061044f6108a3366004616156565b6117aa565b3480156108b457600080fd5b5061044f6117b6565b3480156108c957600080fd5b5061044f6108d8366004616156565b61182e565b3480156108e957600080fd5b5061041f6108f836600461612a565b611871565b34801561090957600080fd5b5061044f600d5481565b34801561091f57600080fd5b50600061041f565b34801561093357600080fd5b5061044f61189e565b34801561094857600080fd5b5061044f61095736600461626e565b611966565b34801561096857600080fd5b5061044f61198a565b34801561097d57600080fd5b5061044f67016345785d8a000081565b34801561099957600080fd5b506109ad6109a836600461616f565b6119d0565b6040805194855260208501939093529183015260608201526080016103f6565b3480156109d957600080fd5b5061044f6109e8366004616156565b611a71565b3480156109f957600080fd5b5061044f610a08366004616156565b611a7c565b348015610a1957600080fd5b5061044f600a5481565b348015610a2f57600080fd5b5061044f60115481565b348015610a4557600080fd5b5061044f610a54366004616406565b6001600160a01b03918216600090815260146020908152604080832093909416825291909152205490565b348015610a8b57600080fd5b5061044f610a9a36600461616f565b611a87565b348015610aab57600080fd5b5060075461047d906001600160a01b031681565b348015610acb57600080fd5b5061044f610ada36600461643f565b611abf565b348015610aeb57600080fd5b5061044f611ad7565b348015610b0057600080fd5b5061044f610b0f366004616156565b611b3b565b348015610b2057600080fd5b50600161041f565b60006702c68af0bb14000090506000896001600160a01b031663313ce5676040518163ffffffff1660e01b8152600401602060405180830381865afa158015610b75573d6000803e3d6000fd5b505050506040513d601f19601f82011682018060405250810190610b999190616481565b9050610bac898989858a8a878b8b610f61565b601680546001600160a01b0319166001600160a01b038c16908117909155604080516318160ddd60e01b815290516318160ddd916004808201926020929091908290030181865afa158015610c05573d6000803e3d6000fd5b505050506040513d601f19601f82011682018060405250810190610c29919061649e565b5050505050505050505050565b60038054610c43906164b7565b80601f0160208091040260200160405190810160405280929190818152602001828054610c6f906164b7565b8015610cbc5780601f10610c9157610100808354040283529160200191610cbc565b820191906000526020600020905b815481529060010190602001808311610c9f57829003601f168201915b505050505081565b3360008181526014602090815260408083206001600160a01b03871680855292528083208590555191929182907f8c5be1e5ebec7d5bd14f71427d1e84f3dd0314c0f7b2291e5b200ac8c7c3b92590610d209087815260200190565b60405180910390a360019150505b92915050565b600080610d4083611b7e565b509392505050565b600080610d5481611be6565b6000610d5e6117b6565b14610d845760405162461bcd60e51b8152600401610d7b90616502565b60405180910390fd5b610d8d836116c6565b91505b610d9981611caa565b50919050565b6000806000610dac611d15565b90925090506000826003811115610dc557610dc56164ec565b14610d2e5760405162461bcd60e51b815260206004820152603560248201527f65786368616e67655261746553746f7265643a2065786368616e67655261746560448201527414dd1bdc9959125b9d195c9b985b0819985a5b1959605a1b6064820152608401610d7b565b333014801590610eb25750600660009054906101000a90046001600160a01b03166001600160a01b031663dd5cd22c6040518163ffffffff1660e01b8152600401602060405180830381865afa158015610e8e573d6000803e3d6000fd5b505050506040513d601f19601f82011682018060405250810190610eb29190616532565b15610f5f57600154600080546040516345cc970560e01b81526001600160a01b039182166004820152919283928392909116906345cc970590602401600060405180830381865afa158015610f0b573d6000803e3d6000fd5b505050506040513d6000823e601f3d908101601f19168201604052610f33919081019061654f565b60005492955090935091506001600160a01b03808516911614610f5b57610f5b838383611de2565b5050505b565b336001600160a01b03891614610fcb5760405162461bcd60e51b815260206004820152602960248201527f6f6e6c7920467573652061646d696e206d617920696e697469616c697a6520746044820152681a19481b585c9ad95d60ba1b6064820152608401610d7b565b600c54158015610fdb5750600d54155b6110335760405162461bcd60e51b815260206004820152602360248201527f6d61726b6574206d6179206f6e6c7920626520696e697469616c697a6564206f6044820152626e636560e81b6064820152608401610d7b565b600180546001600160a01b0319166001600160a01b038a161790556008869055856110b95760405162461bcd60e51b815260206004820152603060248201527f696e697469616c2065786368616e67652072617465206d75737420626520677260448201526f32b0ba32b9103a3430b7103d32b9379760811b6064820152608401610d7b565b60006110c48a611f75565b905080156111145760405162461bcd60e51b815260206004820152601a60248201527f73657474696e6720636f6d7074726f6c6c6572206661696c65640000000000006044820152606401610d7b565b43600c55670de0b6b3a7640000600d5561112d886120a0565b905080156111885760405162461bcd60e51b815260206004820152602260248201527f73657474696e6720696e7465726573742072617465206d6f64656c206661696c604482015261195960f21b6064820152608401610d7b565b855161119b906003906020890190615e0a565b5084516111af906004906020880190615e0a565b506005805460ff191660ff86161790556111c883612310565b905080156112185760405162461bcd60e51b815260206004820152601d60248201527f73657474696e67207265736572766520666163746f72206661696c65640000006044820152606401610d7b565b611221826123af565b905080156112715760405162461bcd60e51b815260206004820152601860248201527f73657474696e672061646d696e20666565206661696c656400000000000000006044820152606401610d7b565b50506002805460ff60b01b1916600160b01b1790555050505050505050565b60008061129c81611be6565b60006112aa338787876124c9565b149150610d4081611caa565b6000806112c38484612767565b50949350505050565b6112d46127d1565b6113135760405162461bcd60e51b815260206004820152601060248201526f31b0b63632b9103737ba1030b236b4b760811b6044820152606401610d7b565b61131f60038585615e8a565b5061132c60048383615e8a565b5050505050565b600080604051806020016040528061134961198a565b90526001600160a01b038416600090815260136020526040812054919250908190611375908490612942565b9092509050600082600381111561138e5761138e6164ec565b146113db5760405162461bcd60e51b815260206004820152601f60248201527f62616c616e636520636f756c64206e6f742062652063616c63756c61746564006044820152606401610d7b565b949350505050565b60006113ed612995565b905090565b6113fa6127d1565b61142f5760405162461bcd60e51b815260206004820152600660248201526510b0b236b4b760d11b6044820152606401610d7b565b611470848484848080601f016020809104026020016040519081016040528093929190818152602001838380828437600092019190915250611de292505050565b50505050565b3330148061148757506114876127d1565b6114ed5760405162461bcd60e51b815260206004820152603160248201527f6f6e6c792073656c66206f722061646d696e206d61792063616c6c205f62656360448201527037b6b2a4b6b83632b6b2b73a30ba34b7b760791b6064820152608401610d7b565b6000806114fc83850185616406565b915091506114708282612a91565b60008061151681611be6565b60006115206117b6565b9050801561154c5761154481601181111561153d5761153d6164ec565b603b612da2565b925050610d90565b61155584612e1b565b925050610d9981611caa565b60008061156d81611be6565b60006115776117b6565b146115945760405162461bcd60e51b8152600401610d7b90616502565b600e5491506115a281611caa565b5090565b6115ae6127d1565b6116105760405162461bcd60e51b815260206004820152602d60248201527f6f6e6c79207468652061646d696e206d6179207365742074686520636f6d702d60448201526c6c696b652064656c656761746560981b6064820152608401610d7b565b6016546040516317066a5760e21b81526001600160a01b03838116600483015290911690635c19a95c90602401600060405180830381600087803b15801561165757600080fd5b505af115801561132c573d6000803e3d6000fd5b6000610d2e82612ecc565b60008061168281611be6565b600061168c6117b6565b905080156116b0576115448160118111156116a9576116a96164ec565b6052612da2565b611555846123af565b60048054610c43906164b7565b60008060006116d484612f12565b909250905060008260038111156116ed576116ed6164ec565b146117605760405162461bcd60e51b815260206004820152603760248201527f626f72726f7742616c616e636553746f7265643a20626f72726f7742616c616e60448201527f636553746f726564496e7465726e616c206661696c65640000000000000000006064820152608401610d7b565b9392505050565b60008061177381611be6565b600061177d6117b6565b905080156117a15761154481601181111561179a5761179a6164ec565b6033612da2565b61155584612fcb565b600080610d408361303e565b60185460408051634fb3c66560e11b815290516000926001600160a01b031691639f678cca916004808301926020929190829003018187875af1158015611801573d6000803e3d6000fd5b505050506040513d601f19601f82011682018060405250810190611825919061649e565b506113ed613084565b60008061183a81611be6565b60006118446117b6565b9050801561186857611544816011811115611861576118616164ec565b6037612da2565b61155584613234565b60008061187d81611be6565b600061188b333387876124c9565b14915061189781611caa565b5092915050565b6007546000906001600160a01b031663b81688166118ba612995565b600e546118d6600f546118d1601054601154613312565b613312565b600954600a54600b546118e99190616605565b6118f39190616605565b6040516001600160e01b031960e087901b16815260048101949094526024840192909252604483015260648201526084015b602060405180830381865afa158015611942573d6000803e3d6000fd5b505050506040513d601f19601f820116820180604052508101906113ed919061649e565b6000600161197381611be6565b61197f33868686613348565b9150610d4081611caa565b60008061199681611be6565b60006119a06117b6565b146119bd5760405162461bcd60e51b8152600401610d7b90616502565b6119c5610d9f565b91506115a281611caa565b6001600160a01b0381166000908152601360205260408120548190819081908180806119fb89612f12565b935090506000816003811115611a1357611a136164ec565b14611a315760095b6000806000975097509750975050505050611a6a565b611a39611d15565b925090506000816003811115611a5157611a516164ec565b14611a5d576009611a1b565b5060009650919450925090505b9193509193565b6000610d2e82613845565b6000610d2e82613889565b600080611a926117b6565b90508015611ab657611760816011811115611aaf57611aaf6164ec565b604b612da2565b611760836120a0565b600080611acd8585856138c8565b5095945050505050565b6007546000906001600160a01b03166315f24053611af3612995565b600e54611b0a600f546118d1601054601154613312565b6040516001600160e01b031960e086901b168152600481019390935260248301919091526044820152606401611925565b600080611b4781611be6565b6000611b516117b6565b90508015611b7557611544816011811115611b6e57611b6e6164ec565b6059612da2565b61155584612310565b6000806000611b8c81611be6565b6000611b966117b6565b90508015611bc657611bba816011811115611bb357611bb36164ec565b6041612da2565b60009350935050611bd7565b611bd13333876139bc565b93509350505b611be081611caa565b50915091565b600254600160b01b900460ff16611c2c5760405162461bcd60e51b815260206004820152600a6024820152691c994b595b9d195c995960b21b6044820152606401610d7b565b80611c9a57600660009054906101000a90046001600160a01b03166001600160a01b031663c90c20b16040518163ffffffff1660e01b8152600401600060405180830381600087803b158015611c8157600080fd5b505af1158015611c95573d6000803e3d6000fd5b505050505b506002805460ff60b01b19169055565b6002805460ff60b01b1916600160b01b17905580611d1257600660009054906101000a90046001600160a01b03166001600160a01b031663632e51426040518163ffffffff1660e01b8152600401600060405180830381600087803b15801561165757600080fd5b50565b601254600090819080611d2f575050600854600092909150565b6000611d39612995565b90506000611d536040518060200160405280600081525090565b6000611d7584600e54611d70600f546118d1601054601154613312565b613dd6565b935090506000816003811115611d8d57611d8d6164ec565b14611d9f579660009650945050505050565b611da98386613e28565b925090506000816003811115611dc157611dc16164ec565b14611dd3579660009650945050505050565b50516000969095509350505050565b6001546000546040516338e6a07360e11b81526001600160a01b039182166004820152858216602482015284151560448201529116906371cd40e690606401602060405180830381865afa158015611e3e573d6000803e3d6000fd5b505050506040513d601f19601f82011682018060405250810190611e629190616532565b611e965760405162461bcd60e51b8152602060048201526005602482015264085a5b5c1b60da1b6044820152606401610d7b565b8115611ea457611ea4613ef3565b600080546001600160a01b038581166001600160a01b0319831617909255604051911690611f27903090611edc908590602401616117565b60408051601f19818403018152918152602080830180516001600160e01b0316630adccee560e31b17905281518083019092526007825266216265636f6d6560c81b90820152614134565b50600054604080516001600160a01b03808516825290921660208301527fd604de94d45953f9138079ec1b82d533cb2160c906d1076d1f7ed54befbca97a910160405180910390a150505050565b600080600660009054906101000a90046001600160a01b03169050826001600160a01b0316627e3dd26040518163ffffffff1660e01b8152600401602060405180830381865afa158015611fcd573d6000803e3d6000fd5b505050506040513d601f19601f82011682018060405250810190611ff19190616532565b61203d5760405162461bcd60e51b815260206004820152601c60248201527f6d61726b6572206d6574686f642072657475726e65642066616c7365000000006044820152606401610d7b565b600680546001600160a01b0319166001600160a01b0385811691821790925560408051928416835260208301919091527f7ac369dbd14fa5ea3f473ed67cc9d598964a77501540ba6751eb0b3decf5870d91015b60405180910390a16000611760565b6000806120ab6127d1565b6120bb576117606001604d612da2565b43600c54146120d057611760600a604c612da2565b600760009054906101000a90046001600160a01b03169050826001600160a01b0316632191f92a6040518163ffffffff1660e01b8152600401602060405180830381865afa158015612126573d6000803e3d6000fd5b505050506040513d601f19601f8201168201806040525081019061214a9190616532565b6121965760405162461bcd60e51b815260206004820152601c60248201527f6d61726b6572206d6574686f642072657475726e65642066616c7365000000006044820152606401610d7b565b600780546001600160a01b0319166001600160a01b0385811691821790925560408051928416835260208301919091527fedffc32e068c7c95dfd4bdfd5c4d939a084d6b11c4199eac8436ed234d72f926910160405180910390a16001600160a01b038116156122845760408051600481526024810182526020810180516001600160e01b0316636cc1140b60e11b17905290516001600160a01b0383169161223e9161661d565b6000604051808303816000865af19150503d806000811461227b576040519150601f19603f3d011682016040523d82523d6000602084013e612280565b606091505b5050505b60408051600481526024810182526020810180516001600160e01b031663742a137b60e11b17905290516001600160a01b038516916122c29161661d565b6000604051808303816000865af19150503d80600081146122ff576040519150601f19603f3d011682016040523d82523d6000602084013e612304565b606091505b50600091506117609050565b600061231a6127d1565b61232a57610d2e6001605a612da2565b43600c541461233f57610d2e600a605b612da2565b670de0b6b3a764000061235f61235784600954613312565b600a54613312565b111561237157610d2e6002605c612da2565b600b80549083905560408051828152602081018590527faaa68312e2ea9d50e16af5068410ab56e1a1fd06037b1a35664812c30f8214609101612091565b600043600c54146123c657610d2e600a6054612da2565b6000198214156123d65760095491505b60006123e06141d0565b9050670de0b6b3a76400006124006123fa600b5486613312565b83613312565b11156124125761176060026055612da2565b8260095414612476576124236127d1565b6124335761176060016053612da2565b600980549084905560408051828152602081018690527fcdd0b588250e1398549f79cfdb8217c186688822905d6715b0834ea1c865594a910160405180910390a1505b80600a54146124c257600a80549082905560408051828152602081018490527f92eef861b6533b7d3417f39c2ad7b460eed4e88a32fa3604f30e718b7602e7dc910160405180910390a1505b6000611760565b6006546040516317b9b84b60e31b81523060048201526001600160a01b038581166024830152848116604483015260648201849052600092839291169063bdcdc258906084016020604051808303816000875af115801561252e573d6000803e3d6000fd5b505050506040513d601f19601f82011682018060405250810190612552919061649e565b9050801561256f576125676003605d8361421a565b9150506113db565b836001600160a01b0316856001600160a01b03161415612595576125676002605e612da2565b6000856001600160a01b0316876001600160a01b031614156125ba57506000196125e2565b506001600160a01b038086166000908152601460209081526040808320938a16835292905220545b6000806000806125f285896142bc565b9094509250600084600381111561260b5761260b6164ec565b146126295761261c6009605e612da2565b96505050505050506113db565b6001600160a01b038a1660009081526013602052604090205461264c90896142bc565b90945091506000846003811115612665576126656164ec565b146126765761261c6009605f612da2565b6001600160a01b03891660009081526013602052604090205461269990896142e7565b909450905060008460038111156126b2576126b26164ec565b146126c35761261c60096060612da2565b6001600160a01b03808b16600090815260136020526040808220859055918b16815220819055600019851461271b576001600160a01b03808b166000908152601460209081526040808320938f168352929052208390555b886001600160a01b03168a6001600160a01b03166000805160206167188339815191528a60405161274e91815260200190565b60405180910390a35060009a9950505050505050505050565b600080600061277581611be6565b600061277f6117b6565b905080156127af576127a381601181111561279c5761279c6164ec565b6040612da2565b600093509350506127c0565b6127ba3387876139bc565b93509350505b6127c981611caa565b509250929050565b600654604080516303e1469160e61b815290516000926001600160a01b031691829163f851a440916004808201926020929091908290030181865afa15801561281e573d6000803e3d6000fd5b505050506040513d601f19601f820116820180604052508101906128429190616639565b6001600160a01b0316336001600160a01b03161480156128bf5750806001600160a01b0316630a755ec26040518163ffffffff1660e01b8152600401602060405180830381865afa15801561289b573d6000803e3d6000fd5b505050506040513d601f19601f820116820180604052508101906128bf9190616532565b8061293c57506001546001600160a01b03163314801561293c5750806001600160a01b0316632f1069ba6040518163ffffffff1660e01b8152600401602060405180830381865afa158015612918573d6000803e3d6000fd5b505050506040513d601f19601f8201168201806040525081019061293c9190616532565b91505090565b6000806000806129528686614317565b9092509050600082600381111561296b5761296b6164ec565b1461297c575091506000905061298e565b600061298782614393565b9350935050505b9250929050565b6018546040516305f5d64360e11b81523060048201526000916001600160a01b03169082908290630bebac8690602401602060405180830381865afa1580156129e2573d6000803e3d6000fd5b505050506040513d601f19601f82011682018060405250810190612a06919061649e565b90506b033b2e3c9fd0803ce8000000612a80836001600160a01b031663c92aecc46040518163ffffffff1660e01b8152600401602060405180830381865afa158015612a56573d6000803e3d6000fd5b505050506040513d601f19601f82011682018060405250810190612a7a919061649e565b836143ab565b612a8a9190616656565b9250505090565b600082905060008290506000826001600160a01b031663f4b9fa756040518163ffffffff1660e01b81526004016020604051808303816000875af1158015612add573d6000803e3d6000fd5b505050506040513d601f19601f82011682018060405250810190612b019190616639565b90506000836001600160a01b03166336569e776040518163ffffffff1660e01b81526004016020604051808303816000875af1158015612b45573d6000803e3d6000fd5b505050506040513d601f19601f82011682018060405250810190612b699190616639565b6016549091506001600160a01b03838116911614612bd45760405162461bcd60e51b815260206004820152602260248201527f444149206d757374206265207468652073616d6520617320756e6465726c79696044820152616e6760f01b6064820152608401610d7b565b601780546001600160a01b03199081166001600160a01b03898116918217909355601880548316898516179055601980549092168484161790915560405163095ea7b360e01b8152600481019190915260001960248201529083169063095ea7b390604401600060405180830381600087803b158015612c5357600080fd5b505af1158015612c67573d6000803e3d6000fd5b50506018546040516328ec8bf160e21b81526001600160a01b039182166004820152908416925063a3b22fc49150602401600060405180830381600087803b158015612cb257600080fd5b505af1158015612cc6573d6000803e3d6000fd5b50506017546040516328ec8bf160e21b81526001600160a01b039182166004820152908416925063a3b22fc49150602401600060405180830381600087803b158015612d1157600080fd5b505af1158015612d25573d6000803e3d6000fd5b50505050826001600160a01b0316639f678cca6040518163ffffffff1660e01b81526004016020604051808303816000875af1158015612d69573d6000803e3d6000fd5b505050506040513d601f19601f82011682018060405250810190612d8d919061649e565b50612d9930600061440a565b50505050505050565b60007f45b96fe442630264581b197e84bbada861235052c5a1aadfff9ea4e40a969aa0836011811115612dd757612dd76164ec565b836063811115612de957612de96164ec565b60408051928352602083019190915260009082015260600160405180910390a1826011811115611760576117606164ec565b600080612e266127d1565b612e36576117606001603c612da2565b43600c5414612e4b57611760600a603e612da2565b82612e54612995565b1015612e6657611760600e603d612da2565b600f54831115612e7c576117606002603f612da2565b612e88600f548461470e565b600f8190559050612e993384614748565b7f3bad0c59cf2f06e7314077049f48a93578cd16f5ef92329f1dab1420a99c177e33848360405161209193929190616678565b600080612ed881611be6565b6000612ee26117b6565b90508015612f0657611544816011811115612eff57612eff6164ec565b602a612da2565b6115553360008661487e565b6001600160a01b038116600090815260156020526040812080548291829182918291612f475750600096879650945050505050565b612f578160000154600d54614e04565b90945092506000846003811115612f7057612f706164ec565b14612f8357509195600095509350505050565b612f91838260010154614e4e565b90945091506000846003811115612faa57612faa6164ec565b14612fbd57509195600095509350505050565b506000969095509350505050565b60008043600c5414612fe357611760600a6035612da2565b82612fec612995565b1015612ffe57611760600e6034612da2565b6011548311156130145761176060026036612da2565b6130206011548461470e565b60118190556001549091506124c2906001600160a01b031684614748565b600080600061304c81611be6565b60006130566117b6565b9050801561307a57611bba816011811115613073576130736164ec565b6020612da2565b611bd13386614e79565b600c54600090439081141561309a57600061293c565b60006130a4612995565b90506000600760009054906101000a90046001600160a01b03166001600160a01b03166315f2405383600e546130e4600f546118d1601054601154613312565b6040516001600160e01b031960e086901b168152600481019390935260248301919091526044820152606401602060405180830381865afa15801561312d573d6000803e3d6000fd5b505050506040513d601f19601f82011682018060405250810190613151919061649e565b905065048c273950008111156131a95760405162461bcd60e51b815260206004820152601c60248201527f626f72726f772072617465206973206162737572646c792068696768000000006044820152606401610d7b565b6000806131b885600c546142bc565b909250905060008260038111156131d1576131d16164ec565b1461321e5760405162461bcd60e51b815260206004820152601f60248201527f636f756c64206e6f742063616c63756c61746520626c6f636b2064656c7461006044820152606401610d7b565b61322a85858584615237565b9550505050505090565b60008043600c541461324c57611760600a6039612da2565b82613255612995565b101561326757611760600e6038612da2565b60105483111561327d576117606002603a612da2565b6132896010548461470e565b9050806010819055506124c2600660009054906101000a90046001600160a01b03166001600160a01b031663f851a4406040518163ffffffff1660e01b8152600401602060405180830381865afa1580156132e8573d6000803e3d6000fd5b505050506040513d601f19601f8201168201806040525081019061330c9190616639565b84614748565b60006117608383604051806040016040528060118152602001706164646974696f6e206f766572666c6f7760781b815250615363565b60065460405163d02f735160e01b81523060048201526001600160a01b0386811660248301528581166044830152848116606483015260848201849052600092839291169063d02f73519060a4016020604051808303816000875af11580156133b5573d6000803e3d6000fd5b505050506040513d601f19601f820116820180604052508101906133d9919061649e565b905080156133ee576125676003601d8361421a565b846001600160a01b0316846001600160a01b03161415613414576125676006601e612da2565b613479604080516101808101909152806000815260200160008152602001600081526020016000815260200160008152602001600081526020016000815260200160008152602001600081526020016000815260200160008152602001600081525090565b6001600160a01b03851660009081526013602052604090205461349c90856142bc565b60208301819052828260038111156134b6576134b66164ec565b60038111156134c7576134c76164ec565b90525060009050815160038111156134e1576134e16164ec565b14613511576135086009601c83600001516003811115613503576135036164ec565b61421a565b925050506113db565b613530846040518060200160405280666379da05b60000815250615394565b6080820152604080516020810190915267016345785d8a00008152613556908590615394565b610140820152608081015161357b9061357090869061470e565b82610140015161470e565b6060820152613588611d15565b60c08301819052828260038111156135a2576135a26164ec565b60038111156135b3576135b36164ec565b90525060009050815160038111156135cd576135cd6164ec565b1461361a5760405162461bcd60e51b815260206004820152601860248201527f65786368616e67652072617465206d617468206572726f7200000000000000006044820152606401610d7b565b61363a60405180602001604052808360c0015181525082608001516153b7565b60a0820152604080516020810190915260c0820151815261014082015161366191906153b7565b610160820152600f5460a08201516136799190613312565b60e08201526012546080820151613693916135709161470e565b6101208201526011546101608201516136ac9190613312565b6101008201526001600160a01b03861660009081526013602052604090205460608201516136da91906142e7565b60408301819052828260038111156136f4576136f46164ec565b6003811115613705576137056164ec565b905250600090508151600381111561371f5761371f6164ec565b14613741576135086009601b83600001516003811115613503576135036164ec565b60e0810151600f556101208101516012556101008101516011556020808201516001600160a01b0387811660008181526013855260408082209490945583860151928b1680825290849020929092556060850151925192835290929091600080516020616718833981519152910160405180910390a3306001600160a01b0316856001600160a01b031660008051602061671883398151915283608001516040516137ee91815260200190565b60405180910390a360a081015160e08201516040517fa91e67c5ea634cd43a12c5a482724b03de01e85ca68702a53d0c2f45cb7c1dc592613830923092616678565b60405180910390a16000979650505050505050565b60008061385181611be6565b600061385b6117b6565b9050801561387f57611544816011811115613878576138786164ec565b600a612da2565b61155533856153cf565b60008061389581611be6565b600061389f6117b6565b905080156138bc57611544816011811115612eff57612eff6164ec565b6115553385600061487e565b60008060006138d681611be6565b60006138e06117b6565b90508015613910576139048160118111156138fd576138fd6164ec565b6011612da2565b600093509350506139aa565b846001600160a01b031663a6afed956040518163ffffffff1660e01b81526004016020604051808303816000875af1158015613950573d6000803e3d6000fd5b505050506040513d601f19601f82011682018060405250810190613974919061649e565b9050801561399857613904816011811115613991576139916164ec565b6012612da2565b6139a433888888615763565b93509350505b6139b381611caa565b50935093915050565b600654604051631200453160e11b81523060048201526001600160a01b03858116602483015284811660448301526064820184905260009283928392909116906324008a62906084016020604051808303816000875af1158015613a24573d6000803e3d6000fd5b505050506040513d601f19601f82011682018060405250810190613a48919061649e565b90508015613a6957613a5d600360438361421a565b60009250925050613dce565b43600c5414613a7e57613a5d600a6044612da2565b613ac76040805161010081019091528060008152602001600081526020016000815260200160008152602001600081526020016000815260200160008152602001600081525090565b6001600160a01b0386166000908152601560205260409020600101546060820152613af186612f12565b6080830181905260208301826003811115613b0e57613b0e6164ec565b6003811115613b1f57613b1f6164ec565b9052506000905081602001516003811115613b3c57613b3c6164ec565b14613b6b57613b5e6009604283602001516003811115613503576135036164ec565b6000935093505050613dce565b600019851415613b845760808101516040820152613b8c565b604081018590525b613b9a87826040015161440a565b60e082018190526080820151613baf916142bc565b60a0830181905260208301826003811115613bcc57613bcc6164ec565b6003811115613bdd57613bdd6164ec565b9052506000905081602001516003811115613bfa57613bfa6164ec565b14613c6d5760405162461bcd60e51b815260206004820152603a60248201527f52455041595f424f52524f575f4e45575f4143434f554e545f424f52524f575f60448201527f42414c414e43455f43414c43554c4154494f4e5f4641494c45440000000000006064820152608401610d7b565b613c7d600e548260e001516142bc565b60c0830181905260208301826003811115613c9a57613c9a6164ec565b6003811115613cab57613cab6164ec565b9052506000905081602001516003811115613cc857613cc86164ec565b14613d2f5760405162461bcd60e51b815260206004820152603160248201527f52455041595f424f52524f575f4e45575f544f54414c5f42414c414e43455f43604482015270105310d55310551253d397d19052531151607a1b6064820152608401610d7b565b60a081810180516001600160a01b03898116600081815260156020908152604091829020948555600d5460019095019490945560c0870151600e81905560e088015195518251948f16855294840192909252820193909352606081019190915260808101919091527f1a2a22cb034d26d1854bdc6666a5b91fe25efbbb5dcad3b0355478d6f5c362a1910160405180910390a160e00151600093509150505b935093915050565b600080600080613de687876142e7565b90925090506000826003811115613dff57613dff6164ec565b14613e105750915060009050613dce565b613e1a81866142bc565b935093505050935093915050565b6000613e406040518060200160405280600081525090565b600080613e5586670de0b6b3a7640000614e04565b90925090506000826003811115613e6e57613e6e6164ec565b14613e8d5750604080516020810190915260008152909250905061298e565b600080613e9a8388614e4e565b90925090506000826003811115613eb357613eb36164ec565b14613ed6578160405180602001604052806000815250955095505050505061298e565b604080516020810190915290815260009890975095505050505050565b60175460185460195460408051634fb3c66560e11b815290516001600160a01b039485169493841693909216918391639f678cca91600480830192602092919082900301816000875af1158015613f4e573d6000803e3d6000fd5b505050506040513d601f19601f82011682018060405250810190613f72919061649e565b506040516305f5d64360e11b81523060048201526000906001600160a01b03841690630bebac8690602401602060405180830381865afa158015613fba573d6000803e3d6000fd5b505050506040513d601f19601f82011682018060405250810190613fde919061649e565b604051637f8661a160e01b8152600481018290529091506001600160a01b03841690637f8661a190602401600060405180830381600087803b15801561402357600080fd5b505af1158015614037573d6000803e3d6000fd5b5050604051633612d9a360e11b8152306004820152600092506001600160a01b0385169150636c25b34690602401602060405180830381865afa158015614082573d6000803e3d6000fd5b505050506040513d601f19601f820116820180604052508101906140a6919061649e565b90506001600160a01b03851663ef693bed306140ce6b033b2e3c9fd0803ce800000085616656565b6040516001600160e01b031960e085901b1681526001600160a01b03909216600483015260248201526044015b600060405180830381600087803b15801561411557600080fd5b505af1158015614129573d6000803e3d6000fd5b505050505050505050565b6060600080856001600160a01b031685604051614151919061661d565b6000604051808303816000865af19150503d806000811461418e576040519150601f19603f3d011682016040523d82523d6000602084013e614193565b606091505b5091509150816141c7578051156141ad5780518082602001fd5b8360405162461bcd60e51b8152600401610d7b9190616117565b95945050505050565b6001546040805163dd86fea160e01b815290516000926001600160a01b03169163dd86fea19160048083019260209291908290030181865afa158015611942573d6000803e3d6000fd5b60007f45b96fe442630264581b197e84bbada861235052c5a1aadfff9ea4e40a969aa084601181111561424f5761424f6164ec565b846063811115614261576142616164ec565b604080519283526020830191909152810184905260600160405180910390a16003846011811115614294576142946164ec565b146142b0578360118111156142ab576142ab6164ec565b6113db565b6113db826103e8616605565b6000808383116142db5760006142d28486616699565b9150915061298e565b5060039050600061298e565b600080806142f58486616605565b90508481106143095760009250905061298e565b60026000925092505061298e565b600061432f6040518060200160405280600081525090565b600080614340866000015186614e04565b90925090506000826003811115614359576143596164ec565b146143785750604080516020810190915260008152909250905061298e565b60408051602081019091529081526000969095509350505050565b8051600090610d2e90670de0b6b3a764000090616656565b60008115806143cf575082826143c181836166b0565b92506143cd9083616656565b145b610d2e5760405162461bcd60e51b815260206004820152600c60248201526b6d756c2d6f766572666c6f7760a01b6044820152606401610d7b565b6016546040516323b872dd60e01b81526000916001600160a01b03169081906323b872dd90614441908790309088906004016166cf565b6020604051808303816000875af1158015614460573d6000803e3d6000fd5b505050506040513d601f19601f820116820180604052508101906144849190616532565b6144dc5760405162461bcd60e51b8152602060048201526024808201527f756e6578706563746564204549502d3230207472616e7366657220696e2072656044820152633a3ab93760e11b6064820152608401610d7b565b6017546016546018546019546040516370a0823160e01b815230600482018190526001600160a01b03958616959485169493841693909216918591633b4da69f919086906370a0823190602401602060405180830381865afa158015614546573d6000803e3d6000fd5b505050506040513d601f19601f8201168201806040525081019061456a919061649e565b6040516001600160e01b031960e085901b1681526001600160a01b0390921660048301526024820152604401600060405180830381600087803b1580156145b057600080fd5b505af11580156145c4573d6000803e3d6000fd5b5050604051633612d9a360e11b8152306004820152600092506001600160a01b0384169150636c25b34690602401602060405180830381865afa15801561460f573d6000803e3d6000fd5b505050506040513d601f19601f82011682018060405250810190614633919061649e565b90506000836001600160a01b031663c92aecc46040518163ffffffff1660e01b8152600401602060405180830381865afa158015614675573d6000803e3d6000fd5b505050506040513d601f19601f82011682018060405250810190614699919061649e565b6146a39083616656565b60405163049878f360e01b8152600481018290529091506001600160a01b0385169063049878f390602401600060405180830381600087803b1580156146e857600080fd5b505af11580156146fc573d6000803e3d6000fd5b509a9c9b505050505050505050505050565b60006117608383604051806040016040528060158152602001747375627472616374696f6e20756e646572666c6f7760581b815250615c24565b6017546018546040805163324abb3160e21b815290516001600160a01b0393841693909216916000916147ec91849163c92aecc49160048083019260209291908290030181865afa1580156147a1573d6000803e3d6000fd5b505050506040513d601f19601f820116820180604052508101906147c5919061649e565b6147db866b033b2e3c9fd0803ce80000006143ab565b6147e59190616656565b6001615c53565b604051637f8661a160e01b8152600481018290529091506001600160a01b03831690637f8661a190602401600060405180830381600087803b15801561483157600080fd5b505af1158015614845573d6000803e3d6000fd5b505060405163ef693bed60e01b81526001600160a01b038881166004830152602482018890528616925063ef693bed91506044016140fb565b600082158061488b575081155b6148f45760405162461bcd60e51b815260206004820152603460248201527f6f6e65206f662072656465656d546f6b656e73496e206f722072656465656d416044820152736d6f756e74496e206d757374206265207a65726f60601b6064820152608401610d7b565b6149356040805160e0810190915280600081526020016000815260200160008152602001600081526020016000815260200160008152602001600081525090565b61493d611d15565b604083018190526020830182600381111561495a5761495a6164ec565b600381111561496b5761496b6164ec565b9052506000905081602001516003811115614988576149886164ec565b146149b2576149aa6009602e83602001516003811115613503576135036164ec565b915050611760565b8315614a4b5760608101849052604080516020810182529082015181526149d99085612942565b60808301819052602083018260038111156149f6576149f66164ec565b6003811115614a0757614a076164ec565b9052506000905081602001516003811115614a2457614a246164ec565b14614a46576149aa6009602c83602001516003811115613503576135036164ec565b614adc565b614a678360405180602001604052808460400151815250615ca0565b6060830181905260208301826003811115614a8457614a846164ec565b6003811115614a9557614a956164ec565b9052506000905081602001516003811115614ab257614ab26164ec565b14614ad4576149aa6009602d83602001516003811115613503576135036164ec565b608081018390525b600654606082015160405163eabe7d9160e01b81526000926001600160a01b03169163eabe7d9191614b159130918b91906004016166cf565b6020604051808303816000875af1158015614b34573d6000803e3d6000fd5b505050506040513d601f19601f82011682018060405250810190614b58919061649e565b90508015614b7657614b6d6003602b8361421a565b92505050611760565b43600c5414614b8b57614b6d600a602f612da2565b614b9b60125483606001516142bc565b60a0840181905260208401826003811115614bb857614bb86164ec565b6003811115614bc957614bc96164ec565b9052506000905082602001516003811115614be657614be66164ec565b14614c0857614b6d6009603184602001516003811115613503576135036164ec565b6001600160a01b0386166000908152601360205260409020546060830151614c3091906142bc565b60c0840181905260208401826003811115614c4d57614c4d6164ec565b6003811115614c5e57614c5e6164ec565b9052506000905082602001516003811115614c7b57614c7b6164ec565b14614c9d57614b6d6009603084602001516003811115613503576135036164ec565b8160800151614caa612995565b1015614cbc57614b6d600e6032612da2565b60a082015160125560c08201516001600160a01b0387166000908152601360205260409020556080820151614cf2908790614748565b306001600160a01b0316866001600160a01b03166000805160206167188339815191528460600151604051614d2991815260200190565b60405180910390a3608082015160608301516040517fe5b754fb1abb7f01b499791d0b820ae3b6af3424ac1c59768edb53f4ec31a92992614d6b928a92616678565b60405180910390a1600654608083015160608401516040516351dff98960e01b81523060048201526001600160a01b038a81166024830152604482019390935260648101919091529116906351dff98990608401600060405180830381600087803b158015614dd957600080fd5b505af1158015614ded573d6000803e3d6000fd5b5060009250614dfa915050565b9695505050505050565b60008083614e175750600090508061298e565b6000614e2384866166b0565b905083614e308683616656565b14614e435760026000925092505061298e565b60009250905061298e565b60008082614e62575060019050600061298e565b6000614e6e8486616656565b915091509250929050565b600654604051634ef4c3e160e01b8152600091829182916001600160a01b031690634ef4c3e190614eb2903090899089906004016166cf565b6020604051808303816000875af1158015614ed1573d6000803e3d6000fd5b505050506040513d601f19601f82011682018060405250810190614ef5919061649e565b90508015614f1657614f0a600360218361421a565b6000925092505061298e565b43600c5414614f2b57614f0a600a6024612da2565b614f6c6040805160e0810190915280600081526020016000815260200160008152602001600081526020016000815260200160008152602001600081525090565b614f74611d15565b6040830181905260208301826003811115614f9157614f916164ec565b6003811115614fa257614fa26164ec565b9052506000905081602001516003811115614fbf57614fbf6164ec565b14614fee57614fe16009602383602001516003811115613503576135036164ec565b600093509350505061298e565b614ff8868661440a565b60c08201819052604080516020810182529083015181526150199190615ca0565b6060830181905260208301826003811115615036576150366164ec565b6003811115615047576150476164ec565b9052506000905081602001516003811115615064576150646164ec565b146150b15760405162461bcd60e51b815260206004820181905260248201527f4d494e545f45584348414e47455f43414c43554c4154494f4e5f4641494c45446044820152606401610d7b565b6150c16012548260600151613312565b60808201526001600160a01b03861660009081526013602052604090205460608201516150ee9190613312565b60a0820181905260808201516012556001600160a01b038716600090815260136020526040908190209190915560c0820151606083015191517f4c209b5fc8ad50758f13e2e1088ba56a560dff690a1c6fef26394f4c03821c4f92615157928a92909190616678565b60405180910390a1856001600160a01b0316306001600160a01b0316600080516020616718833981519152836060015160405161519691815260200190565b60405180910390a360065460c082015160608301516040516341c728b960e01b81523060048201526001600160a01b038a81166024830152604482019390935260648101919091529116906341c728b990608401600060405180830381600087803b15801561520457600080fd5b505af1158015615218573d6000803e3d6000fd5b5060009250615225915050565b8160c001519350935050509250929050565b60008061525260405180602001604052808681525084615cb0565b9050600061526282600e546153b7565b9050600061527282600e54613312565b905060006152936040518060200160405280600b5481525084600f54615ce1565b905060006152b46040518060200160405280600a5481525085601154615ce1565b905060006152d5604051806020016040528060095481525086601054615ce1565b905060006152e887600d54600d54615ce1565b600c8d9055600d819055600e869055600f85905560118490556010839055604080518d815260208101899052908101829052606081018790529091507f4dec04e750ca11537cabcd8a9eab06494de08da3735bc8871cd41250e190bc049060800160405180910390a160009c9b505050505050505050505050565b6000806153708486616605565b905082858210156112c35760405162461bcd60e51b8152600401610d7b9190616117565b6000670de0b6b3a76400006153ad848460000151615d02565b6117609190616656565b6000806153c48484615cb0565b90506113db81614393565b60065460405163368f515360e21b815260009182916001600160a01b039091169063da3d454c90615408903090889088906004016166cf565b6020604051808303816000875af1158015615427573d6000803e3d6000fd5b505050506040513d601f19601f8201168201806040525081019061544b919061649e565b9050801561546857615460600360108361421a565b915050610d2e565b43600c541461547d57615460600a600c612da2565b6000615487612995565b9050838110156154a65761549d600e600b612da2565b92505050610d2e565b6154d2604080516080810190915280600081526020016000815260200160008152602001600081525090565b6154db86612f12565b60208301819052828260038111156154f5576154f56164ec565b6003811115615506576155066164ec565b9052506000905081516003811115615520576155206164ec565b1461554b5761554160098083600001516003811115613503576135036164ec565b9350505050610d2e565b6155598160200151866142e7565b6040830181905282826003811115615573576155736164ec565b6003811115615584576155846164ec565b905250600090508151600381111561559e5761559e6164ec565b146155c0576155416009600e83600001516003811115613503576135036164ec565b6006546040828101519051631de6c8a560e21b815230600482015260248101919091526001600160a01b039091169063779b2294906044016020604051808303816000875af1158015615617573d6000803e3d6000fd5b505050506040513d601f19601f8201168201806040525081019061563b919061649e565b9250821561565057615541600360108561421a565b61565c600e54866142e7565b6060830181905282826003811115615676576156766164ec565b6003811115615687576156876164ec565b90525060009050815160038111156156a1576156a16164ec565b146156c3576155416009600d83600001516003811115613503576135036164ec565b6040808201516001600160a01b0388166000908152601560205291909120908155600d546001909101556060810151600e556156ff8686614748565b60408082015160608084015183516001600160a01b038b168152602081018a9052938401929092528201527f13ed6866d4e1ee6da46f845c46d7e54120883d75c5ea9a2dacc1c4ca8984ab809060800160405180910390a160009695505050505050565b600654604051632fe3f38f60e11b81523060048201526001600160a01b03838116602483015286811660448301528581166064830152608482018590526000928392839290911690635fc7e71e9060a4016020604051808303816000875af11580156157d3573d6000803e3d6000fd5b505050506040513d601f19601f820116820180604052508101906157f7919061649e565b905080156158185761580c600360148361421a565b60009250925050615c1b565b43600c541461582d5761580c600a6018612da2565b43846001600160a01b0316636c540baf6040518163ffffffff1660e01b8152600401602060405180830381865afa15801561586c573d6000803e3d6000fd5b505050506040513d601f19601f82011682018060405250810190615890919061649e565b146158a15761580c600a6013612da2565b866001600160a01b0316866001600160a01b031614156158c75761580c60066019612da2565b846158d85761580c60076017612da2565b6000198514156158ee5761580c60076016612da2565b6000806158fc8989896139bc565b909250905081156159315761592382601181111561591c5761591c6164ec565b601a612da2565b600094509450505050615c1b565b60065460405163c488847b60e01b815260009182916001600160a01b039091169063c488847b9061596a9030908c9088906004016166cf565b6040805180830381865afa158015615986573d6000803e3d6000fd5b505050506040513d601f19601f820116820180604052508101906159aa91906166f3565b90925090508115615a195760405162461bcd60e51b815260206004820152603360248201527f4c49515549444154455f434f4d5054524f4c4c45525f43414c43554c4154455f604482015272105353d5539517d4d152569157d19052531151606a1b6064820152608401610d7b565b6040516370a0823160e01b81526001600160a01b038b811660048301528291908a16906370a0823190602401602060405180830381865afa158015615a62573d6000803e3d6000fd5b505050506040513d601f19601f82011682018060405250810190615a86919061649e565b1015615ad45760405162461bcd60e51b815260206004820152601860248201527f4c49515549444154455f5345495a455f544f4f5f4d55434800000000000000006044820152606401610d7b565b60006001600160a01b038916301415615afa57615af3308d8d85613348565b9050615b70565b60405163b2a02ff160e01b81526001600160a01b038a169063b2a02ff190615b2a908f908f9087906004016166cf565b6020604051808303816000875af1158015615b49573d6000803e3d6000fd5b505050506040513d601f19601f82011682018060405250810190615b6d919061649e565b90505b8015615bb55760405162461bcd60e51b81526020600482015260146024820152731d1bdad95b881cd95a5e9d5c994819985a5b195960621b6044820152606401610d7b565b604080516001600160a01b038e811682528d811660208301528183018790528b1660608201526080810184905290517f298637f684da70674f26509b10f07ec2fbc77a335ab1e7d6215a4b2484d8bb529181900360a00190a16000975092955050505050505b94509492505050565b60008184841115615c485760405162461bcd60e51b8152600401610d7b9190616117565b506113db8385616699565b600082615c608382616605565b9150811015610d2e5760405162461bcd60e51b815260206004820152600c60248201526b6164642d6f766572666c6f7760a01b6044820152606401610d7b565b6000806000806129528686615d44565b6040805160208101909152600081526040518060200160405280615cd8856000015185615d02565b90529392505050565b600080615cee8585615cb0565b90506141c7615cfc82614393565b84613312565b600061176083836040518060400160405280601781526020017f6d756c7469706c69636174696f6e206f766572666c6f77000000000000000000815250615db7565b6000615d5c6040518060200160405280600081525090565b600080615d71670de0b6b3a764000087614e04565b90925090506000826003811115615d8a57615d8a6164ec565b14615da95750604080516020810190915260008152909250905061298e565b612987818660000151613e28565b6000831580615dc4575082155b15615dd157506000611760565b6000615ddd84866166b0565b905083615dea8683616656565b1483906112c35760405162461bcd60e51b8152600401610d7b9190616117565b828054615e16906164b7565b90600052602060002090601f016020900481019282615e385760008555615e7e565b82601f10615e5157805160ff1916838001178555615e7e565b82800160010185558215615e7e579182015b82811115615e7e578251825591602001919060010190615e63565b506115a2929150615efe565b828054615e96906164b7565b90600052602060002090601f016020900481019282615eb85760008555615e7e565b82601f10615ed15782800160ff19823516178555615e7e565b82800160010185558215615e7e579182015b82811115615e7e578235825591602001919060010190615ee3565b5b808211156115a25760008155600101615eff565b6001600160a01b0381168114611d1257600080fd5b8035615f3381615f13565b919050565b634e487b7160e01b600052604160045260246000fd5b604051601f8201601f1916810167ffffffffffffffff81118282101715615f7757615f77615f38565b604052919050565b600067ffffffffffffffff821115615f9957615f99615f38565b50601f01601f191660200190565b600082601f830112615fb857600080fd5b8135615fcb615fc682615f7f565b615f4e565b818152846020838601011115615fe057600080fd5b816020850160208301376000918101602001919091529392505050565b600080600080600080600080610100898b03121561601a57600080fd5b883561602581615f13565b9750602089013561603581615f13565b9650604089013561604581615f13565b9550606089013561605581615f13565b9450608089013567ffffffffffffffff8082111561607257600080fd5b61607e8c838d01615fa7565b955060a08b013591508082111561609457600080fd5b506160a18b828c01615fa7565b93505060c0890135915060e089013590509295985092959890939650565b60005b838110156160da5781810151838201526020016160c2565b838111156114705750506000910152565b600081518084526161038160208601602086016160bf565b601f01601f19169290920160200192915050565b60208152600061176060208301846160eb565b6000806040838503121561613d57600080fd5b823561614881615f13565b946020939093013593505050565b60006020828403121561616857600080fd5b5035919050565b60006020828403121561618157600080fd5b813561176081615f13565b60ff81168114611d1257600080fd5b8035615f338161618c565b60008060008060008060008060006101208a8c0312156161c557600080fd5b89356161d081615f13565b985060208a01356161e081615f13565b97506161ee60408b01615f28565b965060608a0135955060808a013567ffffffffffffffff8082111561621257600080fd5b61621e8d838e01615fa7565b965060a08c013591508082111561623457600080fd5b506162418c828d01615fa7565b94505061625060c08b0161619b565b925060e08a013591506101008a013590509295985092959850929598565b60008060006060848603121561628357600080fd5b833561628e81615f13565b9250602084013561629e81615f13565b929592945050506040919091013590565b60008083601f8401126162c157600080fd5b50813567ffffffffffffffff8111156162d957600080fd5b60208301915083602082850101111561298e57600080fd5b6000806000806040858703121561630757600080fd5b843567ffffffffffffffff8082111561631f57600080fd5b61632b888389016162af565b9096509450602087013591508082111561634457600080fd5b50616351878288016162af565b95989497509550505050565b8015158114611d1257600080fd5b6000806000806060858703121561638157600080fd5b843561638c81615f13565b9350602085013561639c8161635d565b9250604085013567ffffffffffffffff8111156163b857600080fd5b616351878288016162af565b600080602083850312156163d757600080fd5b823567ffffffffffffffff8111156163ee57600080fd5b6163fa858286016162af565b90969095509350505050565b6000806040838503121561641957600080fd5b823561642481615f13565b9150602083013561643481615f13565b809150509250929050565b60008060006060848603121561645457600080fd5b833561645f81615f13565b925060208401359150604084013561647681615f13565b809150509250925092565b60006020828403121561649357600080fd5b81516117608161618c565b6000602082840312156164b057600080fd5b5051919050565b600181811c908216806164cb57607f821691505b60208210811415610d9957634e487b7160e01b600052602260045260246000fd5b634e487b7160e01b600052602160045260246000fd5b6020808252601690820152751858d8dc9d59481a5b9d195c995cdd0819985a5b195960521b604082015260600190565b60006020828403121561654457600080fd5b81516117608161635d565b60008060006060848603121561656457600080fd5b835161656f81615f13565b60208501519093506165808161635d565b604085015190925067ffffffffffffffff81111561659d57600080fd5b8401601f810186136165ae57600080fd5b80516165bc615fc682615f7f565b8181528760208385010111156165d157600080fd5b6165e28260208301602086016160bf565b8093505050509250925092565b634e487b7160e01b600052601160045260246000fd5b60008219821115616618576166186165ef565b500190565b6000825161662f8184602087016160bf565b9190910192915050565b60006020828403121561664b57600080fd5b815161176081615f13565b60008261667357634e487b7160e01b600052601260045260246000fd5b500490565b6001600160a01b039390931683526020830191909152604082015260600190565b6000828210156166ab576166ab6165ef565b500390565b60008160001904831182151516156166ca576166ca6165ef565b500290565b6001600160a01b039384168152919092166020820152604081019190915260600190565b6000806040838503121561670657600080fd5b50508051602090910151909290915056feddf252ad1be2c89b69c2b068fc378daa952ba7f163c4a11628f55a4df523b3efa2646970667358221220ce1f24fd51c704d7cf709f337780376d362277c4b3dd05d22c06ca415ba2bfb664736f6c634300080a0033",
    "linkReferences": {}
  }
}