{
  "abi": [
    {
      "inputs": [
        {
          "internalType": "contract MasterPriceOracle",
          "name": "_masterPriceOracle",
          "type": "address"
        },
        {
          "internalType": "contract MockERC20",
          "name": "_underlyingToken",
          "type": "address"
        }
      ],
      "stateMutability": "nonpayable",
      "type": "constructor"
    },
    {
      "anonymous": false,
      "inputs": [
        {
          "indexed": false,
          "internalType": "address",
          "name": "add",
          "type": "address"
        }
      ],
      "name": "log_address1",
      "type": "event"
    },
    {
      "inputs": [
        {
          "internalType": "address",
          "name": "_underlyingToken",
          "type": "address"
        },
        {
          "internalType": "bytes",
          "name": "name",
          "type": "bytes"
        },
        {
          "internalType": "bytes",
          "name": "symbol",
          "type": "bytes"
        },
        {
          "internalType": "uint256",
          "name": "_collateralFactorMantissa",
          "type": "uint256"
        }
      ],
      "name": "deployCErc20Delegate",
      "outputs": [],
      "stateMutability": "nonpayable",
      "type": "function"
    },
    {
      "inputs": [
        {
          "internalType": "contract ERC4626",
          "name": "_erc4626",
          "type": "address"
        },
        {
          "internalType": "uint256",
          "name": "_collateralFactorMantissa",
          "type": "uint256"
        }
      ],
      "name": "deployCErc20PluginDelegate",
      "outputs": [],
      "stateMutability": "nonpayable",
      "type": "function"
    },
    {
      "inputs": [
        {
          "internalType": "contract ERC4626",
          "name": "_mockERC4626Dynamic",
          "type": "address"
        },
        {
          "internalType": "contract FuseFlywheelCore",
          "name": "_flywheel",
          "type": "address"
        },
        {
          "internalType": "uint256",
          "name": "_collateralFactorMantissa",
          "type": "uint256"
        }
      ],
      "name": "deployCErc20PluginRewardsDelegate",
      "outputs": [],
      "stateMutability": "nonpayable",
      "type": "function"
    },
    {
      "inputs": [],
      "name": "setUpBaseContracts",
      "outputs": [],
      "stateMutability": "nonpayable",
      "type": "function"
    },
    {
      "inputs": [
        {
          "internalType": "string",
          "name": "name",
          "type": "string"
        },
        {
          "internalType": "bool",
          "name": "enforceWhitelist",
          "type": "bool"
        },
        {
          "internalType": "uint256",
          "name": "closeFactor",
          "type": "uint256"
        },
        {
          "internalType": "uint256",
          "name": "liquidationIncentive",
          "type": "uint256"
        }
      ],
      "name": "setUpPool",
      "outputs": [],
      "stateMutability": "nonpayable",
      "type": "function"
    },
    {
      "inputs": [],
      "name": "setUpWhiteList",
      "outputs": [],
      "stateMutability": "nonpayable",
      "type": "function"
    }
  ],
  "bytecode": {
    "object": "0x60806040523480156200001157600080fd5b50604051620469973803806204699783398101604081905262000034916200070c565b600c80546001600160a01b038085166001600160a01b03199283161790925560008054928416929091169190911790556200006e62000080565b620000786200032d565b50506200116a565b6223c2f1670de0b6b3a7640000806040516200009c9062000691565b92835260208301919091526040820152606001604051809103906000f080158015620000cc573d6000803e3d6000fd5b50600880546001600160a01b0319166001600160a01b0392909216919091179055604051620000fb906200069f565b604051809103906000f08015801562000118573d6000803e3d6000fd5b50600980546001600160a01b0319166001600160a01b0392909216918217905560405163fe4b84df60e01b8152662386f26fc10000600482015263fe4b84df90602401600060405180830381600087803b1580156200017657600080fd5b505af11580156200018b573d6000803e3d6000fd5b505050506040516200019d90620006ad565b604051809103906000f080158015620001ba573d6000803e3d6000fd5b50600a80546001600160a01b0319166001600160a01b03929092169182179055604051632e195e7560e21b815263b86579d4906200020190600090600f9060040162000796565b600060405180830381600087803b1580156200021c57600080fd5b505af115801562000231573d6000803e3d6000fd5b505050506040516200024390620006bb565b604051809103906000f08015801562000260573d6000803e3d6000fd5b50600d80546001600160a01b0319166001600160a01b039290921691821790556040519081527f577dab473fab8ee020cab9ec3d8be74b5e30914409e2d124869584fc513cc58c9060200160405180910390a1600d54600a54604051631d0f5b2b60e11b81526001600160a01b0392831692633a1eb65692620002f7929116906018906019908190819081908190600401620008a5565b600060405180830381600087803b1580156200031257600080fd5b505af115801562000327573d6000803e3d6000fd5b50505050565b6040516200033b90620006c9565b604051809103906000f08015801562000358573d6000803e3d6000fd5b50600480546001600160a01b0319166001600160a01b03929092169190911790556040516200038790620006d7565b604051809103906000f080158015620003a4573d6000803e3d6000fd5b50600580546001600160a01b0319166001600160a01b0392909216919091179055604051620003d390620006e5565b604051809103906000f080158015620003f0573d6000803e3d6000fd5b50600380546001600160a01b0319166001600160a01b039290921691909117905560005b6007811015620004c35760138054600181810190925560208082047f66de8ffda797e3de9c05e8fc57b3bf0ec28a930d40b0d285d93c06501cf6a09001805460ff601f94851661010090810a828102199093169092179092556014805495860181556000529184047fce6d7b5282bd9a3661ae061feed1dbda4e52ab073b1f9285be6e155d9c38d4ec0180549490931690910a0219909116905580620004ba8162000984565b91505062000414565b5060168054600181810183557fd833147d7dc355ba459fc788f669e58cfaf9dc25ddcd0702e87d69c7b512428991820180546001600160a01b031990811690915583548083018555830180548216905583548083018555830180548216905560038054855480850187558501805484166001600160a01b0392831617905581548654808601885586018054851691831691909117905560048054875480870189558701805486169184169190911790556005805488548088018a559097018054861697841697909717909655915460178054808701825560008290527fc624b66cc0138b8fabc209247f72d758e1cf3343756d543badbf24212bed8c159081018054871693851693909317909255835481548088018355830180548716918516919091179055865481548088018355830180548716918516919091179055835481548088018355830180548716918516919091179055865481548088018355830180548716918516919091179055835481548088018355830180548716918516919091179055955486549586018755940180549093169381169390931790915560095460405162bac7e160e11b81529216936301758fc293620002f79391929091601491601391016200110a565b6106b5806202798d83390190565b613bf4806202804283390190565b613e32806202bc3683390190565b614fd7806202fa6883390190565b6160038062034a3f83390190565b616155806203aa4283390190565b615e008062040b9783390190565b6001600160a01b03811681146200070957600080fd5b50565b600080604083850312156200072057600080fd5b82516200072d81620006f3565b60208401519092506200074081620006f3565b809150509250929050565b6000815480845260208085019450836000528060002060005b838110156200078b5781546001600160a01b03168752958201956001918201910162000764565b509495945050505050565b8215158152604060208201526000620007b360408301846200074b565b949350505050565b6000815480845260208085019450848260051b86016000868152838120815b8681101562000897578484038a5281548390600181811c90808316806200080257607f831692505b8a83108114156200082157634e487b7160e01b88526022600452602488fd5b828952602089018180156200083f576001811462000851576200087d565b60ff19861682528c820196506200087d565b6000898152602090208a5b868110156200087757815484820152908501908e016200085c565b83019750505b5050509c89019c92965050509190910190600101620007da565b509198975050505050505050565b6001600160a01b038816815261012060208201819052600490820181905263141bdbdb60e21b61014083015261016060408301819052820152636c656e7360e01b61018082015260006101a08201828103606084015262000907818a6200074b565b905082810360808401526200091d8189620007bb565b905082810360a0840152620009338188620007bb565b905082810360c0840152620009498187620007bb565b905082810360e08401526200095f8186620007bb565b9050828103610100840152620009768185620007bb565b9a9950505050505050505050565b6000600019821415620009a757634e487b7160e01b600052601160045260246000fd5b5060010190565b805480835260008281526020808220940193909190825b82601f8201101562000c4f57815460ff808216151588526020620009f1818a01838560081c1615159052565b604062000a06818b01848660101c1615159052565b606062000a1b818c01858760181c1615159052565b608062000a2f818d018688871c1615159052565b60a0935062000a46848d01868860281c1615159052565b60c062000a5b818e01878960301c1615159052565b60e062000a70818f01888a60381c1615159052565b87851c871615156101008f015262000a926101208f01888a60481c1615159052565b62000aa76101408f01888a60501c1615159052565b62000abc6101608f01888a60581c1615159052565b87841c871615156101808f015262000ade6101a08f01888a60681c1615159052565b62000af36101c08f01888a60701c1615159052565b62000b086101e08f01888a60781c1615159052565b87831c871615156102008f015262000b2a6102208f01888a60881c1615159052565b62000b3f6102408f01888a60901c1615159052565b62000b546102608f01888a60981c1615159052565b87861c871615156102808f015262000b766102a08f01888a60a81c1615159052565b62000b8b6102c08f01888a60b01c1615159052565b62000ba06102e08f01888a60b81c1615159052565b87821c871615156103008f015262000bc26103208f01888a60c81c1615159052565b62000bd76103408f01888a60d01c1615159052565b62000bec6103608f01888a60d81c1615159052565b87901c861615156103808e0152505050505060e882901c811615156103a089015262000c226103c08901828460f01c1615159052565b5062000c366103e088018260f81c15159052565b50610400959095019460019190910190602001620009c5565b9054908281101562000c6d5760ff8216151586526020909501946001015b8281101562000c935762000c888660ff8460081c1615159052565b602095909501946001015b8281101562000cb95762000cae8660ff8460101c1615159052565b602095909501946001015b8281101562000cdf5762000cd48660ff8460181c1615159052565b602095909501946001015b8281101562000d055762000cfa8660ff8460201c1615159052565b602095909501946001015b8281101562000d2b5762000d208660ff8460281c1615159052565b602095909501946001015b8281101562000d515762000d468660ff8460301c1615159052565b602095909501946001015b8281101562000d775762000d6c8660ff8460381c1615159052565b602095909501946001015b8281101562000d9d5762000d928660ff8460401c1615159052565b602095909501946001015b8281101562000dc35762000db88660ff8460481c1615159052565b602095909501946001015b8281101562000de95762000dde8660ff8460501c1615159052565b602095909501946001015b8281101562000e0f5762000e048660ff8460581c1615159052565b602095909501946001015b8281101562000e355762000e2a8660ff8460601c1615159052565b602095909501946001015b8281101562000e5b5762000e508660ff8460681c1615159052565b602095909501946001015b8281101562000e815762000e768660ff8460701c1615159052565b602095909501946001015b8281101562000ea75762000e9c8660ff8460781c1615159052565b602095909501946001015b8281101562000ecd5762000ec28660ff8460801c1615159052565b602095909501946001015b8281101562000ef35762000ee88660ff8460881c1615159052565b602095909501946001015b8281101562000f195762000f0e8660ff8460901c1615159052565b602095909501946001015b8281101562000f3f5762000f348660ff8460981c1615159052565b602095909501946001015b8281101562000f655762000f5a8660ff8460a01c1615159052565b602095909501946001015b8281101562000f8b5762000f808660ff8460a81c1615159052565b602095909501946001015b8281101562000fb15762000fa68660ff8460b01c1615159052565b602095909501946001015b8281101562000fd75762000fcc8660ff8460b81c1615159052565b602095909501946001015b8281101562000ffd5762000ff28660ff8460c01c1615159052565b602095909501946001015b828110156200102357620010188660ff8460c81c1615159052565b602095909501946001015b8281101562001049576200103e8660ff8460d01c1615159052565b602095909501946001015b828110156200106f57620010648660ff8460d81c1615159052565b602095909501946001015b8281101562001095576200108a8660ff8460e01c1615159052565b602095909501946001015b82811015620010bb57620010b08660ff8460e81c1615159052565b602095909501946001015b82811015620010e157620010d68660ff8460f01c1615159052565b602095909501946001015b828110156200110057620010f9868360f81c15159052565b6020860195505b5093949350505050565b6080815260006200111f60808301876200074b565b82810360208401526200113381876200074b565b90508281036040840152620011498186620009ae565b905082810360608401526200115f8185620009ae565b979650505050505050565b62026812806200117b6000396000f3fe60806040523480156200001157600080fd5b50600436106200006a5760003560e01c8063118c5923146200006f578063133de17914620000885780633dc1327a146200009f5780636f0b395014620000b657806395990ddc14620000c0578063e24c2e0414620000ca575b600080fd5b620000866200008036600462000d28565b620000e1565b005b620000866200009936600462000d57565b620001c6565b62000086620000b036600462000e5a565b620002b9565b6200008662000380565b6200008662000627565b62000086620000db36600462000ee1565b6200098b565b60065460008054600954600854600354604080516001600160a01b038a811660208301529788169763aba35b989796811695899590821694908216939116910160408051601f19818403018152908290526200014b96959493929160019060009060200162000faf565b604051602081830303815290604052846040518463ffffffff1660e01b81526004016200017b9392919062001057565b6020604051808303816000875af11580156200019b573d6000803e3d6000fd5b505050506040513d601f19601f82011682018060405250810190620001c1919062001084565b505050565b60065460008054600954600854600354604080516001600160a01b038b811660208301528a811682840152958616606080830182905283518084039091018152608083019093529786169763aba35b9897966200023d9691958a959282169490821693919092169190600190899060a00162000faf565b604051602081830303815290604052846040518463ffffffff1660e01b81526004016200026d9392919062001057565b6020604051808303816000875af11580156200028d573d6000803e3d6000fd5b505050506040513d601f19601f82011682018060405250810190620002b3919062001084565b50505050565b6006546009546008546003546040516001600160a01b039485169463aba35b989460009462000303948c94899493841693928316928d928d929116906001908a906020016200109e565b604051602081830303815290604052846040518463ffffffff1660e01b8152600401620003339392919062001057565b6020604051808303816000875af115801562000353573d6000803e3d6000fd5b505050506040513d601f19601f8201168201806040525081019062000379919062001084565b5050505050565b6223c2f1670de0b6b3a7640000806040516200039c9062000c9f565b92835260208301919091526040820152606001604051809103906000f080158015620003cc573d6000803e3d6000fd5b50600880546001600160a01b0319166001600160a01b0392909216919091179055604051620003fb9062000cad565b604051809103906000f08015801562000418573d6000803e3d6000fd5b50600980546001600160a01b0319166001600160a01b0392909216918217905560405163fe4b84df60e01b8152662386f26fc10000600482015263fe4b84df90602401600060405180830381600087803b1580156200047657600080fd5b505af11580156200048b573d6000803e3d6000fd5b505050506040516200049d9062000cbb565b604051809103906000f080158015620004ba573d6000803e3d6000fd5b50600a80546001600160a01b0319166001600160a01b03929092169182179055604051632e195e7560e21b815263b86579d4906200050190600090600f9060040162001171565b600060405180830381600087803b1580156200051c57600080fd5b505af115801562000531573d6000803e3d6000fd5b50505050604051620005439062000cc9565b604051809103906000f08015801562000560573d6000803e3d6000fd5b50600d80546001600160a01b0319166001600160a01b039290921691821790556040519081527f577dab473fab8ee020cab9ec3d8be74b5e30914409e2d124869584fc513cc58c9060200160405180910390a1600d54600a54604051631d0f5b2b60e11b81526001600160a01b0392831692633a1eb65692620005f792911690601890601990819081908190819060040162001283565b600060405180830381600087803b1580156200061257600080fd5b505af1158015620002b3573d6000803e3d6000fd5b604051620006359062000cd7565b604051809103906000f08015801562000652573d6000803e3d6000fd5b50600480546001600160a01b0319166001600160a01b0392909216919091179055604051620006819062000ce5565b604051809103906000f0801580156200069e573d6000803e3d6000fd5b50600580546001600160a01b0319166001600160a01b0392909216919091179055604051620006cd9062000cf3565b604051809103906000f080158015620006ea573d6000803e3d6000fd5b50600380546001600160a01b0319166001600160a01b039290921691909117905560005b6007811015620007bd5760138054600181810190925560208082047f66de8ffda797e3de9c05e8fc57b3bf0ec28a930d40b0d285d93c06501cf6a09001805460ff601f94851661010090810a828102199093169092179092556014805495860181556000529184047fce6d7b5282bd9a3661ae061feed1dbda4e52ab073b1f9285be6e155d9c38d4ec0180549490931690910a0219909116905580620007b4816200136b565b9150506200070e565b5060168054600181810183557fd833147d7dc355ba459fc788f669e58cfaf9dc25ddcd0702e87d69c7b512428991820180546001600160a01b031990811690915583548083018555830180548216905583548083018555830180548216905560038054855480850187558501805484166001600160a01b0392831617905581548654808601885586018054851691831691909117905560048054875480870189558701805486169184169190911790556005805488548088018a559097018054861697841697909717909655915460178054808701825560008290527fc624b66cc0138b8fabc209247f72d758e1cf3343756d543badbf24212bed8c159081018054871693851693909317909255835481548088018355830180548716918516919091179055865481548088018355830180548716918516919091179055835481548088018355830180548716918516919091179055865481548088018355830180548716918516919091179055835481548088018355830180548716918516919091179055955486549586018755940180549093169381169390931790915560095460405162bac7e160e11b81529216936301758fc293620005f793919290916014916013910162001af1565b600f805460018101825560009182527f8d1108e10bcb7c27dddfc02ed9d693a074039d026cf4ea4240b40f7d581ac8020180546001600160a01b03191690556009546040516001600160a01b0390911690620009e79062000d01565b6001600160a01b039091168152602001604051809103906000f08015801562000a14573d6000803e3d6000fd5b5060108054600181810183557f1b6847dc741a1b0cd08d278845f9d819d87b734759afb55fe2de5cb82a9ae67290910180546001600160a01b038086166001600160a01b03199092169190911790915560128054808401825560208082047fbb8a6a4669ba250d26cd7a459eca9d215f8307e33aebe50379bc5a3617ec344401805460ff601f94851661010090810a828102199093169092179092556011805497880181556000529186047f31ecc21a745e3968a04e9570e4425bc18fa8019c68028196b546d1669c200c680180549690931690910a0219909316909255600954604051638d3bb8ef60e01b81529495501692638d3bb8ef9262000b1e92600f9260040162001b51565b600060405180830381600087803b15801562000b3957600080fd5b505af115801562000b4e573d6000803e3d6000fd5b5050600a54600954604080516001600160a01b0392831660208201526000955085945091909216916358b896d3918a9187910160408051601f1981840301815290829052600c546001600160e01b031960e087901b16835262000bc69493928d918d918d916001600160a01b03169060040162001b9a565b60408051808303816000875af115801562000be5573d6000803e3d6000fd5b505050506040513d601f19601f8201168201806040525081019062000c0b919062001bfd565b91509150806001600160a01b031663e9c714f26040518163ffffffff1660e01b81526004016020604051808303816000875af115801562000c50573d6000803e3d6000fd5b505050506040513d601f19601f8201168201806040525081019062000c76919062001084565b50600680546001600160a01b0319166001600160a01b0392909216919091179055505050505050565b6106b58062001c3183390190565b613bf480620022e683390190565b613e328062005eda83390190565b614fd78062009d0c83390190565b616003806200ece383390190565b6161558062014ce683390190565b615e00806201ae3b83390190565b615bcb8062020c3b83390190565b6001600160a01b038116811462000d2557600080fd5b50565b6000806040838503121562000d3c57600080fd5b823562000d498162000d0f565b946020939093013593505050565b60008060006060848603121562000d6d57600080fd5b833562000d7a8162000d0f565b9250602084013562000d8c8162000d0f565b929592945050506040919091013590565b634e487b7160e01b600052604160045260246000fd5b600067ffffffffffffffff8084111562000dd15762000dd162000d9d565b604051601f8501601f19908116603f0116810190828211818310171562000dfc5762000dfc62000d9d565b8160405280935085815286868601111562000e1657600080fd5b858560208301376000602087830101525050509392505050565b600082601f83011262000e4257600080fd5b62000e538383356020850162000db3565b9392505050565b6000806000806080858703121562000e7157600080fd5b843562000e7e8162000d0f565b9350602085013567ffffffffffffffff8082111562000e9c57600080fd5b62000eaa8883890162000e30565b9450604087013591508082111562000ec157600080fd5b5062000ed08782880162000e30565b949793965093946060013593505050565b6000806000806080858703121562000ef857600080fd5b843567ffffffffffffffff81111562000f1057600080fd5b8501601f8101871362000f2257600080fd5b62000f338782356020840162000db3565b9450506020850135801515811462000f4a57600080fd5b93969395505050506040820135916060013590565b6000815180845260005b8181101562000f875760208185018101518683018201520162000f69565b8181111562000f9a576000602083870101525b50601f01601f19169290920160200192915050565b6001600160a01b038981168252888116602083015287811660408301528681166060830152610140608083018190526010908301526f31aab73232b9363cb4b733aa37b5b2b760811b61016083015261018060a083018190526003908301526210d55560ea1b6101a0830152851660c08201526101c060e0820181905260009082016200103d818762000f5f565b610100840195909552505061012001529695505050505050565b831515815260606020820152600062001074606083018562000f5f565b9050826040830152949350505050565b6000602082840312156200109757600080fd5b5051919050565b6001600160a01b038a8116825289811660208301528881166040830152878116606083015261014060808301819052600091620010de8483018a62000f5f565b915083820360a0850152620010f4828962000f5f565b961660c0840152505080840360e082015260008452610100810192909252610120909101526020019695505050505050565b6000815480845260208085019450836000528060002060005b83811015620011665781546001600160a01b0316875295820195600191820191016200113f565b509495945050505050565b82151581526040602082015260006200118e604083018462001126565b949350505050565b600081548084526020808501808196508360051b810191506000868152838120815b8681101562001275578385038a5281548390600181811c9080831680620011e057607f831692505b8a8310811415620011ff57634e487b7160e01b88526022600452602488fd5b828a5260208a018180156200121d57600181146200122f576200125b565b60ff19861682528c820196506200125b565b6000898152602090208a5b868110156200125557815484820152908501908e016200123a565b83019750505b5050509c89019c92975050509190910190600101620011b8565b509298975050505050505050565b6001600160a01b03881681526101206020820181905260049082015263141bdbdb60e21b61014082015261016060408201819052600090620012d881840160048152636c656e7360e01b602082015260400190565b90508281036060840152620012ee818a62001126565b9050828103608084015262001304818962001196565b905082810360a08401526200131a818862001196565b905082810360c084015262001330818762001196565b905082810360e084015262001346818662001196565b90508281036101008401526200135d818562001196565b9a9950505050505050505050565b60006000198214156200138e57634e487b7160e01b600052601160045260246000fd5b5060010190565b805480835260008281526020808220940193909190825b82601f820110156200163657815460ff808216151588526020620013d8818a01838560081c1615159052565b6040620013ed818b01848660101c1615159052565b606062001402818c01858760181c1615159052565b608062001416818d018688871c1615159052565b60a093506200142d848d01868860281c1615159052565b60c062001442818e01878960301c1615159052565b60e062001457818f01888a60381c1615159052565b87851c871615156101008f0152620014796101208f01888a60481c1615159052565b6200148e6101408f01888a60501c1615159052565b620014a36101608f01888a60581c1615159052565b87841c871615156101808f0152620014c56101a08f01888a60681c1615159052565b620014da6101c08f01888a60701c1615159052565b620014ef6101e08f01888a60781c1615159052565b87831c871615156102008f0152620015116102208f01888a60881c1615159052565b620015266102408f01888a60901c1615159052565b6200153b6102608f01888a60981c1615159052565b87861c871615156102808f01526200155d6102a08f01888a60a81c1615159052565b620015726102c08f01888a60b01c1615159052565b620015876102e08f01888a60b81c1615159052565b87821c871615156103008f0152620015a96103208f01888a60c81c1615159052565b620015be6103408f01888a60d01c1615159052565b620015d36103608f01888a60d81c1615159052565b87901c861615156103808e0152505050505060e882901c811615156103a0890152620016096103c08901828460f01c1615159052565b506200161d6103e088018260f81c15159052565b50610400959095019460019190910190602001620013ac565b90549082811015620016545760ff8216151586526020909501946001015b828110156200167a576200166f8660ff8460081c1615159052565b602095909501946001015b82811015620016a057620016958660ff8460101c1615159052565b602095909501946001015b82811015620016c657620016bb8660ff8460181c1615159052565b602095909501946001015b82811015620016ec57620016e18660ff8460201c1615159052565b602095909501946001015b828110156200171257620017078660ff8460281c1615159052565b602095909501946001015b8281101562001738576200172d8660ff8460301c1615159052565b602095909501946001015b828110156200175e57620017538660ff8460381c1615159052565b602095909501946001015b828110156200178457620017798660ff8460401c1615159052565b602095909501946001015b82811015620017aa576200179f8660ff8460481c1615159052565b602095909501946001015b82811015620017d057620017c58660ff8460501c1615159052565b602095909501946001015b82811015620017f657620017eb8660ff8460581c1615159052565b602095909501946001015b828110156200181c57620018118660ff8460601c1615159052565b602095909501946001015b828110156200184257620018378660ff8460681c1615159052565b602095909501946001015b8281101562001868576200185d8660ff8460701c1615159052565b602095909501946001015b828110156200188e57620018838660ff8460781c1615159052565b602095909501946001015b82811015620018b457620018a98660ff8460801c1615159052565b602095909501946001015b82811015620018da57620018cf8660ff8460881c1615159052565b602095909501946001015b828110156200190057620018f58660ff8460901c1615159052565b602095909501946001015b8281101562001926576200191b8660ff8460981c1615159052565b602095909501946001015b828110156200194c57620019418660ff8460a01c1615159052565b602095909501946001015b828110156200197257620019678660ff8460a81c1615159052565b602095909501946001015b8281101562001998576200198d8660ff8460b01c1615159052565b602095909501946001015b82811015620019be57620019b38660ff8460b81c1615159052565b602095909501946001015b82811015620019e457620019d98660ff8460c01c1615159052565b602095909501946001015b8281101562001a0a57620019ff8660ff8460c81c1615159052565b602095909501946001015b8281101562001a305762001a258660ff8460d01c1615159052565b602095909501946001015b8281101562001a565762001a4b8660ff8460d81c1615159052565b602095909501946001015b8281101562001a7c5762001a718660ff8460e01c1615159052565b602095909501946001015b8281101562001aa25762001a978660ff8460e81c1615159052565b602095909501946001015b8281101562001ac85762001abd8660ff8460f01c1615159052565b602095909501946001015b8281101562001ae75762001ae0868360f81c15159052565b6020860195505b5093949350505050565b60808152600062001b06608083018762001126565b828103602084015262001b1a818762001126565b9050828103604084015262001b30818662001395565b9050828103606084015262001b46818562001395565b979650505050505050565b60608152600062001b66606083018662001126565b828103602084015262001b7a818662001126565b9050828103604084015262001b90818562001395565b9695505050505050565b60e08152600062001baf60e083018a62000f5f565b6001600160a01b038981166020850152838203604085015262001bd3828a62000f5f565b97151560608501526080840196909652505060a081019290925290911660c0909101529392505050565b6000806040838503121562001c1157600080fd5b82519150602083015162001c258162000d0f565b80915050925092905056fe608060405234801561001057600080fd5b506040516106b53803806106b583398101604081905261002f91610145565b600083905561004982846100b6602090811b6101a717901c565b600281905550610068600054826100b660201b6101a71790919060201c565b60018190556002546040517ff35fa19c15e9ba782633a5df62a98b20217151addc68e3ff2cd623a48d37ec27926100a6928252602082015260400190565b60405180910390a15050506101ea565b60006100fe83836040518060400160405280601a81526020017f536166654d6174683a206469766973696f6e206279207a65726f00000000000081525061010560201b60201c565b9392505050565b6000818361012f5760405162461bcd60e51b81526004016101269190610173565b60405180910390fd5b50600061013c84866101c8565b95945050505050565b60008060006060848603121561015a57600080fd5b8351925060208401519150604084015190509250925092565b600060208083528351808285015260005b818110156101a057858101830151858201604001528201610184565b818111156101b2576000604083870101525b50601f01601f1916929092016040019392505050565b6000826101e557634e487b7160e01b600052601260045260246000fd5b500490565b6104bc806101f96000396000f3fe608060405234801561001057600080fd5b506004361061007d5760003560e01c80638726bb891161005b5780638726bb89146100d7578063a385fb96146100e0578063b8168816146100e9578063f14039de146100fc57600080fd5b806315f24053146100825780632191f92a146100a85780636e71e2d8146100c0575b600080fd5b610095610090366004610376565b610105565b6040519081526020015b60405180910390f35b6100b0600181565b604051901515815260200161009f565b6100956100ce366004610376565b60009392505050565b61009560015481565b61009560005481565b6100956100f73660046103a2565b610144565b61009560025481565b60008061013b600254610135670de0b6b3a764000061012f600154866101f290919063ffffffff16565b906101a7565b90610276565b95945050505050565b600080610159670de0b6b3a7640000846102d5565b90506000610168878787610105565b90506000610182670de0b6b3a764000061012f84866101f2565b905061019b670de0b6b3a764000061012f6000846101f2565b98975050505050505050565b60006101e983836040518060400160405280601a81526020017f536166654d6174683a206469766973696f6e206279207a65726f000000000000815250610317565b90505b92915050565b600082610201575060006101ec565b600061020d83856103ea565b90508261021a8583610409565b146101e95760405162461bcd60e51b815260206004820152602160248201527f536166654d6174683a206d756c7469706c69636174696f6e206f766572666c6f6044820152607760f81b60648201526084015b60405180910390fd5b600080610283838561042b565b9050838110156101e95760405162461bcd60e51b815260206004820152601b60248201527f536166654d6174683a206164646974696f6e206f766572666c6f770000000000604482015260640161026d565b60006101e983836040518060400160405280601f81526020017f536166654d6174683a207375627472616374696f6e20756e646572666c6f7700815250610345565b600081836103385760405162461bcd60e51b815260040161026d9190610443565b50600061013b8486610409565b600081848411156103695760405162461bcd60e51b815260040161026d9190610443565b50600061013b8486610498565b60008060006060848603121561038b57600080fd5b505081359360208301359350604090920135919050565b600080600080608085870312156103b857600080fd5b5050823594602084013594506040840135936060013592509050565b634e487b7160e01b600052601160045260246000fd5b6000816000190483118215151615610404576104046103d4565b500290565b60008261042657634e487b7160e01b600052601260045260246000fd5b500490565b6000821982111561043e5761043e6103d4565b500190565b600060208083528351808285015260005b8181101561047057858101830151858201604001528201610454565b81811115610482576000604083870101525b50601f01601f1916929092016040019392505050565b6000828210156104aa576104aa6103d4565b50039056fea164736f6c634300080a000a60806040526067805461ffff60a01b191661010160a01b17905534801561002557600080fd5b50613bbf806100356000396000f3fe6080604052600436106200027b5760003560e01c8063930d24381162000153578063c5232b4711620000c5578063e35a48011162000084578063e35a480114620007fc578063e9c714f21462000821578063f2fde38b1462000839578063f851a440146200085e578063fdb25fb11462000880578063fe4b84df146200089857600080fd5b8063c5232b471462000754578063d64517b21462000785578063dcfbc0c714620007aa578063dd86fea114620007cc578063dfcb48bd14620007e457600080fd5b8063b01b86fd1162000112578063b01b86fd146200067e578063b71d1a0c14620006a3578063bb82aa5e14620006c8578063bbcdd6d314620006ea578063c11cd440146200070f57600080fd5b8063930d243814620005b85780639b86a9b514620005dd5780639c7be70814620006025780639d244f9f146200061a578063a430e617146200065957600080fd5b80633465b6e111620001ed57806384651d7311620001ac57806384651d7314620005025780638754e4fd14620005295780638abe0b75146200054e5780638d3bb8ef14620005735780638da5cb5b146200059857600080fd5b80633465b6e1146200043657806345cc9705146200045b578063715018a6146200048057806371cd40e6146200049857806375365b8714620004dd57600080fd5b8063183a3f72116200023a578063183a3f7214620003825780632678224714620003a75780632acbff3914620003c95780632f1069ba14620003ee5780632f876d32146200041157600080fd5b806301758fc214620002885780630284db7614620002af57806306bc461114620002ee5780630a755ec2146200031357806315761d51146200034757600080fd5b366200028357005b600080fd5b3480156200029557600080fd5b50620002ad620002a7366004620026e3565b620008bd565b005b348015620002bc57600080fd5b50620002d4620002ce366004620027ca565b62000ae2565b604051620002e5939291906200284b565b60405180910390f35b348015620002fb57600080fd5b50620002ad6200030d36600462002882565b62000ba5565b3480156200032057600080fd5b506067546200033690600160a81b900460ff1681565b6040519015158152602001620002e5565b3480156200035457600080fd5b5060655462000369906001600160a01b031681565b6040516001600160a01b039091168152602001620002e5565b3480156200038f57600080fd5b50620002d4620003a1366004620027ca565b62000c19565b348015620003b457600080fd5b5060675462000369906001600160a01b031681565b348015620003d657600080fd5b50620002ad620003e8366004620028b1565b62000c53565b348015620003fb57600080fd5b506067546200033690600160a01b900460ff1681565b3480156200041e57600080fd5b50620002ad6200043036600462002924565b62000dbe565b3480156200044357600080fd5b50620002ad62000455366004620027ca565b62000df9565b3480156200046857600080fd5b50620002d46200047a366004620027ca565b62001036565b3480156200048d57600080fd5b50620002ad6200115e565b348015620004a557600080fd5b5062000336620004b736600462002960565b606f60209081526000938452604080852082529284528284209052825290205460ff1681565b348015620004ea57600080fd5b50620002ad620004fc366004620029f7565b62001199565b3480156200050f57600080fd5b506200051a606a5481565b604051908152602001620002e5565b3480156200053657600080fd5b50620003696200054836600462002a7d565b62001287565b3480156200055b57600080fd5b50620002d46200056d366004620027ca565b620013bc565b3480156200058057600080fd5b50620002ad6200059236600462002ac3565b6200141c565b348015620005a557600080fd5b506033546001600160a01b031662000369565b348015620005c557600080fd5b50620002ad620005d736600462002b67565b620015e0565b348015620005ea57600080fd5b5062000369620005fc36600462002a7d565b6200163b565b3480156200060f57600080fd5b506200051a606c5481565b3480156200062757600080fd5b50620003366200063936600462002b67565b606e60209081526000928352604080842090915290825290205460ff1681565b3480156200066657600080fd5b50620002ad62000678366004620029f7565b62001766565b3480156200068b57600080fd5b50620002ad6200069d36600462002ba5565b6200184a565b348015620006b057600080fd5b506200051a620006c2366004620027ca565b6200193a565b348015620006d557600080fd5b5060685462000369906001600160a01b031681565b348015620006f757600080fd5b506200036962000709366004620027ca565b620019c6565b3480156200071c57600080fd5b50620003366200072e36600462002960565b607060209081526000938452604080852082529284528284209052825290205460ff1681565b3480156200076157600080fd5b506200051a62000773366004620027ca565b60746020526000908152604090205481565b3480156200079257600080fd5b50620002ad620007a4366004620026e3565b62001a0e565b348015620007b757600080fd5b5060695462000369906001600160a01b031681565b348015620007d957600080fd5b506200051a62001c1f565b348015620007f157600080fd5b506200051a606d5481565b3480156200080957600080fd5b50620002ad6200081b36600462002c0c565b62001d20565b3480156200082e57600080fd5b506200051a62001d7d565b3480156200084657600080fd5b50620002ad62000858366004620027ca565b62001e60565b3480156200086b57600080fd5b5060665462000369906001600160a01b031681565b3480156200088d57600080fd5b506200051a606b5481565b348015620008a557600080fd5b50620002ad620008b736600462002c0c565b62001eff565b6033546001600160a01b03163314620008f35760405162461bcd60e51b8152600401620008ea9062002c26565b60405180910390fd5b84158015906200090257508487145b80156200090e57508483145b80156200091a57508481145b6200099d5760405162461bcd60e51b815260206004820152604660248201527f4e6f2043457263323044656c656761746520696d706c656d656e746174696f6e60448201527f7320737570706c696564206f72206172726179206c656e67746873206e6f742060648201526532b8bab0b61760d11b608482015260a401620008ea565b60005b8581101562000ad757828282818110620009be57620009be62002c5b565b9050602002016020810190620009d5919062002c71565b606f60008b8b85818110620009ee57620009ee62002c5b565b905060200201602081019062000a059190620027ca565b6001600160a01b03166001600160a01b03168152602001908152602001600020600089898581811062000a3c5762000a3c62002c5b565b905060200201602081019062000a539190620027ca565b6001600160a01b03166001600160a01b03168152602001908152602001600020600087878581811062000a8a5762000a8a62002c5b565b905060200201602081019062000aa1919062002c71565b151581526020810191909152604001600020805460ff19169115159190911790558062000ace8162002c91565b915050620009a0565b505050505050505050565b607360205260009081526040902080546001820180546001600160a01b03831693600160a01b90930460ff1692919062000b1c9062002cbb565b80601f016020809104026020016040519081016040528092919081815260200182805462000b4a9062002cbb565b801562000b9b5780601f1062000b6f5761010080835404028352916020019162000b9b565b820191906000526020600020905b81548152906001019060200180831162000b7d57829003601f168201915b5050505050905083565b6033546001600160a01b0316331462000bd25760405162461bcd60e51b8152600401620008ea9062002c26565b670de0b6b3a764000081131562000bfd5760405162461bcd60e51b8152600401620008ea9062002cf8565b6001600160a01b03909116600090815260746020526040902055565b607260205260009081526040902080546001820180546001600160a01b03831693600160a01b90930460ff1692919062000b1c9062002cbb565b6033546001600160a01b0316331462000c805760405162461bcd60e51b8152600401620008ea9062002c26565b821580159062000c8f57508281145b62000cf55760405162461bcd60e51b815260206004820152602f60248201527f4172726179206c656e67746873206d75737420626520657175616c20616e642060448201526e33b932b0ba32b9103a3430b710181760891b6064820152608401620008ea565b60005b8381101562000db75762000da183838381811062000d1a5762000d1a62002c5b565b905060200281019062000d2e919062002d43565b8080601f01602080910402602001604051908101604052809392919081815260200183838082843760009201919091525089925088915085905081811062000d7a5762000d7a62002c5b565b905060200201602081019062000d919190620027ca565b6001600160a01b03169062001fb6565b508062000dae8162002c91565b91505062000cf8565b5050505050565b6033546001600160a01b0316331462000deb5760405162461bcd60e51b8152600401620008ea9062002c26565b606b92909255606c55606d55565b6001600160a01b03811662000f3657478062000e625760405162461bcd60e51b815260206004820152602160248201527f4e6f2062616c616e636520617661696c61626c6520746f2077697468647261776044820152601760f91b6064820152608401620008ea565b600062000e776033546001600160a01b031690565b6001600160a01b03168260405160006040518083038185875af1925050503d806000811462000ec3576040519150601f19603f3d011682016040523d82523d6000602084013e62000ec8565b606091505b505090508062000f315760405162461bcd60e51b815260206004820152602d60248201527f4661696c656420746f207472616e73666572204554482062616c616e6365207460448201526c379036b9b39739b2b73232b91760991b6064820152608401620008ea565b505050565b6040516370a0823160e01b815230600482015281906000906001600160a01b038316906370a0823190602401602060405180830381865afa15801562000f80573d6000803e3d6000fd5b505050506040513d601f19601f8201168201806040525081019062000fa6919062002d8d565b9050600081116200100a5760405162461bcd60e51b815260206004820152602760248201527f4e6f20746f6b656e2062616c616e636520617661696c61626c6520746f2077696044820152663a34323930bb9760c91b6064820152608401620008ea565b62000f31620010216033546001600160a01b031690565b6001600160a01b038416908362001ffa565b50565b6001600160a01b03818116600090815260726020908152604080832081516060808201845282549687168252600160a01b90960460ff16151593810193909352600181018054949586959094869490939290840191620010969062002cbb565b80601f0160208091040260200160405190810160405280929190818152602001828054620010c49062002cbb565b8015620011155780601f10620010e95761010080835404028352916020019162001115565b820191906000526020600020905b815481529060010190602001808311620010f757829003601f168201915b50505091909252505081519192506060916001600160a01b0316151590506200114257856000826200114f565b8151602083015160408401515b94509450945050509193909250565b6033546001600160a01b031633146200118b5760405162461bcd60e51b8152600401620008ea9062002c26565b6200119760006200204e565b565b6033546001600160a01b03163314620011c65760405162461bcd60e51b8152600401620008ea9062002c26565b6040518060600160405280856001600160a01b03168152602001841515815260200183838080601f01602080910402602001604051908101604052809392919081815260200183838082843760009201829052509390945250506001600160a01b0380891682526072602090815260409283902085518154878401511515600160a01b026001600160a81b031990911691909416179290921782559184015180519193506200127d926001850192910190620025d2565b5050505050505050565b600080806200129a604082868862002da7565b810190620012a9919062002b67565b90925090506001600160a01b0381163314620013085760405162461bcd60e51b815260206004820152601a60248201527f436f6d7074726f6c6c6572206973206e6f742073656e6465722e0000000000006044820152606401620008ea565b6040516bffffffffffffffffffffffff1933606090811b8216602084015284901b166034820152436048820152600090606801604051602081830303815290604052805190602001209050600060405180602001620013679062002661565b601f1982820381018352601f9091011660408190526200138f91908990899060200162002dd3565b60405160208183030381529060405290506000620013b060008484620020a0565b98975050505050505050565b6001600160a01b03818116600090815260736020908152604080832081516060808201845282549687168252600160a01b90960460ff16151593810193909352600181018054949586959094869490939290840191620010969062002cbb565b6033546001600160a01b03163314620014495760405162461bcd60e51b8152600401620008ea9062002c26565b82158015906200145857508285145b80156200146457508281145b620014e45760405162461bcd60e51b815260206004820152604360248201527f4e6f20436f6d7074726f6c6c657220696d706c656d656e746174696f6e73207360448201527f7570706c696564206f72206172726179206c656e67746873206e6f742065717560648201526230b61760e91b608482015260a401620008ea565b60005b83811015620015d75782828281811062001505576200150562002c5b565b90506020020160208101906200151c919062002c71565b606e600089898581811062001535576200153562002c5b565b90506020020160208101906200154c9190620027ca565b6001600160a01b03166001600160a01b03168152602001908152602001600020600087878581811062001583576200158362002c5b565b90506020020160208101906200159a9190620027ca565b6001600160a01b031681526020810191909152604001600020805460ff191691151591909117905580620015ce8162002c91565b915050620014e7565b50505050505050565b6033546001600160a01b031633146200160d5760405162461bcd60e51b8152600401620008ea9062002c26565b6001600160a01b03918216600090815260716020526040902080546001600160a01b03191691909216179055565b6000806200164d602082858762002da7565b8101906200165c9190620027ca565b90506001600160a01b0381163314620016b85760405162461bcd60e51b815260206004820152601a60248201527f436f6d7074726f6c6c6572206973206e6f742073656e6465722e0000000000006044820152606401620008ea565b6040516bffffffffffffffffffffffff193360601b1660208201526000603482018190524360488301529060680160405160208183030381529060405280519060200120905060006040518060200162001712906200266f565b601f1982820381018352601f9091011660408190526200173a91908890889060200162002dd3565b604051602081830303815290604052905060006200175b60008484620020a0565b979650505050505050565b6033546001600160a01b03163314620017935760405162461bcd60e51b8152600401620008ea9062002c26565b6040518060600160405280856001600160a01b03168152602001841515815260200183838080601f01602080910402602001604051908101604052809392919081815260200183838082843760009201829052509390945250506001600160a01b0380891682526073602090815260409283902085518154878401511515600160a01b026001600160a81b031990911691909416179290921782559184015180519193506200127d926001850192910190620025d2565b6033546001600160a01b03163314620018775760405162461bcd60e51b8152600401620008ea9062002c26565b82620018c65760405162461bcd60e51b815260206004820152601e60248201527f4e6f2074617267657420616464726573736573207370656369666965642e00006044820152606401620008ea565b60005b8381101562000db7576200192483838080601f01602080910402602001604051908101604052809392919081815260200183838082843760009201919091525089925088915085905081811062000d7a5762000d7a62002c5b565b5080620019318162002c91565b915050620018c9565b600062001946620021b0565b6200195f57620019596001601062002205565b92915050565b606780546001600160a01b038481166001600160a01b031983168117909355604080519190921680825260208201939093527fca4f2f25d0898edd99413412fb94012f9e54ec8142f9b093e7720646a95b16a9910160405180910390a160005b9392505050565b6001600160a01b03818116600090815260716020526040812054909116620019ef578162001959565b506001600160a01b039081166000908152607160205260409020541690565b6033546001600160a01b0316331462001a3b5760405162461bcd60e51b8152600401620008ea9062002c26565b841580159062001a4a57508487145b801562001a5657508483145b801562001a6257508481145b62001ae55760405162461bcd60e51b815260206004820152604660248201527f4e6f2043457468657244656c656761746520696d706c656d656e746174696f6e60448201527f7320737570706c696564206f72206172726179206c656e67746873206e6f742060648201526532b8bab0b61760d11b608482015260a401620008ea565b60005b8581101562000ad75782828281811062001b065762001b0662002c5b565b905060200201602081019062001b1d919062002c71565b607060008b8b8581811062001b365762001b3662002c5b565b905060200201602081019062001b4d9190620027ca565b6001600160a01b03166001600160a01b03168152602001908152602001600020600089898581811062001b845762001b8462002c5b565b905060200201602081019062001b9b9190620027ca565b6001600160a01b03166001600160a01b03168152602001908152602001600020600087878581811062001bd25762001bd262002c5b565b905060200201602081019062001be9919062002c71565b151581526020810191909152604001600020805460ff19169115159190911790558062001c168162002c91565b91505062001ae8565b60408051600481526024810182526020810180516001600160e01b0316635fe3b56760e01b179052905160009182918291339162001c5e919062002e13565b600060405180830381855afa9150503d806000811462001c9b576040519150601f19603f3d011682016040523d82523d6000602084013e62001ca0565b606091505b509150915081801562001cb4575080516020145b1562001d165760008180602001905181019062001cd2919062002e31565b6001600160a01b03811660009081526074602052604081205491925081131562001cfe57949350505050565b600081121562001d1357600094505050505090565b50505b606a549250505090565b6033546001600160a01b0316331462001d4d5760405162461bcd60e51b8152600401620008ea9062002c26565b670de0b6b3a764000081111562001d785760405162461bcd60e51b8152600401620008ea9062002cf8565b606a55565b6067546000906001600160a01b0316331462001da65762001da16001600062002205565b905090565b60668054606780546001600160a01b038082166001600160a01b031980861682179096559490911690915560408051919092168082526020820184905292917ff9ffabca9c8276e99321725bcb43fb076a6c66a54b7f21c4e8146d8519b417dc910160405180910390a1606754604080516001600160a01b03808516825290921660208301527fca4f2f25d0898edd99413412fb94012f9e54ec8142f9b093e7720646a95b16a9910160405180910390a160009250505090565b6033546001600160a01b0316331462001e8d5760405162461bcd60e51b8152600401620008ea9062002c26565b6001600160a01b03811662001ef45760405162461bcd60e51b815260206004820152602660248201527f4f776e61626c653a206e6577206f776e657220697320746865207a65726f206160448201526564647265737360d01b6064820152608401620008ea565b62001033816200204e565b600062001f0d600162002287565b9050801562001f26576000805461ff0019166101001790555b670de0b6b3a764000082111562001f515760405162461bcd60e51b8152600401620008ea9062002cf8565b62001f5b62002317565b606a829055600019606c819055606d55801562001fb2576000805461ff0019169055604051600181527f7f26b83ff96e1f2b6a682f133852f6798a09c465da95921460cefb38474024989060200160405180910390a15b5050565b6060620019bf83836040518060400160405280601e81526020017f416464726573733a206c6f772d6c6576656c2063616c6c206661696c656400008152506200234b565b604080516001600160a01b038416602482015260448082018490528251808303909101815260649091019091526020810180516001600160e01b031663a9059cbb60e01b17905262000f319084906200235c565b603380546001600160a01b038381166001600160a01b0319831681179093556040519116919082907f8be0079c531659141344cd1fd0a4f28419497f9722a3daafe3b4186f6b6457e090600090a35050565b60008084471015620020f55760405162461bcd60e51b815260206004820152601d60248201527f437265617465323a20696e73756666696369656e742062616c616e63650000006044820152606401620008ea565b8251620021455760405162461bcd60e51b815260206004820181905260248201527f437265617465323a2062797465636f6465206c656e677468206973207a65726f6044820152606401620008ea565b8383516020850187f590506001600160a01b038116620021a85760405162461bcd60e51b815260206004820152601960248201527f437265617465323a204661696c6564206f6e206465706c6f79000000000000006044820152606401620008ea565b949350505050565b6066546000906001600160a01b031633148015620021d75750606754600160a81b900460ff165b8062001da157506065546001600160a01b03163314801562001da1575050606754600160a01b900460ff1690565b60007f45b96fe442630264581b197e84bbada861235052c5a1aadfff9ea4e40a969aa08360158111156200223d576200223d62002dfd565b83601b81111562002252576200225262002dfd565b60408051928352602083019190915260009082015260600160405180910390a1826015811115620019bf57620019bf62002dfd565b60008054610100900460ff1615620022d3578160ff166001148015620022ac5750303b155b620022cb5760405162461bcd60e51b8152600401620008ea9062002e51565b506000919050565b60005460ff808416911610620022fd5760405162461bcd60e51b8152600401620008ea9062002e51565b506000805460ff191660ff92909216919091179055600190565b600054610100900460ff16620023415760405162461bcd60e51b8152600401620008ea9062002e9f565b6200119762002435565b6060620021a884846000856200246a565b6000620023b3826040518060400160405280602081526020017f5361666545524332303a206c6f772d6c6576656c2063616c6c206661696c6564815250856001600160a01b03166200234b9092919063ffffffff16565b80519091501562000f315780806020019051810190620023d4919062002eea565b62000f315760405162461bcd60e51b815260206004820152602a60248201527f5361666545524332303a204552433230206f7065726174696f6e20646964206e6044820152691bdd081cdd58d8d9595960b21b6064820152608401620008ea565b600054610100900460ff166200245f5760405162461bcd60e51b8152600401620008ea9062002e9f565b62001197336200204e565b606082471015620024cd5760405162461bcd60e51b815260206004820152602660248201527f416464726573733a20696e73756666696369656e742062616c616e636520666f6044820152651c8818d85b1b60d21b6064820152608401620008ea565b6001600160a01b0385163b620025265760405162461bcd60e51b815260206004820152601d60248201527f416464726573733a2063616c6c20746f206e6f6e2d636f6e74726163740000006044820152606401620008ea565b600080866001600160a01b0316858760405162002544919062002e13565b60006040518083038185875af1925050503d806000811462002583576040519150601f19603f3d011682016040523d82523d6000602084013e62002588565b606091505b50915091506200175b82828660608315620025a5575081620019bf565b825115620025b65782518084602001fd5b8160405162461bcd60e51b8152600401620008ea919062002f0a565b828054620025e09062002cbb565b90600052602060002090601f0160209004810192826200260457600085556200264f565b82601f106200261f57805160ff19168380011785556200264f565b828001600101855582156200264f579182015b828111156200264f57825182559160200191906001019062002632565b506200265d9291506200267d565b5090565b6106968062002f2083390190565b6105fd80620035b683390190565b5b808211156200265d57600081556001016200267e565b60008083601f840112620026a757600080fd5b50813567ffffffffffffffff811115620026c057600080fd5b6020830191508360208260051b8501011115620026dc57600080fd5b9250929050565b6000806000806000806000806080898b0312156200270057600080fd5b883567ffffffffffffffff808211156200271957600080fd5b620027278c838d0162002694565b909a50985060208b01359150808211156200274157600080fd5b6200274f8c838d0162002694565b909850965060408b01359150808211156200276957600080fd5b620027778c838d0162002694565b909650945060608b01359150808211156200279157600080fd5b50620027a08b828c0162002694565b999c989b5096995094979396929594505050565b6001600160a01b03811681146200103357600080fd5b600060208284031215620027dd57600080fd5b8135620019bf81620027b4565b60005b8381101562002807578181015183820152602001620027ed565b8381111562002817576000848401525b50505050565b6000815180845262002837816020860160208601620027ea565b601f01601f19169290920160200192915050565b6001600160a01b0384168152821515602082015260606040820181905260009062002879908301846200281d565b95945050505050565b600080604083850312156200289657600080fd5b8235620028a381620027b4565b946020939093013593505050565b60008060008060408587031215620028c857600080fd5b843567ffffffffffffffff80821115620028e157600080fd5b620028ef8883890162002694565b909650945060208701359150808211156200290957600080fd5b50620029188782880162002694565b95989497509550505050565b6000806000606084860312156200293a57600080fd5b505081359360208301359350604090920135919050565b80151581146200103357600080fd5b6000806000606084860312156200297657600080fd5b83356200298381620027b4565b925060208401356200299581620027b4565b91506040840135620029a78162002951565b809150509250925092565b60008083601f840112620029c557600080fd5b50813567ffffffffffffffff811115620029de57600080fd5b602083019150836020828501011115620026dc57600080fd5b60008060008060006080868803121562002a1057600080fd5b853562002a1d81620027b4565b9450602086013562002a2f81620027b4565b9350604086013562002a418162002951565b9250606086013567ffffffffffffffff81111562002a5e57600080fd5b62002a6c88828901620029b2565b969995985093965092949392505050565b6000806020838503121562002a9157600080fd5b823567ffffffffffffffff81111562002aa957600080fd5b62002ab785828601620029b2565b90969095509350505050565b6000806000806000806060878903121562002add57600080fd5b863567ffffffffffffffff8082111562002af657600080fd5b62002b048a838b0162002694565b9098509650602089013591508082111562002b1e57600080fd5b62002b2c8a838b0162002694565b9096509450604089013591508082111562002b4657600080fd5b5062002b5589828a0162002694565b979a9699509497509295939492505050565b6000806040838503121562002b7b57600080fd5b823562002b8881620027b4565b9150602083013562002b9a81620027b4565b809150509250929050565b6000806000806040858703121562002bbc57600080fd5b843567ffffffffffffffff8082111562002bd557600080fd5b62002be38883890162002694565b9096509450602087013591508082111562002bfd57600080fd5b506200291887828801620029b2565b60006020828403121562002c1f57600080fd5b5035919050565b6020808252818101527f4f776e61626c653a2063616c6c6572206973206e6f7420746865206f776e6572604082015260600190565b634e487b7160e01b600052603260045260246000fd5b60006020828403121562002c8457600080fd5b8135620019bf8162002951565b600060001982141562002cb457634e487b7160e01b600052601160045260246000fd5b5060010190565b600181811c9082168062002cd057607f821691505b6020821081141562002cf257634e487b7160e01b600052602260045260246000fd5b50919050565b6020808252602b908201527f496e7465726573742066656520726174652063616e6e6f74206265206d6f726560408201526a103a3430b710189818129760a91b606082015260800190565b6000808335601e1984360301811262002d5b57600080fd5b83018035915067ffffffffffffffff82111562002d7757600080fd5b602001915036819003821315620026dc57600080fd5b60006020828403121562002da057600080fd5b5051919050565b6000808585111562002db857600080fd5b8386111562002dc657600080fd5b5050820193919092039150565b6000845162002de7818460208901620027ea565b8201838582376000930192835250909392505050565b634e487b7160e01b600052602160045260246000fd5b6000825162002e27818460208701620027ea565b9190910192915050565b60006020828403121562002e4457600080fd5b8151620019bf81620027b4565b6020808252602e908201527f496e697469616c697a61626c653a20636f6e747261637420697320616c72656160408201526d191e481a5b9a5d1a585b1a5e995960921b606082015260800190565b6020808252602b908201527f496e697469616c697a61626c653a20636f6e7472616374206973206e6f74206960408201526a6e697469616c697a696e6760a81b606082015260800190565b60006020828403121562002efd57600080fd5b8151620019bf8162002951565b602081526000620019bf60208301846200281d56fe608060405234801561001057600080fd5b5060405161069638038061069683398101604081905261002f91610246565b610085848b8b8b8b8b8b8989604051602401610052989796959493929190610363565b60408051601f198184030181529190526020810180516001600160e01b039081166306db3ecd60e01b179091526100e316565b506100d384856000866040516024016100a0939291906103cc565b60408051601f198184030181529190526020810180516001600160e01b039081166350d85b7360e01b179091526100e316565b505050505050505050505061041d565b6060600080846001600160a01b0316846040516101009190610401565b600060405180830381855af49150503d806000811461013b576040519150601f19603f3d011682016040523d82523d6000602084013e610140565b606091505b50915091506000821415610155573d60208201fd5b949350505050565b80516001600160a01b038116811461017457600080fd5b919050565b634e487b7160e01b600052604160045260246000fd5b60005b838110156101aa578181015183820152602001610192565b838111156101b9576000848401525b50505050565b600082601f8301126101d057600080fd5b81516001600160401b03808211156101ea576101ea610179565b604051601f8301601f19908116603f0116810190828211818310171561021257610212610179565b8160405283815286602085880101111561022b57600080fd5b61023c84602083016020890161018f565b9695505050505050565b6000806000806000806000806000806101408b8d03121561026657600080fd5b61026f8b61015d565b995061027d60208c0161015d565b985061028b60408c0161015d565b975061029960608c0161015d565b60808c01519097506001600160401b03808211156102b657600080fd5b6102c28e838f016101bf565b975060a08d01519150808211156102d857600080fd5b6102e48e838f016101bf565b96506102f260c08e0161015d565b955060e08d015191508082111561030857600080fd5b506103158d828e016101bf565b9350506101008b015191506101208b015190509295989b9194979a5092959850565b6000815180845261034f81602086016020860161018f565b601f01601f19169290920160200192915050565b6001600160a01b0389811682528881166020830152878116604083015286166060820152610100608082018190526000906103a083820188610337565b905082810360a08401526103b48187610337565b60c0840195909552505060e001529695505050505050565b6001600160a01b038416815282151560208201526060604082018190526000906103f890830184610337565b95945050505050565b6000825161041381846020870161018f565b9190910192915050565b61026a8061042c6000396000f3fe6080604052600436106100225760003560e01c80635c60da1b1461015c57610029565b3661002957005b34156100a15760405162461bcd60e51b815260206004820152603760248201527f43457263323044656c656761746f723a66616c6c6261636b3a2063616e6e6f7460448201527f2073656e642076616c756520746f2066616c6c6261636b000000000000000000606482015260840160405180910390fd5b6000546040805160048152602481019091526020810180516001600160e01b031663076de25160e21b1790526100e0916001600160a01b031690610198565b50600080546040516001600160a01b03909116906101019083903690610212565b600060405180830381855af49150503d806000811461013c576040519150601f19603f3d011682016040523d82523d6000602084013e610141565b606091505b505090506040513d6000823e818015610158573d82f35b3d82fd5b34801561016857600080fd5b5060005461017c906001600160a01b031681565b6040516001600160a01b03909116815260200160405180910390f35b6060600080846001600160a01b0316846040516101b59190610222565b600060405180830381855af49150503d80600081146101f0576040519150601f19603f3d011682016040523d82523d6000602084013e6101f5565b606091505b5091509150600082141561020a573d60208201fd5b949350505050565b8183823760009101908152919050565b6000825160005b818110156102435760208186018101518583015201610229565b81811115610252576000828501525b50919091019291505056fea164736f6c634300080a000a608060405234801561001057600080fd5b506040516105fd3803806105fd83398101604081905261002f91610243565b610083848a8a8a8a8a8888604051602401610050979695949392919061034e565b60408051601f198184030181529190526020810180516001600160e01b0390811663a0b0d28960e01b179091526100e016565b506100d1848560008660405160240161009e939291906103ab565b60408051601f198184030181529190526020810180516001600160e01b039081166350d85b7360e01b179091526100e016565b505050505050505050506103fc565b6060600080846001600160a01b0316846040516100fd91906103e0565b600060405180830381855af49150503d8060008114610138576040519150601f19603f3d011682016040523d82523d6000602084013e61013d565b606091505b50915091506000821415610152573d60208201fd5b949350505050565b80516001600160a01b038116811461017157600080fd5b919050565b634e487b7160e01b600052604160045260246000fd5b60005b838110156101a757818101518382015260200161018f565b838111156101b6576000848401525b50505050565b600082601f8301126101cd57600080fd5b81516001600160401b03808211156101e7576101e7610176565b604051601f8301601f19908116603f0116810190828211818310171561020f5761020f610176565b8160405283815286602085880101111561022857600080fd5b61023984602083016020890161018c565b9695505050505050565b60008060008060008060008060006101208a8c03121561026257600080fd5b61026b8a61015a565b985061027960208b0161015a565b975061028760408b0161015a565b60608b01519097506001600160401b03808211156102a457600080fd5b6102b08d838e016101bc565b975060808c01519150808211156102c657600080fd5b6102d28d838e016101bc565b96506102e060a08d0161015a565b955060c08c01519150808211156102f657600080fd5b506103038c828d016101bc565b93505060e08a015191506101008a015190509295985092959850929598565b6000815180845261033a81602086016020860161018c565b601f01601f19169290920160200192915050565b6001600160a01b03888116825287811660208301528616604082015260e06060820181905260009061038290830187610322565b82810360808401526103948187610322565b60a0840195909552505060c0015295945050505050565b6001600160a01b038416815282151560208201526060604082018190526000906103d790830184610322565b95945050505050565b600082516103f281846020870161018c565b9190910192915050565b6101f28061040b6000396000f3fe6080604052600436106100225760003560e01c80635c60da1b146100e457610029565b3661002957005b6000546040805160048152602481019091526020810180516001600160e01b031663076de25160e21b179052610068916001600160a01b031690610120565b50600080546040516001600160a01b0390911690610089908390369061019a565b600060405180830381855af49150503d80600081146100c4576040519150601f19603f3d011682016040523d82523d6000602084013e6100c9565b606091505b505090506040513d6000823e8180156100e0573d82f35b3d82fd5b3480156100f057600080fd5b50600054610104906001600160a01b031681565b6040516001600160a01b03909116815260200160405180910390f35b6060600080846001600160a01b03168460405161013d91906101aa565b600060405180830381855af49150503d8060008114610178576040519150601f19603f3d011682016040523d82523d6000602084013e61017d565b606091505b50915091506000821415610192573d60208201fd5b949350505050565b8183823760009101908152919050565b6000825160005b818110156101cb57602081860181015185830152016101b1565b818111156101da576000828501525b50919091019291505056fea164736f6c634300080a000aa164736f6c634300080a000a60806040526067805461ffff60a01b191661010160a01b17905534801561002557600080fd5b50613dfd806100356000396000f3fe60806040523480156200001157600080fd5b5060043610620001f55760003560e01c806358b896d31162000119578063b71d1a0c11620000af578063dcfbc0c7116200007a578063dcfbc0c714620004fb578063e9c714f2146200050f578063f2fde38b1462000519578063f851a440146200053057600080fd5b8063b71d1a0c1462000491578063b86579d414620004b7578063bb82aa5e14620004ce578063d88ff1f414620004e257600080fd5b8063a155497c11620000f0578063a155497c1462000413578063a3ed91c6146200042a578063a970e76c1462000441578063ac4afa38146200046757600080fd5b806358b896d314620003c2578063715018a614620003f75780638da5cb5b146200040157600080fd5b8063218a3bbe116200018f5780632f1069ba11620001665780632f1069ba146200035757806343e20a1d146200036c5780634a7462ee14620003925780634ae26ea114620003b857600080fd5b8063218a3bbe146200030e57806326782247146200033557806326bb81d7146200034957600080fd5b80630a83d1b011620001d05780630a83d1b0146200028d57806315761d5114620002a45780631e1c6a0714620002d157806320c32bfe14620002f757600080fd5b806304f03c6f14620001fa5780630742197814620002135780630a755ec21462000263575b600080fd5b620002116200020b366004620029a6565b62000544565b005b6200021162000224366004620029e9565b336000908152606f602090815260408220805460018101825590835291200180546001600160a01b0319166001600160a01b0392909216919091179055565b6067546200027890600160a81b900460ff1681565b60405190151581526020015b60405180910390f35b620002116200029e36600462002a09565b6200058d565b606554620002b8906001600160a01b031681565b6040516001600160a01b03909116815260200162000284565b62000278620002e2366004620029e9565b606c6020526000908152604090205460ff1681565b620002116200030836600462002ae2565b620006bc565b620003256200031f366004620029a6565b62000830565b6040516200028492919062002c41565b606754620002b8906001600160a01b031681565b606d54620002789060ff1681565b6067546200027890600160a01b900460ff1681565b620002786200037d366004620029e9565b60706020526000908152604090205460ff1681565b620003a9620003a3366004620029e9565b62000d23565b60405162000284919062002c9c565b6200032562000d9b565b620003d9620003d336600462002d35565b6200114b565b604080519283526001600160a01b0390911660208301520162000284565b62000211620018e7565b6033546001600160a01b0316620002b8565b620002116200042436600462002a09565b62001922565b620003256200043b366004620029e9565b62001a17565b6200027862000452366004620029e9565b606e6020526000908152604090205460ff1681565b6200047e6200047836600462002e49565b62001cf4565b6040516200028495949392919062002e63565b620004a8620004a2366004620029e9565b62001dda565b60405190815260200162000284565b62000211620004c836600462002ea5565b62001e66565b606854620002b8906001600160a01b031681565b620004ec62001f5e565b60405162000284919062002f7b565b606954620002b8906001600160a01b031681565b620004a862002095565b620002116200052a366004620029e9565b62002178565b606654620002b8906001600160a01b031681565b6033546001600160a01b031633146200057a5760405162461bcd60e51b8152600401620005719062002f90565b60405180910390fd5b606d805460ff1916911515919091179055565b6033546001600160a01b03163314620005ba5760405162461bcd60e51b8152600401620005719062002f90565b81620005ff5760405162461bcd60e51b815260206004820152601360248201527227379030b236b4b7399039bab8383634b2b21760691b604482015260640162000571565b60005b828110156200067957816070600086868581811062000625576200062562002fc5565b90506020020160208101906200063c9190620029e9565b6001600160a01b031681526020810191909152604001600020805460ff191691151591909117905580620006708162002ff1565b91505062000602565b507f31b67e6853df85403a8c4f4f46dc53f48f700d6917c8e3ec8c77a0e6fd56793b838383604051620006af939291906200300f565b60405180910390a1505050565b6000606a8481548110620006d457620006d462002fc5565b600091825260209182902060026005909202010154604080516303e1469160e61b815290516001600160a01b039092169350839263f851a440926004808401938290030181865afa1580156200072e573d6000803e3d6000fd5b505050506040513d601f19601f820116820180604052508101906200075491906200306c565b6001600160a01b0316336001600160a01b0316148015620007d55750806001600160a01b0316630a755ec26040518163ffffffff1660e01b8152600401602060405180830381865afa158015620007af573d6000803e3d6000fd5b505050506040513d601f19601f82011682018060405250810190620007d591906200308c565b80620007eb57506033546001600160a01b031633145b620007f557600080fd5b8282606a86815481106200080d576200080d62002fc5565b6000918252602090912062000829936005909202019162002818565b5050505050565b6060806000805b606a54811015620009ae576000606a82815481106200085a576200085a62002fc5565b60009182526020918290206002600590920201015460408051630b09572160e41b815290516001600160a01b039092169350839263b0957210926004808401938290030181865afa925050508015620008d2575060408051601f3d908101601f19168201909252620008cf918101906200308c565b60015b620008dd5762000988565b8015620008ec57505062000999565b816001600160a01b031663f851a4406040518163ffffffff1660e01b8152600401602060405180830381865afa92505050801562000949575060408051601f3d908101601f1916820190925262000946918101906200306c565b60015b620009545762000986565b6001600160a01b03811660009081526070602052604090205460ff16151588151514620009845750505062000999565b505b505b82620009948162002ff1565b935050505b80620009a58162002ff1565b91505062000837565b5060008167ffffffffffffffff811115620009cd57620009cd62002ceb565b604051908082528060200260200182016040528015620009f7578160200160208202803683370190505b50905060008267ffffffffffffffff81111562000a185762000a1862002ceb565b60405190808252806020026020018201604052801562000a5557816020015b62000a41620028a7565b81526020019060019003908162000a375790505b5090506000805b606a5481101562000d16576000606a828154811062000a7f5762000a7f62002fc5565b60009182526020918290206002600590920201015460408051630b09572160e41b815290516001600160a01b039092169350839263b0957210926004808401938290030181865afa92505050801562000af7575060408051601f3d908101601f1916820190925262000af4918101906200308c565b60015b62000b025762000bad565b801562000b1157505062000d01565b816001600160a01b031663f851a4406040518163ffffffff1660e01b8152600401602060405180830381865afa92505050801562000b6e575060408051601f3d908101601f1916820190925262000b6b918101906200306c565b60015b62000b795762000bab565b6001600160a01b03811660009081526070602052604090205460ff1615158b15151462000ba95750505062000d01565b505b505b8185848151811062000bc35762000bc362002fc5565b602002602001018181525050606a828154811062000be55762000be562002fc5565b90600052602060002090600502016040518060a001604052908160008201805462000c1090620030ac565b80601f016020809104026020016040519081016040528092919081815260200182805462000c3e90620030ac565b801562000c8f5780601f1062000c635761010080835404028352916020019162000c8f565b820191906000526020600020905b81548152906001019060200180831162000c7157829003601f168201915b505050918352505060018201546001600160a01b039081166020830152600283015416604082015260038201546060820152600490910154608090910152845185908590811062000ce45762000ce462002fc5565b6020026020010181905250828062000cfc9062002ff1565b935050505b8062000d0d8162002ff1565b91505062000a5c565b5091969095509350505050565b6001600160a01b0381166000908152606f602090815260409182902080548351818402810184019094528084526060939283018282801562000d8f57602002820191906000526020600020905b81546001600160a01b0316815260019091019060200180831162000d70575b50505050509050919050565b6060806000805b606a5481101562000e7857606a818154811062000dc35762000dc362002fc5565b60009182526020918290206002600590920201015460408051630b09572160e41b815290516001600160a01b039092169263b0957210926004808401938290030181865afa92505050801562000e38575060408051601f3d908101601f1916820190925262000e35918101906200308c565b60015b62000e435762000e53565b801562000e51575062000e63565b505b8162000e5f8162002ff1565b9250505b8062000e6f8162002ff1565b91505062000da2565b5060008167ffffffffffffffff81111562000e975762000e9762002ceb565b60405190808252806020026020018201604052801562000ec1578160200160208202803683370190505b50905060008267ffffffffffffffff81111562000ee25762000ee262002ceb565b60405190808252806020026020018201604052801562000f1f57816020015b62000f0b620028a7565b81526020019060019003908162000f015790505b5090506000805b606a548110156200113f57606a818154811062000f475762000f4762002fc5565b60009182526020918290206002600590920201015460408051630b09572160e41b815290516001600160a01b039092169263b0957210926004808401938290030181865afa92505050801562000fbc575060408051601f3d908101601f1916820190925262000fb9918101906200308c565b60015b62000fc75762000fd7565b801562000fd557506200112a565b505b8084838151811062000fed5762000fed62002fc5565b602002602001018181525050606a81815481106200100f576200100f62002fc5565b90600052602060002090600502016040518060a00160405290816000820180546200103a90620030ac565b80601f01602080910402602001604051908101604052809291908181526020018280546200106890620030ac565b8015620010b95780601f106200108d57610100808354040283529160200191620010b9565b820191906000526020600020905b8154815290600101906020018083116200109b57829003601f168201915b505050918352505060018201546001600160a01b03908116602083015260028301541660408201526003820154606082015260049091015460809091015283518490849081106200110e576200110e62002fc5565b60200260200101819052508180620011269062002ff1565b9250505b80620011368162002ff1565b91505062000f26565b50919590945092505050565b6000806001600160a01b038916620011cc5760405162461bcd60e51b815260206004820152603960248201527f4e6f20436f6d7074726f6c6c657220696d706c656d656e746174696f6e20636f60448201527f6e74726163742061646472657373207370656369666965642e00000000000000606482015260840162000571565b6001600160a01b038316620012375760405162461bcd60e51b815260206004820152602a60248201527f4e6f2050726963654f7261636c6520636f6e747261637420616464726573732060448201526939b832b1b4b334b2b21760b11b606482015260840162000571565b6000604051806020016200124b90620028e8565b601f1982820381018352601f9091011660408190526200127391908b908b90602001620030e9565b60405160208183030381529060405290506000620012c06000338e43604051602001620012a39392919062003113565b60405160208183030381529060405280519060200120846200221a565b60405163e992a04160e01b81526001600160a01b038d81166004830152919250829182169063e992a041906024016020604051808303816000875af11580156200130e573d6000803e3d6000fd5b505050506040513d601f19601f8201168201806040525081019062001334919062003154565b156200139f5760405162461bcd60e51b815260206004820152603360248201527f4661696c656420746f207365742070656e64696e6720696d706c656d656e74616044820152723a34b7b71037b7102ab734ba3937b63632b91760691b606482015260840162000571565b604051630ea826e360e11b81526001600160a01b0382811660048301528d9190821690631d504dc690602401600060405180830381600087803b158015620013e657600080fd5b505af1158015620013fb573d6000803e3d6000fd5b505060405163317b0b7760e01b8152600481018c90528592506001600160a01b038316915063317b0b77906024016020604051808303816000875af115801562001449573d6000803e3d6000fd5b505050506040513d601f19601f820116820180604052508101906200146f919062003154565b15620014be5760405162461bcd60e51b815260206004820181905260248201527f4661696c656420746f2073657420706f6f6c20636c6f736520666163746f722e604482015260640162000571565b604051634fd42e1760e01b8152600481018a90526001600160a01b03821690634fd42e17906024016020604051808303816000875af115801562001506573d6000803e3d6000fd5b505050506040513d601f19601f820116820180604052508101906200152c919062003154565b156200158d5760405162461bcd60e51b815260206004820152602960248201527f4661696c656420746f2073657420706f6f6c206c69717569646174696f6e20696044820152683731b2b73a34bb329760b91b606482015260840162000571565b6040516355ee1fe160e01b81526001600160a01b0389811660048301528216906355ee1fe1906024016020604051808303816000875af1158015620015d6573d6000803e3d6000fd5b505050506040513d601f19601f82011682018060405250810190620015fc919062003154565b156200164b5760405162461bcd60e51b815260206004820181905260248201527f4661696c656420746f2073657420706f6f6c207072696365206f7261636c652e604482015260640162000571565b8a156200172657604051634a956fad60e11b8152600160048201526001600160a01b0382169063952adf5a906024016020604051808303816000875af11580156200169a573d6000803e3d6000fd5b505050506040513d601f19601f82011682018060405250810190620016c0919062003154565b15620017265760405162461bcd60e51b815260206004820152602e60248201527f4661696c656420746f20656e666f72636520737570706c6965722f626f72726f60448201526d3bb2b9103bb434ba32b634b9ba1760911b606482015260840162000571565b604051636a9998b360e11b8152600160048201526001600160a01b0382169063d5333166906024016020604051808303816000875af11580156200176e573d6000803e3d6000fd5b505050506040513d601f19601f8201168201806040525081019062001794919062003154565b15620017f75760405162461bcd60e51b815260206004820152602b60248201527f4661696c656420746f20656e61626c6520706f6f6c206175746f20696d706c6560448201526a36b2b73a30ba34b7b7399760a91b606482015260840162000571565b604051632dc7468360e21b81523360048201526001600160a01b0384169063b71d1a0c906024016020604051808303816000875af11580156200183e573d6000803e3d6000fd5b505050506040513d601f19601f8201168201806040525081019062001864919062003154565b15620018c65760405162461bcd60e51b815260206004820152602a60248201527f4661696c656420746f207365742070656e64696e672061646d696e206f6e20556044820152693734ba3937b63632b91760b11b606482015260840162000571565b620018d28f856200232a565b9f939e50929c50505050505050505050505050565b6033546001600160a01b03163314620019145760405162461bcd60e51b8152600401620005719062002f90565b620019206000620025f7565b565b6033546001600160a01b031633146200194f5760405162461bcd60e51b8152600401620005719062002f90565b81620019975760405162461bcd60e51b81526020600482015260166024820152752737903232b83637bcb2b9399039bab8383634b2b21760511b604482015260640162000571565b60005b8281101562001a115781606e6000868685818110620019bd57620019bd62002fc5565b9050602002016020810190620019d49190620029e9565b6001600160a01b031681526020810191909152604001600020805460ff19169115159190911790558062001a088162002ff1565b9150506200199a565b50505050565b6001600160a01b0381166000908152606b6020526040812054606091829167ffffffffffffffff81111562001a505762001a5062002ceb565b60405190808252806020026020018201604052801562001a7a578160200160208202803683370190505b506001600160a01b0385166000908152606b60205260408120549192509067ffffffffffffffff81111562001ab35762001ab362002ceb565b60405190808252806020026020018201604052801562001af057816020015b62001adc620028a7565b81526020019060019003908162001ad25790505b50905060005b6001600160a01b0386166000908152606b602052604090205481101562001ce9576001600160a01b0386166000908152606b6020526040902080548290811062001b445762001b4462002fc5565b906000526020600020015483828151811062001b645762001b6462002fc5565b602002602001018181525050606a606b6000886001600160a01b03166001600160a01b03168152602001908152602001600020828154811062001bab5762001bab62002fc5565b90600052602060002001548154811062001bc95762001bc962002fc5565b90600052602060002090600502016040518060a001604052908160008201805462001bf490620030ac565b80601f016020809104026020016040519081016040528092919081815260200182805462001c2290620030ac565b801562001c735780601f1062001c475761010080835404028352916020019162001c73565b820191906000526020600020905b81548152906001019060200180831162001c5557829003601f168201915b505050918352505060018201546001600160a01b039081166020830152600283015416604082015260038201546060820152600490910154608090910152825183908390811062001cc85762001cc862002fc5565b6020026020010181905250808062001ce09062002ff1565b91505062001af6565b509094909350915050565b606a818154811062001d0557600080fd5b906000526020600020906005020160009150905080600001805462001d2a90620030ac565b80601f016020809104026020016040519081016040528092919081815260200182805462001d5890620030ac565b801562001da95780601f1062001d7d5761010080835404028352916020019162001da9565b820191906000526020600020905b81548152906001019060200180831162001d8b57829003601f168201915b5050505060018301546002840154600385015460049095015493946001600160a01b03928316949290911692509085565b600062001de662002649565b62001dff5762001df9600160106200269e565b92915050565b606780546001600160a01b038481166001600160a01b031983168117909355604080519190921680825260208201939093527fca4f2f25d0898edd99413412fb94012f9e54ec8142f9b093e7720646a95b16a9910160405180910390a160005b9392505050565b600062001e74600162002720565b9050801562001e8d576000805461ff0019166101001790555b62001e97620027b5565b606d805460ff191684151517905560005b825181101562001f14576001606e600085848151811062001ecd5762001ecd62002fc5565b6020908102919091018101516001600160a01b03168252810191909152604001600020805460ff19169115159190911790558062001f0b8162002ff1565b91505062001ea8565b50801562001f59576000805461ff0019169055604051600181527f7f26b83ff96e1f2b6a682f133852f6798a09c465da95921460cefb384740249890602001620006af565b505050565b6060606a805480602002602001604051908101604052809291908181526020016000905b828210156200208c57838290600052602060002090600502016040518060a001604052908160008201805462001fb890620030ac565b80601f016020809104026020016040519081016040528092919081815260200182805462001fe690620030ac565b8015620020375780601f106200200b5761010080835404028352916020019162002037565b820191906000526020600020905b8154815290600101906020018083116200201957829003601f168201915b50505091835250506001828101546001600160a01b0390811660208085019190915260028501549091166040840152600384015460608401526004909301546080909201919091529183529201910162001f82565b50505050905090565b6067546000906001600160a01b03163314620020be57620020b9600160006200269e565b905090565b60668054606780546001600160a01b038082166001600160a01b031980861682179096559490911690915560408051919092168082526020820184905292917ff9ffabca9c8276e99321725bcb43fb076a6c66a54b7f21c4e8146d8519b417dc910160405180910390a1606754604080516001600160a01b03808516825290921660208301527fca4f2f25d0898edd99413412fb94012f9e54ec8142f9b093e7720646a95b16a9910160405180910390a160009250505090565b6033546001600160a01b03163314620021a55760405162461bcd60e51b8152600401620005719062002f90565b6001600160a01b0381166200220c5760405162461bcd60e51b815260206004820152602660248201527f4f776e61626c653a206e6577206f776e657220697320746865207a65726f206160448201526564647265737360d01b606482015260840162000571565b6200221781620025f7565b50565b600080844710156200226f5760405162461bcd60e51b815260206004820152601d60248201527f437265617465323a20696e73756666696369656e742062616c616e6365000000604482015260640162000571565b8251620022bf5760405162461bcd60e51b815260206004820181905260248201527f437265617465323a2062797465636f6465206c656e677468206973207a65726f604482015260640162000571565b8383516020850187f590506001600160a01b038116620023225760405162461bcd60e51b815260206004820152601960248201527f437265617465323a204661696c6564206f6e206465706c6f7900000000000000604482015260640162000571565b949350505050565b6001600160a01b0381166000908152606c602052604081205460ff1615620023a35760405162461bcd60e51b815260206004820152602560248201527f506f6f6c20616c72656164792065786973747320696e207468652064697265636044820152643a37b93c9760d91b606482015260840162000571565b606d5460ff161580620023c55750336000908152606e602052604090205460ff165b6200241f5760405162461bcd60e51b8152602060048201526024808201527f53656e646572206973206e6f74206f6e206465706c6f7965722077686974656c60448201526334b9ba1760e11b606482015260840162000571565b6064835111156200246c5760405162461bcd60e51b81526020600482015260166024820152752737903837b7b6103730b6b29039bab8383634b2b21760511b604482015260640162000571565b6040805160a081018252848152336020808301919091526001600160a01b03851692820192909252436060820152426080820152606a8054600181018255600091909152815180519293849360059093027f116fea137db6e131133e7f2bab296045d8f41cc5607279db17b218cab0929a510192620024ef9284920190620028f6565b50602082810151600183810180546001600160a01b03199081166001600160a01b0394851617909155604080870151600287018054909316941693909317905560608501516003850155608090940151600490930192909255336000908152606b90915220606a549091620025649162003184565b81546001818101845560009384526020808520909201929092556001600160a01b0386168352606c90526040909120805460ff191682179055606a547f18075ab463b4dc5842f37ecd67abeb192eda5d073f2c08509e189ad173d5c02091620025cd9162003184565b82604051620025de9291906200319e565b60405180910390a1606a54620023229060019062003184565b603380546001600160a01b038381166001600160a01b0319831681179093556040519116919082907f8be0079c531659141344cd1fd0a4f28419497f9722a3daafe3b4186f6b6457e090600090a35050565b6066546000906001600160a01b031633148015620026705750606754600160a81b900460ff165b80620020b957506065546001600160a01b031633148015620020b9575050606754600160a01b900460ff1690565b60007f45b96fe442630264581b197e84bbada861235052c5a1aadfff9ea4e40a969aa0836015811115620026d657620026d66200316e565b83601b811115620026eb57620026eb6200316e565b60408051928352602083019190915260009082015260600160405180910390a182601581111562001e5f5762001e5f6200316e565b60008054610100900460ff16156200276c578160ff166001148015620027455750303b155b620027645760405162461bcd60e51b81526004016200057190620031b9565b506000919050565b60005460ff808416911610620027965760405162461bcd60e51b81526004016200057190620031b9565b506000805460ff191660ff92909216919091179055600190565b919050565b600054610100900460ff16620027df5760405162461bcd60e51b8152600401620005719062003207565b62001920600054610100900460ff166200280d5760405162461bcd60e51b8152600401620005719062003207565b6200192033620025f7565b8280546200282690620030ac565b90600052602060002090601f0160209004810192826200284a576000855562002895565b82601f10620028655782800160ff1982351617855562002895565b8280016001018555821562002895579182015b828111156200289557823582559160200191906001019062002878565b50620028a392915062002973565b5090565b6040518060a001604052806060815260200160006001600160a01b0316815260200160006001600160a01b0316815260200160008152602001600081525090565b610b9e806200325383390190565b8280546200290490620030ac565b90600052602060002090601f01602090048101928262002928576000855562002895565b82601f106200294357805160ff191683800117855562002895565b8280016001018555821562002895579182015b828111156200289557825182559160200191906001019062002956565b5b80821115620028a3576000815560010162002974565b80151581146200221757600080fd5b8035620027b0816200298a565b600060208284031215620029b957600080fd5b813562001e5f816200298a565b6001600160a01b03811681146200221757600080fd5b8035620027b081620029c6565b600060208284031215620029fc57600080fd5b813562001e5f81620029c6565b60008060006040848603121562002a1f57600080fd5b833567ffffffffffffffff8082111562002a3857600080fd5b818601915086601f83011262002a4d57600080fd5b81358181111562002a5d57600080fd5b8760208260051b850101111562002a7357600080fd5b6020928301955093505084013562002a8b816200298a565b809150509250925092565b60008083601f84011262002aa957600080fd5b50813567ffffffffffffffff81111562002ac257600080fd5b60208301915083602082850101111562002adb57600080fd5b9250929050565b60008060006040848603121562002af857600080fd5b83359250602084013567ffffffffffffffff81111562002b1757600080fd5b62002b258682870162002a96565b9497909650939450505050565b60005b8381101562002b4f57818101518382015260200162002b35565b8381111562001a115750506000910152565b6000815180845262002b7b81602086016020860162002b32565b601f01601f19169290920160200192915050565b6000815160a0845262002ba660a085018262002b61565b9050602083015160018060a01b038082166020870152806040860151166040870152505060608301516060850152608083015160808501528091505092915050565b600081518084526020808501808196508360051b8101915082860160005b8581101562002c3457828403895262002c2184835162002b8f565b9885019893509084019060010162002c06565b5091979650505050505050565b604080825283519082018190526000906020906060840190828701845b8281101562002c7c5781518452928401929084019060010162002c5e565b5050508381038285015262002c92818662002be8565b9695505050505050565b6020808252825182820181905260009190848201906040850190845b8181101562002cdf5783516001600160a01b03168352928401929184019160010162002cb8565b50909695505050505050565b634e487b7160e01b600052604160045260246000fd5b604051601f8201601f1916810167ffffffffffffffff8111828210171562002d2d5762002d2d62002ceb565b604052919050565b60008060008060008060008060e0898b03121562002d5257600080fd5b883567ffffffffffffffff8082111562002d6b57600080fd5b818b0191508b601f83011262002d8057600080fd5b813560208282111562002d975762002d9762002ceb565b62002dab601f8301601f1916820162002d01565b8281528e8284870101111562002dc057600080fd5b828286018383013760008184018301529b5062002ddf8d8201620029dc565b9a50505060408b013591508082111562002df857600080fd5b5062002e078b828c0162002a96565b909750955062002e1c905060608a0162002999565b93506080890135925060a0890135915062002e3a60c08a01620029dc565b90509295985092959890939650565b60006020828403121562002e5c57600080fd5b5035919050565b60a08152600062002e7860a083018862002b61565b6001600160a01b039687166020840152949095166040820152606081019290925260809091015292915050565b6000806040838503121562002eb957600080fd5b823562002ec6816200298a565b915060208381013567ffffffffffffffff8082111562002ee557600080fd5b818601915086601f83011262002efa57600080fd5b81358181111562002f0f5762002f0f62002ceb565b8060051b915062002f2284830162002d01565b818152918301840191848101908984111562002f3d57600080fd5b938501935b8385101562002f6b578435925062002f5a83620029c6565b828252938501939085019062002f42565b8096505050505050509250929050565b60208152600062001e5f602083018462002be8565b6020808252818101527f4f776e61626c653a2063616c6c6572206973206e6f7420746865206f776e6572604082015260600190565b634e487b7160e01b600052603260045260246000fd5b634e487b7160e01b600052601160045260246000fd5b600060001982141562003008576200300862002fdb565b5060010190565b6040808252810183905260008460608301825b86811015620030565782356200303881620029c6565b6001600160a01b031682526020928301929091019060010162003022565b5080925050508215156020830152949350505050565b6000602082840312156200307f57600080fd5b815162001e5f81620029c6565b6000602082840312156200309f57600080fd5b815162001e5f816200298a565b600181811c90821680620030c157607f821691505b60208210811415620030e357634e487b7160e01b600052602260045260246000fd5b50919050565b60008451620030fd81846020890162002b32565b8201838582376000930192835250909392505050565b6bffffffffffffffffffffffff198460601b168152600083516200313f81601485016020880162002b32565b60149201918201929092526034019392505050565b6000602082840312156200316757600080fd5b5051919050565b634e487b7160e01b600052602160045260246000fd5b60008282101562003199576200319962002fdb565b500390565b82815260406020820152600062002322604083018462002b8f565b6020808252602e908201527f496e697469616c697a61626c653a20636f6e747261637420697320616c72656160408201526d191e481a5b9a5d1a585b1a5e995960921b606082015260800190565b6020808252602b908201527f496e697469616c697a61626c653a20636f6e7472616374206973206e6f74206960408201526a6e697469616c697a696e6760a81b60608201526080019056fe60806040526002805461ffff60a01b191661010160a01b17905534801561002557600080fd5b50604051610b9e380380610b9e83398101604081905261004491610077565b60018054336001600160a01b031991821617909155600080549091166001600160a01b03929092169190911790556100a7565b60006020828403121561008957600080fd5b81516001600160a01b03811681146100a057600080fd5b9392505050565b610ae8806100b66000396000f3fe6080604052600436106100c25760003560e01c8063b71d1a0c1161007f578063dcfbc0c711610059578063dcfbc0c714610425578063e992a04114610445578063e9c714f214610465578063f851a4401461047a576100c2565b8063b71d1a0c146103d0578063bb82aa5e146103f0578063c1e8033414610410576100c2565b80630225ab9d146102d35780630a755ec21461030657806315761d5114610337578063267822471461036f5780632f1069ba1461038f5780636f63af0b146103b0575b3330146102585760408051600481526024810182526020810180516001600160e01b0316633757348b60e21b179052905160009182913091610103916109c6565b600060405180830381855afa9150503d806000811461013e576040519150601f19603f3d011682016040523d82523d6000602084013e610143565b606091505b50915091506000821561016757818060200190518101906101649190610a12565b90505b8015610254576000805460035460405163bbcdd6d360e01b81526001600160a01b03918216600482015291169063bbcdd6d390602401602060405180830381865afa1580156101ba573d6000803e3d6000fd5b505050506040513d601f19601f820116820180604052508101906101de9190610a44565b6003549091506001600160a01b0380831691161461025257600380546001600160a01b038381166001600160a01b0319831681179093556040519116917fd604de94d45953f9138079ec1b82d533cb2160c906d1076d1f7ed54befbca97a91610248918491610a61565b60405180910390a1505b505b5050505b6003546040516000916001600160a01b0316906102789083903690610a7b565b600060405180830381855af49150503d80600081146102b3576040519150601f19603f3d011682016040523d82523d6000602084013e6102b8565b606091505b505090506040513d6000823e8180156102cf573d82f35b3d82fd5b3480156102df57600080fd5b506102f36102ee366004610a8b565b61049a565b6040519081526020015b60405180910390f35b34801561031257600080fd5b5060025461032790600160a81b900460ff1681565b60405190151581526020016102fd565b34801561034357600080fd5b50600054610357906001600160a01b031681565b6040516001600160a01b0390911681526020016102fd565b34801561037b57600080fd5b50600254610357906001600160a01b031681565b34801561039b57600080fd5b5060025461032790600160a01b900460ff1681565b3480156103bc57600080fd5b506102f36103cb366004610a8b565b610536565b3480156103dc57600080fd5b506102f36103eb366004610aa8565b6105c5565b3480156103fc57600080fd5b50600354610357906001600160a01b031681565b34801561041c57600080fd5b506102f3610644565b34801561043157600080fd5b50600454610357906001600160a01b031681565b34801561045157600080fd5b506102f3610460366004610aa8565b610736565b34801561047157600080fd5b506102f3610829565b34801561048657600080fd5b50600154610357906001600160a01b031681565b60006104a46108fb565b6104ba576104b46001600561094d565b92915050565b60025460ff600160a81b90910416151582151514156104da5760006104b4565b60028054831515600160a81b0260ff60a81b199091161790556040517f10f9a0a95673b0837d1dce21fd3bffcb6d760435e9b5300b75a271182f75f8229061052790841515815260200190565b60405180910390a160006104b4565b60006105406108fb565b610550576104b46001600561094d565b60025460ff600160a01b90910416151582151514156105705760006104b4565b6002805460ff60a01b1916600160a01b8415158102919091179182905560405160ff9190920416151581527fabb56a15fd39488c914b324690b88f30d7daec63d2131ca0ef47e5739068c86e90602001610527565b60006105cf6108fb565b6105df576104b46001601061094d565b600280546001600160a01b038481166001600160a01b03198316179092556040519116907fca4f2f25d0898edd99413412fb94012f9e54ec8142f9b093e7720646a95b16a9906106329083908690610a61565b60405180910390a160005b9392505050565b6004546000906001600160a01b03163314158061066a57506004546001600160a01b0316155b1561067f5761067a60018061094d565b905090565b60038054600480546001600160a01b03198084166001600160a01b03838116918217909655911690915560405192909116917fd604de94d45953f9138079ec1b82d533cb2160c906d1076d1f7ed54befbca97a906106e09084908490610a61565b60405180910390a16004546040517fe945ccee5d701fc83f9b8aa8ca94ea4219ec1fcbd4f4cab4f0ea57c5c3e1d815916107259184916001600160a01b031690610a61565b60405180910390a160009250505090565b60006107406108fb565b610750576104b46001601261094d565b600054600354604051639d244f9f60e01b81526001600160a01b0392831692639d244f9f92610786929116908690600401610a61565b602060405180830381865afa1580156107a3573d6000803e3d6000fd5b505050506040513d601f19601f820116820180604052508101906107c79190610a12565b6107d7576104b46001601161094d565b600480546001600160a01b038481166001600160a01b0319831681179093556040519116917fe945ccee5d701fc83f9b8aa8ca94ea4219ec1fcbd4f4cab4f0ea57c5c3e1d81591610632918491610a61565b6002546000906001600160a01b031633141580610844575033155b156108555761067a6001600061094d565b60018054600280546001600160a01b03198084166001600160a01b03838116918217909655911690915560405192909116917ff9ffabca9c8276e99321725bcb43fb076a6c66a54b7f21c4e8146d8519b417dc906108b69084908490610a61565b60405180910390a16002546040517fca4f2f25d0898edd99413412fb94012f9e54ec8142f9b093e7720646a95b16a9916107259184916001600160a01b031690610a61565b6001546000906001600160a01b0316331480156109215750600254600160a81b900460ff165b8061067a57506000546001600160a01b03163314801561067a575050600254600160a01b900460ff1690565b60007f45b96fe442630264581b197e84bbada861235052c5a1aadfff9ea4e40a969aa083601581111561098257610982610ac5565b83601b81111561099457610994610ac5565b60408051928352602083019190915260009082015260600160405180910390a182601581111561063d5761063d610ac5565b6000825160005b818110156109e757602081860181015185830152016109cd565b818111156109f6576000828501525b509190910192915050565b8015158114610a0f57600080fd5b50565b600060208284031215610a2457600080fd5b815161063d81610a01565b6001600160a01b0381168114610a0f57600080fd5b600060208284031215610a5657600080fd5b815161063d81610a2f565b6001600160a01b0392831681529116602082015260400190565b8183823760009101908152919050565b600060208284031215610a9d57600080fd5b813561063d81610a01565b600060208284031215610aba57600080fd5b813561063d81610a2f565b634e487b7160e01b600052602160045260246000fdfea164736f6c634300080a000aa164736f6c634300080a000a608060405234801561001057600080fd5b50614fb7806100206000396000f3fe608060405234801561001057600080fd5b50600436106101165760003560e01c806370733375116100a2578063c41c2f2411610071578063c41c2f241461026f578063cd344be81461029a578063d0a164fb146102c2578063d64996e5146102ca578063dedfe22f146102dd57600080fd5b8063707333751461021f57806395d89b41146102325780639c00a3d41461023a578063c3530a631461025c57600080fd5b80633a1eb656116100e95780633a1eb6561461018d57806351678684146101a2578063586f6c10146101c557806359d2fea6146101e8578063635629e61461020c57600080fd5b806306fdde031461011b5780630b9c80bd146101395780630c5eb5a41461015a57806327e16c1f1461017a575b600080fd5b610123610301565b6040516101309190613ba5565b60405180910390f35b61014c610147366004613bd7565b61038f565b604051610130929190613cc9565b61016d610168366004613cf7565b610908565b6040516101309190613d30565b61016d610188366004613bd7565b610990565b6101a061019b3660046140d9565b610a08565b005b6101b56101b0366004613bd7565b610de5565b60405161013094939291906142dc565b6101d86101d33660046143bc565b610e88565b60405161013094939291906144fc565b6101fb6101f6366004613bd7565b61110b565b604051610130959493929190614554565b6101b561021a366004613bd7565b611954565b6101b561022d366004613bd7565b611966565b610123611978565b61024d61024836600461459a565b611985565b604051610130939291906145c6565b61014c61026a366004613bd7565b6120b9565b600554610282906001600160a01b031681565b6040516001600160a01b039091168152602001610130565b6102ad6102a83660046145eb565b6123d6565b60408051928352602083019190915201610130565b6101b561251e565b6101b56102d8366004614644565b6125c3565b6102f06102eb366004614661565b612603565b60405161013095949392919061467a565b6001805461030e90614719565b80601f016020809104026020016040519081016040528092919081815260200182805461033a90614719565b80156103875780601f1061035c57610100808354040283529160200191610387565b820191906000526020600020905b81548152906001019060200180831161036a57829003601f168201915b505050505081565b6060806000600560009054906101000a90046001600160a01b03166001600160a01b031663d88ff1f46040518163ffffffff1660e01b8152600401600060405180830381865afa1580156103e7573d6000803e3d6000fd5b505050506040513d6000823e601f3d908101601f1916820160405261040f919081019061488e565b90506000805b8251811015610605576000838281518110610432576104326148c2565b6020026020010151604001519050806001600160a01b03166316dc15fe886040518263ffffffff1660e01b815260040161047b91906001600160a01b0391909116815260200190565b602060405180830381865afa9250505080156104b4575060408051601f3d908101601f191682019092526104b1918101906148e3565b60015b6104bd576105f2565b80156105f0576000826001600160a01b031663b0772d0b6040518163ffffffff1660e01b8152600401600060405180830381865afa158015610503573d6000803e3d6000fd5b505050506040513d6000823e601f3d908101601f1916820160405261052b9190810190614900565b905060005b81518110156105ed57600082828151811061054d5761054d6148c2565b60209081029190910101516040516370a0823160e01b81526001600160a01b038d81166004830152909116906370a0823190602401602060405180830381865afa15801561059f573d6000803e3d6000fd5b505050506040513d601f19601f820116820180604052508101906105c3919061498e565b11156105db57856105d3816149bd565b9650506105ed565b806105e5816149bd565b915050610530565b50505b505b50806105fd816149bd565b915050610415565b506000816001600160401b0381111561062057610620613ebb565b604051908082528060200260200182016040528015610649578160200160208202803683370190505b5090506000826001600160401b0381111561066657610666613ebb565b60405190808252806020026020018201604052801561069f57816020015b61068c6139a9565b8152602001906001900390816106845790505b5090506000805b85518110156108fa5760008682815181106106c3576106c36148c2565b6020026020010151604001519050806001600160a01b03166316dc15fe8b6040518263ffffffff1660e01b815260040161070c91906001600160a01b0391909116815260200190565b602060405180830381865afa925050508015610745575060408051601f3d908101601f19168201909252610742918101906148e3565b60015b61074e576108e7565b80156108e5576000826001600160a01b031663b0772d0b6040518163ffffffff1660e01b8152600401600060405180830381865afa158015610794573d6000803e3d6000fd5b505050506040513d6000823e601f3d908101601f191682016040526107bc9190810190614900565b905060005b81518110156108e25760008282815181106107de576107de6148c2565b60200260200101516001600160a01b03166370a082318f6040518263ffffffff1660e01b815260040161082091906001600160a01b0391909116815260200190565b602060405180830381865afa15801561083d573d6000803e3d6000fd5b505050506040513d601f19601f82011682018060405250810190610861919061498e565b11156108d0578488878151811061087a5761087a6148c2565b602002602001018181525050898581518110610898576108986148c2565b60200260200101518787815181106108b2576108b26148c2565b602002602001018190525085806108c8906149bd565b9650506108e2565b806108da816149bd565b9150506107c1565b50505b505b50806108f2816149bd565b9150506106a6565b509197909650945050505050565b604051632aff3bff60e21b81526001600160a01b03828116600483015260609160009161098891869182169063abfceffc90602401600060405180830381865afa15801561095a573d6000803e3d6000fd5b505050506040513d6000823e601f3d908101601f191682016040526109829190810190614900565b85612760565b949350505050565b6060610a0282836001600160a01b031663b0772d0b6040518163ffffffff1660e01b8152600401600060405180830381865afa1580156109d4573d6000803e3d6000fd5b505050506040513d6000823e601f3d908101601f191682016040526109fc9190810190614900565b33612760565b92915050565b6000610a1460016134c0565b90508015610a2c576000805461ff0019166101001790555b6001600160a01b038a16610aa65760405162461bcd60e51b815260206004820152603660248201527f46757365506f6f6c4469726563746f727920696e7374616e63652063616e6e6f6044820152753a103132903a3432903d32b9379030b2323932b9b99760511b60648201526084015b60405180910390fd5b85518751148015610ab8575084518751145b610b135760405162461bcd60e51b815260206004820152602660248201527f48617264636f64656420616464726573736573206c656e67746873206e6f742060448201526532b8bab0b61760d11b6064820152608401610a9d565b82518451148015610b25575081518451145b610b835760405162461bcd60e51b815260206004820152602960248201527f556e6973776170204c5020746f6b656e206e616d6573206c656e67746873206e60448201526837ba1032b8bab0b61760b91b6064820152608401610a9d565b600580546001600160a01b0319166001600160a01b038c161790558851610bb19060019060208c01906139ea565b508751610bc59060029060208b01906139ea565b5060005b8751811015610ca3576040518060400160405280888381518110610bef57610bef6148c2565b60200260200101518152602001878381518110610c0e57610c0e6148c2565b6020026020010151815250600360008a8481518110610c2f57610c2f6148c2565b60200260200101516001600160a01b03166001600160a01b031681526020019081526020016000206000820151816000019080519060200190610c739291906139ea565b506020828101518051610c8c92600185019201906139ea565b509050508080610c9b906149bd565b915050610bc9565b5060005b8451811015610d925760046040518060600160405280878481518110610ccf57610ccf6148c2565b60200260200101518152602001868481518110610cee57610cee6148c2565b60200260200101518152602001858481518110610d0d57610d0d6148c2565b602090810291909101810151909152825460018101845560009384529281902082518051939460030290910192610d4792849201906139ea565b506020828101518051610d6092600185019201906139ea565b5060408201518051610d7c9160028401916020909101906139ea565b5050508080610d8a906149bd565b915050610ca7565b508015610dd9576000805461ff0019169055604051600181527f7f26b83ff96e1f2b6a682f133852f6798a09c465da95921460cefb38474024989060200160405180910390a15b50505050505050505050565b6005546040516351f6c8e360e11b81526001600160a01b03838116600483015260609283928392839260009283929091169063a3ed91c6906024015b600060405180830381865afa158015610e3e573d6000803e3d6000fd5b505050506040513d6000823e601f3d908101601f19168201604052610e6691908101906149d8565b91509150600080610e768361354d565b949a9399509750929550909350505050565b606080606080600086516001600160401b03811115610ea957610ea9613ebb565b604051908082528060200260200182016040528015610edc57816020015b6060815260200190600190039081610ec75790505b509050600087516001600160401b03811115610efa57610efa613ebb565b604051908082528060200260200182016040528015610f23578160200160208202803683370190505b509050600088516001600160401b03811115610f4157610f41613ebb565b604051908082528060200260200182016040528015610f6a578160200160208202803683370190505b509050600089516001600160401b03811115610f8857610f88613ebb565b604051908082528060200260200182016040528015610fb1578160200160208202803683370190505b50905060005b8a518110156110fa57306001600160a01b0316639c00a3d48c8381518110610fe157610fe16148c2565b60200260200101518c6040518363ffffffff1660e01b815260040161101b9291906001600160a01b03929092168252602082015260400190565b6000604051808303816000875af192505050801561105b57506040513d6000823e601f3d908101601f191682016040526110589190810190614a93565b60015b611088576001828281518110611073576110736148c2565b911515602092830291909101909101526110e8565b8288858151811061109b5761109b6148c2565b6020026020010181905250818785815181106110b9576110b96148c2565b602002602001018181525050808685815181106110d8576110d86148c2565b6020026020010181815250505050505b806110f2816149bd565b915050610fb7565b509299919850965090945092505050565b60008060608060008060009050600080886001600160a01b031663b0772d0b6040518163ffffffff1660e01b8152600401600060405180830381865afa158015611159573d6000803e3d6000fd5b505050506040513d6000823e601f3d908101601f191682016040526111819190810190614900565b9050600081516001600160401b0381111561119e5761119e613ebb565b6040519080825280602002602001820160405280156111c7578160200160208202803683370190505b509050600082516001600160401b038111156111e5576111e5613ebb565b60405190808252806020026020018201604052801561121857816020015b60608152602001906001900390816112035790505b50905060008b6001600160a01b0316637dc0d1d06040518163ffffffff1660e01b8152600401602060405180830381865afa15801561125b573d6000803e3d6000fd5b505050506040513d601f19601f8201168201806040525081019061127f9190614b78565b905060005b845181101561184c5760008582815181106112a1576112a16148c2565b6020026020010151905060008e6001600160a01b0316638e8f294b836040518263ffffffff1660e01b81526004016112e891906001600160a01b0391909116815260200190565b6040805180830381865afa158015611304573d6000803e3d6000fd5b505050506040513d601f19601f820116820180604052508101906113289190614b95565b5090508061133757505061183a565b6000826001600160a01b03166373acee986040518163ffffffff1660e01b81526004016020604051808303816000875af1158015611379573d6000803e3d6000fd5b505050506040513d601f19601f8201168201806040525081019061139d919061498e565b90506000836001600160a01b031663dc028ab16040518163ffffffff1660e01b8152600401602060405180830381865afa1580156113df573d6000803e3d6000fd5b505050506040513d601f19601f82011682018060405250810190611403919061498e565b846001600160a01b03166361feacff6040518163ffffffff1660e01b8152600401602060405180830381865afa158015611441573d6000803e3d6000fd5b505050506040513d601f19601f82011682018060405250810190611465919061498e565b856001600160a01b0316638f840ddd6040518163ffffffff1660e01b8152600401602060405180830381865afa1580156114a3573d6000803e3d6000fd5b505050506040513d601f19601f820116820180604052508101906114c7919061498e565b6114d19190614bc3565b6114db9190614bc3565b82856001600160a01b0316633b1d21a26040518163ffffffff1660e01b8152600401602060405180830381865afa15801561151a573d6000803e3d6000fd5b505050506040513d601f19601f8201168201806040525081019061153e919061498e565b6115489190614bc3565b6115529190614bdb565b60405163fc57d4df60e01b81526001600160a01b03868116600483015291925060009188169063fc57d4df90602401602060405180830381865afa15801561159e573d6000803e3d6000fd5b505050506040513d601f19601f820116820180604052508101906115c2919061498e565b9050670de0b6b3a76400006115d78285614bf2565b6115e19190614c11565b6115eb908d614bc3565b9b50670de0b6b3a76400006116008284614bf2565b61160a9190614c11565b611614908c614bc3565b9a50846001600160a01b031663ac784ddc6040518163ffffffff1660e01b8152600401602060405180830381865afa158015611654573d6000803e3d6000fd5b505050506040513d601f19601f8201168201806040525081019061167891906148e3565b1561175e576000898781518110611691576116916148c2565b60200260200101906001600160a01b031690816001600160a01b031681525050600280546116be90614719565b80601f01602080910402602001604051908101604052809291908181526020018280546116ea90614719565b80156117375780601f1061170c57610100808354040283529160200191611737565b820191906000526020600020905b81548152906001019060200180831161171a57829003601f168201915b505050505088878151811061174e5761174e6148c2565b6020026020010181905250611834565b846001600160a01b0316636f307dc36040518163ffffffff1660e01b8152600401602060405180830381865afa15801561179c573d6000803e3d6000fd5b505050506040513d601f19601f820116820180604052508101906117c09190614b78565b8987815181106117d2576117d26148c2565b60200260200101906001600160a01b031690816001600160a01b031681525050611814898781518110611807576118076148c2565b6020026020010151613754565b9050888781518110611828576118286148c2565b60200260200101819052505b50505050505b80611844816149bd565b915050611284565b506000600560009054906101000a90046001600160a01b03166001600160a01b03166343e20a1d8e6001600160a01b031663f851a4406040518163ffffffff1660e01b8152600401602060405180830381865afa1580156118b1573d6000803e3d6000fd5b505050506040513d601f19601f820116820180604052508101906118d59190614b78565b6040516001600160e01b031960e084901b1681526001600160a01b039091166004820152602401602060405180830381865afa158015611919573d6000803e3d6000fd5b505050506040513d601f19601f8201168201806040525081019061193d91906148e3565b959d969c50929a5090985092965092945050505050565b606080606080600080610e668761038f565b606080606080600080610e66876120b9565b6002805461030e90614719565b60606000806000856001600160a01b03166332abcdbe6040518163ffffffff1660e01b8152600401600060405180830381865afa1580156119ca573d6000803e3d6000fd5b505050506040513d6000823e601f3d908101601f191682016040526119f29190810190614c97565b90506000805b8251811015611c7b576000806000611ac28b8c6001600160a01b031663abfceffc898881518110611a2b57611a2b6148c2565b60200260200101516040518263ffffffff1660e01b8152600401611a5e91906001600160a01b0391909116815260200190565b600060405180830381865afa158015611a7b573d6000803e3d6000fd5b505050506040513d6000823e601f3d908101601f19168201604052611aa39190810190614900565b888781518110611ab557611ab56148c2565b6020026020010151612760565b905060005b8151811015611c1157670de0b6b3a7640000828281518110611aeb57611aeb6148c2565b60200260200101516101e00151838381518110611b0a57611b0a6148c2565b60200260200101516101600151611b219190614bf2565b611b2b9190614c11565b611b359085614bc3565b9350818181518110611b4957611b496148c2565b60200260200101516101a0015115611bff57670de0b6b3a7640000828281518110611b7657611b766148c2565b60200260200101516102200151670de0b6b3a7640000848481518110611b9e57611b9e6148c2565b60200260200101516101e00151858581518110611bbd57611bbd6148c2565b60200260200101516101400151611bd49190614bf2565b611bde9190614c11565b611be89190614bf2565b611bf29190614c11565b611bfc9084614bc3565b92505b80611c09816149bd565b915050611ac7565b506000808411611c30576ec097ce7bc90715b34b9f1000000000611c4d565b83611c4384670de0b6b3a7640000614bf2565b611c4d9190614c11565b90508a8111611c645785611c60816149bd565b9650505b505050508080611c73906149bd565b9150506119f8565b506000816001600160401b03811115611c9657611c96613ebb565b604051908082528060200260200182016040528015611cfb57816020015b611ce8604051806080016040528060006001600160a01b031681526020016000815260200160008152602001600081525090565b815260200190600190039081611cb45790505b5090506000805b8451811015611fe2576000806000611dbf8d8e6001600160a01b031663abfceffc8b8881518110611d3557611d356148c2565b60200260200101516040518263ffffffff1660e01b8152600401611d6891906001600160a01b0391909116815260200190565b600060405180830381865afa158015611d85573d6000803e3d6000fd5b505050506040513d6000823e601f3d908101601f19168201604052611dad9190810190614900565b8a8781518110611ab557611ab56148c2565b905060005b8151811015611f0e57670de0b6b3a7640000828281518110611de857611de86148c2565b60200260200101516101e00151838381518110611e0757611e076148c2565b60200260200101516101600151611e1e9190614bf2565b611e289190614c11565b611e329085614bc3565b9350818181518110611e4657611e466148c2565b60200260200101516101a0015115611efc57670de0b6b3a7640000828281518110611e7357611e736148c2565b60200260200101516102200151670de0b6b3a7640000848481518110611e9b57611e9b6148c2565b60200260200101516101e00151858581518110611eba57611eba6148c2565b60200260200101516101400151611ed19190614bf2565b611edb9190614c11565b611ee59190614bf2565b611eef9190614c11565b611ef99084614bc3565b92505b80611f06816149bd565b915050611dc4565b506000808411611f2d576ec097ce7bc90715b34b9f1000000000611f4a565b83611f4084670de0b6b3a7640000614bf2565b611f4a9190614c11565b90508c811115611f5d5750505050611fd0565b60405180608001604052808a8781518110611f7a57611f7a6148c2565b60200260200101516001600160a01b0316815260200185815260200184815260200182815250878781518110611fb257611fb26148c2565b60200260200101819052508580611fc8906149bd565b965050505050505b80611fda816149bd565b915050611d02565b5081896001600160a01b031663e87554466040518163ffffffff1660e01b8152600401602060405180830381865afa158015612022573d6000803e3d6000fd5b505050506040513d601f19601f82011682018060405250810190612046919061498e565b8a6001600160a01b0316634ada90af6040518163ffffffff1660e01b8152600401602060405180830381865afa158015612084573d6000803e3d6000fd5b505050506040513d601f19601f820116820180604052508101906120a8919061498e565b965096509650505050509250925092565b6060806000600560009054906101000a90046001600160a01b03166001600160a01b031663d88ff1f46040518163ffffffff1660e01b8152600401600060405180830381865afa158015612111573d6000803e3d6000fd5b505050506040513d6000823e601f3d908101601f19168201604052612139919081019061488e565b90506000805b825181101561220c57600083828151811061215c5761215c6148c2565b6020026020010151604001519050806001600160a01b0316639b19251a886040518263ffffffff1660e01b81526004016121a591906001600160a01b0391909116815260200190565b602060405180830381865afa1580156121c2573d6000803e3d6000fd5b505050506040513d601f19601f820116820180604052508101906121e691906148e3565b156121f957826121f5816149bd565b9350505b5080612204816149bd565b91505061213f565b506000816001600160401b0381111561222757612227613ebb565b604051908082528060200260200182016040528015612250578160200160208202803683370190505b5090506000826001600160401b0381111561226d5761226d613ebb565b6040519080825280602002602001820160405280156122a657816020015b6122936139a9565b81526020019060019003908161228b5790505b5090506000805b85518110156108fa5760008682815181106122ca576122ca6148c2565b6020026020010151604001519050806001600160a01b0316639b19251a8b6040518263ffffffff1660e01b815260040161231391906001600160a01b0391909116815260200190565b602060405180830381865afa158015612330573d6000803e3d6000fd5b505050506040513d601f19601f8201168201806040525081019061235491906148e3565b156123c3578185848151811061236c5761236c6148c2565b60200260200101818152505086828151811061238a5761238a6148c2565b60200260200101518484815181106123a4576123a46148c2565b602002602001018190525082806123ba906149bd565b935050506108fa565b50806123ce816149bd565b9150506122ad565b6000806000846001600160a01b0316635fe3b5676040518163ffffffff1660e01b8152600401602060405180830381865afa158015612419573d6000803e3d6000fd5b505050506040513d601f19601f8201168201806040525081019061243d9190614b78565b6001600160a01b0316637dc0d1d06040518163ffffffff1660e01b8152600401602060405180830381865afa15801561247a573d6000803e3d6000fd5b505050506040513d601f19601f8201168201806040525081019061249e9190614b78565b6040516319a6897d60e31b81529091506001600160a01b0382169063cd344be8906124cf9088908890600401614d39565b60408051808303816000875af11580156124ed573d6000803e3d6000fd5b505050506040513d601f19601f820116820180604052508101906125119190614de6565b92509250505b9250929050565b606080606080600080600560009054906101000a90046001600160a01b03166001600160a01b0316634ae26ea16040518163ffffffff1660e01b8152600401600060405180830381865afa15801561257a573d6000803e3d6000fd5b505050506040513d6000823e601f3d908101601f191682016040526125a291908101906149d8565b915091506000806125b28361354d565b949993985096509294509092505050565b6005546040516310c51ddf60e11b8152821515600482015260609182918291829160009182916001600160a01b039091169063218a3bbe90602401610e21565b6060806060806060806000600560009054906101000a90046001600160a01b03166001600160a01b0316634ae26ea16040518163ffffffff1660e01b8152600401600060405180830381865afa158015612661573d6000803e3d6000fd5b505050506040513d6000823e601f3d908101601f1916820160405261268991908101906149d8565b91505080516001600160401b038111156126a5576126a5613ebb565b6040519080825280602002602001820160405280156126ce578160200160208202803683370190505b50915060005b8151811015612737578181815181106126ef576126ef6148c2565b60200260200101516040015183828151811061270d5761270d6148c2565b6001600160a01b03909216602092830291909101909101528061272f816149bd565b9150506126d4565b5050600080600080612749858c610e88565b979e929d50909b5099509497509395505050505050565b60606000805b845181101561282f576000866001600160a01b0316638e8f294b878481518110612792576127926148c2565b60200260200101516040518263ffffffff1660e01b81526004016127c591906001600160a01b0391909116815260200190565b6040805180830381865afa1580156127e1573d6000803e3d6000fd5b505050506040513d601f19601f820116820180604052508101906128059190614b95565b509050801561281c5782612818816149bd565b9350505b5080612827816149bd565b915050612766565b506000816001600160401b0381111561284a5761284a613ebb565b60405190808252806020026020018201604052801561288357816020015b612870613a6e565b8152602001906001900390816128685790505b509050600080876001600160a01b0316637dc0d1d06040518163ffffffff1660e01b8152600401602060405180830381865afa1580156128c7573d6000803e3d6000fd5b505050506040513d601f19601f820116820180604052508101906128eb9190614b78565b905060005b87518110156134b3576000808a6001600160a01b0316638e8f294b8b858151811061291d5761291d6148c2565b60200260200101516040518263ffffffff1660e01b815260040161295091906001600160a01b0391909116815260200190565b6040805180830381865afa15801561296c573d6000803e3d6000fd5b505050506040513d601f19601f820116820180604052508101906129909190614b95565b91509150816129a05750506134a1565b6129a8613a6e565b60008b85815181106129bc576129bc6148c2565b6020908102919091018101516001600160a01b03811680855260408051632b1e137760e21b81529051929450909263ac784ddc926004808401938290030181865afa158015612a0f573d6000803e3d6000fd5b505050506040513d601f19601f82011682018060405250810190612a3391906148e3565b15612b775760018054612a4590614719565b80601f0160208091040260200160405190810160405280929190818152602001828054612a7190614719565b8015612abe5780601f10612a9357610100808354040283529160200191612abe565b820191906000526020600020905b815481529060010190602001808311612aa157829003601f168201915b5050505050826040018190525060028054612ad890614719565b80601f0160208091040260200160405190810160405280929190818152602001828054612b0490614719565b8015612b515780601f10612b2657610100808354040283529160200191612b51565b820191906000526020600020905b815481529060010190602001808311612b3457829003601f168201915b50505050506060830152601260808301526001600160a01b038b163160a0830152612cdd565b806001600160a01b0316636f307dc36040518163ffffffff1660e01b8152600401602060405180830381865afa158015612bb5573d6000803e3d6000fd5b505050506040513d601f19601f82011682018060405250810190612bd99190614b78565b6001600160a01b031660208301819052612bf281613754565b84604001856060018290528290525050806001600160a01b031663313ce5676040518163ffffffff1660e01b8152600401602060405180830381865afa158015612c40573d6000803e3d6000fd5b505050506040513d601f19601f82011682018060405250810190612c649190614e0a565b60ff1660808401526040516370a0823160e01b81526001600160a01b038d811660048301528216906370a0823190602401602060405180830381865afa158015612cb2573d6000803e3d6000fd5b505050506040513d601f19601f82011682018060405250810190612cd6919061498e565b60a0840152505b806001600160a01b031663ae9d70b06040518163ffffffff1660e01b8152600401602060405180830381865afa158015612d1b573d6000803e3d6000fd5b505050506040513d601f19601f82011682018060405250810190612d3f919061498e565b8260c0018181525050806001600160a01b031663f8f9da286040518163ffffffff1660e01b8152600401602060405180830381865afa158015612d86573d6000803e3d6000fd5b505050506040513d601f19601f82011682018060405250810190612daa919061498e565b8260e0018181525050806001600160a01b0316633b1d21a26040518163ffffffff1660e01b8152600401602060405180830381865afa158015612df1573d6000803e3d6000fd5b505050506040513d601f19601f82011682018060405250810190612e15919061498e565b82610180018181525050806001600160a01b03166373acee986040518163ffffffff1660e01b81526004016020604051808303816000875af1158015612e5f573d6000803e3d6000fd5b505050506040513d601f19601f82011682018060405250810190612e83919061498e565b82610120018181525050806001600160a01b031663dc028ab16040518163ffffffff1660e01b8152600401602060405180830381865afa158015612ecb573d6000803e3d6000fd5b505050506040513d601f19601f82011682018060405250810190612eef919061498e565b816001600160a01b03166361feacff6040518163ffffffff1660e01b8152600401602060405180830381865afa158015612f2d573d6000803e3d6000fd5b505050506040513d601f19601f82011682018060405250810190612f51919061498e565b826001600160a01b0316638f840ddd6040518163ffffffff1660e01b8152600401602060405180830381865afa158015612f8f573d6000803e3d6000fd5b505050506040513d601f19601f82011682018060405250810190612fb3919061498e565b612fbd9190614bc3565b612fc79190614bc3565b826101200151836101800151612fdd9190614bc3565b612fe79190614bdb565b610100830152604051633af9e66960e01b81526001600160a01b038c81166004830152821690633af9e669906024016020604051808303816000875af1158015613035573d6000803e3d6000fd5b505050506040513d601f19601f82011682018060405250810190613059919061498e565b6101408301526040516395dd919360e01b81526001600160a01b038c811660048301528216906395dd919390602401602060405180830381865afa1580156130a5573d6000803e3d6000fd5b505050506040513d601f19601f820116820180604052508101906130c9919061498e565b61016083015260405163929fe9a160e01b81526001600160a01b038c8116600483015282811660248301528e169063929fe9a190604401602060405180830381865afa15801561311d573d6000803e3d6000fd5b505050506040513d601f19601f8201168201806040525081019061314191906148e3565b15156101a08301526040805163182df0f560e01b815290516001600160a01b0383169163182df0f59160048083019260209291908290030181865afa15801561318e573d6000803e3d6000fd5b505050506040513d601f19601f820116820180604052508101906131b2919061498e565b6101c083015260405163fc57d4df60e01b81526001600160a01b03828116600483015287169063fc57d4df90602401602060405180830381865afa1580156131fe573d6000803e3d6000fd5b505050506040513d601f19601f82011682018060405250810190613222919061498e565b6101e08301526001600160a01b038681166102008401819052602084015160405163addd509960e01b8152921660048301529063addd509990602401602060405180830381865afa925050508015613297575060408051601f3d908101601f1916820190925261329491810190614b78565b60015b6132a0576132b0565b6001600160a01b03166102008301525b8282610220018181525050806001600160a01b031663173b99046040518163ffffffff1660e01b8152600401602060405180830381865afa1580156132f9573d6000803e3d6000fd5b505050506040513d601f19601f8201168201806040525081019061331d919061498e565b82610240018181525050806001600160a01b0316638d02d9a16040518163ffffffff1660e01b8152600401602060405180830381865afa158015613365573d6000803e3d6000fd5b505050506040513d601f19601f82011682018060405250810190613389919061498e565b82610260018181525050806001600160a01b031663dbfe7c196040518163ffffffff1660e01b8152600401602060405180830381865afa1580156133d1573d6000803e3d6000fd5b505050506040513d601f19601f820116820180604052508101906133f5919061498e565b610280830152604051636d154ea560e01b81526001600160a01b0382811660048301528e1690636d154ea590602401602060405180830381865afa158015613441573d6000803e3d6000fd5b505050506040513d601f19601f8201168201806040525081019061346591906148e3565b15156102a083015287518290899089908110613483576134836148c2565b60200260200101819052508680613499906149bd565b975050505050505b806134ab816149bd565b9150506128f0565b5091979650505050505050565b60008054610100900460ff1615613507578160ff1660011480156134e35750303b155b6134ff5760405162461bcd60e51b8152600401610a9d90614e2d565b506000919050565b60005460ff80841691161061352e5760405162461bcd60e51b8152600401610a9d90614e2d565b506000805460ff191660ff92909216919091179055600190565b919050565b606080600083516001600160401b0381111561356b5761356b613ebb565b6040519080825280602002602001820160405280156135d057816020015b6135bd6040518060a00160405280600081526020016000815260200160608152602001606081526020016000151581525090565b8152602001906001900390816135895790505b509050600084516001600160401b038111156135ee576135ee613ebb565b604051908082528060200260200182016040528015613617578160200160208202803683370190505b50905060005b855181101561374957306001600160a01b03166359d2fea6878381518110613647576136476148c2565b6020026020010151604001516040518263ffffffff1660e01b815260040161367e91906001600160a01b0391909116815260200190565b6000604051808303816000875af19250505080156136be57506040513d6000823e601f3d908101601f191682016040526136bb9190810190614e7b565b60015b6136eb5760018282815181106136d6576136d66148c2565b91151560209283029190910190910152613737565b6040518060a00160405280868152602001858152602001848152602001838152602001821515815250888781518110613726576137266148c2565b602002602001018190525050505050505b80613741816149bd565b91505061361d565b509094909350915050565b6001600160a01b03811660009081526003602052604090206001018054606091829161377f90614719565b1590506138c5576001600160a01b03831660009081526003602052604090208054600182019082906137b090614719565b80601f01602080910402602001604051908101604052809291908181526020018280546137dc90614719565b80156138295780601f106137fe57610100808354040283529160200191613829565b820191906000526020600020905b81548152906001019060200180831161380c57829003601f168201915b5050505050915080805461383c90614719565b80601f016020809104026020016040519081016040528092919081815260200182805461386890614719565b80156138b55780601f1061388a576101008083540402835291602001916138b5565b820191906000526020600020905b81548152906001019060200180831161389857829003601f168201915b5050505050905091509150915091565b60008390506000816001600160a01b03166306fdde036040518163ffffffff1660e01b8152600401600060405180830381865afa15801561390a573d6000803e3d6000fd5b505050506040513d6000823e601f3d908101601f191682016040526139329190810190614f76565b90506000826001600160a01b03166395d89b416040518163ffffffff1660e01b8152600401600060405180830381865afa158015613974573d6000803e3d6000fd5b505050506040513d6000823e601f3d908101601f1916820160405261399c9190810190614f76565b9196919550909350505050565b6040518060a001604052806060815260200160006001600160a01b0316815260200160006001600160a01b0316815260200160008152602001600081525090565b8280546139f690614719565b90600052602060002090601f016020900481019282613a185760008555613a5e565b82601f10613a3157805160ff1916838001178555613a5e565b82800160010185558215613a5e579182015b82811115613a5e578251825591602001919060010190613a43565b50613a6a929150613b34565b5090565b604051806102c0016040528060006001600160a01b0316815260200160006001600160a01b031681526020016060815260200160608152602001600081526020016000815260200160008152602001600081526020016000815260200160008152602001600081526020016000815260200160008152602001600015158152602001600081526020016000815260200160006001600160a01b03168152602001600081526020016000815260200160008152602001600081526020016000151581525090565b5b80821115613a6a5760008155600101613b35565b60005b83811015613b64578181015183820152602001613b4c565b83811115613b73576000848401525b50505050565b60008151808452613b91816020860160208601613b49565b601f01601f19169290920160200192915050565b602081526000613bb86020830184613b79565b9392505050565b6001600160a01b0381168114613bd457600080fd5b50565b600060208284031215613be957600080fd5b8135613bb881613bbf565b600081518084526020808501945080840160005b83811015613c2457815187529582019590820190600101613c08565b509495945050505050565b600082825180855260208086019550808260051b84010181860160005b84811015613cbc57601f19868403018952815160a08151818652613c7282870182613b79565b838801516001600160a01b03908116888a01526040808601519091169088015260608085015190880152608093840151939096019290925250509783019790830190600101613c4c565b5090979650505050505050565b604081526000613cdc6040830185613bf4565b8281036020840152613cee8185613c2f565b95945050505050565b60008060408385031215613d0a57600080fd5b8235613d1581613bbf565b91506020830135613d2581613bbf565b809150509250929050565b60006020808301818452808551808352604092508286019150828160051b87010184880160005b83811015613ea257888303603f19018552815180516001600160a01b031684526102c0818901516001600160a01b038116868b015250878201518189870152613da282870182613b79565b91505060608083015186830382880152613dbc8382613b79565b6080858101519089015260a0808601519089015260c0808601519089015260e08086015190890152610100808601519089015261012080860151908901526101408086015190890152610160808601519089015261018080860151908901526101a0808601511515908901526101c080860151908901526101e08086015190890152610200808601516001600160a01b03169089015261022080860151908901526102408086015190890152610260808601519089015261028080860151908901526102a094850151151594909701939093525050509386019390860190600101613d57565b509098975050505050505050565b803561354881613bbf565b634e487b7160e01b600052604160045260246000fd5b60405160a081016001600160401b0381118282101715613ef357613ef3613ebb565b60405290565b604051608081016001600160401b0381118282101715613ef357613ef3613ebb565b604051601f8201601f191681016001600160401b0381118282101715613f4357613f43613ebb565b604052919050565b60006001600160401b03821115613f6457613f64613ebb565b50601f01601f191660200190565b600082601f830112613f8357600080fd5b8135613f96613f9182613f4b565b613f1b565b818152846020838601011115613fab57600080fd5b816020850160208301376000918101602001919091529392505050565b60006001600160401b03821115613fe157613fe1613ebb565b5060051b60200190565b600082601f830112613ffc57600080fd5b8135602061400c613f9183613fc8565b82815260059290921b8401810191818101908684111561402b57600080fd5b8286015b8481101561404f57803561404281613bbf565b835291830191830161402f565b509695505050505050565b600082601f83011261406b57600080fd5b8135602061407b613f9183613fc8565b82815260059290921b8401810191818101908684111561409a57600080fd5b8286015b8481101561404f5780356001600160401b038111156140bd5760008081fd5b6140cb8986838b0101613f72565b84525091830191830161409e565b60008060008060008060008060006101208a8c0312156140f857600080fd5b6141018a613eb0565b985060208a01356001600160401b038082111561411d57600080fd5b6141298d838e01613f72565b995060408c013591508082111561413f57600080fd5b61414b8d838e01613f72565b985060608c013591508082111561416157600080fd5b61416d8d838e01613feb565b975060808c013591508082111561418357600080fd5b61418f8d838e0161405a565b965060a08c01359150808211156141a557600080fd5b6141b18d838e0161405a565b955060c08c01359150808211156141c757600080fd5b6141d38d838e0161405a565b945060e08c01359150808211156141e957600080fd5b6141f58d838e0161405a565b93506101008c013591508082111561420c57600080fd5b506142198c828d0161405a565b9150509295985092959850929598565b600081518084526020808501945080840160005b83811015613c245781516001600160a01b03168752958201959082019060010161423d565b600081518084526020808501808196508360051b8101915082860160005b858110156134b3578284038952614298848351613b79565b98850198935090840190600101614280565b600081518084526020808501945080840160005b83811015613c245781511515875295820195908201906001016142be565b600060808083526142ef81840188613bf4565b6020848203818601526143028289613c2f565b91506040858303818701528288518085528385019150838160051b860101848b0160005b8381101561439757601f19888403018552815160a081518552888201518986015287820151818987015261435c82870182614229565b915050606080830151868303828801526143768382614262565b938d01511515968d0196909652505094870194925090860190600101614326565b505088810360608a01526143ab818b6142aa565b9d9c50505050505050505050505050565b600080604083850312156143cf57600080fd5b82356001600160401b038111156143e557600080fd5b8301601f810185136143f657600080fd5b80356020614406613f9183613fc8565b82815260059290921b8301810191818101908884111561442557600080fd5b938201935b8385101561444c57843561443d81613bbf565b8252938201939082019061442a565b98969091013596505050505050565b600081518084526020808501945080840160005b83811015613c2457815180516001600160a01b03168852838101518489015260408082015190890152606090810151908801526080909601959082019060010161446f565b600081518084526020808501808196508360051b8101915082860160005b858110156134b35782840389526144ea84835161445b565b988501989350908401906001016144d2565b60808152600061450f60808301876144b4565b82810360208401526145218187613bf4565b905082810360408401526145358186613bf4565b9050828103606084015261454981856142aa565b979650505050505050565b85815284602082015260a06040820152600061457360a0830186614229565b82810360608401526145858186614262565b91505082151560808301529695505050505050565b600080604083850312156145ad57600080fd5b82356145b881613bbf565b946020939093013593505050565b6060815260006145d9606083018661445b565b60208301949094525060400152919050565b600080604083850312156145fe57600080fd5b823561460981613bbf565b915060208301356001600160401b0381111561462457600080fd5b830160808186031215613d2557600080fd5b8015158114613bd457600080fd5b60006020828403121561465657600080fd5b8135613bb881614636565b60006020828403121561467357600080fd5b5035919050565b60a0808252865190820181905260009060209060c0840190828a01845b828110156146bc5781516001600160a01b031684529284019290840190600101614697565b505050838103828501526146d081896144b4565b91505082810360408401526146e58187613bf4565b905082810360608401526146f98186613bf4565b9050828103608084015261470d81856142aa565b98975050505050505050565b600181811c9082168061472d57607f821691505b6020821081141561474e57634e487b7160e01b600052602260045260246000fd5b50919050565b600082601f83011261476557600080fd5b8151614773613f9182613f4b565b81815284602083860101111561478857600080fd5b610988826020830160208701613b49565b600082601f8301126147aa57600080fd5b815160206147ba613f9183613fc8565b82815260059290921b840181019181810190868411156147d957600080fd5b8286015b8481101561404f5780516001600160401b03808211156147fd5760008081fd5b9088019060a0828b03601f19018113156148175760008081fd5b61481f613ed1565b87840151838111156148315760008081fd5b61483f8d8a83880101614754565b825250604092508284015161485381613bbf565b8189015260608481015161486681613bbf565b93820193909352608084810151938201939093529201519082015283529183019183016147dd565b6000602082840312156148a057600080fd5b81516001600160401b038111156148b657600080fd5b61098884828501614799565b634e487b7160e01b600052603260045260246000fd5b805161354881614636565b6000602082840312156148f557600080fd5b8151613bb881614636565b6000602080838503121561491357600080fd5b82516001600160401b0381111561492957600080fd5b8301601f8101851361493a57600080fd5b8051614948613f9182613fc8565b81815260059190911b8201830190838101908783111561496757600080fd5b928401925b8284101561454957835161497f81613bbf565b8252928401929084019061496c565b6000602082840312156149a057600080fd5b5051919050565b634e487b7160e01b600052601160045260246000fd5b60006000198214156149d1576149d16149a7565b5060010190565b600080604083850312156149eb57600080fd5b82516001600160401b0380821115614a0257600080fd5b818501915085601f830112614a1657600080fd5b81516020614a26613f9183613fc8565b82815260059290921b84018101918181019089841115614a4557600080fd5b948201945b83861015614a6357855182529482019490820190614a4a565b91880151919650909350505080821115614a7c57600080fd5b50614a8985828601614799565b9150509250929050565b60008060006060808587031215614aa957600080fd5b84516001600160401b03811115614abf57600080fd5b8501601f81018713614ad057600080fd5b80516020614ae0613f9183613fc8565b82815260079290921b8301810191818101908a841115614aff57600080fd5b938201935b83851015614b5d576080858c031215614b1d5760008081fd5b614b25613ef9565b8551614b3081613bbf565b81528584015184820152604080870151908201528686015187820152825260809094019390820190614b04565b91890151604090990151919a98995090979650505050505050565b600060208284031215614b8a57600080fd5b8151613bb881613bbf565b60008060408385031215614ba857600080fd5b8251614bb381614636565b6020939093015192949293505050565b60008219821115614bd657614bd66149a7565b500190565b600082821015614bed57614bed6149a7565b500390565b6000816000190483118215151615614c0c57614c0c6149a7565b500290565b600082614c2e57634e487b7160e01b600052601260045260246000fd5b500490565b600082601f830112614c4457600080fd5b81516020614c54613f9183613fc8565b82815260059290921b84018101918181019086841115614c7357600080fd5b8286015b8481101561404f578051614c8a81613bbf565b8352918301918301614c77565b600060208284031215614ca957600080fd5b81516001600160401b03811115614cbf57600080fd5b61098884828501614c33565b6000808335601e19843603018112614ce257600080fd5b83016020810192503590506001600160401b03811115614d0157600080fd5b80360383131561251757600080fd5b81835281816020850137506000828201602090810191909152601f909101601f19169091010190565b6001600160a01b0383168152604060208201526000614d588380614ccb565b60806040850152614d6d60c085018284614d10565b915050614d7d6020850185614ccb565b603f1980868503016060870152614d95848385614d10565b9350614da46040880188614ccb565b9350915080868503016080870152614dbd848484614d10565b9350614dcc6060880188614ccb565b93509150808685030160a087015250614549838383614d10565b60008060408385031215614df957600080fd5b505080516020909101519092909150565b600060208284031215614e1c57600080fd5b815160ff81168114613bb857600080fd5b6020808252602e908201527f496e697469616c697a61626c653a20636f6e747261637420697320616c72656160408201526d191e481a5b9a5d1a585b1a5e995960921b606082015260800190565b600080600080600060a08688031215614e9357600080fd5b85519450602080870151945060408701516001600160401b0380821115614eb957600080fd5b614ec58a838b01614c33565b95506060890151915080821115614edb57600080fd5b818901915089601f830112614eef57600080fd5b8151614efd613f9182613fc8565b81815260059190911b8301840190848101908c831115614f1c57600080fd5b8585015b83811015614f5457805185811115614f385760008081fd5b614f468f89838a0101614754565b845250918601918601614f20565b50809750505050505050614f6a608087016148d8565b90509295509295909350565b600060208284031215614f8857600080fd5b81516001600160401b03811115614f9e57600080fd5b6109888482850161475456fea164736f6c634300080a000a608060405234801561001057600080fd5b50615fe280620000216000396000f3fe6080604052600436106103a25760003560e01c8063852a12e3116101e7578063b2a02ff11161010d578063dd62ed3e116100a0578063f5e3c4621161006f578063f5e3c46214610a90578063f8f9da2814610ab0578063fca7820b14610ac5578063fe9c44ae14610ae557600080fd5b8063dd62ed3e146109ea578063ef01df4f14610a30578063f2b3abbd14610a50578063f3fdb15a14610a7057600080fd5b8063c5ebeaec116100dc578063c5ebeaec1461097e578063db006a751461099e578063dbfe7c19146109be578063dc028ab1146109d457600080fd5b8063b2a02ff1146108ed578063bd6d894d1461090d578063be99f11914610922578063c37f68e21461093e57600080fd5b8063a0712d6811610185578063aa5af0fd11610154578063aa5af0fd14610892578063aaf5eb68146108a8578063ac784ddc146108c4578063ae9d70b0146108d857600080fd5b8063a0712d681461081d578063a6afed951461083d578063a7b820df14610852578063a9059cbb1461087257600080fd5b806391dd36c6116101c157806391dd36c6146107a857806395d89b41146107c857806395dd9193146107dd578063a03dce8d146107fd57600080fd5b8063852a12e31461075c5780638d02d9a11461077c5780638f840ddd1461079257600080fd5b80633af9e669116102cc578063601a0bf11161026a5780636f307dc3116102395780636f307dc3146106d157806370a08231146106f157806373acee98146107275780637f1e06be1461073c57600080fd5b8063601a0bf11461066a57806361feacff1461068a5780636752e702146106a05780636c540baf146106bb57600080fd5b806350d85b73116102a657806350d85b73146105ea57806356e677281461060a5780635c60da1b1461062a5780635fe3b5671461064a57600080fd5b80633af9e6691461059f5780633b1d21a2146105bf57806347bd3718146105d457600080fd5b806318160ddd1161034457806323b872dd1161031357806323b872dd146105135780632608f81814610533578063313ce5671461055357806334154d4c1461057f57600080fd5b806318160ddd146104c0578063182df0f5146104d65780631db78944146104eb578063219ef65c146104f357600080fd5b80630e752702116103805780630e7527021461042457806315761d5114610452578063173b99041461048a57806317bfdfbc146104a057600080fd5b806306db3ecd146103a757806306fdde03146103c9578063095ea7b3146103f4575b600080fd5b3480156103b357600080fd5b506103c76103c236600461589b565b610af9565b005b3480156103d557600080fd5b506103de610c07565b6040516103eb91906159b5565b60405180910390f35b34801561040057600080fd5b5061041461040f3660046159c8565b610c95565b60405190151581526020016103eb565b34801561043057600080fd5b5061044461043f3660046159f4565b610d05565b6040519081526020016103eb565b34801561045e57600080fd5b50600154610472906001600160a01b031681565b6040516001600160a01b0390911681526020016103eb565b34801561049657600080fd5b50610444600b5481565b3480156104ac57600080fd5b506104446104bb366004615a0d565b610d19565b3480156104cc57600080fd5b5061044460125481565b3480156104e257600080fd5b50610444610d70565b6103c7610e01565b3480156104ff57600080fd5b506103c761050e366004615a44565b610f32565b34801561051f57600080fd5b5061041461052e366004615b0c565b611261565b34801561053f57600080fd5b5061044461054e3660046159c8565b611287565b34801561055f57600080fd5b5060055461056d9060ff1681565b60405160ff90911681526020016103eb565b34801561058b57600080fd5b506103c761059a366004615b8f565b61129d565b3480156105ab57600080fd5b506104446105ba366004615a0d565b611304565b3480156105cb57600080fd5b506104446113b4565b3480156105e057600080fd5b50610444600e5481565b3480156105f657600080fd5b506103c7610605366004615c09565b6113c3565b34801561061657600080fd5b506103c7610625366004615c62565b611447565b34801561063657600080fd5b50600054610472906001600160a01b031681565b34801561065657600080fd5b50600654610472906001600160a01b031681565b34801561067657600080fd5b506104446106853660046159f4565b611727565b34801561069657600080fd5b5061044460105481565b3480156106ac57600080fd5b50610444666379da05b6000081565b3480156106c757600080fd5b50610444600c5481565b3480156106dd57600080fd5b50601654610472906001600160a01b031681565b3480156106fd57600080fd5b5061044461070c366004615a0d565b6001600160a01b031660009081526013602052604090205490565b34801561073357600080fd5b5061044461177e565b34801561074857600080fd5b506103c7610757366004615a0d565b6117c3565b34801561076857600080fd5b506104446107773660046159f4565b611888565b34801561078857600080fd5b5061044460095481565b34801561079e57600080fd5b50610444600f5481565b3480156107b457600080fd5b506104446107c33660046159f4565b611893565b3480156107d457600080fd5b506103de6118d6565b3480156107e957600080fd5b506104446107f8366004615a0d565b6118e3565b34801561080957600080fd5b506104446108183660046159f4565b611984565b34801561082957600080fd5b506104446108383660046159f4565b6119c7565b34801561084957600080fd5b506104446119d3565b34801561085e57600080fd5b5061044461086d3660046159f4565b611b8a565b34801561087e57600080fd5b5061041461088d3660046159c8565b611bcd565b34801561089e57600080fd5b50610444600d5481565b3480156108b457600080fd5b50610444670de0b6b3a764000081565b3480156108d057600080fd5b506000610414565b3480156108e457600080fd5b50610444611bfa565b3480156108f957600080fd5b50610444610908366004615b0c565b611cbd565b34801561091957600080fd5b50610444611ce1565b34801561092e57600080fd5b5061044467016345785d8a000081565b34801561094a57600080fd5b5061095e610959366004615a0d565b611d27565b6040805194855260208501939093529183015260608201526080016103eb565b34801561098a57600080fd5b506104446109993660046159f4565b611dc8565b3480156109aa57600080fd5b506104446109b93660046159f4565b611dd3565b3480156109ca57600080fd5b50610444600a5481565b3480156109e057600080fd5b5061044460115481565b3480156109f657600080fd5b50610444610a05366004615ca4565b6001600160a01b03918216600090815260146020908152604080832093909416825291909152205490565b348015610a3c57600080fd5b50601754610472906001600160a01b031681565b348015610a5c57600080fd5b50610444610a6b366004615a0d565b611dde565b348015610a7c57600080fd5b50600754610472906001600160a01b031681565b348015610a9c57600080fd5b50610444610aab366004615cdd565b611e16565b348015610abc57600080fd5b50610444611e2e565b348015610ad157600080fd5b50610444610ae03660046159f4565b611e92565b348015610af157600080fd5b506001610414565b60006702c68af0bb14000090506000896001600160a01b031663313ce5676040518163ffffffff1660e01b8152600401602060405180830381865afa158015610b46573d6000803e3d6000fd5b505050506040513d601f19601f82011682018060405250810190610b6a9190615d1f565b9050610b7d898989858a8a878b8b610f32565b601680546001600160a01b0319166001600160a01b038c16908117909155604080516318160ddd60e01b815290516318160ddd916004808201926020929091908290030181865afa158015610bd6573d6000803e3d6000fd5b505050506040513d601f19601f82011682018060405250810190610bfa9190615d3c565b5050505050505050505050565b60038054610c1490615d55565b80601f0160208091040260200160405190810160405280929190818152602001828054610c4090615d55565b8015610c8d5780601f10610c6257610100808354040283529160200191610c8d565b820191906000526020600020905b815481529060010190602001808311610c7057829003601f168201915b505050505081565b3360008181526014602090815260408083206001600160a01b03871680855292528083208590555191929182907f8c5be1e5ebec7d5bd14f71427d1e84f3dd0314c0f7b2291e5b200ac8c7c3b92590610cf19087815260200190565b60405180910390a360019150505b92915050565b600080610d1183611ed5565b509392505050565b600080610d2581611f3d565b6000610d2f6119d3565b14610d555760405162461bcd60e51b8152600401610d4c90615da0565b60405180910390fd5b610d5e836118e3565b91505b610d6a81612001565b50919050565b6000806000610d7d61206c565b90925090506000826003811115610d9657610d96615d8a565b14610cff5760405162461bcd60e51b815260206004820152603560248201527f65786368616e67655261746553746f7265643a2065786368616e67655261746560448201527414dd1bdc9959125b9d195c9b985b0819985a5b1959605a1b6064820152608401610d4c565b333014801590610e835750600660009054906101000a90046001600160a01b03166001600160a01b031663dd5cd22c6040518163ffffffff1660e01b8152600401602060405180830381865afa158015610e5f573d6000803e3d6000fd5b505050506040513d601f19601f82011682018060405250810190610e839190615dd0565b15610f3057600154600080546040516345cc970560e01b81526001600160a01b039182166004820152919283928392909116906345cc970590602401600060405180830381865afa158015610edc573d6000803e3d6000fd5b505050506040513d6000823e601f3d908101601f19168201604052610f049190810190615ded565b60005492955090935091506001600160a01b03808516911614610f2c57610f2c838383612139565b5050505b565b336001600160a01b03891614610f9c5760405162461bcd60e51b815260206004820152602960248201527f6f6e6c7920467573652061646d696e206d617920696e697469616c697a6520746044820152681a19481b585c9ad95d60ba1b6064820152608401610d4c565b600c54158015610fac5750600d54155b6110045760405162461bcd60e51b815260206004820152602360248201527f6d61726b6574206d6179206f6e6c7920626520696e697469616c697a6564206f6044820152626e636560e81b6064820152608401610d4c565b600180546001600160a01b0319166001600160a01b038a1617905560088690558561108a5760405162461bcd60e51b815260206004820152603060248201527f696e697469616c2065786368616e67652072617465206d75737420626520677260448201526f32b0ba32b9103a3430b7103d32b9379760811b6064820152608401610d4c565b60006110958a6122be565b905080156110e55760405162461bcd60e51b815260206004820152601a60248201527f73657474696e6720636f6d7074726f6c6c6572206661696c65640000000000006044820152606401610d4c565b43600c55670de0b6b3a7640000600d556110fe886123e9565b905080156111595760405162461bcd60e51b815260206004820152602260248201527f73657474696e6720696e7465726573742072617465206d6f64656c206661696c604482015261195960f21b6064820152608401610d4c565b855161116c9060039060208901906156a8565b5084516111809060049060208801906156a8565b506005805460ff191660ff861617905561119983612659565b905080156111e95760405162461bcd60e51b815260206004820152601d60248201527f73657474696e67207265736572766520666163746f72206661696c65640000006044820152606401610d4c565b6111f2826126f8565b905080156112425760405162461bcd60e51b815260206004820152601860248201527f73657474696e672061646d696e20666565206661696c656400000000000000006044820152606401610d4c565b50506002805460ff60b01b1916600160b01b1790555050505050505050565b60008061126d81611f3d565b600061127b33878787612812565b149150610d1181612001565b6000806112948484612ab0565b50949350505050565b6112a5612b1a565b6112e45760405162461bcd60e51b815260206004820152601060248201526f31b0b63632b9103737ba1030b236b4b760811b6044820152606401610d4c565b6112f060038585615728565b506112fd60048383615728565b5050505050565b600080604051806020016040528061131a611ce1565b90526001600160a01b038416600090815260136020526040812054919250908190611346908490612c85565b9092509050600082600381111561135f5761135f615d8a565b146113ac5760405162461bcd60e51b815260206004820152601f60248201527f62616c616e636520636f756c64206e6f742062652063616c63756c61746564006044820152606401610d4c565b949350505050565b60006113be612cd8565b905090565b6113cb612b1a565b6114005760405162461bcd60e51b815260206004820152600660248201526510b0b236b4b760d11b6044820152606401610d4c565b611441848484848080601f01602080910402602001604051908101604052809392919081815260200183838082843760009201919091525061213992505050565b50505050565b333014806114585750611458612b1a565b61146157600080fd5b600061146f82840184615a0d565b90506001600160a01b0381166114ab5760405162461bcd60e51b81526020600482015260016024820152600360fc1b6044820152606401610d4c565b6017546001600160a01b03161580159061152f57506017546040516370a0823160e01b81523060048201526001600160a01b03909116906370a0823190602401602060405180830381865afa158015611508573d6000803e3d6000fd5b505050506040513d601f19601f8201168201806040525081019061152c9190615d3c565b15155b15611619576017546040516370a0823160e01b81523060048201526001600160a01b039091169063ba0876529082906370a0823190602401602060405180830381865afa158015611584573d6000803e3d6000fd5b505050506040513d601f19601f820116820180604052508101906115a89190615d3c565b6040516001600160e01b031960e084901b1681526004810191909152306024820181905260448201526064016020604051808303816000875af11580156115f3573d6000803e3d6000fd5b505050506040513d601f19601f820116820180604052508101906116179190615d3c565b505b601780546001600160a01b0319166001600160a01b0383811691821790925560165460405163095ea7b360e01b8152600481019290925260001960248301529091169063095ea7b3906044016020604051808303816000875af1158015611684573d6000803e3d6000fd5b505050506040513d601f19601f820116820180604052508101906116a89190615dd0565b506016546040516370a0823160e01b81523060048201526000916001600160a01b0316906370a0823190602401602060405180830381865afa1580156116f2573d6000803e3d6000fd5b505050506040513d601f19601f820116820180604052508101906117169190615d3c565b905080156114415761144181612d6b565b60008061173381611f3d565b600061173d6119d3565b905080156117695761176181601181111561175a5761175a615d8a565b603b612de4565b925050610d61565b61177284612e5d565b925050610d6a81612001565b60008061178a81611f3d565b60006117946119d3565b146117b15760405162461bcd60e51b8152600401610d4c90615da0565b600e5491506117bf81612001565b5090565b6117cb612b1a565b61182d5760405162461bcd60e51b815260206004820152602d60248201527f6f6e6c79207468652061646d696e206d6179207365742074686520636f6d702d60448201526c6c696b652064656c656761746560981b6064820152608401610d4c565b6016546040516317066a5760e21b81526001600160a01b03838116600483015290911690635c19a95c90602401600060405180830381600087803b15801561187457600080fd5b505af11580156112fd573d6000803e3d6000fd5b6000610cff82612f0e565b60008061189f81611f3d565b60006118a96119d3565b905080156118cd576117618160118111156118c6576118c6615d8a565b6052612de4565b611772846126f8565b60048054610c1490615d55565b60008060006118f184612f54565b9092509050600082600381111561190a5761190a615d8a565b1461197d5760405162461bcd60e51b815260206004820152603760248201527f626f72726f7742616c616e636553746f7265643a20626f72726f7742616c616e60448201527f636553746f726564496e7465726e616c206661696c65640000000000000000006064820152608401610d4c565b9392505050565b60008061199081611f3d565b600061199a6119d3565b905080156119be576117618160118111156119b7576119b7615d8a565b6033612de4565b6117728461300d565b600080610d1183613080565b600c5460009043908114156119eb5760005b91505090565b60006119f5612cd8565b90506000600760009054906101000a90046001600160a01b03166001600160a01b03166315f2405383600e54611a3a600f54611a356010546011546130c6565b6130c6565b6040516001600160e01b031960e086901b168152600481019390935260248301919091526044820152606401602060405180830381865afa158015611a83573d6000803e3d6000fd5b505050506040513d601f19601f82011682018060405250810190611aa79190615d3c565b905065048c27395000811115611aff5760405162461bcd60e51b815260206004820152601c60248201527f626f72726f772072617465206973206162737572646c792068696768000000006044820152606401610d4c565b600080611b0e85600c546130fc565b90925090506000826003811115611b2757611b27615d8a565b14611b745760405162461bcd60e51b815260206004820152601f60248201527f636f756c64206e6f742063616c63756c61746520626c6f636b2064656c7461006044820152606401610d4c565b611b8085858584613127565b9550505050505090565b600080611b9681611f3d565b6000611ba06119d3565b90508015611bc457611761816011811115611bbd57611bbd615d8a565b6037612de4565b61177284613253565b600080611bd981611f3d565b6000611be733338787612812565b149150611bf381612001565b5092915050565b6007546000906001600160a01b031663b8168816611c16612cd8565b600e54611c2d600f54611a356010546011546130c6565b600954600a54600b54611c409190615ea3565b611c4a9190615ea3565b6040516001600160e01b031960e087901b16815260048101949094526024840192909252604483015260648201526084015b602060405180830381865afa158015611c99573d6000803e3d6000fd5b505050506040513d601f19601f820116820180604052508101906113be9190615d3c565b60006001611cca81611f3d565b611cd633868686613331565b9150610d1181612001565b600080611ced81611f3d565b6000611cf76119d3565b14611d145760405162461bcd60e51b8152600401610d4c90615da0565b611d1c610d70565b91506117bf81612001565b6001600160a01b038116600090815260136020526040812054819081908190818080611d5289612f54565b935090506000816003811115611d6a57611d6a615d8a565b14611d885760095b6000806000975097509750975050505050611dc1565b611d9061206c565b925090506000816003811115611da857611da8615d8a565b14611db4576009611d72565b5060009650919450925090505b9193509193565b6000610cff8261382e565b6000610cff82613872565b600080611de96119d3565b90508015611e0d5761197d816011811115611e0657611e06615d8a565b604b612de4565b61197d836123e9565b600080611e248585856138b1565b5095945050505050565b6007546000906001600160a01b03166315f24053611e4a612cd8565b600e54611e61600f54611a356010546011546130c6565b6040516001600160e01b031960e086901b168152600481019390935260248301919091526044820152606401611c7c565b600080611e9e81611f3d565b6000611ea86119d3565b90508015611ecc57611761816011811115611ec557611ec5615d8a565b6059612de4565b61177284612659565b6000806000611ee381611f3d565b6000611eed6119d3565b90508015611f1d57611f11816011811115611f0a57611f0a615d8a565b6041612de4565b60009350935050611f2e565b611f283333876139a5565b93509350505b611f3781612001565b50915091565b600254600160b01b900460ff16611f835760405162461bcd60e51b815260206004820152600a6024820152691c994b595b9d195c995960b21b6044820152606401610d4c565b80611ff157600660009054906101000a90046001600160a01b03166001600160a01b031663c90c20b16040518163ffffffff1660e01b8152600401600060405180830381600087803b158015611fd857600080fd5b505af1158015611fec573d6000803e3d6000fd5b505050505b506002805460ff60b01b19169055565b6002805460ff60b01b1916600160b01b1790558061206957600660009054906101000a90046001600160a01b03166001600160a01b031663632e51426040518163ffffffff1660e01b8152600401600060405180830381600087803b15801561187457600080fd5b50565b601254600090819080612086575050600854600092909150565b6000612090612cd8565b905060006120aa6040518060200160405280600081525090565b60006120cc84600e546120c7600f54611a356010546011546130c6565b613dbf565b9350905060008160038111156120e4576120e4615d8a565b146120f6579660009650945050505050565b6121008386613e11565b92509050600081600381111561211857612118615d8a565b1461212a579660009650945050505050565b50516000969095509350505050565b6001546000546040516338e6a07360e11b81526001600160a01b039182166004820152858216602482015284151560448201529116906371cd40e690606401602060405180830381865afa158015612195573d6000803e3d6000fd5b505050506040513d601f19601f820116820180604052508101906121b99190615dd0565b6121ed5760405162461bcd60e51b8152602060048201526005602482015264085a5b5c1b60da1b6044820152606401610d4c565b600080546001600160a01b038581166001600160a01b03198316179092556040519116906122709030906122259085906024016159b5565b60408051601f19818403018152918152602080830180516001600160e01b0316630adccee560e31b17905281518083019092526007825266216265636f6d6560c81b90820152613edc565b50600054604080516001600160a01b03808516825290921660208301527fd604de94d45953f9138079ec1b82d533cb2160c906d1076d1f7ed54befbca97a910160405180910390a150505050565b600080600660009054906101000a90046001600160a01b03169050826001600160a01b0316627e3dd26040518163ffffffff1660e01b8152600401602060405180830381865afa158015612316573d6000803e3d6000fd5b505050506040513d601f19601f8201168201806040525081019061233a9190615dd0565b6123865760405162461bcd60e51b815260206004820152601c60248201527f6d61726b6572206d6574686f642072657475726e65642066616c7365000000006044820152606401610d4c565b600680546001600160a01b0319166001600160a01b0385811691821790925560408051928416835260208301919091527f7ac369dbd14fa5ea3f473ed67cc9d598964a77501540ba6751eb0b3decf5870d91015b60405180910390a1600061197d565b6000806123f4612b1a565b6124045761197d6001604d612de4565b43600c54146124195761197d600a604c612de4565b600760009054906101000a90046001600160a01b03169050826001600160a01b0316632191f92a6040518163ffffffff1660e01b8152600401602060405180830381865afa15801561246f573d6000803e3d6000fd5b505050506040513d601f19601f820116820180604052508101906124939190615dd0565b6124df5760405162461bcd60e51b815260206004820152601c60248201527f6d61726b6572206d6574686f642072657475726e65642066616c7365000000006044820152606401610d4c565b600780546001600160a01b0319166001600160a01b0385811691821790925560408051928416835260208301919091527fedffc32e068c7c95dfd4bdfd5c4d939a084d6b11c4199eac8436ed234d72f926910160405180910390a16001600160a01b038116156125cd5760408051600481526024810182526020810180516001600160e01b0316636cc1140b60e11b17905290516001600160a01b0383169161258791615ebb565b6000604051808303816000865af19150503d80600081146125c4576040519150601f19603f3d011682016040523d82523d6000602084013e6125c9565b606091505b5050505b60408051600481526024810182526020810180516001600160e01b031663742a137b60e11b17905290516001600160a01b0385169161260b91615ebb565b6000604051808303816000865af19150503d8060008114612648576040519150601f19603f3d011682016040523d82523d6000602084013e61264d565b606091505b506000915061197d9050565b6000612663612b1a565b61267357610cff6001605a612de4565b43600c541461268857610cff600a605b612de4565b670de0b6b3a76400006126a86126a0846009546130c6565b600a546130c6565b11156126ba57610cff6002605c612de4565b600b80549083905560408051828152602081018590527faaa68312e2ea9d50e16af5068410ab56e1a1fd06037b1a35664812c30f82146091016123da565b600043600c541461270f57610cff600a6054612de4565b60001982141561271f5760095491505b6000612729613f78565b9050670de0b6b3a7640000612749612743600b54866130c6565b836130c6565b111561275b5761197d60026055612de4565b82600954146127bf5761276c612b1a565b61277c5761197d60016053612de4565b600980549084905560408051828152602081018690527fcdd0b588250e1398549f79cfdb8217c186688822905d6715b0834ea1c865594a910160405180910390a1505b80600a541461280b57600a80549082905560408051828152602081018490527f92eef861b6533b7d3417f39c2ad7b460eed4e88a32fa3604f30e718b7602e7dc910160405180910390a1505b600061197d565b6006546040516317b9b84b60e31b81523060048201526001600160a01b038581166024830152848116604483015260648201849052600092839291169063bdcdc258906084016020604051808303816000875af1158015612877573d6000803e3d6000fd5b505050506040513d601f19601f8201168201806040525081019061289b9190615d3c565b905080156128b8576128b06003605d83613fc2565b9150506113ac565b836001600160a01b0316856001600160a01b031614156128de576128b06002605e612de4565b6000856001600160a01b0316876001600160a01b03161415612903575060001961292b565b506001600160a01b038086166000908152601460209081526040808320938a16835292905220545b60008060008061293b85896130fc565b9094509250600084600381111561295457612954615d8a565b14612972576129656009605e612de4565b96505050505050506113ac565b6001600160a01b038a1660009081526013602052604090205461299590896130fc565b909450915060008460038111156129ae576129ae615d8a565b146129bf576129656009605f612de4565b6001600160a01b0389166000908152601360205260409020546129e29089614064565b909450905060008460038111156129fb576129fb615d8a565b14612a0c5761296560096060612de4565b6001600160a01b03808b16600090815260136020526040808220859055918b168152208190556000198514612a64576001600160a01b03808b166000908152601460209081526040808320938f168352929052208390555b886001600160a01b03168a6001600160a01b0316600080516020615fb68339815191528a604051612a9791815260200190565b60405180910390a35060009a9950505050505050505050565b6000806000612abe81611f3d565b6000612ac86119d3565b90508015612af857612aec816011811115612ae557612ae5615d8a565b6040612de4565b60009350935050612b09565b612b033387876139a5565b93509350505b612b1281612001565b509250929050565b600654604080516303e1469160e61b815290516000926001600160a01b031691829163f851a440916004808201926020929091908290030181865afa158015612b67573d6000803e3d6000fd5b505050506040513d601f19601f82011682018060405250810190612b8b9190615ed7565b6001600160a01b0316336001600160a01b0316148015612c085750806001600160a01b0316630a755ec26040518163ffffffff1660e01b8152600401602060405180830381865afa158015612be4573d6000803e3d6000fd5b505050506040513d601f19601f82011682018060405250810190612c089190615dd0565b806119e557506001546001600160a01b0316331480156119e55750806001600160a01b0316632f1069ba6040518163ffffffff1660e01b8152600401602060405180830381865afa158015612c61573d6000803e3d6000fd5b505050506040513d601f19601f820116820180604052508101906119e59190615dd0565b600080600080612c958686614094565b90925090506000826003811115612cae57612cae615d8a565b14612cbf5750915060009050612cd1565b6000612cca82614110565b9350935050505b9250929050565b6017546040516370a0823160e01b81523060048201526000916001600160a01b031690634cdad5069082906370a0823190602401602060405180830381865afa158015612d29573d6000803e3d6000fd5b505050506040513d601f19601f82011682018060405250810190612d4d9190615d3c565b6040518263ffffffff1660e01b8152600401611c7c91815260200190565b601754604051636e553f6560e01b8152600481018390523060248201526001600160a01b0390911690636e553f65906044016020604051808303816000875af1158015612dbc573d6000803e3d6000fd5b505050506040513d601f19601f82011682018060405250810190612de09190615d3c565b5050565b60007f45b96fe442630264581b197e84bbada861235052c5a1aadfff9ea4e40a969aa0836011811115612e1957612e19615d8a565b836063811115612e2b57612e2b615d8a565b60408051928352602083019190915260009082015260600160405180910390a182601181111561197d5761197d615d8a565b600080612e68612b1a565b612e785761197d6001603c612de4565b43600c5414612e8d5761197d600a603e612de4565b82612e96612cd8565b1015612ea85761197d600e603d612de4565b600f54831115612ebe5761197d6002603f612de4565b612eca600f5484614128565b600f8190559050612edb3384614162565b7f3bad0c59cf2f06e7314077049f48a93578cd16f5ef92329f1dab1420a99c177e3384836040516123da93929190615ef4565b600080612f1a81611f3d565b6000612f246119d3565b90508015612f4857611761816011811115612f4157612f41615d8a565b602a612de4565b611772336000866141df565b6001600160a01b038116600090815260156020526040812080548291829182918291612f895750600096879650945050505050565b612f998160000154600d54614765565b90945092506000846003811115612fb257612fb2615d8a565b14612fc557509195600095509350505050565b612fd38382600101546147af565b90945091506000846003811115612fec57612fec615d8a565b14612fff57509195600095509350505050565b506000969095509350505050565b60008043600c54146130255761197d600a6035612de4565b8261302e612cd8565b10156130405761197d600e6034612de4565b6011548311156130565761197d60026036612de4565b61306260115484614128565b601181905560015490915061280b906001600160a01b031684614162565b600080600061308e81611f3d565b60006130986119d3565b905080156130bc57611f118160118111156130b5576130b5615d8a565b6020612de4565b611f2833866147da565b600061197d8383604051806040016040528060118152602001706164646974696f6e206f766572666c6f7760781b815250614b98565b60008083831161311b5760006131128486615f15565b91509150612cd1565b50600390506000612cd1565b60008061314260405180602001604052808681525084614bc9565b9050600061315282600e54614bfa565b9050600061316282600e546130c6565b905060006131836040518060200160405280600b5481525084600f54614c12565b905060006131a46040518060200160405280600a5481525085601154614c12565b905060006131c5604051806020016040528060095481525086601054614c12565b905060006131d887600d54600d54614c12565b600c8d9055600d819055600e869055600f85905560118490556010839055604080518d815260208101899052908101829052606081018790529091507f4dec04e750ca11537cabcd8a9eab06494de08da3735bc8871cd41250e190bc049060800160405180910390a160009c9b505050505050505050505050565b60008043600c541461326b5761197d600a6039612de4565b82613274612cd8565b10156132865761197d600e6038612de4565b60105483111561329c5761197d6002603a612de4565b6132a860105484614128565b90508060108190555061280b600660009054906101000a90046001600160a01b03166001600160a01b031663f851a4406040518163ffffffff1660e01b8152600401602060405180830381865afa158015613307573d6000803e3d6000fd5b505050506040513d601f19601f8201168201806040525081019061332b9190615ed7565b84614162565b60065460405163d02f735160e01b81523060048201526001600160a01b0386811660248301528581166044830152848116606483015260848201849052600092839291169063d02f73519060a4016020604051808303816000875af115801561339e573d6000803e3d6000fd5b505050506040513d601f19601f820116820180604052508101906133c29190615d3c565b905080156133d7576128b06003601d83613fc2565b846001600160a01b0316846001600160a01b031614156133fd576128b06006601e612de4565b613462604080516101808101909152806000815260200160008152602001600081526020016000815260200160008152602001600081526020016000815260200160008152602001600081526020016000815260200160008152602001600081525090565b6001600160a01b03851660009081526013602052604090205461348590856130fc565b602083018190528282600381111561349f5761349f615d8a565b60038111156134b0576134b0615d8a565b90525060009050815160038111156134ca576134ca615d8a565b146134fa576134f16009601c836000015160038111156134ec576134ec615d8a565b613fc2565b925050506113ac565b613519846040518060200160405280666379da05b60000815250614c33565b6080820152604080516020810190915267016345785d8a0000815261353f908590614c33565b610140820152608081015161356490613559908690614128565b826101400151614128565b606082015261357161206c565b60c083018190528282600381111561358b5761358b615d8a565b600381111561359c5761359c615d8a565b90525060009050815160038111156135b6576135b6615d8a565b146136035760405162461bcd60e51b815260206004820152601860248201527f65786368616e67652072617465206d617468206572726f7200000000000000006044820152606401610d4c565b61362360405180602001604052808360c001518152508260800151614bfa565b60a0820152604080516020810190915260c0820151815261014082015161364a9190614bfa565b610160820152600f5460a082015161366291906130c6565b60e0820152601254608082015161367c9161355991614128565b61012082015260115461016082015161369591906130c6565b6101008201526001600160a01b03861660009081526013602052604090205460608201516136c39190614064565b60408301819052828260038111156136dd576136dd615d8a565b60038111156136ee576136ee615d8a565b905250600090508151600381111561370857613708615d8a565b1461372a576134f16009601b836000015160038111156134ec576134ec615d8a565b60e0810151600f556101208101516012556101008101516011556020808201516001600160a01b0387811660008181526013855260408082209490945583860151928b1680825290849020929092556060850151925192835290929091600080516020615fb6833981519152910160405180910390a3306001600160a01b0316856001600160a01b0316600080516020615fb683398151915283608001516040516137d791815260200190565b60405180910390a360a081015160e08201516040517fa91e67c5ea634cd43a12c5a482724b03de01e85ca68702a53d0c2f45cb7c1dc592613819923092615ef4565b60405180910390a16000979650505050505050565b60008061383a81611f3d565b60006138446119d3565b905080156138685761176181601181111561386157613861615d8a565b600a612de4565b6117723385614c56565b60008061387e81611f3d565b60006138886119d3565b905080156138a557611761816011811115612f4157612f41615d8a565b611772338560006141df565b60008060006138bf81611f3d565b60006138c96119d3565b905080156138f9576138ed8160118111156138e6576138e6615d8a565b6011612de4565b60009350935050613993565b846001600160a01b031663a6afed956040518163ffffffff1660e01b81526004016020604051808303816000875af1158015613939573d6000803e3d6000fd5b505050506040513d601f19601f8201168201806040525081019061395d9190615d3c565b90508015613981576138ed81601181111561397a5761397a615d8a565b6012612de4565b61398d33888888614fea565b93509350505b61399c81612001565b50935093915050565b600654604051631200453160e11b81523060048201526001600160a01b03858116602483015284811660448301526064820184905260009283928392909116906324008a62906084016020604051808303816000875af1158015613a0d573d6000803e3d6000fd5b505050506040513d601f19601f82011682018060405250810190613a319190615d3c565b90508015613a5257613a466003604383613fc2565b60009250925050613db7565b43600c5414613a6757613a46600a6044612de4565b613ab06040805161010081019091528060008152602001600081526020016000815260200160008152602001600081526020016000815260200160008152602001600081525090565b6001600160a01b0386166000908152601560205260409020600101546060820152613ada86612f54565b6080830181905260208301826003811115613af757613af7615d8a565b6003811115613b0857613b08615d8a565b9052506000905081602001516003811115613b2557613b25615d8a565b14613b5457613b4760096042836020015160038111156134ec576134ec615d8a565b6000935093505050613db7565b600019851415613b6d5760808101516040820152613b75565b604081018590525b613b838782604001516154ab565b60e082018190526080820151613b98916130fc565b60a0830181905260208301826003811115613bb557613bb5615d8a565b6003811115613bc657613bc6615d8a565b9052506000905081602001516003811115613be357613be3615d8a565b14613c565760405162461bcd60e51b815260206004820152603a60248201527f52455041595f424f52524f575f4e45575f4143434f554e545f424f52524f575f60448201527f42414c414e43455f43414c43554c4154494f4e5f4641494c45440000000000006064820152608401610d4c565b613c66600e548260e001516130fc565b60c0830181905260208301826003811115613c8357613c83615d8a565b6003811115613c9457613c94615d8a565b9052506000905081602001516003811115613cb157613cb1615d8a565b14613d185760405162461bcd60e51b815260206004820152603160248201527f52455041595f424f52524f575f4e45575f544f54414c5f42414c414e43455f43604482015270105310d55310551253d397d19052531151607a1b6064820152608401610d4c565b60a081810180516001600160a01b03898116600081815260156020908152604091829020948555600d5460019095019490945560c0870151600e81905560e088015195518251948f16855294840192909252820193909352606081019190915260808101919091527f1a2a22cb034d26d1854bdc6666a5b91fe25efbbb5dcad3b0355478d6f5c362a1910160405180910390a160e00151600093509150505b935093915050565b600080600080613dcf8787614064565b90925090506000826003811115613de857613de8615d8a565b14613df95750915060009050613db7565b613e0381866130fc565b935093505050935093915050565b6000613e296040518060200160405280600081525090565b600080613e3e86670de0b6b3a7640000614765565b90925090506000826003811115613e5757613e57615d8a565b14613e7657506040805160208101909152600081529092509050612cd1565b600080613e8383886147af565b90925090506000826003811115613e9c57613e9c615d8a565b14613ebf5781604051806020016040528060008152509550955050505050612cd1565b604080516020810190915290815260009890975095505050505050565b6060600080856001600160a01b031685604051613ef99190615ebb565b6000604051808303816000865af19150503d8060008114613f36576040519150601f19603f3d011682016040523d82523d6000602084013e613f3b565b606091505b509150915081613f6f57805115613f555780518082602001fd5b8360405162461bcd60e51b8152600401610d4c91906159b5565b95945050505050565b6001546040805163dd86fea160e01b815290516000926001600160a01b03169163dd86fea19160048083019260209291908290030181865afa158015611c99573d6000803e3d6000fd5b60007f45b96fe442630264581b197e84bbada861235052c5a1aadfff9ea4e40a969aa0846011811115613ff757613ff7615d8a565b84606381111561400957614009615d8a565b604080519283526020830191909152810184905260600160405180910390a1600384601181111561403c5761403c615d8a565b146140585783601181111561405357614053615d8a565b6113ac565b6113ac826103e8615ea3565b600080806140728486615ea3565b905084811061408657600092509050612cd1565b600260009250925050612cd1565b60006140ac6040518060200160405280600081525090565b6000806140bd866000015186614765565b909250905060008260038111156140d6576140d6615d8a565b146140f557506040805160208101909152600081529092509050612cd1565b60408051602081019091529081526000969095509350505050565b8051600090610cff90670de0b6b3a764000090615f2c565b600061197d8383604051806040016040528060158152602001747375627472616374696f6e20756e646572666c6f7760581b815250615561565b601754604051632d182be560e21b8152600481018390526001600160a01b0384811660248301523060448301529091169063b460af94906064016020604051808303816000875af11580156141bb573d6000803e3d6000fd5b505050506040513d601f19601f82011682018060405250810190610f2c9190615d3c565b60008215806141ec575081155b6142555760405162461bcd60e51b815260206004820152603460248201527f6f6e65206f662072656465656d546f6b656e73496e206f722072656465656d416044820152736d6f756e74496e206d757374206265207a65726f60601b6064820152608401610d4c565b6142966040805160e0810190915280600081526020016000815260200160008152602001600081526020016000815260200160008152602001600081525090565b61429e61206c565b60408301819052602083018260038111156142bb576142bb615d8a565b60038111156142cc576142cc615d8a565b90525060009050816020015160038111156142e9576142e9615d8a565b146143135761430b6009602e836020015160038111156134ec576134ec615d8a565b91505061197d565b83156143ac57606081018490526040805160208101825290820151815261433a9085612c85565b608083018190526020830182600381111561435757614357615d8a565b600381111561436857614368615d8a565b905250600090508160200151600381111561438557614385615d8a565b146143a75761430b6009602c836020015160038111156134ec576134ec615d8a565b61443d565b6143c88360405180602001604052808460400151815250615590565b60608301819052602083018260038111156143e5576143e5615d8a565b60038111156143f6576143f6615d8a565b905250600090508160200151600381111561441357614413615d8a565b146144355761430b6009602d836020015160038111156134ec576134ec615d8a565b608081018390525b600654606082015160405163eabe7d9160e01b81526000926001600160a01b03169163eabe7d91916144769130918b9190600401615f4e565b6020604051808303816000875af1158015614495573d6000803e3d6000fd5b505050506040513d601f19601f820116820180604052508101906144b99190615d3c565b905080156144d7576144ce6003602b83613fc2565b9250505061197d565b43600c54146144ec576144ce600a602f612de4565b6144fc60125483606001516130fc565b60a084018190526020840182600381111561451957614519615d8a565b600381111561452a5761452a615d8a565b905250600090508260200151600381111561454757614547615d8a565b14614569576144ce60096031846020015160038111156134ec576134ec615d8a565b6001600160a01b038616600090815260136020526040902054606083015161459191906130fc565b60c08401819052602084018260038111156145ae576145ae615d8a565b60038111156145bf576145bf615d8a565b90525060009050826020015160038111156145dc576145dc615d8a565b146145fe576144ce60096030846020015160038111156134ec576134ec615d8a565b816080015161460b612cd8565b101561461d576144ce600e6032612de4565b60a082015160125560c08201516001600160a01b0387166000908152601360205260409020556080820151614653908790614162565b306001600160a01b0316866001600160a01b0316600080516020615fb6833981519152846060015160405161468a91815260200190565b60405180910390a3608082015160608301516040517fe5b754fb1abb7f01b499791d0b820ae3b6af3424ac1c59768edb53f4ec31a929926146cc928a92615ef4565b60405180910390a1600654608083015160608401516040516351dff98960e01b81523060048201526001600160a01b038a81166024830152604482019390935260648101919091529116906351dff98990608401600060405180830381600087803b15801561473a57600080fd5b505af115801561474e573d6000803e3d6000fd5b506000925061475b915050565b9695505050505050565b6000808361477857506000905080612cd1565b60006147848486615f72565b9050836147918683615f2c565b146147a457600260009250925050612cd1565b600092509050612cd1565b600080826147c35750600190506000612cd1565b60006147cf8486615f2c565b915091509250929050565b600654604051634ef4c3e160e01b8152600091829182916001600160a01b031690634ef4c3e19061481390309089908990600401615f4e565b6020604051808303816000875af1158015614832573d6000803e3d6000fd5b505050506040513d601f19601f820116820180604052508101906148569190615d3c565b905080156148775761486b6003602183613fc2565b60009250925050612cd1565b43600c541461488c5761486b600a6024612de4565b6148cd6040805160e0810190915280600081526020016000815260200160008152602001600081526020016000815260200160008152602001600081525090565b6148d561206c565b60408301819052602083018260038111156148f2576148f2615d8a565b600381111561490357614903615d8a565b905250600090508160200151600381111561492057614920615d8a565b1461494f5761494260096023836020015160038111156134ec576134ec615d8a565b6000935093505050612cd1565b61495986866154ab565b60c082018190526040805160208101825290830151815261497a9190615590565b606083018190526020830182600381111561499757614997615d8a565b60038111156149a8576149a8615d8a565b90525060009050816020015160038111156149c5576149c5615d8a565b14614a125760405162461bcd60e51b815260206004820181905260248201527f4d494e545f45584348414e47455f43414c43554c4154494f4e5f4641494c45446044820152606401610d4c565b614a2260125482606001516130c6565b60808201526001600160a01b0386166000908152601360205260409020546060820151614a4f91906130c6565b60a0820181905260808201516012556001600160a01b038716600090815260136020526040908190209190915560c0820151606083015191517f4c209b5fc8ad50758f13e2e1088ba56a560dff690a1c6fef26394f4c03821c4f92614ab8928a92909190615ef4565b60405180910390a1856001600160a01b0316306001600160a01b0316600080516020615fb68339815191528360600151604051614af791815260200190565b60405180910390a360065460c082015160608301516040516341c728b960e01b81523060048201526001600160a01b038a81166024830152604482019390935260648101919091529116906341c728b990608401600060405180830381600087803b158015614b6557600080fd5b505af1158015614b79573d6000803e3d6000fd5b5060009250614b86915050565b8160c001519350935050509250929050565b600080614ba58486615ea3565b905082858210156112945760405162461bcd60e51b8152600401610d4c91906159b5565b6040805160208101909152600081526040518060200160405280614bf18560000151856155a0565b90529392505050565b600080614c078484614bc9565b90506113ac81614110565b600080614c1f8585614bc9565b9050613f6f614c2d82614110565b846130c6565b6000670de0b6b3a7640000614c4c8484600001516155a0565b61197d9190615f2c565b60065460405163368f515360e21b815260009182916001600160a01b039091169063da3d454c90614c8f90309088908890600401615f4e565b6020604051808303816000875af1158015614cae573d6000803e3d6000fd5b505050506040513d601f19601f82011682018060405250810190614cd29190615d3c565b90508015614cef57614ce76003601083613fc2565b915050610cff565b43600c5414614d0457614ce7600a600c612de4565b6000614d0e612cd8565b905083811015614d2d57614d24600e600b612de4565b92505050610cff565b614d59604080516080810190915280600081526020016000815260200160008152602001600081525090565b614d6286612f54565b6020830181905282826003811115614d7c57614d7c615d8a565b6003811115614d8d57614d8d615d8a565b9052506000905081516003811115614da757614da7615d8a565b14614dd257614dc8600980836000015160038111156134ec576134ec615d8a565b9350505050610cff565b614de0816020015186614064565b6040830181905282826003811115614dfa57614dfa615d8a565b6003811115614e0b57614e0b615d8a565b9052506000905081516003811115614e2557614e25615d8a565b14614e4757614dc86009600e836000015160038111156134ec576134ec615d8a565b6006546040828101519051631de6c8a560e21b815230600482015260248101919091526001600160a01b039091169063779b2294906044016020604051808303816000875af1158015614e9e573d6000803e3d6000fd5b505050506040513d601f19601f82011682018060405250810190614ec29190615d3c565b92508215614ed757614dc86003601085613fc2565b614ee3600e5486614064565b6060830181905282826003811115614efd57614efd615d8a565b6003811115614f0e57614f0e615d8a565b9052506000905081516003811115614f2857614f28615d8a565b14614f4a57614dc86009600d836000015160038111156134ec576134ec615d8a565b6040808201516001600160a01b0388166000908152601560205291909120908155600d546001909101556060810151600e55614f868686614162565b60408082015160608084015183516001600160a01b038b168152602081018a9052938401929092528201527f13ed6866d4e1ee6da46f845c46d7e54120883d75c5ea9a2dacc1c4ca8984ab809060800160405180910390a160009695505050505050565b600654604051632fe3f38f60e11b81523060048201526001600160a01b03838116602483015286811660448301528581166064830152608482018590526000928392839290911690635fc7e71e9060a4016020604051808303816000875af115801561505a573d6000803e3d6000fd5b505050506040513d601f19601f8201168201806040525081019061507e9190615d3c565b9050801561509f576150936003601483613fc2565b600092509250506154a2565b43600c54146150b457615093600a6018612de4565b43846001600160a01b0316636c540baf6040518163ffffffff1660e01b8152600401602060405180830381865afa1580156150f3573d6000803e3d6000fd5b505050506040513d601f19601f820116820180604052508101906151179190615d3c565b1461512857615093600a6013612de4565b866001600160a01b0316866001600160a01b0316141561514e5761509360066019612de4565b8461515f5761509360076017612de4565b6000198514156151755761509360076016612de4565b6000806151838989896139a5565b909250905081156151b8576151aa8260118111156151a3576151a3615d8a565b601a612de4565b6000945094505050506154a2565b60065460405163c488847b60e01b815260009182916001600160a01b039091169063c488847b906151f19030908c908890600401615f4e565b6040805180830381865afa15801561520d573d6000803e3d6000fd5b505050506040513d601f19601f820116820180604052508101906152319190615f91565b909250905081156152a05760405162461bcd60e51b815260206004820152603360248201527f4c49515549444154455f434f4d5054524f4c4c45525f43414c43554c4154455f604482015272105353d5539517d4d152569157d19052531151606a1b6064820152608401610d4c565b6040516370a0823160e01b81526001600160a01b038b811660048301528291908a16906370a0823190602401602060405180830381865afa1580156152e9573d6000803e3d6000fd5b505050506040513d601f19601f8201168201806040525081019061530d9190615d3c565b101561535b5760405162461bcd60e51b815260206004820152601860248201527f4c49515549444154455f5345495a455f544f4f5f4d55434800000000000000006044820152606401610d4c565b60006001600160a01b0389163014156153815761537a308d8d85613331565b90506153f7565b60405163b2a02ff160e01b81526001600160a01b038a169063b2a02ff1906153b1908f908f908790600401615f4e565b6020604051808303816000875af11580156153d0573d6000803e3d6000fd5b505050506040513d601f19601f820116820180604052508101906153f49190615d3c565b90505b801561543c5760405162461bcd60e51b81526020600482015260146024820152731d1bdad95b881cd95a5e9d5c994819985a5b195960621b6044820152606401610d4c565b604080516001600160a01b038e811682528d811660208301528183018790528b1660608201526080810184905290517f298637f684da70674f26509b10f07ec2fbc77a335ab1e7d6215a4b2484d8bb529181900360a00190a16000975092955050505050505b94509492505050565b6016546040516323b872dd60e01b81526000916001600160a01b0316906323b872dd906154e090869030908790600401615f4e565b6020604051808303816000875af11580156154ff573d6000803e3d6000fd5b505050506040513d601f19601f820116820180604052508101906155239190615dd0565b6155585760405162461bcd60e51b8152600401610d4c906020808252600490820152631cd95b9960e21b604082015260600190565b610d6a82612d6b565b600081848411156155855760405162461bcd60e51b8152600401610d4c91906159b5565b506113ac8385615f15565b600080600080612c9586866155e2565b600061197d83836040518060400160405280601781526020017f6d756c7469706c69636174696f6e206f766572666c6f77000000000000000000815250615655565b60006155fa6040518060200160405280600081525090565b60008061560f670de0b6b3a764000087614765565b9092509050600082600381111561562857615628615d8a565b1461564757506040805160208101909152600081529092509050612cd1565b612cca818660000151613e11565b6000831580615662575082155b1561566f5750600061197d565b600061567b8486615f72565b9050836156888683615f2c565b1483906112945760405162461bcd60e51b8152600401610d4c91906159b5565b8280546156b490615d55565b90600052602060002090601f0160209004810192826156d6576000855561571c565b82601f106156ef57805160ff191683800117855561571c565b8280016001018555821561571c579182015b8281111561571c578251825591602001919060010190615701565b506117bf92915061579c565b82805461573490615d55565b90600052602060002090601f016020900481019282615756576000855561571c565b82601f1061576f5782800160ff1982351617855561571c565b8280016001018555821561571c579182015b8281111561571c578235825591602001919060010190615781565b5b808211156117bf576000815560010161579d565b6001600160a01b038116811461206957600080fd5b80356157d1816157b1565b919050565b634e487b7160e01b600052604160045260246000fd5b604051601f8201601f1916810167ffffffffffffffff81118282101715615815576158156157d6565b604052919050565b600067ffffffffffffffff821115615837576158376157d6565b50601f01601f191660200190565b600082601f83011261585657600080fd5b81356158696158648261581d565b6157ec565b81815284602083860101111561587e57600080fd5b816020850160208301376000918101602001919091529392505050565b600080600080600080600080610100898b0312156158b857600080fd5b88356158c3816157b1565b975060208901356158d3816157b1565b965060408901356158e3816157b1565b955060608901356158f3816157b1565b9450608089013567ffffffffffffffff8082111561591057600080fd5b61591c8c838d01615845565b955060a08b013591508082111561593257600080fd5b5061593f8b828c01615845565b93505060c0890135915060e089013590509295985092959890939650565b60005b83811015615978578181015183820152602001615960565b838111156114415750506000910152565b600081518084526159a181602086016020860161595d565b601f01601f19169290920160200192915050565b60208152600061197d6020830184615989565b600080604083850312156159db57600080fd5b82356159e6816157b1565b946020939093013593505050565b600060208284031215615a0657600080fd5b5035919050565b600060208284031215615a1f57600080fd5b813561197d816157b1565b60ff8116811461206957600080fd5b80356157d181615a2a565b60008060008060008060008060006101208a8c031215615a6357600080fd5b8935615a6e816157b1565b985060208a0135615a7e816157b1565b9750615a8c60408b016157c6565b965060608a0135955060808a013567ffffffffffffffff80821115615ab057600080fd5b615abc8d838e01615845565b965060a08c0135915080821115615ad257600080fd5b50615adf8c828d01615845565b945050615aee60c08b01615a39565b925060e08a013591506101008a013590509295985092959850929598565b600080600060608486031215615b2157600080fd5b8335615b2c816157b1565b92506020840135615b3c816157b1565b929592945050506040919091013590565b60008083601f840112615b5f57600080fd5b50813567ffffffffffffffff811115615b7757600080fd5b602083019150836020828501011115612cd157600080fd5b60008060008060408587031215615ba557600080fd5b843567ffffffffffffffff80821115615bbd57600080fd5b615bc988838901615b4d565b90965094506020870135915080821115615be257600080fd5b50615bef87828801615b4d565b95989497509550505050565b801515811461206957600080fd5b60008060008060608587031215615c1f57600080fd5b8435615c2a816157b1565b93506020850135615c3a81615bfb565b9250604085013567ffffffffffffffff811115615c5657600080fd5b615bef87828801615b4d565b60008060208385031215615c7557600080fd5b823567ffffffffffffffff811115615c8c57600080fd5b615c9885828601615b4d565b90969095509350505050565b60008060408385031215615cb757600080fd5b8235615cc2816157b1565b91506020830135615cd2816157b1565b809150509250929050565b600080600060608486031215615cf257600080fd5b8335615cfd816157b1565b9250602084013591506040840135615d14816157b1565b809150509250925092565b600060208284031215615d3157600080fd5b815161197d81615a2a565b600060208284031215615d4e57600080fd5b5051919050565b600181811c90821680615d6957607f821691505b60208210811415610d6a57634e487b7160e01b600052602260045260246000fd5b634e487b7160e01b600052602160045260246000fd5b6020808252601690820152751858d8dc9d59481a5b9d195c995cdd0819985a5b195960521b604082015260600190565b600060208284031215615de257600080fd5b815161197d81615bfb565b600080600060608486031215615e0257600080fd5b8351615e0d816157b1565b6020850151909350615e1e81615bfb565b604085015190925067ffffffffffffffff811115615e3b57600080fd5b8401601f81018613615e4c57600080fd5b8051615e5a6158648261581d565b818152876020838501011115615e6f57600080fd5b615e8082602083016020860161595d565b8093505050509250925092565b634e487b7160e01b600052601160045260246000fd5b60008219821115615eb657615eb6615e8d565b500190565b60008251615ecd81846020870161595d565b9190910192915050565b600060208284031215615ee957600080fd5b815161197d816157b1565b6001600160a01b039390931683526020830191909152604082015260600190565b600082821015615f2757615f27615e8d565b500390565b600082615f4957634e487b7160e01b600052601260045260246000fd5b500490565b6001600160a01b039384168152919092166020820152604081019190915260600190565b6000816000190483118215151615615f8c57615f8c615e8d565b500290565b60008060408385031215615fa457600080fd5b50508051602090910151909290915056feddf252ad1be2c89b69c2b068fc378daa952ba7f163c4a11628f55a4df523b3efa164736f6c634300080a000a608060405234801561001057600080fd5b5061613480620000216000396000f3fe6080604052600436106103b85760003560e01c80637f1e06be116101f2578063b2a02ff11161010d578063dd62ed3e116100a0578063f5e3c4621161006f578063f5e3c46214610ad5578063f8f9da2814610af5578063fca7820b14610b0a578063fe9c44ae14610b2a57600080fd5b8063dd62ed3e14610a2f578063ef01df4f14610a75578063f2b3abbd14610a95578063f3fdb15a14610ab557600080fd5b8063c5ebeaec116100dc578063c5ebeaec146109c3578063db006a75146109e3578063dbfe7c1914610a03578063dc028ab114610a1957600080fd5b8063b2a02ff114610932578063bd6d894d14610952578063be99f11914610967578063c37f68e21461098357600080fd5b8063a0712d6811610185578063aa5af0fd11610154578063aa5af0fd146108d7578063aaf5eb68146108ed578063ac784ddc14610909578063ae9d70b01461091d57600080fd5b8063a0712d6814610862578063a6afed9514610882578063a7b820df14610897578063a9059cbb146108b757600080fd5b806391dd36c6116101c157806391dd36c6146107ed57806395d89b411461080d57806395dd919314610822578063a03dce8d1461084257600080fd5b80637f1e06be14610781578063852a12e3146107a15780638d02d9a1146107c15780638f840ddd146107d757600080fd5b80633af9e669116102e2578063601a0bf1116102755780636f307dc3116102445780636f307dc3146106f657806370a082311461071657806373acee981461074c5780637e5465ba1461076157600080fd5b8063601a0bf11461068f57806361feacff146106af5780636752e702146106c55780636c540baf146106e057600080fd5b806350d85b73116102b157806350d85b731461060f57806356e677281461062f5780635c60da1b1461064f5780635fe3b5671461066f57600080fd5b80633af9e669146105b55780633b1d21a2146105d557806347bd3718146105ea5780634e71d92d1461060057600080fd5b806318160ddd1161035a57806323b872dd1161032957806323b872dd146105295780632608f81814610549578063313ce5671461056957806334154d4c1461059557600080fd5b806318160ddd146104d6578063182df0f5146104ec5780631db7894414610501578063219ef65c1461050957600080fd5b80630e752702116103965780630e7527021461043a57806315761d5114610468578063173b9904146104a057806317bfdfbc146104b657600080fd5b806306db3ecd146103bd57806306fdde03146103df578063095ea7b31461040a575b600080fd5b3480156103c957600080fd5b506103dd6103d83660046159ed565b610b3e565b005b3480156103eb57600080fd5b506103f4610c4c565b6040516104019190615b07565b60405180910390f35b34801561041657600080fd5b5061042a610425366004615b1a565b610cda565b6040519015158152602001610401565b34801561044657600080fd5b5061045a610455366004615b46565b610d4a565b604051908152602001610401565b34801561047457600080fd5b50600154610488906001600160a01b031681565b6040516001600160a01b039091168152602001610401565b3480156104ac57600080fd5b5061045a600b5481565b3480156104c257600080fd5b5061045a6104d1366004615b5f565b610d5e565b3480156104e257600080fd5b5061045a60125481565b3480156104f857600080fd5b5061045a610db5565b6103dd610e46565b34801561051557600080fd5b506103dd610524366004615b96565b610f77565b34801561053557600080fd5b5061042a610544366004615c5e565b6112a6565b34801561055557600080fd5b5061045a610564366004615b1a565b6112cc565b34801561057557600080fd5b506005546105839060ff1681565b60405160ff9091168152602001610401565b3480156105a157600080fd5b506103dd6105b0366004615ce1565b6112e2565b3480156105c157600080fd5b5061045a6105d0366004615b5f565b611349565b3480156105e157600080fd5b5061045a6113f9565b3480156105f657600080fd5b5061045a600e5481565b34801561060c57600080fd5b50005b34801561061b57600080fd5b506103dd61062a366004615d5b565b611408565b34801561063b57600080fd5b506103dd61064a366004615db4565b61148c565b34801561065b57600080fd5b50600054610488906001600160a01b031681565b34801561067b57600080fd5b50600654610488906001600160a01b031681565b34801561069b57600080fd5b5061045a6106aa366004615b46565b61176c565b3480156106bb57600080fd5b5061045a60105481565b3480156106d157600080fd5b5061045a666379da05b6000081565b3480156106ec57600080fd5b5061045a600c5481565b34801561070257600080fd5b50601654610488906001600160a01b031681565b34801561072257600080fd5b5061045a610731366004615b5f565b6001600160a01b031660009081526013602052604090205490565b34801561075857600080fd5b5061045a6117c3565b34801561076d57600080fd5b506103dd61077c366004615df6565b611808565b34801561078d57600080fd5b506103dd61079c366004615b5f565b611915565b3480156107ad57600080fd5b5061045a6107bc366004615b46565b6119da565b3480156107cd57600080fd5b5061045a60095481565b3480156107e357600080fd5b5061045a600f5481565b3480156107f957600080fd5b5061045a610808366004615b46565b6119e5565b34801561081957600080fd5b506103f4611a28565b34801561082e57600080fd5b5061045a61083d366004615b5f565b611a35565b34801561084e57600080fd5b5061045a61085d366004615b46565b611ad6565b34801561086e57600080fd5b5061045a61087d366004615b46565b611b19565b34801561088e57600080fd5b5061045a611b25565b3480156108a357600080fd5b5061045a6108b2366004615b46565b611cdc565b3480156108c357600080fd5b5061042a6108d2366004615b1a565b611d1f565b3480156108e357600080fd5b5061045a600d5481565b3480156108f957600080fd5b5061045a670de0b6b3a764000081565b34801561091557600080fd5b50600061042a565b34801561092957600080fd5b5061045a611d4c565b34801561093e57600080fd5b5061045a61094d366004615c5e565b611e0f565b34801561095e57600080fd5b5061045a611e33565b34801561097357600080fd5b5061045a67016345785d8a000081565b34801561098f57600080fd5b506109a361099e366004615b5f565b611e79565b604080519485526020850193909352918301526060820152608001610401565b3480156109cf57600080fd5b5061045a6109de366004615b46565b611f1a565b3480156109ef57600080fd5b5061045a6109fe366004615b46565b611f25565b348015610a0f57600080fd5b5061045a600a5481565b348015610a2557600080fd5b5061045a60115481565b348015610a3b57600080fd5b5061045a610a4a366004615df6565b6001600160a01b03918216600090815260146020908152604080832093909416825291909152205490565b348015610a8157600080fd5b50601754610488906001600160a01b031681565b348015610aa157600080fd5b5061045a610ab0366004615b5f565b611f30565b348015610ac157600080fd5b50600754610488906001600160a01b031681565b348015610ae157600080fd5b5061045a610af0366004615e2f565b611f68565b348015610b0157600080fd5b5061045a611f80565b348015610b1657600080fd5b5061045a610b25366004615b46565b611fe4565b348015610b3657600080fd5b50600161042a565b60006702c68af0bb14000090506000896001600160a01b031663313ce5676040518163ffffffff1660e01b8152600401602060405180830381865afa158015610b8b573d6000803e3d6000fd5b505050506040513d601f19601f82011682018060405250810190610baf9190615e71565b9050610bc2898989858a8a878b8b610f77565b601680546001600160a01b0319166001600160a01b038c16908117909155604080516318160ddd60e01b815290516318160ddd916004808201926020929091908290030181865afa158015610c1b573d6000803e3d6000fd5b505050506040513d601f19601f82011682018060405250810190610c3f9190615e8e565b5050505050505050505050565b60038054610c5990615ea7565b80601f0160208091040260200160405190810160405280929190818152602001828054610c8590615ea7565b8015610cd25780601f10610ca757610100808354040283529160200191610cd2565b820191906000526020600020905b815481529060010190602001808311610cb557829003601f168201915b505050505081565b3360008181526014602090815260408083206001600160a01b03871680855292528083208590555191929182907f8c5be1e5ebec7d5bd14f71427d1e84f3dd0314c0f7b2291e5b200ac8c7c3b92590610d369087815260200190565b60405180910390a360019150505b92915050565b600080610d5683612027565b509392505050565b600080610d6a8161208f565b6000610d74611b25565b14610d9a5760405162461bcd60e51b8152600401610d9190615ef2565b60405180910390fd5b610da383611a35565b91505b610daf81612153565b50919050565b6000806000610dc26121be565b90925090506000826003811115610ddb57610ddb615edc565b14610d445760405162461bcd60e51b815260206004820152603560248201527f65786368616e67655261746553746f7265643a2065786368616e67655261746560448201527414dd1bdc9959125b9d195c9b985b0819985a5b1959605a1b6064820152608401610d91565b333014801590610ec85750600660009054906101000a90046001600160a01b03166001600160a01b031663dd5cd22c6040518163ffffffff1660e01b8152600401602060405180830381865afa158015610ea4573d6000803e3d6000fd5b505050506040513d601f19601f82011682018060405250810190610ec89190615f22565b15610f7557600154600080546040516345cc970560e01b81526001600160a01b039182166004820152919283928392909116906345cc970590602401600060405180830381865afa158015610f21573d6000803e3d6000fd5b505050506040513d6000823e601f3d908101601f19168201604052610f499190810190615f3f565b60005492955090935091506001600160a01b03808516911614610f7157610f7183838361228b565b5050505b565b336001600160a01b03891614610fe15760405162461bcd60e51b815260206004820152602960248201527f6f6e6c7920467573652061646d696e206d617920696e697469616c697a6520746044820152681a19481b585c9ad95d60ba1b6064820152608401610d91565b600c54158015610ff15750600d54155b6110495760405162461bcd60e51b815260206004820152602360248201527f6d61726b6574206d6179206f6e6c7920626520696e697469616c697a6564206f6044820152626e636560e81b6064820152608401610d91565b600180546001600160a01b0319166001600160a01b038a161790556008869055856110cf5760405162461bcd60e51b815260206004820152603060248201527f696e697469616c2065786368616e67652072617465206d75737420626520677260448201526f32b0ba32b9103a3430b7103d32b9379760811b6064820152608401610d91565b60006110da8a612410565b9050801561112a5760405162461bcd60e51b815260206004820152601a60248201527f73657474696e6720636f6d7074726f6c6c6572206661696c65640000000000006044820152606401610d91565b43600c55670de0b6b3a7640000600d556111438861253b565b9050801561119e5760405162461bcd60e51b815260206004820152602260248201527f73657474696e6720696e7465726573742072617465206d6f64656c206661696c604482015261195960f21b6064820152608401610d91565b85516111b19060039060208901906157fa565b5084516111c59060049060208801906157fa565b506005805460ff191660ff86161790556111de836127ab565b9050801561122e5760405162461bcd60e51b815260206004820152601d60248201527f73657474696e67207265736572766520666163746f72206661696c65640000006044820152606401610d91565b6112378261284a565b905080156112875760405162461bcd60e51b815260206004820152601860248201527f73657474696e672061646d696e20666565206661696c656400000000000000006044820152606401610d91565b50506002805460ff60b01b1916600160b01b1790555050505050505050565b6000806112b28161208f565b60006112c033878787612964565b149150610d5681612153565b6000806112d98484612c02565b50949350505050565b6112ea612c6c565b6113295760405162461bcd60e51b815260206004820152601060248201526f31b0b63632b9103737ba1030b236b4b760811b6044820152606401610d91565b6113356003858561587a565b506113426004838361587a565b5050505050565b600080604051806020016040528061135f611e33565b90526001600160a01b03841660009081526013602052604081205491925090819061138b908490612dd7565b909250905060008260038111156113a4576113a4615edc565b146113f15760405162461bcd60e51b815260206004820152601f60248201527f62616c616e636520636f756c64206e6f742062652063616c63756c61746564006044820152606401610d91565b949350505050565b6000611403612e2a565b905090565b611410612c6c565b6114455760405162461bcd60e51b815260206004820152600660248201526510b0b236b4b760d11b6044820152606401610d91565b611486848484848080601f01602080910402602001604051908101604052809392919081815260200183838082843760009201919091525061228b92505050565b50505050565b3330148061149d575061149d612c6c565b6114a657600080fd5b60006114b482840184615b5f565b90506001600160a01b0381166114f05760405162461bcd60e51b81526020600482015260016024820152600360fc1b6044820152606401610d91565b6017546001600160a01b03161580159061157457506017546040516370a0823160e01b81523060048201526001600160a01b03909116906370a0823190602401602060405180830381865afa15801561154d573d6000803e3d6000fd5b505050506040513d601f19601f820116820180604052508101906115719190615e8e565b15155b1561165e576017546040516370a0823160e01b81523060048201526001600160a01b039091169063ba0876529082906370a0823190602401602060405180830381865afa1580156115c9573d6000803e3d6000fd5b505050506040513d601f19601f820116820180604052508101906115ed9190615e8e565b6040516001600160e01b031960e084901b1681526004810191909152306024820181905260448201526064016020604051808303816000875af1158015611638573d6000803e3d6000fd5b505050506040513d601f19601f8201168201806040525081019061165c9190615e8e565b505b601780546001600160a01b0319166001600160a01b0383811691821790925560165460405163095ea7b360e01b8152600481019290925260001960248301529091169063095ea7b3906044016020604051808303816000875af11580156116c9573d6000803e3d6000fd5b505050506040513d601f19601f820116820180604052508101906116ed9190615f22565b506016546040516370a0823160e01b81523060048201526000916001600160a01b0316906370a0823190602401602060405180830381865afa158015611737573d6000803e3d6000fd5b505050506040513d601f19601f8201168201806040525081019061175b9190615e8e565b905080156114865761148681612ebd565b6000806117788161208f565b6000611782611b25565b905080156117ae576117a681601181111561179f5761179f615edc565b603b612f36565b925050610da6565b6117b784612faf565b925050610daf81612153565b6000806117cf8161208f565b60006117d9611b25565b146117f65760405162461bcd60e51b8152600401610d9190615ef2565b600e54915061180481612153565b5090565b611810612c6c565b6118455760405162461bcd60e51b815260206004820152600660248201526510b0b236b4b760d11b6044820152606401610d91565b6016546001600160a01b0383811691161480159061187157506017546001600160a01b03838116911614155b6118a15760405162461bcd60e51b81526020600482015260016024820152602160f81b6044820152606401610d91565b60405163095ea7b360e01b81526001600160a01b038281166004830152600019602483015283169063095ea7b3906044016020604051808303816000875af11580156118f1573d6000803e3d6000fd5b505050506040513d601f19601f82011682018060405250810190610f719190615f22565b61191d612c6c565b61197f5760405162461bcd60e51b815260206004820152602d60248201527f6f6e6c79207468652061646d696e206d6179207365742074686520636f6d702d60448201526c6c696b652064656c656761746560981b6064820152608401610d91565b6016546040516317066a5760e21b81526001600160a01b03838116600483015290911690635c19a95c90602401600060405180830381600087803b1580156119c657600080fd5b505af1158015611342573d6000803e3d6000fd5b6000610d4482613060565b6000806119f18161208f565b60006119fb611b25565b90508015611a1f576117a6816011811115611a1857611a18615edc565b6052612f36565b6117b78461284a565b60048054610c5990615ea7565b6000806000611a43846130a6565b90925090506000826003811115611a5c57611a5c615edc565b14611acf5760405162461bcd60e51b815260206004820152603760248201527f626f72726f7742616c616e636553746f7265643a20626f72726f7742616c616e60448201527f636553746f726564496e7465726e616c206661696c65640000000000000000006064820152608401610d91565b9392505050565b600080611ae28161208f565b6000611aec611b25565b90508015611b10576117a6816011811115611b0957611b09615edc565b6033612f36565b6117b78461315f565b600080610d56836131d2565b600c546000904390811415611b3d5760005b91505090565b6000611b47612e2a565b90506000600760009054906101000a90046001600160a01b03166001600160a01b03166315f2405383600e54611b8c600f54611b87601054601154613218565b613218565b6040516001600160e01b031960e086901b168152600481019390935260248301919091526044820152606401602060405180830381865afa158015611bd5573d6000803e3d6000fd5b505050506040513d601f19601f82011682018060405250810190611bf99190615e8e565b905065048c27395000811115611c515760405162461bcd60e51b815260206004820152601c60248201527f626f72726f772072617465206973206162737572646c792068696768000000006044820152606401610d91565b600080611c6085600c5461324e565b90925090506000826003811115611c7957611c79615edc565b14611cc65760405162461bcd60e51b815260206004820152601f60248201527f636f756c64206e6f742063616c63756c61746520626c6f636b2064656c7461006044820152606401610d91565b611cd285858584613279565b9550505050505090565b600080611ce88161208f565b6000611cf2611b25565b90508015611d16576117a6816011811115611d0f57611d0f615edc565b6037612f36565b6117b7846133a5565b600080611d2b8161208f565b6000611d3933338787612964565b149150611d4581612153565b5092915050565b6007546000906001600160a01b031663b8168816611d68612e2a565b600e54611d7f600f54611b87601054601154613218565b600954600a54600b54611d929190615ff5565b611d9c9190615ff5565b6040516001600160e01b031960e087901b16815260048101949094526024840192909252604483015260648201526084015b602060405180830381865afa158015611deb573d6000803e3d6000fd5b505050506040513d601f19601f820116820180604052508101906114039190615e8e565b60006001611e1c8161208f565b611e2833868686613483565b9150610d5681612153565b600080611e3f8161208f565b6000611e49611b25565b14611e665760405162461bcd60e51b8152600401610d9190615ef2565b611e6e610db5565b915061180481612153565b6001600160a01b038116600090815260136020526040812054819081908190818080611ea4896130a6565b935090506000816003811115611ebc57611ebc615edc565b14611eda5760095b6000806000975097509750975050505050611f13565b611ee26121be565b925090506000816003811115611efa57611efa615edc565b14611f06576009611ec4565b5060009650919450925090505b9193509193565b6000610d4482613980565b6000610d44826139c4565b600080611f3b611b25565b90508015611f5f57611acf816011811115611f5857611f58615edc565b604b612f36565b611acf8361253b565b600080611f76858585613a03565b5095945050505050565b6007546000906001600160a01b03166315f24053611f9c612e2a565b600e54611fb3600f54611b87601054601154613218565b6040516001600160e01b031960e086901b168152600481019390935260248301919091526044820152606401611dce565b600080611ff08161208f565b6000611ffa611b25565b9050801561201e576117a681601181111561201757612017615edc565b6059612f36565b6117b7846127ab565b60008060006120358161208f565b600061203f611b25565b9050801561206f5761206381601181111561205c5761205c615edc565b6041612f36565b60009350935050612080565b61207a333387613af7565b93509350505b61208981612153565b50915091565b600254600160b01b900460ff166120d55760405162461bcd60e51b815260206004820152600a6024820152691c994b595b9d195c995960b21b6044820152606401610d91565b8061214357600660009054906101000a90046001600160a01b03166001600160a01b031663c90c20b16040518163ffffffff1660e01b8152600401600060405180830381600087803b15801561212a57600080fd5b505af115801561213e573d6000803e3d6000fd5b505050505b506002805460ff60b01b19169055565b6002805460ff60b01b1916600160b01b179055806121bb57600660009054906101000a90046001600160a01b03166001600160a01b031663632e51426040518163ffffffff1660e01b8152600401600060405180830381600087803b1580156119c657600080fd5b50565b6012546000908190806121d8575050600854600092909150565b60006121e2612e2a565b905060006121fc6040518060200160405280600081525090565b600061221e84600e54612219600f54611b87601054601154613218565b613f11565b93509050600081600381111561223657612236615edc565b14612248579660009650945050505050565b6122528386613f63565b92509050600081600381111561226a5761226a615edc565b1461227c579660009650945050505050565b50516000969095509350505050565b6001546000546040516338e6a07360e11b81526001600160a01b039182166004820152858216602482015284151560448201529116906371cd40e690606401602060405180830381865afa1580156122e7573d6000803e3d6000fd5b505050506040513d601f19601f8201168201806040525081019061230b9190615f22565b61233f5760405162461bcd60e51b8152602060048201526005602482015264085a5b5c1b60da1b6044820152606401610d91565b600080546001600160a01b038581166001600160a01b03198316179092556040519116906123c2903090612377908590602401615b07565b60408051601f19818403018152918152602080830180516001600160e01b0316630adccee560e31b17905281518083019092526007825266216265636f6d6560c81b9082015261402e565b50600054604080516001600160a01b03808516825290921660208301527fd604de94d45953f9138079ec1b82d533cb2160c906d1076d1f7ed54befbca97a910160405180910390a150505050565b600080600660009054906101000a90046001600160a01b03169050826001600160a01b0316627e3dd26040518163ffffffff1660e01b8152600401602060405180830381865afa158015612468573d6000803e3d6000fd5b505050506040513d601f19601f8201168201806040525081019061248c9190615f22565b6124d85760405162461bcd60e51b815260206004820152601c60248201527f6d61726b6572206d6574686f642072657475726e65642066616c7365000000006044820152606401610d91565b600680546001600160a01b0319166001600160a01b0385811691821790925560408051928416835260208301919091527f7ac369dbd14fa5ea3f473ed67cc9d598964a77501540ba6751eb0b3decf5870d91015b60405180910390a16000611acf565b600080612546612c6c565b61255657611acf6001604d612f36565b43600c541461256b57611acf600a604c612f36565b600760009054906101000a90046001600160a01b03169050826001600160a01b0316632191f92a6040518163ffffffff1660e01b8152600401602060405180830381865afa1580156125c1573d6000803e3d6000fd5b505050506040513d601f19601f820116820180604052508101906125e59190615f22565b6126315760405162461bcd60e51b815260206004820152601c60248201527f6d61726b6572206d6574686f642072657475726e65642066616c7365000000006044820152606401610d91565b600780546001600160a01b0319166001600160a01b0385811691821790925560408051928416835260208301919091527fedffc32e068c7c95dfd4bdfd5c4d939a084d6b11c4199eac8436ed234d72f926910160405180910390a16001600160a01b0381161561271f5760408051600481526024810182526020810180516001600160e01b0316636cc1140b60e11b17905290516001600160a01b038316916126d99161600d565b6000604051808303816000865af19150503d8060008114612716576040519150601f19603f3d011682016040523d82523d6000602084013e61271b565b606091505b5050505b60408051600481526024810182526020810180516001600160e01b031663742a137b60e11b17905290516001600160a01b0385169161275d9161600d565b6000604051808303816000865af19150503d806000811461279a576040519150601f19603f3d011682016040523d82523d6000602084013e61279f565b606091505b5060009150611acf9050565b60006127b5612c6c565b6127c557610d446001605a612f36565b43600c54146127da57610d44600a605b612f36565b670de0b6b3a76400006127fa6127f284600954613218565b600a54613218565b111561280c57610d446002605c612f36565b600b80549083905560408051828152602081018590527faaa68312e2ea9d50e16af5068410ab56e1a1fd06037b1a35664812c30f821460910161252c565b600043600c541461286157610d44600a6054612f36565b6000198214156128715760095491505b600061287b6140ca565b9050670de0b6b3a764000061289b612895600b5486613218565b83613218565b11156128ad57611acf60026055612f36565b8260095414612911576128be612c6c565b6128ce57611acf60016053612f36565b600980549084905560408051828152602081018690527fcdd0b588250e1398549f79cfdb8217c186688822905d6715b0834ea1c865594a910160405180910390a1505b80600a541461295d57600a80549082905560408051828152602081018490527f92eef861b6533b7d3417f39c2ad7b460eed4e88a32fa3604f30e718b7602e7dc910160405180910390a1505b6000611acf565b6006546040516317b9b84b60e31b81523060048201526001600160a01b038581166024830152848116604483015260648201849052600092839291169063bdcdc258906084016020604051808303816000875af11580156129c9573d6000803e3d6000fd5b505050506040513d601f19601f820116820180604052508101906129ed9190615e8e565b90508015612a0a57612a026003605d83614114565b9150506113f1565b836001600160a01b0316856001600160a01b03161415612a3057612a026002605e612f36565b6000856001600160a01b0316876001600160a01b03161415612a555750600019612a7d565b506001600160a01b038086166000908152601460209081526040808320938a16835292905220545b600080600080612a8d858961324e565b90945092506000846003811115612aa657612aa6615edc565b14612ac457612ab76009605e612f36565b96505050505050506113f1565b6001600160a01b038a16600090815260136020526040902054612ae7908961324e565b90945091506000846003811115612b0057612b00615edc565b14612b1157612ab76009605f612f36565b6001600160a01b038916600090815260136020526040902054612b3490896141b6565b90945090506000846003811115612b4d57612b4d615edc565b14612b5e57612ab760096060612f36565b6001600160a01b03808b16600090815260136020526040808220859055918b168152208190556000198514612bb6576001600160a01b03808b166000908152601460209081526040808320938f168352929052208390555b886001600160a01b03168a6001600160a01b03166000805160206161088339815191528a604051612be991815260200190565b60405180910390a35060009a9950505050505050505050565b6000806000612c108161208f565b6000612c1a611b25565b90508015612c4a57612c3e816011811115612c3757612c37615edc565b6040612f36565b60009350935050612c5b565b612c55338787613af7565b93509350505b612c6481612153565b509250929050565b600654604080516303e1469160e61b815290516000926001600160a01b031691829163f851a440916004808201926020929091908290030181865afa158015612cb9573d6000803e3d6000fd5b505050506040513d601f19601f82011682018060405250810190612cdd9190616029565b6001600160a01b0316336001600160a01b0316148015612d5a5750806001600160a01b0316630a755ec26040518163ffffffff1660e01b8152600401602060405180830381865afa158015612d36573d6000803e3d6000fd5b505050506040513d601f19601f82011682018060405250810190612d5a9190615f22565b80611b3757506001546001600160a01b031633148015611b375750806001600160a01b0316632f1069ba6040518163ffffffff1660e01b8152600401602060405180830381865afa158015612db3573d6000803e3d6000fd5b505050506040513d601f19601f82011682018060405250810190611b379190615f22565b600080600080612de786866141e6565b90925090506000826003811115612e0057612e00615edc565b14612e115750915060009050612e23565b6000612e1c82614262565b9350935050505b9250929050565b6017546040516370a0823160e01b81523060048201526000916001600160a01b031690634cdad5069082906370a0823190602401602060405180830381865afa158015612e7b573d6000803e3d6000fd5b505050506040513d601f19601f82011682018060405250810190612e9f9190615e8e565b6040518263ffffffff1660e01b8152600401611dce91815260200190565b601754604051636e553f6560e01b8152600481018390523060248201526001600160a01b0390911690636e553f65906044016020604051808303816000875af1158015612f0e573d6000803e3d6000fd5b505050506040513d601f19601f82011682018060405250810190612f329190615e8e565b5050565b60007f45b96fe442630264581b197e84bbada861235052c5a1aadfff9ea4e40a969aa0836011811115612f6b57612f6b615edc565b836063811115612f7d57612f7d615edc565b60408051928352602083019190915260009082015260600160405180910390a1826011811115611acf57611acf615edc565b600080612fba612c6c565b612fca57611acf6001603c612f36565b43600c5414612fdf57611acf600a603e612f36565b82612fe8612e2a565b1015612ffa57611acf600e603d612f36565b600f5483111561301057611acf6002603f612f36565b61301c600f548461427a565b600f819055905061302d33846142b4565b7f3bad0c59cf2f06e7314077049f48a93578cd16f5ef92329f1dab1420a99c177e33848360405161252c93929190616046565b60008061306c8161208f565b6000613076611b25565b9050801561309a576117a681601181111561309357613093615edc565b602a612f36565b6117b733600086614331565b6001600160a01b0381166000908152601560205260408120805482918291829182916130db5750600096879650945050505050565b6130eb8160000154600d546148b7565b9094509250600084600381111561310457613104615edc565b1461311757509195600095509350505050565b613125838260010154614901565b9094509150600084600381111561313e5761313e615edc565b1461315157509195600095509350505050565b506000969095509350505050565b60008043600c541461317757611acf600a6035612f36565b82613180612e2a565b101561319257611acf600e6034612f36565b6011548311156131a857611acf60026036612f36565b6131b46011548461427a565b601181905560015490915061295d906001600160a01b0316846142b4565b60008060006131e08161208f565b60006131ea611b25565b9050801561320e5761206381601181111561320757613207615edc565b6020612f36565b61207a338661492c565b6000611acf8383604051806040016040528060118152602001706164646974696f6e206f766572666c6f7760781b815250614cea565b60008083831161326d5760006132648486616067565b91509150612e23565b50600390506000612e23565b60008061329460405180602001604052808681525084614d1b565b905060006132a482600e54614d4c565b905060006132b482600e54613218565b905060006132d56040518060200160405280600b5481525084600f54614d64565b905060006132f66040518060200160405280600a5481525085601154614d64565b90506000613317604051806020016040528060095481525086601054614d64565b9050600061332a87600d54600d54614d64565b600c8d9055600d819055600e869055600f85905560118490556010839055604080518d815260208101899052908101829052606081018790529091507f4dec04e750ca11537cabcd8a9eab06494de08da3735bc8871cd41250e190bc049060800160405180910390a160009c9b505050505050505050505050565b60008043600c54146133bd57611acf600a6039612f36565b826133c6612e2a565b10156133d857611acf600e6038612f36565b6010548311156133ee57611acf6002603a612f36565b6133fa6010548461427a565b90508060108190555061295d600660009054906101000a90046001600160a01b03166001600160a01b031663f851a4406040518163ffffffff1660e01b8152600401602060405180830381865afa158015613459573d6000803e3d6000fd5b505050506040513d601f19601f8201168201806040525081019061347d9190616029565b846142b4565b60065460405163d02f735160e01b81523060048201526001600160a01b0386811660248301528581166044830152848116606483015260848201849052600092839291169063d02f73519060a4016020604051808303816000875af11580156134f0573d6000803e3d6000fd5b505050506040513d601f19601f820116820180604052508101906135149190615e8e565b9050801561352957612a026003601d83614114565b846001600160a01b0316846001600160a01b0316141561354f57612a026006601e612f36565b6135b4604080516101808101909152806000815260200160008152602001600081526020016000815260200160008152602001600081526020016000815260200160008152602001600081526020016000815260200160008152602001600081525090565b6001600160a01b0385166000908152601360205260409020546135d7908561324e565b60208301819052828260038111156135f1576135f1615edc565b600381111561360257613602615edc565b905250600090508151600381111561361c5761361c615edc565b1461364c576136436009601c8360000151600381111561363e5761363e615edc565b614114565b925050506113f1565b61366b846040518060200160405280666379da05b60000815250614d85565b6080820152604080516020810190915267016345785d8a00008152613691908590614d85565b61014082015260808101516136b6906136ab90869061427a565b82610140015161427a565b60608201526136c36121be565b60c08301819052828260038111156136dd576136dd615edc565b60038111156136ee576136ee615edc565b905250600090508151600381111561370857613708615edc565b146137555760405162461bcd60e51b815260206004820152601860248201527f65786368616e67652072617465206d617468206572726f7200000000000000006044820152606401610d91565b61377560405180602001604052808360c001518152508260800151614d4c565b60a0820152604080516020810190915260c0820151815261014082015161379c9190614d4c565b610160820152600f5460a08201516137b49190613218565b60e082015260125460808201516137ce916136ab9161427a565b6101208201526011546101608201516137e79190613218565b6101008201526001600160a01b038616600090815260136020526040902054606082015161381591906141b6565b604083018190528282600381111561382f5761382f615edc565b600381111561384057613840615edc565b905250600090508151600381111561385a5761385a615edc565b1461387c576136436009601b8360000151600381111561363e5761363e615edc565b60e0810151600f556101208101516012556101008101516011556020808201516001600160a01b0387811660008181526013855260408082209490945583860151928b1680825290849020929092556060850151925192835290929091600080516020616108833981519152910160405180910390a3306001600160a01b0316856001600160a01b0316600080516020616108833981519152836080015160405161392991815260200190565b60405180910390a360a081015160e08201516040517fa91e67c5ea634cd43a12c5a482724b03de01e85ca68702a53d0c2f45cb7c1dc59261396b923092616046565b60405180910390a16000979650505050505050565b60008061398c8161208f565b6000613996611b25565b905080156139ba576117a68160118111156139b3576139b3615edc565b600a612f36565b6117b73385614da8565b6000806139d08161208f565b60006139da611b25565b905080156139f7576117a681601181111561309357613093615edc565b6117b733856000614331565b6000806000613a118161208f565b6000613a1b611b25565b90508015613a4b57613a3f816011811115613a3857613a38615edc565b6011612f36565b60009350935050613ae5565b846001600160a01b031663a6afed956040518163ffffffff1660e01b81526004016020604051808303816000875af1158015613a8b573d6000803e3d6000fd5b505050506040513d601f19601f82011682018060405250810190613aaf9190615e8e565b90508015613ad357613a3f816011811115613acc57613acc615edc565b6012612f36565b613adf3388888861513c565b93509350505b613aee81612153565b50935093915050565b600654604051631200453160e11b81523060048201526001600160a01b03858116602483015284811660448301526064820184905260009283928392909116906324008a62906084016020604051808303816000875af1158015613b5f573d6000803e3d6000fd5b505050506040513d601f19601f82011682018060405250810190613b839190615e8e565b90508015613ba457613b986003604383614114565b60009250925050613f09565b43600c5414613bb957613b98600a6044612f36565b613c026040805161010081019091528060008152602001600081526020016000815260200160008152602001600081526020016000815260200160008152602001600081525090565b6001600160a01b0386166000908152601560205260409020600101546060820152613c2c866130a6565b6080830181905260208301826003811115613c4957613c49615edc565b6003811115613c5a57613c5a615edc565b9052506000905081602001516003811115613c7757613c77615edc565b14613ca657613c99600960428360200151600381111561363e5761363e615edc565b6000935093505050613f09565b600019851415613cbf5760808101516040820152613cc7565b604081018590525b613cd58782604001516155fd565b60e082018190526080820151613cea9161324e565b60a0830181905260208301826003811115613d0757613d07615edc565b6003811115613d1857613d18615edc565b9052506000905081602001516003811115613d3557613d35615edc565b14613da85760405162461bcd60e51b815260206004820152603a60248201527f52455041595f424f52524f575f4e45575f4143434f554e545f424f52524f575f60448201527f42414c414e43455f43414c43554c4154494f4e5f4641494c45440000000000006064820152608401610d91565b613db8600e548260e0015161324e565b60c0830181905260208301826003811115613dd557613dd5615edc565b6003811115613de657613de6615edc565b9052506000905081602001516003811115613e0357613e03615edc565b14613e6a5760405162461bcd60e51b815260206004820152603160248201527f52455041595f424f52524f575f4e45575f544f54414c5f42414c414e43455f43604482015270105310d55310551253d397d19052531151607a1b6064820152608401610d91565b60a081810180516001600160a01b03898116600081815260156020908152604091829020948555600d5460019095019490945560c0870151600e81905560e088015195518251948f16855294840192909252820193909352606081019190915260808101919091527f1a2a22cb034d26d1854bdc6666a5b91fe25efbbb5dcad3b0355478d6f5c362a1910160405180910390a160e00151600093509150505b935093915050565b600080600080613f2187876141b6565b90925090506000826003811115613f3a57613f3a615edc565b14613f4b5750915060009050613f09565b613f55818661324e565b935093505050935093915050565b6000613f7b6040518060200160405280600081525090565b600080613f9086670de0b6b3a76400006148b7565b90925090506000826003811115613fa957613fa9615edc565b14613fc857506040805160208101909152600081529092509050612e23565b600080613fd58388614901565b90925090506000826003811115613fee57613fee615edc565b146140115781604051806020016040528060008152509550955050505050612e23565b604080516020810190915290815260009890975095505050505050565b6060600080856001600160a01b03168560405161404b919061600d565b6000604051808303816000865af19150503d8060008114614088576040519150601f19603f3d011682016040523d82523d6000602084013e61408d565b606091505b5091509150816140c1578051156140a75780518082602001fd5b8360405162461bcd60e51b8152600401610d919190615b07565b95945050505050565b6001546040805163dd86fea160e01b815290516000926001600160a01b03169163dd86fea19160048083019260209291908290030181865afa158015611deb573d6000803e3d6000fd5b60007f45b96fe442630264581b197e84bbada861235052c5a1aadfff9ea4e40a969aa084601181111561414957614149615edc565b84606381111561415b5761415b615edc565b604080519283526020830191909152810184905260600160405180910390a1600384601181111561418e5761418e615edc565b146141aa578360118111156141a5576141a5615edc565b6113f1565b6113f1826103e8615ff5565b600080806141c48486615ff5565b90508481106141d857600092509050612e23565b600260009250925050612e23565b60006141fe6040518060200160405280600081525090565b60008061420f8660000151866148b7565b9092509050600082600381111561422857614228615edc565b1461424757506040805160208101909152600081529092509050612e23565b60408051602081019091529081526000969095509350505050565b8051600090610d4490670de0b6b3a76400009061607e565b6000611acf8383604051806040016040528060158152602001747375627472616374696f6e20756e646572666c6f7760581b8152506156b3565b601754604051632d182be560e21b8152600481018390526001600160a01b0384811660248301523060448301529091169063b460af94906064016020604051808303816000875af115801561430d573d6000803e3d6000fd5b505050506040513d601f19601f82011682018060405250810190610f719190615e8e565b600082158061433e575081155b6143a75760405162461bcd60e51b815260206004820152603460248201527f6f6e65206f662072656465656d546f6b656e73496e206f722072656465656d416044820152736d6f756e74496e206d757374206265207a65726f60601b6064820152608401610d91565b6143e86040805160e0810190915280600081526020016000815260200160008152602001600081526020016000815260200160008152602001600081525090565b6143f06121be565b604083018190526020830182600381111561440d5761440d615edc565b600381111561441e5761441e615edc565b905250600090508160200151600381111561443b5761443b615edc565b146144655761445d6009602e8360200151600381111561363e5761363e615edc565b915050611acf565b83156144fe57606081018490526040805160208101825290820151815261448c9085612dd7565b60808301819052602083018260038111156144a9576144a9615edc565b60038111156144ba576144ba615edc565b90525060009050816020015160038111156144d7576144d7615edc565b146144f95761445d6009602c8360200151600381111561363e5761363e615edc565b61458f565b61451a83604051806020016040528084604001518152506156e2565b606083018190526020830182600381111561453757614537615edc565b600381111561454857614548615edc565b905250600090508160200151600381111561456557614565615edc565b146145875761445d6009602d8360200151600381111561363e5761363e615edc565b608081018390525b600654606082015160405163eabe7d9160e01b81526000926001600160a01b03169163eabe7d91916145c89130918b91906004016160a0565b6020604051808303816000875af11580156145e7573d6000803e3d6000fd5b505050506040513d601f19601f8201168201806040525081019061460b9190615e8e565b90508015614629576146206003602b83614114565b92505050611acf565b43600c541461463e57614620600a602f612f36565b61464e601254836060015161324e565b60a084018190526020840182600381111561466b5761466b615edc565b600381111561467c5761467c615edc565b905250600090508260200151600381111561469957614699615edc565b146146bb57614620600960318460200151600381111561363e5761363e615edc565b6001600160a01b03861660009081526013602052604090205460608301516146e3919061324e565b60c084018190526020840182600381111561470057614700615edc565b600381111561471157614711615edc565b905250600090508260200151600381111561472e5761472e615edc565b1461475057614620600960308460200151600381111561363e5761363e615edc565b816080015161475d612e2a565b101561476f57614620600e6032612f36565b60a082015160125560c08201516001600160a01b03871660009081526013602052604090205560808201516147a59087906142b4565b306001600160a01b0316866001600160a01b031660008051602061610883398151915284606001516040516147dc91815260200190565b60405180910390a3608082015160608301516040517fe5b754fb1abb7f01b499791d0b820ae3b6af3424ac1c59768edb53f4ec31a9299261481e928a92616046565b60405180910390a1600654608083015160608401516040516351dff98960e01b81523060048201526001600160a01b038a81166024830152604482019390935260648101919091529116906351dff98990608401600060405180830381600087803b15801561488c57600080fd5b505af11580156148a0573d6000803e3d6000fd5b50600092506148ad915050565b9695505050505050565b600080836148ca57506000905080612e23565b60006148d684866160c4565b9050836148e3868361607e565b146148f657600260009250925050612e23565b600092509050612e23565b600080826149155750600190506000612e23565b6000614921848661607e565b915091509250929050565b600654604051634ef4c3e160e01b8152600091829182916001600160a01b031690634ef4c3e190614965903090899089906004016160a0565b6020604051808303816000875af1158015614984573d6000803e3d6000fd5b505050506040513d601f19601f820116820180604052508101906149a89190615e8e565b905080156149c9576149bd6003602183614114565b60009250925050612e23565b43600c54146149de576149bd600a6024612f36565b614a1f6040805160e0810190915280600081526020016000815260200160008152602001600081526020016000815260200160008152602001600081525090565b614a276121be565b6040830181905260208301826003811115614a4457614a44615edc565b6003811115614a5557614a55615edc565b9052506000905081602001516003811115614a7257614a72615edc565b14614aa157614a94600960238360200151600381111561363e5761363e615edc565b6000935093505050612e23565b614aab86866155fd565b60c0820181905260408051602081018252908301518152614acc91906156e2565b6060830181905260208301826003811115614ae957614ae9615edc565b6003811115614afa57614afa615edc565b9052506000905081602001516003811115614b1757614b17615edc565b14614b645760405162461bcd60e51b815260206004820181905260248201527f4d494e545f45584348414e47455f43414c43554c4154494f4e5f4641494c45446044820152606401610d91565b614b746012548260600151613218565b60808201526001600160a01b0386166000908152601360205260409020546060820151614ba19190613218565b60a0820181905260808201516012556001600160a01b038716600090815260136020526040908190209190915560c0820151606083015191517f4c209b5fc8ad50758f13e2e1088ba56a560dff690a1c6fef26394f4c03821c4f92614c0a928a92909190616046565b60405180910390a1856001600160a01b0316306001600160a01b03166000805160206161088339815191528360600151604051614c4991815260200190565b60405180910390a360065460c082015160608301516040516341c728b960e01b81523060048201526001600160a01b038a81166024830152604482019390935260648101919091529116906341c728b990608401600060405180830381600087803b158015614cb757600080fd5b505af1158015614ccb573d6000803e3d6000fd5b5060009250614cd8915050565b8160c001519350935050509250929050565b600080614cf78486615ff5565b905082858210156112d95760405162461bcd60e51b8152600401610d919190615b07565b6040805160208101909152600081526040518060200160405280614d438560000151856156f2565b90529392505050565b600080614d598484614d1b565b90506113f181614262565b600080614d718585614d1b565b90506140c1614d7f82614262565b84613218565b6000670de0b6b3a7640000614d9e8484600001516156f2565b611acf919061607e565b60065460405163368f515360e21b815260009182916001600160a01b039091169063da3d454c90614de1903090889088906004016160a0565b6020604051808303816000875af1158015614e00573d6000803e3d6000fd5b505050506040513d601f19601f82011682018060405250810190614e249190615e8e565b90508015614e4157614e396003601083614114565b915050610d44565b43600c5414614e5657614e39600a600c612f36565b6000614e60612e2a565b905083811015614e7f57614e76600e600b612f36565b92505050610d44565b614eab604080516080810190915280600081526020016000815260200160008152602001600081525090565b614eb4866130a6565b6020830181905282826003811115614ece57614ece615edc565b6003811115614edf57614edf615edc565b9052506000905081516003811115614ef957614ef9615edc565b14614f2457614f1a6009808360000151600381111561363e5761363e615edc565b9350505050610d44565b614f328160200151866141b6565b6040830181905282826003811115614f4c57614f4c615edc565b6003811115614f5d57614f5d615edc565b9052506000905081516003811115614f7757614f77615edc565b14614f9957614f1a6009600e8360000151600381111561363e5761363e615edc565b6006546040828101519051631de6c8a560e21b815230600482015260248101919091526001600160a01b039091169063779b2294906044016020604051808303816000875af1158015614ff0573d6000803e3d6000fd5b505050506040513d601f19601f820116820180604052508101906150149190615e8e565b9250821561502957614f1a6003601085614114565b615035600e54866141b6565b606083018190528282600381111561504f5761504f615edc565b600381111561506057615060615edc565b905250600090508151600381111561507a5761507a615edc565b1461509c57614f1a6009600d8360000151600381111561363e5761363e615edc565b6040808201516001600160a01b0388166000908152601560205291909120908155600d546001909101556060810151600e556150d886866142b4565b60408082015160608084015183516001600160a01b038b168152602081018a9052938401929092528201527f13ed6866d4e1ee6da46f845c46d7e54120883d75c5ea9a2dacc1c4ca8984ab809060800160405180910390a160009695505050505050565b600654604051632fe3f38f60e11b81523060048201526001600160a01b03838116602483015286811660448301528581166064830152608482018590526000928392839290911690635fc7e71e9060a4016020604051808303816000875af11580156151ac573d6000803e3d6000fd5b505050506040513d601f19601f820116820180604052508101906151d09190615e8e565b905080156151f1576151e56003601483614114565b600092509250506155f4565b43600c5414615206576151e5600a6018612f36565b43846001600160a01b0316636c540baf6040518163ffffffff1660e01b8152600401602060405180830381865afa158015615245573d6000803e3d6000fd5b505050506040513d601f19601f820116820180604052508101906152699190615e8e565b1461527a576151e5600a6013612f36565b866001600160a01b0316866001600160a01b031614156152a0576151e560066019612f36565b846152b1576151e560076017612f36565b6000198514156152c7576151e560076016612f36565b6000806152d5898989613af7565b9092509050811561530a576152fc8260118111156152f5576152f5615edc565b601a612f36565b6000945094505050506155f4565b60065460405163c488847b60e01b815260009182916001600160a01b039091169063c488847b906153439030908c9088906004016160a0565b6040805180830381865afa15801561535f573d6000803e3d6000fd5b505050506040513d601f19601f8201168201806040525081019061538391906160e3565b909250905081156153f25760405162461bcd60e51b815260206004820152603360248201527f4c49515549444154455f434f4d5054524f4c4c45525f43414c43554c4154455f604482015272105353d5539517d4d152569157d19052531151606a1b6064820152608401610d91565b6040516370a0823160e01b81526001600160a01b038b811660048301528291908a16906370a0823190602401602060405180830381865afa15801561543b573d6000803e3d6000fd5b505050506040513d601f19601f8201168201806040525081019061545f9190615e8e565b10156154ad5760405162461bcd60e51b815260206004820152601860248201527f4c49515549444154455f5345495a455f544f4f5f4d55434800000000000000006044820152606401610d91565b60006001600160a01b0389163014156154d3576154cc308d8d85613483565b9050615549565b60405163b2a02ff160e01b81526001600160a01b038a169063b2a02ff190615503908f908f9087906004016160a0565b6020604051808303816000875af1158015615522573d6000803e3d6000fd5b505050506040513d601f19601f820116820180604052508101906155469190615e8e565b90505b801561558e5760405162461bcd60e51b81526020600482015260146024820152731d1bdad95b881cd95a5e9d5c994819985a5b195960621b6044820152606401610d91565b604080516001600160a01b038e811682528d811660208301528183018790528b1660608201526080810184905290517f298637f684da70674f26509b10f07ec2fbc77a335ab1e7d6215a4b2484d8bb529181900360a00190a16000975092955050505050505b94509492505050565b6016546040516323b872dd60e01b81526000916001600160a01b0316906323b872dd90615632908690309087906004016160a0565b6020604051808303816000875af1158015615651573d6000803e3d6000fd5b505050506040513d601f19601f820116820180604052508101906156759190615f22565b6156aa5760405162461bcd60e51b8152600401610d91906020808252600490820152631cd95b9960e21b604082015260600190565b610daf82612ebd565b600081848411156156d75760405162461bcd60e51b8152600401610d919190615b07565b506113f18385616067565b600080600080612de78686615734565b6000611acf83836040518060400160405280601781526020017f6d756c7469706c69636174696f6e206f766572666c6f770000000000000000008152506157a7565b600061574c6040518060200160405280600081525090565b600080615761670de0b6b3a7640000876148b7565b9092509050600082600381111561577a5761577a615edc565b1461579957506040805160208101909152600081529092509050612e23565b612e1c818660000151613f63565b60008315806157b4575082155b156157c157506000611acf565b60006157cd84866160c4565b9050836157da868361607e565b1483906112d95760405162461bcd60e51b8152600401610d919190615b07565b82805461580690615ea7565b90600052602060002090601f016020900481019282615828576000855561586e565b82601f1061584157805160ff191683800117855561586e565b8280016001018555821561586e579182015b8281111561586e578251825591602001919060010190615853565b506118049291506158ee565b82805461588690615ea7565b90600052602060002090601f0160209004810192826158a8576000855561586e565b82601f106158c15782800160ff1982351617855561586e565b8280016001018555821561586e579182015b8281111561586e5782358255916020019190600101906158d3565b5b8082111561180457600081556001016158ef565b6001600160a01b03811681146121bb57600080fd5b803561592381615903565b919050565b634e487b7160e01b600052604160045260246000fd5b604051601f8201601f1916810167ffffffffffffffff8111828210171561596757615967615928565b604052919050565b600067ffffffffffffffff82111561598957615989615928565b50601f01601f191660200190565b600082601f8301126159a857600080fd5b81356159bb6159b68261596f565b61593e565b8181528460208386010111156159d057600080fd5b816020850160208301376000918101602001919091529392505050565b600080600080600080600080610100898b031215615a0a57600080fd5b8835615a1581615903565b97506020890135615a2581615903565b96506040890135615a3581615903565b95506060890135615a4581615903565b9450608089013567ffffffffffffffff80821115615a6257600080fd5b615a6e8c838d01615997565b955060a08b0135915080821115615a8457600080fd5b50615a918b828c01615997565b93505060c0890135915060e089013590509295985092959890939650565b60005b83811015615aca578181015183820152602001615ab2565b838111156114865750506000910152565b60008151808452615af3816020860160208601615aaf565b601f01601f19169290920160200192915050565b602081526000611acf6020830184615adb565b60008060408385031215615b2d57600080fd5b8235615b3881615903565b946020939093013593505050565b600060208284031215615b5857600080fd5b5035919050565b600060208284031215615b7157600080fd5b8135611acf81615903565b60ff811681146121bb57600080fd5b803561592381615b7c565b60008060008060008060008060006101208a8c031215615bb557600080fd5b8935615bc081615903565b985060208a0135615bd081615903565b9750615bde60408b01615918565b965060608a0135955060808a013567ffffffffffffffff80821115615c0257600080fd5b615c0e8d838e01615997565b965060a08c0135915080821115615c2457600080fd5b50615c318c828d01615997565b945050615c4060c08b01615b8b565b925060e08a013591506101008a013590509295985092959850929598565b600080600060608486031215615c7357600080fd5b8335615c7e81615903565b92506020840135615c8e81615903565b929592945050506040919091013590565b60008083601f840112615cb157600080fd5b50813567ffffffffffffffff811115615cc957600080fd5b602083019150836020828501011115612e2357600080fd5b60008060008060408587031215615cf757600080fd5b843567ffffffffffffffff80821115615d0f57600080fd5b615d1b88838901615c9f565b90965094506020870135915080821115615d3457600080fd5b50615d4187828801615c9f565b95989497509550505050565b80151581146121bb57600080fd5b60008060008060608587031215615d7157600080fd5b8435615d7c81615903565b93506020850135615d8c81615d4d565b9250604085013567ffffffffffffffff811115615da857600080fd5b615d4187828801615c9f565b60008060208385031215615dc757600080fd5b823567ffffffffffffffff811115615dde57600080fd5b615dea85828601615c9f565b90969095509350505050565b60008060408385031215615e0957600080fd5b8235615e1481615903565b91506020830135615e2481615903565b809150509250929050565b600080600060608486031215615e4457600080fd5b8335615e4f81615903565b9250602084013591506040840135615e6681615903565b809150509250925092565b600060208284031215615e8357600080fd5b8151611acf81615b7c565b600060208284031215615ea057600080fd5b5051919050565b600181811c90821680615ebb57607f821691505b60208210811415610daf57634e487b7160e01b600052602260045260246000fd5b634e487b7160e01b600052602160045260246000fd5b6020808252601690820152751858d8dc9d59481a5b9d195c995cdd0819985a5b195960521b604082015260600190565b600060208284031215615f3457600080fd5b8151611acf81615d4d565b600080600060608486031215615f5457600080fd5b8351615f5f81615903565b6020850151909350615f7081615d4d565b604085015190925067ffffffffffffffff811115615f8d57600080fd5b8401601f81018613615f9e57600080fd5b8051615fac6159b68261596f565b818152876020838501011115615fc157600080fd5b615fd2826020830160208601615aaf565b8093505050509250925092565b634e487b7160e01b600052601160045260246000fd5b6000821982111561600857616008615fdf565b500190565b6000825161601f818460208701615aaf565b9190910192915050565b60006020828403121561603b57600080fd5b8151611acf81615903565b6001600160a01b039390931683526020830191909152604082015260600190565b60008282101561607957616079615fdf565b500390565b60008261609b57634e487b7160e01b600052601260045260246000fd5b500490565b6001600160a01b039384168152919092166020820152604081019190915260600190565b60008160001904831182151516156160de576160de615fdf565b500290565b600080604083850312156160f657600080fd5b50508051602090910151909290915056feddf252ad1be2c89b69c2b068fc378daa952ba7f163c4a11628f55a4df523b3efa164736f6c634300080a000a608060405234801561001057600080fd5b50615ddf80620000216000396000f3fe60806040526004361061038c5760003560e01c80637f1e06be116101dc578063b2a02ff111610102578063dc028ab1116100a0578063f5e3c4621161006f578063f5e3c46214610a3e578063f8f9da2814610a5e578063fca7820b14610a73578063fe9c44ae14610a9357600080fd5b8063dc028ab1146109a2578063dd62ed3e146109b8578063f2b3abbd146109fe578063f3fdb15a14610a1e57600080fd5b8063c37f68e2116100dc578063c37f68e21461090c578063c5ebeaec1461094c578063db006a751461096c578063dbfe7c191461098c57600080fd5b8063b2a02ff1146108bb578063bd6d894d146108db578063be99f119146108f057600080fd5b8063a03dce8d1161017a578063a9059cbb11610149578063a9059cbb1461085c578063aa5af0fd1461087c578063ac784ddc14610892578063ae9d70b0146108a657600080fd5b8063a03dce8d146107e7578063a0712d6814610807578063a6afed9514610827578063a7b820df1461083c57600080fd5b80638f840ddd116101b65780638f840ddd1461077c57806391dd36c61461079257806395d89b41146107b257806395dd9193146107c757600080fd5b80637f1e06be14610726578063852a12e3146107465780638d02d9a11461076657600080fd5b806334154d4c116102c15780635fe3b5671161025f5780636c540baf1161022e5780636c540baf146106a55780636f307dc3146106bb57806370a08231146106db57806373acee981461071157600080fd5b80635fe3b56714610634578063601a0bf11461065457806361feacff146106745780636752e7021461068a57600080fd5b806347bd37181161029b57806347bd3718146105be57806350d85b73146105d457806356e67728146105f45780635c60da1b1461061457600080fd5b806334154d4c146105695780633af9e669146105895780633b1d21a2146105a957600080fd5b806318160ddd1161032e578063219ef65c11610308578063219ef65c146104dd57806323b872dd146104fd5780632608f8181461051d578063313ce5671461053d57600080fd5b806318160ddd146104aa578063182df0f5146104c05780631db78944146104d557600080fd5b80630e7527021161036a5780630e7527021461040e57806315761d511461043c578063173b99041461047457806317bfdfbc1461048a57600080fd5b806306db3ecd1461039157806306fdde03146103b3578063095ea7b3146103de575b600080fd5b34801561039d57600080fd5b506103b16103ac366004615698565b610aa7565b005b3480156103bf57600080fd5b506103c8610bb5565b6040516103d591906157b2565b60405180910390f35b3480156103ea57600080fd5b506103fe6103f93660046157c5565b610c43565b60405190151581526020016103d5565b34801561041a57600080fd5b5061042e6104293660046157f1565b610cb3565b6040519081526020016103d5565b34801561044857600080fd5b5060015461045c906001600160a01b031681565b6040516001600160a01b0390911681526020016103d5565b34801561048057600080fd5b5061042e600b5481565b34801561049657600080fd5b5061042e6104a536600461580a565b610cc7565b3480156104b657600080fd5b5061042e60125481565b3480156104cc57600080fd5b5061042e610d1e565b6103b1610daf565b3480156104e957600080fd5b506103b16104f8366004615841565b610ee0565b34801561050957600080fd5b506103fe610518366004615909565b61120f565b34801561052957600080fd5b5061042e6105383660046157c5565b611235565b34801561054957600080fd5b506005546105579060ff1681565b60405160ff90911681526020016103d5565b34801561057557600080fd5b506103b161058436600461598c565b61124b565b34801561059557600080fd5b5061042e6105a436600461580a565b6112b2565b3480156105b557600080fd5b5061042e611362565b3480156105ca57600080fd5b5061042e600e5481565b3480156105e057600080fd5b506103b16105ef366004615a06565b611371565b34801561060057600080fd5b506103b161060f366004615a5f565b6113f5565b34801561062057600080fd5b5060005461045c906001600160a01b031681565b34801561064057600080fd5b5060065461045c906001600160a01b031681565b34801561066057600080fd5b5061042e61066f3660046157f1565b61144e565b34801561068057600080fd5b5061042e60105481565b34801561069657600080fd5b5061042e666379da05b6000081565b3480156106b157600080fd5b5061042e600c5481565b3480156106c757600080fd5b5060165461045c906001600160a01b031681565b3480156106e757600080fd5b5061042e6106f636600461580a565b6001600160a01b031660009081526013602052604090205490565b34801561071d57600080fd5b5061042e6114a5565b34801561073257600080fd5b506103b161074136600461580a565b6114ea565b34801561075257600080fd5b5061042e6107613660046157f1565b6115af565b34801561077257600080fd5b5061042e60095481565b34801561078857600080fd5b5061042e600f5481565b34801561079e57600080fd5b5061042e6107ad3660046157f1565b6115ba565b3480156107be57600080fd5b506103c86115fd565b3480156107d357600080fd5b5061042e6107e236600461580a565b61160a565b3480156107f357600080fd5b5061042e6108023660046157f1565b6116ab565b34801561081357600080fd5b5061042e6108223660046157f1565b6116ee565b34801561083357600080fd5b5061042e6116fa565b34801561084857600080fd5b5061042e6108573660046157f1565b6118b1565b34801561086857600080fd5b506103fe6108773660046157c5565b6118f4565b34801561088857600080fd5b5061042e600d5481565b34801561089e57600080fd5b5060006103fe565b3480156108b257600080fd5b5061042e611921565b3480156108c757600080fd5b5061042e6108d6366004615909565b6119e4565b3480156108e757600080fd5b5061042e611a08565b3480156108fc57600080fd5b5061042e67016345785d8a000081565b34801561091857600080fd5b5061092c61092736600461580a565b611a4e565b6040805194855260208501939093529183015260608201526080016103d5565b34801561095857600080fd5b5061042e6109673660046157f1565b611aef565b34801561097857600080fd5b5061042e6109873660046157f1565b611afa565b34801561099857600080fd5b5061042e600a5481565b3480156109ae57600080fd5b5061042e60115481565b3480156109c457600080fd5b5061042e6109d3366004615aa1565b6001600160a01b03918216600090815260146020908152604080832093909416825291909152205490565b348015610a0a57600080fd5b5061042e610a1936600461580a565b611b05565b348015610a2a57600080fd5b5060075461045c906001600160a01b031681565b348015610a4a57600080fd5b5061042e610a59366004615ada565b611b3d565b348015610a6a57600080fd5b5061042e611b55565b348015610a7f57600080fd5b5061042e610a8e3660046157f1565b611bb9565b348015610a9f57600080fd5b5060016103fe565b60006702c68af0bb14000090506000896001600160a01b031663313ce5676040518163ffffffff1660e01b8152600401602060405180830381865afa158015610af4573d6000803e3d6000fd5b505050506040513d601f19601f82011682018060405250810190610b189190615b1c565b9050610b2b898989858a8a878b8b610ee0565b601680546001600160a01b0319166001600160a01b038c16908117909155604080516318160ddd60e01b815290516318160ddd916004808201926020929091908290030181865afa158015610b84573d6000803e3d6000fd5b505050506040513d601f19601f82011682018060405250810190610ba89190615b39565b5050505050505050505050565b60038054610bc290615b52565b80601f0160208091040260200160405190810160405280929190818152602001828054610bee90615b52565b8015610c3b5780601f10610c1057610100808354040283529160200191610c3b565b820191906000526020600020905b815481529060010190602001808311610c1e57829003601f168201915b505050505081565b3360008181526014602090815260408083206001600160a01b03871680855292528083208590555191929182907f8c5be1e5ebec7d5bd14f71427d1e84f3dd0314c0f7b2291e5b200ac8c7c3b92590610c9f9087815260200190565b60405180910390a360019150505b92915050565b600080610cbf83611bfc565b509392505050565b600080610cd381611c64565b6000610cdd6116fa565b14610d035760405162461bcd60e51b8152600401610cfa90615b9d565b60405180910390fd5b610d0c8361160a565b91505b610d1881611d28565b50919050565b6000806000610d2b611d93565b90925090506000826003811115610d4457610d44615b87565b14610cad5760405162461bcd60e51b815260206004820152603560248201527f65786368616e67655261746553746f7265643a2065786368616e67655261746560448201527414dd1bdc9959125b9d195c9b985b0819985a5b1959605a1b6064820152608401610cfa565b333014801590610e315750600660009054906101000a90046001600160a01b03166001600160a01b031663dd5cd22c6040518163ffffffff1660e01b8152600401602060405180830381865afa158015610e0d573d6000803e3d6000fd5b505050506040513d601f19601f82011682018060405250810190610e319190615bcd565b15610ede57600154600080546040516345cc970560e01b81526001600160a01b039182166004820152919283928392909116906345cc970590602401600060405180830381865afa158015610e8a573d6000803e3d6000fd5b505050506040513d6000823e601f3d908101601f19168201604052610eb29190810190615bea565b60005492955090935091506001600160a01b03808516911614610eda57610eda838383611e60565b5050505b565b336001600160a01b03891614610f4a5760405162461bcd60e51b815260206004820152602960248201527f6f6e6c7920467573652061646d696e206d617920696e697469616c697a6520746044820152681a19481b585c9ad95d60ba1b6064820152608401610cfa565b600c54158015610f5a5750600d54155b610fb25760405162461bcd60e51b815260206004820152602360248201527f6d61726b6574206d6179206f6e6c7920626520696e697469616c697a6564206f6044820152626e636560e81b6064820152608401610cfa565b600180546001600160a01b0319166001600160a01b038a161790556008869055856110385760405162461bcd60e51b815260206004820152603060248201527f696e697469616c2065786368616e67652072617465206d75737420626520677260448201526f32b0ba32b9103a3430b7103d32b9379760811b6064820152608401610cfa565b60006110438a611fe5565b905080156110935760405162461bcd60e51b815260206004820152601a60248201527f73657474696e6720636f6d7074726f6c6c6572206661696c65640000000000006044820152606401610cfa565b43600c55670de0b6b3a7640000600d556110ac88612110565b905080156111075760405162461bcd60e51b815260206004820152602260248201527f73657474696e6720696e7465726573742072617465206d6f64656c206661696c604482015261195960f21b6064820152608401610cfa565b855161111a9060039060208901906154a5565b50845161112e9060049060208801906154a5565b506005805460ff191660ff861617905561114783612380565b905080156111975760405162461bcd60e51b815260206004820152601d60248201527f73657474696e67207265736572766520666163746f72206661696c65640000006044820152606401610cfa565b6111a08261241f565b905080156111f05760405162461bcd60e51b815260206004820152601860248201527f73657474696e672061646d696e20666565206661696c656400000000000000006044820152606401610cfa565b50506002805460ff60b01b1916600160b01b1790555050505050505050565b60008061121b81611c64565b600061122933878787612539565b149150610cbf81611d28565b60008061124284846127d7565b50949350505050565b611253612841565b6112925760405162461bcd60e51b815260206004820152601060248201526f31b0b63632b9103737ba1030b236b4b760811b6044820152606401610cfa565b61129e60038585615525565b506112ab60048383615525565b5050505050565b60008060405180602001604052806112c8611a08565b90526001600160a01b0384166000908152601360205260408120549192509081906112f49084906129ac565b9092509050600082600381111561130d5761130d615b87565b1461135a5760405162461bcd60e51b815260206004820152601f60248201527f62616c616e636520636f756c64206e6f742062652063616c63756c61746564006044820152606401610cfa565b949350505050565b600061136c6129ff565b905090565b611379612841565b6113ae5760405162461bcd60e51b815260206004820152600660248201526510b0b236b4b760d11b6044820152606401610cfa565b6113ef848484848080601f016020809104026020016040519081016040528093929190818152602001838380828437600092019190915250611e6092505050565b50505050565b333014806114065750611406612841565b61143a5760405162461bcd60e51b815260206004820152600560248201526410b9b2b63360d91b6044820152606401610cfa565b5050600280546001600160b01b0319169055565b60008061145a81611c64565b60006114646116fa565b905080156114905761148881601181111561148157611481615b87565b603b612a6e565b925050610d0f565b61149984612ae7565b925050610d1881611d28565b6000806114b181611c64565b60006114bb6116fa565b146114d85760405162461bcd60e51b8152600401610cfa90615b9d565b600e5491506114e681611d28565b5090565b6114f2612841565b6115545760405162461bcd60e51b815260206004820152602d60248201527f6f6e6c79207468652061646d696e206d6179207365742074686520636f6d702d60448201526c6c696b652064656c656761746560981b6064820152608401610cfa565b6016546040516317066a5760e21b81526001600160a01b03838116600483015290911690635c19a95c90602401600060405180830381600087803b15801561159b57600080fd5b505af11580156112ab573d6000803e3d6000fd5b6000610cad82612b98565b6000806115c681611c64565b60006115d06116fa565b905080156115f4576114888160118111156115ed576115ed615b87565b6052612a6e565b6114998461241f565b60048054610bc290615b52565b600080600061161884612bde565b9092509050600082600381111561163157611631615b87565b146116a45760405162461bcd60e51b815260206004820152603760248201527f626f72726f7742616c616e636553746f7265643a20626f72726f7742616c616e60448201527f636553746f726564496e7465726e616c206661696c65640000000000000000006064820152608401610cfa565b9392505050565b6000806116b781611c64565b60006116c16116fa565b905080156116e5576114888160118111156116de576116de615b87565b6033612a6e565b61149984612c97565b600080610cbf83612d0a565b600c5460009043908114156117125760005b91505090565b600061171c6129ff565b90506000600760009054906101000a90046001600160a01b03166001600160a01b03166315f2405383600e54611761600f5461175c601054601154612d50565b612d50565b6040516001600160e01b031960e086901b168152600481019390935260248301919091526044820152606401602060405180830381865afa1580156117aa573d6000803e3d6000fd5b505050506040513d601f19601f820116820180604052508101906117ce9190615b39565b905065048c273950008111156118265760405162461bcd60e51b815260206004820152601c60248201527f626f72726f772072617465206973206162737572646c792068696768000000006044820152606401610cfa565b60008061183585600c54612d86565b9092509050600082600381111561184e5761184e615b87565b1461189b5760405162461bcd60e51b815260206004820152601f60248201527f636f756c64206e6f742063616c63756c61746520626c6f636b2064656c7461006044820152606401610cfa565b6118a785858584612db1565b9550505050505090565b6000806118bd81611c64565b60006118c76116fa565b905080156118eb576114888160118111156118e4576118e4615b87565b6037612a6e565b61149984612edd565b60008061190081611c64565b600061190e33338787612539565b14915061191a81611d28565b5092915050565b6007546000906001600160a01b031663b816881661193d6129ff565b600e54611954600f5461175c601054601154612d50565b600954600a54600b546119679190615ca0565b6119719190615ca0565b6040516001600160e01b031960e087901b16815260048101949094526024840192909252604483015260648201526084015b602060405180830381865afa1580156119c0573d6000803e3d6000fd5b505050506040513d601f19601f8201168201806040525081019061136c9190615b39565b600060016119f181611c64565b6119fd33868686612fbb565b9150610cbf81611d28565b600080611a1481611c64565b6000611a1e6116fa565b14611a3b5760405162461bcd60e51b8152600401610cfa90615b9d565b611a43610d1e565b91506114e681611d28565b6001600160a01b038116600090815260136020526040812054819081908190818080611a7989612bde565b935090506000816003811115611a9157611a91615b87565b14611aaf5760095b6000806000975097509750975050505050611ae8565b611ab7611d93565b925090506000816003811115611acf57611acf615b87565b14611adb576009611a99565b5060009650919450925090505b9193509193565b6000610cad826134b8565b6000610cad826134fc565b600080611b106116fa565b90508015611b34576116a4816011811115611b2d57611b2d615b87565b604b612a6e565b6116a483612110565b600080611b4b85858561353b565b5095945050505050565b6007546000906001600160a01b03166315f24053611b716129ff565b600e54611b88600f5461175c601054601154612d50565b6040516001600160e01b031960e086901b1681526004810193909352602483019190915260448201526064016119a3565b600080611bc581611c64565b6000611bcf6116fa565b90508015611bf357611488816011811115611bec57611bec615b87565b6059612a6e565b61149984612380565b6000806000611c0a81611c64565b6000611c146116fa565b90508015611c4457611c38816011811115611c3157611c31615b87565b6041612a6e565b60009350935050611c55565b611c4f33338761362f565b93509350505b611c5e81611d28565b50915091565b600254600160b01b900460ff16611caa5760405162461bcd60e51b815260206004820152600a6024820152691c994b595b9d195c995960b21b6044820152606401610cfa565b80611d1857600660009054906101000a90046001600160a01b03166001600160a01b031663c90c20b16040518163ffffffff1660e01b8152600401600060405180830381600087803b158015611cff57600080fd5b505af1158015611d13573d6000803e3d6000fd5b505050505b506002805460ff60b01b19169055565b6002805460ff60b01b1916600160b01b17905580611d9057600660009054906101000a90046001600160a01b03166001600160a01b031663632e51426040518163ffffffff1660e01b8152600401600060405180830381600087803b15801561159b57600080fd5b50565b601254600090819080611dad575050600854600092909150565b6000611db76129ff565b90506000611dd16040518060200160405280600081525090565b6000611df384600e54611dee600f5461175c601054601154612d50565b613a49565b935090506000816003811115611e0b57611e0b615b87565b14611e1d579660009650945050505050565b611e278386613a9b565b925090506000816003811115611e3f57611e3f615b87565b14611e51579660009650945050505050565b50516000969095509350505050565b6001546000546040516338e6a07360e11b81526001600160a01b039182166004820152858216602482015284151560448201529116906371cd40e690606401602060405180830381865afa158015611ebc573d6000803e3d6000fd5b505050506040513d601f19601f82011682018060405250810190611ee09190615bcd565b611f145760405162461bcd60e51b8152602060048201526005602482015264085a5b5c1b60da1b6044820152606401610cfa565b600080546001600160a01b038581166001600160a01b0319831617909255604051911690611f97903090611f4c9085906024016157b2565b60408051601f19818403018152918152602080830180516001600160e01b0316630adccee560e31b17905281518083019092526007825266216265636f6d6560c81b90820152613b66565b50600054604080516001600160a01b03808516825290921660208301527fd604de94d45953f9138079ec1b82d533cb2160c906d1076d1f7ed54befbca97a910160405180910390a150505050565b600080600660009054906101000a90046001600160a01b03169050826001600160a01b0316627e3dd26040518163ffffffff1660e01b8152600401602060405180830381865afa15801561203d573d6000803e3d6000fd5b505050506040513d601f19601f820116820180604052508101906120619190615bcd565b6120ad5760405162461bcd60e51b815260206004820152601c60248201527f6d61726b6572206d6574686f642072657475726e65642066616c7365000000006044820152606401610cfa565b600680546001600160a01b0319166001600160a01b0385811691821790925560408051928416835260208301919091527f7ac369dbd14fa5ea3f473ed67cc9d598964a77501540ba6751eb0b3decf5870d91015b60405180910390a160006116a4565b60008061211b612841565b61212b576116a46001604d612a6e565b43600c5414612140576116a4600a604c612a6e565b600760009054906101000a90046001600160a01b03169050826001600160a01b0316632191f92a6040518163ffffffff1660e01b8152600401602060405180830381865afa158015612196573d6000803e3d6000fd5b505050506040513d601f19601f820116820180604052508101906121ba9190615bcd565b6122065760405162461bcd60e51b815260206004820152601c60248201527f6d61726b6572206d6574686f642072657475726e65642066616c7365000000006044820152606401610cfa565b600780546001600160a01b0319166001600160a01b0385811691821790925560408051928416835260208301919091527fedffc32e068c7c95dfd4bdfd5c4d939a084d6b11c4199eac8436ed234d72f926910160405180910390a16001600160a01b038116156122f45760408051600481526024810182526020810180516001600160e01b0316636cc1140b60e11b17905290516001600160a01b038316916122ae91615cb8565b6000604051808303816000865af19150503d80600081146122eb576040519150601f19603f3d011682016040523d82523d6000602084013e6122f0565b606091505b5050505b60408051600481526024810182526020810180516001600160e01b031663742a137b60e11b17905290516001600160a01b0385169161233291615cb8565b6000604051808303816000865af19150503d806000811461236f576040519150601f19603f3d011682016040523d82523d6000602084013e612374565b606091505b50600091506116a49050565b600061238a612841565b61239a57610cad6001605a612a6e565b43600c54146123af57610cad600a605b612a6e565b670de0b6b3a76400006123cf6123c784600954612d50565b600a54612d50565b11156123e157610cad6002605c612a6e565b600b80549083905560408051828152602081018590527faaa68312e2ea9d50e16af5068410ab56e1a1fd06037b1a35664812c30f8214609101612101565b600043600c541461243657610cad600a6054612a6e565b6000198214156124465760095491505b6000612450613c02565b9050670de0b6b3a764000061247061246a600b5486612d50565b83612d50565b1115612482576116a460026055612a6e565b82600954146124e657612493612841565b6124a3576116a460016053612a6e565b600980549084905560408051828152602081018690527fcdd0b588250e1398549f79cfdb8217c186688822905d6715b0834ea1c865594a910160405180910390a1505b80600a541461253257600a80549082905560408051828152602081018490527f92eef861b6533b7d3417f39c2ad7b460eed4e88a32fa3604f30e718b7602e7dc910160405180910390a1505b60006116a4565b6006546040516317b9b84b60e31b81523060048201526001600160a01b038581166024830152848116604483015260648201849052600092839291169063bdcdc258906084016020604051808303816000875af115801561259e573d6000803e3d6000fd5b505050506040513d601f19601f820116820180604052508101906125c29190615b39565b905080156125df576125d76003605d83613c4c565b91505061135a565b836001600160a01b0316856001600160a01b03161415612605576125d76002605e612a6e565b6000856001600160a01b0316876001600160a01b0316141561262a5750600019612652565b506001600160a01b038086166000908152601460209081526040808320938a16835292905220545b6000806000806126628589612d86565b9094509250600084600381111561267b5761267b615b87565b146126995761268c6009605e612a6e565b965050505050505061135a565b6001600160a01b038a166000908152601360205260409020546126bc9089612d86565b909450915060008460038111156126d5576126d5615b87565b146126e65761268c6009605f612a6e565b6001600160a01b0389166000908152601360205260409020546127099089613cee565b9094509050600084600381111561272257612722615b87565b146127335761268c60096060612a6e565b6001600160a01b03808b16600090815260136020526040808220859055918b16815220819055600019851461278b576001600160a01b03808b166000908152601460209081526040808320938f168352929052208390555b886001600160a01b03168a6001600160a01b0316600080516020615db38339815191528a6040516127be91815260200190565b60405180910390a35060009a9950505050505050505050565b60008060006127e581611c64565b60006127ef6116fa565b9050801561281f5761281381601181111561280c5761280c615b87565b6040612a6e565b60009350935050612830565b61282a33878761362f565b93509350505b61283981611d28565b509250929050565b600654604080516303e1469160e61b815290516000926001600160a01b031691829163f851a440916004808201926020929091908290030181865afa15801561288e573d6000803e3d6000fd5b505050506040513d601f19601f820116820180604052508101906128b29190615cd4565b6001600160a01b0316336001600160a01b031614801561292f5750806001600160a01b0316630a755ec26040518163ffffffff1660e01b8152600401602060405180830381865afa15801561290b573d6000803e3d6000fd5b505050506040513d601f19601f8201168201806040525081019061292f9190615bcd565b8061170c57506001546001600160a01b03163314801561170c5750806001600160a01b0316632f1069ba6040518163ffffffff1660e01b8152600401602060405180830381865afa158015612988573d6000803e3d6000fd5b505050506040513d601f19601f8201168201806040525081019061170c9190615bcd565b6000806000806129bc8686613d1e565b909250905060008260038111156129d5576129d5615b87565b146129e657509150600090506129f8565b60006129f182613d9a565b9350935050505b9250929050565b6016546040516370a0823160e01b81523060048201526000916001600160a01b03169081906370a0823190602401602060405180830381865afa158015612a4a573d6000803e3d6000fd5b505050506040513d601f19601f8201168201806040525081019061170c9190615b39565b60007f45b96fe442630264581b197e84bbada861235052c5a1aadfff9ea4e40a969aa0836011811115612aa357612aa3615b87565b836063811115612ab557612ab5615b87565b60408051928352602083019190915260009082015260600160405180910390a18260118111156116a4576116a4615b87565b600080612af2612841565b612b02576116a46001603c612a6e565b43600c5414612b17576116a4600a603e612a6e565b82612b206129ff565b1015612b32576116a4600e603d612a6e565b600f54831115612b48576116a46002603f612a6e565b612b54600f5484613db2565b600f8190559050612b653384613dec565b7f3bad0c59cf2f06e7314077049f48a93578cd16f5ef92329f1dab1420a99c177e33848360405161210193929190615cf1565b600080612ba481611c64565b6000612bae6116fa565b90508015612bd257611488816011811115612bcb57612bcb615b87565b602a612a6e565b61149933600086613e71565b6001600160a01b038116600090815260156020526040812080548291829182918291612c135750600096879650945050505050565b612c238160000154600d546143f7565b90945092506000846003811115612c3c57612c3c615b87565b14612c4f57509195600095509350505050565b612c5d838260010154614441565b90945091506000846003811115612c7657612c76615b87565b14612c8957509195600095509350505050565b506000969095509350505050565b60008043600c5414612caf576116a4600a6035612a6e565b82612cb86129ff565b1015612cca576116a4600e6034612a6e565b601154831115612ce0576116a460026036612a6e565b612cec60115484613db2565b6011819055600154909150612532906001600160a01b031684613dec565b6000806000612d1881611c64565b6000612d226116fa565b90508015612d4657611c38816011811115612d3f57612d3f615b87565b6020612a6e565b611c4f338661446c565b60006116a48383604051806040016040528060118152602001706164646974696f6e206f766572666c6f7760781b81525061482a565b600080838311612da5576000612d9c8486615d12565b915091506129f8565b506003905060006129f8565b600080612dcc6040518060200160405280868152508461485b565b90506000612ddc82600e5461488c565b90506000612dec82600e54612d50565b90506000612e0d6040518060200160405280600b5481525084600f546148a4565b90506000612e2e6040518060200160405280600a54815250856011546148a4565b90506000612e4f6040518060200160405280600954815250866010546148a4565b90506000612e6287600d54600d546148a4565b600c8d9055600d819055600e869055600f85905560118490556010839055604080518d815260208101899052908101829052606081018790529091507f4dec04e750ca11537cabcd8a9eab06494de08da3735bc8871cd41250e190bc049060800160405180910390a160009c9b505050505050505050505050565b60008043600c5414612ef5576116a4600a6039612a6e565b82612efe6129ff565b1015612f10576116a4600e6038612a6e565b601054831115612f26576116a46002603a612a6e565b612f3260105484613db2565b905080601081905550612532600660009054906101000a90046001600160a01b03166001600160a01b031663f851a4406040518163ffffffff1660e01b8152600401602060405180830381865afa158015612f91573d6000803e3d6000fd5b505050506040513d601f19601f82011682018060405250810190612fb59190615cd4565b84613dec565b60065460405163d02f735160e01b81523060048201526001600160a01b0386811660248301528581166044830152848116606483015260848201849052600092839291169063d02f73519060a4016020604051808303816000875af1158015613028573d6000803e3d6000fd5b505050506040513d601f19601f8201168201806040525081019061304c9190615b39565b90508015613061576125d76003601d83613c4c565b846001600160a01b0316846001600160a01b03161415613087576125d76006601e612a6e565b6130ec604080516101808101909152806000815260200160008152602001600081526020016000815260200160008152602001600081526020016000815260200160008152602001600081526020016000815260200160008152602001600081525090565b6001600160a01b03851660009081526013602052604090205461310f9085612d86565b602083018190528282600381111561312957613129615b87565b600381111561313a5761313a615b87565b905250600090508151600381111561315457613154615b87565b146131845761317b6009601c8360000151600381111561317657613176615b87565b613c4c565b9250505061135a565b6131a3846040518060200160405280666379da05b600008152506148c5565b6080820152604080516020810190915267016345785d8a000081526131c99085906148c5565b61014082015260808101516131ee906131e3908690613db2565b826101400151613db2565b60608201526131fb611d93565b60c083018190528282600381111561321557613215615b87565b600381111561322657613226615b87565b905250600090508151600381111561324057613240615b87565b1461328d5760405162461bcd60e51b815260206004820152601860248201527f65786368616e67652072617465206d617468206572726f7200000000000000006044820152606401610cfa565b6132ad60405180602001604052808360c00151815250826080015161488c565b60a0820152604080516020810190915260c082015181526101408201516132d4919061488c565b610160820152600f5460a08201516132ec9190612d50565b60e08201526012546080820151613306916131e391613db2565b61012082015260115461016082015161331f9190612d50565b6101008201526001600160a01b038616600090815260136020526040902054606082015161334d9190613cee565b604083018190528282600381111561336757613367615b87565b600381111561337857613378615b87565b905250600090508151600381111561339257613392615b87565b146133b45761317b6009601b8360000151600381111561317657613176615b87565b60e0810151600f556101208101516012556101008101516011556020808201516001600160a01b0387811660008181526013855260408082209490945583860151928b1680825290849020929092556060850151925192835290929091600080516020615db3833981519152910160405180910390a3306001600160a01b0316856001600160a01b0316600080516020615db3833981519152836080015160405161346191815260200190565b60405180910390a360a081015160e08201516040517fa91e67c5ea634cd43a12c5a482724b03de01e85ca68702a53d0c2f45cb7c1dc5926134a3923092615cf1565b60405180910390a16000979650505050505050565b6000806134c481611c64565b60006134ce6116fa565b905080156134f2576114888160118111156134eb576134eb615b87565b600a612a6e565b61149933856148e8565b60008061350881611c64565b60006135126116fa565b9050801561352f57611488816011811115612bcb57612bcb615b87565b61149933856000613e71565b600080600061354981611c64565b60006135536116fa565b905080156135835761357781601181111561357057613570615b87565b6011612a6e565b6000935093505061361d565b846001600160a01b031663a6afed956040518163ffffffff1660e01b81526004016020604051808303816000875af11580156135c3573d6000803e3d6000fd5b505050506040513d601f19601f820116820180604052508101906135e79190615b39565b9050801561360b5761357781601181111561360457613604615b87565b6012612a6e565b61361733888888614c7c565b93509350505b61362681611d28565b50935093915050565b600654604051631200453160e11b81523060048201526001600160a01b03858116602483015284811660448301526064820184905260009283928392909116906324008a62906084016020604051808303816000875af1158015613697573d6000803e3d6000fd5b505050506040513d601f19601f820116820180604052508101906136bb9190615b39565b905080156136dc576136d06003604383613c4c565b60009250925050613a41565b43600c54146136f1576136d0600a6044612a6e565b61373a6040805161010081019091528060008152602001600081526020016000815260200160008152602001600081526020016000815260200160008152602001600081525090565b6001600160a01b038616600090815260156020526040902060010154606082015261376486612bde565b608083018190526020830182600381111561378157613781615b87565b600381111561379257613792615b87565b90525060009050816020015160038111156137af576137af615b87565b146137de576137d1600960428360200151600381111561317657613176615b87565b6000935093505050613a41565b6000198514156137f757608081015160408201526137ff565b604081018590525b61380d87826040015161513d565b60e08201819052608082015161382291612d86565b60a083018190526020830182600381111561383f5761383f615b87565b600381111561385057613850615b87565b905250600090508160200151600381111561386d5761386d615b87565b146138e05760405162461bcd60e51b815260206004820152603a60248201527f52455041595f424f52524f575f4e45575f4143434f554e545f424f52524f575f60448201527f42414c414e43455f43414c43554c4154494f4e5f4641494c45440000000000006064820152608401610cfa565b6138f0600e548260e00151612d86565b60c083018190526020830182600381111561390d5761390d615b87565b600381111561391e5761391e615b87565b905250600090508160200151600381111561393b5761393b615b87565b146139a25760405162461bcd60e51b815260206004820152603160248201527f52455041595f424f52524f575f4e45575f544f54414c5f42414c414e43455f43604482015270105310d55310551253d397d19052531151607a1b6064820152608401610cfa565b60a081810180516001600160a01b03898116600081815260156020908152604091829020948555600d5460019095019490945560c0870151600e81905560e088015195518251948f16855294840192909252820193909352606081019190915260808101919091527f1a2a22cb034d26d1854bdc6666a5b91fe25efbbb5dcad3b0355478d6f5c362a1910160405180910390a160e00151600093509150505b935093915050565b600080600080613a598787613cee565b90925090506000826003811115613a7257613a72615b87565b14613a835750915060009050613a41565b613a8d8186612d86565b935093505050935093915050565b6000613ab36040518060200160405280600081525090565b600080613ac886670de0b6b3a76400006143f7565b90925090506000826003811115613ae157613ae1615b87565b14613b00575060408051602081019091526000815290925090506129f8565b600080613b0d8388614441565b90925090506000826003811115613b2657613b26615b87565b14613b4957816040518060200160405280600081525095509550505050506129f8565b604080516020810190915290815260009890975095505050505050565b6060600080856001600160a01b031685604051613b839190615cb8565b6000604051808303816000865af19150503d8060008114613bc0576040519150601f19603f3d011682016040523d82523d6000602084013e613bc5565b606091505b509150915081613bf957805115613bdf5780518082602001fd5b8360405162461bcd60e51b8152600401610cfa91906157b2565b95945050505050565b6001546040805163dd86fea160e01b815290516000926001600160a01b03169163dd86fea19160048083019260209291908290030181865afa1580156119c0573d6000803e3d6000fd5b60007f45b96fe442630264581b197e84bbada861235052c5a1aadfff9ea4e40a969aa0846011811115613c8157613c81615b87565b846063811115613c9357613c93615b87565b604080519283526020830191909152810184905260600160405180910390a16003846011811115613cc657613cc6615b87565b14613ce257836011811115613cdd57613cdd615b87565b61135a565b61135a826103e8615ca0565b60008080613cfc8486615ca0565b9050848110613d10576000925090506129f8565b6002600092509250506129f8565b6000613d366040518060200160405280600081525090565b600080613d478660000151866143f7565b90925090506000826003811115613d6057613d60615b87565b14613d7f575060408051602081019091526000815290925090506129f8565b60408051602081019091529081526000969095509350505050565b8051600090610cad90670de0b6b3a764000090615d29565b60006116a48383604051806040016040528060158152602001747375627472616374696f6e20756e646572666c6f7760581b815250615307565b604080516001600160a01b038416602482015260448082018490528251808303909101815260649091018252602080820180516001600160e01b031663a9059cbb60e01b1790528251808401909352601983527f544f4b454e5f5452414e534645525f4f55545f4641494c45440000000000000090830152613e6d91615336565b5050565b6000821580613e7e575081155b613ee75760405162461bcd60e51b815260206004820152603460248201527f6f6e65206f662072656465656d546f6b656e73496e206f722072656465656d416044820152736d6f756e74496e206d757374206265207a65726f60601b6064820152608401610cfa565b613f286040805160e0810190915280600081526020016000815260200160008152602001600081526020016000815260200160008152602001600081525090565b613f30611d93565b6040830181905260208301826003811115613f4d57613f4d615b87565b6003811115613f5e57613f5e615b87565b9052506000905081602001516003811115613f7b57613f7b615b87565b14613fa557613f9d6009602e8360200151600381111561317657613176615b87565b9150506116a4565b831561403e576060810184905260408051602081018252908201518152613fcc90856129ac565b6080830181905260208301826003811115613fe957613fe9615b87565b6003811115613ffa57613ffa615b87565b905250600090508160200151600381111561401757614017615b87565b1461403957613f9d6009602c8360200151600381111561317657613176615b87565b6140cf565b61405a836040518060200160405280846040015181525061538d565b606083018190526020830182600381111561407757614077615b87565b600381111561408857614088615b87565b90525060009050816020015160038111156140a5576140a5615b87565b146140c757613f9d6009602d8360200151600381111561317657613176615b87565b608081018390525b600654606082015160405163eabe7d9160e01b81526000926001600160a01b03169163eabe7d91916141089130918b9190600401615d4b565b6020604051808303816000875af1158015614127573d6000803e3d6000fd5b505050506040513d601f19601f8201168201806040525081019061414b9190615b39565b90508015614169576141606003602b83613c4c565b925050506116a4565b43600c541461417e57614160600a602f612a6e565b61418e6012548360600151612d86565b60a08401819052602084018260038111156141ab576141ab615b87565b60038111156141bc576141bc615b87565b90525060009050826020015160038111156141d9576141d9615b87565b146141fb57614160600960318460200151600381111561317657613176615b87565b6001600160a01b03861660009081526013602052604090205460608301516142239190612d86565b60c084018190526020840182600381111561424057614240615b87565b600381111561425157614251615b87565b905250600090508260200151600381111561426e5761426e615b87565b1461429057614160600960308460200151600381111561317657613176615b87565b816080015161429d6129ff565b10156142af57614160600e6032612a6e565b60a082015160125560c08201516001600160a01b03871660009081526013602052604090205560808201516142e5908790613dec565b306001600160a01b0316866001600160a01b0316600080516020615db3833981519152846060015160405161431c91815260200190565b60405180910390a3608082015160608301516040517fe5b754fb1abb7f01b499791d0b820ae3b6af3424ac1c59768edb53f4ec31a9299261435e928a92615cf1565b60405180910390a1600654608083015160608401516040516351dff98960e01b81523060048201526001600160a01b038a81166024830152604482019390935260648101919091529116906351dff98990608401600060405180830381600087803b1580156143cc57600080fd5b505af11580156143e0573d6000803e3d6000fd5b50600092506143ed915050565b9695505050505050565b6000808361440a575060009050806129f8565b60006144168486615d6f565b9050836144238683615d29565b14614436576002600092509250506129f8565b6000925090506129f8565b6000808261445557506001905060006129f8565b60006144618486615d29565b915091509250929050565b600654604051634ef4c3e160e01b8152600091829182916001600160a01b031690634ef4c3e1906144a590309089908990600401615d4b565b6020604051808303816000875af11580156144c4573d6000803e3d6000fd5b505050506040513d601f19601f820116820180604052508101906144e89190615b39565b90508015614509576144fd6003602183613c4c565b600092509250506129f8565b43600c541461451e576144fd600a6024612a6e565b61455f6040805160e0810190915280600081526020016000815260200160008152602001600081526020016000815260200160008152602001600081525090565b614567611d93565b604083018190526020830182600381111561458457614584615b87565b600381111561459557614595615b87565b90525060009050816020015160038111156145b2576145b2615b87565b146145e1576145d4600960238360200151600381111561317657613176615b87565b60009350935050506129f8565b6145eb868661513d565b60c082018190526040805160208101825290830151815261460c919061538d565b606083018190526020830182600381111561462957614629615b87565b600381111561463a5761463a615b87565b905250600090508160200151600381111561465757614657615b87565b146146a45760405162461bcd60e51b815260206004820181905260248201527f4d494e545f45584348414e47455f43414c43554c4154494f4e5f4641494c45446044820152606401610cfa565b6146b46012548260600151612d50565b60808201526001600160a01b03861660009081526013602052604090205460608201516146e19190612d50565b60a0820181905260808201516012556001600160a01b038716600090815260136020526040908190209190915560c0820151606083015191517f4c209b5fc8ad50758f13e2e1088ba56a560dff690a1c6fef26394f4c03821c4f9261474a928a92909190615cf1565b60405180910390a1856001600160a01b0316306001600160a01b0316600080516020615db3833981519152836060015160405161478991815260200190565b60405180910390a360065460c082015160608301516040516341c728b960e01b81523060048201526001600160a01b038a81166024830152604482019390935260648101919091529116906341c728b990608401600060405180830381600087803b1580156147f757600080fd5b505af115801561480b573d6000803e3d6000fd5b5060009250614818915050565b8160c001519350935050509250929050565b6000806148378486615ca0565b905082858210156112425760405162461bcd60e51b8152600401610cfa91906157b2565b604080516020810190915260008152604051806020016040528061488385600001518561539d565b90529392505050565b600080614899848461485b565b905061135a81613d9a565b6000806148b1858561485b565b9050613bf96148bf82613d9a565b84612d50565b6000670de0b6b3a76400006148de84846000015161539d565b6116a49190615d29565b60065460405163368f515360e21b815260009182916001600160a01b039091169063da3d454c9061492190309088908890600401615d4b565b6020604051808303816000875af1158015614940573d6000803e3d6000fd5b505050506040513d601f19601f820116820180604052508101906149649190615b39565b90508015614981576149796003601083613c4c565b915050610cad565b43600c541461499657614979600a600c612a6e565b60006149a06129ff565b9050838110156149bf576149b6600e600b612a6e565b92505050610cad565b6149eb604080516080810190915280600081526020016000815260200160008152602001600081525090565b6149f486612bde565b6020830181905282826003811115614a0e57614a0e615b87565b6003811115614a1f57614a1f615b87565b9052506000905081516003811115614a3957614a39615b87565b14614a6457614a5a6009808360000151600381111561317657613176615b87565b9350505050610cad565b614a72816020015186613cee565b6040830181905282826003811115614a8c57614a8c615b87565b6003811115614a9d57614a9d615b87565b9052506000905081516003811115614ab757614ab7615b87565b14614ad957614a5a6009600e8360000151600381111561317657613176615b87565b6006546040828101519051631de6c8a560e21b815230600482015260248101919091526001600160a01b039091169063779b2294906044016020604051808303816000875af1158015614b30573d6000803e3d6000fd5b505050506040513d601f19601f82011682018060405250810190614b549190615b39565b92508215614b6957614a5a6003601085613c4c565b614b75600e5486613cee565b6060830181905282826003811115614b8f57614b8f615b87565b6003811115614ba057614ba0615b87565b9052506000905081516003811115614bba57614bba615b87565b14614bdc57614a5a6009600d8360000151600381111561317657613176615b87565b6040808201516001600160a01b0388166000908152601560205291909120908155600d546001909101556060810151600e55614c188686613dec565b60408082015160608084015183516001600160a01b038b168152602081018a9052938401929092528201527f13ed6866d4e1ee6da46f845c46d7e54120883d75c5ea9a2dacc1c4ca8984ab809060800160405180910390a160009695505050505050565b600654604051632fe3f38f60e11b81523060048201526001600160a01b03838116602483015286811660448301528581166064830152608482018590526000928392839290911690635fc7e71e9060a4016020604051808303816000875af1158015614cec573d6000803e3d6000fd5b505050506040513d601f19601f82011682018060405250810190614d109190615b39565b90508015614d3157614d256003601483613c4c565b60009250925050615134565b43600c5414614d4657614d25600a6018612a6e565b43846001600160a01b0316636c540baf6040518163ffffffff1660e01b8152600401602060405180830381865afa158015614d85573d6000803e3d6000fd5b505050506040513d601f19601f82011682018060405250810190614da99190615b39565b14614dba57614d25600a6013612a6e565b866001600160a01b0316866001600160a01b03161415614de057614d2560066019612a6e565b84614df157614d2560076017612a6e565b600019851415614e0757614d2560076016612a6e565b600080614e1589898961362f565b90925090508115614e4a57614e3c826011811115614e3557614e35615b87565b601a612a6e565b600094509450505050615134565b60065460405163c488847b60e01b815260009182916001600160a01b039091169063c488847b90614e839030908c908890600401615d4b565b6040805180830381865afa158015614e9f573d6000803e3d6000fd5b505050506040513d601f19601f82011682018060405250810190614ec39190615d8e565b90925090508115614f325760405162461bcd60e51b815260206004820152603360248201527f4c49515549444154455f434f4d5054524f4c4c45525f43414c43554c4154455f604482015272105353d5539517d4d152569157d19052531151606a1b6064820152608401610cfa565b6040516370a0823160e01b81526001600160a01b038b811660048301528291908a16906370a0823190602401602060405180830381865afa158015614f7b573d6000803e3d6000fd5b505050506040513d601f19601f82011682018060405250810190614f9f9190615b39565b1015614fed5760405162461bcd60e51b815260206004820152601860248201527f4c49515549444154455f5345495a455f544f4f5f4d55434800000000000000006044820152606401610cfa565b60006001600160a01b0389163014156150135761500c308d8d85612fbb565b9050615089565b60405163b2a02ff160e01b81526001600160a01b038a169063b2a02ff190615043908f908f908790600401615d4b565b6020604051808303816000875af1158015615062573d6000803e3d6000fd5b505050506040513d601f19601f820116820180604052508101906150869190615b39565b90505b80156150ce5760405162461bcd60e51b81526020600482015260146024820152731d1bdad95b881cd95a5e9d5c994819985a5b195960621b6044820152606401610cfa565b604080516001600160a01b038e811682528d811660208301528183018790528b1660608201526080810184905290517f298637f684da70674f26509b10f07ec2fbc77a335ab1e7d6215a4b2484d8bb529181900360a00190a16000975092955050505050505b94509492505050565b6016546040516370a0823160e01b815230600482015260009182916001600160a01b03909116906370a0823190602401602060405180830381865afa15801561518a573d6000803e3d6000fd5b505050506040513d601f19601f820116820180604052508101906151ae9190615b39565b905061523e6323b872dd60e01b8530866040516024016151d093929190615d4b565b604051602081830303815290604052906001600160e01b0319166020820180516001600160e01b0383818316178352505050506040518060400160405280601881526020017f544f4b454e5f5452414e534645525f494e5f4641494c45440000000000000000815250615336565b6016546040516370a0823160e01b81523060048201526000916001600160a01b0316906370a0823190602401602060405180830381865afa158015615287573d6000803e3d6000fd5b505050506040513d601f19601f820116820180604052508101906152ab9190615b39565b9050818110156152fd5760405162461bcd60e51b815260206004820152601a60248201527f544f4b454e5f5452414e534645525f494e5f4f564552464c4f570000000000006044820152606401610cfa565b613bf98282615d12565b6000818484111561532b5760405162461bcd60e51b8152600401610cfa91906157b2565b5061135a8385615d12565b601654600090615350906001600160a01b03168484613b66565b805190915015610eda578080602001905181019061536e9190615bcd565b82906113ef5760405162461bcd60e51b8152600401610cfa91906157b2565b6000806000806129bc86866153df565b60006116a483836040518060400160405280601781526020017f6d756c7469706c69636174696f6e206f766572666c6f77000000000000000000815250615452565b60006153f76040518060200160405280600081525090565b60008061540c670de0b6b3a7640000876143f7565b9092509050600082600381111561542557615425615b87565b14615444575060408051602081019091526000815290925090506129f8565b6129f1818660000151613a9b565b600083158061545f575082155b1561546c575060006116a4565b60006154788486615d6f565b9050836154858683615d29565b1483906112425760405162461bcd60e51b8152600401610cfa91906157b2565b8280546154b190615b52565b90600052602060002090601f0160209004810192826154d35760008555615519565b82601f106154ec57805160ff1916838001178555615519565b82800160010185558215615519579182015b828111156155195782518255916020019190600101906154fe565b506114e6929150615599565b82805461553190615b52565b90600052602060002090601f0160209004810192826155535760008555615519565b82601f1061556c5782800160ff19823516178555615519565b82800160010185558215615519579182015b8281111561551957823582559160200191906001019061557e565b5b808211156114e6576000815560010161559a565b6001600160a01b0381168114611d9057600080fd5b80356155ce816155ae565b919050565b634e487b7160e01b600052604160045260246000fd5b604051601f8201601f1916810167ffffffffffffffff81118282101715615612576156126155d3565b604052919050565b600067ffffffffffffffff821115615634576156346155d3565b50601f01601f191660200190565b600082601f83011261565357600080fd5b81356156666156618261561a565b6155e9565b81815284602083860101111561567b57600080fd5b816020850160208301376000918101602001919091529392505050565b600080600080600080600080610100898b0312156156b557600080fd5b88356156c0816155ae565b975060208901356156d0816155ae565b965060408901356156e0816155ae565b955060608901356156f0816155ae565b9450608089013567ffffffffffffffff8082111561570d57600080fd5b6157198c838d01615642565b955060a08b013591508082111561572f57600080fd5b5061573c8b828c01615642565b93505060c0890135915060e089013590509295985092959890939650565b60005b8381101561577557818101518382015260200161575d565b838111156113ef5750506000910152565b6000815180845261579e81602086016020860161575a565b601f01601f19169290920160200192915050565b6020815260006116a46020830184615786565b600080604083850312156157d857600080fd5b82356157e3816155ae565b946020939093013593505050565b60006020828403121561580357600080fd5b5035919050565b60006020828403121561581c57600080fd5b81356116a4816155ae565b60ff81168114611d9057600080fd5b80356155ce81615827565b60008060008060008060008060006101208a8c03121561586057600080fd5b893561586b816155ae565b985060208a013561587b816155ae565b975061588960408b016155c3565b965060608a0135955060808a013567ffffffffffffffff808211156158ad57600080fd5b6158b98d838e01615642565b965060a08c01359150808211156158cf57600080fd5b506158dc8c828d01615642565b9450506158eb60c08b01615836565b925060e08a013591506101008a013590509295985092959850929598565b60008060006060848603121561591e57600080fd5b8335615929816155ae565b92506020840135615939816155ae565b929592945050506040919091013590565b60008083601f84011261595c57600080fd5b50813567ffffffffffffffff81111561597457600080fd5b6020830191508360208285010111156129f857600080fd5b600080600080604085870312156159a257600080fd5b843567ffffffffffffffff808211156159ba57600080fd5b6159c68883890161594a565b909650945060208701359150808211156159df57600080fd5b506159ec8782880161594a565b95989497509550505050565b8015158114611d9057600080fd5b60008060008060608587031215615a1c57600080fd5b8435615a27816155ae565b93506020850135615a37816159f8565b9250604085013567ffffffffffffffff811115615a5357600080fd5b6159ec8782880161594a565b60008060208385031215615a7257600080fd5b823567ffffffffffffffff811115615a8957600080fd5b615a958582860161594a565b90969095509350505050565b60008060408385031215615ab457600080fd5b8235615abf816155ae565b91506020830135615acf816155ae565b809150509250929050565b600080600060608486031215615aef57600080fd5b8335615afa816155ae565b9250602084013591506040840135615b11816155ae565b809150509250925092565b600060208284031215615b2e57600080fd5b81516116a481615827565b600060208284031215615b4b57600080fd5b5051919050565b600181811c90821680615b6657607f821691505b60208210811415610d1857634e487b7160e01b600052602260045260246000fd5b634e487b7160e01b600052602160045260246000fd5b6020808252601690820152751858d8dc9d59481a5b9d195c995cdd0819985a5b195960521b604082015260600190565b600060208284031215615bdf57600080fd5b81516116a4816159f8565b600080600060608486031215615bff57600080fd5b8351615c0a816155ae565b6020850151909350615c1b816159f8565b604085015190925067ffffffffffffffff811115615c3857600080fd5b8401601f81018613615c4957600080fd5b8051615c576156618261561a565b818152876020838501011115615c6c57600080fd5b615c7d82602083016020860161575a565b8093505050509250925092565b634e487b7160e01b600052601160045260246000fd5b60008219821115615cb357615cb3615c8a565b500190565b60008251615cca81846020870161575a565b9190910192915050565b600060208284031215615ce657600080fd5b81516116a4816155ae565b6001600160a01b039390931683526020830191909152604082015260600190565b600082821015615d2457615d24615c8a565b500390565b600082615d4657634e487b7160e01b600052601260045260246000fd5b500490565b6001600160a01b039384168152919092166020820152604081019190915260600190565b6000816000190483118215151615615d8957615d89615c8a565b500290565b60008060408385031215615da157600080fd5b50508051602090910151909290915056feddf252ad1be2c89b69c2b068fc378daa952ba7f163c4a11628f55a4df523b3efa164736f6c634300080a000a60806040526002805461ffff60a01b191661010160a01b1790553480156200002657600080fd5b5060405162005bcb38038062005bcb83398101604081905262000049916200006f565b600080546001600160a01b0319166001600160a01b0392909216919091179055620000a1565b6000602082840312156200008257600080fd5b81516001600160a01b03811681146200009a57600080fd5b9392505050565b615b1a80620000b16000396000f3fe608060405234801561001057600080fd5b50600436106104955760003560e01c80636d154ea511610262578063bb82aa5e11610151578063d5333166116100ce578063e4028eee11610092578063e4028eee14610b4f578063e6653f3d14610b62578063e875544614610b76578063eabe7d9114610b7f578063ede4edd014610b92578063f851a44014610ba557600080fd5b8063d533316614610af6578063da3d454c14610b09578063dce1544914610b1c578063dcfbc0c714610b2f578063dd5cd22c14610b4257600080fd5b8063c8c9c97511610115578063c8c9c97514610aad578063c90c20b114610ac0578063d01f63f514610ac8578063d02f735114610ad0578063d251fefc14610ae357600080fd5b8063bb82aa5e14610a2c578063bdcdc25814610a3f578063c299823814610a52578063c488847b14610a72578063c6c5b0dd14610a9a57600080fd5b8063929fe9a1116101df578063abfceffc116101a3578063abfceffc146109dd578063ac0b0bb7146109f0578063b0772d0b14610a04578063b095721014610a0c578063b9b5b15314610a1957600080fd5b8063929fe9a11461094057806394543c1514610981578063952adf5a146109945780639b19251a146109a7578063aba35b98146109ca57600080fd5b80637dc0d1d0116102265780637dc0d1d0146108af578063819605a8146108c257806387f76303146108d55780638e8f294b146108e95780638ebf63641461092d57600080fd5b80636d154ea5146108355780636d35bf9114610858578063731f0c2b146108665780637515bafa14610889578063779b22941461089c57600080fd5b80633bcf7ec11161038957806351dff989116103065780635ec88c79116102ca5780635ec88c79146107ce5780635f5af1aa146107e15780635fc7e71e146107f4578063607ef6c114610807578063632e51421461081a5780636a56947e1461082257600080fd5b806351dff9891461077a57806352d84d1e1461078d57806355ee1fe1146107a05780635c778605146107b35780635d72de62146107c657600080fd5b80634ada90af1161034d5780634ada90af1461070a5780634e79238f146107135780634ef4c3e1146107415780634fd42e171461075457806351a485e41461076757600080fd5b80633bcf7ec11461067b5780633c94786f1461068e57806341c728b9146106a257806347ef3b3b146106d75780634a584432146106ea57600080fd5b806324008a6211610417578063317b0b77116103db578063317b0b771461060f57806331ff47fa1461062257806332abcdbe1461064b5780633605b51b14610660578063391957d71461066857600080fd5b806324008a62146105af57806324a3d622146105c257806326782247146105d55780632d70db78146105e85780632f1069ba146105fb57600080fd5b806318c882a51161045e57806318c882a5146105475780631d504dc61461055a5780631ededc911461056f57806321af4569146105845780632259192a1461059c57600080fd5b80627e3dd21461049a57806302c3bcbb146104b75780630a755ec2146104e557806315761d51146104f957806316dc15fe14610524575b600080fd5b6104a2600181565b60405190151581526020015b60405180910390f35b6104d76104c5366004615284565b601a6020526000908152604090205481565b6040519081526020016104ae565b6002546104a290600160a81b900460ff1681565b60005461050c906001600160a01b031681565b6040516001600160a01b0390911681526020016104ae565b6104a2610532366004615284565b600f6020526000908152604090205460ff1681565b6104a26105553660046152af565b610bb8565b61056d610568366004615284565b610ced565b005b61056d61057d3660046152e8565b5050505050565b60185461050c9061010090046001600160a01b031681565b6104d76105aa366004615343565b610faa565b6104d76105bd36600461537e565b610fb9565b60155461050c906001600160a01b031681565b60025461050c906001600160a01b031681565b6104a26105f63660046153cf565b610ff4565b6002546104a290600160a01b900460ff1681565b6104d761061d3660046153ec565b6110d7565b61050c610630366004615284565b6010602052600090815260409020546001600160a01b031681565b6106536111ab565b6040516104ae9190615405565b61065361120d565b61056d610676366004615284565b61126d565b6104a26106893660046152af565b611341565b6015546104a290600160a01b900460ff1681565b61056d6106b0366004615452565b50506001600160a01b03166000908152600f60205260409020805460ff1916600117905550565b61056d6106e5366004615498565b61145e565b6104d76106f8366004615284565b60196020526000908152604090205481565b6104d760075481565b610726610721366004615452565b611463565b604080519384526020840192909252908201526060016104ae565b6104d761074f366004615506565b6114a3565b6104d76107623660046153ec565b611876565b61056d61077536600461558c565b611932565b61056d610788366004615452565b611b15565b61050c61079b3660046153ec565b611b6a565b6104d76107ae366004615284565b611b94565b61056d6107c1366004615506565b505050565b61056d611c15565b6107266107dc366004615284565b611cab565b6104d76107ef366004615284565b611ce6565b6104d76108023660046155f8565b611d5a565b61056d61081536600461558c565b611f27565b61056d612101565b61056d61083036600461537e565b612195565b6104a2610843366004615284565b60176020526000908152604090205460ff1681565b61056d61057d3660046155f8565b6104a2610874366004615284565b60166020526000908152604090205460ff1681565b61050c6108973660046153ec565b61219a565b6104d76108aa36600461565c565b6121aa565b60055461050c906001600160a01b031681565b6104d76108d0366004615284565b612305565b6015546104a290600160b01b900460ff1681565b6109166108f7366004615284565b600a602052600090815260409020805460019091015460ff9091169082565b6040805192151583526020830191909152016104ae565b6104a261093b3660046153cf565b6126a7565b6104a261094e366004615688565b6001600160a01b038082166000908152600a60209081526040808320938616835260029093019052205460ff1692915050565b6104a261098f366004615284565b612781565b6104d76109a23660046153cf565b6128eb565b6104a26109b5366004615284565b60126020526000908152604090205460ff1681565b6104d76109d83660046156b6565b612969565b6106536109eb366004615284565b612adb565b6015546104a290600160b81b900460ff1681565b610653612b51565b6011546104a29060ff1681565b6104d7610a27366004615284565b612bb1565b60035461050c906001600160a01b031681565b6104d7610a4d36600461537e565b612da3565b610a65610a60366004615757565b612e28565b6040516104ae9190615810565b610a85610a80366004615506565b612ef0565b604080519283526020830191909152016104ae565b61050c610aa83660046153ec565b61310a565b6104d7610abb36600461558c565b61311a565b61056d6133c1565b6106536134a4565b6104d7610ade3660046155f8565b613504565b61050c610af13660046153ec565b61368d565b6104d7610b043660046153cf565b61369d565b6104d7610b17366004615506565b613710565b61050c610b2a36600461565c565b613ac1565b60045461050c906001600160a01b031681565b6018546104a29060ff1681565b6104d7610b5d36600461565c565b613af9565b6015546104a290600160a81b900460ff1681565b6104d760065481565b6104d7610b8d366004615506565b613c84565b6104d7610ba0366004615284565b613ca1565b60015461050c906001600160a01b031681565b6001600160a01b0382166000908152600a602052604081205460ff16610bf95760405162461bcd60e51b8152600401610bf090615848565b60405180910390fd5b6015546001600160a01b0316331480610c155750610c15614124565b610c315760405162461bcd60e51b8152600401610bf090615890565b610c39614124565b80610c4657506001821515145b610c625760405162461bcd60e51b8152600401610bf0906158d7565b6001600160a01b038316600081815260176020908152604091829020805460ff19168615159081179091558251938452606091840182905260069184019190915265426f72726f7760d01b6080840152908201527f71aec636243f9709bb0007ae15e9afb8150ab01716d75fd7573be5cc096e03b09060a0015b60405180910390a150805b92915050565b6000546001600160a01b031633148015610d645750806001600160a01b0316632f1069ba6040518163ffffffff1660e01b8152600401602060405180830381865afa158015610d40573d6000803e3d6000fd5b505050506040513d601f19601f82011682018060405250810190610d649190615907565b80610e495750806001600160a01b031663f851a4406040518163ffffffff1660e01b8152600401602060405180830381865afa158015610da8573d6000803e3d6000fd5b505050506040513d601f19601f82011682018060405250810190610dcc9190615924565b6001600160a01b0316336001600160a01b0316148015610e495750806001600160a01b0316630a755ec26040518163ffffffff1660e01b8152600401602060405180830381865afa158015610e25573d6000803e3d6000fd5b505050506040513d601f19601f82011682018060405250810190610e499190615907565b610ea55760405162461bcd60e51b815260206004820152602760248201527f6f6e6c7920756e6974726f6c6c65722061646d696e2063616e206368616e676560448201526620627261696e7360c81b6064820152608401610bf0565b6000816001600160a01b031663c1e803346040518163ffffffff1660e01b81526004016020604051808303816000875af1158015610ee7573d6000803e3d6000fd5b505050506040513d601f19601f82011682018060405250810190610f0b9190615941565b90508015610f535760405162461bcd60e51b815260206004820152601560248201527418da185b99d9481b9bdd08185d5d1a1bdc9a5e9959605a1b6044820152606401610bf0565b816001600160a01b0316635d72de626040518163ffffffff1660e01b8152600401600060405180830381600087803b158015610f8e57600080fd5b505af1158015610fa2573d6000803e3d6000fd5b505050505050565b6000805b90505b949350505050565b6001600160a01b0384166000908152600a602052604081205460ff16610fe35760095b9050610fb1565b610fed8584614178565b6000610fae565b6015546000906001600160a01b03163314806110135750611013614124565b61102f5760405162461bcd60e51b8152600401610bf090615890565b611037614124565b8061104457506001821515145b6110605760405162461bcd60e51b8152600401610bf0906158d7565b60158054831515600160b81b0260ff60b81b199091161790556040517fef159d9a32b2472e32b098f954f3ce62d232939f1c207070b584df1814de2de0906110cb9084906040808252600590820152645365697a6560d81b6060820152901515602082015260800190565b60405180910390a15090565b60006110e1614124565b6110f157610ce76001600761421b565b6040805160208082018352848252825190810190925266b1a2bc2ec5000080835281519192911161112857610fb16005600861421b565b6040805160208101909152670c7d713b49da00008082528351111561115c576111536005600861421b565b95945050505050565b600680549086905560408051828152602081018890527f3b9670cf975d26958e754b57098eaa2ac914d8d2a31b83257997b9f346110fd991015b60405180910390a160005b9695505050505050565b6060600d80548060200260200160405190810160405280929190818152602001828054801561120357602002820191906000526020600020905b81546001600160a01b031681526001909101906020018083116111e5575b5050505050905090565b6060601b805480602002602001604051908101604052809291908181526020018280548015611203576020028201919060005260206000209081546001600160a01b031681526001909101906020018083116111e5575050505050905090565b6001546001600160a01b031633146112d65760405162461bcd60e51b815260206004820152602660248201527f6f6e6c792061646d696e2063616e2073657420626f72726f772063617020677560448201526530b93234b0b760d11b6064820152608401610bf0565b601880546001600160a01b03838116610100818102610100600160a81b031985161790945560408051949093049091168084526020840191909152917feda98690e518e9a05f8ec6837663e188211b2da8f4906648b323f2c1d4434e29910160405180910390a15050565b6001600160a01b0382166000908152600a602052604081205460ff166113795760405162461bcd60e51b8152600401610bf090615848565b6015546001600160a01b03163314806113955750611395614124565b6113b15760405162461bcd60e51b8152600401610bf090615890565b6113b9614124565b806113c657506001821515145b6113e25760405162461bcd60e51b8152600401610bf0906158d7565b6001600160a01b038316600081815260166020908152604091829020805460ff19168615159081179091558251938452606091840182905260049184019190915263135a5b9d60e21b6080840152908201527f71aec636243f9709bb0007ae15e9afb8150ab01716d75fd7573be5cc096e03b09060a001610cdc565b610fa2565b6000806000806000806114788a8a8a8a614294565b9250925092508260158111156114905761149061595a565b95509093509150505b9450945094915050565b6001600160a01b03831660009081526016602052604081205460ff16156114fd5760405162461bcd60e51b815260206004820152600e60248201526d1b5a5b9d081a5cc81c185d5cd95960921b6044820152606401610bf0565b6001600160a01b0384166000908152600a602052604090205460ff166115275760095b905061186f565b60115460ff16801561155257506001600160a01b03831660009081526012602052604090205460ff16155b1561155e576012611520565b6001600160a01b0384166000908152601a6020526040902054801561185e576000856001600160a01b0316633b1d21a26040518163ffffffff1660e01b8152600401602060405180830381865afa1580156115bd573d6000803e3d6000fd5b505050506040513d601f19601f820116820180604052508101906115e19190615941565b90506000866001600160a01b03166347bd37186040518163ffffffff1660e01b8152600401602060405180830381865afa158015611623573d6000803e3d6000fd5b505050506040513d601f19601f820116820180604052508101906116479190615941565b90506000876001600160a01b0316638f840ddd6040518163ffffffff1660e01b8152600401602060405180830381865afa158015611689573d6000803e3d6000fd5b505050506040513d601f19601f820116820180604052508101906116ad9190615941565b90506000886001600160a01b031663dc028ab16040518163ffffffff1660e01b8152600401602060405180830381865afa1580156116ef573d6000803e3d6000fd5b505050506040513d601f19601f820116820180604052508101906117139190615941565b90506000896001600160a01b03166361feacff6040518163ffffffff1660e01b8152600401602060405180830381865afa158015611755573d6000803e3d6000fd5b505050506040513d601f19601f820116820180604052508101906117799190615941565b905060008061179b878761179661179089896145c5565b876145c5565b6145fb565b909250905060008260038111156117b4576117b461595a565b146117ca57600b9850505050505050505061186f565b60006117d6828c61464d565b909350905060008360038111156117ef576117ef61595a565b1461180657600b995050505050505050505061186f565b8881106118555760405162461bcd60e51b815260206004820152601960248201527f6d61726b657420737570706c79206361702072656163686564000000000000006044820152606401610bf0565b50505050505050505b6118688585614680565b60005b9150505b9392505050565b6000611880614124565b61189057610ce76001600d61421b565b60408051602080820183528482528251908101909252670de0b6b3a7640000808352815191929110156118c957610fb16007600e61421b565b60408051602081019091526714d1120d7b160000808252835111156118f4576111536007600e61421b565b600780549086905560408051828152602081018890527faeba5a6c40a8ac138134bff1aaa65debf25971188a58804bad717f82f0ec13169101611196565b6001546001600160a01b031633148061195a575060185461010090046001600160a01b031633145b6119c45760405162461bcd60e51b815260206004820152603560248201527f6f6e6c792061646d696e206f7220626f72726f772063617020677561726469616044820152746e2063616e2073657420737570706c79206361707360581b6064820152608401610bf0565b828181158015906119d457508082145b611a105760405162461bcd60e51b815260206004820152600d60248201526c1a5b9d985b1a59081a5b9c1d5d609a1b6044820152606401610bf0565b60005b82811015611b0c57848482818110611a2d57611a2d615970565b90506020020135601a6000898985818110611a4a57611a4a615970565b9050602002016020810190611a5f9190615284565b6001600160a01b03168152602081019190915260400160002055868682818110611a8b57611a8b615970565b9050602002016020810190611aa09190615284565b6001600160a01b03167f9e0ad9cee10bdf36b7fbd38910c0bdff0f275ace679b45b922381c2723d676f8868684818110611adc57611adc615970565b90506020020135604051611af291815260200190565b60405180910390a280611b048161599c565b915050611a13565b50505050505050565b80158015611b235750600082115b15611b645760405162461bcd60e51b815260206004820152601160248201527072656465656d546f6b656e73207a65726f60781b6044820152606401610bf0565b50505050565b600b8181548110611b7a57600080fd5b6000918252602090912001546001600160a01b0316905081565b6000611b9e614124565b611bae57610ce76001601361421b565b600580546001600160a01b038481166001600160a01b031983168117909355604080519190921680825260208201939093527fd52b2b9b7e9ee655fcb95d2e5b9e0c9f69e7ef2b8e9d2d0ea78402d576d22e2291015b60405180910390a160009392505050565b6003546001600160a01b03163314611c8a5760405162461bcd60e51b815260206004820152603260248201527f6f6e6c7920696d706c656d656e746174696f6e206d61792063616c6c205f626560448201527131b7b6b2a4b6b83632b6b2b73a30ba34b7b760711b6064820152608401610bf0565b601c54610100900460ff16611ca957601c805461ffff19166101011790555b565b600080600080600080611cc2876000806000614294565b925092509250826015811115611cda57611cda61595a565b97919650945092505050565b6000611cf0614124565b611d0057610ce76001601861421b565b601580546001600160a01b038481166001600160a01b031983168117909355604080519190921680825260208201939093527f0613b6ee6a04f0d09f390e4d9318894b9f6ac7fd83897cd8d18896ba579c401e9101611c04565b6001600160a01b0385166000908152600a602052604081205460ff161580611d9b57506001600160a01b0385166000908152600a602052604090205460ff16155b15611daa5760095b9050611153565b6040516395dd919360e01b81526001600160a01b038481166004830152600091908816906395dd919390602401602060405180830381865afa158015611df4573d6000803e3d6000fd5b505050506040513d601f19601f82011682018060405250810190611e189190615941565b9050611e2387612781565b15611e8e5782811015611e895760405162461bcd60e51b815260206004820152602860248201527f43616e206e6f74207265706179206d6f7265207468616e2074686520746f74616044820152676c20626f72726f7760c01b6064820152608401610bf0565b611f1a565b600080611e9a86614722565b91935090915060009050826015811115611eb657611eb661595a565b14611ed757816015811115611ecd57611ecd61595a565b9350505050611153565b80611ee3576003611ecd565b6000611eff604051806020016040528060065481525085614742565b905080861115611f16576011945050505050611153565b5050505b5060009695505050505050565b6001546001600160a01b0316331480611f4f575060185461010090046001600160a01b031633145b611fb95760405162461bcd60e51b815260206004820152603560248201527f6f6e6c792061646d696e206f7220626f72726f772063617020677561726469616044820152746e2063616e2073657420626f72726f77206361707360581b6064820152608401610bf0565b82818115801590611fc957508082145b6120055760405162461bcd60e51b815260206004820152600d60248201526c1a5b9d985b1a59081a5b9c1d5d609a1b6044820152606401610bf0565b60005b82811015611b0c5784848281811061202257612022615970565b905060200201356019600089898581811061203f5761203f615970565b90506020020160208101906120549190615284565b6001600160a01b0316815260208101919091526040016000205586868281811061208057612080615970565b90506020020160208101906120959190615284565b6001600160a01b03167f6f1951b2aad10f3fc81b86d91105b413a5b3f847a34bbc5ce1904201b14438f68686848181106120d1576120d1615970565b905060200201356040516120e791815260200190565b60405180910390a2806120f98161599c565b915050612008565b336000908152600a602052604090205460ff166121865760405162461bcd60e51b815260206004820152603b60248201527f436f6d7074726f6c6c65723a5f61667465724e6f6e5265656e7472616e743a2060448201527f63616c6c6572206e6f74206c6973746564206173206d61726b657400000000006064820152608401610bf0565b601c805460ff19166001179055565b611b64565b600d8181548110611b7a57600080fd5b600080546040805163fdb25fb160e01b8152905183926001600160a01b03169163fdb25fb19160048083019260209291908290030181865afa1580156121f4573d6000803e3d6000fd5b505050506040513d601f19601f820116820180604052508101906122189190615941565b905080156122fb5760055460405163fc57d4df60e01b81526001600160a01b038681166004830152600092169063fc57d4df90602401602060405180830381865afa15801561226b573d6000803e3d6000fd5b505050506040513d601f19601f8201168201806040525081019061228f9190615941565b9050806122a157600d92505050610ce7565b6000806122bc6040518060200160405280858152508761475a565b909250905060008260038111156122d5576122d561595a565b146122e857600b5b945050505050610ce7565b838110156122f75760136122dd565b5050505b6000949350505050565b600061230f614124565b61231f57610ce76001601961421b565b6001600160a01b0382166000908152600a602052604090205460ff1661234b57610ce76009601a61421b565b6000826001600160a01b03166318160ddd6040518163ffffffff1660e01b8152600401602060405180830381865afa15801561238b573d6000803e3d6000fd5b505050506040513d601f19601f820116820180604052508101906123af9190615941565b11156123c157610ce76015601b61421b565b6001600160a01b0382166000908152600a60209081526040808320805460ff19168155600101839055600b8054825181850281018501909352808352919290919083018282801561243b57602002820191906000526020600020905b81546001600160a01b0316815260019091019060200180831161241d575b5050835193945083925060009150505b828110156124a057856001600160a01b031684828151811061246f5761246f615970565b60200260200101516001600160a01b0316141561248e578091506124a0565b806124988161599c565b91505061244b565b508181106124b0576124b06159b7565b600b80546124c0906001906159cd565b815481106124d0576124d0615970565b600091825260209091200154600b80546001600160a01b0390921691839081106124fc576124fc615970565b9060005260206000200160006101000a8154816001600160a01b0302191690836001600160a01b03160217905550600b80548061253b5761253b6159e4565b6001900381819060005260206000200160006101000a8154906001600160a01b0302191690559055600060106000876001600160a01b031663ac784ddc6040518163ffffffff1660e01b81526004016020604051808303816000875af11580156125a9573d6000803e3d6000fd5b505050506040513d601f19601f820116820180604052508101906125cd9190615907565b61263857876001600160a01b0316636f307dc36040518163ffffffff1660e01b8152600401602060405180830381865afa15801561260f573d6000803e3d6000fd5b505050506040513d601f19601f820116820180604052508101906126339190615924565b61263b565b60005b6001600160a01b039081168252602080830193909352604091820160002080546001600160a01b031916948216949094179093555191871682527f302feb03efd5741df80efe7f97f5d93d74d46a542a3d312d0faae64fa1f3e0e9910160405180910390a16000611153565b6015546000906001600160a01b03163314806126c657506126c6614124565b6126e25760405162461bcd60e51b8152600401610bf090615890565b6126ea614124565b806126f757506001821515145b6127135760405162461bcd60e51b8152600401610bf0906158d7565b60158054831515600160b01b0260ff60b01b199091161790556040517fef159d9a32b2472e32b098f954f3ce62d232939f1c207070b584df1814de2de0906110cb9084906040808252600890820152672a3930b739b332b960c11b6060820152901515602082015260800190565b6001600160a01b0381166000908152600a60205260408120600101541580156127c757506001600160a01b03821660009081526017602052604090205460ff1615156001145b8015610ce757506128db61289d836001600160a01b031663173b99046040518163ffffffff1660e01b8152600401602060405180830381865afa158015612812573d6000803e3d6000fd5b505050506040513d601f19601f820116820180604052508101906128369190615941565b846001600160a01b0316638d02d9a16040518163ffffffff1660e01b8152600401602060405180830381865afa158015612874573d6000803e3d6000fd5b505050506040513d601f19601f820116820180604052508101906128989190615941565b6145c5565b836001600160a01b031663dbfe7c196040518163ffffffff1660e01b8152600401602060405180830381865afa158015612874573d6000803e3d6000fd5b670de0b6b3a76400001492915050565b60006128f5614124565b61290557610ce76001601461421b565b60115460ff161515821515141561291d576000610ce7565b6011805460ff19168315159081179091556040519081527f84c7d948374a180eddab35d27d2f7a94167a1ff4e79467f1e89c061984190a1e906020015b60405180910390a16000610ce7565b6000612973614124565b61298357610fdc6001601761421b565b60028054600160a01b60ff60a01b19821681179092550460ff16600086612a1e57600054604051638754e4fd60e01b81526001600160a01b0390911690638754e4fd906129d690899089906004016159fa565b6020604051808303816000875af11580156129f5573d6000803e3d6000fd5b505050506040513d601f19601f82011682018060405250810190612a199190615924565b612a93565b600054604051639b86a9b560e01b81526001600160a01b0390911690639b86a9b590612a5090899089906004016159fa565b6020604051808303816000875af1158015612a6f573d6000803e3d6000fd5b505050506040513d601f19601f82011682018060405250810190612a939190615924565b6002805460ff60a01b1916600160a01b8515150217905590506000612ab7826147ac565b90508015612ac55780612acf565b612acf8286613af9565b98975050505050505050565b6001600160a01b0381166000908152600960209081526040808320805482518185028101850190935280835260609493830182828015612b4457602002820191906000526020600020905b81546001600160a01b03168152600190910190602001808311612b26575b5093979650505050505050565b6060600b805480602002602001604051908101604052809291908181526020018280548015611203576020028201919060005260206000209081546001600160a01b031681526001909101906020018083116111e5575050505050905090565b6000612bbb614124565b612bcb57610ce76001600261421b565b816001600160a01b031663abc6d72d6040518163ffffffff1660e01b8152600401602060405180830381865afa158015612c09573d6000803e3d6000fd5b505050506040513d601f19601f82011682018060405250810190612c2d9190615907565b612c795760405162461bcd60e51b815260206004820152601c60248201527f6d61726b6572206d6574686f642072657475726e65642066616c7365000000006044820152606401610bf0565b60005b601b54811015612d2457601b8181548110612c9957612c99615970565b6000918252602090912001546001600160a01b0384811691161415612d125760405162461bcd60e51b815260206004820152602960248201527f526577617264734469737472696275746f7220636f6e747261637420616c726560448201526818591e48185919195960ba1b6064820152608401610bf0565b80612d1c8161599c565b915050612c7c565b50601b80546001810182556000919091527f3ad8aa4f87544323a9d1e5dd902f40c356527a7955687113db5f9a85ad579dc10180546001600160a01b0319166001600160a01b0384169081179091556040519081527f98ef1187fb6fd2bc85f8996489877eb2b5428f9e9bdfc068c9ad6c2ea82eacc79060200161295a565b601554600090600160b01b900460ff1615612df55760405162461bcd60e51b81526020600482015260126024820152711d1c985b9cd9995c881a5cc81c185d5cd95960721b6044820152606401610bf0565b6000612e02868685614b42565b90508015612e11579050610fb1565b612e1c868686614bfa565b60009695505050505050565b805160609060008167ffffffffffffffff811115612e4857612e48615741565b604051908082528060200260200182016040528015612e71578160200160208202803683370190505b50905060005b82811015612ee8576000858281518110612e9357612e93615970565b60200260200101519050612ea78133614ca5565b6015811115612eb857612eb861595a565b838381518110612eca57612eca615970565b60209081029190910101525080612ee08161599c565b915050612e77565b509392505050565b60055460405163fc57d4df60e01b81526001600160a01b038581166004830152600092839283929091169063fc57d4df90602401602060405180830381865afa158015612f41573d6000803e3d6000fd5b505050506040513d601f19601f82011682018060405250810190612f659190615941565b60055460405163fc57d4df60e01b81526001600160a01b0388811660048301529293506000929091169063fc57d4df90602401602060405180830381865afa158015612fb5573d6000803e3d6000fd5b505050506040513d601f19601f82011682018060405250810190612fd99190615941565b9050811580612fe6575080155b15612ffa57600d6000935093505050613102565b6000866001600160a01b031663182df0f56040518163ffffffff1660e01b8152600401602060405180830381865afa15801561303a573d6000803e3d6000fd5b505050506040513d601f19601f8201168201806040525081019061305e9190615941565b905060006130786040518060200160405280600081525090565b6040805160208082018352600080835283518083018552908152835180830185526007548152845192830190945288825291926130b491614e40565b92506130dc604051806020016040528088815250604051806020016040528088815250614e40565b91506130e88383614e88565b90506130f4818b614742565b600099509750505050505050505b935093915050565b601b8181548110611b7a57600080fd5b6000613124614124565b61313457610fdc6001601561421b565b60005b848110156133b957600086868381811061315357613153615970565b90506020020160208101906131689190615284565b905084848381811061317c5761317c615970565b905060200201602081019061319191906153cf565b15613249576001600160a01b03811660009081526012602052604090205460ff16613244576001600160a01b0381166000818152601260205260408120805460ff19166001908117909155601380548083018255928190527f66de8ffda797e3de9c05e8fc57b3bf0ec28a930d40b0d285d93c06501cf6a09090920180546001600160a01b0319169093179092555461322a91906159cd565b6001600160a01b0382166000908152601460205260409020555b6133a6565b6001600160a01b03811660009081526012602052604090205460ff16156133a6576013805461327a906001906159cd565b8154811061328a5761328a615970565b60009182526020808320909101546001600160a01b03848116845260149092526040909220546013805492909316929181106132c8576132c8615970565b9060005260206000200160006101000a8154816001600160a01b0302191690836001600160a01b031602179055506013805480613307576133076159e4565b60008281526020808220830160001990810180546001600160a01b03191690559092019092556001600160a01b03831682526014908190526040822054601380549193918490811061335b5761335b615970565b60009182526020808320909101546001600160a01b039081168452838201949094526040928301822094909455918416825260148352808220829055601290925220805460ff191690555b50806133b18161599c565b915050613137565b506000610fae565b336000908152600a602052604090205460ff166134465760405162461bcd60e51b815260206004820152603c60248201527f436f6d7074726f6c6c65723a5f6265666f72654e6f6e5265656e7472616e743a60448201527f2063616c6c6572206e6f74206c6973746564206173206d61726b6574000000006064820152608401610bf0565b601c5460ff166134985760405162461bcd60e51b815260206004820152601860248201527f72652d656e7465726564206163726f73732061737365747300000000000000006044820152606401610bf0565b601c805460ff19169055565b60606013805480602002602001604051908101604052809291908181526020018280548015611203576020028201919060005260206000209081546001600160a01b031681526001909101906020018083116111e5575050505050905090565b601554600090600160b81b900460ff16156135535760405162461bcd60e51b815260206004820152600f60248201526e1cd95a5e99481a5cc81c185d5cd959608a1b6044820152606401610bf0565b6001600160a01b0386166000908152600a602052604090205460ff16158061359457506001600160a01b0385166000908152600a602052604090205460ff16155b156135a0576009611da3565b846001600160a01b0316635fe3b5676040518163ffffffff1660e01b8152600401602060405180830381865afa1580156135de573d6000803e3d6000fd5b505050506040513d601f19601f820116820180604052508101906136029190615924565b6001600160a01b0316866001600160a01b0316635fe3b5676040518163ffffffff1660e01b8152600401602060405180830381865afa158015613649573d6000803e3d6000fd5b505050506040513d601f19601f8201168201806040525081019061366d9190615924565b6001600160a01b031614613682576002611da3565b612e1c868486614bfa565b60138181548110611b7a57600080fd5b60006136a7614124565b6136b757610ce76001600661421b565b60185460ff16151582151514156136cf576000610ce7565b6018805460ff19168315159081179091556040519081527faa40ee94af55250363b91641a0a615c47690148901505f89b01dafae03fff2819060200161295a565b6001600160a01b03831660009081526017602052604081205460ff161561376c5760405162461bcd60e51b815260206004820152601060248201526f189bdc9c9bddc81a5cc81c185d5cd95960821b6044820152606401610bf0565b6001600160a01b0384166000908152600a602052604090205460ff16613793576009611520565b6001600160a01b038085166000908152600a60209081526040808320938716835260029093019052205460ff1661389057336001600160a01b038516146138145760405162461bcd60e51b815260206004820152601560248201527439b2b73232b91036bab9ba1031329031aa37b5b2b760591b6044820152606401610bf0565b60006138203385614ca5565b905060008160158111156138365761383661595a565b146138555780601581111561384d5761384d61595a565b91505061186f565b6001600160a01b038086166000908152600a60209081526040808320938816835260029093019052205460ff1661388e5761388e6159b7565b505b60055460405163fc57d4df60e01b81526001600160a01b0386811660048301529091169063fc57d4df90602401602060405180830381865afa1580156138da573d6000803e3d6000fd5b505050506040513d601f19601f820116820180604052508101906138fe9190615941565b61390957600d611520565b60115460ff16801561393457506001600160a01b03831660009081526012602052604090205460ff16155b15613940576012611520565b6001600160a01b0384166000908152601960205260409020548015613a50576000856001600160a01b03166347bd37186040518163ffffffff1660e01b8152600401602060405180830381865afa15801561399f573d6000803e3d6000fd5b505050506040513d601f19601f820116820180604052508101906139c39190615941565b90506000806139d2838761464d565b909250905060008260038111156139eb576139eb61595a565b146139fd57600b94505050505061186f565b838110613a4c5760405162461bcd60e51b815260206004820152601960248201527f6d61726b657420626f72726f77206361702072656163686564000000000000006044820152606401610bf0565b5050505b613a5a8585614178565b600080613a6a8688600088614294565b91935090915060009050826015811115613a8657613a8661595a565b14613aa757816015811115613a9d57613a9d61595a565b935050505061186f565b8015613ab4576004613a9d565b6000979650505050505050565b60096020528160005260406000208181548110613add57600080fd5b6000918252602090912001546001600160a01b03169150829050565b6000613b03614124565b613b1a57613b136001600961421b565b9050610ce7565b6001600160a01b0383166000908152600a60205260409020805460ff16613b4f57613b476009600a61421b565b915050610ce7565b60408051602080820183528582528251908101909252670c7d713b49da0000825290613b7d81835190511090565b15613b9857613b8e6006600b61421b565b9350505050610ce7565b8415801590613c12575060055460405163fc57d4df60e01b81526001600160a01b0388811660048301529091169063fc57d4df90602401602060405180830381865afa158015613bec573d6000803e3d6000fd5b505050506040513d601f19601f82011682018060405250810190613c109190615941565b155b15613c2357613b8e600d600c61421b565b60018301805490869055604080516001600160a01b0389168152602081018390529081018790527f70483e6592cd5182d45ac970e05bc62cdcc90e9d8ef2c2dbe686cf383bcd7fc59060600160405180910390a16000979650505050505050565b600080613c92858585614b42565b9050801561185e57905061186f565b6040516361bfb47160e11b815233600482015260009082908290819081906001600160a01b0385169063c37f68e290602401608060405180830381865afa158015613cf0573d6000803e3d6000fd5b505050506040513d601f19601f82011682018060405250810190613d149190615a29565b5092509250925082600014613d795760405162461bcd60e51b815260206004820152602560248201527f657869744d61726b65743a206765744163636f756e74536e617073686f742066604482015264185a5b195960da1b6064820152608401610bf0565b8015613d8b576111a1600c600361421b565b6000613d98873385614b42565b90508015613db857613dad600e600483614ec2565b979650505050505050565b6001600160a01b0385166000908152600a60209081526040808320338452600281019092529091205460ff16613df657600098975050505050505050565b3360009081526002820160209081526040808320805460ff191690556009825280832080548251818502810185019093528083529192909190830182828015613e6857602002820191906000526020600020905b81546001600160a01b03168152600190910190602001808311613e4a575b5050835193945083925060009150505b82811015613ecd57896001600160a01b0316848281518110613e9c57613e9c615970565b60200260200101516001600160a01b03161415613ebb57809150613ecd565b80613ec58161599c565b915050613e78565b50818110613edd57613edd6159b7565b33600090815260096020526040902080548190613efc906001906159cd565b81548110613f0c57613f0c615970565b9060005260206000200160009054906101000a90046001600160a01b0316818381548110613f3c57613f3c615970565b9060005260206000200160006101000a8154816001600160a01b0302191690836001600160a01b0316021790555080805480613f7a57613f7a6159e4565b600082815260209020810160001990810180546001600160a01b031916905501905580546140d157600d8054613fb2906001906159cd565b81548110613fc257613fc2615970565b6000918252602080832090910154338352600e909152604090912054600d80546001600160a01b03909316929091908110613fff57613fff615970565b9060005260206000200160006101000a8154816001600160a01b0302191690836001600160a01b03160217905550600d80548061403e5761403e6159e4565b60008281526020808220830160001990810180546001600160a01b0319169055909201909255338252600e908190526040822054600d80549193918490811061408957614089615970565b60009182526020808320909101546001600160a01b03168352828101939093526040918201812093909355338352600e8252808320839055600c9091529020805460ff191690555b604080516001600160a01b038c1681523360208201527fe699a64c18b07ac5b7301aa273f36a2287239eb9501d81950672794afba29a0d910160405180910390a160009c9b505050505050505050505050565b6001546000906001600160a01b03163314801561414a5750600254600160a81b900460ff165b8061417357506000546001600160a01b0316331480156141735750600254600160a01b900460ff165b905090565b60005b601b548110156107c157601b818154811061419857614198615970565b600091825260209091200154604051631cdc2c5d60e31b81526001600160a01b03858116600483015284811660248301529091169063e6e162e890604401600060405180830381600087803b1580156141f057600080fd5b505af1158015614204573d6000803e3d6000fd5b5050505080806142139061599c565b91505061417b565b60007f45b96fe442630264581b197e84bbada861235052c5a1aadfff9ea4e40a969aa08360158111156142505761425061595a565b83601b8111156142625761426261595a565b60408051928352602083019190915260009082015260600160405180910390a182601581111561186f5761186f61595a565b60008060006142a16151ba565b6001600160a01b03881660009081526009602090815260408083208054825181850281018501909352808352849383018282801561430857602002820191906000526020600020905b81546001600160a01b031681526001909101906020018083116142ea575b5050505050905060005b815181101561456f57600082828151811061432f5761432f615970565b60209081029190910101516040516361bfb47160e11b81526001600160a01b038e811660048301529192509082169063c37f68e290602401608060405180830381865afa158015614384573d6000803e3d6000fd5b505050506040513d601f19601f820116820180604052508101906143a89190615a29565b608089015260608801526040870152935083156143d457600f6000809750975097505050505050611499565b60408051602080820183526001600160a01b038481166000818152600a845285902060010154845260c08a0193909352835191820184526080890151825260e0890191909152600554925163fc57d4df60e01b81526004810192909252919091169063fc57d4df90602401602060405180830381865afa15801561445c573d6000803e3d6000fd5b505050506040513d601f19601f820116820180604052508101906144809190615941565b60a086018190526144a057600d6000809750975097505050505050611499565b604080516020810190915260a0860151815261010086015260c085015160e08601516144da916144cf91614e40565b866101000151614e40565b6101208601819052604086015186516144f4929190614f3a565b855261010085015160608601516020870151614511929190614f3a565b60208601526001600160a01b03818116908c16141561455c5761453e8561012001518b8760200151614f3a565b60208601819052610100860151614556918b90614f3a565b60208601525b50806145678161599c565b915050614312565b506020830151835111156145a05760208301518351600091614590916159cd565b6000955095509550505050611499565b600080846000015185602001516145b791906159cd565b955095509550505050611499565b600061186f8383604051806040016040528060118152602001706164646974696f6e206f766572666c6f7760781b815250614f5b565b60008060008061460b878761464d565b909250905060008260038111156146245761462461595a565b146146355750915060009050613102565b61463f8186614f95565b935093505050935093915050565b6000808061465b8486615a5f565b905084811061466f57600092509050614679565b6002600092509250505b9250929050565b60005b601b548110156107c157601b81815481106146a0576146a0615970565b60009182526020909120015460405162e48b0f60e51b81526001600160a01b038581166004830152848116602483015290911690631c9161e090604401600060405180830381600087803b1580156146f757600080fd5b505af115801561470b573d6000803e3d6000fd5b50505050808061471a9061599c565b915050614683565b6000806000614735846000806000614294565b9250925092509193909250565b60008061474f8484614fc0565b9050610fb181614fe8565b60008060008061476a8686615000565b909250905060008260038111156147835761478361595a565b146147945750915060009050614679565b600061479f82614fe8565b9350935050509250929050565b60006147b6614124565b6147c657610ce76001601761421b565b6001600160a01b0382166000908152600a602052604090205460ff16156147f357610ce7600a601661421b565b816001600160a01b031663fe9c44ae6040518163ffffffff1660e01b81526004016020604051808303816000875af1158015614833573d6000803e3d6000fd5b505050506040513d601f19601f820116820180604052508101906148579190615907565b6148a35760405162461bcd60e51b815260206004820152601c60248201527f6d61726b6572206d6574686f642072657475726e65642066616c7365000000006044820152606401610bf0565b306001600160a01b0316826001600160a01b0316635fe3b5676040518163ffffffff1660e01b8152600401602060405180830381865afa1580156148eb573d6000803e3d6000fd5b505050506040513d601f19601f8201168201806040525081019061490f9190615924565b6001600160a01b0316146149835760405162461bcd60e51b815260206004820152603560248201527f43616e6e6f7420737570706f72742061206d61726b657420776974682061206460448201527434b33332b932b73a1021b7b6b83a3937b63632b91760591b6064820152608401610bf0565b6000826001600160a01b031663ac784ddc6040518163ffffffff1660e01b81526004016020604051808303816000875af11580156149c5573d6000803e3d6000fd5b505050506040513d601f19601f820116820180604052508101906149e99190615907565b614a5457826001600160a01b0316636f307dc36040518163ffffffff1660e01b8152600401602060405180830381865afa158015614a2b573d6000803e3d6000fd5b505050506040513d601f19601f82011682018060405250810190614a4f9190615924565b614a57565b60005b6001600160a01b038082166000908152601060205260409020549192501615614a865761186f600a601661421b565b6001600160a01b038381166000818152600a60209081526040808320805460ff191660019081178255808201859055600b805491820190557f0175b7a638427703f0dbe7bb9bbf987a2551717b34e79f33b5b1008d1fa01db90180546001600160a01b0319908116871790915595871684526010835292819020805490951684179094559251918252917fcf583bb0c569eb967f806b11601c4cb93c10310485c67add5f8362c2f212321f910160405180910390a16000610fb1565b6001600160a01b0383166000908152600a602052604081205460ff16614b69576009611520565b6001600160a01b038085166000908152600a60209081526040808320938716835260029093019052205460ff16614ba1576000611520565b600080614bb18587866000614294565b91935090915060009050826015811115614bcd57614bcd61595a565b14614bed57816015811115614be457614be461595a565b9250505061186f565b8015612e1c576004614be4565b60005b601b54811015611b6457601b8181548110614c1a57614c1a615970565b600091825260209091200154604051634e081c9560e01b81526001600160a01b0386811660048301528581166024830152848116604483015290911690634e081c9590606401600060405180830381600087803b158015614c7a57600080fd5b505af1158015614c8e573d6000803e3d6000fd5b505050508080614c9d9061599c565b915050614bfd565b6001600160a01b0382166000908152600a60205260408120805460ff16614cd0576009915050610ce7565b6001600160a01b038316600090815260028201602052604090205460ff16151560011415614d02576000915050610ce7565b6001600160a01b03838116600081815260028401602090815260408083208054600160ff199091168117909155600983528184208054918201815584528284200180546001600160a01b031916958a1695909517909455918152600c909152205460ff16614df357600d8054600180820183557fd7b6990105719101dabeb77144f2a3385c8033acd3af97e9423a695e81ad1eb590910180546001600160a01b0319166001600160a01b0387169081179091556000908152600c60205260409020805460ff1916821790559054614dd991906159cd565b6001600160a01b0384166000908152600e60205260409020555b604080516001600160a01b038087168252851660208201527f3ab23ab0d51cccc0c3085aec51f99228625aa1a922b3a8ca89a26b0f2027a1a5910160405180910390a15060009392505050565b6040805160208101909152600081526040518060200160405280670de0b6b3a7640000614e758660000151866000015161507c565b614e7f9190615a77565b90529392505050565b6040805160208101909152600081526040518060200160405280614e7f614ebb8660000151670de0b6b3a764000061507c565b85516150be565b60007f45b96fe442630264581b197e84bbada861235052c5a1aadfff9ea4e40a969aa0846015811115614ef757614ef761595a565b84601b811115614f0957614f0961595a565b604080519283526020830191909152810184905260600160405180910390a1836015811115610fb157610fb161595a565b600080614f478585614fc0565b905061186b614f5582614fe8565b846145c5565b600080614f688486615a5f565b90508285821015614f8c5760405162461bcd60e51b8152600401610bf09190615a99565b50949350505050565b600080838311614fb4576000614fab84866159cd565b91509150614679565b50600390506000614679565b6040805160208101909152600081526040518060200160405280614e7f85600001518561507c565b8051600090610ce790670de0b6b3a764000090615a77565b60006150186040518060200160405280600081525090565b6000806150298660000151866150f1565b909250905060008260038111156150425761504261595a565b1461506157506040805160208101909152600081529092509050614679565b60408051602081019091529081526000969095509350505050565b600061186f83836040518060400160405280601781526020017f6d756c7469706c69636174696f6e206f766572666c6f7700000000000000000081525061513b565b600061186f83836040518060400160405280600e81526020016d646976696465206279207a65726f60901b81525061518e565b6000808361510457506000905080614679565b60006151108486615aee565b90508361511d8683615a77565b1461513057600260009250925050614679565b600092509050614679565b6000831580615148575082155b156151555750600061186f565b60006151618486615aee565b90508361516e8683615a77565b148390614f8c5760405162461bcd60e51b8152600401610bf09190615a99565b600081836151af5760405162461bcd60e51b8152600401610bf09190615a99565b50610fb18385615a77565b6040518061014001604052806000815260200160008152602001600081526020016000815260200160008152602001600081526020016152066040518060200160405280600081525090565b81526020016152216040518060200160405280600081525090565b815260200161523c6040518060200160405280600081525090565b81526020016152576040518060200160405280600081525090565b905290565b6001600160a01b038116811461527157600080fd5b50565b803561527f8161525c565b919050565b60006020828403121561529657600080fd5b813561186f8161525c565b801515811461527157600080fd5b600080604083850312156152c257600080fd5b82356152cd8161525c565b915060208301356152dd816152a1565b809150509250929050565b600080600080600060a0868803121561530057600080fd5b853561530b8161525c565b9450602086013561531b8161525c565b9350604086013561532b8161525c565b94979396509394606081013594506080013592915050565b6000806000806080858703121561535957600080fd5b84356153648161525c565b966020860135965060408601359560600135945092505050565b6000806000806080858703121561539457600080fd5b843561539f8161525c565b935060208501356153af8161525c565b925060408501356153bf8161525c565b9396929550929360600135925050565b6000602082840312156153e157600080fd5b813561186f816152a1565b6000602082840312156153fe57600080fd5b5035919050565b6020808252825182820181905260009190848201906040850190845b818110156154465783516001600160a01b031683529284019291840191600101615421565b50909695505050505050565b6000806000806080858703121561546857600080fd5b84356154738161525c565b935060208501356154838161525c565b93969395505050506040820135916060013590565b60008060008060008060c087890312156154b157600080fd5b86356154bc8161525c565b955060208701356154cc8161525c565b945060408701356154dc8161525c565b935060608701356154ec8161525c565b9598949750929560808101359460a0909101359350915050565b60008060006060848603121561551b57600080fd5b83356155268161525c565b925060208401356155368161525c565b929592945050506040919091013590565b60008083601f84011261555957600080fd5b50813567ffffffffffffffff81111561557157600080fd5b6020830191508360208260051b850101111561467957600080fd5b600080600080604085870312156155a257600080fd5b843567ffffffffffffffff808211156155ba57600080fd5b6155c688838901615547565b909650945060208701359150808211156155df57600080fd5b506155ec87828801615547565b95989497509550505050565b600080600080600060a0868803121561561057600080fd5b853561561b8161525c565b9450602086013561562b8161525c565b9350604086013561563b8161525c565b9250606086013561564b8161525c565b949793965091946080013592915050565b6000806040838503121561566f57600080fd5b823561567a8161525c565b946020939093013593505050565b6000806040838503121561569b57600080fd5b82356156a68161525c565b915060208301356152dd8161525c565b600080600080606085870312156156cc57600080fd5b84356156d7816152a1565b9350602085013567ffffffffffffffff808211156156f457600080fd5b818701915087601f83011261570857600080fd5b81358181111561571757600080fd5b88602082850101111561572957600080fd5b95986020929092019750949560400135945092505050565b634e487b7160e01b600052604160045260246000fd5b6000602080838503121561576a57600080fd5b823567ffffffffffffffff8082111561578257600080fd5b818501915085601f83011261579657600080fd5b8135818111156157a8576157a8615741565b8060051b604051601f19603f830116810181811085821117156157cd576157cd615741565b6040529182528482019250838101850191888311156157eb57600080fd5b938501935b82851015612acf5761580185615274565b845293850193928501926157f0565b6020808252825182820181905260009190848201906040850190845b818110156154465783518352928401929184019160010161582c565b60208082526028908201527f63616e6e6f742070617573652061206d61726b65742074686174206973206e6f6040820152671d081b1a5cdd195960c21b606082015260800190565b60208082526027908201527f6f6e6c7920706175736520677561726469616e20616e642061646d696e2063616040820152666e20706175736560c81b606082015260800190565b6020808252601690820152756f6e6c792061646d696e2063616e20756e706175736560501b604082015260600190565b60006020828403121561591957600080fd5b815161186f816152a1565b60006020828403121561593657600080fd5b815161186f8161525c565b60006020828403121561595357600080fd5b5051919050565b634e487b7160e01b600052602160045260246000fd5b634e487b7160e01b600052603260045260246000fd5b634e487b7160e01b600052601160045260246000fd5b60006000198214156159b0576159b0615986565b5060010190565b634e487b7160e01b600052600160045260246000fd5b6000828210156159df576159df615986565b500390565b634e487b7160e01b600052603160045260246000fd5b60208152816020820152818360408301376000818301604090810191909152601f909201601f19160101919050565b60008060008060808587031215615a3f57600080fd5b505082516020840151604085015160609095015191969095509092509050565b60008219821115615a7257615a72615986565b500190565b600082615a9457634e487b7160e01b600052601260045260246000fd5b500490565b600060208083528351808285015260005b81811015615ac657858101830151858201604001528201615aaa565b81811115615ad8576000604083870101525b50601f01601f1916929092016040019392505050565b6000816000190483118215151615615b0857615b08615986565b50029056fea164736f6c634300080a000aa164736f6c634300080a000a608060405234801561001057600080fd5b506040516106b53803806106b583398101604081905261002f91610145565b600083905561004982846100b6602090811b6101a717901c565b600281905550610068600054826100b660201b6101a71790919060201c565b60018190556002546040517ff35fa19c15e9ba782633a5df62a98b20217151addc68e3ff2cd623a48d37ec27926100a6928252602082015260400190565b60405180910390a15050506101ea565b60006100fe83836040518060400160405280601a81526020017f536166654d6174683a206469766973696f6e206279207a65726f00000000000081525061010560201b60201c565b9392505050565b6000818361012f5760405162461bcd60e51b81526004016101269190610173565b60405180910390fd5b50600061013c84866101c8565b95945050505050565b60008060006060848603121561015a57600080fd5b8351925060208401519150604084015190509250925092565b600060208083528351808285015260005b818110156101a057858101830151858201604001528201610184565b818111156101b2576000604083870101525b50601f01601f1916929092016040019392505050565b6000826101e557634e487b7160e01b600052601260045260246000fd5b500490565b6104bc806101f96000396000f3fe608060405234801561001057600080fd5b506004361061007d5760003560e01c80638726bb891161005b5780638726bb89146100d7578063a385fb96146100e0578063b8168816146100e9578063f14039de146100fc57600080fd5b806315f24053146100825780632191f92a146100a85780636e71e2d8146100c0575b600080fd5b610095610090366004610376565b610105565b6040519081526020015b60405180910390f35b6100b0600181565b604051901515815260200161009f565b6100956100ce366004610376565b60009392505050565b61009560015481565b61009560005481565b6100956100f73660046103a2565b610144565b61009560025481565b60008061013b600254610135670de0b6b3a764000061012f600154866101f290919063ffffffff16565b906101a7565b90610276565b95945050505050565b600080610159670de0b6b3a7640000846102d5565b90506000610168878787610105565b90506000610182670de0b6b3a764000061012f84866101f2565b905061019b670de0b6b3a764000061012f6000846101f2565b98975050505050505050565b60006101e983836040518060400160405280601a81526020017f536166654d6174683a206469766973696f6e206279207a65726f000000000000815250610317565b90505b92915050565b600082610201575060006101ec565b600061020d83856103ea565b90508261021a8583610409565b146101e95760405162461bcd60e51b815260206004820152602160248201527f536166654d6174683a206d756c7469706c69636174696f6e206f766572666c6f6044820152607760f81b60648201526084015b60405180910390fd5b600080610283838561042b565b9050838110156101e95760405162461bcd60e51b815260206004820152601b60248201527f536166654d6174683a206164646974696f6e206f766572666c6f770000000000604482015260640161026d565b60006101e983836040518060400160405280601f81526020017f536166654d6174683a207375627472616374696f6e20756e646572666c6f7700815250610345565b600081836103385760405162461bcd60e51b815260040161026d9190610443565b50600061013b8486610409565b600081848411156103695760405162461bcd60e51b815260040161026d9190610443565b50600061013b8486610498565b60008060006060848603121561038b57600080fd5b505081359360208301359350604090920135919050565b600080600080608085870312156103b857600080fd5b5050823594602084013594506040840135936060013592509050565b634e487b7160e01b600052601160045260246000fd5b6000816000190483118215151615610404576104046103d4565b500290565b60008261042657634e487b7160e01b600052601260045260246000fd5b500490565b6000821982111561043e5761043e6103d4565b500190565b600060208083528351808285015260005b8181101561047057858101830151858201604001528201610454565b81811115610482576000604083870101525b50601f01601f1916929092016040019392505050565b6000828210156104aa576104aa6103d4565b50039056fea164736f6c634300080a000a60806040526067805461ffff60a01b191661010160a01b17905534801561002557600080fd5b50613bbf806100356000396000f3fe6080604052600436106200027b5760003560e01c8063930d24381162000153578063c5232b4711620000c5578063e35a48011162000084578063e35a480114620007fc578063e9c714f21462000821578063f2fde38b1462000839578063f851a440146200085e578063fdb25fb11462000880578063fe4b84df146200089857600080fd5b8063c5232b471462000754578063d64517b21462000785578063dcfbc0c714620007aa578063dd86fea114620007cc578063dfcb48bd14620007e457600080fd5b8063b01b86fd1162000112578063b01b86fd146200067e578063b71d1a0c14620006a3578063bb82aa5e14620006c8578063bbcdd6d314620006ea578063c11cd440146200070f57600080fd5b8063930d243814620005b85780639b86a9b514620005dd5780639c7be70814620006025780639d244f9f146200061a578063a430e617146200065957600080fd5b80633465b6e111620001ed57806384651d7311620001ac57806384651d7314620005025780638754e4fd14620005295780638abe0b75146200054e5780638d3bb8ef14620005735780638da5cb5b146200059857600080fd5b80633465b6e1146200043657806345cc9705146200045b578063715018a6146200048057806371cd40e6146200049857806375365b8714620004dd57600080fd5b8063183a3f72116200023a578063183a3f7214620003825780632678224714620003a75780632acbff3914620003c95780632f1069ba14620003ee5780632f876d32146200041157600080fd5b806301758fc214620002885780630284db7614620002af57806306bc461114620002ee5780630a755ec2146200031357806315761d51146200034757600080fd5b366200028357005b600080fd5b3480156200029557600080fd5b50620002ad620002a7366004620026e3565b620008bd565b005b348015620002bc57600080fd5b50620002d4620002ce366004620027ca565b62000ae2565b604051620002e5939291906200284b565b60405180910390f35b348015620002fb57600080fd5b50620002ad6200030d36600462002882565b62000ba5565b3480156200032057600080fd5b506067546200033690600160a81b900460ff1681565b6040519015158152602001620002e5565b3480156200035457600080fd5b5060655462000369906001600160a01b031681565b6040516001600160a01b039091168152602001620002e5565b3480156200038f57600080fd5b50620002d4620003a1366004620027ca565b62000c19565b348015620003b457600080fd5b5060675462000369906001600160a01b031681565b348015620003d657600080fd5b50620002ad620003e8366004620028b1565b62000c53565b348015620003fb57600080fd5b506067546200033690600160a01b900460ff1681565b3480156200041e57600080fd5b50620002ad6200043036600462002924565b62000dbe565b3480156200044357600080fd5b50620002ad62000455366004620027ca565b62000df9565b3480156200046857600080fd5b50620002d46200047a366004620027ca565b62001036565b3480156200048d57600080fd5b50620002ad6200115e565b348015620004a557600080fd5b5062000336620004b736600462002960565b606f60209081526000938452604080852082529284528284209052825290205460ff1681565b348015620004ea57600080fd5b50620002ad620004fc366004620029f7565b62001199565b3480156200050f57600080fd5b506200051a606a5481565b604051908152602001620002e5565b3480156200053657600080fd5b50620003696200054836600462002a7d565b62001287565b3480156200055b57600080fd5b50620002d46200056d366004620027ca565b620013bc565b3480156200058057600080fd5b50620002ad6200059236600462002ac3565b6200141c565b348015620005a557600080fd5b506033546001600160a01b031662000369565b348015620005c557600080fd5b50620002ad620005d736600462002b67565b620015e0565b348015620005ea57600080fd5b5062000369620005fc36600462002a7d565b6200163b565b3480156200060f57600080fd5b506200051a606c5481565b3480156200062757600080fd5b50620003366200063936600462002b67565b606e60209081526000928352604080842090915290825290205460ff1681565b3480156200066657600080fd5b50620002ad62000678366004620029f7565b62001766565b3480156200068b57600080fd5b50620002ad6200069d36600462002ba5565b6200184a565b348015620006b057600080fd5b506200051a620006c2366004620027ca565b6200193a565b348015620006d557600080fd5b5060685462000369906001600160a01b031681565b348015620006f757600080fd5b506200036962000709366004620027ca565b620019c6565b3480156200071c57600080fd5b50620003366200072e36600462002960565b607060209081526000938452604080852082529284528284209052825290205460ff1681565b3480156200076157600080fd5b506200051a62000773366004620027ca565b60746020526000908152604090205481565b3480156200079257600080fd5b50620002ad620007a4366004620026e3565b62001a0e565b348015620007b757600080fd5b5060695462000369906001600160a01b031681565b348015620007d957600080fd5b506200051a62001c1f565b348015620007f157600080fd5b506200051a606d5481565b3480156200080957600080fd5b50620002ad6200081b36600462002c0c565b62001d20565b3480156200082e57600080fd5b506200051a62001d7d565b3480156200084657600080fd5b50620002ad62000858366004620027ca565b62001e60565b3480156200086b57600080fd5b5060665462000369906001600160a01b031681565b3480156200088d57600080fd5b506200051a606b5481565b348015620008a557600080fd5b50620002ad620008b736600462002c0c565b62001eff565b6033546001600160a01b03163314620008f35760405162461bcd60e51b8152600401620008ea9062002c26565b60405180910390fd5b84158015906200090257508487145b80156200090e57508483145b80156200091a57508481145b6200099d5760405162461bcd60e51b815260206004820152604660248201527f4e6f2043457263323044656c656761746520696d706c656d656e746174696f6e60448201527f7320737570706c696564206f72206172726179206c656e67746873206e6f742060648201526532b8bab0b61760d11b608482015260a401620008ea565b60005b8581101562000ad757828282818110620009be57620009be62002c5b565b9050602002016020810190620009d5919062002c71565b606f60008b8b85818110620009ee57620009ee62002c5b565b905060200201602081019062000a059190620027ca565b6001600160a01b03166001600160a01b03168152602001908152602001600020600089898581811062000a3c5762000a3c62002c5b565b905060200201602081019062000a539190620027ca565b6001600160a01b03166001600160a01b03168152602001908152602001600020600087878581811062000a8a5762000a8a62002c5b565b905060200201602081019062000aa1919062002c71565b151581526020810191909152604001600020805460ff19169115159190911790558062000ace8162002c91565b915050620009a0565b505050505050505050565b607360205260009081526040902080546001820180546001600160a01b03831693600160a01b90930460ff1692919062000b1c9062002cbb565b80601f016020809104026020016040519081016040528092919081815260200182805462000b4a9062002cbb565b801562000b9b5780601f1062000b6f5761010080835404028352916020019162000b9b565b820191906000526020600020905b81548152906001019060200180831162000b7d57829003601f168201915b5050505050905083565b6033546001600160a01b0316331462000bd25760405162461bcd60e51b8152600401620008ea9062002c26565b670de0b6b3a764000081131562000bfd5760405162461bcd60e51b8152600401620008ea9062002cf8565b6001600160a01b03909116600090815260746020526040902055565b607260205260009081526040902080546001820180546001600160a01b03831693600160a01b90930460ff1692919062000b1c9062002cbb565b6033546001600160a01b0316331462000c805760405162461bcd60e51b8152600401620008ea9062002c26565b821580159062000c8f57508281145b62000cf55760405162461bcd60e51b815260206004820152602f60248201527f4172726179206c656e67746873206d75737420626520657175616c20616e642060448201526e33b932b0ba32b9103a3430b710181760891b6064820152608401620008ea565b60005b8381101562000db75762000da183838381811062000d1a5762000d1a62002c5b565b905060200281019062000d2e919062002d43565b8080601f01602080910402602001604051908101604052809392919081815260200183838082843760009201919091525089925088915085905081811062000d7a5762000d7a62002c5b565b905060200201602081019062000d919190620027ca565b6001600160a01b03169062001fb6565b508062000dae8162002c91565b91505062000cf8565b5050505050565b6033546001600160a01b0316331462000deb5760405162461bcd60e51b8152600401620008ea9062002c26565b606b92909255606c55606d55565b6001600160a01b03811662000f3657478062000e625760405162461bcd60e51b815260206004820152602160248201527f4e6f2062616c616e636520617661696c61626c6520746f2077697468647261776044820152601760f91b6064820152608401620008ea565b600062000e776033546001600160a01b031690565b6001600160a01b03168260405160006040518083038185875af1925050503d806000811462000ec3576040519150601f19603f3d011682016040523d82523d6000602084013e62000ec8565b606091505b505090508062000f315760405162461bcd60e51b815260206004820152602d60248201527f4661696c656420746f207472616e73666572204554482062616c616e6365207460448201526c379036b9b39739b2b73232b91760991b6064820152608401620008ea565b505050565b6040516370a0823160e01b815230600482015281906000906001600160a01b038316906370a0823190602401602060405180830381865afa15801562000f80573d6000803e3d6000fd5b505050506040513d601f19601f8201168201806040525081019062000fa6919062002d8d565b9050600081116200100a5760405162461bcd60e51b815260206004820152602760248201527f4e6f20746f6b656e2062616c616e636520617661696c61626c6520746f2077696044820152663a34323930bb9760c91b6064820152608401620008ea565b62000f31620010216033546001600160a01b031690565b6001600160a01b038416908362001ffa565b50565b6001600160a01b03818116600090815260726020908152604080832081516060808201845282549687168252600160a01b90960460ff16151593810193909352600181018054949586959094869490939290840191620010969062002cbb565b80601f0160208091040260200160405190810160405280929190818152602001828054620010c49062002cbb565b8015620011155780601f10620010e95761010080835404028352916020019162001115565b820191906000526020600020905b815481529060010190602001808311620010f757829003601f168201915b50505091909252505081519192506060916001600160a01b0316151590506200114257856000826200114f565b8151602083015160408401515b94509450945050509193909250565b6033546001600160a01b031633146200118b5760405162461bcd60e51b8152600401620008ea9062002c26565b6200119760006200204e565b565b6033546001600160a01b03163314620011c65760405162461bcd60e51b8152600401620008ea9062002c26565b6040518060600160405280856001600160a01b03168152602001841515815260200183838080601f01602080910402602001604051908101604052809392919081815260200183838082843760009201829052509390945250506001600160a01b0380891682526072602090815260409283902085518154878401511515600160a01b026001600160a81b031990911691909416179290921782559184015180519193506200127d926001850192910190620025d2565b5050505050505050565b600080806200129a604082868862002da7565b810190620012a9919062002b67565b90925090506001600160a01b0381163314620013085760405162461bcd60e51b815260206004820152601a60248201527f436f6d7074726f6c6c6572206973206e6f742073656e6465722e0000000000006044820152606401620008ea565b6040516bffffffffffffffffffffffff1933606090811b8216602084015284901b166034820152436048820152600090606801604051602081830303815290604052805190602001209050600060405180602001620013679062002661565b601f1982820381018352601f9091011660408190526200138f91908990899060200162002dd3565b60405160208183030381529060405290506000620013b060008484620020a0565b98975050505050505050565b6001600160a01b03818116600090815260736020908152604080832081516060808201845282549687168252600160a01b90960460ff16151593810193909352600181018054949586959094869490939290840191620010969062002cbb565b6033546001600160a01b03163314620014495760405162461bcd60e51b8152600401620008ea9062002c26565b82158015906200145857508285145b80156200146457508281145b620014e45760405162461bcd60e51b815260206004820152604360248201527f4e6f20436f6d7074726f6c6c657220696d706c656d656e746174696f6e73207360448201527f7570706c696564206f72206172726179206c656e67746873206e6f742065717560648201526230b61760e91b608482015260a401620008ea565b60005b83811015620015d75782828281811062001505576200150562002c5b565b90506020020160208101906200151c919062002c71565b606e600089898581811062001535576200153562002c5b565b90506020020160208101906200154c9190620027ca565b6001600160a01b03166001600160a01b03168152602001908152602001600020600087878581811062001583576200158362002c5b565b90506020020160208101906200159a9190620027ca565b6001600160a01b031681526020810191909152604001600020805460ff191691151591909117905580620015ce8162002c91565b915050620014e7565b50505050505050565b6033546001600160a01b031633146200160d5760405162461bcd60e51b8152600401620008ea9062002c26565b6001600160a01b03918216600090815260716020526040902080546001600160a01b03191691909216179055565b6000806200164d602082858762002da7565b8101906200165c9190620027ca565b90506001600160a01b0381163314620016b85760405162461bcd60e51b815260206004820152601a60248201527f436f6d7074726f6c6c6572206973206e6f742073656e6465722e0000000000006044820152606401620008ea565b6040516bffffffffffffffffffffffff193360601b1660208201526000603482018190524360488301529060680160405160208183030381529060405280519060200120905060006040518060200162001712906200266f565b601f1982820381018352601f9091011660408190526200173a91908890889060200162002dd3565b604051602081830303815290604052905060006200175b60008484620020a0565b979650505050505050565b6033546001600160a01b03163314620017935760405162461bcd60e51b8152600401620008ea9062002c26565b6040518060600160405280856001600160a01b03168152602001841515815260200183838080601f01602080910402602001604051908101604052809392919081815260200183838082843760009201829052509390945250506001600160a01b0380891682526073602090815260409283902085518154878401511515600160a01b026001600160a81b031990911691909416179290921782559184015180519193506200127d926001850192910190620025d2565b6033546001600160a01b03163314620018775760405162461bcd60e51b8152600401620008ea9062002c26565b82620018c65760405162461bcd60e51b815260206004820152601e60248201527f4e6f2074617267657420616464726573736573207370656369666965642e00006044820152606401620008ea565b60005b8381101562000db7576200192483838080601f01602080910402602001604051908101604052809392919081815260200183838082843760009201919091525089925088915085905081811062000d7a5762000d7a62002c5b565b5080620019318162002c91565b915050620018c9565b600062001946620021b0565b6200195f57620019596001601062002205565b92915050565b606780546001600160a01b038481166001600160a01b031983168117909355604080519190921680825260208201939093527fca4f2f25d0898edd99413412fb94012f9e54ec8142f9b093e7720646a95b16a9910160405180910390a160005b9392505050565b6001600160a01b03818116600090815260716020526040812054909116620019ef578162001959565b506001600160a01b039081166000908152607160205260409020541690565b6033546001600160a01b0316331462001a3b5760405162461bcd60e51b8152600401620008ea9062002c26565b841580159062001a4a57508487145b801562001a5657508483145b801562001a6257508481145b62001ae55760405162461bcd60e51b815260206004820152604660248201527f4e6f2043457468657244656c656761746520696d706c656d656e746174696f6e60448201527f7320737570706c696564206f72206172726179206c656e67746873206e6f742060648201526532b8bab0b61760d11b608482015260a401620008ea565b60005b8581101562000ad75782828281811062001b065762001b0662002c5b565b905060200201602081019062001b1d919062002c71565b607060008b8b8581811062001b365762001b3662002c5b565b905060200201602081019062001b4d9190620027ca565b6001600160a01b03166001600160a01b03168152602001908152602001600020600089898581811062001b845762001b8462002c5b565b905060200201602081019062001b9b9190620027ca565b6001600160a01b03166001600160a01b03168152602001908152602001600020600087878581811062001bd25762001bd262002c5b565b905060200201602081019062001be9919062002c71565b151581526020810191909152604001600020805460ff19169115159190911790558062001c168162002c91565b91505062001ae8565b60408051600481526024810182526020810180516001600160e01b0316635fe3b56760e01b179052905160009182918291339162001c5e919062002e13565b600060405180830381855afa9150503d806000811462001c9b576040519150601f19603f3d011682016040523d82523d6000602084013e62001ca0565b606091505b509150915081801562001cb4575080516020145b1562001d165760008180602001905181019062001cd2919062002e31565b6001600160a01b03811660009081526074602052604081205491925081131562001cfe57949350505050565b600081121562001d1357600094505050505090565b50505b606a549250505090565b6033546001600160a01b0316331462001d4d5760405162461bcd60e51b8152600401620008ea9062002c26565b670de0b6b3a764000081111562001d785760405162461bcd60e51b8152600401620008ea9062002cf8565b606a55565b6067546000906001600160a01b0316331462001da65762001da16001600062002205565b905090565b60668054606780546001600160a01b038082166001600160a01b031980861682179096559490911690915560408051919092168082526020820184905292917ff9ffabca9c8276e99321725bcb43fb076a6c66a54b7f21c4e8146d8519b417dc910160405180910390a1606754604080516001600160a01b03808516825290921660208301527fca4f2f25d0898edd99413412fb94012f9e54ec8142f9b093e7720646a95b16a9910160405180910390a160009250505090565b6033546001600160a01b0316331462001e8d5760405162461bcd60e51b8152600401620008ea9062002c26565b6001600160a01b03811662001ef45760405162461bcd60e51b815260206004820152602660248201527f4f776e61626c653a206e6577206f776e657220697320746865207a65726f206160448201526564647265737360d01b6064820152608401620008ea565b62001033816200204e565b600062001f0d600162002287565b9050801562001f26576000805461ff0019166101001790555b670de0b6b3a764000082111562001f515760405162461bcd60e51b8152600401620008ea9062002cf8565b62001f5b62002317565b606a829055600019606c819055606d55801562001fb2576000805461ff0019169055604051600181527f7f26b83ff96e1f2b6a682f133852f6798a09c465da95921460cefb38474024989060200160405180910390a15b5050565b6060620019bf83836040518060400160405280601e81526020017f416464726573733a206c6f772d6c6576656c2063616c6c206661696c656400008152506200234b565b604080516001600160a01b038416602482015260448082018490528251808303909101815260649091019091526020810180516001600160e01b031663a9059cbb60e01b17905262000f319084906200235c565b603380546001600160a01b038381166001600160a01b0319831681179093556040519116919082907f8be0079c531659141344cd1fd0a4f28419497f9722a3daafe3b4186f6b6457e090600090a35050565b60008084471015620020f55760405162461bcd60e51b815260206004820152601d60248201527f437265617465323a20696e73756666696369656e742062616c616e63650000006044820152606401620008ea565b8251620021455760405162461bcd60e51b815260206004820181905260248201527f437265617465323a2062797465636f6465206c656e677468206973207a65726f6044820152606401620008ea565b8383516020850187f590506001600160a01b038116620021a85760405162461bcd60e51b815260206004820152601960248201527f437265617465323a204661696c6564206f6e206465706c6f79000000000000006044820152606401620008ea565b949350505050565b6066546000906001600160a01b031633148015620021d75750606754600160a81b900460ff165b8062001da157506065546001600160a01b03163314801562001da1575050606754600160a01b900460ff1690565b60007f45b96fe442630264581b197e84bbada861235052c5a1aadfff9ea4e40a969aa08360158111156200223d576200223d62002dfd565b83601b81111562002252576200225262002dfd565b60408051928352602083019190915260009082015260600160405180910390a1826015811115620019bf57620019bf62002dfd565b60008054610100900460ff1615620022d3578160ff166001148015620022ac5750303b155b620022cb5760405162461bcd60e51b8152600401620008ea9062002e51565b506000919050565b60005460ff808416911610620022fd5760405162461bcd60e51b8152600401620008ea9062002e51565b506000805460ff191660ff92909216919091179055600190565b600054610100900460ff16620023415760405162461bcd60e51b8152600401620008ea9062002e9f565b6200119762002435565b6060620021a884846000856200246a565b6000620023b3826040518060400160405280602081526020017f5361666545524332303a206c6f772d6c6576656c2063616c6c206661696c6564815250856001600160a01b03166200234b9092919063ffffffff16565b80519091501562000f315780806020019051810190620023d4919062002eea565b62000f315760405162461bcd60e51b815260206004820152602a60248201527f5361666545524332303a204552433230206f7065726174696f6e20646964206e6044820152691bdd081cdd58d8d9595960b21b6064820152608401620008ea565b600054610100900460ff166200245f5760405162461bcd60e51b8152600401620008ea9062002e9f565b62001197336200204e565b606082471015620024cd5760405162461bcd60e51b815260206004820152602660248201527f416464726573733a20696e73756666696369656e742062616c616e636520666f6044820152651c8818d85b1b60d21b6064820152608401620008ea565b6001600160a01b0385163b620025265760405162461bcd60e51b815260206004820152601d60248201527f416464726573733a2063616c6c20746f206e6f6e2d636f6e74726163740000006044820152606401620008ea565b600080866001600160a01b0316858760405162002544919062002e13565b60006040518083038185875af1925050503d806000811462002583576040519150601f19603f3d011682016040523d82523d6000602084013e62002588565b606091505b50915091506200175b82828660608315620025a5575081620019bf565b825115620025b65782518084602001fd5b8160405162461bcd60e51b8152600401620008ea919062002f0a565b828054620025e09062002cbb565b90600052602060002090601f0160209004810192826200260457600085556200264f565b82601f106200261f57805160ff19168380011785556200264f565b828001600101855582156200264f579182015b828111156200264f57825182559160200191906001019062002632565b506200265d9291506200267d565b5090565b6106968062002f2083390190565b6105fd80620035b683390190565b5b808211156200265d57600081556001016200267e565b60008083601f840112620026a757600080fd5b50813567ffffffffffffffff811115620026c057600080fd5b6020830191508360208260051b8501011115620026dc57600080fd5b9250929050565b6000806000806000806000806080898b0312156200270057600080fd5b883567ffffffffffffffff808211156200271957600080fd5b620027278c838d0162002694565b909a50985060208b01359150808211156200274157600080fd5b6200274f8c838d0162002694565b909850965060408b01359150808211156200276957600080fd5b620027778c838d0162002694565b909650945060608b01359150808211156200279157600080fd5b50620027a08b828c0162002694565b999c989b5096995094979396929594505050565b6001600160a01b03811681146200103357600080fd5b600060208284031215620027dd57600080fd5b8135620019bf81620027b4565b60005b8381101562002807578181015183820152602001620027ed565b8381111562002817576000848401525b50505050565b6000815180845262002837816020860160208601620027ea565b601f01601f19169290920160200192915050565b6001600160a01b0384168152821515602082015260606040820181905260009062002879908301846200281d565b95945050505050565b600080604083850312156200289657600080fd5b8235620028a381620027b4565b946020939093013593505050565b60008060008060408587031215620028c857600080fd5b843567ffffffffffffffff80821115620028e157600080fd5b620028ef8883890162002694565b909650945060208701359150808211156200290957600080fd5b50620029188782880162002694565b95989497509550505050565b6000806000606084860312156200293a57600080fd5b505081359360208301359350604090920135919050565b80151581146200103357600080fd5b6000806000606084860312156200297657600080fd5b83356200298381620027b4565b925060208401356200299581620027b4565b91506040840135620029a78162002951565b809150509250925092565b60008083601f840112620029c557600080fd5b50813567ffffffffffffffff811115620029de57600080fd5b602083019150836020828501011115620026dc57600080fd5b60008060008060006080868803121562002a1057600080fd5b853562002a1d81620027b4565b9450602086013562002a2f81620027b4565b9350604086013562002a418162002951565b9250606086013567ffffffffffffffff81111562002a5e57600080fd5b62002a6c88828901620029b2565b969995985093965092949392505050565b6000806020838503121562002a9157600080fd5b823567ffffffffffffffff81111562002aa957600080fd5b62002ab785828601620029b2565b90969095509350505050565b6000806000806000806060878903121562002add57600080fd5b863567ffffffffffffffff8082111562002af657600080fd5b62002b048a838b0162002694565b9098509650602089013591508082111562002b1e57600080fd5b62002b2c8a838b0162002694565b9096509450604089013591508082111562002b4657600080fd5b5062002b5589828a0162002694565b979a9699509497509295939492505050565b6000806040838503121562002b7b57600080fd5b823562002b8881620027b4565b9150602083013562002b9a81620027b4565b809150509250929050565b6000806000806040858703121562002bbc57600080fd5b843567ffffffffffffffff8082111562002bd557600080fd5b62002be38883890162002694565b9096509450602087013591508082111562002bfd57600080fd5b506200291887828801620029b2565b60006020828403121562002c1f57600080fd5b5035919050565b6020808252818101527f4f776e61626c653a2063616c6c6572206973206e6f7420746865206f776e6572604082015260600190565b634e487b7160e01b600052603260045260246000fd5b60006020828403121562002c8457600080fd5b8135620019bf8162002951565b600060001982141562002cb457634e487b7160e01b600052601160045260246000fd5b5060010190565b600181811c9082168062002cd057607f821691505b6020821081141562002cf257634e487b7160e01b600052602260045260246000fd5b50919050565b6020808252602b908201527f496e7465726573742066656520726174652063616e6e6f74206265206d6f726560408201526a103a3430b710189818129760a91b606082015260800190565b6000808335601e1984360301811262002d5b57600080fd5b83018035915067ffffffffffffffff82111562002d7757600080fd5b602001915036819003821315620026dc57600080fd5b60006020828403121562002da057600080fd5b5051919050565b6000808585111562002db857600080fd5b8386111562002dc657600080fd5b5050820193919092039150565b6000845162002de7818460208901620027ea565b8201838582376000930192835250909392505050565b634e487b7160e01b600052602160045260246000fd5b6000825162002e27818460208701620027ea565b9190910192915050565b60006020828403121562002e4457600080fd5b8151620019bf81620027b4565b6020808252602e908201527f496e697469616c697a61626c653a20636f6e747261637420697320616c72656160408201526d191e481a5b9a5d1a585b1a5e995960921b606082015260800190565b6020808252602b908201527f496e697469616c697a61626c653a20636f6e7472616374206973206e6f74206960408201526a6e697469616c697a696e6760a81b606082015260800190565b60006020828403121562002efd57600080fd5b8151620019bf8162002951565b602081526000620019bf60208301846200281d56fe608060405234801561001057600080fd5b5060405161069638038061069683398101604081905261002f91610246565b610085848b8b8b8b8b8b8989604051602401610052989796959493929190610363565b60408051601f198184030181529190526020810180516001600160e01b039081166306db3ecd60e01b179091526100e316565b506100d384856000866040516024016100a0939291906103cc565b60408051601f198184030181529190526020810180516001600160e01b039081166350d85b7360e01b179091526100e316565b505050505050505050505061041d565b6060600080846001600160a01b0316846040516101009190610401565b600060405180830381855af49150503d806000811461013b576040519150601f19603f3d011682016040523d82523d6000602084013e610140565b606091505b50915091506000821415610155573d60208201fd5b949350505050565b80516001600160a01b038116811461017457600080fd5b919050565b634e487b7160e01b600052604160045260246000fd5b60005b838110156101aa578181015183820152602001610192565b838111156101b9576000848401525b50505050565b600082601f8301126101d057600080fd5b81516001600160401b03808211156101ea576101ea610179565b604051601f8301601f19908116603f0116810190828211818310171561021257610212610179565b8160405283815286602085880101111561022b57600080fd5b61023c84602083016020890161018f565b9695505050505050565b6000806000806000806000806000806101408b8d03121561026657600080fd5b61026f8b61015d565b995061027d60208c0161015d565b985061028b60408c0161015d565b975061029960608c0161015d565b60808c01519097506001600160401b03808211156102b657600080fd5b6102c28e838f016101bf565b975060a08d01519150808211156102d857600080fd5b6102e48e838f016101bf565b96506102f260c08e0161015d565b955060e08d015191508082111561030857600080fd5b506103158d828e016101bf565b9350506101008b015191506101208b015190509295989b9194979a5092959850565b6000815180845261034f81602086016020860161018f565b601f01601f19169290920160200192915050565b6001600160a01b0389811682528881166020830152878116604083015286166060820152610100608082018190526000906103a083820188610337565b905082810360a08401526103b48187610337565b60c0840195909552505060e001529695505050505050565b6001600160a01b038416815282151560208201526060604082018190526000906103f890830184610337565b95945050505050565b6000825161041381846020870161018f565b9190910192915050565b61026a8061042c6000396000f3fe6080604052600436106100225760003560e01c80635c60da1b1461015c57610029565b3661002957005b34156100a15760405162461bcd60e51b815260206004820152603760248201527f43457263323044656c656761746f723a66616c6c6261636b3a2063616e6e6f7460448201527f2073656e642076616c756520746f2066616c6c6261636b000000000000000000606482015260840160405180910390fd5b6000546040805160048152602481019091526020810180516001600160e01b031663076de25160e21b1790526100e0916001600160a01b031690610198565b50600080546040516001600160a01b03909116906101019083903690610212565b600060405180830381855af49150503d806000811461013c576040519150601f19603f3d011682016040523d82523d6000602084013e610141565b606091505b505090506040513d6000823e818015610158573d82f35b3d82fd5b34801561016857600080fd5b5060005461017c906001600160a01b031681565b6040516001600160a01b03909116815260200160405180910390f35b6060600080846001600160a01b0316846040516101b59190610222565b600060405180830381855af49150503d80600081146101f0576040519150601f19603f3d011682016040523d82523d6000602084013e6101f5565b606091505b5091509150600082141561020a573d60208201fd5b949350505050565b8183823760009101908152919050565b6000825160005b818110156102435760208186018101518583015201610229565b81811115610252576000828501525b50919091019291505056fea164736f6c634300080a000a608060405234801561001057600080fd5b506040516105fd3803806105fd83398101604081905261002f91610243565b610083848a8a8a8a8a8888604051602401610050979695949392919061034e565b60408051601f198184030181529190526020810180516001600160e01b0390811663a0b0d28960e01b179091526100e016565b506100d1848560008660405160240161009e939291906103ab565b60408051601f198184030181529190526020810180516001600160e01b039081166350d85b7360e01b179091526100e016565b505050505050505050506103fc565b6060600080846001600160a01b0316846040516100fd91906103e0565b600060405180830381855af49150503d8060008114610138576040519150601f19603f3d011682016040523d82523d6000602084013e61013d565b606091505b50915091506000821415610152573d60208201fd5b949350505050565b80516001600160a01b038116811461017157600080fd5b919050565b634e487b7160e01b600052604160045260246000fd5b60005b838110156101a757818101518382015260200161018f565b838111156101b6576000848401525b50505050565b600082601f8301126101cd57600080fd5b81516001600160401b03808211156101e7576101e7610176565b604051601f8301601f19908116603f0116810190828211818310171561020f5761020f610176565b8160405283815286602085880101111561022857600080fd5b61023984602083016020890161018c565b9695505050505050565b60008060008060008060008060006101208a8c03121561026257600080fd5b61026b8a61015a565b985061027960208b0161015a565b975061028760408b0161015a565b60608b01519097506001600160401b03808211156102a457600080fd5b6102b08d838e016101bc565b975060808c01519150808211156102c657600080fd5b6102d28d838e016101bc565b96506102e060a08d0161015a565b955060c08c01519150808211156102f657600080fd5b506103038c828d016101bc565b93505060e08a015191506101008a015190509295985092959850929598565b6000815180845261033a81602086016020860161018c565b601f01601f19169290920160200192915050565b6001600160a01b03888116825287811660208301528616604082015260e06060820181905260009061038290830187610322565b82810360808401526103948187610322565b60a0840195909552505060c0015295945050505050565b6001600160a01b038416815282151560208201526060604082018190526000906103d790830184610322565b95945050505050565b600082516103f281846020870161018c565b9190910192915050565b6101f28061040b6000396000f3fe6080604052600436106100225760003560e01c80635c60da1b146100e457610029565b3661002957005b6000546040805160048152602481019091526020810180516001600160e01b031663076de25160e21b179052610068916001600160a01b031690610120565b50600080546040516001600160a01b0390911690610089908390369061019a565b600060405180830381855af49150503d80600081146100c4576040519150601f19603f3d011682016040523d82523d6000602084013e6100c9565b606091505b505090506040513d6000823e8180156100e0573d82f35b3d82fd5b3480156100f057600080fd5b50600054610104906001600160a01b031681565b6040516001600160a01b03909116815260200160405180910390f35b6060600080846001600160a01b03168460405161013d91906101aa565b600060405180830381855af49150503d8060008114610178576040519150601f19603f3d011682016040523d82523d6000602084013e61017d565b606091505b50915091506000821415610192573d60208201fd5b949350505050565b8183823760009101908152919050565b6000825160005b818110156101cb57602081860181015185830152016101b1565b818111156101da576000828501525b50919091019291505056fea164736f6c634300080a000aa164736f6c634300080a000a60806040526067805461ffff60a01b191661010160a01b17905534801561002557600080fd5b50613dfd806100356000396000f3fe60806040523480156200001157600080fd5b5060043610620001f55760003560e01c806358b896d31162000119578063b71d1a0c11620000af578063dcfbc0c7116200007a578063dcfbc0c714620004fb578063e9c714f2146200050f578063f2fde38b1462000519578063f851a440146200053057600080fd5b8063b71d1a0c1462000491578063b86579d414620004b7578063bb82aa5e14620004ce578063d88ff1f414620004e257600080fd5b8063a155497c11620000f0578063a155497c1462000413578063a3ed91c6146200042a578063a970e76c1462000441578063ac4afa38146200046757600080fd5b806358b896d314620003c2578063715018a614620003f75780638da5cb5b146200040157600080fd5b8063218a3bbe116200018f5780632f1069ba11620001665780632f1069ba146200035757806343e20a1d146200036c5780634a7462ee14620003925780634ae26ea114620003b857600080fd5b8063218a3bbe146200030e57806326782247146200033557806326bb81d7146200034957600080fd5b80630a83d1b011620001d05780630a83d1b0146200028d57806315761d5114620002a45780631e1c6a0714620002d157806320c32bfe14620002f757600080fd5b806304f03c6f14620001fa5780630742197814620002135780630a755ec21462000263575b600080fd5b620002116200020b366004620029a6565b62000544565b005b6200021162000224366004620029e9565b336000908152606f602090815260408220805460018101825590835291200180546001600160a01b0319166001600160a01b0392909216919091179055565b6067546200027890600160a81b900460ff1681565b60405190151581526020015b60405180910390f35b620002116200029e36600462002a09565b6200058d565b606554620002b8906001600160a01b031681565b6040516001600160a01b03909116815260200162000284565b62000278620002e2366004620029e9565b606c6020526000908152604090205460ff1681565b620002116200030836600462002ae2565b620006bc565b620003256200031f366004620029a6565b62000830565b6040516200028492919062002c41565b606754620002b8906001600160a01b031681565b606d54620002789060ff1681565b6067546200027890600160a01b900460ff1681565b620002786200037d366004620029e9565b60706020526000908152604090205460ff1681565b620003a9620003a3366004620029e9565b62000d23565b60405162000284919062002c9c565b6200032562000d9b565b620003d9620003d336600462002d35565b6200114b565b604080519283526001600160a01b0390911660208301520162000284565b62000211620018e7565b6033546001600160a01b0316620002b8565b620002116200042436600462002a09565b62001922565b620003256200043b366004620029e9565b62001a17565b6200027862000452366004620029e9565b606e6020526000908152604090205460ff1681565b6200047e6200047836600462002e49565b62001cf4565b6040516200028495949392919062002e63565b620004a8620004a2366004620029e9565b62001dda565b60405190815260200162000284565b62000211620004c836600462002ea5565b62001e66565b606854620002b8906001600160a01b031681565b620004ec62001f5e565b60405162000284919062002f7b565b606954620002b8906001600160a01b031681565b620004a862002095565b620002116200052a366004620029e9565b62002178565b606654620002b8906001600160a01b031681565b6033546001600160a01b031633146200057a5760405162461bcd60e51b8152600401620005719062002f90565b60405180910390fd5b606d805460ff1916911515919091179055565b6033546001600160a01b03163314620005ba5760405162461bcd60e51b8152600401620005719062002f90565b81620005ff5760405162461bcd60e51b815260206004820152601360248201527227379030b236b4b7399039bab8383634b2b21760691b604482015260640162000571565b60005b828110156200067957816070600086868581811062000625576200062562002fc5565b90506020020160208101906200063c9190620029e9565b6001600160a01b031681526020810191909152604001600020805460ff191691151591909117905580620006708162002ff1565b91505062000602565b507f31b67e6853df85403a8c4f4f46dc53f48f700d6917c8e3ec8c77a0e6fd56793b838383604051620006af939291906200300f565b60405180910390a1505050565b6000606a8481548110620006d457620006d462002fc5565b600091825260209182902060026005909202010154604080516303e1469160e61b815290516001600160a01b039092169350839263f851a440926004808401938290030181865afa1580156200072e573d6000803e3d6000fd5b505050506040513d601f19601f820116820180604052508101906200075491906200306c565b6001600160a01b0316336001600160a01b0316148015620007d55750806001600160a01b0316630a755ec26040518163ffffffff1660e01b8152600401602060405180830381865afa158015620007af573d6000803e3d6000fd5b505050506040513d601f19601f82011682018060405250810190620007d591906200308c565b80620007eb57506033546001600160a01b031633145b620007f557600080fd5b8282606a86815481106200080d576200080d62002fc5565b6000918252602090912062000829936005909202019162002818565b5050505050565b6060806000805b606a54811015620009ae576000606a82815481106200085a576200085a62002fc5565b60009182526020918290206002600590920201015460408051630b09572160e41b815290516001600160a01b039092169350839263b0957210926004808401938290030181865afa925050508015620008d2575060408051601f3d908101601f19168201909252620008cf918101906200308c565b60015b620008dd5762000988565b8015620008ec57505062000999565b816001600160a01b031663f851a4406040518163ffffffff1660e01b8152600401602060405180830381865afa92505050801562000949575060408051601f3d908101601f1916820190925262000946918101906200306c565b60015b620009545762000986565b6001600160a01b03811660009081526070602052604090205460ff16151588151514620009845750505062000999565b505b505b82620009948162002ff1565b935050505b80620009a58162002ff1565b91505062000837565b5060008167ffffffffffffffff811115620009cd57620009cd62002ceb565b604051908082528060200260200182016040528015620009f7578160200160208202803683370190505b50905060008267ffffffffffffffff81111562000a185762000a1862002ceb565b60405190808252806020026020018201604052801562000a5557816020015b62000a41620028a7565b81526020019060019003908162000a375790505b5090506000805b606a5481101562000d16576000606a828154811062000a7f5762000a7f62002fc5565b60009182526020918290206002600590920201015460408051630b09572160e41b815290516001600160a01b039092169350839263b0957210926004808401938290030181865afa92505050801562000af7575060408051601f3d908101601f1916820190925262000af4918101906200308c565b60015b62000b025762000bad565b801562000b1157505062000d01565b816001600160a01b031663f851a4406040518163ffffffff1660e01b8152600401602060405180830381865afa92505050801562000b6e575060408051601f3d908101601f1916820190925262000b6b918101906200306c565b60015b62000b795762000bab565b6001600160a01b03811660009081526070602052604090205460ff1615158b15151462000ba95750505062000d01565b505b505b8185848151811062000bc35762000bc362002fc5565b602002602001018181525050606a828154811062000be55762000be562002fc5565b90600052602060002090600502016040518060a001604052908160008201805462000c1090620030ac565b80601f016020809104026020016040519081016040528092919081815260200182805462000c3e90620030ac565b801562000c8f5780601f1062000c635761010080835404028352916020019162000c8f565b820191906000526020600020905b81548152906001019060200180831162000c7157829003601f168201915b505050918352505060018201546001600160a01b039081166020830152600283015416604082015260038201546060820152600490910154608090910152845185908590811062000ce45762000ce462002fc5565b6020026020010181905250828062000cfc9062002ff1565b935050505b8062000d0d8162002ff1565b91505062000a5c565b5091969095509350505050565b6001600160a01b0381166000908152606f602090815260409182902080548351818402810184019094528084526060939283018282801562000d8f57602002820191906000526020600020905b81546001600160a01b0316815260019091019060200180831162000d70575b50505050509050919050565b6060806000805b606a5481101562000e7857606a818154811062000dc35762000dc362002fc5565b60009182526020918290206002600590920201015460408051630b09572160e41b815290516001600160a01b039092169263b0957210926004808401938290030181865afa92505050801562000e38575060408051601f3d908101601f1916820190925262000e35918101906200308c565b60015b62000e435762000e53565b801562000e51575062000e63565b505b8162000e5f8162002ff1565b9250505b8062000e6f8162002ff1565b91505062000da2565b5060008167ffffffffffffffff81111562000e975762000e9762002ceb565b60405190808252806020026020018201604052801562000ec1578160200160208202803683370190505b50905060008267ffffffffffffffff81111562000ee25762000ee262002ceb565b60405190808252806020026020018201604052801562000f1f57816020015b62000f0b620028a7565b81526020019060019003908162000f015790505b5090506000805b606a548110156200113f57606a818154811062000f475762000f4762002fc5565b60009182526020918290206002600590920201015460408051630b09572160e41b815290516001600160a01b039092169263b0957210926004808401938290030181865afa92505050801562000fbc575060408051601f3d908101601f1916820190925262000fb9918101906200308c565b60015b62000fc75762000fd7565b801562000fd557506200112a565b505b8084838151811062000fed5762000fed62002fc5565b602002602001018181525050606a81815481106200100f576200100f62002fc5565b90600052602060002090600502016040518060a00160405290816000820180546200103a90620030ac565b80601f01602080910402602001604051908101604052809291908181526020018280546200106890620030ac565b8015620010b95780601f106200108d57610100808354040283529160200191620010b9565b820191906000526020600020905b8154815290600101906020018083116200109b57829003601f168201915b505050918352505060018201546001600160a01b03908116602083015260028301541660408201526003820154606082015260049091015460809091015283518490849081106200110e576200110e62002fc5565b60200260200101819052508180620011269062002ff1565b9250505b80620011368162002ff1565b91505062000f26565b50919590945092505050565b6000806001600160a01b038916620011cc5760405162461bcd60e51b815260206004820152603960248201527f4e6f20436f6d7074726f6c6c657220696d706c656d656e746174696f6e20636f60448201527f6e74726163742061646472657373207370656369666965642e00000000000000606482015260840162000571565b6001600160a01b038316620012375760405162461bcd60e51b815260206004820152602a60248201527f4e6f2050726963654f7261636c6520636f6e747261637420616464726573732060448201526939b832b1b4b334b2b21760b11b606482015260840162000571565b6000604051806020016200124b90620028e8565b601f1982820381018352601f9091011660408190526200127391908b908b90602001620030e9565b60405160208183030381529060405290506000620012c06000338e43604051602001620012a39392919062003113565b60405160208183030381529060405280519060200120846200221a565b60405163e992a04160e01b81526001600160a01b038d81166004830152919250829182169063e992a041906024016020604051808303816000875af11580156200130e573d6000803e3d6000fd5b505050506040513d601f19601f8201168201806040525081019062001334919062003154565b156200139f5760405162461bcd60e51b815260206004820152603360248201527f4661696c656420746f207365742070656e64696e6720696d706c656d656e74616044820152723a34b7b71037b7102ab734ba3937b63632b91760691b606482015260840162000571565b604051630ea826e360e11b81526001600160a01b0382811660048301528d9190821690631d504dc690602401600060405180830381600087803b158015620013e657600080fd5b505af1158015620013fb573d6000803e3d6000fd5b505060405163317b0b7760e01b8152600481018c90528592506001600160a01b038316915063317b0b77906024016020604051808303816000875af115801562001449573d6000803e3d6000fd5b505050506040513d601f19601f820116820180604052508101906200146f919062003154565b15620014be5760405162461bcd60e51b815260206004820181905260248201527f4661696c656420746f2073657420706f6f6c20636c6f736520666163746f722e604482015260640162000571565b604051634fd42e1760e01b8152600481018a90526001600160a01b03821690634fd42e17906024016020604051808303816000875af115801562001506573d6000803e3d6000fd5b505050506040513d601f19601f820116820180604052508101906200152c919062003154565b156200158d5760405162461bcd60e51b815260206004820152602960248201527f4661696c656420746f2073657420706f6f6c206c69717569646174696f6e20696044820152683731b2b73a34bb329760b91b606482015260840162000571565b6040516355ee1fe160e01b81526001600160a01b0389811660048301528216906355ee1fe1906024016020604051808303816000875af1158015620015d6573d6000803e3d6000fd5b505050506040513d601f19601f82011682018060405250810190620015fc919062003154565b156200164b5760405162461bcd60e51b815260206004820181905260248201527f4661696c656420746f2073657420706f6f6c207072696365206f7261636c652e604482015260640162000571565b8a156200172657604051634a956fad60e11b8152600160048201526001600160a01b0382169063952adf5a906024016020604051808303816000875af11580156200169a573d6000803e3d6000fd5b505050506040513d601f19601f82011682018060405250810190620016c0919062003154565b15620017265760405162461bcd60e51b815260206004820152602e60248201527f4661696c656420746f20656e666f72636520737570706c6965722f626f72726f60448201526d3bb2b9103bb434ba32b634b9ba1760911b606482015260840162000571565b604051636a9998b360e11b8152600160048201526001600160a01b0382169063d5333166906024016020604051808303816000875af11580156200176e573d6000803e3d6000fd5b505050506040513d601f19601f8201168201806040525081019062001794919062003154565b15620017f75760405162461bcd60e51b815260206004820152602b60248201527f4661696c656420746f20656e61626c6520706f6f6c206175746f20696d706c6560448201526a36b2b73a30ba34b7b7399760a91b606482015260840162000571565b604051632dc7468360e21b81523360048201526001600160a01b0384169063b71d1a0c906024016020604051808303816000875af11580156200183e573d6000803e3d6000fd5b505050506040513d601f19601f8201168201806040525081019062001864919062003154565b15620018c65760405162461bcd60e51b815260206004820152602a60248201527f4661696c656420746f207365742070656e64696e672061646d696e206f6e20556044820152693734ba3937b63632b91760b11b606482015260840162000571565b620018d28f856200232a565b9f939e50929c50505050505050505050505050565b6033546001600160a01b03163314620019145760405162461bcd60e51b8152600401620005719062002f90565b620019206000620025f7565b565b6033546001600160a01b031633146200194f5760405162461bcd60e51b8152600401620005719062002f90565b81620019975760405162461bcd60e51b81526020600482015260166024820152752737903232b83637bcb2b9399039bab8383634b2b21760511b604482015260640162000571565b60005b8281101562001a115781606e6000868685818110620019bd57620019bd62002fc5565b9050602002016020810190620019d49190620029e9565b6001600160a01b031681526020810191909152604001600020805460ff19169115159190911790558062001a088162002ff1565b9150506200199a565b50505050565b6001600160a01b0381166000908152606b6020526040812054606091829167ffffffffffffffff81111562001a505762001a5062002ceb565b60405190808252806020026020018201604052801562001a7a578160200160208202803683370190505b506001600160a01b0385166000908152606b60205260408120549192509067ffffffffffffffff81111562001ab35762001ab362002ceb565b60405190808252806020026020018201604052801562001af057816020015b62001adc620028a7565b81526020019060019003908162001ad25790505b50905060005b6001600160a01b0386166000908152606b602052604090205481101562001ce9576001600160a01b0386166000908152606b6020526040902080548290811062001b445762001b4462002fc5565b906000526020600020015483828151811062001b645762001b6462002fc5565b602002602001018181525050606a606b6000886001600160a01b03166001600160a01b03168152602001908152602001600020828154811062001bab5762001bab62002fc5565b90600052602060002001548154811062001bc95762001bc962002fc5565b90600052602060002090600502016040518060a001604052908160008201805462001bf490620030ac565b80601f016020809104026020016040519081016040528092919081815260200182805462001c2290620030ac565b801562001c735780601f1062001c475761010080835404028352916020019162001c73565b820191906000526020600020905b81548152906001019060200180831162001c5557829003601f168201915b505050918352505060018201546001600160a01b039081166020830152600283015416604082015260038201546060820152600490910154608090910152825183908390811062001cc85762001cc862002fc5565b6020026020010181905250808062001ce09062002ff1565b91505062001af6565b509094909350915050565b606a818154811062001d0557600080fd5b906000526020600020906005020160009150905080600001805462001d2a90620030ac565b80601f016020809104026020016040519081016040528092919081815260200182805462001d5890620030ac565b801562001da95780601f1062001d7d5761010080835404028352916020019162001da9565b820191906000526020600020905b81548152906001019060200180831162001d8b57829003601f168201915b5050505060018301546002840154600385015460049095015493946001600160a01b03928316949290911692509085565b600062001de662002649565b62001dff5762001df9600160106200269e565b92915050565b606780546001600160a01b038481166001600160a01b031983168117909355604080519190921680825260208201939093527fca4f2f25d0898edd99413412fb94012f9e54ec8142f9b093e7720646a95b16a9910160405180910390a160005b9392505050565b600062001e74600162002720565b9050801562001e8d576000805461ff0019166101001790555b62001e97620027b5565b606d805460ff191684151517905560005b825181101562001f14576001606e600085848151811062001ecd5762001ecd62002fc5565b6020908102919091018101516001600160a01b03168252810191909152604001600020805460ff19169115159190911790558062001f0b8162002ff1565b91505062001ea8565b50801562001f59576000805461ff0019169055604051600181527f7f26b83ff96e1f2b6a682f133852f6798a09c465da95921460cefb384740249890602001620006af565b505050565b6060606a805480602002602001604051908101604052809291908181526020016000905b828210156200208c57838290600052602060002090600502016040518060a001604052908160008201805462001fb890620030ac565b80601f016020809104026020016040519081016040528092919081815260200182805462001fe690620030ac565b8015620020375780601f106200200b5761010080835404028352916020019162002037565b820191906000526020600020905b8154815290600101906020018083116200201957829003601f168201915b50505091835250506001828101546001600160a01b0390811660208085019190915260028501549091166040840152600384015460608401526004909301546080909201919091529183529201910162001f82565b50505050905090565b6067546000906001600160a01b03163314620020be57620020b9600160006200269e565b905090565b60668054606780546001600160a01b038082166001600160a01b031980861682179096559490911690915560408051919092168082526020820184905292917ff9ffabca9c8276e99321725bcb43fb076a6c66a54b7f21c4e8146d8519b417dc910160405180910390a1606754604080516001600160a01b03808516825290921660208301527fca4f2f25d0898edd99413412fb94012f9e54ec8142f9b093e7720646a95b16a9910160405180910390a160009250505090565b6033546001600160a01b03163314620021a55760405162461bcd60e51b8152600401620005719062002f90565b6001600160a01b0381166200220c5760405162461bcd60e51b815260206004820152602660248201527f4f776e61626c653a206e6577206f776e657220697320746865207a65726f206160448201526564647265737360d01b606482015260840162000571565b6200221781620025f7565b50565b600080844710156200226f5760405162461bcd60e51b815260206004820152601d60248201527f437265617465323a20696e73756666696369656e742062616c616e6365000000604482015260640162000571565b8251620022bf5760405162461bcd60e51b815260206004820181905260248201527f437265617465323a2062797465636f6465206c656e677468206973207a65726f604482015260640162000571565b8383516020850187f590506001600160a01b038116620023225760405162461bcd60e51b815260206004820152601960248201527f437265617465323a204661696c6564206f6e206465706c6f7900000000000000604482015260640162000571565b949350505050565b6001600160a01b0381166000908152606c602052604081205460ff1615620023a35760405162461bcd60e51b815260206004820152602560248201527f506f6f6c20616c72656164792065786973747320696e207468652064697265636044820152643a37b93c9760d91b606482015260840162000571565b606d5460ff161580620023c55750336000908152606e602052604090205460ff165b6200241f5760405162461bcd60e51b8152602060048201526024808201527f53656e646572206973206e6f74206f6e206465706c6f7965722077686974656c60448201526334b9ba1760e11b606482015260840162000571565b6064835111156200246c5760405162461bcd60e51b81526020600482015260166024820152752737903837b7b6103730b6b29039bab8383634b2b21760511b604482015260640162000571565b6040805160a081018252848152336020808301919091526001600160a01b03851692820192909252436060820152426080820152606a8054600181018255600091909152815180519293849360059093027f116fea137db6e131133e7f2bab296045d8f41cc5607279db17b218cab0929a510192620024ef9284920190620028f6565b50602082810151600183810180546001600160a01b03199081166001600160a01b0394851617909155604080870151600287018054909316941693909317905560608501516003850155608090940151600490930192909255336000908152606b90915220606a549091620025649162003184565b81546001818101845560009384526020808520909201929092556001600160a01b0386168352606c90526040909120805460ff191682179055606a547f18075ab463b4dc5842f37ecd67abeb192eda5d073f2c08509e189ad173d5c02091620025cd9162003184565b82604051620025de9291906200319e565b60405180910390a1606a54620023229060019062003184565b603380546001600160a01b038381166001600160a01b0319831681179093556040519116919082907f8be0079c531659141344cd1fd0a4f28419497f9722a3daafe3b4186f6b6457e090600090a35050565b6066546000906001600160a01b031633148015620026705750606754600160a81b900460ff165b80620020b957506065546001600160a01b031633148015620020b9575050606754600160a01b900460ff1690565b60007f45b96fe442630264581b197e84bbada861235052c5a1aadfff9ea4e40a969aa0836015811115620026d657620026d66200316e565b83601b811115620026eb57620026eb6200316e565b60408051928352602083019190915260009082015260600160405180910390a182601581111562001e5f5762001e5f6200316e565b60008054610100900460ff16156200276c578160ff166001148015620027455750303b155b620027645760405162461bcd60e51b81526004016200057190620031b9565b506000919050565b60005460ff808416911610620027965760405162461bcd60e51b81526004016200057190620031b9565b506000805460ff191660ff92909216919091179055600190565b919050565b600054610100900460ff16620027df5760405162461bcd60e51b8152600401620005719062003207565b62001920600054610100900460ff166200280d5760405162461bcd60e51b8152600401620005719062003207565b6200192033620025f7565b8280546200282690620030ac565b90600052602060002090601f0160209004810192826200284a576000855562002895565b82601f10620028655782800160ff1982351617855562002895565b8280016001018555821562002895579182015b828111156200289557823582559160200191906001019062002878565b50620028a392915062002973565b5090565b6040518060a001604052806060815260200160006001600160a01b0316815260200160006001600160a01b0316815260200160008152602001600081525090565b610b9e806200325383390190565b8280546200290490620030ac565b90600052602060002090601f01602090048101928262002928576000855562002895565b82601f106200294357805160ff191683800117855562002895565b8280016001018555821562002895579182015b828111156200289557825182559160200191906001019062002956565b5b80821115620028a3576000815560010162002974565b80151581146200221757600080fd5b8035620027b0816200298a565b600060208284031215620029b957600080fd5b813562001e5f816200298a565b6001600160a01b03811681146200221757600080fd5b8035620027b081620029c6565b600060208284031215620029fc57600080fd5b813562001e5f81620029c6565b60008060006040848603121562002a1f57600080fd5b833567ffffffffffffffff8082111562002a3857600080fd5b818601915086601f83011262002a4d57600080fd5b81358181111562002a5d57600080fd5b8760208260051b850101111562002a7357600080fd5b6020928301955093505084013562002a8b816200298a565b809150509250925092565b60008083601f84011262002aa957600080fd5b50813567ffffffffffffffff81111562002ac257600080fd5b60208301915083602082850101111562002adb57600080fd5b9250929050565b60008060006040848603121562002af857600080fd5b83359250602084013567ffffffffffffffff81111562002b1757600080fd5b62002b258682870162002a96565b9497909650939450505050565b60005b8381101562002b4f57818101518382015260200162002b35565b8381111562001a115750506000910152565b6000815180845262002b7b81602086016020860162002b32565b601f01601f19169290920160200192915050565b6000815160a0845262002ba660a085018262002b61565b9050602083015160018060a01b038082166020870152806040860151166040870152505060608301516060850152608083015160808501528091505092915050565b600081518084526020808501808196508360051b8101915082860160005b8581101562002c3457828403895262002c2184835162002b8f565b9885019893509084019060010162002c06565b5091979650505050505050565b604080825283519082018190526000906020906060840190828701845b8281101562002c7c5781518452928401929084019060010162002c5e565b5050508381038285015262002c92818662002be8565b9695505050505050565b6020808252825182820181905260009190848201906040850190845b8181101562002cdf5783516001600160a01b03168352928401929184019160010162002cb8565b50909695505050505050565b634e487b7160e01b600052604160045260246000fd5b604051601f8201601f1916810167ffffffffffffffff8111828210171562002d2d5762002d2d62002ceb565b604052919050565b60008060008060008060008060e0898b03121562002d5257600080fd5b883567ffffffffffffffff8082111562002d6b57600080fd5b818b0191508b601f83011262002d8057600080fd5b813560208282111562002d975762002d9762002ceb565b62002dab601f8301601f1916820162002d01565b8281528e8284870101111562002dc057600080fd5b828286018383013760008184018301529b5062002ddf8d8201620029dc565b9a50505060408b013591508082111562002df857600080fd5b5062002e078b828c0162002a96565b909750955062002e1c905060608a0162002999565b93506080890135925060a0890135915062002e3a60c08a01620029dc565b90509295985092959890939650565b60006020828403121562002e5c57600080fd5b5035919050565b60a08152600062002e7860a083018862002b61565b6001600160a01b039687166020840152949095166040820152606081019290925260809091015292915050565b6000806040838503121562002eb957600080fd5b823562002ec6816200298a565b915060208381013567ffffffffffffffff8082111562002ee557600080fd5b818601915086601f83011262002efa57600080fd5b81358181111562002f0f5762002f0f62002ceb565b8060051b915062002f2284830162002d01565b818152918301840191848101908984111562002f3d57600080fd5b938501935b8385101562002f6b578435925062002f5a83620029c6565b828252938501939085019062002f42565b8096505050505050509250929050565b60208152600062001e5f602083018462002be8565b6020808252818101527f4f776e61626c653a2063616c6c6572206973206e6f7420746865206f776e6572604082015260600190565b634e487b7160e01b600052603260045260246000fd5b634e487b7160e01b600052601160045260246000fd5b600060001982141562003008576200300862002fdb565b5060010190565b6040808252810183905260008460608301825b86811015620030565782356200303881620029c6565b6001600160a01b031682526020928301929091019060010162003022565b5080925050508215156020830152949350505050565b6000602082840312156200307f57600080fd5b815162001e5f81620029c6565b6000602082840312156200309f57600080fd5b815162001e5f816200298a565b600181811c90821680620030c157607f821691505b60208210811415620030e357634e487b7160e01b600052602260045260246000fd5b50919050565b60008451620030fd81846020890162002b32565b8201838582376000930192835250909392505050565b6bffffffffffffffffffffffff198460601b168152600083516200313f81601485016020880162002b32565b60149201918201929092526034019392505050565b6000602082840312156200316757600080fd5b5051919050565b634e487b7160e01b600052602160045260246000fd5b60008282101562003199576200319962002fdb565b500390565b82815260406020820152600062002322604083018462002b8f565b6020808252602e908201527f496e697469616c697a61626c653a20636f6e747261637420697320616c72656160408201526d191e481a5b9a5d1a585b1a5e995960921b606082015260800190565b6020808252602b908201527f496e697469616c697a61626c653a20636f6e7472616374206973206e6f74206960408201526a6e697469616c697a696e6760a81b60608201526080019056fe60806040526002805461ffff60a01b191661010160a01b17905534801561002557600080fd5b50604051610b9e380380610b9e83398101604081905261004491610077565b60018054336001600160a01b031991821617909155600080549091166001600160a01b03929092169190911790556100a7565b60006020828403121561008957600080fd5b81516001600160a01b03811681146100a057600080fd5b9392505050565b610ae8806100b66000396000f3fe6080604052600436106100c25760003560e01c8063b71d1a0c1161007f578063dcfbc0c711610059578063dcfbc0c714610425578063e992a04114610445578063e9c714f214610465578063f851a4401461047a576100c2565b8063b71d1a0c146103d0578063bb82aa5e146103f0578063c1e8033414610410576100c2565b80630225ab9d146102d35780630a755ec21461030657806315761d5114610337578063267822471461036f5780632f1069ba1461038f5780636f63af0b146103b0575b3330146102585760408051600481526024810182526020810180516001600160e01b0316633757348b60e21b179052905160009182913091610103916109c6565b600060405180830381855afa9150503d806000811461013e576040519150601f19603f3d011682016040523d82523d6000602084013e610143565b606091505b50915091506000821561016757818060200190518101906101649190610a12565b90505b8015610254576000805460035460405163bbcdd6d360e01b81526001600160a01b03918216600482015291169063bbcdd6d390602401602060405180830381865afa1580156101ba573d6000803e3d6000fd5b505050506040513d601f19601f820116820180604052508101906101de9190610a44565b6003549091506001600160a01b0380831691161461025257600380546001600160a01b038381166001600160a01b0319831681179093556040519116917fd604de94d45953f9138079ec1b82d533cb2160c906d1076d1f7ed54befbca97a91610248918491610a61565b60405180910390a1505b505b5050505b6003546040516000916001600160a01b0316906102789083903690610a7b565b600060405180830381855af49150503d80600081146102b3576040519150601f19603f3d011682016040523d82523d6000602084013e6102b8565b606091505b505090506040513d6000823e8180156102cf573d82f35b3d82fd5b3480156102df57600080fd5b506102f36102ee366004610a8b565b61049a565b6040519081526020015b60405180910390f35b34801561031257600080fd5b5060025461032790600160a81b900460ff1681565b60405190151581526020016102fd565b34801561034357600080fd5b50600054610357906001600160a01b031681565b6040516001600160a01b0390911681526020016102fd565b34801561037b57600080fd5b50600254610357906001600160a01b031681565b34801561039b57600080fd5b5060025461032790600160a01b900460ff1681565b3480156103bc57600080fd5b506102f36103cb366004610a8b565b610536565b3480156103dc57600080fd5b506102f36103eb366004610aa8565b6105c5565b3480156103fc57600080fd5b50600354610357906001600160a01b031681565b34801561041c57600080fd5b506102f3610644565b34801561043157600080fd5b50600454610357906001600160a01b031681565b34801561045157600080fd5b506102f3610460366004610aa8565b610736565b34801561047157600080fd5b506102f3610829565b34801561048657600080fd5b50600154610357906001600160a01b031681565b60006104a46108fb565b6104ba576104b46001600561094d565b92915050565b60025460ff600160a81b90910416151582151514156104da5760006104b4565b60028054831515600160a81b0260ff60a81b199091161790556040517f10f9a0a95673b0837d1dce21fd3bffcb6d760435e9b5300b75a271182f75f8229061052790841515815260200190565b60405180910390a160006104b4565b60006105406108fb565b610550576104b46001600561094d565b60025460ff600160a01b90910416151582151514156105705760006104b4565b6002805460ff60a01b1916600160a01b8415158102919091179182905560405160ff9190920416151581527fabb56a15fd39488c914b324690b88f30d7daec63d2131ca0ef47e5739068c86e90602001610527565b60006105cf6108fb565b6105df576104b46001601061094d565b600280546001600160a01b038481166001600160a01b03198316179092556040519116907fca4f2f25d0898edd99413412fb94012f9e54ec8142f9b093e7720646a95b16a9906106329083908690610a61565b60405180910390a160005b9392505050565b6004546000906001600160a01b03163314158061066a57506004546001600160a01b0316155b1561067f5761067a60018061094d565b905090565b60038054600480546001600160a01b03198084166001600160a01b03838116918217909655911690915560405192909116917fd604de94d45953f9138079ec1b82d533cb2160c906d1076d1f7ed54befbca97a906106e09084908490610a61565b60405180910390a16004546040517fe945ccee5d701fc83f9b8aa8ca94ea4219ec1fcbd4f4cab4f0ea57c5c3e1d815916107259184916001600160a01b031690610a61565b60405180910390a160009250505090565b60006107406108fb565b610750576104b46001601261094d565b600054600354604051639d244f9f60e01b81526001600160a01b0392831692639d244f9f92610786929116908690600401610a61565b602060405180830381865afa1580156107a3573d6000803e3d6000fd5b505050506040513d601f19601f820116820180604052508101906107c79190610a12565b6107d7576104b46001601161094d565b600480546001600160a01b038481166001600160a01b0319831681179093556040519116917fe945ccee5d701fc83f9b8aa8ca94ea4219ec1fcbd4f4cab4f0ea57c5c3e1d81591610632918491610a61565b6002546000906001600160a01b031633141580610844575033155b156108555761067a6001600061094d565b60018054600280546001600160a01b03198084166001600160a01b03838116918217909655911690915560405192909116917ff9ffabca9c8276e99321725bcb43fb076a6c66a54b7f21c4e8146d8519b417dc906108b69084908490610a61565b60405180910390a16002546040517fca4f2f25d0898edd99413412fb94012f9e54ec8142f9b093e7720646a95b16a9916107259184916001600160a01b031690610a61565b6001546000906001600160a01b0316331480156109215750600254600160a81b900460ff165b8061067a57506000546001600160a01b03163314801561067a575050600254600160a01b900460ff1690565b60007f45b96fe442630264581b197e84bbada861235052c5a1aadfff9ea4e40a969aa083601581111561098257610982610ac5565b83601b81111561099457610994610ac5565b60408051928352602083019190915260009082015260600160405180910390a182601581111561063d5761063d610ac5565b6000825160005b818110156109e757602081860181015185830152016109cd565b818111156109f6576000828501525b509190910192915050565b8015158114610a0f57600080fd5b50565b600060208284031215610a2457600080fd5b815161063d81610a01565b6001600160a01b0381168114610a0f57600080fd5b600060208284031215610a5657600080fd5b815161063d81610a2f565b6001600160a01b0392831681529116602082015260400190565b8183823760009101908152919050565b600060208284031215610a9d57600080fd5b813561063d81610a01565b600060208284031215610aba57600080fd5b813561063d81610a2f565b634e487b7160e01b600052602160045260246000fdfea164736f6c634300080a000aa164736f6c634300080a000a608060405234801561001057600080fd5b50614fb7806100206000396000f3fe608060405234801561001057600080fd5b50600436106101165760003560e01c806370733375116100a2578063c41c2f2411610071578063c41c2f241461026f578063cd344be81461029a578063d0a164fb146102c2578063d64996e5146102ca578063dedfe22f146102dd57600080fd5b8063707333751461021f57806395d89b41146102325780639c00a3d41461023a578063c3530a631461025c57600080fd5b80633a1eb656116100e95780633a1eb6561461018d57806351678684146101a2578063586f6c10146101c557806359d2fea6146101e8578063635629e61461020c57600080fd5b806306fdde031461011b5780630b9c80bd146101395780630c5eb5a41461015a57806327e16c1f1461017a575b600080fd5b610123610301565b6040516101309190613ba5565b60405180910390f35b61014c610147366004613bd7565b61038f565b604051610130929190613cc9565b61016d610168366004613cf7565b610908565b6040516101309190613d30565b61016d610188366004613bd7565b610990565b6101a061019b3660046140d9565b610a08565b005b6101b56101b0366004613bd7565b610de5565b60405161013094939291906142dc565b6101d86101d33660046143bc565b610e88565b60405161013094939291906144fc565b6101fb6101f6366004613bd7565b61110b565b604051610130959493929190614554565b6101b561021a366004613bd7565b611954565b6101b561022d366004613bd7565b611966565b610123611978565b61024d61024836600461459a565b611985565b604051610130939291906145c6565b61014c61026a366004613bd7565b6120b9565b600554610282906001600160a01b031681565b6040516001600160a01b039091168152602001610130565b6102ad6102a83660046145eb565b6123d6565b60408051928352602083019190915201610130565b6101b561251e565b6101b56102d8366004614644565b6125c3565b6102f06102eb366004614661565b612603565b60405161013095949392919061467a565b6001805461030e90614719565b80601f016020809104026020016040519081016040528092919081815260200182805461033a90614719565b80156103875780601f1061035c57610100808354040283529160200191610387565b820191906000526020600020905b81548152906001019060200180831161036a57829003601f168201915b505050505081565b6060806000600560009054906101000a90046001600160a01b03166001600160a01b031663d88ff1f46040518163ffffffff1660e01b8152600401600060405180830381865afa1580156103e7573d6000803e3d6000fd5b505050506040513d6000823e601f3d908101601f1916820160405261040f919081019061488e565b90506000805b8251811015610605576000838281518110610432576104326148c2565b6020026020010151604001519050806001600160a01b03166316dc15fe886040518263ffffffff1660e01b815260040161047b91906001600160a01b0391909116815260200190565b602060405180830381865afa9250505080156104b4575060408051601f3d908101601f191682019092526104b1918101906148e3565b60015b6104bd576105f2565b80156105f0576000826001600160a01b031663b0772d0b6040518163ffffffff1660e01b8152600401600060405180830381865afa158015610503573d6000803e3d6000fd5b505050506040513d6000823e601f3d908101601f1916820160405261052b9190810190614900565b905060005b81518110156105ed57600082828151811061054d5761054d6148c2565b60209081029190910101516040516370a0823160e01b81526001600160a01b038d81166004830152909116906370a0823190602401602060405180830381865afa15801561059f573d6000803e3d6000fd5b505050506040513d601f19601f820116820180604052508101906105c3919061498e565b11156105db57856105d3816149bd565b9650506105ed565b806105e5816149bd565b915050610530565b50505b505b50806105fd816149bd565b915050610415565b506000816001600160401b0381111561062057610620613ebb565b604051908082528060200260200182016040528015610649578160200160208202803683370190505b5090506000826001600160401b0381111561066657610666613ebb565b60405190808252806020026020018201604052801561069f57816020015b61068c6139a9565b8152602001906001900390816106845790505b5090506000805b85518110156108fa5760008682815181106106c3576106c36148c2565b6020026020010151604001519050806001600160a01b03166316dc15fe8b6040518263ffffffff1660e01b815260040161070c91906001600160a01b0391909116815260200190565b602060405180830381865afa925050508015610745575060408051601f3d908101601f19168201909252610742918101906148e3565b60015b61074e576108e7565b80156108e5576000826001600160a01b031663b0772d0b6040518163ffffffff1660e01b8152600401600060405180830381865afa158015610794573d6000803e3d6000fd5b505050506040513d6000823e601f3d908101601f191682016040526107bc9190810190614900565b905060005b81518110156108e25760008282815181106107de576107de6148c2565b60200260200101516001600160a01b03166370a082318f6040518263ffffffff1660e01b815260040161082091906001600160a01b0391909116815260200190565b602060405180830381865afa15801561083d573d6000803e3d6000fd5b505050506040513d601f19601f82011682018060405250810190610861919061498e565b11156108d0578488878151811061087a5761087a6148c2565b602002602001018181525050898581518110610898576108986148c2565b60200260200101518787815181106108b2576108b26148c2565b602002602001018190525085806108c8906149bd565b9650506108e2565b806108da816149bd565b9150506107c1565b50505b505b50806108f2816149bd565b9150506106a6565b509197909650945050505050565b604051632aff3bff60e21b81526001600160a01b03828116600483015260609160009161098891869182169063abfceffc90602401600060405180830381865afa15801561095a573d6000803e3d6000fd5b505050506040513d6000823e601f3d908101601f191682016040526109829190810190614900565b85612760565b949350505050565b6060610a0282836001600160a01b031663b0772d0b6040518163ffffffff1660e01b8152600401600060405180830381865afa1580156109d4573d6000803e3d6000fd5b505050506040513d6000823e601f3d908101601f191682016040526109fc9190810190614900565b33612760565b92915050565b6000610a1460016134c0565b90508015610a2c576000805461ff0019166101001790555b6001600160a01b038a16610aa65760405162461bcd60e51b815260206004820152603660248201527f46757365506f6f6c4469726563746f727920696e7374616e63652063616e6e6f6044820152753a103132903a3432903d32b9379030b2323932b9b99760511b60648201526084015b60405180910390fd5b85518751148015610ab8575084518751145b610b135760405162461bcd60e51b815260206004820152602660248201527f48617264636f64656420616464726573736573206c656e67746873206e6f742060448201526532b8bab0b61760d11b6064820152608401610a9d565b82518451148015610b25575081518451145b610b835760405162461bcd60e51b815260206004820152602960248201527f556e6973776170204c5020746f6b656e206e616d6573206c656e67746873206e60448201526837ba1032b8bab0b61760b91b6064820152608401610a9d565b600580546001600160a01b0319166001600160a01b038c161790558851610bb19060019060208c01906139ea565b508751610bc59060029060208b01906139ea565b5060005b8751811015610ca3576040518060400160405280888381518110610bef57610bef6148c2565b60200260200101518152602001878381518110610c0e57610c0e6148c2565b6020026020010151815250600360008a8481518110610c2f57610c2f6148c2565b60200260200101516001600160a01b03166001600160a01b031681526020019081526020016000206000820151816000019080519060200190610c739291906139ea565b506020828101518051610c8c92600185019201906139ea565b509050508080610c9b906149bd565b915050610bc9565b5060005b8451811015610d925760046040518060600160405280878481518110610ccf57610ccf6148c2565b60200260200101518152602001868481518110610cee57610cee6148c2565b60200260200101518152602001858481518110610d0d57610d0d6148c2565b602090810291909101810151909152825460018101845560009384529281902082518051939460030290910192610d4792849201906139ea565b506020828101518051610d6092600185019201906139ea565b5060408201518051610d7c9160028401916020909101906139ea565b5050508080610d8a906149bd565b915050610ca7565b508015610dd9576000805461ff0019169055604051600181527f7f26b83ff96e1f2b6a682f133852f6798a09c465da95921460cefb38474024989060200160405180910390a15b50505050505050505050565b6005546040516351f6c8e360e11b81526001600160a01b03838116600483015260609283928392839260009283929091169063a3ed91c6906024015b600060405180830381865afa158015610e3e573d6000803e3d6000fd5b505050506040513d6000823e601f3d908101601f19168201604052610e6691908101906149d8565b91509150600080610e768361354d565b949a9399509750929550909350505050565b606080606080600086516001600160401b03811115610ea957610ea9613ebb565b604051908082528060200260200182016040528015610edc57816020015b6060815260200190600190039081610ec75790505b509050600087516001600160401b03811115610efa57610efa613ebb565b604051908082528060200260200182016040528015610f23578160200160208202803683370190505b509050600088516001600160401b03811115610f4157610f41613ebb565b604051908082528060200260200182016040528015610f6a578160200160208202803683370190505b509050600089516001600160401b03811115610f8857610f88613ebb565b604051908082528060200260200182016040528015610fb1578160200160208202803683370190505b50905060005b8a518110156110fa57306001600160a01b0316639c00a3d48c8381518110610fe157610fe16148c2565b60200260200101518c6040518363ffffffff1660e01b815260040161101b9291906001600160a01b03929092168252602082015260400190565b6000604051808303816000875af192505050801561105b57506040513d6000823e601f3d908101601f191682016040526110589190810190614a93565b60015b611088576001828281518110611073576110736148c2565b911515602092830291909101909101526110e8565b8288858151811061109b5761109b6148c2565b6020026020010181905250818785815181106110b9576110b96148c2565b602002602001018181525050808685815181106110d8576110d86148c2565b6020026020010181815250505050505b806110f2816149bd565b915050610fb7565b509299919850965090945092505050565b60008060608060008060009050600080886001600160a01b031663b0772d0b6040518163ffffffff1660e01b8152600401600060405180830381865afa158015611159573d6000803e3d6000fd5b505050506040513d6000823e601f3d908101601f191682016040526111819190810190614900565b9050600081516001600160401b0381111561119e5761119e613ebb565b6040519080825280602002602001820160405280156111c7578160200160208202803683370190505b509050600082516001600160401b038111156111e5576111e5613ebb565b60405190808252806020026020018201604052801561121857816020015b60608152602001906001900390816112035790505b50905060008b6001600160a01b0316637dc0d1d06040518163ffffffff1660e01b8152600401602060405180830381865afa15801561125b573d6000803e3d6000fd5b505050506040513d601f19601f8201168201806040525081019061127f9190614b78565b905060005b845181101561184c5760008582815181106112a1576112a16148c2565b6020026020010151905060008e6001600160a01b0316638e8f294b836040518263ffffffff1660e01b81526004016112e891906001600160a01b0391909116815260200190565b6040805180830381865afa158015611304573d6000803e3d6000fd5b505050506040513d601f19601f820116820180604052508101906113289190614b95565b5090508061133757505061183a565b6000826001600160a01b03166373acee986040518163ffffffff1660e01b81526004016020604051808303816000875af1158015611379573d6000803e3d6000fd5b505050506040513d601f19601f8201168201806040525081019061139d919061498e565b90506000836001600160a01b031663dc028ab16040518163ffffffff1660e01b8152600401602060405180830381865afa1580156113df573d6000803e3d6000fd5b505050506040513d601f19601f82011682018060405250810190611403919061498e565b846001600160a01b03166361feacff6040518163ffffffff1660e01b8152600401602060405180830381865afa158015611441573d6000803e3d6000fd5b505050506040513d601f19601f82011682018060405250810190611465919061498e565b856001600160a01b0316638f840ddd6040518163ffffffff1660e01b8152600401602060405180830381865afa1580156114a3573d6000803e3d6000fd5b505050506040513d601f19601f820116820180604052508101906114c7919061498e565b6114d19190614bc3565b6114db9190614bc3565b82856001600160a01b0316633b1d21a26040518163ffffffff1660e01b8152600401602060405180830381865afa15801561151a573d6000803e3d6000fd5b505050506040513d601f19601f8201168201806040525081019061153e919061498e565b6115489190614bc3565b6115529190614bdb565b60405163fc57d4df60e01b81526001600160a01b03868116600483015291925060009188169063fc57d4df90602401602060405180830381865afa15801561159e573d6000803e3d6000fd5b505050506040513d601f19601f820116820180604052508101906115c2919061498e565b9050670de0b6b3a76400006115d78285614bf2565b6115e19190614c11565b6115eb908d614bc3565b9b50670de0b6b3a76400006116008284614bf2565b61160a9190614c11565b611614908c614bc3565b9a50846001600160a01b031663ac784ddc6040518163ffffffff1660e01b8152600401602060405180830381865afa158015611654573d6000803e3d6000fd5b505050506040513d601f19601f8201168201806040525081019061167891906148e3565b1561175e576000898781518110611691576116916148c2565b60200260200101906001600160a01b031690816001600160a01b031681525050600280546116be90614719565b80601f01602080910402602001604051908101604052809291908181526020018280546116ea90614719565b80156117375780601f1061170c57610100808354040283529160200191611737565b820191906000526020600020905b81548152906001019060200180831161171a57829003601f168201915b505050505088878151811061174e5761174e6148c2565b6020026020010181905250611834565b846001600160a01b0316636f307dc36040518163ffffffff1660e01b8152600401602060405180830381865afa15801561179c573d6000803e3d6000fd5b505050506040513d601f19601f820116820180604052508101906117c09190614b78565b8987815181106117d2576117d26148c2565b60200260200101906001600160a01b031690816001600160a01b031681525050611814898781518110611807576118076148c2565b6020026020010151613754565b9050888781518110611828576118286148c2565b60200260200101819052505b50505050505b80611844816149bd565b915050611284565b506000600560009054906101000a90046001600160a01b03166001600160a01b03166343e20a1d8e6001600160a01b031663f851a4406040518163ffffffff1660e01b8152600401602060405180830381865afa1580156118b1573d6000803e3d6000fd5b505050506040513d601f19601f820116820180604052508101906118d59190614b78565b6040516001600160e01b031960e084901b1681526001600160a01b039091166004820152602401602060405180830381865afa158015611919573d6000803e3d6000fd5b505050506040513d601f19601f8201168201806040525081019061193d91906148e3565b959d969c50929a5090985092965092945050505050565b606080606080600080610e668761038f565b606080606080600080610e66876120b9565b6002805461030e90614719565b60606000806000856001600160a01b03166332abcdbe6040518163ffffffff1660e01b8152600401600060405180830381865afa1580156119ca573d6000803e3d6000fd5b505050506040513d6000823e601f3d908101601f191682016040526119f29190810190614c97565b90506000805b8251811015611c7b576000806000611ac28b8c6001600160a01b031663abfceffc898881518110611a2b57611a2b6148c2565b60200260200101516040518263ffffffff1660e01b8152600401611a5e91906001600160a01b0391909116815260200190565b600060405180830381865afa158015611a7b573d6000803e3d6000fd5b505050506040513d6000823e601f3d908101601f19168201604052611aa39190810190614900565b888781518110611ab557611ab56148c2565b6020026020010151612760565b905060005b8151811015611c1157670de0b6b3a7640000828281518110611aeb57611aeb6148c2565b60200260200101516101e00151838381518110611b0a57611b0a6148c2565b60200260200101516101600151611b219190614bf2565b611b2b9190614c11565b611b359085614bc3565b9350818181518110611b4957611b496148c2565b60200260200101516101a0015115611bff57670de0b6b3a7640000828281518110611b7657611b766148c2565b60200260200101516102200151670de0b6b3a7640000848481518110611b9e57611b9e6148c2565b60200260200101516101e00151858581518110611bbd57611bbd6148c2565b60200260200101516101400151611bd49190614bf2565b611bde9190614c11565b611be89190614bf2565b611bf29190614c11565b611bfc9084614bc3565b92505b80611c09816149bd565b915050611ac7565b506000808411611c30576ec097ce7bc90715b34b9f1000000000611c4d565b83611c4384670de0b6b3a7640000614bf2565b611c4d9190614c11565b90508a8111611c645785611c60816149bd565b9650505b505050508080611c73906149bd565b9150506119f8565b506000816001600160401b03811115611c9657611c96613ebb565b604051908082528060200260200182016040528015611cfb57816020015b611ce8604051806080016040528060006001600160a01b031681526020016000815260200160008152602001600081525090565b815260200190600190039081611cb45790505b5090506000805b8451811015611fe2576000806000611dbf8d8e6001600160a01b031663abfceffc8b8881518110611d3557611d356148c2565b60200260200101516040518263ffffffff1660e01b8152600401611d6891906001600160a01b0391909116815260200190565b600060405180830381865afa158015611d85573d6000803e3d6000fd5b505050506040513d6000823e601f3d908101601f19168201604052611dad9190810190614900565b8a8781518110611ab557611ab56148c2565b905060005b8151811015611f0e57670de0b6b3a7640000828281518110611de857611de86148c2565b60200260200101516101e00151838381518110611e0757611e076148c2565b60200260200101516101600151611e1e9190614bf2565b611e289190614c11565b611e329085614bc3565b9350818181518110611e4657611e466148c2565b60200260200101516101a0015115611efc57670de0b6b3a7640000828281518110611e7357611e736148c2565b60200260200101516102200151670de0b6b3a7640000848481518110611e9b57611e9b6148c2565b60200260200101516101e00151858581518110611eba57611eba6148c2565b60200260200101516101400151611ed19190614bf2565b611edb9190614c11565b611ee59190614bf2565b611eef9190614c11565b611ef99084614bc3565b92505b80611f06816149bd565b915050611dc4565b506000808411611f2d576ec097ce7bc90715b34b9f1000000000611f4a565b83611f4084670de0b6b3a7640000614bf2565b611f4a9190614c11565b90508c811115611f5d5750505050611fd0565b60405180608001604052808a8781518110611f7a57611f7a6148c2565b60200260200101516001600160a01b0316815260200185815260200184815260200182815250878781518110611fb257611fb26148c2565b60200260200101819052508580611fc8906149bd565b965050505050505b80611fda816149bd565b915050611d02565b5081896001600160a01b031663e87554466040518163ffffffff1660e01b8152600401602060405180830381865afa158015612022573d6000803e3d6000fd5b505050506040513d601f19601f82011682018060405250810190612046919061498e565b8a6001600160a01b0316634ada90af6040518163ffffffff1660e01b8152600401602060405180830381865afa158015612084573d6000803e3d6000fd5b505050506040513d601f19601f820116820180604052508101906120a8919061498e565b965096509650505050509250925092565b6060806000600560009054906101000a90046001600160a01b03166001600160a01b031663d88ff1f46040518163ffffffff1660e01b8152600401600060405180830381865afa158015612111573d6000803e3d6000fd5b505050506040513d6000823e601f3d908101601f19168201604052612139919081019061488e565b90506000805b825181101561220c57600083828151811061215c5761215c6148c2565b6020026020010151604001519050806001600160a01b0316639b19251a886040518263ffffffff1660e01b81526004016121a591906001600160a01b0391909116815260200190565b602060405180830381865afa1580156121c2573d6000803e3d6000fd5b505050506040513d601f19601f820116820180604052508101906121e691906148e3565b156121f957826121f5816149bd565b9350505b5080612204816149bd565b91505061213f565b506000816001600160401b0381111561222757612227613ebb565b604051908082528060200260200182016040528015612250578160200160208202803683370190505b5090506000826001600160401b0381111561226d5761226d613ebb565b6040519080825280602002602001820160405280156122a657816020015b6122936139a9565b81526020019060019003908161228b5790505b5090506000805b85518110156108fa5760008682815181106122ca576122ca6148c2565b6020026020010151604001519050806001600160a01b0316639b19251a8b6040518263ffffffff1660e01b815260040161231391906001600160a01b0391909116815260200190565b602060405180830381865afa158015612330573d6000803e3d6000fd5b505050506040513d601f19601f8201168201806040525081019061235491906148e3565b156123c3578185848151811061236c5761236c6148c2565b60200260200101818152505086828151811061238a5761238a6148c2565b60200260200101518484815181106123a4576123a46148c2565b602002602001018190525082806123ba906149bd565b935050506108fa565b50806123ce816149bd565b9150506122ad565b6000806000846001600160a01b0316635fe3b5676040518163ffffffff1660e01b8152600401602060405180830381865afa158015612419573d6000803e3d6000fd5b505050506040513d601f19601f8201168201806040525081019061243d9190614b78565b6001600160a01b0316637dc0d1d06040518163ffffffff1660e01b8152600401602060405180830381865afa15801561247a573d6000803e3d6000fd5b505050506040513d601f19601f8201168201806040525081019061249e9190614b78565b6040516319a6897d60e31b81529091506001600160a01b0382169063cd344be8906124cf9088908890600401614d39565b60408051808303816000875af11580156124ed573d6000803e3d6000fd5b505050506040513d601f19601f820116820180604052508101906125119190614de6565b92509250505b9250929050565b606080606080600080600560009054906101000a90046001600160a01b03166001600160a01b0316634ae26ea16040518163ffffffff1660e01b8152600401600060405180830381865afa15801561257a573d6000803e3d6000fd5b505050506040513d6000823e601f3d908101601f191682016040526125a291908101906149d8565b915091506000806125b28361354d565b949993985096509294509092505050565b6005546040516310c51ddf60e11b8152821515600482015260609182918291829160009182916001600160a01b039091169063218a3bbe90602401610e21565b6060806060806060806000600560009054906101000a90046001600160a01b03166001600160a01b0316634ae26ea16040518163ffffffff1660e01b8152600401600060405180830381865afa158015612661573d6000803e3d6000fd5b505050506040513d6000823e601f3d908101601f1916820160405261268991908101906149d8565b91505080516001600160401b038111156126a5576126a5613ebb565b6040519080825280602002602001820160405280156126ce578160200160208202803683370190505b50915060005b8151811015612737578181815181106126ef576126ef6148c2565b60200260200101516040015183828151811061270d5761270d6148c2565b6001600160a01b03909216602092830291909101909101528061272f816149bd565b9150506126d4565b5050600080600080612749858c610e88565b979e929d50909b5099509497509395505050505050565b60606000805b845181101561282f576000866001600160a01b0316638e8f294b878481518110612792576127926148c2565b60200260200101516040518263ffffffff1660e01b81526004016127c591906001600160a01b0391909116815260200190565b6040805180830381865afa1580156127e1573d6000803e3d6000fd5b505050506040513d601f19601f820116820180604052508101906128059190614b95565b509050801561281c5782612818816149bd565b9350505b5080612827816149bd565b915050612766565b506000816001600160401b0381111561284a5761284a613ebb565b60405190808252806020026020018201604052801561288357816020015b612870613a6e565b8152602001906001900390816128685790505b509050600080876001600160a01b0316637dc0d1d06040518163ffffffff1660e01b8152600401602060405180830381865afa1580156128c7573d6000803e3d6000fd5b505050506040513d601f19601f820116820180604052508101906128eb9190614b78565b905060005b87518110156134b3576000808a6001600160a01b0316638e8f294b8b858151811061291d5761291d6148c2565b60200260200101516040518263ffffffff1660e01b815260040161295091906001600160a01b0391909116815260200190565b6040805180830381865afa15801561296c573d6000803e3d6000fd5b505050506040513d601f19601f820116820180604052508101906129909190614b95565b91509150816129a05750506134a1565b6129a8613a6e565b60008b85815181106129bc576129bc6148c2565b6020908102919091018101516001600160a01b03811680855260408051632b1e137760e21b81529051929450909263ac784ddc926004808401938290030181865afa158015612a0f573d6000803e3d6000fd5b505050506040513d601f19601f82011682018060405250810190612a3391906148e3565b15612b775760018054612a4590614719565b80601f0160208091040260200160405190810160405280929190818152602001828054612a7190614719565b8015612abe5780601f10612a9357610100808354040283529160200191612abe565b820191906000526020600020905b815481529060010190602001808311612aa157829003601f168201915b5050505050826040018190525060028054612ad890614719565b80601f0160208091040260200160405190810160405280929190818152602001828054612b0490614719565b8015612b515780601f10612b2657610100808354040283529160200191612b51565b820191906000526020600020905b815481529060010190602001808311612b3457829003601f168201915b50505050506060830152601260808301526001600160a01b038b163160a0830152612cdd565b806001600160a01b0316636f307dc36040518163ffffffff1660e01b8152600401602060405180830381865afa158015612bb5573d6000803e3d6000fd5b505050506040513d601f19601f82011682018060405250810190612bd99190614b78565b6001600160a01b031660208301819052612bf281613754565b84604001856060018290528290525050806001600160a01b031663313ce5676040518163ffffffff1660e01b8152600401602060405180830381865afa158015612c40573d6000803e3d6000fd5b505050506040513d601f19601f82011682018060405250810190612c649190614e0a565b60ff1660808401526040516370a0823160e01b81526001600160a01b038d811660048301528216906370a0823190602401602060405180830381865afa158015612cb2573d6000803e3d6000fd5b505050506040513d601f19601f82011682018060405250810190612cd6919061498e565b60a0840152505b806001600160a01b031663ae9d70b06040518163ffffffff1660e01b8152600401602060405180830381865afa158015612d1b573d6000803e3d6000fd5b505050506040513d601f19601f82011682018060405250810190612d3f919061498e565b8260c0018181525050806001600160a01b031663f8f9da286040518163ffffffff1660e01b8152600401602060405180830381865afa158015612d86573d6000803e3d6000fd5b505050506040513d601f19601f82011682018060405250810190612daa919061498e565b8260e0018181525050806001600160a01b0316633b1d21a26040518163ffffffff1660e01b8152600401602060405180830381865afa158015612df1573d6000803e3d6000fd5b505050506040513d601f19601f82011682018060405250810190612e15919061498e565b82610180018181525050806001600160a01b03166373acee986040518163ffffffff1660e01b81526004016020604051808303816000875af1158015612e5f573d6000803e3d6000fd5b505050506040513d601f19601f82011682018060405250810190612e83919061498e565b82610120018181525050806001600160a01b031663dc028ab16040518163ffffffff1660e01b8152600401602060405180830381865afa158015612ecb573d6000803e3d6000fd5b505050506040513d601f19601f82011682018060405250810190612eef919061498e565b816001600160a01b03166361feacff6040518163ffffffff1660e01b8152600401602060405180830381865afa158015612f2d573d6000803e3d6000fd5b505050506040513d601f19601f82011682018060405250810190612f51919061498e565b826001600160a01b0316638f840ddd6040518163ffffffff1660e01b8152600401602060405180830381865afa158015612f8f573d6000803e3d6000fd5b505050506040513d601f19601f82011682018060405250810190612fb3919061498e565b612fbd9190614bc3565b612fc79190614bc3565b826101200151836101800151612fdd9190614bc3565b612fe79190614bdb565b610100830152604051633af9e66960e01b81526001600160a01b038c81166004830152821690633af9e669906024016020604051808303816000875af1158015613035573d6000803e3d6000fd5b505050506040513d601f19601f82011682018060405250810190613059919061498e565b6101408301526040516395dd919360e01b81526001600160a01b038c811660048301528216906395dd919390602401602060405180830381865afa1580156130a5573d6000803e3d6000fd5b505050506040513d601f19601f820116820180604052508101906130c9919061498e565b61016083015260405163929fe9a160e01b81526001600160a01b038c8116600483015282811660248301528e169063929fe9a190604401602060405180830381865afa15801561311d573d6000803e3d6000fd5b505050506040513d601f19601f8201168201806040525081019061314191906148e3565b15156101a08301526040805163182df0f560e01b815290516001600160a01b0383169163182df0f59160048083019260209291908290030181865afa15801561318e573d6000803e3d6000fd5b505050506040513d601f19601f820116820180604052508101906131b2919061498e565b6101c083015260405163fc57d4df60e01b81526001600160a01b03828116600483015287169063fc57d4df90602401602060405180830381865afa1580156131fe573d6000803e3d6000fd5b505050506040513d601f19601f82011682018060405250810190613222919061498e565b6101e08301526001600160a01b038681166102008401819052602084015160405163addd509960e01b8152921660048301529063addd509990602401602060405180830381865afa925050508015613297575060408051601f3d908101601f1916820190925261329491810190614b78565b60015b6132a0576132b0565b6001600160a01b03166102008301525b8282610220018181525050806001600160a01b031663173b99046040518163ffffffff1660e01b8152600401602060405180830381865afa1580156132f9573d6000803e3d6000fd5b505050506040513d601f19601f8201168201806040525081019061331d919061498e565b82610240018181525050806001600160a01b0316638d02d9a16040518163ffffffff1660e01b8152600401602060405180830381865afa158015613365573d6000803e3d6000fd5b505050506040513d601f19601f82011682018060405250810190613389919061498e565b82610260018181525050806001600160a01b031663dbfe7c196040518163ffffffff1660e01b8152600401602060405180830381865afa1580156133d1573d6000803e3d6000fd5b505050506040513d601f19601f820116820180604052508101906133f5919061498e565b610280830152604051636d154ea560e01b81526001600160a01b0382811660048301528e1690636d154ea590602401602060405180830381865afa158015613441573d6000803e3d6000fd5b505050506040513d601f19601f8201168201806040525081019061346591906148e3565b15156102a083015287518290899089908110613483576134836148c2565b60200260200101819052508680613499906149bd565b975050505050505b806134ab816149bd565b9150506128f0565b5091979650505050505050565b60008054610100900460ff1615613507578160ff1660011480156134e35750303b155b6134ff5760405162461bcd60e51b8152600401610a9d90614e2d565b506000919050565b60005460ff80841691161061352e5760405162461bcd60e51b8152600401610a9d90614e2d565b506000805460ff191660ff92909216919091179055600190565b919050565b606080600083516001600160401b0381111561356b5761356b613ebb565b6040519080825280602002602001820160405280156135d057816020015b6135bd6040518060a00160405280600081526020016000815260200160608152602001606081526020016000151581525090565b8152602001906001900390816135895790505b509050600084516001600160401b038111156135ee576135ee613ebb565b604051908082528060200260200182016040528015613617578160200160208202803683370190505b50905060005b855181101561374957306001600160a01b03166359d2fea6878381518110613647576136476148c2565b6020026020010151604001516040518263ffffffff1660e01b815260040161367e91906001600160a01b0391909116815260200190565b6000604051808303816000875af19250505080156136be57506040513d6000823e601f3d908101601f191682016040526136bb9190810190614e7b565b60015b6136eb5760018282815181106136d6576136d66148c2565b91151560209283029190910190910152613737565b6040518060a00160405280868152602001858152602001848152602001838152602001821515815250888781518110613726576137266148c2565b602002602001018190525050505050505b80613741816149bd565b91505061361d565b509094909350915050565b6001600160a01b03811660009081526003602052604090206001018054606091829161377f90614719565b1590506138c5576001600160a01b03831660009081526003602052604090208054600182019082906137b090614719565b80601f01602080910402602001604051908101604052809291908181526020018280546137dc90614719565b80156138295780601f106137fe57610100808354040283529160200191613829565b820191906000526020600020905b81548152906001019060200180831161380c57829003601f168201915b5050505050915080805461383c90614719565b80601f016020809104026020016040519081016040528092919081815260200182805461386890614719565b80156138b55780601f1061388a576101008083540402835291602001916138b5565b820191906000526020600020905b81548152906001019060200180831161389857829003601f168201915b5050505050905091509150915091565b60008390506000816001600160a01b03166306fdde036040518163ffffffff1660e01b8152600401600060405180830381865afa15801561390a573d6000803e3d6000fd5b505050506040513d6000823e601f3d908101601f191682016040526139329190810190614f76565b90506000826001600160a01b03166395d89b416040518163ffffffff1660e01b8152600401600060405180830381865afa158015613974573d6000803e3d6000fd5b505050506040513d6000823e601f3d908101601f1916820160405261399c9190810190614f76565b9196919550909350505050565b6040518060a001604052806060815260200160006001600160a01b0316815260200160006001600160a01b0316815260200160008152602001600081525090565b8280546139f690614719565b90600052602060002090601f016020900481019282613a185760008555613a5e565b82601f10613a3157805160ff1916838001178555613a5e565b82800160010185558215613a5e579182015b82811115613a5e578251825591602001919060010190613a43565b50613a6a929150613b34565b5090565b604051806102c0016040528060006001600160a01b0316815260200160006001600160a01b031681526020016060815260200160608152602001600081526020016000815260200160008152602001600081526020016000815260200160008152602001600081526020016000815260200160008152602001600015158152602001600081526020016000815260200160006001600160a01b03168152602001600081526020016000815260200160008152602001600081526020016000151581525090565b5b80821115613a6a5760008155600101613b35565b60005b83811015613b64578181015183820152602001613b4c565b83811115613b73576000848401525b50505050565b60008151808452613b91816020860160208601613b49565b601f01601f19169290920160200192915050565b602081526000613bb86020830184613b79565b9392505050565b6001600160a01b0381168114613bd457600080fd5b50565b600060208284031215613be957600080fd5b8135613bb881613bbf565b600081518084526020808501945080840160005b83811015613c2457815187529582019590820190600101613c08565b509495945050505050565b600082825180855260208086019550808260051b84010181860160005b84811015613cbc57601f19868403018952815160a08151818652613c7282870182613b79565b838801516001600160a01b03908116888a01526040808601519091169088015260608085015190880152608093840151939096019290925250509783019790830190600101613c4c565b5090979650505050505050565b604081526000613cdc6040830185613bf4565b8281036020840152613cee8185613c2f565b95945050505050565b60008060408385031215613d0a57600080fd5b8235613d1581613bbf565b91506020830135613d2581613bbf565b809150509250929050565b60006020808301818452808551808352604092508286019150828160051b87010184880160005b83811015613ea257888303603f19018552815180516001600160a01b031684526102c0818901516001600160a01b038116868b015250878201518189870152613da282870182613b79565b91505060608083015186830382880152613dbc8382613b79565b6080858101519089015260a0808601519089015260c0808601519089015260e08086015190890152610100808601519089015261012080860151908901526101408086015190890152610160808601519089015261018080860151908901526101a0808601511515908901526101c080860151908901526101e08086015190890152610200808601516001600160a01b03169089015261022080860151908901526102408086015190890152610260808601519089015261028080860151908901526102a094850151151594909701939093525050509386019390860190600101613d57565b509098975050505050505050565b803561354881613bbf565b634e487b7160e01b600052604160045260246000fd5b60405160a081016001600160401b0381118282101715613ef357613ef3613ebb565b60405290565b604051608081016001600160401b0381118282101715613ef357613ef3613ebb565b604051601f8201601f191681016001600160401b0381118282101715613f4357613f43613ebb565b604052919050565b60006001600160401b03821115613f6457613f64613ebb565b50601f01601f191660200190565b600082601f830112613f8357600080fd5b8135613f96613f9182613f4b565b613f1b565b818152846020838601011115613fab57600080fd5b816020850160208301376000918101602001919091529392505050565b60006001600160401b03821115613fe157613fe1613ebb565b5060051b60200190565b600082601f830112613ffc57600080fd5b8135602061400c613f9183613fc8565b82815260059290921b8401810191818101908684111561402b57600080fd5b8286015b8481101561404f57803561404281613bbf565b835291830191830161402f565b509695505050505050565b600082601f83011261406b57600080fd5b8135602061407b613f9183613fc8565b82815260059290921b8401810191818101908684111561409a57600080fd5b8286015b8481101561404f5780356001600160401b038111156140bd5760008081fd5b6140cb8986838b0101613f72565b84525091830191830161409e565b60008060008060008060008060006101208a8c0312156140f857600080fd5b6141018a613eb0565b985060208a01356001600160401b038082111561411d57600080fd5b6141298d838e01613f72565b995060408c013591508082111561413f57600080fd5b61414b8d838e01613f72565b985060608c013591508082111561416157600080fd5b61416d8d838e01613feb565b975060808c013591508082111561418357600080fd5b61418f8d838e0161405a565b965060a08c01359150808211156141a557600080fd5b6141b18d838e0161405a565b955060c08c01359150808211156141c757600080fd5b6141d38d838e0161405a565b945060e08c01359150808211156141e957600080fd5b6141f58d838e0161405a565b93506101008c013591508082111561420c57600080fd5b506142198c828d0161405a565b9150509295985092959850929598565b600081518084526020808501945080840160005b83811015613c245781516001600160a01b03168752958201959082019060010161423d565b600081518084526020808501808196508360051b8101915082860160005b858110156134b3578284038952614298848351613b79565b98850198935090840190600101614280565b600081518084526020808501945080840160005b83811015613c245781511515875295820195908201906001016142be565b600060808083526142ef81840188613bf4565b6020848203818601526143028289613c2f565b91506040858303818701528288518085528385019150838160051b860101848b0160005b8381101561439757601f19888403018552815160a081518552888201518986015287820151818987015261435c82870182614229565b915050606080830151868303828801526143768382614262565b938d01511515968d0196909652505094870194925090860190600101614326565b505088810360608a01526143ab818b6142aa565b9d9c50505050505050505050505050565b600080604083850312156143cf57600080fd5b82356001600160401b038111156143e557600080fd5b8301601f810185136143f657600080fd5b80356020614406613f9183613fc8565b82815260059290921b8301810191818101908884111561442557600080fd5b938201935b8385101561444c57843561443d81613bbf565b8252938201939082019061442a565b98969091013596505050505050565b600081518084526020808501945080840160005b83811015613c2457815180516001600160a01b03168852838101518489015260408082015190890152606090810151908801526080909601959082019060010161446f565b600081518084526020808501808196508360051b8101915082860160005b858110156134b35782840389526144ea84835161445b565b988501989350908401906001016144d2565b60808152600061450f60808301876144b4565b82810360208401526145218187613bf4565b905082810360408401526145358186613bf4565b9050828103606084015261454981856142aa565b979650505050505050565b85815284602082015260a06040820152600061457360a0830186614229565b82810360608401526145858186614262565b91505082151560808301529695505050505050565b600080604083850312156145ad57600080fd5b82356145b881613bbf565b946020939093013593505050565b6060815260006145d9606083018661445b565b60208301949094525060400152919050565b600080604083850312156145fe57600080fd5b823561460981613bbf565b915060208301356001600160401b0381111561462457600080fd5b830160808186031215613d2557600080fd5b8015158114613bd457600080fd5b60006020828403121561465657600080fd5b8135613bb881614636565b60006020828403121561467357600080fd5b5035919050565b60a0808252865190820181905260009060209060c0840190828a01845b828110156146bc5781516001600160a01b031684529284019290840190600101614697565b505050838103828501526146d081896144b4565b91505082810360408401526146e58187613bf4565b905082810360608401526146f98186613bf4565b9050828103608084015261470d81856142aa565b98975050505050505050565b600181811c9082168061472d57607f821691505b6020821081141561474e57634e487b7160e01b600052602260045260246000fd5b50919050565b600082601f83011261476557600080fd5b8151614773613f9182613f4b565b81815284602083860101111561478857600080fd5b610988826020830160208701613b49565b600082601f8301126147aa57600080fd5b815160206147ba613f9183613fc8565b82815260059290921b840181019181810190868411156147d957600080fd5b8286015b8481101561404f5780516001600160401b03808211156147fd5760008081fd5b9088019060a0828b03601f19018113156148175760008081fd5b61481f613ed1565b87840151838111156148315760008081fd5b61483f8d8a83880101614754565b825250604092508284015161485381613bbf565b8189015260608481015161486681613bbf565b93820193909352608084810151938201939093529201519082015283529183019183016147dd565b6000602082840312156148a057600080fd5b81516001600160401b038111156148b657600080fd5b61098884828501614799565b634e487b7160e01b600052603260045260246000fd5b805161354881614636565b6000602082840312156148f557600080fd5b8151613bb881614636565b6000602080838503121561491357600080fd5b82516001600160401b0381111561492957600080fd5b8301601f8101851361493a57600080fd5b8051614948613f9182613fc8565b81815260059190911b8201830190838101908783111561496757600080fd5b928401925b8284101561454957835161497f81613bbf565b8252928401929084019061496c565b6000602082840312156149a057600080fd5b5051919050565b634e487b7160e01b600052601160045260246000fd5b60006000198214156149d1576149d16149a7565b5060010190565b600080604083850312156149eb57600080fd5b82516001600160401b0380821115614a0257600080fd5b818501915085601f830112614a1657600080fd5b81516020614a26613f9183613fc8565b82815260059290921b84018101918181019089841115614a4557600080fd5b948201945b83861015614a6357855182529482019490820190614a4a565b91880151919650909350505080821115614a7c57600080fd5b50614a8985828601614799565b9150509250929050565b60008060006060808587031215614aa957600080fd5b84516001600160401b03811115614abf57600080fd5b8501601f81018713614ad057600080fd5b80516020614ae0613f9183613fc8565b82815260079290921b8301810191818101908a841115614aff57600080fd5b938201935b83851015614b5d576080858c031215614b1d5760008081fd5b614b25613ef9565b8551614b3081613bbf565b81528584015184820152604080870151908201528686015187820152825260809094019390820190614b04565b91890151604090990151919a98995090979650505050505050565b600060208284031215614b8a57600080fd5b8151613bb881613bbf565b60008060408385031215614ba857600080fd5b8251614bb381614636565b6020939093015192949293505050565b60008219821115614bd657614bd66149a7565b500190565b600082821015614bed57614bed6149a7565b500390565b6000816000190483118215151615614c0c57614c0c6149a7565b500290565b600082614c2e57634e487b7160e01b600052601260045260246000fd5b500490565b600082601f830112614c4457600080fd5b81516020614c54613f9183613fc8565b82815260059290921b84018101918181019086841115614c7357600080fd5b8286015b8481101561404f578051614c8a81613bbf565b8352918301918301614c77565b600060208284031215614ca957600080fd5b81516001600160401b03811115614cbf57600080fd5b61098884828501614c33565b6000808335601e19843603018112614ce257600080fd5b83016020810192503590506001600160401b03811115614d0157600080fd5b80360383131561251757600080fd5b81835281816020850137506000828201602090810191909152601f909101601f19169091010190565b6001600160a01b0383168152604060208201526000614d588380614ccb565b60806040850152614d6d60c085018284614d10565b915050614d7d6020850185614ccb565b603f1980868503016060870152614d95848385614d10565b9350614da46040880188614ccb565b9350915080868503016080870152614dbd848484614d10565b9350614dcc6060880188614ccb565b93509150808685030160a087015250614549838383614d10565b60008060408385031215614df957600080fd5b505080516020909101519092909150565b600060208284031215614e1c57600080fd5b815160ff81168114613bb857600080fd5b6020808252602e908201527f496e697469616c697a61626c653a20636f6e747261637420697320616c72656160408201526d191e481a5b9a5d1a585b1a5e995960921b606082015260800190565b600080600080600060a08688031215614e9357600080fd5b85519450602080870151945060408701516001600160401b0380821115614eb957600080fd5b614ec58a838b01614c33565b95506060890151915080821115614edb57600080fd5b818901915089601f830112614eef57600080fd5b8151614efd613f9182613fc8565b81815260059190911b8301840190848101908c831115614f1c57600080fd5b8585015b83811015614f5457805185811115614f385760008081fd5b614f468f89838a0101614754565b845250918601918601614f20565b50809750505050505050614f6a608087016148d8565b90509295509295909350565b600060208284031215614f8857600080fd5b81516001600160401b03811115614f9e57600080fd5b6109888482850161475456fea164736f6c634300080a000a608060405234801561001057600080fd5b50615fe280620000216000396000f3fe6080604052600436106103a25760003560e01c8063852a12e3116101e7578063b2a02ff11161010d578063dd62ed3e116100a0578063f5e3c4621161006f578063f5e3c46214610a90578063f8f9da2814610ab0578063fca7820b14610ac5578063fe9c44ae14610ae557600080fd5b8063dd62ed3e146109ea578063ef01df4f14610a30578063f2b3abbd14610a50578063f3fdb15a14610a7057600080fd5b8063c5ebeaec116100dc578063c5ebeaec1461097e578063db006a751461099e578063dbfe7c19146109be578063dc028ab1146109d457600080fd5b8063b2a02ff1146108ed578063bd6d894d1461090d578063be99f11914610922578063c37f68e21461093e57600080fd5b8063a0712d6811610185578063aa5af0fd11610154578063aa5af0fd14610892578063aaf5eb68146108a8578063ac784ddc146108c4578063ae9d70b0146108d857600080fd5b8063a0712d681461081d578063a6afed951461083d578063a7b820df14610852578063a9059cbb1461087257600080fd5b806391dd36c6116101c157806391dd36c6146107a857806395d89b41146107c857806395dd9193146107dd578063a03dce8d146107fd57600080fd5b8063852a12e31461075c5780638d02d9a11461077c5780638f840ddd1461079257600080fd5b80633af9e669116102cc578063601a0bf11161026a5780636f307dc3116102395780636f307dc3146106d157806370a08231146106f157806373acee98146107275780637f1e06be1461073c57600080fd5b8063601a0bf11461066a57806361feacff1461068a5780636752e702146106a05780636c540baf146106bb57600080fd5b806350d85b73116102a657806350d85b73146105ea57806356e677281461060a5780635c60da1b1461062a5780635fe3b5671461064a57600080fd5b80633af9e6691461059f5780633b1d21a2146105bf57806347bd3718146105d457600080fd5b806318160ddd1161034457806323b872dd1161031357806323b872dd146105135780632608f81814610533578063313ce5671461055357806334154d4c1461057f57600080fd5b806318160ddd146104c0578063182df0f5146104d65780631db78944146104eb578063219ef65c146104f357600080fd5b80630e752702116103805780630e7527021461042457806315761d5114610452578063173b99041461048a57806317bfdfbc146104a057600080fd5b806306db3ecd146103a757806306fdde03146103c9578063095ea7b3146103f4575b600080fd5b3480156103b357600080fd5b506103c76103c236600461589b565b610af9565b005b3480156103d557600080fd5b506103de610c07565b6040516103eb91906159b5565b60405180910390f35b34801561040057600080fd5b5061041461040f3660046159c8565b610c95565b60405190151581526020016103eb565b34801561043057600080fd5b5061044461043f3660046159f4565b610d05565b6040519081526020016103eb565b34801561045e57600080fd5b50600154610472906001600160a01b031681565b6040516001600160a01b0390911681526020016103eb565b34801561049657600080fd5b50610444600b5481565b3480156104ac57600080fd5b506104446104bb366004615a0d565b610d19565b3480156104cc57600080fd5b5061044460125481565b3480156104e257600080fd5b50610444610d70565b6103c7610e01565b3480156104ff57600080fd5b506103c761050e366004615a44565b610f32565b34801561051f57600080fd5b5061041461052e366004615b0c565b611261565b34801561053f57600080fd5b5061044461054e3660046159c8565b611287565b34801561055f57600080fd5b5060055461056d9060ff1681565b60405160ff90911681526020016103eb565b34801561058b57600080fd5b506103c761059a366004615b8f565b61129d565b3480156105ab57600080fd5b506104446105ba366004615a0d565b611304565b3480156105cb57600080fd5b506104446113b4565b3480156105e057600080fd5b50610444600e5481565b3480156105f657600080fd5b506103c7610605366004615c09565b6113c3565b34801561061657600080fd5b506103c7610625366004615c62565b611447565b34801561063657600080fd5b50600054610472906001600160a01b031681565b34801561065657600080fd5b50600654610472906001600160a01b031681565b34801561067657600080fd5b506104446106853660046159f4565b611727565b34801561069657600080fd5b5061044460105481565b3480156106ac57600080fd5b50610444666379da05b6000081565b3480156106c757600080fd5b50610444600c5481565b3480156106dd57600080fd5b50601654610472906001600160a01b031681565b3480156106fd57600080fd5b5061044461070c366004615a0d565b6001600160a01b031660009081526013602052604090205490565b34801561073357600080fd5b5061044461177e565b34801561074857600080fd5b506103c7610757366004615a0d565b6117c3565b34801561076857600080fd5b506104446107773660046159f4565b611888565b34801561078857600080fd5b5061044460095481565b34801561079e57600080fd5b50610444600f5481565b3480156107b457600080fd5b506104446107c33660046159f4565b611893565b3480156107d457600080fd5b506103de6118d6565b3480156107e957600080fd5b506104446107f8366004615a0d565b6118e3565b34801561080957600080fd5b506104446108183660046159f4565b611984565b34801561082957600080fd5b506104446108383660046159f4565b6119c7565b34801561084957600080fd5b506104446119d3565b34801561085e57600080fd5b5061044461086d3660046159f4565b611b8a565b34801561087e57600080fd5b5061041461088d3660046159c8565b611bcd565b34801561089e57600080fd5b50610444600d5481565b3480156108b457600080fd5b50610444670de0b6b3a764000081565b3480156108d057600080fd5b506000610414565b3480156108e457600080fd5b50610444611bfa565b3480156108f957600080fd5b50610444610908366004615b0c565b611cbd565b34801561091957600080fd5b50610444611ce1565b34801561092e57600080fd5b5061044467016345785d8a000081565b34801561094a57600080fd5b5061095e610959366004615a0d565b611d27565b6040805194855260208501939093529183015260608201526080016103eb565b34801561098a57600080fd5b506104446109993660046159f4565b611dc8565b3480156109aa57600080fd5b506104446109b93660046159f4565b611dd3565b3480156109ca57600080fd5b50610444600a5481565b3480156109e057600080fd5b5061044460115481565b3480156109f657600080fd5b50610444610a05366004615ca4565b6001600160a01b03918216600090815260146020908152604080832093909416825291909152205490565b348015610a3c57600080fd5b50601754610472906001600160a01b031681565b348015610a5c57600080fd5b50610444610a6b366004615a0d565b611dde565b348015610a7c57600080fd5b50600754610472906001600160a01b031681565b348015610a9c57600080fd5b50610444610aab366004615cdd565b611e16565b348015610abc57600080fd5b50610444611e2e565b348015610ad157600080fd5b50610444610ae03660046159f4565b611e92565b348015610af157600080fd5b506001610414565b60006702c68af0bb14000090506000896001600160a01b031663313ce5676040518163ffffffff1660e01b8152600401602060405180830381865afa158015610b46573d6000803e3d6000fd5b505050506040513d601f19601f82011682018060405250810190610b6a9190615d1f565b9050610b7d898989858a8a878b8b610f32565b601680546001600160a01b0319166001600160a01b038c16908117909155604080516318160ddd60e01b815290516318160ddd916004808201926020929091908290030181865afa158015610bd6573d6000803e3d6000fd5b505050506040513d601f19601f82011682018060405250810190610bfa9190615d3c565b5050505050505050505050565b60038054610c1490615d55565b80601f0160208091040260200160405190810160405280929190818152602001828054610c4090615d55565b8015610c8d5780601f10610c6257610100808354040283529160200191610c8d565b820191906000526020600020905b815481529060010190602001808311610c7057829003601f168201915b505050505081565b3360008181526014602090815260408083206001600160a01b03871680855292528083208590555191929182907f8c5be1e5ebec7d5bd14f71427d1e84f3dd0314c0f7b2291e5b200ac8c7c3b92590610cf19087815260200190565b60405180910390a360019150505b92915050565b600080610d1183611ed5565b509392505050565b600080610d2581611f3d565b6000610d2f6119d3565b14610d555760405162461bcd60e51b8152600401610d4c90615da0565b60405180910390fd5b610d5e836118e3565b91505b610d6a81612001565b50919050565b6000806000610d7d61206c565b90925090506000826003811115610d9657610d96615d8a565b14610cff5760405162461bcd60e51b815260206004820152603560248201527f65786368616e67655261746553746f7265643a2065786368616e67655261746560448201527414dd1bdc9959125b9d195c9b985b0819985a5b1959605a1b6064820152608401610d4c565b333014801590610e835750600660009054906101000a90046001600160a01b03166001600160a01b031663dd5cd22c6040518163ffffffff1660e01b8152600401602060405180830381865afa158015610e5f573d6000803e3d6000fd5b505050506040513d601f19601f82011682018060405250810190610e839190615dd0565b15610f3057600154600080546040516345cc970560e01b81526001600160a01b039182166004820152919283928392909116906345cc970590602401600060405180830381865afa158015610edc573d6000803e3d6000fd5b505050506040513d6000823e601f3d908101601f19168201604052610f049190810190615ded565b60005492955090935091506001600160a01b03808516911614610f2c57610f2c838383612139565b5050505b565b336001600160a01b03891614610f9c5760405162461bcd60e51b815260206004820152602960248201527f6f6e6c7920467573652061646d696e206d617920696e697469616c697a6520746044820152681a19481b585c9ad95d60ba1b6064820152608401610d4c565b600c54158015610fac5750600d54155b6110045760405162461bcd60e51b815260206004820152602360248201527f6d61726b6574206d6179206f6e6c7920626520696e697469616c697a6564206f6044820152626e636560e81b6064820152608401610d4c565b600180546001600160a01b0319166001600160a01b038a1617905560088690558561108a5760405162461bcd60e51b815260206004820152603060248201527f696e697469616c2065786368616e67652072617465206d75737420626520677260448201526f32b0ba32b9103a3430b7103d32b9379760811b6064820152608401610d4c565b60006110958a6122be565b905080156110e55760405162461bcd60e51b815260206004820152601a60248201527f73657474696e6720636f6d7074726f6c6c6572206661696c65640000000000006044820152606401610d4c565b43600c55670de0b6b3a7640000600d556110fe886123e9565b905080156111595760405162461bcd60e51b815260206004820152602260248201527f73657474696e6720696e7465726573742072617465206d6f64656c206661696c604482015261195960f21b6064820152608401610d4c565b855161116c9060039060208901906156a8565b5084516111809060049060208801906156a8565b506005805460ff191660ff861617905561119983612659565b905080156111e95760405162461bcd60e51b815260206004820152601d60248201527f73657474696e67207265736572766520666163746f72206661696c65640000006044820152606401610d4c565b6111f2826126f8565b905080156112425760405162461bcd60e51b815260206004820152601860248201527f73657474696e672061646d696e20666565206661696c656400000000000000006044820152606401610d4c565b50506002805460ff60b01b1916600160b01b1790555050505050505050565b60008061126d81611f3d565b600061127b33878787612812565b149150610d1181612001565b6000806112948484612ab0565b50949350505050565b6112a5612b1a565b6112e45760405162461bcd60e51b815260206004820152601060248201526f31b0b63632b9103737ba1030b236b4b760811b6044820152606401610d4c565b6112f060038585615728565b506112fd60048383615728565b5050505050565b600080604051806020016040528061131a611ce1565b90526001600160a01b038416600090815260136020526040812054919250908190611346908490612c85565b9092509050600082600381111561135f5761135f615d8a565b146113ac5760405162461bcd60e51b815260206004820152601f60248201527f62616c616e636520636f756c64206e6f742062652063616c63756c61746564006044820152606401610d4c565b949350505050565b60006113be612cd8565b905090565b6113cb612b1a565b6114005760405162461bcd60e51b815260206004820152600660248201526510b0b236b4b760d11b6044820152606401610d4c565b611441848484848080601f01602080910402602001604051908101604052809392919081815260200183838082843760009201919091525061213992505050565b50505050565b333014806114585750611458612b1a565b61146157600080fd5b600061146f82840184615a0d565b90506001600160a01b0381166114ab5760405162461bcd60e51b81526020600482015260016024820152600360fc1b6044820152606401610d4c565b6017546001600160a01b03161580159061152f57506017546040516370a0823160e01b81523060048201526001600160a01b03909116906370a0823190602401602060405180830381865afa158015611508573d6000803e3d6000fd5b505050506040513d601f19601f8201168201806040525081019061152c9190615d3c565b15155b15611619576017546040516370a0823160e01b81523060048201526001600160a01b039091169063ba0876529082906370a0823190602401602060405180830381865afa158015611584573d6000803e3d6000fd5b505050506040513d601f19601f820116820180604052508101906115a89190615d3c565b6040516001600160e01b031960e084901b1681526004810191909152306024820181905260448201526064016020604051808303816000875af11580156115f3573d6000803e3d6000fd5b505050506040513d601f19601f820116820180604052508101906116179190615d3c565b505b601780546001600160a01b0319166001600160a01b0383811691821790925560165460405163095ea7b360e01b8152600481019290925260001960248301529091169063095ea7b3906044016020604051808303816000875af1158015611684573d6000803e3d6000fd5b505050506040513d601f19601f820116820180604052508101906116a89190615dd0565b506016546040516370a0823160e01b81523060048201526000916001600160a01b0316906370a0823190602401602060405180830381865afa1580156116f2573d6000803e3d6000fd5b505050506040513d601f19601f820116820180604052508101906117169190615d3c565b905080156114415761144181612d6b565b60008061173381611f3d565b600061173d6119d3565b905080156117695761176181601181111561175a5761175a615d8a565b603b612de4565b925050610d61565b61177284612e5d565b925050610d6a81612001565b60008061178a81611f3d565b60006117946119d3565b146117b15760405162461bcd60e51b8152600401610d4c90615da0565b600e5491506117bf81612001565b5090565b6117cb612b1a565b61182d5760405162461bcd60e51b815260206004820152602d60248201527f6f6e6c79207468652061646d696e206d6179207365742074686520636f6d702d60448201526c6c696b652064656c656761746560981b6064820152608401610d4c565b6016546040516317066a5760e21b81526001600160a01b03838116600483015290911690635c19a95c90602401600060405180830381600087803b15801561187457600080fd5b505af11580156112fd573d6000803e3d6000fd5b6000610cff82612f0e565b60008061189f81611f3d565b60006118a96119d3565b905080156118cd576117618160118111156118c6576118c6615d8a565b6052612de4565b611772846126f8565b60048054610c1490615d55565b60008060006118f184612f54565b9092509050600082600381111561190a5761190a615d8a565b1461197d5760405162461bcd60e51b815260206004820152603760248201527f626f72726f7742616c616e636553746f7265643a20626f72726f7742616c616e60448201527f636553746f726564496e7465726e616c206661696c65640000000000000000006064820152608401610d4c565b9392505050565b60008061199081611f3d565b600061199a6119d3565b905080156119be576117618160118111156119b7576119b7615d8a565b6033612de4565b6117728461300d565b600080610d1183613080565b600c5460009043908114156119eb5760005b91505090565b60006119f5612cd8565b90506000600760009054906101000a90046001600160a01b03166001600160a01b03166315f2405383600e54611a3a600f54611a356010546011546130c6565b6130c6565b6040516001600160e01b031960e086901b168152600481019390935260248301919091526044820152606401602060405180830381865afa158015611a83573d6000803e3d6000fd5b505050506040513d601f19601f82011682018060405250810190611aa79190615d3c565b905065048c27395000811115611aff5760405162461bcd60e51b815260206004820152601c60248201527f626f72726f772072617465206973206162737572646c792068696768000000006044820152606401610d4c565b600080611b0e85600c546130fc565b90925090506000826003811115611b2757611b27615d8a565b14611b745760405162461bcd60e51b815260206004820152601f60248201527f636f756c64206e6f742063616c63756c61746520626c6f636b2064656c7461006044820152606401610d4c565b611b8085858584613127565b9550505050505090565b600080611b9681611f3d565b6000611ba06119d3565b90508015611bc457611761816011811115611bbd57611bbd615d8a565b6037612de4565b61177284613253565b600080611bd981611f3d565b6000611be733338787612812565b149150611bf381612001565b5092915050565b6007546000906001600160a01b031663b8168816611c16612cd8565b600e54611c2d600f54611a356010546011546130c6565b600954600a54600b54611c409190615ea3565b611c4a9190615ea3565b6040516001600160e01b031960e087901b16815260048101949094526024840192909252604483015260648201526084015b602060405180830381865afa158015611c99573d6000803e3d6000fd5b505050506040513d601f19601f820116820180604052508101906113be9190615d3c565b60006001611cca81611f3d565b611cd633868686613331565b9150610d1181612001565b600080611ced81611f3d565b6000611cf76119d3565b14611d145760405162461bcd60e51b8152600401610d4c90615da0565b611d1c610d70565b91506117bf81612001565b6001600160a01b038116600090815260136020526040812054819081908190818080611d5289612f54565b935090506000816003811115611d6a57611d6a615d8a565b14611d885760095b6000806000975097509750975050505050611dc1565b611d9061206c565b925090506000816003811115611da857611da8615d8a565b14611db4576009611d72565b5060009650919450925090505b9193509193565b6000610cff8261382e565b6000610cff82613872565b600080611de96119d3565b90508015611e0d5761197d816011811115611e0657611e06615d8a565b604b612de4565b61197d836123e9565b600080611e248585856138b1565b5095945050505050565b6007546000906001600160a01b03166315f24053611e4a612cd8565b600e54611e61600f54611a356010546011546130c6565b6040516001600160e01b031960e086901b168152600481019390935260248301919091526044820152606401611c7c565b600080611e9e81611f3d565b6000611ea86119d3565b90508015611ecc57611761816011811115611ec557611ec5615d8a565b6059612de4565b61177284612659565b6000806000611ee381611f3d565b6000611eed6119d3565b90508015611f1d57611f11816011811115611f0a57611f0a615d8a565b6041612de4565b60009350935050611f2e565b611f283333876139a5565b93509350505b611f3781612001565b50915091565b600254600160b01b900460ff16611f835760405162461bcd60e51b815260206004820152600a6024820152691c994b595b9d195c995960b21b6044820152606401610d4c565b80611ff157600660009054906101000a90046001600160a01b03166001600160a01b031663c90c20b16040518163ffffffff1660e01b8152600401600060405180830381600087803b158015611fd857600080fd5b505af1158015611fec573d6000803e3d6000fd5b505050505b506002805460ff60b01b19169055565b6002805460ff60b01b1916600160b01b1790558061206957600660009054906101000a90046001600160a01b03166001600160a01b031663632e51426040518163ffffffff1660e01b8152600401600060405180830381600087803b15801561187457600080fd5b50565b601254600090819080612086575050600854600092909150565b6000612090612cd8565b905060006120aa6040518060200160405280600081525090565b60006120cc84600e546120c7600f54611a356010546011546130c6565b613dbf565b9350905060008160038111156120e4576120e4615d8a565b146120f6579660009650945050505050565b6121008386613e11565b92509050600081600381111561211857612118615d8a565b1461212a579660009650945050505050565b50516000969095509350505050565b6001546000546040516338e6a07360e11b81526001600160a01b039182166004820152858216602482015284151560448201529116906371cd40e690606401602060405180830381865afa158015612195573d6000803e3d6000fd5b505050506040513d601f19601f820116820180604052508101906121b99190615dd0565b6121ed5760405162461bcd60e51b8152602060048201526005602482015264085a5b5c1b60da1b6044820152606401610d4c565b600080546001600160a01b038581166001600160a01b03198316179092556040519116906122709030906122259085906024016159b5565b60408051601f19818403018152918152602080830180516001600160e01b0316630adccee560e31b17905281518083019092526007825266216265636f6d6560c81b90820152613edc565b50600054604080516001600160a01b03808516825290921660208301527fd604de94d45953f9138079ec1b82d533cb2160c906d1076d1f7ed54befbca97a910160405180910390a150505050565b600080600660009054906101000a90046001600160a01b03169050826001600160a01b0316627e3dd26040518163ffffffff1660e01b8152600401602060405180830381865afa158015612316573d6000803e3d6000fd5b505050506040513d601f19601f8201168201806040525081019061233a9190615dd0565b6123865760405162461bcd60e51b815260206004820152601c60248201527f6d61726b6572206d6574686f642072657475726e65642066616c7365000000006044820152606401610d4c565b600680546001600160a01b0319166001600160a01b0385811691821790925560408051928416835260208301919091527f7ac369dbd14fa5ea3f473ed67cc9d598964a77501540ba6751eb0b3decf5870d91015b60405180910390a1600061197d565b6000806123f4612b1a565b6124045761197d6001604d612de4565b43600c54146124195761197d600a604c612de4565b600760009054906101000a90046001600160a01b03169050826001600160a01b0316632191f92a6040518163ffffffff1660e01b8152600401602060405180830381865afa15801561246f573d6000803e3d6000fd5b505050506040513d601f19601f820116820180604052508101906124939190615dd0565b6124df5760405162461bcd60e51b815260206004820152601c60248201527f6d61726b6572206d6574686f642072657475726e65642066616c7365000000006044820152606401610d4c565b600780546001600160a01b0319166001600160a01b0385811691821790925560408051928416835260208301919091527fedffc32e068c7c95dfd4bdfd5c4d939a084d6b11c4199eac8436ed234d72f926910160405180910390a16001600160a01b038116156125cd5760408051600481526024810182526020810180516001600160e01b0316636cc1140b60e11b17905290516001600160a01b0383169161258791615ebb565b6000604051808303816000865af19150503d80600081146125c4576040519150601f19603f3d011682016040523d82523d6000602084013e6125c9565b606091505b5050505b60408051600481526024810182526020810180516001600160e01b031663742a137b60e11b17905290516001600160a01b0385169161260b91615ebb565b6000604051808303816000865af19150503d8060008114612648576040519150601f19603f3d011682016040523d82523d6000602084013e61264d565b606091505b506000915061197d9050565b6000612663612b1a565b61267357610cff6001605a612de4565b43600c541461268857610cff600a605b612de4565b670de0b6b3a76400006126a86126a0846009546130c6565b600a546130c6565b11156126ba57610cff6002605c612de4565b600b80549083905560408051828152602081018590527faaa68312e2ea9d50e16af5068410ab56e1a1fd06037b1a35664812c30f82146091016123da565b600043600c541461270f57610cff600a6054612de4565b60001982141561271f5760095491505b6000612729613f78565b9050670de0b6b3a7640000612749612743600b54866130c6565b836130c6565b111561275b5761197d60026055612de4565b82600954146127bf5761276c612b1a565b61277c5761197d60016053612de4565b600980549084905560408051828152602081018690527fcdd0b588250e1398549f79cfdb8217c186688822905d6715b0834ea1c865594a910160405180910390a1505b80600a541461280b57600a80549082905560408051828152602081018490527f92eef861b6533b7d3417f39c2ad7b460eed4e88a32fa3604f30e718b7602e7dc910160405180910390a1505b600061197d565b6006546040516317b9b84b60e31b81523060048201526001600160a01b038581166024830152848116604483015260648201849052600092839291169063bdcdc258906084016020604051808303816000875af1158015612877573d6000803e3d6000fd5b505050506040513d601f19601f8201168201806040525081019061289b9190615d3c565b905080156128b8576128b06003605d83613fc2565b9150506113ac565b836001600160a01b0316856001600160a01b031614156128de576128b06002605e612de4565b6000856001600160a01b0316876001600160a01b03161415612903575060001961292b565b506001600160a01b038086166000908152601460209081526040808320938a16835292905220545b60008060008061293b85896130fc565b9094509250600084600381111561295457612954615d8a565b14612972576129656009605e612de4565b96505050505050506113ac565b6001600160a01b038a1660009081526013602052604090205461299590896130fc565b909450915060008460038111156129ae576129ae615d8a565b146129bf576129656009605f612de4565b6001600160a01b0389166000908152601360205260409020546129e29089614064565b909450905060008460038111156129fb576129fb615d8a565b14612a0c5761296560096060612de4565b6001600160a01b03808b16600090815260136020526040808220859055918b168152208190556000198514612a64576001600160a01b03808b166000908152601460209081526040808320938f168352929052208390555b886001600160a01b03168a6001600160a01b0316600080516020615fb68339815191528a604051612a9791815260200190565b60405180910390a35060009a9950505050505050505050565b6000806000612abe81611f3d565b6000612ac86119d3565b90508015612af857612aec816011811115612ae557612ae5615d8a565b6040612de4565b60009350935050612b09565b612b033387876139a5565b93509350505b612b1281612001565b509250929050565b600654604080516303e1469160e61b815290516000926001600160a01b031691829163f851a440916004808201926020929091908290030181865afa158015612b67573d6000803e3d6000fd5b505050506040513d601f19601f82011682018060405250810190612b8b9190615ed7565b6001600160a01b0316336001600160a01b0316148015612c085750806001600160a01b0316630a755ec26040518163ffffffff1660e01b8152600401602060405180830381865afa158015612be4573d6000803e3d6000fd5b505050506040513d601f19601f82011682018060405250810190612c089190615dd0565b806119e557506001546001600160a01b0316331480156119e55750806001600160a01b0316632f1069ba6040518163ffffffff1660e01b8152600401602060405180830381865afa158015612c61573d6000803e3d6000fd5b505050506040513d601f19601f820116820180604052508101906119e59190615dd0565b600080600080612c958686614094565b90925090506000826003811115612cae57612cae615d8a565b14612cbf5750915060009050612cd1565b6000612cca82614110565b9350935050505b9250929050565b6017546040516370a0823160e01b81523060048201526000916001600160a01b031690634cdad5069082906370a0823190602401602060405180830381865afa158015612d29573d6000803e3d6000fd5b505050506040513d601f19601f82011682018060405250810190612d4d9190615d3c565b6040518263ffffffff1660e01b8152600401611c7c91815260200190565b601754604051636e553f6560e01b8152600481018390523060248201526001600160a01b0390911690636e553f65906044016020604051808303816000875af1158015612dbc573d6000803e3d6000fd5b505050506040513d601f19601f82011682018060405250810190612de09190615d3c565b5050565b60007f45b96fe442630264581b197e84bbada861235052c5a1aadfff9ea4e40a969aa0836011811115612e1957612e19615d8a565b836063811115612e2b57612e2b615d8a565b60408051928352602083019190915260009082015260600160405180910390a182601181111561197d5761197d615d8a565b600080612e68612b1a565b612e785761197d6001603c612de4565b43600c5414612e8d5761197d600a603e612de4565b82612e96612cd8565b1015612ea85761197d600e603d612de4565b600f54831115612ebe5761197d6002603f612de4565b612eca600f5484614128565b600f8190559050612edb3384614162565b7f3bad0c59cf2f06e7314077049f48a93578cd16f5ef92329f1dab1420a99c177e3384836040516123da93929190615ef4565b600080612f1a81611f3d565b6000612f246119d3565b90508015612f4857611761816011811115612f4157612f41615d8a565b602a612de4565b611772336000866141df565b6001600160a01b038116600090815260156020526040812080548291829182918291612f895750600096879650945050505050565b612f998160000154600d54614765565b90945092506000846003811115612fb257612fb2615d8a565b14612fc557509195600095509350505050565b612fd38382600101546147af565b90945091506000846003811115612fec57612fec615d8a565b14612fff57509195600095509350505050565b506000969095509350505050565b60008043600c54146130255761197d600a6035612de4565b8261302e612cd8565b10156130405761197d600e6034612de4565b6011548311156130565761197d60026036612de4565b61306260115484614128565b601181905560015490915061280b906001600160a01b031684614162565b600080600061308e81611f3d565b60006130986119d3565b905080156130bc57611f118160118111156130b5576130b5615d8a565b6020612de4565b611f2833866147da565b600061197d8383604051806040016040528060118152602001706164646974696f6e206f766572666c6f7760781b815250614b98565b60008083831161311b5760006131128486615f15565b91509150612cd1565b50600390506000612cd1565b60008061314260405180602001604052808681525084614bc9565b9050600061315282600e54614bfa565b9050600061316282600e546130c6565b905060006131836040518060200160405280600b5481525084600f54614c12565b905060006131a46040518060200160405280600a5481525085601154614c12565b905060006131c5604051806020016040528060095481525086601054614c12565b905060006131d887600d54600d54614c12565b600c8d9055600d819055600e869055600f85905560118490556010839055604080518d815260208101899052908101829052606081018790529091507f4dec04e750ca11537cabcd8a9eab06494de08da3735bc8871cd41250e190bc049060800160405180910390a160009c9b505050505050505050505050565b60008043600c541461326b5761197d600a6039612de4565b82613274612cd8565b10156132865761197d600e6038612de4565b60105483111561329c5761197d6002603a612de4565b6132a860105484614128565b90508060108190555061280b600660009054906101000a90046001600160a01b03166001600160a01b031663f851a4406040518163ffffffff1660e01b8152600401602060405180830381865afa158015613307573d6000803e3d6000fd5b505050506040513d601f19601f8201168201806040525081019061332b9190615ed7565b84614162565b60065460405163d02f735160e01b81523060048201526001600160a01b0386811660248301528581166044830152848116606483015260848201849052600092839291169063d02f73519060a4016020604051808303816000875af115801561339e573d6000803e3d6000fd5b505050506040513d601f19601f820116820180604052508101906133c29190615d3c565b905080156133d7576128b06003601d83613fc2565b846001600160a01b0316846001600160a01b031614156133fd576128b06006601e612de4565b613462604080516101808101909152806000815260200160008152602001600081526020016000815260200160008152602001600081526020016000815260200160008152602001600081526020016000815260200160008152602001600081525090565b6001600160a01b03851660009081526013602052604090205461348590856130fc565b602083018190528282600381111561349f5761349f615d8a565b60038111156134b0576134b0615d8a565b90525060009050815160038111156134ca576134ca615d8a565b146134fa576134f16009601c836000015160038111156134ec576134ec615d8a565b613fc2565b925050506113ac565b613519846040518060200160405280666379da05b60000815250614c33565b6080820152604080516020810190915267016345785d8a0000815261353f908590614c33565b610140820152608081015161356490613559908690614128565b826101400151614128565b606082015261357161206c565b60c083018190528282600381111561358b5761358b615d8a565b600381111561359c5761359c615d8a565b90525060009050815160038111156135b6576135b6615d8a565b146136035760405162461bcd60e51b815260206004820152601860248201527f65786368616e67652072617465206d617468206572726f7200000000000000006044820152606401610d4c565b61362360405180602001604052808360c001518152508260800151614bfa565b60a0820152604080516020810190915260c0820151815261014082015161364a9190614bfa565b610160820152600f5460a082015161366291906130c6565b60e0820152601254608082015161367c9161355991614128565b61012082015260115461016082015161369591906130c6565b6101008201526001600160a01b03861660009081526013602052604090205460608201516136c39190614064565b60408301819052828260038111156136dd576136dd615d8a565b60038111156136ee576136ee615d8a565b905250600090508151600381111561370857613708615d8a565b1461372a576134f16009601b836000015160038111156134ec576134ec615d8a565b60e0810151600f556101208101516012556101008101516011556020808201516001600160a01b0387811660008181526013855260408082209490945583860151928b1680825290849020929092556060850151925192835290929091600080516020615fb6833981519152910160405180910390a3306001600160a01b0316856001600160a01b0316600080516020615fb683398151915283608001516040516137d791815260200190565b60405180910390a360a081015160e08201516040517fa91e67c5ea634cd43a12c5a482724b03de01e85ca68702a53d0c2f45cb7c1dc592613819923092615ef4565b60405180910390a16000979650505050505050565b60008061383a81611f3d565b60006138446119d3565b905080156138685761176181601181111561386157613861615d8a565b600a612de4565b6117723385614c56565b60008061387e81611f3d565b60006138886119d3565b905080156138a557611761816011811115612f4157612f41615d8a565b611772338560006141df565b60008060006138bf81611f3d565b60006138c96119d3565b905080156138f9576138ed8160118111156138e6576138e6615d8a565b6011612de4565b60009350935050613993565b846001600160a01b031663a6afed956040518163ffffffff1660e01b81526004016020604051808303816000875af1158015613939573d6000803e3d6000fd5b505050506040513d601f19601f8201168201806040525081019061395d9190615d3c565b90508015613981576138ed81601181111561397a5761397a615d8a565b6012612de4565b61398d33888888614fea565b93509350505b61399c81612001565b50935093915050565b600654604051631200453160e11b81523060048201526001600160a01b03858116602483015284811660448301526064820184905260009283928392909116906324008a62906084016020604051808303816000875af1158015613a0d573d6000803e3d6000fd5b505050506040513d601f19601f82011682018060405250810190613a319190615d3c565b90508015613a5257613a466003604383613fc2565b60009250925050613db7565b43600c5414613a6757613a46600a6044612de4565b613ab06040805161010081019091528060008152602001600081526020016000815260200160008152602001600081526020016000815260200160008152602001600081525090565b6001600160a01b0386166000908152601560205260409020600101546060820152613ada86612f54565b6080830181905260208301826003811115613af757613af7615d8a565b6003811115613b0857613b08615d8a565b9052506000905081602001516003811115613b2557613b25615d8a565b14613b5457613b4760096042836020015160038111156134ec576134ec615d8a565b6000935093505050613db7565b600019851415613b6d5760808101516040820152613b75565b604081018590525b613b838782604001516154ab565b60e082018190526080820151613b98916130fc565b60a0830181905260208301826003811115613bb557613bb5615d8a565b6003811115613bc657613bc6615d8a565b9052506000905081602001516003811115613be357613be3615d8a565b14613c565760405162461bcd60e51b815260206004820152603a60248201527f52455041595f424f52524f575f4e45575f4143434f554e545f424f52524f575f60448201527f42414c414e43455f43414c43554c4154494f4e5f4641494c45440000000000006064820152608401610d4c565b613c66600e548260e001516130fc565b60c0830181905260208301826003811115613c8357613c83615d8a565b6003811115613c9457613c94615d8a565b9052506000905081602001516003811115613cb157613cb1615d8a565b14613d185760405162461bcd60e51b815260206004820152603160248201527f52455041595f424f52524f575f4e45575f544f54414c5f42414c414e43455f43604482015270105310d55310551253d397d19052531151607a1b6064820152608401610d4c565b60a081810180516001600160a01b03898116600081815260156020908152604091829020948555600d5460019095019490945560c0870151600e81905560e088015195518251948f16855294840192909252820193909352606081019190915260808101919091527f1a2a22cb034d26d1854bdc6666a5b91fe25efbbb5dcad3b0355478d6f5c362a1910160405180910390a160e00151600093509150505b935093915050565b600080600080613dcf8787614064565b90925090506000826003811115613de857613de8615d8a565b14613df95750915060009050613db7565b613e0381866130fc565b935093505050935093915050565b6000613e296040518060200160405280600081525090565b600080613e3e86670de0b6b3a7640000614765565b90925090506000826003811115613e5757613e57615d8a565b14613e7657506040805160208101909152600081529092509050612cd1565b600080613e8383886147af565b90925090506000826003811115613e9c57613e9c615d8a565b14613ebf5781604051806020016040528060008152509550955050505050612cd1565b604080516020810190915290815260009890975095505050505050565b6060600080856001600160a01b031685604051613ef99190615ebb565b6000604051808303816000865af19150503d8060008114613f36576040519150601f19603f3d011682016040523d82523d6000602084013e613f3b565b606091505b509150915081613f6f57805115613f555780518082602001fd5b8360405162461bcd60e51b8152600401610d4c91906159b5565b95945050505050565b6001546040805163dd86fea160e01b815290516000926001600160a01b03169163dd86fea19160048083019260209291908290030181865afa158015611c99573d6000803e3d6000fd5b60007f45b96fe442630264581b197e84bbada861235052c5a1aadfff9ea4e40a969aa0846011811115613ff757613ff7615d8a565b84606381111561400957614009615d8a565b604080519283526020830191909152810184905260600160405180910390a1600384601181111561403c5761403c615d8a565b146140585783601181111561405357614053615d8a565b6113ac565b6113ac826103e8615ea3565b600080806140728486615ea3565b905084811061408657600092509050612cd1565b600260009250925050612cd1565b60006140ac6040518060200160405280600081525090565b6000806140bd866000015186614765565b909250905060008260038111156140d6576140d6615d8a565b146140f557506040805160208101909152600081529092509050612cd1565b60408051602081019091529081526000969095509350505050565b8051600090610cff90670de0b6b3a764000090615f2c565b600061197d8383604051806040016040528060158152602001747375627472616374696f6e20756e646572666c6f7760581b815250615561565b601754604051632d182be560e21b8152600481018390526001600160a01b0384811660248301523060448301529091169063b460af94906064016020604051808303816000875af11580156141bb573d6000803e3d6000fd5b505050506040513d601f19601f82011682018060405250810190610f2c9190615d3c565b60008215806141ec575081155b6142555760405162461bcd60e51b815260206004820152603460248201527f6f6e65206f662072656465656d546f6b656e73496e206f722072656465656d416044820152736d6f756e74496e206d757374206265207a65726f60601b6064820152608401610d4c565b6142966040805160e0810190915280600081526020016000815260200160008152602001600081526020016000815260200160008152602001600081525090565b61429e61206c565b60408301819052602083018260038111156142bb576142bb615d8a565b60038111156142cc576142cc615d8a565b90525060009050816020015160038111156142e9576142e9615d8a565b146143135761430b6009602e836020015160038111156134ec576134ec615d8a565b91505061197d565b83156143ac57606081018490526040805160208101825290820151815261433a9085612c85565b608083018190526020830182600381111561435757614357615d8a565b600381111561436857614368615d8a565b905250600090508160200151600381111561438557614385615d8a565b146143a75761430b6009602c836020015160038111156134ec576134ec615d8a565b61443d565b6143c88360405180602001604052808460400151815250615590565b60608301819052602083018260038111156143e5576143e5615d8a565b60038111156143f6576143f6615d8a565b905250600090508160200151600381111561441357614413615d8a565b146144355761430b6009602d836020015160038111156134ec576134ec615d8a565b608081018390525b600654606082015160405163eabe7d9160e01b81526000926001600160a01b03169163eabe7d91916144769130918b9190600401615f4e565b6020604051808303816000875af1158015614495573d6000803e3d6000fd5b505050506040513d601f19601f820116820180604052508101906144b99190615d3c565b905080156144d7576144ce6003602b83613fc2565b9250505061197d565b43600c54146144ec576144ce600a602f612de4565b6144fc60125483606001516130fc565b60a084018190526020840182600381111561451957614519615d8a565b600381111561452a5761452a615d8a565b905250600090508260200151600381111561454757614547615d8a565b14614569576144ce60096031846020015160038111156134ec576134ec615d8a565b6001600160a01b038616600090815260136020526040902054606083015161459191906130fc565b60c08401819052602084018260038111156145ae576145ae615d8a565b60038111156145bf576145bf615d8a565b90525060009050826020015160038111156145dc576145dc615d8a565b146145fe576144ce60096030846020015160038111156134ec576134ec615d8a565b816080015161460b612cd8565b101561461d576144ce600e6032612de4565b60a082015160125560c08201516001600160a01b0387166000908152601360205260409020556080820151614653908790614162565b306001600160a01b0316866001600160a01b0316600080516020615fb6833981519152846060015160405161468a91815260200190565b60405180910390a3608082015160608301516040517fe5b754fb1abb7f01b499791d0b820ae3b6af3424ac1c59768edb53f4ec31a929926146cc928a92615ef4565b60405180910390a1600654608083015160608401516040516351dff98960e01b81523060048201526001600160a01b038a81166024830152604482019390935260648101919091529116906351dff98990608401600060405180830381600087803b15801561473a57600080fd5b505af115801561474e573d6000803e3d6000fd5b506000925061475b915050565b9695505050505050565b6000808361477857506000905080612cd1565b60006147848486615f72565b9050836147918683615f2c565b146147a457600260009250925050612cd1565b600092509050612cd1565b600080826147c35750600190506000612cd1565b60006147cf8486615f2c565b915091509250929050565b600654604051634ef4c3e160e01b8152600091829182916001600160a01b031690634ef4c3e19061481390309089908990600401615f4e565b6020604051808303816000875af1158015614832573d6000803e3d6000fd5b505050506040513d601f19601f820116820180604052508101906148569190615d3c565b905080156148775761486b6003602183613fc2565b60009250925050612cd1565b43600c541461488c5761486b600a6024612de4565b6148cd6040805160e0810190915280600081526020016000815260200160008152602001600081526020016000815260200160008152602001600081525090565b6148d561206c565b60408301819052602083018260038111156148f2576148f2615d8a565b600381111561490357614903615d8a565b905250600090508160200151600381111561492057614920615d8a565b1461494f5761494260096023836020015160038111156134ec576134ec615d8a565b6000935093505050612cd1565b61495986866154ab565b60c082018190526040805160208101825290830151815261497a9190615590565b606083018190526020830182600381111561499757614997615d8a565b60038111156149a8576149a8615d8a565b90525060009050816020015160038111156149c5576149c5615d8a565b14614a125760405162461bcd60e51b815260206004820181905260248201527f4d494e545f45584348414e47455f43414c43554c4154494f4e5f4641494c45446044820152606401610d4c565b614a2260125482606001516130c6565b60808201526001600160a01b0386166000908152601360205260409020546060820151614a4f91906130c6565b60a0820181905260808201516012556001600160a01b038716600090815260136020526040908190209190915560c0820151606083015191517f4c209b5fc8ad50758f13e2e1088ba56a560dff690a1c6fef26394f4c03821c4f92614ab8928a92909190615ef4565b60405180910390a1856001600160a01b0316306001600160a01b0316600080516020615fb68339815191528360600151604051614af791815260200190565b60405180910390a360065460c082015160608301516040516341c728b960e01b81523060048201526001600160a01b038a81166024830152604482019390935260648101919091529116906341c728b990608401600060405180830381600087803b158015614b6557600080fd5b505af1158015614b79573d6000803e3d6000fd5b5060009250614b86915050565b8160c001519350935050509250929050565b600080614ba58486615ea3565b905082858210156112945760405162461bcd60e51b8152600401610d4c91906159b5565b6040805160208101909152600081526040518060200160405280614bf18560000151856155a0565b90529392505050565b600080614c078484614bc9565b90506113ac81614110565b600080614c1f8585614bc9565b9050613f6f614c2d82614110565b846130c6565b6000670de0b6b3a7640000614c4c8484600001516155a0565b61197d9190615f2c565b60065460405163368f515360e21b815260009182916001600160a01b039091169063da3d454c90614c8f90309088908890600401615f4e565b6020604051808303816000875af1158015614cae573d6000803e3d6000fd5b505050506040513d601f19601f82011682018060405250810190614cd29190615d3c565b90508015614cef57614ce76003601083613fc2565b915050610cff565b43600c5414614d0457614ce7600a600c612de4565b6000614d0e612cd8565b905083811015614d2d57614d24600e600b612de4565b92505050610cff565b614d59604080516080810190915280600081526020016000815260200160008152602001600081525090565b614d6286612f54565b6020830181905282826003811115614d7c57614d7c615d8a565b6003811115614d8d57614d8d615d8a565b9052506000905081516003811115614da757614da7615d8a565b14614dd257614dc8600980836000015160038111156134ec576134ec615d8a565b9350505050610cff565b614de0816020015186614064565b6040830181905282826003811115614dfa57614dfa615d8a565b6003811115614e0b57614e0b615d8a565b9052506000905081516003811115614e2557614e25615d8a565b14614e4757614dc86009600e836000015160038111156134ec576134ec615d8a565b6006546040828101519051631de6c8a560e21b815230600482015260248101919091526001600160a01b039091169063779b2294906044016020604051808303816000875af1158015614e9e573d6000803e3d6000fd5b505050506040513d601f19601f82011682018060405250810190614ec29190615d3c565b92508215614ed757614dc86003601085613fc2565b614ee3600e5486614064565b6060830181905282826003811115614efd57614efd615d8a565b6003811115614f0e57614f0e615d8a565b9052506000905081516003811115614f2857614f28615d8a565b14614f4a57614dc86009600d836000015160038111156134ec576134ec615d8a565b6040808201516001600160a01b0388166000908152601560205291909120908155600d546001909101556060810151600e55614f868686614162565b60408082015160608084015183516001600160a01b038b168152602081018a9052938401929092528201527f13ed6866d4e1ee6da46f845c46d7e54120883d75c5ea9a2dacc1c4ca8984ab809060800160405180910390a160009695505050505050565b600654604051632fe3f38f60e11b81523060048201526001600160a01b03838116602483015286811660448301528581166064830152608482018590526000928392839290911690635fc7e71e9060a4016020604051808303816000875af115801561505a573d6000803e3d6000fd5b505050506040513d601f19601f8201168201806040525081019061507e9190615d3c565b9050801561509f576150936003601483613fc2565b600092509250506154a2565b43600c54146150b457615093600a6018612de4565b43846001600160a01b0316636c540baf6040518163ffffffff1660e01b8152600401602060405180830381865afa1580156150f3573d6000803e3d6000fd5b505050506040513d601f19601f820116820180604052508101906151179190615d3c565b1461512857615093600a6013612de4565b866001600160a01b0316866001600160a01b0316141561514e5761509360066019612de4565b8461515f5761509360076017612de4565b6000198514156151755761509360076016612de4565b6000806151838989896139a5565b909250905081156151b8576151aa8260118111156151a3576151a3615d8a565b601a612de4565b6000945094505050506154a2565b60065460405163c488847b60e01b815260009182916001600160a01b039091169063c488847b906151f19030908c908890600401615f4e565b6040805180830381865afa15801561520d573d6000803e3d6000fd5b505050506040513d601f19601f820116820180604052508101906152319190615f91565b909250905081156152a05760405162461bcd60e51b815260206004820152603360248201527f4c49515549444154455f434f4d5054524f4c4c45525f43414c43554c4154455f604482015272105353d5539517d4d152569157d19052531151606a1b6064820152608401610d4c565b6040516370a0823160e01b81526001600160a01b038b811660048301528291908a16906370a0823190602401602060405180830381865afa1580156152e9573d6000803e3d6000fd5b505050506040513d601f19601f8201168201806040525081019061530d9190615d3c565b101561535b5760405162461bcd60e51b815260206004820152601860248201527f4c49515549444154455f5345495a455f544f4f5f4d55434800000000000000006044820152606401610d4c565b60006001600160a01b0389163014156153815761537a308d8d85613331565b90506153f7565b60405163b2a02ff160e01b81526001600160a01b038a169063b2a02ff1906153b1908f908f908790600401615f4e565b6020604051808303816000875af11580156153d0573d6000803e3d6000fd5b505050506040513d601f19601f820116820180604052508101906153f49190615d3c565b90505b801561543c5760405162461bcd60e51b81526020600482015260146024820152731d1bdad95b881cd95a5e9d5c994819985a5b195960621b6044820152606401610d4c565b604080516001600160a01b038e811682528d811660208301528183018790528b1660608201526080810184905290517f298637f684da70674f26509b10f07ec2fbc77a335ab1e7d6215a4b2484d8bb529181900360a00190a16000975092955050505050505b94509492505050565b6016546040516323b872dd60e01b81526000916001600160a01b0316906323b872dd906154e090869030908790600401615f4e565b6020604051808303816000875af11580156154ff573d6000803e3d6000fd5b505050506040513d601f19601f820116820180604052508101906155239190615dd0565b6155585760405162461bcd60e51b8152600401610d4c906020808252600490820152631cd95b9960e21b604082015260600190565b610d6a82612d6b565b600081848411156155855760405162461bcd60e51b8152600401610d4c91906159b5565b506113ac8385615f15565b600080600080612c9586866155e2565b600061197d83836040518060400160405280601781526020017f6d756c7469706c69636174696f6e206f766572666c6f77000000000000000000815250615655565b60006155fa6040518060200160405280600081525090565b60008061560f670de0b6b3a764000087614765565b9092509050600082600381111561562857615628615d8a565b1461564757506040805160208101909152600081529092509050612cd1565b612cca818660000151613e11565b6000831580615662575082155b1561566f5750600061197d565b600061567b8486615f72565b9050836156888683615f2c565b1483906112945760405162461bcd60e51b8152600401610d4c91906159b5565b8280546156b490615d55565b90600052602060002090601f0160209004810192826156d6576000855561571c565b82601f106156ef57805160ff191683800117855561571c565b8280016001018555821561571c579182015b8281111561571c578251825591602001919060010190615701565b506117bf92915061579c565b82805461573490615d55565b90600052602060002090601f016020900481019282615756576000855561571c565b82601f1061576f5782800160ff1982351617855561571c565b8280016001018555821561571c579182015b8281111561571c578235825591602001919060010190615781565b5b808211156117bf576000815560010161579d565b6001600160a01b038116811461206957600080fd5b80356157d1816157b1565b919050565b634e487b7160e01b600052604160045260246000fd5b604051601f8201601f1916810167ffffffffffffffff81118282101715615815576158156157d6565b604052919050565b600067ffffffffffffffff821115615837576158376157d6565b50601f01601f191660200190565b600082601f83011261585657600080fd5b81356158696158648261581d565b6157ec565b81815284602083860101111561587e57600080fd5b816020850160208301376000918101602001919091529392505050565b600080600080600080600080610100898b0312156158b857600080fd5b88356158c3816157b1565b975060208901356158d3816157b1565b965060408901356158e3816157b1565b955060608901356158f3816157b1565b9450608089013567ffffffffffffffff8082111561591057600080fd5b61591c8c838d01615845565b955060a08b013591508082111561593257600080fd5b5061593f8b828c01615845565b93505060c0890135915060e089013590509295985092959890939650565b60005b83811015615978578181015183820152602001615960565b838111156114415750506000910152565b600081518084526159a181602086016020860161595d565b601f01601f19169290920160200192915050565b60208152600061197d6020830184615989565b600080604083850312156159db57600080fd5b82356159e6816157b1565b946020939093013593505050565b600060208284031215615a0657600080fd5b5035919050565b600060208284031215615a1f57600080fd5b813561197d816157b1565b60ff8116811461206957600080fd5b80356157d181615a2a565b60008060008060008060008060006101208a8c031215615a6357600080fd5b8935615a6e816157b1565b985060208a0135615a7e816157b1565b9750615a8c60408b016157c6565b965060608a0135955060808a013567ffffffffffffffff80821115615ab057600080fd5b615abc8d838e01615845565b965060a08c0135915080821115615ad257600080fd5b50615adf8c828d01615845565b945050615aee60c08b01615a39565b925060e08a013591506101008a013590509295985092959850929598565b600080600060608486031215615b2157600080fd5b8335615b2c816157b1565b92506020840135615b3c816157b1565b929592945050506040919091013590565b60008083601f840112615b5f57600080fd5b50813567ffffffffffffffff811115615b7757600080fd5b602083019150836020828501011115612cd157600080fd5b60008060008060408587031215615ba557600080fd5b843567ffffffffffffffff80821115615bbd57600080fd5b615bc988838901615b4d565b90965094506020870135915080821115615be257600080fd5b50615bef87828801615b4d565b95989497509550505050565b801515811461206957600080fd5b60008060008060608587031215615c1f57600080fd5b8435615c2a816157b1565b93506020850135615c3a81615bfb565b9250604085013567ffffffffffffffff811115615c5657600080fd5b615bef87828801615b4d565b60008060208385031215615c7557600080fd5b823567ffffffffffffffff811115615c8c57600080fd5b615c9885828601615b4d565b90969095509350505050565b60008060408385031215615cb757600080fd5b8235615cc2816157b1565b91506020830135615cd2816157b1565b809150509250929050565b600080600060608486031215615cf257600080fd5b8335615cfd816157b1565b9250602084013591506040840135615d14816157b1565b809150509250925092565b600060208284031215615d3157600080fd5b815161197d81615a2a565b600060208284031215615d4e57600080fd5b5051919050565b600181811c90821680615d6957607f821691505b60208210811415610d6a57634e487b7160e01b600052602260045260246000fd5b634e487b7160e01b600052602160045260246000fd5b6020808252601690820152751858d8dc9d59481a5b9d195c995cdd0819985a5b195960521b604082015260600190565b600060208284031215615de257600080fd5b815161197d81615bfb565b600080600060608486031215615e0257600080fd5b8351615e0d816157b1565b6020850151909350615e1e81615bfb565b604085015190925067ffffffffffffffff811115615e3b57600080fd5b8401601f81018613615e4c57600080fd5b8051615e5a6158648261581d565b818152876020838501011115615e6f57600080fd5b615e8082602083016020860161595d565b8093505050509250925092565b634e487b7160e01b600052601160045260246000fd5b60008219821115615eb657615eb6615e8d565b500190565b60008251615ecd81846020870161595d565b9190910192915050565b600060208284031215615ee957600080fd5b815161197d816157b1565b6001600160a01b039390931683526020830191909152604082015260600190565b600082821015615f2757615f27615e8d565b500390565b600082615f4957634e487b7160e01b600052601260045260246000fd5b500490565b6001600160a01b039384168152919092166020820152604081019190915260600190565b6000816000190483118215151615615f8c57615f8c615e8d565b500290565b60008060408385031215615fa457600080fd5b50508051602090910151909290915056feddf252ad1be2c89b69c2b068fc378daa952ba7f163c4a11628f55a4df523b3efa164736f6c634300080a000a608060405234801561001057600080fd5b5061613480620000216000396000f3fe6080604052600436106103b85760003560e01c80637f1e06be116101f2578063b2a02ff11161010d578063dd62ed3e116100a0578063f5e3c4621161006f578063f5e3c46214610ad5578063f8f9da2814610af5578063fca7820b14610b0a578063fe9c44ae14610b2a57600080fd5b8063dd62ed3e14610a2f578063ef01df4f14610a75578063f2b3abbd14610a95578063f3fdb15a14610ab557600080fd5b8063c5ebeaec116100dc578063c5ebeaec146109c3578063db006a75146109e3578063dbfe7c1914610a03578063dc028ab114610a1957600080fd5b8063b2a02ff114610932578063bd6d894d14610952578063be99f11914610967578063c37f68e21461098357600080fd5b8063a0712d6811610185578063aa5af0fd11610154578063aa5af0fd146108d7578063aaf5eb68146108ed578063ac784ddc14610909578063ae9d70b01461091d57600080fd5b8063a0712d6814610862578063a6afed9514610882578063a7b820df14610897578063a9059cbb146108b757600080fd5b806391dd36c6116101c157806391dd36c6146107ed57806395d89b411461080d57806395dd919314610822578063a03dce8d1461084257600080fd5b80637f1e06be14610781578063852a12e3146107a15780638d02d9a1146107c15780638f840ddd146107d757600080fd5b80633af9e669116102e2578063601a0bf1116102755780636f307dc3116102445780636f307dc3146106f657806370a082311461071657806373acee981461074c5780637e5465ba1461076157600080fd5b8063601a0bf11461068f57806361feacff146106af5780636752e702146106c55780636c540baf146106e057600080fd5b806350d85b73116102b157806350d85b731461060f57806356e677281461062f5780635c60da1b1461064f5780635fe3b5671461066f57600080fd5b80633af9e669146105b55780633b1d21a2146105d557806347bd3718146105ea5780634e71d92d1461060057600080fd5b806318160ddd1161035a57806323b872dd1161032957806323b872dd146105295780632608f81814610549578063313ce5671461056957806334154d4c1461059557600080fd5b806318160ddd146104d6578063182df0f5146104ec5780631db7894414610501578063219ef65c1461050957600080fd5b80630e752702116103965780630e7527021461043a57806315761d5114610468578063173b9904146104a057806317bfdfbc146104b657600080fd5b806306db3ecd146103bd57806306fdde03146103df578063095ea7b31461040a575b600080fd5b3480156103c957600080fd5b506103dd6103d83660046159ed565b610b3e565b005b3480156103eb57600080fd5b506103f4610c4c565b6040516104019190615b07565b60405180910390f35b34801561041657600080fd5b5061042a610425366004615b1a565b610cda565b6040519015158152602001610401565b34801561044657600080fd5b5061045a610455366004615b46565b610d4a565b604051908152602001610401565b34801561047457600080fd5b50600154610488906001600160a01b031681565b6040516001600160a01b039091168152602001610401565b3480156104ac57600080fd5b5061045a600b5481565b3480156104c257600080fd5b5061045a6104d1366004615b5f565b610d5e565b3480156104e257600080fd5b5061045a60125481565b3480156104f857600080fd5b5061045a610db5565b6103dd610e46565b34801561051557600080fd5b506103dd610524366004615b96565b610f77565b34801561053557600080fd5b5061042a610544366004615c5e565b6112a6565b34801561055557600080fd5b5061045a610564366004615b1a565b6112cc565b34801561057557600080fd5b506005546105839060ff1681565b60405160ff9091168152602001610401565b3480156105a157600080fd5b506103dd6105b0366004615ce1565b6112e2565b3480156105c157600080fd5b5061045a6105d0366004615b5f565b611349565b3480156105e157600080fd5b5061045a6113f9565b3480156105f657600080fd5b5061045a600e5481565b34801561060c57600080fd5b50005b34801561061b57600080fd5b506103dd61062a366004615d5b565b611408565b34801561063b57600080fd5b506103dd61064a366004615db4565b61148c565b34801561065b57600080fd5b50600054610488906001600160a01b031681565b34801561067b57600080fd5b50600654610488906001600160a01b031681565b34801561069b57600080fd5b5061045a6106aa366004615b46565b61176c565b3480156106bb57600080fd5b5061045a60105481565b3480156106d157600080fd5b5061045a666379da05b6000081565b3480156106ec57600080fd5b5061045a600c5481565b34801561070257600080fd5b50601654610488906001600160a01b031681565b34801561072257600080fd5b5061045a610731366004615b5f565b6001600160a01b031660009081526013602052604090205490565b34801561075857600080fd5b5061045a6117c3565b34801561076d57600080fd5b506103dd61077c366004615df6565b611808565b34801561078d57600080fd5b506103dd61079c366004615b5f565b611915565b3480156107ad57600080fd5b5061045a6107bc366004615b46565b6119da565b3480156107cd57600080fd5b5061045a60095481565b3480156107e357600080fd5b5061045a600f5481565b3480156107f957600080fd5b5061045a610808366004615b46565b6119e5565b34801561081957600080fd5b506103f4611a28565b34801561082e57600080fd5b5061045a61083d366004615b5f565b611a35565b34801561084e57600080fd5b5061045a61085d366004615b46565b611ad6565b34801561086e57600080fd5b5061045a61087d366004615b46565b611b19565b34801561088e57600080fd5b5061045a611b25565b3480156108a357600080fd5b5061045a6108b2366004615b46565b611cdc565b3480156108c357600080fd5b5061042a6108d2366004615b1a565b611d1f565b3480156108e357600080fd5b5061045a600d5481565b3480156108f957600080fd5b5061045a670de0b6b3a764000081565b34801561091557600080fd5b50600061042a565b34801561092957600080fd5b5061045a611d4c565b34801561093e57600080fd5b5061045a61094d366004615c5e565b611e0f565b34801561095e57600080fd5b5061045a611e33565b34801561097357600080fd5b5061045a67016345785d8a000081565b34801561098f57600080fd5b506109a361099e366004615b5f565b611e79565b604080519485526020850193909352918301526060820152608001610401565b3480156109cf57600080fd5b5061045a6109de366004615b46565b611f1a565b3480156109ef57600080fd5b5061045a6109fe366004615b46565b611f25565b348015610a0f57600080fd5b5061045a600a5481565b348015610a2557600080fd5b5061045a60115481565b348015610a3b57600080fd5b5061045a610a4a366004615df6565b6001600160a01b03918216600090815260146020908152604080832093909416825291909152205490565b348015610a8157600080fd5b50601754610488906001600160a01b031681565b348015610aa157600080fd5b5061045a610ab0366004615b5f565b611f30565b348015610ac157600080fd5b50600754610488906001600160a01b031681565b348015610ae157600080fd5b5061045a610af0366004615e2f565b611f68565b348015610b0157600080fd5b5061045a611f80565b348015610b1657600080fd5b5061045a610b25366004615b46565b611fe4565b348015610b3657600080fd5b50600161042a565b60006702c68af0bb14000090506000896001600160a01b031663313ce5676040518163ffffffff1660e01b8152600401602060405180830381865afa158015610b8b573d6000803e3d6000fd5b505050506040513d601f19601f82011682018060405250810190610baf9190615e71565b9050610bc2898989858a8a878b8b610f77565b601680546001600160a01b0319166001600160a01b038c16908117909155604080516318160ddd60e01b815290516318160ddd916004808201926020929091908290030181865afa158015610c1b573d6000803e3d6000fd5b505050506040513d601f19601f82011682018060405250810190610c3f9190615e8e565b5050505050505050505050565b60038054610c5990615ea7565b80601f0160208091040260200160405190810160405280929190818152602001828054610c8590615ea7565b8015610cd25780601f10610ca757610100808354040283529160200191610cd2565b820191906000526020600020905b815481529060010190602001808311610cb557829003601f168201915b505050505081565b3360008181526014602090815260408083206001600160a01b03871680855292528083208590555191929182907f8c5be1e5ebec7d5bd14f71427d1e84f3dd0314c0f7b2291e5b200ac8c7c3b92590610d369087815260200190565b60405180910390a360019150505b92915050565b600080610d5683612027565b509392505050565b600080610d6a8161208f565b6000610d74611b25565b14610d9a5760405162461bcd60e51b8152600401610d9190615ef2565b60405180910390fd5b610da383611a35565b91505b610daf81612153565b50919050565b6000806000610dc26121be565b90925090506000826003811115610ddb57610ddb615edc565b14610d445760405162461bcd60e51b815260206004820152603560248201527f65786368616e67655261746553746f7265643a2065786368616e67655261746560448201527414dd1bdc9959125b9d195c9b985b0819985a5b1959605a1b6064820152608401610d91565b333014801590610ec85750600660009054906101000a90046001600160a01b03166001600160a01b031663dd5cd22c6040518163ffffffff1660e01b8152600401602060405180830381865afa158015610ea4573d6000803e3d6000fd5b505050506040513d601f19601f82011682018060405250810190610ec89190615f22565b15610f7557600154600080546040516345cc970560e01b81526001600160a01b039182166004820152919283928392909116906345cc970590602401600060405180830381865afa158015610f21573d6000803e3d6000fd5b505050506040513d6000823e601f3d908101601f19168201604052610f499190810190615f3f565b60005492955090935091506001600160a01b03808516911614610f7157610f7183838361228b565b5050505b565b336001600160a01b03891614610fe15760405162461bcd60e51b815260206004820152602960248201527f6f6e6c7920467573652061646d696e206d617920696e697469616c697a6520746044820152681a19481b585c9ad95d60ba1b6064820152608401610d91565b600c54158015610ff15750600d54155b6110495760405162461bcd60e51b815260206004820152602360248201527f6d61726b6574206d6179206f6e6c7920626520696e697469616c697a6564206f6044820152626e636560e81b6064820152608401610d91565b600180546001600160a01b0319166001600160a01b038a161790556008869055856110cf5760405162461bcd60e51b815260206004820152603060248201527f696e697469616c2065786368616e67652072617465206d75737420626520677260448201526f32b0ba32b9103a3430b7103d32b9379760811b6064820152608401610d91565b60006110da8a612410565b9050801561112a5760405162461bcd60e51b815260206004820152601a60248201527f73657474696e6720636f6d7074726f6c6c6572206661696c65640000000000006044820152606401610d91565b43600c55670de0b6b3a7640000600d556111438861253b565b9050801561119e5760405162461bcd60e51b815260206004820152602260248201527f73657474696e6720696e7465726573742072617465206d6f64656c206661696c604482015261195960f21b6064820152608401610d91565b85516111b19060039060208901906157fa565b5084516111c59060049060208801906157fa565b506005805460ff191660ff86161790556111de836127ab565b9050801561122e5760405162461bcd60e51b815260206004820152601d60248201527f73657474696e67207265736572766520666163746f72206661696c65640000006044820152606401610d91565b6112378261284a565b905080156112875760405162461bcd60e51b815260206004820152601860248201527f73657474696e672061646d696e20666565206661696c656400000000000000006044820152606401610d91565b50506002805460ff60b01b1916600160b01b1790555050505050505050565b6000806112b28161208f565b60006112c033878787612964565b149150610d5681612153565b6000806112d98484612c02565b50949350505050565b6112ea612c6c565b6113295760405162461bcd60e51b815260206004820152601060248201526f31b0b63632b9103737ba1030b236b4b760811b6044820152606401610d91565b6113356003858561587a565b506113426004838361587a565b5050505050565b600080604051806020016040528061135f611e33565b90526001600160a01b03841660009081526013602052604081205491925090819061138b908490612dd7565b909250905060008260038111156113a4576113a4615edc565b146113f15760405162461bcd60e51b815260206004820152601f60248201527f62616c616e636520636f756c64206e6f742062652063616c63756c61746564006044820152606401610d91565b949350505050565b6000611403612e2a565b905090565b611410612c6c565b6114455760405162461bcd60e51b815260206004820152600660248201526510b0b236b4b760d11b6044820152606401610d91565b611486848484848080601f01602080910402602001604051908101604052809392919081815260200183838082843760009201919091525061228b92505050565b50505050565b3330148061149d575061149d612c6c565b6114a657600080fd5b60006114b482840184615b5f565b90506001600160a01b0381166114f05760405162461bcd60e51b81526020600482015260016024820152600360fc1b6044820152606401610d91565b6017546001600160a01b03161580159061157457506017546040516370a0823160e01b81523060048201526001600160a01b03909116906370a0823190602401602060405180830381865afa15801561154d573d6000803e3d6000fd5b505050506040513d601f19601f820116820180604052508101906115719190615e8e565b15155b1561165e576017546040516370a0823160e01b81523060048201526001600160a01b039091169063ba0876529082906370a0823190602401602060405180830381865afa1580156115c9573d6000803e3d6000fd5b505050506040513d601f19601f820116820180604052508101906115ed9190615e8e565b6040516001600160e01b031960e084901b1681526004810191909152306024820181905260448201526064016020604051808303816000875af1158015611638573d6000803e3d6000fd5b505050506040513d601f19601f8201168201806040525081019061165c9190615e8e565b505b601780546001600160a01b0319166001600160a01b0383811691821790925560165460405163095ea7b360e01b8152600481019290925260001960248301529091169063095ea7b3906044016020604051808303816000875af11580156116c9573d6000803e3d6000fd5b505050506040513d601f19601f820116820180604052508101906116ed9190615f22565b506016546040516370a0823160e01b81523060048201526000916001600160a01b0316906370a0823190602401602060405180830381865afa158015611737573d6000803e3d6000fd5b505050506040513d601f19601f8201168201806040525081019061175b9190615e8e565b905080156114865761148681612ebd565b6000806117788161208f565b6000611782611b25565b905080156117ae576117a681601181111561179f5761179f615edc565b603b612f36565b925050610da6565b6117b784612faf565b925050610daf81612153565b6000806117cf8161208f565b60006117d9611b25565b146117f65760405162461bcd60e51b8152600401610d9190615ef2565b600e54915061180481612153565b5090565b611810612c6c565b6118455760405162461bcd60e51b815260206004820152600660248201526510b0b236b4b760d11b6044820152606401610d91565b6016546001600160a01b0383811691161480159061187157506017546001600160a01b03838116911614155b6118a15760405162461bcd60e51b81526020600482015260016024820152602160f81b6044820152606401610d91565b60405163095ea7b360e01b81526001600160a01b038281166004830152600019602483015283169063095ea7b3906044016020604051808303816000875af11580156118f1573d6000803e3d6000fd5b505050506040513d601f19601f82011682018060405250810190610f719190615f22565b61191d612c6c565b61197f5760405162461bcd60e51b815260206004820152602d60248201527f6f6e6c79207468652061646d696e206d6179207365742074686520636f6d702d60448201526c6c696b652064656c656761746560981b6064820152608401610d91565b6016546040516317066a5760e21b81526001600160a01b03838116600483015290911690635c19a95c90602401600060405180830381600087803b1580156119c657600080fd5b505af1158015611342573d6000803e3d6000fd5b6000610d4482613060565b6000806119f18161208f565b60006119fb611b25565b90508015611a1f576117a6816011811115611a1857611a18615edc565b6052612f36565b6117b78461284a565b60048054610c5990615ea7565b6000806000611a43846130a6565b90925090506000826003811115611a5c57611a5c615edc565b14611acf5760405162461bcd60e51b815260206004820152603760248201527f626f72726f7742616c616e636553746f7265643a20626f72726f7742616c616e60448201527f636553746f726564496e7465726e616c206661696c65640000000000000000006064820152608401610d91565b9392505050565b600080611ae28161208f565b6000611aec611b25565b90508015611b10576117a6816011811115611b0957611b09615edc565b6033612f36565b6117b78461315f565b600080610d56836131d2565b600c546000904390811415611b3d5760005b91505090565b6000611b47612e2a565b90506000600760009054906101000a90046001600160a01b03166001600160a01b03166315f2405383600e54611b8c600f54611b87601054601154613218565b613218565b6040516001600160e01b031960e086901b168152600481019390935260248301919091526044820152606401602060405180830381865afa158015611bd5573d6000803e3d6000fd5b505050506040513d601f19601f82011682018060405250810190611bf99190615e8e565b905065048c27395000811115611c515760405162461bcd60e51b815260206004820152601c60248201527f626f72726f772072617465206973206162737572646c792068696768000000006044820152606401610d91565b600080611c6085600c5461324e565b90925090506000826003811115611c7957611c79615edc565b14611cc65760405162461bcd60e51b815260206004820152601f60248201527f636f756c64206e6f742063616c63756c61746520626c6f636b2064656c7461006044820152606401610d91565b611cd285858584613279565b9550505050505090565b600080611ce88161208f565b6000611cf2611b25565b90508015611d16576117a6816011811115611d0f57611d0f615edc565b6037612f36565b6117b7846133a5565b600080611d2b8161208f565b6000611d3933338787612964565b149150611d4581612153565b5092915050565b6007546000906001600160a01b031663b8168816611d68612e2a565b600e54611d7f600f54611b87601054601154613218565b600954600a54600b54611d929190615ff5565b611d9c9190615ff5565b6040516001600160e01b031960e087901b16815260048101949094526024840192909252604483015260648201526084015b602060405180830381865afa158015611deb573d6000803e3d6000fd5b505050506040513d601f19601f820116820180604052508101906114039190615e8e565b60006001611e1c8161208f565b611e2833868686613483565b9150610d5681612153565b600080611e3f8161208f565b6000611e49611b25565b14611e665760405162461bcd60e51b8152600401610d9190615ef2565b611e6e610db5565b915061180481612153565b6001600160a01b038116600090815260136020526040812054819081908190818080611ea4896130a6565b935090506000816003811115611ebc57611ebc615edc565b14611eda5760095b6000806000975097509750975050505050611f13565b611ee26121be565b925090506000816003811115611efa57611efa615edc565b14611f06576009611ec4565b5060009650919450925090505b9193509193565b6000610d4482613980565b6000610d44826139c4565b600080611f3b611b25565b90508015611f5f57611acf816011811115611f5857611f58615edc565b604b612f36565b611acf8361253b565b600080611f76858585613a03565b5095945050505050565b6007546000906001600160a01b03166315f24053611f9c612e2a565b600e54611fb3600f54611b87601054601154613218565b6040516001600160e01b031960e086901b168152600481019390935260248301919091526044820152606401611dce565b600080611ff08161208f565b6000611ffa611b25565b9050801561201e576117a681601181111561201757612017615edc565b6059612f36565b6117b7846127ab565b60008060006120358161208f565b600061203f611b25565b9050801561206f5761206381601181111561205c5761205c615edc565b6041612f36565b60009350935050612080565b61207a333387613af7565b93509350505b61208981612153565b50915091565b600254600160b01b900460ff166120d55760405162461bcd60e51b815260206004820152600a6024820152691c994b595b9d195c995960b21b6044820152606401610d91565b8061214357600660009054906101000a90046001600160a01b03166001600160a01b031663c90c20b16040518163ffffffff1660e01b8152600401600060405180830381600087803b15801561212a57600080fd5b505af115801561213e573d6000803e3d6000fd5b505050505b506002805460ff60b01b19169055565b6002805460ff60b01b1916600160b01b179055806121bb57600660009054906101000a90046001600160a01b03166001600160a01b031663632e51426040518163ffffffff1660e01b8152600401600060405180830381600087803b1580156119c657600080fd5b50565b6012546000908190806121d8575050600854600092909150565b60006121e2612e2a565b905060006121fc6040518060200160405280600081525090565b600061221e84600e54612219600f54611b87601054601154613218565b613f11565b93509050600081600381111561223657612236615edc565b14612248579660009650945050505050565b6122528386613f63565b92509050600081600381111561226a5761226a615edc565b1461227c579660009650945050505050565b50516000969095509350505050565b6001546000546040516338e6a07360e11b81526001600160a01b039182166004820152858216602482015284151560448201529116906371cd40e690606401602060405180830381865afa1580156122e7573d6000803e3d6000fd5b505050506040513d601f19601f8201168201806040525081019061230b9190615f22565b61233f5760405162461bcd60e51b8152602060048201526005602482015264085a5b5c1b60da1b6044820152606401610d91565b600080546001600160a01b038581166001600160a01b03198316179092556040519116906123c2903090612377908590602401615b07565b60408051601f19818403018152918152602080830180516001600160e01b0316630adccee560e31b17905281518083019092526007825266216265636f6d6560c81b9082015261402e565b50600054604080516001600160a01b03808516825290921660208301527fd604de94d45953f9138079ec1b82d533cb2160c906d1076d1f7ed54befbca97a910160405180910390a150505050565b600080600660009054906101000a90046001600160a01b03169050826001600160a01b0316627e3dd26040518163ffffffff1660e01b8152600401602060405180830381865afa158015612468573d6000803e3d6000fd5b505050506040513d601f19601f8201168201806040525081019061248c9190615f22565b6124d85760405162461bcd60e51b815260206004820152601c60248201527f6d61726b6572206d6574686f642072657475726e65642066616c7365000000006044820152606401610d91565b600680546001600160a01b0319166001600160a01b0385811691821790925560408051928416835260208301919091527f7ac369dbd14fa5ea3f473ed67cc9d598964a77501540ba6751eb0b3decf5870d91015b60405180910390a16000611acf565b600080612546612c6c565b61255657611acf6001604d612f36565b43600c541461256b57611acf600a604c612f36565b600760009054906101000a90046001600160a01b03169050826001600160a01b0316632191f92a6040518163ffffffff1660e01b8152600401602060405180830381865afa1580156125c1573d6000803e3d6000fd5b505050506040513d601f19601f820116820180604052508101906125e59190615f22565b6126315760405162461bcd60e51b815260206004820152601c60248201527f6d61726b6572206d6574686f642072657475726e65642066616c7365000000006044820152606401610d91565b600780546001600160a01b0319166001600160a01b0385811691821790925560408051928416835260208301919091527fedffc32e068c7c95dfd4bdfd5c4d939a084d6b11c4199eac8436ed234d72f926910160405180910390a16001600160a01b0381161561271f5760408051600481526024810182526020810180516001600160e01b0316636cc1140b60e11b17905290516001600160a01b038316916126d99161600d565b6000604051808303816000865af19150503d8060008114612716576040519150601f19603f3d011682016040523d82523d6000602084013e61271b565b606091505b5050505b60408051600481526024810182526020810180516001600160e01b031663742a137b60e11b17905290516001600160a01b0385169161275d9161600d565b6000604051808303816000865af19150503d806000811461279a576040519150601f19603f3d011682016040523d82523d6000602084013e61279f565b606091505b5060009150611acf9050565b60006127b5612c6c565b6127c557610d446001605a612f36565b43600c54146127da57610d44600a605b612f36565b670de0b6b3a76400006127fa6127f284600954613218565b600a54613218565b111561280c57610d446002605c612f36565b600b80549083905560408051828152602081018590527faaa68312e2ea9d50e16af5068410ab56e1a1fd06037b1a35664812c30f821460910161252c565b600043600c541461286157610d44600a6054612f36565b6000198214156128715760095491505b600061287b6140ca565b9050670de0b6b3a764000061289b612895600b5486613218565b83613218565b11156128ad57611acf60026055612f36565b8260095414612911576128be612c6c565b6128ce57611acf60016053612f36565b600980549084905560408051828152602081018690527fcdd0b588250e1398549f79cfdb8217c186688822905d6715b0834ea1c865594a910160405180910390a1505b80600a541461295d57600a80549082905560408051828152602081018490527f92eef861b6533b7d3417f39c2ad7b460eed4e88a32fa3604f30e718b7602e7dc910160405180910390a1505b6000611acf565b6006546040516317b9b84b60e31b81523060048201526001600160a01b038581166024830152848116604483015260648201849052600092839291169063bdcdc258906084016020604051808303816000875af11580156129c9573d6000803e3d6000fd5b505050506040513d601f19601f820116820180604052508101906129ed9190615e8e565b90508015612a0a57612a026003605d83614114565b9150506113f1565b836001600160a01b0316856001600160a01b03161415612a3057612a026002605e612f36565b6000856001600160a01b0316876001600160a01b03161415612a555750600019612a7d565b506001600160a01b038086166000908152601460209081526040808320938a16835292905220545b600080600080612a8d858961324e565b90945092506000846003811115612aa657612aa6615edc565b14612ac457612ab76009605e612f36565b96505050505050506113f1565b6001600160a01b038a16600090815260136020526040902054612ae7908961324e565b90945091506000846003811115612b0057612b00615edc565b14612b1157612ab76009605f612f36565b6001600160a01b038916600090815260136020526040902054612b3490896141b6565b90945090506000846003811115612b4d57612b4d615edc565b14612b5e57612ab760096060612f36565b6001600160a01b03808b16600090815260136020526040808220859055918b168152208190556000198514612bb6576001600160a01b03808b166000908152601460209081526040808320938f168352929052208390555b886001600160a01b03168a6001600160a01b03166000805160206161088339815191528a604051612be991815260200190565b60405180910390a35060009a9950505050505050505050565b6000806000612c108161208f565b6000612c1a611b25565b90508015612c4a57612c3e816011811115612c3757612c37615edc565b6040612f36565b60009350935050612c5b565b612c55338787613af7565b93509350505b612c6481612153565b509250929050565b600654604080516303e1469160e61b815290516000926001600160a01b031691829163f851a440916004808201926020929091908290030181865afa158015612cb9573d6000803e3d6000fd5b505050506040513d601f19601f82011682018060405250810190612cdd9190616029565b6001600160a01b0316336001600160a01b0316148015612d5a5750806001600160a01b0316630a755ec26040518163ffffffff1660e01b8152600401602060405180830381865afa158015612d36573d6000803e3d6000fd5b505050506040513d601f19601f82011682018060405250810190612d5a9190615f22565b80611b3757506001546001600160a01b031633148015611b375750806001600160a01b0316632f1069ba6040518163ffffffff1660e01b8152600401602060405180830381865afa158015612db3573d6000803e3d6000fd5b505050506040513d601f19601f82011682018060405250810190611b379190615f22565b600080600080612de786866141e6565b90925090506000826003811115612e0057612e00615edc565b14612e115750915060009050612e23565b6000612e1c82614262565b9350935050505b9250929050565b6017546040516370a0823160e01b81523060048201526000916001600160a01b031690634cdad5069082906370a0823190602401602060405180830381865afa158015612e7b573d6000803e3d6000fd5b505050506040513d601f19601f82011682018060405250810190612e9f9190615e8e565b6040518263ffffffff1660e01b8152600401611dce91815260200190565b601754604051636e553f6560e01b8152600481018390523060248201526001600160a01b0390911690636e553f65906044016020604051808303816000875af1158015612f0e573d6000803e3d6000fd5b505050506040513d601f19601f82011682018060405250810190612f329190615e8e565b5050565b60007f45b96fe442630264581b197e84bbada861235052c5a1aadfff9ea4e40a969aa0836011811115612f6b57612f6b615edc565b836063811115612f7d57612f7d615edc565b60408051928352602083019190915260009082015260600160405180910390a1826011811115611acf57611acf615edc565b600080612fba612c6c565b612fca57611acf6001603c612f36565b43600c5414612fdf57611acf600a603e612f36565b82612fe8612e2a565b1015612ffa57611acf600e603d612f36565b600f5483111561301057611acf6002603f612f36565b61301c600f548461427a565b600f819055905061302d33846142b4565b7f3bad0c59cf2f06e7314077049f48a93578cd16f5ef92329f1dab1420a99c177e33848360405161252c93929190616046565b60008061306c8161208f565b6000613076611b25565b9050801561309a576117a681601181111561309357613093615edc565b602a612f36565b6117b733600086614331565b6001600160a01b0381166000908152601560205260408120805482918291829182916130db5750600096879650945050505050565b6130eb8160000154600d546148b7565b9094509250600084600381111561310457613104615edc565b1461311757509195600095509350505050565b613125838260010154614901565b9094509150600084600381111561313e5761313e615edc565b1461315157509195600095509350505050565b506000969095509350505050565b60008043600c541461317757611acf600a6035612f36565b82613180612e2a565b101561319257611acf600e6034612f36565b6011548311156131a857611acf60026036612f36565b6131b46011548461427a565b601181905560015490915061295d906001600160a01b0316846142b4565b60008060006131e08161208f565b60006131ea611b25565b9050801561320e5761206381601181111561320757613207615edc565b6020612f36565b61207a338661492c565b6000611acf8383604051806040016040528060118152602001706164646974696f6e206f766572666c6f7760781b815250614cea565b60008083831161326d5760006132648486616067565b91509150612e23565b50600390506000612e23565b60008061329460405180602001604052808681525084614d1b565b905060006132a482600e54614d4c565b905060006132b482600e54613218565b905060006132d56040518060200160405280600b5481525084600f54614d64565b905060006132f66040518060200160405280600a5481525085601154614d64565b90506000613317604051806020016040528060095481525086601054614d64565b9050600061332a87600d54600d54614d64565b600c8d9055600d819055600e869055600f85905560118490556010839055604080518d815260208101899052908101829052606081018790529091507f4dec04e750ca11537cabcd8a9eab06494de08da3735bc8871cd41250e190bc049060800160405180910390a160009c9b505050505050505050505050565b60008043600c54146133bd57611acf600a6039612f36565b826133c6612e2a565b10156133d857611acf600e6038612f36565b6010548311156133ee57611acf6002603a612f36565b6133fa6010548461427a565b90508060108190555061295d600660009054906101000a90046001600160a01b03166001600160a01b031663f851a4406040518163ffffffff1660e01b8152600401602060405180830381865afa158015613459573d6000803e3d6000fd5b505050506040513d601f19601f8201168201806040525081019061347d9190616029565b846142b4565b60065460405163d02f735160e01b81523060048201526001600160a01b0386811660248301528581166044830152848116606483015260848201849052600092839291169063d02f73519060a4016020604051808303816000875af11580156134f0573d6000803e3d6000fd5b505050506040513d601f19601f820116820180604052508101906135149190615e8e565b9050801561352957612a026003601d83614114565b846001600160a01b0316846001600160a01b0316141561354f57612a026006601e612f36565b6135b4604080516101808101909152806000815260200160008152602001600081526020016000815260200160008152602001600081526020016000815260200160008152602001600081526020016000815260200160008152602001600081525090565b6001600160a01b0385166000908152601360205260409020546135d7908561324e565b60208301819052828260038111156135f1576135f1615edc565b600381111561360257613602615edc565b905250600090508151600381111561361c5761361c615edc565b1461364c576136436009601c8360000151600381111561363e5761363e615edc565b614114565b925050506113f1565b61366b846040518060200160405280666379da05b60000815250614d85565b6080820152604080516020810190915267016345785d8a00008152613691908590614d85565b61014082015260808101516136b6906136ab90869061427a565b82610140015161427a565b60608201526136c36121be565b60c08301819052828260038111156136dd576136dd615edc565b60038111156136ee576136ee615edc565b905250600090508151600381111561370857613708615edc565b146137555760405162461bcd60e51b815260206004820152601860248201527f65786368616e67652072617465206d617468206572726f7200000000000000006044820152606401610d91565b61377560405180602001604052808360c001518152508260800151614d4c565b60a0820152604080516020810190915260c0820151815261014082015161379c9190614d4c565b610160820152600f5460a08201516137b49190613218565b60e082015260125460808201516137ce916136ab9161427a565b6101208201526011546101608201516137e79190613218565b6101008201526001600160a01b038616600090815260136020526040902054606082015161381591906141b6565b604083018190528282600381111561382f5761382f615edc565b600381111561384057613840615edc565b905250600090508151600381111561385a5761385a615edc565b1461387c576136436009601b8360000151600381111561363e5761363e615edc565b60e0810151600f556101208101516012556101008101516011556020808201516001600160a01b0387811660008181526013855260408082209490945583860151928b1680825290849020929092556060850151925192835290929091600080516020616108833981519152910160405180910390a3306001600160a01b0316856001600160a01b0316600080516020616108833981519152836080015160405161392991815260200190565b60405180910390a360a081015160e08201516040517fa91e67c5ea634cd43a12c5a482724b03de01e85ca68702a53d0c2f45cb7c1dc59261396b923092616046565b60405180910390a16000979650505050505050565b60008061398c8161208f565b6000613996611b25565b905080156139ba576117a68160118111156139b3576139b3615edc565b600a612f36565b6117b73385614da8565b6000806139d08161208f565b60006139da611b25565b905080156139f7576117a681601181111561309357613093615edc565b6117b733856000614331565b6000806000613a118161208f565b6000613a1b611b25565b90508015613a4b57613a3f816011811115613a3857613a38615edc565b6011612f36565b60009350935050613ae5565b846001600160a01b031663a6afed956040518163ffffffff1660e01b81526004016020604051808303816000875af1158015613a8b573d6000803e3d6000fd5b505050506040513d601f19601f82011682018060405250810190613aaf9190615e8e565b90508015613ad357613a3f816011811115613acc57613acc615edc565b6012612f36565b613adf3388888861513c565b93509350505b613aee81612153565b50935093915050565b600654604051631200453160e11b81523060048201526001600160a01b03858116602483015284811660448301526064820184905260009283928392909116906324008a62906084016020604051808303816000875af1158015613b5f573d6000803e3d6000fd5b505050506040513d601f19601f82011682018060405250810190613b839190615e8e565b90508015613ba457613b986003604383614114565b60009250925050613f09565b43600c5414613bb957613b98600a6044612f36565b613c026040805161010081019091528060008152602001600081526020016000815260200160008152602001600081526020016000815260200160008152602001600081525090565b6001600160a01b0386166000908152601560205260409020600101546060820152613c2c866130a6565b6080830181905260208301826003811115613c4957613c49615edc565b6003811115613c5a57613c5a615edc565b9052506000905081602001516003811115613c7757613c77615edc565b14613ca657613c99600960428360200151600381111561363e5761363e615edc565b6000935093505050613f09565b600019851415613cbf5760808101516040820152613cc7565b604081018590525b613cd58782604001516155fd565b60e082018190526080820151613cea9161324e565b60a0830181905260208301826003811115613d0757613d07615edc565b6003811115613d1857613d18615edc565b9052506000905081602001516003811115613d3557613d35615edc565b14613da85760405162461bcd60e51b815260206004820152603a60248201527f52455041595f424f52524f575f4e45575f4143434f554e545f424f52524f575f60448201527f42414c414e43455f43414c43554c4154494f4e5f4641494c45440000000000006064820152608401610d91565b613db8600e548260e0015161324e565b60c0830181905260208301826003811115613dd557613dd5615edc565b6003811115613de657613de6615edc565b9052506000905081602001516003811115613e0357613e03615edc565b14613e6a5760405162461bcd60e51b815260206004820152603160248201527f52455041595f424f52524f575f4e45575f544f54414c5f42414c414e43455f43604482015270105310d55310551253d397d19052531151607a1b6064820152608401610d91565b60a081810180516001600160a01b03898116600081815260156020908152604091829020948555600d5460019095019490945560c0870151600e81905560e088015195518251948f16855294840192909252820193909352606081019190915260808101919091527f1a2a22cb034d26d1854bdc6666a5b91fe25efbbb5dcad3b0355478d6f5c362a1910160405180910390a160e00151600093509150505b935093915050565b600080600080613f2187876141b6565b90925090506000826003811115613f3a57613f3a615edc565b14613f4b5750915060009050613f09565b613f55818661324e565b935093505050935093915050565b6000613f7b6040518060200160405280600081525090565b600080613f9086670de0b6b3a76400006148b7565b90925090506000826003811115613fa957613fa9615edc565b14613fc857506040805160208101909152600081529092509050612e23565b600080613fd58388614901565b90925090506000826003811115613fee57613fee615edc565b146140115781604051806020016040528060008152509550955050505050612e23565b604080516020810190915290815260009890975095505050505050565b6060600080856001600160a01b03168560405161404b919061600d565b6000604051808303816000865af19150503d8060008114614088576040519150601f19603f3d011682016040523d82523d6000602084013e61408d565b606091505b5091509150816140c1578051156140a75780518082602001fd5b8360405162461bcd60e51b8152600401610d919190615b07565b95945050505050565b6001546040805163dd86fea160e01b815290516000926001600160a01b03169163dd86fea19160048083019260209291908290030181865afa158015611deb573d6000803e3d6000fd5b60007f45b96fe442630264581b197e84bbada861235052c5a1aadfff9ea4e40a969aa084601181111561414957614149615edc565b84606381111561415b5761415b615edc565b604080519283526020830191909152810184905260600160405180910390a1600384601181111561418e5761418e615edc565b146141aa578360118111156141a5576141a5615edc565b6113f1565b6113f1826103e8615ff5565b600080806141c48486615ff5565b90508481106141d857600092509050612e23565b600260009250925050612e23565b60006141fe6040518060200160405280600081525090565b60008061420f8660000151866148b7565b9092509050600082600381111561422857614228615edc565b1461424757506040805160208101909152600081529092509050612e23565b60408051602081019091529081526000969095509350505050565b8051600090610d4490670de0b6b3a76400009061607e565b6000611acf8383604051806040016040528060158152602001747375627472616374696f6e20756e646572666c6f7760581b8152506156b3565b601754604051632d182be560e21b8152600481018390526001600160a01b0384811660248301523060448301529091169063b460af94906064016020604051808303816000875af115801561430d573d6000803e3d6000fd5b505050506040513d601f19601f82011682018060405250810190610f719190615e8e565b600082158061433e575081155b6143a75760405162461bcd60e51b815260206004820152603460248201527f6f6e65206f662072656465656d546f6b656e73496e206f722072656465656d416044820152736d6f756e74496e206d757374206265207a65726f60601b6064820152608401610d91565b6143e86040805160e0810190915280600081526020016000815260200160008152602001600081526020016000815260200160008152602001600081525090565b6143f06121be565b604083018190526020830182600381111561440d5761440d615edc565b600381111561441e5761441e615edc565b905250600090508160200151600381111561443b5761443b615edc565b146144655761445d6009602e8360200151600381111561363e5761363e615edc565b915050611acf565b83156144fe57606081018490526040805160208101825290820151815261448c9085612dd7565b60808301819052602083018260038111156144a9576144a9615edc565b60038111156144ba576144ba615edc565b90525060009050816020015160038111156144d7576144d7615edc565b146144f95761445d6009602c8360200151600381111561363e5761363e615edc565b61458f565b61451a83604051806020016040528084604001518152506156e2565b606083018190526020830182600381111561453757614537615edc565b600381111561454857614548615edc565b905250600090508160200151600381111561456557614565615edc565b146145875761445d6009602d8360200151600381111561363e5761363e615edc565b608081018390525b600654606082015160405163eabe7d9160e01b81526000926001600160a01b03169163eabe7d91916145c89130918b91906004016160a0565b6020604051808303816000875af11580156145e7573d6000803e3d6000fd5b505050506040513d601f19601f8201168201806040525081019061460b9190615e8e565b90508015614629576146206003602b83614114565b92505050611acf565b43600c541461463e57614620600a602f612f36565b61464e601254836060015161324e565b60a084018190526020840182600381111561466b5761466b615edc565b600381111561467c5761467c615edc565b905250600090508260200151600381111561469957614699615edc565b146146bb57614620600960318460200151600381111561363e5761363e615edc565b6001600160a01b03861660009081526013602052604090205460608301516146e3919061324e565b60c084018190526020840182600381111561470057614700615edc565b600381111561471157614711615edc565b905250600090508260200151600381111561472e5761472e615edc565b1461475057614620600960308460200151600381111561363e5761363e615edc565b816080015161475d612e2a565b101561476f57614620600e6032612f36565b60a082015160125560c08201516001600160a01b03871660009081526013602052604090205560808201516147a59087906142b4565b306001600160a01b0316866001600160a01b031660008051602061610883398151915284606001516040516147dc91815260200190565b60405180910390a3608082015160608301516040517fe5b754fb1abb7f01b499791d0b820ae3b6af3424ac1c59768edb53f4ec31a9299261481e928a92616046565b60405180910390a1600654608083015160608401516040516351dff98960e01b81523060048201526001600160a01b038a81166024830152604482019390935260648101919091529116906351dff98990608401600060405180830381600087803b15801561488c57600080fd5b505af11580156148a0573d6000803e3d6000fd5b50600092506148ad915050565b9695505050505050565b600080836148ca57506000905080612e23565b60006148d684866160c4565b9050836148e3868361607e565b146148f657600260009250925050612e23565b600092509050612e23565b600080826149155750600190506000612e23565b6000614921848661607e565b915091509250929050565b600654604051634ef4c3e160e01b8152600091829182916001600160a01b031690634ef4c3e190614965903090899089906004016160a0565b6020604051808303816000875af1158015614984573d6000803e3d6000fd5b505050506040513d601f19601f820116820180604052508101906149a89190615e8e565b905080156149c9576149bd6003602183614114565b60009250925050612e23565b43600c54146149de576149bd600a6024612f36565b614a1f6040805160e0810190915280600081526020016000815260200160008152602001600081526020016000815260200160008152602001600081525090565b614a276121be565b6040830181905260208301826003811115614a4457614a44615edc565b6003811115614a5557614a55615edc565b9052506000905081602001516003811115614a7257614a72615edc565b14614aa157614a94600960238360200151600381111561363e5761363e615edc565b6000935093505050612e23565b614aab86866155fd565b60c0820181905260408051602081018252908301518152614acc91906156e2565b6060830181905260208301826003811115614ae957614ae9615edc565b6003811115614afa57614afa615edc565b9052506000905081602001516003811115614b1757614b17615edc565b14614b645760405162461bcd60e51b815260206004820181905260248201527f4d494e545f45584348414e47455f43414c43554c4154494f4e5f4641494c45446044820152606401610d91565b614b746012548260600151613218565b60808201526001600160a01b0386166000908152601360205260409020546060820151614ba19190613218565b60a0820181905260808201516012556001600160a01b038716600090815260136020526040908190209190915560c0820151606083015191517f4c209b5fc8ad50758f13e2e1088ba56a560dff690a1c6fef26394f4c03821c4f92614c0a928a92909190616046565b60405180910390a1856001600160a01b0316306001600160a01b03166000805160206161088339815191528360600151604051614c4991815260200190565b60405180910390a360065460c082015160608301516040516341c728b960e01b81523060048201526001600160a01b038a81166024830152604482019390935260648101919091529116906341c728b990608401600060405180830381600087803b158015614cb757600080fd5b505af1158015614ccb573d6000803e3d6000fd5b5060009250614cd8915050565b8160c001519350935050509250929050565b600080614cf78486615ff5565b905082858210156112d95760405162461bcd60e51b8152600401610d919190615b07565b6040805160208101909152600081526040518060200160405280614d438560000151856156f2565b90529392505050565b600080614d598484614d1b565b90506113f181614262565b600080614d718585614d1b565b90506140c1614d7f82614262565b84613218565b6000670de0b6b3a7640000614d9e8484600001516156f2565b611acf919061607e565b60065460405163368f515360e21b815260009182916001600160a01b039091169063da3d454c90614de1903090889088906004016160a0565b6020604051808303816000875af1158015614e00573d6000803e3d6000fd5b505050506040513d601f19601f82011682018060405250810190614e249190615e8e565b90508015614e4157614e396003601083614114565b915050610d44565b43600c5414614e5657614e39600a600c612f36565b6000614e60612e2a565b905083811015614e7f57614e76600e600b612f36565b92505050610d44565b614eab604080516080810190915280600081526020016000815260200160008152602001600081525090565b614eb4866130a6565b6020830181905282826003811115614ece57614ece615edc565b6003811115614edf57614edf615edc565b9052506000905081516003811115614ef957614ef9615edc565b14614f2457614f1a6009808360000151600381111561363e5761363e615edc565b9350505050610d44565b614f328160200151866141b6565b6040830181905282826003811115614f4c57614f4c615edc565b6003811115614f5d57614f5d615edc565b9052506000905081516003811115614f7757614f77615edc565b14614f9957614f1a6009600e8360000151600381111561363e5761363e615edc565b6006546040828101519051631de6c8a560e21b815230600482015260248101919091526001600160a01b039091169063779b2294906044016020604051808303816000875af1158015614ff0573d6000803e3d6000fd5b505050506040513d601f19601f820116820180604052508101906150149190615e8e565b9250821561502957614f1a6003601085614114565b615035600e54866141b6565b606083018190528282600381111561504f5761504f615edc565b600381111561506057615060615edc565b905250600090508151600381111561507a5761507a615edc565b1461509c57614f1a6009600d8360000151600381111561363e5761363e615edc565b6040808201516001600160a01b0388166000908152601560205291909120908155600d546001909101556060810151600e556150d886866142b4565b60408082015160608084015183516001600160a01b038b168152602081018a9052938401929092528201527f13ed6866d4e1ee6da46f845c46d7e54120883d75c5ea9a2dacc1c4ca8984ab809060800160405180910390a160009695505050505050565b600654604051632fe3f38f60e11b81523060048201526001600160a01b03838116602483015286811660448301528581166064830152608482018590526000928392839290911690635fc7e71e9060a4016020604051808303816000875af11580156151ac573d6000803e3d6000fd5b505050506040513d601f19601f820116820180604052508101906151d09190615e8e565b905080156151f1576151e56003601483614114565b600092509250506155f4565b43600c5414615206576151e5600a6018612f36565b43846001600160a01b0316636c540baf6040518163ffffffff1660e01b8152600401602060405180830381865afa158015615245573d6000803e3d6000fd5b505050506040513d601f19601f820116820180604052508101906152699190615e8e565b1461527a576151e5600a6013612f36565b866001600160a01b0316866001600160a01b031614156152a0576151e560066019612f36565b846152b1576151e560076017612f36565b6000198514156152c7576151e560076016612f36565b6000806152d5898989613af7565b9092509050811561530a576152fc8260118111156152f5576152f5615edc565b601a612f36565b6000945094505050506155f4565b60065460405163c488847b60e01b815260009182916001600160a01b039091169063c488847b906153439030908c9088906004016160a0565b6040805180830381865afa15801561535f573d6000803e3d6000fd5b505050506040513d601f19601f8201168201806040525081019061538391906160e3565b909250905081156153f25760405162461bcd60e51b815260206004820152603360248201527f4c49515549444154455f434f4d5054524f4c4c45525f43414c43554c4154455f604482015272105353d5539517d4d152569157d19052531151606a1b6064820152608401610d91565b6040516370a0823160e01b81526001600160a01b038b811660048301528291908a16906370a0823190602401602060405180830381865afa15801561543b573d6000803e3d6000fd5b505050506040513d601f19601f8201168201806040525081019061545f9190615e8e565b10156154ad5760405162461bcd60e51b815260206004820152601860248201527f4c49515549444154455f5345495a455f544f4f5f4d55434800000000000000006044820152606401610d91565b60006001600160a01b0389163014156154d3576154cc308d8d85613483565b9050615549565b60405163b2a02ff160e01b81526001600160a01b038a169063b2a02ff190615503908f908f9087906004016160a0565b6020604051808303816000875af1158015615522573d6000803e3d6000fd5b505050506040513d601f19601f820116820180604052508101906155469190615e8e565b90505b801561558e5760405162461bcd60e51b81526020600482015260146024820152731d1bdad95b881cd95a5e9d5c994819985a5b195960621b6044820152606401610d91565b604080516001600160a01b038e811682528d811660208301528183018790528b1660608201526080810184905290517f298637f684da70674f26509b10f07ec2fbc77a335ab1e7d6215a4b2484d8bb529181900360a00190a16000975092955050505050505b94509492505050565b6016546040516323b872dd60e01b81526000916001600160a01b0316906323b872dd90615632908690309087906004016160a0565b6020604051808303816000875af1158015615651573d6000803e3d6000fd5b505050506040513d601f19601f820116820180604052508101906156759190615f22565b6156aa5760405162461bcd60e51b8152600401610d91906020808252600490820152631cd95b9960e21b604082015260600190565b610daf82612ebd565b600081848411156156d75760405162461bcd60e51b8152600401610d919190615b07565b506113f18385616067565b600080600080612de78686615734565b6000611acf83836040518060400160405280601781526020017f6d756c7469706c69636174696f6e206f766572666c6f770000000000000000008152506157a7565b600061574c6040518060200160405280600081525090565b600080615761670de0b6b3a7640000876148b7565b9092509050600082600381111561577a5761577a615edc565b1461579957506040805160208101909152600081529092509050612e23565b612e1c818660000151613f63565b60008315806157b4575082155b156157c157506000611acf565b60006157cd84866160c4565b9050836157da868361607e565b1483906112d95760405162461bcd60e51b8152600401610d919190615b07565b82805461580690615ea7565b90600052602060002090601f016020900481019282615828576000855561586e565b82601f1061584157805160ff191683800117855561586e565b8280016001018555821561586e579182015b8281111561586e578251825591602001919060010190615853565b506118049291506158ee565b82805461588690615ea7565b90600052602060002090601f0160209004810192826158a8576000855561586e565b82601f106158c15782800160ff1982351617855561586e565b8280016001018555821561586e579182015b8281111561586e5782358255916020019190600101906158d3565b5b8082111561180457600081556001016158ef565b6001600160a01b03811681146121bb57600080fd5b803561592381615903565b919050565b634e487b7160e01b600052604160045260246000fd5b604051601f8201601f1916810167ffffffffffffffff8111828210171561596757615967615928565b604052919050565b600067ffffffffffffffff82111561598957615989615928565b50601f01601f191660200190565b600082601f8301126159a857600080fd5b81356159bb6159b68261596f565b61593e565b8181528460208386010111156159d057600080fd5b816020850160208301376000918101602001919091529392505050565b600080600080600080600080610100898b031215615a0a57600080fd5b8835615a1581615903565b97506020890135615a2581615903565b96506040890135615a3581615903565b95506060890135615a4581615903565b9450608089013567ffffffffffffffff80821115615a6257600080fd5b615a6e8c838d01615997565b955060a08b0135915080821115615a8457600080fd5b50615a918b828c01615997565b93505060c0890135915060e089013590509295985092959890939650565b60005b83811015615aca578181015183820152602001615ab2565b838111156114865750506000910152565b60008151808452615af3816020860160208601615aaf565b601f01601f19169290920160200192915050565b602081526000611acf6020830184615adb565b60008060408385031215615b2d57600080fd5b8235615b3881615903565b946020939093013593505050565b600060208284031215615b5857600080fd5b5035919050565b600060208284031215615b7157600080fd5b8135611acf81615903565b60ff811681146121bb57600080fd5b803561592381615b7c565b60008060008060008060008060006101208a8c031215615bb557600080fd5b8935615bc081615903565b985060208a0135615bd081615903565b9750615bde60408b01615918565b965060608a0135955060808a013567ffffffffffffffff80821115615c0257600080fd5b615c0e8d838e01615997565b965060a08c0135915080821115615c2457600080fd5b50615c318c828d01615997565b945050615c4060c08b01615b8b565b925060e08a013591506101008a013590509295985092959850929598565b600080600060608486031215615c7357600080fd5b8335615c7e81615903565b92506020840135615c8e81615903565b929592945050506040919091013590565b60008083601f840112615cb157600080fd5b50813567ffffffffffffffff811115615cc957600080fd5b602083019150836020828501011115612e2357600080fd5b60008060008060408587031215615cf757600080fd5b843567ffffffffffffffff80821115615d0f57600080fd5b615d1b88838901615c9f565b90965094506020870135915080821115615d3457600080fd5b50615d4187828801615c9f565b95989497509550505050565b80151581146121bb57600080fd5b60008060008060608587031215615d7157600080fd5b8435615d7c81615903565b93506020850135615d8c81615d4d565b9250604085013567ffffffffffffffff811115615da857600080fd5b615d4187828801615c9f565b60008060208385031215615dc757600080fd5b823567ffffffffffffffff811115615dde57600080fd5b615dea85828601615c9f565b90969095509350505050565b60008060408385031215615e0957600080fd5b8235615e1481615903565b91506020830135615e2481615903565b809150509250929050565b600080600060608486031215615e4457600080fd5b8335615e4f81615903565b9250602084013591506040840135615e6681615903565b809150509250925092565b600060208284031215615e8357600080fd5b8151611acf81615b7c565b600060208284031215615ea057600080fd5b5051919050565b600181811c90821680615ebb57607f821691505b60208210811415610daf57634e487b7160e01b600052602260045260246000fd5b634e487b7160e01b600052602160045260246000fd5b6020808252601690820152751858d8dc9d59481a5b9d195c995cdd0819985a5b195960521b604082015260600190565b600060208284031215615f3457600080fd5b8151611acf81615d4d565b600080600060608486031215615f5457600080fd5b8351615f5f81615903565b6020850151909350615f7081615d4d565b604085015190925067ffffffffffffffff811115615f8d57600080fd5b8401601f81018613615f9e57600080fd5b8051615fac6159b68261596f565b818152876020838501011115615fc157600080fd5b615fd2826020830160208601615aaf565b8093505050509250925092565b634e487b7160e01b600052601160045260246000fd5b6000821982111561600857616008615fdf565b500190565b6000825161601f818460208701615aaf565b9190910192915050565b60006020828403121561603b57600080fd5b8151611acf81615903565b6001600160a01b039390931683526020830191909152604082015260600190565b60008282101561607957616079615fdf565b500390565b60008261609b57634e487b7160e01b600052601260045260246000fd5b500490565b6001600160a01b039384168152919092166020820152604081019190915260600190565b60008160001904831182151516156160de576160de615fdf565b500290565b600080604083850312156160f657600080fd5b50508051602090910151909290915056feddf252ad1be2c89b69c2b068fc378daa952ba7f163c4a11628f55a4df523b3efa164736f6c634300080a000a608060405234801561001057600080fd5b50615ddf80620000216000396000f3fe60806040526004361061038c5760003560e01c80637f1e06be116101dc578063b2a02ff111610102578063dc028ab1116100a0578063f5e3c4621161006f578063f5e3c46214610a3e578063f8f9da2814610a5e578063fca7820b14610a73578063fe9c44ae14610a9357600080fd5b8063dc028ab1146109a2578063dd62ed3e146109b8578063f2b3abbd146109fe578063f3fdb15a14610a1e57600080fd5b8063c37f68e2116100dc578063c37f68e21461090c578063c5ebeaec1461094c578063db006a751461096c578063dbfe7c191461098c57600080fd5b8063b2a02ff1146108bb578063bd6d894d146108db578063be99f119146108f057600080fd5b8063a03dce8d1161017a578063a9059cbb11610149578063a9059cbb1461085c578063aa5af0fd1461087c578063ac784ddc14610892578063ae9d70b0146108a657600080fd5b8063a03dce8d146107e7578063a0712d6814610807578063a6afed9514610827578063a7b820df1461083c57600080fd5b80638f840ddd116101b65780638f840ddd1461077c57806391dd36c61461079257806395d89b41146107b257806395dd9193146107c757600080fd5b80637f1e06be14610726578063852a12e3146107465780638d02d9a11461076657600080fd5b806334154d4c116102c15780635fe3b5671161025f5780636c540baf1161022e5780636c540baf146106a55780636f307dc3146106bb57806370a08231146106db57806373acee981461071157600080fd5b80635fe3b56714610634578063601a0bf11461065457806361feacff146106745780636752e7021461068a57600080fd5b806347bd37181161029b57806347bd3718146105be57806350d85b73146105d457806356e67728146105f45780635c60da1b1461061457600080fd5b806334154d4c146105695780633af9e669146105895780633b1d21a2146105a957600080fd5b806318160ddd1161032e578063219ef65c11610308578063219ef65c146104dd57806323b872dd146104fd5780632608f8181461051d578063313ce5671461053d57600080fd5b806318160ddd146104aa578063182df0f5146104c05780631db78944146104d557600080fd5b80630e7527021161036a5780630e7527021461040e57806315761d511461043c578063173b99041461047457806317bfdfbc1461048a57600080fd5b806306db3ecd1461039157806306fdde03146103b3578063095ea7b3146103de575b600080fd5b34801561039d57600080fd5b506103b16103ac366004615698565b610aa7565b005b3480156103bf57600080fd5b506103c8610bb5565b6040516103d591906157b2565b60405180910390f35b3480156103ea57600080fd5b506103fe6103f93660046157c5565b610c43565b60405190151581526020016103d5565b34801561041a57600080fd5b5061042e6104293660046157f1565b610cb3565b6040519081526020016103d5565b34801561044857600080fd5b5060015461045c906001600160a01b031681565b6040516001600160a01b0390911681526020016103d5565b34801561048057600080fd5b5061042e600b5481565b34801561049657600080fd5b5061042e6104a536600461580a565b610cc7565b3480156104b657600080fd5b5061042e60125481565b3480156104cc57600080fd5b5061042e610d1e565b6103b1610daf565b3480156104e957600080fd5b506103b16104f8366004615841565b610ee0565b34801561050957600080fd5b506103fe610518366004615909565b61120f565b34801561052957600080fd5b5061042e6105383660046157c5565b611235565b34801561054957600080fd5b506005546105579060ff1681565b60405160ff90911681526020016103d5565b34801561057557600080fd5b506103b161058436600461598c565b61124b565b34801561059557600080fd5b5061042e6105a436600461580a565b6112b2565b3480156105b557600080fd5b5061042e611362565b3480156105ca57600080fd5b5061042e600e5481565b3480156105e057600080fd5b506103b16105ef366004615a06565b611371565b34801561060057600080fd5b506103b161060f366004615a5f565b6113f5565b34801561062057600080fd5b5060005461045c906001600160a01b031681565b34801561064057600080fd5b5060065461045c906001600160a01b031681565b34801561066057600080fd5b5061042e61066f3660046157f1565b61144e565b34801561068057600080fd5b5061042e60105481565b34801561069657600080fd5b5061042e666379da05b6000081565b3480156106b157600080fd5b5061042e600c5481565b3480156106c757600080fd5b5060165461045c906001600160a01b031681565b3480156106e757600080fd5b5061042e6106f636600461580a565b6001600160a01b031660009081526013602052604090205490565b34801561071d57600080fd5b5061042e6114a5565b34801561073257600080fd5b506103b161074136600461580a565b6114ea565b34801561075257600080fd5b5061042e6107613660046157f1565b6115af565b34801561077257600080fd5b5061042e60095481565b34801561078857600080fd5b5061042e600f5481565b34801561079e57600080fd5b5061042e6107ad3660046157f1565b6115ba565b3480156107be57600080fd5b506103c86115fd565b3480156107d357600080fd5b5061042e6107e236600461580a565b61160a565b3480156107f357600080fd5b5061042e6108023660046157f1565b6116ab565b34801561081357600080fd5b5061042e6108223660046157f1565b6116ee565b34801561083357600080fd5b5061042e6116fa565b34801561084857600080fd5b5061042e6108573660046157f1565b6118b1565b34801561086857600080fd5b506103fe6108773660046157c5565b6118f4565b34801561088857600080fd5b5061042e600d5481565b34801561089e57600080fd5b5060006103fe565b3480156108b257600080fd5b5061042e611921565b3480156108c757600080fd5b5061042e6108d6366004615909565b6119e4565b3480156108e757600080fd5b5061042e611a08565b3480156108fc57600080fd5b5061042e67016345785d8a000081565b34801561091857600080fd5b5061092c61092736600461580a565b611a4e565b6040805194855260208501939093529183015260608201526080016103d5565b34801561095857600080fd5b5061042e6109673660046157f1565b611aef565b34801561097857600080fd5b5061042e6109873660046157f1565b611afa565b34801561099857600080fd5b5061042e600a5481565b3480156109ae57600080fd5b5061042e60115481565b3480156109c457600080fd5b5061042e6109d3366004615aa1565b6001600160a01b03918216600090815260146020908152604080832093909416825291909152205490565b348015610a0a57600080fd5b5061042e610a1936600461580a565b611b05565b348015610a2a57600080fd5b5060075461045c906001600160a01b031681565b348015610a4a57600080fd5b5061042e610a59366004615ada565b611b3d565b348015610a6a57600080fd5b5061042e611b55565b348015610a7f57600080fd5b5061042e610a8e3660046157f1565b611bb9565b348015610a9f57600080fd5b5060016103fe565b60006702c68af0bb14000090506000896001600160a01b031663313ce5676040518163ffffffff1660e01b8152600401602060405180830381865afa158015610af4573d6000803e3d6000fd5b505050506040513d601f19601f82011682018060405250810190610b189190615b1c565b9050610b2b898989858a8a878b8b610ee0565b601680546001600160a01b0319166001600160a01b038c16908117909155604080516318160ddd60e01b815290516318160ddd916004808201926020929091908290030181865afa158015610b84573d6000803e3d6000fd5b505050506040513d601f19601f82011682018060405250810190610ba89190615b39565b5050505050505050505050565b60038054610bc290615b52565b80601f0160208091040260200160405190810160405280929190818152602001828054610bee90615b52565b8015610c3b5780601f10610c1057610100808354040283529160200191610c3b565b820191906000526020600020905b815481529060010190602001808311610c1e57829003601f168201915b505050505081565b3360008181526014602090815260408083206001600160a01b03871680855292528083208590555191929182907f8c5be1e5ebec7d5bd14f71427d1e84f3dd0314c0f7b2291e5b200ac8c7c3b92590610c9f9087815260200190565b60405180910390a360019150505b92915050565b600080610cbf83611bfc565b509392505050565b600080610cd381611c64565b6000610cdd6116fa565b14610d035760405162461bcd60e51b8152600401610cfa90615b9d565b60405180910390fd5b610d0c8361160a565b91505b610d1881611d28565b50919050565b6000806000610d2b611d93565b90925090506000826003811115610d4457610d44615b87565b14610cad5760405162461bcd60e51b815260206004820152603560248201527f65786368616e67655261746553746f7265643a2065786368616e67655261746560448201527414dd1bdc9959125b9d195c9b985b0819985a5b1959605a1b6064820152608401610cfa565b333014801590610e315750600660009054906101000a90046001600160a01b03166001600160a01b031663dd5cd22c6040518163ffffffff1660e01b8152600401602060405180830381865afa158015610e0d573d6000803e3d6000fd5b505050506040513d601f19601f82011682018060405250810190610e319190615bcd565b15610ede57600154600080546040516345cc970560e01b81526001600160a01b039182166004820152919283928392909116906345cc970590602401600060405180830381865afa158015610e8a573d6000803e3d6000fd5b505050506040513d6000823e601f3d908101601f19168201604052610eb29190810190615bea565b60005492955090935091506001600160a01b03808516911614610eda57610eda838383611e60565b5050505b565b336001600160a01b03891614610f4a5760405162461bcd60e51b815260206004820152602960248201527f6f6e6c7920467573652061646d696e206d617920696e697469616c697a6520746044820152681a19481b585c9ad95d60ba1b6064820152608401610cfa565b600c54158015610f5a5750600d54155b610fb25760405162461bcd60e51b815260206004820152602360248201527f6d61726b6574206d6179206f6e6c7920626520696e697469616c697a6564206f6044820152626e636560e81b6064820152608401610cfa565b600180546001600160a01b0319166001600160a01b038a161790556008869055856110385760405162461bcd60e51b815260206004820152603060248201527f696e697469616c2065786368616e67652072617465206d75737420626520677260448201526f32b0ba32b9103a3430b7103d32b9379760811b6064820152608401610cfa565b60006110438a611fe5565b905080156110935760405162461bcd60e51b815260206004820152601a60248201527f73657474696e6720636f6d7074726f6c6c6572206661696c65640000000000006044820152606401610cfa565b43600c55670de0b6b3a7640000600d556110ac88612110565b905080156111075760405162461bcd60e51b815260206004820152602260248201527f73657474696e6720696e7465726573742072617465206d6f64656c206661696c604482015261195960f21b6064820152608401610cfa565b855161111a9060039060208901906154a5565b50845161112e9060049060208801906154a5565b506005805460ff191660ff861617905561114783612380565b905080156111975760405162461bcd60e51b815260206004820152601d60248201527f73657474696e67207265736572766520666163746f72206661696c65640000006044820152606401610cfa565b6111a08261241f565b905080156111f05760405162461bcd60e51b815260206004820152601860248201527f73657474696e672061646d696e20666565206661696c656400000000000000006044820152606401610cfa565b50506002805460ff60b01b1916600160b01b1790555050505050505050565b60008061121b81611c64565b600061122933878787612539565b149150610cbf81611d28565b60008061124284846127d7565b50949350505050565b611253612841565b6112925760405162461bcd60e51b815260206004820152601060248201526f31b0b63632b9103737ba1030b236b4b760811b6044820152606401610cfa565b61129e60038585615525565b506112ab60048383615525565b5050505050565b60008060405180602001604052806112c8611a08565b90526001600160a01b0384166000908152601360205260408120549192509081906112f49084906129ac565b9092509050600082600381111561130d5761130d615b87565b1461135a5760405162461bcd60e51b815260206004820152601f60248201527f62616c616e636520636f756c64206e6f742062652063616c63756c61746564006044820152606401610cfa565b949350505050565b600061136c6129ff565b905090565b611379612841565b6113ae5760405162461bcd60e51b815260206004820152600660248201526510b0b236b4b760d11b6044820152606401610cfa565b6113ef848484848080601f016020809104026020016040519081016040528093929190818152602001838380828437600092019190915250611e6092505050565b50505050565b333014806114065750611406612841565b61143a5760405162461bcd60e51b815260206004820152600560248201526410b9b2b63360d91b6044820152606401610cfa565b5050600280546001600160b01b0319169055565b60008061145a81611c64565b60006114646116fa565b905080156114905761148881601181111561148157611481615b87565b603b612a6e565b925050610d0f565b61149984612ae7565b925050610d1881611d28565b6000806114b181611c64565b60006114bb6116fa565b146114d85760405162461bcd60e51b8152600401610cfa90615b9d565b600e5491506114e681611d28565b5090565b6114f2612841565b6115545760405162461bcd60e51b815260206004820152602d60248201527f6f6e6c79207468652061646d696e206d6179207365742074686520636f6d702d60448201526c6c696b652064656c656761746560981b6064820152608401610cfa565b6016546040516317066a5760e21b81526001600160a01b03838116600483015290911690635c19a95c90602401600060405180830381600087803b15801561159b57600080fd5b505af11580156112ab573d6000803e3d6000fd5b6000610cad82612b98565b6000806115c681611c64565b60006115d06116fa565b905080156115f4576114888160118111156115ed576115ed615b87565b6052612a6e565b6114998461241f565b60048054610bc290615b52565b600080600061161884612bde565b9092509050600082600381111561163157611631615b87565b146116a45760405162461bcd60e51b815260206004820152603760248201527f626f72726f7742616c616e636553746f7265643a20626f72726f7742616c616e60448201527f636553746f726564496e7465726e616c206661696c65640000000000000000006064820152608401610cfa565b9392505050565b6000806116b781611c64565b60006116c16116fa565b905080156116e5576114888160118111156116de576116de615b87565b6033612a6e565b61149984612c97565b600080610cbf83612d0a565b600c5460009043908114156117125760005b91505090565b600061171c6129ff565b90506000600760009054906101000a90046001600160a01b03166001600160a01b03166315f2405383600e54611761600f5461175c601054601154612d50565b612d50565b6040516001600160e01b031960e086901b168152600481019390935260248301919091526044820152606401602060405180830381865afa1580156117aa573d6000803e3d6000fd5b505050506040513d601f19601f820116820180604052508101906117ce9190615b39565b905065048c273950008111156118265760405162461bcd60e51b815260206004820152601c60248201527f626f72726f772072617465206973206162737572646c792068696768000000006044820152606401610cfa565b60008061183585600c54612d86565b9092509050600082600381111561184e5761184e615b87565b1461189b5760405162461bcd60e51b815260206004820152601f60248201527f636f756c64206e6f742063616c63756c61746520626c6f636b2064656c7461006044820152606401610cfa565b6118a785858584612db1565b9550505050505090565b6000806118bd81611c64565b60006118c76116fa565b905080156118eb576114888160118111156118e4576118e4615b87565b6037612a6e565b61149984612edd565b60008061190081611c64565b600061190e33338787612539565b14915061191a81611d28565b5092915050565b6007546000906001600160a01b031663b816881661193d6129ff565b600e54611954600f5461175c601054601154612d50565b600954600a54600b546119679190615ca0565b6119719190615ca0565b6040516001600160e01b031960e087901b16815260048101949094526024840192909252604483015260648201526084015b602060405180830381865afa1580156119c0573d6000803e3d6000fd5b505050506040513d601f19601f8201168201806040525081019061136c9190615b39565b600060016119f181611c64565b6119fd33868686612fbb565b9150610cbf81611d28565b600080611a1481611c64565b6000611a1e6116fa565b14611a3b5760405162461bcd60e51b8152600401610cfa90615b9d565b611a43610d1e565b91506114e681611d28565b6001600160a01b038116600090815260136020526040812054819081908190818080611a7989612bde565b935090506000816003811115611a9157611a91615b87565b14611aaf5760095b6000806000975097509750975050505050611ae8565b611ab7611d93565b925090506000816003811115611acf57611acf615b87565b14611adb576009611a99565b5060009650919450925090505b9193509193565b6000610cad826134b8565b6000610cad826134fc565b600080611b106116fa565b90508015611b34576116a4816011811115611b2d57611b2d615b87565b604b612a6e565b6116a483612110565b600080611b4b85858561353b565b5095945050505050565b6007546000906001600160a01b03166315f24053611b716129ff565b600e54611b88600f5461175c601054601154612d50565b6040516001600160e01b031960e086901b1681526004810193909352602483019190915260448201526064016119a3565b600080611bc581611c64565b6000611bcf6116fa565b90508015611bf357611488816011811115611bec57611bec615b87565b6059612a6e565b61149984612380565b6000806000611c0a81611c64565b6000611c146116fa565b90508015611c4457611c38816011811115611c3157611c31615b87565b6041612a6e565b60009350935050611c55565b611c4f33338761362f565b93509350505b611c5e81611d28565b50915091565b600254600160b01b900460ff16611caa5760405162461bcd60e51b815260206004820152600a6024820152691c994b595b9d195c995960b21b6044820152606401610cfa565b80611d1857600660009054906101000a90046001600160a01b03166001600160a01b031663c90c20b16040518163ffffffff1660e01b8152600401600060405180830381600087803b158015611cff57600080fd5b505af1158015611d13573d6000803e3d6000fd5b505050505b506002805460ff60b01b19169055565b6002805460ff60b01b1916600160b01b17905580611d9057600660009054906101000a90046001600160a01b03166001600160a01b031663632e51426040518163ffffffff1660e01b8152600401600060405180830381600087803b15801561159b57600080fd5b50565b601254600090819080611dad575050600854600092909150565b6000611db76129ff565b90506000611dd16040518060200160405280600081525090565b6000611df384600e54611dee600f5461175c601054601154612d50565b613a49565b935090506000816003811115611e0b57611e0b615b87565b14611e1d579660009650945050505050565b611e278386613a9b565b925090506000816003811115611e3f57611e3f615b87565b14611e51579660009650945050505050565b50516000969095509350505050565b6001546000546040516338e6a07360e11b81526001600160a01b039182166004820152858216602482015284151560448201529116906371cd40e690606401602060405180830381865afa158015611ebc573d6000803e3d6000fd5b505050506040513d601f19601f82011682018060405250810190611ee09190615bcd565b611f145760405162461bcd60e51b8152602060048201526005602482015264085a5b5c1b60da1b6044820152606401610cfa565b600080546001600160a01b038581166001600160a01b0319831617909255604051911690611f97903090611f4c9085906024016157b2565b60408051601f19818403018152918152602080830180516001600160e01b0316630adccee560e31b17905281518083019092526007825266216265636f6d6560c81b90820152613b66565b50600054604080516001600160a01b03808516825290921660208301527fd604de94d45953f9138079ec1b82d533cb2160c906d1076d1f7ed54befbca97a910160405180910390a150505050565b600080600660009054906101000a90046001600160a01b03169050826001600160a01b0316627e3dd26040518163ffffffff1660e01b8152600401602060405180830381865afa15801561203d573d6000803e3d6000fd5b505050506040513d601f19601f820116820180604052508101906120619190615bcd565b6120ad5760405162461bcd60e51b815260206004820152601c60248201527f6d61726b6572206d6574686f642072657475726e65642066616c7365000000006044820152606401610cfa565b600680546001600160a01b0319166001600160a01b0385811691821790925560408051928416835260208301919091527f7ac369dbd14fa5ea3f473ed67cc9d598964a77501540ba6751eb0b3decf5870d91015b60405180910390a160006116a4565b60008061211b612841565b61212b576116a46001604d612a6e565b43600c5414612140576116a4600a604c612a6e565b600760009054906101000a90046001600160a01b03169050826001600160a01b0316632191f92a6040518163ffffffff1660e01b8152600401602060405180830381865afa158015612196573d6000803e3d6000fd5b505050506040513d601f19601f820116820180604052508101906121ba9190615bcd565b6122065760405162461bcd60e51b815260206004820152601c60248201527f6d61726b6572206d6574686f642072657475726e65642066616c7365000000006044820152606401610cfa565b600780546001600160a01b0319166001600160a01b0385811691821790925560408051928416835260208301919091527fedffc32e068c7c95dfd4bdfd5c4d939a084d6b11c4199eac8436ed234d72f926910160405180910390a16001600160a01b038116156122f45760408051600481526024810182526020810180516001600160e01b0316636cc1140b60e11b17905290516001600160a01b038316916122ae91615cb8565b6000604051808303816000865af19150503d80600081146122eb576040519150601f19603f3d011682016040523d82523d6000602084013e6122f0565b606091505b5050505b60408051600481526024810182526020810180516001600160e01b031663742a137b60e11b17905290516001600160a01b0385169161233291615cb8565b6000604051808303816000865af19150503d806000811461236f576040519150601f19603f3d011682016040523d82523d6000602084013e612374565b606091505b50600091506116a49050565b600061238a612841565b61239a57610cad6001605a612a6e565b43600c54146123af57610cad600a605b612a6e565b670de0b6b3a76400006123cf6123c784600954612d50565b600a54612d50565b11156123e157610cad6002605c612a6e565b600b80549083905560408051828152602081018590527faaa68312e2ea9d50e16af5068410ab56e1a1fd06037b1a35664812c30f8214609101612101565b600043600c541461243657610cad600a6054612a6e565b6000198214156124465760095491505b6000612450613c02565b9050670de0b6b3a764000061247061246a600b5486612d50565b83612d50565b1115612482576116a460026055612a6e565b82600954146124e657612493612841565b6124a3576116a460016053612a6e565b600980549084905560408051828152602081018690527fcdd0b588250e1398549f79cfdb8217c186688822905d6715b0834ea1c865594a910160405180910390a1505b80600a541461253257600a80549082905560408051828152602081018490527f92eef861b6533b7d3417f39c2ad7b460eed4e88a32fa3604f30e718b7602e7dc910160405180910390a1505b60006116a4565b6006546040516317b9b84b60e31b81523060048201526001600160a01b038581166024830152848116604483015260648201849052600092839291169063bdcdc258906084016020604051808303816000875af115801561259e573d6000803e3d6000fd5b505050506040513d601f19601f820116820180604052508101906125c29190615b39565b905080156125df576125d76003605d83613c4c565b91505061135a565b836001600160a01b0316856001600160a01b03161415612605576125d76002605e612a6e565b6000856001600160a01b0316876001600160a01b0316141561262a5750600019612652565b506001600160a01b038086166000908152601460209081526040808320938a16835292905220545b6000806000806126628589612d86565b9094509250600084600381111561267b5761267b615b87565b146126995761268c6009605e612a6e565b965050505050505061135a565b6001600160a01b038a166000908152601360205260409020546126bc9089612d86565b909450915060008460038111156126d5576126d5615b87565b146126e65761268c6009605f612a6e565b6001600160a01b0389166000908152601360205260409020546127099089613cee565b9094509050600084600381111561272257612722615b87565b146127335761268c60096060612a6e565b6001600160a01b03808b16600090815260136020526040808220859055918b16815220819055600019851461278b576001600160a01b03808b166000908152601460209081526040808320938f168352929052208390555b886001600160a01b03168a6001600160a01b0316600080516020615db38339815191528a6040516127be91815260200190565b60405180910390a35060009a9950505050505050505050565b60008060006127e581611c64565b60006127ef6116fa565b9050801561281f5761281381601181111561280c5761280c615b87565b6040612a6e565b60009350935050612830565b61282a33878761362f565b93509350505b61283981611d28565b509250929050565b600654604080516303e1469160e61b815290516000926001600160a01b031691829163f851a440916004808201926020929091908290030181865afa15801561288e573d6000803e3d6000fd5b505050506040513d601f19601f820116820180604052508101906128b29190615cd4565b6001600160a01b0316336001600160a01b031614801561292f5750806001600160a01b0316630a755ec26040518163ffffffff1660e01b8152600401602060405180830381865afa15801561290b573d6000803e3d6000fd5b505050506040513d601f19601f8201168201806040525081019061292f9190615bcd565b8061170c57506001546001600160a01b03163314801561170c5750806001600160a01b0316632f1069ba6040518163ffffffff1660e01b8152600401602060405180830381865afa158015612988573d6000803e3d6000fd5b505050506040513d601f19601f8201168201806040525081019061170c9190615bcd565b6000806000806129bc8686613d1e565b909250905060008260038111156129d5576129d5615b87565b146129e657509150600090506129f8565b60006129f182613d9a565b9350935050505b9250929050565b6016546040516370a0823160e01b81523060048201526000916001600160a01b03169081906370a0823190602401602060405180830381865afa158015612a4a573d6000803e3d6000fd5b505050506040513d601f19601f8201168201806040525081019061170c9190615b39565b60007f45b96fe442630264581b197e84bbada861235052c5a1aadfff9ea4e40a969aa0836011811115612aa357612aa3615b87565b836063811115612ab557612ab5615b87565b60408051928352602083019190915260009082015260600160405180910390a18260118111156116a4576116a4615b87565b600080612af2612841565b612b02576116a46001603c612a6e565b43600c5414612b17576116a4600a603e612a6e565b82612b206129ff565b1015612b32576116a4600e603d612a6e565b600f54831115612b48576116a46002603f612a6e565b612b54600f5484613db2565b600f8190559050612b653384613dec565b7f3bad0c59cf2f06e7314077049f48a93578cd16f5ef92329f1dab1420a99c177e33848360405161210193929190615cf1565b600080612ba481611c64565b6000612bae6116fa565b90508015612bd257611488816011811115612bcb57612bcb615b87565b602a612a6e565b61149933600086613e71565b6001600160a01b038116600090815260156020526040812080548291829182918291612c135750600096879650945050505050565b612c238160000154600d546143f7565b90945092506000846003811115612c3c57612c3c615b87565b14612c4f57509195600095509350505050565b612c5d838260010154614441565b90945091506000846003811115612c7657612c76615b87565b14612c8957509195600095509350505050565b506000969095509350505050565b60008043600c5414612caf576116a4600a6035612a6e565b82612cb86129ff565b1015612cca576116a4600e6034612a6e565b601154831115612ce0576116a460026036612a6e565b612cec60115484613db2565b6011819055600154909150612532906001600160a01b031684613dec565b6000806000612d1881611c64565b6000612d226116fa565b90508015612d4657611c38816011811115612d3f57612d3f615b87565b6020612a6e565b611c4f338661446c565b60006116a48383604051806040016040528060118152602001706164646974696f6e206f766572666c6f7760781b81525061482a565b600080838311612da5576000612d9c8486615d12565b915091506129f8565b506003905060006129f8565b600080612dcc6040518060200160405280868152508461485b565b90506000612ddc82600e5461488c565b90506000612dec82600e54612d50565b90506000612e0d6040518060200160405280600b5481525084600f546148a4565b90506000612e2e6040518060200160405280600a54815250856011546148a4565b90506000612e4f6040518060200160405280600954815250866010546148a4565b90506000612e6287600d54600d546148a4565b600c8d9055600d819055600e869055600f85905560118490556010839055604080518d815260208101899052908101829052606081018790529091507f4dec04e750ca11537cabcd8a9eab06494de08da3735bc8871cd41250e190bc049060800160405180910390a160009c9b505050505050505050505050565b60008043600c5414612ef5576116a4600a6039612a6e565b82612efe6129ff565b1015612f10576116a4600e6038612a6e565b601054831115612f26576116a46002603a612a6e565b612f3260105484613db2565b905080601081905550612532600660009054906101000a90046001600160a01b03166001600160a01b031663f851a4406040518163ffffffff1660e01b8152600401602060405180830381865afa158015612f91573d6000803e3d6000fd5b505050506040513d601f19601f82011682018060405250810190612fb59190615cd4565b84613dec565b60065460405163d02f735160e01b81523060048201526001600160a01b0386811660248301528581166044830152848116606483015260848201849052600092839291169063d02f73519060a4016020604051808303816000875af1158015613028573d6000803e3d6000fd5b505050506040513d601f19601f8201168201806040525081019061304c9190615b39565b90508015613061576125d76003601d83613c4c565b846001600160a01b0316846001600160a01b03161415613087576125d76006601e612a6e565b6130ec604080516101808101909152806000815260200160008152602001600081526020016000815260200160008152602001600081526020016000815260200160008152602001600081526020016000815260200160008152602001600081525090565b6001600160a01b03851660009081526013602052604090205461310f9085612d86565b602083018190528282600381111561312957613129615b87565b600381111561313a5761313a615b87565b905250600090508151600381111561315457613154615b87565b146131845761317b6009601c8360000151600381111561317657613176615b87565b613c4c565b9250505061135a565b6131a3846040518060200160405280666379da05b600008152506148c5565b6080820152604080516020810190915267016345785d8a000081526131c99085906148c5565b61014082015260808101516131ee906131e3908690613db2565b826101400151613db2565b60608201526131fb611d93565b60c083018190528282600381111561321557613215615b87565b600381111561322657613226615b87565b905250600090508151600381111561324057613240615b87565b1461328d5760405162461bcd60e51b815260206004820152601860248201527f65786368616e67652072617465206d617468206572726f7200000000000000006044820152606401610cfa565b6132ad60405180602001604052808360c00151815250826080015161488c565b60a0820152604080516020810190915260c082015181526101408201516132d4919061488c565b610160820152600f5460a08201516132ec9190612d50565b60e08201526012546080820151613306916131e391613db2565b61012082015260115461016082015161331f9190612d50565b6101008201526001600160a01b038616600090815260136020526040902054606082015161334d9190613cee565b604083018190528282600381111561336757613367615b87565b600381111561337857613378615b87565b905250600090508151600381111561339257613392615b87565b146133b45761317b6009601b8360000151600381111561317657613176615b87565b60e0810151600f556101208101516012556101008101516011556020808201516001600160a01b0387811660008181526013855260408082209490945583860151928b1680825290849020929092556060850151925192835290929091600080516020615db3833981519152910160405180910390a3306001600160a01b0316856001600160a01b0316600080516020615db3833981519152836080015160405161346191815260200190565b60405180910390a360a081015160e08201516040517fa91e67c5ea634cd43a12c5a482724b03de01e85ca68702a53d0c2f45cb7c1dc5926134a3923092615cf1565b60405180910390a16000979650505050505050565b6000806134c481611c64565b60006134ce6116fa565b905080156134f2576114888160118111156134eb576134eb615b87565b600a612a6e565b61149933856148e8565b60008061350881611c64565b60006135126116fa565b9050801561352f57611488816011811115612bcb57612bcb615b87565b61149933856000613e71565b600080600061354981611c64565b60006135536116fa565b905080156135835761357781601181111561357057613570615b87565b6011612a6e565b6000935093505061361d565b846001600160a01b031663a6afed956040518163ffffffff1660e01b81526004016020604051808303816000875af11580156135c3573d6000803e3d6000fd5b505050506040513d601f19601f820116820180604052508101906135e79190615b39565b9050801561360b5761357781601181111561360457613604615b87565b6012612a6e565b61361733888888614c7c565b93509350505b61362681611d28565b50935093915050565b600654604051631200453160e11b81523060048201526001600160a01b03858116602483015284811660448301526064820184905260009283928392909116906324008a62906084016020604051808303816000875af1158015613697573d6000803e3d6000fd5b505050506040513d601f19601f820116820180604052508101906136bb9190615b39565b905080156136dc576136d06003604383613c4c565b60009250925050613a41565b43600c54146136f1576136d0600a6044612a6e565b61373a6040805161010081019091528060008152602001600081526020016000815260200160008152602001600081526020016000815260200160008152602001600081525090565b6001600160a01b038616600090815260156020526040902060010154606082015261376486612bde565b608083018190526020830182600381111561378157613781615b87565b600381111561379257613792615b87565b90525060009050816020015160038111156137af576137af615b87565b146137de576137d1600960428360200151600381111561317657613176615b87565b6000935093505050613a41565b6000198514156137f757608081015160408201526137ff565b604081018590525b61380d87826040015161513d565b60e08201819052608082015161382291612d86565b60a083018190526020830182600381111561383f5761383f615b87565b600381111561385057613850615b87565b905250600090508160200151600381111561386d5761386d615b87565b146138e05760405162461bcd60e51b815260206004820152603a60248201527f52455041595f424f52524f575f4e45575f4143434f554e545f424f52524f575f60448201527f42414c414e43455f43414c43554c4154494f4e5f4641494c45440000000000006064820152608401610cfa565b6138f0600e548260e00151612d86565b60c083018190526020830182600381111561390d5761390d615b87565b600381111561391e5761391e615b87565b905250600090508160200151600381111561393b5761393b615b87565b146139a25760405162461bcd60e51b815260206004820152603160248201527f52455041595f424f52524f575f4e45575f544f54414c5f42414c414e43455f43604482015270105310d55310551253d397d19052531151607a1b6064820152608401610cfa565b60a081810180516001600160a01b03898116600081815260156020908152604091829020948555600d5460019095019490945560c0870151600e81905560e088015195518251948f16855294840192909252820193909352606081019190915260808101919091527f1a2a22cb034d26d1854bdc6666a5b91fe25efbbb5dcad3b0355478d6f5c362a1910160405180910390a160e00151600093509150505b935093915050565b600080600080613a598787613cee565b90925090506000826003811115613a7257613a72615b87565b14613a835750915060009050613a41565b613a8d8186612d86565b935093505050935093915050565b6000613ab36040518060200160405280600081525090565b600080613ac886670de0b6b3a76400006143f7565b90925090506000826003811115613ae157613ae1615b87565b14613b00575060408051602081019091526000815290925090506129f8565b600080613b0d8388614441565b90925090506000826003811115613b2657613b26615b87565b14613b4957816040518060200160405280600081525095509550505050506129f8565b604080516020810190915290815260009890975095505050505050565b6060600080856001600160a01b031685604051613b839190615cb8565b6000604051808303816000865af19150503d8060008114613bc0576040519150601f19603f3d011682016040523d82523d6000602084013e613bc5565b606091505b509150915081613bf957805115613bdf5780518082602001fd5b8360405162461bcd60e51b8152600401610cfa91906157b2565b95945050505050565b6001546040805163dd86fea160e01b815290516000926001600160a01b03169163dd86fea19160048083019260209291908290030181865afa1580156119c0573d6000803e3d6000fd5b60007f45b96fe442630264581b197e84bbada861235052c5a1aadfff9ea4e40a969aa0846011811115613c8157613c81615b87565b846063811115613c9357613c93615b87565b604080519283526020830191909152810184905260600160405180910390a16003846011811115613cc657613cc6615b87565b14613ce257836011811115613cdd57613cdd615b87565b61135a565b61135a826103e8615ca0565b60008080613cfc8486615ca0565b9050848110613d10576000925090506129f8565b6002600092509250506129f8565b6000613d366040518060200160405280600081525090565b600080613d478660000151866143f7565b90925090506000826003811115613d6057613d60615b87565b14613d7f575060408051602081019091526000815290925090506129f8565b60408051602081019091529081526000969095509350505050565b8051600090610cad90670de0b6b3a764000090615d29565b60006116a48383604051806040016040528060158152602001747375627472616374696f6e20756e646572666c6f7760581b815250615307565b604080516001600160a01b038416602482015260448082018490528251808303909101815260649091018252602080820180516001600160e01b031663a9059cbb60e01b1790528251808401909352601983527f544f4b454e5f5452414e534645525f4f55545f4641494c45440000000000000090830152613e6d91615336565b5050565b6000821580613e7e575081155b613ee75760405162461bcd60e51b815260206004820152603460248201527f6f6e65206f662072656465656d546f6b656e73496e206f722072656465656d416044820152736d6f756e74496e206d757374206265207a65726f60601b6064820152608401610cfa565b613f286040805160e0810190915280600081526020016000815260200160008152602001600081526020016000815260200160008152602001600081525090565b613f30611d93565b6040830181905260208301826003811115613f4d57613f4d615b87565b6003811115613f5e57613f5e615b87565b9052506000905081602001516003811115613f7b57613f7b615b87565b14613fa557613f9d6009602e8360200151600381111561317657613176615b87565b9150506116a4565b831561403e576060810184905260408051602081018252908201518152613fcc90856129ac565b6080830181905260208301826003811115613fe957613fe9615b87565b6003811115613ffa57613ffa615b87565b905250600090508160200151600381111561401757614017615b87565b1461403957613f9d6009602c8360200151600381111561317657613176615b87565b6140cf565b61405a836040518060200160405280846040015181525061538d565b606083018190526020830182600381111561407757614077615b87565b600381111561408857614088615b87565b90525060009050816020015160038111156140a5576140a5615b87565b146140c757613f9d6009602d8360200151600381111561317657613176615b87565b608081018390525b600654606082015160405163eabe7d9160e01b81526000926001600160a01b03169163eabe7d91916141089130918b9190600401615d4b565b6020604051808303816000875af1158015614127573d6000803e3d6000fd5b505050506040513d601f19601f8201168201806040525081019061414b9190615b39565b90508015614169576141606003602b83613c4c565b925050506116a4565b43600c541461417e57614160600a602f612a6e565b61418e6012548360600151612d86565b60a08401819052602084018260038111156141ab576141ab615b87565b60038111156141bc576141bc615b87565b90525060009050826020015160038111156141d9576141d9615b87565b146141fb57614160600960318460200151600381111561317657613176615b87565b6001600160a01b03861660009081526013602052604090205460608301516142239190612d86565b60c084018190526020840182600381111561424057614240615b87565b600381111561425157614251615b87565b905250600090508260200151600381111561426e5761426e615b87565b1461429057614160600960308460200151600381111561317657613176615b87565b816080015161429d6129ff565b10156142af57614160600e6032612a6e565b60a082015160125560c08201516001600160a01b03871660009081526013602052604090205560808201516142e5908790613dec565b306001600160a01b0316866001600160a01b0316600080516020615db3833981519152846060015160405161431c91815260200190565b60405180910390a3608082015160608301516040517fe5b754fb1abb7f01b499791d0b820ae3b6af3424ac1c59768edb53f4ec31a9299261435e928a92615cf1565b60405180910390a1600654608083015160608401516040516351dff98960e01b81523060048201526001600160a01b038a81166024830152604482019390935260648101919091529116906351dff98990608401600060405180830381600087803b1580156143cc57600080fd5b505af11580156143e0573d6000803e3d6000fd5b50600092506143ed915050565b9695505050505050565b6000808361440a575060009050806129f8565b60006144168486615d6f565b9050836144238683615d29565b14614436576002600092509250506129f8565b6000925090506129f8565b6000808261445557506001905060006129f8565b60006144618486615d29565b915091509250929050565b600654604051634ef4c3e160e01b8152600091829182916001600160a01b031690634ef4c3e1906144a590309089908990600401615d4b565b6020604051808303816000875af11580156144c4573d6000803e3d6000fd5b505050506040513d601f19601f820116820180604052508101906144e89190615b39565b90508015614509576144fd6003602183613c4c565b600092509250506129f8565b43600c541461451e576144fd600a6024612a6e565b61455f6040805160e0810190915280600081526020016000815260200160008152602001600081526020016000815260200160008152602001600081525090565b614567611d93565b604083018190526020830182600381111561458457614584615b87565b600381111561459557614595615b87565b90525060009050816020015160038111156145b2576145b2615b87565b146145e1576145d4600960238360200151600381111561317657613176615b87565b60009350935050506129f8565b6145eb868661513d565b60c082018190526040805160208101825290830151815261460c919061538d565b606083018190526020830182600381111561462957614629615b87565b600381111561463a5761463a615b87565b905250600090508160200151600381111561465757614657615b87565b146146a45760405162461bcd60e51b815260206004820181905260248201527f4d494e545f45584348414e47455f43414c43554c4154494f4e5f4641494c45446044820152606401610cfa565b6146b46012548260600151612d50565b60808201526001600160a01b03861660009081526013602052604090205460608201516146e19190612d50565b60a0820181905260808201516012556001600160a01b038716600090815260136020526040908190209190915560c0820151606083015191517f4c209b5fc8ad50758f13e2e1088ba56a560dff690a1c6fef26394f4c03821c4f9261474a928a92909190615cf1565b60405180910390a1856001600160a01b0316306001600160a01b0316600080516020615db3833981519152836060015160405161478991815260200190565b60405180910390a360065460c082015160608301516040516341c728b960e01b81523060048201526001600160a01b038a81166024830152604482019390935260648101919091529116906341c728b990608401600060405180830381600087803b1580156147f757600080fd5b505af115801561480b573d6000803e3d6000fd5b5060009250614818915050565b8160c001519350935050509250929050565b6000806148378486615ca0565b905082858210156112425760405162461bcd60e51b8152600401610cfa91906157b2565b604080516020810190915260008152604051806020016040528061488385600001518561539d565b90529392505050565b600080614899848461485b565b905061135a81613d9a565b6000806148b1858561485b565b9050613bf96148bf82613d9a565b84612d50565b6000670de0b6b3a76400006148de84846000015161539d565b6116a49190615d29565b60065460405163368f515360e21b815260009182916001600160a01b039091169063da3d454c9061492190309088908890600401615d4b565b6020604051808303816000875af1158015614940573d6000803e3d6000fd5b505050506040513d601f19601f820116820180604052508101906149649190615b39565b90508015614981576149796003601083613c4c565b915050610cad565b43600c541461499657614979600a600c612a6e565b60006149a06129ff565b9050838110156149bf576149b6600e600b612a6e565b92505050610cad565b6149eb604080516080810190915280600081526020016000815260200160008152602001600081525090565b6149f486612bde565b6020830181905282826003811115614a0e57614a0e615b87565b6003811115614a1f57614a1f615b87565b9052506000905081516003811115614a3957614a39615b87565b14614a6457614a5a6009808360000151600381111561317657613176615b87565b9350505050610cad565b614a72816020015186613cee565b6040830181905282826003811115614a8c57614a8c615b87565b6003811115614a9d57614a9d615b87565b9052506000905081516003811115614ab757614ab7615b87565b14614ad957614a5a6009600e8360000151600381111561317657613176615b87565b6006546040828101519051631de6c8a560e21b815230600482015260248101919091526001600160a01b039091169063779b2294906044016020604051808303816000875af1158015614b30573d6000803e3d6000fd5b505050506040513d601f19601f82011682018060405250810190614b549190615b39565b92508215614b6957614a5a6003601085613c4c565b614b75600e5486613cee565b6060830181905282826003811115614b8f57614b8f615b87565b6003811115614ba057614ba0615b87565b9052506000905081516003811115614bba57614bba615b87565b14614bdc57614a5a6009600d8360000151600381111561317657613176615b87565b6040808201516001600160a01b0388166000908152601560205291909120908155600d546001909101556060810151600e55614c188686613dec565b60408082015160608084015183516001600160a01b038b168152602081018a9052938401929092528201527f13ed6866d4e1ee6da46f845c46d7e54120883d75c5ea9a2dacc1c4ca8984ab809060800160405180910390a160009695505050505050565b600654604051632fe3f38f60e11b81523060048201526001600160a01b03838116602483015286811660448301528581166064830152608482018590526000928392839290911690635fc7e71e9060a4016020604051808303816000875af1158015614cec573d6000803e3d6000fd5b505050506040513d601f19601f82011682018060405250810190614d109190615b39565b90508015614d3157614d256003601483613c4c565b60009250925050615134565b43600c5414614d4657614d25600a6018612a6e565b43846001600160a01b0316636c540baf6040518163ffffffff1660e01b8152600401602060405180830381865afa158015614d85573d6000803e3d6000fd5b505050506040513d601f19601f82011682018060405250810190614da99190615b39565b14614dba57614d25600a6013612a6e565b866001600160a01b0316866001600160a01b03161415614de057614d2560066019612a6e565b84614df157614d2560076017612a6e565b600019851415614e0757614d2560076016612a6e565b600080614e1589898961362f565b90925090508115614e4a57614e3c826011811115614e3557614e35615b87565b601a612a6e565b600094509450505050615134565b60065460405163c488847b60e01b815260009182916001600160a01b039091169063c488847b90614e839030908c908890600401615d4b565b6040805180830381865afa158015614e9f573d6000803e3d6000fd5b505050506040513d601f19601f82011682018060405250810190614ec39190615d8e565b90925090508115614f325760405162461bcd60e51b815260206004820152603360248201527f4c49515549444154455f434f4d5054524f4c4c45525f43414c43554c4154455f604482015272105353d5539517d4d152569157d19052531151606a1b6064820152608401610cfa565b6040516370a0823160e01b81526001600160a01b038b811660048301528291908a16906370a0823190602401602060405180830381865afa158015614f7b573d6000803e3d6000fd5b505050506040513d601f19601f82011682018060405250810190614f9f9190615b39565b1015614fed5760405162461bcd60e51b815260206004820152601860248201527f4c49515549444154455f5345495a455f544f4f5f4d55434800000000000000006044820152606401610cfa565b60006001600160a01b0389163014156150135761500c308d8d85612fbb565b9050615089565b60405163b2a02ff160e01b81526001600160a01b038a169063b2a02ff190615043908f908f908790600401615d4b565b6020604051808303816000875af1158015615062573d6000803e3d6000fd5b505050506040513d601f19601f820116820180604052508101906150869190615b39565b90505b80156150ce5760405162461bcd60e51b81526020600482015260146024820152731d1bdad95b881cd95a5e9d5c994819985a5b195960621b6044820152606401610cfa565b604080516001600160a01b038e811682528d811660208301528183018790528b1660608201526080810184905290517f298637f684da70674f26509b10f07ec2fbc77a335ab1e7d6215a4b2484d8bb529181900360a00190a16000975092955050505050505b94509492505050565b6016546040516370a0823160e01b815230600482015260009182916001600160a01b03909116906370a0823190602401602060405180830381865afa15801561518a573d6000803e3d6000fd5b505050506040513d601f19601f820116820180604052508101906151ae9190615b39565b905061523e6323b872dd60e01b8530866040516024016151d093929190615d4b565b604051602081830303815290604052906001600160e01b0319166020820180516001600160e01b0383818316178352505050506040518060400160405280601881526020017f544f4b454e5f5452414e534645525f494e5f4641494c45440000000000000000815250615336565b6016546040516370a0823160e01b81523060048201526000916001600160a01b0316906370a0823190602401602060405180830381865afa158015615287573d6000803e3d6000fd5b505050506040513d601f19601f820116820180604052508101906152ab9190615b39565b9050818110156152fd5760405162461bcd60e51b815260206004820152601a60248201527f544f4b454e5f5452414e534645525f494e5f4f564552464c4f570000000000006044820152606401610cfa565b613bf98282615d12565b6000818484111561532b5760405162461bcd60e51b8152600401610cfa91906157b2565b5061135a8385615d12565b601654600090615350906001600160a01b03168484613b66565b805190915015610eda578080602001905181019061536e9190615bcd565b82906113ef5760405162461bcd60e51b8152600401610cfa91906157b2565b6000806000806129bc86866153df565b60006116a483836040518060400160405280601781526020017f6d756c7469706c69636174696f6e206f766572666c6f77000000000000000000815250615452565b60006153f76040518060200160405280600081525090565b60008061540c670de0b6b3a7640000876143f7565b9092509050600082600381111561542557615425615b87565b14615444575060408051602081019091526000815290925090506129f8565b6129f1818660000151613a9b565b600083158061545f575082155b1561546c575060006116a4565b60006154788486615d6f565b9050836154858683615d29565b1483906112425760405162461bcd60e51b8152600401610cfa91906157b2565b8280546154b190615b52565b90600052602060002090601f0160209004810192826154d35760008555615519565b82601f106154ec57805160ff1916838001178555615519565b82800160010185558215615519579182015b828111156155195782518255916020019190600101906154fe565b506114e6929150615599565b82805461553190615b52565b90600052602060002090601f0160209004810192826155535760008555615519565b82601f1061556c5782800160ff19823516178555615519565b82800160010185558215615519579182015b8281111561551957823582559160200191906001019061557e565b5b808211156114e6576000815560010161559a565b6001600160a01b0381168114611d9057600080fd5b80356155ce816155ae565b919050565b634e487b7160e01b600052604160045260246000fd5b604051601f8201601f1916810167ffffffffffffffff81118282101715615612576156126155d3565b604052919050565b600067ffffffffffffffff821115615634576156346155d3565b50601f01601f191660200190565b600082601f83011261565357600080fd5b81356156666156618261561a565b6155e9565b81815284602083860101111561567b57600080fd5b816020850160208301376000918101602001919091529392505050565b600080600080600080600080610100898b0312156156b557600080fd5b88356156c0816155ae565b975060208901356156d0816155ae565b965060408901356156e0816155ae565b955060608901356156f0816155ae565b9450608089013567ffffffffffffffff8082111561570d57600080fd5b6157198c838d01615642565b955060a08b013591508082111561572f57600080fd5b5061573c8b828c01615642565b93505060c0890135915060e089013590509295985092959890939650565b60005b8381101561577557818101518382015260200161575d565b838111156113ef5750506000910152565b6000815180845261579e81602086016020860161575a565b601f01601f19169290920160200192915050565b6020815260006116a46020830184615786565b600080604083850312156157d857600080fd5b82356157e3816155ae565b946020939093013593505050565b60006020828403121561580357600080fd5b5035919050565b60006020828403121561581c57600080fd5b81356116a4816155ae565b60ff81168114611d9057600080fd5b80356155ce81615827565b60008060008060008060008060006101208a8c03121561586057600080fd5b893561586b816155ae565b985060208a013561587b816155ae565b975061588960408b016155c3565b965060608a0135955060808a013567ffffffffffffffff808211156158ad57600080fd5b6158b98d838e01615642565b965060a08c01359150808211156158cf57600080fd5b506158dc8c828d01615642565b9450506158eb60c08b01615836565b925060e08a013591506101008a013590509295985092959850929598565b60008060006060848603121561591e57600080fd5b8335615929816155ae565b92506020840135615939816155ae565b929592945050506040919091013590565b60008083601f84011261595c57600080fd5b50813567ffffffffffffffff81111561597457600080fd5b6020830191508360208285010111156129f857600080fd5b600080600080604085870312156159a257600080fd5b843567ffffffffffffffff808211156159ba57600080fd5b6159c68883890161594a565b909650945060208701359150808211156159df57600080fd5b506159ec8782880161594a565b95989497509550505050565b8015158114611d9057600080fd5b60008060008060608587031215615a1c57600080fd5b8435615a27816155ae565b93506020850135615a37816159f8565b9250604085013567ffffffffffffffff811115615a5357600080fd5b6159ec8782880161594a565b60008060208385031215615a7257600080fd5b823567ffffffffffffffff811115615a8957600080fd5b615a958582860161594a565b90969095509350505050565b60008060408385031215615ab457600080fd5b8235615abf816155ae565b91506020830135615acf816155ae565b809150509250929050565b600080600060608486031215615aef57600080fd5b8335615afa816155ae565b9250602084013591506040840135615b11816155ae565b809150509250925092565b600060208284031215615b2e57600080fd5b81516116a481615827565b600060208284031215615b4b57600080fd5b5051919050565b600181811c90821680615b6657607f821691505b60208210811415610d1857634e487b7160e01b600052602260045260246000fd5b634e487b7160e01b600052602160045260246000fd5b6020808252601690820152751858d8dc9d59481a5b9d195c995cdd0819985a5b195960521b604082015260600190565b600060208284031215615bdf57600080fd5b81516116a4816159f8565b600080600060608486031215615bff57600080fd5b8351615c0a816155ae565b6020850151909350615c1b816159f8565b604085015190925067ffffffffffffffff811115615c3857600080fd5b8401601f81018613615c4957600080fd5b8051615c576156618261561a565b818152876020838501011115615c6c57600080fd5b615c7d82602083016020860161575a565b8093505050509250925092565b634e487b7160e01b600052601160045260246000fd5b60008219821115615cb357615cb3615c8a565b500190565b60008251615cca81846020870161575a565b9190910192915050565b600060208284031215615ce657600080fd5b81516116a4816155ae565b6001600160a01b039390931683526020830191909152604082015260600190565b600082821015615d2457615d24615c8a565b500390565b600082615d4657634e487b7160e01b600052601260045260246000fd5b500490565b6001600160a01b039384168152919092166020820152604081019190915260600190565b6000816000190483118215151615615d8957615d89615c8a565b500290565b60008060408385031215615da157600080fd5b50508051602090910151909290915056feddf252ad1be2c89b69c2b068fc378daa952ba7f163c4a11628f55a4df523b3efa164736f6c634300080a000a",
    "linkReferences": {}
  },
  "methodIdentifiers": {
    "deployCErc20Delegate(address,bytes,bytes,uint256)": "3dc1327a",
    "deployCErc20PluginDelegate(address,uint256)": "118c5923",
    "deployCErc20PluginRewardsDelegate(address,address,uint256)": "133de179",
    "setUpBaseContracts()": "6f0b3950",
    "setUpPool(string,bool,uint256,uint256)": "e24c2e04",
    "setUpWhiteList()": "95990ddc"
  },
  "id": 218
}