{
  "abi": [
    {
      "anonymous": false,
      "inputs": [
        {
          "indexed": false,
          "internalType": "string",
          "name": "id",
          "type": "string"
        },
        {
          "indexed": true,
          "internalType": "address",
          "name": "newAddress",
          "type": "address"
        }
      ],
      "name": "AddressSet",
      "type": "event"
    },
    {
      "anonymous": false,
      "inputs": [
        {
          "indexed": false,
          "internalType": "uint8",
          "name": "version",
          "type": "uint8"
        }
      ],
      "name": "Initialized",
      "type": "event"
    },
    {
      "anonymous": false,
      "inputs": [
        {
          "indexed": true,
          "internalType": "address",
          "name": "previousOwner",
          "type": "address"
        },
        {
          "indexed": true,
          "internalType": "address",
          "name": "newOwner",
          "type": "address"
        }
      ],
      "name": "OwnershipTransferred",
      "type": "event"
    },
    {
      "inputs": [
        {
          "internalType": "address",
          "name": "",
          "type": "address"
        }
      ],
      "name": "flywheelRewards",
      "outputs": [
        {
          "internalType": "address",
          "name": "addr",
          "type": "address"
        },
        {
          "internalType": "string",
          "name": "contractInterface",
          "type": "string"
        }
      ],
      "stateMutability": "view",
      "type": "function"
    },
    {
      "inputs": [
        {
          "internalType": "string",
          "name": "id",
          "type": "string"
        }
      ],
      "name": "getAddress",
      "outputs": [
        {
          "internalType": "address",
          "name": "",
          "type": "address"
        }
      ],
      "stateMutability": "view",
      "type": "function"
    },
    {
      "inputs": [
        {
          "internalType": "address",
          "name": "owner",
          "type": "address"
        }
      ],
      "name": "initialize",
      "outputs": [],
      "stateMutability": "nonpayable",
      "type": "function"
    },
    {
      "inputs": [],
      "name": "owner",
      "outputs": [
        {
          "internalType": "address",
          "name": "",
          "type": "address"
        }
      ],
      "stateMutability": "view",
      "type": "function"
    },
    {
      "inputs": [
        {
          "internalType": "address",
          "name": "",
          "type": "address"
        }
      ],
      "name": "plugins",
      "outputs": [
        {
          "internalType": "address",
          "name": "addr",
          "type": "address"
        },
        {
          "internalType": "string",
          "name": "contractInterface",
          "type": "string"
        }
      ],
      "stateMutability": "view",
      "type": "function"
    },
    {
      "inputs": [],
      "name": "renounceOwnership",
      "outputs": [],
      "stateMutability": "nonpayable",
      "type": "function"
    },
    {
      "inputs": [
        {
          "internalType": "string",
          "name": "id",
          "type": "string"
        },
        {
          "internalType": "address",
          "name": "newAddress",
          "type": "address"
        }
      ],
      "name": "setAddress",
      "outputs": [],
      "stateMutability": "nonpayable",
      "type": "function"
    },
    {
      "inputs": [
        {
          "internalType": "address",
          "name": "rewardToken",
          "type": "address"
        },
        {
          "internalType": "address",
          "name": "flywheelRewardsModule",
          "type": "address"
        },
        {
          "internalType": "string",
          "name": "contractInterface",
          "type": "string"
        }
      ],
      "name": "setFlywheelRewards",
      "outputs": [],
      "stateMutability": "nonpayable",
      "type": "function"
    },
    {
      "inputs": [
        {
          "internalType": "address",
          "name": "asset",
          "type": "address"
        },
        {
          "internalType": "address",
          "name": "plugin",
          "type": "address"
        },
        {
          "internalType": "string",
          "name": "contractInterface",
          "type": "string"
        }
      ],
      "name": "setPlugin",
      "outputs": [],
      "stateMutability": "nonpayable",
      "type": "function"
    },
    {
      "inputs": [
        {
          "internalType": "address",
          "name": "newOwner",
          "type": "address"
        }
      ],
      "name": "transferOwnership",
      "outputs": [],
      "stateMutability": "nonpayable",
      "type": "function"
    }
  ],
  "bytecode": {
    "object": "0x608060405234801561001057600080fd5b50610b2a806100206000396000f3fe608060405234801561001057600080fd5b506004361061009e5760003560e01c80639b2ea4bd116100665780639b2ea4bd14610122578063a11b73a614610135578063bf40fac114610148578063c4d66de81461015b578063f2fde38b1461016e57600080fd5b80634172e7f9146100a35780634b12e643146100cd578063715018a6146100e057806381bc3632146100ea5780638da5cb5b146100fd575b600080fd5b6100b66100b136600461080e565b610181565b6040516100c4929190610830565b60405180910390f35b6100b66100db36600461080e565b610230565b6100e861025c565b005b6100e86100f83660046108de565b61029b565b6033546001600160a01b03165b6040516001600160a01b0390911681526020016100c4565b6100e861013036600461093f565b610369565b6100e86101433660046108de565b610411565b61010a610156366004610993565b6104d6565b6100e861016936600461080e565b61050b565b6100e861017c36600461080e565b61058a565b606660205260009081526040902080546001820180546001600160a01b0390921692916101ad906109d5565b80601f01602080910402602001604051908101604052809291908181526020018280546101d9906109d5565b80156102265780601f106101fb57610100808354040283529160200191610226565b820191906000526020600020905b81548152906001019060200180831161020957829003601f168201915b5050505050905082565b606760205260009081526040902080546001820180546001600160a01b0390921692916101ad906109d5565b6033546001600160a01b0316331461028f5760405162461bcd60e51b815260040161028690610a10565b60405180910390fd5b6102996000610625565b565b6033546001600160a01b031633146102c55760405162461bcd60e51b815260040161028690610a10565b6040518060400160405280846001600160a01b0316815260200183838080601f01602080910402602001604051908101604052809392919081815260200183838082843760009201829052509390945250506001600160a01b038781168252606760209081526040909220845181546001600160a01b031916921691909117815583820151805191935061036092600185019291019061075e565b50505050505050565b6033546001600160a01b031633146103935760405162461bcd60e51b815260040161028690610a10565b80606584846040516103a6929190610a45565b90815260405190819003602001812080546001600160a01b039384166001600160a01b0319909116179055908216907f188466739ff00cc68bfb2367d23ae4b855264264fe1624caa8884399af23454c906104049086908690610a55565b60405180910390a2505050565b6033546001600160a01b0316331461043b5760405162461bcd60e51b815260040161028690610a10565b6040518060400160405280846001600160a01b0316815260200183838080601f01602080910402602001604051908101604052809392919081815260200183838082843760009201829052509390945250506001600160a01b038781168252606660209081526040909220845181546001600160a01b031916921691909117815583820151805191935061036092600185019291019061075e565b6000606583836040516104ea929190610a45565b908152604051908190036020019020546001600160a01b0316905092915050565b60006105176001610677565b9050801561052f576000805461ff0019166101001790555b610537610704565b61054082610625565b8015610586576000805461ff0019169055604051600181527f7f26b83ff96e1f2b6a682f133852f6798a09c465da95921460cefb38474024989060200160405180910390a15b5050565b6033546001600160a01b031633146105b45760405162461bcd60e51b815260040161028690610a10565b6001600160a01b0381166106195760405162461bcd60e51b815260206004820152602660248201527f4f776e61626c653a206e6577206f776e657220697320746865207a65726f206160448201526564647265737360d01b6064820152608401610286565b61062281610625565b50565b603380546001600160a01b038381166001600160a01b0319831681179093556040519116919082907f8be0079c531659141344cd1fd0a4f28419497f9722a3daafe3b4186f6b6457e090600090a35050565b60008054610100900460ff16156106be578160ff16600114801561069a5750303b155b6106b65760405162461bcd60e51b815260040161028690610a84565b506000919050565b60005460ff8084169116106106e55760405162461bcd60e51b815260040161028690610a84565b506000805460ff191660ff92909216919091179055600190565b919050565b600054610100900460ff1661072b5760405162461bcd60e51b815260040161028690610ad2565b610299600054610100900460ff166107555760405162461bcd60e51b815260040161028690610ad2565b61029933610625565b82805461076a906109d5565b90600052602060002090601f01602090048101928261078c57600085556107d2565b82601f106107a557805160ff19168380011785556107d2565b828001600101855582156107d2579182015b828111156107d25782518255916020019190600101906107b7565b506107de9291506107e2565b5090565b5b808211156107de57600081556001016107e3565b80356001600160a01b03811681146106ff57600080fd5b60006020828403121561082057600080fd5b610829826107f7565b9392505050565b60018060a01b038316815260006020604081840152835180604085015260005b8181101561086c57858101830151858201606001528201610850565b8181111561087e576000606083870101525b50601f01601f191692909201606001949350505050565b60008083601f8401126108a757600080fd5b50813567ffffffffffffffff8111156108bf57600080fd5b6020830191508360208285010111156108d757600080fd5b9250929050565b600080600080606085870312156108f457600080fd5b6108fd856107f7565b935061090b602086016107f7565b9250604085013567ffffffffffffffff81111561092757600080fd5b61093387828801610895565b95989497509550505050565b60008060006040848603121561095457600080fd5b833567ffffffffffffffff81111561096b57600080fd5b61097786828701610895565b909450925061098a9050602085016107f7565b90509250925092565b600080602083850312156109a657600080fd5b823567ffffffffffffffff8111156109bd57600080fd5b6109c985828601610895565b90969095509350505050565b600181811c908216806109e957607f821691505b60208210811415610a0a57634e487b7160e01b600052602260045260246000fd5b50919050565b6020808252818101527f4f776e61626c653a2063616c6c6572206973206e6f7420746865206f776e6572604082015260600190565b8183823760009101908152919050565b60208152816020820152818360408301376000818301604090810191909152601f909201601f19160101919050565b6020808252602e908201527f496e697469616c697a61626c653a20636f6e747261637420697320616c72656160408201526d191e481a5b9a5d1a585b1a5e995960921b606082015260800190565b6020808252602b908201527f496e697469616c697a61626c653a20636f6e7472616374206973206e6f74206960408201526a6e697469616c697a696e6760a81b60608201526080019056fea164736f6c634300080a000a",
    "linkReferences": {}
  },
  "methodIdentifiers": {
    "flywheelRewards(address)": "4172e7f9",
    "getAddress(string)": "bf40fac1",
    "initialize(address)": "c4d66de8",
    "owner()": "8da5cb5b",
    "plugins(address)": "4b12e643",
    "renounceOwnership()": "715018a6",
    "setAddress(string,address)": "9b2ea4bd",
    "setFlywheelRewards(address,address,string)": "a11b73a6",
    "setPlugin(address,address,string)": "81bc3632",
    "transferOwnership(address)": "f2fde38b"
  },
  "id": 231
}