{
  "address": "0xaFA6C79856f6E57D8046B061C929A2ED91f62f29",
  "abi": [
    {
      "inputs": [
        {
          "internalType": "contract ICToken",
          "name": "cToken",
          "type": "address"
        }
      ],
      "name": "getUnderlyingPrice",
      "outputs": [
        {
          "internalType": "uint256",
          "name": "",
          "type": "uint256"
        }
      ],
      "stateMutability": "view",
      "type": "function"
    },
    {
      "inputs": [
        {
          "internalType": "address",
          "name": "underlying",
          "type": "address"
        }
      ],
      "name": "price",
      "outputs": [
        {
          "internalType": "uint256",
          "name": "",
          "type": "uint256"
        }
      ],
      "stateMutability": "view",
      "type": "function"
    }
  ],
  "transactionHash": "0x9899b55e914394bbefc88ca90833ea6194b268119ec85aa5925e26c188b124f6",
  "args": [],
  "numDeployments": 2,
  "bytecode": {
    "object": "0x608060405234801561001057600080fd5b5060cf8061001f6000396000f3fe6080604052348015600f57600080fd5b506004361060325760003560e01c8063aea91078146037578063fc57d4df146037575b600080fd5b604f60423660046078565b50670de0b6b3a764000090565b60405190815260200160405180910390f35b6001600160a01b0381168114607557600080fd5b50565b600060208284031215608957600080fd5b81356092816061565b939250505056fea2646970667358221220826f86fd300477dc2180270bc7bb151d015208f3d0221b6bdb217d33de30936d64736f6c634300080a0033",
    "linkReferences": {}
  }
}