{
  "abi": [
    {
      "inputs": [
        {
          "internalType": "contract MockERC20",
          "name": "_EPX",
          "type": "address"
        },
        {
          "internalType": "contract MockERC20",
          "name": "_DDD",
          "type": "address"
        },
        {
          "internalType": "contract MockERC20",
          "name": "_lpToken",
          "type": "address"
        }
      ],
      "stateMutability": "nonpayable",
      "type": "constructor"
    },
    {
      "anonymous": false,
      "inputs": [
        {
          "indexed": true,
          "internalType": "address",
          "name": "caller",
          "type": "address"
        },
        {
          "indexed": true,
          "internalType": "address",
          "name": "receiver",
          "type": "address"
        },
        {
          "indexed": false,
          "internalType": "address[]",
          "name": "tokens",
          "type": "address[]"
        },
        {
          "indexed": false,
          "internalType": "uint256",
          "name": "epxAmount",
          "type": "uint256"
        },
        {
          "indexed": false,
          "internalType": "uint256",
          "name": "dddAmount",
          "type": "uint256"
        }
      ],
      "name": "Claimed",
      "type": "event"
    },
    {
      "anonymous": false,
      "inputs": [
        {
          "indexed": true,
          "internalType": "address",
          "name": "caller",
          "type": "address"
        },
        {
          "indexed": true,
          "internalType": "address",
          "name": "receiver",
          "type": "address"
        },
        {
          "indexed": true,
          "internalType": "address",
          "name": "token",
          "type": "address"
        },
        {
          "indexed": false,
          "internalType": "uint256",
          "name": "amount",
          "type": "uint256"
        }
      ],
      "name": "Deposit",
      "type": "event"
    },
    {
      "anonymous": false,
      "inputs": [
        {
          "indexed": true,
          "internalType": "address",
          "name": "previousOwner",
          "type": "address"
        },
        {
          "indexed": true,
          "internalType": "address",
          "name": "newOwner",
          "type": "address"
        }
      ],
      "name": "OwnershipTransferred",
      "type": "event"
    },
    {
      "anonymous": false,
      "inputs": [
        {
          "indexed": true,
          "internalType": "address",
          "name": "caller",
          "type": "address"
        },
        {
          "indexed": true,
          "internalType": "address",
          "name": "receiver",
          "type": "address"
        },
        {
          "indexed": true,
          "internalType": "address",
          "name": "token",
          "type": "address"
        },
        {
          "indexed": false,
          "internalType": "uint256",
          "name": "amount",
          "type": "uint256"
        }
      ],
      "name": "Withdraw",
      "type": "event"
    },
    {
      "inputs": [],
      "name": "DDD",
      "outputs": [
        {
          "internalType": "contract MockERC20",
          "name": "",
          "type": "address"
        }
      ],
      "stateMutability": "view",
      "type": "function"
    },
    {
      "inputs": [],
      "name": "EPX",
      "outputs": [
        {
          "internalType": "contract MockERC20",
          "name": "",
          "type": "address"
        }
      ],
      "stateMutability": "view",
      "type": "function"
    },
    {
      "inputs": [
        {
          "internalType": "address",
          "name": "_receiver",
          "type": "address"
        },
        {
          "internalType": "address[]",
          "name": "_tokens",
          "type": "address[]"
        },
        {
          "internalType": "uint256",
          "name": "_maxBondAmount",
          "type": "uint256"
        }
      ],
      "name": "claim",
      "outputs": [],
      "stateMutability": "nonpayable",
      "type": "function"
    },
    {
      "inputs": [
        {
          "internalType": "address",
          "name": "_user",
          "type": "address"
        },
        {
          "internalType": "address",
          "name": "_token",
          "type": "address"
        },
        {
          "internalType": "uint256",
          "name": "_amount",
          "type": "uint256"
        }
      ],
      "name": "deposit",
      "outputs": [],
      "stateMutability": "nonpayable",
      "type": "function"
    },
    {
      "inputs": [],
      "name": "lpToken",
      "outputs": [
        {
          "internalType": "contract MockERC20",
          "name": "",
          "type": "address"
        }
      ],
      "stateMutability": "view",
      "type": "function"
    },
    {
      "inputs": [],
      "name": "owner",
      "outputs": [
        {
          "internalType": "address",
          "name": "",
          "type": "address"
        }
      ],
      "stateMutability": "view",
      "type": "function"
    },
    {
      "inputs": [],
      "name": "renounceOwnership",
      "outputs": [],
      "stateMutability": "nonpayable",
      "type": "function"
    },
    {
      "inputs": [
        {
          "internalType": "address",
          "name": "",
          "type": "address"
        }
      ],
      "name": "totalBalances",
      "outputs": [
        {
          "internalType": "uint256",
          "name": "",
          "type": "uint256"
        }
      ],
      "stateMutability": "view",
      "type": "function"
    },
    {
      "inputs": [
        {
          "internalType": "address",
          "name": "newOwner",
          "type": "address"
        }
      ],
      "name": "transferOwnership",
      "outputs": [],
      "stateMutability": "nonpayable",
      "type": "function"
    },
    {
      "inputs": [
        {
          "internalType": "address",
          "name": "",
          "type": "address"
        },
        {
          "internalType": "address",
          "name": "",
          "type": "address"
        }
      ],
      "name": "userBalances",
      "outputs": [
        {
          "internalType": "uint256",
          "name": "",
          "type": "uint256"
        }
      ],
      "stateMutability": "view",
      "type": "function"
    },
    {
      "inputs": [
        {
          "internalType": "address",
          "name": "_receiver",
          "type": "address"
        },
        {
          "internalType": "address",
          "name": "_token",
          "type": "address"
        },
        {
          "internalType": "uint256",
          "name": "_amount",
          "type": "uint256"
        }
      ],
      "name": "withdraw",
      "outputs": [],
      "stateMutability": "nonpayable",
      "type": "function"
    }
  ],
  "bytecode": {
    "object": "0x608060405234801561001057600080fd5b50604051610e0f380380610e0f83398101604081905261002f916100e6565b6100383361007a565b600180546001600160a01b039485166001600160a01b031991821617909155600280549385169382169390931790925560038054919093169116179055610129565b600080546001600160a01b038381166001600160a01b0319831681178455604051919092169283917f8be0079c531659141344cd1fd0a4f28419497f9722a3daafe3b4186f6b6457e09190a35050565b80516001600160a01b03811681146100e157600080fd5b919050565b6000806000606084860312156100fb57600080fd5b610104846100ca565b9250610112602085016100ca565b9150610120604085016100ca565b90509250925092565b610cd7806101386000396000f3fe608060405234801561001057600080fd5b50600436106100a95760003560e01c80638da5cb5b116100715780638da5cb5b14610121578063adb5198014610132578063aee9c8721461016b578063d9caed121461018b578063dd96440e1461019e578063f2fde38b146101b157600080fd5b80632686b6a7146100ae5780633601ae05146100de5780635fcbd285146100f3578063715018a6146101065780638340f5491461010e575b600080fd5b6001546100c1906001600160a01b031681565b6040516001600160a01b0390911681526020015b60405180910390f35b6100f16100ec366004610a7c565b6101c4565b005b6003546100c1906001600160a01b031681565b6100f16102fd565b6100f161011c366004610b08565b610368565b6000546001600160a01b03166100c1565b61015d610140366004610b44565b600460209081526000928352604080842090915290825290205481565b6040519081526020016100d5565b61015d610179366004610b77565b60056020526000908152604090205481565b6100f1610199366004610b08565b6104c1565b6002546100c1906001600160a01b031681565b6100f16101bf366004610b77565b61064a565b6001546040516340c10f1960e01b81526001600160a01b038681166004830152670de0b6b3a76400006024830152909116906340c10f1990604401600060405180830381600087803b15801561021957600080fd5b505af115801561022d573d6000803e3d6000fd5b50506002546040516340c10f1960e01b81526001600160a01b038881166004830152670de0b6b3a7640000602483015290911692506340c10f199150604401600060405180830381600087803b15801561028657600080fd5b505af115801561029a573d6000803e3d6000fd5b50505050836001600160a01b0316336001600160a01b03167fbddff4e37a2b55d32a94300600702a6de099384334948dc1a5e0974f5f7088ed8585670de0b6b3a7640000806040516102ef9493929190610b92565b60405180910390a350505050565b6000546001600160a01b0316331461035c5760405162461bcd60e51b815260206004820181905260248201527f4f776e61626c653a2063616c6c6572206973206e6f7420746865206f776e657260448201526064015b60405180910390fd5b6103666000610715565b565b61037d6001600160a01b038316333084610765565b6001600160a01b0380841660009081526004602090815260408083209386168352928152828220546005909152919020546103b88383610bfe565b6001600160a01b038087166000908152600460209081526040808320938916835292905220556103e88382610bfe565b6001600160a01b03858116600090815260056020526040908190209290925560035491516340c10f1960e01b81528782166004820152602481018690529116906340c10f1990604401600060405180830381600087803b15801561044b57600080fd5b505af115801561045f573d6000803e3d6000fd5b50505050836001600160a01b0316856001600160a01b0316336001600160a01b03167f7cfff908a4b583f36430b25d75964c458d8ede8a99bd61be750e97ee1b2f3a96866040516104b291815260200190565b60405180910390a45050505050565b3360009081526004602090815260408083206001600160a01b0386168452825280832054600590925290912054828210156105355760405162461bcd60e51b8152602060048201526014602482015273496e73756666696369656e742062616c616e636560601b6044820152606401610353565b61053f8383610c16565b3360009081526004602090815260408083206001600160a01b038916845290915290205561056d8382610c16565b6001600160a01b0385811660009081526005602052604090819020929092556003549151632770a7eb60e21b815233600482015260248101869052911690639dc29fac90604401600060405180830381600087803b1580156105ce57600080fd5b505af11580156105e2573d6000803e3d6000fd5b506105fb925050506001600160a01b03851633856107d6565b836001600160a01b0316856001600160a01b0316336001600160a01b03167f3115d1449a7b732c986cba18244e897a450f61e1bb8d589cd2e69e6c8924f9f7866040516104b291815260200190565b6000546001600160a01b031633146106a45760405162461bcd60e51b815260206004820181905260248201527f4f776e61626c653a2063616c6c6572206973206e6f7420746865206f776e65726044820152606401610353565b6001600160a01b0381166107095760405162461bcd60e51b815260206004820152602660248201527f4f776e61626c653a206e6577206f776e657220697320746865207a65726f206160448201526564647265737360d01b6064820152608401610353565b61071281610715565b50565b600080546001600160a01b038381166001600160a01b0319831681178455604051919092169283917f8be0079c531659141344cd1fd0a4f28419497f9722a3daafe3b4186f6b6457e09190a35050565b6040516001600160a01b03808516602483015283166044820152606481018290526107d09085906323b872dd60e01b906084015b60408051601f198184030181529190526020810180516001600160e01b03166001600160e01b03199093169290921790915261080b565b50505050565b6040516001600160a01b03831660248201526044810182905261080690849063a9059cbb60e01b90606401610799565b505050565b6000610860826040518060400160405280602081526020017f5361666545524332303a206c6f772d6c6576656c2063616c6c206661696c6564815250856001600160a01b03166108dd9092919063ffffffff16565b805190915015610806578080602001905181019061087e9190610c2d565b6108065760405162461bcd60e51b815260206004820152602a60248201527f5361666545524332303a204552433230206f7065726174696f6e20646964206e6044820152691bdd081cdd58d8d9595960b21b6064820152608401610353565b60606108ec84846000856108f6565b90505b9392505050565b6060824710156109575760405162461bcd60e51b815260206004820152602660248201527f416464726573733a20696e73756666696369656e742062616c616e636520666f6044820152651c8818d85b1b60d21b6064820152608401610353565b6001600160a01b0385163b6109ae5760405162461bcd60e51b815260206004820152601d60248201527f416464726573733a2063616c6c20746f206e6f6e2d636f6e74726163740000006044820152606401610353565b600080866001600160a01b031685876040516109ca9190610c7b565b60006040518083038185875af1925050503d8060008114610a07576040519150601f19603f3d011682016040523d82523d6000602084013e610a0c565b606091505b5091509150610a1c828286610a27565b979650505050505050565b60608315610a365750816108ef565b825115610a465782518084602001fd5b8160405162461bcd60e51b81526004016103539190610c97565b80356001600160a01b0381168114610a7757600080fd5b919050565b60008060008060608587031215610a9257600080fd5b610a9b85610a60565b9350602085013567ffffffffffffffff80821115610ab857600080fd5b818701915087601f830112610acc57600080fd5b813581811115610adb57600080fd5b8860208260051b8501011115610af057600080fd5b95986020929092019750949560400135945092505050565b600080600060608486031215610b1d57600080fd5b610b2684610a60565b9250610b3460208501610a60565b9150604084013590509250925092565b60008060408385031215610b5757600080fd5b610b6083610a60565b9150610b6e60208401610a60565b90509250929050565b600060208284031215610b8957600080fd5b6108ef82610a60565b6060808252810184905260008560808301825b87811015610bd3576001600160a01b03610bbe84610a60565b16825260209283019290910190600101610ba5565b50602084019590955250506040015292915050565b634e487b7160e01b600052601160045260246000fd5b60008219821115610c1157610c11610be8565b500190565b600082821015610c2857610c28610be8565b500390565b600060208284031215610c3f57600080fd5b815180151581146108ef57600080fd5b60005b83811015610c6a578181015183820152602001610c52565b838111156107d05750506000910152565b60008251610c8d818460208701610c4f565b9190910192915050565b6020815260008251806020840152610cb6816040850160208701610c4f565b601f01601f1916919091016040019291505056fea164736f6c634300080a000a",
    "linkReferences": {}
  },
  "methodIdentifiers": {
    "DDD()": "dd96440e",
    "EPX()": "2686b6a7",
    "claim(address,address[],uint256)": "3601ae05",
    "deposit(address,address,uint256)": "8340f549",
    "lpToken()": "5fcbd285",
    "owner()": "8da5cb5b",
    "renounceOwnership()": "715018a6",
    "totalBalances(address)": "aee9c872",
    "transferOwnership(address)": "f2fde38b",
    "userBalances(address,address)": "adb51980",
    "withdraw(address,address,uint256)": "d9caed12"
  },
  "id": 227
}