{
  "abi": [
    {
      "inputs": [
        {
          "internalType": "contract ISynthereumLiquidityPool",
          "name": "_pool",
          "type": "address"
        },
        {
          "internalType": "uint64",
          "name": "_txExpirationPeriod",
          "type": "uint64"
        }
      ],
      "stateMutability": "nonpayable",
      "type": "constructor"
    },
    {
      "inputs": [],
      "name": "pool",
      "outputs": [
        {
          "internalType": "contract ISynthereumLiquidityPool",
          "name": "",
          "type": "address"
        }
      ],
      "stateMutability": "view",
      "type": "function"
    },
    {
      "inputs": [
        {
          "internalType": "contract IERC20Upgradeable",
          "name": "inputToken",
          "type": "address"
        },
        {
          "internalType": "uint256",
          "name": "inputAmount",
          "type": "uint256"
        },
        {
          "internalType": "bytes",
          "name": "strategyData",
          "type": "bytes"
        }
      ],
      "name": "redeem",
      "outputs": [
        {
          "internalType": "contract IERC20Upgradeable",
          "name": "outputToken",
          "type": "address"
        },
        {
          "internalType": "uint256",
          "name": "outputAmount",
          "type": "uint256"
        }
      ],
      "stateMutability": "nonpayable",
      "type": "function"
    },
    {
      "inputs": [],
      "name": "txExpirationPeriod",
      "outputs": [
        {
          "internalType": "uint64",
          "name": "",
          "type": "uint64"
        }
      ],
      "stateMutability": "view",
      "type": "function"
    }
  ],
  "bytecode": {
    "object": "0x60c060405234801561001057600080fd5b506040516108a33803806108a383398101604081905261002f916100c1565b6001600160a01b0382166080526102586001600160401b03821610156100af5760405162461bcd60e51b815260206004820152602b60248201527f6174206c65617374203130206d696e732065787069726174696f6e207065726960448201526a1bd9081c995c5d5a5c995960aa1b606482015260840160405180910390fd5b6001600160401b031660a05250610113565b600080604083850312156100d457600080fd5b82516001600160a01b03811681146100eb57600080fd5b60208401519092506001600160401b038116811461010857600080fd5b809150509250929050565b60805160a05161073561016e6000396000818160c101526103d10152600081816082015281816101130152818161019901528181610223015281816102ab0152818161034c0152818161045501526104cc01526107356000f3fe608060405234801561001057600080fd5b50600436106100415760003560e01c806310badf4e1461004657806316f0115b1461007d5780631bd8930b146100bc575b600080fd5b610059610054366004610589565b6100fc565b604080516001600160a01b0390931683526020830191909152015b60405180910390f35b6100a47f000000000000000000000000000000000000000000000000000000000000000081565b6040516001600160a01b039091168152602001610074565b6100e37f000000000000000000000000000000000000000000000000000000000000000081565b60405167ffffffffffffffff9091168152602001610074565b60405163095ea7b360e01b81526001600160a01b037f00000000000000000000000000000000000000000000000000000000000000008116600483015260248201849052600091829186169063095ea7b3906044016020604051808303816000875af1158015610170573d6000803e3d6000fd5b505050506040513d601f19601f820116820180604052508101906101949190610656565b5060007f00000000000000000000000000000000000000000000000000000000000000006001600160a01b0316637b34ee7f6040518163ffffffff1660e01b8152600401602060405180830381865afa1580156101f5573d6000803e3d6000fd5b505050506040513d601f19601f82011682018060405250810190610219919061067f565b11156103335760007f00000000000000000000000000000000000000000000000000000000000000006001600160a01b031662b9add76040518163ffffffff1660e01b815260040160408051808303816000875af115801561027f573d6000803e3d6000fd5b505050506040513d601f19601f820116820180604052508101906102a39190610698565b9150508091507f00000000000000000000000000000000000000000000000000000000000000006001600160a01b031663b2016bd46040518163ffffffff1660e01b8152600401602060405180830381865afa158015610307573d6000803e3d6000fd5b505050506040513d601f19601f8201168201806040525081019061032b91906106bc565b925050610553565b60405163980f23c560e01b8152600481018590526000907f00000000000000000000000000000000000000000000000000000000000000006001600160a01b03169063980f23c5906024016040805180830381865afa15801561039a573d6000803e3d6000fd5b505050506040513d601f19601f820116820180604052508101906103be9190610698565b50905060006103f767ffffffffffffffff7f000000000000000000000000000000000000000000000000000000000000000016426106d9565b60408051608081018252888152602081018581528183018481523060608401908152935163525e6b1160e01b8152925160048401529051602483015251604482015290516001600160a01b03908116606483015291925060009182917f00000000000000000000000000000000000000000000000000000000000000009091169063525e6b119060840160408051808303816000875af115801561049f573d6000803e3d6000fd5b505050506040513d601f19601f820116820180604052508101906104c39190610698565b915091508194507f00000000000000000000000000000000000000000000000000000000000000006001600160a01b031663b2016bd46040518163ffffffff1660e01b8152600401602060405180830381865afa158015610528573d6000803e3d6000fd5b505050506040513d601f19601f8201168201806040525081019061054c91906106bc565b9550505050505b935093915050565b6001600160a01b038116811461057057600080fd5b50565b634e487b7160e01b600052604160045260246000fd5b60008060006060848603121561059e57600080fd5b83356105a98161055b565b925060208401359150604084013567ffffffffffffffff808211156105cd57600080fd5b818601915086601f8301126105e157600080fd5b8135818111156105f3576105f3610573565b604051601f8201601f19908116603f0116810190838211818310171561061b5761061b610573565b8160405282815289602084870101111561063457600080fd5b8260208601602083013760006020848301015280955050505050509250925092565b60006020828403121561066857600080fd5b8151801515811461067857600080fd5b9392505050565b60006020828403121561069157600080fd5b5051919050565b600080604083850312156106ab57600080fd5b505080516020909101519092909150565b6000602082840312156106ce57600080fd5b81516106788161055b565b600082198211156106fa57634e487b7160e01b600052601160045260246000fd5b50019056fea2646970667358221220b02822c2f9fd15b1732a771ef98779d01572222957be1edbc780ab25b395719d64736f6c634300080a0033",
    "linkReferences": {}
  }
}