{
  "abi": [
    {
      "inputs": [
        {
          "internalType": "uint256",
          "name": "_maxSecondsBeforePriceIsStale",
          "type": "uint256"
        },
        {
          "internalType": "address",
          "name": "nativeTokenUsdPriceFeed",
          "type": "address"
        },
        {
          "internalType": "address",
          "name": "eurUsdPriceFeed",
          "type": "address"
        }
      ],
      "stateMutability": "nonpayable",
      "type": "constructor"
    },
    {
      "inputs": [],
      "name": "EUR_USD_PRICE_FEED",
      "outputs": [
        {
          "internalType": "contract AggregatorV3Interface",
          "name": "",
          "type": "address"
        }
      ],
      "stateMutability": "view",
      "type": "function"
    },
    {
      "inputs": [],
      "name": "NATIVE_TOKEN_USD_PRICE_FEED",
      "outputs": [
        {
          "internalType": "contract AggregatorV3Interface",
          "name": "",
          "type": "address"
        }
      ],
      "stateMutability": "view",
      "type": "function"
    },
    {
      "inputs": [
        {
          "internalType": "contract ICToken",
          "name": "cToken",
          "type": "address"
        }
      ],
      "name": "getUnderlyingPrice",
      "outputs": [
        {
          "internalType": "uint256",
          "name": "",
          "type": "uint256"
        }
      ],
      "stateMutability": "view",
      "type": "function"
    },
    {
      "inputs": [],
      "name": "maxSecondsBeforePriceIsStale",
      "outputs": [
        {
          "internalType": "uint256",
          "name": "",
          "type": "uint256"
        }
      ],
      "stateMutability": "view",
      "type": "function"
    },
    {
      "inputs": [
        {
          "internalType": "address",
          "name": "underlying",
          "type": "address"
        }
      ],
      "name": "price",
      "outputs": [
        {
          "internalType": "uint256",
          "name": "",
          "type": "uint256"
        }
      ],
      "stateMutability": "view",
      "type": "function"
    }
  ],
  "bytecode": {
    "object": "0x60c060405234801561001057600080fd5b506040516107b23803806107b283398101604081905261002f91610068565b6000929092556001600160a01b039081166080521660a0526100a4565b80516001600160a01b038116811461006357600080fd5b919050565b60008060006060848603121561007d57600080fd5b8351925061008d6020850161004c565b915061009b6040850161004c565b90509250925092565b60805160a0516106dd6100d56000396000818160a501526103330152600081816061015261021f01526106dd6000f3fe608060405234801561001057600080fd5b50600436106100575760003560e01c80633a7506851461005c5780634be6e2d6146100a0578063aea91078146100c7578063e073a241146100e8578063fc57d4df146100f1575b600080fd5b6100837f000000000000000000000000000000000000000000000000000000000000000081565b6040516001600160a01b0390911681526020015b60405180910390f35b6100837f000000000000000000000000000000000000000000000000000000000000000081565b6100da6100d536600461047c565b610104565b604051908152602001610097565b6100da60005481565b6100da6100ff36600461047c565b610115565b600061010f82610218565b92915050565b600080826001600160a01b0316636f307dc36040518163ffffffff1660e01b8152600401602060405180830381865afa158015610156573d6000803e3d6000fd5b505050506040513d601f19601f8201168201806040525081019061017a9190610499565b9050806001600160a01b031663313ce5676040518163ffffffff1660e01b8152600401602060405180830381865afa1580156101ba573d6000803e3d6000fd5b505050506040513d601f19601f820116820180604052508101906101de91906104b6565b6101ec9060ff16600a6105d3565b6101f582610218565b61020790670de0b6b3a76400006105df565b61021191906105fe565b9392505050565b60008060007f00000000000000000000000000000000000000000000000000000000000000006001600160a01b031663feaf968c6040518163ffffffff1660e01b815260040160a060405180830381865afa15801561027b573d6000803e3d6000fd5b505050506040513d601f19601f8201168201806040525081019061029f919061063f565b5093505092505060008054111561031d576000546102bd908261068f565b42111561031d5760405162461bcd60e51b8152602060048201526024808201527f4e41544956452f55534420436861696e6c696e6b20707269636520697320737460448201526330b6329760e11b60648201526084015b60405180910390fd5b6000821361032f575060009392505050565b60007f00000000000000000000000000000000000000000000000000000000000000006001600160a01b031663feaf968c6040518163ffffffff1660e01b815260040160a060405180830381865afa15801561038f573d6000803e3d6000fd5b505050506040513d601f19601f820116820180604052508101906103b3919061063f565b506000549095509193505015905061042b576000546103d2908361068f565b42111561042b5760405162461bcd60e51b815260206004820152602160248201527f4555522f55534420436861696e6c696e6b207072696365206973207374616c656044820152601760f91b6064820152608401610314565b6000811361043e57506000949350505050565b8261045182670de0b6b3a76400006105df565b61045b91906105fe565b95945050505050565b6001600160a01b038116811461047957600080fd5b50565b60006020828403121561048e57600080fd5b813561021181610464565b6000602082840312156104ab57600080fd5b815161021181610464565b6000602082840312156104c857600080fd5b815160ff8116811461021157600080fd5b634e487b7160e01b600052601160045260246000fd5b600181815b8085111561052a578160001904821115610510576105106104d9565b8085161561051d57918102915b93841c93908002906104f4565b509250929050565b6000826105415750600161010f565b8161054e5750600061010f565b8160018114610564576002811461056e5761058a565b600191505061010f565b60ff84111561057f5761057f6104d9565b50506001821b61010f565b5060208310610133831016604e8410600b84101617156105ad575081810a61010f565b6105b783836104ef565b80600019048211156105cb576105cb6104d9565b029392505050565b60006102118383610532565b60008160001904831182151516156105f9576105f96104d9565b500290565b60008261061b57634e487b7160e01b600052601260045260246000fd5b500490565b805169ffffffffffffffffffff8116811461063a57600080fd5b919050565b600080600080600060a0868803121561065757600080fd5b61066086610620565b945060208601519350604086015192506060860151915061068360808701610620565b90509295509295909350565b600082198211156106a2576106a26104d9565b50019056fea2646970667358221220b3a8ed6ab3e2368acaaffd9e1f75d154fbe8db4833188e56f87fe97fd68455f664736f6c634300080a0033",
    "linkReferences": {}
  }
}