{
  "abi": [
    {
      "inputs": [],
      "name": "length",
      "outputs": [
        {
          "internalType": "uint16",
          "name": "",
          "type": "uint16"
        }
      ],
      "stateMutability": "view",
      "type": "function"
    },
    {
      "inputs": [
        {
          "internalType": "uint256",
          "name": "",
          "type": "uint256"
        }
      ],
      "name": "observations",
      "outputs": [
        {
          "internalType": "uint32",
          "name": "timestamp",
          "type": "uint32"
        },
        {
          "internalType": "uint112",
          "name": "price0Cumulative",
          "type": "uint112"
        },
        {
          "internalType": "uint112",
          "name": "price1Cumulative",
          "type": "uint112"
        }
      ],
      "stateMutability": "view",
      "type": "function"
    }
  ],
  "bytecode": {
    "object": "0x608060405234801561001057600080fd5b5061011c806100206000396000f3fe6080604052348015600f57600080fd5b506004361060325760003560e01c80631f7b6d32146037578063252c09d714605b575b600080fd5b61ffff80546043911681565b60405161ffff90911681526020015b60405180910390f35b606a606636600460ce565b6095565b6040805163ffffffff90941684526001600160701b0392831660208501529116908201526060016052565b60008161ffff811060a557600080fd5b015463ffffffff811691506001600160701b036401000000008204811691600160901b90041683565b60006020828403121560df57600080fd5b503591905056fea26469706673582212200d4e41c5517f4af9ed2fdb1e3f7af3b48fd8218d9393e7bfc4525d6d70dc028464736f6c634300080a0033",
    "linkReferences": {}
  }
}