{
  "abi": [
    {
      "inputs": [
        {
          "internalType": "contract ERC20",
          "name": "_asset",
          "type": "address"
        }
      ],
      "stateMutability": "nonpayable",
      "type": "constructor"
    },
    {
      "anonymous": false,
      "inputs": [
        {
          "indexed": true,
          "internalType": "address",
          "name": "owner",
          "type": "address"
        },
        {
          "indexed": true,
          "internalType": "address",
          "name": "spender",
          "type": "address"
        },
        {
          "indexed": false,
          "internalType": "uint256",
          "name": "amount",
          "type": "uint256"
        }
      ],
      "name": "Approval",
      "type": "event"
    },
    {
      "anonymous": false,
      "inputs": [
        {
          "indexed": true,
          "internalType": "address",
          "name": "caller",
          "type": "address"
        },
        {
          "indexed": true,
          "internalType": "address",
          "name": "owner",
          "type": "address"
        },
        {
          "indexed": false,
          "internalType": "uint256",
          "name": "assets",
          "type": "uint256"
        },
        {
          "indexed": false,
          "internalType": "uint256",
          "name": "shares",
          "type": "uint256"
        }
      ],
      "name": "Deposit",
      "type": "event"
    },
    {
      "anonymous": false,
      "inputs": [
        {
          "indexed": true,
          "internalType": "address",
          "name": "from",
          "type": "address"
        },
        {
          "indexed": true,
          "internalType": "address",
          "name": "to",
          "type": "address"
        },
        {
          "indexed": false,
          "internalType": "uint256",
          "name": "amount",
          "type": "uint256"
        }
      ],
      "name": "Transfer",
      "type": "event"
    },
    {
      "anonymous": false,
      "inputs": [
        {
          "indexed": true,
          "internalType": "address",
          "name": "caller",
          "type": "address"
        },
        {
          "indexed": true,
          "internalType": "address",
          "name": "receiver",
          "type": "address"
        },
        {
          "indexed": true,
          "internalType": "address",
          "name": "owner",
          "type": "address"
        },
        {
          "indexed": false,
          "internalType": "uint256",
          "name": "assets",
          "type": "uint256"
        },
        {
          "indexed": false,
          "internalType": "uint256",
          "name": "shares",
          "type": "uint256"
        }
      ],
      "name": "Withdraw",
      "type": "event"
    },
    {
      "inputs": [],
      "name": "DOMAIN_SEPARATOR",
      "outputs": [
        {
          "internalType": "bytes32",
          "name": "",
          "type": "bytes32"
        }
      ],
      "stateMutability": "view",
      "type": "function"
    },
    {
      "inputs": [
        {
          "internalType": "address",
          "name": "",
          "type": "address"
        },
        {
          "internalType": "address",
          "name": "",
          "type": "address"
        }
      ],
      "name": "allowance",
      "outputs": [
        {
          "internalType": "uint256",
          "name": "",
          "type": "uint256"
        }
      ],
      "stateMutability": "view",
      "type": "function"
    },
    {
      "inputs": [
        {
          "internalType": "address",
          "name": "spender",
          "type": "address"
        },
        {
          "internalType": "uint256",
          "name": "amount",
          "type": "uint256"
        }
      ],
      "name": "approve",
      "outputs": [
        {
          "internalType": "bool",
          "name": "",
          "type": "bool"
        }
      ],
      "stateMutability": "nonpayable",
      "type": "function"
    },
    {
      "inputs": [],
      "name": "asset",
      "outputs": [
        {
          "internalType": "contract ERC20",
          "name": "",
          "type": "address"
        }
      ],
      "stateMutability": "view",
      "type": "function"
    },
    {
      "inputs": [
        {
          "internalType": "address",
          "name": "",
          "type": "address"
        }
      ],
      "name": "balanceOf",
      "outputs": [
        {
          "internalType": "uint256",
          "name": "",
          "type": "uint256"
        }
      ],
      "stateMutability": "view",
      "type": "function"
    },
    {
      "inputs": [
        {
          "internalType": "address",
          "name": "account",
          "type": "address"
        }
      ],
      "name": "balanceOfUnderlying",
      "outputs": [
        {
          "internalType": "uint256",
          "name": "",
          "type": "uint256"
        }
      ],
      "stateMutability": "view",
      "type": "function"
    },
    {
      "inputs": [
        {
          "internalType": "uint256",
          "name": "shares",
          "type": "uint256"
        }
      ],
      "name": "convertToAssets",
      "outputs": [
        {
          "internalType": "uint256",
          "name": "",
          "type": "uint256"
        }
      ],
      "stateMutability": "view",
      "type": "function"
    },
    {
      "inputs": [
        {
          "internalType": "uint256",
          "name": "assets",
          "type": "uint256"
        }
      ],
      "name": "convertToShares",
      "outputs": [
        {
          "internalType": "uint256",
          "name": "",
          "type": "uint256"
        }
      ],
      "stateMutability": "view",
      "type": "function"
    },
    {
      "inputs": [],
      "name": "decimals",
      "outputs": [
        {
          "internalType": "uint8",
          "name": "",
          "type": "uint8"
        }
      ],
      "stateMutability": "view",
      "type": "function"
    },
    {
      "inputs": [
        {
          "internalType": "uint256",
          "name": "assets",
          "type": "uint256"
        },
        {
          "internalType": "address",
          "name": "receiver",
          "type": "address"
        }
      ],
      "name": "deposit",
      "outputs": [
        {
          "internalType": "uint256",
          "name": "shares",
          "type": "uint256"
        }
      ],
      "stateMutability": "nonpayable",
      "type": "function"
    },
    {
      "inputs": [
        {
          "internalType": "address",
          "name": "",
          "type": "address"
        }
      ],
      "name": "maxDeposit",
      "outputs": [
        {
          "internalType": "uint256",
          "name": "",
          "type": "uint256"
        }
      ],
      "stateMutability": "view",
      "type": "function"
    },
    {
      "inputs": [
        {
          "internalType": "address",
          "name": "",
          "type": "address"
        }
      ],
      "name": "maxMint",
      "outputs": [
        {
          "internalType": "uint256",
          "name": "",
          "type": "uint256"
        }
      ],
      "stateMutability": "view",
      "type": "function"
    },
    {
      "inputs": [
        {
          "internalType": "address",
          "name": "owner",
          "type": "address"
        }
      ],
      "name": "maxRedeem",
      "outputs": [
        {
          "internalType": "uint256",
          "name": "",
          "type": "uint256"
        }
      ],
      "stateMutability": "view",
      "type": "function"
    },
    {
      "inputs": [
        {
          "internalType": "address",
          "name": "owner",
          "type": "address"
        }
      ],
      "name": "maxWithdraw",
      "outputs": [
        {
          "internalType": "uint256",
          "name": "",
          "type": "uint256"
        }
      ],
      "stateMutability": "view",
      "type": "function"
    },
    {
      "inputs": [
        {
          "internalType": "uint256",
          "name": "shares",
          "type": "uint256"
        },
        {
          "internalType": "address",
          "name": "receiver",
          "type": "address"
        }
      ],
      "name": "mint",
      "outputs": [
        {
          "internalType": "uint256",
          "name": "assets",
          "type": "uint256"
        }
      ],
      "stateMutability": "nonpayable",
      "type": "function"
    },
    {
      "inputs": [],
      "name": "name",
      "outputs": [
        {
          "internalType": "string",
          "name": "",
          "type": "string"
        }
      ],
      "stateMutability": "view",
      "type": "function"
    },
    {
      "inputs": [
        {
          "internalType": "address",
          "name": "",
          "type": "address"
        }
      ],
      "name": "nonces",
      "outputs": [
        {
          "internalType": "uint256",
          "name": "",
          "type": "uint256"
        }
      ],
      "stateMutability": "view",
      "type": "function"
    },
    {
      "inputs": [
        {
          "internalType": "address",
          "name": "owner",
          "type": "address"
        },
        {
          "internalType": "address",
          "name": "spender",
          "type": "address"
        },
        {
          "internalType": "uint256",
          "name": "value",
          "type": "uint256"
        },
        {
          "internalType": "uint256",
          "name": "deadline",
          "type": "uint256"
        },
        {
          "internalType": "uint8",
          "name": "v",
          "type": "uint8"
        },
        {
          "internalType": "bytes32",
          "name": "r",
          "type": "bytes32"
        },
        {
          "internalType": "bytes32",
          "name": "s",
          "type": "bytes32"
        }
      ],
      "name": "permit",
      "outputs": [],
      "stateMutability": "nonpayable",
      "type": "function"
    },
    {
      "inputs": [
        {
          "internalType": "uint256",
          "name": "assets",
          "type": "uint256"
        }
      ],
      "name": "previewDeposit",
      "outputs": [
        {
          "internalType": "uint256",
          "name": "",
          "type": "uint256"
        }
      ],
      "stateMutability": "view",
      "type": "function"
    },
    {
      "inputs": [
        {
          "internalType": "uint256",
          "name": "shares",
          "type": "uint256"
        }
      ],
      "name": "previewMint",
      "outputs": [
        {
          "internalType": "uint256",
          "name": "",
          "type": "uint256"
        }
      ],
      "stateMutability": "view",
      "type": "function"
    },
    {
      "inputs": [
        {
          "internalType": "uint256",
          "name": "shares",
          "type": "uint256"
        }
      ],
      "name": "previewRedeem",
      "outputs": [
        {
          "internalType": "uint256",
          "name": "",
          "type": "uint256"
        }
      ],
      "stateMutability": "view",
      "type": "function"
    },
    {
      "inputs": [
        {
          "internalType": "uint256",
          "name": "assets",
          "type": "uint256"
        }
      ],
      "name": "previewWithdraw",
      "outputs": [
        {
          "internalType": "uint256",
          "name": "",
          "type": "uint256"
        }
      ],
      "stateMutability": "view",
      "type": "function"
    },
    {
      "inputs": [
        {
          "internalType": "uint256",
          "name": "shares",
          "type": "uint256"
        },
        {
          "internalType": "address",
          "name": "receiver",
          "type": "address"
        },
        {
          "internalType": "address",
          "name": "owner",
          "type": "address"
        }
      ],
      "name": "redeem",
      "outputs": [
        {
          "internalType": "uint256",
          "name": "assets",
          "type": "uint256"
        }
      ],
      "stateMutability": "nonpayable",
      "type": "function"
    },
    {
      "inputs": [],
      "name": "symbol",
      "outputs": [
        {
          "internalType": "string",
          "name": "",
          "type": "string"
        }
      ],
      "stateMutability": "view",
      "type": "function"
    },
    {
      "inputs": [],
      "name": "totalAssets",
      "outputs": [
        {
          "internalType": "uint256",
          "name": "",
          "type": "uint256"
        }
      ],
      "stateMutability": "view",
      "type": "function"
    },
    {
      "inputs": [],
      "name": "totalSupply",
      "outputs": [
        {
          "internalType": "uint256",
          "name": "",
          "type": "uint256"
        }
      ],
      "stateMutability": "view",
      "type": "function"
    },
    {
      "inputs": [
        {
          "internalType": "address",
          "name": "to",
          "type": "address"
        },
        {
          "internalType": "uint256",
          "name": "amount",
          "type": "uint256"
        }
      ],
      "name": "transfer",
      "outputs": [
        {
          "internalType": "bool",
          "name": "",
          "type": "bool"
        }
      ],
      "stateMutability": "nonpayable",
      "type": "function"
    },
    {
      "inputs": [
        {
          "internalType": "address",
          "name": "from",
          "type": "address"
        },
        {
          "internalType": "address",
          "name": "to",
          "type": "address"
        },
        {
          "internalType": "uint256",
          "name": "amount",
          "type": "uint256"
        }
      ],
      "name": "transferFrom",
      "outputs": [
        {
          "internalType": "bool",
          "name": "",
          "type": "bool"
        }
      ],
      "stateMutability": "nonpayable",
      "type": "function"
    },
    {
      "inputs": [
        {
          "internalType": "uint256",
          "name": "assets",
          "type": "uint256"
        },
        {
          "internalType": "address",
          "name": "receiver",
          "type": "address"
        },
        {
          "internalType": "address",
          "name": "owner",
          "type": "address"
        }
      ],
      "name": "withdraw",
      "outputs": [
        {
          "internalType": "uint256",
          "name": "shares",
          "type": "uint256"
        }
      ],
      "stateMutability": "nonpayable",
      "type": "function"
    }
  ],
  "bytecode": {
    "object": "0x6101006040523480156200001257600080fd5b5060405162001aed38038062001aed833981016040819052620000359162000352565b80816001600160a01b03166306fdde036040518163ffffffff1660e01b8152600401600060405180830381865afa15801562000075573d6000803e3d6000fd5b505050506040513d6000823e601f3d908101601f191682016040526200009f9190810190620003cd565b604051602001620000b1919062000485565b604051602081830303815290604052826001600160a01b03166395d89b416040518163ffffffff1660e01b8152600401600060405180830381865afa158015620000ff573d6000803e3d6000fd5b505050506040513d6000823e601f3d908101601f19168201604052620001299190810190620003cd565b6040516020016200013b9190620004c5565b6040516020818303038152906040528181846001600160a01b031663313ce5676040518163ffffffff1660e01b8152600401602060405180830381865afa1580156200018b573d6000803e3d6000fd5b505050506040513d601f19601f82011682018060405250810190620001b19190620004f1565b8251620001c6906000906020860190620002ac565b508151620001dc906001906020850190620002ac565b5060ff81166080524660a052620001f262000210565b60c0525050506001600160a01b0390921660e05250620005f7915050565b60007f8b73c3c69bb8fe3d512ecc4cf759cc79239f7b179b0ffacaa9a75d522b39400f600060405162000244919062000553565b6040805191829003822060208301939093528101919091527fc89efdaa54c0f20c7adf612882df0950f5a951637e0307cdcb4c672f298b8bc660608201524660808201523060a082015260c00160405160208183030381529060405280519060200120905090565b828054620002ba9062000516565b90600052602060002090601f016020900481019282620002de576000855562000329565b82601f10620002f957805160ff191683800117855562000329565b8280016001018555821562000329579182015b82811115620003295782518255916020019190600101906200030c565b50620003379291506200033b565b5090565b5b808211156200033757600081556001016200033c565b6000602082840312156200036557600080fd5b81516001600160a01b03811681146200037d57600080fd5b9392505050565b634e487b7160e01b600052604160045260246000fd5b60005b83811015620003b75781810151838201526020016200039d565b83811115620003c7576000848401525b50505050565b600060208284031215620003e057600080fd5b81516001600160401b0380821115620003f857600080fd5b818401915084601f8301126200040d57600080fd5b81518181111562000422576200042262000384565b604051601f8201601f19908116603f011681019083821181831017156200044d576200044d62000384565b816040528281528760208487010111156200046757600080fd5b6200047a8360208301602088016200039a565b979650505050505050565b65026b4b230b9960d51b815260008251620004a88160068501602087016200039a565b650815985d5b1d60d21b6006939091019283015250600c01919050565b6136bb60f11b815260008251620004e48160028501602087016200039a565b9190910160020192915050565b6000602082840312156200050457600080fd5b815160ff811681146200037d57600080fd5b600181811c908216806200052b57607f821691505b602082108114156200054d57634e487b7160e01b600052602260045260246000fd5b50919050565b600080835481600182811c9150808316806200057057607f831692505b60208084108214156200059157634e487b7160e01b86526022600452602486fd5b818015620005a85760018114620005ba57620005e9565b60ff19861689528489019650620005e9565b60008a81526020902060005b86811015620005e15781548b820152908501908301620005c6565b505084890196505b509498975050505050505050565b60805160a05160c05160e05161149962000654600039600081816102af01528181610485015281816108020152818161089a01528181610a7e0152610bbd01526000610759015260006107290152600061026e01526114996000f3fe608060405234801561001057600080fd5b50600436106101cf5760003560e01c806370a0823111610104578063ba087652116100a2578063d505accf11610071578063d505accf146103f1578063d905777e14610406578063dd62ed3e1461042f578063ef8b30f71461045a57600080fd5b8063ba087652146103cb578063c63d75b6146102fc578063c6e6f592146103de578063ce96cb77146102e957600080fd5b806395d89b41116100de57806395d89b411461038a578063a9059cbb14610392578063b3d7f6b9146103a5578063b460af94146103b857600080fd5b806370a08231146103375780637ecebe001461035757806394bf804d1461037757600080fd5b8063313ce567116101715780633af9e6691161014b5780633af9e669146102e9578063402d267d146102fc5780634cdad506146103115780636e553f651461032457600080fd5b8063313ce567146102695780633644e515146102a257806338d52e0f146102aa57600080fd5b8063095ea7b3116101ad578063095ea7b3146102175780630a28a4771461023a57806318160ddd1461024d57806323b872dd1461025657600080fd5b806301e1d114146101d457806306fdde03146101ef57806307a2d13a14610204575b600080fd5b6101dc61046d565b6040519081526020015b60405180910390f35b6101f76104fd565b6040516101e691906110fe565b6101dc610212366004611153565b61058b565b61022a610225366004611188565b6105b8565b60405190151581526020016101e6565b6101dc610248366004611153565b610625565b6101dc60025481565b61022a6102643660046111b2565b610645565b6102907f000000000000000000000000000000000000000000000000000000000000000081565b60405160ff90911681526020016101e6565b6101dc610725565b6102d17f000000000000000000000000000000000000000000000000000000000000000081565b6040516001600160a01b0390911681526020016101e6565b6101dc6102f73660046111ee565b61077b565b6101dc61030a3660046111ee565b5060001990565b6101dc61031f366004611153565b61079d565b6101dc610332366004611209565b6107a8565b6101dc6103453660046111ee565b60036020526000908152604090205481565b6101dc6103653660046111ee565b60056020526000908152604090205481565b6101dc610385366004611209565b610880565b6101f761090f565b61022a6103a0366004611188565b61091c565b6101dc6103b3366004611153565b610982565b6101dc6103c6366004611235565b6109a1565b6101dc6103d9366004611235565b610aa5565b6101dc6103ec366004611153565b610be4565b6104046103ff366004611271565b610c04565b005b6101dc6104143660046111ee565b6001600160a01b031660009081526003602052604090205490565b6101dc61043d3660046112e4565b600460209081526000928352604080842090915290825290205481565b6101dc610468366004611153565b610e48565b6040516370a0823160e01b81523060048201526000907f00000000000000000000000000000000000000000000000000000000000000006001600160a01b0316906370a0823190602401602060405180830381865afa1580156104d4573d6000803e3d6000fd5b505050506040513d601f19601f820116820180604052508101906104f8919061130e565b905090565b6000805461050a90611327565b80601f016020809104026020016040519081016040528092919081815260200182805461053690611327565b80156105835780601f1061055857610100808354040283529160200191610583565b820191906000526020600020905b81548152906001019060200180831161056657829003601f168201915b505050505081565b60025460009080156105af576105aa6105a261046d565b849083610e53565b6105b1565b825b9392505050565b3360008181526004602090815260408083206001600160a01b038716808552925280832085905551919290917f8c5be1e5ebec7d5bd14f71427d1e84f3dd0314c0f7b2291e5b200ac8c7c3b925906106139086815260200190565b60405180910390a35060015b92915050565b60025460009080156105af576105aa8161063d61046d565b859190610e72565b6001600160a01b038316600090815260046020908152604080832033845290915281205460001981146106a15761067c8382611378565b6001600160a01b03861660009081526004602090815260408083203384529091529020555b6001600160a01b038516600090815260036020526040812080548592906106c9908490611378565b90915550506001600160a01b0380851660008181526003602052604090819020805487019055519091871690600080516020611444833981519152906107129087815260200190565b60405180910390a3506001949350505050565b60007f00000000000000000000000000000000000000000000000000000000000000004614610756576104f8610ea0565b507f000000000000000000000000000000000000000000000000000000000000000090565b6001600160a01b03811660009081526003602052604081205461061f9061058b565b600061061f8261058b565b60006107b383610e48565b9050806107f55760405162461bcd60e51b815260206004820152600b60248201526a5a45524f5f53484152455360a81b60448201526064015b60405180910390fd5b61082a6001600160a01b037f000000000000000000000000000000000000000000000000000000000000000016333086610f3a565b6108348282610fc4565b60408051848152602081018390526001600160a01b0384169133917fdcbc1c05240f31ff3ad067ef1ee35ce4997762752e3a095284754544f4c709d791015b60405180910390a361061f565b600061088b83610982565b90506108c26001600160a01b037f000000000000000000000000000000000000000000000000000000000000000016333084610f3a565b6108cc8284610fc4565b60408051828152602081018590526001600160a01b0384169133917fdcbc1c05240f31ff3ad067ef1ee35ce4997762752e3a095284754544f4c709d79101610873565b6001805461050a90611327565b3360009081526003602052604081208054839190839061093d908490611378565b90915550506001600160a01b03831660008181526003602052604090819020805485019055513390600080516020611444833981519152906106139086815260200190565b60025460009080156105af576105aa61099961046d565b849083610e72565b60006109ac84610625565b9050336001600160a01b03831614610a1c576001600160a01b03821660009081526004602090815260408083203384529091529020546000198114610a1a576109f58282611378565b6001600160a01b03841660009081526004602090815260408083203384529091529020555b505b610a26828261101e565b60408051858152602081018390526001600160a01b03808516929086169133917ffbde797d201c681b91056529119e0b02407c7bb96a4a2c75c01fc9667232c8db910160405180910390a46105b16001600160a01b037f0000000000000000000000000000000000000000000000000000000000000000168486611080565b6000336001600160a01b03831614610b15576001600160a01b03821660009081526004602090815260408083203384529091529020546000198114610b1357610aee8582611378565b6001600160a01b03841660009081526004602090815260408083203384529091529020555b505b610b1e8461079d565b905080610b5b5760405162461bcd60e51b815260206004820152600b60248201526a5a45524f5f41535345545360a81b60448201526064016107ec565b610b65828561101e565b60408051828152602081018690526001600160a01b03808516929086169133917ffbde797d201c681b91056529119e0b02407c7bb96a4a2c75c01fc9667232c8db910160405180910390a46105b16001600160a01b037f0000000000000000000000000000000000000000000000000000000000000000168483611080565b60025460009080156105af576105aa81610bfc61046d565b859190610e53565b42841015610c545760405162461bcd60e51b815260206004820152601760248201527f5045524d49545f444541444c494e455f4558504952454400000000000000000060448201526064016107ec565b60006001610c60610725565b6001600160a01b038a811660008181526005602090815260409182902080546001810190915582517f6e71edae12b1b97f4d1f60370fef10105fa2faae0126114a169c64845d6126c98184015280840194909452938d166060840152608083018c905260a083019390935260c08083018b90528151808403909101815260e08301909152805192019190912061190160f01b6101008301526101028201929092526101228101919091526101420160408051601f198184030181528282528051602091820120600084529083018083525260ff871690820152606081018590526080810184905260a0016020604051602081039080840390855afa158015610d6c573d6000803e3d6000fd5b5050604051601f1901519150506001600160a01b03811615801590610da25750876001600160a01b0316816001600160a01b0316145b610ddf5760405162461bcd60e51b815260206004820152600e60248201526d24a72b20a624a22fa9a4a3a722a960911b60448201526064016107ec565b6001600160a01b0390811660009081526004602090815260408083208a8516808552908352928190208990555188815291928a16917f8c5be1e5ebec7d5bd14f71427d1e84f3dd0314c0f7b2291e5b200ac8c7c3b925910160405180910390a350505050505050565b600061061f82610be4565b828202811515841585830485141716610e6b57600080fd5b0492915050565b828202811515841585830485141716610e8a57600080fd5b6001826001830304018115150290509392505050565b60007f8b73c3c69bb8fe3d512ecc4cf759cc79239f7b179b0ffacaa9a75d522b39400f6000604051610ed2919061138f565b6040805191829003822060208301939093528101919091527fc89efdaa54c0f20c7adf612882df0950f5a951637e0307cdcb4c672f298b8bc660608201524660808201523060a082015260c00160405160208183030381529060405280519060200120905090565b60006040516323b872dd60e01b81528460048201528360248201528260448201526020600060648360008a5af13d15601f3d1160016000511416171691505080610fbd5760405162461bcd60e51b81526020600482015260146024820152731514905394d1915497d19493d357d1905253115160621b60448201526064016107ec565b5050505050565b8060026000828254610fd6919061142b565b90915550506001600160a01b03821660008181526003602090815260408083208054860190555184815260008051602061144483398151915291015b60405180910390a35050565b6001600160a01b03821660009081526003602052604081208054839290611046908490611378565b90915550506002805482900390556040518181526000906001600160a01b0384169060008051602061144483398151915290602001611012565b600060405163a9059cbb60e01b8152836004820152826024820152602060006044836000895af13d15601f3d11600160005114161716915050806110f85760405162461bcd60e51b815260206004820152600f60248201526e1514905394d1915497d19052531151608a1b60448201526064016107ec565b50505050565b600060208083528351808285015260005b8181101561112b5785810183015185820160400152820161110f565b8181111561113d576000604083870101525b50601f01601f1916929092016040019392505050565b60006020828403121561116557600080fd5b5035919050565b80356001600160a01b038116811461118357600080fd5b919050565b6000806040838503121561119b57600080fd5b6111a48361116c565b946020939093013593505050565b6000806000606084860312156111c757600080fd5b6111d08461116c565b92506111de6020850161116c565b9150604084013590509250925092565b60006020828403121561120057600080fd5b6105b18261116c565b6000806040838503121561121c57600080fd5b8235915061122c6020840161116c565b90509250929050565b60008060006060848603121561124a57600080fd5b8335925061125a6020850161116c565b91506112686040850161116c565b90509250925092565b600080600080600080600060e0888a03121561128c57600080fd5b6112958861116c565b96506112a36020890161116c565b95506040880135945060608801359350608088013560ff811681146112c757600080fd5b9699959850939692959460a0840135945060c09093013592915050565b600080604083850312156112f757600080fd5b6113008361116c565b915061122c6020840161116c565b60006020828403121561132057600080fd5b5051919050565b600181811c9082168061133b57607f821691505b6020821081141561135c57634e487b7160e01b600052602260045260246000fd5b50919050565b634e487b7160e01b600052601160045260246000fd5b60008282101561138a5761138a611362565b500390565b600080835481600182811c9150808316806113ab57607f831692505b60208084108214156113cb57634e487b7160e01b86526022600452602486fd5b8180156113df57600181146113f05761141d565b60ff1986168952848901965061141d565b60008a81526020902060005b868110156114155781548b8201529085019083016113fc565b505084890196505b509498975050505050505050565b6000821982111561143e5761143e611362565b50019056feddf252ad1be2c89b69c2b068fc378daa952ba7f163c4a11628f55a4df523b3efa26469706673582212208c6752b86aad26c5af482f5ebe8a15fc07f483fa7202ec7d6168172f78c064b764736f6c634300080a0033",
    "linkReferences": {}
  }
}