{
  "abi": [
    {
      "anonymous": false,
      "inputs": [
        {
          "indexed": false,
          "internalType": "address[]",
          "name": "admins",
          "type": "address[]"
        },
        {
          "indexed": false,
          "internalType": "bool",
          "name": "status",
          "type": "bool"
        }
      ],
      "name": "AdminWhitelistUpdated",
      "type": "event"
    },
    {
      "anonymous": false,
      "inputs": [
        {
          "indexed": false,
          "internalType": "uint8",
          "name": "version",
          "type": "uint8"
        }
      ],
      "name": "Initialized",
      "type": "event"
    },
    {
      "anonymous": false,
      "inputs": [
        {
          "indexed": true,
          "internalType": "address",
          "name": "previousOwner",
          "type": "address"
        },
        {
          "indexed": true,
          "internalType": "address",
          "name": "newOwner",
          "type": "address"
        }
      ],
      "name": "OwnershipTransferred",
      "type": "event"
    },
    {
      "anonymous": false,
      "inputs": [
        {
          "indexed": false,
          "internalType": "uint256",
          "name": "index",
          "type": "uint256"
        },
        {
          "components": [
            {
              "internalType": "string",
              "name": "name",
              "type": "string"
            },
            {
              "internalType": "address",
              "name": "creator",
              "type": "address"
            },
            {
              "internalType": "address",
              "name": "comptroller",
              "type": "address"
            },
            {
              "internalType": "uint256",
              "name": "blockPosted",
              "type": "uint256"
            },
            {
              "internalType": "uint256",
              "name": "timestampPosted",
              "type": "uint256"
            }
          ],
          "indexed": false,
          "internalType": "struct FusePoolDirectory.FusePool",
          "name": "pool",
          "type": "tuple"
        }
      ],
      "name": "PoolRegistered",
      "type": "event"
    },
    {
      "inputs": [
        {
          "internalType": "address[]",
          "name": "admins",
          "type": "address[]"
        },
        {
          "internalType": "bool",
          "name": "status",
          "type": "bool"
        }
      ],
      "name": "_editAdminWhitelist",
      "outputs": [],
      "stateMutability": "nonpayable",
      "type": "function"
    },
    {
      "inputs": [
        {
          "internalType": "address[]",
          "name": "deployers",
          "type": "address[]"
        },
        {
          "internalType": "bool",
          "name": "status",
          "type": "bool"
        }
      ],
      "name": "_editDeployerWhitelist",
      "outputs": [],
      "stateMutability": "nonpayable",
      "type": "function"
    },
    {
      "inputs": [
        {
          "internalType": "bool",
          "name": "enforce",
          "type": "bool"
        }
      ],
      "name": "_setDeployerWhitelistEnforcement",
      "outputs": [],
      "stateMutability": "nonpayable",
      "type": "function"
    },
    {
      "inputs": [
        {
          "internalType": "address",
          "name": "",
          "type": "address"
        }
      ],
      "name": "adminWhitelist",
      "outputs": [
        {
          "internalType": "bool",
          "name": "",
          "type": "bool"
        }
      ],
      "stateMutability": "view",
      "type": "function"
    },
    {
      "inputs": [
        {
          "internalType": "address",
          "name": "comptroller",
          "type": "address"
        }
      ],
      "name": "bookmarkPool",
      "outputs": [],
      "stateMutability": "nonpayable",
      "type": "function"
    },
    {
      "inputs": [
        {
          "internalType": "string",
          "name": "name",
          "type": "string"
        },
        {
          "internalType": "address",
          "name": "implementation",
          "type": "address"
        },
        {
          "internalType": "bytes",
          "name": "constructorData",
          "type": "bytes"
        },
        {
          "internalType": "bool",
          "name": "enforceWhitelist",
          "type": "bool"
        },
        {
          "internalType": "uint256",
          "name": "closeFactor",
          "type": "uint256"
        },
        {
          "internalType": "uint256",
          "name": "liquidationIncentive",
          "type": "uint256"
        },
        {
          "internalType": "address",
          "name": "priceOracle",
          "type": "address"
        }
      ],
      "name": "deployPool",
      "outputs": [
        {
          "internalType": "uint256",
          "name": "",
          "type": "uint256"
        },
        {
          "internalType": "address",
          "name": "",
          "type": "address"
        }
      ],
      "stateMutability": "nonpayable",
      "type": "function"
    },
    {
      "inputs": [
        {
          "internalType": "address",
          "name": "",
          "type": "address"
        }
      ],
      "name": "deployerWhitelist",
      "outputs": [
        {
          "internalType": "bool",
          "name": "",
          "type": "bool"
        }
      ],
      "stateMutability": "view",
      "type": "function"
    },
    {
      "inputs": [],
      "name": "enforceDeployerWhitelist",
      "outputs": [
        {
          "internalType": "bool",
          "name": "",
          "type": "bool"
        }
      ],
      "stateMutability": "view",
      "type": "function"
    },
    {
      "inputs": [],
      "name": "getAllPools",
      "outputs": [
        {
          "components": [
            {
              "internalType": "string",
              "name": "name",
              "type": "string"
            },
            {
              "internalType": "address",
              "name": "creator",
              "type": "address"
            },
            {
              "internalType": "address",
              "name": "comptroller",
              "type": "address"
            },
            {
              "internalType": "uint256",
              "name": "blockPosted",
              "type": "uint256"
            },
            {
              "internalType": "uint256",
              "name": "timestampPosted",
              "type": "uint256"
            }
          ],
          "internalType": "struct FusePoolDirectory.FusePool[]",
          "name": "",
          "type": "tuple[]"
        }
      ],
      "stateMutability": "view",
      "type": "function"
    },
    {
      "inputs": [
        {
          "internalType": "address",
          "name": "account",
          "type": "address"
        }
      ],
      "name": "getBookmarks",
      "outputs": [
        {
          "internalType": "address[]",
          "name": "",
          "type": "address[]"
        }
      ],
      "stateMutability": "view",
      "type": "function"
    },
    {
      "inputs": [
        {
          "internalType": "address",
          "name": "account",
          "type": "address"
        }
      ],
      "name": "getPoolsByAccount",
      "outputs": [
        {
          "internalType": "uint256[]",
          "name": "",
          "type": "uint256[]"
        },
        {
          "components": [
            {
              "internalType": "string",
              "name": "name",
              "type": "string"
            },
            {
              "internalType": "address",
              "name": "creator",
              "type": "address"
            },
            {
              "internalType": "address",
              "name": "comptroller",
              "type": "address"
            },
            {
              "internalType": "uint256",
              "name": "blockPosted",
              "type": "uint256"
            },
            {
              "internalType": "uint256",
              "name": "timestampPosted",
              "type": "uint256"
            }
          ],
          "internalType": "struct FusePoolDirectory.FusePool[]",
          "name": "",
          "type": "tuple[]"
        }
      ],
      "stateMutability": "view",
      "type": "function"
    },
    {
      "inputs": [],
      "name": "getPublicPools",
      "outputs": [
        {
          "internalType": "uint256[]",
          "name": "",
          "type": "uint256[]"
        },
        {
          "components": [
            {
              "internalType": "string",
              "name": "name",
              "type": "string"
            },
            {
              "internalType": "address",
              "name": "creator",
              "type": "address"
            },
            {
              "internalType": "address",
              "name": "comptroller",
              "type": "address"
            },
            {
              "internalType": "uint256",
              "name": "blockPosted",
              "type": "uint256"
            },
            {
              "internalType": "uint256",
              "name": "timestampPosted",
              "type": "uint256"
            }
          ],
          "internalType": "struct FusePoolDirectory.FusePool[]",
          "name": "",
          "type": "tuple[]"
        }
      ],
      "stateMutability": "view",
      "type": "function"
    },
    {
      "inputs": [
        {
          "internalType": "bool",
          "name": "whitelistedAdmin",
          "type": "bool"
        }
      ],
      "name": "getPublicPoolsByVerification",
      "outputs": [
        {
          "internalType": "uint256[]",
          "name": "",
          "type": "uint256[]"
        },
        {
          "components": [
            {
              "internalType": "string",
              "name": "name",
              "type": "string"
            },
            {
              "internalType": "address",
              "name": "creator",
              "type": "address"
            },
            {
              "internalType": "address",
              "name": "comptroller",
              "type": "address"
            },
            {
              "internalType": "uint256",
              "name": "blockPosted",
              "type": "uint256"
            },
            {
              "internalType": "uint256",
              "name": "timestampPosted",
              "type": "uint256"
            }
          ],
          "internalType": "struct FusePoolDirectory.FusePool[]",
          "name": "",
          "type": "tuple[]"
        }
      ],
      "stateMutability": "view",
      "type": "function"
    },
    {
      "inputs": [
        {
          "internalType": "bool",
          "name": "_enforceDeployerWhitelist",
          "type": "bool"
        },
        {
          "internalType": "address[]",
          "name": "_deployerWhitelist",
          "type": "address[]"
        }
      ],
      "name": "initialize",
      "outputs": [],
      "stateMutability": "nonpayable",
      "type": "function"
    },
    {
      "inputs": [],
      "name": "owner",
      "outputs": [
        {
          "internalType": "address",
          "name": "",
          "type": "address"
        }
      ],
      "stateMutability": "view",
      "type": "function"
    },
    {
      "inputs": [
        {
          "internalType": "address",
          "name": "",
          "type": "address"
        }
      ],
      "name": "poolExists",
      "outputs": [
        {
          "internalType": "bool",
          "name": "",
          "type": "bool"
        }
      ],
      "stateMutability": "view",
      "type": "function"
    },
    {
      "inputs": [
        {
          "internalType": "uint256",
          "name": "",
          "type": "uint256"
        }
      ],
      "name": "pools",
      "outputs": [
        {
          "internalType": "string",
          "name": "name",
          "type": "string"
        },
        {
          "internalType": "address",
          "name": "creator",
          "type": "address"
        },
        {
          "internalType": "address",
          "name": "comptroller",
          "type": "address"
        },
        {
          "internalType": "uint256",
          "name": "blockPosted",
          "type": "uint256"
        },
        {
          "internalType": "uint256",
          "name": "timestampPosted",
          "type": "uint256"
        }
      ],
      "stateMutability": "view",
      "type": "function"
    },
    {
      "inputs": [],
      "name": "renounceOwnership",
      "outputs": [],
      "stateMutability": "nonpayable",
      "type": "function"
    },
    {
      "inputs": [
        {
          "internalType": "uint256",
          "name": "index",
          "type": "uint256"
        },
        {
          "internalType": "string",
          "name": "name",
          "type": "string"
        }
      ],
      "name": "setPoolName",
      "outputs": [],
      "stateMutability": "nonpayable",
      "type": "function"
    },
    {
      "inputs": [
        {
          "internalType": "address",
          "name": "newOwner",
          "type": "address"
        }
      ],
      "name": "transferOwnership",
      "outputs": [],
      "stateMutability": "nonpayable",
      "type": "function"
    }
  ],
  "bytecode": {
    "object": "0x608060405234801561001057600080fd5b50613a80806100206000396000f3fe60806040523480156200001157600080fd5b5060043610620001455760003560e01c806358b896d311620000bb578063a970e76c116200007a578063a970e76c1462000330578063ac4afa381462000356578063b86579d41462000380578063d88ff1f41462000397578063f2fde38b14620003b057600080fd5b806358b896d314620002a7578063715018a614620002dc5780638da5cb5b14620002e6578063a155497c1462000302578063a3ed91c6146200031957600080fd5b8063218a3bbe1162000108578063218a3bbe146200021c57806326bb81d7146200024357806343e20a1d14620002515780634a7462ee14620002775780634ae26ea1146200029d57600080fd5b806304f03c6f146200014a5780630742197814620001635780630a83d1b014620001b35780631e1c6a0714620001ca57806320c32bfe1462000205575b600080fd5b620001616200015b366004620025e3565b620003c7565b005b62000161620001743660046200262d565b336000908152606a602090815260408220805460018101825590835291200180546001600160a01b0319166001600160a01b0392909216919091179055565b62000161620001c43660046200264d565b62000410565b620001f0620001db3660046200262d565b60676020526000908152604090205460ff1681565b60405190151581526020015b60405180910390f35b620001616200021636600462002726565b6200053f565b620002336200022d366004620025e3565b620006b3565b604051620001fc92919062002888565b606854620001f09060ff1681565b620001f0620002623660046200262d565b606b6020526000908152604090205460ff1681565b6200028e620002883660046200262d565b62000ba6565b604051620001fc9190620028e3565b6200023362000c1e565b620002be620002b83660046200297c565b62000fce565b604080519283526001600160a01b03909116602083015201620001fc565b620001616200176a565b6033546040516001600160a01b039091168152602001620001fc565b62000161620003133660046200264d565b620017a5565b620002336200032a3660046200262d565b6200189a565b620001f0620003413660046200262d565b60696020526000908152604090205460ff1681565b6200036d6200036736600462002a90565b62001b77565b604051620001fc95949392919062002aaa565b620001616200039136600462002aec565b62001c5d565b620003a162001d55565b604051620001fc919062002bc2565b62000161620003c13660046200262d565b62001e8c565b6033546001600160a01b03163314620003fd5760405162461bcd60e51b8152600401620003f49062002bd7565b60405180910390fd5b6068805460ff1916911515919091179055565b6033546001600160a01b031633146200043d5760405162461bcd60e51b8152600401620003f49062002bd7565b81620004825760405162461bcd60e51b815260206004820152601360248201527227379030b236b4b7399039bab8383634b2b21760691b6044820152606401620003f4565b60005b82811015620004fc5781606b6000868685818110620004a857620004a862002c0c565b9050602002016020810190620004bf91906200262d565b6001600160a01b031681526020810191909152604001600020805460ff191691151591909117905580620004f38162002c38565b91505062000485565b507f31b67e6853df85403a8c4f4f46dc53f48f700d6917c8e3ec8c77a0e6fd56793b838383604051620005329392919062002c56565b60405180910390a1505050565b60006065848154811062000557576200055762002c0c565b600091825260209182902060026005909202010154604080516303e1469160e61b815290516001600160a01b039092169350839263f851a440926004808401938290030181865afa158015620005b1573d6000803e3d6000fd5b505050506040513d601f19601f82011682018060405250810190620005d7919062002cb3565b6001600160a01b0316336001600160a01b0316148015620006585750806001600160a01b0316630a755ec26040518163ffffffff1660e01b8152600401602060405180830381865afa15801562000632573d6000803e3d6000fd5b505050506040513d601f19601f8201168201806040525081019062000658919062002cd3565b806200066e57506033546001600160a01b031633145b6200067857600080fd5b82826065868154811062000690576200069062002c0c565b60009182526020909120620006ac936005909202019162002455565b5050505050565b6060806000805b6065548110156200083157600060658281548110620006dd57620006dd62002c0c565b60009182526020918290206002600590920201015460408051630b09572160e41b815290516001600160a01b039092169350839263b0957210926004808401938290030181865afa92505050801562000755575060408051601f3d908101601f19168201909252620007529181019062002cd3565b60015b62000760576200080b565b80156200076f5750506200081c565b816001600160a01b031663f851a4406040518163ffffffff1660e01b8152600401602060405180830381865afa925050508015620007cc575060408051601f3d908101601f19168201909252620007c99181019062002cb3565b60015b620007d75762000809565b6001600160a01b0381166000908152606b602052604090205460ff1615158815151462000807575050506200081c565b505b505b82620008178162002c38565b935050505b80620008288162002c38565b915050620006ba565b5060008167ffffffffffffffff81111562000850576200085062002932565b6040519080825280602002602001820160405280156200087a578160200160208202803683370190505b50905060008267ffffffffffffffff8111156200089b576200089b62002932565b604051908082528060200260200182016040528015620008d857816020015b620008c4620024e4565b815260200190600190039081620008ba5790505b5090506000805b60655481101562000b995760006065828154811062000902576200090262002c0c565b60009182526020918290206002600590920201015460408051630b09572160e41b815290516001600160a01b039092169350839263b0957210926004808401938290030181865afa9250505080156200097a575060408051601f3d908101601f19168201909252620009779181019062002cd3565b60015b620009855762000a30565b80156200099457505062000b84565b816001600160a01b031663f851a4406040518163ffffffff1660e01b8152600401602060405180830381865afa925050508015620009f1575060408051601f3d908101601f19168201909252620009ee9181019062002cb3565b60015b620009fc5762000a2e565b6001600160a01b0381166000908152606b602052604090205460ff1615158b15151462000a2c5750505062000b84565b505b505b8185848151811062000a465762000a4662002c0c565b6020026020010181815250506065828154811062000a685762000a6862002c0c565b90600052602060002090600502016040518060a001604052908160008201805462000a939062002cf3565b80601f016020809104026020016040519081016040528092919081815260200182805462000ac19062002cf3565b801562000b125780601f1062000ae65761010080835404028352916020019162000b12565b820191906000526020600020905b81548152906001019060200180831162000af457829003601f168201915b505050918352505060018201546001600160a01b039081166020830152600283015416604082015260038201546060820152600490910154608090910152845185908590811062000b675762000b6762002c0c565b6020026020010181905250828062000b7f9062002c38565b935050505b8062000b908162002c38565b915050620008df565b5091969095509350505050565b6001600160a01b0381166000908152606a602090815260409182902080548351818402810184019094528084526060939283018282801562000c1257602002820191906000526020600020905b81546001600160a01b0316815260019091019060200180831162000bf3575b50505050509050919050565b6060806000805b60655481101562000cfb576065818154811062000c465762000c4662002c0c565b60009182526020918290206002600590920201015460408051630b09572160e41b815290516001600160a01b039092169263b0957210926004808401938290030181865afa92505050801562000cbb575060408051601f3d908101601f1916820190925262000cb89181019062002cd3565b60015b62000cc65762000cd6565b801562000cd4575062000ce6565b505b8162000ce28162002c38565b9250505b8062000cf28162002c38565b91505062000c25565b5060008167ffffffffffffffff81111562000d1a5762000d1a62002932565b60405190808252806020026020018201604052801562000d44578160200160208202803683370190505b50905060008267ffffffffffffffff81111562000d655762000d6562002932565b60405190808252806020026020018201604052801562000da257816020015b62000d8e620024e4565b81526020019060019003908162000d845790505b5090506000805b60655481101562000fc2576065818154811062000dca5762000dca62002c0c565b60009182526020918290206002600590920201015460408051630b09572160e41b815290516001600160a01b039092169263b0957210926004808401938290030181865afa92505050801562000e3f575060408051601f3d908101601f1916820190925262000e3c9181019062002cd3565b60015b62000e4a5762000e5a565b801562000e58575062000fad565b505b8084838151811062000e705762000e7062002c0c565b6020026020010181815250506065818154811062000e925762000e9262002c0c565b90600052602060002090600502016040518060a001604052908160008201805462000ebd9062002cf3565b80601f016020809104026020016040519081016040528092919081815260200182805462000eeb9062002cf3565b801562000f3c5780601f1062000f105761010080835404028352916020019162000f3c565b820191906000526020600020905b81548152906001019060200180831162000f1e57829003601f168201915b505050918352505060018201546001600160a01b039081166020830152600283015416604082015260038201546060820152600490910154608090910152835184908490811062000f915762000f9162002c0c565b6020026020010181905250818062000fa99062002c38565b9250505b8062000fb98162002c38565b91505062000da9565b50919590945092505050565b6000806001600160a01b0389166200104f5760405162461bcd60e51b815260206004820152603960248201527f4e6f20436f6d7074726f6c6c657220696d706c656d656e746174696f6e20636f60448201527f6e74726163742061646472657373207370656369666965642e000000000000006064820152608401620003f4565b6001600160a01b038316620010ba5760405162461bcd60e51b815260206004820152602a60248201527f4e6f2050726963654f7261636c6520636f6e747261637420616464726573732060448201526939b832b1b4b334b2b21760b11b6064820152608401620003f4565b600060405180602001620010ce9062002525565b601f1982820381018352601f909101166040819052620010f691908b908b9060200162002d30565b60405160208183030381529060405290506000620011436000338e43604051602001620011269392919062002d5a565b604051602081830303815290604052805190602001208462001f2e565b60405163e992a04160e01b81526001600160a01b038d81166004830152919250829182169063e992a041906024016020604051808303816000875af115801562001191573d6000803e3d6000fd5b505050506040513d601f19601f82011682018060405250810190620011b7919062002d9b565b15620012225760405162461bcd60e51b815260206004820152603360248201527f4661696c656420746f207365742070656e64696e6720696d706c656d656e74616044820152723a34b7b71037b7102ab734ba3937b63632b91760691b6064820152608401620003f4565b604051630ea826e360e11b81526001600160a01b0382811660048301528d9190821690631d504dc690602401600060405180830381600087803b1580156200126957600080fd5b505af11580156200127e573d6000803e3d6000fd5b505060405163317b0b7760e01b8152600481018c90528592506001600160a01b038316915063317b0b77906024016020604051808303816000875af1158015620012cc573d6000803e3d6000fd5b505050506040513d601f19601f82011682018060405250810190620012f2919062002d9b565b15620013415760405162461bcd60e51b815260206004820181905260248201527f4661696c656420746f2073657420706f6f6c20636c6f736520666163746f722e6044820152606401620003f4565b604051634fd42e1760e01b8152600481018a90526001600160a01b03821690634fd42e17906024016020604051808303816000875af115801562001389573d6000803e3d6000fd5b505050506040513d601f19601f82011682018060405250810190620013af919062002d9b565b15620014105760405162461bcd60e51b815260206004820152602960248201527f4661696c656420746f2073657420706f6f6c206c69717569646174696f6e20696044820152683731b2b73a34bb329760b91b6064820152608401620003f4565b6040516355ee1fe160e01b81526001600160a01b0389811660048301528216906355ee1fe1906024016020604051808303816000875af115801562001459573d6000803e3d6000fd5b505050506040513d601f19601f820116820180604052508101906200147f919062002d9b565b15620014ce5760405162461bcd60e51b815260206004820181905260248201527f4661696c656420746f2073657420706f6f6c207072696365206f7261636c652e6044820152606401620003f4565b8a15620015a957604051634a956fad60e11b8152600160048201526001600160a01b0382169063952adf5a906024016020604051808303816000875af11580156200151d573d6000803e3d6000fd5b505050506040513d601f19601f8201168201806040525081019062001543919062002d9b565b15620015a95760405162461bcd60e51b815260206004820152602e60248201527f4661696c656420746f20656e666f72636520737570706c6965722f626f72726f60448201526d3bb2b9103bb434ba32b634b9ba1760911b6064820152608401620003f4565b604051636a9998b360e11b8152600160048201526001600160a01b0382169063d5333166906024016020604051808303816000875af1158015620015f1573d6000803e3d6000fd5b505050506040513d601f19601f8201168201806040525081019062001617919062002d9b565b156200167a5760405162461bcd60e51b815260206004820152602b60248201527f4661696c656420746f20656e61626c6520706f6f6c206175746f20696d706c6560448201526a36b2b73a30ba34b7b7399760a91b6064820152608401620003f4565b604051632dc7468360e21b81523360048201526001600160a01b0384169063b71d1a0c906024016020604051808303816000875af1158015620016c1573d6000803e3d6000fd5b505050506040513d601f19601f82011682018060405250810190620016e7919062002d9b565b15620017495760405162461bcd60e51b815260206004820152602a60248201527f4661696c656420746f207365742070656e64696e672061646d696e206f6e20556044820152693734ba3937b63632b91760b11b6064820152608401620003f4565b620017558f856200203e565b9f939e50929c50505050505050505050505050565b6033546001600160a01b03163314620017975760405162461bcd60e51b8152600401620003f49062002bd7565b620017a360006200230b565b565b6033546001600160a01b03163314620017d25760405162461bcd60e51b8152600401620003f49062002bd7565b816200181a5760405162461bcd60e51b81526020600482015260166024820152752737903232b83637bcb2b9399039bab8383634b2b21760511b6044820152606401620003f4565b60005b828110156200189457816069600086868581811062001840576200184062002c0c565b90506020020160208101906200185791906200262d565b6001600160a01b031681526020810191909152604001600020805460ff1916911515919091179055806200188b8162002c38565b9150506200181d565b50505050565b6001600160a01b038116600090815260666020526040812054606091829167ffffffffffffffff811115620018d357620018d362002932565b604051908082528060200260200182016040528015620018fd578160200160208202803683370190505b506001600160a01b0385166000908152606660205260408120549192509067ffffffffffffffff81111562001936576200193662002932565b6040519080825280602002602001820160405280156200197357816020015b6200195f620024e4565b815260200190600190039081620019555790505b50905060005b6001600160a01b03861660009081526066602052604090205481101562001b6c576001600160a01b0386166000908152606660205260409020805482908110620019c757620019c762002c0c565b9060005260206000200154838281518110620019e757620019e762002c0c565b602002602001018181525050606560666000886001600160a01b03166001600160a01b03168152602001908152602001600020828154811062001a2e5762001a2e62002c0c565b90600052602060002001548154811062001a4c5762001a4c62002c0c565b90600052602060002090600502016040518060a001604052908160008201805462001a779062002cf3565b80601f016020809104026020016040519081016040528092919081815260200182805462001aa59062002cf3565b801562001af65780601f1062001aca5761010080835404028352916020019162001af6565b820191906000526020600020905b81548152906001019060200180831162001ad857829003601f168201915b505050918352505060018201546001600160a01b039081166020830152600283015416604082015260038201546060820152600490910154608090910152825183908390811062001b4b5762001b4b62002c0c565b6020026020010181905250808062001b639062002c38565b91505062001979565b509094909350915050565b6065818154811062001b8857600080fd5b906000526020600020906005020160009150905080600001805462001bad9062002cf3565b80601f016020809104026020016040519081016040528092919081815260200182805462001bdb9062002cf3565b801562001c2c5780601f1062001c005761010080835404028352916020019162001c2c565b820191906000526020600020905b81548152906001019060200180831162001c0e57829003601f168201915b5050505060018301546002840154600385015460049095015493946001600160a01b03928316949290911692509085565b600062001c6b60016200235d565b9050801562001c84576000805461ff0019166101001790555b62001c8e620023f2565b6068805460ff191684151517905560005b825181101562001d0b5760016069600085848151811062001cc45762001cc462002c0c565b6020908102919091018101516001600160a01b03168252810191909152604001600020805460ff19169115159190911790558062001d028162002c38565b91505062001c9f565b50801562001d50576000805461ff0019169055604051600181527f7f26b83ff96e1f2b6a682f133852f6798a09c465da95921460cefb38474024989060200162000532565b505050565b60606065805480602002602001604051908101604052809291908181526020016000905b8282101562001e8357838290600052602060002090600502016040518060a001604052908160008201805462001daf9062002cf3565b80601f016020809104026020016040519081016040528092919081815260200182805462001ddd9062002cf3565b801562001e2e5780601f1062001e025761010080835404028352916020019162001e2e565b820191906000526020600020905b81548152906001019060200180831162001e1057829003601f168201915b50505091835250506001828101546001600160a01b0390811660208085019190915260028501549091166040840152600384015460608401526004909301546080909201919091529183529201910162001d79565b50505050905090565b6033546001600160a01b0316331462001eb95760405162461bcd60e51b8152600401620003f49062002bd7565b6001600160a01b03811662001f205760405162461bcd60e51b815260206004820152602660248201527f4f776e61626c653a206e6577206f776e657220697320746865207a65726f206160448201526564647265737360d01b6064820152608401620003f4565b62001f2b816200230b565b50565b6000808447101562001f835760405162461bcd60e51b815260206004820152601d60248201527f437265617465323a20696e73756666696369656e742062616c616e63650000006044820152606401620003f4565b825162001fd35760405162461bcd60e51b815260206004820181905260248201527f437265617465323a2062797465636f6465206c656e677468206973207a65726f6044820152606401620003f4565b8383516020850187f590506001600160a01b038116620020365760405162461bcd60e51b815260206004820152601960248201527f437265617465323a204661696c6564206f6e206465706c6f79000000000000006044820152606401620003f4565b949350505050565b6001600160a01b03811660009081526067602052604081205460ff1615620020b75760405162461bcd60e51b815260206004820152602560248201527f506f6f6c20616c72656164792065786973747320696e207468652064697265636044820152643a37b93c9760d91b6064820152608401620003f4565b60685460ff161580620020d957503360009081526069602052604090205460ff165b620021335760405162461bcd60e51b8152602060048201526024808201527f53656e646572206973206e6f74206f6e206465706c6f7965722077686974656c60448201526334b9ba1760e11b6064820152608401620003f4565b606483511115620021805760405162461bcd60e51b81526020600482015260166024820152752737903837b7b6103730b6b29039bab8383634b2b21760511b6044820152606401620003f4565b6040805160a081018252848152336020808301919091526001600160a01b0385169282019290925243606082015242608082015260658054600181018255600091909152815180519293849360059093027f8ff97419363ffd7000167f130ef7168fbea05faf9251824ca5043f113cc6a7c7019262002203928492019062002533565b50602082810151600183810180546001600160a01b03199081166001600160a01b03948516179091556040808701516002870180549093169416939093179055606085015160038501556080909401516004909301929092553360009081526066909152206065549091620022789162002db5565b81546001818101845560009384526020808520909201929092556001600160a01b0386168352606790526040909120805460ff1916821790556065547f18075ab463b4dc5842f37ecd67abeb192eda5d073f2c08509e189ad173d5c02091620022e19162002db5565b82604051620022f292919062002dcf565b60405180910390a1606554620020369060019062002db5565b603380546001600160a01b038381166001600160a01b0319831681179093556040519116919082907f8be0079c531659141344cd1fd0a4f28419497f9722a3daafe3b4186f6b6457e090600090a35050565b60008054610100900460ff1615620023a9578160ff166001148015620023825750303b155b620023a15760405162461bcd60e51b8152600401620003f49062002dea565b506000919050565b60005460ff808416911610620023d35760405162461bcd60e51b8152600401620003f49062002dea565b506000805460ff191660ff92909216919091179055600190565b919050565b600054610100900460ff166200241c5760405162461bcd60e51b8152600401620003f49062002e38565b620017a3600054610100900460ff166200244a5760405162461bcd60e51b8152600401620003f49062002e38565b620017a3336200230b565b828054620024639062002cf3565b90600052602060002090601f016020900481019282620024875760008555620024d2565b82601f10620024a25782800160ff19823516178555620024d2565b82800160010185558215620024d2579182015b82811115620024d2578235825591602001919060010190620024b5565b50620024e0929150620025b0565b5090565b6040518060a001604052806060815260200160006001600160a01b0316815260200160006001600160a01b0316815260200160008152602001600081525090565b610bc78062002e8483390190565b828054620025419062002cf3565b90600052602060002090601f016020900481019282620025655760008555620024d2565b82601f106200258057805160ff1916838001178555620024d2565b82800160010185558215620024d2579182015b82811115620024d257825182559160200191906001019062002593565b5b80821115620024e05760008155600101620025b1565b801515811462001f2b57600080fd5b8035620023ed81620025c7565b600060208284031215620025f657600080fd5b81356200260381620025c7565b9392505050565b6001600160a01b038116811462001f2b57600080fd5b8035620023ed816200260a565b6000602082840312156200264057600080fd5b813562002603816200260a565b6000806000604084860312156200266357600080fd5b833567ffffffffffffffff808211156200267c57600080fd5b818601915086601f8301126200269157600080fd5b813581811115620026a157600080fd5b8760208260051b8501011115620026b757600080fd5b60209283019550935050840135620026cf81620025c7565b809150509250925092565b60008083601f840112620026ed57600080fd5b50813567ffffffffffffffff8111156200270657600080fd5b6020830191508360208285010111156200271f57600080fd5b9250929050565b6000806000604084860312156200273c57600080fd5b83359250602084013567ffffffffffffffff8111156200275b57600080fd5b6200276986828701620026da565b9497909650939450505050565b60005b838110156200279357818101518382015260200162002779565b83811115620018945750506000910152565b60008151808452620027bf81602086016020860162002776565b601f01601f19169290920160200192915050565b6000815160a08452620027ea60a0850182620027a5565b9050602083015160018060a01b038082166020870152806040860151166040870152505060608301516060850152608083015160808501528091505092915050565b600082825180855260208086019550808260051b84010181860160005b848110156200287b57601f1986840301895262002868838351620027d3565b9884019892509083019060010162002849565b5090979650505050505050565b604080825283519082018190526000906020906060840190828701845b82811015620028c357815184529284019290840190600101620028a5565b50505083810382850152620028d981866200282c565b9695505050505050565b6020808252825182820181905260009190848201906040850190845b81811015620029265783516001600160a01b031683529284019291840191600101620028ff565b50909695505050505050565b634e487b7160e01b600052604160045260246000fd5b604051601f8201601f1916810167ffffffffffffffff8111828210171562002974576200297462002932565b604052919050565b60008060008060008060008060e0898b0312156200299957600080fd5b883567ffffffffffffffff80821115620029b257600080fd5b818b0191508b601f830112620029c757600080fd5b8135602082821115620029de57620029de62002932565b620029f2601f8301601f1916820162002948565b8281528e8284870101111562002a0757600080fd5b828286018383013760008184018301529b5062002a268d820162002620565b9a50505060408b013591508082111562002a3f57600080fd5b5062002a4e8b828c01620026da565b909750955062002a63905060608a01620025d6565b93506080890135925060a0890135915062002a8160c08a0162002620565b90509295985092959890939650565b60006020828403121562002aa357600080fd5b5035919050565b60a08152600062002abf60a0830188620027a5565b6001600160a01b039687166020840152949095166040820152606081019290925260809091015292915050565b6000806040838503121562002b0057600080fd5b823562002b0d81620025c7565b915060208381013567ffffffffffffffff8082111562002b2c57600080fd5b818601915086601f83011262002b4157600080fd5b81358181111562002b565762002b5662002932565b8060051b915062002b6984830162002948565b818152918301840191848101908984111562002b8457600080fd5b938501935b8385101562002bb2578435925062002ba1836200260a565b828252938501939085019062002b89565b8096505050505050509250929050565b6020815260006200260360208301846200282c565b6020808252818101527f4f776e61626c653a2063616c6c6572206973206e6f7420746865206f776e6572604082015260600190565b634e487b7160e01b600052603260045260246000fd5b634e487b7160e01b600052601160045260246000fd5b600060001982141562002c4f5762002c4f62002c22565b5060010190565b6040808252810183905260008460608301825b8681101562002c9d57823562002c7f816200260a565b6001600160a01b031682526020928301929091019060010162002c69565b5080925050508215156020830152949350505050565b60006020828403121562002cc657600080fd5b815162002603816200260a565b60006020828403121562002ce657600080fd5b81516200260381620025c7565b600181811c9082168062002d0857607f821691505b6020821081141562002d2a57634e487b7160e01b600052602260045260246000fd5b50919050565b6000845162002d4481846020890162002776565b8201838582376000930192835250909392505050565b6bffffffffffffffffffffffff198460601b1681526000835162002d8681601485016020880162002776565b60149201918201929092526034019392505050565b60006020828403121562002dae57600080fd5b5051919050565b60008282101562002dca5762002dca62002c22565b500390565b828152604060208201526000620020366040830184620027d3565b6020808252602e908201527f496e697469616c697a61626c653a20636f6e747261637420697320616c72656160408201526d191e481a5b9a5d1a585b1a5e995960921b606082015260800190565b6020808252602b908201527f496e697469616c697a61626c653a20636f6e7472616374206973206e6f74206960408201526a6e697469616c697a696e6760a81b60608201526080019056fe60806040526002805461ffff60a01b191661010160a01b17905534801561002557600080fd5b50604051610bc7380380610bc783398101604081905261004491610077565b60018054336001600160a01b031991821617909155600080549091166001600160a01b03929092169190911790556100a7565b60006020828403121561008957600080fd5b81516001600160a01b03811681146100a057600080fd5b9392505050565b610b11806100b66000396000f3fe6080604052600436106100c25760003560e01c8063b71d1a0c1161007f578063dcfbc0c711610059578063dcfbc0c714610425578063e992a04114610445578063e9c714f214610465578063f851a4401461047a576100c2565b8063b71d1a0c146103d0578063bb82aa5e146103f0578063c1e8033414610410576100c2565b80630225ab9d146102d35780630a755ec21461030657806315761d5114610337578063267822471461036f5780632f1069ba1461038f5780636f63af0b146103b0575b3330146102585760408051600481526024810182526020810180516001600160e01b0316633757348b60e21b179052905160009182913091610103916109c6565b600060405180830381855afa9150503d806000811461013e576040519150601f19603f3d011682016040523d82523d6000602084013e610143565b606091505b50915091506000821561016757818060200190518101906101649190610a12565b90505b8015610254576000805460035460405163bbcdd6d360e01b81526001600160a01b03918216600482015291169063bbcdd6d390602401602060405180830381865afa1580156101ba573d6000803e3d6000fd5b505050506040513d601f19601f820116820180604052508101906101de9190610a44565b6003549091506001600160a01b0380831691161461025257600380546001600160a01b038381166001600160a01b0319831681179093556040519116917fd604de94d45953f9138079ec1b82d533cb2160c906d1076d1f7ed54befbca97a91610248918491610a61565b60405180910390a1505b505b5050505b6003546040516000916001600160a01b0316906102789083903690610a7b565b600060405180830381855af49150503d80600081146102b3576040519150601f19603f3d011682016040523d82523d6000602084013e6102b8565b606091505b505090506040513d6000823e8180156102cf573d82f35b3d82fd5b3480156102df57600080fd5b506102f36102ee366004610a8b565b61049a565b6040519081526020015b60405180910390f35b34801561031257600080fd5b5060025461032790600160a81b900460ff1681565b60405190151581526020016102fd565b34801561034357600080fd5b50600054610357906001600160a01b031681565b6040516001600160a01b0390911681526020016102fd565b34801561037b57600080fd5b50600254610357906001600160a01b031681565b34801561039b57600080fd5b5060025461032790600160a01b900460ff1681565b3480156103bc57600080fd5b506102f36103cb366004610a8b565b610536565b3480156103dc57600080fd5b506102f36103eb366004610aa8565b6105c5565b3480156103fc57600080fd5b50600354610357906001600160a01b031681565b34801561041c57600080fd5b506102f3610644565b34801561043157600080fd5b50600454610357906001600160a01b031681565b34801561045157600080fd5b506102f3610460366004610aa8565b610736565b34801561047157600080fd5b506102f3610829565b34801561048657600080fd5b50600154610357906001600160a01b031681565b60006104a46108fb565b6104ba576104b46001600561094d565b92915050565b60025460ff600160a81b90910416151582151514156104da5760006104b4565b60028054831515600160a81b0260ff60a81b199091161790556040517f10f9a0a95673b0837d1dce21fd3bffcb6d760435e9b5300b75a271182f75f8229061052790841515815260200190565b60405180910390a160006104b4565b60006105406108fb565b610550576104b46001600561094d565b60025460ff600160a01b90910416151582151514156105705760006104b4565b6002805460ff60a01b1916600160a01b8415158102919091179182905560405160ff9190920416151581527fabb56a15fd39488c914b324690b88f30d7daec63d2131ca0ef47e5739068c86e90602001610527565b60006105cf6108fb565b6105df576104b46001601061094d565b600280546001600160a01b038481166001600160a01b03198316179092556040519116907fca4f2f25d0898edd99413412fb94012f9e54ec8142f9b093e7720646a95b16a9906106329083908690610a61565b60405180910390a160005b9392505050565b6004546000906001600160a01b03163314158061066a57506004546001600160a01b0316155b1561067f5761067a60018061094d565b905090565b60038054600480546001600160a01b03198084166001600160a01b03838116918217909655911690915560405192909116917fd604de94d45953f9138079ec1b82d533cb2160c906d1076d1f7ed54befbca97a906106e09084908490610a61565b60405180910390a16004546040517fe945ccee5d701fc83f9b8aa8ca94ea4219ec1fcbd4f4cab4f0ea57c5c3e1d815916107259184916001600160a01b031690610a61565b60405180910390a160009250505090565b60006107406108fb565b610750576104b46001601261094d565b600054600354604051639d244f9f60e01b81526001600160a01b0392831692639d244f9f92610786929116908690600401610a61565b602060405180830381865afa1580156107a3573d6000803e3d6000fd5b505050506040513d601f19601f820116820180604052508101906107c79190610a12565b6107d7576104b46001601161094d565b600480546001600160a01b038481166001600160a01b0319831681179093556040519116917fe945ccee5d701fc83f9b8aa8ca94ea4219ec1fcbd4f4cab4f0ea57c5c3e1d81591610632918491610a61565b6002546000906001600160a01b031633141580610844575033155b156108555761067a6001600061094d565b60018054600280546001600160a01b03198084166001600160a01b03838116918217909655911690915560405192909116917ff9ffabca9c8276e99321725bcb43fb076a6c66a54b7f21c4e8146d8519b417dc906108b69084908490610a61565b60405180910390a16002546040517fca4f2f25d0898edd99413412fb94012f9e54ec8142f9b093e7720646a95b16a9916107259184916001600160a01b031690610a61565b6001546000906001600160a01b0316331480156109215750600254600160a81b900460ff165b8061067a57506000546001600160a01b03163314801561067a575050600254600160a01b900460ff1690565b60007f45b96fe442630264581b197e84bbada861235052c5a1aadfff9ea4e40a969aa083601581111561098257610982610ac5565b83601b81111561099457610994610ac5565b60408051928352602083019190915260009082015260600160405180910390a182601581111561063d5761063d610ac5565b6000825160005b818110156109e757602081860181015185830152016109cd565b818111156109f6576000828501525b509190910192915050565b8015158114610a0f57600080fd5b50565b600060208284031215610a2457600080fd5b815161063d81610a01565b6001600160a01b0381168114610a0f57600080fd5b600060208284031215610a5657600080fd5b815161063d81610a2f565b6001600160a01b0392831681529116602082015260400190565b8183823760009101908152919050565b600060208284031215610a9d57600080fd5b813561063d81610a01565b600060208284031215610aba57600080fd5b813561063d81610a2f565b634e487b7160e01b600052602160045260246000fdfea2646970667358221220656d95775c61bec5594bb599f73c28266d6a20d831a8364d7a4c852553abfc5264736f6c634300080a0033a264697066735822122037a6d92016001e40b917f269dfe39b0c01589d123ed3a15368e0d68ed92ba0ab64736f6c634300080a0033",
    "linkReferences": {}
  }
}