{
  "abi": [
    {
      "anonymous": false,
      "inputs": [
        {
          "indexed": false,
          "internalType": "address[]",
          "name": "admins",
          "type": "address[]"
        },
        {
          "indexed": false,
          "internalType": "bool",
          "name": "status",
          "type": "bool"
        }
      ],
      "name": "AdminWhitelistUpdated",
      "type": "event"
    },
    {
      "anonymous": false,
      "inputs": [
        {
          "indexed": false,
          "internalType": "uint256",
          "name": "error",
          "type": "uint256"
        },
        {
          "indexed": false,
          "internalType": "uint256",
          "name": "info",
          "type": "uint256"
        },
        {
          "indexed": false,
          "internalType": "uint256",
          "name": "detail",
          "type": "uint256"
        }
      ],
      "name": "Failure",
      "type": "event"
    },
    {
      "anonymous": false,
      "inputs": [
        {
          "indexed": false,
          "internalType": "uint8",
          "name": "version",
          "type": "uint8"
        }
      ],
      "name": "Initialized",
      "type": "event"
    },
    {
      "anonymous": false,
      "inputs": [
        {
          "indexed": false,
          "internalType": "address",
          "name": "oldAdmin",
          "type": "address"
        },
        {
          "indexed": false,
          "internalType": "address",
          "name": "newAdmin",
          "type": "address"
        }
      ],
      "name": "NewAdmin",
      "type": "event"
    },
    {
      "anonymous": false,
      "inputs": [
        {
          "indexed": false,
          "internalType": "address",
          "name": "oldPendingAdmin",
          "type": "address"
        },
        {
          "indexed": false,
          "internalType": "address",
          "name": "newPendingAdmin",
          "type": "address"
        }
      ],
      "name": "NewPendingAdmin",
      "type": "event"
    },
    {
      "anonymous": false,
      "inputs": [
        {
          "indexed": true,
          "internalType": "address",
          "name": "previousOwner",
          "type": "address"
        },
        {
          "indexed": true,
          "internalType": "address",
          "name": "newOwner",
          "type": "address"
        }
      ],
      "name": "OwnershipTransferred",
      "type": "event"
    },
    {
      "anonymous": false,
      "inputs": [
        {
          "indexed": false,
          "internalType": "uint256",
          "name": "index",
          "type": "uint256"
        },
        {
          "components": [
            {
              "internalType": "string",
              "name": "name",
              "type": "string"
            },
            {
              "internalType": "address",
              "name": "creator",
              "type": "address"
            },
            {
              "internalType": "address",
              "name": "comptroller",
              "type": "address"
            },
            {
              "internalType": "uint256",
              "name": "blockPosted",
              "type": "uint256"
            },
            {
              "internalType": "uint256",
              "name": "timestampPosted",
              "type": "uint256"
            }
          ],
          "indexed": false,
          "internalType": "struct FusePoolDirectory.FusePool",
          "name": "pool",
          "type": "tuple"
        }
      ],
      "name": "PoolRegistered",
      "type": "event"
    },
    {
      "inputs": [],
      "name": "_acceptAdmin",
      "outputs": [
        {
          "internalType": "uint256",
          "name": "",
          "type": "uint256"
        }
      ],
      "stateMutability": "nonpayable",
      "type": "function"
    },
    {
      "inputs": [
        {
          "internalType": "address[]",
          "name": "admins",
          "type": "address[]"
        },
        {
          "internalType": "bool",
          "name": "status",
          "type": "bool"
        }
      ],
      "name": "_editAdminWhitelist",
      "outputs": [],
      "stateMutability": "nonpayable",
      "type": "function"
    },
    {
      "inputs": [
        {
          "internalType": "address[]",
          "name": "deployers",
          "type": "address[]"
        },
        {
          "internalType": "bool",
          "name": "status",
          "type": "bool"
        }
      ],
      "name": "_editDeployerWhitelist",
      "outputs": [],
      "stateMutability": "nonpayable",
      "type": "function"
    },
    {
      "inputs": [
        {
          "internalType": "bool",
          "name": "enforce",
          "type": "bool"
        }
      ],
      "name": "_setDeployerWhitelistEnforcement",
      "outputs": [],
      "stateMutability": "nonpayable",
      "type": "function"
    },
    {
      "inputs": [
        {
          "internalType": "address",
          "name": "newPendingAdmin",
          "type": "address"
        }
      ],
      "name": "_setPendingAdmin",
      "outputs": [
        {
          "internalType": "uint256",
          "name": "",
          "type": "uint256"
        }
      ],
      "stateMutability": "nonpayable",
      "type": "function"
    },
    {
      "inputs": [],
      "name": "admin",
      "outputs": [
        {
          "internalType": "address",
          "name": "",
          "type": "address"
        }
      ],
      "stateMutability": "view",
      "type": "function"
    },
    {
      "inputs": [],
      "name": "adminHasRights",
      "outputs": [
        {
          "internalType": "bool",
          "name": "",
          "type": "bool"
        }
      ],
      "stateMutability": "view",
      "type": "function"
    },
    {
      "inputs": [
        {
          "internalType": "address",
          "name": "",
          "type": "address"
        }
      ],
      "name": "adminWhitelist",
      "outputs": [
        {
          "internalType": "bool",
          "name": "",
          "type": "bool"
        }
      ],
      "stateMutability": "view",
      "type": "function"
    },
    {
      "inputs": [
        {
          "internalType": "address",
          "name": "comptroller",
          "type": "address"
        }
      ],
      "name": "bookmarkPool",
      "outputs": [],
      "stateMutability": "nonpayable",
      "type": "function"
    },
    {
      "inputs": [],
      "name": "comptrollerImplementation",
      "outputs": [
        {
          "internalType": "address",
          "name": "",
          "type": "address"
        }
      ],
      "stateMutability": "view",
      "type": "function"
    },
    {
      "inputs": [
        {
          "internalType": "string",
          "name": "name",
          "type": "string"
        },
        {
          "internalType": "address",
          "name": "implementation",
          "type": "address"
        },
        {
          "internalType": "bytes",
          "name": "constructorData",
          "type": "bytes"
        },
        {
          "internalType": "bool",
          "name": "enforceWhitelist",
          "type": "bool"
        },
        {
          "internalType": "uint256",
          "name": "closeFactor",
          "type": "uint256"
        },
        {
          "internalType": "uint256",
          "name": "liquidationIncentive",
          "type": "uint256"
        },
        {
          "internalType": "address",
          "name": "priceOracle",
          "type": "address"
        }
      ],
      "name": "deployPool",
      "outputs": [
        {
          "internalType": "uint256",
          "name": "",
          "type": "uint256"
        },
        {
          "internalType": "address",
          "name": "",
          "type": "address"
        }
      ],
      "stateMutability": "nonpayable",
      "type": "function"
    },
    {
      "inputs": [
        {
          "internalType": "address",
          "name": "",
          "type": "address"
        }
      ],
      "name": "deployerWhitelist",
      "outputs": [
        {
          "internalType": "bool",
          "name": "",
          "type": "bool"
        }
      ],
      "stateMutability": "view",
      "type": "function"
    },
    {
      "inputs": [],
      "name": "enforceDeployerWhitelist",
      "outputs": [
        {
          "internalType": "bool",
          "name": "",
          "type": "bool"
        }
      ],
      "stateMutability": "view",
      "type": "function"
    },
    {
      "inputs": [],
      "name": "fuseAdmin",
      "outputs": [
        {
          "internalType": "address payable",
          "name": "",
          "type": "address"
        }
      ],
      "stateMutability": "view",
      "type": "function"
    },
    {
      "inputs": [],
      "name": "fuseAdminHasRights",
      "outputs": [
        {
          "internalType": "bool",
          "name": "",
          "type": "bool"
        }
      ],
      "stateMutability": "view",
      "type": "function"
    },
    {
      "inputs": [],
      "name": "getAllPools",
      "outputs": [
        {
          "components": [
            {
              "internalType": "string",
              "name": "name",
              "type": "string"
            },
            {
              "internalType": "address",
              "name": "creator",
              "type": "address"
            },
            {
              "internalType": "address",
              "name": "comptroller",
              "type": "address"
            },
            {
              "internalType": "uint256",
              "name": "blockPosted",
              "type": "uint256"
            },
            {
              "internalType": "uint256",
              "name": "timestampPosted",
              "type": "uint256"
            }
          ],
          "internalType": "struct FusePoolDirectory.FusePool[]",
          "name": "",
          "type": "tuple[]"
        }
      ],
      "stateMutability": "view",
      "type": "function"
    },
    {
      "inputs": [
        {
          "internalType": "address",
          "name": "account",
          "type": "address"
        }
      ],
      "name": "getBookmarks",
      "outputs": [
        {
          "internalType": "address[]",
          "name": "",
          "type": "address[]"
        }
      ],
      "stateMutability": "view",
      "type": "function"
    },
    {
      "inputs": [
        {
          "internalType": "address",
          "name": "account",
          "type": "address"
        }
      ],
      "name": "getPoolsByAccount",
      "outputs": [
        {
          "internalType": "uint256[]",
          "name": "",
          "type": "uint256[]"
        },
        {
          "components": [
            {
              "internalType": "string",
              "name": "name",
              "type": "string"
            },
            {
              "internalType": "address",
              "name": "creator",
              "type": "address"
            },
            {
              "internalType": "address",
              "name": "comptroller",
              "type": "address"
            },
            {
              "internalType": "uint256",
              "name": "blockPosted",
              "type": "uint256"
            },
            {
              "internalType": "uint256",
              "name": "timestampPosted",
              "type": "uint256"
            }
          ],
          "internalType": "struct FusePoolDirectory.FusePool[]",
          "name": "",
          "type": "tuple[]"
        }
      ],
      "stateMutability": "view",
      "type": "function"
    },
    {
      "inputs": [],
      "name": "getPublicPools",
      "outputs": [
        {
          "internalType": "uint256[]",
          "name": "",
          "type": "uint256[]"
        },
        {
          "components": [
            {
              "internalType": "string",
              "name": "name",
              "type": "string"
            },
            {
              "internalType": "address",
              "name": "creator",
              "type": "address"
            },
            {
              "internalType": "address",
              "name": "comptroller",
              "type": "address"
            },
            {
              "internalType": "uint256",
              "name": "blockPosted",
              "type": "uint256"
            },
            {
              "internalType": "uint256",
              "name": "timestampPosted",
              "type": "uint256"
            }
          ],
          "internalType": "struct FusePoolDirectory.FusePool[]",
          "name": "",
          "type": "tuple[]"
        }
      ],
      "stateMutability": "view",
      "type": "function"
    },
    {
      "inputs": [
        {
          "internalType": "bool",
          "name": "whitelistedAdmin",
          "type": "bool"
        }
      ],
      "name": "getPublicPoolsByVerification",
      "outputs": [
        {
          "internalType": "uint256[]",
          "name": "",
          "type": "uint256[]"
        },
        {
          "components": [
            {
              "internalType": "string",
              "name": "name",
              "type": "string"
            },
            {
              "internalType": "address",
              "name": "creator",
              "type": "address"
            },
            {
              "internalType": "address",
              "name": "comptroller",
              "type": "address"
            },
            {
              "internalType": "uint256",
              "name": "blockPosted",
              "type": "uint256"
            },
            {
              "internalType": "uint256",
              "name": "timestampPosted",
              "type": "uint256"
            }
          ],
          "internalType": "struct FusePoolDirectory.FusePool[]",
          "name": "",
          "type": "tuple[]"
        }
      ],
      "stateMutability": "view",
      "type": "function"
    },
    {
      "inputs": [
        {
          "internalType": "bool",
          "name": "_enforceDeployerWhitelist",
          "type": "bool"
        },
        {
          "internalType": "address[]",
          "name": "_deployerWhitelist",
          "type": "address[]"
        }
      ],
      "name": "initialize",
      "outputs": [],
      "stateMutability": "nonpayable",
      "type": "function"
    },
    {
      "inputs": [],
      "name": "owner",
      "outputs": [
        {
          "internalType": "address",
          "name": "",
          "type": "address"
        }
      ],
      "stateMutability": "view",
      "type": "function"
    },
    {
      "inputs": [],
      "name": "pendingAdmin",
      "outputs": [
        {
          "internalType": "address",
          "name": "",
          "type": "address"
        }
      ],
      "stateMutability": "view",
      "type": "function"
    },
    {
      "inputs": [],
      "name": "pendingComptrollerImplementation",
      "outputs": [
        {
          "internalType": "address",
          "name": "",
          "type": "address"
        }
      ],
      "stateMutability": "view",
      "type": "function"
    },
    {
      "inputs": [
        {
          "internalType": "address",
          "name": "",
          "type": "address"
        }
      ],
      "name": "poolExists",
      "outputs": [
        {
          "internalType": "bool",
          "name": "",
          "type": "bool"
        }
      ],
      "stateMutability": "view",
      "type": "function"
    },
    {
      "inputs": [
        {
          "internalType": "uint256",
          "name": "",
          "type": "uint256"
        }
      ],
      "name": "pools",
      "outputs": [
        {
          "internalType": "string",
          "name": "name",
          "type": "string"
        },
        {
          "internalType": "address",
          "name": "creator",
          "type": "address"
        },
        {
          "internalType": "address",
          "name": "comptroller",
          "type": "address"
        },
        {
          "internalType": "uint256",
          "name": "blockPosted",
          "type": "uint256"
        },
        {
          "internalType": "uint256",
          "name": "timestampPosted",
          "type": "uint256"
        }
      ],
      "stateMutability": "view",
      "type": "function"
    },
    {
      "inputs": [],
      "name": "renounceOwnership",
      "outputs": [],
      "stateMutability": "nonpayable",
      "type": "function"
    },
    {
      "inputs": [
        {
          "internalType": "uint256",
          "name": "index",
          "type": "uint256"
        },
        {
          "internalType": "string",
          "name": "name",
          "type": "string"
        }
      ],
      "name": "setPoolName",
      "outputs": [],
      "stateMutability": "nonpayable",
      "type": "function"
    },
    {
      "inputs": [
        {
          "internalType": "address",
          "name": "newOwner",
          "type": "address"
        }
      ],
      "name": "transferOwnership",
      "outputs": [],
      "stateMutability": "nonpayable",
      "type": "function"
    }
  ],
  "bytecode": {
    "object": "0x60806040526067805461ffff60a01b191661010160a01b17905534801561002557600080fd5b50613e4f806100356000396000f3fe60806040523480156200001157600080fd5b5060043610620001f55760003560e01c806358b896d31162000119578063b71d1a0c11620000af578063dcfbc0c7116200007a578063dcfbc0c714620004fb578063e9c714f2146200050f578063f2fde38b1462000519578063f851a440146200053057600080fd5b8063b71d1a0c1462000491578063b86579d414620004b7578063bb82aa5e14620004ce578063d88ff1f414620004e257600080fd5b8063a155497c11620000f0578063a155497c1462000413578063a3ed91c6146200042a578063a970e76c1462000441578063ac4afa38146200046757600080fd5b806358b896d314620003c2578063715018a614620003f75780638da5cb5b146200040157600080fd5b8063218a3bbe116200018f5780632f1069ba11620001665780632f1069ba146200035757806343e20a1d146200036c5780634a7462ee14620003925780634ae26ea114620003b857600080fd5b8063218a3bbe146200030e57806326782247146200033557806326bb81d7146200034957600080fd5b80630a83d1b011620001d05780630a83d1b0146200028d57806315761d5114620002a45780631e1c6a0714620002d157806320c32bfe14620002f757600080fd5b806304f03c6f14620001fa5780630742197814620002135780630a755ec21462000263575b600080fd5b620002116200020b366004620029a6565b62000544565b005b6200021162000224366004620029e9565b336000908152606f602090815260408220805460018101825590835291200180546001600160a01b0319166001600160a01b0392909216919091179055565b6067546200027890600160a81b900460ff1681565b60405190151581526020015b60405180910390f35b620002116200029e36600462002a09565b6200058d565b606554620002b8906001600160a01b031681565b6040516001600160a01b03909116815260200162000284565b62000278620002e2366004620029e9565b606c6020526000908152604090205460ff1681565b620002116200030836600462002ae2565b620006bc565b620003256200031f366004620029a6565b62000830565b6040516200028492919062002c41565b606754620002b8906001600160a01b031681565b606d54620002789060ff1681565b6067546200027890600160a01b900460ff1681565b620002786200037d366004620029e9565b60706020526000908152604090205460ff1681565b620003a9620003a3366004620029e9565b62000d23565b60405162000284919062002c9c565b6200032562000d9b565b620003d9620003d336600462002d35565b6200114b565b604080519283526001600160a01b0390911660208301520162000284565b62000211620018e7565b6033546001600160a01b0316620002b8565b620002116200042436600462002a09565b62001922565b620003256200043b366004620029e9565b62001a17565b6200027862000452366004620029e9565b606e6020526000908152604090205460ff1681565b6200047e6200047836600462002e49565b62001cf4565b6040516200028495949392919062002e63565b620004a8620004a2366004620029e9565b62001dda565b60405190815260200162000284565b62000211620004c836600462002ea5565b62001e66565b606854620002b8906001600160a01b031681565b620004ec62001f5e565b60405162000284919062002f7b565b606954620002b8906001600160a01b031681565b620004a862002095565b620002116200052a366004620029e9565b62002178565b606654620002b8906001600160a01b031681565b6033546001600160a01b031633146200057a5760405162461bcd60e51b8152600401620005719062002f90565b60405180910390fd5b606d805460ff1916911515919091179055565b6033546001600160a01b03163314620005ba5760405162461bcd60e51b8152600401620005719062002f90565b81620005ff5760405162461bcd60e51b815260206004820152601360248201527227379030b236b4b7399039bab8383634b2b21760691b604482015260640162000571565b60005b828110156200067957816070600086868581811062000625576200062562002fc5565b90506020020160208101906200063c9190620029e9565b6001600160a01b031681526020810191909152604001600020805460ff191691151591909117905580620006708162002ff1565b91505062000602565b507f31b67e6853df85403a8c4f4f46dc53f48f700d6917c8e3ec8c77a0e6fd56793b838383604051620006af939291906200300f565b60405180910390a1505050565b6000606a8481548110620006d457620006d462002fc5565b600091825260209182902060026005909202010154604080516303e1469160e61b815290516001600160a01b039092169350839263f851a440926004808401938290030181865afa1580156200072e573d6000803e3d6000fd5b505050506040513d601f19601f820116820180604052508101906200075491906200306c565b6001600160a01b0316336001600160a01b0316148015620007d55750806001600160a01b0316630a755ec26040518163ffffffff1660e01b8152600401602060405180830381865afa158015620007af573d6000803e3d6000fd5b505050506040513d601f19601f82011682018060405250810190620007d591906200308c565b80620007eb57506033546001600160a01b031633145b620007f557600080fd5b8282606a86815481106200080d576200080d62002fc5565b6000918252602090912062000829936005909202019162002818565b5050505050565b6060806000805b606a54811015620009ae576000606a82815481106200085a576200085a62002fc5565b60009182526020918290206002600590920201015460408051630b09572160e41b815290516001600160a01b039092169350839263b0957210926004808401938290030181865afa925050508015620008d2575060408051601f3d908101601f19168201909252620008cf918101906200308c565b60015b620008dd5762000988565b8015620008ec57505062000999565b816001600160a01b031663f851a4406040518163ffffffff1660e01b8152600401602060405180830381865afa92505050801562000949575060408051601f3d908101601f1916820190925262000946918101906200306c565b60015b620009545762000986565b6001600160a01b03811660009081526070602052604090205460ff16151588151514620009845750505062000999565b505b505b82620009948162002ff1565b935050505b80620009a58162002ff1565b91505062000837565b5060008167ffffffffffffffff811115620009cd57620009cd62002ceb565b604051908082528060200260200182016040528015620009f7578160200160208202803683370190505b50905060008267ffffffffffffffff81111562000a185762000a1862002ceb565b60405190808252806020026020018201604052801562000a5557816020015b62000a41620028a7565b81526020019060019003908162000a375790505b5090506000805b606a5481101562000d16576000606a828154811062000a7f5762000a7f62002fc5565b60009182526020918290206002600590920201015460408051630b09572160e41b815290516001600160a01b039092169350839263b0957210926004808401938290030181865afa92505050801562000af7575060408051601f3d908101601f1916820190925262000af4918101906200308c565b60015b62000b025762000bad565b801562000b1157505062000d01565b816001600160a01b031663f851a4406040518163ffffffff1660e01b8152600401602060405180830381865afa92505050801562000b6e575060408051601f3d908101601f1916820190925262000b6b918101906200306c565b60015b62000b795762000bab565b6001600160a01b03811660009081526070602052604090205460ff1615158b15151462000ba95750505062000d01565b505b505b8185848151811062000bc35762000bc362002fc5565b602002602001018181525050606a828154811062000be55762000be562002fc5565b90600052602060002090600502016040518060a001604052908160008201805462000c1090620030ac565b80601f016020809104026020016040519081016040528092919081815260200182805462000c3e90620030ac565b801562000c8f5780601f1062000c635761010080835404028352916020019162000c8f565b820191906000526020600020905b81548152906001019060200180831162000c7157829003601f168201915b505050918352505060018201546001600160a01b039081166020830152600283015416604082015260038201546060820152600490910154608090910152845185908590811062000ce45762000ce462002fc5565b6020026020010181905250828062000cfc9062002ff1565b935050505b8062000d0d8162002ff1565b91505062000a5c565b5091969095509350505050565b6001600160a01b0381166000908152606f602090815260409182902080548351818402810184019094528084526060939283018282801562000d8f57602002820191906000526020600020905b81546001600160a01b0316815260019091019060200180831162000d70575b50505050509050919050565b6060806000805b606a5481101562000e7857606a818154811062000dc35762000dc362002fc5565b60009182526020918290206002600590920201015460408051630b09572160e41b815290516001600160a01b039092169263b0957210926004808401938290030181865afa92505050801562000e38575060408051601f3d908101601f1916820190925262000e35918101906200308c565b60015b62000e435762000e53565b801562000e51575062000e63565b505b8162000e5f8162002ff1565b9250505b8062000e6f8162002ff1565b91505062000da2565b5060008167ffffffffffffffff81111562000e975762000e9762002ceb565b60405190808252806020026020018201604052801562000ec1578160200160208202803683370190505b50905060008267ffffffffffffffff81111562000ee25762000ee262002ceb565b60405190808252806020026020018201604052801562000f1f57816020015b62000f0b620028a7565b81526020019060019003908162000f015790505b5090506000805b606a548110156200113f57606a818154811062000f475762000f4762002fc5565b60009182526020918290206002600590920201015460408051630b09572160e41b815290516001600160a01b039092169263b0957210926004808401938290030181865afa92505050801562000fbc575060408051601f3d908101601f1916820190925262000fb9918101906200308c565b60015b62000fc75762000fd7565b801562000fd557506200112a565b505b8084838151811062000fed5762000fed62002fc5565b602002602001018181525050606a81815481106200100f576200100f62002fc5565b90600052602060002090600502016040518060a00160405290816000820180546200103a90620030ac565b80601f01602080910402602001604051908101604052809291908181526020018280546200106890620030ac565b8015620010b95780601f106200108d57610100808354040283529160200191620010b9565b820191906000526020600020905b8154815290600101906020018083116200109b57829003601f168201915b505050918352505060018201546001600160a01b03908116602083015260028301541660408201526003820154606082015260049091015460809091015283518490849081106200110e576200110e62002fc5565b60200260200101819052508180620011269062002ff1565b9250505b80620011368162002ff1565b91505062000f26565b50919590945092505050565b6000806001600160a01b038916620011cc5760405162461bcd60e51b815260206004820152603960248201527f4e6f20436f6d7074726f6c6c657220696d706c656d656e746174696f6e20636f60448201527f6e74726163742061646472657373207370656369666965642e00000000000000606482015260840162000571565b6001600160a01b038316620012375760405162461bcd60e51b815260206004820152602a60248201527f4e6f2050726963654f7261636c6520636f6e747261637420616464726573732060448201526939b832b1b4b334b2b21760b11b606482015260840162000571565b6000604051806020016200124b90620028e8565b601f1982820381018352601f9091011660408190526200127391908b908b90602001620030e9565b60405160208183030381529060405290506000620012c06000338e43604051602001620012a39392919062003113565b60405160208183030381529060405280519060200120846200221a565b60405163e992a04160e01b81526001600160a01b038d81166004830152919250829182169063e992a041906024016020604051808303816000875af11580156200130e573d6000803e3d6000fd5b505050506040513d601f19601f8201168201806040525081019062001334919062003154565b156200139f5760405162461bcd60e51b815260206004820152603360248201527f4661696c656420746f207365742070656e64696e6720696d706c656d656e74616044820152723a34b7b71037b7102ab734ba3937b63632b91760691b606482015260840162000571565b604051630ea826e360e11b81526001600160a01b0382811660048301528d9190821690631d504dc690602401600060405180830381600087803b158015620013e657600080fd5b505af1158015620013fb573d6000803e3d6000fd5b505060405163317b0b7760e01b8152600481018c90528592506001600160a01b038316915063317b0b77906024016020604051808303816000875af115801562001449573d6000803e3d6000fd5b505050506040513d601f19601f820116820180604052508101906200146f919062003154565b15620014be5760405162461bcd60e51b815260206004820181905260248201527f4661696c656420746f2073657420706f6f6c20636c6f736520666163746f722e604482015260640162000571565b604051634fd42e1760e01b8152600481018a90526001600160a01b03821690634fd42e17906024016020604051808303816000875af115801562001506573d6000803e3d6000fd5b505050506040513d601f19601f820116820180604052508101906200152c919062003154565b156200158d5760405162461bcd60e51b815260206004820152602960248201527f4661696c656420746f2073657420706f6f6c206c69717569646174696f6e20696044820152683731b2b73a34bb329760b91b606482015260840162000571565b6040516355ee1fe160e01b81526001600160a01b0389811660048301528216906355ee1fe1906024016020604051808303816000875af1158015620015d6573d6000803e3d6000fd5b505050506040513d601f19601f82011682018060405250810190620015fc919062003154565b156200164b5760405162461bcd60e51b815260206004820181905260248201527f4661696c656420746f2073657420706f6f6c207072696365206f7261636c652e604482015260640162000571565b8a156200172657604051634a956fad60e11b8152600160048201526001600160a01b0382169063952adf5a906024016020604051808303816000875af11580156200169a573d6000803e3d6000fd5b505050506040513d601f19601f82011682018060405250810190620016c0919062003154565b15620017265760405162461bcd60e51b815260206004820152602e60248201527f4661696c656420746f20656e666f72636520737570706c6965722f626f72726f60448201526d3bb2b9103bb434ba32b634b9ba1760911b606482015260840162000571565b604051636a9998b360e11b8152600160048201526001600160a01b0382169063d5333166906024016020604051808303816000875af11580156200176e573d6000803e3d6000fd5b505050506040513d601f19601f8201168201806040525081019062001794919062003154565b15620017f75760405162461bcd60e51b815260206004820152602b60248201527f4661696c656420746f20656e61626c6520706f6f6c206175746f20696d706c6560448201526a36b2b73a30ba34b7b7399760a91b606482015260840162000571565b604051632dc7468360e21b81523360048201526001600160a01b0384169063b71d1a0c906024016020604051808303816000875af11580156200183e573d6000803e3d6000fd5b505050506040513d601f19601f8201168201806040525081019062001864919062003154565b15620018c65760405162461bcd60e51b815260206004820152602a60248201527f4661696c656420746f207365742070656e64696e672061646d696e206f6e20556044820152693734ba3937b63632b91760b11b606482015260840162000571565b620018d28f856200232a565b9f939e50929c50505050505050505050505050565b6033546001600160a01b03163314620019145760405162461bcd60e51b8152600401620005719062002f90565b620019206000620025f7565b565b6033546001600160a01b031633146200194f5760405162461bcd60e51b8152600401620005719062002f90565b81620019975760405162461bcd60e51b81526020600482015260166024820152752737903232b83637bcb2b9399039bab8383634b2b21760511b604482015260640162000571565b60005b8281101562001a115781606e6000868685818110620019bd57620019bd62002fc5565b9050602002016020810190620019d49190620029e9565b6001600160a01b031681526020810191909152604001600020805460ff19169115159190911790558062001a088162002ff1565b9150506200199a565b50505050565b6001600160a01b0381166000908152606b6020526040812054606091829167ffffffffffffffff81111562001a505762001a5062002ceb565b60405190808252806020026020018201604052801562001a7a578160200160208202803683370190505b506001600160a01b0385166000908152606b60205260408120549192509067ffffffffffffffff81111562001ab35762001ab362002ceb565b60405190808252806020026020018201604052801562001af057816020015b62001adc620028a7565b81526020019060019003908162001ad25790505b50905060005b6001600160a01b0386166000908152606b602052604090205481101562001ce9576001600160a01b0386166000908152606b6020526040902080548290811062001b445762001b4462002fc5565b906000526020600020015483828151811062001b645762001b6462002fc5565b602002602001018181525050606a606b6000886001600160a01b03166001600160a01b03168152602001908152602001600020828154811062001bab5762001bab62002fc5565b90600052602060002001548154811062001bc95762001bc962002fc5565b90600052602060002090600502016040518060a001604052908160008201805462001bf490620030ac565b80601f016020809104026020016040519081016040528092919081815260200182805462001c2290620030ac565b801562001c735780601f1062001c475761010080835404028352916020019162001c73565b820191906000526020600020905b81548152906001019060200180831162001c5557829003601f168201915b505050918352505060018201546001600160a01b039081166020830152600283015416604082015260038201546060820152600490910154608090910152825183908390811062001cc85762001cc862002fc5565b6020026020010181905250808062001ce09062002ff1565b91505062001af6565b509094909350915050565b606a818154811062001d0557600080fd5b906000526020600020906005020160009150905080600001805462001d2a90620030ac565b80601f016020809104026020016040519081016040528092919081815260200182805462001d5890620030ac565b801562001da95780601f1062001d7d5761010080835404028352916020019162001da9565b820191906000526020600020905b81548152906001019060200180831162001d8b57829003601f168201915b5050505060018301546002840154600385015460049095015493946001600160a01b03928316949290911692509085565b600062001de662002649565b62001dff5762001df9600160106200269e565b92915050565b606780546001600160a01b038481166001600160a01b031983168117909355604080519190921680825260208201939093527fca4f2f25d0898edd99413412fb94012f9e54ec8142f9b093e7720646a95b16a9910160405180910390a160005b9392505050565b600062001e74600162002720565b9050801562001e8d576000805461ff0019166101001790555b62001e97620027b5565b606d805460ff191684151517905560005b825181101562001f14576001606e600085848151811062001ecd5762001ecd62002fc5565b6020908102919091018101516001600160a01b03168252810191909152604001600020805460ff19169115159190911790558062001f0b8162002ff1565b91505062001ea8565b50801562001f59576000805461ff0019169055604051600181527f7f26b83ff96e1f2b6a682f133852f6798a09c465da95921460cefb384740249890602001620006af565b505050565b6060606a805480602002602001604051908101604052809291908181526020016000905b828210156200208c57838290600052602060002090600502016040518060a001604052908160008201805462001fb890620030ac565b80601f016020809104026020016040519081016040528092919081815260200182805462001fe690620030ac565b8015620020375780601f106200200b5761010080835404028352916020019162002037565b820191906000526020600020905b8154815290600101906020018083116200201957829003601f168201915b50505091835250506001828101546001600160a01b0390811660208085019190915260028501549091166040840152600384015460608401526004909301546080909201919091529183529201910162001f82565b50505050905090565b6067546000906001600160a01b03163314620020be57620020b9600160006200269e565b905090565b60668054606780546001600160a01b038082166001600160a01b031980861682179096559490911690915560408051919092168082526020820184905292917ff9ffabca9c8276e99321725bcb43fb076a6c66a54b7f21c4e8146d8519b417dc910160405180910390a1606754604080516001600160a01b03808516825290921660208301527fca4f2f25d0898edd99413412fb94012f9e54ec8142f9b093e7720646a95b16a9910160405180910390a160009250505090565b6033546001600160a01b03163314620021a55760405162461bcd60e51b8152600401620005719062002f90565b6001600160a01b0381166200220c5760405162461bcd60e51b815260206004820152602660248201527f4f776e61626c653a206e6577206f776e657220697320746865207a65726f206160448201526564647265737360d01b606482015260840162000571565b6200221781620025f7565b50565b600080844710156200226f5760405162461bcd60e51b815260206004820152601d60248201527f437265617465323a20696e73756666696369656e742062616c616e6365000000604482015260640162000571565b8251620022bf5760405162461bcd60e51b815260206004820181905260248201527f437265617465323a2062797465636f6465206c656e677468206973207a65726f604482015260640162000571565b8383516020850187f590506001600160a01b038116620023225760405162461bcd60e51b815260206004820152601960248201527f437265617465323a204661696c6564206f6e206465706c6f7900000000000000604482015260640162000571565b949350505050565b6001600160a01b0381166000908152606c602052604081205460ff1615620023a35760405162461bcd60e51b815260206004820152602560248201527f506f6f6c20616c72656164792065786973747320696e207468652064697265636044820152643a37b93c9760d91b606482015260840162000571565b606d5460ff161580620023c55750336000908152606e602052604090205460ff165b6200241f5760405162461bcd60e51b8152602060048201526024808201527f53656e646572206973206e6f74206f6e206465706c6f7965722077686974656c60448201526334b9ba1760e11b606482015260840162000571565b6064835111156200246c5760405162461bcd60e51b81526020600482015260166024820152752737903837b7b6103730b6b29039bab8383634b2b21760511b604482015260640162000571565b6040805160a081018252848152336020808301919091526001600160a01b03851692820192909252436060820152426080820152606a8054600181018255600091909152815180519293849360059093027f116fea137db6e131133e7f2bab296045d8f41cc5607279db17b218cab0929a510192620024ef9284920190620028f6565b50602082810151600183810180546001600160a01b03199081166001600160a01b0394851617909155604080870151600287018054909316941693909317905560608501516003850155608090940151600490930192909255336000908152606b90915220606a549091620025649162003184565b81546001818101845560009384526020808520909201929092556001600160a01b0386168352606c90526040909120805460ff191682179055606a547f18075ab463b4dc5842f37ecd67abeb192eda5d073f2c08509e189ad173d5c02091620025cd9162003184565b82604051620025de9291906200319e565b60405180910390a1606a54620023229060019062003184565b603380546001600160a01b038381166001600160a01b0319831681179093556040519116919082907f8be0079c531659141344cd1fd0a4f28419497f9722a3daafe3b4186f6b6457e090600090a35050565b6066546000906001600160a01b031633148015620026705750606754600160a81b900460ff165b80620020b957506065546001600160a01b031633148015620020b9575050606754600160a01b900460ff1690565b60007f45b96fe442630264581b197e84bbada861235052c5a1aadfff9ea4e40a969aa0836015811115620026d657620026d66200316e565b83601b811115620026eb57620026eb6200316e565b60408051928352602083019190915260009082015260600160405180910390a182601581111562001e5f5762001e5f6200316e565b60008054610100900460ff16156200276c578160ff166001148015620027455750303b155b620027645760405162461bcd60e51b81526004016200057190620031b9565b506000919050565b60005460ff808416911610620027965760405162461bcd60e51b81526004016200057190620031b9565b506000805460ff191660ff92909216919091179055600190565b919050565b600054610100900460ff16620027df5760405162461bcd60e51b8152600401620005719062003207565b62001920600054610100900460ff166200280d5760405162461bcd60e51b8152600401620005719062003207565b6200192033620025f7565b8280546200282690620030ac565b90600052602060002090601f0160209004810192826200284a576000855562002895565b82601f10620028655782800160ff1982351617855562002895565b8280016001018555821562002895579182015b828111156200289557823582559160200191906001019062002878565b50620028a392915062002973565b5090565b6040518060a001604052806060815260200160006001600160a01b0316815260200160006001600160a01b0316815260200160008152602001600081525090565b610bc7806200325383390190565b8280546200290490620030ac565b90600052602060002090601f01602090048101928262002928576000855562002895565b82601f106200294357805160ff191683800117855562002895565b8280016001018555821562002895579182015b828111156200289557825182559160200191906001019062002956565b5b80821115620028a3576000815560010162002974565b80151581146200221757600080fd5b8035620027b0816200298a565b600060208284031215620029b957600080fd5b813562001e5f816200298a565b6001600160a01b03811681146200221757600080fd5b8035620027b081620029c6565b600060208284031215620029fc57600080fd5b813562001e5f81620029c6565b60008060006040848603121562002a1f57600080fd5b833567ffffffffffffffff8082111562002a3857600080fd5b818601915086601f83011262002a4d57600080fd5b81358181111562002a5d57600080fd5b8760208260051b850101111562002a7357600080fd5b6020928301955093505084013562002a8b816200298a565b809150509250925092565b60008083601f84011262002aa957600080fd5b50813567ffffffffffffffff81111562002ac257600080fd5b60208301915083602082850101111562002adb57600080fd5b9250929050565b60008060006040848603121562002af857600080fd5b83359250602084013567ffffffffffffffff81111562002b1757600080fd5b62002b258682870162002a96565b9497909650939450505050565b60005b8381101562002b4f57818101518382015260200162002b35565b8381111562001a115750506000910152565b6000815180845262002b7b81602086016020860162002b32565b601f01601f19169290920160200192915050565b6000815160a0845262002ba660a085018262002b61565b9050602083015160018060a01b038082166020870152806040860151166040870152505060608301516060850152608083015160808501528091505092915050565b600081518084526020808501808196508360051b8101915082860160005b8581101562002c3457828403895262002c2184835162002b8f565b9885019893509084019060010162002c06565b5091979650505050505050565b604080825283519082018190526000906020906060840190828701845b8281101562002c7c5781518452928401929084019060010162002c5e565b5050508381038285015262002c92818662002be8565b9695505050505050565b6020808252825182820181905260009190848201906040850190845b8181101562002cdf5783516001600160a01b03168352928401929184019160010162002cb8565b50909695505050505050565b634e487b7160e01b600052604160045260246000fd5b604051601f8201601f1916810167ffffffffffffffff8111828210171562002d2d5762002d2d62002ceb565b604052919050565b60008060008060008060008060e0898b03121562002d5257600080fd5b883567ffffffffffffffff8082111562002d6b57600080fd5b818b0191508b601f83011262002d8057600080fd5b813560208282111562002d975762002d9762002ceb565b62002dab601f8301601f1916820162002d01565b8281528e8284870101111562002dc057600080fd5b828286018383013760008184018301529b5062002ddf8d8201620029dc565b9a50505060408b013591508082111562002df857600080fd5b5062002e078b828c0162002a96565b909750955062002e1c905060608a0162002999565b93506080890135925060a0890135915062002e3a60c08a01620029dc565b90509295985092959890939650565b60006020828403121562002e5c57600080fd5b5035919050565b60a08152600062002e7860a083018862002b61565b6001600160a01b039687166020840152949095166040820152606081019290925260809091015292915050565b6000806040838503121562002eb957600080fd5b823562002ec6816200298a565b915060208381013567ffffffffffffffff8082111562002ee557600080fd5b818601915086601f83011262002efa57600080fd5b81358181111562002f0f5762002f0f62002ceb565b8060051b915062002f2284830162002d01565b818152918301840191848101908984111562002f3d57600080fd5b938501935b8385101562002f6b578435925062002f5a83620029c6565b828252938501939085019062002f42565b8096505050505050509250929050565b60208152600062001e5f602083018462002be8565b6020808252818101527f4f776e61626c653a2063616c6c6572206973206e6f7420746865206f776e6572604082015260600190565b634e487b7160e01b600052603260045260246000fd5b634e487b7160e01b600052601160045260246000fd5b600060001982141562003008576200300862002fdb565b5060010190565b6040808252810183905260008460608301825b86811015620030565782356200303881620029c6565b6001600160a01b031682526020928301929091019060010162003022565b5080925050508215156020830152949350505050565b6000602082840312156200307f57600080fd5b815162001e5f81620029c6565b6000602082840312156200309f57600080fd5b815162001e5f816200298a565b600181811c90821680620030c157607f821691505b60208210811415620030e357634e487b7160e01b600052602260045260246000fd5b50919050565b60008451620030fd81846020890162002b32565b8201838582376000930192835250909392505050565b6bffffffffffffffffffffffff198460601b168152600083516200313f81601485016020880162002b32565b60149201918201929092526034019392505050565b6000602082840312156200316757600080fd5b5051919050565b634e487b7160e01b600052602160045260246000fd5b60008282101562003199576200319962002fdb565b500390565b82815260406020820152600062002322604083018462002b8f565b6020808252602e908201527f496e697469616c697a61626c653a20636f6e747261637420697320616c72656160408201526d191e481a5b9a5d1a585b1a5e995960921b606082015260800190565b6020808252602b908201527f496e697469616c697a61626c653a20636f6e7472616374206973206e6f74206960408201526a6e697469616c697a696e6760a81b60608201526080019056fe60806040526002805461ffff60a01b191661010160a01b17905534801561002557600080fd5b50604051610bc7380380610bc783398101604081905261004491610077565b60018054336001600160a01b031991821617909155600080549091166001600160a01b03929092169190911790556100a7565b60006020828403121561008957600080fd5b81516001600160a01b03811681146100a057600080fd5b9392505050565b610b11806100b66000396000f3fe6080604052600436106100c25760003560e01c8063b71d1a0c1161007f578063dcfbc0c711610059578063dcfbc0c714610425578063e992a04114610445578063e9c714f214610465578063f851a4401461047a576100c2565b8063b71d1a0c146103d0578063bb82aa5e146103f0578063c1e8033414610410576100c2565b80630225ab9d146102d35780630a755ec21461030657806315761d5114610337578063267822471461036f5780632f1069ba1461038f5780636f63af0b146103b0575b3330146102585760408051600481526024810182526020810180516001600160e01b0316633757348b60e21b179052905160009182913091610103916109c6565b600060405180830381855afa9150503d806000811461013e576040519150601f19603f3d011682016040523d82523d6000602084013e610143565b606091505b50915091506000821561016757818060200190518101906101649190610a12565b90505b8015610254576000805460035460405163bbcdd6d360e01b81526001600160a01b03918216600482015291169063bbcdd6d390602401602060405180830381865afa1580156101ba573d6000803e3d6000fd5b505050506040513d601f19601f820116820180604052508101906101de9190610a44565b6003549091506001600160a01b0380831691161461025257600380546001600160a01b038381166001600160a01b0319831681179093556040519116917fd604de94d45953f9138079ec1b82d533cb2160c906d1076d1f7ed54befbca97a91610248918491610a61565b60405180910390a1505b505b5050505b6003546040516000916001600160a01b0316906102789083903690610a7b565b600060405180830381855af49150503d80600081146102b3576040519150601f19603f3d011682016040523d82523d6000602084013e6102b8565b606091505b505090506040513d6000823e8180156102cf573d82f35b3d82fd5b3480156102df57600080fd5b506102f36102ee366004610a8b565b61049a565b6040519081526020015b60405180910390f35b34801561031257600080fd5b5060025461032790600160a81b900460ff1681565b60405190151581526020016102fd565b34801561034357600080fd5b50600054610357906001600160a01b031681565b6040516001600160a01b0390911681526020016102fd565b34801561037b57600080fd5b50600254610357906001600160a01b031681565b34801561039b57600080fd5b5060025461032790600160a01b900460ff1681565b3480156103bc57600080fd5b506102f36103cb366004610a8b565b610536565b3480156103dc57600080fd5b506102f36103eb366004610aa8565b6105c5565b3480156103fc57600080fd5b50600354610357906001600160a01b031681565b34801561041c57600080fd5b506102f3610644565b34801561043157600080fd5b50600454610357906001600160a01b031681565b34801561045157600080fd5b506102f3610460366004610aa8565b610736565b34801561047157600080fd5b506102f3610829565b34801561048657600080fd5b50600154610357906001600160a01b031681565b60006104a46108fb565b6104ba576104b46001600561094d565b92915050565b60025460ff600160a81b90910416151582151514156104da5760006104b4565b60028054831515600160a81b0260ff60a81b199091161790556040517f10f9a0a95673b0837d1dce21fd3bffcb6d760435e9b5300b75a271182f75f8229061052790841515815260200190565b60405180910390a160006104b4565b60006105406108fb565b610550576104b46001600561094d565b60025460ff600160a01b90910416151582151514156105705760006104b4565b6002805460ff60a01b1916600160a01b8415158102919091179182905560405160ff9190920416151581527fabb56a15fd39488c914b324690b88f30d7daec63d2131ca0ef47e5739068c86e90602001610527565b60006105cf6108fb565b6105df576104b46001601061094d565b600280546001600160a01b038481166001600160a01b03198316179092556040519116907fca4f2f25d0898edd99413412fb94012f9e54ec8142f9b093e7720646a95b16a9906106329083908690610a61565b60405180910390a160005b9392505050565b6004546000906001600160a01b03163314158061066a57506004546001600160a01b0316155b1561067f5761067a60018061094d565b905090565b60038054600480546001600160a01b03198084166001600160a01b03838116918217909655911690915560405192909116917fd604de94d45953f9138079ec1b82d533cb2160c906d1076d1f7ed54befbca97a906106e09084908490610a61565b60405180910390a16004546040517fe945ccee5d701fc83f9b8aa8ca94ea4219ec1fcbd4f4cab4f0ea57c5c3e1d815916107259184916001600160a01b031690610a61565b60405180910390a160009250505090565b60006107406108fb565b610750576104b46001601261094d565b600054600354604051639d244f9f60e01b81526001600160a01b0392831692639d244f9f92610786929116908690600401610a61565b602060405180830381865afa1580156107a3573d6000803e3d6000fd5b505050506040513d601f19601f820116820180604052508101906107c79190610a12565b6107d7576104b46001601161094d565b600480546001600160a01b038481166001600160a01b0319831681179093556040519116917fe945ccee5d701fc83f9b8aa8ca94ea4219ec1fcbd4f4cab4f0ea57c5c3e1d81591610632918491610a61565b6002546000906001600160a01b031633141580610844575033155b156108555761067a6001600061094d565b60018054600280546001600160a01b03198084166001600160a01b03838116918217909655911690915560405192909116917ff9ffabca9c8276e99321725bcb43fb076a6c66a54b7f21c4e8146d8519b417dc906108b69084908490610a61565b60405180910390a16002546040517fca4f2f25d0898edd99413412fb94012f9e54ec8142f9b093e7720646a95b16a9916107259184916001600160a01b031690610a61565b6001546000906001600160a01b0316331480156109215750600254600160a81b900460ff165b8061067a57506000546001600160a01b03163314801561067a575050600254600160a01b900460ff1690565b60007f45b96fe442630264581b197e84bbada861235052c5a1aadfff9ea4e40a969aa083601581111561098257610982610ac5565b83601b81111561099457610994610ac5565b60408051928352602083019190915260009082015260600160405180910390a182601581111561063d5761063d610ac5565b6000825160005b818110156109e757602081860181015185830152016109cd565b818111156109f6576000828501525b509190910192915050565b8015158114610a0f57600080fd5b50565b600060208284031215610a2457600080fd5b815161063d81610a01565b6001600160a01b0381168114610a0f57600080fd5b600060208284031215610a5657600080fd5b815161063d81610a2f565b6001600160a01b0392831681529116602082015260400190565b8183823760009101908152919050565b600060208284031215610a9d57600080fd5b813561063d81610a01565b600060208284031215610aba57600080fd5b813561063d81610a2f565b634e487b7160e01b600052602160045260246000fdfea2646970667358221220ada6d5d81cf77c5db9e6eb97161ff0053ac28712ef5fe769ca9d03008b77a22d64736f6c634300080a0033a2646970667358221220042554fc7aa718d13d904772931ed8b015975a261d3e29f9e729c41cc9098db164736f6c634300080a0033",
    "linkReferences": {}
  }
}