{
  "abi": [
    {
      "inputs": [],
      "name": "_borrowGuardianPaused",
      "outputs": [
        {
          "internalType": "bool",
          "name": "",
          "type": "bool"
        }
      ],
      "stateMutability": "view",
      "type": "function"
    },
    {
      "inputs": [],
      "name": "_mintGuardianPaused",
      "outputs": [
        {
          "internalType": "bool",
          "name": "",
          "type": "bool"
        }
      ],
      "stateMutability": "view",
      "type": "function"
    },
    {
      "inputs": [
        {
          "internalType": "address",
          "name": "",
          "type": "address"
        },
        {
          "internalType": "uint256",
          "name": "",
          "type": "uint256"
        }
      ],
      "name": "accountAssets",
      "outputs": [
        {
          "internalType": "contract CToken",
          "name": "",
          "type": "address"
        }
      ],
      "stateMutability": "view",
      "type": "function"
    },
    {
      "inputs": [],
      "name": "admin",
      "outputs": [
        {
          "internalType": "address",
          "name": "",
          "type": "address"
        }
      ],
      "stateMutability": "view",
      "type": "function"
    },
    {
      "inputs": [],
      "name": "adminHasRights",
      "outputs": [
        {
          "internalType": "bool",
          "name": "",
          "type": "bool"
        }
      ],
      "stateMutability": "view",
      "type": "function"
    },
    {
      "inputs": [
        {
          "internalType": "uint256",
          "name": "",
          "type": "uint256"
        }
      ],
      "name": "allBorrowers",
      "outputs": [
        {
          "internalType": "address",
          "name": "",
          "type": "address"
        }
      ],
      "stateMutability": "view",
      "type": "function"
    },
    {
      "inputs": [
        {
          "internalType": "uint256",
          "name": "",
          "type": "uint256"
        }
      ],
      "name": "allMarkets",
      "outputs": [
        {
          "internalType": "contract CToken",
          "name": "",
          "type": "address"
        }
      ],
      "stateMutability": "view",
      "type": "function"
    },
    {
      "inputs": [
        {
          "internalType": "address",
          "name": "",
          "type": "address"
        }
      ],
      "name": "borrowGuardianPaused",
      "outputs": [
        {
          "internalType": "bool",
          "name": "",
          "type": "bool"
        }
      ],
      "stateMutability": "view",
      "type": "function"
    },
    {
      "inputs": [
        {
          "internalType": "address",
          "name": "",
          "type": "address"
        }
      ],
      "name": "cTokensByUnderlying",
      "outputs": [
        {
          "internalType": "contract CToken",
          "name": "",
          "type": "address"
        }
      ],
      "stateMutability": "view",
      "type": "function"
    },
    {
      "inputs": [],
      "name": "closeFactorMantissa",
      "outputs": [
        {
          "internalType": "uint256",
          "name": "",
          "type": "uint256"
        }
      ],
      "stateMutability": "view",
      "type": "function"
    },
    {
      "inputs": [],
      "name": "comptrollerImplementation",
      "outputs": [
        {
          "internalType": "address",
          "name": "",
          "type": "address"
        }
      ],
      "stateMutability": "view",
      "type": "function"
    },
    {
      "inputs": [],
      "name": "enforceWhitelist",
      "outputs": [
        {
          "internalType": "bool",
          "name": "",
          "type": "bool"
        }
      ],
      "stateMutability": "view",
      "type": "function"
    },
    {
      "inputs": [],
      "name": "fuseAdmin",
      "outputs": [
        {
          "internalType": "address payable",
          "name": "",
          "type": "address"
        }
      ],
      "stateMutability": "view",
      "type": "function"
    },
    {
      "inputs": [],
      "name": "fuseAdminHasRights",
      "outputs": [
        {
          "internalType": "bool",
          "name": "",
          "type": "bool"
        }
      ],
      "stateMutability": "view",
      "type": "function"
    },
    {
      "inputs": [],
      "name": "liquidationIncentiveMantissa",
      "outputs": [
        {
          "internalType": "uint256",
          "name": "",
          "type": "uint256"
        }
      ],
      "stateMutability": "view",
      "type": "function"
    },
    {
      "inputs": [
        {
          "internalType": "address",
          "name": "",
          "type": "address"
        }
      ],
      "name": "markets",
      "outputs": [
        {
          "internalType": "bool",
          "name": "isListed",
          "type": "bool"
        },
        {
          "internalType": "uint256",
          "name": "collateralFactorMantissa",
          "type": "uint256"
        }
      ],
      "stateMutability": "view",
      "type": "function"
    },
    {
      "inputs": [
        {
          "internalType": "address",
          "name": "",
          "type": "address"
        }
      ],
      "name": "mintGuardianPaused",
      "outputs": [
        {
          "internalType": "bool",
          "name": "",
          "type": "bool"
        }
      ],
      "stateMutability": "view",
      "type": "function"
    },
    {
      "inputs": [],
      "name": "oracle",
      "outputs": [
        {
          "internalType": "contract PriceOracle",
          "name": "",
          "type": "address"
        }
      ],
      "stateMutability": "view",
      "type": "function"
    },
    {
      "inputs": [],
      "name": "pauseGuardian",
      "outputs": [
        {
          "internalType": "address",
          "name": "",
          "type": "address"
        }
      ],
      "stateMutability": "view",
      "type": "function"
    },
    {
      "inputs": [],
      "name": "pendingAdmin",
      "outputs": [
        {
          "internalType": "address",
          "name": "",
          "type": "address"
        }
      ],
      "stateMutability": "view",
      "type": "function"
    },
    {
      "inputs": [],
      "name": "pendingComptrollerImplementation",
      "outputs": [
        {
          "internalType": "address",
          "name": "",
          "type": "address"
        }
      ],
      "stateMutability": "view",
      "type": "function"
    },
    {
      "inputs": [],
      "name": "seizeGuardianPaused",
      "outputs": [
        {
          "internalType": "bool",
          "name": "",
          "type": "bool"
        }
      ],
      "stateMutability": "view",
      "type": "function"
    },
    {
      "inputs": [
        {
          "internalType": "address",
          "name": "",
          "type": "address"
        }
      ],
      "name": "suppliers",
      "outputs": [
        {
          "internalType": "bool",
          "name": "",
          "type": "bool"
        }
      ],
      "stateMutability": "view",
      "type": "function"
    },
    {
      "inputs": [],
      "name": "transferGuardianPaused",
      "outputs": [
        {
          "internalType": "bool",
          "name": "",
          "type": "bool"
        }
      ],
      "stateMutability": "view",
      "type": "function"
    },
    {
      "inputs": [
        {
          "internalType": "address",
          "name": "",
          "type": "address"
        }
      ],
      "name": "whitelist",
      "outputs": [
        {
          "internalType": "bool",
          "name": "",
          "type": "bool"
        }
      ],
      "stateMutability": "view",
      "type": "function"
    },
    {
      "inputs": [
        {
          "internalType": "uint256",
          "name": "",
          "type": "uint256"
        }
      ],
      "name": "whitelistArray",
      "outputs": [
        {
          "internalType": "address",
          "name": "",
          "type": "address"
        }
      ],
      "stateMutability": "view",
      "type": "function"
    }
  ],
  "bytecode": {
    "object": "0x60806040526002805461ffff60a01b191661010160a01b17905534801561002557600080fd5b50610568806100356000396000f3fe608060405234801561001057600080fd5b506004361061018e5760003560e01c80637dc0d1d0116100de578063bb82aa5e11610097578063dcfbc0c711610071578063dcfbc0c7146103ec578063e6653f3d146103ff578063e875544614610413578063f851a4401461041c57600080fd5b8063bb82aa5e146103b3578063d251fefc146103c6578063dce15449146103d957600080fd5b80637dc0d1d01461030457806387f76303146103175780638e8f294b1461032b5780639b19251a1461036f578063ac0b0bb714610392578063b0957210146103a657600080fd5b806331ff47fa1161014b57806352d84d1e1161012557806352d84d1e146102985780636d154ea5146102ab578063731f0c2b146102ce5780637515bafa146102f157600080fd5b806331ff47fa146102445780633c94786f1461026d5780634ada90af1461028157600080fd5b80630a755ec21461019357806315761d51146101bc57806316dc15fe146101e757806324a3d6221461020a578063267822471461021d5780632f1069ba14610230575b600080fd5b6002546101a790600160a81b900460ff1681565b60405190151581526020015b60405180910390f35b6000546101cf906001600160a01b031681565b6040516001600160a01b0390911681526020016101b3565b6101a76101f53660046104cd565b600f6020526000908152604090205460ff1681565b6015546101cf906001600160a01b031681565b6002546101cf906001600160a01b031681565b6002546101a790600160a01b900460ff1681565b6101cf6102523660046104cd565b6010602052600090815260409020546001600160a01b031681565b6015546101a790600160a01b900460ff1681565b61028a60075481565b6040519081526020016101b3565b6101cf6102a63660046104ef565b61042f565b6101a76102b93660046104cd565b60176020526000908152604090205460ff1681565b6101a76102dc3660046104cd565b60166020526000908152604090205460ff1681565b6101cf6102ff3660046104ef565b610459565b6005546101cf906001600160a01b031681565b6015546101a790600160b01b900460ff1681565b6103586103393660046104cd565b600a602052600090815260409020805460019091015460ff9091169082565b6040805192151583526020830191909152016101b3565b6101a761037d3660046104cd565b60126020526000908152604090205460ff1681565b6015546101a790600160b81b900460ff1681565b6011546101a79060ff1681565b6003546101cf906001600160a01b031681565b6101cf6103d43660046104ef565b610469565b6101cf6103e7366004610508565b610479565b6004546101cf906001600160a01b031681565b6015546101a790600160a81b900460ff1681565b61028a60065481565b6001546101cf906001600160a01b031681565b600b818154811061043f57600080fd5b6000918252602090912001546001600160a01b0316905081565b600d818154811061043f57600080fd5b6013818154811061043f57600080fd5b6009602052816000526040600020818154811061049557600080fd5b6000918252602090912001546001600160a01b03169150829050565b80356001600160a01b03811681146104c857600080fd5b919050565b6000602082840312156104df57600080fd5b6104e8826104b1565b9392505050565b60006020828403121561050157600080fd5b5035919050565b6000806040838503121561051b57600080fd5b610524836104b1565b94602093909301359350505056fea2646970667358221220a8f7d56410f4e10b7e7b87347d44359ed9558ca0fe187ddb08da3288b86576a164736f6c634300080a0033",
    "linkReferences": {}
  }
}