{
  "abi": [
    {
      "inputs": [
        {
          "internalType": "address",
          "name": "",
          "type": "address"
        },
        {
          "internalType": "uint256",
          "name": "",
          "type": "uint256"
        }
      ],
      "name": "accountAssets",
      "outputs": [
        {
          "internalType": "contract CToken",
          "name": "",
          "type": "address"
        }
      ],
      "stateMutability": "view",
      "type": "function"
    },
    {
      "inputs": [],
      "name": "admin",
      "outputs": [
        {
          "internalType": "address",
          "name": "",
          "type": "address"
        }
      ],
      "stateMutability": "view",
      "type": "function"
    },
    {
      "inputs": [],
      "name": "adminHasRights",
      "outputs": [
        {
          "internalType": "bool",
          "name": "",
          "type": "bool"
        }
      ],
      "stateMutability": "view",
      "type": "function"
    },
    {
      "inputs": [],
      "name": "closeFactorMantissa",
      "outputs": [
        {
          "internalType": "uint256",
          "name": "",
          "type": "uint256"
        }
      ],
      "stateMutability": "view",
      "type": "function"
    },
    {
      "inputs": [],
      "name": "comptrollerImplementation",
      "outputs": [
        {
          "internalType": "address",
          "name": "",
          "type": "address"
        }
      ],
      "stateMutability": "view",
      "type": "function"
    },
    {
      "inputs": [],
      "name": "fuseAdmin",
      "outputs": [
        {
          "internalType": "address payable",
          "name": "",
          "type": "address"
        }
      ],
      "stateMutability": "view",
      "type": "function"
    },
    {
      "inputs": [],
      "name": "fuseAdminHasRights",
      "outputs": [
        {
          "internalType": "bool",
          "name": "",
          "type": "bool"
        }
      ],
      "stateMutability": "view",
      "type": "function"
    },
    {
      "inputs": [],
      "name": "liquidationIncentiveMantissa",
      "outputs": [
        {
          "internalType": "uint256",
          "name": "",
          "type": "uint256"
        }
      ],
      "stateMutability": "view",
      "type": "function"
    },
    {
      "inputs": [],
      "name": "oracle",
      "outputs": [
        {
          "internalType": "contract PriceOracle",
          "name": "",
          "type": "address"
        }
      ],
      "stateMutability": "view",
      "type": "function"
    },
    {
      "inputs": [],
      "name": "pendingAdmin",
      "outputs": [
        {
          "internalType": "address",
          "name": "",
          "type": "address"
        }
      ],
      "stateMutability": "view",
      "type": "function"
    },
    {
      "inputs": [],
      "name": "pendingComptrollerImplementation",
      "outputs": [
        {
          "internalType": "address",
          "name": "",
          "type": "address"
        }
      ],
      "stateMutability": "view",
      "type": "function"
    }
  ],
  "bytecode": {
    "object": "0x60806040526002805461ffff60a01b191661010160a01b17905534801561002557600080fd5b5061024e806100356000396000f3fe608060405234801561001057600080fd5b50600436106100a95760003560e01c80637dc0d1d0116100715780637dc0d1d014610140578063bb82aa5e14610153578063dce1544914610166578063dcfbc0c714610179578063e87554461461018c578063f851a4401461019557600080fd5b80630a755ec2146100ae57806315761d51146100d757806326782247146101025780632f1069ba146101155780634ada90af14610129575b600080fd5b6002546100c290600160a81b900460ff1681565b60405190151581526020015b60405180910390f35b6000546100ea906001600160a01b031681565b6040516001600160a01b0390911681526020016100ce565b6002546100ea906001600160a01b031681565b6002546100c290600160a01b900460ff1681565b61013260075481565b6040519081526020016100ce565b6005546100ea906001600160a01b031681565b6003546100ea906001600160a01b031681565b6100ea6101743660046101e0565b6101a8565b6004546100ea906001600160a01b031681565b61013260065481565b6001546100ea906001600160a01b031681565b600960205281600052604060002081815481106101c457600080fd5b6000918252602090912001546001600160a01b03169150829050565b600080604083850312156101f357600080fd5b82356001600160a01b038116811461020a57600080fd5b94602093909301359350505056fea2646970667358221220cdd8cc70df2889273a2ca1faa4a8dc685ceb35c94fa66102f2d11fbc2a090ad364736f6c634300080a0033",
    "linkReferences": {}
  }
}