{
  "abi": [
    {
      "inputs": [],
      "name": "FARM",
      "outputs": [
        {
          "internalType": "address",
          "name": "",
          "type": "address"
        }
      ],
      "stateMutability": "view",
      "type": "function"
    },
    {
      "inputs": [],
      "name": "IFARM",
      "outputs": [
        {
          "internalType": "contract IFarmVault",
          "name": "",
          "type": "address"
        }
      ],
      "stateMutability": "view",
      "type": "function"
    },
    {
      "inputs": [
        {
          "internalType": "contract ICToken",
          "name": "cToken",
          "type": "address"
        }
      ],
      "name": "getUnderlyingPrice",
      "outputs": [
        {
          "internalType": "uint256",
          "name": "",
          "type": "uint256"
        }
      ],
      "stateMutability": "view",
      "type": "function"
    },
    {
      "inputs": [
        {
          "internalType": "address",
          "name": "underlying",
          "type": "address"
        }
      ],
      "name": "price",
      "outputs": [
        {
          "internalType": "uint256",
          "name": "",
          "type": "uint256"
        }
      ],
      "stateMutability": "view",
      "type": "function"
    }
  ],
  "bytecode": {
    "object": "0x608060405234801561001057600080fd5b5061058c806100206000396000f3fe608060405234801561001057600080fd5b506004361061004c5760003560e01c80634eac22eb14610051578063aea9107814610089578063b3a9992e146100aa578063fc57d4df146100c5575b600080fd5b61006c731571ed0bed4d987fe2b498ddbae7dfa19519f65181565b6040516001600160a01b0390911681526020015b60405180910390f35b61009c610097366004610399565b6100d8565b604051908152602001610080565b61006c73a0246c9032bc3a600820415ae600c6388619a14d81565b61009c6100d3366004610399565b6100e9565b60006100e3826101ec565b92915050565b600080826001600160a01b0316636f307dc36040518163ffffffff1660e01b8152600401602060405180830381865afa15801561012a573d6000803e3d6000fd5b505050506040513d601f19601f8201168201806040525081019061014e91906103b6565b9050806001600160a01b031663313ce5676040518163ffffffff1660e01b8152600401602060405180830381865afa15801561018e573d6000803e3d6000fd5b505050506040513d601f19601f820116820180604052508101906101b291906103d3565b6101c09060ff16600a6104f0565b6101c9826101ec565b6101db90670de0b6b3a76400006104fc565b6101e5919061051b565b9392505050565b60006001600160a01b038216731571ed0bed4d987fe2b498ddbae7dfa19519f651141561031957670de0b6b3a7640000731571ed0bed4d987fe2b498ddbae7dfa19519f6516001600160a01b03166377c7b8fc6040518163ffffffff1660e01b8152600401602060405180830381865afa15801561026e573d6000803e3d6000fd5b505050506040513d601f19601f82011682018060405250810190610292919061053d565b6040516315d5220f60e31b815273a0246c9032bc3a600820415ae600c6388619a14d6004820152339063aea9107890602401602060405180830381865afa1580156102e1573d6000803e3d6000fd5b505050506040513d601f19601f82011682018060405250810190610305919061053d565b61030f91906104fc565b6100e3919061051b565b60405162461bcd60e51b815260206004820152603360248201527f496e76616c696420746f6b656e20616464726573732070617373656420746f206044820152722430b93b32b9ba283934b1b2a7b930b1b6329760691b606482015260840160405180910390fd5b6001600160a01b038116811461039657600080fd5b50565b6000602082840312156103ab57600080fd5b81356101e581610381565b6000602082840312156103c857600080fd5b81516101e581610381565b6000602082840312156103e557600080fd5b815160ff811681146101e557600080fd5b634e487b7160e01b600052601160045260246000fd5b600181815b8085111561044757816000190482111561042d5761042d6103f6565b8085161561043a57918102915b93841c9390800290610411565b509250929050565b60008261045e575060016100e3565b8161046b575060006100e3565b8160018114610481576002811461048b576104a7565b60019150506100e3565b60ff84111561049c5761049c6103f6565b50506001821b6100e3565b5060208310610133831016604e8410600b84101617156104ca575081810a6100e3565b6104d4838361040c565b80600019048211156104e8576104e86103f6565b029392505050565b60006101e5838361044f565b6000816000190483118215151615610516576105166103f6565b500290565b60008261053857634e487b7160e01b600052601260045260246000fd5b500490565b60006020828403121561054f57600080fd5b505191905056fea2646970667358221220664d57584003a29593a63a2f043019e124e8572dfbe26cc022ad7ad1ad733bac64736f6c634300080a0033",
    "linkReferences": {}
  },
  "methodIdentifiers": {
    "FARM()": "b3a9992e",
    "IFARM()": "4eac22eb",
    "getUnderlyingPrice(address)": "fc57d4df",
    "price(address)": "aea91078"
  },
  "id": 189
}