{
  "abi": [
    {
      "inputs": [
        {
          "internalType": "address",
          "name": "underlying_",
          "type": "address"
        },
        {
          "internalType": "contract ComptrollerInterface",
          "name": "comptroller_",
          "type": "address"
        },
        {
          "internalType": "address payable",
          "name": "fuseAdmin_",
          "type": "address"
        },
        {
          "internalType": "contract InterestRateModel",
          "name": "interestRateModel_",
          "type": "address"
        },
        {
          "internalType": "string",
          "name": "name_",
          "type": "string"
        },
        {
          "internalType": "string",
          "name": "symbol_",
          "type": "string"
        },
        {
          "internalType": "address",
          "name": "implementation_",
          "type": "address"
        },
        {
          "internalType": "bytes",
          "name": "becomeImplementationData",
          "type": "bytes"
        },
        {
          "internalType": "uint256",
          "name": "reserveFactorMantissa_",
          "type": "uint256"
        },
        {
          "internalType": "uint256",
          "name": "adminFeeMantissa_",
          "type": "uint256"
        }
      ],
      "stateMutability": "nonpayable",
      "type": "constructor"
    },
    {
      "stateMutability": "payable",
      "type": "fallback"
    },
    {
      "inputs": [],
      "name": "implementation",
      "outputs": [
        {
          "internalType": "address",
          "name": "",
          "type": "address"
        }
      ],
      "stateMutability": "view",
      "type": "function"
    },
    {
      "stateMutability": "payable",
      "type": "receive"
    }
  ],
  "bytecode": {
    "object": "0x608060405234801561001057600080fd5b506040516106bf3803806106bf83398101604081905261002f91610246565b610085848b8b8b8b8b8b8989604051602401610052989796959493929190610363565b60408051601f198184030181529190526020810180516001600160e01b039081166306db3ecd60e01b179091526100e316565b506100d384856000866040516024016100a0939291906103cc565b60408051601f198184030181529190526020810180516001600160e01b039081166350d85b7360e01b179091526100e316565b505050505050505050505061041d565b6060600080846001600160a01b0316846040516101009190610401565b600060405180830381855af49150503d806000811461013b576040519150601f19603f3d011682016040523d82523d6000602084013e610140565b606091505b50915091506000821415610155573d60208201fd5b949350505050565b80516001600160a01b038116811461017457600080fd5b919050565b634e487b7160e01b600052604160045260246000fd5b60005b838110156101aa578181015183820152602001610192565b838111156101b9576000848401525b50505050565b600082601f8301126101d057600080fd5b81516001600160401b03808211156101ea576101ea610179565b604051601f8301601f19908116603f0116810190828211818310171561021257610212610179565b8160405283815286602085880101111561022b57600080fd5b61023c84602083016020890161018f565b9695505050505050565b6000806000806000806000806000806101408b8d03121561026657600080fd5b61026f8b61015d565b995061027d60208c0161015d565b985061028b60408c0161015d565b975061029960608c0161015d565b60808c01519097506001600160401b03808211156102b657600080fd5b6102c28e838f016101bf565b975060a08d01519150808211156102d857600080fd5b6102e48e838f016101bf565b96506102f260c08e0161015d565b955060e08d015191508082111561030857600080fd5b506103158d828e016101bf565b9350506101008b015191506101208b015190509295989b9194979a5092959850565b6000815180845261034f81602086016020860161018f565b601f01601f19169290920160200192915050565b6001600160a01b0389811682528881166020830152878116604083015286166060820152610100608082018190526000906103a083820188610337565b905082810360a08401526103b48187610337565b60c0840195909552505060e001529695505050505050565b6001600160a01b038416815282151560208201526060604082018190526000906103f890830184610337565b95945050505050565b6000825161041381846020870161018f565b9190910192915050565b6102938061042c6000396000f3fe6080604052600436106100225760003560e01c80635c60da1b1461015c57610029565b3661002957005b34156100a15760405162461bcd60e51b815260206004820152603760248201527f43457263323044656c656761746f723a66616c6c6261636b3a2063616e6e6f7460448201527f2073656e642076616c756520746f2066616c6c6261636b000000000000000000606482015260840160405180910390fd5b6000546040805160048152602481019091526020810180516001600160e01b031663076de25160e21b1790526100e0916001600160a01b031690610198565b50600080546040516001600160a01b03909116906101019083903690610212565b600060405180830381855af49150503d806000811461013c576040519150601f19603f3d011682016040523d82523d6000602084013e610141565b606091505b505090506040513d6000823e818015610158573d82f35b3d82fd5b34801561016857600080fd5b5060005461017c906001600160a01b031681565b6040516001600160a01b03909116815260200160405180910390f35b6060600080846001600160a01b0316846040516101b59190610222565b600060405180830381855af49150503d80600081146101f0576040519150601f19603f3d011682016040523d82523d6000602084013e6101f5565b606091505b5091509150600082141561020a573d60208201fd5b949350505050565b8183823760009101908152919050565b6000825160005b818110156102435760208186018101518583015201610229565b81811115610252576000828501525b50919091019291505056fea2646970667358221220ba74568d69e49c4e69cb5190e42cdfe8ee38b1ca4864546719c6a22f9081f10f64736f6c634300080a0033",
    "linkReferences": {}
  }
}