{
  "abi": [
    {
      "inputs": [
        {
          "internalType": "address",
          "name": "admin_",
          "type": "address"
        },
        {
          "internalType": "address",
          "name": "rewardToken_",
          "type": "address"
        },
        {
          "internalType": "address",
          "name": "implementation_",
          "type": "address"
        }
      ],
      "stateMutability": "nonpayable",
      "type": "constructor"
    },
    {
      "anonymous": false,
      "inputs": [
        {
          "indexed": false,
          "internalType": "address",
          "name": "oldImplementation",
          "type": "address"
        },
        {
          "indexed": false,
          "internalType": "address",
          "name": "newImplementation",
          "type": "address"
        }
      ],
      "name": "NewImplementation",
      "type": "event"
    },
    {
      "stateMutability": "payable",
      "type": "fallback"
    },
    {
      "inputs": [
        {
          "internalType": "address",
          "name": "implementation_",
          "type": "address"
        }
      ],
      "name": "_setImplementation",
      "outputs": [],
      "stateMutability": "nonpayable",
      "type": "function"
    },
    {
      "inputs": [],
      "name": "admin",
      "outputs": [
        {
          "internalType": "address",
          "name": "",
          "type": "address"
        }
      ],
      "stateMutability": "view",
      "type": "function"
    },
    {
      "inputs": [],
      "name": "implementation",
      "outputs": [
        {
          "internalType": "address",
          "name": "",
          "type": "address"
        }
      ],
      "stateMutability": "view",
      "type": "function"
    },
    {
      "inputs": [],
      "name": "pendingAdmin",
      "outputs": [
        {
          "internalType": "address",
          "name": "",
          "type": "address"
        }
      ],
      "stateMutability": "view",
      "type": "function"
    },
    {
      "stateMutability": "payable",
      "type": "receive"
    }
  ],
  "bytecode": {
    "object": "0x608060405234801561001057600080fd5b506040516106fd3803806106fd83398101604081905261002f916102a7565b600080546001600160a01b031916331790556040516001600160a01b038316602482015261008f90829060440160408051601f198184030181529190526020810180516001600160e01b0390811663189acdbd60e31b179091526100bf16565b61009881610135565b5050600080546001600160a01b0319166001600160a01b0392909216919091179055610325565b600080836001600160a01b0316836040516100da91906102ea565b600060405180830381855af49150503d8060008114610115576040519150601f19603f3d011682016040523d82523d6000602084013e61011a565b606091505b5091509150600082141561012f573d60208201fd5b50505050565b6000546001600160a01b031633146101a85760405162461bcd60e51b815260206004820152603b60248201526000805160206106dd83398151915260448201527f74496d706c656d656e746174696f6e3a2061646d696e206f6e6c79000000000060648201526084015b60405180910390fd5b6001600160a01b03811661022a5760405162461bcd60e51b815260206004820152604f60248201526000805160206106dd83398151915260448201527f74496d706c656d656e746174696f6e3a20696e76616c696420696d706c656d6560648201526e6e746174696f6e206164647265737360881b608482015260a40161019f565b600280546001600160a01b038381166001600160a01b031983168117909355604080519190921680825260208201939093527fd604de94d45953f9138079ec1b82d533cb2160c906d1076d1f7ed54befbca97a910160405180910390a15050565b80516001600160a01b03811681146102a257600080fd5b919050565b6000806000606084860312156102bc57600080fd5b6102c58461028b565b92506102d36020850161028b565b91506102e16040850161028b565b90509250925092565b6000825160005b8181101561030b57602081860181015185830152016102f1565b8181111561031a576000828501525b509190910192915050565b6103a9806103346000396000f3fe6080604052600436106100435760003560e01c806326782247146100a25780635c60da1b146100de578063bb913f41146100fe578063f851a4401461011e57610062565b36610062576100606040518060200160405280600081525061013e565b005b6100606000368080601f01602080910402602001604051908101604052809392919081815260200183838082843760009201919091525061013e92505050565b3480156100ae57600080fd5b506001546100c2906001600160a01b031681565b6040516001600160a01b03909116815260200160405180910390f35b3480156100ea57600080fd5b506002546100c2906001600160a01b031681565b34801561010a57600080fd5b50610060610119366004610331565b6101b7565b34801561012a57600080fd5b506000546100c2906001600160a01b031681565b6002546040516000916001600160a01b03169061015c908490610361565b600060405180830381855af49150503d8060008114610197576040519150601f19603f3d011682016040523d82523d6000602084013e61019c565b606091505b505090506040513d6000823e8180156101b3573d82f35b3d82fd5b6000546001600160a01b0316331461023c5760405162461bcd60e51b815260206004820152603b60248201527f526577617264734469737472696275746f7244656c656761746f723a3a5f736560448201527f74496d706c656d656e746174696f6e3a2061646d696e206f6e6c79000000000060648201526084015b60405180910390fd5b6001600160a01b0381166102d05760405162461bcd60e51b815260206004820152604f60248201527f526577617264734469737472696275746f7244656c656761746f723a3a5f736560448201527f74496d706c656d656e746174696f6e3a20696e76616c696420696d706c656d6560648201526e6e746174696f6e206164647265737360881b608482015260a401610233565b600280546001600160a01b038381166001600160a01b031983168117909355604080519190921680825260208201939093527fd604de94d45953f9138079ec1b82d533cb2160c906d1076d1f7ed54befbca97a910160405180910390a15050565b60006020828403121561034357600080fd5b81356001600160a01b038116811461035a57600080fd5b9392505050565b6000825160005b818110156103825760208186018101518583015201610368565b81811115610391576000828501525b50919091019291505056fea164736f6c634300080a000a526577617264734469737472696275746f7244656c656761746f723a3a5f7365",
    "linkReferences": {}
  },
  "methodIdentifiers": {
    "_setImplementation(address)": "bb913f41",
    "admin()": "f851a440",
    "implementation()": "5c60da1b",
    "pendingAdmin()": "26782247"
  },
  "id": 41
}