{
  "abi": [
    {
      "inputs": [
        {
          "internalType": "uint256",
          "name": "_blocksPerYear",
          "type": "uint256"
        },
        {
          "internalType": "uint256",
          "name": "jumpMultiplierPerYear",
          "type": "uint256"
        },
        {
          "internalType": "uint256",
          "name": "kink_",
          "type": "uint256"
        },
        {
          "internalType": "address",
          "name": "pot_",
          "type": "address"
        },
        {
          "internalType": "address",
          "name": "jug_",
          "type": "address"
        }
      ],
      "stateMutability": "nonpayable",
      "type": "constructor"
    },
    {
      "anonymous": false,
      "inputs": [
        {
          "indexed": false,
          "internalType": "uint256",
          "name": "baseRatePerBlock",
          "type": "uint256"
        },
        {
          "indexed": false,
          "internalType": "uint256",
          "name": "multiplierPerBlock",
          "type": "uint256"
        },
        {
          "indexed": false,
          "internalType": "uint256",
          "name": "jumpMultiplierPerBlock",
          "type": "uint256"
        },
        {
          "indexed": false,
          "internalType": "uint256",
          "name": "kink",
          "type": "uint256"
        }
      ],
      "name": "NewInterestParams",
      "type": "event"
    },
    {
      "inputs": [],
      "name": "assumedOneMinusReserveFactorMantissa",
      "outputs": [
        {
          "internalType": "uint256",
          "name": "",
          "type": "uint256"
        }
      ],
      "stateMutability": "view",
      "type": "function"
    },
    {
      "inputs": [],
      "name": "baseRatePerBlock",
      "outputs": [
        {
          "internalType": "uint256",
          "name": "",
          "type": "uint256"
        }
      ],
      "stateMutability": "view",
      "type": "function"
    },
    {
      "inputs": [],
      "name": "blocksPerYear",
      "outputs": [
        {
          "internalType": "uint256",
          "name": "",
          "type": "uint256"
        }
      ],
      "stateMutability": "view",
      "type": "function"
    },
    {
      "inputs": [],
      "name": "dsrPerBlock",
      "outputs": [
        {
          "internalType": "uint256",
          "name": "",
          "type": "uint256"
        }
      ],
      "stateMutability": "view",
      "type": "function"
    },
    {
      "inputs": [],
      "name": "gapPerBlock",
      "outputs": [
        {
          "internalType": "uint256",
          "name": "",
          "type": "uint256"
        }
      ],
      "stateMutability": "view",
      "type": "function"
    },
    {
      "inputs": [
        {
          "internalType": "uint256",
          "name": "cash",
          "type": "uint256"
        },
        {
          "internalType": "uint256",
          "name": "borrows",
          "type": "uint256"
        },
        {
          "internalType": "uint256",
          "name": "reserves",
          "type": "uint256"
        }
      ],
      "name": "getBorrowRate",
      "outputs": [
        {
          "internalType": "uint256",
          "name": "",
          "type": "uint256"
        }
      ],
      "stateMutability": "view",
      "type": "function"
    },
    {
      "inputs": [
        {
          "internalType": "uint256",
          "name": "cash",
          "type": "uint256"
        },
        {
          "internalType": "uint256",
          "name": "borrows",
          "type": "uint256"
        },
        {
          "internalType": "uint256",
          "name": "reserves",
          "type": "uint256"
        },
        {
          "internalType": "uint256",
          "name": "reserveFactorMantissa",
          "type": "uint256"
        }
      ],
      "name": "getSupplyRate",
      "outputs": [
        {
          "internalType": "uint256",
          "name": "",
          "type": "uint256"
        }
      ],
      "stateMutability": "view",
      "type": "function"
    },
    {
      "inputs": [],
      "name": "isInterestRateModel",
      "outputs": [
        {
          "internalType": "bool",
          "name": "",
          "type": "bool"
        }
      ],
      "stateMutability": "view",
      "type": "function"
    },
    {
      "inputs": [],
      "name": "jumpMultiplierPerBlock",
      "outputs": [
        {
          "internalType": "uint256",
          "name": "",
          "type": "uint256"
        }
      ],
      "stateMutability": "view",
      "type": "function"
    },
    {
      "inputs": [],
      "name": "kink",
      "outputs": [
        {
          "internalType": "uint256",
          "name": "",
          "type": "uint256"
        }
      ],
      "stateMutability": "view",
      "type": "function"
    },
    {
      "inputs": [],
      "name": "multiplierPerBlock",
      "outputs": [
        {
          "internalType": "uint256",
          "name": "",
          "type": "uint256"
        }
      ],
      "stateMutability": "view",
      "type": "function"
    },
    {
      "inputs": [],
      "name": "poke",
      "outputs": [],
      "stateMutability": "nonpayable",
      "type": "function"
    },
    {
      "inputs": [
        {
          "internalType": "uint256",
          "name": "cash",
          "type": "uint256"
        },
        {
          "internalType": "uint256",
          "name": "borrows",
          "type": "uint256"
        },
        {
          "internalType": "uint256",
          "name": "reserves",
          "type": "uint256"
        }
      ],
      "name": "utilizationRate",
      "outputs": [
        {
          "internalType": "uint256",
          "name": "",
          "type": "uint256"
        }
      ],
      "stateMutability": "pure",
      "type": "function"
    }
  ],
  "bytecode": {
    "object": "0x60806040526000546200001a9066470de4df8200006200069f565b6005553480156200002a57600080fd5b506040516200118e3803806200118e8339810160408190526200004d91620006df565b600085815585908086866200006f83866200015b602090811b620005a617901c565b60028190555062000091600054846200015b60201b620005a61790919060201c565b600181905550620000b3600054836200015b60201b620005a61790919060201c565b60038190556004829055600254600154604080519283526020830191909152810191909152606081018290527f6960ab234c7ef4b0c9197100f5393cfcde7c453ac910a27bd2000aa1dd4c068d9060800160405180910390a150505060008790555050600680546001600160a01b038085166001600160a01b031992831617909255600780549284169290911691909117905562000150620001ae565b505050505062000822565b6000620001a583836040518060400160405280601a81526020017f536166654d6174683a206469766973696f6e206279207a65726f0000000000008152506200043960201b60201c565b90505b92915050565b600754604051636cb1c69b60e11b8152644554482d4160d81b60048201526000916001600160a01b03169063d9638d36906024016040805180830381865afa158015620001ff573d6000803e3d6000fd5b505050506040513d601f19601f8201168201806040525081019062000225919062000734565b50905060006200032e600f620003066b033b2e3c9fd0803ce80000006200031a670de0b6b3a7640000620003066b033b2e3c9fd0803ce8000000620002f2600760009054906101000a90046001600160a01b03166001600160a01b0316635001f3b56040518163ffffffff1660e01b8152600401602060405180830381865afa158015620002b7573d6000803e3d6000fd5b505050506040513d601f19601f82011682018060405250810190620002dd919062000759565b8b6200047e60201b620005f11790919060201c565b620004e160201b620006551790919060201c565b6200052b60201b620006971790919060201c565b6200015b60201b620005a61790919060201c565b905062000354670d2f13f7789f00006200031a670de0b6b3a764000062000306620005b2565b6002819055811115620003b557620003ac6004546200031a670de0b6b3a7640000620003066005546200039860025488620004e160201b620006551790919060201c565b6200047e60201b620005f11790919060201c565b600155620003e4565b620003e06004546200031a670de0b6b3a76400006005546200052b60201b620006971790919060201c565b6001555b6002546001546003546004546040805194855260208501939093529183015260608201527f6960ab234c7ef4b0c9197100f5393cfcde7c453ac910a27bd2000aa1dd4c068d9060800160405180910390a15050565b60008183620004665760405162461bcd60e51b81526004016200045d919062000773565b60405180910390fd5b5060006200047584866200069f565b95945050505050565b6000806200048d8385620007cb565b905083811015620001a55760405162461bcd60e51b815260206004820152601b60248201527f536166654d6174683a206164646974696f6e206f766572666c6f77000000000060448201526064016200045d565b6000620001a583836040518060400160405280601f81526020017f536166654d6174683a207375627472616374696f6e20756e646572666c6f77008152506200065360201b60201c565b6000826200053c57506000620001a8565b60006200054a8385620007e6565b9050826200055985836200069f565b14620001a55760405162461bcd60e51b815260206004820152602160248201527f536166654d6174683a206d756c7469706c69636174696f6e206f766572666c6f6044820152607760f81b60648201526084016200045d565b60006200064e600f62000306633b9aca006200031a6b033b2e3c9fd0803ce8000000600660009054906101000a90046001600160a01b03166001600160a01b031663487bf0826040518163ffffffff1660e01b8152600401602060405180830381865afa15801562000628573d6000803e3d6000fd5b505050506040513d601f19601f82011682018060405250810190620002f2919062000759565b905090565b600081848411156200067a5760405162461bcd60e51b81526004016200045d919062000773565b50600062000475848662000808565b634e487b7160e01b600052601160045260246000fd5b600082620006bd57634e487b7160e01b600052601260045260246000fd5b500490565b80516001600160a01b0381168114620006da57600080fd5b919050565b600080600080600060a08688031215620006f857600080fd5b8551945060208601519350604086015192506200071860608701620006c2565b91506200072860808701620006c2565b90509295509295909350565b600080604083850312156200074857600080fd5b505080516020909101519092909150565b6000602082840312156200076c57600080fd5b5051919050565b600060208083528351808285015260005b81811015620007a25785810183015185820160400152820162000784565b81811115620007b5576000604083870101525b50601f01601f1916929092016040019392505050565b60008219821115620007e157620007e162000689565b500190565b600081600019048311821515161562000803576200080362000689565b500290565b6000828210156200081d576200081d62000689565b500390565b61095c80620008326000396000f3fe608060405234801561001057600080fd5b50600436106100cf5760003560e01c806396456c5c1161008c578063b9f9850a11610066578063b9f9850a1461016b578063f14039de14610174578063f52d21f31461017d578063fd2da3391461018657600080fd5b806396456c5c14610147578063a385fb961461014f578063b81688161461015857600080fd5b806315f24053146100d457806318178358146100fa5780632191f92a146101045780636dac7cd51461011c5780636e71e2d81461012b5780638726bb891461013e575b600080fd5b6100e76100e23660046107d9565b61018f565b6040519081526020015b60405180910390f35b61010261025b565b005b61010c600181565b60405190151581526020016100f1565b6100e7670d2f13f7789f000081565b6100e76101393660046107d9565b610471565b6100e760015481565b6100e76104ab565b6100e760005481565b6100e7610166366004610805565b610546565b6100e760035481565b6100e760025481565b6100e760055481565b6100e760045481565b60008061019d858585610471565b905060045481116101e3576101db6002546101d5670de0b6b3a76400006101cf6001548661069790919063ffffffff16565b906105a6565b906105f1565b915050610254565b600061020e6002546101d5670de0b6b3a76400006101cf60015460045461069790919063ffffffff16565b905060006102276004548461065590919063ffffffff16565b905061024e826101d5670de0b6b3a76400006101cf6003548661069790919063ffffffff16565b93505050505b9392505050565b600754604051636cb1c69b60e11b8152644554482d4160d81b60048201526000916001600160a01b03169063d9638d36906024016040805180830381865afa1580156102ab573d6000803e3d6000fd5b505050506040513d601f19601f820116820180604052508101906102cf9190610837565b5090506000610392600f61038c6b033b2e3c9fd0803ce80000006101cf670de0b6b3a764000061038c6b033b2e3c9fd0803ce8000000610386600760009054906101000a90046001600160a01b03166001600160a01b0316635001f3b56040518163ffffffff1660e01b8152600401602060405180830381865afa15801561035b573d6000803e3d6000fd5b505050506040513d601f19601f8201168201806040525081019061037f919061085b565b8b906105f1565b90610655565b90610697565b90506103b4670d2f13f7789f00006101cf670de0b6b3a764000061038c6104ab565b60028190558111156103f5576103ed6004546101cf670de0b6b3a764000061038c6005546101d56002548861065590919063ffffffff16565b60015561041c565b6104186004546101cf670de0b6b3a764000060055461069790919063ffffffff16565b6001555b6002546001546003546004546040805194855260208501939093529183015260608201527f6960ab234c7ef4b0c9197100f5393cfcde7c453ac910a27bd2000aa1dd4c068d9060800160405180910390a15050565b60008261048057506000610254565b6104a36104918361038687876105f1565b6101cf85670de0b6b3a7640000610697565b949350505050565b6000610541600f61038c633b9aca006101cf6b033b2e3c9fd0803ce8000000600660009054906101000a90046001600160a01b03166001600160a01b031663487bf0826040518163ffffffff1660e01b8152600401602060405180830381865afa15801561051d573d6000803e3d6000fd5b505050506040513d601f19601f82011682018060405250810190610386919061085b565b905090565b60008061055586868686610716565b905060006105678561038689896105f1565b905080610576575090506104a3565b600061058e826101cf6105876104ab565b8b90610697565b905061059a81846105f1565b98975050505050505050565b60006105e883836040518060400160405280601a81526020017f536166654d6174683a206469766973696f6e206279207a65726f000000000000815250610771565b90505b92915050565b6000806105fe838561088a565b9050838110156105e85760405162461bcd60e51b815260206004820152601b60248201527f536166654d6174683a206164646974696f6e206f766572666c6f77000000000060448201526064015b60405180910390fd5b60006105e883836040518060400160405280601f81526020017f536166654d6174683a207375627472616374696f6e20756e646572666c6f77008152506107a8565b6000826106a6575060006105eb565b60006106b283856108a2565b9050826106bf85836108c1565b146105e85760405162461bcd60e51b815260206004820152602160248201527f536166654d6174683a206d756c7469706c69636174696f6e206f766572666c6f6044820152607760f81b606482015260840161064c565b60008061072b670de0b6b3a764000084610655565b9050600061073a87878761018f565b90506000610754670de0b6b3a76400006101cf8486610697565b905061059a670de0b6b3a76400006101cf8361038c8c8c8c610471565b600081836107925760405162461bcd60e51b815260040161064c91906108e3565b50600061079f84866108c1565b95945050505050565b600081848411156107cc5760405162461bcd60e51b815260040161064c91906108e3565b50600061079f8486610938565b6000806000606084860312156107ee57600080fd5b505081359360208301359350604090920135919050565b6000806000806080858703121561081b57600080fd5b5050823594602084013594506040840135936060013592509050565b6000806040838503121561084a57600080fd5b505080516020909101519092909150565b60006020828403121561086d57600080fd5b5051919050565b634e487b7160e01b600052601160045260246000fd5b6000821982111561089d5761089d610874565b500190565b60008160001904831182151516156108bc576108bc610874565b500290565b6000826108de57634e487b7160e01b600052601260045260246000fd5b500490565b600060208083528351808285015260005b81811015610910578581018301518582016040015282016108f4565b81811115610922576000604083870101525b50601f01601f1916929092016040019392505050565b60008282101561094a5761094a610874565b50039056fea164736f6c634300080a000a",
    "linkReferences": {}
  },
  "methodIdentifiers": {
    "assumedOneMinusReserveFactorMantissa()": "6dac7cd5",
    "baseRatePerBlock()": "f14039de",
    "blocksPerYear()": "a385fb96",
    "dsrPerBlock()": "96456c5c",
    "gapPerBlock()": "f52d21f3",
    "getBorrowRate(uint256,uint256,uint256)": "15f24053",
    "getSupplyRate(uint256,uint256,uint256,uint256)": "b8168816",
    "isInterestRateModel()": "2191f92a",
    "jumpMultiplierPerBlock()": "b9f9850a",
    "kink()": "fd2da339",
    "multiplierPerBlock()": "8726bb89",
    "poke()": "18178358",
    "utilizationRate(uint256,uint256,uint256)": "6e71e2d8"
  },
  "id": 23
}