{
  "abi": [
    {
      "anonymous": false,
      "inputs": [
        {
          "indexed": false,
          "internalType": "uint8",
          "name": "version",
          "type": "uint8"
        }
      ],
      "name": "Initialized",
      "type": "event"
    },
    {
      "anonymous": false,
      "inputs": [
        {
          "indexed": false,
          "internalType": "address",
          "name": "oldAdmin",
          "type": "address"
        },
        {
          "indexed": false,
          "internalType": "address",
          "name": "newAdmin",
          "type": "address"
        }
      ],
      "name": "NewAdmin",
      "type": "event"
    },
    {
      "anonymous": false,
      "inputs": [
        {
          "indexed": false,
          "internalType": "address",
          "name": "oldOracle",
          "type": "address"
        },
        {
          "indexed": false,
          "internalType": "address",
          "name": "newOracle",
          "type": "address"
        }
      ],
      "name": "NewDefaultOracle",
      "type": "event"
    },
    {
      "anonymous": false,
      "inputs": [
        {
          "indexed": false,
          "internalType": "address",
          "name": "underlying",
          "type": "address"
        },
        {
          "indexed": false,
          "internalType": "address",
          "name": "oldOracle",
          "type": "address"
        },
        {
          "indexed": false,
          "internalType": "address",
          "name": "newOracle",
          "type": "address"
        }
      ],
      "name": "NewOracle",
      "type": "event"
    },
    {
      "inputs": [
        {
          "internalType": "address[]",
          "name": "underlyings",
          "type": "address[]"
        },
        {
          "internalType": "contract IPriceOracle[]",
          "name": "_oracles",
          "type": "address[]"
        }
      ],
      "name": "add",
      "outputs": [],
      "stateMutability": "nonpayable",
      "type": "function"
    },
    {
      "inputs": [],
      "name": "admin",
      "outputs": [
        {
          "internalType": "address",
          "name": "",
          "type": "address"
        }
      ],
      "stateMutability": "view",
      "type": "function"
    },
    {
      "inputs": [],
      "name": "canAdminOverwrite",
      "outputs": [
        {
          "internalType": "bool",
          "name": "",
          "type": "bool"
        }
      ],
      "stateMutability": "view",
      "type": "function"
    },
    {
      "inputs": [
        {
          "internalType": "address",
          "name": "newAdmin",
          "type": "address"
        }
      ],
      "name": "changeAdmin",
      "outputs": [],
      "stateMutability": "nonpayable",
      "type": "function"
    },
    {
      "inputs": [],
      "name": "defaultOracle",
      "outputs": [
        {
          "internalType": "contract IPriceOracle",
          "name": "",
          "type": "address"
        }
      ],
      "stateMutability": "view",
      "type": "function"
    },
    {
      "inputs": [
        {
          "internalType": "contract ICToken",
          "name": "cToken",
          "type": "address"
        }
      ],
      "name": "getUnderlyingPrice",
      "outputs": [
        {
          "internalType": "uint256",
          "name": "",
          "type": "uint256"
        }
      ],
      "stateMutability": "view",
      "type": "function"
    },
    {
      "inputs": [
        {
          "internalType": "address[]",
          "name": "underlyings",
          "type": "address[]"
        },
        {
          "internalType": "contract IPriceOracle[]",
          "name": "_oracles",
          "type": "address[]"
        },
        {
          "internalType": "contract IPriceOracle",
          "name": "_defaultOracle",
          "type": "address"
        },
        {
          "internalType": "address",
          "name": "_admin",
          "type": "address"
        },
        {
          "internalType": "bool",
          "name": "_canAdminOverwrite",
          "type": "bool"
        },
        {
          "internalType": "address",
          "name": "_wtoken",
          "type": "address"
        }
      ],
      "name": "initialize",
      "outputs": [],
      "stateMutability": "nonpayable",
      "type": "function"
    },
    {
      "inputs": [
        {
          "internalType": "address",
          "name": "",
          "type": "address"
        }
      ],
      "name": "oracles",
      "outputs": [
        {
          "internalType": "contract IPriceOracle",
          "name": "",
          "type": "address"
        }
      ],
      "stateMutability": "view",
      "type": "function"
    },
    {
      "inputs": [
        {
          "internalType": "address",
          "name": "underlying",
          "type": "address"
        }
      ],
      "name": "price",
      "outputs": [
        {
          "internalType": "uint256",
          "name": "",
          "type": "uint256"
        }
      ],
      "stateMutability": "view",
      "type": "function"
    },
    {
      "inputs": [
        {
          "internalType": "contract IPriceOracle",
          "name": "newOracle",
          "type": "address"
        }
      ],
      "name": "setDefaultOracle",
      "outputs": [],
      "stateMutability": "nonpayable",
      "type": "function"
    },
    {
      "inputs": [],
      "name": "wtoken",
      "outputs": [
        {
          "internalType": "address",
          "name": "",
          "type": "address"
        }
      ],
      "stateMutability": "view",
      "type": "function"
    }
  ],
  "bytecode": {
    "object": "0x608060405234801561001057600080fd5b50610e9f806100206000396000f3fe608060405234801561001057600080fd5b50600436106100a95760003560e01c80639c9192c6116100715780639c9192c614610137578063addd50991461014a578063aea9107814610173578063c44014d214610194578063f851a440146101a7578063fc57d4df146101ba57600080fd5b8063656b0fd1146100ae57806380dce169146100d1578063882b92a7146100fc5780638f283970146101115780639c0591c814610124575b600080fd5b600354600160a01b900460ff161560405190151581526020015b60405180910390f35b6002546100e4906001600160a01b031681565b6040516001600160a01b0390911681526020016100c8565b61010f61010a366004610b97565b6101cd565b005b61010f61011f366004610c9a565b6103bc565b6004546100e4906001600160a01b031681565b61010f610145366004610d03565b610448565b6100e4610158366004610c9a565b6001602052600090815260409020546001600160a01b031681565b610186610181366004610c9a565b6106a3565b6040519081526020016100c8565b61010f6101a2366004610c9a565b61080f565b6003546100e4906001600160a01b031681565b6101866101c8366004610c9a565b610893565b60006101d960016109f8565b905080156101f1576000805461ff0019166101001790555b85518751146102555760405162461bcd60e51b815260206004820152602560248201527f4c656e67746873206f6620626f746820617272617973206d757374206265206560448201526438bab0b61760d91b60648201526084015b60405180910390fd5b60005b875181101561031d57600088828151811061027557610275610d6f565b60200260200101519050600088838151811061029357610293610d6f565b6020908102919091018101516001600160a01b03848116600081815260018552604080822080546001600160a01b03191694861694851790558051928352948201529283015291507f10e7c87bebf274db4de1b5f9fc731d6f83096e550bd871b681314578404d31269060600160405180910390a15050808061031590610d85565b915050610258565b50600280546001600160a01b038088166001600160a01b03199283161790925560038054600160a01b8715026001600160a81b031990911688851617179055600480549285169290911691909117905580156103b3576000805461ff0019169055604051600181527f7f26b83ff96e1f2b6a682f133852f6798a09c465da95921460cefb38474024989060200160405180910390a15b50505050505050565b6003546001600160a01b031633146103e65760405162461bcd60e51b815260040161024c90610dae565b600380546001600160a01b038381166001600160a01b031983168117909355604080519190921680825260208201939093527ff9ffabca9c8276e99321725bcb43fb076a6c66a54b7f21c4e8146d8519b417dc91015b60405180910390a15050565b6003546001600160a01b031633146104725760405162461bcd60e51b815260040161024c90610dae565b821580159061048057508281145b6104f25760405162461bcd60e51b815260206004820152603860248201527f4c656e67746873206f6620626f746820617272617973206d757374206265206560448201527f7175616c20616e642067726561746572207468616e20302e0000000000000000606482015260840161024c565b60005b8381101561069c57600085858381811061051157610511610d6f565b90506020020160208101906105269190610c9a565b6001600160a01b038181166000908152600160205260409020546003549293501690600160a01b900460ff16156105e9576001600160a01b038116156105e95760405162461bcd60e51b815260206004820152604c60248201527f41646d696e2063616e6e6f74206f7665727772697465206578697374696e672060448201527f61737369676e6d656e7473206f66206f7261636c657320746f20756e6465726c60648201526b3cb4b733903a37b5b2b7399760a11b608482015260a40161024c565b60008585858181106105fd576105fd610d6f565b90506020020160208101906106129190610c9a565b6001600160a01b0384811660008181526001602090815260409182902080546001600160a01b0319168686169081179091558251938452938716908301528101919091529091507f10e7c87bebf274db4de1b5f9fc731d6f83096e550bd871b681314578404d31269060600160405180910390a1505050808061069490610d85565b9150506104f5565b5050505050565b6004546000906001600160a01b03838116911614156106cb5750670de0b6b3a7640000919050565b6001600160a01b0380831660009081526001602052604090205416801561075e576040516315d5220f60e31b81526001600160a01b03848116600483015282169063aea91078906024015b602060405180830381865afa158015610733573d6000803e3d6000fd5b505050506040513d601f19601f820116820180604052508101906107579190610de5565b9392505050565b6002546001600160a01b0316156107a1576002546040516315d5220f60e31b81526001600160a01b0385811660048301529091169063aea9107890602401610716565b60405162461bcd60e51b815260206004820152603960248201527f5072696365206f7261636c65206e6f7420666f756e6420666f7220746869732060448201527f756e6465726c79696e6720746f6b656e20616464726573732e00000000000000606482015260840161024c565b6003546001600160a01b031633146108395760405162461bcd60e51b815260040161024c90610dae565b600280546001600160a01b038381166001600160a01b031983168117909355604080519190921680825260208201939093527f0df2d61fdd201e9633368dca495e2c469e36c48039263448dd8a2a954c19ef1a910161043c565b600080826001600160a01b0316636f307dc36040518163ffffffff1660e01b8152600401602060405180830381865afa1580156108d4573d6000803e3d6000fd5b505050506040513d601f19601f820116820180604052508101906108f89190610dfe565b6004549091506001600160a01b03808316911614156109215750670de0b6b3a764000092915050565b6001600160a01b038082166000908152600160205260409020541680156109b55760405163fc57d4df60e01b81526001600160a01b03858116600483015282169063fc57d4df906024015b602060405180830381865afa158015610989573d6000803e3d6000fd5b505050506040513d601f19601f820116820180604052508101906109ad9190610de5565b949350505050565b6002546001600160a01b0316156107a15760025460405163fc57d4df60e01b81526001600160a01b0386811660048301529091169063fc57d4df9060240161096c565b60008054610100900460ff1615610a3f578160ff166001148015610a1b5750303b155b610a375760405162461bcd60e51b815260040161024c90610e1b565b506000919050565b60005460ff808416911610610a665760405162461bcd60e51b815260040161024c90610e1b565b506000805460ff191660ff92909216919091179055600190565b919050565b634e487b7160e01b600052604160045260246000fd5b604051601f8201601f1916810167ffffffffffffffff81118282101715610ac457610ac4610a85565b604052919050565b600067ffffffffffffffff821115610ae657610ae6610a85565b5060051b60200190565b6001600160a01b0381168114610b0557600080fd5b50565b8035610a8081610af0565b600082601f830112610b2457600080fd5b81356020610b39610b3483610acc565b610a9b565b82815260059290921b84018101918181019086841115610b5857600080fd5b8286015b84811015610b7c578035610b6f81610af0565b8352918301918301610b5c565b509695505050505050565b80358015158114610a8057600080fd5b60008060008060008060c08789031215610bb057600080fd5b863567ffffffffffffffff80821115610bc857600080fd5b818901915089601f830112610bdc57600080fd5b81356020610bec610b3483610acc565b82815260059290921b8401810191818101908d841115610c0b57600080fd5b948201945b83861015610c32578535610c2381610af0565b82529482019490820190610c10565b9a50508a013592505080821115610c4857600080fd5b50610c5589828a01610b13565b955050610c6460408801610b08565b9350610c7260608801610b08565b9250610c8060808801610b87565b9150610c8e60a08801610b08565b90509295509295509295565b600060208284031215610cac57600080fd5b813561075781610af0565b60008083601f840112610cc957600080fd5b50813567ffffffffffffffff811115610ce157600080fd5b6020830191508360208260051b8501011115610cfc57600080fd5b9250929050565b60008060008060408587031215610d1957600080fd5b843567ffffffffffffffff80821115610d3157600080fd5b610d3d88838901610cb7565b90965094506020870135915080821115610d5657600080fd5b50610d6387828801610cb7565b95989497509550505050565b634e487b7160e01b600052603260045260246000fd5b6000600019821415610da757634e487b7160e01b600052601160045260246000fd5b5060010190565b60208082526018908201527f53656e646572206973206e6f74207468652061646d696e2e0000000000000000604082015260600190565b600060208284031215610df757600080fd5b5051919050565b600060208284031215610e1057600080fd5b815161075781610af0565b6020808252602e908201527f496e697469616c697a61626c653a20636f6e747261637420697320616c72656160408201526d191e481a5b9a5d1a585b1a5e995960921b60608201526080019056fea26469706673582212203c1b89daf840685433c04425c8ab4d1eb2eec7a837f673d9caf1d0d3c14aeeec64736f6c634300080a0033",
    "linkReferences": {}
  }
}