{
  "abi": [
    {
      "inputs": [],
      "name": "IMBTC",
      "outputs": [
        {
          "internalType": "contract ISavingsContractV2",
          "name": "",
          "type": "address"
        }
      ],
      "stateMutability": "view",
      "type": "function"
    },
    {
      "inputs": [],
      "name": "IMUSD",
      "outputs": [
        {
          "internalType": "contract ISavingsContractV2",
          "name": "",
          "type": "address"
        }
      ],
      "stateMutability": "view",
      "type": "function"
    },
    {
      "inputs": [],
      "name": "MBTC",
      "outputs": [
        {
          "internalType": "contract IMasset",
          "name": "",
          "type": "address"
        }
      ],
      "stateMutability": "view",
      "type": "function"
    },
    {
      "inputs": [],
      "name": "MUSD",
      "outputs": [
        {
          "internalType": "contract IMasset",
          "name": "",
          "type": "address"
        }
      ],
      "stateMutability": "view",
      "type": "function"
    },
    {
      "inputs": [
        {
          "internalType": "contract ICToken",
          "name": "cToken",
          "type": "address"
        }
      ],
      "name": "getUnderlyingPrice",
      "outputs": [
        {
          "internalType": "uint256",
          "name": "",
          "type": "uint256"
        }
      ],
      "stateMutability": "view",
      "type": "function"
    },
    {
      "inputs": [
        {
          "internalType": "address",
          "name": "underlying",
          "type": "address"
        }
      ],
      "name": "price",
      "outputs": [
        {
          "internalType": "uint256",
          "name": "",
          "type": "uint256"
        }
      ],
      "stateMutability": "view",
      "type": "function"
    }
  ],
  "bytecode": {
    "object": "0x608060405234801561001057600080fd5b50610b66806100206000396000f3fe608060405234801561001057600080fd5b50600436106100625760003560e01c806343a82621146100675780635685c3871461009f578063aea91078146100ba578063cb5690e5146100db578063f35d2ab6146100f6578063fc57d4df14610111575b600080fd5b61008273e2f2a5c287993345a840db3b0845fbc70f5935a581565b6040516001600160a01b0390911681526020015b60405180910390f35b6100827317d8cbb6bce8cee970a4027d1198f6700a7a6c2481565b6100cd6100c83660046106c3565b610124565b604051908152602001610096565b61008273945facb997494cc2570096c74b5f66a3507330a181565b6100827330647a72dc82d7fbb1123ea74716ab8a317eac1981565b6100cd61011f3660046106c3565b610135565b600061012f82610238565b92915050565b600080826001600160a01b0316636f307dc36040518163ffffffff1660e01b8152600401602060405180830381865afa158015610176573d6000803e3d6000fd5b505050506040513d601f19601f8201168201806040525081019061019a91906106e0565b9050806001600160a01b031663313ce5676040518163ffffffff1660e01b8152600401602060405180830381865afa1580156101da573d6000803e3d6000fd5b505050506040513d601f19601f820116820180604052508101906101fe91906106fd565b61020c9060ff16600a61081a565b61021582610238565b61022790670de0b6b3a7640000610826565b6102319190610845565b9392505050565b60006001600160a01b03821673e2f2a5c287993345a840db3b0845fbc70f5935a5141561027c5761012f73e2f2a5c287993345a840db3b0845fbc70f5935a5610495565b6001600160a01b0382167330647a72dc82d7fbb1123ea74716ab8a317eac19141561035157670de0b6b3a76400006102c773e2f2a5c287993345a840db3b0845fbc70f5935a5610495565b7330647a72dc82d7fbb1123ea74716ab8a317eac196001600160a01b0316633ba0b9a96040518163ffffffff1660e01b8152600401602060405180830381865afa158015610319573d6000803e3d6000fd5b505050506040513d601f19601f8201168201806040525081019061033d9190610867565b6103479190610826565b61012f9190610845565b6001600160a01b03821673945facb997494cc2570096c74b5f66a3507330a114156103935761012f73945facb997494cc2570096c74b5f66a3507330a1610495565b6001600160a01b0382167317d8cbb6bce8cee970a4027d1198f6700a7a6c24141561043057670de0b6b3a76400006103de73945facb997494cc2570096c74b5f66a3507330a1610495565b7317d8cbb6bce8cee970a4027d1198f6700a7a6c246001600160a01b0316633ba0b9a96040518163ffffffff1660e01b8152600401602060405180830381865afa158015610319573d6000803e3d6000fd5b60405162461bcd60e51b815260206004820152602b60248201527f496e76616c696420746f6b656e2070617373656420746f204d537461626c655060448201526a3934b1b2a7b930b1b6329760a91b606482015260840160405180910390fd5b919050565b6000806000836001600160a01b0316631d3ce3986040518163ffffffff1660e01b8152600401600060405180830381865afa1580156104d8573d6000803e3d6000fd5b505050506040513d6000823e601f3d908101601f1916820160405261050091908101906109eb565b915091506000805b825181101561063557336001600160a01b031663aea9107885838151811061053257610532610b10565b6020908102919091010151516040516001600160e01b031960e084901b1681526001600160a01b039091166004820152602401602060405180830381865afa158015610582573d6000803e3d6000fd5b505050506040513d601f19601f820116820180604052508101906105a69190610867565b6305f5e1008483815181106105bd576105bd610b10565b6020026020010151600001516001600160801b03168584815181106105e4576105e4610b10565b6020026020010151602001516001600160801b03166106039190610826565b61060d9190610845565b6106179190610826565b6106219083610b26565b91508061062d81610b3e565b915050610508565b50846001600160a01b03166318160ddd6040518163ffffffff1660e01b8152600401602060405180830381865afa158015610674573d6000803e3d6000fd5b505050506040513d601f19601f820116820180604052508101906106989190610867565b6106a29082610845565b95945050505050565b6001600160a01b03811681146106c057600080fd5b50565b6000602082840312156106d557600080fd5b8135610231816106ab565b6000602082840312156106f257600080fd5b8151610231816106ab565b60006020828403121561070f57600080fd5b815160ff8116811461023157600080fd5b634e487b7160e01b600052601160045260246000fd5b600181815b8085111561077157816000190482111561075757610757610720565b8085161561076457918102915b93841c939080029061073b565b509250929050565b6000826107885750600161012f565b816107955750600061012f565b81600181146107ab57600281146107b5576107d1565b600191505061012f565b60ff8411156107c6576107c6610720565b50506001821b61012f565b5060208310610133831016604e8410600b84101617156107f4575081810a61012f565b6107fe8383610736565b806000190482111561081257610812610720565b029392505050565b60006102318383610779565b600081600019048311821515161561084057610840610720565b500290565b60008261086257634e487b7160e01b600052601260045260246000fd5b500490565b60006020828403121561087957600080fd5b5051919050565b634e487b7160e01b600052604160045260246000fd5b6040805190810167ffffffffffffffff811182821017156108b9576108b9610880565b60405290565b6040516080810167ffffffffffffffff811182821017156108b9576108b9610880565b604051601f8201601f1916810167ffffffffffffffff8111828210171561090b5761090b610880565b604052919050565b600067ffffffffffffffff82111561092d5761092d610880565b5060051b60200190565b80516001600160801b038116811461049057600080fd5b600082601f83011261095f57600080fd5b8151602061097461096f83610913565b6108e2565b82815260069290921b8401810191818101908684111561099357600080fd5b8286015b848110156109e057604081890312156109b05760008081fd5b6109b8610896565b6109c182610937565b81526109ce858301610937565b81860152835291830191604001610997565b509695505050505050565b60008060408084860312156109ff57600080fd5b835167ffffffffffffffff80821115610a1757600080fd5b818601915086601f830112610a2b57600080fd5b81516020610a3b61096f83610913565b82815260079290921b8401810191818101908a841115610a5a57600080fd5b948201945b83861015610adf576080868c031215610a785760008081fd5b610a806108bf565b8651610a8b816106ab565b815286840151610a9a816106ab565b81850152868801518015158114610ab15760008081fd5b8189015260608781015160088110610ac95760008081fd5b9082015282526080959095019490820190610a5f565b91890151919750909450505080831115610af857600080fd5b5050610b068582860161094e565b9150509250929050565b634e487b7160e01b600052603260045260246000fd5b60008219821115610b3957610b39610720565b500190565b6000600019821415610b5257610b52610720565b506001019056fea164736f6c634300080a000a",
    "linkReferences": {}
  },
  "methodIdentifiers": {
    "IMBTC()": "5685c387",
    "IMUSD()": "f35d2ab6",
    "MBTC()": "cb5690e5",
    "MUSD()": "43a82621",
    "getUnderlyingPrice(address)": "fc57d4df",
    "price(address)": "aea91078"
  },
  "id": 192
}