{
  "abi": [
    {
      "inputs": [
        {
          "internalType": "address payable",
          "name": "_fuseAdmin",
          "type": "address"
        }
      ],
      "stateMutability": "nonpayable",
      "type": "constructor"
    },
    {
      "anonymous": false,
      "inputs": [
        {
          "indexed": false,
          "internalType": "bool",
          "name": "hasRights",
          "type": "bool"
        }
      ],
      "name": "AdminRightsToggled",
      "type": "event"
    },
    {
      "anonymous": false,
      "inputs": [
        {
          "indexed": false,
          "internalType": "uint256",
          "name": "error",
          "type": "uint256"
        },
        {
          "indexed": false,
          "internalType": "uint256",
          "name": "info",
          "type": "uint256"
        },
        {
          "indexed": false,
          "internalType": "uint256",
          "name": "detail",
          "type": "uint256"
        }
      ],
      "name": "Failure",
      "type": "event"
    },
    {
      "anonymous": false,
      "inputs": [
        {
          "indexed": false,
          "internalType": "bool",
          "name": "hasRights",
          "type": "bool"
        }
      ],
      "name": "FuseAdminRightsToggled",
      "type": "event"
    },
    {
      "anonymous": false,
      "inputs": [
        {
          "indexed": false,
          "internalType": "address",
          "name": "oldAdmin",
          "type": "address"
        },
        {
          "indexed": false,
          "internalType": "address",
          "name": "newAdmin",
          "type": "address"
        }
      ],
      "name": "NewAdmin",
      "type": "event"
    },
    {
      "anonymous": false,
      "inputs": [
        {
          "indexed": false,
          "internalType": "address",
          "name": "oldImplementation",
          "type": "address"
        },
        {
          "indexed": false,
          "internalType": "address",
          "name": "newImplementation",
          "type": "address"
        }
      ],
      "name": "NewImplementation",
      "type": "event"
    },
    {
      "anonymous": false,
      "inputs": [
        {
          "indexed": false,
          "internalType": "address",
          "name": "oldPendingAdmin",
          "type": "address"
        },
        {
          "indexed": false,
          "internalType": "address",
          "name": "newPendingAdmin",
          "type": "address"
        }
      ],
      "name": "NewPendingAdmin",
      "type": "event"
    },
    {
      "anonymous": false,
      "inputs": [
        {
          "indexed": false,
          "internalType": "address",
          "name": "oldPendingImplementation",
          "type": "address"
        },
        {
          "indexed": false,
          "internalType": "address",
          "name": "newPendingImplementation",
          "type": "address"
        }
      ],
      "name": "NewPendingImplementation",
      "type": "event"
    },
    {
      "stateMutability": "payable",
      "type": "fallback"
    },
    {
      "inputs": [],
      "name": "_acceptAdmin",
      "outputs": [
        {
          "internalType": "uint256",
          "name": "",
          "type": "uint256"
        }
      ],
      "stateMutability": "nonpayable",
      "type": "function"
    },
    {
      "inputs": [],
      "name": "_acceptImplementation",
      "outputs": [
        {
          "internalType": "uint256",
          "name": "",
          "type": "uint256"
        }
      ],
      "stateMutability": "nonpayable",
      "type": "function"
    },
    {
      "inputs": [
        {
          "internalType": "address",
          "name": "newPendingAdmin",
          "type": "address"
        }
      ],
      "name": "_setPendingAdmin",
      "outputs": [
        {
          "internalType": "uint256",
          "name": "",
          "type": "uint256"
        }
      ],
      "stateMutability": "nonpayable",
      "type": "function"
    },
    {
      "inputs": [
        {
          "internalType": "address",
          "name": "newPendingImplementation",
          "type": "address"
        }
      ],
      "name": "_setPendingImplementation",
      "outputs": [
        {
          "internalType": "uint256",
          "name": "",
          "type": "uint256"
        }
      ],
      "stateMutability": "nonpayable",
      "type": "function"
    },
    {
      "inputs": [
        {
          "internalType": "bool",
          "name": "hasRights",
          "type": "bool"
        }
      ],
      "name": "_toggleAdminRights",
      "outputs": [
        {
          "internalType": "uint256",
          "name": "",
          "type": "uint256"
        }
      ],
      "stateMutability": "nonpayable",
      "type": "function"
    },
    {
      "inputs": [
        {
          "internalType": "bool",
          "name": "hasRights",
          "type": "bool"
        }
      ],
      "name": "_toggleFuseAdminRights",
      "outputs": [
        {
          "internalType": "uint256",
          "name": "",
          "type": "uint256"
        }
      ],
      "stateMutability": "nonpayable",
      "type": "function"
    },
    {
      "inputs": [],
      "name": "admin",
      "outputs": [
        {
          "internalType": "address",
          "name": "",
          "type": "address"
        }
      ],
      "stateMutability": "view",
      "type": "function"
    },
    {
      "inputs": [],
      "name": "adminHasRights",
      "outputs": [
        {
          "internalType": "bool",
          "name": "",
          "type": "bool"
        }
      ],
      "stateMutability": "view",
      "type": "function"
    },
    {
      "inputs": [],
      "name": "comptrollerImplementation",
      "outputs": [
        {
          "internalType": "address",
          "name": "",
          "type": "address"
        }
      ],
      "stateMutability": "view",
      "type": "function"
    },
    {
      "inputs": [],
      "name": "fuseAdmin",
      "outputs": [
        {
          "internalType": "address payable",
          "name": "",
          "type": "address"
        }
      ],
      "stateMutability": "view",
      "type": "function"
    },
    {
      "inputs": [],
      "name": "fuseAdminHasRights",
      "outputs": [
        {
          "internalType": "bool",
          "name": "",
          "type": "bool"
        }
      ],
      "stateMutability": "view",
      "type": "function"
    },
    {
      "inputs": [],
      "name": "pendingAdmin",
      "outputs": [
        {
          "internalType": "address",
          "name": "",
          "type": "address"
        }
      ],
      "stateMutability": "view",
      "type": "function"
    },
    {
      "inputs": [],
      "name": "pendingComptrollerImplementation",
      "outputs": [
        {
          "internalType": "address",
          "name": "",
          "type": "address"
        }
      ],
      "stateMutability": "view",
      "type": "function"
    }
  ],
  "bytecode": {
    "object": "0x60806040526002805461ffff60a01b191661010160a01b17905534801561002557600080fd5b50604051610bc7380380610bc783398101604081905261004491610077565b60018054336001600160a01b031991821617909155600080549091166001600160a01b03929092169190911790556100a7565b60006020828403121561008957600080fd5b81516001600160a01b03811681146100a057600080fd5b9392505050565b610b11806100b66000396000f3fe6080604052600436106100c25760003560e01c8063b71d1a0c1161007f578063dcfbc0c711610059578063dcfbc0c714610425578063e992a04114610445578063e9c714f214610465578063f851a4401461047a576100c2565b8063b71d1a0c146103d0578063bb82aa5e146103f0578063c1e8033414610410576100c2565b80630225ab9d146102d35780630a755ec21461030657806315761d5114610337578063267822471461036f5780632f1069ba1461038f5780636f63af0b146103b0575b3330146102585760408051600481526024810182526020810180516001600160e01b0316633757348b60e21b179052905160009182913091610103916109c6565b600060405180830381855afa9150503d806000811461013e576040519150601f19603f3d011682016040523d82523d6000602084013e610143565b606091505b50915091506000821561016757818060200190518101906101649190610a12565b90505b8015610254576000805460035460405163bbcdd6d360e01b81526001600160a01b03918216600482015291169063bbcdd6d390602401602060405180830381865afa1580156101ba573d6000803e3d6000fd5b505050506040513d601f19601f820116820180604052508101906101de9190610a44565b6003549091506001600160a01b0380831691161461025257600380546001600160a01b038381166001600160a01b0319831681179093556040519116917fd604de94d45953f9138079ec1b82d533cb2160c906d1076d1f7ed54befbca97a91610248918491610a61565b60405180910390a1505b505b5050505b6003546040516000916001600160a01b0316906102789083903690610a7b565b600060405180830381855af49150503d80600081146102b3576040519150601f19603f3d011682016040523d82523d6000602084013e6102b8565b606091505b505090506040513d6000823e8180156102cf573d82f35b3d82fd5b3480156102df57600080fd5b506102f36102ee366004610a8b565b61049a565b6040519081526020015b60405180910390f35b34801561031257600080fd5b5060025461032790600160a81b900460ff1681565b60405190151581526020016102fd565b34801561034357600080fd5b50600054610357906001600160a01b031681565b6040516001600160a01b0390911681526020016102fd565b34801561037b57600080fd5b50600254610357906001600160a01b031681565b34801561039b57600080fd5b5060025461032790600160a01b900460ff1681565b3480156103bc57600080fd5b506102f36103cb366004610a8b565b610536565b3480156103dc57600080fd5b506102f36103eb366004610aa8565b6105c5565b3480156103fc57600080fd5b50600354610357906001600160a01b031681565b34801561041c57600080fd5b506102f3610644565b34801561043157600080fd5b50600454610357906001600160a01b031681565b34801561045157600080fd5b506102f3610460366004610aa8565b610736565b34801561047157600080fd5b506102f3610829565b34801561048657600080fd5b50600154610357906001600160a01b031681565b60006104a46108fb565b6104ba576104b46001600561094d565b92915050565b60025460ff600160a81b90910416151582151514156104da5760006104b4565b60028054831515600160a81b0260ff60a81b199091161790556040517f10f9a0a95673b0837d1dce21fd3bffcb6d760435e9b5300b75a271182f75f8229061052790841515815260200190565b60405180910390a160006104b4565b60006105406108fb565b610550576104b46001600561094d565b60025460ff600160a01b90910416151582151514156105705760006104b4565b6002805460ff60a01b1916600160a01b8415158102919091179182905560405160ff9190920416151581527fabb56a15fd39488c914b324690b88f30d7daec63d2131ca0ef47e5739068c86e90602001610527565b60006105cf6108fb565b6105df576104b46001601061094d565b600280546001600160a01b038481166001600160a01b03198316179092556040519116907fca4f2f25d0898edd99413412fb94012f9e54ec8142f9b093e7720646a95b16a9906106329083908690610a61565b60405180910390a160005b9392505050565b6004546000906001600160a01b03163314158061066a57506004546001600160a01b0316155b1561067f5761067a60018061094d565b905090565b60038054600480546001600160a01b03198084166001600160a01b03838116918217909655911690915560405192909116917fd604de94d45953f9138079ec1b82d533cb2160c906d1076d1f7ed54befbca97a906106e09084908490610a61565b60405180910390a16004546040517fe945ccee5d701fc83f9b8aa8ca94ea4219ec1fcbd4f4cab4f0ea57c5c3e1d815916107259184916001600160a01b031690610a61565b60405180910390a160009250505090565b60006107406108fb565b610750576104b46001601261094d565b600054600354604051639d244f9f60e01b81526001600160a01b0392831692639d244f9f92610786929116908690600401610a61565b602060405180830381865afa1580156107a3573d6000803e3d6000fd5b505050506040513d601f19601f820116820180604052508101906107c79190610a12565b6107d7576104b46001601161094d565b600480546001600160a01b038481166001600160a01b0319831681179093556040519116917fe945ccee5d701fc83f9b8aa8ca94ea4219ec1fcbd4f4cab4f0ea57c5c3e1d81591610632918491610a61565b6002546000906001600160a01b031633141580610844575033155b156108555761067a6001600061094d565b60018054600280546001600160a01b03198084166001600160a01b03838116918217909655911690915560405192909116917ff9ffabca9c8276e99321725bcb43fb076a6c66a54b7f21c4e8146d8519b417dc906108b69084908490610a61565b60405180910390a16002546040517fca4f2f25d0898edd99413412fb94012f9e54ec8142f9b093e7720646a95b16a9916107259184916001600160a01b031690610a61565b6001546000906001600160a01b0316331480156109215750600254600160a81b900460ff165b8061067a57506000546001600160a01b03163314801561067a575050600254600160a01b900460ff1690565b60007f45b96fe442630264581b197e84bbada861235052c5a1aadfff9ea4e40a969aa083601581111561098257610982610ac5565b83601b81111561099457610994610ac5565b60408051928352602083019190915260009082015260600160405180910390a182601581111561063d5761063d610ac5565b6000825160005b818110156109e757602081860181015185830152016109cd565b818111156109f6576000828501525b509190910192915050565b8015158114610a0f57600080fd5b50565b600060208284031215610a2457600080fd5b815161063d81610a01565b6001600160a01b0381168114610a0f57600080fd5b600060208284031215610a5657600080fd5b815161063d81610a2f565b6001600160a01b0392831681529116602082015260400190565b8183823760009101908152919050565b600060208284031215610a9d57600080fd5b813561063d81610a01565b600060208284031215610aba57600080fd5b813561063d81610a2f565b634e487b7160e01b600052602160045260246000fdfea2646970667358221220656d95775c61bec5594bb599f73c28266d6a20d831a8364d7a4c852553abfc5264736f6c634300080a0033",
    "linkReferences": {}
  }
}