{
  "abi": [
    {
      "inputs": [
        {
          "internalType": "contract ERC20",
          "name": "_asset",
          "type": "address"
        },
        {
          "internalType": "contract FlywheelCore",
          "name": "_dddFlywheel",
          "type": "address"
        },
        {
          "internalType": "contract FlywheelCore",
          "name": "_epxFlywheel",
          "type": "address"
        },
        {
          "internalType": "contract ILpDepositor",
          "name": "_lpDepositor",
          "type": "address"
        }
      ],
      "stateMutability": "nonpayable",
      "type": "constructor"
    },
    {
      "anonymous": false,
      "inputs": [
        {
          "indexed": true,
          "internalType": "address",
          "name": "owner",
          "type": "address"
        },
        {
          "indexed": true,
          "internalType": "address",
          "name": "spender",
          "type": "address"
        },
        {
          "indexed": false,
          "internalType": "uint256",
          "name": "amount",
          "type": "uint256"
        }
      ],
      "name": "Approval",
      "type": "event"
    },
    {
      "anonymous": false,
      "inputs": [
        {
          "indexed": true,
          "internalType": "address",
          "name": "caller",
          "type": "address"
        },
        {
          "indexed": true,
          "internalType": "address",
          "name": "owner",
          "type": "address"
        },
        {
          "indexed": false,
          "internalType": "uint256",
          "name": "assets",
          "type": "uint256"
        },
        {
          "indexed": false,
          "internalType": "uint256",
          "name": "shares",
          "type": "uint256"
        }
      ],
      "name": "Deposit",
      "type": "event"
    },
    {
      "anonymous": false,
      "inputs": [
        {
          "indexed": true,
          "internalType": "address",
          "name": "from",
          "type": "address"
        },
        {
          "indexed": true,
          "internalType": "address",
          "name": "to",
          "type": "address"
        },
        {
          "indexed": false,
          "internalType": "uint256",
          "name": "amount",
          "type": "uint256"
        }
      ],
      "name": "Transfer",
      "type": "event"
    },
    {
      "anonymous": false,
      "inputs": [
        {
          "indexed": true,
          "internalType": "address",
          "name": "caller",
          "type": "address"
        },
        {
          "indexed": true,
          "internalType": "address",
          "name": "receiver",
          "type": "address"
        },
        {
          "indexed": true,
          "internalType": "address",
          "name": "owner",
          "type": "address"
        },
        {
          "indexed": false,
          "internalType": "uint256",
          "name": "assets",
          "type": "uint256"
        },
        {
          "indexed": false,
          "internalType": "uint256",
          "name": "shares",
          "type": "uint256"
        }
      ],
      "name": "Withdraw",
      "type": "event"
    },
    {
      "inputs": [],
      "name": "DOMAIN_SEPARATOR",
      "outputs": [
        {
          "internalType": "bytes32",
          "name": "",
          "type": "bytes32"
        }
      ],
      "stateMutability": "view",
      "type": "function"
    },
    {
      "inputs": [
        {
          "internalType": "address",
          "name": "",
          "type": "address"
        },
        {
          "internalType": "address",
          "name": "",
          "type": "address"
        }
      ],
      "name": "allowance",
      "outputs": [
        {
          "internalType": "uint256",
          "name": "",
          "type": "uint256"
        }
      ],
      "stateMutability": "view",
      "type": "function"
    },
    {
      "inputs": [
        {
          "internalType": "address",
          "name": "spender",
          "type": "address"
        },
        {
          "internalType": "uint256",
          "name": "amount",
          "type": "uint256"
        }
      ],
      "name": "approve",
      "outputs": [
        {
          "internalType": "bool",
          "name": "",
          "type": "bool"
        }
      ],
      "stateMutability": "nonpayable",
      "type": "function"
    },
    {
      "inputs": [],
      "name": "asset",
      "outputs": [
        {
          "internalType": "contract ERC20",
          "name": "",
          "type": "address"
        }
      ],
      "stateMutability": "view",
      "type": "function"
    },
    {
      "inputs": [
        {
          "internalType": "uint256",
          "name": "",
          "type": "uint256"
        }
      ],
      "name": "assetAsArray",
      "outputs": [
        {
          "internalType": "address",
          "name": "",
          "type": "address"
        }
      ],
      "stateMutability": "view",
      "type": "function"
    },
    {
      "inputs": [
        {
          "internalType": "address",
          "name": "",
          "type": "address"
        }
      ],
      "name": "balanceOf",
      "outputs": [
        {
          "internalType": "uint256",
          "name": "",
          "type": "uint256"
        }
      ],
      "stateMutability": "view",
      "type": "function"
    },
    {
      "inputs": [
        {
          "internalType": "address",
          "name": "account",
          "type": "address"
        }
      ],
      "name": "balanceOfUnderlying",
      "outputs": [
        {
          "internalType": "uint256",
          "name": "",
          "type": "uint256"
        }
      ],
      "stateMutability": "view",
      "type": "function"
    },
    {
      "inputs": [
        {
          "internalType": "uint256",
          "name": "shares",
          "type": "uint256"
        }
      ],
      "name": "convertToAssets",
      "outputs": [
        {
          "internalType": "uint256",
          "name": "",
          "type": "uint256"
        }
      ],
      "stateMutability": "view",
      "type": "function"
    },
    {
      "inputs": [
        {
          "internalType": "uint256",
          "name": "assets",
          "type": "uint256"
        }
      ],
      "name": "convertToShares",
      "outputs": [
        {
          "internalType": "uint256",
          "name": "",
          "type": "uint256"
        }
      ],
      "stateMutability": "view",
      "type": "function"
    },
    {
      "inputs": [],
      "name": "dddFlywheel",
      "outputs": [
        {
          "internalType": "contract FlywheelCore",
          "name": "",
          "type": "address"
        }
      ],
      "stateMutability": "view",
      "type": "function"
    },
    {
      "inputs": [],
      "name": "decimals",
      "outputs": [
        {
          "internalType": "uint8",
          "name": "",
          "type": "uint8"
        }
      ],
      "stateMutability": "view",
      "type": "function"
    },
    {
      "inputs": [
        {
          "internalType": "uint256",
          "name": "assets",
          "type": "uint256"
        },
        {
          "internalType": "address",
          "name": "receiver",
          "type": "address"
        }
      ],
      "name": "deposit",
      "outputs": [
        {
          "internalType": "uint256",
          "name": "shares",
          "type": "uint256"
        }
      ],
      "stateMutability": "nonpayable",
      "type": "function"
    },
    {
      "inputs": [],
      "name": "epxFlywheel",
      "outputs": [
        {
          "internalType": "contract FlywheelCore",
          "name": "",
          "type": "address"
        }
      ],
      "stateMutability": "view",
      "type": "function"
    },
    {
      "inputs": [],
      "name": "lpDepositor",
      "outputs": [
        {
          "internalType": "contract ILpDepositor",
          "name": "",
          "type": "address"
        }
      ],
      "stateMutability": "view",
      "type": "function"
    },
    {
      "inputs": [
        {
          "internalType": "address",
          "name": "",
          "type": "address"
        }
      ],
      "name": "maxDeposit",
      "outputs": [
        {
          "internalType": "uint256",
          "name": "",
          "type": "uint256"
        }
      ],
      "stateMutability": "view",
      "type": "function"
    },
    {
      "inputs": [
        {
          "internalType": "address",
          "name": "",
          "type": "address"
        }
      ],
      "name": "maxMint",
      "outputs": [
        {
          "internalType": "uint256",
          "name": "",
          "type": "uint256"
        }
      ],
      "stateMutability": "view",
      "type": "function"
    },
    {
      "inputs": [
        {
          "internalType": "address",
          "name": "owner",
          "type": "address"
        }
      ],
      "name": "maxRedeem",
      "outputs": [
        {
          "internalType": "uint256",
          "name": "",
          "type": "uint256"
        }
      ],
      "stateMutability": "view",
      "type": "function"
    },
    {
      "inputs": [
        {
          "internalType": "address",
          "name": "owner",
          "type": "address"
        }
      ],
      "name": "maxWithdraw",
      "outputs": [
        {
          "internalType": "uint256",
          "name": "",
          "type": "uint256"
        }
      ],
      "stateMutability": "view",
      "type": "function"
    },
    {
      "inputs": [
        {
          "internalType": "uint256",
          "name": "shares",
          "type": "uint256"
        },
        {
          "internalType": "address",
          "name": "receiver",
          "type": "address"
        }
      ],
      "name": "mint",
      "outputs": [
        {
          "internalType": "uint256",
          "name": "assets",
          "type": "uint256"
        }
      ],
      "stateMutability": "nonpayable",
      "type": "function"
    },
    {
      "inputs": [],
      "name": "name",
      "outputs": [
        {
          "internalType": "string",
          "name": "",
          "type": "string"
        }
      ],
      "stateMutability": "view",
      "type": "function"
    },
    {
      "inputs": [
        {
          "internalType": "address",
          "name": "",
          "type": "address"
        }
      ],
      "name": "nonces",
      "outputs": [
        {
          "internalType": "uint256",
          "name": "",
          "type": "uint256"
        }
      ],
      "stateMutability": "view",
      "type": "function"
    },
    {
      "inputs": [
        {
          "internalType": "address",
          "name": "owner",
          "type": "address"
        },
        {
          "internalType": "address",
          "name": "spender",
          "type": "address"
        },
        {
          "internalType": "uint256",
          "name": "value",
          "type": "uint256"
        },
        {
          "internalType": "uint256",
          "name": "deadline",
          "type": "uint256"
        },
        {
          "internalType": "uint8",
          "name": "v",
          "type": "uint8"
        },
        {
          "internalType": "bytes32",
          "name": "r",
          "type": "bytes32"
        },
        {
          "internalType": "bytes32",
          "name": "s",
          "type": "bytes32"
        }
      ],
      "name": "permit",
      "outputs": [],
      "stateMutability": "nonpayable",
      "type": "function"
    },
    {
      "inputs": [
        {
          "internalType": "uint256",
          "name": "assets",
          "type": "uint256"
        }
      ],
      "name": "previewDeposit",
      "outputs": [
        {
          "internalType": "uint256",
          "name": "",
          "type": "uint256"
        }
      ],
      "stateMutability": "view",
      "type": "function"
    },
    {
      "inputs": [
        {
          "internalType": "uint256",
          "name": "shares",
          "type": "uint256"
        }
      ],
      "name": "previewMint",
      "outputs": [
        {
          "internalType": "uint256",
          "name": "",
          "type": "uint256"
        }
      ],
      "stateMutability": "view",
      "type": "function"
    },
    {
      "inputs": [
        {
          "internalType": "uint256",
          "name": "shares",
          "type": "uint256"
        }
      ],
      "name": "previewRedeem",
      "outputs": [
        {
          "internalType": "uint256",
          "name": "",
          "type": "uint256"
        }
      ],
      "stateMutability": "view",
      "type": "function"
    },
    {
      "inputs": [
        {
          "internalType": "uint256",
          "name": "assets",
          "type": "uint256"
        }
      ],
      "name": "previewWithdraw",
      "outputs": [
        {
          "internalType": "uint256",
          "name": "",
          "type": "uint256"
        }
      ],
      "stateMutability": "view",
      "type": "function"
    },
    {
      "inputs": [
        {
          "internalType": "uint256",
          "name": "shares",
          "type": "uint256"
        },
        {
          "internalType": "address",
          "name": "receiver",
          "type": "address"
        },
        {
          "internalType": "address",
          "name": "owner",
          "type": "address"
        }
      ],
      "name": "redeem",
      "outputs": [
        {
          "internalType": "uint256",
          "name": "assets",
          "type": "uint256"
        }
      ],
      "stateMutability": "nonpayable",
      "type": "function"
    },
    {
      "inputs": [],
      "name": "symbol",
      "outputs": [
        {
          "internalType": "string",
          "name": "",
          "type": "string"
        }
      ],
      "stateMutability": "view",
      "type": "function"
    },
    {
      "inputs": [],
      "name": "totalAssets",
      "outputs": [
        {
          "internalType": "uint256",
          "name": "",
          "type": "uint256"
        }
      ],
      "stateMutability": "view",
      "type": "function"
    },
    {
      "inputs": [],
      "name": "totalSupply",
      "outputs": [
        {
          "internalType": "uint256",
          "name": "",
          "type": "uint256"
        }
      ],
      "stateMutability": "view",
      "type": "function"
    },
    {
      "inputs": [
        {
          "internalType": "address",
          "name": "to",
          "type": "address"
        },
        {
          "internalType": "uint256",
          "name": "amount",
          "type": "uint256"
        }
      ],
      "name": "transfer",
      "outputs": [
        {
          "internalType": "bool",
          "name": "",
          "type": "bool"
        }
      ],
      "stateMutability": "nonpayable",
      "type": "function"
    },
    {
      "inputs": [
        {
          "internalType": "address",
          "name": "from",
          "type": "address"
        },
        {
          "internalType": "address",
          "name": "to",
          "type": "address"
        },
        {
          "internalType": "uint256",
          "name": "amount",
          "type": "uint256"
        }
      ],
      "name": "transferFrom",
      "outputs": [
        {
          "internalType": "bool",
          "name": "",
          "type": "bool"
        }
      ],
      "stateMutability": "nonpayable",
      "type": "function"
    },
    {
      "inputs": [
        {
          "internalType": "uint256",
          "name": "assets",
          "type": "uint256"
        },
        {
          "internalType": "address",
          "name": "receiver",
          "type": "address"
        },
        {
          "internalType": "address",
          "name": "owner",
          "type": "address"
        }
      ],
      "name": "withdraw",
      "outputs": [
        {
          "internalType": "uint256",
          "name": "shares",
          "type": "uint256"
        }
      ],
      "stateMutability": "nonpayable",
      "type": "function"
    }
  ],
  "bytecode": {
    "object": "0x6101606040523480156200001257600080fd5b5060405162002295380380620022958339810160408190526200003591620006ed565b83846001600160a01b03166306fdde036040518163ffffffff1660e01b8152600401600060405180830381865afa15801562000075573d6000803e3d6000fd5b505050506040513d6000823e601f3d908101601f191682016040526200009f91908101906200079e565b604051602001620000b1919062000856565b604051602081830303815290604052856001600160a01b03166395d89b416040518163ffffffff1660e01b8152600401600060405180830381865afa158015620000ff573d6000803e3d6000fd5b505050506040513d6000823e601f3d908101601f191682016040526200012991908101906200079e565b6040516020016200013b919062000896565b6040516020818303038152906040528181846001600160a01b031663313ce5676040518163ffffffff1660e01b8152600401602060405180830381865afa1580156200018b573d6000803e3d6000fd5b505050506040513d601f19601f82011682018060405250810190620001b19190620008c2565b8251620001c69060009060208601906200062e565b508151620001dc9060019060208501906200062e565b5060ff81166080524660a052620001f262000592565b60c052505050506001600160a01b0391821660e052508381166101008190528382166101205282821661014052600680546001810182556000919091527ff652222313e28459528d920b65115c16c04f3efc82aaedc97be59f3f377c0d3f0180546001600160a01b031916928716929092179091556040805163f7c618c160e01b8152905163f7c618c1916004808201926020929091908290030181865afa158015620002a3573d6000803e3d6000fd5b505050506040513d601f19601f82011682018060405250810190620002c99190620008ee565b6001600160a01b031663095ea7b3610100516001600160a01b031663f046ee5c6040518163ffffffff1660e01b8152600401602060405180830381865afa15801562000319573d6000803e3d6000fd5b505050506040513d601f19601f820116820180604052508101906200033f9190620008ee565b6040516001600160e01b031960e084901b1681526001600160a01b03909116600482015260001960248201526044016020604051808303816000875af11580156200038e573d6000803e3d6000fd5b505050506040513d601f19601f82011682018060405250810190620003b491906200090e565b50610120516001600160a01b031663f7c618c16040518163ffffffff1660e01b8152600401602060405180830381865afa158015620003f7573d6000803e3d6000fd5b505050506040513d601f19601f820116820180604052508101906200041d9190620008ee565b6001600160a01b031663095ea7b3610120516001600160a01b031663f046ee5c6040518163ffffffff1660e01b8152600401602060405180830381865afa1580156200046d573d6000803e3d6000fd5b505050506040513d601f19601f82011682018060405250810190620004939190620008ee565b6040516001600160e01b031960e084901b1681526001600160a01b03909116600482015260001960248201526044016020604051808303816000875af1158015620004e2573d6000803e3d6000fd5b505050506040513d601f19601f820116820180604052508101906200050891906200090e565b5060e0516101405160405163095ea7b360e01b81526001600160a01b039182166004820152600019602482015291169063095ea7b3906044016020604051808303816000875af115801562000561573d6000803e3d6000fd5b505050506040513d601f19601f820116820180604052508101906200058791906200090e565b505050505062000a13565b60007f8b73c3c69bb8fe3d512ecc4cf759cc79239f7b179b0ffacaa9a75d522b39400f6000604051620005c691906200096f565b6040805191829003822060208301939093528101919091527fc89efdaa54c0f20c7adf612882df0950f5a951637e0307cdcb4c672f298b8bc660608201524660808201523060a082015260c00160405160208183030381529060405280519060200120905090565b8280546200063c9062000932565b90600052602060002090601f016020900481019282620006605760008555620006ab565b82601f106200067b57805160ff1916838001178555620006ab565b82800160010185558215620006ab579182015b82811115620006ab5782518255916020019190600101906200068e565b50620006b9929150620006bd565b5090565b5b80821115620006b95760008155600101620006be565b6001600160a01b0381168114620006ea57600080fd5b50565b600080600080608085870312156200070457600080fd5b84516200071181620006d4565b60208601519094506200072481620006d4565b60408601519093506200073781620006d4565b60608601519092506200074a81620006d4565b939692955090935050565b634e487b7160e01b600052604160045260246000fd5b60005b83811015620007885781810151838201526020016200076e565b8381111562000798576000848401525b50505050565b600060208284031215620007b157600080fd5b81516001600160401b0380821115620007c957600080fd5b818401915084601f830112620007de57600080fd5b815181811115620007f357620007f362000755565b604051601f8201601f19908116603f011681019083821181831017156200081e576200081e62000755565b816040528281528760208487010111156200083857600080fd5b6200084b8360208301602088016200076b565b979650505050505050565b65026b4b230b9960d51b815260008251620008798160068501602087016200076b565b650815985d5b1d60d21b6006939091019283015250600c01919050565b6136bb60f11b815260008251620008b58160028501602087016200076b565b9190910160020192915050565b600060208284031215620008d557600080fd5b815160ff81168114620008e757600080fd5b9392505050565b6000602082840312156200090157600080fd5b8151620008e781620006d4565b6000602082840312156200092157600080fd5b81518015158114620008e757600080fd5b600181811c908216806200094757607f821691505b602082108114156200096957634e487b7160e01b600052602260045260246000fd5b50919050565b600080835481600182811c9150808316806200098c57607f831692505b6020808410821415620009ad57634e487b7160e01b86526022600452602486fd5b818015620009c45760018114620009d65762000a05565b60ff1986168952848901965062000a05565b60008a81526020902060005b86811015620009fd5781548b820152908501908301620009e2565b505084890196505b509498975050505050505050565b60805160a05160c05160e0516101005161012051610140516117da62000abb6000396000818161022001528181610569015281816111970152818161120901526112c8015260006102c6015260006104830152600081816103410152818161053e0152818161090a015281816109a601528181610ba101528181610cea01528181611168015261129901526000610837015260006108070152600061030001526117da6000f3fe608060405234801561001057600080fd5b50600436106101fb5760003560e01c80636e553f651161011a578063ba087652116100ad578063d20866a31161007c578063d20866a31461047e578063d505accf146104a5578063d905777e146104ba578063dd62ed3e146104e3578063ef8b30f71461050e57600080fd5b8063ba08765214610458578063c63d75b614610389578063c6e6f5921461046b578063ce96cb771461036357600080fd5b806395d89b41116100e957806395d89b4114610417578063a9059cbb1461041f578063b3d7f6b914610432578063b460af941461044557600080fd5b80636e553f65146103b157806370a08231146103c45780637ecebe00146103e457806394bf804d1461040457600080fd5b806323b872dd116101925780633af9e669116101615780633af9e669146103635780633bbd13a214610376578063402d267d146103895780634cdad5061461039e57600080fd5b806323b872dd146102e8578063313ce567146102fb5780633644e5151461033457806338d52e0f1461033c57600080fd5b8063095ea7b3116101ce578063095ea7b3146102825780630a28a477146102a557806318160ddd146102b857806321c31400146102c157600080fd5b806301e1d1141461020057806302f283be1461021b57806306fdde031461025a57806307a2d13a1461026f575b600080fd5b610208610521565b6040519081526020015b60405180910390f35b6102427f000000000000000000000000000000000000000000000000000000000000000081565b6040516001600160a01b039091168152602001610212565b6102626105db565b60405161021291906113d7565b61020861027d36600461142c565b610669565b610295610290366004611461565b610696565b6040519015158152602001610212565b6102086102b336600461142c565b610703565b61020860025481565b6102427f000000000000000000000000000000000000000000000000000000000000000081565b6102956102f636600461148b565b610723565b6103227f000000000000000000000000000000000000000000000000000000000000000081565b60405160ff9091168152602001610212565b610208610803565b6102427f000000000000000000000000000000000000000000000000000000000000000081565b6102086103713660046114c7565b610859565b61024261038436600461142c565b61087b565b6102086103973660046114c7565b5060001990565b6102086103ac36600461142c565b6108a5565b6102086103bf3660046114e2565b6108b0565b6102086103d23660046114c7565b60036020526000908152604090205481565b6102086103f23660046114c7565b60056020526000908152604090205481565b6102086104123660046114e2565b61098c565b610262610a28565b61029561042d366004611461565b610a35565b61020861044036600461142c565b610a9b565b61020861045336600461150e565b610aba565b61020861046636600461150e565b610bc8565b61020861047936600461142c565b610d11565b6102427f000000000000000000000000000000000000000000000000000000000000000081565b6104b86104b336600461154a565b610d31565b005b6102086104c83660046114c7565b6001600160a01b031660009081526003602052604090205490565b6102086104f13660046115bd565b600460209081526000928352604080842090915290825290205481565b61020861051c36600461142c565b610f75565b60405163015b6a3360e71b81523060048201526001600160a01b037f0000000000000000000000000000000000000000000000000000000000000000811660248301526000917f00000000000000000000000000000000000000000000000000000000000000009091169063adb5198090604401602060405180830381865afa1580156105b2573d6000803e3d6000fd5b505050506040513d601f19601f820116820180604052508101906105d691906115e7565b905090565b600080546105e890611600565b80601f016020809104026020016040519081016040528092919081815260200182805461061490611600565b80156106615780601f1061063657610100808354040283529160200191610661565b820191906000526020600020905b81548152906001019060200180831161064457829003601f168201915b505050505081565b600254600090801561068d57610688610680610521565b849083610f80565b61068f565b825b9392505050565b3360008181526004602090815260408083206001600160a01b038716808552925280832085905551919290917f8c5be1e5ebec7d5bd14f71427d1e84f3dd0314c0f7b2291e5b200ac8c7c3b925906106f19086815260200190565b60405180910390a35060015b92915050565b600254600090801561068d576106888161071b610521565b859190610f9f565b6001600160a01b0383166000908152600460209081526040808320338452909152812054600019811461077f5761075a8382611651565b6001600160a01b03861660009081526004602090815260408083203384529091529020555b6001600160a01b038516600090815260036020526040812080548592906107a7908490611651565b90915550506001600160a01b0380851660008181526003602052604090819020805487019055519091871690600080516020611785833981519152906107f09087815260200190565b60405180910390a3506001949350505050565b60007f00000000000000000000000000000000000000000000000000000000000000004614610834576105d6610fcd565b507f000000000000000000000000000000000000000000000000000000000000000090565b6001600160a01b0381166000908152600360205260408120546106fd90610669565b6006818154811061088b57600080fd5b6000918252602090912001546001600160a01b0316905081565b60006106fd82610669565b60006108bb83610f75565b9050806108fd5760405162461bcd60e51b815260206004820152600b60248201526a5a45524f5f53484152455360a81b60448201526064015b60405180910390fd5b6109326001600160a01b037f000000000000000000000000000000000000000000000000000000000000000016333086611067565b61093c82826110f1565b60408051848152602081018390526001600160a01b0384169133917fdcbc1c05240f31ff3ad067ef1ee35ce4997762752e3a095284754544f4c709d7910160405180910390a36106fd838261114b565b600061099783610a9b565b90506109ce6001600160a01b037f000000000000000000000000000000000000000000000000000000000000000016333084611067565b6109d882846110f1565b60408051828152602081018590526001600160a01b0384169133917fdcbc1c05240f31ff3ad067ef1ee35ce4997762752e3a095284754544f4c709d7910160405180910390a36106fd818461114b565b600180546105e890611600565b33600090815260036020526040812080548391908390610a56908490611651565b90915550506001600160a01b03831660008181526003602052604090819020805485019055513390600080516020611785833981519152906106f19086815260200190565b600254600090801561068d57610688610ab2610521565b849083610f9f565b6000610ac584610703565b9050336001600160a01b03831614610b35576001600160a01b03821660009081526004602090815260408083203384529091529020546000198114610b3357610b0e8282611651565b6001600160a01b03841660009081526004602090815260408083203384529091529020555b505b610b3f848261127c565b610b4982826112f7565b60408051858152602081018390526001600160a01b03808516929086169133917ffbde797d201c681b91056529119e0b02407c7bb96a4a2c75c01fc9667232c8db910160405180910390a461068f6001600160a01b037f0000000000000000000000000000000000000000000000000000000000000000168486611359565b6000336001600160a01b03831614610c38576001600160a01b03821660009081526004602090815260408083203384529091529020546000198114610c3657610c118582611651565b6001600160a01b03841660009081526004602090815260408083203384529091529020555b505b610c41846108a5565b905080610c7e5760405162461bcd60e51b815260206004820152600b60248201526a5a45524f5f41535345545360a81b60448201526064016108f4565b610c88818561127c565b610c9282856112f7565b60408051828152602081018690526001600160a01b03808516929086169133917ffbde797d201c681b91056529119e0b02407c7bb96a4a2c75c01fc9667232c8db910160405180910390a461068f6001600160a01b037f0000000000000000000000000000000000000000000000000000000000000000168483611359565b600254600090801561068d5761068881610d29610521565b859190610f80565b42841015610d815760405162461bcd60e51b815260206004820152601760248201527f5045524d49545f444541444c494e455f4558504952454400000000000000000060448201526064016108f4565b60006001610d8d610803565b6001600160a01b038a811660008181526005602090815260409182902080546001810190915582517f6e71edae12b1b97f4d1f60370fef10105fa2faae0126114a169c64845d6126c98184015280840194909452938d166060840152608083018c905260a083019390935260c08083018b90528151808403909101815260e08301909152805192019190912061190160f01b6101008301526101028201929092526101228101919091526101420160408051601f198184030181528282528051602091820120600084529083018083525260ff871690820152606081018590526080810184905260a0016020604051602081039080840390855afa158015610e99573d6000803e3d6000fd5b5050604051601f1901519150506001600160a01b03811615801590610ecf5750876001600160a01b0316816001600160a01b0316145b610f0c5760405162461bcd60e51b815260206004820152600e60248201526d24a72b20a624a22fa9a4a3a722a960911b60448201526064016108f4565b6001600160a01b0390811660009081526004602090815260408083208a8516808552908352928190208990555188815291928a16917f8c5be1e5ebec7d5bd14f71427d1e84f3dd0314c0f7b2291e5b200ac8c7c3b925910160405180910390a350505050505050565b60006106fd82610d11565b828202811515841585830485141716610f9857600080fd5b0492915050565b828202811515841585830485141716610fb757600080fd5b6001826001830304018115150290509392505050565b60007f8b73c3c69bb8fe3d512ecc4cf759cc79239f7b179b0ffacaa9a75d522b39400f6000604051610fff9190611668565b6040805191829003822060208301939093528101919091527fc89efdaa54c0f20c7adf612882df0950f5a951637e0307cdcb4c672f298b8bc660608201524660808201523060a082015260c00160405160208183030381529060405280519060200120905090565b60006040516323b872dd60e01b81528460048201528360248201528260448201526020600060648360008a5af13d15601f3d11600160005114161716915050806110ea5760405162461bcd60e51b81526020600482015260146024820152731514905394d1915497d19493d357d1905253115160621b60448201526064016108f4565b5050505050565b80600260008282546111039190611704565b90915550506001600160a01b03821660008181526003602090815260408083208054860190555184815260008051602061178583398151915291015b60405180910390a35050565b604051638340f54960e01b81523060048201526001600160a01b037f000000000000000000000000000000000000000000000000000000000000000081166024830152604482018490527f00000000000000000000000000000000000000000000000000000000000000001690638340f549906064015b600060405180830381600087803b1580156111dc57600080fd5b505af11580156111f0573d6000803e3d6000fd5b5050604051633601ae0560e01b81526001600160a01b037f0000000000000000000000000000000000000000000000000000000000000000169250633601ae05915061124690309060069060009060040161171c565b600060405180830381600087803b15801561126057600080fd5b505af1158015611274573d6000803e3d6000fd5b505050505050565b604051636ce5768960e11b81523060048201526001600160a01b037f000000000000000000000000000000000000000000000000000000000000000081166024830152604482018490527f0000000000000000000000000000000000000000000000000000000000000000169063d9caed12906064016111c2565b6001600160a01b0382166000908152600360205260408120805483929061131f908490611651565b90915550506002805482900390556040518181526000906001600160a01b038416906000805160206117858339815191529060200161113f565b600060405163a9059cbb60e01b8152836004820152826024820152602060006044836000895af13d15601f3d11600160005114161716915050806113d15760405162461bcd60e51b815260206004820152600f60248201526e1514905394d1915497d19052531151608a1b60448201526064016108f4565b50505050565b600060208083528351808285015260005b81811015611404578581018301518582016040015282016113e8565b81811115611416576000604083870101525b50601f01601f1916929092016040019392505050565b60006020828403121561143e57600080fd5b5035919050565b80356001600160a01b038116811461145c57600080fd5b919050565b6000806040838503121561147457600080fd5b61147d83611445565b946020939093013593505050565b6000806000606084860312156114a057600080fd5b6114a984611445565b92506114b760208501611445565b9150604084013590509250925092565b6000602082840312156114d957600080fd5b61068f82611445565b600080604083850312156114f557600080fd5b8235915061150560208401611445565b90509250929050565b60008060006060848603121561152357600080fd5b8335925061153360208501611445565b915061154160408501611445565b90509250925092565b600080600080600080600060e0888a03121561156557600080fd5b61156e88611445565b965061157c60208901611445565b95506040880135945060608801359350608088013560ff811681146115a057600080fd5b9699959850939692959460a0840135945060c09093013592915050565b600080604083850312156115d057600080fd5b6115d983611445565b915061150560208401611445565b6000602082840312156115f957600080fd5b5051919050565b600181811c9082168061161457607f821691505b6020821081141561163557634e487b7160e01b600052602260045260246000fd5b50919050565b634e487b7160e01b600052601160045260246000fd5b6000828210156116635761166361163b565b500390565b600080835481600182811c91508083168061168457607f831692505b60208084108214156116a457634e487b7160e01b86526022600452602486fd5b8180156116b857600181146116c9576116f6565b60ff198616895284890196506116f6565b60008a81526020902060005b868110156116ee5781548b8201529085019083016116d5565b505084890196505b509498975050505050505050565b600082198211156117175761171761163b565b500190565b60006060820160018060a01b03808716845260206060818601528287548085526080870191508860005282600020945060005b8181101561176d57855485168352600195860195928401920161174f565b50508094505050505082604083015294935050505056feddf252ad1be2c89b69c2b068fc378daa952ba7f163c4a11628f55a4df523b3efa264697066735822122025edc029ebb13f38c9037057c30551d339c8414d10028613bf9a3f30ef503c7464736f6c634300080a0033",
    "linkReferences": {}
  },
  "methodIdentifiers": {
    "DOMAIN_SEPARATOR()": "3644e515",
    "allowance(address,address)": "dd62ed3e",
    "approve(address,uint256)": "095ea7b3",
    "asset()": "38d52e0f",
    "assetAsArray(uint256)": "3bbd13a2",
    "balanceOf(address)": "70a08231",
    "balanceOfUnderlying(address)": "3af9e669",
    "convertToAssets(uint256)": "07a2d13a",
    "convertToShares(uint256)": "c6e6f592",
    "dddFlywheel()": "d20866a3",
    "decimals()": "313ce567",
    "deposit(uint256,address)": "6e553f65",
    "epxFlywheel()": "21c31400",
    "lpDepositor()": "02f283be",
    "maxDeposit(address)": "402d267d",
    "maxMint(address)": "c63d75b6",
    "maxRedeem(address)": "d905777e",
    "maxWithdraw(address)": "ce96cb77",
    "mint(uint256,address)": "94bf804d",
    "name()": "06fdde03",
    "nonces(address)": "7ecebe00",
    "permit(address,address,uint256,uint256,uint8,bytes32,bytes32)": "d505accf",
    "previewDeposit(uint256)": "ef8b30f7",
    "previewMint(uint256)": "b3d7f6b9",
    "previewRedeem(uint256)": "4cdad506",
    "previewWithdraw(uint256)": "0a28a477",
    "redeem(uint256,address,address)": "ba087652",
    "symbol()": "95d89b41",
    "totalAssets()": "01e1d114",
    "totalSupply()": "18160ddd",
    "transfer(address,uint256)": "a9059cbb",
    "transferFrom(address,address,uint256)": "23b872dd",
    "withdraw(uint256,address,address)": "b460af94"
  },
  "id": 52
}