{
  "abi": [
    {
      "inputs": [
        {
          "internalType": "uint256",
          "name": "_blocksPerYear",
          "type": "uint256"
        },
        {
          "internalType": "uint256",
          "name": "baseRatePerYear",
          "type": "uint256"
        },
        {
          "internalType": "uint256",
          "name": "multiplierPerYear",
          "type": "uint256"
        }
      ],
      "stateMutability": "nonpayable",
      "type": "constructor"
    },
    {
      "anonymous": false,
      "inputs": [
        {
          "indexed": false,
          "internalType": "uint256",
          "name": "baseRatePerBlock",
          "type": "uint256"
        },
        {
          "indexed": false,
          "internalType": "uint256",
          "name": "multiplierPerBlock",
          "type": "uint256"
        }
      ],
      "name": "NewInterestParams",
      "type": "event"
    },
    {
      "inputs": [],
      "name": "baseRatePerBlock",
      "outputs": [
        {
          "internalType": "uint256",
          "name": "",
          "type": "uint256"
        }
      ],
      "stateMutability": "view",
      "type": "function"
    },
    {
      "inputs": [],
      "name": "blocksPerYear",
      "outputs": [
        {
          "internalType": "uint256",
          "name": "",
          "type": "uint256"
        }
      ],
      "stateMutability": "view",
      "type": "function"
    },
    {
      "inputs": [
        {
          "internalType": "uint256",
          "name": "cash",
          "type": "uint256"
        },
        {
          "internalType": "uint256",
          "name": "borrows",
          "type": "uint256"
        },
        {
          "internalType": "uint256",
          "name": "reserves",
          "type": "uint256"
        }
      ],
      "name": "getBorrowRate",
      "outputs": [
        {
          "internalType": "uint256",
          "name": "",
          "type": "uint256"
        }
      ],
      "stateMutability": "view",
      "type": "function"
    },
    {
      "inputs": [
        {
          "internalType": "uint256",
          "name": "cash",
          "type": "uint256"
        },
        {
          "internalType": "uint256",
          "name": "borrows",
          "type": "uint256"
        },
        {
          "internalType": "uint256",
          "name": "reserves",
          "type": "uint256"
        },
        {
          "internalType": "uint256",
          "name": "reserveFactorMantissa",
          "type": "uint256"
        }
      ],
      "name": "getSupplyRate",
      "outputs": [
        {
          "internalType": "uint256",
          "name": "",
          "type": "uint256"
        }
      ],
      "stateMutability": "view",
      "type": "function"
    },
    {
      "inputs": [],
      "name": "isInterestRateModel",
      "outputs": [
        {
          "internalType": "bool",
          "name": "",
          "type": "bool"
        }
      ],
      "stateMutability": "view",
      "type": "function"
    },
    {
      "inputs": [],
      "name": "multiplierPerBlock",
      "outputs": [
        {
          "internalType": "uint256",
          "name": "",
          "type": "uint256"
        }
      ],
      "stateMutability": "view",
      "type": "function"
    },
    {
      "inputs": [
        {
          "internalType": "uint256",
          "name": "cash",
          "type": "uint256"
        },
        {
          "internalType": "uint256",
          "name": "borrows",
          "type": "uint256"
        },
        {
          "internalType": "uint256",
          "name": "reserves",
          "type": "uint256"
        }
      ],
      "name": "utilizationRate",
      "outputs": [
        {
          "internalType": "uint256",
          "name": "",
          "type": "uint256"
        }
      ],
      "stateMutability": "pure",
      "type": "function"
    }
  ],
  "bytecode": {
    "object": "0x608060405234801561001057600080fd5b506040516106de3803806106de83398101604081905261002f91610145565b600083905561004982846100b6602090811b6101a717901c565b600281905550610068600054826100b660201b6101a71790919060201c565b60018190556002546040517ff35fa19c15e9ba782633a5df62a98b20217151addc68e3ff2cd623a48d37ec27926100a6928252602082015260400190565b60405180910390a15050506101ea565b60006100fe83836040518060400160405280601a81526020017f536166654d6174683a206469766973696f6e206279207a65726f00000000000081525061010560201b60201c565b9392505050565b6000818361012f5760405162461bcd60e51b81526004016101269190610173565b60405180910390fd5b50600061013c84866101c8565b95945050505050565b60008060006060848603121561015a57600080fd5b8351925060208401519150604084015190509250925092565b600060208083528351808285015260005b818110156101a057858101830151858201604001528201610184565b818111156101b2576000604083870101525b50601f01601f1916929092016040019392505050565b6000826101e557634e487b7160e01b600052601260045260246000fd5b500490565b6104e5806101f96000396000f3fe608060405234801561001057600080fd5b506004361061007d5760003560e01c80638726bb891161005b5780638726bb89146100d7578063a385fb96146100e0578063b8168816146100e9578063f14039de146100fc57600080fd5b806315f24053146100825780632191f92a146100a85780636e71e2d8146100c0575b600080fd5b610095610090366004610376565b610105565b6040519081526020015b60405180910390f35b6100b0600181565b604051901515815260200161009f565b6100956100ce366004610376565b60009392505050565b61009560015481565b61009560005481565b6100956100f73660046103a2565b610144565b61009560025481565b60008061013b600254610135670de0b6b3a764000061012f600154866101f290919063ffffffff16565b906101a7565b90610276565b95945050505050565b600080610159670de0b6b3a7640000846102d5565b90506000610168878787610105565b90506000610182670de0b6b3a764000061012f84866101f2565b905061019b670de0b6b3a764000061012f6000846101f2565b98975050505050505050565b60006101e983836040518060400160405280601a81526020017f536166654d6174683a206469766973696f6e206279207a65726f000000000000815250610317565b90505b92915050565b600082610201575060006101ec565b600061020d83856103ea565b90508261021a8583610409565b146101e95760405162461bcd60e51b815260206004820152602160248201527f536166654d6174683a206d756c7469706c69636174696f6e206f766572666c6f6044820152607760f81b60648201526084015b60405180910390fd5b600080610283838561042b565b9050838110156101e95760405162461bcd60e51b815260206004820152601b60248201527f536166654d6174683a206164646974696f6e206f766572666c6f770000000000604482015260640161026d565b60006101e983836040518060400160405280601f81526020017f536166654d6174683a207375627472616374696f6e20756e646572666c6f7700815250610345565b600081836103385760405162461bcd60e51b815260040161026d9190610443565b50600061013b8486610409565b600081848411156103695760405162461bcd60e51b815260040161026d9190610443565b50600061013b8486610498565b60008060006060848603121561038b57600080fd5b505081359360208301359350604090920135919050565b600080600080608085870312156103b857600080fd5b5050823594602084013594506040840135936060013592509050565b634e487b7160e01b600052601160045260246000fd5b6000816000190483118215151615610404576104046103d4565b500290565b60008261042657634e487b7160e01b600052601260045260246000fd5b500490565b6000821982111561043e5761043e6103d4565b500190565b600060208083528351808285015260005b8181101561047057858101830151858201604001528201610454565b81811115610482576000604083870101525b50601f01601f1916929092016040019392505050565b6000828210156104aa576104aa6103d4565b50039056fea264697066735822122052740c36b9156519ae9600e797d9def080300c4b91f85e4c85f552bb4697ad5564736f6c634300080a0033",
    "linkReferences": {}
  }
}