{
  "abi": [
    {
      "inputs": [
        {
          "internalType": "address",
          "name": "uniswapV2Pair",
          "type": "address"
        },
        {
          "components": [
            {
              "internalType": "bytes",
              "name": "block",
              "type": "bytes"
            },
            {
              "internalType": "bytes",
              "name": "accountProofNodesRlp",
              "type": "bytes"
            },
            {
              "internalType": "bytes",
              "name": "reserveAndTimestampProofNodesRlp",
              "type": "bytes"
            },
            {
              "internalType": "bytes",
              "name": "priceAccumulatorProofNodesRlp",
              "type": "bytes"
            }
          ],
          "internalType": "struct UniswapOracle.ProofData",
          "name": "proofData",
          "type": "tuple"
        }
      ],
      "name": "getAccountStorageRoot",
      "outputs": [
        {
          "internalType": "bytes32",
          "name": "storageRootHash",
          "type": "bytes32"
        },
        {
          "internalType": "uint256",
          "name": "blockNumber",
          "type": "uint256"
        },
        {
          "internalType": "uint256",
          "name": "blockTimestamp",
          "type": "uint256"
        }
      ],
      "stateMutability": "view",
      "type": "function"
    },
    {
      "inputs": [
        {
          "internalType": "contract IUniswapV2Pair",
          "name": "uniswapV2Pair",
          "type": "address"
        },
        {
          "internalType": "bool",
          "name": "denominationTokenIs0",
          "type": "bool"
        }
      ],
      "name": "getCurrentPriceCumulativeLast",
      "outputs": [
        {
          "internalType": "uint256",
          "name": "priceCumulativeLast",
          "type": "uint256"
        }
      ],
      "stateMutability": "view",
      "type": "function"
    },
    {
      "inputs": [
        {
          "internalType": "contract IUniswapV2Pair",
          "name": "uniswapV2Pair",
          "type": "address"
        },
        {
          "internalType": "address",
          "name": "denominationToken",
          "type": "address"
        },
        {
          "internalType": "uint8",
          "name": "minBlocksBack",
          "type": "uint8"
        },
        {
          "internalType": "uint8",
          "name": "maxBlocksBack",
          "type": "uint8"
        },
        {
          "components": [
            {
              "internalType": "bytes",
              "name": "block",
              "type": "bytes"
            },
            {
              "internalType": "bytes",
              "name": "accountProofNodesRlp",
              "type": "bytes"
            },
            {
              "internalType": "bytes",
              "name": "reserveAndTimestampProofNodesRlp",
              "type": "bytes"
            },
            {
              "internalType": "bytes",
              "name": "priceAccumulatorProofNodesRlp",
              "type": "bytes"
            }
          ],
          "internalType": "struct UniswapOracle.ProofData",
          "name": "proofData",
          "type": "tuple"
        }
      ],
      "name": "getPrice",
      "outputs": [
        {
          "internalType": "uint256",
          "name": "price",
          "type": "uint256"
        },
        {
          "internalType": "uint256",
          "name": "blockNumber",
          "type": "uint256"
        }
      ],
      "stateMutability": "view",
      "type": "function"
    },
    {
      "inputs": [
        {
          "internalType": "contract IUniswapV2Pair",
          "name": "uniswapV2Pair",
          "type": "address"
        },
        {
          "internalType": "bool",
          "name": "denominationTokenIs0",
          "type": "bool"
        },
        {
          "internalType": "uint8",
          "name": "minBlocksBack",
          "type": "uint8"
        },
        {
          "internalType": "uint8",
          "name": "maxBlocksBack",
          "type": "uint8"
        },
        {
          "components": [
            {
              "internalType": "bytes",
              "name": "block",
              "type": "bytes"
            },
            {
              "internalType": "bytes",
              "name": "accountProofNodesRlp",
              "type": "bytes"
            },
            {
              "internalType": "bytes",
              "name": "reserveAndTimestampProofNodesRlp",
              "type": "bytes"
            },
            {
              "internalType": "bytes",
              "name": "priceAccumulatorProofNodesRlp",
              "type": "bytes"
            }
          ],
          "internalType": "struct UniswapOracle.ProofData",
          "name": "proofData",
          "type": "tuple"
        }
      ],
      "name": "getPriceRaw",
      "outputs": [
        {
          "internalType": "uint256",
          "name": "price",
          "type": "uint256"
        },
        {
          "internalType": "uint256",
          "name": "blockNumber",
          "type": "uint256"
        }
      ],
      "stateMutability": "view",
      "type": "function"
    },
    {
      "inputs": [],
      "name": "reserveTimestampSlotHash",
      "outputs": [
        {
          "internalType": "bytes32",
          "name": "",
          "type": "bytes32"
        }
      ],
      "stateMutability": "view",
      "type": "function"
    },
    {
      "inputs": [],
      "name": "token0Slot",
      "outputs": [
        {
          "internalType": "bytes32",
          "name": "",
          "type": "bytes32"
        }
      ],
      "stateMutability": "view",
      "type": "function"
    },
    {
      "inputs": [],
      "name": "token1Slot",
      "outputs": [
        {
          "internalType": "bytes32",
          "name": "",
          "type": "bytes32"
        }
      ],
      "stateMutability": "view",
      "type": "function"
    },
    {
      "inputs": [
        {
          "internalType": "contract IUniswapV2Pair",
          "name": "uniswapV2Pair",
          "type": "address"
        },
        {
          "internalType": "uint8",
          "name": "minBlocksBack",
          "type": "uint8"
        },
        {
          "internalType": "uint8",
          "name": "maxBlocksBack",
          "type": "uint8"
        },
        {
          "internalType": "bytes32",
          "name": "slotHash",
          "type": "bytes32"
        },
        {
          "components": [
            {
              "internalType": "bytes",
              "name": "block",
              "type": "bytes"
            },
            {
              "internalType": "bytes",
              "name": "accountProofNodesRlp",
              "type": "bytes"
            },
            {
              "internalType": "bytes",
              "name": "reserveAndTimestampProofNodesRlp",
              "type": "bytes"
            },
            {
              "internalType": "bytes",
              "name": "priceAccumulatorProofNodesRlp",
              "type": "bytes"
            }
          ],
          "internalType": "struct UniswapOracle.ProofData",
          "name": "proofData",
          "type": "tuple"
        }
      ],
      "name": "verifyBlockAndExtractReserveData",
      "outputs": [
        {
          "internalType": "uint256",
          "name": "blockTimestamp",
          "type": "uint256"
        },
        {
          "internalType": "uint256",
          "name": "blockNumber",
          "type": "uint256"
        },
        {
          "internalType": "uint256",
          "name": "priceCumulativeLast",
          "type": "uint256"
        },
        {
          "internalType": "uint112",
          "name": "reserve0",
          "type": "uint112"
        },
        {
          "internalType": "uint112",
          "name": "reserve1",
          "type": "uint112"
        },
        {
          "internalType": "uint256",
          "name": "reserveTimestamp",
          "type": "uint256"
        }
      ],
      "stateMutability": "view",
      "type": "function"
    }
  ],
  "bytecode": {
    "object": "0x608060405234801561001057600080fd5b50611e18806100206000396000f3fe608060405234801561001057600080fd5b50600436106100885760003560e01c8063ad1a9a711161005b578063ad1a9a7114610104578063e46e26801461012c578063e65d3dcd1461013f578063f32846241461015257600080fd5b80632432a15f1461008d578063545f51a4146100a857806372f4262f146100b057806392f4e5ef146100fc575b600080fd5b610095610180565b6040519081526020015b60405180910390f35b6100956101a6565b6100c36100be366004611a2d565b6101b7565b604080519687526020870195909552938501929092526001600160701b03908116606085015216608083015260a082015260c00161009f565b610095610323565b610117610112366004611aa8565b610334565b6040805192835260208301919091520161009f565b61009561013a366004611b23565b6104a3565b61011761014d366004611b58565b610650565b610165610160366004611b89565b61075b565b6040805193845260208401929092529082015260600161009f565b6040805160096020820152015b6040516020818303038152906040528051906020012081565b60408051600860208201520161018d565b60008060008060008060006101cc8c8961075b565b9850965090506101df60ff8c1643611bef565b86111561023d5760405162461bcd60e51b815260206004820152602160248201527f50726f6f6620646f6573206e6f74207370616e20656e6f75676820626c6f636b6044820152607360f81b60648201526084015b60405180910390fd5b61024a60ff8b1643611bef565b8610156102995760405162461bcd60e51b815260206004820152601b60248201527f50726f6f66207370616e7320746f6f206d616e7920626c6f636b7300000000006044820152606401610234565b6102b06102ab828b8b60600151610805565b610ba0565b945060006102ef6102ab8360086040516020016102cf91815260200190565b604051602081830303815290604052805190602001208c60400151610805565b905060e081901c9250607081901c6001600160701b03169350806001600160701b0316945050509550955095509550955095565b60408051600a60208201520161018d565b6000806000866001600160a01b0316886001600160a01b0316630dfe16816040518163ffffffff1660e01b8152600401602060405180830381865afa158015610381573d6000803e3d6000fd5b505050506040513d601f19601f820116820180604052508101906103a59190611c06565b6001600160a01b031614156103bc57506001610487565b866001600160a01b0316886001600160a01b031663d21220a76040518163ffffffff1660e01b8152600401602060405180830381865afa158015610404573d6000803e3d6000fd5b505050506040513d601f19601f820116820180604052508101906104289190611c06565b6001600160a01b0316141561043f57506000610487565b60405162461bcd60e51b815260206004820152601960248201527f64656e6f6d696e6174696f6e546f6b656e20696e76616c6964000000000000006044820152606401610234565b6104948882888888610650565b92509250509550959350505050565b600080600080856001600160a01b0316630902f1ac6040518163ffffffff1660e01b8152600401606060405180830381865afa1580156104e7573d6000803e3d6000fd5b505050506040513d601f19601f8201168201806040525081019061050b9190611c3a565b9250925092508461057d57856001600160a01b0316635909c0d56040518163ffffffff1660e01b8152600401602060405180830381865afa158015610554573d6000803e3d6000fd5b505050506040513d601f19601f820116820180604052508101906105789190611c8a565b6105df565b856001600160a01b0316635a3d54936040518163ffffffff1660e01b8152600401602060405180830381865afa1580156105bb573d6000803e3d6000fd5b505050506040513d601f19601f820116820180604052508101906105df9190611c8a565b935060006105f363ffffffff831642611bef565b9050610628866106035784610605565b835b610619886106135785610bb9565b86610bb9565b6001600160e01b031690610bd2565b61063b906001600160e01b031682611ca3565b6106459086611cc2565b979650505050505050565b60008060008060008060006106b68c8b8b8e61068d57604080516009602082015201604051602081830303815290604052805190602001206106b0565b60408051600a602082015201604051602081830303815290604052805190602001205b8c6101b7565b939a509398509096509450909250905060006106d28287611bef565b90508015610718576106f88c6106e857846106ea565b835b6106198e6106135785610bb9565b61070b906001600160e01b031682611ca3565b6107159086611cc2565b94505b505050506000824261072a9190611bef565b905080826107388c8c6104a3565b6107429190611bef565b61074c9190611cf0565b94505050509550959350505050565b60008060008061076e8560000151610be7565b6040516bffffffffffffffffffffffff1960608b901b1660208201529095509093509091506000906107bf908390603401604051602081830303815290604052805190602001208860200151610805565b905060006107d46107cf83610d08565b610d57565b90506107f9816002815181106107ec576107ec611d04565b6020026020010151610e76565b95505050509250925092565b6060600061081283610d08565b9050600061081f82610d57565b6040805160218082526060828101909352929350909182918991600091829160208201818036833701905050905089602182015261085c81610e81565b90506108818660008151811061087457610874611d04565b6020026020010151611039565b945060005b8651811015610b575781518311156108d05760405162461bcd60e51b815260206004820152600d60248201526c50617468206f766572666c6f7760981b6044820152606401610234565b6108e587828151811061087457610874611d04565b9550858051906020012084146109365760405162461bcd60e51b81526020600482015260166024820152756e6f646520646f65736e2774206d61746368206b657960501b6044820152606401610234565b61095887828151811061094b5761094b611d04565b6020026020010151610d57565b9450845160111415610a2d57815183141561099f576109908560108151811061098357610983611d04565b60200260200101516110dd565b98505050505050505050610b99565b60008284815181106109b3576109b3611d04565b016020015160f81c90506010811115610a005760405162461bcd60e51b815260206004820152600f60248201526e6e6962626c6520746f6f206c6f6e6760881b6044820152606401610234565b610a18868260ff16815181106107ec576107ec611d04565b9450610a25600185611cc2565b935050610b45565b845160021415610afd57610a57610a508660008151811061098357610983611d04565b838561115c565b610a619084611cc2565b92508151831415610a82576109908560018151811061098357610983611d04565b610a9b610a508660008151811061098357610983611d04565b610ae05760405162461bcd60e51b8152602060048201526016602482015275696e76616c696420657874656e73696f6e206e6f646560501b6044820152606401610234565b610af6856001815181106107ec576107ec611d04565b9350610b45565b60405162461bcd60e51b815260206004820152601760248201527f756e6578706563746564206c656e6774682061727261790000000000000000006044820152606401610234565b80610b4f81611d1a565b915050610886565b5060405162461bcd60e51b81526020600482015260166024820152756e6f7420656e6f7567682070726f6f66206e6f64657360501b6044820152606401610234565b9392505050565b6000610bb3610bae83610d08565b611266565b92915050565b6000610bb3600160701b6001600160701b038416611d35565b6000610b996001600160701b03831684611d64565b6000806000610c50565b62461bcd60e51b6000526020600452816024528060445250806044016000fd5b600080825160001a6080811060018114610c30578015610c3c57610c49565b84935060019250610c49565b6001850193506080820392505b5050915091565b83516020850194607b81019060009081906101e001610c6e81610c11565b019050610c7a81610c11565b9250925050600080828401610c8e81610c11565b019050610c9a81610c11565b019050610ca681610c11565b9250925050835160088402610100031c965086409350858a209550858414610cea57610cea6014730c4d8dec6d690c2e6d040427a40e4d8e090c2e6d60631b610bf1565b84519850815160088202610100031c97505050505050509193909250565b6040805180820190915260008082526020820152815180610d3e5750506040805180820190915260008082526020820152919050565b6040805180820190915260209384018152928301525090565b6060610d6282611364565b610da55760405162461bcd60e51b8152602060048201526014602482015273526c702e736f6c3a526c703a746f4c6973743a3160601b6044820152606401610234565b6000610db08361138b565b905060008167ffffffffffffffff811115610dcd57610dcd6118a8565b604051908082528060200260200182016040528015610e1257816020015b6040805180820190915260008082526020820152815260200190600190039081610deb5790505b5090506000610e208561141d565b905060005b610e2e826114dc565b15610e6c57610e3c82611500565b838281518110610e4e57610e4e611d04565b60200260200101819052508080610e6490611d1a565b915050610e25565b5090949350505050565b6000610bb382611266565b606080825160001415610e945792915050565b600080610ea2600086611593565b60f81c90506001811480610eb957508060ff166003145b15610f6157600185516002610ece9190611ca3565b610ed89190611bef565b67ffffffffffffffff811115610ef057610ef06118a8565b6040519080825280601f01601f191660200182016040528015610f1a576020820181803683370190505b5092506000610f2a600187611593565b90508084600081518110610f4057610f40611d04565b60200101906001600160f81b031916908160001a9053506001925050610fc5565b600285516002610f719190611ca3565b610f7b9190611bef565b67ffffffffffffffff811115610f9357610f936118a8565b6040519080825280601f01601f191660200182016040528015610fbd576020820181803683370190505b509250600091505b60ff82165b835181101561102f57610ff4610fe360ff851683611bef565b610fee906002611cc2565b87611593565b84828151811061100657611006611d04565b60200101906001600160f81b031916908160001a9053508061102781611d1a565b915050610fca565b5091949350505050565b6020810151606090806110865760405162461bcd60e51b81526020600482015260156024820152742936381739b7b61d2936381d3a37a13cba32b99d1960591b6044820152606401610234565b60608167ffffffffffffffff8111156110a1576110a16118a8565b6040519080825280601f01601f1916602001820160405280156110cb576020820181803683370190505b509050610b9984600001518284611614565b60606110e882611652565b6110f157600080fd5b6000806110fd84611678565b9150915060608167ffffffffffffffff81111561111c5761111c6118a8565b6040519080825280601f01601f191660200182016040528015611146576020820181803683370190505b509050611154838284611614565b949350505050565b600080600061116a86610e81565b90506000815167ffffffffffffffff811115611188576111886118a8565b6040519080825280601f01601f1916602001820160405280156111b2576020820181803683370190505b509050845b82516111c39087611cc2565b8110156112365760008782815181106111de576111de611d04565b01602001516001600160f81b031916905080836111fb8985611bef565b8151811061120b5761120b611d04565b60200101906001600160f81b031916908160001a90535050808061122e90611d1a565b9150506111b7565b50808051906020012082805190602001201415611256578151925061125b565b600092505b509095945050505050565b600061127182611652565b6112b45760405162461bcd60e51b8152602060048201526014602482015273526c702e736f6c3a526c703a746f55696e743a3160601b6044820152606401610234565b6000806112c084611678565b91509150602081111561130c5760405162461bcd60e51b8152602060048201526014602482015273526c702e736f6c3a526c703a746f55696e743a3360601b6044820152606401610234565b806113505760405162461bcd60e51b8152602060048201526014602482015273149b1c0b9cdbdb0e949b1c0e9d1bd55a5b9d0e8d60621b6044820152606401610234565b90516020919091036101000a900492915050565b600081602001516000141561137b57506000919050565b50515160c060009190911a101590565b600061139682611364565b6113a257506000919050565b81518051600090811a91906113b685611756565b6113c09083611cc2565b9050600060018660200151846113d69190611cc2565b6113e09190611bef565b905060005b818311611413576113f5836117dc565b6113ff9084611cc2565b92508061140b81611d1a565b9150506113e5565b9695505050505050565b604080516080810182526000918101828152606082018390528152602081019190915261144982611364565b61148e5760405162461bcd60e51b8152602060048201526016602482015275526c702e736f6c3a526c703a6974657261746f723a3160501b6044820152606401610234565b600061149983611756565b83516114a59190611cc2565b90506114d0604080516080810182526000918101828152606082018390528152602081019190915290565b92835260208301525090565b805160208101518151600092916114f291611cc2565b836020015110915050919050565b604080518082019091526000808252602082015261151d826114dc565b61155e5760405162461bcd60e51b8152602060048201526012602482015271526c702e736f6c3a526c703a6e6578743a3160701b6044820152606401610234565b6020820151600061156e826117dc565b8284526020840181905290506115848183611cc2565b60209094019390935250919050565b60006115a0600284611d8a565b156115da576010826115b3600286611cf0565b815181106115c3576115c3611d04565b01602001516115d5919060f81c611d9e565b61160a565b6010826115e8600286611cf0565b815181106115f8576115f8611d04565b016020015161160a919060f81c611dc0565b60f81b9392505050565b6020601f820104836020840160005b8381101561163f57602081028381015190830152600101611623565b5050505060008251602001830152505050565b600081602001516000141561166957506000919050565b50515160c060009190911a1090565b60008061168483611652565b6116c85760405162461bcd60e51b8152602060048201526015602482015274526c702e736f6c3a526c703a5f6465636f64653a3160581b6044820152606401610234565b8251805160001a9060808210156116e457946001945092505050565b60b882101561171257600185602001516116fe9190611bef565b925061170b816001611cc2565b9350610c49565b602085015160b619830190819061172b90600190611bef565b6117359190611bef565b93506117418183611cc2565b61174c906001611cc2565b9450505050915091565b600081602001516000141561176d57506000919050565b8151805160001a906080821015611788575060009392505050565b60b88210806117a3575060c082101580156117a3575060f882105b156117b2575060019392505050565b60c08210156117d1576117c660b783611bef565b611154906001611cc2565b6117c660f783611bef565b8051600090811a60808110156117f55760019150611874565b60b881101561181b57611809608082611bef565b611814906001611cc2565b9150611874565b60c081101561184457600183015160b76020839003016101000a9004810160b519019150611874565b60f88110156118585761180960c082611bef565b600183015160f76020839003016101000a9004810160f5190191505b50919050565b6001600160a01b038116811461188f57600080fd5b50565b803560ff811681146118a357600080fd5b919050565b634e487b7160e01b600052604160045260246000fd5b6040516080810167ffffffffffffffff811182821017156118e1576118e16118a8565b60405290565b600082601f8301126118f857600080fd5b813567ffffffffffffffff80821115611913576119136118a8565b604051601f8301601f19908116603f0116810190828211818310171561193b5761193b6118a8565b8160405283815286602085880101111561195457600080fd5b836020870160208301376000602085830101528094505050505092915050565b60006080828403121561198657600080fd5b61198e6118be565b9050813567ffffffffffffffff808211156119a857600080fd5b6119b4858386016118e7565b835260208401359150808211156119ca57600080fd5b6119d6858386016118e7565b602084015260408401359150808211156119ef57600080fd5b6119fb858386016118e7565b60408401526060840135915080821115611a1457600080fd5b50611a21848285016118e7565b60608301525092915050565b600080600080600060a08688031215611a4557600080fd5b8535611a508161187a565b9450611a5e60208701611892565b9350611a6c60408701611892565b925060608601359150608086013567ffffffffffffffff811115611a8f57600080fd5b611a9b88828901611974565b9150509295509295909350565b600080600080600060a08688031215611ac057600080fd5b8535611acb8161187a565b94506020860135611adb8161187a565b9350611ae960408701611892565b9250611af760608701611892565b9150608086013567ffffffffffffffff811115611a8f57600080fd5b803580151581146118a357600080fd5b60008060408385031215611b3657600080fd5b8235611b418161187a565b9150611b4f60208401611b13565b90509250929050565b600080600080600060a08688031215611b7057600080fd5b8535611b7b8161187a565b9450611adb60208701611b13565b60008060408385031215611b9c57600080fd5b8235611ba78161187a565b9150602083013567ffffffffffffffff811115611bc357600080fd5b611bcf85828601611974565b9150509250929050565b634e487b7160e01b600052601160045260246000fd5b600082821015611c0157611c01611bd9565b500390565b600060208284031215611c1857600080fd5b8151610b998161187a565b80516001600160701b03811681146118a357600080fd5b600080600060608486031215611c4f57600080fd5b611c5884611c23565b9250611c6660208501611c23565b9150604084015163ffffffff81168114611c7f57600080fd5b809150509250925092565b600060208284031215611c9c57600080fd5b5051919050565b6000816000190483118215151615611cbd57611cbd611bd9565b500290565b60008219821115611cd557611cd5611bd9565b500190565b634e487b7160e01b600052601260045260246000fd5b600082611cff57611cff611cda565b500490565b634e487b7160e01b600052603260045260246000fd5b6000600019821415611d2e57611d2e611bd9565b5060010190565b60006001600160e01b0382811684821681151582840482111615611d5b57611d5b611bd9565b02949350505050565b60006001600160e01b0383811680611d7e57611d7e611cda565b92169190910492915050565b600082611d9957611d99611cda565b500690565b600060ff831680611db157611db1611cda565b8060ff84160691505092915050565b600060ff831680611dd357611dd3611cda565b8060ff8416049150509291505056fea26469706673582212208e6a3cd54e2c1ec16f787fbef178fe0d7cff8757248211a3ea7c2eaf4342f9f964736f6c634300080a0033",
    "linkReferences": {}
  }
}