{
  "abi": [
    {
      "inputs": [
        {
          "internalType": "address",
          "name": "_keep3rV2OracleFactory",
          "type": "address"
        },
        {
          "internalType": "address",
          "name": "_uniswapV2Factory",
          "type": "address"
        }
      ],
      "stateMutability": "nonpayable",
      "type": "constructor"
    },
    {
      "inputs": [],
      "name": "MIN_TWAP_TIME",
      "outputs": [
        {
          "internalType": "uint256",
          "name": "",
          "type": "uint256"
        }
      ],
      "stateMutability": "view",
      "type": "function"
    },
    {
      "inputs": [],
      "name": "WETH_ADDRESS",
      "outputs": [
        {
          "internalType": "address",
          "name": "",
          "type": "address"
        }
      ],
      "stateMutability": "view",
      "type": "function"
    },
    {
      "inputs": [
        {
          "internalType": "contract ICToken",
          "name": "cToken",
          "type": "address"
        }
      ],
      "name": "getUnderlyingPrice",
      "outputs": [
        {
          "internalType": "uint256",
          "name": "",
          "type": "uint256"
        }
      ],
      "stateMutability": "view",
      "type": "function"
    },
    {
      "inputs": [],
      "name": "keep3rV2OracleFactory",
      "outputs": [
        {
          "internalType": "contract Keep3rV2OracleFactory",
          "name": "",
          "type": "address"
        }
      ],
      "stateMutability": "view",
      "type": "function"
    },
    {
      "inputs": [
        {
          "internalType": "address",
          "name": "underlying",
          "type": "address"
        }
      ],
      "name": "price",
      "outputs": [
        {
          "internalType": "uint256",
          "name": "",
          "type": "uint256"
        }
      ],
      "stateMutability": "view",
      "type": "function"
    },
    {
      "inputs": [],
      "name": "uniswapV2Factory",
      "outputs": [
        {
          "internalType": "contract IUniswapV2Factory",
          "name": "",
          "type": "address"
        }
      ],
      "stateMutability": "view",
      "type": "function"
    }
  ],
  "bytecode": {
    "object": "0x60c060405234801561001057600080fd5b5060405161116e38038061116e83398101604081905261002f91610062565b6001600160a01b039182166080521660a052610095565b80516001600160a01b038116811461005d57600080fd5b919050565b6000806040838503121561007557600080fd5b61007e83610046565b915061008c60208401610046565b90509250929050565b60805160a0516110a16100cd6000396000818160cb015261032d015260008181606c0152818161048e015261080201526110a16000f3fe608060405234801561001057600080fd5b50600436106100625760003560e01c806302c6cc6a14610067578063040141e5146100ab57806359d0f713146100c6578063aea91078146100ed578063af8a9ba51461010e578063fc57d4df14610117575b600080fd5b61008e7f000000000000000000000000000000000000000000000000000000000000000081565b6040516001600160a01b0390911681526020015b60405180910390f35b61008e73c02aaa39b223fe8d0a0e5c4f27ead9083c756cc281565b61008e7f000000000000000000000000000000000000000000000000000000000000000081565b6101006100fb366004610d87565b61012a565b6040519081526020016100a2565b61010061038481565b610100610125366004610d87565b61013b565b6000610135826102bb565b92915050565b6000816001600160a01b031663ac784ddc6040518163ffffffff1660e01b8152600401602060405180830381865afa15801561017b573d6000803e3d6000fd5b505050506040513d601f19601f8201168201806040525081019061019f9190610dab565b156101b35750670de0b6b3a7640000919050565b6000826001600160a01b0316636f307dc36040518163ffffffff1660e01b8152600401602060405180830381865afa1580156101f3573d6000803e3d6000fd5b505050506040513d601f19601f820116820180604052508101906102179190610dcd565b90506000816001600160a01b031663313ce5676040518163ffffffff1660e01b8152600401602060405180830381865afa158015610259573d6000803e3d6000fd5b505050506040513d601f19601f8201168201806040525081019061027d9190610dea565b61028b9060ff16600a610f07565b905080610297836102bb565b6102a990670de0b6b3a7640000610f13565b6102b39190610f48565b949350505050565b60006001600160a01b03821673c02aaa39b223fe8d0a0e5c4f27ead9083c756cc214156102f15750670de0b6b3a7640000919050565b60405163e6a4390560e01b81526001600160a01b03838116600483015273c02aaa39b223fe8d0a0e5c4f27ead9083c756cc260248301526000917f00000000000000000000000000000000000000000000000000000000000000009091169063e6a4390590604401602060405180830381865afa158015610376573d6000803e3d6000fd5b505050506040513d601f19601f8201168201806040525081019061039a9190610dcd565b90506000836001600160a01b031663313ce5676040518163ffffffff1660e01b8152600401602060405180830381865afa1580156103dc573d6000803e3d6000fd5b505050506040513d601f19601f820116820180604052508101906104009190610dea565b61040e9060ff16600a610f07565b9050670100000000000000818173c02aaa39b223fe8d0a0e5c4f27ead9083c756cc26001600160a01b0388161061044d576104488561046a565b610456565b610456856107de565b6104609190610f48565b6102a99190610f13565b604051632fba4aa960e01b81526001600160a01b03828116600483015260009182917f00000000000000000000000000000000000000000000000000000000000000001690632fba4aa990602401602060405180830381865afa1580156104d5573d6000803e3d6000fd5b505050506040513d601f19601f820116820180604052508101906104f99190610dcd565b90506000816001600160a01b0316631f7b6d326040518163ffffffff1660e01b8152600401602060405180830381865afa15801561053b573d6000803e3d6000fd5b505050506040513d601f19601f8201168201806040525081019061055f9190610f6a565b61ffff169050600081116105b45760405162461bcd60e51b81526020600482015260176024820152763737903632b733ba3416989037b139b2b93b30ba34b7b760491b60448201526064015b60405180910390fd5b6000806001600160a01b03841663252c09d76105d1600186610f8e565b6040518263ffffffff1660e01b81526004016105ef91815260200190565b606060405180830381865afa15801561060c573d6000803e3d6000fd5b505050506040513d601f19601f820116820180604052508101906106309190610fd5565b92505063ffffffff169150610384426106499190610f8e565b821115610722576001831161069a5760405162461bcd60e51b81526020600482015260176024820152763737903632b733ba3416991037b139b2b93b30ba34b7b760491b60448201526064016105ab565b6001600160a01b03841663252c09d76106b4600286610f8e565b6040518263ffffffff1660e01b81526004016106d291815260200190565b606060405180830381865afa1580156106ef573d6000803e3d6000fd5b505050506040513d601f19601f820116820180604052508101906107139190610fd5565b63ffffffff9092169350909150505b600061072e8342610f8e565b90506103848110156107825760405162461bcd60e51b815260206004820181905260248201527f6e6f20545741502073617469736679696e67204d494e5f545741505f54494d4560448201526064016105ab565b6000670de0b6b3a76400006107a46001600160701b038516600160701b610f13565b6107ae9190610f48565b905060006107bb89610b32565b9050844203828203816107d0576107d0610f32565b049998505050505050505050565b604051632fba4aa960e01b81526001600160a01b03828116600483015260009182917f00000000000000000000000000000000000000000000000000000000000000001690632fba4aa990602401602060405180830381865afa158015610849573d6000803e3d6000fd5b505050506040513d601f19601f8201168201806040525081019061086d9190610dcd565b90506000816001600160a01b0316631f7b6d326040518163ffffffff1660e01b8152600401602060405180830381865afa1580156108af573d6000803e3d6000fd5b505050506040513d601f19601f820116820180604052508101906108d39190610f6a565b61ffff169050600081116109235760405162461bcd60e51b81526020600482015260176024820152763737903632b733ba3416989037b139b2b93b30ba34b7b760491b60448201526064016105ab565b6000806001600160a01b03841663252c09d7610940600186610f8e565b6040518263ffffffff1660e01b815260040161095e91815260200190565b606060405180830381865afa15801561097b573d6000803e3d6000fd5b505050506040513d601f19601f8201168201806040525081019061099f9190610fd5565b506001600160701b0316915063ffffffff169150610384426109c19190610f8e565b821115610aa25760018311610a125760405162461bcd60e51b81526020600482015260176024820152763737903632b733ba3416991037b139b2b93b30ba34b7b760491b60448201526064016105ab565b6001600160a01b03841663252c09d7610a2c600286610f8e565b6040518263ffffffff1660e01b8152600401610a4a91815260200190565b606060405180830381865afa158015610a67573d6000803e3d6000fd5b505050506040513d601f19601f82011682018060405250810190610a8b9190610fd5565b5063ffffffff90911692506001600160701b031690505b6000610aae8342610f8e565b9050610384811015610b025760405162461bcd60e51b815260206004820181905260248201527f6e6f20545741502073617469736679696e67204d494e5f545741505f54494d4560448201526064016105ab565b6000670de0b6b3a7640000610b1b84600160701b610f13565b610b259190610f48565b905060006107bb89610c5c565b600080429050826001600160a01b0316635a3d54936040518163ffffffff1660e01b8152600401602060405180830381865afa158015610b76573d6000803e3d6000fd5b505050506040513d601f19601f82011682018060405250810190610b9a9190611018565b91506000806000856001600160a01b0316630902f1ac6040518163ffffffff1660e01b8152600401606060405180830381865afa158015610bdf573d6000803e3d6000fd5b505050506040513d601f19601f82011682018060405250810190610c039190611031565b92506001600160701b031692506001600160701b031692508363ffffffff168163ffffffff1614610c535780840363ffffffff811683607086901b81610c4b57610c4b610f32565b040286019550505b50505050919050565b600080429050826001600160a01b0316635909c0d56040518163ffffffff1660e01b8152600401602060405180830381865afa158015610ca0573d6000803e3d6000fd5b505050506040513d601f19601f82011682018060405250810190610cc49190611018565b91506000806000856001600160a01b0316630902f1ac6040518163ffffffff1660e01b8152600401606060405180830381865afa158015610d09573d6000803e3d6000fd5b505050506040513d601f19601f82011682018060405250810190610d2d9190611031565b92506001600160701b031692506001600160701b03169250428163ffffffff1614610c535780840363ffffffff811684607085901b81610c4b57610c4b610f32565b6001600160a01b0381168114610d8457600080fd5b50565b600060208284031215610d9957600080fd5b8135610da481610d6f565b9392505050565b600060208284031215610dbd57600080fd5b81518015158114610da457600080fd5b600060208284031215610ddf57600080fd5b8151610da481610d6f565b600060208284031215610dfc57600080fd5b815160ff81168114610da457600080fd5b634e487b7160e01b600052601160045260246000fd5b600181815b80851115610e5e578160001904821115610e4457610e44610e0d565b80851615610e5157918102915b93841c9390800290610e28565b509250929050565b600082610e7557506001610135565b81610e8257506000610135565b8160018114610e985760028114610ea257610ebe565b6001915050610135565b60ff841115610eb357610eb3610e0d565b50506001821b610135565b5060208310610133831016604e8410600b8410161715610ee1575081810a610135565b610eeb8383610e23565b8060001904821115610eff57610eff610e0d565b029392505050565b6000610da48383610e66565b6000816000190483118215151615610f2d57610f2d610e0d565b500290565b634e487b7160e01b600052601260045260246000fd5b600082610f6557634e487b7160e01b600052601260045260246000fd5b500490565b600060208284031215610f7c57600080fd5b815161ffff81168114610da457600080fd5b600082821015610fa057610fa0610e0d565b500390565b805163ffffffff81168114610fb957600080fd5b919050565b80516001600160701b0381168114610fb957600080fd5b600080600060608486031215610fea57600080fd5b610ff384610fa5565b925061100160208501610fbe565b915061100f60408501610fbe565b90509250925092565b60006020828403121561102a57600080fd5b5051919050565b60008060006060848603121561104657600080fd5b61104f84610fbe565b925061105d60208501610fbe565b915061100f60408501610fa556fea2646970667358221220a83dad8fa00bd399890f3269333d427bd4fb0249aec62bd5eb4e0116d3aa7fb964736f6c634300080a0033",
    "linkReferences": {}
  }
}