{
  "abi": [
    {
      "inputs": [
        {
          "internalType": "address",
          "name": "_wtoken",
          "type": "address"
        }
      ],
      "stateMutability": "nonpayable",
      "type": "constructor"
    },
    {
      "inputs": [],
      "name": "MIN_TWAP_TIME",
      "outputs": [
        {
          "internalType": "uint256",
          "name": "",
          "type": "uint256"
        }
      ],
      "stateMutability": "view",
      "type": "function"
    },
    {
      "inputs": [],
      "name": "OBSERVATION_BUFFER",
      "outputs": [
        {
          "internalType": "uint8",
          "name": "",
          "type": "uint8"
        }
      ],
      "stateMutability": "view",
      "type": "function"
    },
    {
      "inputs": [
        {
          "internalType": "address",
          "name": "",
          "type": "address"
        }
      ],
      "name": "observationCount",
      "outputs": [
        {
          "internalType": "uint256",
          "name": "",
          "type": "uint256"
        }
      ],
      "stateMutability": "view",
      "type": "function"
    },
    {
      "inputs": [
        {
          "internalType": "address",
          "name": "",
          "type": "address"
        },
        {
          "internalType": "uint256",
          "name": "",
          "type": "uint256"
        }
      ],
      "name": "observations",
      "outputs": [
        {
          "internalType": "uint32",
          "name": "timestamp",
          "type": "uint32"
        },
        {
          "internalType": "uint256",
          "name": "price0Cumulative",
          "type": "uint256"
        },
        {
          "internalType": "uint256",
          "name": "price1Cumulative",
          "type": "uint256"
        }
      ],
      "stateMutability": "view",
      "type": "function"
    },
    {
      "inputs": [
        {
          "internalType": "address[]",
          "name": "tokenA",
          "type": "address[]"
        },
        {
          "internalType": "address[]",
          "name": "tokenB",
          "type": "address[]"
        },
        {
          "internalType": "address",
          "name": "factory",
          "type": "address"
        }
      ],
      "name": "pairsFor",
      "outputs": [
        {
          "internalType": "address[]",
          "name": "",
          "type": "address[]"
        }
      ],
      "stateMutability": "view",
      "type": "function"
    },
    {
      "inputs": [
        {
          "internalType": "address",
          "name": "underlying",
          "type": "address"
        },
        {
          "internalType": "address",
          "name": "baseToken",
          "type": "address"
        },
        {
          "internalType": "address",
          "name": "factory",
          "type": "address"
        }
      ],
      "name": "price",
      "outputs": [
        {
          "internalType": "uint256",
          "name": "",
          "type": "uint256"
        }
      ],
      "stateMutability": "view",
      "type": "function"
    },
    {
      "inputs": [
        {
          "internalType": "address",
          "name": "pair",
          "type": "address"
        }
      ],
      "name": "update",
      "outputs": [],
      "stateMutability": "nonpayable",
      "type": "function"
    },
    {
      "inputs": [
        {
          "internalType": "address[]",
          "name": "pairs",
          "type": "address[]"
        }
      ],
      "name": "update",
      "outputs": [],
      "stateMutability": "nonpayable",
      "type": "function"
    },
    {
      "inputs": [
        {
          "internalType": "address[]",
          "name": "pairs",
          "type": "address[]"
        },
        {
          "internalType": "address[]",
          "name": "baseTokens",
          "type": "address[]"
        },
        {
          "internalType": "uint256[]",
          "name": "minPeriods",
          "type": "uint256[]"
        },
        {
          "internalType": "uint256[]",
          "name": "deviationThresholds",
          "type": "uint256[]"
        }
      ],
      "name": "workable",
      "outputs": [
        {
          "internalType": "bool[]",
          "name": "",
          "type": "bool[]"
        }
      ],
      "stateMutability": "view",
      "type": "function"
    },
    {
      "inputs": [],
      "name": "wtoken",
      "outputs": [
        {
          "internalType": "address",
          "name": "",
          "type": "address"
        }
      ],
      "stateMutability": "view",
      "type": "function"
    }
  ],
  "bytecode": {
    "object": "0x60a060405234801561001057600080fd5b50604051611bd6380380611bd683398101604081905261002f91610040565b6001600160a01b0316608052610070565b60006020828403121561005257600080fd5b81516001600160a01b038116811461006957600080fd5b9392505050565b608051611b4b61008b60003960006101720152611b4b6000f3fe608060405234801561001057600080fd5b506004361061009e5760003560e01c80638eb7938b116100665780638eb7938b1461013f5780639c0591c81461016d578063af8a9ba5146101ac578063b9b2e68f146101b5578063de555942146101c857600080fd5b806302459966146100a35780631c1b8772146100dd578063290ad26e146100f2578063317f17dc1461010c578063421cd20c1461011f575b600080fd5b6100b66100b13660046115cb565b6101e8565b6040805163ffffffff90941684526020840192909252908201526060015b60405180910390f35b6100f06100eb3660046115f7565b610225565b005b6100fa600481565b60405160ff90911681526020016100d4565b6100f061011a366004611667565b61027b565b61013261012d3660046116a9565b610325565b6040516100d4919061172d565b61015f61014d3660046115f7565b60006020819052908152604090205481565b6040519081526020016100d4565b6101947f000000000000000000000000000000000000000000000000000000000000000081565b6040516001600160a01b0390911681526020016100d4565b61015f61038481565b61015f6101c336600461177a565b610504565b6101db6101d63660046117c5565b610654565b6040516100d49190611889565b6001602052816000526040600020816004811061020457600080fd5b600302018054600182015460029092015463ffffffff909116935090915083565b61022e816107fa565b6102785760405162461bcd60e51b81526020600482015260166024820152752330b4b632b2103a37903ab83230ba32903830b4b91760511b60448201526064015b60405180910390fd5b50565b6000805b828110156102d2576102b684848381811061029c5761029c6118c3565b90506020020160208101906102b191906115f7565b6107fa565b156102c057600191505b806102ca816118ef565b91505061027f565b50806103205760405162461bcd60e51b815260206004820152601e60248201527f4e6f2070616972732063616e20626520757064617465642028796574292e0000604482015260640161026f565b505050565b6060841580159061033557508483145b61039f5760405162461bcd60e51b815260206004820152603560248201527f546f6b656e206172726179206c656e67746873206d7573742062652065717561604482015274361030b7321033b932b0ba32b9103a3430b710181760591b606482015260840161026f565b60008567ffffffffffffffff8111156103ba576103ba61190a565b6040519080825280602002602001820160405280156103e3578160200160208202803683370190505b50905060005b868110156104f957836001600160a01b031663e6a43905898984818110610412576104126118c3565b905060200201602081019061042791906115f7565b888885818110610439576104396118c3565b905060200201602081019061044e91906115f7565b6040516001600160e01b031960e085901b1681526001600160a01b03928316600482015291166024820152604401602060405180830381865afa158015610499573d6000803e3d6000fd5b505050506040513d601f19601f820116820180604052508101906104bd9190611920565b8282815181106104cf576104cf6118c3565b6001600160a01b0390921660209283029190910190910152806104f1816118ef565b9150506103e9565b509695505050505050565b60405163e6a4390560e01b81526001600160a01b0384811660048301528381166024830152600091829184169063e6a4390590604401602060405180830381865afa158015610557573d6000803e3d6000fd5b505050506040513d601f19601f8201168201806040525081019061057b9190611920565b90506000856001600160a01b031663313ce5676040518163ffffffff1660e01b8152600401602060405180830381865afa1580156105bd573d6000803e3d6000fd5b505050506040513d601f19601f820116820180604052508101906105e1919061193d565b6105ef9060ff16600a611a44565b9050600160381b81600160381b876001600160a01b0316896001600160a01b0316106106235761061e85610a13565b61062c565b61062c85610c62565b6106369190611a66565b6106409190611a7a565b61064a9190611a66565b9695505050505050565b6060871580159061066457508786145b801561066f57508784145b801561067a57508782145b6106de5760405162461bcd60e51b815260206004820152602f60248201527f4172726179206c656e67746873206d75737420626520657175616c20616e642060448201526e33b932b0ba32b9103a3430b710181760891b606482015260840161026f565b60008867ffffffffffffffff8111156106f9576106f961190a565b604051908082528060200260200182016040528015610722578160200160208202803683370190505b50905060005b898110156107ec576107b88b8b83818110610745576107456118c3565b905060200201602081019061075a91906115f7565b8a8a8481811061076c5761076c6118c3565b905060200201602081019061078191906115f7565b898985818110610793576107936118c3565b905060200201358888868181106107ac576107ac6118c3565b90506020020135610ea6565b8282815181106107ca576107ca6118c3565b91151560209283029190910190910152806107e4816118ef565b915050610728565b509998505050505050505050565b600061080582611029565b61081157506000919050565b6000826001600160a01b0316635909c0d56040518163ffffffff1660e01b8152600401602060405180830381865afa158015610851573d6000803e3d6000fd5b505050506040513d601f19601f820116820180604052508101906108759190611a99565b90506000836001600160a01b0316635a3d54936040518163ffffffff1660e01b8152600401602060405180830381865afa1580156108b7573d6000803e3d6000fd5b505050506040513d601f19601f820116820180604052508101906108db9190611a99565b90506000846001600160a01b0316630902f1ac6040518163ffffffff1660e01b8152600401606060405180830381865afa15801561091d573d6000803e3d6000fd5b505050506040513d601f19601f820116820180604052508101906109419190611ace565b6040805160608101825263ffffffff8316815260208082018990528183018890526001600160a01b038b166000908152600182528381209181905292909220549295509350915061099490600490611b13565b600481106109a4576109a46118c3565b825160039190910291909101805463ffffffff191663ffffffff90921691909117815560208083015160018301556040928301516002909201919091556001600160a01b038716600090815290819052908120805491610a03836118ef565b9091555060019695505050505050565b6001600160a01b03811660009081526020819052604081205480610a795760405162461bcd60e51b815260206004820152601d60248201527f4e6f206c656e6774682d312054574150206f62736572766174696f6e2e000000604482015260640161026f565b6001600160a01b0383166000908152600160208190526040822090600490610aa19085611b27565b610aab9190611b13565b60048110610abb57610abb6118c3565b6040805160608101825260039290920292909201805463ffffffff1682526001810154602083015260020154918101919091529050610afc61038442611b27565b815163ffffffff161115610bcf5760018211610b5a5760405162461bcd60e51b815260206004820152601d60248201527f4e6f206c656e6774682d322054574150206f62736572766174696f6e2e000000604482015260640161026f565b6001600160a01b03841660009081526001602052604090206004610b7f600285611b27565b610b899190611b13565b60048110610b9957610b996118c3565b6040805160608101825260039290920292909201805463ffffffff16825260018101546020830152600201549181019190915290505b8051600090610be49063ffffffff1642611b27565b9050610384811015610c295760405162461bcd60e51b815260206004820152600e60248201526d2130b2102a2ba0a8103a34b6b29760911b604482015260640161026f565b6000610c34866110b5565b9050826000015163ffffffff1642038360400151820381610c5757610c57611a50565b049695505050505050565b6001600160a01b03811660009081526020819052604081205480610cc85760405162461bcd60e51b815260206004820152601d60248201527f4e6f206c656e6774682d312054574150206f62736572766174696f6e2e000000604482015260640161026f565b6001600160a01b0383166000908152600160208190526040822090600490610cf09085611b27565b610cfa9190611b13565b60048110610d0a57610d0a6118c3565b6040805160608101825260039290920292909201805463ffffffff1682526001810154602083015260020154918101919091529050610d4b61038442611b27565b815163ffffffff161115610e1e5760018211610da95760405162461bcd60e51b815260206004820152601d60248201527f4e6f206c656e6774682d322054574150206f62736572766174696f6e2e000000604482015260640161026f565b6001600160a01b03841660009081526001602052604090206004610dce600285611b27565b610dd89190611b13565b60048110610de857610de86118c3565b6040805160608101825260039290920292909201805463ffffffff16825260018101546020830152600201549181019190915290505b8051600090610e339063ffffffff1642611b27565b9050610384811015610e785760405162461bcd60e51b815260206004820152600e60248201526d2130b2102a2ba0a8103a34b6b29760911b604482015260640161026f565b6000610e83866111df565b9050826000015163ffffffff1642038360200151820381610c5757610c57611a50565b6001600160a01b038416600090815260208190526040812054610ecb57506001611021565b6000856001600160a01b0316630902f1ac6040518163ffffffff1660e01b8152600401606060405180830381865afa158015610f0b573d6000803e3d6000fd5b505050506040513d601f19601f82011682018060405250810190610f2f9190611ace565b92505050610384841015610f4557610384610f47565b835b6001600160a01b03871660009081526001602081815260408084209184905290922054600491610f7691611b27565b610f809190611b13565b60048110610f9057610f906118c3565b6003020154610fa59063ffffffff1642611b27565b11801561100857506001600160a01b03861660009081526001602081815260408084209184905290922054600491610fdc91611b27565b610fe69190611b13565b60048110610ff657610ff66118c3565b600302015463ffffffff828116911614155b801561101d57508261101a87876112f2565b10155b9150505b949350505050565b6001600160a01b03811660009081526020819052604081205415806110af57506001600160a01b03821660009081526001602081815260408084209184905290922054610384929160049161107e9190611b27565b6110889190611b13565b60048110611098576110986118c3565b60030201546110ad9063ffffffff1642611b27565b115b92915050565b600080429050826001600160a01b0316635a3d54936040518163ffffffff1660e01b8152600401602060405180830381865afa1580156110f9573d6000803e3d6000fd5b505050506040513d601f19601f8201168201806040525081019061111d9190611a99565b91506000806000856001600160a01b0316630902f1ac6040518163ffffffff1660e01b8152600401606060405180830381865afa158015611162573d6000803e3d6000fd5b505050506040513d601f19601f820116820180604052508101906111869190611ace565b92506001600160701b031692506001600160701b031692508363ffffffff168163ffffffff16146111d65780840363ffffffff811683607086901b816111ce576111ce611a50565b040286019550505b50505050919050565b600080429050826001600160a01b0316635909c0d56040518163ffffffff1660e01b8152600401602060405180830381865afa158015611223573d6000803e3d6000fd5b505050506040513d601f19601f820116820180604052508101906112479190611a99565b91506000806000856001600160a01b0316630902f1ac6040518163ffffffff1660e01b8152600401606060405180830381865afa15801561128c573d6000803e3d6000fd5b505050506040513d601f19601f820116820180604052508101906112b09190611ace565b92506001600160701b031692506001600160701b03169250428163ffffffff16146111d65780840363ffffffff811684607085901b816111ce576111ce611a50565b600080836001600160a01b0316630dfe16816040518163ffffffff1660e01b8152600401602060405180830381865afa158015611333573d6000803e3d6000fd5b505050506040513d601f19601f820116820180604052508101906113579190611920565b90506001600160a01b0380821690841614156000816113d757856001600160a01b031663d21220a76040518163ffffffff1660e01b8152600401602060405180830381865afa1580156113ae573d6000803e3d6000fd5b505050506040513d601f19601f820116820180604052508101906113d29190611920565b6113d9565b825b90506000816001600160a01b031663313ce5676040518163ffffffff1660e01b8152600401602060405180830381865afa15801561141b573d6000803e3d6000fd5b505050506040513d601f19601f8201168201806040525081019061143f919061193d565b61144d9060ff16600a611a44565b90506000600160381b82600160381b8661146f5761146a8b610a13565b611478565b6114788b610c62565b6114829190611a66565b61148c9190611a7a565b6114969190611a66565b9050600080896001600160a01b0316630902f1ac6040518163ffffffff1660e01b8152600401606060405180830381865afa1580156114d9573d6000803e3d6000fd5b505050506040513d601f19601f820116820180604052508101906114fd9190611ace565b506001600160701b031691506001600160701b0316915060008661153557816115268685611a7a565b6115309190611a66565b61154a565b826115408684611a7a565b61154a9190611a66565b905060008461156183670de0b6b3a7640000611a7a565b61156b9190611a66565b9050670de0b6b3a76400008110156115945761158f81670de0b6b3a7640000611b27565b6115a6565b6115a6670de0b6b3a764000082611b27565b9c9b505050505050505050505050565b6001600160a01b038116811461027857600080fd5b600080604083850312156115de57600080fd5b82356115e9816115b6565b946020939093013593505050565b60006020828403121561160957600080fd5b8135611614816115b6565b9392505050565b60008083601f84011261162d57600080fd5b50813567ffffffffffffffff81111561164557600080fd5b6020830191508360208260051b850101111561166057600080fd5b9250929050565b6000806020838503121561167a57600080fd5b823567ffffffffffffffff81111561169157600080fd5b61169d8582860161161b565b90969095509350505050565b6000806000806000606086880312156116c157600080fd5b853567ffffffffffffffff808211156116d957600080fd5b6116e589838a0161161b565b909750955060208801359150808211156116fe57600080fd5b5061170b8882890161161b565b909450925050604086013561171f816115b6565b809150509295509295909350565b6020808252825182820181905260009190848201906040850190845b8181101561176e5783516001600160a01b031683529284019291840191600101611749565b50909695505050505050565b60008060006060848603121561178f57600080fd5b833561179a816115b6565b925060208401356117aa816115b6565b915060408401356117ba816115b6565b809150509250925092565b6000806000806000806000806080898b0312156117e157600080fd5b883567ffffffffffffffff808211156117f957600080fd5b6118058c838d0161161b565b909a50985060208b013591508082111561181e57600080fd5b61182a8c838d0161161b565b909850965060408b013591508082111561184357600080fd5b61184f8c838d0161161b565b909650945060608b013591508082111561186857600080fd5b506118758b828c0161161b565b999c989b5096995094979396929594505050565b6020808252825182820181905260009190848201906040850190845b8181101561176e5783511515835292840192918401916001016118a5565b634e487b7160e01b600052603260045260246000fd5b634e487b7160e01b600052601160045260246000fd5b6000600019821415611903576119036118d9565b5060010190565b634e487b7160e01b600052604160045260246000fd5b60006020828403121561193257600080fd5b8151611614816115b6565b60006020828403121561194f57600080fd5b815160ff8116811461161457600080fd5b600181815b8085111561199b578160001904821115611981576119816118d9565b8085161561198e57918102915b93841c9390800290611965565b509250929050565b6000826119b2575060016110af565b816119bf575060006110af565b81600181146119d557600281146119df576119fb565b60019150506110af565b60ff8411156119f0576119f06118d9565b50506001821b6110af565b5060208310610133831016604e8410600b8410161715611a1e575081810a6110af565b611a288383611960565b8060001904821115611a3c57611a3c6118d9565b029392505050565b600061161483836119a3565b634e487b7160e01b600052601260045260246000fd5b600082611a7557611a75611a50565b500490565b6000816000190483118215151615611a9457611a946118d9565b500290565b600060208284031215611aab57600080fd5b5051919050565b80516001600160701b0381168114611ac957600080fd5b919050565b600080600060608486031215611ae357600080fd5b611aec84611ab2565b9250611afa60208501611ab2565b9150604084015163ffffffff811681146117ba57600080fd5b600082611b2257611b22611a50565b500690565b600082821015611b3957611b396118d9565b50039056fea164736f6c634300080a000a",
    "linkReferences": {}
  },
  "methodIdentifiers": {
    "MIN_TWAP_TIME()": "af8a9ba5",
    "OBSERVATION_BUFFER()": "290ad26e",
    "observationCount(address)": "8eb7938b",
    "observations(address,uint256)": "02459966",
    "pairsFor(address[],address[],address)": "421cd20c",
    "price(address,address,address)": "b9b2e68f",
    "update(address)": "1c1b8772",
    "update(address[])": "317f17dc",
    "workable(address[],address[],uint256[],uint256[])": "de555942",
    "wtoken()": "9c0591c8"
  },
  "id": 177
}