{
  "address": "0xA11FA108f875D2EeF8C5182008b4dA41897E96F0",
  "abi": [
    {
      "inputs": [],
      "stateMutability": "nonpayable",
      "type": "constructor"
    },
    {
      "anonymous": false,
      "inputs": [
        {
          "indexed": false,
          "internalType": "uint256",
          "name": "cashPrior",
          "type": "uint256"
        },
        {
          "indexed": false,
          "internalType": "uint256",
          "name": "interestAccumulated",
          "type": "uint256"
        },
        {
          "indexed": false,
          "internalType": "uint256",
          "name": "borrowIndex",
          "type": "uint256"
        },
        {
          "indexed": false,
          "internalType": "uint256",
          "name": "totalBorrows",
          "type": "uint256"
        }
      ],
      "name": "AccrueInterest",
      "type": "event"
    },
    {
      "anonymous": false,
      "inputs": [
        {
          "indexed": true,
          "internalType": "address",
          "name": "owner",
          "type": "address"
        },
        {
          "indexed": true,
          "internalType": "address",
          "name": "spender",
          "type": "address"
        },
        {
          "indexed": false,
          "internalType": "uint256",
          "name": "amount",
          "type": "uint256"
        }
      ],
      "name": "Approval",
      "type": "event"
    },
    {
      "anonymous": false,
      "inputs": [
        {
          "indexed": false,
          "internalType": "address",
          "name": "borrower",
          "type": "address"
        },
        {
          "indexed": false,
          "internalType": "uint256",
          "name": "borrowAmount",
          "type": "uint256"
        },
        {
          "indexed": false,
          "internalType": "uint256",
          "name": "accountBorrows",
          "type": "uint256"
        },
        {
          "indexed": false,
          "internalType": "uint256",
          "name": "totalBorrows",
          "type": "uint256"
        }
      ],
      "name": "Borrow",
      "type": "event"
    },
    {
      "anonymous": false,
      "inputs": [
        {
          "indexed": false,
          "internalType": "uint256",
          "name": "error",
          "type": "uint256"
        },
        {
          "indexed": false,
          "internalType": "uint256",
          "name": "info",
          "type": "uint256"
        },
        {
          "indexed": false,
          "internalType": "uint256",
          "name": "detail",
          "type": "uint256"
        }
      ],
      "name": "Failure",
      "type": "event"
    },
    {
      "anonymous": false,
      "inputs": [
        {
          "indexed": false,
          "internalType": "address",
          "name": "liquidator",
          "type": "address"
        },
        {
          "indexed": false,
          "internalType": "address",
          "name": "borrower",
          "type": "address"
        },
        {
          "indexed": false,
          "internalType": "uint256",
          "name": "repayAmount",
          "type": "uint256"
        },
        {
          "indexed": false,
          "internalType": "address",
          "name": "cTokenCollateral",
          "type": "address"
        },
        {
          "indexed": false,
          "internalType": "uint256",
          "name": "seizeTokens",
          "type": "uint256"
        }
      ],
      "name": "LiquidateBorrow",
      "type": "event"
    },
    {
      "anonymous": false,
      "inputs": [
        {
          "indexed": false,
          "internalType": "address",
          "name": "minter",
          "type": "address"
        },
        {
          "indexed": false,
          "internalType": "uint256",
          "name": "mintAmount",
          "type": "uint256"
        },
        {
          "indexed": false,
          "internalType": "uint256",
          "name": "mintTokens",
          "type": "uint256"
        }
      ],
      "name": "Mint",
      "type": "event"
    },
    {
      "anonymous": false,
      "inputs": [
        {
          "indexed": false,
          "internalType": "uint256",
          "name": "oldAdminFeeMantissa",
          "type": "uint256"
        },
        {
          "indexed": false,
          "internalType": "uint256",
          "name": "newAdminFeeMantissa",
          "type": "uint256"
        }
      ],
      "name": "NewAdminFee",
      "type": "event"
    },
    {
      "anonymous": false,
      "inputs": [
        {
          "indexed": false,
          "internalType": "contract ComptrollerInterface",
          "name": "oldComptroller",
          "type": "address"
        },
        {
          "indexed": false,
          "internalType": "contract ComptrollerInterface",
          "name": "newComptroller",
          "type": "address"
        }
      ],
      "name": "NewComptroller",
      "type": "event"
    },
    {
      "anonymous": false,
      "inputs": [
        {
          "indexed": false,
          "internalType": "uint256",
          "name": "oldFuseFeeMantissa",
          "type": "uint256"
        },
        {
          "indexed": false,
          "internalType": "uint256",
          "name": "newFuseFeeMantissa",
          "type": "uint256"
        }
      ],
      "name": "NewFuseFee",
      "type": "event"
    },
    {
      "anonymous": false,
      "inputs": [
        {
          "indexed": false,
          "internalType": "address",
          "name": "oldImplementation",
          "type": "address"
        },
        {
          "indexed": false,
          "internalType": "address",
          "name": "newImplementation",
          "type": "address"
        }
      ],
      "name": "NewImplementation",
      "type": "event"
    },
    {
      "anonymous": false,
      "inputs": [
        {
          "indexed": false,
          "internalType": "contract InterestRateModel",
          "name": "oldInterestRateModel",
          "type": "address"
        },
        {
          "indexed": false,
          "internalType": "contract InterestRateModel",
          "name": "newInterestRateModel",
          "type": "address"
        }
      ],
      "name": "NewMarketInterestRateModel",
      "type": "event"
    },
    {
      "anonymous": false,
      "inputs": [
        {
          "indexed": false,
          "internalType": "uint256",
          "name": "oldReserveFactorMantissa",
          "type": "uint256"
        },
        {
          "indexed": false,
          "internalType": "uint256",
          "name": "newReserveFactorMantissa",
          "type": "uint256"
        }
      ],
      "name": "NewReserveFactor",
      "type": "event"
    },
    {
      "anonymous": false,
      "inputs": [
        {
          "indexed": false,
          "internalType": "address",
          "name": "redeemer",
          "type": "address"
        },
        {
          "indexed": false,
          "internalType": "uint256",
          "name": "redeemAmount",
          "type": "uint256"
        },
        {
          "indexed": false,
          "internalType": "uint256",
          "name": "redeemTokens",
          "type": "uint256"
        }
      ],
      "name": "Redeem",
      "type": "event"
    },
    {
      "anonymous": false,
      "inputs": [
        {
          "indexed": false,
          "internalType": "address",
          "name": "payer",
          "type": "address"
        },
        {
          "indexed": false,
          "internalType": "address",
          "name": "borrower",
          "type": "address"
        },
        {
          "indexed": false,
          "internalType": "uint256",
          "name": "repayAmount",
          "type": "uint256"
        },
        {
          "indexed": false,
          "internalType": "uint256",
          "name": "accountBorrows",
          "type": "uint256"
        },
        {
          "indexed": false,
          "internalType": "uint256",
          "name": "totalBorrows",
          "type": "uint256"
        }
      ],
      "name": "RepayBorrow",
      "type": "event"
    },
    {
      "anonymous": false,
      "inputs": [
        {
          "indexed": false,
          "internalType": "address",
          "name": "benefactor",
          "type": "address"
        },
        {
          "indexed": false,
          "internalType": "uint256",
          "name": "addAmount",
          "type": "uint256"
        },
        {
          "indexed": false,
          "internalType": "uint256",
          "name": "newTotalReserves",
          "type": "uint256"
        }
      ],
      "name": "ReservesAdded",
      "type": "event"
    },
    {
      "anonymous": false,
      "inputs": [
        {
          "indexed": false,
          "internalType": "address",
          "name": "admin",
          "type": "address"
        },
        {
          "indexed": false,
          "internalType": "uint256",
          "name": "reduceAmount",
          "type": "uint256"
        },
        {
          "indexed": false,
          "internalType": "uint256",
          "name": "newTotalReserves",
          "type": "uint256"
        }
      ],
      "name": "ReservesReduced",
      "type": "event"
    },
    {
      "anonymous": false,
      "inputs": [
        {
          "indexed": true,
          "internalType": "address",
          "name": "from",
          "type": "address"
        },
        {
          "indexed": true,
          "internalType": "address",
          "name": "to",
          "type": "address"
        },
        {
          "indexed": false,
          "internalType": "uint256",
          "name": "amount",
          "type": "uint256"
        }
      ],
      "name": "Transfer",
      "type": "event"
    },
    {
      "inputs": [
        {
          "internalType": "bytes",
          "name": "data",
          "type": "bytes"
        }
      ],
      "name": "_becomeImplementation",
      "outputs": [],
      "stateMutability": "nonpayable",
      "type": "function"
    },
    {
      "inputs": [
        {
          "internalType": "address",
          "name": "compLikeDelegatee",
          "type": "address"
        }
      ],
      "name": "_delegateCompLikeTo",
      "outputs": [],
      "stateMutability": "nonpayable",
      "type": "function"
    },
    {
      "inputs": [],
      "name": "_prepare",
      "outputs": [],
      "stateMutability": "payable",
      "type": "function"
    },
    {
      "inputs": [
        {
          "internalType": "uint256",
          "name": "reduceAmount",
          "type": "uint256"
        }
      ],
      "name": "_reduceReserves",
      "outputs": [
        {
          "internalType": "uint256",
          "name": "",
          "type": "uint256"
        }
      ],
      "stateMutability": "nonpayable",
      "type": "function"
    },
    {
      "inputs": [
        {
          "internalType": "uint256",
          "name": "newAdminFeeMantissa",
          "type": "uint256"
        }
      ],
      "name": "_setAdminFee",
      "outputs": [
        {
          "internalType": "uint256",
          "name": "",
          "type": "uint256"
        }
      ],
      "stateMutability": "nonpayable",
      "type": "function"
    },
    {
      "inputs": [
        {
          "internalType": "address",
          "name": "implementation_",
          "type": "address"
        },
        {
          "internalType": "bool",
          "name": "allowResign",
          "type": "bool"
        },
        {
          "internalType": "bytes",
          "name": "becomeImplementationData",
          "type": "bytes"
        }
      ],
      "name": "_setImplementationSafe",
      "outputs": [],
      "stateMutability": "nonpayable",
      "type": "function"
    },
    {
      "inputs": [
        {
          "internalType": "contract InterestRateModel",
          "name": "newInterestRateModel",
          "type": "address"
        }
      ],
      "name": "_setInterestRateModel",
      "outputs": [
        {
          "internalType": "uint256",
          "name": "",
          "type": "uint256"
        }
      ],
      "stateMutability": "nonpayable",
      "type": "function"
    },
    {
      "inputs": [
        {
          "internalType": "string",
          "name": "_name",
          "type": "string"
        },
        {
          "internalType": "string",
          "name": "_symbol",
          "type": "string"
        }
      ],
      "name": "_setNameAndSymbol",
      "outputs": [],
      "stateMutability": "nonpayable",
      "type": "function"
    },
    {
      "inputs": [
        {
          "internalType": "uint256",
          "name": "newReserveFactorMantissa",
          "type": "uint256"
        }
      ],
      "name": "_setReserveFactor",
      "outputs": [
        {
          "internalType": "uint256",
          "name": "",
          "type": "uint256"
        }
      ],
      "stateMutability": "nonpayable",
      "type": "function"
    },
    {
      "inputs": [
        {
          "internalType": "uint256",
          "name": "withdrawAmount",
          "type": "uint256"
        }
      ],
      "name": "_withdrawAdminFees",
      "outputs": [
        {
          "internalType": "uint256",
          "name": "",
          "type": "uint256"
        }
      ],
      "stateMutability": "nonpayable",
      "type": "function"
    },
    {
      "inputs": [
        {
          "internalType": "uint256",
          "name": "withdrawAmount",
          "type": "uint256"
        }
      ],
      "name": "_withdrawFuseFees",
      "outputs": [
        {
          "internalType": "uint256",
          "name": "",
          "type": "uint256"
        }
      ],
      "stateMutability": "nonpayable",
      "type": "function"
    },
    {
      "inputs": [],
      "name": "accrualBlockNumber",
      "outputs": [
        {
          "internalType": "uint256",
          "name": "",
          "type": "uint256"
        }
      ],
      "stateMutability": "view",
      "type": "function"
    },
    {
      "inputs": [],
      "name": "accrueInterest",
      "outputs": [
        {
          "internalType": "uint256",
          "name": "",
          "type": "uint256"
        }
      ],
      "stateMutability": "nonpayable",
      "type": "function"
    },
    {
      "inputs": [],
      "name": "adminFeeMantissa",
      "outputs": [
        {
          "internalType": "uint256",
          "name": "",
          "type": "uint256"
        }
      ],
      "stateMutability": "view",
      "type": "function"
    },
    {
      "inputs": [
        {
          "internalType": "address",
          "name": "owner",
          "type": "address"
        },
        {
          "internalType": "address",
          "name": "spender",
          "type": "address"
        }
      ],
      "name": "allowance",
      "outputs": [
        {
          "internalType": "uint256",
          "name": "",
          "type": "uint256"
        }
      ],
      "stateMutability": "view",
      "type": "function"
    },
    {
      "inputs": [
        {
          "internalType": "address",
          "name": "spender",
          "type": "address"
        },
        {
          "internalType": "uint256",
          "name": "amount",
          "type": "uint256"
        }
      ],
      "name": "approve",
      "outputs": [
        {
          "internalType": "bool",
          "name": "",
          "type": "bool"
        }
      ],
      "stateMutability": "nonpayable",
      "type": "function"
    },
    {
      "inputs": [
        {
          "internalType": "address",
          "name": "owner",
          "type": "address"
        }
      ],
      "name": "balanceOf",
      "outputs": [
        {
          "internalType": "uint256",
          "name": "",
          "type": "uint256"
        }
      ],
      "stateMutability": "view",
      "type": "function"
    },
    {
      "inputs": [
        {
          "internalType": "address",
          "name": "owner",
          "type": "address"
        }
      ],
      "name": "balanceOfUnderlying",
      "outputs": [
        {
          "internalType": "uint256",
          "name": "",
          "type": "uint256"
        }
      ],
      "stateMutability": "nonpayable",
      "type": "function"
    },
    {
      "inputs": [
        {
          "internalType": "uint256",
          "name": "borrowAmount",
          "type": "uint256"
        }
      ],
      "name": "borrow",
      "outputs": [
        {
          "internalType": "uint256",
          "name": "",
          "type": "uint256"
        }
      ],
      "stateMutability": "nonpayable",
      "type": "function"
    },
    {
      "inputs": [
        {
          "internalType": "address",
          "name": "account",
          "type": "address"
        }
      ],
      "name": "borrowBalanceCurrent",
      "outputs": [
        {
          "internalType": "uint256",
          "name": "",
          "type": "uint256"
        }
      ],
      "stateMutability": "nonpayable",
      "type": "function"
    },
    {
      "inputs": [
        {
          "internalType": "address",
          "name": "account",
          "type": "address"
        }
      ],
      "name": "borrowBalanceStored",
      "outputs": [
        {
          "internalType": "uint256",
          "name": "",
          "type": "uint256"
        }
      ],
      "stateMutability": "view",
      "type": "function"
    },
    {
      "inputs": [],
      "name": "borrowIndex",
      "outputs": [
        {
          "internalType": "uint256",
          "name": "",
          "type": "uint256"
        }
      ],
      "stateMutability": "view",
      "type": "function"
    },
    {
      "inputs": [],
      "name": "borrowRatePerBlock",
      "outputs": [
        {
          "internalType": "uint256",
          "name": "",
          "type": "uint256"
        }
      ],
      "stateMutability": "view",
      "type": "function"
    },
    {
      "inputs": [],
      "name": "comptroller",
      "outputs": [
        {
          "internalType": "contract ComptrollerInterface",
          "name": "",
          "type": "address"
        }
      ],
      "stateMutability": "view",
      "type": "function"
    },
    {
      "inputs": [],
      "name": "decimals",
      "outputs": [
        {
          "internalType": "uint8",
          "name": "",
          "type": "uint8"
        }
      ],
      "stateMutability": "view",
      "type": "function"
    },
    {
      "inputs": [],
      "name": "exchangeRateCurrent",
      "outputs": [
        {
          "internalType": "uint256",
          "name": "",
          "type": "uint256"
        }
      ],
      "stateMutability": "nonpayable",
      "type": "function"
    },
    {
      "inputs": [],
      "name": "exchangeRateStored",
      "outputs": [
        {
          "internalType": "uint256",
          "name": "",
          "type": "uint256"
        }
      ],
      "stateMutability": "view",
      "type": "function"
    },
    {
      "inputs": [],
      "name": "fuseFeeMantissa",
      "outputs": [
        {
          "internalType": "uint256",
          "name": "",
          "type": "uint256"
        }
      ],
      "stateMutability": "view",
      "type": "function"
    },
    {
      "inputs": [
        {
          "internalType": "address",
          "name": "account",
          "type": "address"
        }
      ],
      "name": "getAccountSnapshot",
      "outputs": [
        {
          "internalType": "uint256",
          "name": "",
          "type": "uint256"
        },
        {
          "internalType": "uint256",
          "name": "",
          "type": "uint256"
        },
        {
          "internalType": "uint256",
          "name": "",
          "type": "uint256"
        },
        {
          "internalType": "uint256",
          "name": "",
          "type": "uint256"
        }
      ],
      "stateMutability": "view",
      "type": "function"
    },
    {
      "inputs": [],
      "name": "getCash",
      "outputs": [
        {
          "internalType": "uint256",
          "name": "",
          "type": "uint256"
        }
      ],
      "stateMutability": "view",
      "type": "function"
    },
    {
      "inputs": [],
      "name": "implementation",
      "outputs": [
        {
          "internalType": "address",
          "name": "",
          "type": "address"
        }
      ],
      "stateMutability": "view",
      "type": "function"
    },
    {
      "inputs": [
        {
          "internalType": "contract ComptrollerInterface",
          "name": "comptroller_",
          "type": "address"
        },
        {
          "internalType": "contract InterestRateModel",
          "name": "interestRateModel_",
          "type": "address"
        },
        {
          "internalType": "uint256",
          "name": "initialExchangeRateMantissa_",
          "type": "uint256"
        },
        {
          "internalType": "string",
          "name": "name_",
          "type": "string"
        },
        {
          "internalType": "string",
          "name": "symbol_",
          "type": "string"
        },
        {
          "internalType": "uint8",
          "name": "decimals_",
          "type": "uint8"
        },
        {
          "internalType": "uint256",
          "name": "reserveFactorMantissa_",
          "type": "uint256"
        },
        {
          "internalType": "uint256",
          "name": "adminFeeMantissa_",
          "type": "uint256"
        }
      ],
      "name": "initialize",
      "outputs": [],
      "stateMutability": "nonpayable",
      "type": "function"
    },
    {
      "inputs": [
        {
          "internalType": "address",
          "name": "underlying_",
          "type": "address"
        },
        {
          "internalType": "contract ComptrollerInterface",
          "name": "comptroller_",
          "type": "address"
        },
        {
          "internalType": "contract InterestRateModel",
          "name": "interestRateModel_",
          "type": "address"
        },
        {
          "internalType": "string",
          "name": "name_",
          "type": "string"
        },
        {
          "internalType": "string",
          "name": "symbol_",
          "type": "string"
        },
        {
          "internalType": "uint256",
          "name": "reserveFactorMantissa_",
          "type": "uint256"
        },
        {
          "internalType": "uint256",
          "name": "adminFeeMantissa_",
          "type": "uint256"
        }
      ],
      "name": "initialize",
      "outputs": [],
      "stateMutability": "nonpayable",
      "type": "function"
    },
    {
      "inputs": [],
      "name": "interestRateModel",
      "outputs": [
        {
          "internalType": "contract InterestRateModel",
          "name": "",
          "type": "address"
        }
      ],
      "stateMutability": "view",
      "type": "function"
    },
    {
      "inputs": [],
      "name": "isCEther",
      "outputs": [
        {
          "internalType": "bool",
          "name": "",
          "type": "bool"
        }
      ],
      "stateMutability": "nonpayable",
      "type": "function"
    },
    {
      "inputs": [],
      "name": "isCToken",
      "outputs": [
        {
          "internalType": "bool",
          "name": "",
          "type": "bool"
        }
      ],
      "stateMutability": "nonpayable",
      "type": "function"
    },
    {
      "inputs": [
        {
          "internalType": "address",
          "name": "borrower",
          "type": "address"
        },
        {
          "internalType": "uint256",
          "name": "repayAmount",
          "type": "uint256"
        },
        {
          "internalType": "contract CTokenInterface",
          "name": "cTokenCollateral",
          "type": "address"
        }
      ],
      "name": "liquidateBorrow",
      "outputs": [
        {
          "internalType": "uint256",
          "name": "",
          "type": "uint256"
        }
      ],
      "stateMutability": "nonpayable",
      "type": "function"
    },
    {
      "inputs": [
        {
          "internalType": "uint256",
          "name": "mintAmount",
          "type": "uint256"
        }
      ],
      "name": "mint",
      "outputs": [
        {
          "internalType": "uint256",
          "name": "",
          "type": "uint256"
        }
      ],
      "stateMutability": "nonpayable",
      "type": "function"
    },
    {
      "inputs": [],
      "name": "name",
      "outputs": [
        {
          "internalType": "string",
          "name": "",
          "type": "string"
        }
      ],
      "stateMutability": "view",
      "type": "function"
    },
    {
      "inputs": [],
      "name": "protocolSeizeShareMantissa",
      "outputs": [
        {
          "internalType": "uint256",
          "name": "",
          "type": "uint256"
        }
      ],
      "stateMutability": "view",
      "type": "function"
    },
    {
      "inputs": [
        {
          "internalType": "uint256",
          "name": "redeemTokens",
          "type": "uint256"
        }
      ],
      "name": "redeem",
      "outputs": [
        {
          "internalType": "uint256",
          "name": "",
          "type": "uint256"
        }
      ],
      "stateMutability": "nonpayable",
      "type": "function"
    },
    {
      "inputs": [
        {
          "internalType": "uint256",
          "name": "redeemAmount",
          "type": "uint256"
        }
      ],
      "name": "redeemUnderlying",
      "outputs": [
        {
          "internalType": "uint256",
          "name": "",
          "type": "uint256"
        }
      ],
      "stateMutability": "nonpayable",
      "type": "function"
    },
    {
      "inputs": [
        {
          "internalType": "uint256",
          "name": "repayAmount",
          "type": "uint256"
        }
      ],
      "name": "repayBorrow",
      "outputs": [
        {
          "internalType": "uint256",
          "name": "",
          "type": "uint256"
        }
      ],
      "stateMutability": "nonpayable",
      "type": "function"
    },
    {
      "inputs": [
        {
          "internalType": "address",
          "name": "borrower",
          "type": "address"
        },
        {
          "internalType": "uint256",
          "name": "repayAmount",
          "type": "uint256"
        }
      ],
      "name": "repayBorrowBehalf",
      "outputs": [
        {
          "internalType": "uint256",
          "name": "",
          "type": "uint256"
        }
      ],
      "stateMutability": "nonpayable",
      "type": "function"
    },
    {
      "inputs": [],
      "name": "reserveFactorMantissa",
      "outputs": [
        {
          "internalType": "uint256",
          "name": "",
          "type": "uint256"
        }
      ],
      "stateMutability": "view",
      "type": "function"
    },
    {
      "inputs": [
        {
          "internalType": "address",
          "name": "liquidator",
          "type": "address"
        },
        {
          "internalType": "address",
          "name": "borrower",
          "type": "address"
        },
        {
          "internalType": "uint256",
          "name": "seizeTokens",
          "type": "uint256"
        }
      ],
      "name": "seize",
      "outputs": [
        {
          "internalType": "uint256",
          "name": "",
          "type": "uint256"
        }
      ],
      "stateMutability": "nonpayable",
      "type": "function"
    },
    {
      "inputs": [],
      "name": "supplyRatePerBlock",
      "outputs": [
        {
          "internalType": "uint256",
          "name": "",
          "type": "uint256"
        }
      ],
      "stateMutability": "view",
      "type": "function"
    },
    {
      "inputs": [],
      "name": "symbol",
      "outputs": [
        {
          "internalType": "string",
          "name": "",
          "type": "string"
        }
      ],
      "stateMutability": "view",
      "type": "function"
    },
    {
      "inputs": [],
      "name": "totalAdminFees",
      "outputs": [
        {
          "internalType": "uint256",
          "name": "",
          "type": "uint256"
        }
      ],
      "stateMutability": "view",
      "type": "function"
    },
    {
      "inputs": [],
      "name": "totalBorrows",
      "outputs": [
        {
          "internalType": "uint256",
          "name": "",
          "type": "uint256"
        }
      ],
      "stateMutability": "view",
      "type": "function"
    },
    {
      "inputs": [],
      "name": "totalBorrowsCurrent",
      "outputs": [
        {
          "internalType": "uint256",
          "name": "",
          "type": "uint256"
        }
      ],
      "stateMutability": "nonpayable",
      "type": "function"
    },
    {
      "inputs": [],
      "name": "totalFuseFees",
      "outputs": [
        {
          "internalType": "uint256",
          "name": "",
          "type": "uint256"
        }
      ],
      "stateMutability": "view",
      "type": "function"
    },
    {
      "inputs": [],
      "name": "totalReserves",
      "outputs": [
        {
          "internalType": "uint256",
          "name": "",
          "type": "uint256"
        }
      ],
      "stateMutability": "view",
      "type": "function"
    },
    {
      "inputs": [],
      "name": "totalSupply",
      "outputs": [
        {
          "internalType": "uint256",
          "name": "",
          "type": "uint256"
        }
      ],
      "stateMutability": "view",
      "type": "function"
    },
    {
      "inputs": [
        {
          "internalType": "address",
          "name": "dst",
          "type": "address"
        },
        {
          "internalType": "uint256",
          "name": "amount",
          "type": "uint256"
        }
      ],
      "name": "transfer",
      "outputs": [
        {
          "internalType": "bool",
          "name": "",
          "type": "bool"
        }
      ],
      "stateMutability": "nonpayable",
      "type": "function"
    },
    {
      "inputs": [
        {
          "internalType": "address",
          "name": "src",
          "type": "address"
        },
        {
          "internalType": "address",
          "name": "dst",
          "type": "address"
        },
        {
          "internalType": "uint256",
          "name": "amount",
          "type": "uint256"
        }
      ],
      "name": "transferFrom",
      "outputs": [
        {
          "internalType": "bool",
          "name": "",
          "type": "bool"
        }
      ],
      "stateMutability": "nonpayable",
      "type": "function"
    },
    {
      "inputs": [],
      "name": "underlying",
      "outputs": [
        {
          "internalType": "address",
          "name": "",
          "type": "address"
        }
      ],
      "stateMutability": "view",
      "type": "function"
    }
  ],
  "transactionHash": "0x5699c8603c70f7f584df5659a6b9af62e2113c595b37925740c353f3d221e712",
  "args": [],
  "solcInputHash": "f7b1f2c0198a0fc30d3000710310a520",
  "bytecode": "0x608060405234801561001057600080fd5b50615feb80620000216000396000f3fe6080604052600436106103765760003560e01c8063852a12e3116101d1578063ae9d70b011610102578063dc028ab1116100a0578063f5e3c4621161006f578063f5e3c46214610f69578063f8f9da2814610fac578063fca7820b14610fc1578063fe9c44ae14610feb57610376565b8063dc028ab114610ed1578063dd62ed3e14610ee6578063f2b3abbd14610f21578063f3fdb15a14610f5457610376565b8063c37f68e2116100dc578063c37f68e214610e0f578063c5ebeaec14610e68578063db006a7514610e92578063dbfe7c1914610ebc57610376565b8063ae9d70b014610da2578063b2a02ff114610db7578063bd6d894d14610dfa57610376565b8063a0712d681161016f578063a7b820df11610149578063a7b820df14610d15578063a9059cbb14610d3f578063aa5af0fd14610d78578063ac784ddc14610d8d57610376565b8063a0712d6814610b7a578063a0b0d28914610ba4578063a6afed9514610d0057610376565b806391dd36c6116101ab57806391dd36c614610ade57806395d89b4114610b0857806395dd919314610b1d578063a03dce8d14610b5057610376565b8063852a12e314610a8a5780638d02d9a114610ab45780638f840ddd14610ac957610376565b80633b1d21a2116102ab57806361feacff116102495780636f307dc3116102235780636f307dc3146109fa57806370a0823114610a0f57806373acee9814610a425780637f1e06be14610a5757610376565b806361feacff146109bb5780636752e702146109d05780636c540baf146109e557610376565b806356e677281161028557806356e67728146108d05780635c60da1b1461094b5780635fe3b5671461097c578063601a0bf11461099157610376565b80633b1d21a21461081457806347bd37181461082957806350d85b731461083e57610376565b8063182df0f5116103185780632608f818116102f25780632608f818146106b2578063313ce567146106eb57806334154d4c146107165780633af9e669146107e157610376565b8063182df0f5146106525780631db789441461066757806323b872dd1461066f57610376565b80630f8855e8116103545780630f8855e81461048e578063173b9904146105f557806317bfdfbc1461060a57806318160ddd1461063d57610376565b806306fdde031461037b578063095ea7b3146104055780630e75270214610452575b600080fd5b34801561038757600080fd5b50610390611000565b6040805160208082528351818301528351919283929083019185019080838360005b838110156103ca5781810151838201526020016103b2565b50505050905090810190601f1680156103f75780820380516001836020036101000a031916815260200191505b509250505060405180910390f35b34801561041157600080fd5b5061043e6004803603604081101561042857600080fd5b506001600160a01b03813516906020013561108b565b604080519115158252519081900360200190f35b34801561045e57600080fd5b5061047c6004803603602081101561047557600080fd5b50356110f8565b60408051918252519081900360200190f35b34801561049a57600080fd5b506105f360048036036101008110156104b257600080fd5b6001600160a01b03823581169260208101359091169160408201359190810190608081016060820135600160201b8111156104ec57600080fd5b8201836020820111156104fe57600080fd5b803590602001918460018302840111600160201b8311171561051f57600080fd5b91908080601f0160208091040260200160405190810160405280939291908181526020018383808284376000920191909152509295949360208101935035915050600160201b81111561057157600080fd5b82018360208201111561058357600080fd5b803590602001918460018302840111600160201b831117156105a457600080fd5b91908080601f0160208091040260200160405190810160405280939291908181526020018383808284376000920191909152509295505060ff833516935050506020810135906040013561110e565b005b34801561060157600080fd5b5061047c6113bc565b34801561061657600080fd5b5061047c6004803603602081101561062d57600080fd5b50356001600160a01b03166113c2565b34801561064957600080fd5b5061047c61143e565b34801561065e57600080fd5b5061047c611444565b6105f36114a7565b34801561067b57600080fd5b5061043e6004803603606081101561069257600080fd5b506001600160a01b038135811691602081013590911690604001356116b7565b3480156106be57600080fd5b5061047c600480360360408110156106d557600080fd5b506001600160a01b0381351690602001356116e5565b3480156106f757600080fd5b506107006116fb565b6040805160ff9092168252519081900360200190f35b34801561072257600080fd5b506105f36004803603604081101561073957600080fd5b810190602081018135600160201b81111561075357600080fd5b82018360208201111561076557600080fd5b803590602001918460018302840111600160201b8311171561078657600080fd5b919390929091602081019035600160201b8111156107a357600080fd5b8201836020820111156107b557600080fd5b803590602001918460018302840111600160201b831117156107d657600080fd5b509092509050611704565b3480156107ed57600080fd5b5061047c6004803603602081101561080457600080fd5b50356001600160a01b0316611770565b34801561082057600080fd5b5061047c61181f565b34801561083557600080fd5b5061047c61182e565b34801561084a57600080fd5b506105f36004803603606081101561086157600080fd5b6001600160a01b03823516916020810135151591810190606081016040820135600160201b81111561089257600080fd5b8201836020820111156108a457600080fd5b803590602001918460018302840111600160201b831117156108c557600080fd5b509092509050611834565b3480156108dc57600080fd5b506105f3600480360360208110156108f357600080fd5b810190602081018135600160201b81111561090d57600080fd5b82018360208201111561091f57600080fd5b803590602001918460018302840111600160201b8311171561094057600080fd5b5090925090506118bd565b34801561095757600080fd5b5061096061191b565b604080516001600160a01b039092168252519081900360200190f35b34801561098857600080fd5b5061096061192a565b34801561099d57600080fd5b5061047c600480360360208110156109b457600080fd5b5035611939565b3480156109c757600080fd5b5061047c61198a565b3480156109dc57600080fd5b5061047c611990565b3480156109f157600080fd5b5061047c61199b565b348015610a0657600080fd5b506109606119a1565b348015610a1b57600080fd5b5061047c60048036036020811015610a3257600080fd5b50356001600160a01b03166119b0565b348015610a4e57600080fd5b5061047c6119cb565b348015610a6357600080fd5b506105f360048036036020811015610a7a57600080fd5b50356001600160a01b0316611a3e565b348015610a9657600080fd5b5061047c60048036036020811015610aad57600080fd5b5035611ae3565b348015610ac057600080fd5b5061047c611aee565b348015610ad557600080fd5b5061047c611af4565b348015610aea57600080fd5b5061047c60048036036020811015610b0157600080fd5b5035611afa565b348015610b1457600080fd5b50610390611b37565b348015610b2957600080fd5b5061047c60048036036020811015610b4057600080fd5b50356001600160a01b0316611b92565b348015610b5c57600080fd5b5061047c60048036036020811015610b7357600080fd5b5035611bf6565b348015610b8657600080fd5b5061047c60048036036020811015610b9d57600080fd5b5035611c33565b348015610bb057600080fd5b506105f3600480360360e0811015610bc757600080fd5b6001600160a01b0382358116926020810135821692604082013590921691810190608081016060820135600160201b811115610c0257600080fd5b820183602082011115610c1457600080fd5b803590602001918460018302840111600160201b83111715610c3557600080fd5b91908080601f0160208091040260200160405190810160405280939291908181526020018383808284376000920191909152509295949360208101935035915050600160201b811115610c8757600080fd5b820183602082011115610c9957600080fd5b803590602001918460018302840111600160201b83111715610cba57600080fd5b91908080601f0160208091040260200160405190810160405280939291908181526020018383808284376000920191909152509295505082359350505060200135611c3f565b348015610d0c57600080fd5b5061047c611d58565b348015610d2157600080fd5b5061047c60048036036020811015610d3857600080fd5b5035611f1d565b348015610d4b57600080fd5b5061043e60048036036040811015610d6257600080fd5b506001600160a01b038135169060200135611f5a565b348015610d8457600080fd5b5061047c611f87565b348015610d9957600080fd5b5061043e611f8d565b348015610dae57600080fd5b5061047c611f92565b348015610dc357600080fd5b5061047c60048036036060811015610dda57600080fd5b506001600160a01b0381358116916020810135909116906040013561204a565b348015610e0657600080fd5b5061047c61206e565b348015610e1b57600080fd5b50610e4260048036036020811015610e3257600080fd5b50356001600160a01b03166120e2565b604080519485526020850193909352838301919091526060830152519081900360800190f35b348015610e7457600080fd5b5061047c60048036036020811015610e8b57600080fd5b5035612177565b348015610e9e57600080fd5b5061047c60048036036020811015610eb557600080fd5b5035612182565b348015610ec857600080fd5b5061047c61218d565b348015610edd57600080fd5b5061047c612193565b348015610ef257600080fd5b5061047c60048036036040811015610f0957600080fd5b506001600160a01b0381358116916020013516612199565b348015610f2d57600080fd5b5061047c60048036036020811015610f4457600080fd5b50356001600160a01b03166121c4565b348015610f6057600080fd5b506109606121fe565b348015610f7557600080fd5b5061047c60048036036060811015610f8c57600080fd5b506001600160a01b0381358116916020810135916040909101351661220d565b348015610fb857600080fd5b5061047c612225565b348015610fcd57600080fd5b5061047c60048036036020811015610fe457600080fd5b503561229a565b348015610ff757600080fd5b5061043e6122d7565b6002805460408051602060018416156101000260001901909316849004601f810184900484028201840190925281815292918301828280156110835780601f1061105857610100808354040283529160200191611083565b820191906000526020600020905b81548152906001019060200180831161106657829003601f168201915b505050505081565b3360008181526013602090815260408083206001600160a01b03871680855290835281842086905581518681529151939493909284927f8c5be1e5ebec7d5bd14f71427d1e84f3dd0314c0f7b2291e5b200ac8c7c3b925929081900390910190a360019150505b92915050565b600080611104836122dc565b509150505b919050565b3373bcb0d746ee1d4c0ff67fc720006214568ef669d9146111605760405162461bcd60e51b8152600401808060200182810382526029815260200180615ea06029913960400191505060405180910390fd5b600b541580156111705750600c54155b6111ab5760405162461bcd60e51b8152600401808060200182810382526023815260200180615d8d6023913960400191505060405180910390fd5b6007869055856111ec5760405162461bcd60e51b8152600401808060200182810382526030815260200180615db06030913960400191505060405180910390fd5b60006111f78961233e565b9050801561124c576040805162461bcd60e51b815260206004820152601a60248201527f73657474696e6720636f6d7074726f6c6c6572206661696c6564000000000000604482015290519081900360640190fd5b611254612471565b600b55670de0b6b3a7640000600c5561126c88612475565b905080156112ab5760405162461bcd60e51b8152600401808060200182810382526022815260200180615e0d6022913960400191505060405180910390fd5b85516112be906002906020890190615b66565b5084516112d2906003906020880190615b66565b506004805460ff191660ff86161790556112eb8361277b565b90508015611340576040805162461bcd60e51b815260206004820152601d60248201527f73657474696e67207265736572766520666163746f72206661696c6564000000604482015290519081900360640190fd5b61134982612834565b9050801561139e576040805162461bcd60e51b815260206004820152601860248201527f73657474696e672061646d696e20666565206661696c65640000000000000000604482015290519081900360640190fd5b50506001805460ff60b01b1916600160b01b17905550505050505050565b600a5481565b6000806113ce81612959565b60006113d8611d58565b14611423576040805162461bcd60e51b81526020600482015260166024820152751858d8dc9d59481a5b9d195c995cdd0819985a5b195960521b604482015290519081900360640190fd5b61142c83611b92565b91505b61143881612a22565b50919050565b60115481565b6000806000611451612a8d565b9092509050600082600381111561146457fe5b146114a05760405162461bcd60e51b8152600401808060200182810382526035815260200180615f4d6035913960400191505060405180910390fd5b9150505b90565b33301480159061152d5750600560009054906101000a90046001600160a01b03166001600160a01b031663dd5cd22c6040518163ffffffff1660e01b815260040160206040518083038186803b15801561150057600080fd5b505afa158015611514573d6000803e3d6000fd5b505050506040513d602081101561152a57600080fd5b50515b156116b55760008054604080516345cc970560e01b81526001600160a01b039092166004830152518291829173bcb0d746ee1d4c0ff67fc720006214568ef669d9916345cc97059160248083019286929190829003018186803b15801561159357600080fd5b505afa1580156115a7573d6000803e3d6000fd5b505050506040513d6000823e601f3d908101601f1916820160405260608110156115d057600080fd5b81516020830151604080850180519151939592948301929184600160201b8211156115fa57600080fd5b90830190602082018581111561160f57600080fd5b8251600160201b81118282018810171561162857600080fd5b82525081516020918201929091019080838360005b8381101561165557818101518382015260200161163d565b50505050905090810190601f1680156116825780820380516001836020036101000a031916815260200191505b5060405250506000549396509194509250506001600160a01b038085169116146116b1576116b1838383612b4d565b5050505b565b6000806116c381612959565b60006116d133878787612d69565b1491506116dd81612a22565b509392505050565b6000806116f28484612ffb565b50949350505050565b60045460ff1681565b61170c61305f565b611750576040805162461bcd60e51b815260206004820152601060248201526f31b0b63632b9103737ba1030b236b4b760811b604482015290519081900360640190fd5b61175c60028585615bee565b5061176960038383615bee565b5050505050565b600080604051806020016040528061178661206e565b90526001600160a01b0384166000908152601260205260408120549192509081906117b29084906131da565b909250905060008260038111156117c557fe5b14611817576040805162461bcd60e51b815260206004820152601f60248201527f62616c616e636520636f756c64206e6f742062652063616c63756c6174656400604482015290519081900360640190fd5b949350505050565b6000611829613227565b905090565b600d5481565b61183c61305f565b611876576040805162461bcd60e51b815260206004820152600660248201526510b0b236b4b760d11b604482015290519081900360640190fd5b6118b7848484848080601f016020809104026020016040519081016040528093929190818152602001838380828437600092019190915250612b4d92505050565b50505050565b333014806118ce57506118ce61305f565b611907576040805162461bcd60e51b815260206004820152600560248201526410b9b2b63360d91b604482015290519081900360640190fd5b5050600180546001600160b01b0319169055565b6000546001600160a01b031681565b6005546001600160a01b031681565b60008061194581612959565b600061194f611d58565b905080156119755761196d81601181111561196657fe5b603b613275565b92505061142f565b61197e846132db565b92505061143881612a22565b600f5481565b666379da05b6000081565b600b5481565b6015546001600160a01b031681565b6001600160a01b031660009081526012602052604090205490565b6000806119d781612959565b60006119e1611d58565b14611a2c576040805162461bcd60e51b81526020600482015260166024820152751858d8dc9d59481a5b9d195c995cdd0819985a5b195960521b604482015290519081900360640190fd5b600d549150611a3a81612a22565b5090565b611a4661305f565b611a815760405162461bcd60e51b815260040180806020018281038252602d815260200180615de0602d913960400191505060405180910390fd5b601554604080516317066a5760e21b81526001600160a01b03848116600483015291519190921691635c19a95c91602480830192600092919082900301818387803b158015611acf57600080fd5b505af1158015611769573d6000803e3d6000fd5b60006110f2826133a7565b60085481565b600e5481565b600080611b0681612959565b6000611b10611d58565b90508015611b2e5761196d816011811115611b2757fe5b6052613275565b61197e84612834565b6003805460408051602060026001851615610100026000190190941693909304601f810184900484028201840190925281815292918301828280156110835780601f1061105857610100808354040283529160200191611083565b6000806000611ba0846133e7565b90925090506000826003811115611bb357fe5b14611bef5760405162461bcd60e51b8152600401808060200182810382526037815260200180615e2f6037913960400191505060405180910390fd5b9392505050565b600080611c0281612959565b6000611c0c611d58565b90508015611c2a5761196d816011811115611c2357fe5b6033613275565b61197e8461349a565b6000806111048361351b565b60006702c68af0bb14000090506000886001600160a01b031663313ce5676040518163ffffffff1660e01b815260040160206040518083038186803b158015611c8757600080fd5b505afa158015611c9b573d6000803e3d6000fd5b505050506040513d6020811015611cb157600080fd5b50519050611cc58888848989868a8a61110e565b601580546001600160a01b0319166001600160a01b038b81169190911791829055604080516318160ddd60e01b8152905192909116916318160ddd91600480820192602092909190829003018186803b158015611d2157600080fd5b505afa158015611d35573d6000803e3d6000fd5b505050506040513d6020811015611d4b57600080fd5b5050505050505050505050565b600080611d63612471565b905080600b541415611d795760009150506114a4565b6000611d83613227565b90506000600660009054906101000a90046001600160a01b03166001600160a01b03166315f2405383600d54611dc8600e54611dc3600f5460105461355b565b61355b565b6040518463ffffffff1660e01b815260040180848152602001838152602001828152602001935050505060206040518083038186803b158015611e0a57600080fd5b505afa158015611e1e573d6000803e3d6000fd5b505050506040513d6020811015611e3457600080fd5b5051905065048c27395000811115611e93576040805162461bcd60e51b815260206004820152601c60248201527f626f72726f772072617465206973206162737572646c79206869676800000000604482015290519081900360640190fd5b600080611ea285600b54613591565b90925090506000826003811115611eb557fe5b14611f07576040805162461bcd60e51b815260206004820152601f60248201527f636f756c64206e6f742063616c63756c61746520626c6f636b2064656c746100604482015290519081900360640190fd5b611f13858585846135b4565b9550505050505090565b600080611f2981612959565b6000611f33611d58565b90508015611f515761196d816011811115611f4a57fe5b6037613275565b61197e846137c5565b600080611f6681612959565b6000611f7433338787612d69565b149150611f8081612a22565b5092915050565b600c5481565b600090565b6006546000906001600160a01b031663b8168816611fae613227565b600d54611fc5600e54611dc3600f5460105461355b565b600854600954600a5401016040518563ffffffff1660e01b81526004018085815260200184815260200183815260200182815260200194505050505060206040518083038186803b15801561201957600080fd5b505afa15801561202d573d6000803e3d6000fd5b505050506040513d602081101561204357600080fd5b5051905090565b6000600161205781612959565b612063338686866138ad565b91506116dd81612a22565b60008061207a81612959565b6000612084611d58565b146120cf576040805162461bcd60e51b81526020600482015260166024820152751858d8dc9d59481a5b9d195c995cdd0819985a5b195960521b604482015290519081900360640190fd5b6120d7611444565b9150611a3a81612a22565b6001600160a01b03811660009081526012602052604081205481908190819081808061210d896133e7565b93509050600081600381111561211f57fe5b1461213d5760095b6000806000975097509750975050505050612170565b612145612a8d565b92509050600081600381111561215757fe5b14612163576009612127565b5060009650919450925090505b9193509193565b60006110f282613c8c565b60006110f282613cca565b60095481565b60105481565b6001600160a01b03918216600090815260136020908152604080832093909416825291909152205490565b6000806121cf611d58565b905080156121f5576121ed8160118111156121e657fe5b604b613275565b915050611109565b611bef83612475565b6006546001600160a01b031681565b60008061221b858585613d03565b5095945050505050565b6006546000906001600160a01b03166315f24053612241613227565b600d54612258600e54611dc3600f5460105461355b565b6040518463ffffffff1660e01b815260040180848152602001838152602001828152602001935050505060206040518083038186803b15801561201957600080fd5b6000806122a681612959565b60006122b0611d58565b905080156122ce5761196d8160118111156122c757fe5b6059613275565b61197e8461277b565b600190565b60008060006122ea81612959565b60006122f4611d58565b9050801561231e5761231281601181111561230b57fe5b6041613275565b6000935093505061232f565b612329333387613dee565b93509350505b61233881612a22565b50915091565b600080600560009054906101000a90046001600160a01b03169050826001600160a01b0316627e3dd26040518163ffffffff1660e01b815260040160206040518083038186803b15801561239157600080fd5b505afa1580156123a5573d6000803e3d6000fd5b505050506040513d60208110156123bb57600080fd5b505161240e576040805162461bcd60e51b815260206004820152601c60248201527f6d61726b6572206d6574686f642072657475726e65642066616c736500000000604482015290519081900360640190fd5b600580546001600160a01b0319166001600160a01b03858116918217909255604080519284168352602083019190915280517f7ac369dbd14fa5ea3f473ed67cc9d598964a77501540ba6751eb0b3decf5870d9281900390910190a16000611bef565b4390565b60008061248061305f565b612490576121ed6001604d613275565b612498612471565b600b54146124ac576121ed600a604c613275565b600660009054906101000a90046001600160a01b03169050826001600160a01b0316632191f92a6040518163ffffffff1660e01b815260040160206040518083038186803b1580156124fd57600080fd5b505afa158015612511573d6000803e3d6000fd5b505050506040513d602081101561252757600080fd5b505161257a576040805162461bcd60e51b815260206004820152601c60248201527f6d61726b6572206d6574686f642072657475726e65642066616c736500000000604482015290519081900360640190fd5b600680546001600160a01b0319166001600160a01b03858116918217909255604080519284168352602083019190915280517fedffc32e068c7c95dfd4bdfd5c4d939a084d6b11c4199eac8436ed234d72f9269281900390910190a16001600160a01b038116156126ac5760408051600481526024810182526020810180516001600160e01b0316636cc1140b60e11b178152915181516001600160a01b0385169382918083835b602083106126415780518252601f199092019160209182019101612622565b6001836020036101000a0380198251168184511680821785525050505050509050019150506000604051808303816000865af19150503d80600081146126a3576040519150601f19603f3d011682016040523d82523d6000602084013e6126a8565b606091505b5050505b60408051600481526024810182526020810180516001600160e01b031663742a137b60e11b178152915181516001600160a01b0387169382918083835b602083106127085780518252601f1990920191602091820191016126e9565b6001836020036101000a0380198251168184511680821785525050505050509050019150506000604051808303816000865af19150503d806000811461276a576040519150601f19603f3d011682016040523d82523d6000602084013e61276f565b606091505b5060009150611bef9050565b600061278561305f565b61279c576127956001605a613275565b9050611109565b6127a4612471565b600b54146127b857612795600a605b613275565b670de0b6b3a76400006127d86127d08460085461355b565b60095461355b565b11156127ea576127956002605c613275565b600a805490839055604080518281526020810185905281517faaa68312e2ea9d50e16af5068410ab56e1a1fd06037b1a35664812c30f821460929181900390910190a16000611bef565b600061283e612471565b600b541461285257612795600a6054613275565b6000198214156128625760085491505b600061286c61413c565b9050670de0b6b3a764000061288c612886600a548661355b565b8361355b565b111561289e576121ed60026055613275565b8260085414612904576128af61305f565b6128bf576121ed60016053613275565b6008805490849055604080518281526020810186905281517fcdd0b588250e1398549f79cfdb8217c186688822905d6715b0834ea1c865594a929181900390910190a1505b8060095414612952576009805490829055604080518281526020810184905281517f92eef861b6533b7d3417f39c2ad7b460eed4e88a32fa3604f30e718b7602e7dc929181900390910190a1505b6000611bef565b600154600160b01b900460ff166129a4576040805162461bcd60e51b815260206004820152600a6024820152691c994b595b9d195c995960b21b604482015290519081900360640190fd5b80612a1257600560009054906101000a90046001600160a01b03166001600160a01b031663c90c20b16040518163ffffffff1660e01b8152600401600060405180830381600087803b1580156129f957600080fd5b505af1158015612a0d573d6000803e3d6000fd5b505050505b506001805460ff60b01b19169055565b6001805460ff60b01b1916600160b01b17905580612a8a57600560009054906101000a90046001600160a01b03166001600160a01b031663632e51426040518163ffffffff1660e01b8152600401600060405180830381600087803b158015611acf57600080fd5b50565b601154600090819080612aa857505060075460009150612b49565b6000612ab2613227565b90506000612abe615c6a565b6000612ae084600d54612adb600e54611dc3600f5460105461355b565b61418b565b935090506000816003811115612af257fe5b14612b0757955060009450612b499350505050565b612b1183866141d7565b925090506000816003811115612b2357fe5b14612b3857955060009450612b499350505050565b5051600095509350612b4992505050565b9091565b600054604080516338e6a07360e11b81526001600160a01b039283166004820152918516602483015283151560448301525173bcb0d746ee1d4c0ff67fc720006214568ef669d9916371cd40e6916064808301926020929190829003018186803b158015612bba57600080fd5b505afa158015612bce573d6000803e3d6000fd5b505050506040513d6020811015612be457600080fd5b5051612c1f576040805162461bcd60e51b8152602060048201526005602482015264085a5b5c1b60da1b604482015290519081900360640190fd5b8115612c2d57612c2d614288565b600080546001600160a01b038581166001600160a01b031983161783556040516020602482018181528651604484015286519390941694612d1a94309488949193849360649093019290860191908190849084905b83811015612c9a578181015183820152602001612c82565b50505050905090810190601f168015612cc75780820380516001836020036101000a031916815260200191505b5060408051601f19818403018152918152602080830180516001600160e01b0316630adccee560e31b17905281518083019092526007825266216265636f6d6560c81b90820152909350915061428d9050565b50600054604080516001600160a01b038085168252909216602083015280517fd604de94d45953f9138079ec1b82d533cb2160c906d1076d1f7ed54befbca97a9281900390910190a150505050565b600554604080516317b9b84b60e31b81523060048201526001600160a01b03868116602483015285811660448301526064820185905291516000938493169163bdcdc25891608480830192602092919082900301818787803b158015612dce57600080fd5b505af1158015612de2573d6000803e3d6000fd5b505050506040513d6020811015612df857600080fd5b505190508015612e1757612e0f6003605d836143db565b915050611817565b836001600160a01b0316856001600160a01b03161415612e3d57612e0f6002605e613275565b6000856001600160a01b0316876001600160a01b03161415612e625750600019612e8a565b506001600160a01b038086166000908152601360209081526040808320938a16835292905220545b600080600080612e9a8589613591565b90945092506000846003811115612ead57fe5b14612ecb57612ebe6009605e613275565b9650505050505050611817565b6001600160a01b038a16600090815260126020526040902054612eee9089613591565b90945091506000846003811115612f0157fe5b14612f1257612ebe6009605f613275565b6001600160a01b038916600090815260126020526040902054612f359089614464565b90945090506000846003811115612f4857fe5b14612f5957612ebe60096060613275565b6001600160a01b03808b16600090815260126020526040808220859055918b168152208190556000198514612fb1576001600160a01b03808b166000908152601360209081526040808320938f168352929052208390555b886001600160a01b03168a6001600160a01b0316600080516020615ec98339815191528a6040518082815260200191505060405180910390a35060009a9950505050505050505050565b600080600061300981612959565b6000613013611d58565b9050801561303d5761303181601181111561302a57fe5b6040613275565b6000935093505061304e565b613048338787613dee565b93509350505b61305781612a22565b509250929050565b600554604080516303e1469160e61b815290516000926001600160a01b031691829163f851a44091600480820192602092909190829003018186803b1580156130a757600080fd5b505afa1580156130bb573d6000803e3d6000fd5b505050506040513d60208110156130d157600080fd5b50516001600160a01b03163314801561314b5750806001600160a01b0316630a755ec26040518163ffffffff1660e01b815260040160206040518083038186803b15801561311e57600080fd5b505afa158015613132573d6000803e3d6000fd5b505050506040513d602081101561314857600080fd5b50515b806114a057503373bcb0d746ee1d4c0ff67fc720006214568ef669d91480156114a05750806001600160a01b0316632f1069ba6040518163ffffffff1660e01b815260040160206040518083038186803b1580156131a857600080fd5b505afa1580156131bc573d6000803e3d6000fd5b505050506040513d60208110156131d257600080fd5b505191505090565b6000806000806131ea868661448a565b909250905060008260038111156131fd57fe5b1461320e5750915060009050613220565b6000613219826144f2565b9350935050505b9250929050565b601554604080516370a0823160e01b815230600482015290516000926001600160a01b03169182916370a0823191602480820192602092909190829003018186803b1580156131a857600080fd5b60007f45b96fe442630264581b197e84bbada861235052c5a1aadfff9ea4e40a969aa08360118111156132a457fe5b8360638111156132b057fe5b604080519283526020830191909152600082820152519081900360600190a1826011811115611bef57fe5b6000806132e661305f565b6132f6576121ed6001603c613275565b6132fe612471565b600b5414613312576121ed600a603e613275565b8261331b613227565b101561332d576121ed600e603d613275565b600e54831115613343576121ed6002603f613275565b61334f600e5484614501565b600e8190559050613360338461453b565b604080513381526020810185905280820183905290517f3bad0c59cf2f06e7314077049f48a93578cd16f5ef92329f1dab1420a99c177e9181900360600190a16000611bef565b6000806133b381612959565b60006133bd611d58565b905080156133db5761196d8160118111156133d457fe5b602a613275565b61197e336000866145c0565b6001600160a01b03811660009081526014602052604081208054829182918291829161341d576000809550955050505050613495565b61342d8160000154600c54614a8a565b9094509250600084600381111561344057fe5b14613455578360009550955050505050613495565b613463838260010154614ac9565b9094509150600084600381111561347657fe5b1461348b578360009550955050505050613495565b5060009450925050505b915091565b6000806134a5612471565b600b54146134b9576121ed600a6035613275565b826134c2613227565b10156134d4576121ed600e6034613275565b6010548311156134ea576121ed60026036613275565b6134f660105484614501565b6010819055905061295273bcb0d746ee1d4c0ff67fc720006214568ef669d98461453b565b600080600061352981612959565b6000613533611d58565b905080156135515761231281601181111561354a57fe5b6020613275565b6123293386614af4565b6000611bef8383604051806040016040528060118152602001706164646974696f6e206f766572666c6f7760781b815250614e6e565b6000808383116135a8575060009050818303613220565b50600390506000613220565b6000806135cf60405180602001604052808681525084614ec3565b905060006135df82600d54614eed565b905060006135ef82600d5461355b565b905060006136106040518060200160405280600a5481525084600e54614f05565b90506000613631604051806020016040528060095481525085601054614f05565b90506000613652604051806020016040528060085481525086600f54614f05565b9050600061366587600c54600c54614f05565b600b8d9055600c819055600d869055600e8590556010849055600f839055604080518d8152602081018990528082018390526060810188905290519192507f4dec04e750ca11537cabcd8a9eab06494de08da3735bc8871cd41250e190bc04919081900360800190a16006546040805160248082018e905282518083039091018152604490910182526020810180516001600160e01b0316635efd023360e11b178152915181516001600160a01b0390941693919290918291908083835b602083106137425780518252601f199092019160209182019101613723565b6001836020036101000a0380198251168184511680821785525050505050509050019150506000604051808303816000865af19150503d80600081146137a4576040519150601f19603f3d011682016040523d82523d6000602084013e6137a9565b606091505b50600091506137b59050565b9c9b505050505050505050505050565b6000806137d0612471565b600b54146137e4576121ed600a6039613275565b826137ed613227565b10156137ff576121ed600e6038613275565b600f54831115613815576121ed6002603a613275565b613821600f5484614501565b905080600f81905550612952600560009054906101000a90046001600160a01b03166001600160a01b031663f851a4406040518163ffffffff1660e01b815260040160206040518083038186803b15801561387b57600080fd5b505afa15801561388f573d6000803e3d6000fd5b505050506040513d60208110156138a557600080fd5b50518461453b565b6005546040805163d02f735160e01b81523060048201526001600160a01b038781166024830152868116604483015285811660648301526084820185905291516000938493169163d02f73519160a480830192602092919082900301818787803b15801561391a57600080fd5b505af115801561392e573d6000803e3d6000fd5b505050506040513d602081101561394457600080fd5b50519050801561395b57612e0f6003601d836143db565b846001600160a01b0316846001600160a01b0316141561398157612e0f6006601e613275565b613989615c7d565b6001600160a01b0385166000908152601260205260409020546139ac9085613591565b60208301819052828260038111156139c057fe5b60038111156139cb57fe5b90525060009050815160038111156139df57fe5b14613a0957613a006009601c836000015160038111156139fb57fe5b6143db565b92505050611817565b613a28846040518060200160405280666379da05b60000815250614f26565b60808201819052613a3a908590614501565b6060820152613a47612a8d565b60c0830181905282826003811115613a5b57fe5b6003811115613a6657fe5b9052506000905081516003811115613a7a57fe5b14613acc576040805162461bcd60e51b815260206004820152601860248201527f65786368616e67652072617465206d617468206572726f720000000000000000604482015290519081900360640190fd5b613aec60405180602001604052808360c001518152508260800151614eed565b60a08201819052600e54613aff9161355b565b60e08201526011546080820151613b169190614501565b6101008201526001600160a01b0386166000908152601260205260409020546060820151613b449190614464565b6040830181905282826003811115613b5857fe5b6003811115613b6357fe5b9052506000905081516003811115613b7757fe5b14613b9357613a006009601b836000015160038111156139fb57fe5b60e0810151600e556101008101516011556020808201516001600160a01b0380881660008181526012855260408082209490945583860151928b16808252908490209290925560608501518351908152925191939092600080516020615ec9833981519152929081900390910190a36080810151604080519182525130916001600160a01b03881691600080516020615ec98339815191529181900360200190a360a081015160e082015160408051308152602081019390935282810191909152517fa91e67c5ea634cd43a12c5a482724b03de01e85ca68702a53d0c2f45cb7c1dc59181900360600190a16000979650505050505050565b600080613c9881612959565b6000613ca2611d58565b90508015613cc05761196d816011811115613cb957fe5b600a613275565b61197e3385614f4e565b600080613cd681612959565b6000613ce0611d58565b90508015613cf75761196d8160118111156133d457fe5b61197e338560006145c0565b6000806000613d1181612959565b6000613d1b611d58565b90508015613d4557613d39816011811115613d3257fe5b6011613275565b60009350935050613ddc565b846001600160a01b031663a6afed956040518163ffffffff1660e01b8152600401602060405180830381600087803b158015613d8057600080fd5b505af1158015613d94573d6000803e3d6000fd5b505050506040513d6020811015613daa57600080fd5b505190508015613dca57613d39816011811115613dc357fe5b6012613275565b613dd63388888861528c565b93509350505b613de581612a22565b50935093915050565b60055460408051631200453160e11b81523060048201526001600160a01b0386811660248301528581166044830152606482018590529151600093849384939116916324008a629160848082019260209290919082900301818787803b158015613e5757600080fd5b505af1158015613e6b573d6000803e3d6000fd5b505050506040513d6020811015613e8157600080fd5b505190508015613ea457613e9860036043836143db565b60009250925050614134565b613eac612471565b600b5414613ec057613e98600a6044613275565b613ec8615cca565b6001600160a01b0386166000908152601460205260409020600101546060820152613ef2866133e7565b6080830181905260208301826003811115613f0957fe5b6003811115613f1457fe5b9052506000905081602001516003811115613f2b57fe5b14613f5457613f4760096042836020015160038111156139fb57fe5b6000935093505050614134565b600019851415613f6d5760808101516040820152613f75565b604081018590525b613f83878260400151615780565b60e082018190526080820151613f9891613591565b60a0830181905260208301826003811115613faf57fe5b6003811115613fba57fe5b9052506000905081602001516003811115613fd157fe5b1461400d5760405162461bcd60e51b815260040180806020018281038252603a815260200180615e66603a913960400191505060405180910390fd5b61401d600d548260e00151613591565b60c083018190526020830182600381111561403457fe5b600381111561403f57fe5b905250600090508160200151600381111561405657fe5b146140925760405162461bcd60e51b8152600401808060200182810382526031815260200180615ee96031913960400191505060405180910390fd5b60a080820180516001600160a01b03808a16600081815260146020908152604091829020948555600c5460019095019490945560c0870151600d81905560e088015195518251948f16855294840192909252828101949094526060820192909252608081019190915290517f1a2a22cb034d26d1854bdc6666a5b91fe25efbbb5dcad3b0355478d6f5c362a1929181900390910190a160e00151600093509150505b935093915050565b600073bcb0d746ee1d4c0ff67fc720006214568ef669d96001600160a01b031663dd86fea16040518163ffffffff1660e01b815260040160206040518083038186803b15801561201957600080fd5b60008060008061419b8787614464565b909250905060008260038111156141ae57fe5b146141bf5750915060009050614134565b6141c98186613591565b935093505050935093915050565b60006141e1615c6a565b6000806141f686670de0b6b3a7640000614a8a565b9092509050600082600381111561420957fe5b1461422857506040805160208101909152600081529092509050613220565b6000806142358388614ac9565b9092509050600082600381111561424857fe5b1461426b5781604051806020016040528060008152509550955050505050613220565b604080516020810190915290815260009890975095505050505050565b6116b5565b6060600080856001600160a01b0316856040518082805190602001908083835b602083106142cc5780518252601f1990920191602091820191016142ad565b6001836020036101000a0380198251168184511680821785525050505050509050019150506000604051808303816000865af19150503d806000811461432e576040519150601f19603f3d011682016040523d82523d6000602084013e614333565b606091505b5091509150816143d25780511561434d5780518082602001fd5b8360405162461bcd60e51b81526004018080602001828103825283818151815260200191508051906020019080838360005b8381101561439757818101518382015260200161437f565b50505050905090810190601f1680156143c45780820380516001836020036101000a031916815260200191505b509250505060405180910390fd5b95945050505050565b60007f45b96fe442630264581b197e84bbada861235052c5a1aadfff9ea4e40a969aa084601181111561440a57fe5b84606381111561441657fe5b604080519283526020830191909152818101859052519081900360600190a1600384601181111561444357fe5b146144595783601181111561445457fe5b611817565b506103e80192915050565b60008083830184811061447c57600092509050613220565b600260009250925050613220565b6000614494615c6a565b6000806144a5866000015186614a8a565b909250905060008260038111156144b857fe5b146144d757506040805160208101909152600081529092509050613220565b60408051602081019091529081526000969095509350505050565b51670de0b6b3a7640000900490565b6000611bef8383604051806040016040528060158152602001747375627472616374696f6e20756e646572666c6f7760581b81525061595d565b604080516001600160a01b038416602482015260448082018490528251808303909101815260649091018252602081810180516001600160e01b031663a9059cbb60e01b1790528251808401909352601983527f544f4b454e5f5452414e534645525f4f55545f4641494c454400000000000000908301526145bc916159b7565b5050565b60008215806145cd575081155b6146085760405162461bcd60e51b8152600401808060200182810382526034815260200180615f826034913960400191505060405180910390fd5b614610615d10565b614618612a8d565b604083018190526020830182600381111561462f57fe5b600381111561463a57fe5b905250600090508160200151600381111561465157fe5b146146755761466d6009602e836020015160038111156139fb57fe5b915050611bef565b83156146f657606081018490526040805160208101825290820151815261469c90856131da565b60808301819052602083018260038111156146b357fe5b60038111156146be57fe5b90525060009050816020015160038111156146d557fe5b146146f15761466d6009602c836020015160038111156139fb57fe5b61476f565b6147128360405180602001604052808460400151815250615a3f565b606083018190526020830182600381111561472957fe5b600381111561473457fe5b905250600090508160200151600381111561474b57fe5b146147675761466d6009602d836020015160038111156139fb57fe5b608081018390525b60055460608201516040805163eabe7d9160e01b81523060048201526001600160a01b03898116602483015260448201939093529051600093929092169163eabe7d919160648082019260209290919082900301818787803b1580156147d457600080fd5b505af11580156147e8573d6000803e3d6000fd5b505050506040513d60208110156147fe57600080fd5b50519050801561481e576148156003602b836143db565b92505050611bef565b614826612471565b600b541461483a57614815600a602f613275565b61484a6011548360600151613591565b60a084018190526020840182600381111561486157fe5b600381111561486c57fe5b905250600090508260200151600381111561488357fe5b1461489f5761481560096031846020015160038111156139fb57fe5b6001600160a01b03861660009081526012602052604090205460608301516148c79190613591565b60c08401819052602084018260038111156148de57fe5b60038111156148e957fe5b905250600090508260200151600381111561490057fe5b1461491c5761481560096030846020015160038111156139fb57fe5b8160800151614929613227565b101561493b57614815600e6032613275565b61494986836080015161453b565b60a082015160115560c08201516001600160a01b038716600081815260126020908152604091829020939093556060850151815190815290513093600080516020615ec9833981519152928290030190a37fe5b754fb1abb7f01b499791d0b820ae3b6af3424ac1c59768edb53f4ec31a929868360800151846060015160405180846001600160a01b03168152602001838152602001828152602001935050505060405180910390a160055460808301516060840151604080516351dff98960e01b81523060048201526001600160a01b038b81166024830152604482019490945260648101929092525191909216916351dff98991608480830192600092919082900301818387803b158015614a5f57600080fd5b505af1158015614a73573d6000803e3d6000fd5b5060009250614a80915050565b9695505050505050565b60008083614a9d57506000905080613220565b83830283858281614aaa57fe5b0414614abe57600260009250925050613220565b600092509050613220565b60008082614add5750600190506000613220565b6000838581614ae857fe5b04915091509250929050565b60055460408051634ef4c3e160e01b81523060048201526001600160a01b03858116602483015260448201859052915160009384938493911691634ef4c3e19160648082019260209290919082900301818787803b158015614b5557600080fd5b505af1158015614b69573d6000803e3d6000fd5b505050506040513d6020811015614b7f57600080fd5b505190508015614ba257614b9660036021836143db565b60009250925050613220565b614baa612471565b600b5414614bbe57614b96600a6024613275565b614bc6615d10565b614bce612a8d565b6040830181905260208301826003811115614be557fe5b6003811115614bf057fe5b9052506000905081602001516003811115614c0757fe5b14614c3057614c2360096023836020015160038111156139fb57fe5b6000935093505050613220565b614c3a8686615780565b60c0820181905260408051602081018252908301518152614c5b9190615a3f565b6060830181905260208301826003811115614c7257fe5b6003811115614c7d57fe5b9052506000905081602001516003811115614c9457fe5b14614ce6576040805162461bcd60e51b815260206004820181905260248201527f4d494e545f45584348414e47455f43414c43554c4154494f4e5f4641494c4544604482015290519081900360640190fd5b614cf6601154826060015161355b565b60808201526001600160a01b0386166000908152601260205260409020546060820151614d23919061355b565b60a0820181905260808201516011556001600160a01b0387166000818152601260209081526040918290209390935560c084015160608086015183519485529484019190915282820193909352517f4c209b5fc8ad50758f13e2e1088ba56a560dff690a1c6fef26394f4c03821c4f929181900390910190a1606081015160408051918252516001600160a01b038816913091600080516020615ec98339815191529181900360200190a360055460c08201516060830151604080516341c728b960e01b81523060048201526001600160a01b038b81166024830152604482019490945260648101929092525191909216916341c728b991608480830192600092919082900301818387803b158015614e3b57600080fd5b505af1158015614e4f573d6000803e3d6000fd5b5060009250614e5c915050565b8160c001519350935050509250929050565b600083830182858210156116f25760405162461bcd60e51b815260206004820181815283516024840152835190928392604490910191908501908083836000831561439757818101518382015260200161437f565b614ecb615c6a565b6040518060200160405280614ee4856000015185615a4f565b90529392505050565b600080614efa8484614ec3565b9050611817816144f2565b600080614f128585614ec3565b90506143d2614f20826144f2565b8461355b565b6000670de0b6b3a7640000614f3f848460000151615a4f565b81614f4657fe5b049392505050565b6005546040805163368f515360e21b81523060048201526001600160a01b0385811660248301526044820185905291516000938493169163da3d454c91606480830192602092919082900301818787803b158015614fab57600080fd5b505af1158015614fbf573d6000803e3d6000fd5b505050506040513d6020811015614fd557600080fd5b505190508015614ff457614fec60036010836143db565b9150506110f2565b614ffc612471565b600b541461501057614fec600a600c613275565b600061501a613227565b90508381101561503957615030600e600b613275565b925050506110f2565b615041615d4e565b61504a866133e7565b602083018190528282600381111561505e57fe5b600381111561506957fe5b905250600090508151600381111561507d57fe5b146150a257615098600980836000015160038111156139fb57fe5b93505050506110f2565b6150b0816020015186614464565b60408301819052828260038111156150c457fe5b60038111156150cf57fe5b90525060009050815160038111156150e357fe5b146150ff576150986009600e836000015160038111156139fb57fe5b6005546040808301518151631de6c8a560e21b8152306004820152602481019190915290516001600160a01b039092169163779b2294916044808201926020929091908290030181600087803b15801561515857600080fd5b505af115801561516c573d6000803e3d6000fd5b505050506040513d602081101561518257600080fd5b5051925082156151995761509860036010856143db565b6151a5600d5486614464565b60608301819052828260038111156151b957fe5b60038111156151c457fe5b90525060009050815160038111156151d857fe5b146151f4576150986009600d836000015160038111156139fb57fe5b6151fe868661453b565b604080820180516001600160a01b03891660008181526014602090815290859020928355600c54600190930192909255606080860151600d819055935185519283529282018a9052818501929092529081019190915290517f13ed6866d4e1ee6da46f845c46d7e54120883d75c5ea9a2dacc1c4ca8984ab809181900360800190a160009695505050505050565b60055460408051632fe3f38f60e11b81523060048201526001600160a01b0384811660248301528781166044830152868116606483015260848201869052915160009384938493911691635fc7e71e9160a48082019260209290919082900301818787803b1580156152fd57600080fd5b505af1158015615311573d6000803e3d6000fd5b505050506040513d602081101561532757600080fd5b50519050801561534a5761533e60036014836143db565b60009250925050615777565b615352612471565b600b54146153665761533e600a6018613275565b61536e612471565b846001600160a01b0316636c540baf6040518163ffffffff1660e01b815260040160206040518083038186803b1580156153a757600080fd5b505afa1580156153bb573d6000803e3d6000fd5b505050506040513d60208110156153d157600080fd5b5051146153e45761533e600a6013613275565b866001600160a01b0316866001600160a01b0316141561540a5761533e60066019613275565b8461541b5761533e60076017613275565b6000198514156154315761533e60076016613275565b60008061543f898989613dee565b9092509050811561546e5761546082601181111561545957fe5b601a613275565b600094509450505050615777565b6005546040805163c488847b60e01b81523060048201526001600160a01b038981166024830152604482018590528251600094859492169263c488847b926064808301939192829003018186803b1580156154c857600080fd5b505afa1580156154dc573d6000803e3d6000fd5b505050506040513d60408110156154f257600080fd5b5080516020909101519092509050811561553d5760405162461bcd60e51b8152600401808060200182810382526033815260200180615f1a6033913960400191505060405180910390fd5b80886001600160a01b03166370a082318c6040518263ffffffff1660e01b815260040180826001600160a01b0316815260200191505060206040518083038186803b15801561558b57600080fd5b505afa15801561559f573d6000803e3d6000fd5b505050506040513d60208110156155b557600080fd5b5051101561560a576040805162461bcd60e51b815260206004820152601860248201527f4c49515549444154455f5345495a455f544f4f5f4d5543480000000000000000604482015290519081900360640190fd5b60006001600160a01b03891630141561563057615629308d8d856138ad565b90506156c7565b886001600160a01b031663b2a02ff18d8d856040518463ffffffff1660e01b815260040180846001600160a01b03168152602001836001600160a01b031681526020018281526020019350505050602060405180830381600087803b15801561569857600080fd5b505af11580156156ac573d6000803e3d6000fd5b505050506040513d60208110156156c257600080fd5b505190505b8015615711576040805162461bcd60e51b81526020600482015260146024820152731d1bdad95b881cd95a5e9d5c994819985a5b195960621b604482015290519081900360640190fd5b604080516001600160a01b03808f168252808e1660208301528183018790528b1660608201526080810184905290517f298637f684da70674f26509b10f07ec2fbc77a335ab1e7d6215a4b2484d8bb529181900360a00190a16000975092955050505050505b94509492505050565b601554604080516370a0823160e01b8152306004820152905160009283926001600160a01b03909116916370a0823191602480820192602092909190829003018186803b1580156157d057600080fd5b505afa1580156157e4573d6000803e3d6000fd5b505050506040513d60208110156157fa57600080fd5b5051604080516001600160a01b038716602482015230604482015260648082018790528251808303909101815260849091018252602081810180516001600160e01b03166323b872dd60e01b1790528251808401909352601883527f544f4b454e5f5452414e534645525f494e5f4641494c454400000000000000009083015291925061588791906159b7565b601554604080516370a0823160e01b815230600482015290516000926001600160a01b0316916370a08231916024808301926020929190829003018186803b1580156158d257600080fd5b505afa1580156158e6573d6000803e3d6000fd5b505050506040513d60208110156158fc57600080fd5b5051905081811015615955576040805162461bcd60e51b815260206004820152601a60248201527f544f4b454e5f5452414e534645525f494e5f4f564552464c4f57000000000000604482015290519081900360640190fd5b039392505050565b600081848411156159af5760405162461bcd60e51b815260206004820181815283516024840152835190928392604490910191908501908083836000831561439757818101518382015260200161437f565b505050900390565b6015546000906159d1906001600160a01b0316848461428d565b8051909150156116b1578080602001905160208110156159f057600080fd5b505182906118b75760405162461bcd60e51b815260206004820181815283516024840152835190928392604490910191908501908083836000831561439757818101518382015260200161437f565b6000806000806131ea8686615a91565b6000611bef83836040518060400160405280601781526020017f6d756c7469706c69636174696f6e206f766572666c6f77000000000000000000815250615af0565b6000615a9b615c6a565b600080615ab0670de0b6b3a764000087614a8a565b90925090506000826003811115615ac357fe5b14615ae257506040805160208101909152600081529092509050613220565b6132198186600001516141d7565b6000831580615afd575082155b15615b0a57506000611bef565b83830283858281615b1757fe5b041483906116f25760405162461bcd60e51b815260206004820181815283516024840152835190928392604490910191908501908083836000831561439757818101518382015260200161437f565b828054600181600116156101000203166002900490600052602060002090601f016020900481019282615b9c5760008555615be2565b82601f10615bb557805160ff1916838001178555615be2565b82800160010185558215615be2579182015b82811115615be2578251825591602001919060010190615bc7565b50611a3a929150615d77565b828054600181600116156101000203166002900490600052602060002090601f016020900481019282615c245760008555615be2565b82601f10615c3d5782800160ff19823516178555615be2565b82800160010185558215615be2579182015b82811115615be2578235825591602001919060010190615c4f565b6040518060200160405280600081525090565b604080516101208101909152806000815260200160008152602001600081526020016000815260200160008152602001600081526020016000815260200160008152602001600081525090565b6040805161010081019091528060008152602001600081526020016000815260200160008152602001600081526020016000815260200160008152602001600081525090565b6040805160e0810190915280600081526020016000815260200160008152602001600081526020016000815260200160008152602001600081525090565b604080516080810190915280600081526020016000815260200160008152602001600081525090565b5b80821115611a3a5760008155600101615d7856fe6d61726b6574206d6179206f6e6c7920626520696e697469616c697a6564206f6e6365696e697469616c2065786368616e67652072617465206d7573742062652067726561746572207468616e207a65726f2e6f6e6c79207468652061646d696e206d6179207365742074686520636f6d702d6c696b652064656c656761746573657474696e6720696e7465726573742072617465206d6f64656c206661696c6564626f72726f7742616c616e636553746f7265643a20626f72726f7742616c616e636553746f726564496e7465726e616c206661696c656452455041595f424f52524f575f4e45575f4143434f554e545f424f52524f575f42414c414e43455f43414c43554c4154494f4e5f4641494c45446f6e6c7920467573652061646d696e206d617920696e697469616c697a6520746865206d61726b6574ddf252ad1be2c89b69c2b068fc378daa952ba7f163c4a11628f55a4df523b3ef52455041595f424f52524f575f4e45575f544f54414c5f42414c414e43455f43414c43554c4154494f4e5f4641494c45444c49515549444154455f434f4d5054524f4c4c45525f43414c43554c4154455f414d4f554e545f5345495a455f4641494c454465786368616e67655261746553746f7265643a2065786368616e67655261746553746f726564496e7465726e616c206661696c65646f6e65206f662072656465656d546f6b656e73496e206f722072656465656d416d6f756e74496e206d757374206265207a65726fa26469706673582212207abb21369b2cb70a5cae41c7f8649c7532c422fa69ab5f2737e8012ddfcf386b64736f6c63430007060033",
  "devdoc": {
    "author": "Compound",
    "kind": "dev",
    "methods": {
      "_becomeImplementation(bytes)": {
        "params": {
          "data": "The encoded bytes data for any initialization"
        }
      },
      "_delegateCompLikeTo(address)": {
        "details": "CTokens whose underlying are not CompLike should revert here",
        "params": {
          "compLikeDelegatee": "The address to delegate votes to"
        }
      },
      "_prepare()": {
        "details": "Checks comptroller.autoImplementation and upgrades the implementation if necessary"
      },
      "_reduceReserves(uint256)": {
        "params": {
          "reduceAmount": "Amount of reduction to reserves"
        },
        "returns": {
          "_0": "uint 0=success, otherwise a failure (see ErrorReporter.sol for details)"
        }
      },
      "_setAdminFee(uint256)": {
        "details": "Admin function to accrue interest and set a new admin fee",
        "returns": {
          "_0": "uint 0=success, otherwise a failure (see ErrorReporter.sol for details)"
        }
      },
      "_setImplementationSafe(address,bool,bytes)": {
        "params": {
          "allowResign": "Flag to indicate whether to call _resignImplementation on the old implementation",
          "becomeImplementationData": "The encoded bytes data to be passed to _becomeImplementation",
          "implementation_": "The address of the new implementation for delegation"
        }
      },
      "_setInterestRateModel(address)": {
        "details": "Admin function to accrue interest and update the interest rate model",
        "params": {
          "newInterestRateModel": "the new interest rate model to use"
        },
        "returns": {
          "_0": "uint 0=success, otherwise a failure (see ErrorReporter.sol for details)"
        }
      },
      "_setNameAndSymbol(string,string)": {
        "details": "Admin function to update the cToken ERC20 name and symbol",
        "params": {
          "_name": "the new ERC20 token name to use",
          "_symbol": "the new ERC20 token symbol to use"
        }
      },
      "_setReserveFactor(uint256)": {
        "details": "Admin function to accrue interest and set a new reserve factor",
        "returns": {
          "_0": "uint 0=success, otherwise a failure (see ErrorReporter.sol for details)"
        }
      },
      "_withdrawAdminFees(uint256)": {
        "params": {
          "withdrawAmount": "Amount of fees to withdraw"
        },
        "returns": {
          "_0": "uint 0=success, otherwise a failure (see ErrorReporter.sol for details)"
        }
      },
      "_withdrawFuseFees(uint256)": {
        "params": {
          "withdrawAmount": "Amount of fees to withdraw"
        },
        "returns": {
          "_0": "uint 0=success, otherwise a failure (see ErrorReporter.sol for details)"
        }
      },
      "accrueInterest()": {
        "details": "This calculates interest accrued from the last checkpointed block   up to the current block and writes new checkpoint to storage."
      },
      "allowance(address,address)": {
        "params": {
          "owner": "The address of the account which owns the tokens to be spent",
          "spender": "The address of the account which may transfer tokens"
        },
        "returns": {
          "_0": "The number of tokens allowed to be spent (-1 means infinite)"
        }
      },
      "approve(address,uint256)": {
        "details": "This will overwrite the approval amount for `spender`  and is subject to issues noted [here](https://eips.ethereum.org/EIPS/eip-20#approve)",
        "params": {
          "amount": "The number of tokens that are approved (-1 means infinite)",
          "spender": "The address of the account which may transfer tokens"
        },
        "returns": {
          "_0": "Whether or not the approval succeeded"
        }
      },
      "balanceOf(address)": {
        "params": {
          "owner": "The address of the account to query"
        },
        "returns": {
          "_0": "The number of tokens owned by `owner`"
        }
      },
      "balanceOfUnderlying(address)": {
        "details": "This also accrues interest in a transaction",
        "params": {
          "owner": "The address of the account to query"
        },
        "returns": {
          "_0": "The amount of underlying owned by `owner`"
        }
      },
      "borrow(uint256)": {
        "params": {
          "borrowAmount": "The amount of the underlying asset to borrow"
        },
        "returns": {
          "_0": "uint 0=success, otherwise a failure (see ErrorReporter.sol for details)"
        }
      },
      "borrowBalanceCurrent(address)": {
        "params": {
          "account": "The address whose balance should be calculated after updating borrowIndex"
        },
        "returns": {
          "_0": "The calculated balance"
        }
      },
      "borrowBalanceStored(address)": {
        "params": {
          "account": "The address whose balance should be calculated"
        },
        "returns": {
          "_0": "The calculated balance"
        }
      },
      "borrowRatePerBlock()": {
        "returns": {
          "_0": "The borrow interest rate per block, scaled by 1e18"
        }
      },
      "exchangeRateCurrent()": {
        "returns": {
          "_0": "Calculated exchange rate scaled by 1e18"
        }
      },
      "exchangeRateStored()": {
        "details": "This function does not accrue interest before calculating the exchange rate",
        "returns": {
          "_0": "Calculated exchange rate scaled by 1e18"
        }
      },
      "getAccountSnapshot(address)": {
        "details": "This is used by comptroller to more efficiently perform liquidity checks.",
        "params": {
          "account": "Address of the account to snapshot"
        },
        "returns": {
          "_0": "(possible error, token balance, borrow balance, exchange rate mantissa)"
        }
      },
      "getCash()": {
        "returns": {
          "_0": "The quantity of underlying asset owned by this contract"
        }
      },
      "initialize(address,address,address,string,string,uint256,uint256)": {
        "params": {
          "comptroller_": "The address of the Comptroller",
          "interestRateModel_": "The address of the interest rate model",
          "name_": "ERC-20 name of this token",
          "symbol_": "ERC-20 symbol of this token",
          "underlying_": "The address of the underlying asset"
        }
      },
      "initialize(address,address,uint256,string,string,uint8,uint256,uint256)": {
        "params": {
          "comptroller_": "The address of the Comptroller",
          "decimals_": "EIP-20 decimal precision of this token",
          "initialExchangeRateMantissa_": "The initial exchange rate, scaled by 1e18",
          "interestRateModel_": "The address of the interest rate model",
          "name_": "EIP-20 name of this token",
          "symbol_": "EIP-20 symbol of this token"
        }
      },
      "liquidateBorrow(address,uint256,address)": {
        "params": {
          "borrower": "The borrower of this cToken to be liquidated",
          "cTokenCollateral": "The market in which to seize collateral from the borrower",
          "repayAmount": "The amount of the underlying borrowed asset to repay"
        },
        "returns": {
          "_0": "uint 0=success, otherwise a failure (see ErrorReporter.sol for details)"
        }
      },
      "mint(uint256)": {
        "details": "Accrues interest whether or not the operation succeeds, unless reverted",
        "params": {
          "mintAmount": "The amount of the underlying asset to supply"
        },
        "returns": {
          "_0": "uint 0=success, otherwise a failure (see ErrorReporter.sol for details)"
        }
      },
      "redeem(uint256)": {
        "details": "Accrues interest whether or not the operation succeeds, unless reverted",
        "params": {
          "redeemTokens": "The number of cTokens to redeem into underlying"
        },
        "returns": {
          "_0": "uint 0=success, otherwise a failure (see ErrorReporter.sol for details)"
        }
      },
      "redeemUnderlying(uint256)": {
        "details": "Accrues interest whether or not the operation succeeds, unless reverted",
        "params": {
          "redeemAmount": "The amount of underlying to redeem"
        },
        "returns": {
          "_0": "uint 0=success, otherwise a failure (see ErrorReporter.sol for details)"
        }
      },
      "repayBorrow(uint256)": {
        "params": {
          "repayAmount": "The amount to repay"
        },
        "returns": {
          "_0": "uint 0=success, otherwise a failure (see ErrorReporter.sol for details)"
        }
      },
      "repayBorrowBehalf(address,uint256)": {
        "params": {
          "borrower": "the account with the debt being payed off",
          "repayAmount": "The amount to repay"
        },
        "returns": {
          "_0": "uint 0=success, otherwise a failure (see ErrorReporter.sol for details)"
        }
      },
      "seize(address,address,uint256)": {
        "details": "Will fail unless called by another cToken during the process of liquidation.  Its absolutely critical to use msg.sender as the borrowed cToken and not a parameter.",
        "params": {
          "borrower": "The account having collateral seized",
          "liquidator": "The account receiving seized collateral",
          "seizeTokens": "The number of cTokens to seize"
        },
        "returns": {
          "_0": "uint 0=success, otherwise a failure (see ErrorReporter.sol for details)"
        }
      },
      "supplyRatePerBlock()": {
        "returns": {
          "_0": "The supply interest rate per block, scaled by 1e18"
        }
      },
      "totalBorrowsCurrent()": {
        "returns": {
          "_0": "The total borrows with interest"
        }
      },
      "transfer(address,uint256)": {
        "params": {
          "amount": "The number of tokens to transfer",
          "dst": "The address of the destination account"
        },
        "returns": {
          "_0": "Whether or not the transfer succeeded"
        }
      },
      "transferFrom(address,address,uint256)": {
        "params": {
          "amount": "The number of tokens to transfer",
          "dst": "The address of the destination account",
          "src": "The address of the source account"
        },
        "returns": {
          "_0": "Whether or not the transfer succeeded"
        }
      }
    },
    "title": "Compound's CErc20Delegate Contract",
    "version": 1
  },
  "userdoc": {
    "events": {
      "AccrueInterest(uint256,uint256,uint256,uint256)": {
        "notice": "Event emitted when interest is accrued"
      },
      "Approval(address,address,uint256)": {
        "notice": "EIP20 Approval event"
      },
      "Borrow(address,uint256,uint256,uint256)": {
        "notice": "Event emitted when underlying is borrowed"
      },
      "LiquidateBorrow(address,address,uint256,address,uint256)": {
        "notice": "Event emitted when a borrow is liquidated"
      },
      "Mint(address,uint256,uint256)": {
        "notice": "Event emitted when tokens are minted"
      },
      "NewAdminFee(uint256,uint256)": {
        "notice": "Event emitted when the admin fee is changed"
      },
      "NewComptroller(address,address)": {
        "notice": "Event emitted when comptroller is changed"
      },
      "NewFuseFee(uint256,uint256)": {
        "notice": "Event emitted when the Fuse fee is changed"
      },
      "NewImplementation(address,address)": {
        "notice": "Emitted when implementation is changed"
      },
      "NewMarketInterestRateModel(address,address)": {
        "notice": "Event emitted when interestRateModel is changed"
      },
      "NewReserveFactor(uint256,uint256)": {
        "notice": "Event emitted when the reserve factor is changed"
      },
      "Redeem(address,uint256,uint256)": {
        "notice": "Event emitted when tokens are redeemed"
      },
      "RepayBorrow(address,address,uint256,uint256,uint256)": {
        "notice": "Event emitted when a borrow is repaid"
      },
      "ReservesAdded(address,uint256,uint256)": {
        "notice": "Event emitted when the reserves are added"
      },
      "ReservesReduced(address,uint256,uint256)": {
        "notice": "Event emitted when the reserves are reduced"
      },
      "Transfer(address,address,uint256)": {
        "notice": "EIP20 Transfer event"
      }
    },
    "kind": "user",
    "methods": {
      "_becomeImplementation(bytes)": {
        "notice": "Called by the delegator on a delegate to initialize it for duty"
      },
      "_delegateCompLikeTo(address)": {
        "notice": "Admin call to delegate the votes of the COMP-like underlying"
      },
      "_prepare()": {
        "notice": "Function called before all delegator functions"
      },
      "_reduceReserves(uint256)": {
        "notice": "Accrues interest and reduces reserves by transferring to admin"
      },
      "_setAdminFee(uint256)": {
        "notice": "accrues interest and sets a new admin fee for the protocol using _setAdminFeeFresh"
      },
      "_setImplementationSafe(address,bool,bytes)": {
        "notice": "Called by the admin to update the implementation of the delegator"
      },
      "_setInterestRateModel(address)": {
        "notice": "accrues interest and updates the interest rate model using _setInterestRateModelFresh"
      },
      "_setNameAndSymbol(string,string)": {
        "notice": "updates the cToken ERC20 name and symbol"
      },
      "_setReserveFactor(uint256)": {
        "notice": "accrues interest and sets a new reserve factor for the protocol using _setReserveFactorFresh"
      },
      "_withdrawAdminFees(uint256)": {
        "notice": "Accrues interest and reduces admin fees by transferring to admin"
      },
      "_withdrawFuseFees(uint256)": {
        "notice": "Accrues interest and reduces Fuse fees by transferring to Fuse"
      },
      "accrualBlockNumber()": {
        "notice": "Block number that interest was last accrued at"
      },
      "accrueInterest()": {
        "notice": "Applies accrued interest to total borrows and reserves"
      },
      "adminFeeMantissa()": {
        "notice": "Fraction of interest currently set aside for admin fees"
      },
      "allowance(address,address)": {
        "notice": "Get the current allowance from `owner` for `spender`"
      },
      "approve(address,uint256)": {
        "notice": "Approve `spender` to transfer up to `amount` from `src`"
      },
      "balanceOf(address)": {
        "notice": "Get the token balance of the `owner`"
      },
      "balanceOfUnderlying(address)": {
        "notice": "Get the underlying balance of the `owner`"
      },
      "borrow(uint256)": {
        "notice": "Sender borrows assets from the protocol to their own address"
      },
      "borrowBalanceCurrent(address)": {
        "notice": "Accrue interest to updated borrowIndex and then calculate account's borrow balance using the updated borrowIndex"
      },
      "borrowBalanceStored(address)": {
        "notice": "Return the borrow balance of account based on stored data"
      },
      "borrowIndex()": {
        "notice": "Accumulator of the total earned interest rate since the opening of the market"
      },
      "borrowRatePerBlock()": {
        "notice": "Returns the current per-block borrow interest rate for this cToken"
      },
      "comptroller()": {
        "notice": "Contract which oversees inter-cToken operations"
      },
      "constructor": {
        "notice": "Construct an empty delegate"
      },
      "decimals()": {
        "notice": "EIP-20 token decimals for this token"
      },
      "exchangeRateCurrent()": {
        "notice": "Accrue interest then return the up-to-date exchange rate"
      },
      "exchangeRateStored()": {
        "notice": "Calculates the exchange rate from the underlying to the CToken"
      },
      "fuseFeeMantissa()": {
        "notice": "Fraction of interest currently set aside for Fuse fees"
      },
      "getAccountSnapshot(address)": {
        "notice": "Get a snapshot of the account's balances, and the cached exchange rate"
      },
      "getCash()": {
        "notice": "Get cash balance of this cToken in the underlying asset"
      },
      "implementation()": {
        "notice": "Implementation address for this contract"
      },
      "initialize(address,address,address,string,string,uint256,uint256)": {
        "notice": "Initialize the new money market"
      },
      "initialize(address,address,uint256,string,string,uint8,uint256,uint256)": {
        "notice": "Initialize the money market"
      },
      "interestRateModel()": {
        "notice": "Model which tells what the current interest rate should be"
      },
      "isCEther()": {
        "notice": "Indicator that this is or is not a CEther contract (for inspection)"
      },
      "isCToken()": {
        "notice": "Indicator that this is a CToken contract (for inspection)"
      },
      "liquidateBorrow(address,uint256,address)": {
        "notice": "The sender liquidates the borrowers collateral.  The collateral seized is transferred to the liquidator."
      },
      "mint(uint256)": {
        "notice": "Sender supplies assets into the market and receives cTokens in exchange"
      },
      "name()": {
        "notice": "EIP-20 token name for this token"
      },
      "redeem(uint256)": {
        "notice": "Sender redeems cTokens in exchange for the underlying asset"
      },
      "redeemUnderlying(uint256)": {
        "notice": "Sender redeems cTokens in exchange for a specified amount of underlying asset"
      },
      "repayBorrow(uint256)": {
        "notice": "Sender repays their own borrow"
      },
      "repayBorrowBehalf(address,uint256)": {
        "notice": "Sender repays a borrow belonging to borrower"
      },
      "reserveFactorMantissa()": {
        "notice": "Fraction of interest currently set aside for reserves"
      },
      "seize(address,address,uint256)": {
        "notice": "Transfers collateral tokens (this market) to the liquidator."
      },
      "supplyRatePerBlock()": {
        "notice": "Returns the current per-block supply interest rate for this cToken"
      },
      "symbol()": {
        "notice": "EIP-20 token symbol for this token"
      },
      "totalAdminFees()": {
        "notice": "Total amount of admin fees of the underlying held in this market"
      },
      "totalBorrows()": {
        "notice": "Total amount of outstanding borrows of the underlying in this market"
      },
      "totalBorrowsCurrent()": {
        "notice": "Returns the current total borrows plus accrued interest"
      },
      "totalFuseFees()": {
        "notice": "Total amount of Fuse fees of the underlying held in this market"
      },
      "totalReserves()": {
        "notice": "Total amount of reserves of the underlying held in this market"
      },
      "totalSupply()": {
        "notice": "Total number of tokens in circulation"
      },
      "transfer(address,uint256)": {
        "notice": "Transfer `amount` tokens from `msg.sender` to `dst`"
      },
      "transferFrom(address,address,uint256)": {
        "notice": "Transfer `amount` tokens from `src` to `dst`"
      },
      "underlying()": {
        "notice": "Underlying asset for this CToken"
      }
    },
    "notice": "CTokens which wrap an EIP-20 underlying and are delegated to",
    "version": 1
  },
  "storageLayout": {
    "storage": [
      {
        "astId": 10512,
        "contract": "contracts/compound/CErc20Delegate.sol:CErc20Delegate",
        "label": "implementation",
        "offset": 0,
        "slot": "0",
        "type": "t_address"
      },
      {
        "astId": 16072,
        "contract": "contracts/compound/CErc20Delegate.sol:CErc20Delegate",
        "label": "__admin",
        "offset": 0,
        "slot": "1",
        "type": "t_address_payable"
      },
      {
        "astId": 16075,
        "contract": "contracts/compound/CErc20Delegate.sol:CErc20Delegate",
        "label": "__fuseAdminHasRights",
        "offset": 20,
        "slot": "1",
        "type": "t_bool"
      },
      {
        "astId": 16078,
        "contract": "contracts/compound/CErc20Delegate.sol:CErc20Delegate",
        "label": "__adminHasRights",
        "offset": 21,
        "slot": "1",
        "type": "t_bool"
      },
      {
        "astId": 16084,
        "contract": "contracts/compound/CErc20Delegate.sol:CErc20Delegate",
        "label": "_notEntered",
        "offset": 22,
        "slot": "1",
        "type": "t_bool"
      },
      {
        "astId": 16087,
        "contract": "contracts/compound/CErc20Delegate.sol:CErc20Delegate",
        "label": "name",
        "offset": 0,
        "slot": "2",
        "type": "t_string_storage"
      },
      {
        "astId": 16090,
        "contract": "contracts/compound/CErc20Delegate.sol:CErc20Delegate",
        "label": "symbol",
        "offset": 0,
        "slot": "3",
        "type": "t_string_storage"
      },
      {
        "astId": 16093,
        "contract": "contracts/compound/CErc20Delegate.sol:CErc20Delegate",
        "label": "decimals",
        "offset": 0,
        "slot": "4",
        "type": "t_uint8"
      },
      {
        "astId": 16101,
        "contract": "contracts/compound/CErc20Delegate.sol:CErc20Delegate",
        "label": "__pendingAdmin",
        "offset": 1,
        "slot": "4",
        "type": "t_address_payable"
      },
      {
        "astId": 16104,
        "contract": "contracts/compound/CErc20Delegate.sol:CErc20Delegate",
        "label": "comptroller",
        "offset": 0,
        "slot": "5",
        "type": "t_contract(ComptrollerInterface)20826"
      },
      {
        "astId": 16107,
        "contract": "contracts/compound/CErc20Delegate.sol:CErc20Delegate",
        "label": "interestRateModel",
        "offset": 0,
        "slot": "6",
        "type": "t_contract(InterestRateModel)25462"
      },
      {
        "astId": 16109,
        "contract": "contracts/compound/CErc20Delegate.sol:CErc20Delegate",
        "label": "initialExchangeRateMantissa",
        "offset": 0,
        "slot": "7",
        "type": "t_uint256"
      },
      {
        "astId": 16112,
        "contract": "contracts/compound/CErc20Delegate.sol:CErc20Delegate",
        "label": "adminFeeMantissa",
        "offset": 0,
        "slot": "8",
        "type": "t_uint256"
      },
      {
        "astId": 16115,
        "contract": "contracts/compound/CErc20Delegate.sol:CErc20Delegate",
        "label": "fuseFeeMantissa",
        "offset": 0,
        "slot": "9",
        "type": "t_uint256"
      },
      {
        "astId": 16118,
        "contract": "contracts/compound/CErc20Delegate.sol:CErc20Delegate",
        "label": "reserveFactorMantissa",
        "offset": 0,
        "slot": "10",
        "type": "t_uint256"
      },
      {
        "astId": 16121,
        "contract": "contracts/compound/CErc20Delegate.sol:CErc20Delegate",
        "label": "accrualBlockNumber",
        "offset": 0,
        "slot": "11",
        "type": "t_uint256"
      },
      {
        "astId": 16124,
        "contract": "contracts/compound/CErc20Delegate.sol:CErc20Delegate",
        "label": "borrowIndex",
        "offset": 0,
        "slot": "12",
        "type": "t_uint256"
      },
      {
        "astId": 16127,
        "contract": "contracts/compound/CErc20Delegate.sol:CErc20Delegate",
        "label": "totalBorrows",
        "offset": 0,
        "slot": "13",
        "type": "t_uint256"
      },
      {
        "astId": 16130,
        "contract": "contracts/compound/CErc20Delegate.sol:CErc20Delegate",
        "label": "totalReserves",
        "offset": 0,
        "slot": "14",
        "type": "t_uint256"
      },
      {
        "astId": 16133,
        "contract": "contracts/compound/CErc20Delegate.sol:CErc20Delegate",
        "label": "totalAdminFees",
        "offset": 0,
        "slot": "15",
        "type": "t_uint256"
      },
      {
        "astId": 16136,
        "contract": "contracts/compound/CErc20Delegate.sol:CErc20Delegate",
        "label": "totalFuseFees",
        "offset": 0,
        "slot": "16",
        "type": "t_uint256"
      },
      {
        "astId": 16139,
        "contract": "contracts/compound/CErc20Delegate.sol:CErc20Delegate",
        "label": "totalSupply",
        "offset": 0,
        "slot": "17",
        "type": "t_uint256"
      },
      {
        "astId": 16143,
        "contract": "contracts/compound/CErc20Delegate.sol:CErc20Delegate",
        "label": "accountTokens",
        "offset": 0,
        "slot": "18",
        "type": "t_mapping(t_address,t_uint256)"
      },
      {
        "astId": 16149,
        "contract": "contracts/compound/CErc20Delegate.sol:CErc20Delegate",
        "label": "transferAllowances",
        "offset": 0,
        "slot": "19",
        "type": "t_mapping(t_address,t_mapping(t_address,t_uint256))"
      },
      {
        "astId": 16158,
        "contract": "contracts/compound/CErc20Delegate.sol:CErc20Delegate",
        "label": "accountBorrows",
        "offset": 0,
        "slot": "20",
        "type": "t_mapping(t_address,t_struct(BorrowSnapshot)16154_storage)"
      },
      {
        "astId": 16469,
        "contract": "contracts/compound/CErc20Delegate.sol:CErc20Delegate",
        "label": "underlying",
        "offset": 0,
        "slot": "21",
        "type": "t_address"
      }
    ],
    "types": {
      "t_address": {
        "encoding": "inplace",
        "label": "address",
        "numberOfBytes": "20"
      },
      "t_address_payable": {
        "encoding": "inplace",
        "label": "address payable",
        "numberOfBytes": "20"
      },
      "t_bool": {
        "encoding": "inplace",
        "label": "bool",
        "numberOfBytes": "1"
      },
      "t_contract(ComptrollerInterface)20826": {
        "encoding": "inplace",
        "label": "contract ComptrollerInterface",
        "numberOfBytes": "20"
      },
      "t_contract(InterestRateModel)25462": {
        "encoding": "inplace",
        "label": "contract InterestRateModel",
        "numberOfBytes": "20"
      },
      "t_mapping(t_address,t_mapping(t_address,t_uint256))": {
        "encoding": "mapping",
        "key": "t_address",
        "label": "mapping(address => mapping(address => uint256))",
        "numberOfBytes": "32",
        "value": "t_mapping(t_address,t_uint256)"
      },
      "t_mapping(t_address,t_struct(BorrowSnapshot)16154_storage)": {
        "encoding": "mapping",
        "key": "t_address",
        "label": "mapping(address => struct CTokenStorage.BorrowSnapshot)",
        "numberOfBytes": "32",
        "value": "t_struct(BorrowSnapshot)16154_storage"
      },
      "t_mapping(t_address,t_uint256)": {
        "encoding": "mapping",
        "key": "t_address",
        "label": "mapping(address => uint256)",
        "numberOfBytes": "32",
        "value": "t_uint256"
      },
      "t_string_storage": {
        "encoding": "bytes",
        "label": "string",
        "numberOfBytes": "32"
      },
      "t_struct(BorrowSnapshot)16154_storage": {
        "encoding": "inplace",
        "label": "struct CTokenStorage.BorrowSnapshot",
        "members": [
          {
            "astId": 16151,
            "contract": "contracts/compound/CErc20Delegate.sol:CErc20Delegate",
            "label": "principal",
            "offset": 0,
            "slot": "0",
            "type": "t_uint256"
          },
          {
            "astId": 16153,
            "contract": "contracts/compound/CErc20Delegate.sol:CErc20Delegate",
            "label": "interestIndex",
            "offset": 0,
            "slot": "1",
            "type": "t_uint256"
          }
        ],
        "numberOfBytes": "64"
      },
      "t_uint256": {
        "encoding": "inplace",
        "label": "uint256",
        "numberOfBytes": "32"
      },
      "t_uint8": {
        "encoding": "inplace",
        "label": "uint8",
        "numberOfBytes": "1"
      }
    }
  }
}