{
  "address": "0xF93805a37aedE6Dc7001ADcf422770186C044AF0",
  "abi": [
    {
      "inputs": [],
      "stateMutability": "nonpayable",
      "type": "constructor"
    },
    {
      "anonymous": false,
      "inputs": [
        {
          "indexed": false,
          "internalType": "uint256",
          "name": "cashPrior",
          "type": "uint256"
        },
        {
          "indexed": false,
          "internalType": "uint256",
          "name": "interestAccumulated",
          "type": "uint256"
        },
        {
          "indexed": false,
          "internalType": "uint256",
          "name": "borrowIndex",
          "type": "uint256"
        },
        {
          "indexed": false,
          "internalType": "uint256",
          "name": "totalBorrows",
          "type": "uint256"
        }
      ],
      "name": "AccrueInterest",
      "type": "event"
    },
    {
      "anonymous": false,
      "inputs": [
        {
          "indexed": true,
          "internalType": "address",
          "name": "owner",
          "type": "address"
        },
        {
          "indexed": true,
          "internalType": "address",
          "name": "spender",
          "type": "address"
        },
        {
          "indexed": false,
          "internalType": "uint256",
          "name": "amount",
          "type": "uint256"
        }
      ],
      "name": "Approval",
      "type": "event"
    },
    {
      "anonymous": false,
      "inputs": [
        {
          "indexed": false,
          "internalType": "address",
          "name": "borrower",
          "type": "address"
        },
        {
          "indexed": false,
          "internalType": "uint256",
          "name": "borrowAmount",
          "type": "uint256"
        },
        {
          "indexed": false,
          "internalType": "uint256",
          "name": "accountBorrows",
          "type": "uint256"
        },
        {
          "indexed": false,
          "internalType": "uint256",
          "name": "totalBorrows",
          "type": "uint256"
        }
      ],
      "name": "Borrow",
      "type": "event"
    },
    {
      "anonymous": false,
      "inputs": [
        {
          "indexed": false,
          "internalType": "uint256",
          "name": "error",
          "type": "uint256"
        },
        {
          "indexed": false,
          "internalType": "uint256",
          "name": "info",
          "type": "uint256"
        },
        {
          "indexed": false,
          "internalType": "uint256",
          "name": "detail",
          "type": "uint256"
        }
      ],
      "name": "Failure",
      "type": "event"
    },
    {
      "anonymous": false,
      "inputs": [
        {
          "indexed": false,
          "internalType": "address",
          "name": "liquidator",
          "type": "address"
        },
        {
          "indexed": false,
          "internalType": "address",
          "name": "borrower",
          "type": "address"
        },
        {
          "indexed": false,
          "internalType": "uint256",
          "name": "repayAmount",
          "type": "uint256"
        },
        {
          "indexed": false,
          "internalType": "address",
          "name": "cTokenCollateral",
          "type": "address"
        },
        {
          "indexed": false,
          "internalType": "uint256",
          "name": "seizeTokens",
          "type": "uint256"
        }
      ],
      "name": "LiquidateBorrow",
      "type": "event"
    },
    {
      "anonymous": false,
      "inputs": [
        {
          "indexed": false,
          "internalType": "address",
          "name": "minter",
          "type": "address"
        },
        {
          "indexed": false,
          "internalType": "uint256",
          "name": "mintAmount",
          "type": "uint256"
        },
        {
          "indexed": false,
          "internalType": "uint256",
          "name": "mintTokens",
          "type": "uint256"
        }
      ],
      "name": "Mint",
      "type": "event"
    },
    {
      "anonymous": false,
      "inputs": [
        {
          "indexed": false,
          "internalType": "uint256",
          "name": "oldAdminFeeMantissa",
          "type": "uint256"
        },
        {
          "indexed": false,
          "internalType": "uint256",
          "name": "newAdminFeeMantissa",
          "type": "uint256"
        }
      ],
      "name": "NewAdminFee",
      "type": "event"
    },
    {
      "anonymous": false,
      "inputs": [
        {
          "indexed": false,
          "internalType": "contract ComptrollerInterface",
          "name": "oldComptroller",
          "type": "address"
        },
        {
          "indexed": false,
          "internalType": "contract ComptrollerInterface",
          "name": "newComptroller",
          "type": "address"
        }
      ],
      "name": "NewComptroller",
      "type": "event"
    },
    {
      "anonymous": false,
      "inputs": [
        {
          "indexed": false,
          "internalType": "uint256",
          "name": "oldFuseFeeMantissa",
          "type": "uint256"
        },
        {
          "indexed": false,
          "internalType": "uint256",
          "name": "newFuseFeeMantissa",
          "type": "uint256"
        }
      ],
      "name": "NewFuseFee",
      "type": "event"
    },
    {
      "anonymous": false,
      "inputs": [
        {
          "indexed": false,
          "internalType": "address",
          "name": "oldImplementation",
          "type": "address"
        },
        {
          "indexed": false,
          "internalType": "address",
          "name": "newImplementation",
          "type": "address"
        }
      ],
      "name": "NewImplementation",
      "type": "event"
    },
    {
      "anonymous": false,
      "inputs": [
        {
          "indexed": false,
          "internalType": "contract InterestRateModel",
          "name": "oldInterestRateModel",
          "type": "address"
        },
        {
          "indexed": false,
          "internalType": "contract InterestRateModel",
          "name": "newInterestRateModel",
          "type": "address"
        }
      ],
      "name": "NewMarketInterestRateModel",
      "type": "event"
    },
    {
      "anonymous": false,
      "inputs": [
        {
          "indexed": false,
          "internalType": "uint256",
          "name": "oldReserveFactorMantissa",
          "type": "uint256"
        },
        {
          "indexed": false,
          "internalType": "uint256",
          "name": "newReserveFactorMantissa",
          "type": "uint256"
        }
      ],
      "name": "NewReserveFactor",
      "type": "event"
    },
    {
      "anonymous": false,
      "inputs": [
        {
          "indexed": false,
          "internalType": "address",
          "name": "redeemer",
          "type": "address"
        },
        {
          "indexed": false,
          "internalType": "uint256",
          "name": "redeemAmount",
          "type": "uint256"
        },
        {
          "indexed": false,
          "internalType": "uint256",
          "name": "redeemTokens",
          "type": "uint256"
        }
      ],
      "name": "Redeem",
      "type": "event"
    },
    {
      "anonymous": false,
      "inputs": [
        {
          "indexed": false,
          "internalType": "address",
          "name": "payer",
          "type": "address"
        },
        {
          "indexed": false,
          "internalType": "address",
          "name": "borrower",
          "type": "address"
        },
        {
          "indexed": false,
          "internalType": "uint256",
          "name": "repayAmount",
          "type": "uint256"
        },
        {
          "indexed": false,
          "internalType": "uint256",
          "name": "accountBorrows",
          "type": "uint256"
        },
        {
          "indexed": false,
          "internalType": "uint256",
          "name": "totalBorrows",
          "type": "uint256"
        }
      ],
      "name": "RepayBorrow",
      "type": "event"
    },
    {
      "anonymous": false,
      "inputs": [
        {
          "indexed": false,
          "internalType": "address",
          "name": "benefactor",
          "type": "address"
        },
        {
          "indexed": false,
          "internalType": "uint256",
          "name": "addAmount",
          "type": "uint256"
        },
        {
          "indexed": false,
          "internalType": "uint256",
          "name": "newTotalReserves",
          "type": "uint256"
        }
      ],
      "name": "ReservesAdded",
      "type": "event"
    },
    {
      "anonymous": false,
      "inputs": [
        {
          "indexed": false,
          "internalType": "address",
          "name": "admin",
          "type": "address"
        },
        {
          "indexed": false,
          "internalType": "uint256",
          "name": "reduceAmount",
          "type": "uint256"
        },
        {
          "indexed": false,
          "internalType": "uint256",
          "name": "newTotalReserves",
          "type": "uint256"
        }
      ],
      "name": "ReservesReduced",
      "type": "event"
    },
    {
      "anonymous": false,
      "inputs": [
        {
          "indexed": true,
          "internalType": "address",
          "name": "from",
          "type": "address"
        },
        {
          "indexed": true,
          "internalType": "address",
          "name": "to",
          "type": "address"
        },
        {
          "indexed": false,
          "internalType": "uint256",
          "name": "amount",
          "type": "uint256"
        }
      ],
      "name": "Transfer",
      "type": "event"
    },
    {
      "inputs": [
        {
          "internalType": "bytes",
          "name": "data",
          "type": "bytes"
        }
      ],
      "name": "_becomeImplementation",
      "outputs": [],
      "stateMutability": "nonpayable",
      "type": "function"
    },
    {
      "inputs": [],
      "name": "_prepare",
      "outputs": [],
      "stateMutability": "payable",
      "type": "function"
    },
    {
      "inputs": [
        {
          "internalType": "uint256",
          "name": "reduceAmount",
          "type": "uint256"
        }
      ],
      "name": "_reduceReserves",
      "outputs": [
        {
          "internalType": "uint256",
          "name": "",
          "type": "uint256"
        }
      ],
      "stateMutability": "nonpayable",
      "type": "function"
    },
    {
      "inputs": [
        {
          "internalType": "uint256",
          "name": "newAdminFeeMantissa",
          "type": "uint256"
        }
      ],
      "name": "_setAdminFee",
      "outputs": [
        {
          "internalType": "uint256",
          "name": "",
          "type": "uint256"
        }
      ],
      "stateMutability": "nonpayable",
      "type": "function"
    },
    {
      "inputs": [
        {
          "internalType": "address",
          "name": "implementation_",
          "type": "address"
        },
        {
          "internalType": "bool",
          "name": "allowResign",
          "type": "bool"
        },
        {
          "internalType": "bytes",
          "name": "becomeImplementationData",
          "type": "bytes"
        }
      ],
      "name": "_setImplementationSafe",
      "outputs": [],
      "stateMutability": "nonpayable",
      "type": "function"
    },
    {
      "inputs": [
        {
          "internalType": "contract InterestRateModel",
          "name": "newInterestRateModel",
          "type": "address"
        }
      ],
      "name": "_setInterestRateModel",
      "outputs": [
        {
          "internalType": "uint256",
          "name": "",
          "type": "uint256"
        }
      ],
      "stateMutability": "nonpayable",
      "type": "function"
    },
    {
      "inputs": [
        {
          "internalType": "string",
          "name": "_name",
          "type": "string"
        },
        {
          "internalType": "string",
          "name": "_symbol",
          "type": "string"
        }
      ],
      "name": "_setNameAndSymbol",
      "outputs": [],
      "stateMutability": "nonpayable",
      "type": "function"
    },
    {
      "inputs": [
        {
          "internalType": "uint256",
          "name": "newReserveFactorMantissa",
          "type": "uint256"
        }
      ],
      "name": "_setReserveFactor",
      "outputs": [
        {
          "internalType": "uint256",
          "name": "",
          "type": "uint256"
        }
      ],
      "stateMutability": "nonpayable",
      "type": "function"
    },
    {
      "inputs": [
        {
          "internalType": "uint256",
          "name": "withdrawAmount",
          "type": "uint256"
        }
      ],
      "name": "_withdrawAdminFees",
      "outputs": [
        {
          "internalType": "uint256",
          "name": "",
          "type": "uint256"
        }
      ],
      "stateMutability": "nonpayable",
      "type": "function"
    },
    {
      "inputs": [
        {
          "internalType": "uint256",
          "name": "withdrawAmount",
          "type": "uint256"
        }
      ],
      "name": "_withdrawFuseFees",
      "outputs": [
        {
          "internalType": "uint256",
          "name": "",
          "type": "uint256"
        }
      ],
      "stateMutability": "nonpayable",
      "type": "function"
    },
    {
      "inputs": [],
      "name": "accrualBlockNumber",
      "outputs": [
        {
          "internalType": "uint256",
          "name": "",
          "type": "uint256"
        }
      ],
      "stateMutability": "view",
      "type": "function"
    },
    {
      "inputs": [],
      "name": "accrueInterest",
      "outputs": [
        {
          "internalType": "uint256",
          "name": "",
          "type": "uint256"
        }
      ],
      "stateMutability": "nonpayable",
      "type": "function"
    },
    {
      "inputs": [],
      "name": "adminFeeMantissa",
      "outputs": [
        {
          "internalType": "uint256",
          "name": "",
          "type": "uint256"
        }
      ],
      "stateMutability": "view",
      "type": "function"
    },
    {
      "inputs": [
        {
          "internalType": "address",
          "name": "owner",
          "type": "address"
        },
        {
          "internalType": "address",
          "name": "spender",
          "type": "address"
        }
      ],
      "name": "allowance",
      "outputs": [
        {
          "internalType": "uint256",
          "name": "",
          "type": "uint256"
        }
      ],
      "stateMutability": "view",
      "type": "function"
    },
    {
      "inputs": [
        {
          "internalType": "address",
          "name": "spender",
          "type": "address"
        },
        {
          "internalType": "uint256",
          "name": "amount",
          "type": "uint256"
        }
      ],
      "name": "approve",
      "outputs": [
        {
          "internalType": "bool",
          "name": "",
          "type": "bool"
        }
      ],
      "stateMutability": "nonpayable",
      "type": "function"
    },
    {
      "inputs": [
        {
          "internalType": "address",
          "name": "owner",
          "type": "address"
        }
      ],
      "name": "balanceOf",
      "outputs": [
        {
          "internalType": "uint256",
          "name": "",
          "type": "uint256"
        }
      ],
      "stateMutability": "view",
      "type": "function"
    },
    {
      "inputs": [
        {
          "internalType": "address",
          "name": "owner",
          "type": "address"
        }
      ],
      "name": "balanceOfUnderlying",
      "outputs": [
        {
          "internalType": "uint256",
          "name": "",
          "type": "uint256"
        }
      ],
      "stateMutability": "nonpayable",
      "type": "function"
    },
    {
      "inputs": [
        {
          "internalType": "uint256",
          "name": "borrowAmount",
          "type": "uint256"
        }
      ],
      "name": "borrow",
      "outputs": [
        {
          "internalType": "uint256",
          "name": "",
          "type": "uint256"
        }
      ],
      "stateMutability": "nonpayable",
      "type": "function"
    },
    {
      "inputs": [
        {
          "internalType": "address",
          "name": "account",
          "type": "address"
        }
      ],
      "name": "borrowBalanceCurrent",
      "outputs": [
        {
          "internalType": "uint256",
          "name": "",
          "type": "uint256"
        }
      ],
      "stateMutability": "nonpayable",
      "type": "function"
    },
    {
      "inputs": [
        {
          "internalType": "address",
          "name": "account",
          "type": "address"
        }
      ],
      "name": "borrowBalanceStored",
      "outputs": [
        {
          "internalType": "uint256",
          "name": "",
          "type": "uint256"
        }
      ],
      "stateMutability": "view",
      "type": "function"
    },
    {
      "inputs": [],
      "name": "borrowIndex",
      "outputs": [
        {
          "internalType": "uint256",
          "name": "",
          "type": "uint256"
        }
      ],
      "stateMutability": "view",
      "type": "function"
    },
    {
      "inputs": [],
      "name": "borrowRatePerBlock",
      "outputs": [
        {
          "internalType": "uint256",
          "name": "",
          "type": "uint256"
        }
      ],
      "stateMutability": "view",
      "type": "function"
    },
    {
      "inputs": [],
      "name": "comptroller",
      "outputs": [
        {
          "internalType": "contract ComptrollerInterface",
          "name": "",
          "type": "address"
        }
      ],
      "stateMutability": "view",
      "type": "function"
    },
    {
      "inputs": [],
      "name": "decimals",
      "outputs": [
        {
          "internalType": "uint8",
          "name": "",
          "type": "uint8"
        }
      ],
      "stateMutability": "view",
      "type": "function"
    },
    {
      "inputs": [],
      "name": "exchangeRateCurrent",
      "outputs": [
        {
          "internalType": "uint256",
          "name": "",
          "type": "uint256"
        }
      ],
      "stateMutability": "nonpayable",
      "type": "function"
    },
    {
      "inputs": [],
      "name": "exchangeRateStored",
      "outputs": [
        {
          "internalType": "uint256",
          "name": "",
          "type": "uint256"
        }
      ],
      "stateMutability": "view",
      "type": "function"
    },
    {
      "inputs": [],
      "name": "fuseFeeMantissa",
      "outputs": [
        {
          "internalType": "uint256",
          "name": "",
          "type": "uint256"
        }
      ],
      "stateMutability": "view",
      "type": "function"
    },
    {
      "inputs": [
        {
          "internalType": "address",
          "name": "account",
          "type": "address"
        }
      ],
      "name": "getAccountSnapshot",
      "outputs": [
        {
          "internalType": "uint256",
          "name": "",
          "type": "uint256"
        },
        {
          "internalType": "uint256",
          "name": "",
          "type": "uint256"
        },
        {
          "internalType": "uint256",
          "name": "",
          "type": "uint256"
        },
        {
          "internalType": "uint256",
          "name": "",
          "type": "uint256"
        }
      ],
      "stateMutability": "view",
      "type": "function"
    },
    {
      "inputs": [],
      "name": "getCash",
      "outputs": [
        {
          "internalType": "uint256",
          "name": "",
          "type": "uint256"
        }
      ],
      "stateMutability": "view",
      "type": "function"
    },
    {
      "inputs": [],
      "name": "implementation",
      "outputs": [
        {
          "internalType": "address",
          "name": "",
          "type": "address"
        }
      ],
      "stateMutability": "view",
      "type": "function"
    },
    {
      "inputs": [
        {
          "internalType": "contract ComptrollerInterface",
          "name": "comptroller_",
          "type": "address"
        },
        {
          "internalType": "contract InterestRateModel",
          "name": "interestRateModel_",
          "type": "address"
        },
        {
          "internalType": "uint256",
          "name": "initialExchangeRateMantissa_",
          "type": "uint256"
        },
        {
          "internalType": "string",
          "name": "name_",
          "type": "string"
        },
        {
          "internalType": "string",
          "name": "symbol_",
          "type": "string"
        },
        {
          "internalType": "uint8",
          "name": "decimals_",
          "type": "uint8"
        },
        {
          "internalType": "uint256",
          "name": "reserveFactorMantissa_",
          "type": "uint256"
        },
        {
          "internalType": "uint256",
          "name": "adminFeeMantissa_",
          "type": "uint256"
        }
      ],
      "name": "initialize",
      "outputs": [],
      "stateMutability": "nonpayable",
      "type": "function"
    },
    {
      "inputs": [
        {
          "internalType": "contract ComptrollerInterface",
          "name": "comptroller_",
          "type": "address"
        },
        {
          "internalType": "contract InterestRateModel",
          "name": "interestRateModel_",
          "type": "address"
        },
        {
          "internalType": "string",
          "name": "name_",
          "type": "string"
        },
        {
          "internalType": "string",
          "name": "symbol_",
          "type": "string"
        },
        {
          "internalType": "uint256",
          "name": "reserveFactorMantissa_",
          "type": "uint256"
        },
        {
          "internalType": "uint256",
          "name": "adminFeeMantissa_",
          "type": "uint256"
        }
      ],
      "name": "initialize",
      "outputs": [],
      "stateMutability": "nonpayable",
      "type": "function"
    },
    {
      "inputs": [],
      "name": "interestRateModel",
      "outputs": [
        {
          "internalType": "contract InterestRateModel",
          "name": "",
          "type": "address"
        }
      ],
      "stateMutability": "view",
      "type": "function"
    },
    {
      "inputs": [],
      "name": "isCEther",
      "outputs": [
        {
          "internalType": "bool",
          "name": "",
          "type": "bool"
        }
      ],
      "stateMutability": "view",
      "type": "function"
    },
    {
      "inputs": [],
      "name": "isCToken",
      "outputs": [
        {
          "internalType": "bool",
          "name": "",
          "type": "bool"
        }
      ],
      "stateMutability": "nonpayable",
      "type": "function"
    },
    {
      "inputs": [
        {
          "internalType": "address",
          "name": "borrower",
          "type": "address"
        },
        {
          "internalType": "contract CToken",
          "name": "cTokenCollateral",
          "type": "address"
        }
      ],
      "name": "liquidateBorrow",
      "outputs": [],
      "stateMutability": "payable",
      "type": "function"
    },
    {
      "inputs": [],
      "name": "mint",
      "outputs": [],
      "stateMutability": "payable",
      "type": "function"
    },
    {
      "inputs": [],
      "name": "name",
      "outputs": [
        {
          "internalType": "string",
          "name": "",
          "type": "string"
        }
      ],
      "stateMutability": "view",
      "type": "function"
    },
    {
      "inputs": [],
      "name": "protocolSeizeShareMantissa",
      "outputs": [
        {
          "internalType": "uint256",
          "name": "",
          "type": "uint256"
        }
      ],
      "stateMutability": "view",
      "type": "function"
    },
    {
      "inputs": [
        {
          "internalType": "uint256",
          "name": "redeemTokens",
          "type": "uint256"
        }
      ],
      "name": "redeem",
      "outputs": [
        {
          "internalType": "uint256",
          "name": "",
          "type": "uint256"
        }
      ],
      "stateMutability": "nonpayable",
      "type": "function"
    },
    {
      "inputs": [
        {
          "internalType": "uint256",
          "name": "redeemAmount",
          "type": "uint256"
        }
      ],
      "name": "redeemUnderlying",
      "outputs": [
        {
          "internalType": "uint256",
          "name": "",
          "type": "uint256"
        }
      ],
      "stateMutability": "nonpayable",
      "type": "function"
    },
    {
      "inputs": [],
      "name": "repayBorrow",
      "outputs": [],
      "stateMutability": "payable",
      "type": "function"
    },
    {
      "inputs": [
        {
          "internalType": "address",
          "name": "borrower",
          "type": "address"
        }
      ],
      "name": "repayBorrowBehalf",
      "outputs": [],
      "stateMutability": "payable",
      "type": "function"
    },
    {
      "inputs": [],
      "name": "reserveFactorMantissa",
      "outputs": [
        {
          "internalType": "uint256",
          "name": "",
          "type": "uint256"
        }
      ],
      "stateMutability": "view",
      "type": "function"
    },
    {
      "inputs": [
        {
          "internalType": "address",
          "name": "liquidator",
          "type": "address"
        },
        {
          "internalType": "address",
          "name": "borrower",
          "type": "address"
        },
        {
          "internalType": "uint256",
          "name": "seizeTokens",
          "type": "uint256"
        }
      ],
      "name": "seize",
      "outputs": [
        {
          "internalType": "uint256",
          "name": "",
          "type": "uint256"
        }
      ],
      "stateMutability": "nonpayable",
      "type": "function"
    },
    {
      "inputs": [],
      "name": "supplyRatePerBlock",
      "outputs": [
        {
          "internalType": "uint256",
          "name": "",
          "type": "uint256"
        }
      ],
      "stateMutability": "view",
      "type": "function"
    },
    {
      "inputs": [],
      "name": "symbol",
      "outputs": [
        {
          "internalType": "string",
          "name": "",
          "type": "string"
        }
      ],
      "stateMutability": "view",
      "type": "function"
    },
    {
      "inputs": [],
      "name": "totalAdminFees",
      "outputs": [
        {
          "internalType": "uint256",
          "name": "",
          "type": "uint256"
        }
      ],
      "stateMutability": "view",
      "type": "function"
    },
    {
      "inputs": [],
      "name": "totalBorrows",
      "outputs": [
        {
          "internalType": "uint256",
          "name": "",
          "type": "uint256"
        }
      ],
      "stateMutability": "view",
      "type": "function"
    },
    {
      "inputs": [],
      "name": "totalBorrowsCurrent",
      "outputs": [
        {
          "internalType": "uint256",
          "name": "",
          "type": "uint256"
        }
      ],
      "stateMutability": "nonpayable",
      "type": "function"
    },
    {
      "inputs": [],
      "name": "totalFuseFees",
      "outputs": [
        {
          "internalType": "uint256",
          "name": "",
          "type": "uint256"
        }
      ],
      "stateMutability": "view",
      "type": "function"
    },
    {
      "inputs": [],
      "name": "totalReserves",
      "outputs": [
        {
          "internalType": "uint256",
          "name": "",
          "type": "uint256"
        }
      ],
      "stateMutability": "view",
      "type": "function"
    },
    {
      "inputs": [],
      "name": "totalSupply",
      "outputs": [
        {
          "internalType": "uint256",
          "name": "",
          "type": "uint256"
        }
      ],
      "stateMutability": "view",
      "type": "function"
    },
    {
      "inputs": [
        {
          "internalType": "address",
          "name": "dst",
          "type": "address"
        },
        {
          "internalType": "uint256",
          "name": "amount",
          "type": "uint256"
        }
      ],
      "name": "transfer",
      "outputs": [
        {
          "internalType": "bool",
          "name": "",
          "type": "bool"
        }
      ],
      "stateMutability": "nonpayable",
      "type": "function"
    },
    {
      "inputs": [
        {
          "internalType": "address",
          "name": "src",
          "type": "address"
        },
        {
          "internalType": "address",
          "name": "dst",
          "type": "address"
        },
        {
          "internalType": "uint256",
          "name": "amount",
          "type": "uint256"
        }
      ],
      "name": "transferFrom",
      "outputs": [
        {
          "internalType": "bool",
          "name": "",
          "type": "bool"
        }
      ],
      "stateMutability": "nonpayable",
      "type": "function"
    },
    {
      "inputs": [],
      "name": "underlying",
      "outputs": [
        {
          "internalType": "address",
          "name": "",
          "type": "address"
        }
      ],
      "stateMutability": "view",
      "type": "function"
    },
    {
      "stateMutability": "payable",
      "type": "receive"
    }
  ],
  "transactionHash": "0xc83ded26fda116e3ea4545a042e78c7edd6f2cce9dc2e3a47ea6a0753157bc58",
  "args": [],
  "solcInputHash": "f7b1f2c0198a0fc30d3000710310a520",
  "bytecode": "0x608060405234801561001057600080fd5b50615ef780620000216000396000f3fe60806040526004361061036f5760003560e01c8063852a12e3116101c6578063b2a02ff1116100f7578063dd62ed3e11610095578063f3fdb15a1161006f578063f3fdb15a14610f2c578063f8f9da2814610f41578063fca7820b14610f56578063fe9c44ae14610f80576103b2565b8063dd62ed3e14610e98578063e597461914610ed3578063f2b3abbd14610ef9576103b2565b8063c5ebeaec116100d1578063c5ebeaec14610e1a578063db006a7514610e44578063dbfe7c1914610e6e578063dc028ab114610e83576103b2565b8063b2a02ff114610d69578063bd6d894d14610dac578063c37f68e214610dc1576103b2565b8063a6afed9511610164578063aa5af0fd1161013e578063aa5af0fd14610cfc578063aae40a2a14610d11578063ac784ddc14610d3f578063ae9d70b014610d54576103b2565b8063a6afed9514610c84578063a7b820df14610c99578063a9059cbb14610cc3576103b2565b806391dd36c6116101a057806391dd36c614610be857806395d89b4114610c1257806395dd919314610c27578063a03dce8d14610c5a576103b2565b8063852a12e314610b945780638d02d9a114610bbe5780638f840ddd14610bd3576103b2565b806347bd3718116102a057806361feacff1161023e5780636f307dc3116102185780636f307dc3146109e357806370a08231146109f857806373acee9814610a2b57806379c2c95414610a40576103b2565b806361feacff146109a45780636752e702146109b95780636c540baf146109ce576103b2565b806356e677281161027a57806356e67728146108b95780635c60da1b146109345780635fe3b56714610965578063601a0bf11461097a576103b2565b806347bd37181461080a5780634e4d9fea1461081f57806350d85b7314610827576103b2565b8063182df0f51161030d578063313ce567116102e7578063313ce567146106cc57806334154d4c146106f75780633af9e669146107c25780633b1d21a2146107f5576103b2565b8063182df0f51461066c5780631db789441461068157806323b872dd14610689576103b2565b80631249c58b116103495780631249c58b146105f5578063173b9904146105fd57806317bfdfbc1461062457806318160ddd14610657576103b2565b806306fdde03146103b7578063095ea7b3146104415780630f8855e81461048e576103b2565b366103b257600061037f34610f95565b5090506103af816040518060400160405280600b81526020016a1b5a5b9d0819985a5b195960aa1b815250610ff6565b50005b600080fd5b3480156103c357600080fd5b506103cc611273565b6040805160208082528351818301528351919283929083019185019080838360005b838110156104065781810151838201526020016103ee565b50505050905090810190601f1680156104335780820380516001836020036101000a031916815260200191505b509250505060405180910390f35b34801561044d57600080fd5b5061047a6004803603604081101561046457600080fd5b506001600160a01b0381351690602001356112fe565b604080519115158252519081900360200190f35b34801561049a57600080fd5b506105f360048036036101008110156104b257600080fd5b6001600160a01b03823581169260208101359091169160408201359190810190608081016060820135600160201b8111156104ec57600080fd5b8201836020820111156104fe57600080fd5b803590602001918460018302840111600160201b8311171561051f57600080fd5b91908080601f0160208091040260200160405190810160405280939291908181526020018383808284376000920191909152509295949360208101935035915050600160201b81111561057157600080fd5b82018360208201111561058357600080fd5b803590602001918460018302840111600160201b831117156105a457600080fd5b91908080601f0160208091040260200160405190810160405280939291908181526020018383808284376000920191909152509295505060ff833516935050506020810135906040013561136b565b005b6105f3611619565b34801561060957600080fd5b50610612611657565b60408051918252519081900360200190f35b34801561063057600080fd5b506106126004803603602081101561064757600080fd5b50356001600160a01b031661165d565b34801561066357600080fd5b506106126116d9565b34801561067857600080fd5b506106126116df565b6105f3611742565b34801561069557600080fd5b5061047a600480360360608110156106ac57600080fd5b506001600160a01b03813581169160208101359091169060400135611952565b3480156106d857600080fd5b506106e1611980565b6040805160ff9092168252519081900360200190f35b34801561070357600080fd5b506105f36004803603604081101561071a57600080fd5b810190602081018135600160201b81111561073457600080fd5b82018360208201111561074657600080fd5b803590602001918460018302840111600160201b8311171561076757600080fd5b919390929091602081019035600160201b81111561078457600080fd5b82018360208201111561079657600080fd5b803590602001918460018302840111600160201b831117156107b757600080fd5b509092509050611989565b3480156107ce57600080fd5b50610612600480360360208110156107e557600080fd5b50356001600160a01b03166119ee565b34801561080157600080fd5b50610612611a9f565b34801561081657600080fd5b50610612611aae565b6105f3611ab4565b34801561083357600080fd5b506105f36004803603606081101561084a57600080fd5b6001600160a01b03823516916020810135151591810190606081016040820135600160201b81111561087b57600080fd5b82018360208201111561088d57600080fd5b803590602001918460018302840111600160201b831117156108ae57600080fd5b509092509050611af6565b3480156108c557600080fd5b506105f3600480360360208110156108dc57600080fd5b810190602081018135600160201b8111156108f657600080fd5b82018360208201111561090857600080fd5b803590602001918460018302840111600160201b8311171561092957600080fd5b509092509050611b7f565b34801561094057600080fd5b50610949611bdd565b604080516001600160a01b039092168252519081900360200190f35b34801561097157600080fd5b50610949611bec565b34801561098657600080fd5b506106126004803603602081101561099d57600080fd5b5035611bfb565b3480156109b057600080fd5b50610612611c4c565b3480156109c557600080fd5b50610612611c52565b3480156109da57600080fd5b50610612611c5d565b3480156109ef57600080fd5b50610949611c63565b348015610a0457600080fd5b5061061260048036036020811015610a1b57600080fd5b50356001600160a01b0316611c72565b348015610a3757600080fd5b50610612611c8d565b348015610a4c57600080fd5b506105f3600480360360c0811015610a6357600080fd5b6001600160a01b038235811692602081013590911691810190606081016040820135600160201b811115610a9657600080fd5b820183602082011115610aa857600080fd5b803590602001918460018302840111600160201b83111715610ac957600080fd5b91908080601f0160208091040260200160405190810160405280939291908181526020018383808284376000920191909152509295949360208101935035915050600160201b811115610b1b57600080fd5b820183602082011115610b2d57600080fd5b803590602001918460018302840111600160201b83111715610b4e57600080fd5b91908080601f0160208091040260200160405190810160405280939291908181526020018383808284376000920191909152509295505082359350505060200135611d00565b348015610ba057600080fd5b5061061260048036036020811015610bb757600080fd5b5035611d25565b348015610bca57600080fd5b50610612611d30565b348015610bdf57600080fd5b50610612611d36565b348015610bf457600080fd5b5061061260048036036020811015610c0b57600080fd5b5035611d3c565b348015610c1e57600080fd5b506103cc611d79565b348015610c3357600080fd5b5061061260048036036020811015610c4a57600080fd5b50356001600160a01b0316611dd4565b348015610c6657600080fd5b5061061260048036036020811015610c7d57600080fd5b5035611e38565b348015610c9057600080fd5b50610612611e75565b348015610ca557600080fd5b5061061260048036036020811015610cbc57600080fd5b503561203a565b348015610ccf57600080fd5b5061047a60048036036040811015610ce657600080fd5b506001600160a01b038135169060200135612077565b348015610d0857600080fd5b506106126120a4565b6105f360048036036040811015610d2757600080fd5b506001600160a01b03813581169160200135166120aa565b348015610d4b57600080fd5b5061047a6120f2565b348015610d6057600080fd5b506106126120f7565b348015610d7557600080fd5b5061061260048036036060811015610d8c57600080fd5b506001600160a01b038135811691602081013590911690604001356121af565b348015610db857600080fd5b506106126121d3565b348015610dcd57600080fd5b50610df460048036036020811015610de457600080fd5b50356001600160a01b0316612247565b604080519485526020850193909352838301919091526060830152519081900360800190f35b348015610e2657600080fd5b5061061260048036036020811015610e3d57600080fd5b50356122dc565b348015610e5057600080fd5b5061061260048036036020811015610e6757600080fd5b50356122e7565b348015610e7a57600080fd5b506106126122f2565b348015610e8f57600080fd5b506106126122f8565b348015610ea457600080fd5b5061061260048036036040811015610ebb57600080fd5b506001600160a01b03813581169160200135166122fe565b6105f360048036036020811015610ee957600080fd5b50356001600160a01b0316612329565b348015610f0557600080fd5b5061061260048036036020811015610f1c57600080fd5b50356001600160a01b0316612377565b348015610f3857600080fd5b506109496123b1565b348015610f4d57600080fd5b506106126123c0565b348015610f6257600080fd5b5061061260048036036020811015610f7957600080fd5b5035612435565b348015610f8c57600080fd5b5061047a612472565b6000806000610fa381612477565b6000610fad611e75565b90508015610fd757610fcb816011811115610fc457fe5b6020612540565b60009350935050610fe7565b610fe133866125a6565b93509350505b610ff081612926565b50915091565b816110005761126f565b6000815160070167ffffffffffffffff8111801561101d57600080fd5b506040519080825280601f01601f191660200182016040528015611048576020820181803683370190505b50905060005b82518110156110995782818151811061106357fe5b602001015160f81c60f81b82828151811061107a57fe5b60200101906001600160f81b031916908160001a90535060010161104e565b8151600160fd1b908390839081106110ad57fe5b60200101906001600160f81b031916908160001a905350602860f81b8282600101815181106110d857fe5b60200101906001600160f81b031916908160001a9053506103e8840460300160f81b82826002018151811061110957fe5b60200101906001600160f81b031916908160001a905350600a606485040660300160f81b82826003018151811061113c57fe5b60200101906001600160f81b031916908160001a905350600a8085040660300160f81b82826004018151811061116e57fe5b60200101906001600160f81b031916908160001a905350600a840660300160f81b82826005018151811061119e57fe5b60200101906001600160f81b031916908160001a905350602960f81b8282600601815181106111c957fe5b60200101906001600160f81b031916908160001a90535081841561126b5760405162461bcd60e51b81526004018080602001828103825283818151815260200191508051906020019080838360005b83811015611230578181015183820152602001611218565b50505050905090810190601f16801561125d5780820380516001836020036101000a031916815260200191505b509250505060405180910390fd5b5050505b5050565b6002805460408051602060018416156101000260001901909316849004601f810184900484028201840190925281815292918301828280156112f65780601f106112cb576101008083540402835291602001916112f6565b820191906000526020600020905b8154815290600101906020018083116112d957829003601f168201915b505050505081565b3360008181526013602090815260408083206001600160a01b03871680855290835281842086905581518681529151939493909284927f8c5be1e5ebec7d5bd14f71427d1e84f3dd0314c0f7b2291e5b200ac8c7c3b925929081900390910190a360019150505b92915050565b3373bcb0d746ee1d4c0ff67fc720006214568ef669d9146113bd5760405162461bcd60e51b8152600401808060200182810382526029815260200180615dac6029913960400191505060405180910390fd5b600b541580156113cd5750600c54155b6114085760405162461bcd60e51b8152600401808060200182810382526023815260200180615cc66023913960400191505060405180910390fd5b6007869055856114495760405162461bcd60e51b8152600401808060200182810382526030815260200180615ce96030913960400191505060405180910390fd5b6000611454896129a2565b905080156114a9576040805162461bcd60e51b815260206004820152601a60248201527f73657474696e6720636f6d7074726f6c6c6572206661696c6564000000000000604482015290519081900360640190fd5b6114b1612ad5565b600b55670de0b6b3a7640000600c556114c988612ad9565b905080156115085760405162461bcd60e51b8152600401808060200182810382526022815260200180615d196022913960400191505060405180910390fd5b855161151b906002906020890190615a9f565b50845161152f906003906020880190615a9f565b506004805460ff191660ff861617905561154883612ddf565b9050801561159d576040805162461bcd60e51b815260206004820152601d60248201527f73657474696e67207265736572766520666163746f72206661696c6564000000604482015290519081900360640190fd5b6115a682612e98565b905080156115fb576040805162461bcd60e51b815260206004820152601860248201527f73657474696e672061646d696e20666565206661696c65640000000000000000604482015290519081900360640190fd5b50506001805460ff60b01b1916600160b01b17905550505050505050565b600061162434610f95565b509050611654816040518060400160405280600b81526020016a1b5a5b9d0819985a5b195960aa1b815250610ff6565b50565b600a5481565b60008061166981612477565b6000611673611e75565b146116be576040805162461bcd60e51b81526020600482015260166024820152751858d8dc9d59481a5b9d195c995cdd0819985a5b195960521b604482015290519081900360640190fd5b6116c783611dd4565b91505b6116d381612926565b50919050565b60115481565b60008060006116ec612fbd565b909250905060008260038111156116ff57fe5b1461173b5760405162461bcd60e51b8152600401808060200182810382526035815260200180615e596035913960400191505060405180910390fd5b9150505b90565b3330148015906117c85750600560009054906101000a90046001600160a01b03166001600160a01b031663dd5cd22c6040518163ffffffff1660e01b815260040160206040518083038186803b15801561179b57600080fd5b505afa1580156117af573d6000803e3d6000fd5b505050506040513d60208110156117c557600080fd5b50515b15611950576000805460408051638abe0b7560e01b81526001600160a01b039092166004830152518291829173bcb0d746ee1d4c0ff67fc720006214568ef669d991638abe0b759160248083019286929190829003018186803b15801561182e57600080fd5b505afa158015611842573d6000803e3d6000fd5b505050506040513d6000823e601f3d908101601f19168201604052606081101561186b57600080fd5b81516020830151604080850180519151939592948301929184600160201b82111561189557600080fd5b9083019060208201858111156118aa57600080fd5b8251600160201b8111828201881017156118c357600080fd5b82525081516020918201929091019080838360005b838110156118f05781810151838201526020016118d8565b50505050905090810190601f16801561191d5780820380516001836020036101000a031916815260200191505b5060405250506000549396509194509250506001600160a01b0380851691161461194c5761194c83838361307d565b5050505b565b60008061195e81612477565b600061196c33878787613299565b14915061197881612926565b509392505050565b60045460ff1681565b61199161352d565b6119d5576040805162461bcd60e51b815260206004820152601060248201526f31b0b63632b9103737ba1030b236b4b760811b604482015290519081900360640190fd5b6119e160028585615b27565b5061126b60038383615b27565b6000806040518060200160405280611a046121d3565b90526001600160a01b038416600090815260126020526040812054919250908190611a309084906136a8565b90925090506000826003811115611a4357fe5b14611a95576040805162461bcd60e51b815260206004820152601f60248201527f62616c616e636520636f756c64206e6f742062652063616c63756c6174656400604482015290519081900360640190fd5b925050505b919050565b6000611aa96136f4565b905090565b600d5481565b6000611abf34613720565b50905061165481604051806040016040528060128152602001711c995c185e509bdc9c9bddc819985a5b195960721b815250610ff6565b611afe61352d565b611b38576040805162461bcd60e51b815260206004820152600660248201526510b0b236b4b760d11b604482015290519081900360640190fd5b611b79848484848080601f01602080910402602001604051908101604052809392919081815260200183838082843760009201919091525061307d92505050565b50505050565b33301480611b905750611b9061352d565b611bc9576040805162461bcd60e51b815260206004820152600560248201526410b9b2b63360d91b604482015290519081900360640190fd5b5050600180546001600160b01b0319169055565b6000546001600160a01b031681565b6005546001600160a01b031681565b600080611c0781612477565b6000611c11611e75565b90508015611c3757611c2f816011811115611c2857fe5b603b612540565b9250506116ca565b611c4084613761565b9250506116d381612926565b600f5481565b666379da05b6000081565b600b5481565b6015546001600160a01b031681565b6001600160a01b031660009081526012602052604090205490565b600080611c9981612477565b6000611ca3611e75565b14611cee576040805162461bcd60e51b81526020600482015260166024820152751858d8dc9d59481a5b9d195c995cdd0819985a5b195960521b604482015290519081900360640190fd5b600d549150611cfc81612926565b5090565b6702c68af0bb1400006012611d1b8888848989868a8a61136b565b5050505050505050565b60006113658261382d565b60085481565b600e5481565b600080611d4881612477565b6000611d52611e75565b90508015611d7057611c2f816011811115611d6957fe5b6052612540565b611c4084612e98565b6003805460408051602060026001851615610100026000190190941693909304601f810184900484028201840190925281815292918301828280156112f65780601f106112cb576101008083540402835291602001916112f6565b6000806000611de28461386d565b90925090506000826003811115611df557fe5b14611e315760405162461bcd60e51b8152600401808060200182810382526037815260200180615d3b6037913960400191505060405180910390fd5b9392505050565b600080611e4481612477565b6000611e4e611e75565b90508015611e6c57611c2f816011811115611e6557fe5b6033612540565b611c4084613920565b600080611e80612ad5565b905080600b541415611e9657600091505061173f565b6000611ea06136f4565b90506000600660009054906101000a90046001600160a01b03166001600160a01b03166315f2405383600d54611ee5600e54611ee0600f546010546139a1565b6139a1565b6040518463ffffffff1660e01b815260040180848152602001838152602001828152602001935050505060206040518083038186803b158015611f2757600080fd5b505afa158015611f3b573d6000803e3d6000fd5b505050506040513d6020811015611f5157600080fd5b5051905065048c27395000811115611fb0576040805162461bcd60e51b815260206004820152601c60248201527f626f72726f772072617465206973206162737572646c79206869676800000000604482015290519081900360640190fd5b600080611fbf85600b546139d7565b90925090506000826003811115611fd257fe5b14612024576040805162461bcd60e51b815260206004820152601f60248201527f636f756c64206e6f742063616c63756c61746520626c6f636b2064656c746100604482015290519081900360640190fd5b612030858585846139fa565b9550505050505090565b60008061204681612477565b6000612050611e75565b9050801561206e57611c2f81601181111561206757fe5b6037612540565b611c4084613c0b565b60008061208381612477565b600061209133338787613299565b14915061209d81612926565b5092915050565b600c5481565b60006120b7833484613cf3565b50905061194c81604051806040016040528060168152602001751b1a5c5d5a59185d19509bdc9c9bddc819985a5b195960521b815250610ff6565b600181565b6006546000906001600160a01b031663b81688166121136136f4565b600d5461212a600e54611ee0600f546010546139a1565b600854600954600a5401016040518563ffffffff1660e01b81526004018085815260200184815260200183815260200182815260200194505050505060206040518083038186803b15801561217e57600080fd5b505afa158015612192573d6000803e3d6000fd5b505050506040513d60208110156121a857600080fd5b5051905090565b600060016121bc81612477565b6121c833868686613dde565b915061197881612926565b6000806121df81612477565b60006121e9611e75565b14612234576040805162461bcd60e51b81526020600482015260166024820152751858d8dc9d59481a5b9d195c995cdd0819985a5b195960521b604482015290519081900360640190fd5b61223c6116df565b9150611cfc81612926565b6001600160a01b0381166000908152601260205260408120548190819081908180806122728961386d565b93509050600081600381111561228457fe5b146122a25760095b60008060009750975097509750505050506122d5565b6122aa612fbd565b9250905060008160038111156122bc57fe5b146122c857600961228c565b5060009650919450925090505b9193509193565b6000611365826141b8565b6000611365826141f6565b60095481565b60105481565b6001600160a01b03918216600090815260136020908152604080832093909416825291909152205490565b6000612335823461422f565b50905061126f816040518060400160405280601881526020017f7265706179426f72726f77426568616c66206661696c65640000000000000000815250610ff6565b600080612382611e75565b905080156123a8576123a081601181111561239957fe5b604b612540565b915050611a9a565b611e3183612ad9565b6006546001600160a01b031681565b6006546000906001600160a01b03166315f240536123dc6136f4565b600d546123f3600e54611ee0600f546010546139a1565b6040518463ffffffff1660e01b815260040180848152602001838152602001828152602001935050505060206040518083038186803b15801561217e57600080fd5b60008061244181612477565b600061244b611e75565b9050801561246957611c2f81601181111561246257fe5b6059612540565b611c4084612ddf565b600190565b600154600160b01b900460ff166124c2576040805162461bcd60e51b815260206004820152600a6024820152691c994b595b9d195c995960b21b604482015290519081900360640190fd5b8061253057600560009054906101000a90046001600160a01b03166001600160a01b031663c90c20b16040518163ffffffff1660e01b8152600401600060405180830381600087803b15801561251757600080fd5b505af115801561252b573d6000803e3d6000fd5b505050505b506001805460ff60b01b19169055565b60007f45b96fe442630264581b197e84bbada861235052c5a1aadfff9ea4e40a969aa083601181111561256f57fe5b83606381111561257b57fe5b604080519283526020830191909152600082820152519081900360600190a1826011811115611e3157fe5b60055460408051634ef4c3e160e01b81523060048201526001600160a01b03858116602483015260448201859052915160009384938493911691634ef4c3e19160648082019260209290919082900301818787803b15801561260757600080fd5b505af115801561261b573d6000803e3d6000fd5b505050506040513d602081101561263157600080fd5b505190508015612654576126486003602183614293565b6000925092505061291f565b61265c612ad5565b600b541461267057612648600a6024612540565b612678615ba3565b612680612fbd565b604083018190526020830182600381111561269757fe5b60038111156126a257fe5b90525060009050816020015160038111156126b957fe5b146126e7576126da60096023836020015160038111156126d557fe5b614293565b600093509350505061291f565b6126f1868661431c565b60c082018190526040805160208101825290830151815261271291906143b2565b606083018190526020830182600381111561272957fe5b600381111561273457fe5b905250600090508160200151600381111561274b57fe5b1461279d576040805162461bcd60e51b815260206004820181905260248201527f4d494e545f45584348414e47455f43414c43554c4154494f4e5f4641494c4544604482015290519081900360640190fd5b6127ad60115482606001516139a1565b60808201526001600160a01b03861660009081526012602052604090205460608201516127da91906139a1565b60a0820181905260808201516011556001600160a01b0387166000818152601260209081526040918290209390935560c084015160608086015183519485529484019190915282820193909352517f4c209b5fc8ad50758f13e2e1088ba56a560dff690a1c6fef26394f4c03821c4f929181900390910190a1606081015160408051918252516001600160a01b038816913091600080516020615dd58339815191529181900360200190a360055460c08201516060830151604080516341c728b960e01b81523060048201526001600160a01b038b81166024830152604482019490945260648101929092525191909216916341c728b991608480830192600092919082900301818387803b1580156128f257600080fd5b505af1158015612906573d6000803e3d6000fd5b5060009250612913915050565b8160c001519350935050505b9250929050565b6001805460ff60b01b1916600160b01b1790558061165457600560009054906101000a90046001600160a01b03166001600160a01b031663632e51426040518163ffffffff1660e01b8152600401600060405180830381600087803b15801561298e57600080fd5b505af115801561126b573d6000803e3d6000fd5b600080600560009054906101000a90046001600160a01b03169050826001600160a01b0316627e3dd26040518163ffffffff1660e01b815260040160206040518083038186803b1580156129f557600080fd5b505afa158015612a09573d6000803e3d6000fd5b505050506040513d6020811015612a1f57600080fd5b5051612a72576040805162461bcd60e51b815260206004820152601c60248201527f6d61726b6572206d6574686f642072657475726e65642066616c736500000000604482015290519081900360640190fd5b600580546001600160a01b0319166001600160a01b03858116918217909255604080519284168352602083019190915280517f7ac369dbd14fa5ea3f473ed67cc9d598964a77501540ba6751eb0b3decf5870d9281900390910190a16000611e31565b4390565b600080612ae461352d565b612af4576123a06001604d612540565b612afc612ad5565b600b5414612b10576123a0600a604c612540565b600660009054906101000a90046001600160a01b03169050826001600160a01b0316632191f92a6040518163ffffffff1660e01b815260040160206040518083038186803b158015612b6157600080fd5b505afa158015612b75573d6000803e3d6000fd5b505050506040513d6020811015612b8b57600080fd5b5051612bde576040805162461bcd60e51b815260206004820152601c60248201527f6d61726b6572206d6574686f642072657475726e65642066616c736500000000604482015290519081900360640190fd5b600680546001600160a01b0319166001600160a01b03858116918217909255604080519284168352602083019190915280517fedffc32e068c7c95dfd4bdfd5c4d939a084d6b11c4199eac8436ed234d72f9269281900390910190a16001600160a01b03811615612d105760408051600481526024810182526020810180516001600160e01b0316636cc1140b60e11b178152915181516001600160a01b0385169382918083835b60208310612ca55780518252601f199092019160209182019101612c86565b6001836020036101000a0380198251168184511680821785525050505050509050019150506000604051808303816000865af19150503d8060008114612d07576040519150601f19603f3d011682016040523d82523d6000602084013e612d0c565b606091505b5050505b60408051600481526024810182526020810180516001600160e01b031663742a137b60e11b178152915181516001600160a01b0387169382918083835b60208310612d6c5780518252601f199092019160209182019101612d4d565b6001836020036101000a0380198251168184511680821785525050505050509050019150506000604051808303816000865af19150503d8060008114612dce576040519150601f19603f3d011682016040523d82523d6000602084013e612dd3565b606091505b5060009150611e319050565b6000612de961352d565b612e0057612df96001605a612540565b9050611a9a565b612e08612ad5565b600b5414612e1c57612df9600a605b612540565b670de0b6b3a7640000612e3c612e34846008546139a1565b6009546139a1565b1115612e4e57612df96002605c612540565b600a805490839055604080518281526020810185905281517faaa68312e2ea9d50e16af5068410ab56e1a1fd06037b1a35664812c30f821460929181900390910190a16000611e31565b6000612ea2612ad5565b600b5414612eb657612df9600a6054612540565b600019821415612ec65760085491505b6000612ed06143c2565b9050670de0b6b3a7640000612ef0612eea600a54866139a1565b836139a1565b1115612f02576123a060026055612540565b8260085414612f6857612f1361352d565b612f23576123a060016053612540565b6008805490849055604080518281526020810186905281517fcdd0b588250e1398549f79cfdb8217c186688822905d6715b0834ea1c865594a929181900390910190a1505b8060095414612fb6576009805490829055604080518281526020810184905281517f92eef861b6533b7d3417f39c2ad7b460eed4e88a32fa3604f30e718b7602e7dc929181900390910190a1505b6000611e31565b601154600090819080612fd857505060075460009150613079565b6000612fe26136f4565b90506000612fee615be1565b600061301084600d5461300b600e54611ee0600f546010546139a1565b614411565b93509050600081600381111561302257fe5b14613037579550600094506130799350505050565b613041838661445e565b92509050600081600381111561305357fe5b14613068579550600094506130799350505050565b505160009550935061307992505050565b9091565b60005460408051630304735160e61b81526001600160a01b039283166004820152918516602483015283151560448301525173bcb0d746ee1d4c0ff67fc720006214568ef669d99163c11cd440916064808301926020929190829003018186803b1580156130ea57600080fd5b505afa1580156130fe573d6000803e3d6000fd5b505050506040513d602081101561311457600080fd5b505161314f576040805162461bcd60e51b8152602060048201526005602482015264085a5b5c1b60da1b604482015290519081900360640190fd5b811561315d5761315d61450f565b600080546001600160a01b038581166001600160a01b03198316178355604051602060248201818152865160448401528651939094169461324a94309488949193849360649093019290860191908190849084905b838110156131ca5781810151838201526020016131b2565b50505050905090810190601f1680156131f75780820380516001836020036101000a031916815260200191505b5060408051601f19818403018152918152602080830180516001600160e01b0316630adccee560e31b17905281518083019092526007825266216265636f6d6560c81b9082015290935091506145149050565b50600054604080516001600160a01b038085168252909216602083015280517fd604de94d45953f9138079ec1b82d533cb2160c906d1076d1f7ed54befbca97a9281900390910190a150505050565b600554604080516317b9b84b60e31b81523060048201526001600160a01b03868116602483015285811660448301526064820185905291516000938493169163bdcdc25891608480830192602092919082900301818787803b1580156132fe57600080fd5b505af1158015613312573d6000803e3d6000fd5b505050506040513d602081101561332857600080fd5b5051905080156133475761333f6003605d83614293565b915050613525565b836001600160a01b0316856001600160a01b0316141561336d5761333f6002605e612540565b6000856001600160a01b0316876001600160a01b0316141561339257506000196133ba565b506001600160a01b038086166000908152601360209081526040808320938a16835292905220545b6000806000806133ca85896139d7565b909450925060008460038111156133dd57fe5b146133fb576133ee6009605e612540565b9650505050505050613525565b6001600160a01b038a1660009081526012602052604090205461341e90896139d7565b9094509150600084600381111561343157fe5b14613442576133ee6009605f612540565b6001600160a01b0389166000908152601260205260409020546134659089614624565b9094509050600084600381111561347857fe5b14613489576133ee60096060612540565b6001600160a01b03808b16600090815260126020526040808220859055918b1681522081905560001985146134e1576001600160a01b03808b166000908152601360209081526040808320938f168352929052208390555b886001600160a01b03168a6001600160a01b0316600080516020615dd58339815191528a6040518082815260200191505060405180910390a3600096505050505050505b949350505050565b600554604080516303e1469160e61b815290516000926001600160a01b031691829163f851a44091600480820192602092909190829003018186803b15801561357557600080fd5b505afa158015613589573d6000803e3d6000fd5b505050506040513d602081101561359f57600080fd5b50516001600160a01b0316331480156136195750806001600160a01b0316630a755ec26040518163ffffffff1660e01b815260040160206040518083038186803b1580156135ec57600080fd5b505afa158015613600573d6000803e3d6000fd5b505050506040513d602081101561361657600080fd5b50515b8061173b57503373bcb0d746ee1d4c0ff67fc720006214568ef669d914801561173b5750806001600160a01b0316632f1069ba6040518163ffffffff1660e01b815260040160206040518083038186803b15801561367657600080fd5b505afa15801561368a573d6000803e3d6000fd5b505050506040513d60208110156136a057600080fd5b505191505090565b6000806000806136b8868661464a565b909250905060008260038111156136cb57fe5b146136dc575091506000905061291f565b60006136e7826146b2565b9350935050509250929050565b600080600061370347346139d7565b9092509050600082600381111561371657fe5b1461173b57600080fd5b600080600061372e81612477565b6000613738611e75565b9050801561375657610fcb81601181111561374f57fe5b6041612540565b610fe13333876146c1565b60008061376c61352d565b61377c576123a06001603c612540565b613784612ad5565b600b5414613798576123a0600a603e612540565b826137a16136f4565b10156137b3576123a0600e603d612540565b600e548311156137c9576123a06002603f612540565b6137d5600e5484614a0d565b600e81905590506137e63384614a47565b604080513381526020810185905280820183905290517f3bad0c59cf2f06e7314077049f48a93578cd16f5ef92329f1dab1420a99c177e9181900360600190a16000611e31565b60008061383981612477565b6000613843611e75565b9050801561386157611c2f81601181111561385a57fe5b602a612540565b611c4033600086614ae4565b6001600160a01b0381166000908152601460205260408120805482918291829182916138a357600080955095505050505061391b565b6138b38160000154600c54614fae565b909450925060008460038111156138c657fe5b146138db57836000955095505050505061391b565b6138e9838260010154614fed565b909450915060008460038111156138fc57fe5b1461391157836000955095505050505061391b565b5060009450925050505b915091565b60008061392b612ad5565b600b541461393f576123a0600a6035612540565b826139486136f4565b101561395a576123a0600e6034612540565b601054831115613970576123a060026036612540565b61397c60105484614a0d565b60108190559050612fb673bcb0d746ee1d4c0ff67fc720006214568ef669d984614a47565b6000611e318383604051806040016040528060118152602001706164646974696f6e206f766572666c6f7760781b815250615018565b6000808383116139ee57506000905081830361291f565b5060039050600061291f565b600080613a1560405180602001604052808681525084615076565b90506000613a2582600d546150a0565b90506000613a3582600d546139a1565b90506000613a566040518060200160405280600a5481525084600e546150b8565b90506000613a776040518060200160405280600954815250856010546150b8565b90506000613a98604051806020016040528060085481525086600f546150b8565b90506000613aab87600c54600c546150b8565b600b8d9055600c819055600d869055600e8590556010849055600f839055604080518d8152602081018990528082018390526060810188905290519192507f4dec04e750ca11537cabcd8a9eab06494de08da3735bc8871cd41250e190bc04919081900360800190a16006546040805160248082018e905282518083039091018152604490910182526020810180516001600160e01b0316635efd023360e11b178152915181516001600160a01b0390941693919290918291908083835b60208310613b885780518252601f199092019160209182019101613b69565b6001836020036101000a0380198251168184511680821785525050505050509050019150506000604051808303816000865af19150503d8060008114613bea576040519150601f19603f3d011682016040523d82523d6000602084013e613bef565b606091505b5060009150613bfb9050565b9c9b505050505050505050505050565b600080613c16612ad5565b600b5414613c2a576123a0600a6039612540565b82613c336136f4565b1015613c45576123a0600e6038612540565b600f54831115613c5b576123a06002603a612540565b613c67600f5484614a0d565b905080600f81905550612fb6600560009054906101000a90046001600160a01b03166001600160a01b031663f851a4406040518163ffffffff1660e01b815260040160206040518083038186803b158015613cc157600080fd5b505afa158015613cd5573d6000803e3d6000fd5b505050506040513d6020811015613ceb57600080fd5b505184614a47565b6000806000613d0181612477565b6000613d0b611e75565b90508015613d3557613d29816011811115613d2257fe5b6011612540565b60009350935050613dcc565b846001600160a01b031663a6afed956040518163ffffffff1660e01b8152600401602060405180830381600087803b158015613d7057600080fd5b505af1158015613d84573d6000803e3d6000fd5b505050506040513d6020811015613d9a57600080fd5b505190508015613dba57613d29816011811115613db357fe5b6012612540565b613dc6338888886150d9565b93509350505b613dd581612926565b50935093915050565b6005546040805163d02f735160e01b81523060048201526001600160a01b038781166024830152868116604483015285811660648301526084820185905291516000938493169163d02f73519160a480830192602092919082900301818787803b158015613e4b57600080fd5b505af1158015613e5f573d6000803e3d6000fd5b505050506040513d6020811015613e7557600080fd5b505190508015613e8c5761333f6003601d83614293565b846001600160a01b0316846001600160a01b03161415613eb25761333f6006601e612540565b613eba615bf4565b6001600160a01b038516600090815260126020526040902054613edd90856139d7565b6020830181905282826003811115613ef157fe5b6003811115613efc57fe5b9052506000905081516003811115613f1057fe5b14613f3557613f2c6009601c836000015160038111156126d557fe5b92505050613525565b613f54846040518060200160405280666379da05b600008152506155cd565b60808201819052613f66908590614a0d565b6060820152613f73612fbd565b60c0830181905282826003811115613f8757fe5b6003811115613f9257fe5b9052506000905081516003811115613fa657fe5b14613ff8576040805162461bcd60e51b815260206004820152601860248201527f65786368616e67652072617465206d617468206572726f720000000000000000604482015290519081900360640190fd5b61401860405180602001604052808360c0015181525082608001516150a0565b60a08201819052600e5461402b916139a1565b60e082015260115460808201516140429190614a0d565b6101008201526001600160a01b03861660009081526012602052604090205460608201516140709190614624565b604083018190528282600381111561408457fe5b600381111561408f57fe5b90525060009050815160038111156140a357fe5b146140bf57613f2c6009601b836000015160038111156126d557fe5b60e0810151600e556101008101516011556020808201516001600160a01b0380881660008181526012855260408082209490945583860151928b16808252908490209290925560608501518351908152925191939092600080516020615dd5833981519152929081900390910190a36080810151604080519182525130916001600160a01b03881691600080516020615dd58339815191529181900360200190a360a081015160e082015160408051308152602081019390935282810191909152517fa91e67c5ea634cd43a12c5a482724b03de01e85ca68702a53d0c2f45cb7c1dc59181900360600190a16000979650505050505050565b6000806141c481612477565b60006141ce611e75565b905080156141ec57611c2f8160118111156141e557fe5b600a612540565b611c4033856155f5565b60008061420281612477565b600061420c611e75565b9050801561422357611c2f81601181111561385a57fe5b611c4033856000614ae4565b600080600061423d81612477565b6000614247611e75565b905080156142715761426581601181111561425e57fe5b6040612540565b60009350935050614282565b61427c3387876146c1565b93509350505b61428b81612926565b509250929050565b60007f45b96fe442630264581b197e84bbada861235052c5a1aadfff9ea4e40a969aa08460118111156142c257fe5b8460638111156142ce57fe5b604080519283526020830191909152818101859052519081900360600190a160038460118111156142fb57fe5b146143115783601181111561430c57fe5b613525565b506103e80192915050565b6000336001600160a01b0384161461436d576040805162461bcd60e51b815260206004820152600f60248201526e0e6cadcc8cae440dad2e6dac2e8c6d608b1b604482015290519081900360640190fd5b8134146116d3576040805162461bcd60e51b815260206004820152600e60248201526d0ecc2d8eaca40dad2e6dac2e8c6d60931b604482015290519081900360640190fd5b6000806000806136b88686615933565b600073bcb0d746ee1d4c0ff67fc720006214568ef669d96001600160a01b031663dd86fea16040518163ffffffff1660e01b815260040160206040518083038186803b15801561217e57600080fd5b6000806000806144218787614624565b9092509050600082600381111561443457fe5b146144455750915060009050614456565b61444f81866139d7565b9350935050505b935093915050565b6000614468615be1565b60008061447d86670de0b6b3a7640000614fae565b9092509050600082600381111561449057fe5b146144af5750604080516020810190915260008152909250905061291f565b6000806144bc8388614fed565b909250905060008260038111156144cf57fe5b146144f2578160405180602001604052806000815250955095505050505061291f565b604080516020810190915290815260009890975095505050505050565b611950565b6060600080856001600160a01b0316856040518082805190602001908083835b602083106145535780518252601f199092019160209182019101614534565b6001836020036101000a0380198251168184511680821785525050505050509050019150506000604051808303816000865af19150503d80600081146145b5576040519150601f19603f3d011682016040523d82523d6000602084013e6145ba565b606091505b50915091508161461b578051156145d45780518082602001fd5b60405162461bcd60e51b8152602060048201818152865160248401528651879391928392604401919085019080838360008315611230578181015183820152602001611218565b95945050505050565b60008083830184811061463c5760009250905061291f565b60026000925092505061291f565b6000614654615be1565b600080614665866000015186614fae565b9092509050600082600381111561467857fe5b146146975750604080516020810190915260008152909250905061291f565b60408051602081019091529081526000969095509350505050565b51670de0b6b3a7640000900490565b60055460408051631200453160e11b81523060048201526001600160a01b0386811660248301528581166044830152606482018590529151600093849384939116916324008a629160848082019260209290919082900301818787803b15801561472a57600080fd5b505af115801561473e573d6000803e3d6000fd5b505050506040513d602081101561475457600080fd5b5051905080156147775761476b6003604383614293565b60009250925050614456565b61477f612ad5565b600b54146147935761476b600a6044612540565b61479b615c41565b6001600160a01b03861660009081526014602052604090206001015460608201526147c58661386d565b60808301819052602083018260038111156147dc57fe5b60038111156147e757fe5b90525060009050816020015160038111156147fe57fe5b146148275761481a60096042836020015160038111156126d557fe5b6000935093505050614456565b6000198514156148405760808101516040820152614848565b604081018590525b61485687826040015161431c565b60e08201819052608082015161486b916139d7565b60a083018190526020830182600381111561488257fe5b600381111561488d57fe5b90525060009050816020015160038111156148a457fe5b146148e05760405162461bcd60e51b815260040180806020018281038252603a815260200180615d72603a913960400191505060405180910390fd5b6148f0600d548260e001516139d7565b60c083018190526020830182600381111561490757fe5b600381111561491257fe5b905250600090508160200151600381111561492957fe5b146149655760405162461bcd60e51b8152600401808060200182810382526031815260200180615df56031913960400191505060405180910390fd5b60a080820180516001600160a01b03808a16600081815260146020908152604091829020948555600c5460019095019490945560c0870151600d81905560e088015195518251948f16855294840192909252828101949094526060820192909252608081019190915290517f1a2a22cb034d26d1854bdc6666a5b91fe25efbbb5dcad3b0355478d6f5c362a1929181900390910190a160e00151600097909650945050505050565b6000611e318383604051806040016040528060158152602001747375627472616374696f6e20756e646572666c6f7760581b815250615992565b6040516000906001600160a01b0384169083908381818185875af1925050503d8060008114614a92576040519150601f19603f3d011682016040523d82523d6000602084013e614a97565b606091505b505090508061194c576040805162461bcd60e51b8152602060048201526014602482015273191bd51c985b9cd9995c93dd5d0819985a5b195960621b604482015290519081900360640190fd5b6000821580614af1575081155b614b2c5760405162461bcd60e51b8152600401808060200182810382526034815260200180615e8e6034913960400191505060405180910390fd5b614b34615ba3565b614b3c612fbd565b6040830181905260208301826003811115614b5357fe5b6003811115614b5e57fe5b9052506000905081602001516003811115614b7557fe5b14614b9957614b916009602e836020015160038111156126d557fe5b915050611e31565b8315614c1a576060810184905260408051602081018252908201518152614bc090856136a8565b6080830181905260208301826003811115614bd757fe5b6003811115614be257fe5b9052506000905081602001516003811115614bf957fe5b14614c1557614b916009602c836020015160038111156126d557fe5b614c93565b614c3683604051806020016040528084604001518152506143b2565b6060830181905260208301826003811115614c4d57fe5b6003811115614c5857fe5b9052506000905081602001516003811115614c6f57fe5b14614c8b57614b916009602d836020015160038111156126d557fe5b608081018390525b60055460608201516040805163eabe7d9160e01b81523060048201526001600160a01b03898116602483015260448201939093529051600093929092169163eabe7d919160648082019260209290919082900301818787803b158015614cf857600080fd5b505af1158015614d0c573d6000803e3d6000fd5b505050506040513d6020811015614d2257600080fd5b505190508015614d4257614d396003602b83614293565b92505050611e31565b614d4a612ad5565b600b5414614d5e57614d39600a602f612540565b614d6e60115483606001516139d7565b60a0840181905260208401826003811115614d8557fe5b6003811115614d9057fe5b9052506000905082602001516003811115614da757fe5b14614dc357614d3960096031846020015160038111156126d557fe5b6001600160a01b0386166000908152601260205260409020546060830151614deb91906139d7565b60c0840181905260208401826003811115614e0257fe5b6003811115614e0d57fe5b9052506000905082602001516003811115614e2457fe5b14614e4057614d3960096030846020015160038111156126d557fe5b8160800151614e4d6136f4565b1015614e5f57614d39600e6032612540565b614e6d868360800151614a47565b60a082015160115560c08201516001600160a01b038716600081815260126020908152604091829020939093556060850151815190815290513093600080516020615dd5833981519152928290030190a37fe5b754fb1abb7f01b499791d0b820ae3b6af3424ac1c59768edb53f4ec31a929868360800151846060015160405180846001600160a01b03168152602001838152602001828152602001935050505060405180910390a160055460808301516060840151604080516351dff98960e01b81523060048201526001600160a01b038b81166024830152604482019490945260648101929092525191909216916351dff98991608480830192600092919082900301818387803b158015614f8357600080fd5b505af1158015614f97573d6000803e3d6000fd5b5060009250614fa4915050565b9695505050505050565b60008083614fc15750600090508061291f565b83830283858281614fce57fe5b0414614fe25760026000925092505061291f565b60009250905061291f565b60008082615001575060019050600061291f565b600083858161500c57fe5b04915091509250929050565b6000838301828582101561506d5760405162461bcd60e51b8152602060048201818152835160248401528351909283926044909101919085019080838360008315611230578181015183820152602001611218565b50949350505050565b61507e615be1565b60405180602001604052806150978560000151856159ec565b90529392505050565b6000806150ad8484615076565b9050613525816146b2565b6000806150c58585615076565b905061461b6150d3826146b2565b846139a1565b60055460408051632fe3f38f60e11b81523060048201526001600160a01b0384811660248301528781166044830152868116606483015260848201869052915160009384938493911691635fc7e71e9160a48082019260209290919082900301818787803b15801561514a57600080fd5b505af115801561515e573d6000803e3d6000fd5b505050506040513d602081101561517457600080fd5b5051905080156151975761518b6003601483614293565b600092509250506155c4565b61519f612ad5565b600b54146151b35761518b600a6018612540565b6151bb612ad5565b846001600160a01b0316636c540baf6040518163ffffffff1660e01b815260040160206040518083038186803b1580156151f457600080fd5b505afa158015615208573d6000803e3d6000fd5b505050506040513d602081101561521e57600080fd5b5051146152315761518b600a6013612540565b866001600160a01b0316866001600160a01b031614156152575761518b60066019612540565b846152685761518b60076017612540565b60001985141561527e5761518b60076016612540565b60008061528c8989896146c1565b909250905081156152bb576152ad8260118111156152a657fe5b601a612540565b6000945094505050506155c4565b6005546040805163c488847b60e01b81523060048201526001600160a01b038981166024830152604482018590528251600094859492169263c488847b926064808301939192829003018186803b15801561531557600080fd5b505afa158015615329573d6000803e3d6000fd5b505050506040513d604081101561533f57600080fd5b5080516020909101519092509050811561538a5760405162461bcd60e51b8152600401808060200182810382526033815260200180615e266033913960400191505060405180910390fd5b80886001600160a01b03166370a082318c6040518263ffffffff1660e01b815260040180826001600160a01b0316815260200191505060206040518083038186803b1580156153d857600080fd5b505afa1580156153ec573d6000803e3d6000fd5b505050506040513d602081101561540257600080fd5b50511015615457576040805162461bcd60e51b815260206004820152601860248201527f4c49515549444154455f5345495a455f544f4f5f4d5543480000000000000000604482015290519081900360640190fd5b60006001600160a01b03891630141561547d57615476308d8d85613dde565b9050615514565b886001600160a01b031663b2a02ff18d8d856040518463ffffffff1660e01b815260040180846001600160a01b03168152602001836001600160a01b031681526020018281526020019350505050602060405180830381600087803b1580156154e557600080fd5b505af11580156154f9573d6000803e3d6000fd5b505050506040513d602081101561550f57600080fd5b505190505b801561555e576040805162461bcd60e51b81526020600482015260146024820152731d1bdad95b881cd95a5e9d5c994819985a5b195960621b604482015290519081900360640190fd5b604080516001600160a01b03808f168252808e1660208301528183018790528b1660608201526080810184905290517f298637f684da70674f26509b10f07ec2fbc77a335ab1e7d6215a4b2484d8bb529181900360a00190a16000975092955050505050505b94509492505050565b6000670de0b6b3a76400006155e68484600001516159ec565b816155ed57fe5b049392505050565b6005546040805163368f515360e21b81523060048201526001600160a01b0385811660248301526044820185905291516000938493169163da3d454c91606480830192602092919082900301818787803b15801561565257600080fd5b505af1158015615666573d6000803e3d6000fd5b505050506040513d602081101561567c57600080fd5b50519050801561569b576156936003601083614293565b915050611365565b6156a3612ad5565b600b54146156b757615693600a600c612540565b60006156c16136f4565b9050838110156156e0576156d7600e600b612540565b92505050611365565b6156e8615c87565b6156f18661386d565b602083018190528282600381111561570557fe5b600381111561571057fe5b905250600090508151600381111561572457fe5b146157495761573f600980836000015160038111156126d557fe5b9350505050611365565b615757816020015186614624565b604083018190528282600381111561576b57fe5b600381111561577657fe5b905250600090508151600381111561578a57fe5b146157a65761573f6009600e836000015160038111156126d557fe5b6005546040808301518151631de6c8a560e21b8152306004820152602481019190915290516001600160a01b039092169163779b2294916044808201926020929091908290030181600087803b1580156157ff57600080fd5b505af1158015615813573d6000803e3d6000fd5b505050506040513d602081101561582957600080fd5b5051925082156158405761573f6003601085614293565b61584c600d5486614624565b606083018190528282600381111561586057fe5b600381111561586b57fe5b905250600090508151600381111561587f57fe5b1461589b5761573f6009600d836000015160038111156126d557fe5b6158a58686614a47565b604080820180516001600160a01b03891660008181526014602090815290859020928355600c54600190930192909255606080860151600d819055935185519283529282018a9052818501929092529081019190915290517f13ed6866d4e1ee6da46f845c46d7e54120883d75c5ea9a2dacc1c4ca8984ab809181900360800190a160009695505050505050565b600061593d615be1565b600080615952670de0b6b3a764000087614fae565b9092509050600082600381111561596557fe5b146159845750604080516020810190915260008152909250905061291f565b6136e781866000015161445e565b600081848411156159e45760405162461bcd60e51b8152602060048201818152835160248401528351909283926044909101919085019080838360008315611230578181015183820152602001611218565b505050900390565b6000611e3183836040518060400160405280601781526020017f6d756c7469706c69636174696f6e206f766572666c6f770000000000000000008152506000831580615a36575082155b15615a4357506000611e31565b83830283858281615a5057fe5b0414839061506d5760405162461bcd60e51b8152602060048201818152835160248401528351909283926044909101919085019080838360008315611230578181015183820152602001611218565b828054600181600116156101000203166002900490600052602060002090601f016020900481019282615ad55760008555615b1b565b82601f10615aee57805160ff1916838001178555615b1b565b82800160010185558215615b1b579182015b82811115615b1b578251825591602001919060010190615b00565b50611cfc929150615cb0565b828054600181600116156101000203166002900490600052602060002090601f016020900481019282615b5d5760008555615b1b565b82601f10615b765782800160ff19823516178555615b1b565b82800160010185558215615b1b579182015b82811115615b1b578235825591602001919060010190615b88565b6040805160e0810190915280600081526020016000815260200160008152602001600081526020016000815260200160008152602001600081525090565b6040518060200160405280600081525090565b604080516101208101909152806000815260200160008152602001600081526020016000815260200160008152602001600081526020016000815260200160008152602001600081525090565b6040805161010081019091528060008152602001600081526020016000815260200160008152602001600081526020016000815260200160008152602001600081525090565b604080516080810190915280600081526020016000815260200160008152602001600081525090565b5b80821115611cfc5760008155600101615cb156fe6d61726b6574206d6179206f6e6c7920626520696e697469616c697a6564206f6e6365696e697469616c2065786368616e67652072617465206d7573742062652067726561746572207468616e207a65726f2e73657474696e6720696e7465726573742072617465206d6f64656c206661696c6564626f72726f7742616c616e636553746f7265643a20626f72726f7742616c616e636553746f726564496e7465726e616c206661696c656452455041595f424f52524f575f4e45575f4143434f554e545f424f52524f575f42414c414e43455f43414c43554c4154494f4e5f4641494c45446f6e6c7920467573652061646d696e206d617920696e697469616c697a6520746865206d61726b6574ddf252ad1be2c89b69c2b068fc378daa952ba7f163c4a11628f55a4df523b3ef52455041595f424f52524f575f4e45575f544f54414c5f42414c414e43455f43414c43554c4154494f4e5f4641494c45444c49515549444154455f434f4d5054524f4c4c45525f43414c43554c4154455f414d4f554e545f5345495a455f4641494c454465786368616e67655261746553746f7265643a2065786368616e67655261746553746f726564496e7465726e616c206661696c65646f6e65206f662072656465656d546f6b656e73496e206f722072656465656d416d6f756e74496e206d757374206265207a65726fa264697066735822122089baf41cab34a3e82af1849a8081c7943188de21099db925923efc1bcfca8d1364736f6c63430007060033",
  "devdoc": {
    "author": "Compound",
    "kind": "dev",
    "methods": {
      "_becomeImplementation(bytes)": {
        "params": {
          "data": "The encoded bytes data for any initialization"
        }
      },
      "_prepare()": {
        "details": "Checks comptroller.autoImplementation and upgrades the implementation if necessary"
      },
      "_reduceReserves(uint256)": {
        "params": {
          "reduceAmount": "Amount of reduction to reserves"
        },
        "returns": {
          "_0": "uint 0=success, otherwise a failure (see ErrorReporter.sol for details)"
        }
      },
      "_setAdminFee(uint256)": {
        "details": "Admin function to accrue interest and set a new admin fee",
        "returns": {
          "_0": "uint 0=success, otherwise a failure (see ErrorReporter.sol for details)"
        }
      },
      "_setImplementationSafe(address,bool,bytes)": {
        "params": {
          "allowResign": "Flag to indicate whether to call _resignImplementation on the old implementation",
          "becomeImplementationData": "The encoded bytes data to be passed to _becomeImplementation",
          "implementation_": "The address of the new implementation for delegation"
        }
      },
      "_setInterestRateModel(address)": {
        "details": "Admin function to accrue interest and update the interest rate model",
        "params": {
          "newInterestRateModel": "the new interest rate model to use"
        },
        "returns": {
          "_0": "uint 0=success, otherwise a failure (see ErrorReporter.sol for details)"
        }
      },
      "_setNameAndSymbol(string,string)": {
        "details": "Admin function to update the cToken ERC20 name and symbol",
        "params": {
          "_name": "the new ERC20 token name to use",
          "_symbol": "the new ERC20 token symbol to use"
        }
      },
      "_setReserveFactor(uint256)": {
        "details": "Admin function to accrue interest and set a new reserve factor",
        "returns": {
          "_0": "uint 0=success, otherwise a failure (see ErrorReporter.sol for details)"
        }
      },
      "_withdrawAdminFees(uint256)": {
        "params": {
          "withdrawAmount": "Amount of fees to withdraw"
        },
        "returns": {
          "_0": "uint 0=success, otherwise a failure (see ErrorReporter.sol for details)"
        }
      },
      "_withdrawFuseFees(uint256)": {
        "params": {
          "withdrawAmount": "Amount of fees to withdraw"
        },
        "returns": {
          "_0": "uint 0=success, otherwise a failure (see ErrorReporter.sol for details)"
        }
      },
      "accrueInterest()": {
        "details": "This calculates interest accrued from the last checkpointed block   up to the current block and writes new checkpoint to storage."
      },
      "allowance(address,address)": {
        "params": {
          "owner": "The address of the account which owns the tokens to be spent",
          "spender": "The address of the account which may transfer tokens"
        },
        "returns": {
          "_0": "The number of tokens allowed to be spent (-1 means infinite)"
        }
      },
      "approve(address,uint256)": {
        "details": "This will overwrite the approval amount for `spender`  and is subject to issues noted [here](https://eips.ethereum.org/EIPS/eip-20#approve)",
        "params": {
          "amount": "The number of tokens that are approved (-1 means infinite)",
          "spender": "The address of the account which may transfer tokens"
        },
        "returns": {
          "_0": "Whether or not the approval succeeded"
        }
      },
      "balanceOf(address)": {
        "params": {
          "owner": "The address of the account to query"
        },
        "returns": {
          "_0": "The number of tokens owned by `owner`"
        }
      },
      "balanceOfUnderlying(address)": {
        "details": "This also accrues interest in a transaction",
        "params": {
          "owner": "The address of the account to query"
        },
        "returns": {
          "_0": "The amount of underlying owned by `owner`"
        }
      },
      "borrow(uint256)": {
        "params": {
          "borrowAmount": "The amount of the underlying asset to borrow"
        },
        "returns": {
          "_0": "uint 0=success, otherwise a failure (see ErrorReporter.sol for details)"
        }
      },
      "borrowBalanceCurrent(address)": {
        "params": {
          "account": "The address whose balance should be calculated after updating borrowIndex"
        },
        "returns": {
          "_0": "The calculated balance"
        }
      },
      "borrowBalanceStored(address)": {
        "params": {
          "account": "The address whose balance should be calculated"
        },
        "returns": {
          "_0": "The calculated balance"
        }
      },
      "borrowRatePerBlock()": {
        "returns": {
          "_0": "The borrow interest rate per block, scaled by 1e18"
        }
      },
      "exchangeRateCurrent()": {
        "returns": {
          "_0": "Calculated exchange rate scaled by 1e18"
        }
      },
      "exchangeRateStored()": {
        "details": "This function does not accrue interest before calculating the exchange rate",
        "returns": {
          "_0": "Calculated exchange rate scaled by 1e18"
        }
      },
      "getAccountSnapshot(address)": {
        "details": "This is used by comptroller to more efficiently perform liquidity checks.",
        "params": {
          "account": "Address of the account to snapshot"
        },
        "returns": {
          "_0": "(possible error, token balance, borrow balance, exchange rate mantissa)"
        }
      },
      "getCash()": {
        "returns": {
          "_0": "The quantity of underlying asset owned by this contract"
        }
      },
      "initialize(address,address,string,string,uint256,uint256)": {
        "params": {
          "comptroller_": "The address of the Comptroller",
          "interestRateModel_": "The address of the interest rate model",
          "name_": "ERC-20 name of this token",
          "symbol_": "ERC-20 symbol of this token"
        }
      },
      "initialize(address,address,uint256,string,string,uint8,uint256,uint256)": {
        "params": {
          "comptroller_": "The address of the Comptroller",
          "decimals_": "EIP-20 decimal precision of this token",
          "initialExchangeRateMantissa_": "The initial exchange rate, scaled by 1e18",
          "interestRateModel_": "The address of the interest rate model",
          "name_": "EIP-20 name of this token",
          "symbol_": "EIP-20 symbol of this token"
        }
      },
      "liquidateBorrow(address,address)": {
        "details": "Reverts upon any failure",
        "params": {
          "borrower": "The borrower of this cToken to be liquidated",
          "cTokenCollateral": "The market in which to seize collateral from the borrower"
        }
      },
      "mint()": {
        "details": "Reverts upon any failure"
      },
      "redeem(uint256)": {
        "details": "Accrues interest whether or not the operation succeeds, unless reverted",
        "params": {
          "redeemTokens": "The number of cTokens to redeem into underlying"
        },
        "returns": {
          "_0": "uint 0=success, otherwise a failure (see ErrorReporter.sol for details)"
        }
      },
      "redeemUnderlying(uint256)": {
        "details": "Accrues interest whether or not the operation succeeds, unless reverted",
        "params": {
          "redeemAmount": "The amount of underlying to redeem"
        },
        "returns": {
          "_0": "uint 0=success, otherwise a failure (see ErrorReporter.sol for details)"
        }
      },
      "repayBorrow()": {
        "details": "Reverts upon any failure"
      },
      "repayBorrowBehalf(address)": {
        "details": "Reverts upon any failure",
        "params": {
          "borrower": "the account with the debt being payed off"
        }
      },
      "seize(address,address,uint256)": {
        "details": "Will fail unless called by another cToken during the process of liquidation.  Its absolutely critical to use msg.sender as the borrowed cToken and not a parameter.",
        "params": {
          "borrower": "The account having collateral seized",
          "liquidator": "The account receiving seized collateral",
          "seizeTokens": "The number of cTokens to seize"
        },
        "returns": {
          "_0": "uint 0=success, otherwise a failure (see ErrorReporter.sol for details)"
        }
      },
      "supplyRatePerBlock()": {
        "returns": {
          "_0": "The supply interest rate per block, scaled by 1e18"
        }
      },
      "totalBorrowsCurrent()": {
        "returns": {
          "_0": "The total borrows with interest"
        }
      },
      "transfer(address,uint256)": {
        "params": {
          "amount": "The number of tokens to transfer",
          "dst": "The address of the destination account"
        },
        "returns": {
          "_0": "Whether or not the transfer succeeded"
        }
      },
      "transferFrom(address,address,uint256)": {
        "params": {
          "amount": "The number of tokens to transfer",
          "dst": "The address of the destination account",
          "src": "The address of the source account"
        },
        "returns": {
          "_0": "Whether or not the transfer succeeded"
        }
      }
    },
    "title": "Compound's CEtherDelegate Contract",
    "version": 1
  },
  "userdoc": {
    "events": {
      "AccrueInterest(uint256,uint256,uint256,uint256)": {
        "notice": "Event emitted when interest is accrued"
      },
      "Approval(address,address,uint256)": {
        "notice": "EIP20 Approval event"
      },
      "Borrow(address,uint256,uint256,uint256)": {
        "notice": "Event emitted when underlying is borrowed"
      },
      "LiquidateBorrow(address,address,uint256,address,uint256)": {
        "notice": "Event emitted when a borrow is liquidated"
      },
      "Mint(address,uint256,uint256)": {
        "notice": "Event emitted when tokens are minted"
      },
      "NewAdminFee(uint256,uint256)": {
        "notice": "Event emitted when the admin fee is changed"
      },
      "NewComptroller(address,address)": {
        "notice": "Event emitted when comptroller is changed"
      },
      "NewFuseFee(uint256,uint256)": {
        "notice": "Event emitted when the Fuse fee is changed"
      },
      "NewImplementation(address,address)": {
        "notice": "Emitted when implementation is changed"
      },
      "NewMarketInterestRateModel(address,address)": {
        "notice": "Event emitted when interestRateModel is changed"
      },
      "NewReserveFactor(uint256,uint256)": {
        "notice": "Event emitted when the reserve factor is changed"
      },
      "Redeem(address,uint256,uint256)": {
        "notice": "Event emitted when tokens are redeemed"
      },
      "RepayBorrow(address,address,uint256,uint256,uint256)": {
        "notice": "Event emitted when a borrow is repaid"
      },
      "ReservesAdded(address,uint256,uint256)": {
        "notice": "Event emitted when the reserves are added"
      },
      "ReservesReduced(address,uint256,uint256)": {
        "notice": "Event emitted when the reserves are reduced"
      },
      "Transfer(address,address,uint256)": {
        "notice": "EIP20 Transfer event"
      }
    },
    "kind": "user",
    "methods": {
      "_becomeImplementation(bytes)": {
        "notice": "Called by the delegator on a delegate to initialize it for duty"
      },
      "_prepare()": {
        "notice": "Function called before all delegator functions"
      },
      "_reduceReserves(uint256)": {
        "notice": "Accrues interest and reduces reserves by transferring to admin"
      },
      "_setAdminFee(uint256)": {
        "notice": "accrues interest and sets a new admin fee for the protocol using _setAdminFeeFresh"
      },
      "_setImplementationSafe(address,bool,bytes)": {
        "notice": "Called by the admin to update the implementation of the delegator"
      },
      "_setInterestRateModel(address)": {
        "notice": "accrues interest and updates the interest rate model using _setInterestRateModelFresh"
      },
      "_setNameAndSymbol(string,string)": {
        "notice": "updates the cToken ERC20 name and symbol"
      },
      "_setReserveFactor(uint256)": {
        "notice": "accrues interest and sets a new reserve factor for the protocol using _setReserveFactorFresh"
      },
      "_withdrawAdminFees(uint256)": {
        "notice": "Accrues interest and reduces admin fees by transferring to admin"
      },
      "_withdrawFuseFees(uint256)": {
        "notice": "Accrues interest and reduces Fuse fees by transferring to Fuse"
      },
      "accrualBlockNumber()": {
        "notice": "Block number that interest was last accrued at"
      },
      "accrueInterest()": {
        "notice": "Applies accrued interest to total borrows and reserves"
      },
      "adminFeeMantissa()": {
        "notice": "Fraction of interest currently set aside for admin fees"
      },
      "allowance(address,address)": {
        "notice": "Get the current allowance from `owner` for `spender`"
      },
      "approve(address,uint256)": {
        "notice": "Approve `spender` to transfer up to `amount` from `src`"
      },
      "balanceOf(address)": {
        "notice": "Get the token balance of the `owner`"
      },
      "balanceOfUnderlying(address)": {
        "notice": "Get the underlying balance of the `owner`"
      },
      "borrow(uint256)": {
        "notice": "Sender borrows assets from the protocol to their own address"
      },
      "borrowBalanceCurrent(address)": {
        "notice": "Accrue interest to updated borrowIndex and then calculate account's borrow balance using the updated borrowIndex"
      },
      "borrowBalanceStored(address)": {
        "notice": "Return the borrow balance of account based on stored data"
      },
      "borrowIndex()": {
        "notice": "Accumulator of the total earned interest rate since the opening of the market"
      },
      "borrowRatePerBlock()": {
        "notice": "Returns the current per-block borrow interest rate for this cToken"
      },
      "comptroller()": {
        "notice": "Contract which oversees inter-cToken operations"
      },
      "constructor": {
        "notice": "Construct an empty delegate"
      },
      "decimals()": {
        "notice": "EIP-20 token decimals for this token"
      },
      "exchangeRateCurrent()": {
        "notice": "Accrue interest then return the up-to-date exchange rate"
      },
      "exchangeRateStored()": {
        "notice": "Calculates the exchange rate from the underlying to the CToken"
      },
      "fuseFeeMantissa()": {
        "notice": "Fraction of interest currently set aside for Fuse fees"
      },
      "getAccountSnapshot(address)": {
        "notice": "Get a snapshot of the account's balances, and the cached exchange rate"
      },
      "getCash()": {
        "notice": "Get cash balance of this cToken in the underlying asset"
      },
      "implementation()": {
        "notice": "Implementation address for this contract"
      },
      "initialize(address,address,string,string,uint256,uint256)": {
        "notice": "Initialize the new money market"
      },
      "initialize(address,address,uint256,string,string,uint8,uint256,uint256)": {
        "notice": "Initialize the money market"
      },
      "interestRateModel()": {
        "notice": "Model which tells what the current interest rate should be"
      },
      "isCEther()": {
        "notice": "Indicator that this is or is not a CEther contract (for inspection)"
      },
      "isCToken()": {
        "notice": "Indicator that this is a CToken contract (for inspection)"
      },
      "liquidateBorrow(address,address)": {
        "notice": "The sender liquidates the borrowers collateral.  The collateral seized is transferred to the liquidator."
      },
      "mint()": {
        "notice": "Sender supplies assets into the market and receives cTokens in exchange"
      },
      "name()": {
        "notice": "EIP-20 token name for this token"
      },
      "redeem(uint256)": {
        "notice": "Sender redeems cTokens in exchange for the underlying asset"
      },
      "redeemUnderlying(uint256)": {
        "notice": "Sender redeems cTokens in exchange for a specified amount of underlying asset"
      },
      "repayBorrow()": {
        "notice": "Sender repays their own borrow"
      },
      "repayBorrowBehalf(address)": {
        "notice": "Sender repays a borrow belonging to borrower"
      },
      "reserveFactorMantissa()": {
        "notice": "Fraction of interest currently set aside for reserves"
      },
      "seize(address,address,uint256)": {
        "notice": "Transfers collateral tokens (this market) to the liquidator."
      },
      "supplyRatePerBlock()": {
        "notice": "Returns the current per-block supply interest rate for this cToken"
      },
      "symbol()": {
        "notice": "EIP-20 token symbol for this token"
      },
      "totalAdminFees()": {
        "notice": "Total amount of admin fees of the underlying held in this market"
      },
      "totalBorrows()": {
        "notice": "Total amount of outstanding borrows of the underlying in this market"
      },
      "totalBorrowsCurrent()": {
        "notice": "Returns the current total borrows plus accrued interest"
      },
      "totalFuseFees()": {
        "notice": "Total amount of Fuse fees of the underlying held in this market"
      },
      "totalReserves()": {
        "notice": "Total amount of reserves of the underlying held in this market"
      },
      "totalSupply()": {
        "notice": "Total number of tokens in circulation"
      },
      "transfer(address,uint256)": {
        "notice": "Transfer `amount` tokens from `msg.sender` to `dst`"
      },
      "transferFrom(address,address,uint256)": {
        "notice": "Transfer `amount` tokens from `src` to `dst`"
      },
      "underlying()": {
        "notice": "Underlying asset for this CToken"
      }
    },
    "notice": "CTokens which wrap Ether and are delegated to",
    "version": 1
  },
  "storageLayout": {
    "storage": [
      {
        "astId": 10512,
        "contract": "contracts/compound/CEtherDelegate.sol:CEtherDelegate",
        "label": "implementation",
        "offset": 0,
        "slot": "0",
        "type": "t_address"
      },
      {
        "astId": 16072,
        "contract": "contracts/compound/CEtherDelegate.sol:CEtherDelegate",
        "label": "__admin",
        "offset": 0,
        "slot": "1",
        "type": "t_address_payable"
      },
      {
        "astId": 16075,
        "contract": "contracts/compound/CEtherDelegate.sol:CEtherDelegate",
        "label": "__fuseAdminHasRights",
        "offset": 20,
        "slot": "1",
        "type": "t_bool"
      },
      {
        "astId": 16078,
        "contract": "contracts/compound/CEtherDelegate.sol:CEtherDelegate",
        "label": "__adminHasRights",
        "offset": 21,
        "slot": "1",
        "type": "t_bool"
      },
      {
        "astId": 16084,
        "contract": "contracts/compound/CEtherDelegate.sol:CEtherDelegate",
        "label": "_notEntered",
        "offset": 22,
        "slot": "1",
        "type": "t_bool"
      },
      {
        "astId": 16087,
        "contract": "contracts/compound/CEtherDelegate.sol:CEtherDelegate",
        "label": "name",
        "offset": 0,
        "slot": "2",
        "type": "t_string_storage"
      },
      {
        "astId": 16090,
        "contract": "contracts/compound/CEtherDelegate.sol:CEtherDelegate",
        "label": "symbol",
        "offset": 0,
        "slot": "3",
        "type": "t_string_storage"
      },
      {
        "astId": 16093,
        "contract": "contracts/compound/CEtherDelegate.sol:CEtherDelegate",
        "label": "decimals",
        "offset": 0,
        "slot": "4",
        "type": "t_uint8"
      },
      {
        "astId": 16101,
        "contract": "contracts/compound/CEtherDelegate.sol:CEtherDelegate",
        "label": "__pendingAdmin",
        "offset": 1,
        "slot": "4",
        "type": "t_address_payable"
      },
      {
        "astId": 16104,
        "contract": "contracts/compound/CEtherDelegate.sol:CEtherDelegate",
        "label": "comptroller",
        "offset": 0,
        "slot": "5",
        "type": "t_contract(ComptrollerInterface)20826"
      },
      {
        "astId": 16107,
        "contract": "contracts/compound/CEtherDelegate.sol:CEtherDelegate",
        "label": "interestRateModel",
        "offset": 0,
        "slot": "6",
        "type": "t_contract(InterestRateModel)25462"
      },
      {
        "astId": 16109,
        "contract": "contracts/compound/CEtherDelegate.sol:CEtherDelegate",
        "label": "initialExchangeRateMantissa",
        "offset": 0,
        "slot": "7",
        "type": "t_uint256"
      },
      {
        "astId": 16112,
        "contract": "contracts/compound/CEtherDelegate.sol:CEtherDelegate",
        "label": "adminFeeMantissa",
        "offset": 0,
        "slot": "8",
        "type": "t_uint256"
      },
      {
        "astId": 16115,
        "contract": "contracts/compound/CEtherDelegate.sol:CEtherDelegate",
        "label": "fuseFeeMantissa",
        "offset": 0,
        "slot": "9",
        "type": "t_uint256"
      },
      {
        "astId": 16118,
        "contract": "contracts/compound/CEtherDelegate.sol:CEtherDelegate",
        "label": "reserveFactorMantissa",
        "offset": 0,
        "slot": "10",
        "type": "t_uint256"
      },
      {
        "astId": 16121,
        "contract": "contracts/compound/CEtherDelegate.sol:CEtherDelegate",
        "label": "accrualBlockNumber",
        "offset": 0,
        "slot": "11",
        "type": "t_uint256"
      },
      {
        "astId": 16124,
        "contract": "contracts/compound/CEtherDelegate.sol:CEtherDelegate",
        "label": "borrowIndex",
        "offset": 0,
        "slot": "12",
        "type": "t_uint256"
      },
      {
        "astId": 16127,
        "contract": "contracts/compound/CEtherDelegate.sol:CEtherDelegate",
        "label": "totalBorrows",
        "offset": 0,
        "slot": "13",
        "type": "t_uint256"
      },
      {
        "astId": 16130,
        "contract": "contracts/compound/CEtherDelegate.sol:CEtherDelegate",
        "label": "totalReserves",
        "offset": 0,
        "slot": "14",
        "type": "t_uint256"
      },
      {
        "astId": 16133,
        "contract": "contracts/compound/CEtherDelegate.sol:CEtherDelegate",
        "label": "totalAdminFees",
        "offset": 0,
        "slot": "15",
        "type": "t_uint256"
      },
      {
        "astId": 16136,
        "contract": "contracts/compound/CEtherDelegate.sol:CEtherDelegate",
        "label": "totalFuseFees",
        "offset": 0,
        "slot": "16",
        "type": "t_uint256"
      },
      {
        "astId": 16139,
        "contract": "contracts/compound/CEtherDelegate.sol:CEtherDelegate",
        "label": "totalSupply",
        "offset": 0,
        "slot": "17",
        "type": "t_uint256"
      },
      {
        "astId": 16143,
        "contract": "contracts/compound/CEtherDelegate.sol:CEtherDelegate",
        "label": "accountTokens",
        "offset": 0,
        "slot": "18",
        "type": "t_mapping(t_address,t_uint256)"
      },
      {
        "astId": 16149,
        "contract": "contracts/compound/CEtherDelegate.sol:CEtherDelegate",
        "label": "transferAllowances",
        "offset": 0,
        "slot": "19",
        "type": "t_mapping(t_address,t_mapping(t_address,t_uint256))"
      },
      {
        "astId": 16158,
        "contract": "contracts/compound/CEtherDelegate.sol:CEtherDelegate",
        "label": "accountBorrows",
        "offset": 0,
        "slot": "20",
        "type": "t_mapping(t_address,t_struct(BorrowSnapshot)16154_storage)"
      },
      {
        "astId": 16469,
        "contract": "contracts/compound/CEtherDelegate.sol:CEtherDelegate",
        "label": "underlying",
        "offset": 0,
        "slot": "21",
        "type": "t_address"
      }
    ],
    "types": {
      "t_address": {
        "encoding": "inplace",
        "label": "address",
        "numberOfBytes": "20"
      },
      "t_address_payable": {
        "encoding": "inplace",
        "label": "address payable",
        "numberOfBytes": "20"
      },
      "t_bool": {
        "encoding": "inplace",
        "label": "bool",
        "numberOfBytes": "1"
      },
      "t_contract(ComptrollerInterface)20826": {
        "encoding": "inplace",
        "label": "contract ComptrollerInterface",
        "numberOfBytes": "20"
      },
      "t_contract(InterestRateModel)25462": {
        "encoding": "inplace",
        "label": "contract InterestRateModel",
        "numberOfBytes": "20"
      },
      "t_mapping(t_address,t_mapping(t_address,t_uint256))": {
        "encoding": "mapping",
        "key": "t_address",
        "label": "mapping(address => mapping(address => uint256))",
        "numberOfBytes": "32",
        "value": "t_mapping(t_address,t_uint256)"
      },
      "t_mapping(t_address,t_struct(BorrowSnapshot)16154_storage)": {
        "encoding": "mapping",
        "key": "t_address",
        "label": "mapping(address => struct CTokenStorage.BorrowSnapshot)",
        "numberOfBytes": "32",
        "value": "t_struct(BorrowSnapshot)16154_storage"
      },
      "t_mapping(t_address,t_uint256)": {
        "encoding": "mapping",
        "key": "t_address",
        "label": "mapping(address => uint256)",
        "numberOfBytes": "32",
        "value": "t_uint256"
      },
      "t_string_storage": {
        "encoding": "bytes",
        "label": "string",
        "numberOfBytes": "32"
      },
      "t_struct(BorrowSnapshot)16154_storage": {
        "encoding": "inplace",
        "label": "struct CTokenStorage.BorrowSnapshot",
        "members": [
          {
            "astId": 16151,
            "contract": "contracts/compound/CEtherDelegate.sol:CEtherDelegate",
            "label": "principal",
            "offset": 0,
            "slot": "0",
            "type": "t_uint256"
          },
          {
            "astId": 16153,
            "contract": "contracts/compound/CEtherDelegate.sol:CEtherDelegate",
            "label": "interestIndex",
            "offset": 0,
            "slot": "1",
            "type": "t_uint256"
          }
        ],
        "numberOfBytes": "64"
      },
      "t_uint256": {
        "encoding": "inplace",
        "label": "uint256",
        "numberOfBytes": "32"
      },
      "t_uint8": {
        "encoding": "inplace",
        "label": "uint8",
        "numberOfBytes": "1"
      }
    }
  }
}