{
  "address": "0xBF600E2043D0f174C2ed7E69d78aE84e4b76Ed78",
  "abi": [
    {
      "inputs": [
        {
          "internalType": "address",
          "name": "_admin",
          "type": "address"
        },
        {
          "internalType": "bool",
          "name": "_canAdminOverwrite",
          "type": "bool"
        }
      ],
      "stateMutability": "nonpayable",
      "type": "constructor"
    },
    {
      "anonymous": false,
      "inputs": [
        {
          "indexed": false,
          "internalType": "address",
          "name": "oldAdmin",
          "type": "address"
        },
        {
          "indexed": false,
          "internalType": "address",
          "name": "newAdmin",
          "type": "address"
        }
      ],
      "name": "NewAdmin",
      "type": "event"
    },
    {
      "inputs": [],
      "name": "BTC_ETH_PRICE_FEED",
      "outputs": [
        {
          "internalType": "contract AggregatorV3Interface",
          "name": "",
          "type": "address"
        }
      ],
      "stateMutability": "view",
      "type": "function"
    },
    {
      "inputs": [],
      "name": "ETH_USD_PRICE_FEED",
      "outputs": [
        {
          "internalType": "contract AggregatorV3Interface",
          "name": "",
          "type": "address"
        }
      ],
      "stateMutability": "view",
      "type": "function"
    },
    {
      "inputs": [],
      "name": "admin",
      "outputs": [
        {
          "internalType": "address",
          "name": "",
          "type": "address"
        }
      ],
      "stateMutability": "view",
      "type": "function"
    },
    {
      "inputs": [],
      "name": "canAdminOverwrite",
      "outputs": [
        {
          "internalType": "bool",
          "name": "",
          "type": "bool"
        }
      ],
      "stateMutability": "view",
      "type": "function"
    },
    {
      "inputs": [
        {
          "internalType": "address",
          "name": "newAdmin",
          "type": "address"
        }
      ],
      "name": "changeAdmin",
      "outputs": [],
      "stateMutability": "nonpayable",
      "type": "function"
    },
    {
      "inputs": [
        {
          "internalType": "address",
          "name": "",
          "type": "address"
        }
      ],
      "name": "feedBaseCurrencies",
      "outputs": [
        {
          "internalType": "enum ChainlinkPriceOracleV2.FeedBaseCurrency",
          "name": "",
          "type": "uint8"
        }
      ],
      "stateMutability": "view",
      "type": "function"
    },
    {
      "inputs": [
        {
          "internalType": "contract ICToken",
          "name": "cToken",
          "type": "address"
        }
      ],
      "name": "getUnderlyingPrice",
      "outputs": [
        {
          "internalType": "uint256",
          "name": "",
          "type": "uint256"
        }
      ],
      "stateMutability": "view",
      "type": "function"
    },
    {
      "inputs": [
        {
          "internalType": "address",
          "name": "underlying",
          "type": "address"
        }
      ],
      "name": "price",
      "outputs": [
        {
          "internalType": "uint256",
          "name": "",
          "type": "uint256"
        }
      ],
      "stateMutability": "view",
      "type": "function"
    },
    {
      "inputs": [
        {
          "internalType": "address",
          "name": "",
          "type": "address"
        }
      ],
      "name": "priceFeeds",
      "outputs": [
        {
          "internalType": "contract AggregatorV3Interface",
          "name": "",
          "type": "address"
        }
      ],
      "stateMutability": "view",
      "type": "function"
    },
    {
      "inputs": [
        {
          "internalType": "address[]",
          "name": "underlyings",
          "type": "address[]"
        },
        {
          "internalType": "contract AggregatorV3Interface[]",
          "name": "feeds",
          "type": "address[]"
        },
        {
          "internalType": "enum ChainlinkPriceOracleV2.FeedBaseCurrency",
          "name": "baseCurrency",
          "type": "uint8"
        }
      ],
      "name": "setPriceFeeds",
      "outputs": [],
      "stateMutability": "nonpayable",
      "type": "function"
    }
  ],
  "transactionHash": "0x570b64c9f27269b537b087cbb62143f61a493950fe8c657c6bc44c2ed8cecdd7",
  "args": [
    "0xf39Fd6e51aad88F6F4ce6aB8827279cffFb92266",
    true
  ],
  "solcInputHash": "f7b1f2c0198a0fc30d3000710310a520",
  "bytecode": "0x608060405234801561001057600080fd5b50604051610f2c380380610f2c8339818101604052604081101561003357600080fd5b508051602090910151600280546001600160a01b0319166001600160a01b039093169290921760ff60a01b1916600160a01b91151591909102179055610eae8061007e6000396000f3fe608060405234801561001057600080fd5b506004361061009e5760003560e01c8063b0f0abe911610066578063b0f0abe91461028d578063cebae71d14610295578063cf0b0613146102dc578063f851a440146102e4578063fc57d4df146102ec5761009e565b8063656b0fd1146100a357806371f3245a146100bf5780638f283970146101ed5780639dcb511a14610213578063aea9107814610255575b600080fd5b6100ab610312565b604080519115158252519081900360200190f35b6101eb600480360360608110156100d557600080fd5b8101906020810181356401000000008111156100f057600080fd5b82018360208201111561010257600080fd5b8035906020019184602083028401116401000000008311171561012457600080fd5b919080806020026020016040519081016040528093929190818152602001838360200280828437600092019190915250929594936020810193503591505064010000000081111561017457600080fd5b82018360208201111561018657600080fd5b803590602001918460208302840111640100000000831117156101a857600080fd5b9190808060200260200160405190810160405280939291908181526020018383602002808284376000920191909152509295505050903560ff1691506103229050565b005b6101eb6004803603602081101561020357600080fd5b50356001600160a01b03166104d2565b6102396004803603602081101561022957600080fd5b50356001600160a01b031661058f565b604080516001600160a01b039092168252519081900360200190f35b61027b6004803603602081101561026b57600080fd5b50356001600160a01b03166105aa565b60408051918252519081900360200190f35b6102396105bd565b6102bb600480360360208110156102ab57600080fd5b50356001600160a01b03166105d5565b604051808260028111156102cb57fe5b815260200191505060405180910390f35b6102396105ea565b610239610602565b61027b6004803603602081101561030257600080fd5b50356001600160a01b0316610611565b600254600160a01b900460ff1681565b6002546001600160a01b0316331461037c576040805162461bcd60e51b815260206004820152601860248201527729b2b73232b91034b9903737ba103a34329030b236b4b71760411b604482015290519081900360640190fd5b6000835111801561038e575081518351145b6103c95760405162461bcd60e51b8152600401808060200182810382526038815260200180610d926038913960400191505060405180910390fd5b60005b83518110156104cc5760008482815181106103e357fe5b60200260200101519050600260149054906101000a900460ff16610458576001600160a01b0381811660009081526020819052604090205416156104585760405162461bcd60e51b8152600401808060200182810382526050815260200180610e296050913960600191505060405180910390fd5b83828151811061046457fe5b6020908102919091018101516001600160a01b038381166000908152808452604080822080546001600160a01b031916939094169290921790925560019283905290208054859260ff19909116908360028111156104be57fe5b0217905550506001016103cc565b50505050565b6002546001600160a01b0316331461052c576040805162461bcd60e51b815260206004820152601860248201527729b2b73232b91034b9903737ba103a34329030b236b4b71760411b604482015290519081900360640190fd5b600280546001600160a01b038381166001600160a01b0319831681179093556040805191909216808252602082019390935281517ff9ffabca9c8276e99321725bcb43fb076a6c66a54b7f21c4e8146d8519b417dc929181900390910190a15050565b6000602081905290815260409020546001600160a01b031681565b60006105b5826107a7565b90505b919050565b735f4ec3df9cbd43714fe2740f5e3616155c5b841981565b60016020526000908152604090205460ff1681565b73deb288f737066589598e9214e782fa5a8ed689e881565b6002546001600160a01b031681565b6000816001600160a01b031663ac784ddc6040518163ffffffff1660e01b815260040160206040518083038186803b15801561064c57600080fd5b505afa158015610660573d6000803e3d6000fd5b505050506040513d602081101561067657600080fd5b50511561068c5750670de0b6b3a76400006105b8565b6000826001600160a01b0316636f307dc36040518163ffffffff1660e01b815260040160206040518083038186803b1580156106c757600080fd5b505afa1580156106db573d6000803e3d6000fd5b505050506040513d60208110156106f157600080fd5b505190506000610700826107a7565b90506000826001600160a01b031663313ce5676040518163ffffffff1660e01b815260040160206040518083038186803b15801561073d57600080fd5b505afa158015610751573d6000803e3d6000fd5b505050506040513d602081101561076757600080fd5b505160ff169050601281111561078d57610788826011198301600a0a610cc8565b61079e565b61079e826012839003600a0a610d31565b95945050505050565b600073c02aaa39b223fe8d0a0e5c4f27ead9083c756cc26001600160a01b03831614156107dd5750670de0b6b3a76400006105b8565b6001600160a01b0380831660009081526020819052604090205416806108345760405162461bcd60e51b815260040180806020018281038252603e815260200180610dca603e913960400191505060405180910390fd5b6001600160a01b03831660009081526001602052604081205460ff169081600281111561085d57fe5b141561096f576000826001600160a01b031663feaf968c6040518163ffffffff1660e01b815260040160a06040518083038186803b15801561089e57600080fd5b505afa1580156108b2573d6000803e3d6000fd5b505050506040513d60a08110156108c857600080fd5b5060200151905060008112156108df576000610965565b610965836001600160a01b031663313ce5676040518163ffffffff1660e01b815260040160206040518083038186803b15801561091b57600080fd5b505afa15801561092f573d6000803e3d6000fd5b505050506040513d602081101561094557600080fd5b505160ff16600a0a61095f83670de0b6b3a7640000610d31565b90610cc8565b93505050506105b8565b600181600281111561097d57fe5b1415610b25576000735f4ec3df9cbd43714fe2740f5e3616155c5b84196001600160a01b031663feaf968c6040518163ffffffff1660e01b815260040160a06040518083038186803b1580156109d257600080fd5b505afa1580156109e6573d6000803e3d6000fd5b505050506040513d60a08110156109fc57600080fd5b5060200151905060008113610a1757600093505050506105b8565b6000836001600160a01b031663feaf968c6040518163ffffffff1660e01b815260040160a06040518083038186803b158015610a5257600080fd5b505afa158015610a66573d6000803e3d6000fd5b505050506040513d60a0811015610a7c57600080fd5b506020015190506000811215610a93576000610b1a565b610b1a8261095f866001600160a01b031663313ce5676040518163ffffffff1660e01b815260040160206040518083038186803b158015610ad357600080fd5b505afa158015610ae7573d6000803e3d6000fd5b505050506040513d6020811015610afd57600080fd5b505160ff16600a0a61095f856a52b7d2dcc80cd2e4000000610d31565b9450505050506105b8565b6002816002811115610b3357fe5b1415610cc157600073deb288f737066589598e9214e782fa5a8ed689e86001600160a01b031663feaf968c6040518163ffffffff1660e01b815260040160a06040518083038186803b158015610b8857600080fd5b505afa158015610b9c573d6000803e3d6000fd5b505050506040513d60a0811015610bb257600080fd5b5060200151905060008113610bcd57600093505050506105b8565b6000836001600160a01b031663feaf968c6040518163ffffffff1660e01b815260040160a06040518083038186803b158015610c0857600080fd5b505afa158015610c1c573d6000803e3d6000fd5b505050506040513d60a0811015610c3257600080fd5b506020015190506000811215610c49576000610b1a565b610b1a846001600160a01b031663313ce5676040518163ffffffff1660e01b815260040160206040518083038186803b158015610c8557600080fd5b505afa158015610c99573d6000803e3d6000fd5b505050506040513d6020811015610caf57600080fd5b505160ff16600a0a61095f8385610d31565b5050919050565b6000808211610d1e576040805162461bcd60e51b815260206004820152601a60248201527f536166654d6174683a206469766973696f6e206279207a65726f000000000000604482015290519081900360640190fd5b818381610d2757fe5b0490505b92915050565b600082610d4057506000610d2b565b82820282848281610d4d57fe5b0414610d8a5760405162461bcd60e51b8152600401808060200182810382526021815260200180610e086021913960400191505060405180910390fd5b939250505056fe4c656e67746873206f6620626f746820617272617973206d75737420626520657175616c20616e642067726561746572207468616e20302e4e6f20436861696e6c696e6b207072696365206665656420666f756e6420666f72207468697320756e6465726c79696e6720455243323020746f6b656e2e536166654d6174683a206d756c7469706c69636174696f6e206f766572666c6f7741646d696e2063616e6e6f74206f7665727772697465206578697374696e672061737369676e6d656e7473206f6620707269636520666565647320746f20756e6465726c79696e6720746f6b656e732ea2646970667358221220f047693ade73676a2416c697b4fef6c6f724d8e6546baa60a80ae57d70a2001c64736f6c63430007060033",
  "devdoc": {
    "author": "David Lucid <david@rari.capital> (https://github.com/davidlucid)",
    "details": "Implements `PriceOracle`.",
    "events": {
      "NewAdmin(address,address)": {
        "details": "Event emitted when `admin` is changed."
      }
    },
    "kind": "dev",
    "methods": {
      "changeAdmin(address)": {
        "details": "Changes the admin and emits an event."
      },
      "constructor": {
        "details": "Constructor to set admin and canAdminOverwrite."
      },
      "getUnderlyingPrice(address)": {
        "details": "Implements the `PriceOracle` interface for Fuse pools (and Compound v2).",
        "returns": {
          "_0": "Price in ETH of the token underlying `cToken`, scaled by `10 ** (36 - underlyingDecimals)`."
        }
      },
      "price(address)": {
        "details": "Returns the price in ETH of `underlying` (implements `BasePriceOracle`)."
      },
      "setPriceFeeds(address[],address[],uint8)": {
        "details": "Admin-only function to set price feeds.",
        "params": {
          "baseCurrency": "The currency in which `feeds` are based.",
          "feeds": "The Chainlink price feed contract addresses for each of `underlyings`.",
          "underlyings": "Underlying token addresses for which to set price feeds."
        }
      }
    },
    "stateVariables": {
      "admin": {
        "details": "The administrator of this `MasterPriceOracle`."
      },
      "canAdminOverwrite": {
        "details": "Controls if `admin` can overwrite existing assignments of oracles to underlying tokens."
      }
    },
    "title": "ChainlinkPriceOracleV2",
    "version": 1
  },
  "userdoc": {
    "kind": "user",
    "methods": {
      "BTC_ETH_PRICE_FEED()": {
        "notice": "Chainlink BTC/ETH price feed contracts."
      },
      "ETH_USD_PRICE_FEED()": {
        "notice": "Chainlink ETH/USD price feed contracts."
      },
      "feedBaseCurrencies(address)": {
        "notice": "Maps ERC20 token addresses to enums indicating the base currency of the feed."
      },
      "getUnderlyingPrice(address)": {
        "notice": "Returns the price in ETH of the token underlying `cToken`."
      },
      "priceFeeds(address)": {
        "notice": "Maps ERC20 token addresses to ETH-based Chainlink price feed contracts."
      }
    },
    "notice": "Returns prices from Chainlink.",
    "version": 1
  },
  "storageLayout": {
    "storage": [
      {
        "astId": 39766,
        "contract": "contracts/oracles/ChainlinkPriceOracleV2.sol:ChainlinkPriceOracleV2",
        "label": "priceFeeds",
        "offset": 0,
        "slot": "0",
        "type": "t_mapping(t_address,t_contract(AggregatorV3Interface)31219)"
      },
      {
        "astId": 39771,
        "contract": "contracts/oracles/ChainlinkPriceOracleV2.sol:ChainlinkPriceOracleV2",
        "label": "feedBaseCurrencies",
        "offset": 0,
        "slot": "1",
        "type": "t_mapping(t_address,t_enum(FeedBaseCurrency)39775)"
      },
      {
        "astId": 39790,
        "contract": "contracts/oracles/ChainlinkPriceOracleV2.sol:ChainlinkPriceOracleV2",
        "label": "admin",
        "offset": 0,
        "slot": "2",
        "type": "t_address"
      },
      {
        "astId": 39793,
        "contract": "contracts/oracles/ChainlinkPriceOracleV2.sol:ChainlinkPriceOracleV2",
        "label": "canAdminOverwrite",
        "offset": 20,
        "slot": "2",
        "type": "t_bool"
      }
    ],
    "types": {
      "t_address": {
        "encoding": "inplace",
        "label": "address",
        "numberOfBytes": "20"
      },
      "t_bool": {
        "encoding": "inplace",
        "label": "bool",
        "numberOfBytes": "1"
      },
      "t_contract(AggregatorV3Interface)31219": {
        "encoding": "inplace",
        "label": "contract AggregatorV3Interface",
        "numberOfBytes": "20"
      },
      "t_enum(FeedBaseCurrency)39775": {
        "encoding": "inplace",
        "label": "enum ChainlinkPriceOracleV2.FeedBaseCurrency",
        "numberOfBytes": "1"
      },
      "t_mapping(t_address,t_contract(AggregatorV3Interface)31219)": {
        "encoding": "mapping",
        "key": "t_address",
        "label": "mapping(address => contract AggregatorV3Interface)",
        "numberOfBytes": "32",
        "value": "t_contract(AggregatorV3Interface)31219"
      },
      "t_mapping(t_address,t_enum(FeedBaseCurrency)39775)": {
        "encoding": "mapping",
        "key": "t_address",
        "label": "mapping(address => enum ChainlinkPriceOracleV2.FeedBaseCurrency)",
        "numberOfBytes": "32",
        "value": "t_enum(FeedBaseCurrency)39775"
      }
    }
  }
}