{
  "address": "0xCF555c85998aF6f5741A54B2E6d193c7Fa27B162",
  "abi": [
    {
      "anonymous": false,
      "inputs": [
        {
          "indexed": false,
          "internalType": "string",
          "name": "action",
          "type": "string"
        },
        {
          "indexed": false,
          "internalType": "bool",
          "name": "pauseState",
          "type": "bool"
        }
      ],
      "name": "ActionPaused",
      "type": "event"
    },
    {
      "anonymous": false,
      "inputs": [
        {
          "indexed": false,
          "internalType": "contract CToken",
          "name": "cToken",
          "type": "address"
        },
        {
          "indexed": false,
          "internalType": "string",
          "name": "action",
          "type": "string"
        },
        {
          "indexed": false,
          "internalType": "bool",
          "name": "pauseState",
          "type": "bool"
        }
      ],
      "name": "ActionPaused",
      "type": "event"
    },
    {
      "anonymous": false,
      "inputs": [
        {
          "indexed": false,
          "internalType": "address",
          "name": "rewardsDistributor",
          "type": "address"
        }
      ],
      "name": "AddedRewardsDistributor",
      "type": "event"
    },
    {
      "anonymous": false,
      "inputs": [
        {
          "indexed": false,
          "internalType": "bool",
          "name": "enabled",
          "type": "bool"
        }
      ],
      "name": "AutoImplementationsToggled",
      "type": "event"
    },
    {
      "anonymous": false,
      "inputs": [
        {
          "indexed": false,
          "internalType": "uint256",
          "name": "error",
          "type": "uint256"
        },
        {
          "indexed": false,
          "internalType": "uint256",
          "name": "info",
          "type": "uint256"
        },
        {
          "indexed": false,
          "internalType": "uint256",
          "name": "detail",
          "type": "uint256"
        }
      ],
      "name": "Failure",
      "type": "event"
    },
    {
      "anonymous": false,
      "inputs": [
        {
          "indexed": false,
          "internalType": "contract CToken",
          "name": "cToken",
          "type": "address"
        },
        {
          "indexed": false,
          "internalType": "address",
          "name": "account",
          "type": "address"
        }
      ],
      "name": "MarketEntered",
      "type": "event"
    },
    {
      "anonymous": false,
      "inputs": [
        {
          "indexed": false,
          "internalType": "contract CToken",
          "name": "cToken",
          "type": "address"
        },
        {
          "indexed": false,
          "internalType": "address",
          "name": "account",
          "type": "address"
        }
      ],
      "name": "MarketExited",
      "type": "event"
    },
    {
      "anonymous": false,
      "inputs": [
        {
          "indexed": false,
          "internalType": "contract CToken",
          "name": "cToken",
          "type": "address"
        }
      ],
      "name": "MarketListed",
      "type": "event"
    },
    {
      "anonymous": false,
      "inputs": [
        {
          "indexed": false,
          "internalType": "contract CToken",
          "name": "cToken",
          "type": "address"
        }
      ],
      "name": "MarketUnlisted",
      "type": "event"
    },
    {
      "anonymous": false,
      "inputs": [
        {
          "indexed": true,
          "internalType": "contract CToken",
          "name": "cToken",
          "type": "address"
        },
        {
          "indexed": false,
          "internalType": "uint256",
          "name": "newBorrowCap",
          "type": "uint256"
        }
      ],
      "name": "NewBorrowCap",
      "type": "event"
    },
    {
      "anonymous": false,
      "inputs": [
        {
          "indexed": false,
          "internalType": "address",
          "name": "oldBorrowCapGuardian",
          "type": "address"
        },
        {
          "indexed": false,
          "internalType": "address",
          "name": "newBorrowCapGuardian",
          "type": "address"
        }
      ],
      "name": "NewBorrowCapGuardian",
      "type": "event"
    },
    {
      "anonymous": false,
      "inputs": [
        {
          "indexed": false,
          "internalType": "uint256",
          "name": "oldCloseFactorMantissa",
          "type": "uint256"
        },
        {
          "indexed": false,
          "internalType": "uint256",
          "name": "newCloseFactorMantissa",
          "type": "uint256"
        }
      ],
      "name": "NewCloseFactor",
      "type": "event"
    },
    {
      "anonymous": false,
      "inputs": [
        {
          "indexed": false,
          "internalType": "contract CToken",
          "name": "cToken",
          "type": "address"
        },
        {
          "indexed": false,
          "internalType": "uint256",
          "name": "oldCollateralFactorMantissa",
          "type": "uint256"
        },
        {
          "indexed": false,
          "internalType": "uint256",
          "name": "newCollateralFactorMantissa",
          "type": "uint256"
        }
      ],
      "name": "NewCollateralFactor",
      "type": "event"
    },
    {
      "anonymous": false,
      "inputs": [
        {
          "indexed": false,
          "internalType": "uint256",
          "name": "oldLiquidationIncentiveMantissa",
          "type": "uint256"
        },
        {
          "indexed": false,
          "internalType": "uint256",
          "name": "newLiquidationIncentiveMantissa",
          "type": "uint256"
        }
      ],
      "name": "NewLiquidationIncentive",
      "type": "event"
    },
    {
      "anonymous": false,
      "inputs": [
        {
          "indexed": false,
          "internalType": "address",
          "name": "oldPauseGuardian",
          "type": "address"
        },
        {
          "indexed": false,
          "internalType": "address",
          "name": "newPauseGuardian",
          "type": "address"
        }
      ],
      "name": "NewPauseGuardian",
      "type": "event"
    },
    {
      "anonymous": false,
      "inputs": [
        {
          "indexed": false,
          "internalType": "contract PriceOracle",
          "name": "oldPriceOracle",
          "type": "address"
        },
        {
          "indexed": false,
          "internalType": "contract PriceOracle",
          "name": "newPriceOracle",
          "type": "address"
        }
      ],
      "name": "NewPriceOracle",
      "type": "event"
    },
    {
      "anonymous": false,
      "inputs": [
        {
          "indexed": true,
          "internalType": "contract CToken",
          "name": "cToken",
          "type": "address"
        },
        {
          "indexed": false,
          "internalType": "uint256",
          "name": "newSupplyCap",
          "type": "uint256"
        }
      ],
      "name": "NewSupplyCap",
      "type": "event"
    },
    {
      "anonymous": false,
      "inputs": [
        {
          "indexed": false,
          "internalType": "bool",
          "name": "enforce",
          "type": "bool"
        }
      ],
      "name": "WhitelistEnforcementChanged",
      "type": "event"
    },
    {
      "inputs": [
        {
          "internalType": "address",
          "name": "distributor",
          "type": "address"
        }
      ],
      "name": "_addRewardsDistributor",
      "outputs": [
        {
          "internalType": "uint256",
          "name": "",
          "type": "uint256"
        }
      ],
      "stateMutability": "nonpayable",
      "type": "function"
    },
    {
      "inputs": [],
      "name": "_afterNonReentrant",
      "outputs": [],
      "stateMutability": "nonpayable",
      "type": "function"
    },
    {
      "inputs": [
        {
          "internalType": "contract Unitroller",
          "name": "unitroller",
          "type": "address"
        }
      ],
      "name": "_become",
      "outputs": [],
      "stateMutability": "nonpayable",
      "type": "function"
    },
    {
      "inputs": [],
      "name": "_becomeImplementation",
      "outputs": [],
      "stateMutability": "nonpayable",
      "type": "function"
    },
    {
      "inputs": [],
      "name": "_beforeNonReentrant",
      "outputs": [],
      "stateMutability": "nonpayable",
      "type": "function"
    },
    {
      "inputs": [],
      "name": "_borrowGuardianPaused",
      "outputs": [
        {
          "internalType": "bool",
          "name": "",
          "type": "bool"
        }
      ],
      "stateMutability": "view",
      "type": "function"
    },
    {
      "inputs": [
        {
          "internalType": "bool",
          "name": "isCEther",
          "type": "bool"
        },
        {
          "internalType": "bytes",
          "name": "constructorData",
          "type": "bytes"
        },
        {
          "internalType": "uint256",
          "name": "collateralFactorMantissa",
          "type": "uint256"
        }
      ],
      "name": "_deployMarket",
      "outputs": [
        {
          "internalType": "uint256",
          "name": "",
          "type": "uint256"
        }
      ],
      "stateMutability": "nonpayable",
      "type": "function"
    },
    {
      "inputs": [],
      "name": "_mintGuardianPaused",
      "outputs": [
        {
          "internalType": "bool",
          "name": "",
          "type": "bool"
        }
      ],
      "stateMutability": "view",
      "type": "function"
    },
    {
      "inputs": [
        {
          "internalType": "address",
          "name": "newBorrowCapGuardian",
          "type": "address"
        }
      ],
      "name": "_setBorrowCapGuardian",
      "outputs": [],
      "stateMutability": "nonpayable",
      "type": "function"
    },
    {
      "inputs": [
        {
          "internalType": "contract CToken",
          "name": "cToken",
          "type": "address"
        },
        {
          "internalType": "bool",
          "name": "state",
          "type": "bool"
        }
      ],
      "name": "_setBorrowPaused",
      "outputs": [
        {
          "internalType": "bool",
          "name": "",
          "type": "bool"
        }
      ],
      "stateMutability": "nonpayable",
      "type": "function"
    },
    {
      "inputs": [
        {
          "internalType": "uint256",
          "name": "newCloseFactorMantissa",
          "type": "uint256"
        }
      ],
      "name": "_setCloseFactor",
      "outputs": [
        {
          "internalType": "uint256",
          "name": "",
          "type": "uint256"
        }
      ],
      "stateMutability": "nonpayable",
      "type": "function"
    },
    {
      "inputs": [
        {
          "internalType": "contract CToken",
          "name": "cToken",
          "type": "address"
        },
        {
          "internalType": "uint256",
          "name": "newCollateralFactorMantissa",
          "type": "uint256"
        }
      ],
      "name": "_setCollateralFactor",
      "outputs": [
        {
          "internalType": "uint256",
          "name": "",
          "type": "uint256"
        }
      ],
      "stateMutability": "nonpayable",
      "type": "function"
    },
    {
      "inputs": [
        {
          "internalType": "uint256",
          "name": "newLiquidationIncentiveMantissa",
          "type": "uint256"
        }
      ],
      "name": "_setLiquidationIncentive",
      "outputs": [
        {
          "internalType": "uint256",
          "name": "",
          "type": "uint256"
        }
      ],
      "stateMutability": "nonpayable",
      "type": "function"
    },
    {
      "inputs": [
        {
          "internalType": "contract CToken[]",
          "name": "cTokens",
          "type": "address[]"
        },
        {
          "internalType": "uint256[]",
          "name": "newBorrowCaps",
          "type": "uint256[]"
        }
      ],
      "name": "_setMarketBorrowCaps",
      "outputs": [],
      "stateMutability": "nonpayable",
      "type": "function"
    },
    {
      "inputs": [
        {
          "internalType": "contract CToken[]",
          "name": "cTokens",
          "type": "address[]"
        },
        {
          "internalType": "uint256[]",
          "name": "newSupplyCaps",
          "type": "uint256[]"
        }
      ],
      "name": "_setMarketSupplyCaps",
      "outputs": [],
      "stateMutability": "nonpayable",
      "type": "function"
    },
    {
      "inputs": [
        {
          "internalType": "contract CToken",
          "name": "cToken",
          "type": "address"
        },
        {
          "internalType": "bool",
          "name": "state",
          "type": "bool"
        }
      ],
      "name": "_setMintPaused",
      "outputs": [
        {
          "internalType": "bool",
          "name": "",
          "type": "bool"
        }
      ],
      "stateMutability": "nonpayable",
      "type": "function"
    },
    {
      "inputs": [
        {
          "internalType": "address",
          "name": "newPauseGuardian",
          "type": "address"
        }
      ],
      "name": "_setPauseGuardian",
      "outputs": [
        {
          "internalType": "uint256",
          "name": "",
          "type": "uint256"
        }
      ],
      "stateMutability": "nonpayable",
      "type": "function"
    },
    {
      "inputs": [
        {
          "internalType": "contract PriceOracle",
          "name": "newOracle",
          "type": "address"
        }
      ],
      "name": "_setPriceOracle",
      "outputs": [
        {
          "internalType": "uint256",
          "name": "",
          "type": "uint256"
        }
      ],
      "stateMutability": "nonpayable",
      "type": "function"
    },
    {
      "inputs": [
        {
          "internalType": "bool",
          "name": "state",
          "type": "bool"
        }
      ],
      "name": "_setSeizePaused",
      "outputs": [
        {
          "internalType": "bool",
          "name": "",
          "type": "bool"
        }
      ],
      "stateMutability": "nonpayable",
      "type": "function"
    },
    {
      "inputs": [
        {
          "internalType": "bool",
          "name": "state",
          "type": "bool"
        }
      ],
      "name": "_setTransferPaused",
      "outputs": [
        {
          "internalType": "bool",
          "name": "",
          "type": "bool"
        }
      ],
      "stateMutability": "nonpayable",
      "type": "function"
    },
    {
      "inputs": [
        {
          "internalType": "bool",
          "name": "enforce",
          "type": "bool"
        }
      ],
      "name": "_setWhitelistEnforcement",
      "outputs": [
        {
          "internalType": "uint256",
          "name": "",
          "type": "uint256"
        }
      ],
      "stateMutability": "nonpayable",
      "type": "function"
    },
    {
      "inputs": [
        {
          "internalType": "address[]",
          "name": "suppliers",
          "type": "address[]"
        },
        {
          "internalType": "bool[]",
          "name": "statuses",
          "type": "bool[]"
        }
      ],
      "name": "_setWhitelistStatuses",
      "outputs": [
        {
          "internalType": "uint256",
          "name": "",
          "type": "uint256"
        }
      ],
      "stateMutability": "nonpayable",
      "type": "function"
    },
    {
      "inputs": [
        {
          "internalType": "bool",
          "name": "enabled",
          "type": "bool"
        }
      ],
      "name": "_toggleAutoImplementations",
      "outputs": [
        {
          "internalType": "uint256",
          "name": "",
          "type": "uint256"
        }
      ],
      "stateMutability": "nonpayable",
      "type": "function"
    },
    {
      "inputs": [
        {
          "internalType": "contract CToken",
          "name": "cToken",
          "type": "address"
        }
      ],
      "name": "_unsupportMarket",
      "outputs": [
        {
          "internalType": "uint256",
          "name": "",
          "type": "uint256"
        }
      ],
      "stateMutability": "nonpayable",
      "type": "function"
    },
    {
      "inputs": [
        {
          "internalType": "address",
          "name": "",
          "type": "address"
        },
        {
          "internalType": "uint256",
          "name": "",
          "type": "uint256"
        }
      ],
      "name": "accountAssets",
      "outputs": [
        {
          "internalType": "contract CToken",
          "name": "",
          "type": "address"
        }
      ],
      "stateMutability": "view",
      "type": "function"
    },
    {
      "inputs": [],
      "name": "admin",
      "outputs": [
        {
          "internalType": "address",
          "name": "",
          "type": "address"
        }
      ],
      "stateMutability": "view",
      "type": "function"
    },
    {
      "inputs": [],
      "name": "adminHasRights",
      "outputs": [
        {
          "internalType": "bool",
          "name": "",
          "type": "bool"
        }
      ],
      "stateMutability": "view",
      "type": "function"
    },
    {
      "inputs": [
        {
          "internalType": "uint256",
          "name": "",
          "type": "uint256"
        }
      ],
      "name": "allBorrowers",
      "outputs": [
        {
          "internalType": "address",
          "name": "",
          "type": "address"
        }
      ],
      "stateMutability": "view",
      "type": "function"
    },
    {
      "inputs": [
        {
          "internalType": "uint256",
          "name": "",
          "type": "uint256"
        }
      ],
      "name": "allMarkets",
      "outputs": [
        {
          "internalType": "contract CToken",
          "name": "",
          "type": "address"
        }
      ],
      "stateMutability": "view",
      "type": "function"
    },
    {
      "inputs": [],
      "name": "autoImplementation",
      "outputs": [
        {
          "internalType": "bool",
          "name": "",
          "type": "bool"
        }
      ],
      "stateMutability": "view",
      "type": "function"
    },
    {
      "inputs": [
        {
          "internalType": "address",
          "name": "cToken",
          "type": "address"
        },
        {
          "internalType": "address",
          "name": "borrower",
          "type": "address"
        },
        {
          "internalType": "uint256",
          "name": "borrowAmount",
          "type": "uint256"
        }
      ],
      "name": "borrowAllowed",
      "outputs": [
        {
          "internalType": "uint256",
          "name": "",
          "type": "uint256"
        }
      ],
      "stateMutability": "nonpayable",
      "type": "function"
    },
    {
      "inputs": [],
      "name": "borrowCapGuardian",
      "outputs": [
        {
          "internalType": "address",
          "name": "",
          "type": "address"
        }
      ],
      "stateMutability": "view",
      "type": "function"
    },
    {
      "inputs": [
        {
          "internalType": "address",
          "name": "",
          "type": "address"
        }
      ],
      "name": "borrowCaps",
      "outputs": [
        {
          "internalType": "uint256",
          "name": "",
          "type": "uint256"
        }
      ],
      "stateMutability": "view",
      "type": "function"
    },
    {
      "inputs": [
        {
          "internalType": "address",
          "name": "",
          "type": "address"
        }
      ],
      "name": "borrowGuardianPaused",
      "outputs": [
        {
          "internalType": "bool",
          "name": "",
          "type": "bool"
        }
      ],
      "stateMutability": "view",
      "type": "function"
    },
    {
      "inputs": [
        {
          "internalType": "address",
          "name": "cToken",
          "type": "address"
        },
        {
          "internalType": "address",
          "name": "borrower",
          "type": "address"
        },
        {
          "internalType": "uint256",
          "name": "borrowAmount",
          "type": "uint256"
        }
      ],
      "name": "borrowVerify",
      "outputs": [],
      "stateMutability": "nonpayable",
      "type": "function"
    },
    {
      "inputs": [
        {
          "internalType": "address",
          "name": "cToken",
          "type": "address"
        },
        {
          "internalType": "uint256",
          "name": "accountBorrowsNew",
          "type": "uint256"
        }
      ],
      "name": "borrowWithinLimits",
      "outputs": [
        {
          "internalType": "uint256",
          "name": "",
          "type": "uint256"
        }
      ],
      "stateMutability": "nonpayable",
      "type": "function"
    },
    {
      "inputs": [
        {
          "internalType": "address",
          "name": "",
          "type": "address"
        }
      ],
      "name": "cTokensByUnderlying",
      "outputs": [
        {
          "internalType": "contract CToken",
          "name": "",
          "type": "address"
        }
      ],
      "stateMutability": "view",
      "type": "function"
    },
    {
      "inputs": [
        {
          "internalType": "address",
          "name": "account",
          "type": "address"
        },
        {
          "internalType": "contract CToken",
          "name": "cToken",
          "type": "address"
        }
      ],
      "name": "checkMembership",
      "outputs": [
        {
          "internalType": "bool",
          "name": "",
          "type": "bool"
        }
      ],
      "stateMutability": "view",
      "type": "function"
    },
    {
      "inputs": [],
      "name": "closeFactorMantissa",
      "outputs": [
        {
          "internalType": "uint256",
          "name": "",
          "type": "uint256"
        }
      ],
      "stateMutability": "view",
      "type": "function"
    },
    {
      "inputs": [],
      "name": "comptrollerImplementation",
      "outputs": [
        {
          "internalType": "address",
          "name": "",
          "type": "address"
        }
      ],
      "stateMutability": "view",
      "type": "function"
    },
    {
      "inputs": [],
      "name": "enforceWhitelist",
      "outputs": [
        {
          "internalType": "bool",
          "name": "",
          "type": "bool"
        }
      ],
      "stateMutability": "view",
      "type": "function"
    },
    {
      "inputs": [
        {
          "internalType": "address[]",
          "name": "cTokens",
          "type": "address[]"
        }
      ],
      "name": "enterMarkets",
      "outputs": [
        {
          "internalType": "uint256[]",
          "name": "",
          "type": "uint256[]"
        }
      ],
      "stateMutability": "nonpayable",
      "type": "function"
    },
    {
      "inputs": [
        {
          "internalType": "address",
          "name": "cTokenAddress",
          "type": "address"
        }
      ],
      "name": "exitMarket",
      "outputs": [
        {
          "internalType": "uint256",
          "name": "",
          "type": "uint256"
        }
      ],
      "stateMutability": "nonpayable",
      "type": "function"
    },
    {
      "inputs": [],
      "name": "fuseAdminHasRights",
      "outputs": [
        {
          "internalType": "bool",
          "name": "",
          "type": "bool"
        }
      ],
      "stateMutability": "view",
      "type": "function"
    },
    {
      "inputs": [
        {
          "internalType": "address",
          "name": "account",
          "type": "address"
        }
      ],
      "name": "getAccountLiquidity",
      "outputs": [
        {
          "internalType": "uint256",
          "name": "",
          "type": "uint256"
        },
        {
          "internalType": "uint256",
          "name": "",
          "type": "uint256"
        },
        {
          "internalType": "uint256",
          "name": "",
          "type": "uint256"
        }
      ],
      "stateMutability": "view",
      "type": "function"
    },
    {
      "inputs": [],
      "name": "getAllBorrowers",
      "outputs": [
        {
          "internalType": "address[]",
          "name": "",
          "type": "address[]"
        }
      ],
      "stateMutability": "view",
      "type": "function"
    },
    {
      "inputs": [],
      "name": "getAllMarkets",
      "outputs": [
        {
          "internalType": "contract CToken[]",
          "name": "",
          "type": "address[]"
        }
      ],
      "stateMutability": "view",
      "type": "function"
    },
    {
      "inputs": [
        {
          "internalType": "address",
          "name": "account",
          "type": "address"
        }
      ],
      "name": "getAssetsIn",
      "outputs": [
        {
          "internalType": "contract CToken[]",
          "name": "",
          "type": "address[]"
        }
      ],
      "stateMutability": "view",
      "type": "function"
    },
    {
      "inputs": [
        {
          "internalType": "address",
          "name": "account",
          "type": "address"
        },
        {
          "internalType": "address",
          "name": "cTokenModify",
          "type": "address"
        },
        {
          "internalType": "uint256",
          "name": "redeemTokens",
          "type": "uint256"
        },
        {
          "internalType": "uint256",
          "name": "borrowAmount",
          "type": "uint256"
        }
      ],
      "name": "getHypotheticalAccountLiquidity",
      "outputs": [
        {
          "internalType": "uint256",
          "name": "",
          "type": "uint256"
        },
        {
          "internalType": "uint256",
          "name": "",
          "type": "uint256"
        },
        {
          "internalType": "uint256",
          "name": "",
          "type": "uint256"
        }
      ],
      "stateMutability": "view",
      "type": "function"
    },
    {
      "inputs": [],
      "name": "getRewardsDistributors",
      "outputs": [
        {
          "internalType": "address[]",
          "name": "",
          "type": "address[]"
        }
      ],
      "stateMutability": "view",
      "type": "function"
    },
    {
      "inputs": [],
      "name": "getWhitelist",
      "outputs": [
        {
          "internalType": "address[]",
          "name": "",
          "type": "address[]"
        }
      ],
      "stateMutability": "view",
      "type": "function"
    },
    {
      "inputs": [],
      "name": "isComptroller",
      "outputs": [
        {
          "internalType": "bool",
          "name": "",
          "type": "bool"
        }
      ],
      "stateMutability": "view",
      "type": "function"
    },
    {
      "inputs": [
        {
          "internalType": "contract CToken",
          "name": "cToken",
          "type": "address"
        }
      ],
      "name": "isDeprecated",
      "outputs": [
        {
          "internalType": "bool",
          "name": "",
          "type": "bool"
        }
      ],
      "stateMutability": "view",
      "type": "function"
    },
    {
      "inputs": [
        {
          "internalType": "address",
          "name": "cTokenBorrowed",
          "type": "address"
        },
        {
          "internalType": "address",
          "name": "cTokenCollateral",
          "type": "address"
        },
        {
          "internalType": "address",
          "name": "liquidator",
          "type": "address"
        },
        {
          "internalType": "address",
          "name": "borrower",
          "type": "address"
        },
        {
          "internalType": "uint256",
          "name": "repayAmount",
          "type": "uint256"
        }
      ],
      "name": "liquidateBorrowAllowed",
      "outputs": [
        {
          "internalType": "uint256",
          "name": "",
          "type": "uint256"
        }
      ],
      "stateMutability": "nonpayable",
      "type": "function"
    },
    {
      "inputs": [
        {
          "internalType": "address",
          "name": "cTokenBorrowed",
          "type": "address"
        },
        {
          "internalType": "address",
          "name": "cTokenCollateral",
          "type": "address"
        },
        {
          "internalType": "address",
          "name": "liquidator",
          "type": "address"
        },
        {
          "internalType": "address",
          "name": "borrower",
          "type": "address"
        },
        {
          "internalType": "uint256",
          "name": "actualRepayAmount",
          "type": "uint256"
        },
        {
          "internalType": "uint256",
          "name": "seizeTokens",
          "type": "uint256"
        }
      ],
      "name": "liquidateBorrowVerify",
      "outputs": [],
      "stateMutability": "nonpayable",
      "type": "function"
    },
    {
      "inputs": [
        {
          "internalType": "address",
          "name": "cTokenBorrowed",
          "type": "address"
        },
        {
          "internalType": "address",
          "name": "cTokenCollateral",
          "type": "address"
        },
        {
          "internalType": "uint256",
          "name": "actualRepayAmount",
          "type": "uint256"
        }
      ],
      "name": "liquidateCalculateSeizeTokens",
      "outputs": [
        {
          "internalType": "uint256",
          "name": "",
          "type": "uint256"
        },
        {
          "internalType": "uint256",
          "name": "",
          "type": "uint256"
        }
      ],
      "stateMutability": "view",
      "type": "function"
    },
    {
      "inputs": [],
      "name": "liquidationIncentiveMantissa",
      "outputs": [
        {
          "internalType": "uint256",
          "name": "",
          "type": "uint256"
        }
      ],
      "stateMutability": "view",
      "type": "function"
    },
    {
      "inputs": [
        {
          "internalType": "address",
          "name": "",
          "type": "address"
        }
      ],
      "name": "markets",
      "outputs": [
        {
          "internalType": "bool",
          "name": "isListed",
          "type": "bool"
        },
        {
          "internalType": "uint256",
          "name": "collateralFactorMantissa",
          "type": "uint256"
        }
      ],
      "stateMutability": "view",
      "type": "function"
    },
    {
      "inputs": [
        {
          "internalType": "address",
          "name": "cToken",
          "type": "address"
        },
        {
          "internalType": "address",
          "name": "minter",
          "type": "address"
        },
        {
          "internalType": "uint256",
          "name": "mintAmount",
          "type": "uint256"
        }
      ],
      "name": "mintAllowed",
      "outputs": [
        {
          "internalType": "uint256",
          "name": "",
          "type": "uint256"
        }
      ],
      "stateMutability": "nonpayable",
      "type": "function"
    },
    {
      "inputs": [
        {
          "internalType": "address",
          "name": "",
          "type": "address"
        }
      ],
      "name": "mintGuardianPaused",
      "outputs": [
        {
          "internalType": "bool",
          "name": "",
          "type": "bool"
        }
      ],
      "stateMutability": "view",
      "type": "function"
    },
    {
      "inputs": [
        {
          "internalType": "address",
          "name": "cToken",
          "type": "address"
        },
        {
          "internalType": "address",
          "name": "minter",
          "type": "address"
        },
        {
          "internalType": "uint256",
          "name": "actualMintAmount",
          "type": "uint256"
        },
        {
          "internalType": "uint256",
          "name": "mintTokens",
          "type": "uint256"
        }
      ],
      "name": "mintVerify",
      "outputs": [],
      "stateMutability": "nonpayable",
      "type": "function"
    },
    {
      "inputs": [
        {
          "internalType": "address",
          "name": "cToken",
          "type": "address"
        },
        {
          "internalType": "uint256",
          "name": "exchangeRateMantissa",
          "type": "uint256"
        },
        {
          "internalType": "uint256",
          "name": "accountTokens",
          "type": "uint256"
        },
        {
          "internalType": "uint256",
          "name": "mintAmount",
          "type": "uint256"
        }
      ],
      "name": "mintWithinLimits",
      "outputs": [
        {
          "internalType": "uint256",
          "name": "",
          "type": "uint256"
        }
      ],
      "stateMutability": "nonpayable",
      "type": "function"
    },
    {
      "inputs": [],
      "name": "oracle",
      "outputs": [
        {
          "internalType": "contract PriceOracle",
          "name": "",
          "type": "address"
        }
      ],
      "stateMutability": "view",
      "type": "function"
    },
    {
      "inputs": [],
      "name": "pauseGuardian",
      "outputs": [
        {
          "internalType": "address",
          "name": "",
          "type": "address"
        }
      ],
      "stateMutability": "view",
      "type": "function"
    },
    {
      "inputs": [],
      "name": "pendingAdmin",
      "outputs": [
        {
          "internalType": "address",
          "name": "",
          "type": "address"
        }
      ],
      "stateMutability": "view",
      "type": "function"
    },
    {
      "inputs": [],
      "name": "pendingComptrollerImplementation",
      "outputs": [
        {
          "internalType": "address",
          "name": "",
          "type": "address"
        }
      ],
      "stateMutability": "view",
      "type": "function"
    },
    {
      "inputs": [
        {
          "internalType": "address",
          "name": "cToken",
          "type": "address"
        },
        {
          "internalType": "address",
          "name": "redeemer",
          "type": "address"
        },
        {
          "internalType": "uint256",
          "name": "redeemTokens",
          "type": "uint256"
        }
      ],
      "name": "redeemAllowed",
      "outputs": [
        {
          "internalType": "uint256",
          "name": "",
          "type": "uint256"
        }
      ],
      "stateMutability": "nonpayable",
      "type": "function"
    },
    {
      "inputs": [
        {
          "internalType": "address",
          "name": "cToken",
          "type": "address"
        },
        {
          "internalType": "address",
          "name": "redeemer",
          "type": "address"
        },
        {
          "internalType": "uint256",
          "name": "redeemAmount",
          "type": "uint256"
        },
        {
          "internalType": "uint256",
          "name": "redeemTokens",
          "type": "uint256"
        }
      ],
      "name": "redeemVerify",
      "outputs": [],
      "stateMutability": "nonpayable",
      "type": "function"
    },
    {
      "inputs": [
        {
          "internalType": "address",
          "name": "cToken",
          "type": "address"
        },
        {
          "internalType": "address",
          "name": "payer",
          "type": "address"
        },
        {
          "internalType": "address",
          "name": "borrower",
          "type": "address"
        },
        {
          "internalType": "uint256",
          "name": "repayAmount",
          "type": "uint256"
        }
      ],
      "name": "repayBorrowAllowed",
      "outputs": [
        {
          "internalType": "uint256",
          "name": "",
          "type": "uint256"
        }
      ],
      "stateMutability": "nonpayable",
      "type": "function"
    },
    {
      "inputs": [
        {
          "internalType": "address",
          "name": "cToken",
          "type": "address"
        },
        {
          "internalType": "address",
          "name": "payer",
          "type": "address"
        },
        {
          "internalType": "address",
          "name": "borrower",
          "type": "address"
        },
        {
          "internalType": "uint256",
          "name": "actualRepayAmount",
          "type": "uint256"
        },
        {
          "internalType": "uint256",
          "name": "borrowerIndex",
          "type": "uint256"
        }
      ],
      "name": "repayBorrowVerify",
      "outputs": [],
      "stateMutability": "nonpayable",
      "type": "function"
    },
    {
      "inputs": [
        {
          "internalType": "uint256",
          "name": "",
          "type": "uint256"
        }
      ],
      "name": "rewardsDistributors",
      "outputs": [
        {
          "internalType": "address",
          "name": "",
          "type": "address"
        }
      ],
      "stateMutability": "view",
      "type": "function"
    },
    {
      "inputs": [
        {
          "internalType": "address",
          "name": "cTokenCollateral",
          "type": "address"
        },
        {
          "internalType": "address",
          "name": "cTokenBorrowed",
          "type": "address"
        },
        {
          "internalType": "address",
          "name": "liquidator",
          "type": "address"
        },
        {
          "internalType": "address",
          "name": "borrower",
          "type": "address"
        },
        {
          "internalType": "uint256",
          "name": "seizeTokens",
          "type": "uint256"
        }
      ],
      "name": "seizeAllowed",
      "outputs": [
        {
          "internalType": "uint256",
          "name": "",
          "type": "uint256"
        }
      ],
      "stateMutability": "nonpayable",
      "type": "function"
    },
    {
      "inputs": [],
      "name": "seizeGuardianPaused",
      "outputs": [
        {
          "internalType": "bool",
          "name": "",
          "type": "bool"
        }
      ],
      "stateMutability": "view",
      "type": "function"
    },
    {
      "inputs": [
        {
          "internalType": "address",
          "name": "cTokenCollateral",
          "type": "address"
        },
        {
          "internalType": "address",
          "name": "cTokenBorrowed",
          "type": "address"
        },
        {
          "internalType": "address",
          "name": "liquidator",
          "type": "address"
        },
        {
          "internalType": "address",
          "name": "borrower",
          "type": "address"
        },
        {
          "internalType": "uint256",
          "name": "seizeTokens",
          "type": "uint256"
        }
      ],
      "name": "seizeVerify",
      "outputs": [],
      "stateMutability": "nonpayable",
      "type": "function"
    },
    {
      "inputs": [
        {
          "internalType": "address",
          "name": "",
          "type": "address"
        }
      ],
      "name": "suppliers",
      "outputs": [
        {
          "internalType": "bool",
          "name": "",
          "type": "bool"
        }
      ],
      "stateMutability": "view",
      "type": "function"
    },
    {
      "inputs": [
        {
          "internalType": "address",
          "name": "",
          "type": "address"
        }
      ],
      "name": "supplyCaps",
      "outputs": [
        {
          "internalType": "uint256",
          "name": "",
          "type": "uint256"
        }
      ],
      "stateMutability": "view",
      "type": "function"
    },
    {
      "inputs": [
        {
          "internalType": "address",
          "name": "cToken",
          "type": "address"
        },
        {
          "internalType": "address",
          "name": "src",
          "type": "address"
        },
        {
          "internalType": "address",
          "name": "dst",
          "type": "address"
        },
        {
          "internalType": "uint256",
          "name": "transferTokens",
          "type": "uint256"
        }
      ],
      "name": "transferAllowed",
      "outputs": [
        {
          "internalType": "uint256",
          "name": "",
          "type": "uint256"
        }
      ],
      "stateMutability": "nonpayable",
      "type": "function"
    },
    {
      "inputs": [],
      "name": "transferGuardianPaused",
      "outputs": [
        {
          "internalType": "bool",
          "name": "",
          "type": "bool"
        }
      ],
      "stateMutability": "view",
      "type": "function"
    },
    {
      "inputs": [
        {
          "internalType": "address",
          "name": "cToken",
          "type": "address"
        },
        {
          "internalType": "address",
          "name": "src",
          "type": "address"
        },
        {
          "internalType": "address",
          "name": "dst",
          "type": "address"
        },
        {
          "internalType": "uint256",
          "name": "transferTokens",
          "type": "uint256"
        }
      ],
      "name": "transferVerify",
      "outputs": [],
      "stateMutability": "nonpayable",
      "type": "function"
    },
    {
      "inputs": [
        {
          "internalType": "address",
          "name": "",
          "type": "address"
        }
      ],
      "name": "whitelist",
      "outputs": [
        {
          "internalType": "bool",
          "name": "",
          "type": "bool"
        }
      ],
      "stateMutability": "view",
      "type": "function"
    },
    {
      "inputs": [
        {
          "internalType": "uint256",
          "name": "",
          "type": "uint256"
        }
      ],
      "name": "whitelistArray",
      "outputs": [
        {
          "internalType": "address",
          "name": "",
          "type": "address"
        }
      ],
      "stateMutability": "view",
      "type": "function"
    }
  ],
  "transactionHash": "0x575b39c0c3a15dde26b4974daaab01a977794203aa201753db7e185e7a035623",
  "args": [],
  "solcInputHash": "f7b1f2c0198a0fc30d3000710310a520",
  "bytecode": "0x60806040526001805460ff60a81b1960ff60a01b19909116600160a01b1716600160a81b17905534801561003257600080fd5b50615dfe80620000436000396000f3fe608060405234801561001057600080fd5b506004361061048a5760003560e01c80636d154ea511610262578063bb82aa5e11610151578063d5333166116100ce578063e4028eee11610092578063e4028eee146111e1578063e6653f3d1461120d578063e875544614611215578063eabe7d911461121d578063ede4edd014611253578063f851a440146112795761048a565b8063d533316614611150578063da3d454c1461116f578063dce15449146111a5578063dcfbc0c7146111d1578063dd5cd22c146111d95761048a565b8063c8c9c97511610115578063c8c9c9751461101f578063c90c20b1146110dd578063d01f63f5146110e5578063d02f7351146110ed578063d251fefc146111335761048a565b8063bb82aa5e14610ece578063bdcdc25814610ed6578063c299823814610f12578063c488847b14610fb3578063c6c5b0dd146110025761048a565b8063929fe9a1116101df578063abfceffc116101a3578063abfceffc14610e6a578063ac0b0bb714610e90578063b0772d0b14610e98578063b095721014610ea0578063b9b5b15314610ea85761048a565b8063929fe9a114610d5a57806394543c1514610d88578063952adf5a14610dae5780639b19251a14610dcd578063aba35b9814610df35761048a565b80637dc0d1d0116102265780637dc0d1d014610cc4578063819605a814610ccc57806387f7630314610cf25780638e8f294b14610cfa5780638ebf636414610d3b5761048a565b80636d154ea514610be95780636d35bf9114610c0f578063731f0c2b14610c555780637515bafa14610c7b578063779b229414610c985761048a565b80633c94786f1161037e57806352d84d1e116102fb5780635f5af1aa116102bf5780635f5af1aa14610a7b5780635fc7e71e14610aa1578063607ef6c114610ae7578063632e514214610ba55780636a56947e14610bad5761048a565b806352d84d1e146109d457806355ee1fe1146109f15780635c77860514610a175780635d72de6214610a4d5780635ec88c7914610a555761048a565b80634e79238f116103425780634e79238f1461082d5780634ef4c3e1146108875780634fd42e17146108bd57806351a485e4146108da57806351dff989146109985761048a565b80633c94786f1461076f57806341c728b91461077757806347ef3b3b146107b35780634a584432146107ff5780634ada90af146108255761048a565b806324a3d6221161040c57806331ff47fa116103d057806331ff47fa1461069557806332abcdbe146106bb5780633605b51b14610713578063391957d71461071b5780633bcf7ec1146107415761048a565b806324a3d6221461064157806326782247146106495780632d70db78146106515780632f1069ba14610670578063317b0b77146106785761048a565b80631d504dc6116104535780631d504dc61461053f5780631ededc911461056757806321af4569146105a95780632259192a146105cd57806324008a62146106055761048a565b80627e3dd21461048f57806302c3bcbb146104ab5780630a755ec2146104e357806316dc15fe146104eb57806318c882a514610511575b600080fd5b610497611281565b604080519115158252519081900360200190f35b6104d1600480360360208110156104c157600080fd5b50356001600160a01b0316611286565b60408051918252519081900360200190f35b610497611298565b6104976004803603602081101561050157600080fd5b50356001600160a01b03166112a8565b6104976004803603604081101561052757600080fd5b506001600160a01b03813516906020013515156112bd565b6105656004803603602081101561055557600080fd5b50356001600160a01b0316611450565b005b610565600480360360a081101561057d57600080fd5b506001600160a01b038135811691602081013582169160408201351690606081013590608001356116ff565b6105b1611706565b604080516001600160a01b039092168252519081900360200190f35b6104d1600480360360808110156105e357600080fd5b506001600160a01b03813516906020810135906040810135906060013561171a565b6104d16004803603608081101561061b57600080fd5b506001600160a01b03813581169160208101358216916040820135169060600135611729565b6105b1611764565b6105b1611773565b6104976004803603602081101561066757600080fd5b50351515611782565b6104976118af565b6104d16004803603602081101561068e57600080fd5b50356118bf565b6105b1600480360360208110156106ab57600080fd5b50356001600160a01b03166119b0565b6106c36119cb565b60408051602080825283518183015283519192839290830191858101910280838360005b838110156106ff5781810151838201526020016106e7565b505050509050019250505060405180910390f35b6106c3611a2d565b6105656004803603602081101561073157600080fd5b50356001600160a01b0316611a8d565b6104976004803603604081101561075757600080fd5b506001600160a01b0381351690602001351515611b43565b610497611cd1565b6105656004803603608081101561078d57600080fd5b506001600160a01b03813581169160208101359091169060408101359060600135611ce1565b610565600480360360c08110156107c957600080fd5b506001600160a01b0381358116916020810135821691604082013581169160608101359091169060808101359060a00135611d08565b6104d16004803603602081101561081557600080fd5b50356001600160a01b0316611d0d565b6104d1611d1f565b6108696004803603608081101561084357600080fd5b506001600160a01b03813581169160208101359091169060408101359060600135611d25565b60408051938452602084019290925282820152519081900360600190f35b6104d16004803603606081101561089d57600080fd5b506001600160a01b03813581169160208101359091169060400135611d5f565b6104d1600480360360208110156108d357600080fd5b5035612163565b610565600480360360408110156108f057600080fd5b810190602081018135600160201b81111561090a57600080fd5b82018360208201111561091c57600080fd5b803590602001918460208302840111600160201b8311171561093d57600080fd5b919390929091602081019035600160201b81111561095a57600080fd5b82018360208201111561096c57600080fd5b803590602001918460208302840111600160201b8311171561098d57600080fd5b509092509050612235565b610565600480360360808110156109ae57600080fd5b506001600160a01b038135811691602081013590911690604081013590606001356123ca565b6105b1600480360360208110156109ea57600080fd5b5035612424565b6104d160048036036020811015610a0757600080fd5b50356001600160a01b031661244e565b61056560048036036060811015610a2d57600080fd5b506001600160a01b038135811691602081013590911690604001356124d0565b6105656124d5565b61086960048036036020811015610a6b57600080fd5b50356001600160a01b0316612548565b6104d160048036036020811015610a9157600080fd5b50356001600160a01b031661257d565b6104d1600480360360a0811015610ab757600080fd5b506001600160a01b03813581169160208101358216916040820135811691606081013590911690608001356125fc565b61056560048036036040811015610afd57600080fd5b810190602081018135600160201b811115610b1757600080fd5b820183602082011115610b2957600080fd5b803590602001918460208302840111600160201b83111715610b4a57600080fd5b919390929091602081019035600160201b811115610b6757600080fd5b820183602082011115610b7957600080fd5b803590602001918460208302840111600160201b83111715610b9a57600080fd5b5090925090506127aa565b610565612936565b61056560048036036080811015610bc357600080fd5b506001600160a01b03813581169160208101358216916040820135169060600135612993565b61049760048036036020811015610bff57600080fd5b50356001600160a01b0316612998565b610565600480360360a0811015610c2557600080fd5b506001600160a01b03813581169160208101358216916040820135811691606081013590911690608001356116ff565b61049760048036036020811015610c6b57600080fd5b50356001600160a01b03166129ad565b6105b160048036036020811015610c9157600080fd5b50356129c2565b6104d160048036036040811015610cae57600080fd5b506001600160a01b0381351690602001356129d2565b6105b1612b56565b6104d160048036036020811015610ce257600080fd5b50356001600160a01b0316612b65565b610497612ee5565b610d2060048036036020811015610d1057600080fd5b50356001600160a01b0316612ef5565b60408051921515835260208301919091528051918290030190f35b61049760048036036020811015610d5157600080fd5b50351515612f14565b61049760048036036040811015610d7057600080fd5b506001600160a01b0381358116916020013516613040565b61049760048036036020811015610d9e57600080fd5b50356001600160a01b0316613073565b6104d160048036036020811015610dc457600080fd5b503515156131e5565b61049760048036036020811015610de357600080fd5b50356001600160a01b0316613262565b6104d160048036036060811015610e0957600080fd5b813515159190810190604081016020820135600160201b811115610e2c57600080fd5b820183602082011115610e3e57600080fd5b803590602001918460018302840111600160201b83111715610e5f57600080fd5b919350915035613277565b6106c360048036036020811015610e8057600080fd5b50356001600160a01b0316613456565b6104976134cc565b6106c36134dc565b61049761353c565b6104d160048036036020811015610ebe57600080fd5b50356001600160a01b0316613545565b6105b1613716565b6104d160048036036080811015610eec57600080fd5b506001600160a01b03813581169160208101358216916040820135169060600135613725565b6106c360048036036020811015610f2857600080fd5b810190602081018135600160201b811115610f4257600080fd5b820183602082011115610f5457600080fd5b803590602001918460208302840111600160201b83111715610f7557600080fd5b9190808060200260200160405190810160405280939291908181526020018383602002808284376000920191909152509295506137af945050505050565b610fe960048036036060811015610fc957600080fd5b506001600160a01b0381358116916020810135909116906040013561385a565b6040805192835260208301919091528051918290030190f35b6105b16004803603602081101561101857600080fd5b5035613a92565b6104d16004803603604081101561103557600080fd5b810190602081018135600160201b81111561104f57600080fd5b82018360208201111561106157600080fd5b803590602001918460208302840111600160201b8311171561108257600080fd5b919390929091602081019035600160201b81111561109f57600080fd5b8201836020820111156110b157600080fd5b803590602001918460208302840111600160201b831117156110d257600080fd5b509092509050613aa2565b610565613ced565b6106c3613d9e565b6104d1600480360360a081101561110357600080fd5b506001600160a01b0381358116916020810135821691604082013581169160608101359091169060800135613dfe565b6105b16004803603602081101561114957600080fd5b5035613f94565b6104d16004803603602081101561116657600080fd5b50351515613fa4565b6104d16004803603606081101561118557600080fd5b506001600160a01b03813581169160208101359091169060400135614021565b6105b1600480360360408110156111bb57600080fd5b506001600160a01b0381351690602001356143e0565b6105b1614418565b610497614427565b6104d1600480360360408110156111f757600080fd5b506001600160a01b038135169060200135614430565b6104976145d8565b6104d16145e8565b6104d16004803603606081101561123357600080fd5b506001600160a01b038135811691602081013590911690604001356145ee565b6104d16004803603602081101561126957600080fd5b50356001600160a01b031661460b565b6105b1614a4a565b600181565b60196020526000908152604090205481565b600154600160a81b900460ff1681565b600e6020526000908152604090205460ff1681565b6001600160a01b03821660009081526009602052604081205460ff166113145760405162461bcd60e51b8152600401808060200182810382526028815260200180615b986028913960400191505060405180910390fd5b6014546001600160a01b03163314806113305750611330614a59565b61136b5760405162461bcd60e51b8152600401808060200182810382526027815260200180615c236027913960400191505060405180910390fd5b611373614a59565b8061138057506001821515145b6113ca576040805162461bcd60e51b81526020600482015260166024820152756f6e6c792061646d696e2063616e20756e706175736560501b604482015290519081900360640190fd5b6001600160a01b038316600081815260166020908152604091829020805486151560ff199091168117909155825193845283830152606090830181905260069083015265426f72726f7760d01b6080830152517f71aec636243f9709bb0007ae15e9afb8150ab01716d75fd7573be5cc096e03b09181900360a00190a150805b92915050565b3373bcb0d746ee1d4c0ff67fc720006214568ef669d91480156114d45750806001600160a01b0316632f1069ba6040518163ffffffff1660e01b815260040160206040518083038186803b1580156114a757600080fd5b505afa1580156114bb573d6000803e3d6000fd5b505050506040513d60208110156114d157600080fd5b50515b806115b75750806001600160a01b031663f851a4406040518163ffffffff1660e01b815260040160206040518083038186803b15801561151357600080fd5b505afa158015611527573d6000803e3d6000fd5b505050506040513d602081101561153d57600080fd5b50516001600160a01b0316331480156115b75750806001600160a01b0316630a755ec26040518163ffffffff1660e01b815260040160206040518083038186803b15801561158a57600080fd5b505afa15801561159e573d6000803e3d6000fd5b505050506040513d60208110156115b457600080fd5b50515b6115f25760405162461bcd60e51b8152600401808060200182810382526027815260200180615da26027913960400191505060405180910390fd5b6000816001600160a01b031663c1e803346040518163ffffffff1660e01b8152600401602060405180830381600087803b15801561162f57600080fd5b505af1158015611643573d6000803e3d6000fd5b505050506040513d602081101561165957600080fd5b5051905080156116a8576040805162461bcd60e51b815260206004820152601560248201527418da185b99d9481b9bdd08185d5d1a1bdc9a5e9959605a1b604482015290519081900360640190fd5b816001600160a01b0316635d72de626040518163ffffffff1660e01b8152600401600060405180830381600087803b1580156116e357600080fd5b505af11580156116f7573d6000803e3d6000fd5b505050505050565b5050505050565b60175461010090046001600160a01b031681565b6000805b90505b949350505050565b6001600160a01b03841660009081526009602052604081205460ff166117535760095b9050611721565b61175d8584614ab4565b600061171e565b6014546001600160a01b031681565b6001546001600160a01b031681565b6014546000906001600160a01b03163314806117a157506117a1614a59565b6117dc5760405162461bcd60e51b8152600401808060200182810382526027815260200180615c236027913960400191505060405180910390fd5b6117e4614a59565b806117f157506001821515145b61183b576040805162461bcd60e51b81526020600482015260166024820152756f6e6c792061646d696e2063616e20756e706175736560501b604482015290519081900360640190fd5b60148054831515600160b81b810260ff60b81b1990921691909117909155604080516020810192909252808252600582820152645365697a6560d81b6060830152517fef159d9a32b2472e32b098f954f3ce62d232939f1c207070b584df1814de2de09181900360800190a150805b919050565b600154600160a01b900460ff1681565b60006118c9614a59565b6118e0576118d960016007614b4c565b90506118aa565b6040805160208082018352848252825190810190925266b1a2bc2ec5000082529061190b8282614bb2565b156119255761191c60056008614b4c565b925050506118aa565b6040805160208101909152670c7d713b49da000081526119458184614bba565b156119605761195660056008614b4c565b93505050506118aa565b6005805490869055604080518281526020810188905281517f3b9670cf975d26958e754b57098eaa2ac914d8d2a31b83257997b9f346110fd9929181900390910190a160005b9695505050505050565b600f602052600090815260409020546001600160a01b031681565b6060600c805480602002602001604051908101604052809291908181526020018280548015611a2357602002820191906000526020600020905b81546001600160a01b03168152600190910190602001808311611a05575b5050505050905090565b6060601a805480602002602001604051908101604052809291908181526020018280548015611a23576020028201919060005260206000209081546001600160a01b03168152600190910190602001808311611a05575050505050905090565b6000546001600160a01b03163314611ad65760405162461bcd60e51b8152600401808060200182810382526026815260200180615c4a6026913960400191505060405180910390fd5b601780546001600160a01b03838116610100818102610100600160a81b03198516179094556040805194909304919091168084526020840191909152815190927feda98690e518e9a05f8ec6837663e188211b2da8f4906648b323f2c1d4434e2992908290030190a15050565b6001600160a01b03821660009081526009602052604081205460ff16611b9a5760405162461bcd60e51b8152600401808060200182810382526028815260200180615b986028913960400191505060405180910390fd5b6014546001600160a01b0316331480611bb65750611bb6614a59565b611bf15760405162461bcd60e51b8152600401808060200182810382526027815260200180615c236027913960400191505060405180910390fd5b611bf9614a59565b80611c0657506001821515145b611c50576040805162461bcd60e51b81526020600482015260166024820152756f6e6c792061646d696e2063616e20756e706175736560501b604482015290519081900360640190fd5b6001600160a01b038316600081815260156020908152604091829020805486151560ff199091168117909155825193845283830152606090830181905260049083015263135a5b9d60e21b6080830152517f71aec636243f9709bb0007ae15e9afb8150ab01716d75fd7573be5cc096e03b09181900360a00190a150919050565b601454600160a01b900460ff1681565b50506001600160a01b03166000908152600e60205260409020805460ff1916600117905550565b6116f7565b60186020526000908152604090205481565b60065481565b600080600080600080611d3a8a8a8a8a614bc1565b925092509250826015811115611d4c57fe5b95509093509150505b9450945094915050565b6001600160a01b03831660009081526015602052604081205460ff1615611dbe576040805162461bcd60e51b815260206004820152600e60248201526d1b5a5b9d081a5cc81c185d5cd95960921b604482015290519081900360640190fd5b6001600160a01b03841660009081526009602052604090205460ff16611de85760095b905061215c565b60105460ff168015611e1357506001600160a01b03831660009081526011602052604090205460ff16155b15611e1f576012611de1565b6001600160a01b038416600090815260196020526040902054801561214b576000856001600160a01b0316633b1d21a26040518163ffffffff1660e01b815260040160206040518083038186803b158015611e7957600080fd5b505afa158015611e8d573d6000803e3d6000fd5b505050506040513d6020811015611ea357600080fd5b5051604080516308f7a6e360e31b815290519192506000916001600160a01b038916916347bd3718916004808301926020929190829003018186803b158015611eeb57600080fd5b505afa158015611eff573d6000803e3d6000fd5b505050506040513d6020811015611f1557600080fd5b505160408051638f840ddd60e01b815290519192506000916001600160a01b038a1691638f840ddd916004808301926020929190829003018186803b158015611f5d57600080fd5b505afa158015611f71573d6000803e3d6000fd5b505050506040513d6020811015611f8757600080fd5b50516040805163dc028ab160e01b815290519192506000916001600160a01b038b169163dc028ab1916004808301926020929190829003018186803b158015611fcf57600080fd5b505afa158015611fe3573d6000803e3d6000fd5b505050506040513d6020811015611ff957600080fd5b5051604080516361feacff60e01b815290519192506000916001600160a01b038c16916361feacff916004808301926020929190829003018186803b15801561204157600080fd5b505afa158015612055573d6000803e3d6000fd5b505050506040513d602081101561206b57600080fd5b5051905060008061208f878761208a6120848989614eeb565b87614eeb565b614f21565b909250905060008260038111156120a257fe5b146120b857600b9850505050505050505061215c565b60006120c4828c614f6d565b909350905060008360038111156120d757fe5b146120ee57600b995050505050505050505061215c565b888110612142576040805162461bcd60e51b815260206004820152601960248201527f6d61726b657420737570706c7920636170207265616368656400000000000000604482015290519081900360640190fd5b50505050505050505b6121558585614f96565b60005b9150505b9392505050565b600061216d614a59565b61217d576118d96001600d614b4c565b60408051602080820183528482528251908101909252670de0b6b3a76400008252906121a98282614bba565b156121ba5761191c6007600e614b4c565b60408051602081019091526714d1120d7b16000081526121da8184614bba565b156121eb576119566007600e614b4c565b6006805490869055604080518281526020810188905281517faeba5a6c40a8ac138134bff1aaa65debf25971188a58804bad717f82f0ec1316929181900390910190a160006119a6565b6000546001600160a01b031633148061225d575060175461010090046001600160a01b031633145b6122985760405162461bcd60e51b8152600401808060200182810382526035815260200180615d386035913960400191505060405180910390fd5b828181158015906122a857508082145b6122e9576040805162461bcd60e51b815260206004820152600d60248201526c1a5b9d985b1a59081a5b9c1d5d609a1b604482015290519081900360640190fd5b60005b828110156123c15784848281811061230057fe5b905060200201356019600089898581811061231757fe5b905060200201356001600160a01b03166001600160a01b03166001600160a01b031681526020019081526020016000208190555086868281811061235757fe5b905060200201356001600160a01b03166001600160a01b03167f9e0ad9cee10bdf36b7fbd38910c0bdff0f275ace679b45b922381c2723d676f886868481811061239d57fe5b905060200201356040518082815260200191505060405180910390a26001016122ec565b50505050505050565b801580156123d85750600082115b1561241e576040805162461bcd60e51b815260206004820152601160248201527072656465656d546f6b656e73207a65726f60781b604482015290519081900360640190fd5b50505050565b600a818154811061243457600080fd5b6000918252602090912001546001600160a01b0316905081565b6000612458614a59565b612468576118d960016013614b4c565b600480546001600160a01b038481166001600160a01b0319831681179093556040805191909216808252602082019390935281517fd52b2b9b7e9ee655fcb95d2e5b9e0c9f69e7ef2b8e9d2d0ea78402d576d22e22929181900390910190a160009392505050565b505050565b6002546001600160a01b0316331461251e5760405162461bcd60e51b8152600401808060200182810382526032815260200180615c706032913960400191505060405180910390fd5b601b54610100900460ff1661254657601b805461ff001960ff19909116600117166101001790555b565b60008060008060008061255f876000806000614bc1565b92509250925082601581111561257157fe5b97919650945092505050565b6000612587614a59565b612597576118d960016018614b4c565b601480546001600160a01b038481166001600160a01b0319831617928390556040805192821680845293909116602083015280517f0613b6ee6a04f0d09f390e4d9318894b9f6ac7fd83897cd8d18896ba579c401e9281900390910190a1600061215c565b6001600160a01b03851660009081526009602052604081205460ff16158061263d57506001600160a01b03851660009081526009602052604090205460ff16155b1561264c5760095b90506127a1565b6000866001600160a01b03166395dd9193856040518263ffffffff1660e01b815260040180826001600160a01b0316815260200191505060206040518083038186803b15801561269b57600080fd5b505afa1580156126af573d6000803e3d6000fd5b505050506040513d60208110156126c557600080fd5b505190506126d287613073565b1561271b57828110156127165760405162461bcd60e51b8152600401808060200182810382526028815260200180615bc06028913960400191505060405180910390fd5b61279b565b6000806127278661502d565b9193509091506000905082601581111561273d57fe5b146127585781601581111561274e57fe5b93505050506127a1565b8061276457600361274e565b600061278060405180602001604052806005548152508561504d565b9050808611156127975760119450505050506127a1565b5050505b60009150505b95945050505050565b6000546001600160a01b03163314806127d2575060175461010090046001600160a01b031633145b61280d5760405162461bcd60e51b8152600401808060200182810382526035815260200180615cde6035913960400191505060405180910390fd5b8281811580159061281d57508082145b61285e576040805162461bcd60e51b815260206004820152600d60248201526c1a5b9d985b1a59081a5b9c1d5d609a1b604482015290519081900360640190fd5b60005b828110156123c15784848281811061287557fe5b905060200201356018600089898581811061288c57fe5b905060200201356001600160a01b03166001600160a01b03166001600160a01b03168152602001908152602001600020819055508686828181106128cc57fe5b905060200201356001600160a01b03166001600160a01b03167f6f1951b2aad10f3fc81b86d91105b413a5b3f847a34bbc5ce1904201b14438f686868481811061291257fe5b905060200201356040518082815260200191505060405180910390a2600101612861565b3360009081526009602052604090205460ff166129845760405162461bcd60e51b815260040180806020018281038252603b815260200180615be8603b913960400191505060405180910390fd5b601b805460ff19166001179055565b61241e565b60166020526000908152604090205460ff1681565b60156020526000908152604090205460ff1681565b600c818154811061243457600080fd5b60008073bcb0d746ee1d4c0ff67fc720006214568ef669d96001600160a01b031663fdb25fb16040518163ffffffff1660e01b815260040160206040518083038186803b158015612a2257600080fd5b505afa158015612a36573d6000803e3d6000fd5b505050506040513d6020811015612a4c57600080fd5b505190508015612b4c576000600460009054906101000a90046001600160a01b03166001600160a01b031663fc57d4df866040518263ffffffff1660e01b815260040180826001600160a01b0316815260200191505060206040518083038186803b158015612aba57600080fd5b505afa158015612ace573d6000803e3d6000fd5b505050506040513d6020811015612ae457600080fd5b5051905080612af857600d9250505061144a565b600080612b1360405180602001604052808581525087615065565b90925090506000826003811115612b2657fe5b14612b3957600b5b94505050505061144a565b83811015612b48576013612b2e565b5050505b6000949350505050565b6004546001600160a01b031681565b6000612b6f614a59565b612b7f576118d960016019614b4c565b6001600160a01b03821660009081526009602052604090205460ff16612bab576118d96009601a614b4c565b6000826001600160a01b03166318160ddd6040518163ffffffff1660e01b815260040160206040518083038186803b158015612be657600080fd5b505afa158015612bfa573d6000803e3d6000fd5b505050506040513d6020811015612c1057600080fd5b50511115612c24576118d96015601b614b4c565b6001600160a01b0382166000908152600960209081526040808320805460ff19168155600101839055600a80548251818502810185019093528083529192909190830182828015612c9e57602002820191906000526020600020905b81546001600160a01b03168152600190910190602001808311612c80575b5050835193945083925060009150505b82811015612cf357856001600160a01b0316848281518110612ccc57fe5b60200260200101516001600160a01b03161415612ceb57809150612cf3565b600101612cae565b50818110612cfd57fe5b600a80546000198101908110612d0f57fe5b600091825260209091200154600a80546001600160a01b039092169183908110612d3557fe5b9060005260206000200160006101000a8154816001600160a01b0302191690836001600160a01b03160217905550600a805480612d6e57fe5b6001900381819060005260206000200160006101000a8154906001600160a01b03021916905590556000600f6000876001600160a01b031663ac784ddc6040518163ffffffff1660e01b8152600401602060405180830381600087803b158015612dd757600080fd5b505af1158015612deb573d6000803e3d6000fd5b505050506040513d6020811015612e0157600080fd5b5051612e7157876001600160a01b0316636f307dc36040518163ffffffff1660e01b815260040160206040518083038186803b158015612e4057600080fd5b505afa158015612e54573d6000803e3d6000fd5b505050506040513d6020811015612e6a57600080fd5b5051612e74565b60005b6001600160a01b039081168252602080830193909352604091820160002080546001600160a01b0319169482169490941790935580519288168352517f302feb03efd5741df80efe7f97f5d93d74d46a542a3d312d0faae64fa1f3e0e99281900390910190a1600095945050505050565b601454600160b01b900460ff1681565b6009602052600090815260409020805460019091015460ff9091169082565b6014546000906001600160a01b0316331480612f335750612f33614a59565b612f6e5760405162461bcd60e51b8152600401808060200182810382526027815260200180615c236027913960400191505060405180910390fd5b612f76614a59565b80612f8357506001821515145b612fcd576040805162461bcd60e51b81526020600482015260166024820152756f6e6c792061646d696e2063616e20756e706175736560501b604482015290519081900360640190fd5b60148054831515600160b01b810260ff60b01b1990921691909117909155604080516020810192909252808252600882820152672a3930b739b332b960c11b6060830152517fef159d9a32b2472e32b098f954f3ce62d232939f1c207070b584df1814de2de09181900360800190a15090565b6001600160a01b038082166000908152600960209081526040808320938616835260029093019052205460ff1692915050565b6001600160a01b0381166000908152600960205260408120600101541580156130b957506001600160a01b03821660009081526016602052604090205460ff1615156001145b801561144a57506131d561319c836001600160a01b031663173b99046040518163ffffffff1660e01b815260040160206040518083038186803b1580156130ff57600080fd5b505afa158015613113573d6000803e3d6000fd5b505050506040513d602081101561312957600080fd5b505160408051638d02d9a160e01b815290516001600160a01b03871691638d02d9a1916004808301926020929190829003018186803b15801561316b57600080fd5b505afa15801561317f573d6000803e3d6000fd5b505050506040513d602081101561319557600080fd5b5051614eeb565b836001600160a01b031663dbfe7c196040518163ffffffff1660e01b815260040160206040518083038186803b15801561316b57600080fd5b670de0b6b3a76400001492915050565b60006131ef614a59565b6131ff576118d960016014614b4c565b60105460ff16151582151514156132175760006118d9565b6010805483151560ff19909116811790915560408051918252517f84c7d948374a180eddab35d27d2f7a94167a1ff4e79467f1e89c061984190a1e9181900360200190a1600061144a565b60116020526000908152604090205460ff1681565b6000613281614a59565b6132915761174c60016017614b4c565b60018054600160a01b60ff60a01b19821681179092550460ff1660008661336257604051638754e4fd60e01b81526020600482019081526024820187905273bcb0d746ee1d4c0ff67fc720006214568ef669d991638754e4fd9189918991908190604401848480828437600081840152601f19601f8201169050808301925050509350505050602060405180830381600087803b15801561333157600080fd5b505af1158015613345573d6000803e3d6000fd5b505050506040513d602081101561335b57600080fd5b505161340e565b604051639b86a9b560e01b81526020600482019081526024820187905273bcb0d746ee1d4c0ff67fc720006214568ef669d991639b86a9b59189918991908190604401848480828437600081840152601f19601f8201169050808301925050509350505050602060405180830381600087803b1580156133e157600080fd5b505af11580156133f5573d6000803e3d6000fd5b505050506040513d602081101561340b57600080fd5b50515b6001805460ff60a01b1916600160a01b8515150217905590506000613432826150b1565b90508015613440578061344a565b61344a8286614430565b98975050505050505050565b6001600160a01b03811660009081526008602090815260408083208054825181850281018501909352808352606094938301828280156134bf57602002820191906000526020600020905b81546001600160a01b031681526001909101906020018083116134a1575b5093979650505050505050565b601454600160b81b900460ff1681565b6060600a805480602002602001604051908101604052809291908181526020018280548015611a23576020028201919060005260206000209081546001600160a01b03168152600190910190602001808311611a05575050505050905090565b60105460ff1681565b600061354f614a59565b61355f576118d960016002614b4c565b816001600160a01b031663abc6d72d6040518163ffffffff1660e01b815260040160206040518083038186803b15801561359857600080fd5b505afa1580156135ac573d6000803e3d6000fd5b505050506040513d60208110156135c257600080fd5b5051613615576040805162461bcd60e51b815260206004820152601c60248201527f6d61726b6572206d6574686f642072657475726e65642066616c736500000000604482015290519081900360640190fd5b60005b601a5481101561368d57601a818154811061362f57fe5b6000918252602090912001546001600160a01b03848116911614156136855760405162461bcd60e51b8152600401808060200182810382526029815260200180615b6f6029913960400191505060405180910390fd5b600101613618565b50601a80546001810182556000919091527f057c384a7d1c54f3a1b2e5e67b2617b8224fdfd1ea7234eea573a6ff665ff63e0180546001600160a01b0384166001600160a01b0319909116811790915560408051918252517f98ef1187fb6fd2bc85f8996489877eb2b5428f9e9bdfc068c9ad6c2ea82eacc79181900360200190a1600061144a565b6002546001600160a01b031681565b601454600090600160b01b900460ff161561377c576040805162461bcd60e51b81526020600482015260126024820152711d1c985b9cd9995c881a5cc81c185d5cd95960721b604482015290519081900360640190fd5b6000613789868685615434565b90508015613798579050611721565b6137a38686866154e0565b60009695505050505050565b805160609060008167ffffffffffffffff811180156137cd57600080fd5b506040519080825280602002602001820160405280156137f7578160200160208202803683370190505b50905060005b8281101561385257600085828151811061381357fe5b602002602001015190506138278133615580565b601581111561383257fe5b83838151811061383e57fe5b6020908102919091010152506001016137fd565b509392505050565b6000806000600460009054906101000a90046001600160a01b03166001600160a01b031663fc57d4df876040518263ffffffff1660e01b815260040180826001600160a01b0316815260200191505060206040518083038186803b1580156138c157600080fd5b505afa1580156138d5573d6000803e3d6000fd5b505050506040513d60208110156138eb57600080fd5b5051600480546040805163fc57d4df60e01b81526001600160a01b038a8116948201949094529051939450600093929091169163fc57d4df91602480820192602092909190829003018186803b15801561394457600080fd5b505afa158015613958573d6000803e3d6000fd5b505050506040513d602081101561396e57600080fd5b5051905081158061397d575080155b1561399157600d6000935093505050613a8a565b6000866001600160a01b031663182df0f56040518163ffffffff1660e01b815260040160206040518083038186803b1580156139cc57600080fd5b505afa1580156139e0573d6000803e3d6000fd5b505050506040513d60208110156139f657600080fd5b505190506000613a04615af1565b613a0c615af1565b613a14615af1565b613a3c604051806020016040528060065481525060405180602001604052808a81525061570d565b9250613a6460405180602001604052808881525060405180602001604052808881525061570d565b9150613a70838361574c565b9050613a7c818b61504d565b600099509750505050505050505b935093915050565b601a818154811061243457600080fd5b6000613aac614a59565b613abc5761174c60016015614b4c565b60005b84811015613ce5576000868683818110613ad557fe5b905060200201356001600160a01b03169050848483818110613af357fe5b9050602002013515613b9f576001600160a01b03811660009081526011602052604090205460ff16613b9a576001600160a01b0381166000818152601160209081526040808320805460ff191660019081179091556012805491820181557fbb8a6a4669ba250d26cd7a459eca9d215f8307e33aebe50379bc5a3617ec344490910180546001600160a01b0319168617905554938352601390915290206000199190910190555b613cdc565b6001600160a01b03811660009081526011602052604090205460ff1615613cdc57601280546000198101908110613bd257fe5b60009182526020808320909101546001600160a01b0384811684526013909252604090922054601280549290931692918110613c0a57fe5b9060005260206000200160006101000a8154816001600160a01b0302191690836001600160a01b031602179055506012805480613c4357fe5b60008281526020808220830160001990810180546001600160a01b03191690559092019092556001600160a01b038316825260139081905260408220546012805491939184908110613c9157fe5b60009182526020808320909101546001600160a01b039081168452838201949094526040928301822094909455918416825260138352808220829055601190925220805460ff191690555b50600101613abf565b50600061171e565b3360009081526009602052604090205460ff16613d3b5760405162461bcd60e51b815260040180806020018281038252603c815260200180615ca2603c913960400191505060405180910390fd5b601b5460ff16613d92576040805162461bcd60e51b815260206004820152601860248201527f72652d656e7465726564206163726f7373206173736574730000000000000000604482015290519081900360640190fd5b601b805460ff19169055565b60606012805480602002602001604051908101604052809291908181526020018280548015611a23576020028201919060005260206000209081546001600160a01b03168152600190910190602001808311611a05575050505050905090565b601454600090600160b81b900460ff1615613e52576040805162461bcd60e51b815260206004820152600f60248201526e1cd95a5e99481a5cc81c185d5cd959608a1b604482015290519081900360640190fd5b6001600160a01b03861660009081526009602052604090205460ff161580613e9357506001600160a01b03851660009081526009602052604090205460ff16155b15613e9f576009612645565b846001600160a01b0316635fe3b5676040518163ffffffff1660e01b815260040160206040518083038186803b158015613ed857600080fd5b505afa158015613eec573d6000803e3d6000fd5b505050506040513d6020811015613f0257600080fd5b505160408051635fe3b56760e01b815290516001600160a01b0392831692891691635fe3b567916004808301926020929190829003018186803b158015613f4857600080fd5b505afa158015613f5c573d6000803e3d6000fd5b505050506040513d6020811015613f7257600080fd5b50516001600160a01b031614613f89576002612645565b6137a38684866154e0565b6012818154811061243457600080fd5b6000613fae614a59565b613fbe576118d960016006614b4c565b60175460ff1615158215151415613fd65760006118d9565b6017805483151560ff19909116811790915560408051918252517faa40ee94af55250363b91641a0a615c47690148901505f89b01dafae03fff2819181900360200190a1600061144a565b6001600160a01b03831660009081526016602052604081205460ff1615614082576040805162461bcd60e51b815260206004820152601060248201526f189bdc9c9bddc81a5cc81c185d5cd95960821b604482015290519081900360640190fd5b6001600160a01b03841660009081526009602052604090205460ff166140a9576009611de1565b6001600160a01b038085166000908152600960209081526040808320938716835260029093019052205460ff1661419957336001600160a01b0385161461412f576040805162461bcd60e51b815260206004820152601560248201527439b2b73232b91036bab9ba1031329031aa37b5b2b760591b604482015290519081900360640190fd5b600061413b3385615580565b9050600081601581111561414b57fe5b146141645780601581111561415c57fe5b91505061215c565b6001600160a01b038086166000908152600960209081526040808320938816835260029093019052205460ff1661419757fe5b505b600460009054906101000a90046001600160a01b03166001600160a01b031663fc57d4df856040518263ffffffff1660e01b815260040180826001600160a01b0316815260200191505060206040518083038186803b1580156141fb57600080fd5b505afa15801561420f573d6000803e3d6000fd5b505050506040513d602081101561422557600080fd5b505161423257600d611de1565b60105460ff16801561425d57506001600160a01b03831660009081526011602052604090205460ff16155b15614269576012611de1565b6001600160a01b038416600090815260186020526040902054801561437b576000856001600160a01b03166347bd37186040518163ffffffff1660e01b815260040160206040518083038186803b1580156142c357600080fd5b505afa1580156142d7573d6000803e3d6000fd5b505050506040513d60208110156142ed57600080fd5b505190506000806142fe8387614f6d565b9092509050600082600381111561431157fe5b1461432357600b94505050505061215c565b838110614377576040805162461bcd60e51b815260206004820152601960248201527f6d61726b657420626f72726f7720636170207265616368656400000000000000604482015290519081900360640190fd5b5050505b6143858585614ab4565b6000806143958688600088614bc1565b919350909150600090508260158111156143ab57fe5b146143c6578160158111156143bc57fe5b935050505061215c565b80156143d35760046143bc565b6000979650505050505050565b600860205281600052604060002081815481106143fc57600080fd5b6000918252602090912001546001600160a01b03169150829050565b6003546001600160a01b031681565b60175460ff1681565b600061443a614a59565b6144515761444a60016009614b4c565b905061144a565b6001600160a01b0383166000908152600960205260409020805460ff166144865761447e6009600a614b4c565b91505061144a565b60408051602080820183528582528251908101909252670c7d713b49da00008252906144b28183614bba565b156144cd576144c36006600b614b4c565b935050505061144a565b84158015906145675750600460009054906101000a90046001600160a01b03166001600160a01b031663fc57d4df876040518263ffffffff1660e01b815260040180826001600160a01b0316815260200191505060206040518083038186803b15801561453957600080fd5b505afa15801561454d573d6000803e3d6000fd5b505050506040513d602081101561456357600080fd5b5051155b15614578576144c3600d600c614b4c565b60018301805490869055604080516001600160a01b03891681526020810183905280820188905290517f70483e6592cd5182d45ac970e05bc62cdcc90e9d8ef2c2dbe686cf383bcd7fc59181900360600190a16000979650505050505050565b601454600160a81b900460ff1681565b60055481565b6000806145fc858585615434565b9050801561214b57905061215c565b6000808290506000806000836001600160a01b031663c37f68e2336040518263ffffffff1660e01b815260040180826001600160a01b0316815260200191505060806040518083038186803b15801561466357600080fd5b505afa158015614677573d6000803e3d6000fd5b505050506040513d608081101561468d57600080fd5b5080516020820151604090920151909450909250905082156146e05760405162461bcd60e51b8152600401808060200182810382526025815260200180615d136025913960400191505060405180910390fd5b80156146fd576146f2600c6003614b4c565b9450505050506118aa565b600061470a873385615434565b9050801561472b5761471f600e600483615788565b955050505050506118aa565b6001600160a01b0385166000908152600960209081526040808320338452600281019092529091205460ff1661476a57600096505050505050506118aa565b3360009081526002820160209081526040808320805460ff1916905560088252808320805482518185028101850190935280835291929091908301828280156147dc57602002820191906000526020600020905b81546001600160a01b031681526001909101906020018083116147be575b5050835193945083925060009150505b8281101561483157896001600160a01b031684828151811061480a57fe5b60200260200101516001600160a01b0316141561482957809150614831565b6001016147ec565b5081811061483b57fe5b33600090815260086020526040902080548190600019810190811061485c57fe5b9060005260206000200160009054906101000a90046001600160a01b031681838154811061488657fe5b9060005260206000200160006101000a8154816001600160a01b0302191690836001600160a01b03160217905550808054806148be57fe5b600082815260209020810160001990810180546001600160a01b031916905501905580546149f557600c805460001981019081106148f857fe5b6000918252602080832090910154338352600d909152604090912054600c80546001600160a01b0390931692909190811061492f57fe5b9060005260206000200160006101000a8154816001600160a01b0302191690836001600160a01b03160217905550600c80548061496857fe5b60008281526020808220830160001990810180546001600160a01b0319169055909201909255338252600d908190526040822054600c8054919391849081106149ad57fe5b60009182526020808320909101546001600160a01b03168352828101939093526040918201812093909355338352600d8252808320839055600b9091529020805460ff191690555b604080516001600160a01b038c16815233602082015281517fe699a64c18b07ac5b7301aa273f36a2287239eb9501d81950672794afba29a0d929181900390910190a160009c9b505050505050505050505050565b6000546001600160a01b031681565b600080546001600160a01b031633148015614a7d5750600154600160a81b900460ff165b80614aaf57503373bcb0d746ee1d4c0ff67fc720006214568ef669d9148015614aaf5750600154600160a01b900460ff165b905090565b60005b601a548110156124d057601a8181548110614ace57fe5b600091825260208220015460408051631cdc2c5d60e31b81526001600160a01b03878116600483015286811660248301529151919092169263e6e162e8926044808201939182900301818387803b158015614b2857600080fd5b505af1158015614b3c573d6000803e3d6000fd5b505060019092019150614ab79050565b60007f45b96fe442630264581b197e84bbada861235052c5a1aadfff9ea4e40a969aa0836015811115614b7b57fe5b83601b811115614b8757fe5b604080519283526020830191909152600082820152519081900360600190a182601581111561215c57fe5b519051111590565b5190511090565b6000806000614bce615b04565b6001600160a01b038816600090815260086020908152604080832080548251818502810185019093528083528493830182828015614c3557602002820191906000526020600020905b81546001600160a01b03168152600190910190602001808311614c17575b5050505050905060005b8151811015614eac576000828281518110614c5657fe5b60200260200101519050806001600160a01b031663c37f68e28d6040518263ffffffff1660e01b815260040180826001600160a01b0316815260200191505060806040518083038186803b158015614cad57600080fd5b505afa158015614cc1573d6000803e3d6000fd5b505050506040513d6080811015614cd757600080fd5b508051602082015160408084015160609485015160808b0152938901939093529187019190915293508315614d1b57600f6000809750975097505050505050611d55565b60408051602080820183526001600160a01b0380851660008181526009845285902060010154845260c08a01939093528351808301855260808a0151815260e08a015260048054855163fc57d4df60e01b815291820194909452935192169263fc57d4df9260248083019392829003018186803b158015614d9b57600080fd5b505afa158015614daf573d6000803e3d6000fd5b505050506040513d6020811015614dc557600080fd5b505160a08601819052614de757600d6000809750975097505050505050611d55565b604080516020810190915260a0860151815261010086015260c085015160e0860151614e2191614e169161570d565b86610100015161570d565b610120860181905260408601518651614e3b9291906157ee565b855261010085015160608601516020870151614e589291906157ee565b60208601526001600160a01b03818116908c161415614ea357614e858561012001518b87602001516157ee565b60208601819052610100860151614e9d918b906157ee565b60208601525b50600101614c3f565b50602083015183511115614ed25750506020810151905160009450039150829050611d55565b5050805160209091015160009450849350039050611d55565b600061215c8383604051806040016040528060118152602001706164646974696f6e206f766572666c6f7760781b81525061580f565b600080600080614f318787614f6d565b90925090506000826003811115614f4457fe5b14614f555750915060009050613a8a565b614f5f81866158aa565b935093505050935093915050565b600080838301848110614f8557600092509050614f8f565b6002600092509250505b9250929050565b60005b601a548110156124d057601a8181548110614fb057fe5b60009182526020822001546040805162e48b0f60e51b81526001600160a01b038781166004830152868116602483015291519190921692631c9161e0926044808201939182900301818387803b15801561500957600080fd5b505af115801561501d573d6000803e3d6000fd5b505060019092019150614f999050565b6000806000615040846000806000614bc1565b9250925092509193909250565b60008061505a84846158cd565b9050611721816158ee565b60008060008061507586866158fd565b9092509050600082600381111561508857fe5b146150995750915060009050614f8f565b60006150a4826158ee565b9350935050509250929050565b60006150bb614a59565b6150cb576118d960016017614b4c565b6001600160a01b03821660009081526009602052604090205460ff16156150f8576118d9600a6016614b4c565b816001600160a01b031663fe9c44ae6040518163ffffffff1660e01b8152600401602060405180830381600087803b15801561513357600080fd5b505af1158015615147573d6000803e3d6000fd5b505050506040513d602081101561515d57600080fd5b50516151b0576040805162461bcd60e51b815260206004820152601c60248201527f6d61726b6572206d6574686f642072657475726e65642066616c736500000000604482015290519081900360640190fd5b306001600160a01b0316826001600160a01b0316635fe3b5676040518163ffffffff1660e01b815260040160206040518083038186803b1580156151f357600080fd5b505afa158015615207573d6000803e3d6000fd5b505050506040513d602081101561521d57600080fd5b50516001600160a01b0316146152645760405162461bcd60e51b8152600401808060200182810382526035815260200180615d6d6035913960400191505060405180910390fd5b6000826001600160a01b031663ac784ddc6040518163ffffffff1660e01b8152600401602060405180830381600087803b1580156152a157600080fd5b505af11580156152b5573d6000803e3d6000fd5b505050506040513d60208110156152cb57600080fd5b505161533b57826001600160a01b0316636f307dc36040518163ffffffff1660e01b815260040160206040518083038186803b15801561530a57600080fd5b505afa15801561531e573d6000803e3d6000fd5b505050506040513d602081101561533457600080fd5b505161533e565b60005b6001600160a01b038082166000908152600f602052604090205491925016156153755761536d600a6016614b4c565b9150506118aa565b6001600160a01b038084166000818152600960209081526040808320805460ff191660019081178255808201859055600a805491820190557fc65a7bb8d6351c1cf70c95a316cc6a92839c986682d98bc35f958f4883f9d2a80180546001600160a01b031990811687179091559587168452600f835292819020805490951684179094558351928352925190927fcf583bb0c569eb967f806b11601c4cb93c10310485c67add5f8362c2f212321f928290030190a16000949350505050565b6001600160a01b03831660009081526009602052604081205460ff1661545b576009611de1565b6001600160a01b038085166000908152600960209081526040808320938716835260029093019052205460ff16615493576000611de1565b6000806154a38587866000614bc1565b919350909150600090508260158111156154b957fe5b146154d3578160158111156154ca57fe5b9250505061215c565b80156137a35760046154ca565b60005b601a5481101561241e57601a81815481106154fa57fe5b600091825260208220015460408051634e081c9560e01b81526001600160a01b0388811660048301528781166024830152868116604483015291519190921692634e081c95926064808201939182900301818387803b15801561555c57600080fd5b505af1158015615570573d6000803e3d6000fd5b5050600190920191506154e39050565b6001600160a01b0382166000908152600960205260408120805460ff166155ab57600991505061144a565b6001600160a01b038316600090815260028201602052604090205460ff161515600114156155dd57600091505061144a565b6001600160a01b03838116600081815260028401602090815260408083208054600160ff199091168117909155600883528184208054918201815584528284200180546001600160a01b031916958a1695909517909455918152600b909152205460ff166156be57600c8054600180820183557fdf6966c971051c3d54ec59162606531493a51404a002842f56009d7e5cf4a8c790910180546001600160a01b0319166001600160a01b0387169081179091556000908152600b60209081526040808320805460ff19169094179093559254600d9093522060001990910190555b604080516001600160a01b0380871682528516602082015281517f3ab23ab0d51cccc0c3085aec51f99228625aa1a922b3a8ca89a26b0f2027a1a5929181900390910190a15060009392505050565b615715615af1565b6040518060200160405280670de0b6b3a764000061573b86600001518660000151615965565b8161574257fe5b0490529392505050565b615754615af1565b604051806020016040528061577f6157788660000151670de0b6b3a7640000615965565b85516159a7565b90529392505050565b60007f45b96fe442630264581b197e84bbada861235052c5a1aadfff9ea4e40a969aa08460158111156157b757fe5b84601b8111156157c357fe5b604080519283526020830191909152818101859052519081900360600190a183601581111561172157fe5b6000806157fb85856158cd565b9050612158615809826158ee565b84614eeb565b600083830182858210156158a15760405162461bcd60e51b81526004018080602001828103825283818151815260200191508051906020019080838360005b8381101561586657818101518382015260200161584e565b50505050905090810190601f1680156158935780820380516001836020036101000a031916815260200191505b509250505060405180910390fd5b50949350505050565b6000808383116158c1575060009050818303614f8f565b50600390506000614f8f565b6158d5615af1565b604051806020016040528061577f856000015185615965565b51670de0b6b3a7640000900490565b6000615907615af1565b6000806159188660000151866159da565b9092509050600082600381111561592b57fe5b1461594a57506040805160208101909152600081529092509050614f8f565b60408051602081019091529081526000969095509350505050565b600061215c83836040518060400160405280601781526020017f6d756c7469706c69636174696f6e206f766572666c6f77000000000000000000815250615a19565b600061215c83836040518060400160405280600e81526020016d646976696465206279207a65726f60901b815250615a8f565b600080836159ed57506000905080614f8f565b838302838582816159fa57fe5b0414615a0e57600260009250925050614f8f565b600092509050614f8f565b6000831580615a26575082155b15615a335750600061215c565b83830283858281615a4057fe5b041483906158a15760405162461bcd60e51b815260206004820181815283516024840152835190928392604490910191908501908083836000831561586657818101518382015260200161584e565b60008183615ade5760405162461bcd60e51b815260206004820181815283516024840152835190928392604490910191908501908083836000831561586657818101518382015260200161584e565b50828481615ae857fe5b04949350505050565b6040518060200160405280600081525090565b604051806101400160405280600081526020016000815260200160008152602001600081526020016000815260200160008152602001615b42615af1565b8152602001615b4f615af1565b8152602001615b5c615af1565b8152602001615b69615af1565b90529056fe526577617264734469737472696275746f7220636f6e747261637420616c726561647920616464656463616e6e6f742070617573652061206d61726b65742074686174206973206e6f74206c697374656443616e206e6f74207265706179206d6f7265207468616e2074686520746f74616c20626f72726f77436f6d7074726f6c6c65723a5f61667465724e6f6e5265656e7472616e743a2063616c6c6572206e6f74206c6973746564206173206d61726b65746f6e6c7920706175736520677561726469616e20616e642061646d696e2063616e2070617573656f6e6c792061646d696e2063616e2073657420626f72726f772063617020677561726469616e6f6e6c7920696d706c656d656e746174696f6e206d61792063616c6c205f6265636f6d65496d706c656d656e746174696f6e436f6d7074726f6c6c65723a5f6265666f72654e6f6e5265656e7472616e743a2063616c6c6572206e6f74206c6973746564206173206d61726b65746f6e6c792061646d696e206f7220626f72726f772063617020677561726469616e2063616e2073657420626f72726f772063617073657869744d61726b65743a206765744163636f756e74536e617073686f74206661696c65646f6e6c792061646d696e206f7220626f72726f772063617020677561726469616e2063616e2073657420737570706c79206361707343616e6e6f7420737570706f72742061206d61726b65742077697468206120646966666572656e7420436f6d7074726f6c6c65722e6f6e6c7920756e6974726f6c6c65722061646d696e2063616e206368616e676520627261696e73a26469706673582212208184cb23ec54c94f632963662abbeceefff94500df9dca8db9f619870299dde964736f6c63430007060033",
  "devdoc": {
    "author": "Compound",
    "details": "This contract should not to be deployed alone; instead, deploy `Unitroller` (proxy contract) on top of this `Comptroller` (logic/implementation contract).",
    "kind": "dev",
    "methods": {
      "_addRewardsDistributor(address)": {
        "details": "Admin function to add a RewardsDistributor contract",
        "returns": {
          "_0": "uint 0=success, otherwise a failure (see ErrorReporter.sol for details)"
        }
      },
      "_afterNonReentrant()": {
        "details": "Called by cTokens after a non-reentrant function for pool-wide reentrancy prevention. Prevents pool-wide/cross-asset reentrancy exploits like AMP on Cream."
      },
      "_beforeNonReentrant()": {
        "details": "Called by cTokens before a non-reentrant function for pool-wide reentrancy prevention. Prevents pool-wide/cross-asset reentrancy exploits like AMP on Cream."
      },
      "_deployMarket(bool,bytes,uint256)": {
        "details": "Admin function to deploy cToken, set isListed, and add support for the market and set the collateral factor",
        "returns": {
          "_0": "uint 0=success, otherwise a failure. (See enum Error for details)"
        }
      },
      "_setBorrowCapGuardian(address)": {
        "params": {
          "newBorrowCapGuardian": "The address of the new Borrow Cap Guardian"
        }
      },
      "_setCloseFactor(uint256)": {
        "details": "Admin function to set closeFactor",
        "params": {
          "newCloseFactorMantissa": "New close factor, scaled by 1e18"
        },
        "returns": {
          "_0": "uint 0=success, otherwise a failure. (See ErrorReporter for details)"
        }
      },
      "_setCollateralFactor(address,uint256)": {
        "details": "Admin function to set per-market collateralFactor",
        "params": {
          "cToken": "The market to set the factor on",
          "newCollateralFactorMantissa": "The new collateral factor, scaled by 1e18"
        },
        "returns": {
          "_0": "uint 0=success, otherwise a failure. (See ErrorReporter for details)"
        }
      },
      "_setLiquidationIncentive(uint256)": {
        "details": "Admin function to set liquidationIncentive",
        "params": {
          "newLiquidationIncentiveMantissa": "New liquidationIncentive scaled by 1e18"
        },
        "returns": {
          "_0": "uint 0=success, otherwise a failure. (See ErrorReporter for details)"
        }
      },
      "_setMarketBorrowCaps(address[],uint256[])": {
        "details": "Admin or borrowCapGuardian function to set the borrow caps. A borrow cap of 0 corresponds to unlimited borrowing.",
        "params": {
          "cTokens": "The addresses of the markets (tokens) to change the borrow caps for",
          "newBorrowCaps": "The new borrow cap values in underlying to be set. A value of 0 corresponds to unlimited borrowing."
        }
      },
      "_setMarketSupplyCaps(address[],uint256[])": {
        "details": "Admin or borrowCapGuardian function to set the supply caps. A supply cap of 0 corresponds to unlimited supplying.",
        "params": {
          "cTokens": "The addresses of the markets (tokens) to change the supply caps for",
          "newSupplyCaps": "The new supply cap values in underlying to be set. A value of 0 corresponds to unlimited supplying."
        }
      },
      "_setPauseGuardian(address)": {
        "params": {
          "newPauseGuardian": "The address of the new Pause Guardian"
        },
        "returns": {
          "_0": "uint 0=success, otherwise a failure. (See enum Error for details)"
        }
      },
      "_setPriceOracle(address)": {
        "details": "Admin function to set a new price oracle",
        "returns": {
          "_0": "uint 0=success, otherwise a failure (see ErrorReporter.sol for details)"
        }
      },
      "_setWhitelistEnforcement(bool)": {
        "details": "Admin function to set a new whitelist enforcement boolean",
        "returns": {
          "_0": "uint 0=success, otherwise a failure (see ErrorReporter.sol for details)"
        }
      },
      "_setWhitelistStatuses(address[],bool[])": {
        "details": "Admin function to set the whitelist `statuses` for `suppliers`",
        "returns": {
          "_0": "uint 0=success, otherwise a failure (see ErrorReporter.sol for details)"
        }
      },
      "_toggleAutoImplementations(bool)": {
        "params": {
          "enabled": "If the feature is to be enabled"
        },
        "returns": {
          "_0": "uint 0=success, otherwise a failure. (See enum Error for details)"
        }
      },
      "_unsupportMarket(address)": {
        "details": "Admin function unset isListed and collateralFactorMantissa and unadd support for the market",
        "params": {
          "cToken": "The address of the market (token) to unlist"
        },
        "returns": {
          "_0": "uint 0=success, otherwise a failure. (See enum Error for details)"
        }
      },
      "borrowAllowed(address,address,uint256)": {
        "params": {
          "borrowAmount": "The amount of underlying the account would borrow",
          "borrower": "The account which would borrow the asset",
          "cToken": "The market to verify the borrow against"
        },
        "returns": {
          "_0": "0 if the borrow is allowed, otherwise a semi-opaque error code (See ErrorReporter.sol)"
        }
      },
      "borrowVerify(address,address,uint256)": {
        "params": {
          "borrowAmount": "The amount of the underlying asset requested to borrow",
          "borrower": "The address borrowing the underlying",
          "cToken": "Asset whose underlying is being borrowed"
        }
      },
      "borrowWithinLimits(address,uint256)": {
        "params": {
          "accountBorrowsNew": "The user's new borrow balance of the underlying asset",
          "cToken": "Asset whose underlying is being borrowed"
        }
      },
      "checkMembership(address,address)": {
        "params": {
          "account": "The address of the account to check",
          "cToken": "The cToken to check"
        },
        "returns": {
          "_0": "True if the account is in the asset, otherwise false."
        }
      },
      "enterMarkets(address[])": {
        "params": {
          "cTokens": "The list of addresses of the cToken markets to be enabled"
        },
        "returns": {
          "_0": "Success indicator for whether each corresponding market was entered"
        }
      },
      "exitMarket(address)": {
        "details": "Sender must not have an outstanding borrow balance in the asset,  or be providing neccessary collateral for an outstanding borrow.",
        "params": {
          "cTokenAddress": "The address of the asset to be removed"
        },
        "returns": {
          "_0": "Whether or not the account successfully exited the market"
        }
      },
      "getAccountLiquidity(address)": {
        "returns": {
          "_0": "(possible error code (semi-opaque), account liquidity in excess of collateral requirements,          account shortfall below collateral requirements)"
        }
      },
      "getAllBorrowers()": {
        "details": "The automatic getter may be used to access an individual borrower.",
        "returns": {
          "_0": "The list of borrower account addresses"
        }
      },
      "getAllMarkets()": {
        "details": "The automatic getter may be used to access an individual market.",
        "returns": {
          "_0": "The list of market addresses"
        }
      },
      "getAssetsIn(address)": {
        "params": {
          "account": "The address of the account to pull assets for"
        },
        "returns": {
          "_0": "A dynamic list with the assets the account has entered"
        }
      },
      "getHypotheticalAccountLiquidity(address,address,uint256,uint256)": {
        "params": {
          "account": "The account to determine liquidity for",
          "borrowAmount": "The amount of underlying to hypothetically borrow",
          "cTokenModify": "The market to hypothetically redeem/borrow in",
          "redeemTokens": "The number of tokens to hypothetically redeem"
        },
        "returns": {
          "_0": "(possible error code (semi-opaque), hypothetical account liquidity in excess of collateral requirements,          hypothetical account shortfall below collateral requirements)"
        }
      },
      "getWhitelist()": {
        "details": "The automatic getter may be used to access an individual whitelist status.",
        "returns": {
          "_0": "The list of borrower account addresses"
        }
      },
      "isDeprecated(address)": {
        "details": "All borrows in a deprecated cToken market can be immediately liquidated",
        "params": {
          "cToken": "The market to check if deprecated"
        }
      },
      "liquidateBorrowAllowed(address,address,address,address,uint256)": {
        "params": {
          "borrower": "The address of the borrower",
          "cTokenBorrowed": "Asset which was borrowed by the borrower",
          "cTokenCollateral": "Asset which was used as collateral and will be seized",
          "liquidator": "The address repaying the borrow and seizing the collateral",
          "repayAmount": "The amount of underlying being repaid"
        }
      },
      "liquidateBorrowVerify(address,address,address,address,uint256,uint256)": {
        "params": {
          "actualRepayAmount": "The amount of underlying being repaid",
          "borrower": "The address of the borrower",
          "cTokenBorrowed": "Asset which was borrowed by the borrower",
          "cTokenCollateral": "Asset which was used as collateral and will be seized",
          "liquidator": "The address repaying the borrow and seizing the collateral"
        }
      },
      "liquidateCalculateSeizeTokens(address,address,uint256)": {
        "details": "Used in liquidation (called in cToken.liquidateBorrowFresh)",
        "params": {
          "actualRepayAmount": "The amount of cTokenBorrowed underlying to convert into cTokenCollateral tokens",
          "cTokenBorrowed": "The address of the borrowed cToken",
          "cTokenCollateral": "The address of the collateral cToken"
        },
        "returns": {
          "_0": "(errorCode, number of cTokenCollateral tokens to be seized in a liquidation)"
        }
      },
      "mintAllowed(address,address,uint256)": {
        "params": {
          "cToken": "The market to verify the mint against",
          "mintAmount": "The amount of underlying being supplied to the market in exchange for tokens",
          "minter": "The account which would get the minted tokens"
        },
        "returns": {
          "_0": "0 if the mint is allowed, otherwise a semi-opaque error code (See ErrorReporter.sol)"
        }
      },
      "mintVerify(address,address,uint256,uint256)": {
        "params": {
          "actualMintAmount": "The amount of the underlying asset being minted",
          "cToken": "Asset being minted",
          "mintTokens": "The number of tokens being minted",
          "minter": "The address minting the tokens"
        }
      },
      "mintWithinLimits(address,uint256,uint256,uint256)": {
        "params": {
          "accountTokens": "Underlying amount to mint",
          "cToken": "Asset whose underlying is being borrowed",
          "exchangeRateMantissa": "Underlying/cToken exchange rate"
        }
      },
      "redeemAllowed(address,address,uint256)": {
        "params": {
          "cToken": "The market to verify the redeem against",
          "redeemTokens": "The number of cTokens to exchange for the underlying asset in the market",
          "redeemer": "The account which would redeem the tokens"
        },
        "returns": {
          "_0": "0 if the redeem is allowed, otherwise a semi-opaque error code (See ErrorReporter.sol)"
        }
      },
      "redeemVerify(address,address,uint256,uint256)": {
        "params": {
          "cToken": "Asset being redeemed",
          "redeemAmount": "The amount of the underlying asset being redeemed",
          "redeemTokens": "The number of tokens being redeemed",
          "redeemer": "The address redeeming the tokens"
        }
      },
      "repayBorrowAllowed(address,address,address,uint256)": {
        "params": {
          "borrower": "The account which would borrowed the asset",
          "cToken": "The market to verify the repay against",
          "payer": "The account which would repay the asset",
          "repayAmount": "The amount of the underlying asset the account would repay"
        },
        "returns": {
          "_0": "0 if the repay is allowed, otherwise a semi-opaque error code (See ErrorReporter.sol)"
        }
      },
      "repayBorrowVerify(address,address,address,uint256,uint256)": {
        "params": {
          "actualRepayAmount": "The amount of underlying being repaid",
          "borrower": "The address of the borrower",
          "cToken": "Asset being repaid",
          "payer": "The address repaying the borrow"
        }
      },
      "seizeAllowed(address,address,address,address,uint256)": {
        "params": {
          "borrower": "The address of the borrower",
          "cTokenBorrowed": "Asset which was borrowed by the borrower",
          "cTokenCollateral": "Asset which was used as collateral and will be seized",
          "liquidator": "The address repaying the borrow and seizing the collateral",
          "seizeTokens": "The number of collateral tokens to seize"
        }
      },
      "seizeVerify(address,address,address,address,uint256)": {
        "params": {
          "borrower": "The address of the borrower",
          "cTokenBorrowed": "Asset which was borrowed by the borrower",
          "cTokenCollateral": "Asset which was used as collateral and will be seized",
          "liquidator": "The address repaying the borrow and seizing the collateral",
          "seizeTokens": "The number of collateral tokens to seize"
        }
      },
      "transferAllowed(address,address,address,uint256)": {
        "params": {
          "cToken": "The market to verify the transfer against",
          "dst": "The account which receives the tokens",
          "src": "The account which sources the tokens",
          "transferTokens": "The number of cTokens to transfer"
        },
        "returns": {
          "_0": "0 if the transfer is allowed, otherwise a semi-opaque error code (See ErrorReporter.sol)"
        }
      },
      "transferVerify(address,address,address,uint256)": {
        "params": {
          "cToken": "Asset being transferred",
          "dst": "The account which receives the tokens",
          "src": "The account which sources the tokens",
          "transferTokens": "The number of cTokens to transfer"
        }
      }
    },
    "title": "Compound's Comptroller Contract",
    "version": 1
  },
  "userdoc": {
    "events": {
      "ActionPaused(address,string,bool)": {
        "notice": "Emitted when an action is paused on a market"
      },
      "ActionPaused(string,bool)": {
        "notice": "Emitted when an action is paused globally"
      },
      "AddedRewardsDistributor(address)": {
        "notice": "Emitted when a new RewardsDistributor contract is added to hooks"
      },
      "AutoImplementationsToggled(bool)": {
        "notice": "Emitted when auto implementations are toggled"
      },
      "MarketEntered(address,address)": {
        "notice": "Emitted when an account enters a market"
      },
      "MarketExited(address,address)": {
        "notice": "Emitted when an account exits a market"
      },
      "MarketListed(address)": {
        "notice": "Emitted when an admin supports a market"
      },
      "MarketUnlisted(address)": {
        "notice": "Emitted when an admin unsupports a market"
      },
      "NewBorrowCap(address,uint256)": {
        "notice": "Emitted when borrow cap for a cToken is changed"
      },
      "NewBorrowCapGuardian(address,address)": {
        "notice": "Emitted when borrow cap guardian is changed"
      },
      "NewCloseFactor(uint256,uint256)": {
        "notice": "Emitted when close factor is changed by admin"
      },
      "NewCollateralFactor(address,uint256,uint256)": {
        "notice": "Emitted when a collateral factor is changed by admin"
      },
      "NewLiquidationIncentive(uint256,uint256)": {
        "notice": "Emitted when liquidation incentive is changed by admin"
      },
      "NewPauseGuardian(address,address)": {
        "notice": "Emitted when pause guardian is changed"
      },
      "NewPriceOracle(address,address)": {
        "notice": "Emitted when price oracle is changed"
      },
      "NewSupplyCap(address,uint256)": {
        "notice": "Emitted when supply cap for a cToken is changed"
      },
      "WhitelistEnforcementChanged(bool)": {
        "notice": "Emitted when the whitelist enforcement is changed"
      }
    },
    "kind": "user",
    "methods": {
      "_addRewardsDistributor(address)": {
        "notice": "Add a RewardsDistributor contracts."
      },
      "_deployMarket(bool,bytes,uint256)": {
        "notice": "Deploy cToken, add the market to the markets mapping, and set it as listed and set the collateral factor"
      },
      "_setBorrowCapGuardian(address)": {
        "notice": "Admin function to change the Borrow Cap Guardian"
      },
      "_setCloseFactor(uint256)": {
        "notice": "Sets the closeFactor used when liquidating borrows"
      },
      "_setCollateralFactor(address,uint256)": {
        "notice": "Sets the collateralFactor for a market"
      },
      "_setLiquidationIncentive(uint256)": {
        "notice": "Sets liquidationIncentive"
      },
      "_setMarketBorrowCaps(address[],uint256[])": {
        "notice": "Set the given borrow caps for the given cToken markets. Borrowing that brings total borrows to or above borrow cap will revert."
      },
      "_setMarketSupplyCaps(address[],uint256[])": {
        "notice": "Set the given supply caps for the given cToken markets. Supplying that brings total underlying supply to or above supply cap will revert."
      },
      "_setPauseGuardian(address)": {
        "notice": "Admin function to change the Pause Guardian"
      },
      "_setPriceOracle(address)": {
        "notice": "Sets a new price oracle for the comptroller"
      },
      "_setWhitelistEnforcement(bool)": {
        "notice": "Sets the whitelist enforcement for the comptroller"
      },
      "_setWhitelistStatuses(address[],bool[])": {
        "notice": "Sets the whitelist `statuses` for `suppliers`"
      },
      "_toggleAutoImplementations(bool)": {
        "notice": "Toggles the auto-implementation feature"
      },
      "_unsupportMarket(address)": {
        "notice": "Removed a market from the markets mapping and sets it as unlisted"
      },
      "accountAssets(address,uint256)": {
        "notice": "Per-account mapping of \"assets you are in\", capped by maxAssets"
      },
      "admin()": {
        "notice": "Administrator for this contract"
      },
      "adminHasRights()": {
        "notice": "Whether or not the admin has admin rights"
      },
      "allBorrowers(uint256)": {
        "notice": "A list of all borrowers who have entered markets"
      },
      "allMarkets(uint256)": {
        "notice": "A list of all markets"
      },
      "borrowAllowed(address,address,uint256)": {
        "notice": "Checks if the account should be allowed to borrow the underlying asset of the given market"
      },
      "borrowCapGuardian()": {
        "notice": "The borrowCapGuardian can set borrowCaps to any number for any market. Lowering the borrow cap could disable borrowing on the given market."
      },
      "borrowCaps(address)": {
        "notice": "Borrow caps enforced by borrowAllowed for each cToken address. Defaults to zero which corresponds to unlimited borrowing."
      },
      "borrowVerify(address,address,uint256)": {
        "notice": "Validates borrow and reverts on rejection. May emit logs."
      },
      "borrowWithinLimits(address,uint256)": {
        "notice": "Checks if the account should be allowed to borrow the underlying asset of the given market"
      },
      "cTokensByUnderlying(address)": {
        "notice": "All cTokens addresses mapped by their underlying token addresses"
      },
      "checkMembership(address,address)": {
        "notice": "Returns whether the given account is entered in the given asset"
      },
      "closeFactorMantissa()": {
        "notice": "Multiplier used to calculate the maximum repayAmount when liquidating a borrow"
      },
      "comptrollerImplementation()": {
        "notice": "Active brains of Unitroller"
      },
      "enforceWhitelist()": {
        "notice": "Whether or not the supplier whitelist is enforced"
      },
      "enterMarkets(address[])": {
        "notice": "Add assets to be included in account liquidity calculation"
      },
      "exitMarket(address)": {
        "notice": "Removes asset from sender's account liquidity calculation"
      },
      "fuseAdminHasRights()": {
        "notice": "Whether or not the Fuse admin has admin rights"
      },
      "getAccountLiquidity(address)": {
        "notice": "Determine the current account liquidity wrt collateral requirements"
      },
      "getAllBorrowers()": {
        "notice": "Return all of the borrowers"
      },
      "getAllMarkets()": {
        "notice": "Return all of the markets"
      },
      "getAssetsIn(address)": {
        "notice": "Returns the assets an account has entered"
      },
      "getHypotheticalAccountLiquidity(address,address,uint256,uint256)": {
        "notice": "Determine what the account liquidity would be if the given amounts were redeemed/borrowed"
      },
      "getRewardsDistributors()": {
        "notice": "Returns an array of all RewardsDistributors"
      },
      "getWhitelist()": {
        "notice": "Return all of the whitelist"
      },
      "isComptroller()": {
        "notice": "Indicator that this is a Comptroller contract (for inspection)"
      },
      "isDeprecated(address)": {
        "notice": "Returns true if the given cToken market has been deprecated"
      },
      "liquidateBorrowAllowed(address,address,address,address,uint256)": {
        "notice": "Checks if the liquidation should be allowed to occur"
      },
      "liquidateBorrowVerify(address,address,address,address,uint256,uint256)": {
        "notice": "Validates liquidateBorrow and reverts on rejection. May emit logs."
      },
      "liquidateCalculateSeizeTokens(address,address,uint256)": {
        "notice": "Calculate number of tokens of collateral asset to seize given an underlying amount"
      },
      "liquidationIncentiveMantissa()": {
        "notice": "Multiplier representing the discount on collateral that a liquidator receives"
      },
      "markets(address)": {
        "notice": "Official mapping of cTokens -> Market metadata"
      },
      "mintAllowed(address,address,uint256)": {
        "notice": "Checks if the account should be allowed to mint tokens in the given market"
      },
      "mintVerify(address,address,uint256,uint256)": {
        "notice": "Validates mint and reverts on rejection. May emit logs."
      },
      "mintWithinLimits(address,uint256,uint256,uint256)": {
        "notice": "Checks if the account should be allowed to borrow the underlying asset of the given market"
      },
      "oracle()": {
        "notice": "Oracle which gives the price of any given asset"
      },
      "pauseGuardian()": {
        "notice": "The Pause Guardian can pause certain actions as a safety mechanism.  Actions which allow users to remove their own assets cannot be paused.  Liquidation / seizing / transfer can only be paused globally, not by market."
      },
      "pendingAdmin()": {
        "notice": "Pending administrator for this contract"
      },
      "pendingComptrollerImplementation()": {
        "notice": "Pending brains of Unitroller"
      },
      "redeemAllowed(address,address,uint256)": {
        "notice": "Checks if the account should be allowed to redeem tokens in the given market"
      },
      "redeemVerify(address,address,uint256,uint256)": {
        "notice": "Validates redeem and reverts on rejection. May emit logs."
      },
      "repayBorrowAllowed(address,address,address,uint256)": {
        "notice": "Checks if the account should be allowed to repay a borrow in the given market"
      },
      "repayBorrowVerify(address,address,address,uint256,uint256)": {
        "notice": "Validates repayBorrow and reverts on rejection. May emit logs."
      },
      "rewardsDistributors(uint256)": {
        "notice": "RewardsDistributor contracts to notify of flywheel changes."
      },
      "seizeAllowed(address,address,address,address,uint256)": {
        "notice": "Checks if the seizing of assets should be allowed to occur"
      },
      "seizeVerify(address,address,address,address,uint256)": {
        "notice": "Validates seize and reverts on rejection. May emit logs."
      },
      "supplyCaps(address)": {
        "notice": "Supply caps enforced by mintAllowed for each cToken address. Defaults to zero which corresponds to unlimited supplying."
      },
      "transferAllowed(address,address,address,uint256)": {
        "notice": "Checks if the account should be allowed to transfer tokens in the given market"
      },
      "transferVerify(address,address,address,uint256)": {
        "notice": "Validates transfer and reverts on rejection. May emit logs."
      },
      "whitelist(address)": {
        "notice": "Maps addresses to booleans indicating if they are allowed to supply assets (i.e., mint cTokens)"
      },
      "whitelistArray(uint256)": {
        "notice": "An array of all whitelisted accounts"
      }
    },
    "version": 1
  },
  "storageLayout": {
    "storage": [
      {
        "astId": 20839,
        "contract": "contracts/compound/Comptroller.sol:Comptroller",
        "label": "admin",
        "offset": 0,
        "slot": "0",
        "type": "t_address"
      },
      {
        "astId": 20842,
        "contract": "contracts/compound/Comptroller.sol:Comptroller",
        "label": "pendingAdmin",
        "offset": 0,
        "slot": "1",
        "type": "t_address"
      },
      {
        "astId": 20846,
        "contract": "contracts/compound/Comptroller.sol:Comptroller",
        "label": "fuseAdminHasRights",
        "offset": 20,
        "slot": "1",
        "type": "t_bool"
      },
      {
        "astId": 20850,
        "contract": "contracts/compound/Comptroller.sol:Comptroller",
        "label": "adminHasRights",
        "offset": 21,
        "slot": "1",
        "type": "t_bool"
      },
      {
        "astId": 20879,
        "contract": "contracts/compound/Comptroller.sol:Comptroller",
        "label": "comptrollerImplementation",
        "offset": 0,
        "slot": "2",
        "type": "t_address"
      },
      {
        "astId": 20882,
        "contract": "contracts/compound/Comptroller.sol:Comptroller",
        "label": "pendingComptrollerImplementation",
        "offset": 0,
        "slot": "3",
        "type": "t_address"
      },
      {
        "astId": 20888,
        "contract": "contracts/compound/Comptroller.sol:Comptroller",
        "label": "oracle",
        "offset": 0,
        "slot": "4",
        "type": "t_contract(PriceOracle)26736"
      },
      {
        "astId": 20891,
        "contract": "contracts/compound/Comptroller.sol:Comptroller",
        "label": "closeFactorMantissa",
        "offset": 0,
        "slot": "5",
        "type": "t_uint256"
      },
      {
        "astId": 20894,
        "contract": "contracts/compound/Comptroller.sol:Comptroller",
        "label": "liquidationIncentiveMantissa",
        "offset": 0,
        "slot": "6",
        "type": "t_uint256"
      },
      {
        "astId": 20896,
        "contract": "contracts/compound/Comptroller.sol:Comptroller",
        "label": "maxAssets",
        "offset": 0,
        "slot": "7",
        "type": "t_uint256"
      },
      {
        "astId": 20902,
        "contract": "contracts/compound/Comptroller.sol:Comptroller",
        "label": "accountAssets",
        "offset": 0,
        "slot": "8",
        "type": "t_mapping(t_address,t_array(t_contract(CToken)16058)dyn_storage)"
      },
      {
        "astId": 20919,
        "contract": "contracts/compound/Comptroller.sol:Comptroller",
        "label": "markets",
        "offset": 0,
        "slot": "9",
        "type": "t_mapping(t_address,t_struct(Market)20914_storage)"
      },
      {
        "astId": 20923,
        "contract": "contracts/compound/Comptroller.sol:Comptroller",
        "label": "allMarkets",
        "offset": 0,
        "slot": "10",
        "type": "t_array(t_contract(CToken)16058)dyn_storage"
      },
      {
        "astId": 20928,
        "contract": "contracts/compound/Comptroller.sol:Comptroller",
        "label": "borrowers",
        "offset": 0,
        "slot": "11",
        "type": "t_mapping(t_address,t_bool)"
      },
      {
        "astId": 20932,
        "contract": "contracts/compound/Comptroller.sol:Comptroller",
        "label": "allBorrowers",
        "offset": 0,
        "slot": "12",
        "type": "t_array(t_address)dyn_storage"
      },
      {
        "astId": 20936,
        "contract": "contracts/compound/Comptroller.sol:Comptroller",
        "label": "borrowerIndexes",
        "offset": 0,
        "slot": "13",
        "type": "t_mapping(t_address,t_uint256)"
      },
      {
        "astId": 20941,
        "contract": "contracts/compound/Comptroller.sol:Comptroller",
        "label": "suppliers",
        "offset": 0,
        "slot": "14",
        "type": "t_mapping(t_address,t_bool)"
      },
      {
        "astId": 20946,
        "contract": "contracts/compound/Comptroller.sol:Comptroller",
        "label": "cTokensByUnderlying",
        "offset": 0,
        "slot": "15",
        "type": "t_mapping(t_address,t_contract(CToken)16058)"
      },
      {
        "astId": 20949,
        "contract": "contracts/compound/Comptroller.sol:Comptroller",
        "label": "enforceWhitelist",
        "offset": 0,
        "slot": "16",
        "type": "t_bool"
      },
      {
        "astId": 20954,
        "contract": "contracts/compound/Comptroller.sol:Comptroller",
        "label": "whitelist",
        "offset": 0,
        "slot": "17",
        "type": "t_mapping(t_address,t_bool)"
      },
      {
        "astId": 20958,
        "contract": "contracts/compound/Comptroller.sol:Comptroller",
        "label": "whitelistArray",
        "offset": 0,
        "slot": "18",
        "type": "t_array(t_address)dyn_storage"
      },
      {
        "astId": 20962,
        "contract": "contracts/compound/Comptroller.sol:Comptroller",
        "label": "whitelistIndexes",
        "offset": 0,
        "slot": "19",
        "type": "t_mapping(t_address,t_uint256)"
      },
      {
        "astId": 20965,
        "contract": "contracts/compound/Comptroller.sol:Comptroller",
        "label": "pauseGuardian",
        "offset": 0,
        "slot": "20",
        "type": "t_address"
      },
      {
        "astId": 20967,
        "contract": "contracts/compound/Comptroller.sol:Comptroller",
        "label": "_mintGuardianPaused",
        "offset": 20,
        "slot": "20",
        "type": "t_bool"
      },
      {
        "astId": 20969,
        "contract": "contracts/compound/Comptroller.sol:Comptroller",
        "label": "_borrowGuardianPaused",
        "offset": 21,
        "slot": "20",
        "type": "t_bool"
      },
      {
        "astId": 20971,
        "contract": "contracts/compound/Comptroller.sol:Comptroller",
        "label": "transferGuardianPaused",
        "offset": 22,
        "slot": "20",
        "type": "t_bool"
      },
      {
        "astId": 20973,
        "contract": "contracts/compound/Comptroller.sol:Comptroller",
        "label": "seizeGuardianPaused",
        "offset": 23,
        "slot": "20",
        "type": "t_bool"
      },
      {
        "astId": 20977,
        "contract": "contracts/compound/Comptroller.sol:Comptroller",
        "label": "mintGuardianPaused",
        "offset": 0,
        "slot": "21",
        "type": "t_mapping(t_address,t_bool)"
      },
      {
        "astId": 20981,
        "contract": "contracts/compound/Comptroller.sol:Comptroller",
        "label": "borrowGuardianPaused",
        "offset": 0,
        "slot": "22",
        "type": "t_mapping(t_address,t_bool)"
      },
      {
        "astId": 20987,
        "contract": "contracts/compound/Comptroller.sol:Comptroller",
        "label": "autoImplementation",
        "offset": 0,
        "slot": "23",
        "type": "t_bool"
      },
      {
        "astId": 20990,
        "contract": "contracts/compound/Comptroller.sol:Comptroller",
        "label": "borrowCapGuardian",
        "offset": 1,
        "slot": "23",
        "type": "t_address"
      },
      {
        "astId": 20995,
        "contract": "contracts/compound/Comptroller.sol:Comptroller",
        "label": "borrowCaps",
        "offset": 0,
        "slot": "24",
        "type": "t_mapping(t_address,t_uint256)"
      },
      {
        "astId": 21000,
        "contract": "contracts/compound/Comptroller.sol:Comptroller",
        "label": "supplyCaps",
        "offset": 0,
        "slot": "25",
        "type": "t_mapping(t_address,t_uint256)"
      },
      {
        "astId": 21004,
        "contract": "contracts/compound/Comptroller.sol:Comptroller",
        "label": "rewardsDistributors",
        "offset": 0,
        "slot": "26",
        "type": "t_array(t_address)dyn_storage"
      },
      {
        "astId": 21007,
        "contract": "contracts/compound/Comptroller.sol:Comptroller",
        "label": "_notEntered",
        "offset": 0,
        "slot": "27",
        "type": "t_bool"
      },
      {
        "astId": 21010,
        "contract": "contracts/compound/Comptroller.sol:Comptroller",
        "label": "_notEnteredInitialized",
        "offset": 1,
        "slot": "27",
        "type": "t_bool"
      }
    ],
    "types": {
      "t_address": {
        "encoding": "inplace",
        "label": "address",
        "numberOfBytes": "20"
      },
      "t_array(t_address)dyn_storage": {
        "base": "t_address",
        "encoding": "dynamic_array",
        "label": "address[]",
        "numberOfBytes": "32"
      },
      "t_array(t_contract(CToken)16058)dyn_storage": {
        "base": "t_contract(CToken)16058",
        "encoding": "dynamic_array",
        "label": "contract CToken[]",
        "numberOfBytes": "32"
      },
      "t_bool": {
        "encoding": "inplace",
        "label": "bool",
        "numberOfBytes": "1"
      },
      "t_contract(CToken)16058": {
        "encoding": "inplace",
        "label": "contract CToken",
        "numberOfBytes": "20"
      },
      "t_contract(PriceOracle)26736": {
        "encoding": "inplace",
        "label": "contract PriceOracle",
        "numberOfBytes": "20"
      },
      "t_mapping(t_address,t_array(t_contract(CToken)16058)dyn_storage)": {
        "encoding": "mapping",
        "key": "t_address",
        "label": "mapping(address => contract CToken[])",
        "numberOfBytes": "32",
        "value": "t_array(t_contract(CToken)16058)dyn_storage"
      },
      "t_mapping(t_address,t_bool)": {
        "encoding": "mapping",
        "key": "t_address",
        "label": "mapping(address => bool)",
        "numberOfBytes": "32",
        "value": "t_bool"
      },
      "t_mapping(t_address,t_contract(CToken)16058)": {
        "encoding": "mapping",
        "key": "t_address",
        "label": "mapping(address => contract CToken)",
        "numberOfBytes": "32",
        "value": "t_contract(CToken)16058"
      },
      "t_mapping(t_address,t_struct(Market)20914_storage)": {
        "encoding": "mapping",
        "key": "t_address",
        "label": "mapping(address => struct ComptrollerV2Storage.Market)",
        "numberOfBytes": "32",
        "value": "t_struct(Market)20914_storage"
      },
      "t_mapping(t_address,t_uint256)": {
        "encoding": "mapping",
        "key": "t_address",
        "label": "mapping(address => uint256)",
        "numberOfBytes": "32",
        "value": "t_uint256"
      },
      "t_struct(Market)20914_storage": {
        "encoding": "inplace",
        "label": "struct ComptrollerV2Storage.Market",
        "members": [
          {
            "astId": 20907,
            "contract": "contracts/compound/Comptroller.sol:Comptroller",
            "label": "isListed",
            "offset": 0,
            "slot": "0",
            "type": "t_bool"
          },
          {
            "astId": 20909,
            "contract": "contracts/compound/Comptroller.sol:Comptroller",
            "label": "collateralFactorMantissa",
            "offset": 0,
            "slot": "1",
            "type": "t_uint256"
          },
          {
            "astId": 20913,
            "contract": "contracts/compound/Comptroller.sol:Comptroller",
            "label": "accountMembership",
            "offset": 0,
            "slot": "2",
            "type": "t_mapping(t_address,t_bool)"
          }
        ],
        "numberOfBytes": "96"
      },
      "t_uint256": {
        "encoding": "inplace",
        "label": "uint256",
        "numberOfBytes": "32"
      }
    }
  }
}