{
  "address": "0xBcb0D746ee1d4c0ff67fC720006214568ef669D9",
  "abi": [
    {
      "anonymous": false,
      "inputs": [
        {
          "indexed": true,
          "internalType": "address",
          "name": "previousOwner",
          "type": "address"
        },
        {
          "indexed": true,
          "internalType": "address",
          "name": "newOwner",
          "type": "address"
        }
      ],
      "name": "OwnershipTransferred",
      "type": "event"
    },
    {
      "inputs": [
        {
          "internalType": "address[]",
          "name": "targets",
          "type": "address[]"
        },
        {
          "internalType": "bytes[]",
          "name": "data",
          "type": "bytes[]"
        }
      ],
      "name": "_callPool",
      "outputs": [],
      "stateMutability": "nonpayable",
      "type": "function"
    },
    {
      "inputs": [
        {
          "internalType": "address[]",
          "name": "targets",
          "type": "address[]"
        },
        {
          "internalType": "bytes",
          "name": "data",
          "type": "bytes"
        }
      ],
      "name": "_callPool",
      "outputs": [],
      "stateMutability": "nonpayable",
      "type": "function"
    },
    {
      "inputs": [
        {
          "internalType": "address[]",
          "name": "oldImplementations",
          "type": "address[]"
        },
        {
          "internalType": "address[]",
          "name": "newImplementations",
          "type": "address[]"
        },
        {
          "internalType": "bool[]",
          "name": "allowResign",
          "type": "bool[]"
        },
        {
          "internalType": "bool[]",
          "name": "statuses",
          "type": "bool[]"
        }
      ],
      "name": "_editCErc20DelegateWhitelist",
      "outputs": [],
      "stateMutability": "nonpayable",
      "type": "function"
    },
    {
      "inputs": [
        {
          "internalType": "address[]",
          "name": "oldImplementations",
          "type": "address[]"
        },
        {
          "internalType": "address[]",
          "name": "newImplementations",
          "type": "address[]"
        },
        {
          "internalType": "bool[]",
          "name": "allowResign",
          "type": "bool[]"
        },
        {
          "internalType": "bool[]",
          "name": "statuses",
          "type": "bool[]"
        }
      ],
      "name": "_editCEtherDelegateWhitelist",
      "outputs": [],
      "stateMutability": "nonpayable",
      "type": "function"
    },
    {
      "inputs": [
        {
          "internalType": "address[]",
          "name": "oldImplementations",
          "type": "address[]"
        },
        {
          "internalType": "address[]",
          "name": "newImplementations",
          "type": "address[]"
        },
        {
          "internalType": "bool[]",
          "name": "statuses",
          "type": "bool[]"
        }
      ],
      "name": "_editComptrollerImplementationWhitelist",
      "outputs": [],
      "stateMutability": "nonpayable",
      "type": "function"
    },
    {
      "inputs": [
        {
          "internalType": "address",
          "name": "",
          "type": "address"
        }
      ],
      "name": "_latestCErc20Delegate",
      "outputs": [
        {
          "internalType": "address",
          "name": "implementation",
          "type": "address"
        },
        {
          "internalType": "bool",
          "name": "allowResign",
          "type": "bool"
        },
        {
          "internalType": "bytes",
          "name": "becomeImplementationData",
          "type": "bytes"
        }
      ],
      "stateMutability": "view",
      "type": "function"
    },
    {
      "inputs": [
        {
          "internalType": "address",
          "name": "",
          "type": "address"
        }
      ],
      "name": "_latestCEtherDelegate",
      "outputs": [
        {
          "internalType": "address",
          "name": "implementation",
          "type": "address"
        },
        {
          "internalType": "bool",
          "name": "allowResign",
          "type": "bool"
        },
        {
          "internalType": "bytes",
          "name": "becomeImplementationData",
          "type": "bytes"
        }
      ],
      "stateMutability": "view",
      "type": "function"
    },
    {
      "inputs": [
        {
          "internalType": "address",
          "name": "comptroller",
          "type": "address"
        },
        {
          "internalType": "int256",
          "name": "rate",
          "type": "int256"
        }
      ],
      "name": "_setCustomInterestFeeRate",
      "outputs": [],
      "stateMutability": "nonpayable",
      "type": "function"
    },
    {
      "inputs": [
        {
          "internalType": "uint256",
          "name": "_defaultInterestFeeRate",
          "type": "uint256"
        }
      ],
      "name": "_setDefaultInterestFeeRate",
      "outputs": [],
      "stateMutability": "nonpayable",
      "type": "function"
    },
    {
      "inputs": [
        {
          "internalType": "address",
          "name": "oldImplementation",
          "type": "address"
        },
        {
          "internalType": "address",
          "name": "newImplementation",
          "type": "address"
        },
        {
          "internalType": "bool",
          "name": "allowResign",
          "type": "bool"
        },
        {
          "internalType": "bytes",
          "name": "becomeImplementationData",
          "type": "bytes"
        }
      ],
      "name": "_setLatestCErc20Delegate",
      "outputs": [],
      "stateMutability": "nonpayable",
      "type": "function"
    },
    {
      "inputs": [
        {
          "internalType": "address",
          "name": "oldImplementation",
          "type": "address"
        },
        {
          "internalType": "address",
          "name": "newImplementation",
          "type": "address"
        },
        {
          "internalType": "bool",
          "name": "allowResign",
          "type": "bool"
        },
        {
          "internalType": "bytes",
          "name": "becomeImplementationData",
          "type": "bytes"
        }
      ],
      "name": "_setLatestCEtherDelegate",
      "outputs": [],
      "stateMutability": "nonpayable",
      "type": "function"
    },
    {
      "inputs": [
        {
          "internalType": "address",
          "name": "oldImplementation",
          "type": "address"
        },
        {
          "internalType": "address",
          "name": "newImplementation",
          "type": "address"
        }
      ],
      "name": "_setLatestComptrollerImplementation",
      "outputs": [],
      "stateMutability": "nonpayable",
      "type": "function"
    },
    {
      "inputs": [
        {
          "internalType": "uint256",
          "name": "_minBorrowEth",
          "type": "uint256"
        },
        {
          "internalType": "uint256",
          "name": "_maxSupplyEth",
          "type": "uint256"
        },
        {
          "internalType": "uint256",
          "name": "_maxUtilizationRate",
          "type": "uint256"
        }
      ],
      "name": "_setPoolLimits",
      "outputs": [],
      "stateMutability": "nonpayable",
      "type": "function"
    },
    {
      "inputs": [
        {
          "internalType": "address",
          "name": "erc20Contract",
          "type": "address"
        }
      ],
      "name": "_withdrawAssets",
      "outputs": [],
      "stateMutability": "nonpayable",
      "type": "function"
    },
    {
      "inputs": [
        {
          "internalType": "address",
          "name": "",
          "type": "address"
        },
        {
          "internalType": "address",
          "name": "",
          "type": "address"
        },
        {
          "internalType": "bool",
          "name": "",
          "type": "bool"
        }
      ],
      "name": "cErc20DelegateWhitelist",
      "outputs": [
        {
          "internalType": "bool",
          "name": "",
          "type": "bool"
        }
      ],
      "stateMutability": "view",
      "type": "function"
    },
    {
      "inputs": [
        {
          "internalType": "address",
          "name": "",
          "type": "address"
        },
        {
          "internalType": "address",
          "name": "",
          "type": "address"
        },
        {
          "internalType": "bool",
          "name": "",
          "type": "bool"
        }
      ],
      "name": "cEtherDelegateWhitelist",
      "outputs": [
        {
          "internalType": "bool",
          "name": "",
          "type": "bool"
        }
      ],
      "stateMutability": "view",
      "type": "function"
    },
    {
      "inputs": [
        {
          "internalType": "address",
          "name": "",
          "type": "address"
        },
        {
          "internalType": "address",
          "name": "",
          "type": "address"
        }
      ],
      "name": "comptrollerImplementationWhitelist",
      "outputs": [
        {
          "internalType": "bool",
          "name": "",
          "type": "bool"
        }
      ],
      "stateMutability": "view",
      "type": "function"
    },
    {
      "inputs": [
        {
          "internalType": "address",
          "name": "",
          "type": "address"
        }
      ],
      "name": "customInterestFeeRates",
      "outputs": [
        {
          "internalType": "int256",
          "name": "",
          "type": "int256"
        }
      ],
      "stateMutability": "view",
      "type": "function"
    },
    {
      "inputs": [],
      "name": "defaultInterestFeeRate",
      "outputs": [
        {
          "internalType": "uint256",
          "name": "",
          "type": "uint256"
        }
      ],
      "stateMutability": "view",
      "type": "function"
    },
    {
      "inputs": [
        {
          "internalType": "bytes",
          "name": "constructorData",
          "type": "bytes"
        }
      ],
      "name": "deployCErc20",
      "outputs": [
        {
          "internalType": "address",
          "name": "",
          "type": "address"
        }
      ],
      "stateMutability": "nonpayable",
      "type": "function"
    },
    {
      "inputs": [
        {
          "internalType": "bytes",
          "name": "constructorData",
          "type": "bytes"
        }
      ],
      "name": "deployCEther",
      "outputs": [
        {
          "internalType": "address",
          "name": "",
          "type": "address"
        }
      ],
      "stateMutability": "nonpayable",
      "type": "function"
    },
    {
      "inputs": [
        {
          "internalType": "uint256",
          "name": "_defaultInterestFeeRate",
          "type": "uint256"
        }
      ],
      "name": "initialize",
      "outputs": [],
      "stateMutability": "nonpayable",
      "type": "function"
    },
    {
      "inputs": [],
      "name": "interestFeeRate",
      "outputs": [
        {
          "internalType": "uint256",
          "name": "",
          "type": "uint256"
        }
      ],
      "stateMutability": "view",
      "type": "function"
    },
    {
      "inputs": [
        {
          "internalType": "address",
          "name": "oldImplementation",
          "type": "address"
        }
      ],
      "name": "latestCErc20Delegate",
      "outputs": [
        {
          "internalType": "address",
          "name": "",
          "type": "address"
        },
        {
          "internalType": "bool",
          "name": "",
          "type": "bool"
        },
        {
          "internalType": "bytes",
          "name": "",
          "type": "bytes"
        }
      ],
      "stateMutability": "view",
      "type": "function"
    },
    {
      "inputs": [
        {
          "internalType": "address",
          "name": "oldImplementation",
          "type": "address"
        }
      ],
      "name": "latestCEtherDelegate",
      "outputs": [
        {
          "internalType": "address",
          "name": "",
          "type": "address"
        },
        {
          "internalType": "bool",
          "name": "",
          "type": "bool"
        },
        {
          "internalType": "bytes",
          "name": "",
          "type": "bytes"
        }
      ],
      "stateMutability": "view",
      "type": "function"
    },
    {
      "inputs": [
        {
          "internalType": "address",
          "name": "oldImplementation",
          "type": "address"
        }
      ],
      "name": "latestComptrollerImplementation",
      "outputs": [
        {
          "internalType": "address",
          "name": "",
          "type": "address"
        }
      ],
      "stateMutability": "view",
      "type": "function"
    },
    {
      "inputs": [],
      "name": "maxSupplyEth",
      "outputs": [
        {
          "internalType": "uint256",
          "name": "",
          "type": "uint256"
        }
      ],
      "stateMutability": "view",
      "type": "function"
    },
    {
      "inputs": [],
      "name": "maxUtilizationRate",
      "outputs": [
        {
          "internalType": "uint256",
          "name": "",
          "type": "uint256"
        }
      ],
      "stateMutability": "view",
      "type": "function"
    },
    {
      "inputs": [],
      "name": "minBorrowEth",
      "outputs": [
        {
          "internalType": "uint256",
          "name": "",
          "type": "uint256"
        }
      ],
      "stateMutability": "view",
      "type": "function"
    },
    {
      "inputs": [],
      "name": "owner",
      "outputs": [
        {
          "internalType": "address",
          "name": "",
          "type": "address"
        }
      ],
      "stateMutability": "view",
      "type": "function"
    },
    {
      "inputs": [],
      "name": "renounceOwnership",
      "outputs": [],
      "stateMutability": "nonpayable",
      "type": "function"
    },
    {
      "inputs": [
        {
          "internalType": "address",
          "name": "newOwner",
          "type": "address"
        }
      ],
      "name": "transferOwnership",
      "outputs": [],
      "stateMutability": "nonpayable",
      "type": "function"
    },
    {
      "stateMutability": "payable",
      "type": "receive"
    }
  ],
  "transactionHash": "0xa20fbfe8aa50d9a044749a937d3fe81c08c7263d526ae7bc1ea740ed89f56a4d",
  "args": [],
  "solcInputHash": "40c3ddb55fcc04554bfc6115ecedc77a",
  "bytecode": "0x608060405234801561001057600080fd5b50613fdb806100206000396000f3fe608060405260043610620002175760003560e01c8063930d2438116200011b578063c5232b4711620000a3578063e35a4801116200006d578063e35a4801146200062b578063f2fde38b1462000650578063fdb25fb11462000675578063fe4b84df146200068d576200021f565b8063c5232b4714620005b1578063d64517b214620005d6578063dd86fea114620005fb578063dfcb48bd1462000613576200021f565b8063a430e61711620000e5578063a430e617146200051d578063b01b86fd1462000542578063bbcdd6d31462000567578063c11cd440146200058c576200021f565b8063930d243814620004965780639b86a9b514620004bb5780639c7be70814620004e05780639d244f9f14620004f8576200021f565b8063715018a6116200019f5780638754e4fd11620001695780638754e4fd14620004005780638abe0b7514620004345780638d3bb8ef14620004595780638da5cb5b146200047e576200021f565b8063715018a6146200036857806371cd40e6146200038057806375365b8714620003b457806384651d7314620003d9576200021f565b80632acbff3911620001e15780632acbff3914620002d45780632f876d3214620002f95780633465b6e1146200031e57806345cc97051462000343576200021f565b806301758fc214620002245780630284db76146200024b57806306bc4611146200028a578063183a3f7214620002af576200021f565b366200021f57005b600080fd5b3480156200023157600080fd5b5062000249620002433660046200284f565b620006b2565b005b3480156200025857600080fd5b50620002706200026a36600462002624565b62000882565b604051620002819392919062002b35565b60405180910390f35b3480156200029757600080fd5b5062000249620002a936600462002781565b62000944565b348015620002bc57600080fd5b5062000270620002ce36600462002624565b620009f3565b348015620002e157600080fd5b5062000249620002f33660046200291b565b62000a7f565b3480156200030657600080fd5b50620002496200031836600462002a82565b62000bc2565b3480156200032b57600080fd5b50620002496200033d36600462002624565b62000c38565b3480156200035057600080fd5b50620002706200036236600462002624565b62000dce565b3480156200037557600080fd5b506200024962000eed565b3480156200038d57600080fd5b50620003a56200039f366004620026b2565b62000f9f565b60405162000281919062002b82565b348015620003c157600080fd5b5062000249620003d3366004620026ff565b62000fc5565b348015620003e657600080fd5b50620003f1620010f5565b60405162000281919062002b8d565b3480156200040d57600080fd5b50620004256200041f36600462002a0c565b620010fb565b60405162000281919062002b21565b3480156200044157600080fd5b50620002706200045336600462002624565b620011e7565b3480156200046657600080fd5b506200024962000478366004620027af565b62001291565b3480156200048b57600080fd5b50620004256200140b565b348015620004a357600080fd5b5062000249620004b53660046200269f565b6200141b565b348015620004c857600080fd5b5062000425620004da36600462002a0c565b620014b1565b348015620004ed57600080fd5b50620003f162001599565b3480156200050557600080fd5b50620003a5620005173660046200269f565b6200159f565b3480156200052a57600080fd5b50620002496200053c366004620026ff565b620015bf565b3480156200054f57600080fd5b5062000249620005613660046200298b565b620016e5565b3480156200057457600080fd5b50620004256200058636600462002624565b620017cd565b3480156200059957600080fd5b50620003a5620005ab366004620026b2565b6200181a565b348015620005be57600080fd5b50620003f1620005d036600462002624565b62001840565b348015620005e357600080fd5b5062000249620005f53660046200284f565b62001852565b3480156200060857600080fd5b50620003f162001a0e565b3480156200062057600080fd5b50620003f162001b16565b3480156200063857600080fd5b50620002496200064a36600462002a50565b62001b1c565b3480156200065d57600080fd5b50620002496200066f36600462002624565b62001bb4565b3480156200068257600080fd5b50620003f162001cbf565b3480156200069a57600080fd5b5062000249620006ac36600462002a50565b62001cc5565b620006bc62001db5565b6001600160a01b0316620006cf6200140b565b6001600160a01b0316146200071a576040805162461bcd60e51b8152602060048201819052602482015260008051602062003f5c833981519152604482015290519081900360640190fd5b84158015906200072957508487145b80156200073557508483145b80156200074157508481145b620007695760405162461bcd60e51b8152600401620007609062002c4a565b60405180910390fd5b60005b8581101562000877578282828181106200078257fe5b9050602002016020810190620007999190620029ef565b606a60008b8b85818110620007aa57fe5b9050602002016020810190620007c1919062002624565b6001600160a01b03166001600160a01b031681526020019081526020016000206000898985818110620007f057fe5b905060200201602081019062000807919062002624565b6001600160a01b03166001600160a01b0316815260200190815260200160002060008787858181106200083657fe5b90506020020160208101906200084d9190620029ef565b151581526020810191909152604001600020805460ff19169115159190911790556001016200076c565b505050505050505050565b606e602090815260009182526040918290208054600180830180548651600261010094831615949094026000190190911692909204601f81018690048602830186019096528582526001600160a01b03831695600160a01b90930460ff1694919290918301828280156200093a5780601f106200090e576101008083540402835291602001916200093a565b820191906000526020600020905b8154815290600101906020018083116200091c57829003601f168201915b5050505050905083565b6200094e62001db5565b6001600160a01b0316620009616200140b565b6001600160a01b031614620009ac576040805162461bcd60e51b8152602060048201819052602482015260008051602062003f5c833981519152604482015290519081900360640190fd5b670de0b6b3a7640000811315620009d75760405162461bcd60e51b8152600401620007609062002b96565b6001600160a01b039091166000908152606f6020526040902055565b606d602090815260009182526040918290208054600180830180548651600261010094831615949094026000190190911692909204601f81018690048602830186019096528582526001600160a01b03831695600160a01b90930460ff1694919290918301828280156200093a5780601f106200090e576101008083540402835291602001916200093a565b62000a8962001db5565b6001600160a01b031662000a9c6200140b565b6001600160a01b03161462000ae7576040805162461bcd60e51b8152602060048201819052602482015260008051602062003f5c833981519152604482015290519081900360640190fd5b821580159062000af657508281145b62000b155760405162461bcd60e51b8152600401620007609062002dc2565b60005b8381101562000bbb5762000bb183838381811062000b3257fe5b905060200281019062000b46919062002eb4565b8080601f01602080910402602001604051908101604052809392919081815260200183838082843760009201919091525089925088915085905081811062000b8a57fe5b905060200201602081019062000ba1919062002624565b6001600160a01b03169062001db9565b5060010162000b18565b5050505050565b62000bcc62001db5565b6001600160a01b031662000bdf6200140b565b6001600160a01b03161462000c2a576040805162461bcd60e51b8152602060048201819052602482015260008051602062003f5c833981519152604482015290519081900360640190fd5b606692909255606755606855565b6001600160a01b03811662000cfc57478062000c685760405162461bcd60e51b8152600401620007609062002d81565b600062000c746200140b565b6001600160a01b03168260405162000c8c9062001418565b60006040518083038185875af1925050503d806000811462000ccb576040519150601f19603f3d011682016040523d82523d6000602084013e62000cd0565b606091505b505090508062000cf45760405162461bcd60e51b8152600401620007609062002ced565b505062000dcb565b6040516370a0823160e01b815281906000906001600160a01b038316906370a082319062000d2f90309060040162002b21565b60206040518083038186803b15801562000d4857600080fd5b505afa15801562000d5d573d6000803e3d6000fd5b505050506040513d601f19601f8201168201806040525081019062000d83919062002a69565b90506000811162000da85760405162461bcd60e51b8152600401620007609062002d3a565b62000dc862000db66200140b565b6001600160a01b038416908362001e04565b50505b50565b6001600160a01b038181166000908152606d6020908152604080832081516060808201845282549687168252600160a01b90960460ff16151581850152600180830180548551600261010094831615949094026000190190911692909204601f81018790048702830187018652808352969788979096889694959486019392919083018282801562000ea45780601f1062000e785761010080835404028352916020019162000ea4565b820191906000526020600020905b81548152906001019060200180831162000e8657829003601f168201915b50505091909252505081519192506060916001600160a01b03161515905062000ed1578560008262000ede565b8151602083015160408401515b94509450945050509193909250565b62000ef762001db5565b6001600160a01b031662000f0a6200140b565b6001600160a01b03161462000f55576040805162461bcd60e51b8152602060048201819052602482015260008051602062003f5c833981519152604482015290519081900360640190fd5b6033546040516000916001600160a01b0316907f8be0079c531659141344cd1fd0a4f28419497f9722a3daafe3b4186f6b6457e0908390a3603380546001600160a01b0319169055565b606a60209081526000938452604080852082529284528284209052825290205460ff1681565b62000fcf62001db5565b6001600160a01b031662000fe26200140b565b6001600160a01b0316146200102d576040805162461bcd60e51b8152602060048201819052602482015260008051602062003f5c833981519152604482015290519081900360640190fd5b6040518060600160405280856001600160a01b03168152602001841515815260200183838080601f01602080910402602001604051908101604052809392919081815260200183838082843760009201829052509390945250506001600160a01b038089168252606d602090815260409283902085518154878401511515600160a01b0260ff60a01b19929095166001600160a01b03199091161716929092178255918401518051919350620010eb926001850192910190620024bc565b5050505050505050565b60655481565b600080806200110e604082868862002efc565b8101906200111d919062002662565b90925090506001600160a01b03811633146200114d5760405162461bcd60e51b8152600401620007609062002cb6565b6000338343604051602001620011669392919062002aae565b604051602081830303815290604052805190602001209050600060405180602001620011929062002551565b601f1982820381018352601f909101166040819052620011ba91908990899060200162002afa565b60405160208183030381529060405290506000620011db6000848462001e58565b98975050505050505050565b6001600160a01b038181166000908152606e6020908152604080832081516060808201845282549687168252600160a01b90960460ff16151581850152600180830180548551600261010094831615949094026000190190911692909204601f81018790048702830187018652808352969788979096889694959486019392919083018282801562000ea45780601f1062000e785761010080835404028352916020019162000ea4565b6200129b62001db5565b6001600160a01b0316620012ae6200140b565b6001600160a01b031614620012f9576040805162461bcd60e51b8152602060048201819052602482015260008051602062003f5c833981519152604482015290519081900360640190fd5b82158015906200130857508285145b80156200131457508281145b620013335760405162461bcd60e51b8152600401620007609062002be1565b60005b8381101562001402578282828181106200134c57fe5b9050602002016020810190620013639190620029ef565b606960008989858181106200137457fe5b90506020020160208101906200138b919062002624565b6001600160a01b03166001600160a01b031681526020019081526020016000206000878785818110620013ba57fe5b9050602002016020810190620013d1919062002624565b6001600160a01b031681526020810191909152604001600020805460ff191691151591909117905560010162001336565b50505050505050565b6033546001600160a01b03165b90565b6200142562001db5565b6001600160a01b0316620014386200140b565b6001600160a01b03161462001483576040805162461bcd60e51b8152602060048201819052602482015260008051602062003f5c833981519152604482015290519081900360640190fd5b6001600160a01b039182166000908152606c6020526040902080546001600160a01b03191691909216179055565b600080620014c3602082858762002efc565b810190620014d2919062002624565b90506001600160a01b0381163314620014ff5760405162461bcd60e51b8152600401620007609062002cb6565b600033600043604051602001620015199392919062002aae565b60405160208183030381529060405280519060200120905060006040518060200162001545906200255f565b601f1982820381018352601f9091011660408190526200156d91908890889060200162002afa565b604051602081830303815290604052905060006200158e6000848462001e58565b979650505050505050565b60675481565b606960209081526000928352604080842090915290825290205460ff1681565b620015c962001db5565b6001600160a01b0316620015dc6200140b565b6001600160a01b03161462001627576040805162461bcd60e51b8152602060048201819052602482015260008051602062003f5c833981519152604482015290519081900360640190fd5b6040518060600160405280856001600160a01b03168152602001841515815260200183838080601f01602080910402602001604051908101604052809392919081815260200183838082843760009201829052509390945250506001600160a01b038089168252606e602090815260409283902085518154878401511515600160a01b0260ff60a01b19929095166001600160a01b03199091161716929092178255918401518051919350620010eb926001850192910190620024bc565b620016ef62001db5565b6001600160a01b0316620017026200140b565b6001600160a01b0316146200174d576040805162461bcd60e51b8152602060048201819052602482015260008051602062003f5c833981519152604482015290519081900360640190fd5b826200176d5760405162461bcd60e51b8152600401620007609062002e11565b60005b8381101562000bbb57620017c383838080601f01602080910402602001604051908101604052809392919081815260200183838082843760009201919091525089925088915085905081811062000b8a57fe5b5060010162001770565b6001600160a01b038181166000908152606c6020526040812054909116620017f6578162001812565b6001600160a01b038083166000908152606c6020526040902054165b90505b919050565b606b60209081526000938452604080852082529284528284209052825290205460ff1681565b606f6020526000908152604090205481565b6200185c62001db5565b6001600160a01b03166200186f6200140b565b6001600160a01b031614620018ba576040805162461bcd60e51b8152602060048201819052602482015260008051602062003f5c833981519152604482015290519081900360640190fd5b8415801590620018c957508487145b8015620018d557508483145b8015620018e157508481145b620019005760405162461bcd60e51b8152600401620007609062002e48565b60005b8581101562000877578282828181106200191957fe5b9050602002016020810190620019309190620029ef565b606b60008b8b858181106200194157fe5b905060200201602081019062001958919062002624565b6001600160a01b03166001600160a01b0316815260200190815260200160002060008989858181106200198757fe5b90506020020160208101906200199e919062002624565b6001600160a01b03166001600160a01b031681526020019081526020016000206000878785818110620019cd57fe5b9050602002016020810190620019e49190620029ef565b151581526020810191909152604001600020805460ff191691151591909117905560010162001903565b60408051600481526024810182526020810180516001600160e01b0316635fe3b56760e01b179052905160009182918291339162001a4d919062002adc565b600060405180830381855afa9150503d806000811462001a8a576040519150601f19603f3d011682016040523d82523d6000602084013e62001a8f565b606091505b509150915081801562001aa3575080516020145b1562001b0c5760008180602001905181019062001ac1919062002643565b6001600160a01b0381166000908152606f602052604081205491925081131562001af15793506200141892505050565b600081121562001b0957600094505050505062001418565b50505b6065549250505090565b60685481565b62001b2662001db5565b6001600160a01b031662001b396200140b565b6001600160a01b03161462001b84576040805162461bcd60e51b8152602060048201819052602482015260008051602062003f5c833981519152604482015290519081900360640190fd5b670de0b6b3a764000081111562001baf5760405162461bcd60e51b8152600401620007609062002b96565b606555565b62001bbe62001db5565b6001600160a01b031662001bd16200140b565b6001600160a01b03161462001c1c576040805162461bcd60e51b8152602060048201819052602482015260008051602062003f5c833981519152604482015290519081900360640190fd5b6001600160a01b03811662001c635760405162461bcd60e51b815260040180806020018281038252602681526020018062003ee26026913960400191505060405180910390fd5b6033546040516001600160a01b038084169216907f8be0079c531659141344cd1fd0a4f28419497f9722a3daafe3b4186f6b6457e090600090a3603380546001600160a01b0319166001600160a01b0392909216919091179055565b60665481565b600054610100900460ff168062001ce1575062001ce162001f74565b8062001cf0575060005460ff16155b62001d2d5760405162461bcd60e51b815260040180806020018281038252602e81526020018062003f2e602e913960400191505060405180910390fd5b600054610100900460ff1615801562001d59576000805460ff1961ff0019909116610100171660011790555b670de0b6b3a764000082111562001d845760405162461bcd60e51b8152600401620007609062002b96565b62001d8e62001f87565b60658290556000196067819055606855801562001db1576000805461ff00191690555b5050565b3390565b606062001dfd83836040518060400160405280601e81526020017f416464726573733a206c6f772d6c6576656c2063616c6c206661696c6564000081525062002044565b9392505050565b604080516001600160a01b038416602482015260448082018490528251808303909101815260649091019091526020810180516001600160e01b031663a9059cbb60e01b17905262000dc890849062002055565b6000808447101562001eb1576040805162461bcd60e51b815260206004820152601d60248201527f437265617465323a20696e73756666696369656e742062616c616e6365000000604482015290519081900360640190fd5b825162001f05576040805162461bcd60e51b815260206004820181905260248201527f437265617465323a2062797465636f6465206c656e677468206973207a65726f604482015290519081900360640190fd5b8383516020850187f590506001600160a01b03811662001f6c576040805162461bcd60e51b815260206004820152601960248201527f437265617465323a204661696c6564206f6e206465706c6f7900000000000000604482015290519081900360640190fd5b949350505050565b600062001f81306200210c565b15905090565b600054610100900460ff168062001fa3575062001fa362001f74565b8062001fb2575060005460ff16155b62001fef5760405162461bcd60e51b815260040180806020018281038252602e81526020018062003f2e602e913960400191505060405180910390fd5b600054610100900460ff161580156200201b576000805460ff1961ff0019909116610100171660011790555b6200202562002112565b6200202f620021ba565b801562000dcb576000805461ff001916905550565b606062001f6c8484600085620022bd565b6000620020ac826040518060400160405280602081526020017f5361666545524332303a206c6f772d6c6576656c2063616c6c206661696c6564815250856001600160a01b0316620020449092919063ffffffff16565b80519091501562000dc857808060200190516020811015620020cd57600080fd5b505162000dc85760405162461bcd60e51b815260040180806020018281038252602a81526020018062003f7c602a913960400191505060405180910390fd5b3b151590565b600054610100900460ff16806200212e57506200212e62001f74565b806200213d575060005460ff16155b6200217a5760405162461bcd60e51b815260040180806020018281038252602e81526020018062003f2e602e913960400191505060405180910390fd5b600054610100900460ff161580156200202f576000805460ff1961ff001990911661010017166001179055801562000dcb576000805461ff001916905550565b600054610100900460ff1680620021d65750620021d662001f74565b80620021e5575060005460ff16155b620022225760405162461bcd60e51b815260040180806020018281038252602e81526020018062003f2e602e913960400191505060405180910390fd5b600054610100900460ff161580156200224e576000805460ff1961ff0019909116610100171660011790555b60006200225a62001db5565b603380546001600160a01b0319166001600160a01b038316908117909155604051919250906000907f8be0079c531659141344cd1fd0a4f28419497f9722a3daafe3b4186f6b6457e0908290a350801562000dcb576000805461ff001916905550565b606082471015620023005760405162461bcd60e51b815260040180806020018281038252602681526020018062003f086026913960400191505060405180910390fd5b6200230b856200210c565b6200235d576040805162461bcd60e51b815260206004820152601d60248201527f416464726573733a2063616c6c20746f206e6f6e2d636f6e7472616374000000604482015290519081900360640190fd5b600080866001600160a01b031685876040518082805190602001908083835b602083106200239d5780518252601f1990920191602091820191016200237c565b6001836020036101000a03801982511681845116808217855250505050505090500191505060006040518083038185875af1925050503d806000811462002401576040519150601f19603f3d011682016040523d82523d6000602084013e62002406565b606091505b50915091506200158e828286606083156200242357508162001dfd565b825115620024345782518084602001fd5b8160405162461bcd60e51b81526004018080602001828103825283818151815260200191508051906020019080838360005b838110156200248057818101518382015260200162002466565b50505050905090810190601f168015620024ae5780820380516001836020036101000a031916815260200191505b509250505060405180910390fd5b828054600181600116156101000203166002900490600052602060002090601f016020900481019282620024f457600085556200253f565b82601f106200250f57805160ff19168380011785556200253f565b828001600101855582156200253f579182015b828111156200253f57825182559160200191906001019062002522565b506200254d9291506200256d565b5090565b6108008062002f7083390190565b610772806200377083390190565b5b808211156200254d57600081556001016200256e565b60008083601f84011262002596578182fd5b50813567ffffffffffffffff811115620025ae578182fd5b6020830191508360208083028501011115620025c957600080fd5b9250929050565b803580151581146200181557600080fd5b60008083601f840112620025f3578182fd5b50813567ffffffffffffffff8111156200260b578182fd5b602083019150836020828501011115620025c957600080fd5b60006020828403121562002636578081fd5b813562001dfd8162002f59565b60006020828403121562002655578081fd5b815162001dfd8162002f59565b6000806040838503121562002675578081fd5b8235620026828162002f59565b91506020830135620026948162002f59565b809150509250929050565b6000806040838503121562002675578182fd5b600080600060608486031215620026c7578081fd5b8335620026d48162002f59565b92506020840135620026e68162002f59565b9150620026f660408501620025d0565b90509250925092565b60008060008060006080868803121562002717578081fd5b8535620027248162002f59565b94506020860135620027368162002f59565b93506200274660408701620025d0565b9250606086013567ffffffffffffffff81111562002762578182fd5b6200277088828901620025e1565b969995985093965092949392505050565b6000806040838503121562002794578182fd5b8235620027a18162002f59565b946020939093013593505050565b60008060008060008060608789031215620027c8578081fd5b863567ffffffffffffffff80821115620027e0578283fd5b620027ee8a838b0162002584565b9098509650602089013591508082111562002807578283fd5b620028158a838b0162002584565b909650945060408901359150808211156200282e578283fd5b506200283d89828a0162002584565b979a9699509497509295939492505050565b6000806000806000806000806080898b0312156200286b578182fd5b883567ffffffffffffffff8082111562002883578384fd5b620028918c838d0162002584565b909a50985060208b0135915080821115620028aa578384fd5b620028b88c838d0162002584565b909850965060408b0135915080821115620028d1578384fd5b620028df8c838d0162002584565b909650945060608b0135915080821115620028f8578384fd5b50620029078b828c0162002584565b999c989b5096995094979396929594505050565b6000806000806040858703121562002931578182fd5b843567ffffffffffffffff8082111562002949578384fd5b620029578883890162002584565b9096509450602087013591508082111562002970578384fd5b506200297f8782880162002584565b95989497509550505050565b60008060008060408587031215620029a1578182fd5b843567ffffffffffffffff80821115620029b9578384fd5b620029c78883890162002584565b90965094506020870135915080821115620029e0578384fd5b506200297f87828801620025e1565b60006020828403121562002a01578081fd5b62001dfd82620025d0565b6000806020838503121562002a1f578182fd5b823567ffffffffffffffff81111562002a36578283fd5b62002a4485828601620025e1565b90969095509350505050565b60006020828403121562002a62578081fd5b5035919050565b60006020828403121562002a7b578081fd5b5051919050565b60008060006060848603121562002a97578081fd5b505081359360208301359350604090920135919050565b6bffffffffffffffffffffffff19606094851b811682529290931b9091166014830152602882015260480190565b6000825162002af081846020870162002f26565b9190910192915050565b6000845162002b0e81846020890162002f26565b8201838582379092019182525092915050565b6001600160a01b0391909116815260200190565b600060018060a01b0385168252831515602083015260606040830152825180606084015262002b6c81608085016020870162002f26565b601f01601f191691909101608001949350505050565b901515815260200190565b90815260200190565b6020808252602b908201527f496e7465726573742066656520726174652063616e6e6f74206265206d6f726560408201526a103a3430b710189818129760a91b606082015260800190565b60208082526043908201527f4e6f20436f6d7074726f6c6c657220696d706c656d656e746174696f6e73207360408201527f7570706c696564206f72206172726179206c656e67746873206e6f742065717560608201526230b61760e91b608082015260a00190565b60208082526046908201527f4e6f2043457263323044656c656761746520696d706c656d656e746174696f6e60408201527f7320737570706c696564206f72206172726179206c656e67746873206e6f742060608201526532b8bab0b61760d11b608082015260a00190565b6020808252601a908201527f436f6d7074726f6c6c6572206973206e6f742073656e6465722e000000000000604082015260600190565b6020808252602d908201527f4661696c656420746f207472616e73666572204554482062616c616e6365207460408201526c379036b9b39739b2b73232b91760991b606082015260800190565b60208082526027908201527f4e6f20746f6b656e2062616c616e636520617661696c61626c6520746f2077696040820152663a34323930bb9760c91b606082015260800190565b60208082526021908201527f4e6f2062616c616e636520617661696c61626c6520746f2077697468647261776040820152601760f91b606082015260800190565b6020808252602f908201527f4172726179206c656e67746873206d75737420626520657175616c20616e642060408201526e33b932b0ba32b9103a3430b710181760891b606082015260800190565b6020808252601e908201527f4e6f2074617267657420616464726573736573207370656369666965642e0000604082015260600190565b60208082526046908201527f4e6f2043457468657244656c656761746520696d706c656d656e746174696f6e60408201527f7320737570706c696564206f72206172726179206c656e67746873206e6f742060608201526532b8bab0b61760d11b608082015260a00190565b6000808335601e1984360301811262002ecb578283fd5b83018035915067ffffffffffffffff82111562002ee6578283fd5b602001915036819003821315620025c957600080fd5b6000808585111562002f0c578182fd5b8386111562002f19578182fd5b5050820193919092039150565b60005b8381101562002f4357818101518382015260200162002f29565b8381111562002f53576000848401525b50505050565b6001600160a01b038116811462000dcb57600080fdfe608060405234801561001057600080fd5b50604051610800380380610800833981810160405261012081101561003457600080fd5b81516020830151604080850151606086018051925194969395919493918201928464010000000082111561006757600080fd5b90830190602082018581111561007c57600080fd5b825164010000000081118282018810171561009657600080fd5b82525081516020918201929091019080838360005b838110156100c35781810151838201526020016100ab565b50505050905090810190601f1680156100f05780820380516001836020036101000a031916815260200191505b506040526020018051604051939291908464010000000082111561011357600080fd5b90830190602082018581111561012857600080fd5b825164010000000081118282018810171561014257600080fd5b82525081516020918201929091019080838360005b8381101561016f578181015183820152602001610157565b50505050905090810190601f16801561019c5780820380516001836020036101000a031916815260200191505b506040818152602083015192018051929491939192846401000000008211156101c457600080fd5b9083019060208201858111156101d957600080fd5b82516401000000008111828201881017156101f357600080fd5b82525081516020918201929091019080838360005b83811015610220578181015183820152602001610208565b50505050905090810190601f16801561024d5780820380516001836020036101000a031916815260200191505b5060405260200180519060200190929190805190602001909291905050506103c1848a8a8a8a8a888860405160240180886001600160a01b03168152602001876001600160a01b03168152602001866001600160a01b031681526020018060200180602001858152602001848152602001838103835287818151815260200191508051906020019080838360005b838110156102f35781810151838201526020016102db565b50505050905090810190601f1680156103205780820380516001836020036101000a031916815260200191505b50838103825286518152865160209182019188019080838360005b8381101561035357818101518382015260200161033b565b50505050905090810190601f1680156103805780820380516001836020036101000a031916815260200191505b5060408051601f198184030181529190526020810180516001600160e01b0390811663a0b0d28960e01b17909152909a506104991698505050505050505050565b5061048a848560008660405160240180846001600160a01b03168152602001831515815260200180602001828103825283818151815260200191508051906020019080838360005b83811015610421578181015183820152602001610409565b50505050905090810190601f16801561044e5780820380516001836020036101000a031916815260200191505b5060408051601f198184030181529190526020810180516001600160e01b039081166350d85b7360e01b17909152909550610499169350505050565b5050505050505050505061055a565b6060600080846001600160a01b0316846040518082805190602001908083835b602083106104d85780518252601f1990920191602091820191016104b9565b6001836020036101000a038019825116818451168082178552505050505050905001915050600060405180830381855af49150503d8060008114610538576040519150601f19603f3d011682016040523d82523d6000602084013e61053d565b606091505b50915091506000821415610552573d60208201fd5b949350505050565b610297806105696000396000f3fe6080604052600436106100225760003560e01c80635c60da1b1461012957610029565b3661002957005b34156100665760405162461bcd60e51b815260040180806020018281038252603781526020018061022b6037913960400191505060405180910390fd5b6000546040805160048152602481019091526020810180516001600160e01b031663076de25160e21b1790526100a5916001600160a01b03169061015a565b50600080546040516001600160a01b0390911690829036908083838082843760405192019450600093509091505080830381855af49150503d8060008114610109576040519150601f19603f3d011682016040523d82523d6000602084013e61010e565b606091505b505090506040513d6000823e818015610125573d82f35b3d82fd5b34801561013557600080fd5b5061013e61021b565b604080516001600160a01b039092168252519081900360200190f35b6060600080846001600160a01b0316846040518082805190602001908083835b602083106101995780518252601f19909201916020918201910161017a565b6001836020036101000a038019825116818451168082178552505050505050905001915050600060405180830381855af49150503d80600081146101f9576040519150601f19603f3d011682016040523d82523d6000602084013e6101fe565b606091505b50915091506000821415610213573d60208201fd5b949350505050565b6000546001600160a01b03168156fe43457263323044656c656761746f723a66616c6c6261636b3a2063616e6e6f742073656e642076616c756520746f2066616c6c6261636ba2646970667358221220d693f992384dc3f3163a504bd667848b2c80f570a9c8875829c13630cc18c1c664736f6c63430007060033608060405234801561001057600080fd5b50604051610772380380610772833981810160405261010081101561003457600080fd5b8151602083015160408085018051915193959294830192918464010000000082111561005f57600080fd5b90830190602082018581111561007457600080fd5b825164010000000081118282018810171561008e57600080fd5b82525081516020918201929091019080838360005b838110156100bb5781810151838201526020016100a3565b50505050905090810190601f1680156100e85780820380516001836020036101000a031916815260200191505b506040526020018051604051939291908464010000000082111561010b57600080fd5b90830190602082018581111561012057600080fd5b825164010000000081118282018810171561013a57600080fd5b82525081516020918201929091019080838360005b8381101561016757818101518382015260200161014f565b50505050905090810190601f1680156101945780820380516001836020036101000a031916815260200191505b506040818152602083015192018051929491939192846401000000008211156101bc57600080fd5b9083019060208201858111156101d157600080fd5b82516401000000008111828201881017156101eb57600080fd5b82525081516020918201929091019080838360005b83811015610218578181015183820152602001610200565b50505050905090810190601f1680156102455780820380516001836020036101000a031916815260200191505b5060405260200180519060200190929190805190602001909291905050506103a88489898989878760405160240180876001600160a01b03168152602001866001600160a01b031681526020018060200180602001858152602001848152602001838103835287818151815260200191508051906020019080838360005b838110156102db5781810151838201526020016102c3565b50505050905090810190601f1680156103085780820380516001836020036101000a031916815260200191505b50838103825286518152865160209182019188019080838360005b8381101561033b578181015183820152602001610323565b50505050905090810190601f1680156103685780820380516001836020036101000a031916815260200191505b5060408051601f198184030181529190526020810180516001600160e01b03908116631e70b25560e21b1790915290995061047f16975050505050505050565b50610471848560008660405160240180846001600160a01b03168152602001831515815260200180602001828103825283818151815260200191508051906020019080838360005b838110156104085781810151838201526020016103f0565b50505050905090810190601f1680156104355780820380516001836020036101000a031916815260200191505b5060408051601f198184030181529190526020810180516001600160e01b039081166350d85b7360e01b1790915290955061047f169350505050565b505050505050505050610540565b6060600080846001600160a01b0316846040518082805190602001908083835b602083106104be5780518252601f19909201916020918201910161049f565b6001836020036101000a038019825116818451168082178552505050505050905001915050600060405180830381855af49150503d806000811461051e576040519150601f19603f3d011682016040523d82523d6000602084013e610523565b606091505b50915091506000821415610538573d60208201fd5b949350505050565b6102238061054f6000396000f3fe6080604052600436106100225760003560e01c80635c60da1b146100ec57610029565b3661002957005b6000546040805160048152602481019091526020810180516001600160e01b031663076de25160e21b179052610068916001600160a01b03169061011d565b50600080546040516001600160a01b0390911690829036908083838082843760405192019450600093509091505080830381855af49150503d80600081146100cc576040519150601f19603f3d011682016040523d82523d6000602084013e6100d1565b606091505b505090506040513d6000823e8180156100e8573d82f35b3d82fd5b3480156100f857600080fd5b506101016101de565b604080516001600160a01b039092168252519081900360200190f35b6060600080846001600160a01b0316846040518082805190602001908083835b6020831061015c5780518252601f19909201916020918201910161013d565b6001836020036101000a038019825116818451168082178552505050505050905001915050600060405180830381855af49150503d80600081146101bc576040519150601f19603f3d011682016040523d82523d6000602084013e6101c1565b606091505b509150915060008214156101d6573d60208201fd5b949350505050565b6000546001600160a01b03168156fea26469706673582212208e0a8725c473c41090d14e7dd68cd3058d67fd9fb740aa5c4e2bc6fb0ca16fff64736f6c634300070600334f776e61626c653a206e6577206f776e657220697320746865207a65726f2061646472657373416464726573733a20696e73756666696369656e742062616c616e636520666f722063616c6c496e697469616c697a61626c653a20636f6e747261637420697320616c726561647920696e697469616c697a65644f776e61626c653a2063616c6c6572206973206e6f7420746865206f776e65725361666545524332303a204552433230206f7065726174696f6e20646964206e6f742073756363656564a2646970667358221220ef9ce7d52b66480833cf2ed8bd70961abd76c6b9d6ae20b53df64da669d20e0b64736f6c63430007060033",
  "devdoc": {
    "author": "David Lucid <david@rari.capital> (https://github.com/davidlucid)",
    "kind": "dev",
    "methods": {
      "_callPool(address[],bytes)": {
        "details": "Sends data to a contract.",
        "params": {
          "data": "The data to be sent to each of `targets`.",
          "targets": "The contracts to which `data` will be sent."
        }
      },
      "_callPool(address[],bytes[])": {
        "details": "Sends data to a contract.",
        "params": {
          "data": "The data to be sent to each of `targets`.",
          "targets": "The contracts to which `data` will be sent."
        }
      },
      "_editCErc20DelegateWhitelist(address[],address[],bool[],bool[])": {
        "details": "Adds/removes CErc20Delegate implementations to the whitelist.",
        "params": {
          "allowResign": "Array of `allowResign` values corresponding to `newImplementations` to be whitelisted/unwhitelisted.",
          "newImplementations": "Array of `CErc20Delegate` implementations to be whitelisted/unwhitelisted.",
          "oldImplementations": "The old `CErc20Delegate` implementation addresses to upgrade from for each `newImplementations` to upgrade to.",
          "statuses": "Array of whitelist statuses corresponding to `newImplementations`."
        }
      },
      "_editCEtherDelegateWhitelist(address[],address[],bool[],bool[])": {
        "details": "Adds/removes CEtherDelegate implementations to the whitelist.",
        "params": {
          "allowResign": "Array of `allowResign` values corresponding to `newImplementations` to be whitelisted/unwhitelisted.",
          "newImplementations": "Array of `CEtherDelegate` implementations to be whitelisted/unwhitelisted.",
          "oldImplementations": "The old `CEtherDelegate` implementation addresses to upgrade from for each `newImplementations` to upgrade to.",
          "statuses": "Array of whitelist statuses corresponding to `newImplementations`."
        }
      },
      "_editComptrollerImplementationWhitelist(address[],address[],bool[])": {
        "details": "Adds/removes Comptroller implementations to the whitelist.",
        "params": {
          "newImplementations": "Array of `Comptroller` implementations to be whitelisted/unwhitelisted.",
          "oldImplementations": "The old `Comptroller` implementation addresses to upgrade from for each `newImplementations` to upgrade to.",
          "statuses": "Array of whitelist statuses corresponding to `implementations`."
        }
      },
      "_setCustomInterestFeeRate(address,int256)": {
        "details": "Sets the proportion of Fuse pool interest taken as a protocol fee.",
        "params": {
          "comptroller": "The Unitroller (Comptroller proxy) address.",
          "rate": "The proportion of Fuse pool interest taken as a protocol fee (scaled by 1e18)."
        }
      },
      "_setDefaultInterestFeeRate(uint256)": {
        "details": "Sets the default proportion of Fuse pool interest taken as a protocol fee.",
        "params": {
          "_defaultInterestFeeRate": "The default proportion of Fuse pool interest taken as a protocol fee (scaled by 1e18)."
        }
      },
      "_setLatestCErc20Delegate(address,address,bool,bytes)": {
        "details": "Sets the latest `CErc20Delegate` upgrade implementation address and data.",
        "params": {
          "allowResign": "Whether or not `resignImplementation` should be called on the old implementation before upgrade.",
          "becomeImplementationData": "Data passed to the new implementation via `becomeImplementation` after upgrade.",
          "newImplementation": "Latest `CErc20Delegate` implementation address.",
          "oldImplementation": "The old `CErc20Delegate` implementation address to upgrade from."
        }
      },
      "_setLatestCEtherDelegate(address,address,bool,bytes)": {
        "details": "Sets the latest `CEtherDelegate` upgrade implementation address and data.",
        "params": {
          "allowResign": "Whether or not `resignImplementation` should be called on the old implementation before upgrade.",
          "becomeImplementationData": "Data passed to the new implementation via `becomeImplementation` after upgrade.",
          "newImplementation": "Latest `CEtherDelegate` implementation address.",
          "oldImplementation": "The old `CEtherDelegate` implementation address to upgrade from."
        }
      },
      "_setLatestComptrollerImplementation(address,address)": {
        "details": "Sets the latest `Comptroller` upgrade implementation address.",
        "params": {
          "newImplementation": "Latest `Comptroller` implementation address.",
          "oldImplementation": "The old `Comptroller` implementation address to upgrade from."
        }
      },
      "_setPoolLimits(uint256,uint256,uint256)": {
        "details": "Sets the proportion of Fuse pool interest taken as a protocol fee.",
        "params": {
          "_maxSupplyEth": "Maximum supply balance (in ETH) per user per Fuse pool asset.",
          "_maxUtilizationRate": "Maximum utilization rate (scaled by 1e18) for Fuse pool assets (only checked on new borrows, not redemptions).",
          "_minBorrowEth": "Minimum borrow balance (in ETH) per user per Fuse pool asset (only checked on new borrows, not redemptions)."
        }
      },
      "_withdrawAssets(address)": {
        "details": "Withdraws accrued fees on interest.",
        "params": {
          "erc20Contract": "The ERC20 token address to withdraw. Set to the zero address to withdraw ETH."
        }
      },
      "initialize(uint256)": {
        "details": "Initializer that sets initial values of state variables.",
        "params": {
          "_defaultInterestFeeRate": "The default proportion of Fuse pool interest taken as a protocol fee (scaled by 1e18)."
        }
      },
      "latestCErc20Delegate(address)": {
        "details": "Latest CErc20Delegate implementation for each existing implementation."
      },
      "latestCEtherDelegate(address)": {
        "details": "Latest CEtherDelegate implementation for each existing implementation."
      },
      "latestComptrollerImplementation(address)": {
        "details": "Latest Comptroller implementation for each existing implementation."
      },
      "owner()": {
        "details": "Returns the address of the current owner."
      },
      "renounceOwnership()": {
        "details": "Leaves the contract without owner. It will not be possible to call `onlyOwner` functions anymore. Can only be called by the current owner. NOTE: Renouncing ownership will leave the contract without an owner, thereby removing any functionality that is only available to the owner."
      },
      "transferOwnership(address)": {
        "details": "Transfers ownership of the contract to a new account (`newOwner`). Can only be called by the current owner."
      }
    },
    "stateVariables": {
      "_latestCErc20Delegate": {
        "details": "Latest CErc20Delegate implementation for each existing implementation."
      },
      "_latestCEtherDelegate": {
        "details": "Latest CEtherDelegate implementation for each existing implementation."
      },
      "_latestComptrollerImplementation": {
        "details": "Latest Comptroller implementation for each existing implementation."
      },
      "cErc20DelegateWhitelist": {
        "details": "Whitelisted CErc20Delegate implementation contract addresses and `allowResign` values for each existing implementation."
      },
      "cEtherDelegateWhitelist": {
        "details": "Whitelisted CEtherDelegate implementation contract addresses and `allowResign` values for each existing implementation."
      },
      "comptrollerImplementationWhitelist": {
        "details": "Whitelisted Comptroller implementation contract addresses for each existing implementation."
      },
      "customInterestFeeRates": {
        "details": "A value of 0 means unset whereas a negative value means 0."
      },
      "maxSupplyEth": {
        "details": "Maximum supply balance (in ETH) per user per Fuse pool asset. No longer used as of `Rari-Capital/compound-protocol` version `fuse-v1.1.0`."
      },
      "maxUtilizationRate": {
        "details": "Maximum utilization rate (scaled by 1e18) for Fuse pool assets (only checked on new borrows, not redemptions). No longer used as of `Rari-Capital/compound-protocol` version `fuse-v1.1.0`."
      },
      "minBorrowEth": {
        "details": "Minimum borrow balance (in ETH) per user per Fuse pool asset (only checked on new borrows, not redemptions)."
      }
    },
    "title": "FuseFeeDistributor",
    "version": 1
  },
  "userdoc": {
    "kind": "user",
    "methods": {
      "customInterestFeeRates(address)": {
        "notice": "Maps Unitroller (Comptroller proxy) addresses to the proportion of Fuse pool interest taken as a protocol fee (scaled by 1e18)."
      },
      "defaultInterestFeeRate()": {
        "notice": "The proportion of Fuse pool interest taken as a protocol fee (scaled by 1e18)."
      },
      "interestFeeRate()": {
        "notice": "Returns the proportion of Fuse pool interest taken as a protocol fee (scaled by 1e18)."
      }
    },
    "notice": "FuseFeeDistributor controls and receives protocol fees from Fuse pools and relays admin actions to Fuse pools.",
    "version": 1
  },
  "storageLayout": {
    "storage": [
      {
        "astId": 572,
        "contract": "contracts/FuseFeeDistributor.sol:FuseFeeDistributor",
        "label": "_initialized",
        "offset": 0,
        "slot": "0",
        "type": "t_bool"
      },
      {
        "astId": 575,
        "contract": "contracts/FuseFeeDistributor.sol:FuseFeeDistributor",
        "label": "_initializing",
        "offset": 1,
        "slot": "0",
        "type": "t_bool"
      },
      {
        "astId": 1740,
        "contract": "contracts/FuseFeeDistributor.sol:FuseFeeDistributor",
        "label": "__gap",
        "offset": 0,
        "slot": "1",
        "type": "t_array(t_uint256)50_storage"
      },
      {
        "astId": 10,
        "contract": "contracts/FuseFeeDistributor.sol:FuseFeeDistributor",
        "label": "_owner",
        "offset": 0,
        "slot": "51",
        "type": "t_address"
      },
      {
        "astId": 129,
        "contract": "contracts/FuseFeeDistributor.sol:FuseFeeDistributor",
        "label": "__gap",
        "offset": 0,
        "slot": "52",
        "type": "t_array(t_uint256)49_storage"
      },
      {
        "astId": 3564,
        "contract": "contracts/FuseFeeDistributor.sol:FuseFeeDistributor",
        "label": "defaultInterestFeeRate",
        "offset": 0,
        "slot": "101",
        "type": "t_uint256"
      },
      {
        "astId": 3664,
        "contract": "contracts/FuseFeeDistributor.sol:FuseFeeDistributor",
        "label": "minBorrowEth",
        "offset": 0,
        "slot": "102",
        "type": "t_uint256"
      },
      {
        "astId": 3667,
        "contract": "contracts/FuseFeeDistributor.sol:FuseFeeDistributor",
        "label": "maxSupplyEth",
        "offset": 0,
        "slot": "103",
        "type": "t_uint256"
      },
      {
        "astId": 3670,
        "contract": "contracts/FuseFeeDistributor.sol:FuseFeeDistributor",
        "label": "maxUtilizationRate",
        "offset": 0,
        "slot": "104",
        "type": "t_uint256"
      },
      {
        "astId": 3929,
        "contract": "contracts/FuseFeeDistributor.sol:FuseFeeDistributor",
        "label": "comptrollerImplementationWhitelist",
        "offset": 0,
        "slot": "105",
        "type": "t_mapping(t_address,t_mapping(t_address,t_bool))"
      },
      {
        "astId": 4000,
        "contract": "contracts/FuseFeeDistributor.sol:FuseFeeDistributor",
        "label": "cErc20DelegateWhitelist",
        "offset": 0,
        "slot": "106",
        "type": "t_mapping(t_address,t_mapping(t_address,t_mapping(t_bool,t_bool)))"
      },
      {
        "astId": 4084,
        "contract": "contracts/FuseFeeDistributor.sol:FuseFeeDistributor",
        "label": "cEtherDelegateWhitelist",
        "offset": 0,
        "slot": "107",
        "type": "t_mapping(t_address,t_mapping(t_address,t_mapping(t_bool,t_bool)))"
      },
      {
        "astId": 4164,
        "contract": "contracts/FuseFeeDistributor.sol:FuseFeeDistributor",
        "label": "_latestComptrollerImplementation",
        "offset": 0,
        "slot": "108",
        "type": "t_mapping(t_address,t_address)"
      },
      {
        "astId": 4216,
        "contract": "contracts/FuseFeeDistributor.sol:FuseFeeDistributor",
        "label": "_latestCErc20Delegate",
        "offset": 0,
        "slot": "109",
        "type": "t_mapping(t_address,t_struct(CDelegateUpgradeData)4211_storage)"
      },
      {
        "astId": 4221,
        "contract": "contracts/FuseFeeDistributor.sol:FuseFeeDistributor",
        "label": "_latestCEtherDelegate",
        "offset": 0,
        "slot": "110",
        "type": "t_mapping(t_address,t_struct(CDelegateUpgradeData)4211_storage)"
      },
      {
        "astId": 4360,
        "contract": "contracts/FuseFeeDistributor.sol:FuseFeeDistributor",
        "label": "customInterestFeeRates",
        "offset": 0,
        "slot": "111",
        "type": "t_mapping(t_address,t_int256)"
      }
    ],
    "types": {
      "t_address": {
        "encoding": "inplace",
        "label": "address",
        "numberOfBytes": "20"
      },
      "t_array(t_uint256)49_storage": {
        "base": "t_uint256",
        "encoding": "inplace",
        "label": "uint256[49]",
        "numberOfBytes": "1568"
      },
      "t_array(t_uint256)50_storage": {
        "base": "t_uint256",
        "encoding": "inplace",
        "label": "uint256[50]",
        "numberOfBytes": "1600"
      },
      "t_bool": {
        "encoding": "inplace",
        "label": "bool",
        "numberOfBytes": "1"
      },
      "t_bytes_storage": {
        "encoding": "bytes",
        "label": "bytes",
        "numberOfBytes": "32"
      },
      "t_int256": {
        "encoding": "inplace",
        "label": "int256",
        "numberOfBytes": "32"
      },
      "t_mapping(t_address,t_address)": {
        "encoding": "mapping",
        "key": "t_address",
        "label": "mapping(address => address)",
        "numberOfBytes": "32",
        "value": "t_address"
      },
      "t_mapping(t_address,t_bool)": {
        "encoding": "mapping",
        "key": "t_address",
        "label": "mapping(address => bool)",
        "numberOfBytes": "32",
        "value": "t_bool"
      },
      "t_mapping(t_address,t_int256)": {
        "encoding": "mapping",
        "key": "t_address",
        "label": "mapping(address => int256)",
        "numberOfBytes": "32",
        "value": "t_int256"
      },
      "t_mapping(t_address,t_mapping(t_address,t_bool))": {
        "encoding": "mapping",
        "key": "t_address",
        "label": "mapping(address => mapping(address => bool))",
        "numberOfBytes": "32",
        "value": "t_mapping(t_address,t_bool)"
      },
      "t_mapping(t_address,t_mapping(t_address,t_mapping(t_bool,t_bool)))": {
        "encoding": "mapping",
        "key": "t_address",
        "label": "mapping(address => mapping(address => mapping(bool => bool)))",
        "numberOfBytes": "32",
        "value": "t_mapping(t_address,t_mapping(t_bool,t_bool))"
      },
      "t_mapping(t_address,t_mapping(t_bool,t_bool))": {
        "encoding": "mapping",
        "key": "t_address",
        "label": "mapping(address => mapping(bool => bool))",
        "numberOfBytes": "32",
        "value": "t_mapping(t_bool,t_bool)"
      },
      "t_mapping(t_address,t_struct(CDelegateUpgradeData)4211_storage)": {
        "encoding": "mapping",
        "key": "t_address",
        "label": "mapping(address => struct FuseFeeDistributor.CDelegateUpgradeData)",
        "numberOfBytes": "32",
        "value": "t_struct(CDelegateUpgradeData)4211_storage"
      },
      "t_mapping(t_bool,t_bool)": {
        "encoding": "mapping",
        "key": "t_bool",
        "label": "mapping(bool => bool)",
        "numberOfBytes": "32",
        "value": "t_bool"
      },
      "t_struct(CDelegateUpgradeData)4211_storage": {
        "encoding": "inplace",
        "label": "struct FuseFeeDistributor.CDelegateUpgradeData",
        "members": [
          {
            "astId": 4206,
            "contract": "contracts/FuseFeeDistributor.sol:FuseFeeDistributor",
            "label": "implementation",
            "offset": 0,
            "slot": "0",
            "type": "t_address"
          },
          {
            "astId": 4208,
            "contract": "contracts/FuseFeeDistributor.sol:FuseFeeDistributor",
            "label": "allowResign",
            "offset": 20,
            "slot": "0",
            "type": "t_bool"
          },
          {
            "astId": 4210,
            "contract": "contracts/FuseFeeDistributor.sol:FuseFeeDistributor",
            "label": "becomeImplementationData",
            "offset": 0,
            "slot": "1",
            "type": "t_bytes_storage"
          }
        ],
        "numberOfBytes": "64"
      },
      "t_uint256": {
        "encoding": "inplace",
        "label": "uint256",
        "numberOfBytes": "32"
      }
    }
  }
}