{
  "address": "0x6490ea7B5d906eb40F713E76036e82Bf8da4Ee82",
  "abi": [
    {
      "inputs": [],
      "name": "directory",
      "outputs": [
        {
          "internalType": "contract FusePoolDirectory",
          "name": "",
          "type": "address"
        }
      ],
      "stateMutability": "view",
      "type": "function"
    },
    {
      "inputs": [
        {
          "internalType": "contract IComptroller",
          "name": "comptroller",
          "type": "address"
        }
      ],
      "name": "getPoolAssetsWithData",
      "outputs": [
        {
          "components": [
            {
              "internalType": "address",
              "name": "cToken",
              "type": "address"
            },
            {
              "internalType": "address",
              "name": "underlyingToken",
              "type": "address"
            },
            {
              "internalType": "string",
              "name": "underlyingName",
              "type": "string"
            },
            {
              "internalType": "string",
              "name": "underlyingSymbol",
              "type": "string"
            },
            {
              "internalType": "uint256",
              "name": "underlyingDecimals",
              "type": "uint256"
            },
            {
              "internalType": "uint256",
              "name": "underlyingBalance",
              "type": "uint256"
            },
            {
              "internalType": "uint256",
              "name": "supplyRatePerBlock",
              "type": "uint256"
            },
            {
              "internalType": "uint256",
              "name": "borrowRatePerBlock",
              "type": "uint256"
            },
            {
              "internalType": "uint256",
              "name": "totalSupply",
              "type": "uint256"
            },
            {
              "internalType": "uint256",
              "name": "totalBorrow",
              "type": "uint256"
            },
            {
              "internalType": "uint256",
              "name": "supplyBalance",
              "type": "uint256"
            },
            {
              "internalType": "uint256",
              "name": "borrowBalance",
              "type": "uint256"
            },
            {
              "internalType": "uint256",
              "name": "liquidity",
              "type": "uint256"
            },
            {
              "internalType": "bool",
              "name": "membership",
              "type": "bool"
            },
            {
              "internalType": "uint256",
              "name": "exchangeRate",
              "type": "uint256"
            },
            {
              "internalType": "uint256",
              "name": "underlyingPrice",
              "type": "uint256"
            },
            {
              "internalType": "address",
              "name": "oracle",
              "type": "address"
            },
            {
              "internalType": "uint256",
              "name": "collateralFactor",
              "type": "uint256"
            },
            {
              "internalType": "uint256",
              "name": "reserveFactor",
              "type": "uint256"
            },
            {
              "internalType": "uint256",
              "name": "adminFee",
              "type": "uint256"
            },
            {
              "internalType": "uint256",
              "name": "fuseFee",
              "type": "uint256"
            },
            {
              "internalType": "bool",
              "name": "borrowGuardianPaused",
              "type": "bool"
            }
          ],
          "internalType": "struct FusePoolLens.FusePoolAsset[]",
          "name": "",
          "type": "tuple[]"
        }
      ],
      "stateMutability": "nonpayable",
      "type": "function"
    },
    {
      "inputs": [
        {
          "internalType": "contract IComptroller",
          "name": "comptroller",
          "type": "address"
        }
      ],
      "name": "getPoolSummary",
      "outputs": [
        {
          "internalType": "uint256",
          "name": "",
          "type": "uint256"
        },
        {
          "internalType": "uint256",
          "name": "",
          "type": "uint256"
        },
        {
          "internalType": "address[]",
          "name": "",
          "type": "address[]"
        },
        {
          "internalType": "string[]",
          "name": "",
          "type": "string[]"
        },
        {
          "internalType": "bool",
          "name": "",
          "type": "bool"
        }
      ],
      "stateMutability": "nonpayable",
      "type": "function"
    },
    {
      "inputs": [
        {
          "internalType": "contract IComptroller",
          "name": "comptroller",
          "type": "address"
        },
        {
          "internalType": "address",
          "name": "account",
          "type": "address"
        }
      ],
      "name": "getPoolUserSummary",
      "outputs": [
        {
          "internalType": "uint256",
          "name": "",
          "type": "uint256"
        },
        {
          "internalType": "uint256",
          "name": "",
          "type": "uint256"
        }
      ],
      "stateMutability": "nonpayable",
      "type": "function"
    },
    {
      "inputs": [
        {
          "internalType": "contract IComptroller[]",
          "name": "comptrollers",
          "type": "address[]"
        },
        {
          "internalType": "uint256",
          "name": "maxHealth",
          "type": "uint256"
        }
      ],
      "name": "getPoolUsersWithData",
      "outputs": [
        {
          "components": [
            {
              "internalType": "address",
              "name": "account",
              "type": "address"
            },
            {
              "internalType": "uint256",
              "name": "totalBorrow",
              "type": "uint256"
            },
            {
              "internalType": "uint256",
              "name": "totalCollateral",
              "type": "uint256"
            },
            {
              "internalType": "uint256",
              "name": "health",
              "type": "uint256"
            },
            {
              "components": [
                {
                  "internalType": "address",
                  "name": "cToken",
                  "type": "address"
                },
                {
                  "internalType": "address",
                  "name": "underlyingToken",
                  "type": "address"
                },
                {
                  "internalType": "string",
                  "name": "underlyingName",
                  "type": "string"
                },
                {
                  "internalType": "string",
                  "name": "underlyingSymbol",
                  "type": "string"
                },
                {
                  "internalType": "uint256",
                  "name": "underlyingDecimals",
                  "type": "uint256"
                },
                {
                  "internalType": "uint256",
                  "name": "underlyingBalance",
                  "type": "uint256"
                },
                {
                  "internalType": "uint256",
                  "name": "supplyRatePerBlock",
                  "type": "uint256"
                },
                {
                  "internalType": "uint256",
                  "name": "borrowRatePerBlock",
                  "type": "uint256"
                },
                {
                  "internalType": "uint256",
                  "name": "totalSupply",
                  "type": "uint256"
                },
                {
                  "internalType": "uint256",
                  "name": "totalBorrow",
                  "type": "uint256"
                },
                {
                  "internalType": "uint256",
                  "name": "supplyBalance",
                  "type": "uint256"
                },
                {
                  "internalType": "uint256",
                  "name": "borrowBalance",
                  "type": "uint256"
                },
                {
                  "internalType": "uint256",
                  "name": "liquidity",
                  "type": "uint256"
                },
                {
                  "internalType": "bool",
                  "name": "membership",
                  "type": "bool"
                },
                {
                  "internalType": "uint256",
                  "name": "exchangeRate",
                  "type": "uint256"
                },
                {
                  "internalType": "uint256",
                  "name": "underlyingPrice",
                  "type": "uint256"
                },
                {
                  "internalType": "address",
                  "name": "oracle",
                  "type": "address"
                },
                {
                  "internalType": "uint256",
                  "name": "collateralFactor",
                  "type": "uint256"
                },
                {
                  "internalType": "uint256",
                  "name": "reserveFactor",
                  "type": "uint256"
                },
                {
                  "internalType": "uint256",
                  "name": "adminFee",
                  "type": "uint256"
                },
                {
                  "internalType": "uint256",
                  "name": "fuseFee",
                  "type": "uint256"
                },
                {
                  "internalType": "bool",
                  "name": "borrowGuardianPaused",
                  "type": "bool"
                }
              ],
              "internalType": "struct FusePoolLens.FusePoolAsset[]",
              "name": "assets",
              "type": "tuple[]"
            }
          ],
          "internalType": "struct FusePoolLens.FusePoolUser[][]",
          "name": "",
          "type": "tuple[][]"
        },
        {
          "internalType": "uint256[]",
          "name": "",
          "type": "uint256[]"
        },
        {
          "internalType": "uint256[]",
          "name": "",
          "type": "uint256[]"
        },
        {
          "internalType": "bool[]",
          "name": "",
          "type": "bool[]"
        }
      ],
      "stateMutability": "nonpayable",
      "type": "function"
    },
    {
      "inputs": [
        {
          "internalType": "contract IComptroller",
          "name": "comptroller",
          "type": "address"
        },
        {
          "internalType": "uint256",
          "name": "maxHealth",
          "type": "uint256"
        }
      ],
      "name": "getPoolUsersWithData",
      "outputs": [
        {
          "components": [
            {
              "internalType": "address",
              "name": "account",
              "type": "address"
            },
            {
              "internalType": "uint256",
              "name": "totalBorrow",
              "type": "uint256"
            },
            {
              "internalType": "uint256",
              "name": "totalCollateral",
              "type": "uint256"
            },
            {
              "internalType": "uint256",
              "name": "health",
              "type": "uint256"
            },
            {
              "components": [
                {
                  "internalType": "address",
                  "name": "cToken",
                  "type": "address"
                },
                {
                  "internalType": "address",
                  "name": "underlyingToken",
                  "type": "address"
                },
                {
                  "internalType": "string",
                  "name": "underlyingName",
                  "type": "string"
                },
                {
                  "internalType": "string",
                  "name": "underlyingSymbol",
                  "type": "string"
                },
                {
                  "internalType": "uint256",
                  "name": "underlyingDecimals",
                  "type": "uint256"
                },
                {
                  "internalType": "uint256",
                  "name": "underlyingBalance",
                  "type": "uint256"
                },
                {
                  "internalType": "uint256",
                  "name": "supplyRatePerBlock",
                  "type": "uint256"
                },
                {
                  "internalType": "uint256",
                  "name": "borrowRatePerBlock",
                  "type": "uint256"
                },
                {
                  "internalType": "uint256",
                  "name": "totalSupply",
                  "type": "uint256"
                },
                {
                  "internalType": "uint256",
                  "name": "totalBorrow",
                  "type": "uint256"
                },
                {
                  "internalType": "uint256",
                  "name": "supplyBalance",
                  "type": "uint256"
                },
                {
                  "internalType": "uint256",
                  "name": "borrowBalance",
                  "type": "uint256"
                },
                {
                  "internalType": "uint256",
                  "name": "liquidity",
                  "type": "uint256"
                },
                {
                  "internalType": "bool",
                  "name": "membership",
                  "type": "bool"
                },
                {
                  "internalType": "uint256",
                  "name": "exchangeRate",
                  "type": "uint256"
                },
                {
                  "internalType": "uint256",
                  "name": "underlyingPrice",
                  "type": "uint256"
                },
                {
                  "internalType": "address",
                  "name": "oracle",
                  "type": "address"
                },
                {
                  "internalType": "uint256",
                  "name": "collateralFactor",
                  "type": "uint256"
                },
                {
                  "internalType": "uint256",
                  "name": "reserveFactor",
                  "type": "uint256"
                },
                {
                  "internalType": "uint256",
                  "name": "adminFee",
                  "type": "uint256"
                },
                {
                  "internalType": "uint256",
                  "name": "fuseFee",
                  "type": "uint256"
                },
                {
                  "internalType": "bool",
                  "name": "borrowGuardianPaused",
                  "type": "bool"
                }
              ],
              "internalType": "struct FusePoolLens.FusePoolAsset[]",
              "name": "assets",
              "type": "tuple[]"
            }
          ],
          "internalType": "struct FusePoolLens.FusePoolUser[]",
          "name": "",
          "type": "tuple[]"
        },
        {
          "internalType": "uint256",
          "name": "",
          "type": "uint256"
        },
        {
          "internalType": "uint256",
          "name": "",
          "type": "uint256"
        }
      ],
      "stateMutability": "nonpayable",
      "type": "function"
    },
    {
      "inputs": [
        {
          "internalType": "address",
          "name": "account",
          "type": "address"
        }
      ],
      "name": "getPoolsByAccountWithData",
      "outputs": [
        {
          "internalType": "uint256[]",
          "name": "",
          "type": "uint256[]"
        },
        {
          "components": [
            {
              "internalType": "string",
              "name": "name",
              "type": "string"
            },
            {
              "internalType": "address",
              "name": "creator",
              "type": "address"
            },
            {
              "internalType": "address",
              "name": "comptroller",
              "type": "address"
            },
            {
              "internalType": "uint256",
              "name": "blockPosted",
              "type": "uint256"
            },
            {
              "internalType": "uint256",
              "name": "timestampPosted",
              "type": "uint256"
            }
          ],
          "internalType": "struct FusePoolDirectory.FusePool[]",
          "name": "",
          "type": "tuple[]"
        },
        {
          "components": [
            {
              "internalType": "uint256",
              "name": "totalSupply",
              "type": "uint256"
            },
            {
              "internalType": "uint256",
              "name": "totalBorrow",
              "type": "uint256"
            },
            {
              "internalType": "address[]",
              "name": "underlyingTokens",
              "type": "address[]"
            },
            {
              "internalType": "string[]",
              "name": "underlyingSymbols",
              "type": "string[]"
            },
            {
              "internalType": "bool",
              "name": "whitelistedAdmin",
              "type": "bool"
            }
          ],
          "internalType": "struct FusePoolLens.FusePoolData[]",
          "name": "",
          "type": "tuple[]"
        },
        {
          "internalType": "bool[]",
          "name": "",
          "type": "bool[]"
        }
      ],
      "stateMutability": "nonpayable",
      "type": "function"
    },
    {
      "inputs": [
        {
          "internalType": "address",
          "name": "account",
          "type": "address"
        }
      ],
      "name": "getPoolsBySupplier",
      "outputs": [
        {
          "internalType": "uint256[]",
          "name": "",
          "type": "uint256[]"
        },
        {
          "components": [
            {
              "internalType": "string",
              "name": "name",
              "type": "string"
            },
            {
              "internalType": "address",
              "name": "creator",
              "type": "address"
            },
            {
              "internalType": "address",
              "name": "comptroller",
              "type": "address"
            },
            {
              "internalType": "uint256",
              "name": "blockPosted",
              "type": "uint256"
            },
            {
              "internalType": "uint256",
              "name": "timestampPosted",
              "type": "uint256"
            }
          ],
          "internalType": "struct FusePoolDirectory.FusePool[]",
          "name": "",
          "type": "tuple[]"
        }
      ],
      "stateMutability": "view",
      "type": "function"
    },
    {
      "inputs": [
        {
          "internalType": "address",
          "name": "account",
          "type": "address"
        }
      ],
      "name": "getPoolsBySupplierWithData",
      "outputs": [
        {
          "internalType": "uint256[]",
          "name": "",
          "type": "uint256[]"
        },
        {
          "components": [
            {
              "internalType": "string",
              "name": "name",
              "type": "string"
            },
            {
              "internalType": "address",
              "name": "creator",
              "type": "address"
            },
            {
              "internalType": "address",
              "name": "comptroller",
              "type": "address"
            },
            {
              "internalType": "uint256",
              "name": "blockPosted",
              "type": "uint256"
            },
            {
              "internalType": "uint256",
              "name": "timestampPosted",
              "type": "uint256"
            }
          ],
          "internalType": "struct FusePoolDirectory.FusePool[]",
          "name": "",
          "type": "tuple[]"
        },
        {
          "components": [
            {
              "internalType": "uint256",
              "name": "totalSupply",
              "type": "uint256"
            },
            {
              "internalType": "uint256",
              "name": "totalBorrow",
              "type": "uint256"
            },
            {
              "internalType": "address[]",
              "name": "underlyingTokens",
              "type": "address[]"
            },
            {
              "internalType": "string[]",
              "name": "underlyingSymbols",
              "type": "string[]"
            },
            {
              "internalType": "bool",
              "name": "whitelistedAdmin",
              "type": "bool"
            }
          ],
          "internalType": "struct FusePoolLens.FusePoolData[]",
          "name": "",
          "type": "tuple[]"
        },
        {
          "internalType": "bool[]",
          "name": "",
          "type": "bool[]"
        }
      ],
      "stateMutability": "nonpayable",
      "type": "function"
    },
    {
      "inputs": [
        {
          "internalType": "uint256",
          "name": "maxHealth",
          "type": "uint256"
        }
      ],
      "name": "getPublicPoolUsersWithData",
      "outputs": [
        {
          "internalType": "contract IComptroller[]",
          "name": "",
          "type": "address[]"
        },
        {
          "components": [
            {
              "internalType": "address",
              "name": "account",
              "type": "address"
            },
            {
              "internalType": "uint256",
              "name": "totalBorrow",
              "type": "uint256"
            },
            {
              "internalType": "uint256",
              "name": "totalCollateral",
              "type": "uint256"
            },
            {
              "internalType": "uint256",
              "name": "health",
              "type": "uint256"
            },
            {
              "components": [
                {
                  "internalType": "address",
                  "name": "cToken",
                  "type": "address"
                },
                {
                  "internalType": "address",
                  "name": "underlyingToken",
                  "type": "address"
                },
                {
                  "internalType": "string",
                  "name": "underlyingName",
                  "type": "string"
                },
                {
                  "internalType": "string",
                  "name": "underlyingSymbol",
                  "type": "string"
                },
                {
                  "internalType": "uint256",
                  "name": "underlyingDecimals",
                  "type": "uint256"
                },
                {
                  "internalType": "uint256",
                  "name": "underlyingBalance",
                  "type": "uint256"
                },
                {
                  "internalType": "uint256",
                  "name": "supplyRatePerBlock",
                  "type": "uint256"
                },
                {
                  "internalType": "uint256",
                  "name": "borrowRatePerBlock",
                  "type": "uint256"
                },
                {
                  "internalType": "uint256",
                  "name": "totalSupply",
                  "type": "uint256"
                },
                {
                  "internalType": "uint256",
                  "name": "totalBorrow",
                  "type": "uint256"
                },
                {
                  "internalType": "uint256",
                  "name": "supplyBalance",
                  "type": "uint256"
                },
                {
                  "internalType": "uint256",
                  "name": "borrowBalance",
                  "type": "uint256"
                },
                {
                  "internalType": "uint256",
                  "name": "liquidity",
                  "type": "uint256"
                },
                {
                  "internalType": "bool",
                  "name": "membership",
                  "type": "bool"
                },
                {
                  "internalType": "uint256",
                  "name": "exchangeRate",
                  "type": "uint256"
                },
                {
                  "internalType": "uint256",
                  "name": "underlyingPrice",
                  "type": "uint256"
                },
                {
                  "internalType": "address",
                  "name": "oracle",
                  "type": "address"
                },
                {
                  "internalType": "uint256",
                  "name": "collateralFactor",
                  "type": "uint256"
                },
                {
                  "internalType": "uint256",
                  "name": "reserveFactor",
                  "type": "uint256"
                },
                {
                  "internalType": "uint256",
                  "name": "adminFee",
                  "type": "uint256"
                },
                {
                  "internalType": "uint256",
                  "name": "fuseFee",
                  "type": "uint256"
                },
                {
                  "internalType": "bool",
                  "name": "borrowGuardianPaused",
                  "type": "bool"
                }
              ],
              "internalType": "struct FusePoolLens.FusePoolAsset[]",
              "name": "assets",
              "type": "tuple[]"
            }
          ],
          "internalType": "struct FusePoolLens.FusePoolUser[][]",
          "name": "",
          "type": "tuple[][]"
        },
        {
          "internalType": "uint256[]",
          "name": "",
          "type": "uint256[]"
        },
        {
          "internalType": "uint256[]",
          "name": "",
          "type": "uint256[]"
        },
        {
          "internalType": "bool[]",
          "name": "",
          "type": "bool[]"
        }
      ],
      "stateMutability": "nonpayable",
      "type": "function"
    },
    {
      "inputs": [
        {
          "internalType": "bool",
          "name": "whitelistedAdmin",
          "type": "bool"
        }
      ],
      "name": "getPublicPoolsByVerificationWithData",
      "outputs": [
        {
          "internalType": "uint256[]",
          "name": "",
          "type": "uint256[]"
        },
        {
          "components": [
            {
              "internalType": "string",
              "name": "name",
              "type": "string"
            },
            {
              "internalType": "address",
              "name": "creator",
              "type": "address"
            },
            {
              "internalType": "address",
              "name": "comptroller",
              "type": "address"
            },
            {
              "internalType": "uint256",
              "name": "blockPosted",
              "type": "uint256"
            },
            {
              "internalType": "uint256",
              "name": "timestampPosted",
              "type": "uint256"
            }
          ],
          "internalType": "struct FusePoolDirectory.FusePool[]",
          "name": "",
          "type": "tuple[]"
        },
        {
          "components": [
            {
              "internalType": "uint256",
              "name": "totalSupply",
              "type": "uint256"
            },
            {
              "internalType": "uint256",
              "name": "totalBorrow",
              "type": "uint256"
            },
            {
              "internalType": "address[]",
              "name": "underlyingTokens",
              "type": "address[]"
            },
            {
              "internalType": "string[]",
              "name": "underlyingSymbols",
              "type": "string[]"
            },
            {
              "internalType": "bool",
              "name": "whitelistedAdmin",
              "type": "bool"
            }
          ],
          "internalType": "struct FusePoolLens.FusePoolData[]",
          "name": "",
          "type": "tuple[]"
        },
        {
          "internalType": "bool[]",
          "name": "",
          "type": "bool[]"
        }
      ],
      "stateMutability": "nonpayable",
      "type": "function"
    },
    {
      "inputs": [],
      "name": "getPublicPoolsWithData",
      "outputs": [
        {
          "internalType": "uint256[]",
          "name": "",
          "type": "uint256[]"
        },
        {
          "components": [
            {
              "internalType": "string",
              "name": "name",
              "type": "string"
            },
            {
              "internalType": "address",
              "name": "creator",
              "type": "address"
            },
            {
              "internalType": "address",
              "name": "comptroller",
              "type": "address"
            },
            {
              "internalType": "uint256",
              "name": "blockPosted",
              "type": "uint256"
            },
            {
              "internalType": "uint256",
              "name": "timestampPosted",
              "type": "uint256"
            }
          ],
          "internalType": "struct FusePoolDirectory.FusePool[]",
          "name": "",
          "type": "tuple[]"
        },
        {
          "components": [
            {
              "internalType": "uint256",
              "name": "totalSupply",
              "type": "uint256"
            },
            {
              "internalType": "uint256",
              "name": "totalBorrow",
              "type": "uint256"
            },
            {
              "internalType": "address[]",
              "name": "underlyingTokens",
              "type": "address[]"
            },
            {
              "internalType": "string[]",
              "name": "underlyingSymbols",
              "type": "string[]"
            },
            {
              "internalType": "bool",
              "name": "whitelistedAdmin",
              "type": "bool"
            }
          ],
          "internalType": "struct FusePoolLens.FusePoolData[]",
          "name": "",
          "type": "tuple[]"
        },
        {
          "internalType": "bool[]",
          "name": "",
          "type": "bool[]"
        }
      ],
      "stateMutability": "nonpayable",
      "type": "function"
    },
    {
      "inputs": [
        {
          "internalType": "address",
          "name": "account",
          "type": "address"
        }
      ],
      "name": "getUserSummary",
      "outputs": [
        {
          "internalType": "uint256",
          "name": "",
          "type": "uint256"
        },
        {
          "internalType": "uint256",
          "name": "",
          "type": "uint256"
        },
        {
          "internalType": "bool",
          "name": "",
          "type": "bool"
        }
      ],
      "stateMutability": "nonpayable",
      "type": "function"
    },
    {
      "inputs": [
        {
          "internalType": "address",
          "name": "account",
          "type": "address"
        }
      ],
      "name": "getWhitelistedPoolsByAccount",
      "outputs": [
        {
          "internalType": "uint256[]",
          "name": "",
          "type": "uint256[]"
        },
        {
          "components": [
            {
              "internalType": "string",
              "name": "name",
              "type": "string"
            },
            {
              "internalType": "address",
              "name": "creator",
              "type": "address"
            },
            {
              "internalType": "address",
              "name": "comptroller",
              "type": "address"
            },
            {
              "internalType": "uint256",
              "name": "blockPosted",
              "type": "uint256"
            },
            {
              "internalType": "uint256",
              "name": "timestampPosted",
              "type": "uint256"
            }
          ],
          "internalType": "struct FusePoolDirectory.FusePool[]",
          "name": "",
          "type": "tuple[]"
        }
      ],
      "stateMutability": "view",
      "type": "function"
    },
    {
      "inputs": [
        {
          "internalType": "address",
          "name": "account",
          "type": "address"
        }
      ],
      "name": "getWhitelistedPoolsByAccountWithData",
      "outputs": [
        {
          "internalType": "uint256[]",
          "name": "",
          "type": "uint256[]"
        },
        {
          "components": [
            {
              "internalType": "string",
              "name": "name",
              "type": "string"
            },
            {
              "internalType": "address",
              "name": "creator",
              "type": "address"
            },
            {
              "internalType": "address",
              "name": "comptroller",
              "type": "address"
            },
            {
              "internalType": "uint256",
              "name": "blockPosted",
              "type": "uint256"
            },
            {
              "internalType": "uint256",
              "name": "timestampPosted",
              "type": "uint256"
            }
          ],
          "internalType": "struct FusePoolDirectory.FusePool[]",
          "name": "",
          "type": "tuple[]"
        },
        {
          "components": [
            {
              "internalType": "uint256",
              "name": "totalSupply",
              "type": "uint256"
            },
            {
              "internalType": "uint256",
              "name": "totalBorrow",
              "type": "uint256"
            },
            {
              "internalType": "address[]",
              "name": "underlyingTokens",
              "type": "address[]"
            },
            {
              "internalType": "string[]",
              "name": "underlyingSymbols",
              "type": "string[]"
            },
            {
              "internalType": "bool",
              "name": "whitelistedAdmin",
              "type": "bool"
            }
          ],
          "internalType": "struct FusePoolLens.FusePoolData[]",
          "name": "",
          "type": "tuple[]"
        },
        {
          "internalType": "bool[]",
          "name": "",
          "type": "bool[]"
        }
      ],
      "stateMutability": "nonpayable",
      "type": "function"
    },
    {
      "inputs": [
        {
          "internalType": "contract FusePoolDirectory",
          "name": "_directory",
          "type": "address"
        }
      ],
      "name": "initialize",
      "outputs": [],
      "stateMutability": "nonpayable",
      "type": "function"
    }
  ],
  "transactionHash": "0x17a9363b5f4c180656f0461edd8ece4c779273f98361ecb140e131a57ede089e",
  "args": [],
  "numDeployments": 1,
  "solcInputHash": "4f131d22d6af29f5db33d6d82d95eb6c",
  "bytecode": "0x608060405234801561001057600080fd5b506150f6806100206000396000f3fe608060405234801561001057600080fd5b50600436106101005760003560e01c80639c00a3d411610097578063d0a164fb11610066578063d0a164fb14610260578063d15e963114610268578063d64996e514610289578063dedfe22f1461029c57610100565b80639c00a3d414610201578063c3530a6314610223578063c41c2f2414610236578063c4d66de81461024b57610100565b806359d2fea6116100d357806359d2fea614610195578063635629e6146101b957806370733375146101cc5780638fbd0c2d146101df57610100565b80630b9c80bd1461010557806327e16c1f1461012f578063516786841461014f578063586f6c1014610172575b600080fd5b6101186101133660046141a8565b6102c0565b604051610126929190614de9565b60405180910390f35b61014261013d3660046141a8565b610810565b6040516101269190614daa565b61016261015d3660046141a8565b610899565b6040516101269493929190614e17565b6101856101803660046142aa565b610959565b6040516101269493929190614cb3565b6101a86101a33660046141a8565b610bab565b604051610126959493929190614f7d565b6101626101c73660046141a8565b6113ae565b6101626101da3660046141a8565b6113c0565b6101f26101ed3660046141a8565b6113d2565b60405161012693929190614fc3565b61021461020f3660046145e5565b611540565b60405161012693929190614dc4565b6101186102313660046141a8565b611b18565b61023e611e00565b6040516101269190614c85565b61025e6102593660046141a8565b611e15565b005b610162611f09565b61027b6102763660046145ad565b611fbd565b604051610126929190614f6f565b610162610297366004614548565b6123d5565b6102af6102aa366004614642565b61241f565b604051610126959493929190614d0b565b60608060008060029054906101000a90046001600160a01b03166001600160a01b031663d88ff1f46040518163ffffffff1660e01b815260040160006040518083038186803b15801561031257600080fd5b505afa158015610326573d6000803e3d6000fd5b505050506040513d6000823e601f3d908101601f1916820160405261034e919081019061445d565b90506000805b825181101561053957600083828151811061036b57fe5b6020026020010151604001519050806001600160a01b03166316dc15fe886040518263ffffffff1660e01b81526004016103a59190614c85565b60206040518083038186803b1580156103bd57600080fd5b505afa9250505080156103ed575060408051601f3d908101601f191682019092526103ea91810190614564565b60015b6103f657610530565b801561052e576000826001600160a01b031663b0772d0b6040518163ffffffff1660e01b815260040160006040518083038186803b15801561043757600080fd5b505afa15801561044b573d6000803e3d6000fd5b505050506040513d6000823e601f3d908101601f191682016040526104739190810190614212565b905060005b815181101561052b57600082828151811061048f57fe5b60200260200101516001600160a01b03166370a082318c6040518263ffffffff1660e01b81526004016104c29190614c85565b60206040518083038186803b1580156104da57600080fd5b505afa1580156104ee573d6000803e3d6000fd5b505050506040513d601f19601f82011682018060405250810190610512919061465a565b11156105235760019095019461052b565b600101610478565b50505b505b50600101610354565b506000816001600160401b038111801561055257600080fd5b5060405190808252806020026020018201604052801561057c578160200160208202803683370190505b5090506000826001600160401b038111801561059757600080fd5b506040519080825280602002602001820160405280156105d157816020015b6105be613ca7565b8152602001906001900390816105b65790505b5090506000805b85518110156108015760008682815181106105ef57fe5b6020026020010151604001519050806001600160a01b03166316dc15fe8b6040518263ffffffff1660e01b81526004016106299190614c85565b60206040518083038186803b15801561064157600080fd5b505afa925050508015610671575060408051601f3d908101601f1916820190925261066e91810190614564565b60015b61067a576107f8565b80156107f6576000826001600160a01b031663b0772d0b6040518163ffffffff1660e01b815260040160006040518083038186803b1580156106bb57600080fd5b505afa1580156106cf573d6000803e3d6000fd5b505050506040513d6000823e601f3d908101601f191682016040526106f79190810190614212565b905060005b81518110156107f357600082828151811061071357fe5b60200260200101516001600160a01b03166370a082318f6040518263ffffffff1660e01b81526004016107469190614c85565b60206040518083038186803b15801561075e57600080fd5b505afa158015610772573d6000803e3d6000fd5b505050506040513d601f19601f82011682018060405250810190610796919061465a565b11156107eb57848887815181106107a957fe5b6020026020010181815250508985815181106107c157fe5b60200260200101518787815181106107d557fe5b60209081029190910101526001909501946107f3565b6001016106fc565b50505b505b506001016105d8565b5091955093505050505b915091565b606061089182836001600160a01b031663b0772d0b6040518163ffffffff1660e01b815260040160006040518083038186803b15801561084f57600080fd5b505afa158015610863573d6000803e3d6000fd5b505050506040513d6000823e601f3d908101601f1916820160405261088b9190810190614212565b33612573565b90505b919050565b606080606080600080600060029054906101000a90046001600160a01b03166001600160a01b031663a3ed91c6886040518263ffffffff1660e01b81526004016108e39190614c85565b60006040518083038186803b1580156108fb57600080fd5b505afa15801561090f573d6000803e3d6000fd5b505050506040513d6000823e601f3d908101601f19168201604052610937919081019061448f565b91509150600080610947836132c1565b949a9399509750929550909350505050565b606080606080600086516001600160401b038111801561097857600080fd5b506040519080825280602002602001820160405280156109ac57816020015b60608152602001906001900390816109975790505b509050600087516001600160401b03811180156109c857600080fd5b506040519080825280602002602001820160405280156109f2578160200160208202803683370190505b509050600088516001600160401b0381118015610a0e57600080fd5b50604051908082528060200260200182016040528015610a38578160200160208202803683370190505b509050600089516001600160401b0381118015610a5457600080fd5b50604051908082528060200260200182016040528015610a7e578160200160208202803683370190505b50905060005b8a51811015610b9a57306001600160a01b0316639c00a3d48c8381518110610aa857fe5b60200260200101518c6040518363ffffffff1660e01b8152600401610ace929190614f00565b600060405180830381600087803b158015610ae857600080fd5b505af1925050508015610b1d57506040513d6000823e601f3d908101601f19168201604052610b1a9190810190614348565b60015b610b44576001828281518110610b2f57fe5b91151560209283029190910190910152610b92565b82888581518110610b5157fe5b602002602001018190525081878581518110610b6957fe5b60200260200101818152505080868581518110610b8257fe5b6020026020010181815250505050505b600101610a84565b509299919850965090945092505050565b60008060608060008060009050600080886001600160a01b031663b0772d0b6040518163ffffffff1660e01b815260040160006040518083038186803b158015610bf457600080fd5b505afa158015610c08573d6000803e3d6000fd5b505050506040513d6000823e601f3d908101601f19168201604052610c309190810190614212565b9050600081516001600160401b0381118015610c4b57600080fd5b50604051908082528060200260200182016040528015610c75578160200160208202803683370190505b509050600082516001600160401b0381118015610c9157600080fd5b50604051908082528060200260200182016040528015610cc557816020015b6060815260200190600190039081610cb05790505b50905060008b6001600160a01b0316637dc0d1d06040518163ffffffff1660e01b815260040160206040518083038186803b158015610d0357600080fd5b505afa158015610d17573d6000803e3d6000fd5b505050506040513d601f19601f82011682018060405250810190610d3b91906141c4565b905060005b8451811015611294576000858281518110610d5757fe5b6020026020010151905060008e6001600160a01b0316638e8f294b836040518263ffffffff1660e01b8152600401610d8f9190614c85565b604080518083038186803b158015610da657600080fd5b505afa158015610dba573d6000803e3d6000fd5b505050506040513d601f19601f82011682018060405250810190610dde9190614580565b50905080610ded57505061128c565b6000826001600160a01b03166373acee986040518163ffffffff1660e01b8152600401602060405180830381600087803b158015610e2a57600080fd5b505af1158015610e3e573d6000803e3d6000fd5b505050506040513d601f19601f82011682018060405250810190610e62919061465a565b9050600061100b610fc8856001600160a01b031663dc028ab16040518163ffffffff1660e01b815260040160206040518083038186803b158015610ea557600080fd5b505afa158015610eb9573d6000803e3d6000fd5b505050506040513d601f19601f82011682018060405250810190610edd919061465a565b610fc2876001600160a01b03166361feacff6040518163ffffffff1660e01b815260040160206040518083038186803b158015610f1957600080fd5b505afa158015610f2d573d6000803e3d6000fd5b505050506040513d601f19601f82011682018060405250810190610f51919061465a565b886001600160a01b0316638f840ddd6040518163ffffffff1660e01b815260040160206040518083038186803b158015610f8a57600080fd5b505afa158015610f9e573d6000803e3d6000fd5b505050506040513d601f19601f82011682018060405250810190610fc2919061465a565b9061347e565b61100584876001600160a01b0316633b1d21a26040518163ffffffff1660e01b815260040160206040518083038186803b158015610f8a57600080fd5b906134e1565b90506000866001600160a01b031663fc57d4df866040518263ffffffff1660e01b815260040161103b9190614c85565b60206040518083038186803b15801561105357600080fd5b505afa158015611067573d6000803e3d6000fd5b505050506040513d601f19601f8201168201806040525081019061108b919061465a565b90506110b36110ac670de0b6b3a76400006110a6868561353e565b90613597565b8d9061347e565b9b506110d56110ce670de0b6b3a76400006110a6858561353e565b8c9061347e565b9a50846001600160a01b031663ac784ddc6040518163ffffffff1660e01b815260040160206040518083038186803b15801561111057600080fd5b505afa158015611124573d6000803e3d6000fd5b505050506040513d601f19601f820116820180604052508101906111489190614564565b156111b357600089878151811061115b57fe5b60200260200101906001600160a01b031690816001600160a01b0316815250506040518060400160405280600381526020016208aa8960eb1b8152508887815181106111a357fe5b6020026020010181905250611286565b846001600160a01b0316636f307dc36040518163ffffffff1660e01b815260040160206040518083038186803b1580156111ec57600080fd5b505afa158015611200573d6000803e3d6000fd5b505050506040513d601f19601f8201168201806040525081019061122491906141c4565b89878151811061123057fe5b60200260200101906001600160a01b031690816001600160a01b03168152505061126c89878151811061125f57fe5b60200260200101516135fe565b905088878151811061127a57fe5b60200260200101819052505b50505050505b600101610d40565b5060008060029054906101000a90046001600160a01b03166001600160a01b03166343e20a1d8e6001600160a01b031663f851a4406040518163ffffffff1660e01b815260040160206040518083038186803b1580156112f357600080fd5b505afa158015611307573d6000803e3d6000fd5b505050506040513d601f19601f8201168201806040525081019061132b91906141c4565b6040518263ffffffff1660e01b81526004016113479190614c85565b60206040518083038186803b15801561135f57600080fd5b505afa158015611373573d6000803e3d6000fd5b505050506040513d601f19601f820116820180604052508101906113979190614564565b959d969c50929a5090985092965092945050505050565b606080606080600080610937876102c0565b60608060608060008061093787611b18565b600080600080600060029054906101000a90046001600160a01b03166001600160a01b031663d88ff1f46040518163ffffffff1660e01b815260040160006040518083038186803b15801561142657600080fd5b505afa15801561143a573d6000803e3d6000fd5b505050506040513d6000823e601f3d908101601f19168201604052611462919081019061445d565b90506000806000805b845181101561153257306001600160a01b031663d15e963186838151811061148f57fe5b6020026020010151604001518b6040518363ffffffff1660e01b81526004016114b9929190614c99565b6040805180830381600087803b1580156114d257600080fd5b505af1925050508015611502575060408051601f3d908101601f191682019092526114ff91810190614672565b60015b61150f576001915061152a565b611519858361347e565b9450611525868261347e565b955050505b60010161146b565b509097919650945092505050565b60606000806000856001600160a01b03166332abcdbe6040518163ffffffff1660e01b815260040160006040518083038186803b15801561158057600080fd5b505afa158015611594573d6000803e3d6000fd5b505050506040513d6000823e601f3d908101601f191682016040526115bc91908101906141e0565b90506000805b82518110156117ee5760008060006116808b8c6001600160a01b031663abfceffc8988815181106115ef57fe5b60200260200101516040518263ffffffff1660e01b81526004016116139190614c85565b60006040518083038186803b15801561162b57600080fd5b505afa15801561163f573d6000803e3d6000fd5b505050506040513d6000823e601f3d908101601f191682016040526116679190810190614212565b88878151811061167357fe5b6020026020010151612573565b905060005b8151811015611799576116e76116e0670de0b6b3a76400006110a68585815181106116ac57fe5b60200260200101516101e001518686815181106116c557fe5b6020026020010151610160015161353e90919063ffffffff16565b859061347e565b93508181815181106116f557fe5b60200260200101516101a00151156117915761178e611787670de0b6b3a76400006110a685858151811061172557fe5b60200260200101516102200151611781670de0b6b3a76400006110a689898151811061174d57fe5b60200260200101516101e001518a8a8151811061176657fe5b6020026020010151610140015161353e90919063ffffffff16565b9061353e565b849061347e565b92505b600101611685565b5060008084116117b8576ec097ce7bc90715b34b9f10000000006117ce565b6117ce846110a685670de0b6b3a764000061353e565b90508a81116117de576001909501945b5050600190920191506115c29050565b506000816001600160401b038111801561180757600080fd5b5060405190808252806020026020018201604052801561184157816020015b61182e613ce8565b8152602001906001900390816118265790505b5090506000805b8451811015611a235760008060006118f98d8e6001600160a01b031663abfceffc8b888151811061187557fe5b60200260200101516040518263ffffffff1660e01b81526004016118999190614c85565b60006040518083038186803b1580156118b157600080fd5b505afa1580156118c5573d6000803e3d6000fd5b505050506040513d6000823e601f3d908101601f191682016040526118ed9190810190614212565b8a878151811061167357fe5b905060005b815181101561196e576119256116e0670de0b6b3a76400006110a68585815181106116ac57fe5b935081818151811061193357fe5b60200260200101516101a001511561196657611963611787670de0b6b3a76400006110a685858151811061172557fe5b92505b6001016118fe565b50600080841161198d576ec097ce7bc90715b34b9f10000000006119a3565b6119a3846110a685670de0b6b3a764000061353e565b90508c8111156119b65750505050611a1b565b6040518060a001604052808a87815181106119cd57fe5b60200260200101516001600160a01b0316815260200185815260200184815260200182815260200183815250878781518110611a0557fe5b6020908102919091010152505060019093019250505b600101611848565b5081896001600160a01b031663e87554466040518163ffffffff1660e01b815260040160206040518083038186803b158015611a5e57600080fd5b505afa158015611a72573d6000803e3d6000fd5b505050506040513d601f19601f82011682018060405250810190611a96919061465a565b8a6001600160a01b0316634ada90af6040518163ffffffff1660e01b815260040160206040518083038186803b158015611acf57600080fd5b505afa158015611ae3573d6000803e3d6000fd5b505050506040513d601f19601f82011682018060405250810190611b07919061465a565b965096509650505050509250925092565b60608060008060029054906101000a90046001600160a01b03166001600160a01b031663d88ff1f46040518163ffffffff1660e01b815260040160006040518083038186803b158015611b6a57600080fd5b505afa158015611b7e573d6000803e3d6000fd5b505050506040513d6000823e601f3d908101601f19168201604052611ba6919081019061445d565b90506000805b8251811015611c62576000838281518110611bc357fe5b6020026020010151604001519050806001600160a01b0316639b19251a886040518263ffffffff1660e01b8152600401611bfd9190614c85565b60206040518083038186803b158015611c1557600080fd5b505afa158015611c29573d6000803e3d6000fd5b505050506040513d601f19601f82011682018060405250810190611c4d9190614564565b15611c59576001909201915b50600101611bac565b506000816001600160401b0381118015611c7b57600080fd5b50604051908082528060200260200182016040528015611ca5578160200160208202803683370190505b5090506000826001600160401b0381118015611cc057600080fd5b50604051908082528060200260200182016040528015611cfa57816020015b611ce7613ca7565b815260200190600190039081611cdf5790505b5090506000805b8551811015610801576000868281518110611d1857fe5b6020026020010151604001519050806001600160a01b0316639b19251a8b6040518263ffffffff1660e01b8152600401611d529190614c85565b60206040518083038186803b158015611d6a57600080fd5b505afa158015611d7e573d6000803e3d6000fd5b505050506040513d601f19601f82011682018060405250810190611da29190614564565b15611df75781858481518110611db457fe5b602002602001018181525050868281518110611dcc57fe5b6020026020010151848481518110611de057fe5b602090810291909101015250600190910190610801565b50600101611d01565b6000546201000090046001600160a01b031681565b600054610100900460ff1680611e2e5750611e2e613c90565b80611e3c575060005460ff16155b611e775760405162461bcd60e51b815260040180806020018281038252602e815260200180615072602e913960400191505060405180910390fd5b600054610100900460ff16158015611ea2576000805460ff1961ff0019909116610100171660011790555b6001600160a01b038216611ed15760405162461bcd60e51b8152600401611ec890614f19565b60405180910390fd5b6000805462010000600160b01b031916620100006001600160a01b038516021790558015611f05576000805461ff00191690555b5050565b606080606080600080600060029054906101000a90046001600160a01b03166001600160a01b0316634ae26ea16040518163ffffffff1660e01b815260040160006040518083038186803b158015611f6057600080fd5b505afa158015611f74573d6000803e3d6000fd5b505050506040513d6000823e601f3d908101601f19168201604052611f9c919081019061448f565b91509150600080611fac836132c1565b949993985096509294509092505050565b600080600080856001600160a01b03166316dc15fe866040518263ffffffff1660e01b8152600401611fef9190614c85565b60206040518083038186803b15801561200757600080fd5b505afa15801561201b573d6000803e3d6000fd5b505050506040513d601f19601f8201168201806040525081019061203f9190614564565b612051576000809350935050506123ce565b6000866001600160a01b031663b0772d0b6040518163ffffffff1660e01b815260040160006040518083038186803b15801561208c57600080fd5b505afa1580156120a0573d6000803e3d6000fd5b505050506040513d6000823e601f3d908101601f191682016040526120c89190810190614212565b90506000876001600160a01b0316637dc0d1d06040518163ffffffff1660e01b815260040160206040518083038186803b15801561210557600080fd5b505afa158015612119573d6000803e3d6000fd5b505050506040513d601f19601f8201168201806040525081019061213d91906141c4565b905060005b82518110156123c457600083828151811061215957fe5b6020026020010151905060008a6001600160a01b0316638e8f294b836040518263ffffffff1660e01b81526004016121919190614c85565b604080518083038186803b1580156121a857600080fd5b505afa1580156121bc573d6000803e3d6000fd5b505050506040513d601f19601f820116820180604052508101906121e09190614580565b509050806121ef5750506123bc565b604051633af9e66960e01b81526000906001600160a01b03841690633af9e6699061221e908e90600401614c85565b602060405180830381600087803b15801561223857600080fd5b505af115801561224c573d6000803e3d6000fd5b505050506040513d601f19601f82011682018060405250810190612270919061465a565b90506000836001600160a01b03166395dd91938d6040518263ffffffff1660e01b81526004016122a09190614c85565b60206040518083038186803b1580156122b857600080fd5b505afa1580156122cc573d6000803e3d6000fd5b505050506040513d601f19601f820116820180604052508101906122f0919061465a565b90506000866001600160a01b031663fc57d4df866040518263ffffffff1660e01b81526004016123209190614c85565b60206040518083038186803b15801561233857600080fd5b505afa15801561234c573d6000803e3d6000fd5b505050506040513d601f19601f82011682018060405250810190612370919061465a565b905061239261238b670de0b6b3a76400006110a6858561353e565b8b9061347e565b99506123b46123ad670de0b6b3a76400006110a6868561353e565b8a9061347e565b985050505050505b600101612142565b5091945091925050505b9250929050565b606080606080600080600060029054906101000a90046001600160a01b03166001600160a01b031663218a3bbe886040518263ffffffff1660e01b81526004016108e39190614ef5565b60608060608060608060008060029054906101000a90046001600160a01b03166001600160a01b0316634ae26ea16040518163ffffffff1660e01b815260040160006040518083038186803b15801561247757600080fd5b505afa15801561248b573d6000803e3d6000fd5b505050506040513d6000823e601f3d908101601f191682016040526124b3919081019061448f565b91505080516001600160401b03811180156124cd57600080fd5b506040519080825280602002602001820160405280156124f7578160200160208202803683370190505b50915060005b815181101561254a5781818151811061251257fe5b60200260200101516040015183828151811061252a57fe5b6001600160a01b03909216602092830291909101909101526001016124fd565b505060008060008061255c858c610959565b979e929d50909b5099509497509395505050505050565b60606000805b845181101561262b576000866001600160a01b0316638e8f294b87848151811061259f57fe5b60200260200101516040518263ffffffff1660e01b81526004016125c39190614c85565b604080518083038186803b1580156125da57600080fd5b505afa1580156125ee573d6000803e3d6000fd5b505050506040513d601f19601f820116820180604052508101906126129190614580565b5090508015612622576001909201915b50600101612579565b506000816001600160401b038111801561264457600080fd5b5060405190808252806020026020018201604052801561267e57816020015b61266b613d20565b8152602001906001900390816126635790505b509050600080876001600160a01b0316637dc0d1d06040518163ffffffff1660e01b815260040160206040518083038186803b1580156126bd57600080fd5b505afa1580156126d1573d6000803e3d6000fd5b505050506040513d601f19601f820116820180604052508101906126f591906141c4565b905060005b87518110156132b4576000808a6001600160a01b0316638e8f294b8b858151811061272157fe5b60200260200101516040518263ffffffff1660e01b81526004016127459190614c85565b604080518083038186803b15801561275c57600080fd5b505afa158015612770573d6000803e3d6000fd5b505050506040513d601f19601f820116820180604052508101906127949190614580565b91509150816127a45750506132ac565b6127ac613d20565b60008b85815181106127ba57fe5b6020908102919091018101516001600160a01b03811680855260408051632b1e137760e21b81529051929450909263ac784ddc92600480840193829003018186803b15801561280857600080fd5b505afa15801561281c573d6000803e3d6000fd5b505050506040513d601f19601f820116820180604052508101906128409190614564565b156128a6576040805180820182526008815267457468657265756d60c01b602080830191909152848301919091528151808301909252600382526208aa8960eb1b908201526060830152601260808301526001600160a01b038b163160a0830152612a3c565b806001600160a01b0316636f307dc36040518163ffffffff1660e01b815260040160206040518083038186803b1580156128df57600080fd5b505afa1580156128f3573d6000803e3d6000fd5b505050506040513d601f19601f8201168201806040525081019061291791906141c4565b6001600160a01b031660208301819052612930816135fe565b84604001856060018290528290525050806001600160a01b031663313ce5676040518163ffffffff1660e01b815260040160206040518083038186803b15801561297957600080fd5b505afa15801561298d573d6000803e3d6000fd5b505050506040513d601f19601f820116820180604052508101906129b19190614768565b60ff1660808401526040516370a0823160e01b81526001600160a01b038216906370a08231906129e5908f90600401614c85565b60206040518083038186803b1580156129fd57600080fd5b505afa158015612a11573d6000803e3d6000fd5b505050506040513d601f19601f82011682018060405250810190612a35919061465a565b60a0840152505b806001600160a01b031663ae9d70b06040518163ffffffff1660e01b815260040160206040518083038186803b158015612a7557600080fd5b505afa158015612a89573d6000803e3d6000fd5b505050506040513d601f19601f82011682018060405250810190612aad919061465a565b8260c0018181525050806001600160a01b031663f8f9da286040518163ffffffff1660e01b815260040160206040518083038186803b158015612aef57600080fd5b505afa158015612b03573d6000803e3d6000fd5b505050506040513d601f19601f82011682018060405250810190612b27919061465a565b8260e0018181525050806001600160a01b0316633b1d21a26040518163ffffffff1660e01b815260040160206040518083038186803b158015612b6957600080fd5b505afa158015612b7d573d6000803e3d6000fd5b505050506040513d601f19601f82011682018060405250810190612ba1919061465a565b82610180018181525050806001600160a01b03166373acee986040518163ffffffff1660e01b8152600401602060405180830381600087803b158015612be657600080fd5b505af1158015612bfa573d6000803e3d6000fd5b505050506040513d601f19601f82011682018060405250810190612c1e919061465a565b82610120018181525050612d61612d4c826001600160a01b031663dc028ab16040518163ffffffff1660e01b815260040160206040518083038186803b158015612c6757600080fd5b505afa158015612c7b573d6000803e3d6000fd5b505050506040513d601f19601f82011682018060405250810190612c9f919061465a565b610fc2846001600160a01b03166361feacff6040518163ffffffff1660e01b815260040160206040518083038186803b158015612cdb57600080fd5b505afa158015612cef573d6000803e3d6000fd5b505050506040513d601f19601f82011682018060405250810190612d13919061465a565b856001600160a01b0316638f840ddd6040518163ffffffff1660e01b815260040160206040518083038186803b158015610f8a57600080fd5b6101208401516101808501516110059161347e565b610100830152604051633af9e66960e01b81526001600160a01b03821690633af9e66990612d93908e90600401614c85565b602060405180830381600087803b158015612dad57600080fd5b505af1158015612dc1573d6000803e3d6000fd5b505050506040513d601f19601f82011682018060405250810190612de5919061465a565b6101408301526040516395dd919360e01b81526001600160a01b038216906395dd919390612e17908e90600401614c85565b60206040518083038186803b158015612e2f57600080fd5b505afa158015612e43573d6000803e3d6000fd5b505050506040513d601f19601f82011682018060405250810190612e67919061465a565b61016083015260405163929fe9a160e01b81526001600160a01b038e169063929fe9a190612e9b908e908590600401614c99565b60206040518083038186803b158015612eb357600080fd5b505afa158015612ec7573d6000803e3d6000fd5b505050506040513d601f19601f82011682018060405250810190612eeb9190614564565b15156101a08301526040805163182df0f560e01b815290516001600160a01b0383169163182df0f5916004808301926020929190829003018186803b158015612f3357600080fd5b505afa158015612f47573d6000803e3d6000fd5b505050506040513d601f19601f82011682018060405250810190612f6b919061465a565b6101c083015260405163fc57d4df60e01b81526001600160a01b0387169063fc57d4df90612f9d908490600401614c85565b60206040518083038186803b158015612fb557600080fd5b505afa158015612fc9573d6000803e3d6000fd5b505050506040513d601f19601f82011682018060405250810190612fed919061465a565b6101e08301526001600160a01b0386166102008301819052602083015160405163addd509960e01b815263addd50999161302991600401614c85565b60206040518083038186803b15801561304157600080fd5b505afa925050508015613071575060408051601f3d908101601f1916820190925261306e918101906141c4565b60015b61307a5761308a565b6001600160a01b03166102008301525b8282610220018181525050806001600160a01b031663173b99046040518163ffffffff1660e01b815260040160206040518083038186803b1580156130ce57600080fd5b505afa1580156130e2573d6000803e3d6000fd5b505050506040513d601f19601f82011682018060405250810190613106919061465a565b82610240018181525050806001600160a01b0316638d02d9a16040518163ffffffff1660e01b815260040160206040518083038186803b15801561314957600080fd5b505afa15801561315d573d6000803e3d6000fd5b505050506040513d601f19601f82011682018060405250810190613181919061465a565b82610260018181525050806001600160a01b031663dbfe7c196040518163ffffffff1660e01b815260040160206040518083038186803b1580156131c457600080fd5b505afa1580156131d8573d6000803e3d6000fd5b505050506040513d601f19601f820116820180604052508101906131fc919061465a565b610280830152604051636d154ea560e01b81526001600160a01b038e1690636d154ea59061322e908490600401614c85565b60206040518083038186803b15801561324657600080fd5b505afa15801561325a573d6000803e3d6000fd5b505050506040513d601f19601f8201168201806040525081019061327e9190614564565b15156102a08301528751829089908990811061329657fe5b6020908102919091010152505060019094019350505b6001016126fa565b5091979650505050505050565b606080600083516001600160401b03811180156132dd57600080fd5b5060405190808252806020026020018201604052801561331757816020015b613304613de6565b8152602001906001900390816132fc5790505b509050600084516001600160401b038111801561333357600080fd5b5060405190808252806020026020018201604052801561335d578160200160208202803683370190505b50905060005b855181101561347357306001600160a01b03166359d2fea687838151811061338757fe5b6020026020010151604001516040518263ffffffff1660e01b81526004016133af9190614c85565b600060405180830381600087803b1580156133c957600080fd5b505af19250505080156133fe57506040513d6000823e601f3d908101601f191682016040526133fb9190810190614695565b60015b61342557600182828151811061341057fe5b9115156020928302919091019091015261346b565b6040518060a0016040528086815260200185815260200184815260200183815260200182151581525088878151811061345a57fe5b602002602001018190525050505050505b600101613363565b509092509050915091565b6000828201838110156134d8576040805162461bcd60e51b815260206004820152601b60248201527f536166654d6174683a206164646974696f6e206f766572666c6f770000000000604482015290519081900360640190fd5b90505b92915050565b600082821115613538576040805162461bcd60e51b815260206004820152601e60248201527f536166654d6174683a207375627472616374696f6e206f766572666c6f770000604482015290519081900360640190fd5b50900390565b60008261354d575060006134db565b8282028284828161355a57fe5b04146134d85760405162461bcd60e51b81526004018080602001828103825260218152602001806150a06021913960400191505060405180910390fd5b60008082116135ed576040805162461bcd60e51b815260206004820152601a60248201527f536166654d6174683a206469766973696f6e206279207a65726f000000000000604482015290519081900360640190fd5b8183816135f657fe5b049392505050565b606080739f8f72aa9304c8b593d555f12ef6589cc3a579a26001600160a01b0384161415613669576040518060400160405280600581526020016426b0b5b2b960d91b8152506040518060400160405280600381526020016226a5a960e91b8152509150915061080b565b73b8c77482e45f1f44de1745f52c74426c631bdd526001600160a01b03841614156136cf576040518060400160405280600381526020016221272160e91b8152506040518060400160405280600381526020016221272160e91b8152509150915061080b565b60008390506000816001600160a01b03166306fdde036040518163ffffffff1660e01b815260040160006040518083038186803b15801561370f57600080fd5b505afa158015613723573d6000803e3d6000fd5b505050506040513d6000823e601f3d908101601f1916820160405261374b9190810190614610565b90506000826001600160a01b03166395d89b416040518163ffffffff1660e01b815260040160006040518083038186803b15801561378857600080fd5b505afa15801561379c573d6000803e3d6000fd5b505050506040513d6000823e601f3d908101601f191682016040526137c49190810190614610565b9050856001600160a01b0316630dfe16816040518163ffffffff1660e01b815260040160206040518083038186803b1580156137ff57600080fd5b505afa92505050801561382f575060408051601f3d908101601f1916820190925261382c918101906141c4565b60015b61383857613c85565b600060405160200161384990614c42565b60405160208183030381529060405280519060200120846040516020016138709190614b78565b604051602081830303815290604052805190602001201480156138dc575060405160200161389d90614c30565b60405160208183030381529060405280519060200120836040516020016138c49190614b78565b60405160208183030381529060405280519060200120145b905060008115801561393757506040516020016138f890614c67565b604051602081830303815290604052805190602001208560405160200161391f9190614b78565b60405160208183030381529060405280519060200120145b801561398c575060405160200161394d90614c58565b60405160208183030381529060405280519060200120846040516020016139749190614b78565b60405160208183030381529060405280519060200120145b905081806139975750805b15613c8157600083905060008a6001600160a01b031663d21220a76040518163ffffffff1660e01b815260040160206040518083038186803b1580156139dc57600080fd5b505afa1580156139f0573d6000803e3d6000fd5b505050506040513d601f19601f82011682018060405250810190613a1491906141c4565b905082613a41576040518060400160405280600881526020016702ab734b9bbb0b8160c51b815250613a65565b6040518060400160405280600a815260200169029bab9b434a9bbb0b8160b51b8152505b826001600160a01b03166395d89b416040518163ffffffff1660e01b815260040160006040518083038186803b158015613a9e57600080fd5b505afa158015613ab2573d6000803e3d6000fd5b505050506040513d6000823e601f3d908101601f19168201604052613ada9190810190614610565b826001600160a01b03166395d89b416040518163ffffffff1660e01b815260040160006040518083038186803b158015613b1357600080fd5b505afa158015613b27573d6000803e3d6000fd5b505050506040513d6000823e601f3d908101601f19168201604052613b4f9190810190614610565b604051602001613b6193929190614b94565b6040516020818303038152906040529650816001600160a01b03166395d89b416040518163ffffffff1660e01b815260040160006040518083038186803b158015613bab57600080fd5b505afa158015613bbf573d6000803e3d6000fd5b505050506040513d6000823e601f3d908101601f19168201604052613be79190810190614610565b816001600160a01b03166395d89b416040518163ffffffff1660e01b815260040160006040518083038186803b158015613c2057600080fd5b505afa158015613c34573d6000803e3d6000fd5b505050506040513d6000823e601f3d908101601f19168201604052613c5c9190810190614610565b604051602001613c6d929190614bf4565b604051602081830303815290604052955050505b5050505b909350915050915091565b6000613c9b30613ca1565b15905090565b3b151590565b6040518060a001604052806060815260200160006001600160a01b0316815260200160006001600160a01b0316815260200160008152602001600081525090565b6040518060a0016040528060006001600160a01b03168152602001600081526020016000815260200160008152602001606081525090565b604051806102c0016040528060006001600160a01b0316815260200160006001600160a01b031681526020016060815260200160608152602001600081526020016000815260200160008152602001600081526020016000815260200160008152602001600081526020016000815260200160008152602001600015158152602001600081526020016000815260200160006001600160a01b03168152602001600081526020016000815260200160008152602001600081526020016000151581525090565b6040518060a00160405280600081526020016000815260200160608152602001606081526020016000151581525090565b80516108948161504b565b600082601f830112613e32578081fd5b81516020613e47613e4283614ffe565b614fdb565b8281528181019085830183850287018401881015613e63578586fd5b855b85811015613e8a578151613e788161504b565b84529284019290840190600101613e65565b5090979650505050505050565b600082601f830112613ea7578081fd5b81516020613eb7613e4283614ffe565b82815281810190858301855b85811015613e8a57815188016102c080601f19838d03011215613ee4578889fd5b613eed81614fdb565b613ef8888401613e17565b8152613f0660408401613e17565b8882015260608301516001600160401b0380821115613f23578b8cfd5b613f318e8b84880101614145565b6040840152608091508185015181811115613f4a578c8dfd5b613f588f8c83890101614145565b6060850152505060a0808501518284015260c085015181840152505060e083015160c08201526101008084015160e083015261012080850151828401526101409150818501518184015250610160808501518284015261018091508185015181840152506101a080850151828401526101c09150613fd782860161413a565b81840152506101e080850151828401526102009150818501518184015250610220614003818601613e17565b828401526102409150818501518184015250610260808501518284015261028091508185015181840152506102a0808501518284015261404484860161413a565b9083015250865250509284019290840190600101613ec3565b600082601f83011261406d578081fd5b8151602061407d613e4283614ffe565b82815281810190858301855b85811015613e8a578151880160a080601f19838d030112156140a9578889fd5b604080518281016001600160401b0382821081831117156140c657fe5b908352848a015190808211156140da578c8dfd5b506140e98e8b83880101614145565b8252506140f7828501613e17565b898201526060614108818601613e17565b928201929092526080848101519282019290925291909201519181019190915284529284019290840190600101614089565b805161089481615063565b600082601f830112614155578081fd5b81516001600160401b0381111561416857fe5b61417b601f8201601f1916602001614fdb565b81815284602083860101111561418f578283fd5b6141a082602083016020870161501b565b949350505050565b6000602082840312156141b9578081fd5b81356134d88161504b565b6000602082840312156141d5578081fd5b81516134d88161504b565b6000602082840312156141f1578081fd5b81516001600160401b03811115614206578182fd5b6141a084828501613e22565b60006020808385031215614224578182fd5b82516001600160401b03811115614239578283fd5b8301601f81018513614249578283fd5b8051614257613e4282614ffe565b8181528381019083850185840285018601891015614273578687fd5b8694505b8385101561429e57805161428a8161504b565b835260019490940193918501918501614277565b50979650505050505050565b600080604083850312156142bc578081fd5b82356001600160401b038111156142d1578182fd5b8301601f810185136142e1578182fd5b803560206142f1613e4283614ffe565b82815281810190848301838502860184018a101561430d578687fd5b8695505b848610156143385780356143248161504b565b835260019590950194918301918301614311565b5098969091013596505050505050565b60008060006060848603121561435c578081fd5b83516001600160401b0380821115614372578283fd5b818601915086601f830112614385578283fd5b8151614393613e4282614ffe565b818152602080820191908501865b84811015614440578151870160a0818e03601f190112156143c0578889fd5b60405160a0810181811089821117156143d557fe5b6040526143e460208301613e17565b815260408201516020820152606082015160408201526080820151606082015260a082015188811115614415578a8bfd5b6144248f602083860101613e97565b60808301525085525060209384019391909101906001016143a1565b50506020890151604090990151909a989950979650505050505050565b60006020828403121561446e578081fd5b81516001600160401b03811115614483578182fd5b6141a08482850161405d565b600080604083850312156144a1578182fd5b82516001600160401b03808211156144b7578384fd5b818501915085601f8301126144ca578384fd5b815160206144da613e4283614ffe565b82815281810190858301838502870184018b10156144f6578889fd5b8896505b848710156145185780518352600196909601959183019183016144fa565b5091880151919650909350505080821115614531578283fd5b5061453e8582860161405d565b9150509250929050565b600060208284031215614559578081fd5b81356134d881615063565b600060208284031215614575578081fd5b81516134d881615063565b60008060408385031215614592578182fd5b825161459d81615063565b6020939093015192949293505050565b600080604083850312156145bf578182fd5b82356145ca8161504b565b915060208301356145da8161504b565b809150509250929050565b600080604083850312156145f7578182fd5b82356146028161504b565b946020939093013593505050565b600060208284031215614621578081fd5b81516001600160401b03811115614636578182fd5b6141a084828501614145565b600060208284031215614653578081fd5b5035919050565b60006020828403121561466b578081fd5b5051919050565b60008060408385031215614684578182fd5b505080516020909101519092909150565b600080600080600060a086880312156146ac578283fd5b85519450602080870151945060408701516001600160401b03808211156146d1578586fd5b6146dd8a838b01613e22565b955060608901519150808211156146f2578384fd5b508701601f81018913614703578283fd5b8051614711613e4282614ffe565b81815283810190838501865b84811015614746576147348e888451890101614145565b8452928601929086019060010161471d565b5050809650505050505061475c6080870161413a565b90509295509295909350565b600060208284031215614779578081fd5b815160ff811681146134d8578182fd5b6001600160a01b03169052565b6000815180845260208085019450808401835b838110156147ce5781516001600160a01b0316875295820195908201906001016147a9565b509495945050505050565b6000815180845260208085018081965082840281019150828601855b858110156132b457828403895261480d848351614a0c565b988501989350908401906001016147f5565b6000815180845260208085019450808401835b838110156147ce578151151587529582019590820190600101614832565b6000815180845260208085018081965082840281019150828601855b858110156132b4578284038952614884848351614b4c565b9885019893509084019060010161486c565b6000815180845260208085018081965082840281019150828601855b858110156132b457828403895281516102c06148cf868351614789565b868201516148df88880182614789565b5060408083015182828901526148f783890182614b4c565b92505050606080830151878303828901526149128382614b4c565b608085810151908a015260a080860151908a015260c080860151908a015260e080860151908a015261010080860151908a015261012080860151908a015261014080860151908a015261016080860151908a015261018080860151908a01526101a0808601519194509250905061498b82890182614b46565b50506101c082810151908701526101e08083015190870152610200808301516149b682890182614789565b505061022082810151908701526102408083015190870152610260808301519087015261028080830151908701526102a091820151916149f881880184614b46565b5099860199945050908401906001016148b2565b6000815180845260208085018081965082840281019150828601855b858110156132b4578284038952815180516001600160a01b031685528581015186860152604080820151908601526060808201519086015260809081015160a091860182905290614a7b81870183614896565b9a87019a9550505090840190600101614a28565b6000815180845260208085018081965082840281019150828601855b858110156132b4578284038952815160a08151818752614acd82880182614b4c565b838901516001600160a01b03908116898b01526040808601519091169089015260608085015190890152608093840151939097019290925250509784019790840190600101614aab565b6000815180845260208085019450808401835b838110156147ce57815187529582019590820190600101614b2a565b15159052565b60008151808452614b6481602086016020860161501b565b601f01601f19169290920160200192915050565b60008251614b8a81846020870161501b565b9190910192915050565b60008451614ba681846020890161501b565b845190830190614bba81836020890161501b565b602f60f81b91019081528351614bd781600184016020880161501b565b620204c560ec1b6001929091019182015260040195945050505050565b60008351614c0681846020880161501b565b602d60f81b9083019081528351614c2481600184016020880161501b565b01600101949350505050565b652aa72496ab1960d11b815260060190565b692ab734b9bbb0b8102b1960b11b8152600a0190565b620534c560ec1b815260030190565b7129bab9b434a9bbb0b8102628102a37b5b2b760711b815260120190565b6001600160a01b0391909116815260200190565b6001600160a01b0392831681529116602082015260400190565b600060808252614cc660808301876147d9565b8281036020840152614cd88187614b17565b90508281036040840152614cec8186614b17565b90508281036060840152614d00818561481f565b979650505050505050565b60a0808252865190820181905260009060209060c0840190828a01845b82811015614d4d5781516001600160a01b031684529284019290840190600101614d28565b50505083810382850152614d6181896147d9565b9150508281036040840152614d768187614b17565b90508281036060840152614d8a8186614b17565b90508281036080840152614d9e818561481f565b98975050505050505050565b600060208252614dbd6020830184614896565b9392505050565b600060608252614dd76060830186614a0c565b60208301949094525060400152919050565b600060408252614dfc6040830185614b17565b8281036020840152614e0e8185614a8f565b95945050505050565b60006080808352614e2a81840188614b17565b602084820381860152614e3d8289614a8f565b9150604085830381870152828851808552838501915083848202860101848b01885b83811015614ed057601f19888403018552815160a0815185528882015189860152878201518189870152614e9582870182614796565b91505060608083015186830382880152614eaf8382614850565b938d01511515968d0196909652505094870194925090860190600101614e5f565b505088810360608a0152614ee4818b61481f565b9d9c50505050505050505050505050565b901515815260200190565b6001600160a01b03929092168252602082015260400190565b60208082526036908201527f46757365506f6f6c4469726563746f727920696e7374616e63652063616e6e6f6040820152753a103132903a3432903d32b9379030b2323932b9b99760511b606082015260800190565b918252602082015260400190565b600086825285602083015260a06040830152614f9c60a0830186614796565b8281036060840152614fae8186614850565b91505082151560808301529695505050505050565b92835260208301919091521515604082015260600190565b6040518181016001600160401b0381118282101715614ff657fe5b604052919050565b60006001600160401b0382111561501157fe5b5060209081020190565b60005b8381101561503657818101518382015260200161501e565b83811115615045576000848401525b50505050565b6001600160a01b038116811461506057600080fd5b50565b801515811461506057600080fdfe496e697469616c697a61626c653a20636f6e747261637420697320616c726561647920696e697469616c697a6564536166654d6174683a206d756c7469706c69636174696f6e206f766572666c6f77a26469706673582212207a0ff1c81710b5dc08953459daaba602aa94fb3f9672d178f6216401fc74844064736f6c63430007060033",
  "devdoc": {
    "author": "David Lucid <david@rari.capital> (https://github.com/davidlucid)",
    "kind": "dev",
    "methods": {
      "getPoolAssetsWithData(address)": {
        "details": "This function is not designed to be called in a transaction: it is too gas-intensive. Ideally, we can add the `view` modifier, but many cToken functions potentially modify the state.",
        "params": {
          "comptroller": "The Comptroller proxy contract of the Fuse pool."
        },
        "returns": {
          "_0": "An array of Fuse pool assets."
        }
      },
      "getPoolUserSummary(address,address)": {
        "details": "This function is not designed to be called in a transaction: it is too gas-intensive. Ideally, we can add the `view` modifier, but many cToken functions potentially modify the state."
      },
      "getPoolUsersWithData(address,uint256)": {
        "details": "This function is not designed to be called in a transaction: it is too gas-intensive. Ideally, we can add the `view` modifier, but many cToken functions potentially modify the state.",
        "params": {
          "comptroller": "The Comptroller proxy contract of the Fuse pool.",
          "maxHealth": "The maximum health (scaled by 1e18) for which to return data."
        },
        "returns": {
          "_0": "An array of Fuse pool users, the pool's close factor, and the pool's liquidation incentive."
        }
      },
      "getPoolUsersWithData(address[],uint256)": {
        "details": "This function is not designed to be called in a transaction: it is too gas-intensive. Ideally, we can add the `view` modifier, but many cToken functions potentially modify the state.",
        "params": {
          "comptrollers": "The Comptroller proxy contracts of the Fuse pools.",
          "maxHealth": "The maximum health (scaled by 1e18) for which to return data."
        },
        "returns": {
          "_0": "An array of arrays of Fuse pool users, an array of pools' close factors, an array of pools' liquidation incentives, and an array of booleans indicating if retrieving each pool's data failed."
        }
      },
      "getPoolsByAccountWithData(address)": {
        "details": "This function is not designed to be called in a transaction: it is too gas-intensive. Ideally, we can add the `view` modifier, but many cToken functions potentially modify the state."
      },
      "getPoolsBySupplier(address)": {
        "details": "This function is not designed to be called in a transaction: it is too gas-intensive."
      },
      "getPoolsBySupplierWithData(address)": {
        "details": "This function is not designed to be called in a transaction: it is too gas-intensive. Ideally, we can add the `view` modifier, but many cToken functions potentially modify the state."
      },
      "getPublicPoolUsersWithData(uint256)": {
        "details": "This function is not designed to be called in a transaction: it is too gas-intensive. Ideally, we can add the `view` modifier, but many cToken functions potentially modify the state.",
        "params": {
          "maxHealth": "The maximum health (scaled by 1e18) for which to return data."
        },
        "returns": {
          "_0": "An array of pools' Comptroller proxy addresses, an array of arrays of Fuse pool users, an array of pools' close factors, an array of pools' liquidation incentives, and an array of booleans indicating if retrieving each pool's data failed."
        }
      },
      "getPublicPoolsByVerificationWithData(bool)": {
        "details": "This function is not designed to be called in a transaction: it is too gas-intensive. Ideally, we can add the `view` modifier, but many cToken functions potentially modify the state."
      },
      "getPublicPoolsWithData()": {
        "details": "This function is not designed to be called in a transaction: it is too gas-intensive. Ideally, we can add the `view` modifier, but many cToken functions potentially modify the state."
      },
      "getUserSummary(address)": {
        "details": "This function is not designed to be called in a transaction: it is too gas-intensive. Ideally, we can add the `view` modifier, but many cToken functions potentially modify the state."
      },
      "getWhitelistedPoolsByAccount(address)": {
        "details": "This function is not designed to be called in a transaction: it is too gas-intensive."
      },
      "getWhitelistedPoolsByAccountWithData(address)": {
        "details": "This function is not designed to be called in a transaction: it is too gas-intensive. Ideally, we can add the `view` modifier, but many cToken functions potentially modify the state."
      }
    },
    "title": "FusePoolLens",
    "version": 1
  },
  "userdoc": {
    "kind": "user",
    "methods": {
      "directory()": {
        "notice": "`FusePoolDirectory` contract object."
      },
      "getPoolAssetsWithData(address)": {
        "notice": "Returns the assets of the specified Fuse pool."
      },
      "getPoolSummary(address)": {
        "notice": "Returns total supply balance (in ETH), total borrow balance (in ETH), underlying token addresses, and underlying token symbols of a Fuse pool."
      },
      "getPoolUserSummary(address,address)": {
        "notice": "Returns the total supply balance (in ETH) and the total borrow balance (in ETH) of the caller in the specified pool."
      },
      "getPoolUsersWithData(address,uint256)": {
        "notice": "Returns the borrowers of the specified Fuse pool."
      },
      "getPoolUsersWithData(address[],uint256)": {
        "notice": "Returns the users of the specified Fuse pools."
      },
      "getPoolsByAccountWithData(address)": {
        "notice": "Returns arrays of the indexes of Fuse pools created by `account`, data, total supply balances (in ETH), total borrow balances (in ETH), arrays of underlying token addresses, arrays of underlying asset symbols, and booleans indicating if retrieving each pool's data failed."
      },
      "getPoolsBySupplier(address)": {
        "notice": "Returns arrays of Fuse pool indexes and data supplied to by `account`."
      },
      "getPoolsBySupplierWithData(address)": {
        "notice": "Returns arrays of the indexes of Fuse pools supplied to by `account`, data, total supply balances (in ETH), total borrow balances (in ETH), arrays of underlying token addresses, arrays of underlying asset symbols, and booleans indicating if retrieving each pool's data failed."
      },
      "getPublicPoolUsersWithData(uint256)": {
        "notice": "Returns the users of each public Fuse pool."
      },
      "getPublicPoolsByVerificationWithData(bool)": {
        "notice": "Returns arrays of all whitelisted public Fuse pool indexes, data, total supply balances (in ETH), total borrow balances (in ETH), arrays of underlying token addresses, arrays of underlying asset symbols, and booleans indicating if retrieving each pool's data failed."
      },
      "getPublicPoolsWithData()": {
        "notice": "Returns arrays of all public Fuse pool indexes, data, total supply balances (in ETH), total borrow balances (in ETH), arrays of underlying token addresses, arrays of underlying asset symbols, and booleans indicating if retrieving each pool's data failed."
      },
      "getUserSummary(address)": {
        "notice": "Returns the total supply balance (in ETH) and the total borrow balance (in ETH) of the caller across all pools."
      },
      "getWhitelistedPoolsByAccount(address)": {
        "notice": "Returns arrays of Fuse pool indexes and data with a whitelist containing `account`. Note that the whitelist does not have to be enforced."
      },
      "getWhitelistedPoolsByAccountWithData(address)": {
        "notice": "Returns arrays of the indexes of Fuse pools with a whitelist containing `account`, data, total supply balances (in ETH), total borrow balances (in ETH), arrays of underlying token addresses, arrays of underlying asset symbols, and booleans indicating if retrieving each pool's data failed."
      },
      "initialize(address)": {
        "notice": "Constructor to set the `FusePoolDirectory` contract object."
      }
    },
    "notice": "FusePoolLens returns data on Fuse interest rate pools in mass for viewing by dApps, bots, etc.",
    "version": 1
  },
  "storageLayout": {
    "storage": [
      {
        "astId": 572,
        "contract": "contracts/FusePoolLens.sol:FusePoolLens",
        "label": "_initialized",
        "offset": 0,
        "slot": "0",
        "type": "t_bool"
      },
      {
        "astId": 575,
        "contract": "contracts/FusePoolLens.sol:FusePoolLens",
        "label": "_initializing",
        "offset": 1,
        "slot": "0",
        "type": "t_bool"
      },
      {
        "astId": 3793,
        "contract": "contracts/FusePoolLens.sol:FusePoolLens",
        "label": "directory",
        "offset": 2,
        "slot": "0",
        "type": "t_contract(FusePoolDirectory)3744"
      }
    ],
    "types": {
      "t_bool": {
        "encoding": "inplace",
        "label": "bool",
        "numberOfBytes": "1"
      },
      "t_contract(FusePoolDirectory)3744": {
        "encoding": "inplace",
        "label": "contract FusePoolDirectory",
        "numberOfBytes": "20"
      }
    }
  }
}