{
  "address": "0xDAD9559AA96509c7ad576dceFd84Fe06C2D4707b",
  "abi": [
    {
      "anonymous": false,
      "inputs": [
        {
          "indexed": false,
          "internalType": "address[]",
          "name": "admins",
          "type": "address[]"
        },
        {
          "indexed": false,
          "internalType": "bool",
          "name": "status",
          "type": "bool"
        }
      ],
      "name": "AdminWhitelistUpdated",
      "type": "event"
    },
    {
      "anonymous": false,
      "inputs": [
        {
          "indexed": true,
          "internalType": "address",
          "name": "previousOwner",
          "type": "address"
        },
        {
          "indexed": true,
          "internalType": "address",
          "name": "newOwner",
          "type": "address"
        }
      ],
      "name": "OwnershipTransferred",
      "type": "event"
    },
    {
      "anonymous": false,
      "inputs": [
        {
          "indexed": false,
          "internalType": "uint256",
          "name": "index",
          "type": "uint256"
        },
        {
          "components": [
            {
              "internalType": "string",
              "name": "name",
              "type": "string"
            },
            {
              "internalType": "address",
              "name": "creator",
              "type": "address"
            },
            {
              "internalType": "address",
              "name": "comptroller",
              "type": "address"
            },
            {
              "internalType": "uint256",
              "name": "blockPosted",
              "type": "uint256"
            },
            {
              "internalType": "uint256",
              "name": "timestampPosted",
              "type": "uint256"
            }
          ],
          "indexed": false,
          "internalType": "struct FusePoolDirectory.FusePool",
          "name": "pool",
          "type": "tuple"
        }
      ],
      "name": "PoolRegistered",
      "type": "event"
    },
    {
      "inputs": [
        {
          "internalType": "address[]",
          "name": "admins",
          "type": "address[]"
        },
        {
          "internalType": "bool",
          "name": "status",
          "type": "bool"
        }
      ],
      "name": "_editAdminWhitelist",
      "outputs": [],
      "stateMutability": "nonpayable",
      "type": "function"
    },
    {
      "inputs": [
        {
          "internalType": "address[]",
          "name": "deployers",
          "type": "address[]"
        },
        {
          "internalType": "bool",
          "name": "status",
          "type": "bool"
        }
      ],
      "name": "_editDeployerWhitelist",
      "outputs": [],
      "stateMutability": "nonpayable",
      "type": "function"
    },
    {
      "inputs": [
        {
          "internalType": "bool",
          "name": "enforce",
          "type": "bool"
        }
      ],
      "name": "_setDeployerWhitelistEnforcement",
      "outputs": [],
      "stateMutability": "nonpayable",
      "type": "function"
    },
    {
      "inputs": [
        {
          "internalType": "address",
          "name": "",
          "type": "address"
        }
      ],
      "name": "adminWhitelist",
      "outputs": [
        {
          "internalType": "bool",
          "name": "",
          "type": "bool"
        }
      ],
      "stateMutability": "view",
      "type": "function"
    },
    {
      "inputs": [
        {
          "internalType": "address",
          "name": "comptroller",
          "type": "address"
        }
      ],
      "name": "bookmarkPool",
      "outputs": [],
      "stateMutability": "nonpayable",
      "type": "function"
    },
    {
      "inputs": [
        {
          "internalType": "string",
          "name": "name",
          "type": "string"
        },
        {
          "internalType": "address",
          "name": "implementation",
          "type": "address"
        },
        {
          "internalType": "bool",
          "name": "enforceWhitelist",
          "type": "bool"
        },
        {
          "internalType": "uint256",
          "name": "closeFactor",
          "type": "uint256"
        },
        {
          "internalType": "uint256",
          "name": "liquidationIncentive",
          "type": "uint256"
        },
        {
          "internalType": "address",
          "name": "priceOracle",
          "type": "address"
        }
      ],
      "name": "deployPool",
      "outputs": [
        {
          "internalType": "uint256",
          "name": "",
          "type": "uint256"
        },
        {
          "internalType": "address",
          "name": "",
          "type": "address"
        }
      ],
      "stateMutability": "nonpayable",
      "type": "function"
    },
    {
      "inputs": [
        {
          "internalType": "address",
          "name": "",
          "type": "address"
        }
      ],
      "name": "deployerWhitelist",
      "outputs": [
        {
          "internalType": "bool",
          "name": "",
          "type": "bool"
        }
      ],
      "stateMutability": "view",
      "type": "function"
    },
    {
      "inputs": [],
      "name": "enforceDeployerWhitelist",
      "outputs": [
        {
          "internalType": "bool",
          "name": "",
          "type": "bool"
        }
      ],
      "stateMutability": "view",
      "type": "function"
    },
    {
      "inputs": [],
      "name": "getAllPools",
      "outputs": [
        {
          "components": [
            {
              "internalType": "string",
              "name": "name",
              "type": "string"
            },
            {
              "internalType": "address",
              "name": "creator",
              "type": "address"
            },
            {
              "internalType": "address",
              "name": "comptroller",
              "type": "address"
            },
            {
              "internalType": "uint256",
              "name": "blockPosted",
              "type": "uint256"
            },
            {
              "internalType": "uint256",
              "name": "timestampPosted",
              "type": "uint256"
            }
          ],
          "internalType": "struct FusePoolDirectory.FusePool[]",
          "name": "",
          "type": "tuple[]"
        }
      ],
      "stateMutability": "view",
      "type": "function"
    },
    {
      "inputs": [
        {
          "internalType": "address",
          "name": "account",
          "type": "address"
        }
      ],
      "name": "getBookmarks",
      "outputs": [
        {
          "internalType": "address[]",
          "name": "",
          "type": "address[]"
        }
      ],
      "stateMutability": "view",
      "type": "function"
    },
    {
      "inputs": [
        {
          "internalType": "address",
          "name": "account",
          "type": "address"
        }
      ],
      "name": "getPoolsByAccount",
      "outputs": [
        {
          "internalType": "uint256[]",
          "name": "",
          "type": "uint256[]"
        },
        {
          "components": [
            {
              "internalType": "string",
              "name": "name",
              "type": "string"
            },
            {
              "internalType": "address",
              "name": "creator",
              "type": "address"
            },
            {
              "internalType": "address",
              "name": "comptroller",
              "type": "address"
            },
            {
              "internalType": "uint256",
              "name": "blockPosted",
              "type": "uint256"
            },
            {
              "internalType": "uint256",
              "name": "timestampPosted",
              "type": "uint256"
            }
          ],
          "internalType": "struct FusePoolDirectory.FusePool[]",
          "name": "",
          "type": "tuple[]"
        }
      ],
      "stateMutability": "view",
      "type": "function"
    },
    {
      "inputs": [],
      "name": "getPublicPools",
      "outputs": [
        {
          "internalType": "uint256[]",
          "name": "",
          "type": "uint256[]"
        },
        {
          "components": [
            {
              "internalType": "string",
              "name": "name",
              "type": "string"
            },
            {
              "internalType": "address",
              "name": "creator",
              "type": "address"
            },
            {
              "internalType": "address",
              "name": "comptroller",
              "type": "address"
            },
            {
              "internalType": "uint256",
              "name": "blockPosted",
              "type": "uint256"
            },
            {
              "internalType": "uint256",
              "name": "timestampPosted",
              "type": "uint256"
            }
          ],
          "internalType": "struct FusePoolDirectory.FusePool[]",
          "name": "",
          "type": "tuple[]"
        }
      ],
      "stateMutability": "view",
      "type": "function"
    },
    {
      "inputs": [
        {
          "internalType": "bool",
          "name": "whitelistedAdmin",
          "type": "bool"
        }
      ],
      "name": "getPublicPoolsByVerification",
      "outputs": [
        {
          "internalType": "uint256[]",
          "name": "",
          "type": "uint256[]"
        },
        {
          "components": [
            {
              "internalType": "string",
              "name": "name",
              "type": "string"
            },
            {
              "internalType": "address",
              "name": "creator",
              "type": "address"
            },
            {
              "internalType": "address",
              "name": "comptroller",
              "type": "address"
            },
            {
              "internalType": "uint256",
              "name": "blockPosted",
              "type": "uint256"
            },
            {
              "internalType": "uint256",
              "name": "timestampPosted",
              "type": "uint256"
            }
          ],
          "internalType": "struct FusePoolDirectory.FusePool[]",
          "name": "",
          "type": "tuple[]"
        }
      ],
      "stateMutability": "view",
      "type": "function"
    },
    {
      "inputs": [
        {
          "internalType": "bool",
          "name": "_enforceDeployerWhitelist",
          "type": "bool"
        },
        {
          "internalType": "address[]",
          "name": "_deployerWhitelist",
          "type": "address[]"
        }
      ],
      "name": "initialize",
      "outputs": [],
      "stateMutability": "nonpayable",
      "type": "function"
    },
    {
      "inputs": [],
      "name": "owner",
      "outputs": [
        {
          "internalType": "address",
          "name": "",
          "type": "address"
        }
      ],
      "stateMutability": "view",
      "type": "function"
    },
    {
      "inputs": [
        {
          "internalType": "address",
          "name": "",
          "type": "address"
        }
      ],
      "name": "poolExists",
      "outputs": [
        {
          "internalType": "bool",
          "name": "",
          "type": "bool"
        }
      ],
      "stateMutability": "view",
      "type": "function"
    },
    {
      "inputs": [
        {
          "internalType": "uint256",
          "name": "",
          "type": "uint256"
        }
      ],
      "name": "pools",
      "outputs": [
        {
          "internalType": "string",
          "name": "name",
          "type": "string"
        },
        {
          "internalType": "address",
          "name": "creator",
          "type": "address"
        },
        {
          "internalType": "address",
          "name": "comptroller",
          "type": "address"
        },
        {
          "internalType": "uint256",
          "name": "blockPosted",
          "type": "uint256"
        },
        {
          "internalType": "uint256",
          "name": "timestampPosted",
          "type": "uint256"
        }
      ],
      "stateMutability": "view",
      "type": "function"
    },
    {
      "inputs": [],
      "name": "renounceOwnership",
      "outputs": [],
      "stateMutability": "nonpayable",
      "type": "function"
    },
    {
      "inputs": [
        {
          "internalType": "uint256",
          "name": "index",
          "type": "uint256"
        },
        {
          "internalType": "string",
          "name": "name",
          "type": "string"
        }
      ],
      "name": "setPoolName",
      "outputs": [],
      "stateMutability": "nonpayable",
      "type": "function"
    },
    {
      "inputs": [
        {
          "internalType": "address",
          "name": "newOwner",
          "type": "address"
        }
      ],
      "name": "transferOwnership",
      "outputs": [],
      "stateMutability": "nonpayable",
      "type": "function"
    }
  ],
  "transactionHash": "0x22f95aa0dcf0820b719b94dbf560f46102025d459b5fe8ab16f036fce83dcd05",
  "args": [],
  "solcInputHash": "f7b1f2c0198a0fc30d3000710310a520",
  "bytecode": "0x608060405234801561001057600080fd5b506139d5806100206000396000f3fe608060405234801561001057600080fd5b506004361061012c5760003560e01c80635710c6d8116100ad578063a970e76c11610071578063a970e76c14610270578063ac4afa3814610283578063b86579d4146102a7578063d88ff1f4146102ba578063f2fde38b146102cf5761012c565b80635710c6d81461020c578063715018a61461022d5780638da5cb5b14610235578063a155497c1461024a578063a3ed91c61461025d5761012c565b8063218a3bbe116100f4578063218a3bbe146101a857806326bb81d7146101c957806343e20a1d146101d15780634a7462ee146101e45780634ae26ea1146102045761012c565b806304f03c6f1461013157806307421978146101465780630a83d1b0146101595780631e1c6a071461016c57806320c32bfe14610195575b600080fd5b61014461013f366004612495565b6102e2565b005b6101446101543660046123d6565b610357565b610144610167366004612415565b610396565b61017f61017a3660046123d6565b6104c0565b60405161018c9190612959565b60405180910390f35b6101446101a336600461268d565b6104d5565b6101bb6101b6366004612495565b610658565b60405161018c929190612902565b61017f610afb565b61017f6101df3660046123d6565b610b04565b6101f76101f23660046123d6565b610b19565b60405161018c91906128a2565b6101bb610b90565b61021f61021a36600461258f565b610ee0565b60405161018c929190612d53565b61014461147b565b61023d611527565b60405161018c9190612835565b610144610258366004612415565b611536565b6101bb61026b3660046123d6565b61161c565b61017f61027e3660046123d6565b6118a9565b61029661029136600461265d565b6118be565b60405161018c959493929190612964565b6101446102b53660046124cd565b611998565b6102c2611aab565b60405161018c91906128ef565b6101446102dd3660046123d6565b611bd5565b6102ea611cd8565b6001600160a01b03166102fb611527565b6001600160a01b031614610344576040805162461bcd60e51b81526020600482018190526024820152600080516020613980833981519152604482015290519081900360640190fd5b6068805460ff1916911515919091179055565b336000908152606a602090815260408220805460018101825590835291200180546001600160a01b0319166001600160a01b0392909216919091179055565b61039e611cd8565b6001600160a01b03166103af611527565b6001600160a01b0316146103f8576040805162461bcd60e51b81526020600482018190526024820152600080516020613980833981519152604482015290519081900360640190fd5b8161041e5760405162461bcd60e51b8152600401610415906129d9565b60405180910390fd5b60005b8281101561047f5781606b600086868581811061043a57fe5b905060200201602081019061044f91906123d6565b6001600160a01b031681526020810191909152604001600020805460ff1916911515919091179055600101610421565b507f31b67e6853df85403a8c4f4f46dc53f48f700d6917c8e3ec8c77a0e6fd56793b8383836040516104b393929190612849565b60405180910390a1505050565b60676020526000908152604090205460ff1681565b6000606584815481106104e457fe5b600091825260209182902060026005909202010154604080516303e1469160e61b815290516001600160a01b039092169350839263f851a44092600480840193829003018186803b15801561053857600080fd5b505afa15801561054c573d6000803e3d6000fd5b505050506040513d601f19601f8201168201806040525081019061057091906123f9565b6001600160a01b0316336001600160a01b03161480156105fc5750806001600160a01b0316630a755ec26040518163ffffffff1660e01b815260040160206040518083038186803b1580156105c457600080fd5b505afa1580156105d8573d6000803e3d6000fd5b505050506040513d601f19601f820116820180604052508101906105fc91906124b1565b8061061f575061060a611527565b6001600160a01b0316336001600160a01b0316145b61062857600080fd5b82826065868154811061063757fe5b600091825260209091206106519360059092020191612255565b5050505050565b6060806000805b6065548110156107c65760006065828154811061067857fe5b60009182526020918290206002600590920201015460408051630b09572160e41b815290516001600160a01b039092169350839263b095721092600480840193829003018186803b1580156106cc57600080fd5b505afa9250505080156106fc575060408051601f3d908101601f191682019092526106f9918101906124b1565b60015b610705576107b6565b80156107125750506107be565b816001600160a01b031663f851a4406040518163ffffffff1660e01b815260040160206040518083038186803b15801561074b57600080fd5b505afa92505050801561077b575060408051601f3d908101601f19168201909252610778918101906123f9565b60015b610784576107b4565b6001600160a01b0381166000908152606b602052604090205460ff161515881515146107b2575050506107be565b505b505b506001909101905b60010161065f565b5060008167ffffffffffffffff811180156107e057600080fd5b5060405190808252806020026020018201604052801561080a578160200160208202803683370190505b50905060008267ffffffffffffffff8111801561082657600080fd5b5060405190808252806020026020018201604052801561086057816020015b61084d6122e1565b8152602001906001900390816108455790505b5090506000805b606554811015610aee5760006065828154811061088057fe5b60009182526020918290206002600590920201015460408051630b09572160e41b815290516001600160a01b039092169350839263b095721092600480840193829003018186803b1580156108d457600080fd5b505afa925050508015610904575060408051601f3d908101601f19168201909252610901918101906124b1565b60015b61090d576109be565b801561091a575050610ae6565b816001600160a01b031663f851a4406040518163ffffffff1660e01b815260040160206040518083038186803b15801561095357600080fd5b505afa925050508015610983575060408051601f3d908101601f19168201909252610980918101906123f9565b60015b61098c576109bc565b6001600160a01b0381166000908152606b602052604090205460ff1615158b1515146109ba57505050610ae6565b505b505b818584815181106109cb57fe5b602002602001018181525050606582815481106109e457fe5b600091825260209182902060408051600593909302909101805460026001821615610100026000190190911604601f8101859004909402830160c090810190925260a0830184815292939092849290918491840182828015610a875780601f10610a5c57610100808354040283529160200191610a87565b820191906000526020600020905b815481529060010190602001808311610a6a57829003601f168201915b505050918352505060018201546001600160a01b0390811660208301526002830154166040820152600382015460608201526004909101546080909101528451859085908110610ad357fe5b6020908102919091010152506001909101905b600101610867565b5091945092505050915091565b60685460ff1681565b606b6020526000908152604090205460ff1681565b6001600160a01b0381166000908152606a6020908152604091829020805483518184028101840190945280845260609392830182828015610b8357602002820191906000526020600020905b81546001600160a01b03168152600190910190602001808311610b65575b505050505090505b919050565b6060806000805b606554811015610c555760658181548110610bae57fe5b60009182526020918290206002600590920201015460408051630b09572160e41b815290516001600160a01b039092169263b095721092600480840193829003018186803b158015610bff57600080fd5b505afa925050508015610c2f575060408051601f3d908101601f19168201909252610c2c918101906124b1565b60015b610c3857610c46565b8015610c445750610c4d565b505b6001909101905b600101610b97565b5060008167ffffffffffffffff81118015610c6f57600080fd5b50604051908082528060200260200182016040528015610c99578160200160208202803683370190505b50905060008267ffffffffffffffff81118015610cb557600080fd5b50604051908082528060200260200182016040528015610cef57816020015b610cdc6122e1565b815260200190600190039081610cd45790505b5090506000805b606554811015610ed45760658181548110610d0d57fe5b60009182526020918290206002600590920201015460408051630b09572160e41b815290516001600160a01b039092169263b095721092600480840193829003018186803b158015610d5e57600080fd5b505afa925050508015610d8e575060408051601f3d908101601f19168201909252610d8b918101906124b1565b60015b610d9757610da5565b8015610da35750610ecc565b505b80848381518110610db257fe5b60200260200101818152505060658181548110610dcb57fe5b600091825260209182902060408051600593909302909101805460026001821615610100026000190190911604601f8101859004909402830160c090810190925260a0830184815292939092849290918491840182828015610e6e5780601f10610e4357610100808354040283529160200191610e6e565b820191906000526020600020905b815481529060010190602001808311610e5157829003601f168201915b505050918352505060018201546001600160a01b0390811660208301526002830154166040820152600382015460608201526004909101546080909101528351849084908110610eba57fe5b60209081029190910101526001909101905b600101610cf6565b50919450925050509091565b6000806001600160a01b038716610f095760405162461bcd60e51b815260040161041590612a84565b6001600160a01b038316610f2f5760405162461bcd60e51b815260040161041590612bc9565b6000338943604051602001610f46939291906127da565b604051602081830303815290604052805190602001209050600060405180602001610f7090612322565b601f1982820381018352601f909101166040819052610f929190602001612819565b60405160208183030381529060405290506000610fb160008484611cdc565b60405163e992a04160e01b815290915081906001600160a01b0382169063e992a04190610fe2908e90600401612835565b602060405180830381600087803b158015610ffc57600080fd5b505af1158015611010573d6000803e3d6000fd5b505050506040513d601f19601f820116820180604052508101906110349190612675565b156110515760405162461bcd60e51b815260040161041590612b76565b604051630ea826e360e11b81528b906001600160a01b03821690631d504dc69061107f908590600401612835565b600060405180830381600087803b15801561109957600080fd5b505af11580156110ad573d6000803e3d6000fd5b505060405163317b0b7760e01b81528592506001600160a01b038316915063317b0b77906110df908e90600401612d4a565b602060405180830381600087803b1580156110f957600080fd5b505af115801561110d573d6000803e3d6000fd5b505050506040513d601f19601f820116820180604052508101906111319190612675565b1561114e5760405162461bcd60e51b8152600401610415906129a4565b604051634fd42e1760e01b81526001600160a01b03821690634fd42e179061117a908d90600401612d4a565b602060405180830381600087803b15801561119457600080fd5b505af11580156111a8573d6000803e3d6000fd5b505050506040513d601f19601f820116820180604052508101906111cc9190612675565b156111e95760405162461bcd60e51b815260040161041590612a06565b6040516355ee1fe160e01b81526001600160a01b038216906355ee1fe190611215908c90600401612835565b602060405180830381600087803b15801561122f57600080fd5b505af1158015611243573d6000803e3d6000fd5b505050506040513d601f19601f820116820180604052508101906112679190612675565b156112845760405162461bcd60e51b815260040161041590612a4f565b8b1561132657604051634a956fad60e11b81526001600160a01b0382169063952adf5a906112b790600190600401612959565b602060405180830381600087803b1580156112d157600080fd5b505af11580156112e5573d6000803e3d6000fd5b505050506040513d601f19601f820116820180604052508101906113099190612675565b156113265760405162461bcd60e51b815260040161041590612c13565b604051636a9998b360e11b81526001600160a01b0382169063d53331669061135390600190600401612959565b602060405180830381600087803b15801561136d57600080fd5b505af1158015611381573d6000803e3d6000fd5b505050506040513d601f19601f820116820180604052508101906113a59190612675565b156113c25760405162461bcd60e51b815260040161041590612ae1565b604051632dc7468360e21b81526001600160a01b0384169063b71d1a0c906113ee903390600401612835565b602060405180830381600087803b15801561140857600080fd5b505af115801561141c573d6000803e3d6000fd5b505050506040513d601f19601f820116820180604052508101906114409190612675565b1561145d5760405162461bcd60e51b815260040161041590612b2c565b6114678e85611df5565b9e939d50929b505050505050505050505050565b611483611cd8565b6001600160a01b0316611494611527565b6001600160a01b0316146114dd576040805162461bcd60e51b81526020600482018190526024820152600080516020613980833981519152604482015290519081900360640190fd5b6033546040516000916001600160a01b0316907f8be0079c531659141344cd1fd0a4f28419497f9722a3daafe3b4186f6b6457e0908390a3603380546001600160a01b0319169055565b6033546001600160a01b031690565b61153e611cd8565b6001600160a01b031661154f611527565b6001600160a01b031614611598576040805162461bcd60e51b81526020600482018190526024820152600080516020613980833981519152604482015290519081900360640190fd5b816115b55760405162461bcd60e51b815260040161041590612c61565b60005b828110156116165781606960008686858181106115d157fe5b90506020020160208101906115e691906123d6565b6001600160a01b031681526020810191909152604001600020805460ff19169115159190911790556001016115b8565b50505050565b6001600160a01b038116600090815260666020526040812054606091829167ffffffffffffffff8111801561165057600080fd5b5060405190808252806020026020018201604052801561167a578160200160208202803683370190505b506001600160a01b0385166000908152606660205260408120549192509067ffffffffffffffff811180156116ae57600080fd5b506040519080825280602002602001820160405280156116e857816020015b6116d56122e1565b8152602001906001900390816116cd5790505b50905060005b6001600160a01b03861660009081526066602052604090205481101561189e576001600160a01b038616600090815260666020526040902080548290811061173257fe5b906000526020600020015483828151811061174957fe5b602002602001018181525050606560666000886001600160a01b03166001600160a01b03168152602001908152602001600020828154811061178757fe5b90600052602060002001548154811061179c57fe5b600091825260209182902060408051600593909302909101805460026001821615610100026000190190911604601f8101859004909402830160c090810190925260a083018481529293909284929091849184018282801561183f5780601f106118145761010080835404028352916020019161183f565b820191906000526020600020905b81548152906001019060200180831161182257829003601f168201915b505050918352505060018201546001600160a01b039081166020830152600283015416604082015260038201546060820152600490910154608090910152825183908390811061188b57fe5b60209081029190910101526001016116ee565b509092509050915091565b60696020526000908152604090205460ff1681565b606581815481106118ce57600080fd5b60009182526020918290206005919091020180546040805160026001841615610100026000190190931692909204601f8101859004850283018501909152808252919350918391908301828280156119675780601f1061193c57610100808354040283529160200191611967565b820191906000526020600020905b81548152906001019060200180831161194a57829003601f168201915b5050505060018301546002840154600385015460049095015493946001600160a01b03928316949290911692509085565b600054610100900460ff16806119b157506119b1611ff3565b806119bf575060005460ff16155b6119fa5760405162461bcd60e51b815260040180806020018281038252602e815260200180613952602e913960400191505060405180910390fd5b600054610100900460ff16158015611a25576000805460ff1961ff0019909116610100171660011790555b611a2d612004565b6068805460ff191684151517905560005b8251811015611a9357600160696000858481518110611a5957fe5b6020908102919091018101516001600160a01b03168252810191909152604001600020805460ff1916911515919091179055600101611a3e565b508015611aa6576000805461ff00191690555b505050565b60606065805480602002602001604051908101604052809291908181526020016000905b82821015611bcc5760008481526020908190206040805160058602909201805460026001821615610100026000190190911604601f8101859004909402830160c090810190925260a0830184815292939092849290918491840182828015611b785780601f10611b4d57610100808354040283529160200191611b78565b820191906000526020600020905b815481529060010190602001808311611b5b57829003601f168201915b50505091835250506001828101546001600160a01b03908116602080850191909152600285015490911660408401526003840154606084015260049093015460809092019190915291835292019101611acf565b50505050905090565b611bdd611cd8565b6001600160a01b0316611bee611527565b6001600160a01b031614611c37576040805162461bcd60e51b81526020600482018190526024820152600080516020613980833981519152604482015290519081900360640190fd5b6001600160a01b038116611c7c5760405162461bcd60e51b815260040180806020018281038252602681526020018061392c6026913960400191505060405180910390fd5b6033546040516001600160a01b038084169216907f8be0079c531659141344cd1fd0a4f28419497f9722a3daafe3b4186f6b6457e090600090a3603380546001600160a01b0319166001600160a01b0392909216919091179055565b3390565b60008084471015611d34576040805162461bcd60e51b815260206004820152601d60248201527f437265617465323a20696e73756666696369656e742062616c616e6365000000604482015290519081900360640190fd5b8251611d87576040805162461bcd60e51b815260206004820181905260248201527f437265617465323a2062797465636f6465206c656e677468206973207a65726f604482015290519081900360640190fd5b8383516020850187f590506001600160a01b038116611ded576040805162461bcd60e51b815260206004820152601960248201527f437265617465323a204661696c6564206f6e206465706c6f7900000000000000604482015290519081900360640190fd5b949350505050565b6001600160a01b03811660009081526067602052604081205460ff1615611e2e5760405162461bcd60e51b815260040161041590612cc1565b60685460ff161580611e4f57503360009081526069602052604090205460ff165b611e6b5760405162461bcd60e51b815260040161041590612d06565b606483511115611e8d5760405162461bcd60e51b815260040161041590612c91565b6040805160a081018252848152336020808301919091526001600160a01b0385169282019290925243606082015242608082015260658054600181018255600091909152815180519293849360059093027f8ff97419363ffd7000167f130ef7168fbea05faf9251824ca5043f113cc6a7c70192611f0e928492019061232f565b50602082810151600183810180546001600160a01b03199081166001600160a01b0394851617909155604080870151600287018054909316908516179091556060860151600386015560809095015160049094019390935533600090815260668352848120606580548254808801845592845285842060001991820193019290925592891682526067909352849020805460ff1916909317909255905491517f18075ab463b4dc5842f37ecd67abeb192eda5d073f2c08509e189ad173d5c02092611fdc9201908490612d6a565b60405180910390a150506065546000190192915050565b6000611ffe306120b6565b15905090565b600054610100900460ff168061201d575061201d611ff3565b8061202b575060005460ff16155b6120665760405162461bcd60e51b815260040180806020018281038252602e815260200180613952602e913960400191505060405180910390fd5b600054610100900460ff16158015612091576000805460ff1961ff0019909116610100171660011790555b6120996120bc565b6120a161215c565b80156120b3576000805461ff00191690555b50565b3b151590565b600054610100900460ff16806120d557506120d5611ff3565b806120e3575060005460ff16155b61211e5760405162461bcd60e51b815260040180806020018281038252602e815260200180613952602e913960400191505060405180910390fd5b600054610100900460ff161580156120a1576000805460ff1961ff00199091166101001716600117905580156120b3576000805461ff001916905550565b600054610100900460ff16806121755750612175611ff3565b80612183575060005460ff16155b6121be5760405162461bcd60e51b815260040180806020018281038252602e815260200180613952602e913960400191505060405180910390fd5b600054610100900460ff161580156121e9576000805460ff1961ff0019909116610100171660011790555b60006121f3611cd8565b603380546001600160a01b0319166001600160a01b038316908117909155604051919250906000907f8be0079c531659141344cd1fd0a4f28419497f9722a3daafe3b4186f6b6457e0908290a35080156120b3576000805461ff001916905550565b828054600181600116156101000203166002900490600052602060002090601f01602090048101928261228b57600085556122d1565b82601f106122a45782800160ff198235161785556122d1565b828001600101855582156122d1579182015b828111156122d15782358255916020019190600101906122b6565b506122dd9291506123ab565b5090565b6040518060a001604052806060815260200160006001600160a01b0316815260200160006001600160a01b0316815260200160008152602001600081525090565b610b3580612df783390190565b828054600181600116156101000203166002900490600052602060002090601f01602090048101928261236557600085556122d1565b82601f1061237e57805160ff19168380011785556122d1565b828001600101855582156122d1579182015b828111156122d1578251825591602001919060010190612390565b5b808211156122dd57600081556001016123ac565b8035610b8b81612dd3565b8035610b8b81612de8565b6000602082840312156123e7578081fd5b81356123f281612dd3565b9392505050565b60006020828403121561240a578081fd5b81516123f281612dd3565b600080600060408486031215612429578182fd5b833567ffffffffffffffff80821115612440578384fd5b818601915086601f830112612453578384fd5b813581811115612461578485fd5b8760208083028501011115612474578485fd5b6020928301955093505084013561248a81612de8565b809150509250925092565b6000602082840312156124a6578081fd5b81356123f281612de8565b6000602082840312156124c2578081fd5b81516123f281612de8565b600080604083850312156124df578182fd5b82356124ea81612de8565b915060208381013567ffffffffffffffff80821115612507578384fd5b818601915086601f83011261251a578384fd5b81358181111561252657fe5b8381029150612536848301612d83565b8181528481019084860184860187018b1015612550578788fd5b8795505b8386101561257e578035945061256985612dd3565b84835260019590950194918601918601612554565b508096505050505050509250929050565b60008060008060008060c087890312156125a7578182fd5b863567ffffffffffffffff808211156125be578384fd5b818901915089601f8301126125d1578384fd5b81356020828211156125df57fe5b6125f1601f8301601f19168201612d83565b92508183528b81838601011115612606578586fd5b818185018285013785818385010152829950612623818c016123c0565b985050505050612635604088016123cb565b9350606087013592506080870135915061265160a088016123c0565b90509295509295509295565b60006020828403121561266e578081fd5b5035919050565b600060208284031215612686578081fd5b5051919050565b6000806000604084860312156126a1578283fd5b83359250602084013567ffffffffffffffff808211156126bf578384fd5b818601915086601f8301126126d2578384fd5b8135818111156126e0578485fd5b8760208285010111156126f1578485fd5b6020830194508093505050509250925092565b6000815180845260208085018081965082840281019150828601855b8581101561274a578284038952612738848351612783565b98850198935090840190600101612720565b5091979650505050505050565b6000815180845261276f816020860160208601612da7565b601f01601f19169290920160200192915050565b6000815160a0845261279860a0850182612757565b9050602083015160018060a01b038082166020870152806040860151166040870152505060608301516060850152608083015160808501528091505092915050565b60006bffffffffffffffffffffffff198560601b1682528351612804816014850160208801612da7565b60149201918201929092526034019392505050565b6000825161282b818460208701612da7565b9190910192915050565b6001600160a01b0391909116815260200190565b6040808252810183905260008460608301825b8681101561288c57823561286f81612dd3565b6001600160a01b031682526020928301929091019060010161285c565b5080925050508215156020830152949350505050565b6020808252825182820181905260009190848201906040850190845b818110156128e35783516001600160a01b0316835292840192918401916001016128be565b50909695505050505050565b6000602082526123f26020830184612704565b604080825283519082018190526000906020906060840190828701845b8281101561293b5781518452928401929084019060010161291f565b5050508381038285015261294f8186612704565b9695505050505050565b901515815260200190565b600060a0825261297760a0830188612757565b6001600160a01b039687166020840152949095166040820152606081019290925260809091015292915050565b6020808252818101527f4661696c656420746f2073657420706f6f6c20636c6f736520666163746f722e604082015260600190565b60208082526013908201527227379030b236b4b7399039bab8383634b2b21760691b604082015260600190565b60208082526029908201527f4661696c656420746f2073657420706f6f6c206c69717569646174696f6e20696040820152683731b2b73a34bb329760b91b606082015260800190565b6020808252818101527f4661696c656420746f2073657420706f6f6c207072696365206f7261636c652e604082015260600190565b60208082526039908201527f4e6f20436f6d7074726f6c6c657220696d706c656d656e746174696f6e20636f60408201527f6e74726163742061646472657373207370656369666965642e00000000000000606082015260800190565b6020808252602b908201527f4661696c656420746f20656e61626c6520706f6f6c206175746f20696d706c6560408201526a36b2b73a30ba34b7b7399760a91b606082015260800190565b6020808252602a908201527f4661696c656420746f207365742070656e64696e672061646d696e206f6e20556040820152693734ba3937b63632b91760b11b606082015260800190565b60208082526033908201527f4661696c656420746f207365742070656e64696e6720696d706c656d656e74616040820152723a34b7b71037b7102ab734ba3937b63632b91760691b606082015260800190565b6020808252602a908201527f4e6f2050726963654f7261636c6520636f6e747261637420616464726573732060408201526939b832b1b4b334b2b21760b11b606082015260800190565b6020808252602e908201527f4661696c656420746f20656e666f72636520737570706c6965722f626f72726f60408201526d3bb2b9103bb434ba32b634b9ba1760911b606082015260800190565b6020808252601690820152752737903232b83637bcb2b9399039bab8383634b2b21760511b604082015260600190565b6020808252601690820152752737903837b7b6103730b6b29039bab8383634b2b21760511b604082015260600190565b60208082526025908201527f506f6f6c20616c72656164792065786973747320696e207468652064697265636040820152643a37b93c9760d91b606082015260800190565b60208082526024908201527f53656e646572206973206e6f74206f6e206465706c6f7965722077686974656c60408201526334b9ba1760e11b606082015260800190565b90815260200190565b9182526001600160a01b0316602082015260400190565b600083825260406020830152611ded6040830184612783565b60405181810167ffffffffffffffff81118282101715612d9f57fe5b604052919050565b60005b83811015612dc2578181015183820152602001612daa565b838111156116165750506000910152565b6001600160a01b03811681146120b357600080fd5b80151581146120b357600080fdfe60806040526001805460ff60a81b1960ff60a01b19909116600160a01b1716600160a81b17905534801561003257600080fd5b50600080546001600160a01b03191633179055610ae1806100546000396000f3fe6080604052600436106100a75760003560e01c8063bb82aa5e11610064578063bb82aa5e14610436578063c1e803341461044b578063dcfbc0c714610460578063e992a04114610475578063e9c714f2146104a8578063f851a440146104bd576100a7565b80630225ab9d1461032a5780630a755ec21461036857806326782247146103915780632f1069ba146103c25780636f63af0b146103d7578063b71d1a0c14610403575b3330146102a75760408051600481526024810182526020810180516001600160e01b0316633757348b60e21b17815291518151600093849330939092909182918083835b6020831061010a5780518252601f1990920191602091820191016100eb565b6001836020036101000a038019825116818451168082178552505050505050905001915050600060405180830381855afa9150503d806000811461016a576040519150601f19603f3d011682016040523d82523d6000602084013e61016f565b606091505b5091509150600082156101965781806020019051602081101561019157600080fd5b505190505b80156102a3576002546040805163bbcdd6d360e01b81526001600160a01b0390921660048301525160009173bcb0d746ee1d4c0ff67fc720006214568ef669d99163bbcdd6d391602480820192602092909190829003018186803b1580156101fd57600080fd5b505afa158015610211573d6000803e3d6000fd5b505050506040513d602081101561022757600080fd5b50516002549091506001600160a01b038083169116146102a157600280546001600160a01b038381166001600160a01b0319831617928390556040805192821680845293909116602083015280517fd604de94d45953f9138079ec1b82d533cb2160c906d1076d1f7ed54befbca97a9281900390910190a1505b505b5050505b6002546040516000916001600160a01b031690829036908083838082843760405192019450600093509091505080830381855af49150503d806000811461030a576040519150601f19603f3d011682016040523d82523d6000602084013e61030f565b606091505b505090506040513d6000823e818015610326573d82f35b3d82fd5b34801561033657600080fd5b506103566004803603602081101561034d57600080fd5b503515156104d2565b60408051918252519081900360200190f35b34801561037457600080fd5b5061037d61056e565b604080519115158252519081900360200190f35b34801561039d57600080fd5b506103a661057e565b604080516001600160a01b039092168252519081900360200190f35b3480156103ce57600080fd5b5061037d61058d565b3480156103e357600080fd5b50610356600480360360208110156103fa57600080fd5b5035151561059d565b34801561040f57600080fd5b506103566004803603602081101561042657600080fd5b50356001600160a01b0316610639565b34801561044257600080fd5b506103a66106bc565b34801561045757600080fd5b506103566106cb565b34801561046c57600080fd5b506103a66107c6565b34801561048157600080fd5b506103566004803603602081101561049857600080fd5b50356001600160a01b03166107d5565b3480156104b457600080fd5b506103566108f5565b3480156104c957600080fd5b506103a66109db565b60006104dc6109ea565b6104f3576104ec60016005610a45565b9050610569565b60015460ff600160a81b90910416151582151514156105135760006104ec565b60018054831515600160a81b810260ff60a81b199092169190911790915560408051918252517f10f9a0a95673b0837d1dce21fd3bffcb6d760435e9b5300b75a271182f75f8229181900360200190a160005b90505b919050565b600154600160a81b900460ff1681565b6001546001600160a01b031681565b600154600160a01b900460ff1681565b60006105a76109ea565b6105b7576104ec60016005610a45565b60015460ff600160a01b90910416151582151514156105d75760006104ec565b60018054831515600160a01b90810260ff60a01b199092169190911791829055604080519190920460ff161515815290517fabb56a15fd39488c914b324690b88f30d7daec63d2131ca0ef47e5739068c86e9181900360200190a16000610566565b60006106436109ea565b610653576104ec60016010610a45565b600180546001600160a01b038481166001600160a01b0319831681179093556040805191909216808252602082019390935281517fca4f2f25d0898edd99413412fb94012f9e54ec8142f9b093e7720646a95b16a9929181900390910190a160005b9392505050565b6002546001600160a01b031681565b6003546000906001600160a01b0316331415806106f157506003546001600160a01b0316155b1561070857610701600180610a45565b90506107c3565b60028054600380546001600160a01b038082166001600160a01b031980861682179687905590921690925560408051938316808552949092166020840152815190927fd604de94d45953f9138079ec1b82d533cb2160c906d1076d1f7ed54befbca97a92908290030190a1600354604080516001600160a01b038085168252909216602083015280517fe945ccee5d701fc83f9b8aa8ca94ea4219ec1fcbd4f4cab4f0ea57c5c3e1d8159281900390910190a160005b925050505b90565b6003546001600160a01b031681565b60006107df6109ea565b6107ef576104ec60016012610a45565b60025460408051639d244f9f60e01b81526001600160a01b03928316600482015291841660248301525173bcb0d746ee1d4c0ff67fc720006214568ef669d991639d244f9f916044808301926020929190829003018186803b15801561085457600080fd5b505afa158015610868573d6000803e3d6000fd5b505050506040513d602081101561087e57600080fd5b5051610890576104ec60016011610a45565b600380546001600160a01b038481166001600160a01b0319831617928390556040805192821680845293909116602083015280517fe945ccee5d701fc83f9b8aa8ca94ea4219ec1fcbd4f4cab4f0ea57c5c3e1d8159281900390910190a160006106b5565b6001546000906001600160a01b031633141580610910575033155b156109215761070160016000610a45565b60008054600180546001600160a01b038082166001600160a01b031980861682179687905590921690925560408051938316808552949092166020840152815190927ff9ffabca9c8276e99321725bcb43fb076a6c66a54b7f21c4e8146d8519b417dc92908290030190a1600154604080516001600160a01b038085168252909216602083015280517fca4f2f25d0898edd99413412fb94012f9e54ec8142f9b093e7720646a95b16a99281900390910190a160006107be565b6000546001600160a01b031681565b600080546001600160a01b031633148015610a0e5750600154600160a81b900460ff165b80610a4057503373bcb0d746ee1d4c0ff67fc720006214568ef669d9148015610a405750600154600160a01b900460ff165b905090565b60007f45b96fe442630264581b197e84bbada861235052c5a1aadfff9ea4e40a969aa0836015811115610a7457fe5b83601b811115610a8057fe5b604080519283526020830191909152600082820152519081900360600190a18260158111156106b557fefea26469706673582212200b87e1c8855a6eb76f1a1d2e0c9ecd370880d85687cc4a97cb2ae188b385e3bc64736f6c634300070600334f776e61626c653a206e6577206f776e657220697320746865207a65726f2061646472657373496e697469616c697a61626c653a20636f6e747261637420697320616c726561647920696e697469616c697a65644f776e61626c653a2063616c6c6572206973206e6f7420746865206f776e6572a264697066735822122082ceb3e8cc2b53b3f7bc5681f8577a38ef79071ba97b1b55da052e055fb61def64736f6c63430007060033",
  "devdoc": {
    "author": "David Lucid <david@rari.capital> (https://github.com/davidlucid)",
    "events": {
      "AdminWhitelistUpdated(address[],bool)": {
        "details": "Event emitted when the admin whitelist is updated."
      },
      "PoolRegistered(uint256,(string,address,address,uint256,uint256))": {
        "details": "Emitted when a new Fuse pool is added to the directory."
      }
    },
    "kind": "dev",
    "methods": {
      "_editAdminWhitelist(address[],bool)": {
        "details": "Adds/removes Ethereum accounts to the admin whitelist.",
        "params": {
          "admins": "Array of Ethereum accounts to be whitelisted.",
          "status": "Whether to add or remove the accounts."
        }
      },
      "_editDeployerWhitelist(address[],bool)": {
        "details": "Adds/removes Ethereum accounts to the deployer whitelist.",
        "params": {
          "deployers": "Array of Ethereum accounts to be whitelisted.",
          "status": "Whether to add or remove the accounts."
        }
      },
      "_setDeployerWhitelistEnforcement(bool)": {
        "details": "Controls if the deployer whitelist is to be enforced.",
        "params": {
          "enforce": "Boolean indicating if the deployer whitelist is to be enforced."
        }
      },
      "deployPool(string,address,bool,uint256,uint256,address)": {
        "details": "Deploys a new Fuse pool and adds to the directory.",
        "params": {
          "closeFactor": "The pool's close factor (scaled by 1e18).",
          "enforceWhitelist": "Boolean indicating if the pool's supplier/borrower whitelist is to be enforced.",
          "implementation": "The Comptroller implementation contract address.",
          "liquidationIncentive": "The pool's liquidation incentive (scaled by 1e18).",
          "name": "The name of the pool.",
          "priceOracle": "The pool's PriceOracle contract address."
        },
        "returns": {
          "_0": "The index of the registered Fuse pool and the Unitroller proxy address."
        }
      },
      "getAllPools()": {
        "details": "This function is not designed to be called in a transaction: it is too gas-intensive."
      },
      "getPublicPools()": {
        "details": "This function is not designed to be called in a transaction: it is too gas-intensive."
      },
      "getPublicPoolsByVerification(bool)": {
        "details": "This function is not designed to be called in a transaction: it is too gas-intensive."
      },
      "initialize(bool,address[])": {
        "details": "Initializes a deployer whitelist if desired.",
        "params": {
          "_deployerWhitelist": "Array of Ethereum accounts to be whitelisted.",
          "_enforceDeployerWhitelist": "Boolean indicating if the deployer whitelist is to be enforced."
        }
      },
      "owner()": {
        "details": "Returns the address of the current owner."
      },
      "renounceOwnership()": {
        "details": "Leaves the contract without owner. It will not be possible to call `onlyOwner` functions anymore. Can only be called by the current owner. NOTE: Renouncing ownership will leave the contract without an owner, thereby removing any functionality that is only available to the owner."
      },
      "transferOwnership(address)": {
        "details": "Transfers ownership of the contract to a new account (`newOwner`). Can only be called by the current owner."
      }
    },
    "stateVariables": {
      "_bookmarks": {
        "details": "Maps Ethereum accounts to arrays of Fuse pool Comptroller proxy contract addresses."
      },
      "_poolsByAccount": {
        "details": "Maps Ethereum accounts to arrays of Fuse pool indexes."
      },
      "adminWhitelist": {
        "details": "Maps Ethereum accounts to booleans indicating if they are a whitelisted admin."
      },
      "deployerWhitelist": {
        "details": "Maps Ethereum accounts to booleans indicating if they are allowed to deploy pools."
      },
      "enforceDeployerWhitelist": {
        "details": "Booleans indicating if the deployer whitelist is enforced."
      },
      "poolExists": {
        "details": "Maps Fuse pool Comptroller addresses to bools indicating if they have been registered via the directory."
      },
      "pools": {
        "details": "Array of Fuse interest rate pools."
      }
    },
    "title": "FusePoolDirectory",
    "version": 1
  },
  "userdoc": {
    "kind": "user",
    "methods": {
      "bookmarkPool(address)": {
        "notice": "Bookmarks a Fuse pool Unitroller (Comptroller proxy) contract addresses."
      },
      "getAllPools()": {
        "notice": "Returns arrays of all Fuse pools' data."
      },
      "getBookmarks(address)": {
        "notice": "Returns arrays of Fuse pool Unitroller (Comptroller proxy) contract addresses bookmarked by `account`."
      },
      "getPoolsByAccount(address)": {
        "notice": "Returns arrays of Fuse pool indexes and data created by `account`."
      },
      "getPublicPools()": {
        "notice": "Returns arrays of all public Fuse pool indexes and data."
      },
      "getPublicPoolsByVerification(bool)": {
        "notice": "Returns arrays of all public Fuse pool indexes and data with whitelisted admins."
      },
      "setPoolName(uint256,string)": {
        "notice": "Modify existing Fuse pool name."
      }
    },
    "notice": "FusePoolDirectory is a directory for Fuse interest rate pools.",
    "version": 1
  },
  "storageLayout": {
    "storage": [
      {
        "astId": 572,
        "contract": "contracts/FusePoolDirectory.sol:FusePoolDirectory",
        "label": "_initialized",
        "offset": 0,
        "slot": "0",
        "type": "t_bool"
      },
      {
        "astId": 575,
        "contract": "contracts/FusePoolDirectory.sol:FusePoolDirectory",
        "label": "_initializing",
        "offset": 1,
        "slot": "0",
        "type": "t_bool"
      },
      {
        "astId": 1740,
        "contract": "contracts/FusePoolDirectory.sol:FusePoolDirectory",
        "label": "__gap",
        "offset": 0,
        "slot": "1",
        "type": "t_array(t_uint256)50_storage"
      },
      {
        "astId": 10,
        "contract": "contracts/FusePoolDirectory.sol:FusePoolDirectory",
        "label": "_owner",
        "offset": 0,
        "slot": "51",
        "type": "t_address"
      },
      {
        "astId": 129,
        "contract": "contracts/FusePoolDirectory.sol:FusePoolDirectory",
        "label": "__gap",
        "offset": 0,
        "slot": "52",
        "type": "t_array(t_uint256)49_storage"
      },
      {
        "astId": 2865,
        "contract": "contracts/FusePoolDirectory.sol:FusePoolDirectory",
        "label": "pools",
        "offset": 0,
        "slot": "101",
        "type": "t_array(t_struct(FusePool)2861_storage)dyn_storage"
      },
      {
        "astId": 2871,
        "contract": "contracts/FusePoolDirectory.sol:FusePoolDirectory",
        "label": "_poolsByAccount",
        "offset": 0,
        "slot": "102",
        "type": "t_mapping(t_address,t_array(t_uint256)dyn_storage)"
      },
      {
        "astId": 2876,
        "contract": "contracts/FusePoolDirectory.sol:FusePoolDirectory",
        "label": "poolExists",
        "offset": 0,
        "slot": "103",
        "type": "t_mapping(t_address,t_bool)"
      },
      {
        "astId": 2886,
        "contract": "contracts/FusePoolDirectory.sol:FusePoolDirectory",
        "label": "enforceDeployerWhitelist",
        "offset": 0,
        "slot": "104",
        "type": "t_bool"
      },
      {
        "astId": 2891,
        "contract": "contracts/FusePoolDirectory.sol:FusePoolDirectory",
        "label": "deployerWhitelist",
        "offset": 0,
        "slot": "105",
        "type": "t_mapping(t_address,t_bool)"
      },
      {
        "astId": 3438,
        "contract": "contracts/FusePoolDirectory.sol:FusePoolDirectory",
        "label": "_bookmarks",
        "offset": 0,
        "slot": "106",
        "type": "t_mapping(t_address,t_array(t_address)dyn_storage)"
      },
      {
        "astId": 3516,
        "contract": "contracts/FusePoolDirectory.sol:FusePoolDirectory",
        "label": "adminWhitelist",
        "offset": 0,
        "slot": "107",
        "type": "t_mapping(t_address,t_bool)"
      }
    ],
    "types": {
      "t_address": {
        "encoding": "inplace",
        "label": "address",
        "numberOfBytes": "20"
      },
      "t_array(t_address)dyn_storage": {
        "base": "t_address",
        "encoding": "dynamic_array",
        "label": "address[]",
        "numberOfBytes": "32"
      },
      "t_array(t_struct(FusePool)2861_storage)dyn_storage": {
        "base": "t_struct(FusePool)2861_storage",
        "encoding": "dynamic_array",
        "label": "struct FusePoolDirectory.FusePool[]",
        "numberOfBytes": "32"
      },
      "t_array(t_uint256)49_storage": {
        "base": "t_uint256",
        "encoding": "inplace",
        "label": "uint256[49]",
        "numberOfBytes": "1568"
      },
      "t_array(t_uint256)50_storage": {
        "base": "t_uint256",
        "encoding": "inplace",
        "label": "uint256[50]",
        "numberOfBytes": "1600"
      },
      "t_array(t_uint256)dyn_storage": {
        "base": "t_uint256",
        "encoding": "dynamic_array",
        "label": "uint256[]",
        "numberOfBytes": "32"
      },
      "t_bool": {
        "encoding": "inplace",
        "label": "bool",
        "numberOfBytes": "1"
      },
      "t_mapping(t_address,t_array(t_address)dyn_storage)": {
        "encoding": "mapping",
        "key": "t_address",
        "label": "mapping(address => address[])",
        "numberOfBytes": "32",
        "value": "t_array(t_address)dyn_storage"
      },
      "t_mapping(t_address,t_array(t_uint256)dyn_storage)": {
        "encoding": "mapping",
        "key": "t_address",
        "label": "mapping(address => uint256[])",
        "numberOfBytes": "32",
        "value": "t_array(t_uint256)dyn_storage"
      },
      "t_mapping(t_address,t_bool)": {
        "encoding": "mapping",
        "key": "t_address",
        "label": "mapping(address => bool)",
        "numberOfBytes": "32",
        "value": "t_bool"
      },
      "t_string_storage": {
        "encoding": "bytes",
        "label": "string",
        "numberOfBytes": "32"
      },
      "t_struct(FusePool)2861_storage": {
        "encoding": "inplace",
        "label": "struct FusePoolDirectory.FusePool",
        "members": [
          {
            "astId": 2852,
            "contract": "contracts/FusePoolDirectory.sol:FusePoolDirectory",
            "label": "name",
            "offset": 0,
            "slot": "0",
            "type": "t_string_storage"
          },
          {
            "astId": 2854,
            "contract": "contracts/FusePoolDirectory.sol:FusePoolDirectory",
            "label": "creator",
            "offset": 0,
            "slot": "1",
            "type": "t_address"
          },
          {
            "astId": 2856,
            "contract": "contracts/FusePoolDirectory.sol:FusePoolDirectory",
            "label": "comptroller",
            "offset": 0,
            "slot": "2",
            "type": "t_address"
          },
          {
            "astId": 2858,
            "contract": "contracts/FusePoolDirectory.sol:FusePoolDirectory",
            "label": "blockPosted",
            "offset": 0,
            "slot": "3",
            "type": "t_uint256"
          },
          {
            "astId": 2860,
            "contract": "contracts/FusePoolDirectory.sol:FusePoolDirectory",
            "label": "timestampPosted",
            "offset": 0,
            "slot": "4",
            "type": "t_uint256"
          }
        ],
        "numberOfBytes": "160"
      },
      "t_uint256": {
        "encoding": "inplace",
        "label": "uint256",
        "numberOfBytes": "32"
      }
    }
  }
}