{
  "address": "0xA9898Ac4dfae64b994C72AA6f681aBD5DA5A3e00",
  "abi": [
    {
      "inputs": [
        {
          "internalType": "contract IERC20Upgradeable",
          "name": "underlyingCollateral",
          "type": "address"
        },
        {
          "internalType": "uint256",
          "name": "underlyingCollateralSeized",
          "type": "uint256"
        },
        {
          "internalType": "contract IRedemptionStrategy",
          "name": "strategy",
          "type": "address"
        },
        {
          "internalType": "bytes",
          "name": "strategyData",
          "type": "bytes"
        }
      ],
      "name": "redeemCustomCollateral",
      "outputs": [
        {
          "internalType": "contract IERC20Upgradeable",
          "name": "",
          "type": "address"
        },
        {
          "internalType": "uint256",
          "name": "",
          "type": "uint256"
        }
      ],
      "stateMutability": "nonpayable",
      "type": "function"
    },
    {
      "inputs": [
        {
          "internalType": "address",
          "name": "borrower",
          "type": "address"
        },
        {
          "internalType": "contract ICEther",
          "name": "cEther",
          "type": "address"
        },
        {
          "internalType": "contract ICErc20",
          "name": "cErc20Collateral",
          "type": "address"
        },
        {
          "internalType": "uint256",
          "name": "minOutputAmount",
          "type": "uint256"
        },
        {
          "internalType": "address",
          "name": "exchangeSeizedTo",
          "type": "address"
        },
        {
          "internalType": "contract IUniswapV2Router02",
          "name": "uniswapV2Router",
          "type": "address"
        },
        {
          "internalType": "contract IRedemptionStrategy[]",
          "name": "redemptionStrategies",
          "type": "address[]"
        },
        {
          "internalType": "bytes[]",
          "name": "strategyData",
          "type": "bytes[]"
        }
      ],
      "name": "safeLiquidate",
      "outputs": [
        {
          "internalType": "uint256",
          "name": "",
          "type": "uint256"
        }
      ],
      "stateMutability": "payable",
      "type": "function"
    },
    {
      "inputs": [
        {
          "internalType": "address",
          "name": "borrower",
          "type": "address"
        },
        {
          "internalType": "uint256",
          "name": "repayAmount",
          "type": "uint256"
        },
        {
          "internalType": "contract ICErc20",
          "name": "cErc20",
          "type": "address"
        },
        {
          "internalType": "contract ICToken",
          "name": "cTokenCollateral",
          "type": "address"
        },
        {
          "internalType": "uint256",
          "name": "minOutputAmount",
          "type": "uint256"
        },
        {
          "internalType": "address",
          "name": "exchangeSeizedTo",
          "type": "address"
        },
        {
          "internalType": "contract IUniswapV2Router02",
          "name": "uniswapV2Router",
          "type": "address"
        },
        {
          "internalType": "contract IRedemptionStrategy[]",
          "name": "redemptionStrategies",
          "type": "address[]"
        },
        {
          "internalType": "bytes[]",
          "name": "strategyData",
          "type": "bytes[]"
        }
      ],
      "name": "safeLiquidate",
      "outputs": [
        {
          "internalType": "uint256",
          "name": "",
          "type": "uint256"
        }
      ],
      "stateMutability": "nonpayable",
      "type": "function"
    },
    {
      "inputs": [
        {
          "internalType": "address",
          "name": "borrower",
          "type": "address"
        },
        {
          "internalType": "uint256",
          "name": "repayAmount",
          "type": "uint256"
        },
        {
          "internalType": "contract ICEther",
          "name": "cEther",
          "type": "address"
        },
        {
          "internalType": "contract ICErc20",
          "name": "cErc20Collateral",
          "type": "address"
        },
        {
          "internalType": "uint256",
          "name": "minProfitAmount",
          "type": "uint256"
        },
        {
          "internalType": "address",
          "name": "exchangeProfitTo",
          "type": "address"
        },
        {
          "internalType": "contract IUniswapV2Router02",
          "name": "uniswapV2RouterForCollateral",
          "type": "address"
        },
        {
          "internalType": "contract IRedemptionStrategy[]",
          "name": "redemptionStrategies",
          "type": "address[]"
        },
        {
          "internalType": "bytes[]",
          "name": "strategyData",
          "type": "bytes[]"
        },
        {
          "internalType": "uint256",
          "name": "ethToCoinbase",
          "type": "uint256"
        }
      ],
      "name": "safeLiquidateToEthWithFlashLoan",
      "outputs": [
        {
          "internalType": "uint256",
          "name": "",
          "type": "uint256"
        }
      ],
      "stateMutability": "nonpayable",
      "type": "function"
    },
    {
      "inputs": [
        {
          "internalType": "address",
          "name": "borrower",
          "type": "address"
        },
        {
          "internalType": "uint256",
          "name": "repayAmount",
          "type": "uint256"
        },
        {
          "internalType": "contract ICErc20",
          "name": "cErc20",
          "type": "address"
        },
        {
          "internalType": "contract ICToken",
          "name": "cTokenCollateral",
          "type": "address"
        },
        {
          "internalType": "uint256",
          "name": "minProfitAmount",
          "type": "uint256"
        },
        {
          "internalType": "address",
          "name": "exchangeProfitTo",
          "type": "address"
        },
        {
          "internalType": "contract IUniswapV2Router02",
          "name": "uniswapV2RouterForBorrow",
          "type": "address"
        },
        {
          "internalType": "contract IUniswapV2Router02",
          "name": "uniswapV2RouterForCollateral",
          "type": "address"
        },
        {
          "internalType": "contract IRedemptionStrategy[]",
          "name": "redemptionStrategies",
          "type": "address[]"
        },
        {
          "internalType": "bytes[]",
          "name": "strategyData",
          "type": "bytes[]"
        },
        {
          "internalType": "uint256",
          "name": "ethToCoinbase",
          "type": "uint256"
        }
      ],
      "name": "safeLiquidateToTokensWithFlashLoan",
      "outputs": [
        {
          "internalType": "uint256",
          "name": "",
          "type": "uint256"
        }
      ],
      "stateMutability": "nonpayable",
      "type": "function"
    },
    {
      "inputs": [
        {
          "internalType": "address",
          "name": "sender",
          "type": "address"
        },
        {
          "internalType": "uint256",
          "name": "amount0",
          "type": "uint256"
        },
        {
          "internalType": "uint256",
          "name": "amount1",
          "type": "uint256"
        },
        {
          "internalType": "bytes",
          "name": "data",
          "type": "bytes"
        }
      ],
      "name": "uniswapV2Call",
      "outputs": [],
      "stateMutability": "nonpayable",
      "type": "function"
    },
    {
      "stateMutability": "payable",
      "type": "receive"
    }
  ],
  "transactionHash": "0x78ebbeb67702e185aeaca2acf44a28e9db3f91a74e35367796edd77a82732beb",
  "args": [],
  "solcInputHash": "f7b1f2c0198a0fc30d3000710310a520",
  "bytecode": "0x608060405234801561001057600080fd5b506152be806100206000396000f3fe6080604052600436106100595760003560e01c80630d1b27631461009357806310d1e85c146100bc578063700d5dd7146100dc578063a68ee119146100fc578063b59662581461011c578063c8348b541461014a5761008e565b3661008e576100673361016a565b61008c5760405162461bcd60e51b8152600401610083906149f5565b60405180910390fd5b005b600080fd5b6100a66100a1366004614208565b610174565b6040516100b39190614fac565b60405180910390f35b3480156100c857600080fd5b5061008c6100d7366004614522565b610544565b3480156100e857600080fd5b506100a66100f7366004614367565b61075c565b34801561010857600080fd5b506100a66101173660046142cf565b610a1a565b34801561012857600080fd5b5061013c61013736600461468e565b610ed0565b6040516100b3929190614819565b34801561015657600080fd5b506100a6610165366004614450565b610f51565b803b15155b919050565b60008034116101955760405162461bcd60e51b815260040161008390614d2a565b604051635572051560e11b81526001600160a01b0389169063aae40a2a9034906101c5908d908c906004016147ff565b6000604051808303818588803b1580156101de57600080fd5b505af11580156101f2573d6000803e3d6000fd5b5050505050866001600160a01b0316856001600160a01b03161461052d576040516370a0823160e01b81526000906001600160a01b038916906370a082319061023f9030906004016147eb565b60206040518083038186803b15801561025757600080fd5b505afa15801561026b573d6000803e3d6000fd5b505050506040513d601f19601f8201168201806040525081019061028f9190614745565b9050801561052b5760405163db006a7560e01b81526000906001600160a01b038a169063db006a75906102c6908590600401614fac565b602060405180830381600087803b1580156102e057600080fd5b505af11580156102f4573d6000803e3d6000fd5b505050506040513d601f19601f820116820180604052508101906103189190614745565b905080156103385760405162461bcd60e51b815260040161008390614df1565b6000896001600160a01b0316636f307dc36040518163ffffffff1660e01b815260040160206040518083038186803b15801561037357600080fd5b505afa158015610387573d6000803e3d6000fd5b505050506040513d601f19601f820116820180604052508101906103ab919061402c565b86519091501561051c5784518651146103d65760405162461bcd60e51b815260040161008390614f29565b6040516370a0823160e01b81526000906001600160a01b038316906370a08231906104059030906004016147eb565b60206040518083038186803b15801561041d57600080fd5b505afa158015610431573d6000803e3d6000fd5b505050506040513d601f19601f820116820180604052508101906104559190614745565b905060005b875181101561051957306001600160a01b031663b596625884848b858151811061048057fe5b60200260200101518b868151811061049457fe5b60200260200101516040518563ffffffff1660e01b81526004016104bb949392919061487c565b6040805180830381600087803b1580156104d457600080fd5b505af11580156104e8573d6000803e3d6000fd5b505050506040513d601f19601f8201168201806040525081019061050c9190614661565b909350915060010161045a565b50505b61052881898b8a611255565b50505b505b6105378587611703565b9998505050505050505050565b60006105546064604484866150b5565b8101906105619190614048565b9050806001600160a01b031663ac784ddc6040518163ffffffff1660e01b815260040160206040518083038186803b15801561059c57600080fd5b505afa1580156105b0573d6000803e3d6000fd5b505050506040513d601f19601f820116820180604052508101906105d49190614641565b1561069c576000808080808080806105ef8a6004818e6150b5565b8101906105fc9190614064565b985098509850985098509850509750975060006106306103e561062a6103e88b61188490919063ffffffff16565b906118dd565b9050600061064c6103e56106468b6103e8611884565b90611944565b1115610656576001015b61066889898c8a8a8a878b8b8b6119ab565b600060026101000a8154816001600160a01b0302191690836001600160a01b03160217905550505050505050505050610754565b600080808080808080806106b38b6004818f6150b5565b8101906106c0919061412f565b9950995099509950995099509950509850985060006106f06103e561062a6103e88c61188490919063ffffffff16565b905060006107066103e56106468c6103e8611884565b1115610710576001015b6107238a8a8d8b8b8b878c8c8c8c611bc4565b600060026101000a8154816001600160a01b0302191690836001600160a01b03160217905550505050505050505050505b505050505050565b6000808b1161077d5760405162461bcd60e51b815260040161008390614c52565b60008060008c6001600160a01b0316636f307dc36040518163ffffffff1660e01b815260040160206040518083038186803b1580156107bb57600080fd5b505afa1580156107cf573d6000803e3d6000fd5b505050506040513d601f19601f820116820180604052508101906107f3919061402c565b9050886001600160a01b031663c45a01556040518163ffffffff1660e01b815260040160206040518083038186803b15801561082e57600080fd5b505afa158015610842573d6000803e3d6000fd5b505050506040513d601f19601f82011682018060405250810190610866919061402c565b6001600160a01b031663e6a43905826000805160206151228339815191526040518363ffffffff1660e01b81526004016108a19291906147ff565b60206040518083038186803b1580156108b957600080fd5b505afa1580156108cd573d6000803e3d6000fd5b505050506040513d601f19601f820116820180604052508101906108f1919061402c565b9250806001600160a01b0316836001600160a01b0316630dfe16816040518163ffffffff1660e01b815260040160206040518083038186803b15801561093657600080fd5b505afa15801561094a573d6000803e3d6000fd5b505050506040513d601f19601f8201168201806040525081019061096e919061402c565b6001600160a01b031614915050816001600160a01b031663022c0d9f82610996576000610998565b8e5b83156109a55760006109a7565b8f5b306000366040518663ffffffff1660e01b81526004016109cb959493929190614fea565b600060405180830381600087803b1580156109e557600080fd5b505af11580156109f9573d6000803e3d6000fd5b50505050610a08898b86611e4a565b9e9d5050505050505050505050505050565b6000808911610a3b5760405162461bcd60e51b815260040161008390614d2a565b6000886001600160a01b0316636f307dc36040518163ffffffff1660e01b815260040160206040518083038186803b158015610a7657600080fd5b505afa158015610a8a573d6000803e3d6000fd5b505050506040513d601f19601f82011682018060405250810190610aae919061402c565b9050610ac56001600160a01b03821633308d611fc5565b610ad0818a8c61201f565b604051637af1e23160e11b81526001600160a01b038a169063f5e3c46290610b00908e908e908d90600401614832565b602060405180830381600087803b158015610b1a57600080fd5b505af1158015610b2e573d6000803e3d6000fd5b505050506040513d601f19601f82011682018060405250810190610b529190614745565b15610b6f5760405162461bcd60e51b815260040161008390614aac565b876001600160a01b0316866001600160a01b031614610eb7576040516370a0823160e01b81526000906001600160a01b038a16906370a0823190610bb79030906004016147eb565b60206040518083038186803b158015610bcf57600080fd5b505afa158015610be3573d6000803e3d6000fd5b505050506040513d601f19601f82011682018060405250810190610c079190614745565b90508015610eb55760405163db006a7560e01b81526000906001600160a01b038b169063db006a7590610c3e908590600401614fac565b602060405180830381600087803b158015610c5857600080fd5b505af1158015610c6c573d6000803e3d6000fd5b505050506040513d601f19601f82011682018060405250810190610c909190614745565b90508015610cb05760405162461bcd60e51b815260040161008390614df1565b896001600160a01b031663ac784ddc6040518163ffffffff1660e01b815260040160206040518083038186803b158015610ce957600080fd5b505afa158015610cfd573d6000803e3d6000fd5b505050506040513d601f19601f82011682018060405250810190610d219190614641565b15610d3857610d336000898b8a611255565b610eb3565b60008a6001600160a01b0316636f307dc36040518163ffffffff1660e01b815260040160206040518083038186803b158015610d7357600080fd5b505afa158015610d87573d6000803e3d6000fd5b505050506040513d601f19601f82011682018060405250810190610dab919061402c565b875190915015610ea5578551875114610dd65760405162461bcd60e51b815260040161008390614f29565b6040516370a0823160e01b81526000906001600160a01b038316906370a0823190610e059030906004016147eb565b60206040518083038186803b158015610e1d57600080fd5b505afa158015610e31573d6000803e3d6000fd5b505050506040513d601f19601f82011682018060405250810190610e559190614745565b905060005b8851811015610ea257610e9583838b8481518110610e7457fe5b60200260200101518b8581518110610e8857fe5b6020026020010151610ed0565b9093509150600101610e5a565b50505b610eb1818a8c8b611255565b505b505b505b610ec18688611703565b9b9a5050505050505050505050565b6000806000610f2d856310badf4e60e01b898988604051602401610ef693929190614855565b60408051601f198184030181529190526020810180516001600160e01b03166001600160e01b0319909316929092179091526120db565b905080806020019051810190610f439190614661565b925092505094509492505050565b6000808a11610f725760405162461bcd60e51b815260040161008390614c52565b6000611105737a250d5630b4cf539739df2c5dacb4c659f2488d6001600160a01b031663c45a01556040518163ffffffff1660e01b815260040160206040518083038186803b158015610fc457600080fd5b505afa158015610fd8573d6000803e3d6000fd5b505050506040513d601f19601f82011682018060405250810190610ffc919061402c565b6001600160a01b038816737a250d5630b4cf539739df2c5dacb4c659f2488d1480156110bd57508a6001600160a01b0316636f307dc36040518163ffffffff1660e01b815260040160206040518083038186803b15801561105c57600080fd5b505afa158015611070573d6000803e3d6000fd5b505050506040513d601f19601f82011682018060405250810190611094919061402c565b6001600160a01b031673a0b86991c6218b36c1d19d4a2e9eb0ce3606eb486001600160a01b0316145b6110db5773a0b86991c6218b36c1d19d4a2e9eb0ce3606eb486110f1565b732260fac5e5542a773aa44fbcfedf7c193bc2c5995b60008051602061512283398151915261218e565b90506000816001600160a01b0316630dfe16816040518163ffffffff1660e01b815260040160206040518083038186803b15801561114257600080fd5b505afa158015611156573d6000803e3d6000fd5b505050506040513d601f19601f8201168201806040525081019061117a919061402c565b9050816001600160a01b031663022c0d9f6000805160206151228339815191526001600160a01b0316836001600160a01b0316146111b95760006111bb565b8d5b6001600160a01b03841660008051602061512283398151915214156111e15760006111e3565b8e5b306000366040518663ffffffff1660e01b8152600401611207959493929190614fea565b600060405180830381600087803b15801561122157600080fd5b505af1158015611235573d6000803e3d6000fd5b50505050611244888a86611e4a565b9d9c50505050505050505050505050565b836001600160a01b0316836001600160a01b03161415611274576116fd565b6001600160a01b0384166113af576001600160a01b0383166000805160206151228339815191521415611308576000805160206151228339815191526001600160a01b031663d0e30db0476040518263ffffffff1660e01b81526004016000604051808303818588803b1580156112ea57600080fd5b505af11580156112fe573d6000803e3d6000fd5b50505050506113aa565b806001600160a01b0316637ff36ab547846113316000805160206151228339815191528861224e565b30426040518663ffffffff1660e01b81526004016113529493929190614fb5565b6000604051808303818588803b15801561136b57600080fd5b505af115801561137f573d6000803e3d6000fd5b50505050506040513d6000823e601f3d908101601f191682016040526113a891908101906145b2565b505b6116fd565b6001600160a01b0384166000805160206151228339815191521480156113dc57506001600160a01b038316155b156114bd576040516370a0823160e01b815260008051602061512283398151915290632e1a7d4d9082906370a082319061141a9030906004016147eb565b60206040518083038186803b15801561143257600080fd5b505afa158015611446573d6000803e3d6000fd5b505050506040513d601f19601f8201168201806040525081019061146a9190614745565b6040518263ffffffff1660e01b81526004016114869190614fac565b600060405180830381600087803b1580156114a057600080fd5b505af11580156114b4573d6000803e3d6000fd5b505050506116fd565b6040516370a0823160e01b815284906000906001600160a01b038316906370a08231906114ee9030906004016147eb565b60206040518083038186803b15801561150657600080fd5b505afa15801561151a573d6000803e3d6000fd5b505050506040513d601f19601f8201168201806040525081019061153e9190614745565b905061154b82848361201f565b6001600160a01b03851661160057826001600160a01b03166318cbafe582866115828a60008051602061512283398151915261224e565b30426040518663ffffffff1660e01b81526004016115a4959493929190615039565b600060405180830381600087803b1580156115be57600080fd5b505af11580156115d2573d6000803e3d6000fd5b505050506040513d6000823e601f3d908101601f191682016040526115fa91908101906145b2565b50610754565b826001600160a01b03166338ed173982866000805160206151228339815191526001600160a01b03168a6001600160a01b0316148061165557506001600160a01b038916600080516020615122833981519152145b611677576116728a6000805160206151228339815191528b6122cf565b611681565b6116818a8a61224e565b30426040518663ffffffff1660e01b81526004016116a3959493929190615039565b600060405180830381600087803b1580156116bd57600080fd5b505af11580156116d1573d6000803e3d6000fd5b505050506040513d6000823e601f3d908101601f191682016040526116f991908101906145b2565b5050505b50505050565b6000806001600160a01b0384166117bf575047828110156117365760405162461bcd60e51b815260040161008390614ee1565b80156117ba576000336001600160a01b031682604051611755906147e8565b60006040518083038185875af1925050503d8060008114611792576040519150601f19603f3d011682016040523d82523d6000602084013e611797565b606091505b50509050806117b85760405162461bcd60e51b815260040161008390614e95565b505b61187b565b6040516370a0823160e01b815284906001600160a01b038216906370a08231906117ed9030906004016147eb565b60206040518083038186803b15801561180557600080fd5b505afa158015611819573d6000803e3d6000fd5b505050506040513d601f19601f8201168201806040525081019061183d9190614745565b91508382101561185f5760405162461bcd60e51b8152600401610083906148c2565b8115611879576118796001600160a01b0382163384612380565b505b90505b92915050565b6000826118935750600061187e565b828202828482816118a057fe5b041461187b5760405162461bcd60e51b81526004018080602001828103825260218152602001806151e16021913960400191505060405180910390fd5b6000808211611933576040805162461bcd60e51b815260206004820152601a60248201527f536166654d6174683a206469766973696f6e206279207a65726f000000000000604482015290519081900360640190fd5b81838161193c57fe5b049392505050565b600080821161199a576040805162461bcd60e51b815260206004820152601860248201527f536166654d6174683a206d6f64756c6f206279207a65726f0000000000000000604482015290519081900360640190fd5b8183816119a357fe5b069392505050565b604051632e1a7d4d60e01b815260009060008051602061512283398151915290632e1a7d4d906119df908d90600401614fac565b600060405180830381600087803b1580156119f957600080fd5b505af1158015611a0d573d6000803e3d6000fd5b5050604051635572051560e11b81526001600160a01b038c16925063aae40a2a91508c90611a41908f908d906004016147ff565b6000604051808303818588803b158015611a5a57600080fd5b505af1158015611a6e573d6000803e3d6000fd5b50506040516370a0823160e01b8152600093506001600160a01b038c1692506370a082319150611aa29030906004016147eb565b60206040518083038186803b158015611aba57600080fd5b505afa158015611ace573d6000803e3d6000fd5b505050506040513d601f19601f82011682018060405250810190611af29190614745565b905060008111611b145760405162461bcd60e51b815260040161008390614a80565b60405163db006a7560e01b81526000906001600160a01b038b169063db006a7590611b43908590600401614fac565b602060405180830381600087803b158015611b5d57600080fd5b505af1158015611b71573d6000803e3d6000fd5b505050506040513d601f19601f82011682018060405250810190611b959190614745565b90508015611bb55760405162461bcd60e51b815260040161008390614df1565b6112448c8b8a8a8a8a8a6123d7565b6000808a6001600160a01b0316636f307dc36040518163ffffffff1660e01b815260040160206040518083038186803b158015611c0057600080fd5b505afa158015611c14573d6000803e3d6000fd5b505050506040513d601f19601f82011682018060405250810190611c38919061402c565b9050611c45818c8e61201f565b8a6001600160a01b031663f5e3c4628e8e8d6040518463ffffffff1660e01b8152600401611c7593929190614832565b602060405180830381600087803b158015611c8f57600080fd5b505af1158015611ca3573d6000803e3d6000fd5b505050506040513d601f19601f82011682018060405250810190611cc79190614745565b15611ce45760405162461bcd60e51b815260040161008390614aac565b6040516370a0823160e01b81526000906001600160a01b038c16906370a0823190611d139030906004016147eb565b60206040518083038186803b158015611d2b57600080fd5b505afa158015611d3f573d6000803e3d6000fd5b505050506040513d601f19601f82011682018060405250810190611d639190614745565b905060008111611d855760405162461bcd60e51b815260040161008390614a80565b60405163db006a7560e01b81526000906001600160a01b038d169063db006a7590611db4908590600401614fac565b602060405180830381600087803b158015611dce57600080fd5b505af1158015611de2573d6000803e3d6000fd5b505050506040513d601f19601f82011682018060405250810190611e069190614745565b90508015611e265760405162461bcd60e51b815260040161008390614df1565b611e378e8d8c8c8c8c8c8c8b612b11565b9f9e505050505050505050505050505050565b60006001600160a01b038416611f0957600054611e95906201000090046001600160a01b031685611e7b86866133cd565b737a250d5630b4cf539739df2c5dacb4c659f2488d611255565b8115611ef857416001600160a01b031682604051611eb2906147e8565b60006040518083038185875af1925050503d8060008114611eef576040519150601f19603f3d011682016040523d82523d6000602084013e611ef4565b606091505b5050505b611f028484611703565b9050611fbe565b8115611f9d57600054611f40906201000090046001600160a01b031683737a250d5630b4cf539739df2c5dacb4c659f2488d613427565b416001600160a01b031682604051611f57906147e8565b60006040518083038185875af1925050503d8060008114611f94576040519150601f19603f3d011682016040523d82523d6000602084013e611f99565b606091505b5050505b600054611ef8906201000090046001600160a01b031685611e7b86866133cd565b9392505050565b604080516001600160a01b0380861660248301528416604482015260648082018490528251808303909101815260849091019091526020810180516001600160e01b03166323b872dd60e01b1790526116fd9085906135f0565b604051636eb1769f60e11b81526000906001600160a01b0385169063dd62ed3e9061205090309087906004016147ff565b60206040518083038186803b15801561206857600080fd5b505afa15801561207c573d6000803e3d6000fd5b505050506040513d601f19601f820116820180604052508101906120a09190614745565b9050818110156116fd5780156120c5576120c56001600160a01b0385168460006136a1565b6116fd6001600160a01b038516846000196136a1565b60606120e68361016a565b6121025760405162461bcd60e51b815260040161008390614e4f565b600080846001600160a01b03168460405161211d91906147cc565b600060405180830381855af49150503d8060008114612158576040519150601f19603f3d011682016040523d82523d6000602084013e61215d565b606091505b50915091506121858282604051806060016040528060278152602001615202602791396137b4565b95945050505050565b600080600061219d85856137ed565b604080516bffffffffffffffffffffffff19606094851b811660208084019190915293851b81166034830152825160288184030181526048830184528051908501206001600160f81b031960688401529a90941b9093166069840152607d8301989098527f96e8ac4277198ff8b6f785478aa9a39f403cb768dd02cbee326c3e7da348845f609d808401919091528851808403909101815260bd909201909752805196019590952095945050505050565b60408051600280825260608083018452926000929190602083019080368337019050509050838160008151811061228157fe5b60200260200101906001600160a01b031690816001600160a01b03168152505082816001815181106122af57fe5b6001600160a01b0390921660209283029190910190910152905092915050565b6040805160038082526080820190925260609160009190602082018480368337019050509050848160008151811061230357fe5b60200260200101906001600160a01b031690816001600160a01b031681525050838160018151811061233157fe5b60200260200101906001600160a01b031690816001600160a01b031681525050828160028151811061235f57fe5b6001600160a01b039092166020928302919091019091015290509392505050565b604080516001600160a01b038416602482015260448082018490528251808303909101815260649091019091526020810180516001600160e01b031663a9059cbb60e01b1790526123d29084906135f0565b505050565b600080876001600160a01b0316636f307dc36040518163ffffffff1660e01b815260040160206040518083038186803b15801561241357600080fd5b505afa158015612427573d6000803e3d6000fd5b505050506040513d601f19601f8201168201806040525081019061244b919061402c565b90506000816001600160a01b03166370a08231306040518263ffffffff1660e01b815260040161247b91906147eb565b60206040518083038186803b15801561249357600080fd5b505afa1580156124a7573d6000803e3d6000fd5b505050506040513d601f19601f820116820180604052508101906124cb9190614745565b8551909150156125365783518551146124f65760405162461bcd60e51b815260040161008390614f29565b60005b855181101561253457612527838388848151811061251357fe5b6020026020010151888581518110610e8857fe5b90935091506001016124f9565b505b6001600160a01b038616737a250d5630b4cf539739df2c5dacb4c659f2488d14801561263f5750886001600160a01b0316636f307dc36040518163ffffffff1660e01b815260040160206040518083038186803b15801561259657600080fd5b505afa1580156125aa573d6000803e3d6000fd5b505050506040513d601f19601f820116820180604052508101906125ce919061402c565b6001600160a01b031673a0b86991c6218b36c1d19d4a2e9eb0ce3606eb486001600160a01b0316146126145773a0b86991c6218b36c1d19d4a2e9eb0ce3606eb4861262a565b732260fac5e5542a773aa44fbcfedf7c193bc2c5995b6001600160a01b0316826001600160a01b0316145b156127b05760006126d8876001600160a01b031663c45a01556040518163ffffffff1660e01b815260040160206040518083038186803b15801561268257600080fd5b505afa158015612696573d6000803e3d6000fd5b505050506040513d601f19601f820116820180604052508101906126ba919061402c565b8c6126d38660008051602061512283398151915261224e565b6138cb565b6000815181106126e457fe5b602002602001015190508181111561270e5760405162461bcd60e51b815260040161008390614ad9565b60405163a9059cbb60e01b81526001600160a01b0384169063a9059cbb9061273c9033908590600401614819565b602060405180830381600087803b15801561275657600080fd5b505af115801561276a573d6000803e3d6000fd5b505050506040513d601f19601f8201168201806040525081019061278e9190614641565b6127aa5760405162461bcd60e51b815260040161008390614ccd565b50612b04565b6001600160a01b038216600080516020615122833981519152146129c3576001600160a01b038216612843576000805160206151228339815191526001600160a01b031663d0e30db0886040518263ffffffff1660e01b81526004016000604051808303818588803b15801561282557600080fd5b505af1158015612839573d6000803e3d6000fd5b50505050506129c3565b61284e82878361201f565b816001600160a01b0316886001600160a01b0316141561290f57856001600160a01b0316638803dbee88836128918660008051602061512283398151915261224e565b30426040518663ffffffff1660e01b81526004016128b3959493929190615039565b600060405180830381600087803b1580156128cd57600080fd5b505af11580156128e1573d6000803e3d6000fd5b505050506040513d6000823e601f3d908101601f1916820160405261290991908101906145b2565b506129c3565b856001600160a01b03166338ed173982896129388660008051602061512283398151915261224e565b30426040518663ffffffff1660e01b815260040161295a959493929190615039565b600060405180830381600087803b15801561297457600080fd5b505af1158015612988573d6000803e3d6000fd5b505050506040513d6000823e601f3d908101601f191682016040526129b091908101906145b2565b5060008051602061512283398151915291505b6040516370a0823160e01b8152600080516020615122833981519152906370a08231906129f49030906004016147eb565b60206040518083038186803b158015612a0c57600080fd5b505afa158015612a20573d6000803e3d6000fd5b505050506040513d601f19601f82011682018060405250810190612a449190614745565b871115612a635760405162461bcd60e51b81526004016100839061490b565b60405163a9059cbb60e01b81526000805160206151228339815191529063a9059cbb90612a969033908b90600401614819565b602060405180830381600087803b158015612ab057600080fd5b505af1158015612ac4573d6000803e3d6000fd5b505050506040513d601f19601f82011682018060405250810190612ae89190614641565b612b045760405162461bcd60e51b815260040161008390614b93565b5098975050505050505050565b6000886001600160a01b031663ac784ddc6040518163ffffffff1660e01b815260040160206040518083038186803b158015612b4c57600080fd5b505afa158015612b60573d6000803e3d6000fd5b505050506040513d601f19601f82011682018060405250810190612b849190614641565b15612d615760004790506000612c1d886001600160a01b031663c45a01556040518163ffffffff1660e01b815260040160206040518083038186803b158015612bcc57600080fd5b505afa158015612be0573d6000803e3d6000fd5b505050506040513d601f19601f82011682018060405250810190612c04919061402c565b8d6126d36000805160206151228339815191528861224e565b600081518110612c2957fe5b6020026020010151905081811115612c535760405162461bcd60e51b815260040161008390614a2c565b6000805160206151228339815191526001600160a01b031663d0e30db0826040518263ffffffff1660e01b81526004016000604051808303818588803b158015612c9c57600080fd5b505af1158015612cb0573d6000803e3d6000fd5b505060405163a9059cbb60e01b8152600080516020615122833981519152935063a9059cbb9250612ce8915033908590600401614819565b602060405180830381600087803b158015612d0257600080fd5b505af1158015612d16573d6000803e3d6000fd5b505050506040513d601f19601f82011682018060405250810190612d3a9190614641565b612d565760405162461bcd60e51b815260040161008390614bdf565b600092505050610537565b6000896001600160a01b0316636f307dc36040518163ffffffff1660e01b815260040160206040518083038186803b158015612d9c57600080fd5b505afa158015612db0573d6000803e3d6000fd5b505050506040513d601f19601f82011682018060405250810190612dd4919061402c565b90506000816001600160a01b03166370a08231306040518263ffffffff1660e01b8152600401612e0491906147eb565b60206040518083038186803b158015612e1c57600080fd5b505afa158015612e30573d6000803e3d6000fd5b505050506040513d601f19601f82011682018060405250810190612e549190614745565b865190915015612ebf578451865114612e7f5760405162461bcd60e51b815260040161008390614f29565b60005b8651811015612ebd57612eb08383898481518110612e9c57fe5b6020026020010151898581518110610e8857fe5b9093509150600101612e82565b505b836001600160a01b0316826001600160a01b03161415613018576040516370a0823160e01b81526001600160a01b038516906370a0823190612f059030906004016147eb565b60206040518083038186803b158015612f1d57600080fd5b505afa158015612f31573d6000803e3d6000fd5b505050506040513d601f19601f82011682018060405250810190612f559190614745565b891115612f745760405162461bcd60e51b81526004016100839061497c565b60405163a9059cbb60e01b81526001600160a01b0385169063a9059cbb90612fa29033908d90600401614819565b602060405180830381600087803b158015612fbc57600080fd5b505af1158015612fd0573d6000803e3d6000fd5b505050506040513d601f19601f82011682018060405250810190612ff49190614641565b6130105760405162461bcd60e51b815260040161008390614b36565b509050610537565b60006130a7896001600160a01b031663c45a01556040518163ffffffff1660e01b815260040160206040518083038186803b15801561305657600080fd5b505afa15801561306a573d6000803e3d6000fd5b505050506040513d601f19601f8201168201806040525081019061308e919061402c565b8e6126d36000805160206151228339815191528961224e565b6000815181106130b357fe5b602002602001015190506000805160206151228339815191526001600160a01b0316836001600160a01b031614613253576130ef83898461201f565b826001600160a01b03168b6001600160a01b031614156131b057876001600160a01b0316638803dbee82846131328760008051602061512283398151915261224e565b30426040518663ffffffff1660e01b8152600401613154959493929190615039565b600060405180830381600087803b15801561316e57600080fd5b505af1158015613182573d6000803e3d6000fd5b505050506040513d6000823e601f3d908101601f191682016040526131aa91908101906145b2565b50613253565b876001600160a01b03166338ed173983836131d98760008051602061512283398151915261224e565b30426040518663ffffffff1660e01b81526004016131fb959493929190615039565b600060405180830381600087803b15801561321557600080fd5b505af1158015613229573d6000803e3d6000fd5b505050506040513d6000823e601f3d908101601f1916820160405261325191908101906145b2565b505b6040516370a0823160e01b8152600080516020615122833981519152906370a08231906132849030906004016147eb565b60206040518083038186803b15801561329c57600080fd5b505afa1580156132b0573d6000803e3d6000fd5b505050506040513d601f19601f820116820180604052508101906132d49190614745565b8111156132f35760405162461bcd60e51b815260040161008390614d87565b60405163a9059cbb60e01b81526000805160206151228339815191529063a9059cbb906133269033908590600401614819565b602060405180830381600087803b15801561334057600080fd5b505af1158015613354573d6000803e3d6000fd5b505050506040513d601f19601f820116820180604052508101906133789190614641565b6133945760405162461bcd60e51b815260040161008390614bdf565b826001600160a01b03168b6001600160a01b0316146133c1576000805160206151228339815191526133c3565b825b9350505050610537565b60008282018381101561187b576040805162461bcd60e51b815260206004820152601b60248201527f536166654d6174683a206164646974696f6e206f766572666c6f770000000000604482015290519081900360640190fd5b6001600160a01b03831661343a576123d2565b6001600160a01b03831660008051602061512283398151915214156134c157604051632e1a7d4d60e01b815260008051602061512283398151915290632e1a7d4d9061348a908590600401614fac565b600060405180830381600087803b1580156134a457600080fd5b505af11580156134b8573d6000803e3d6000fd5b505050506123d2565b6040516370a0823160e01b815283906000906001600160a01b038316906370a08231906134f29030906004016147eb565b60206040518083038186803b15801561350a57600080fd5b505afa15801561351e573d6000803e3d6000fd5b505050506040513d601f19601f820116820180604052508101906135429190614745565b905061354f82848361201f565b826001600160a01b0316634a25d94a85836135788960008051602061512283398151915261224e565b30426040518663ffffffff1660e01b815260040161359a959493929190615039565b600060405180830381600087803b1580156135b457600080fd5b505af11580156135c8573d6000803e3d6000fd5b505050506040513d6000823e601f3d908101601f1916820160405261075491908101906145b2565b6000613645826040518060400160405280602081526020017f5361666545524332303a206c6f772d6c6576656c2063616c6c206661696c6564815250856001600160a01b03166139e29092919063ffffffff16565b8051909150156123d25780806020019051602081101561366457600080fd5b50516123d25760405162461bcd60e51b815260040180806020018281038252602a815260200180615229602a913960400191505060405180910390fd5b801580613727575060408051636eb1769f60e11b81523060048201526001600160a01b03848116602483015291519185169163dd62ed3e91604480820192602092909190829003018186803b1580156136f957600080fd5b505afa15801561370d573d6000803e3d6000fd5b505050506040513d602081101561372357600080fd5b5051155b6137625760405162461bcd60e51b81526004018080602001828103825260368152602001806152536036913960400191505060405180910390fd5b604080516001600160a01b038416602482015260448082018490528251808303909101815260649091019091526020810180516001600160e01b031663095ea7b360e01b1790526123d29084906135f0565b606083156137c3575081611fbe565b8251156137d35782518084602001fd5b8160405162461bcd60e51b815260040161008391906148af565b600080826001600160a01b0316846001600160a01b031614156138415760405162461bcd60e51b815260040180806020018281038252602581526020018061516e6025913960400191505060405180910390fd5b826001600160a01b0316846001600160a01b031610613861578284613864565b83835b90925090506001600160a01b0382166138c4576040805162461bcd60e51b815260206004820152601e60248201527f556e697377617056324c6962726172793a205a45524f5f414444524553530000604482015290519081900360640190fd5b9250929050565b60606002825110156138ef5760405162461bcd60e51b815260040161008390614c96565b81516001600160401b038111801561390657600080fd5b50604051908082528060200260200182016040528015613930578160200160208202803683370190505b509050828160018351038151811061394457fe5b60209081029190910101528151600019015b80156139da576000806139938786600186038151811061397257fe5b602002602001015187868151811061398657fe5b60200260200101516139f9565b915091506139b58484815181106139a657fe5b60200260200101518383613b45565b8460018503815181106139c457fe5b6020908102919091010152505060001901613956565b509392505050565b60606139f18484600085613c1d565b949350505050565b6000806000613a0885856137ed565b509050600080876001600160a01b031663e6a4390588886040518363ffffffff1660e01b8152600401613a3c9291906147ff565b60206040518083038186803b158015613a5457600080fd5b505afa158015613a68573d6000803e3d6000fd5b505050506040513d601f19601f82011682018060405250810190613a8c919061402c565b6001600160a01b0316630902f1ac6040518163ffffffff1660e01b815260040160606040518083038186803b158015613ac457600080fd5b505afa158015613ad8573d6000803e3d6000fd5b505050506040513d601f19601f82011682018060405250810190613afc91906146f7565b506001600160701b031691506001600160701b03169150826001600160a01b0316876001600160a01b031614613b33578082613b36565b81815b90999098509650505050505050565b6000808411613b855760405162461bcd60e51b815260040180806020018281038252602c815260200180615142602c913960400191505060405180910390fd5b600083118015613b955750600082115b613bd05760405162461bcd60e51b81526004018080602001828103825260288152602001806151b96028913960400191505060405180910390fd5b6000613be86103e8613be28688611884565b90611884565b90506000613bfc6103e5613be28689613d78565b9050613c136001828481613c0c57fe5b04906133cd565b9695505050505050565b606082471015613c5e5760405162461bcd60e51b81526004018080602001828103825260268152602001806151936026913960400191505060405180910390fd5b613c678561016a565b613cb8576040805162461bcd60e51b815260206004820152601d60248201527f416464726573733a2063616c6c20746f206e6f6e2d636f6e7472616374000000604482015290519081900360640190fd5b600080866001600160a01b031685876040518082805190602001908083835b60208310613cf65780518252601f199092019160209182019101613cd7565b6001836020036101000a03801982511681845116808217855250505050505090500191505060006040518083038185875af1925050503d8060008114613d58576040519150601f19603f3d011682016040523d82523d6000602084013e613d5d565b606091505b5091509150613d6d828286613dd5565b979650505050505050565b600082821115613dcf576040805162461bcd60e51b815260206004820152601e60248201527f536166654d6174683a207375627472616374696f6e206f766572666c6f770000604482015290519081900360640190fd5b50900390565b60608315613de4575081611fbe565b825115613df45782518084602001fd5b8160405162461bcd60e51b81526004018080602001828103825283818151815260200191508051906020019080838360005b83811015613e3e578181015183820152602001613e26565b50505050905090810190601f168015613e6b5780820380516001836020036101000a031916815260200191505b509250505060405180910390fd5b803561016f81615109565b600082601f830112613e94578081fd5b81356020613ea9613ea483615098565b615075565b8281528181019085830183850287018401881015613ec5578586fd5b855b85811015613eec578135613eda81615109565b84529284019290840190600101613ec7565b5090979650505050505050565b600082601f830112613f09578081fd5b81356020613f19613ea483615098565b82815281810190858301855b85811015613eec57613f3c898684358b0101613fb1565b84529284019290840190600101613f25565b600082601f830112613f5e578081fd5b81356020613f6e613ea483615098565b8281528181019085830183850287018401881015613f8a578586fd5b855b85811015613eec578135613f9f81615109565b84529284019290840190600101613f8c565b600082601f830112613fc1578081fd5b81356001600160401b03811115613fd457fe5b613fe7601f8201601f1916602001615075565b818152846020838601011115613ffb578283fd5b816020850160208301379081016020019190915292915050565b80516001600160701b038116811461016f57600080fd5b60006020828403121561403d578081fd5b815161187b81615109565b600060208284031215614059578081fd5b813561187b81615109565b60008060008060008060008060006101208a8c031215614082578485fd5b893561408d81615109565b985060208a0135975060408a01356140a481615109565b96506140b260608b01613e79565b955060808a013594506140c760a08b01613e79565b93506140d560c08b01613e79565b925060e08a01356001600160401b03808211156140f0578384fd5b6140fc8d838e01613e84565b93506101008c0135915080821115614112578283fd5b5061411f8c828d01613ef9565b9150509295985092959850929598565b6000806000806000806000806000806101408b8d03121561414e578384fd5b6141578b613e79565b995060208b0135985061416c60408c01613e79565b975061417a60608c01613e79565b965060808b0135955061418f60a08c01613e79565b945061419d60c08c01613e79565b93506141ab60e08c01613e79565b92506101008b01356001600160401b03808211156141c7578283fd5b6141d38e838f01613e84565b93506101208d01359150808211156141e9578283fd5b506141f68d828e01613ef9565b9150509295989b9194979a5092959850565b600080600080600080600080610100898b031215614224578182fd5b883561422f81615109565b9750602089013561423f81615109565b9650604089013561424f81615109565b955060608901359450608089013561426681615109565b935060a089013561427681615109565b925060c08901356001600160401b0380821115614291578384fd5b61429d8c838d01613f4e565b935060e08b01359150808211156142b2578283fd5b506142bf8b828c01613ef9565b9150509295985092959890939650565b60008060008060008060008060006101208a8c0312156142ed578283fd5b89356142f881615109565b985060208a0135975060408a013561430f81615109565b965061431d60608b01613e79565b955060808a0135945061433260a08b01613e79565b935061434060c08b01613e79565b925060e08a01356001600160401b038082111561435b578384fd5b6140fc8d838e01613f4e565b60008060008060008060008060008060006101608c8e031215614388578485fd5b6143918c613e79565b9a5060208c013599506143a660408d01613e79565b98506143b460608d01613e79565b975060808c013596506143c960a08d01613e79565b95506143d760c08d01613e79565b94506143e560e08d01613e79565b93506001600160401b03806101008e01351115614400578182fd5b6144118e6101008f01358f01613f4e565b9350806101208e01351115614424578182fd5b506144368d6101208e01358e01613ef9565b91506101408c013590509295989b509295989b9093969950565b6000806000806000806000806000806101408b8d03121561446f578384fd5b6144788b613e79565b995060208b0135985061448d60408c01613e79565b975061449b60608c01613e79565b965060808b013595506144b060a08c01613e79565b94506144be60c08c01613e79565b935060e08b01356001600160401b03808211156144d9578485fd5b6144e58e838f01613f4e565b94506101008d01359150808211156144fb578384fd5b506145088d828e01613ef9565b9250506101208b013590509295989b9194979a5092959850565b600080600080600060808688031215614539578283fd5b853561454481615109565b9450602086013593506040860135925060608601356001600160401b038082111561456d578283fd5b818801915088601f830112614580578283fd5b81358181111561458e578384fd5b89602082850101111561459f578384fd5b9699959850939650602001949392505050565b600060208083850312156145c4578182fd5b82516001600160401b038111156145d9578283fd5b8301601f810185136145e9578283fd5b80516145f7613ea482615098565b8181528381019083850185840285018601891015614613578687fd5b8694505b83851015614635578051835260019490940193918501918501614617565b50979650505050505050565b600060208284031215614652578081fd5b8151801515811461187b578182fd5b60008060408385031215614673578182fd5b825161467e81615109565b6020939093015192949293505050565b600080600080608085870312156146a3578182fd5b84356146ae81615109565b93506020850135925060408501356146c581615109565b915060608501356001600160401b038111156146df578182fd5b6146eb87828801613fb1565b91505092959194509250565b60008060006060848603121561470b578081fd5b61471484614015565b925061472260208501614015565b9150604084015163ffffffff8116811461473a578182fd5b809150509250925092565b600060208284031215614756578081fd5b5051919050565b6000815180845260208085019450808401835b838110156147955781516001600160a01b031687529582019590820190600101614770565b509495945050505050565b600081518084526147b88160208601602086016150dd565b601f01601f19169290920160200192915050565b600082516147de8184602087016150dd565b9190910192915050565b90565b6001600160a01b0391909116815260200190565b6001600160a01b0392831681529116602082015260400190565b6001600160a01b03929092168252602082015260400190565b6001600160a01b0393841681526020810192909252909116604082015260600190565b600060018060a01b03851682528360208301526060604083015261218560608301846147a0565b6001600160a01b0385811682526020820185905283166040820152608060608201819052600090613c13908301846147a0565b600060208252611fbe60208301846147a0565b60208082526029908201527f4d696e696d756d20746f6b656e206f757470757420616d6f756e74206e6f742060408201526839b0ba34b334b2b21760b91b606082015260800190565b6020808252604b908201527f466c6173686c6f616e2072657475726e20616d6f756e7420677265617465722060408201527f7468616e20574554482065786368616e6765642066726f6d207365697a65642060608201526a31b7b63630ba32b930b61760a91b608082015260a00190565b60208082526053908201527f546f6b656e20666c6173686c6f616e2072657475726e20616d6f756e7420677260408201527f6561746572207468616e20746f6b656e732065786368616e6765642066726f6d6060820152721039b2b4bd32b21031b7b63630ba32b930b61760691b608082015260a00190565b60208082526019908201527f53656e646572206973206e6f74206120636f6e74726163742e00000000000000604082015260600190565b60208082526034908201527f5365697a65642045544820636f6c6c61746572616c206e6f7420656e6f756768604082015273103a37903932b830bc90333630b9b43637b0b71760611b606082015260800190565b60208082526012908201527127379031aa37b5b2b7399039b2b4bd32b21760711b604082015260600190565b6020808252601390820152722634b8bab4b230ba34b7b7103330b4b632b21760691b604082015260600190565b60208082526037908201527f466c6173686c6f616e2072657475726e20616d6f756e7420677265617465722060408201527f7468616e207365697a656420636f6c6c61746572616c2e000000000000000000606082015260800190565b6020808252603a908201527f4661696c656420746f20726570617920746f6b656e20666c6173686c6f616e2060408201527f6f6e20626f72726f7720286e6f6e2d574554482920736964652e000000000000606082015260800190565b6020808252602c908201527f4661696c656420746f207472616e736665722057455448206261636b20746f2060408201526b333630b9b43632b73232b91760a11b606082015260800190565b6020808252604d908201527f4661696c656420746f20726570617920556e697377617020666c6173686c6f6160408201527f6e207769746820574554482065786368616e6765642066726f6d207365697a6560608201526c321031b7b63630ba32b930b61760991b608082015260a00190565b60208082526024908201527f526570617920616d6f756e74206d7573742062652067726561746572207468616040820152633710181760e11b606082015260800190565b6020808252601e908201527f556e697377617056324c6962726172793a20494e56414c49445f504154480000604082015260600190565b60208082526037908201527f4661696c656420746f207472616e73666572206e6f6e2d5745544820746f6b6560408201527f6e73206261636b20746f20666c6173686c656e6465722e000000000000000000606082015260800190565b60208082526038908201527f526570617920616d6f756e7420287472616e73616374696f6e2076616c75652960408201527f206d7573742062652067726561746572207468616e20302e0000000000000000606082015260800190565b60208082526044908201527f4e6f7420656e6f75676820574554482065786368616e6765642066726f6d207360408201527f65697a656420636f6c6c61746572616c20746f20726570617920666c6173686c60608201526337b0b71760e11b608082015260a00190565b602080825260409082018190527f4572726f722063616c6c696e672072656465656d696e67207365697a65642063908201527f546f6b656e3a206572726f7220636f6465206e6f7420657175616c20746f2030606082015260800190565b60208082526026908201527f416464726573733a2064656c65676174652063616c6c20746f206e6f6e2d636f6040820152651b9d1c9858dd60d21b606082015260800190565b6020808252602c908201527f4661696c656420746f207472616e73666572206f75747075742045544820746f60408201526b1036b9b39739b2b73232b91760a11b606082015260800190565b60208082526028908201527f4d696e696d756d20455448206f757470757420616d6f756e74206e6f742073616040820152673a34b9b334b2b21760c11b606082015260800190565b6020808252605b908201527f49526564656d7074696f6e537472617465677920636f6e74726163742061727260408201527f617920616e64207374726174656779206461746120627974657320617272617960608201527f206d6e75737420746865207468652073616d65206c656e6774682e0000000000608082015260a00190565b90815260200190565b600085825260806020830152614fce608083018661475d565b6001600160a01b03949094166040830152506060015292915050565b858152602081018590526001600160a01b038416604082015260806060820181905281018290526000828460a084013781830160a090810191909152601f909201601f19160101949350505050565b600086825285602083015260a0604083015261505860a083018661475d565b6001600160a01b0394909416606083015250608001529392505050565b6040518181016001600160401b038111828210171561509057fe5b604052919050565b60006001600160401b038211156150ab57fe5b5060209081020190565b600080858511156150c4578182fd5b838611156150d0578182fd5b5050820193919092039150565b60005b838110156150f85781810151838201526020016150e0565b838111156116fd5750506000910152565b6001600160a01b038116811461511e57600080fd5b5056fe000000000000000000000000c02aaa39b223fe8d0a0e5c4f27ead9083c756cc2556e697377617056324c6962726172793a20494e53554646494349454e545f4f55545055545f414d4f554e54556e697377617056324c6962726172793a204944454e544943414c5f414444524553534553416464726573733a20696e73756666696369656e742062616c616e636520666f722063616c6c556e697377617056324c6962726172793a20494e53554646494349454e545f4c4951554944495459536166654d6174683a206d756c7469706c69636174696f6e206f766572666c6f77416464726573733a206c6f772d6c6576656c2064656c65676174652063616c6c206661696c65645361666545524332303a204552433230206f7065726174696f6e20646964206e6f7420737563636565645361666545524332303a20617070726f76652066726f6d206e6f6e2d7a65726f20746f206e6f6e2d7a65726f20616c6c6f77616e6365a26469706673582212201a358b7fe2086072708c931bbe8a3d22a0999fc85313005e3e1e95625eea3b5664736f6c63430007060033",
  "devdoc": {
    "author": "David Lucid <david@rari.capital> (https://github.com/davidlucid)",
    "details": "Do not transfer ETH or tokens directly to this address. Only send ETH here when using a method, and only approve tokens for transfer to here when using a method. Direct ETH transfers will be rejected and direct token transfers will be lost.",
    "kind": "dev",
    "methods": {
      "redeemCustomCollateral(address,uint256,address,bytes)": {
        "details": "Redeem \"special\" collateral tokens (before swapping the output for borrowed tokens to be repaid via Uniswap). Public visibility because we have to call this function externally if called from a payable FuseSafeLiquidator function (for some reason delegatecall fails when called with msg.value > 0)."
      },
      "safeLiquidate(address,address,address,uint256,address,address,address[],bytes[])": {
        "params": {
          "borrower": "The borrower's Ethereum address.",
          "cErc20Collateral": "The cErc20 collateral contract to be liquidated.",
          "cEther": "The borrowed cEther contract to repay.",
          "exchangeSeizedTo": "If set to an address other than `cTokenCollateral`, exchange seized collateral to this ERC20 token contract address (or the zero address for ETH).",
          "minOutputAmount": "The minimum amount of collateral to seize (or the minimum exchange output if applicable) required for execution. Reverts if this condition is not met.",
          "redemptionStrategies": "The IRedemptionStrategy contracts to use, if any, to redeem \"special\" collateral tokens (before swapping the output for borrowed tokens to be repaid via Uniswap).",
          "strategyData": "The data for the chosen IRedemptionStrategy contracts, if any.",
          "uniswapV2Router": "The UniswapV2Router to use to convert the seized underlying collateral."
        }
      },
      "safeLiquidate(address,uint256,address,address,uint256,address,address,address[],bytes[])": {
        "params": {
          "borrower": "The borrower's Ethereum address.",
          "cErc20": "The borrowed cErc20 to repay.",
          "cTokenCollateral": "The cToken collateral to be liquidated.",
          "exchangeSeizedTo": "If set to an address other than `cTokenCollateral`, exchange seized collateral to this ERC20 token contract address (or the zero address for ETH).",
          "minOutputAmount": "The minimum amount of collateral to seize (or the minimum exchange output if applicable) required for execution. Reverts if this condition is not met.",
          "redemptionStrategies": "The IRedemptionStrategy contracts to use, if any, to redeem \"special\" collateral tokens (before swapping the output for borrowed tokens to be repaid via Uniswap).",
          "repayAmount": "The amount to repay to liquidate the unhealthy loan.",
          "strategyData": "The data for the chosen IRedemptionStrategy contracts, if any.",
          "uniswapV2Router": "The UniswapV2Router to use to convert the seized underlying collateral."
        }
      },
      "safeLiquidateToEthWithFlashLoan(address,uint256,address,address,uint256,address,address,address[],bytes[],uint256)": {
        "params": {
          "borrower": "The borrower's Ethereum address.",
          "cErc20Collateral": "The CErc20 collateral contract to be liquidated.",
          "cEther": "The borrowed CEther contract to repay.",
          "exchangeProfitTo": "If set to an address other than `cErc20Collateral`, exchange seized collateral to this ERC20 token contract address (or the zero address for ETH).",
          "minProfitAmount": "The minimum amount of profit required for execution (in terms of `exchangeProfitTo`). Reverts if this condition is not met.",
          "redemptionStrategies": "The IRedemptionStrategy contracts to use, if any, to redeem \"special\" collateral tokens (before swapping the output for borrowed tokens to be repaid via Uniswap).",
          "repayAmount": "The ETH amount to repay to liquidate the unhealthy loan.",
          "strategyData": "The data for the chosen IRedemptionStrategy contracts, if any.",
          "uniswapV2RouterForCollateral": "The UniswapV2Router to use to convert the underlying collateral to ETH."
        }
      },
      "safeLiquidateToTokensWithFlashLoan(address,uint256,address,address,uint256,address,address,address,address[],bytes[],uint256)": {
        "params": {
          "borrower": "The borrower's Ethereum address.",
          "cErc20": "The borrowed CErc20 contract to repay.",
          "cTokenCollateral": "The cToken collateral contract to be liquidated.",
          "exchangeProfitTo": "If set to an address other than `cTokenCollateral`, exchange seized collateral to this ERC20 token contract address (or the zero address for ETH).",
          "minProfitAmount": "The minimum amount of profit required for execution (in terms of `exchangeProfitTo`). Reverts if this condition is not met.",
          "redemptionStrategies": "The IRedemptionStrategy contracts to use, if any, to redeem \"special\" collateral tokens (before swapping the output for borrowed tokens to be repaid via Uniswap).",
          "repayAmount": "The amount to repay to liquidate the unhealthy loan.",
          "strategyData": "The data for the chosen IRedemptionStrategy contracts, if any.",
          "uniswapV2RouterForBorrow": "The UniswapV2Router to use to convert the ETH to the underlying borrow (and flashloan the underlying borrow for ETH).",
          "uniswapV2RouterForCollateral": "The UniswapV2Router to use to convert the underlying collateral to ETH."
        }
      },
      "uniswapV2Call(address,uint256,uint256,bytes)": {
        "details": "Callback function for Uniswap flashloans."
      }
    },
    "stateVariables": {
      "UNISWAP_V2_ROUTER_02": {
        "details": "UniswapV2Router02 contract object."
      },
      "UNISWAP_V2_ROUTER_02_ADDRESS": {
        "details": "UniswapV2Router02 contract address."
      },
      "WETH": {
        "details": "WETH contract object."
      },
      "WETH_ADDRESS": {
        "details": "WETH contract address."
      },
      "_liquidatorProfitExchangeSource": {
        "details": "Cached liquidator profit exchange source. ERC20 token address or the zero address for ETH. For use in `safeLiquidateToTokensWithFlashLoan`/`safeLiquidateToEthWithFlashLoan` after it is set by `postFlashLoanTokens`/`postFlashLoanWeth`."
      }
    },
    "title": "FuseSafeLiquidator",
    "version": 1
  },
  "userdoc": {
    "kind": "user",
    "methods": {
      "safeLiquidate(address,address,address,uint256,address,address,address[],bytes[])": {
        "notice": "Safely liquidate an unhealthy loan (using capital from the sender), confirming that at least `minOutputAmount` in collateral is seized (or outputted by exchange if applicable). "
      },
      "safeLiquidate(address,uint256,address,address,uint256,address,address,address[],bytes[])": {
        "notice": "Safely liquidate an unhealthy loan (using capital from the sender), confirming that at least `minOutputAmount` in collateral is seized (or outputted by exchange if applicable). "
      },
      "safeLiquidateToEthWithFlashLoan(address,uint256,address,address,uint256,address,address,address[],bytes[],uint256)": {
        "notice": "Safely liquidate an unhealthy loan, confirming that at least `minProfitAmount` in ETH profit is seized. "
      },
      "safeLiquidateToTokensWithFlashLoan(address,uint256,address,address,uint256,address,address,address,address[],bytes[],uint256)": {
        "notice": "Safely liquidate an unhealthy loan, confirming that at least `minProfitAmount` in ETH profit is seized. "
      }
    },
    "notice": "FuseSafeLiquidator safely liquidates unhealthy borrowers (with flashloan support).",
    "version": 1
  },
  "storageLayout": {
    "storage": [
      {
        "astId": 572,
        "contract": "contracts/FuseSafeLiquidator.sol:FuseSafeLiquidator",
        "label": "_initialized",
        "offset": 0,
        "slot": "0",
        "type": "t_bool"
      },
      {
        "astId": 575,
        "contract": "contracts/FuseSafeLiquidator.sol:FuseSafeLiquidator",
        "label": "_initializing",
        "offset": 1,
        "slot": "0",
        "type": "t_bool"
      },
      {
        "astId": 8275,
        "contract": "contracts/FuseSafeLiquidator.sol:FuseSafeLiquidator",
        "label": "_liquidatorProfitExchangeSource",
        "offset": 2,
        "slot": "0",
        "type": "t_address"
      }
    ],
    "types": {
      "t_address": {
        "encoding": "inplace",
        "label": "address",
        "numberOfBytes": "20"
      },
      "t_bool": {
        "encoding": "inplace",
        "label": "bool",
        "numberOfBytes": "1"
      }
    }
  }
}