{
  "address": "0xDdb96b7c600Faa3Ce11EE4198E3b416f1b93a4f7",
  "abi": [
    {
      "anonymous": false,
      "inputs": [
        {
          "indexed": false,
          "internalType": "address",
          "name": "instance",
          "type": "address"
        }
      ],
      "name": "Deployed",
      "type": "event"
    },
    {
      "inputs": [
        {
          "internalType": "address",
          "name": "master",
          "type": "address"
        },
        {
          "internalType": "bytes",
          "name": "initializer",
          "type": "bytes"
        }
      ],
      "name": "clone",
      "outputs": [
        {
          "internalType": "address",
          "name": "instance",
          "type": "address"
        }
      ],
      "stateMutability": "nonpayable",
      "type": "function"
    }
  ],
  "transactionHash": "0xf214d2aaaa44ab64ddf19e46acd6ab862e1987cfe2614f48c91a1066c736d6d7",
  "args": [],
  "numDeployments": 1,
  "solcInputHash": "51f1c05c9f9b347984df55dd1073d0a8",
  "bytecode": "0x608060405234801561001057600080fd5b506104c1806100206000396000f3fe608060405234801561001057600080fd5b506004361061002b5760003560e01c80630fbe133c14610030575b600080fd5b6100e66004803603604081101561004657600080fd5b6001600160a01b03823516919081019060408101602082013564010000000081111561007157600080fd5b82018360208201111561008357600080fd5b803590602001918460018302840111640100000000831117156100a557600080fd5b91908080601f016020809104026020016040519081016040528093929190818152602001838380828437600092019190915250929550610102945050505050565b604080516001600160a01b039092168252519081900360200190f35b600061010d836101a5565b9050610162826040518060400160405280601b81526020017f4661696c656420746f20696e697469616c697a6520636c6f6e652e0000000000815250836001600160a01b03166102479092919063ffffffff16565b50604080516001600160a01b038316815290517ff40fcec21964ffb566044d083b4073f29f7f7929110ea19e1b3ebe375d89055e9181900360200190a192915050565b6000604051733d602d80600a3d3981f3363d3d373d3d3d363d7360601b81528260601b60148201526e5af43d82803e903d91602b57fd5bf360881b60288201526037816000f09150506001600160a01b038116610242576040805162461bcd60e51b8152602060048201526016602482015275115490cc4c4d8dce8818dc99585d194819985a5b195960521b604482015290519081900360640190fd5b919050565b60606102568484600085610260565b90505b9392505050565b6060824710156102a15760405162461bcd60e51b81526004018080602001828103825260268152602001806104666026913960400191505060405180910390fd5b6102aa856103bb565b6102fb576040805162461bcd60e51b815260206004820152601d60248201527f416464726573733a2063616c6c20746f206e6f6e2d636f6e7472616374000000604482015290519081900360640190fd5b600080866001600160a01b031685876040518082805190602001908083835b602083106103395780518252601f19909201916020918201910161031a565b6001836020036101000a03801982511681845116808217855250505050505090500191505060006040518083038185875af1925050503d806000811461039b576040519150601f19603f3d011682016040523d82523d6000602084013e6103a0565b606091505b50915091506103b08282866103c1565b979650505050505050565b3b151590565b606083156103d0575081610259565b8251156103e05782518084602001fd5b8160405162461bcd60e51b81526004018080602001828103825283818151815260200191508051906020019080838360005b8381101561042a578181015183820152602001610412565b50505050905090810190601f1680156104575780820380516001836020036101000a031916815260200191505b509250505060405180910390fdfe416464726573733a20696e73756666696369656e742062616c616e636520666f722063616c6ca264697066735822122092079fce753f303c394d114bc1dd517bb6fd76655e58ffc7dd6df12f47d6c3f064736f6c63430007060033",
  "devdoc": {
    "author": "David Lucid <david@rari.capital> (https://github.com/davidlucid)",
    "events": {
      "Deployed(address)": {
        "details": "Event emitted when a clone is deployed."
      }
    },
    "kind": "dev",
    "methods": {
      "clone(address,bytes)": {
        "details": "Deploys, initializes, and returns the address of a clone that mimics the behaviour of `master`."
      }
    },
    "title": "InitializableClones",
    "version": 1
  },
  "userdoc": {
    "kind": "user",
    "methods": {},
    "notice": "Deploys minimal proxy contracts (known as \"clones\") and initializes them.",
    "version": 1
  },
  "storageLayout": {
    "storage": [],
    "types": null
  }
}