{
  "address": "0x9C9051d74AFAdE358444989C96afA1BC150D97d4",
  "abi": [
    {
      "inputs": [
        {
          "internalType": "uint256",
          "name": "_maxSecondsBeforePriceIsStale",
          "type": "uint256"
        }
      ],
      "stateMutability": "nonpayable",
      "type": "constructor"
    },
    {
      "inputs": [],
      "name": "BTC_ETH_PRICE_FEED",
      "outputs": [
        {
          "internalType": "contract AggregatorV3Interface",
          "name": "",
          "type": "address"
        }
      ],
      "stateMutability": "view",
      "type": "function"
    },
    {
      "inputs": [],
      "name": "ETH_USD_PRICE_FEED",
      "outputs": [
        {
          "internalType": "contract AggregatorV3Interface",
          "name": "",
          "type": "address"
        }
      ],
      "stateMutability": "view",
      "type": "function"
    },
    {
      "inputs": [
        {
          "internalType": "address",
          "name": "",
          "type": "address"
        }
      ],
      "name": "btcPriceFeeds",
      "outputs": [
        {
          "internalType": "contract AggregatorV3Interface",
          "name": "",
          "type": "address"
        }
      ],
      "stateMutability": "view",
      "type": "function"
    },
    {
      "inputs": [
        {
          "internalType": "address",
          "name": "",
          "type": "address"
        }
      ],
      "name": "ethPriceFeeds",
      "outputs": [
        {
          "internalType": "contract AggregatorV3Interface",
          "name": "",
          "type": "address"
        }
      ],
      "stateMutability": "view",
      "type": "function"
    },
    {
      "inputs": [
        {
          "internalType": "contract ICToken",
          "name": "cToken",
          "type": "address"
        }
      ],
      "name": "getUnderlyingPrice",
      "outputs": [
        {
          "internalType": "uint256",
          "name": "",
          "type": "uint256"
        }
      ],
      "stateMutability": "view",
      "type": "function"
    },
    {
      "inputs": [
        {
          "internalType": "address",
          "name": "underlying",
          "type": "address"
        }
      ],
      "name": "hasPriceFeed",
      "outputs": [
        {
          "internalType": "bool",
          "name": "",
          "type": "bool"
        }
      ],
      "stateMutability": "view",
      "type": "function"
    },
    {
      "inputs": [],
      "name": "maxSecondsBeforePriceIsStale",
      "outputs": [
        {
          "internalType": "uint256",
          "name": "",
          "type": "uint256"
        }
      ],
      "stateMutability": "view",
      "type": "function"
    },
    {
      "inputs": [
        {
          "internalType": "address",
          "name": "underlying",
          "type": "address"
        }
      ],
      "name": "price",
      "outputs": [
        {
          "internalType": "uint256",
          "name": "",
          "type": "uint256"
        }
      ],
      "stateMutability": "view",
      "type": "function"
    },
    {
      "inputs": [
        {
          "internalType": "address",
          "name": "",
          "type": "address"
        }
      ],
      "name": "usdPriceFeeds",
      "outputs": [
        {
          "internalType": "contract AggregatorV3Interface",
          "name": "",
          "type": "address"
        }
      ],
      "stateMutability": "view",
      "type": "function"
    }
  ],
  "transactionHash": "0x5dc66bb889cf5f22e2403c779d6e41cdfb9e5dce90e228d8386f8589e8d51fb7",
  "args": [
    100
  ],
  "solcInputHash": "f7b1f2c0198a0fc30d3000710310a520",
  "bytecode": "0x608060405234801561001057600080fd5b506040516106803803806106808339818101604052602081101561003357600080fd5b5051600355610639806100476000396000f3fe608060405234801561001057600080fd5b50600436106100935760003560e01c8063b0f0abe911610066578063b0f0abe914610172578063cf0b06131461017a578063e073a24114610182578063f0e0626f1461018a578063fc57d4df146101b057610093565b80630b7983a2146100985780631c5ed620146100d257806336bfdf7214610114578063aea910781461013a575b600080fd5b6100be600480360360208110156100ae57600080fd5b50356001600160a01b03166101d6565b604080519115158252519081900360200190f35b6100f8600480360360208110156100e857600080fd5b50356001600160a01b03166101de565b604080516001600160a01b039092168252519081900360200190f35b6100f86004803603602081101561012a57600080fd5b50356001600160a01b03166101f9565b6101606004803603602081101561015057600080fd5b50356001600160a01b0316610214565b60408051918252519081900360200190f35b6100f8610225565b6100f861023d565b610160610255565b6100f8600480360360208110156101a057600080fd5b50356001600160a01b031661025b565b610160600480360360208110156101c657600080fd5b50356001600160a01b0316610276565b60015b919050565b6000602081905290815260409020546001600160a01b031681565b6002602052600090815260409020546001600160a01b031681565b600061021f8261040c565b92915050565b735f4ec3df9cbd43714fe2740f5e3616155c5b841981565b73deb288f737066589598e9214e782fa5a8ed689e881565b60035481565b6001602052600090815260409020546001600160a01b031681565b6000816001600160a01b031663ac784ddc6040518163ffffffff1660e01b815260040160206040518083038186803b1580156102b157600080fd5b505afa1580156102c5573d6000803e3d6000fd5b505050506040513d60208110156102db57600080fd5b5051156102f15750670de0b6b3a76400006101d9565b6000826001600160a01b0316636f307dc36040518163ffffffff1660e01b815260040160206040518083038186803b15801561032c57600080fd5b505afa158015610340573d6000803e3d6000fd5b505050506040513d602081101561035657600080fd5b5051905060006103658261040c565b90506000826001600160a01b031663313ce5676040518163ffffffff1660e01b815260040160206040518083038186803b1580156103a257600080fd5b505afa1580156103b6573d6000803e3d6000fd5b505050506040513d60208110156103cc57600080fd5b505160ff16905060128111156103f2576103ed826011198301600a0a61047f565b610403565b610403826012839003600a0a6104e6565b95945050505050565b600073c02aaa39b223fe8d0a0e5c4f27ead9083c756cc26001600160a01b03831614156104425750670de0b6b3a76400006101d9565b6001600061044e610546565b90506104598161057d565b610477670de0b6b3a7640000610471838186846104e6565b9061047f565b949350505050565b60008082116104d5576040805162461bcd60e51b815260206004820152601a60248201527f536166654d6174683a206469766973696f6e206279207a65726f000000000000604482015290519081900360640190fd5b8183816104de57fe5b049392505050565b6000826104f55750600061021f565b8282028284828161050257fe5b041461053f5760405162461bcd60e51b81526004018080602001828103825260218152602001806105e36021913960400191505060405180910390fd5b9392505050565b60408051426020808301919091523360601b8284015282516034818403018152605490920190925280519101206063900660010190565b6040805160248082018490528251808303909101815260449091019091526020810180516001600160e01b031663f5b1bba960e01b1790526105be906105c1565b50565b80516a636f6e736f6c652e6c6f67602083016000808483855afa505050505056fe536166654d6174683a206d756c7469706c69636174696f6e206f766572666c6f77a2646970667358221220cb79e28e7e71e07af175ee0591f28db76974afd49d1deb53089b06f19cfdc08a64736f6c63430007060033",
  "devdoc": {
    "author": "Carlo Mazzaferro <carlo.mazzaferro@gmail.com> (https://github.com/carlomazzaferro)",
    "details": "Implements `PriceOracle`.",
    "kind": "dev",
    "methods": {
      "constructor": {
        "details": "Constructor to set `maxSecondsBeforePriceIsStale` as well as all Chainlink price feeds."
      },
      "getUnderlyingPrice(address)": {
        "details": "Implements the `PriceOracle` interface for Fuse pools (and Compound v2).",
        "returns": {
          "_0": "Price in ETH of the token underlying `cToken`, scaled by `10 ** (36 - underlyingDecimals)`."
        }
      },
      "hasPriceFeed(address)": {
        "details": "Returns a boolean indicating if a price feed exists for the underlying asset."
      },
      "price(address)": {
        "details": "Returns the price in ETH of `underlying` (implements `BasePriceOracle`)."
      }
    },
    "title": "MockPriceOracle",
    "version": 1
  },
  "userdoc": {
    "kind": "user",
    "methods": {
      "BTC_ETH_PRICE_FEED()": {
        "notice": "Chainlink BTC/ETH price feed contracts."
      },
      "ETH_USD_PRICE_FEED()": {
        "notice": "Chainlink ETH/USD price feed contracts."
      },
      "btcPriceFeeds(address)": {
        "notice": "Maps ERC20 token addresses to BTC-based Chainlink price feed contracts."
      },
      "ethPriceFeeds(address)": {
        "notice": "Maps ERC20 token addresses to ETH-based Chainlink price feed contracts."
      },
      "getUnderlyingPrice(address)": {
        "notice": "Returns the price in ETH of the token underlying `cToken`."
      },
      "maxSecondsBeforePriceIsStale()": {
        "notice": "The maxmimum number of seconds elapsed since the round was last updated before the price is considered stale. If set to 0, no limit is enforced."
      },
      "usdPriceFeeds(address)": {
        "notice": "Maps ERC20 token addresses to USD-based Chainlink price feed contracts."
      }
    },
    "notice": "Returns mocked prices from a Chainlink-like oracle. Used for local dev only",
    "version": 1
  },
  "storageLayout": {
    "storage": [
      {
        "astId": 43679,
        "contract": "contracts/oracles/MockPriceOracle.sol:MockPriceOracle",
        "label": "ethPriceFeeds",
        "offset": 0,
        "slot": "0",
        "type": "t_mapping(t_address,t_contract(AggregatorV3Interface)31219)"
      },
      {
        "astId": 43684,
        "contract": "contracts/oracles/MockPriceOracle.sol:MockPriceOracle",
        "label": "usdPriceFeeds",
        "offset": 0,
        "slot": "1",
        "type": "t_mapping(t_address,t_contract(AggregatorV3Interface)31219)"
      },
      {
        "astId": 43689,
        "contract": "contracts/oracles/MockPriceOracle.sol:MockPriceOracle",
        "label": "btcPriceFeeds",
        "offset": 0,
        "slot": "2",
        "type": "t_mapping(t_address,t_contract(AggregatorV3Interface)31219)"
      },
      {
        "astId": 43704,
        "contract": "contracts/oracles/MockPriceOracle.sol:MockPriceOracle",
        "label": "maxSecondsBeforePriceIsStale",
        "offset": 0,
        "slot": "3",
        "type": "t_uint256"
      }
    ],
    "types": {
      "t_address": {
        "encoding": "inplace",
        "label": "address",
        "numberOfBytes": "20"
      },
      "t_contract(AggregatorV3Interface)31219": {
        "encoding": "inplace",
        "label": "contract AggregatorV3Interface",
        "numberOfBytes": "20"
      },
      "t_mapping(t_address,t_contract(AggregatorV3Interface)31219)": {
        "encoding": "mapping",
        "key": "t_address",
        "label": "mapping(address => contract AggregatorV3Interface)",
        "numberOfBytes": "32",
        "value": "t_contract(AggregatorV3Interface)31219"
      },
      "t_uint256": {
        "encoding": "inplace",
        "label": "uint256",
        "numberOfBytes": "32"
      }
    }
  }
}