{
  "address": "0xe01e277d63a817Ce44Cda11c352BcFB2029D1076",
  "abi": [
    {
      "anonymous": false,
      "inputs": [
        {
          "indexed": true,
          "internalType": "contract CToken",
          "name": "cToken",
          "type": "address"
        },
        {
          "indexed": false,
          "internalType": "uint256",
          "name": "newSpeed",
          "type": "uint256"
        }
      ],
      "name": "CompBorrowSpeedUpdated",
      "type": "event"
    },
    {
      "anonymous": false,
      "inputs": [
        {
          "indexed": false,
          "internalType": "address",
          "name": "recipient",
          "type": "address"
        },
        {
          "indexed": false,
          "internalType": "uint256",
          "name": "amount",
          "type": "uint256"
        }
      ],
      "name": "CompGranted",
      "type": "event"
    },
    {
      "anonymous": false,
      "inputs": [
        {
          "indexed": true,
          "internalType": "contract CToken",
          "name": "cToken",
          "type": "address"
        },
        {
          "indexed": false,
          "internalType": "uint256",
          "name": "newSpeed",
          "type": "uint256"
        }
      ],
      "name": "CompSupplySpeedUpdated",
      "type": "event"
    },
    {
      "anonymous": false,
      "inputs": [
        {
          "indexed": true,
          "internalType": "address",
          "name": "contributor",
          "type": "address"
        },
        {
          "indexed": false,
          "internalType": "uint256",
          "name": "newSpeed",
          "type": "uint256"
        }
      ],
      "name": "ContributorCompSpeedUpdated",
      "type": "event"
    },
    {
      "anonymous": false,
      "inputs": [
        {
          "indexed": true,
          "internalType": "contract CToken",
          "name": "cToken",
          "type": "address"
        },
        {
          "indexed": true,
          "internalType": "address",
          "name": "borrower",
          "type": "address"
        },
        {
          "indexed": false,
          "internalType": "uint256",
          "name": "compDelta",
          "type": "uint256"
        },
        {
          "indexed": false,
          "internalType": "uint256",
          "name": "compBorrowIndex",
          "type": "uint256"
        }
      ],
      "name": "DistributedBorrowerComp",
      "type": "event"
    },
    {
      "anonymous": false,
      "inputs": [
        {
          "indexed": true,
          "internalType": "contract CToken",
          "name": "cToken",
          "type": "address"
        },
        {
          "indexed": true,
          "internalType": "address",
          "name": "supplier",
          "type": "address"
        },
        {
          "indexed": false,
          "internalType": "uint256",
          "name": "compDelta",
          "type": "uint256"
        },
        {
          "indexed": false,
          "internalType": "uint256",
          "name": "compSupplyIndex",
          "type": "uint256"
        }
      ],
      "name": "DistributedSupplierComp",
      "type": "event"
    },
    {
      "anonymous": false,
      "inputs": [
        {
          "indexed": false,
          "internalType": "address",
          "name": "oldAdmin",
          "type": "address"
        },
        {
          "indexed": false,
          "internalType": "address",
          "name": "newAdmin",
          "type": "address"
        }
      ],
      "name": "NewAdmin",
      "type": "event"
    },
    {
      "anonymous": false,
      "inputs": [
        {
          "indexed": false,
          "internalType": "address",
          "name": "oldPendingAdmin",
          "type": "address"
        },
        {
          "indexed": false,
          "internalType": "address",
          "name": "newPendingAdmin",
          "type": "address"
        }
      ],
      "name": "NewPendingAdmin",
      "type": "event"
    },
    {
      "inputs": [],
      "name": "_acceptAdmin",
      "outputs": [],
      "stateMutability": "nonpayable",
      "type": "function"
    },
    {
      "inputs": [
        {
          "internalType": "address",
          "name": "recipient",
          "type": "address"
        },
        {
          "internalType": "uint256",
          "name": "amount",
          "type": "uint256"
        }
      ],
      "name": "_grantComp",
      "outputs": [],
      "stateMutability": "nonpayable",
      "type": "function"
    },
    {
      "inputs": [
        {
          "internalType": "contract CToken",
          "name": "cToken",
          "type": "address"
        },
        {
          "internalType": "uint256",
          "name": "compSpeed",
          "type": "uint256"
        }
      ],
      "name": "_setCompBorrowSpeed",
      "outputs": [],
      "stateMutability": "nonpayable",
      "type": "function"
    },
    {
      "inputs": [
        {
          "internalType": "contract CToken[]",
          "name": "cTokens",
          "type": "address[]"
        },
        {
          "internalType": "uint256[]",
          "name": "supplySpeeds",
          "type": "uint256[]"
        },
        {
          "internalType": "uint256[]",
          "name": "borrowSpeeds",
          "type": "uint256[]"
        }
      ],
      "name": "_setCompSpeeds",
      "outputs": [],
      "stateMutability": "nonpayable",
      "type": "function"
    },
    {
      "inputs": [
        {
          "internalType": "contract CToken",
          "name": "cToken",
          "type": "address"
        },
        {
          "internalType": "uint256",
          "name": "compSpeed",
          "type": "uint256"
        }
      ],
      "name": "_setCompSupplySpeed",
      "outputs": [],
      "stateMutability": "nonpayable",
      "type": "function"
    },
    {
      "inputs": [
        {
          "internalType": "address",
          "name": "contributor",
          "type": "address"
        },
        {
          "internalType": "uint256",
          "name": "compSpeed",
          "type": "uint256"
        }
      ],
      "name": "_setContributorCompSpeed",
      "outputs": [],
      "stateMutability": "nonpayable",
      "type": "function"
    },
    {
      "inputs": [
        {
          "internalType": "address",
          "name": "newPendingAdmin",
          "type": "address"
        }
      ],
      "name": "_setPendingAdmin",
      "outputs": [],
      "stateMutability": "nonpayable",
      "type": "function"
    },
    {
      "inputs": [],
      "name": "admin",
      "outputs": [
        {
          "internalType": "address",
          "name": "",
          "type": "address"
        }
      ],
      "stateMutability": "view",
      "type": "function"
    },
    {
      "inputs": [
        {
          "internalType": "uint256",
          "name": "",
          "type": "uint256"
        }
      ],
      "name": "allMarkets",
      "outputs": [
        {
          "internalType": "contract CToken",
          "name": "",
          "type": "address"
        }
      ],
      "stateMutability": "view",
      "type": "function"
    },
    {
      "inputs": [
        {
          "internalType": "address",
          "name": "holder",
          "type": "address"
        },
        {
          "internalType": "contract CToken[]",
          "name": "cTokens",
          "type": "address[]"
        }
      ],
      "name": "claimRewards",
      "outputs": [],
      "stateMutability": "nonpayable",
      "type": "function"
    },
    {
      "inputs": [
        {
          "internalType": "address[]",
          "name": "holders",
          "type": "address[]"
        },
        {
          "internalType": "contract CToken[]",
          "name": "cTokens",
          "type": "address[]"
        },
        {
          "internalType": "bool",
          "name": "borrowers",
          "type": "bool"
        },
        {
          "internalType": "bool",
          "name": "suppliers",
          "type": "bool"
        }
      ],
      "name": "claimRewards",
      "outputs": [],
      "stateMutability": "nonpayable",
      "type": "function"
    },
    {
      "inputs": [
        {
          "internalType": "address",
          "name": "holder",
          "type": "address"
        }
      ],
      "name": "claimRewards",
      "outputs": [],
      "stateMutability": "nonpayable",
      "type": "function"
    },
    {
      "inputs": [
        {
          "internalType": "address",
          "name": "",
          "type": "address"
        }
      ],
      "name": "compAccrued",
      "outputs": [
        {
          "internalType": "uint256",
          "name": "",
          "type": "uint256"
        }
      ],
      "stateMutability": "view",
      "type": "function"
    },
    {
      "inputs": [
        {
          "internalType": "address",
          "name": "",
          "type": "address"
        }
      ],
      "name": "compBorrowSpeeds",
      "outputs": [
        {
          "internalType": "uint256",
          "name": "",
          "type": "uint256"
        }
      ],
      "stateMutability": "view",
      "type": "function"
    },
    {
      "inputs": [
        {
          "internalType": "address",
          "name": "",
          "type": "address"
        }
      ],
      "name": "compBorrowState",
      "outputs": [
        {
          "internalType": "uint224",
          "name": "index",
          "type": "uint224"
        },
        {
          "internalType": "uint32",
          "name": "block",
          "type": "uint32"
        }
      ],
      "stateMutability": "view",
      "type": "function"
    },
    {
      "inputs": [
        {
          "internalType": "address",
          "name": "",
          "type": "address"
        },
        {
          "internalType": "address",
          "name": "",
          "type": "address"
        }
      ],
      "name": "compBorrowerIndex",
      "outputs": [
        {
          "internalType": "uint256",
          "name": "",
          "type": "uint256"
        }
      ],
      "stateMutability": "view",
      "type": "function"
    },
    {
      "inputs": [
        {
          "internalType": "address",
          "name": "",
          "type": "address"
        }
      ],
      "name": "compContributorSpeeds",
      "outputs": [
        {
          "internalType": "uint256",
          "name": "",
          "type": "uint256"
        }
      ],
      "stateMutability": "view",
      "type": "function"
    },
    {
      "inputs": [],
      "name": "compInitialIndex",
      "outputs": [
        {
          "internalType": "uint224",
          "name": "",
          "type": "uint224"
        }
      ],
      "stateMutability": "view",
      "type": "function"
    },
    {
      "inputs": [
        {
          "internalType": "address",
          "name": "",
          "type": "address"
        },
        {
          "internalType": "address",
          "name": "",
          "type": "address"
        }
      ],
      "name": "compSupplierIndex",
      "outputs": [
        {
          "internalType": "uint256",
          "name": "",
          "type": "uint256"
        }
      ],
      "stateMutability": "view",
      "type": "function"
    },
    {
      "inputs": [
        {
          "internalType": "address",
          "name": "",
          "type": "address"
        }
      ],
      "name": "compSupplySpeeds",
      "outputs": [
        {
          "internalType": "uint256",
          "name": "",
          "type": "uint256"
        }
      ],
      "stateMutability": "view",
      "type": "function"
    },
    {
      "inputs": [
        {
          "internalType": "address",
          "name": "",
          "type": "address"
        }
      ],
      "name": "compSupplyState",
      "outputs": [
        {
          "internalType": "uint224",
          "name": "index",
          "type": "uint224"
        },
        {
          "internalType": "uint32",
          "name": "block",
          "type": "uint32"
        }
      ],
      "stateMutability": "view",
      "type": "function"
    },
    {
      "inputs": [
        {
          "internalType": "address",
          "name": "cToken",
          "type": "address"
        },
        {
          "internalType": "address",
          "name": "borrower",
          "type": "address"
        }
      ],
      "name": "flywheelPreBorrowerAction",
      "outputs": [],
      "stateMutability": "nonpayable",
      "type": "function"
    },
    {
      "inputs": [
        {
          "internalType": "address",
          "name": "cToken",
          "type": "address"
        },
        {
          "internalType": "address",
          "name": "supplier",
          "type": "address"
        }
      ],
      "name": "flywheelPreSupplierAction",
      "outputs": [],
      "stateMutability": "nonpayable",
      "type": "function"
    },
    {
      "inputs": [
        {
          "internalType": "address",
          "name": "cToken",
          "type": "address"
        },
        {
          "internalType": "address",
          "name": "src",
          "type": "address"
        },
        {
          "internalType": "address",
          "name": "dst",
          "type": "address"
        }
      ],
      "name": "flywheelPreTransferAction",
      "outputs": [],
      "stateMutability": "nonpayable",
      "type": "function"
    },
    {
      "inputs": [],
      "name": "getAllMarkets",
      "outputs": [
        {
          "internalType": "contract CToken[]",
          "name": "",
          "type": "address[]"
        }
      ],
      "stateMutability": "view",
      "type": "function"
    },
    {
      "inputs": [],
      "name": "getBlockNumber",
      "outputs": [
        {
          "internalType": "uint256",
          "name": "",
          "type": "uint256"
        }
      ],
      "stateMutability": "view",
      "type": "function"
    },
    {
      "inputs": [],
      "name": "implementation",
      "outputs": [
        {
          "internalType": "address",
          "name": "",
          "type": "address"
        }
      ],
      "stateMutability": "view",
      "type": "function"
    },
    {
      "inputs": [
        {
          "internalType": "address",
          "name": "_rewardToken",
          "type": "address"
        }
      ],
      "name": "initialize",
      "outputs": [],
      "stateMutability": "nonpayable",
      "type": "function"
    },
    {
      "inputs": [],
      "name": "isRewardsDistributor",
      "outputs": [
        {
          "internalType": "bool",
          "name": "",
          "type": "bool"
        }
      ],
      "stateMutability": "view",
      "type": "function"
    },
    {
      "inputs": [
        {
          "internalType": "address",
          "name": "",
          "type": "address"
        }
      ],
      "name": "lastContributorBlock",
      "outputs": [
        {
          "internalType": "uint256",
          "name": "",
          "type": "uint256"
        }
      ],
      "stateMutability": "view",
      "type": "function"
    },
    {
      "inputs": [],
      "name": "pendingAdmin",
      "outputs": [
        {
          "internalType": "address",
          "name": "",
          "type": "address"
        }
      ],
      "stateMutability": "view",
      "type": "function"
    },
    {
      "inputs": [],
      "name": "rewardToken",
      "outputs": [
        {
          "internalType": "address",
          "name": "",
          "type": "address"
        }
      ],
      "stateMutability": "view",
      "type": "function"
    },
    {
      "inputs": [
        {
          "internalType": "address",
          "name": "contributor",
          "type": "address"
        }
      ],
      "name": "updateContributorRewards",
      "outputs": [],
      "stateMutability": "nonpayable",
      "type": "function"
    }
  ],
  "transactionHash": "0xa6fabe58a3075b29592085045b16c016c43775b8c3a1598e908baabd12cd6679",
  "args": [],
  "numDeployments": 1,
  "solcInputHash": "4f131d22d6af29f5db33d6d82d95eb6c",
  "bytecode": "0x608060405234801561001057600080fd5b50612d75806100206000396000f3fe608060405234801561001057600080fd5b50600436106101fb5760003560e01c8063a7f0e2311161011a578063ca0af043116100ad578063e9c714f21161007c578063e9c714f21461099d578063ef5cfb8c146109a5578063f4a433c0146109cb578063f7c618c1146109f1578063f851a440146109f9576101fb565b8063ca0af043146108ef578063cc7ebdc41461091d578063e3af317b14610943578063e6e162e81461096f576101fb565b8063b21be7fd116100e9578063b21be7fd1461084f578063b71d1a0c1461087d578063bea6b8b8146108a3578063c4d66de8146108c9576101fb565b8063a7f0e23114610612578063a8b4394814610636578063abc6d72d146107db578063b0772d0b146107f7576101fb565b8063598ee1cb116101925780636b79c38d116101615780636b79c38d14610552578063741b2525146105a05780638c57804e146105c6578063986ab838146105ec576101fb565b8063598ee1cb146104cc5780635c60da1b146104f857806365999470146105005780636aa875b51461052c576101fb565b806342cbb15c116101ce57806342cbb15c146103315780634e081c951461034b57806352d84d1e1461038357806354eb76fa146103a0576101fb565b80631c9161e0146102005780632026ffa31461023057806326782247146102e157806327efe3cb14610305575b600080fd5b61022e6004803603604081101561021657600080fd5b506001600160a01b0381358116916020013516610a01565b005b61022e6004803603604081101561024657600080fd5b6001600160a01b038235169190810190604081016020820135600160201b81111561027057600080fd5b82018360208201111561028257600080fd5b803590602001918460208302840111600160201b831117156102a357600080fd5b919080806020026020016040519081016040528093929190818152602001838360200280828437600092019190915250929550610a3f945050505050565b6102e9610aa1565b604080516001600160a01b039092168252519081900360200190f35b61022e6004803603604081101561031b57600080fd5b506001600160a01b038135169060200135610ab0565b610339610bb9565b60408051918252519081900360200190f35b61022e6004803603606081101561036157600080fd5b506001600160a01b038135811691602081013582169160409091013516610bbd565b6102e96004803603602081101561039957600080fd5b5035610c01565b61022e600480360360808110156103b657600080fd5b810190602081018135600160201b8111156103d057600080fd5b8201836020820111156103e257600080fd5b803590602001918460208302840111600160201b8311171561040357600080fd5b9190808060200260200160405190810160405280939291908181526020018383602002808284376000920191909152509295949360208101935035915050600160201b81111561045257600080fd5b82018360208201111561046457600080fd5b803590602001918460208302840111600160201b8311171561048557600080fd5b919080806020026020016040519081016040528093929190818152602001838360200280828437600092019190915250929550505050803515159150602001351515610c2b565b61022e600480360360408110156104e257600080fd5b506001600160a01b038135169060200135610e5e565b6102e9610f4d565b61022e6004803603604081101561051657600080fd5b506001600160a01b038135169060200135610f5c565b6103396004803603602081101561054257600080fd5b50356001600160a01b0316610fb3565b6105786004803603602081101561056857600080fd5b50356001600160a01b0316610fc5565b604080516001600160e01b03909316835263ffffffff90911660208301528051918290030190f35b61022e600480360360208110156105b657600080fd5b50356001600160a01b0316610fef565b610578600480360360208110156105dc57600080fd5b50356001600160a01b03166110b3565b6103396004803603602081101561060257600080fd5b50356001600160a01b03166110dd565b61061a6110ef565b604080516001600160e01b039092168252519081900360200190f35b61022e6004803603606081101561064c57600080fd5b810190602081018135600160201b81111561066657600080fd5b82018360208201111561067857600080fd5b803590602001918460208302840111600160201b8311171561069957600080fd5b9190808060200260200160405190810160405280939291908181526020018383602002808284376000920191909152509295949360208101935035915050600160201b8111156106e857600080fd5b8201836020820111156106fa57600080fd5b803590602001918460208302840111600160201b8311171561071b57600080fd5b9190808060200260200160405190810160405280939291908181526020018383602002808284376000920191909152509295949360208101935035915050600160201b81111561076a57600080fd5b82018360208201111561077c57600080fd5b803590602001918460208302840111600160201b8311171561079d57600080fd5b919080806020026020016040519081016040528093929190818152602001838360200280828437600092019190915250929550611102945050505050565b6107e361120f565b604080519115158252519081900360200190f35b6107ff611214565b60408051602080825283518183015283519192839290830191858101910280838360005b8381101561083b578181015183820152602001610823565b505050509050019250505060405180910390f35b6103396004803603604081101561086557600080fd5b506001600160a01b0381358116916020013516611276565b61022e6004803603602081101561089357600080fd5b50356001600160a01b0316611293565b610339600480360360208110156108b957600080fd5b50356001600160a01b031661133f565b61022e600480360360208110156108df57600080fd5b50356001600160a01b0316611351565b6103396004803603604081101561090557600080fd5b506001600160a01b038135811691602001351661146c565b6103396004803603602081101561093357600080fd5b50356001600160a01b0316611489565b61022e6004803603604081101561095957600080fd5b506001600160a01b03813516906020013561149b565b61022e6004803603604081101561098557600080fd5b506001600160a01b03813581169160200135166114f2565b61022e6115a4565b61022e600480360360208110156109bb57600080fd5b50356001600160a01b03166116af565b610339600480360360208110156109e157600080fd5b50356001600160a01b0316611716565b6102e9611728565b6102e9611737565b6001600160a01b0382166000908152600760205260409020546001600160e01b031615610a3b57610a3182611746565b610a3b82826119d1565b5050565b604080516001808252818301909252600091602080830190803683370190505090508281600081518110610a6f57fe5b60200260200101906001600160a01b031690816001600160a01b031681525050610a9c8183600180610c2b565b505050565b6001546001600160a01b031681565b6000546001600160a01b03163314610b0f576040805162461bcd60e51b815260206004820152601960248201527f6f6e6c792061646d696e2063616e206772616e7420636f6d7000000000000000604482015290519081900360640190fd5b6000610b1b8383611b83565b90508015610b70576040805162461bcd60e51b815260206004820152601b60248201527f696e73756666696369656e7420636f6d7020666f72206772616e740000000000604482015290519081900360640190fd5b604080516001600160a01b03851681526020810184905281517f98b2f82a3a07f223a0be64b3d0f47711c64dccd1feafb94aa28156b38cd9695c929181900390910190a1505050565b4390565b6001600160a01b0383166000908152600760205260409020546001600160e01b031615610a9c57610bed83611746565b610bf783836119d1565b610a9c83826119d1565b60048181548110610c1157600080fd5b6000918252602090912001546001600160a01b0316905081565b60005b8351811015610db9576000848281518110610c4557fe5b6020026020010151905083151560011515148015610c8357506001600160a01b0381166000908152600860205260409020546001600160e01b031615155b15610d3d5760006040518060200160405280836001600160a01b031663aa5af0fd6040518163ffffffff1660e01b815260040160206040518083038186803b158015610cce57600080fd5b505afa158015610ce2573d6000803e3d6000fd5b505050506040513d6020811015610cf857600080fd5b505190529050610d088282611c9a565b60005b8751811015610d3a57610d3283898381518110610d2457fe5b602002602001015184611f30565b600101610d0b565b50505b6001831515148015610d6f57506001600160a01b0381166000908152600760205260409020546001600160e01b031615155b15610db057610d7d81611746565b60005b8651811015610dae57610da682888381518110610d9957fe5b60200260200101516119d1565b600101610d80565b505b50600101610c2e565b5060005b8451811015610e5757610e1b858281518110610dd557fe5b6020026020010151600b6000888581518110610ded57fe5b60200260200101516001600160a01b03166001600160a01b0316815260200190815260200160002054611b83565b600b6000878481518110610e2b57fe5b6020908102919091018101516001600160a01b0316825281019190915260400160002055600101610dbd565b5050505050565b6000546001600160a01b03163314610eab576040805162461bcd60e51b815260206004820152601d6024820152600080516020612cd0833981519152604482015290519081900360640190fd5b610eb482610fef565b80610ed7576001600160a01b0382166000908152600d6020526040812055610ef9565b610edf610bb9565b6001600160a01b0383166000908152600d60205260409020555b6001600160a01b0382166000818152600c6020908152604091829020849055815184815291517f386537fa92edc3319af95f1f904dcf1900021e4f3f4e08169a577a09076e66b39281900390910190a25050565b6002546001600160a01b031681565b6000546001600160a01b03163314610fa9576040805162461bcd60e51b815260206004820152601d6024820152600080516020612cd0833981519152604482015290519081900360640190fd5b610a3b828261209a565b60056020526000908152604090205481565b6007602052600090815260409020546001600160e01b03811690600160e01b900463ffffffff1682565b6001600160a01b0381166000908152600c602052604081205490611011610bb9565b6001600160a01b0384166000908152600d60205260408120549192509061103990839061232b565b905060008111801561104b5750600083115b156110ad57600061105c828561236c565b6001600160a01b0386166000908152600b60205260408120549192509061108390836123ae565b6001600160a01b0387166000908152600b6020908152604080832093909355600d90522084905550505b50505050565b6008602052600090815260409020546001600160e01b03811690600160e01b900463ffffffff1682565b600c6020526000908152604090205481565b6ec097ce7bc90715b34b9f100000000081565b6000546001600160a01b0316331461114f576040805162461bcd60e51b815260206004820152601d6024820152600080516020612cd0833981519152604482015290519081900360640190fd5b82518251811480156111615750815181145b61119c5760405162461bcd60e51b8152600401808060200182810382526030815260200180612cf06030913960400191505060405180910390fd5b60005b81811015610e57576111d78582815181106111b657fe5b60200260200101518583815181106111ca57fe5b60200260200101516123e4565b6112078582815181106111e657fe5b60200260200101518483815181106111fa57fe5b602002602001015161209a565b60010161119f565b600181565b6060600480548060200260200160405190810160405280929190818152602001828054801561126c57602002820191906000526020600020905b81546001600160a01b0316815260019091019060200180831161124e575b5050505050905090565b600960209081526000928352604080842090915290825290205481565b6000546001600160a01b031633146112dc5760405162461bcd60e51b815260040180806020018281038252602f815260200180612c3b602f913960400191505060405180910390fd5b600180546001600160a01b038381166001600160a01b0319831681179093556040805191909216808252602082019390935281517fca4f2f25d0898edd99413412fb94012f9e54ec8142f9b093e7720646a95b16a9929181900390910190a15050565b600d6020526000908152604090205481565b6000546001600160a01b031633146113b0576040805162461bcd60e51b815260206004820152601a60248201527f4f6e6c792061646d696e2063616e20696e697469616c697a652e000000000000604482015290519081900360640190fd5b6003546001600160a01b031615611405576040805162461bcd60e51b815260206004820152601460248201527320b63932b0b23c9034b734ba34b0b634bd32b21760611b604482015290519081900360640190fd5b6001600160a01b03811661144a5760405162461bcd60e51b8152600401808060200182810382526033815260200180612c9d6033913960400191505060405180910390fd5b600380546001600160a01b0319166001600160a01b0392909216919091179055565b600a60209081526000928352604080842090915290825290205481565b600b6020526000908152604090205481565b6000546001600160a01b031633146114e8576040805162461bcd60e51b815260206004820152601d6024820152600080516020612cd0833981519152604482015290519081900360640190fd5b610a3b82826123e4565b6001600160a01b0382166000908152600860205260409020546001600160e01b031615610a3b5760006040518060200160405280846001600160a01b031663aa5af0fd6040518163ffffffff1660e01b815260040160206040518083038186803b15801561155f57600080fd5b505afa158015611573573d6000803e3d6000fd5b505050506040513d602081101561158957600080fd5b5051905290506115998382611c9a565b610a9c838383611f30565b6001546001600160a01b0316331480156115bd57503315155b6115f85760405162461bcd60e51b8152600401808060200182810382526033815260200180612c6a6033913960400191505060405180910390fd5b60008054600180546001600160a01b038082166001600160a01b031980861682179687905590921690925560408051938316808552949092166020840152815190927ff9ffabca9c8276e99321725bcb43fb076a6c66a54b7f21c4e8146d8519b417dc92908290030190a1600154604080516001600160a01b038085168252909216602083015280517fca4f2f25d0898edd99413412fb94012f9e54ec8142f9b093e7720646a95b16a99281900390910190a15050565b61171381600480548060200260200160405190810160405280929190818152602001828054801561170957602002820191906000526020600020905b81546001600160a01b031681526001909101906020018083116116eb575b5050505050610a3f565b50565b60066020526000908152604090205481565b6003546001600160a01b031681565b6000546001600160a01b031681565b6001600160a01b038116600090815260076020908152604080832060059092528220549091611773610bb9565b8354909150600090611793908390600160e01b900463ffffffff1661232b565b90506000811180156117a55750600083115b15611960576000856001600160a01b03166318160ddd6040518163ffffffff1660e01b815260040160206040518083038186803b1580156117e557600080fd5b505afa1580156117f9573d6000803e3d6000fd5b505050506040513d602081101561180f57600080fd5b50519050600061181f838661236c565b9050600080831161183f5760405180602001604052806000815250611849565b61184982846125d3565b604080516020810190915288546001600160e01b031681529091506000906118719083612611565b905060405180604001604052806118c183600001516040518060400160405280601a81526020017f6e657720696e6465782065786365656473203232342062697473000000000000815250612636565b6001600160e01b031681526020016118fc886040518060400160405280601c8152602001600080516020612d208339815191528152506126d0565b63ffffffff9081169091526001600160a01b038b166000908152600760209081526040909120835181549490920151909216600160e01b026001600160e01b039182166001600160e01b0319909416939093171691909117905550610e5792505050565b600081118015611979575083546001600160e01b031615155b15610e57576119ab826040518060400160405280601c8152602001600080516020612d208339815191528152506126d0565b845463ffffffff91909116600160e01b026001600160e01b039091161784555050505050565b6001600160a01b0380831660008181526007602090815260408083208151808401835281546001600160e01b0316815282518085018452958552600984528285209688168086528785529285208054875281519390955295909252909155815190929190158015611a425750815115155b15611a5a576ec097ce7bc90715b34b9f100000000081525b6000611a668383612725565b90506000866001600160a01b03166370a08231876040518263ffffffff1660e01b815260040180826001600160a01b0316815260200191505060206040518083038186803b158015611ab757600080fd5b505afa158015611acb573d6000803e3d6000fd5b505050506040513d6020811015611ae157600080fd5b505190506000611af1828461274a565b6001600160a01b0388166000908152600b602052604081205491925090611b1890836123ae565b6001600160a01b03808a166000818152600b60209081526040918290208590558a5182518881529182015281519495509193928d16927f2caecd17d02f56fa897705dcc740da2d237c373f70686f4e0d9bd3bf0400ea7a9281900390910190a3505050505050505050565b600354604080516370a0823160e01b815230600482015290516000926001600160a01b031691839183916370a08231916024808301926020929190829003018186803b158015611bd257600080fd5b505afa158015611be6573d6000803e3d6000fd5b505050506040513d6020811015611bfc57600080fd5b505190508315801590611c0f5750808411155b15611c8e57816001600160a01b031663a9059cbb86866040518363ffffffff1660e01b815260040180836001600160a01b0316815260200182815260200192505050600060405180830381600087803b158015611c6b57600080fd5b505af1158015611c7f573d6000803e3d6000fd5b50505050600092505050611c94565b83925050505b92915050565b6001600160a01b038216600090815260086020908152604080832060069092528220549091611cc7610bb9565b8354909150600090611ce7908390600160e01b900463ffffffff1661232b565b9050600081118015611cf95750600083115b15611ebd576000611d6e876001600160a01b03166347bd37186040518163ffffffff1660e01b815260040160206040518083038186803b158015611d3c57600080fd5b505afa158015611d50573d6000803e3d6000fd5b505050506040513d6020811015611d6657600080fd5b505187612779565b90506000611d7c838661236c565b90506000808311611d9c5760405180602001604052806000815250611da6565b611da682846125d3565b604080516020810190915288546001600160e01b03168152909150600090611dce9083612611565b90506040518060400160405280611e1e83600001516040518060400160405280601a81526020017f6e657720696e6465782065786365656473203232342062697473000000000000815250612636565b6001600160e01b03168152602001611e59886040518060400160405280601c8152602001600080516020612d208339815191528152506126d0565b63ffffffff9081169091526001600160a01b038c166000908152600860209081526040909120835181549490920151909216600160e01b026001600160e01b039182166001600160e01b0319909416939093171691909117905550611f2892505050565b600081118015611ed6575083546001600160e01b031615155b15611f2857611f08826040518060400160405280601c8152602001600080516020612d208339815191528152506126d0565b845463ffffffff91909116600160e01b026001600160e01b039091161784555b505050505050565b6001600160a01b0380841660008181526008602090815260408083208151808401835281546001600160e01b0316815282518085018452958552600a8452828520968916808652878552928520805487528151939095529590925290915581519092919015611f28576000611fa58383612725565b90506000611ff9886001600160a01b03166395dd9193896040518263ffffffff1660e01b815260040180826001600160a01b0316815260200191505060206040518083038186803b158015611d3c57600080fd5b90506000612007828461274a565b6001600160a01b0389166000908152600b60205260408120549192509061202e90836123ae565b6001600160a01b03808b166000818152600b60209081526040918290208590558a5182518881529182015281519495509193928e16927f1fc3ecc087d8d2d15e23d0032af5a47059c3892d003d8e139fdcb6bb327c99a69281900390910190a350505050505050505050565b6001600160a01b038216600090815260066020526040902054801561213f5760006040518060200160405280856001600160a01b031663aa5af0fd6040518163ffffffff1660e01b815260040160206040518083038186803b1580156120ff57600080fd5b505afa158015612113573d6000803e3d6000fd5b505050506040513d602081101561212957600080fd5b5051905290506121398482611c9a565b506122cf565b81156122cf5761214e83612797565b6001600160a01b0383166000908152600860205260409020546001600160e01b03166122895760405180604001604052806ec097ce7bc90715b34b9f10000000006001600160e01b031681526020016121d16121a8610bb9565b6040518060400160405280601c8152602001600080516020612d208339815191528152506126d0565b63ffffffff9081169091526001600160a01b038516600090815260086020908152604080832085518154968401516001600160e01b03199097166001600160e01b03918216178116600160e01b9790961696909602949094179093556007905220541661228457600480546001810182556000919091527f8a35acfbc15ff81a39ae7d344fd709f28e8600b4aa8c65c6b64bfe7fe36bd19b0180546001600160a01b0319166001600160a01b0385161790555b6122cf565b6122946121a8610bb9565b6001600160a01b0384166000908152600860205260409020805463ffffffff92909216600160e01b026001600160e01b039092169190911790555b818114610a9c576001600160a01b038316600081815260066020908152604091829020859055815185815291517f20af8e791cc98f74b2d7a391c80980ca8e5aebf3d4060bf581997b6acae2e5379281900390910190a2505050565b60006123658383604051806040016040528060158152602001747375627472616374696f6e20756e646572666c6f7760581b815250612a69565b9392505050565b600061236583836040518060400160405280601781526020017f6d756c7469706c69636174696f6e206f766572666c6f77000000000000000000815250612ac3565b60006123658383604051806040016040528060118152602001706164646974696f6e206f766572666c6f7760781b815250612b42565b6001600160a01b03821660009081526005602052604090205480156124115761240c83611746565b612577565b81156125775761242083612797565b6001600160a01b0383166000908152600760205260409020546001600160e01b03166125315760405180604001604052806ec097ce7bc90715b34b9f10000000006001600160e01b0316815260200161247a6121a8610bb9565b63ffffffff9081169091526001600160a01b038516600090815260076020908152604080832085518154968401516001600160e01b03199097166001600160e01b03918216178116600160e01b9790961696909602949094179093556008905220541661240c57600480546001810182556000919091527f8a35acfbc15ff81a39ae7d344fd709f28e8600b4aa8c65c6b64bfe7fe36bd19b0180546001600160a01b0319166001600160a01b038516179055612577565b61253c6121a8610bb9565b6001600160a01b0384166000908152600760205260409020805463ffffffff92909216600160e01b026001600160e01b039092169190911790555b818114610a9c576001600160a01b038316600081815260056020908152604091829020859055815185815291517fdeafccd0c0b768b2529f7dcbbe58e155d6023059150b7490ed4535cc3744b92d9281900390910190a2505050565b6125db612c27565b6040518060200160405280612608612602866ec097ce7bc90715b34b9f100000000061236c565b85612b97565b90529392505050565b612619612c27565b6040518060200160405280612608856000015185600001516123ae565b600081600160e01b84106126c85760405162461bcd60e51b81526004018080602001828103825283818151815260200191508051906020019080838360005b8381101561268d578181015183820152602001612675565b50505050905090810190601f1680156126ba5780820380516001836020036101000a031916815260200191505b509250505060405180910390fd5b509192915050565b600081600160201b84106126c85760405162461bcd60e51b815260206004820181815283516024840152835190928392604490910191908501908083836000831561268d578181015183820152602001612675565b61272d612c27565b60405180602001604052806126088560000151856000015161232b565b60006ec097ce7bc90715b34b9f100000000061276a84846000015161236c565b8161277157fe5b049392505050565b600061236561279084670de0b6b3a764000061236c565b8351612b97565b6000816001600160a01b0316635fe3b5676040518163ffffffff1660e01b815260040160206040518083038186803b1580156127d257600080fd5b505afa1580156127e6573d6000803e3d6000fd5b505050506040513d60208110156127fc57600080fd5b505160408051638e8f294b60e01b81526001600160a01b038581166004830152825193945060009390851692638e8f294b9260248082019391829003018186803b15801561284957600080fd5b505afa15801561285d573d6000803e3d6000fd5b505050506040513d604081101561287357600080fd5b505190506001811515146128ce576040805162461bcd60e51b815260206004820152601960248201527f636f6d70206d61726b6574206973206e6f74206c697374656400000000000000604482015290519081900360640190fd5b600080836001600160a01b0316633605b51b6040518163ffffffff1660e01b815260040160006040518083038186803b15801561290a57600080fd5b505afa15801561291e573d6000803e3d6000fd5b505050506040513d6000823e601f3d908101601f19168201604052602081101561294757600080fd5b8101908080516040519392919084600160201b82111561296657600080fd5b90830190602082018581111561297b57600080fd5b82518660208202830111600160201b8211171561299757600080fd5b82525081516020918201928201910280838360005b838110156129c45781810151838201526020016129ac565b50505050905001604052505050905060005b8151811015612a1957306001600160a01b03168282815181106129f557fe5b60200260200101516001600160a01b03161415612a1157600192505b6001016129d6565b50600182151514610e57576040805162461bcd60e51b8152602060048201526015602482015274191a5cdd1c9a589d5d1bdc881b9bdd081859191959605a1b604482015290519081900360640190fd5b60008184841115612abb5760405162461bcd60e51b815260206004820181815283516024840152835190928392604490910191908501908083836000831561268d578181015183820152602001612675565b505050900390565b6000831580612ad0575082155b15612add57506000612365565b83830283858281612aea57fe5b04148390612b395760405162461bcd60e51b815260206004820181815283516024840152835190928392604490910191908501908083836000831561268d578181015183820152602001612675565b50949350505050565b60008383018285821015612b395760405162461bcd60e51b815260206004820181815283516024840152835190928392604490910191908501908083836000831561268d578181015183820152602001612675565b600061236583836040518060400160405280600e81526020016d646976696465206279207a65726f60901b81525060008183612c145760405162461bcd60e51b815260206004820181815283516024840152835190928392604490910191908501908083836000831561268d578181015183820152602001612675565b50828481612c1e57fe5b04949350505050565b604051806020016040528060008152509056fe526577617264734469737472696275746f723a5f73657450656e64696e6741646d696e3a2061646d696e206f6e6c79526577617264734469737472696275746f723a5f61636365707441646d696e3a2070656e64696e672061646d696e206f6e6c7943616e6e6f7420696e697469616c697a652072657761726420746f6b656e20746f20746865207a65726f20616464726573732e6f6e6c792061646d696e2063616e2073657420636f6d70207370656564000000526577617264734469737472696275746f723a3a5f736574436f6d7053706565647320696e76616c696420696e707574626c6f636b206e756d6265722065786365656473203332206269747300000000a2646970667358221220100faa803f7625ae668fb88de24926aba1fbf340c7e3592681c51628b1f3a71064736f6c63430007060033",
  "devdoc": {
    "author": "Compound",
    "kind": "dev",
    "methods": {
      "_acceptAdmin()": {
        "details": "Admin function for pending admin to accept role and update admin"
      },
      "_grantComp(address,uint256)": {
        "details": "Note: If there is not enough COMP, we do not perform the transfer all.",
        "params": {
          "amount": "The amount of COMP to (possibly) transfer",
          "recipient": "The address of the recipient to transfer COMP to"
        }
      },
      "_setCompBorrowSpeed(address,uint256)": {
        "params": {
          "cToken": "The market whose COMP speed to update",
          "compSpeed": "New COMP speed for market"
        }
      },
      "_setCompSpeeds(address[],uint256[],uint256[])": {
        "params": {
          "borrowSpeeds": "New borrow-side COMP speed for the corresponding market.",
          "cTokens": "The markets whose COMP speed to update.",
          "supplySpeeds": "New supply-side COMP speed for the corresponding market."
        }
      },
      "_setCompSupplySpeed(address,uint256)": {
        "params": {
          "cToken": "The market whose COMP speed to update",
          "compSpeed": "New COMP speed for market"
        }
      },
      "_setContributorCompSpeed(address,uint256)": {
        "params": {
          "compSpeed": "New COMP speed for contributor",
          "contributor": "The contributor whose COMP speed to update"
        }
      },
      "_setPendingAdmin(address)": {
        "details": "Admin function to begin change of admin. The newPendingAdmin must call `_acceptAdmin` to finalize the transfer.",
        "params": {
          "newPendingAdmin": "New pending admin."
        }
      },
      "claimRewards(address)": {
        "params": {
          "holder": "The address to claim COMP for"
        }
      },
      "claimRewards(address,address[])": {
        "params": {
          "cTokens": "The list of markets to claim COMP in",
          "holder": "The address to claim COMP for"
        }
      },
      "claimRewards(address[],address[],bool,bool)": {
        "params": {
          "borrowers": "Whether or not to claim COMP earned by borrowing",
          "cTokens": "The list of markets to claim COMP in",
          "holders": "The addresses to claim COMP for",
          "suppliers": "Whether or not to claim COMP earned by supplying"
        }
      },
      "flywheelPreBorrowerAction(address,address)": {
        "details": "Called by the Comptroller",
        "params": {
          "borrower": "The borrower",
          "cToken": "The relevant market"
        }
      },
      "flywheelPreSupplierAction(address,address)": {
        "details": "Called by the Comptroller",
        "params": {
          "cToken": "The relevant market",
          "supplier": "The minter/redeemer"
        }
      },
      "flywheelPreTransferAction(address,address,address)": {
        "details": "Called by the Comptroller",
        "params": {
          "cToken": "The relevant market",
          "dst": "The account which receives the tokens",
          "src": "The account which sources the tokens"
        }
      },
      "initialize(address)": {
        "details": "Intitializer to set admin to caller and set reward token"
      },
      "updateContributorRewards(address)": {
        "params": {
          "contributor": "The address to calculate contributor rewards for"
        }
      }
    },
    "stateVariables": {
      "isRewardsDistributor": {
        "details": "Notice that this contract is a RewardsDistributor"
      }
    },
    "title": "RewardsDistributorDelegate (COMP distribution logic extracted from `Comptroller`)",
    "version": 1
  },
  "userdoc": {
    "events": {
      "CompBorrowSpeedUpdated(address,uint256)": {
        "notice": "Emitted when a new COMP speed is calculated for a market"
      },
      "CompGranted(address,uint256)": {
        "notice": "Emitted when COMP is granted by admin"
      },
      "CompSupplySpeedUpdated(address,uint256)": {
        "notice": "Emitted when a new COMP speed is calculated for a market"
      },
      "ContributorCompSpeedUpdated(address,uint256)": {
        "notice": "Emitted when a new COMP speed is set for a contributor"
      },
      "DistributedBorrowerComp(address,address,uint256,uint256)": {
        "notice": "Emitted when COMP is distributed to a borrower"
      },
      "DistributedSupplierComp(address,address,uint256,uint256)": {
        "notice": "Emitted when COMP is distributed to a supplier"
      },
      "NewAdmin(address,address)": {
        "notice": "Emitted when pendingAdmin is accepted, which means admin is updated"
      },
      "NewPendingAdmin(address,address)": {
        "notice": "Emitted when pendingAdmin is changed"
      }
    },
    "kind": "user",
    "methods": {
      "_acceptAdmin()": {
        "notice": "Accepts transfer of admin rights. msg.sender must be pendingAdmin"
      },
      "_grantComp(address,uint256)": {
        "notice": "Transfer COMP to the recipient"
      },
      "_setCompBorrowSpeed(address,uint256)": {
        "notice": "Set COMP speed for a single market"
      },
      "_setCompSpeeds(address[],uint256[],uint256[])": {
        "notice": "Set COMP borrow and supply speeds for the specified markets."
      },
      "_setCompSupplySpeed(address,uint256)": {
        "notice": "Set COMP speed for a single market"
      },
      "_setContributorCompSpeed(address,uint256)": {
        "notice": "Set COMP speed for a single contributor"
      },
      "_setPendingAdmin(address)": {
        "notice": "Begins transfer of admin rights. The newPendingAdmin must call `_acceptAdmin` to finalize the transfer."
      },
      "admin()": {
        "notice": "Administrator for this contract"
      },
      "allMarkets(uint256)": {
        "notice": "A list of all markets"
      },
      "claimRewards(address)": {
        "notice": "Claim all the comp accrued by holder in all markets"
      },
      "claimRewards(address,address[])": {
        "notice": "Claim all the comp accrued by holder in the specified markets"
      },
      "claimRewards(address[],address[],bool,bool)": {
        "notice": "Claim all comp accrued by the holders"
      },
      "compAccrued(address)": {
        "notice": "The COMP accrued but not yet transferred to each user"
      },
      "compBorrowSpeeds(address)": {
        "notice": "The portion of compRate that each market currently receives"
      },
      "compBorrowState(address)": {
        "notice": "The COMP market borrow state for each market"
      },
      "compBorrowerIndex(address,address)": {
        "notice": "The COMP borrow index for each market for each borrower as of the last time they accrued COMP"
      },
      "compContributorSpeeds(address)": {
        "notice": "The portion of COMP that each contributor receives per block"
      },
      "compInitialIndex()": {
        "notice": "The initial COMP index for a market"
      },
      "compSupplierIndex(address,address)": {
        "notice": "The COMP borrow index for each market for each supplier as of the last time they accrued COMP"
      },
      "compSupplySpeeds(address)": {
        "notice": "The portion of compRate that each market currently receives"
      },
      "compSupplyState(address)": {
        "notice": "The COMP market supply state for each market"
      },
      "flywheelPreBorrowerAction(address,address)": {
        "notice": "Keeps the flywheel moving pre-borrow and pre-repay"
      },
      "flywheelPreSupplierAction(address,address)": {
        "notice": "Keeps the flywheel moving pre-mint and pre-redeem"
      },
      "flywheelPreTransferAction(address,address,address)": {
        "notice": "Keeps the flywheel moving pre-transfer and pre-seize"
      },
      "getAllMarkets()": {
        "notice": "Returns an array of all markets."
      },
      "implementation()": {
        "notice": "Active brains of RewardsDistributor"
      },
      "lastContributorBlock(address)": {
        "notice": "Last block at which a contributor's COMP rewards have been allocated"
      },
      "pendingAdmin()": {
        "notice": "Pending administrator for this contract"
      },
      "updateContributorRewards(address)": {
        "notice": "Calculate additional accrued COMP for a contributor since last accrual"
      }
    },
    "version": 1
  },
  "storageLayout": {
    "storage": [
      {
        "astId": 28706,
        "contract": "contracts/compound/RewardsDistributorDelegate.sol:RewardsDistributorDelegate",
        "label": "admin",
        "offset": 0,
        "slot": "0",
        "type": "t_address"
      },
      {
        "astId": 28709,
        "contract": "contracts/compound/RewardsDistributorDelegate.sol:RewardsDistributorDelegate",
        "label": "pendingAdmin",
        "offset": 0,
        "slot": "1",
        "type": "t_address"
      },
      {
        "astId": 28712,
        "contract": "contracts/compound/RewardsDistributorDelegate.sol:RewardsDistributorDelegate",
        "label": "implementation",
        "offset": 0,
        "slot": "2",
        "type": "t_address"
      },
      {
        "astId": 28719,
        "contract": "contracts/compound/RewardsDistributorDelegate.sol:RewardsDistributorDelegate",
        "label": "rewardToken",
        "offset": 0,
        "slot": "3",
        "type": "t_address"
      },
      {
        "astId": 28728,
        "contract": "contracts/compound/RewardsDistributorDelegate.sol:RewardsDistributorDelegate",
        "label": "allMarkets",
        "offset": 0,
        "slot": "4",
        "type": "t_array(t_contract(CToken)16046)dyn_storage"
      },
      {
        "astId": 28733,
        "contract": "contracts/compound/RewardsDistributorDelegate.sol:RewardsDistributorDelegate",
        "label": "compSupplySpeeds",
        "offset": 0,
        "slot": "5",
        "type": "t_mapping(t_address,t_uint256)"
      },
      {
        "astId": 28738,
        "contract": "contracts/compound/RewardsDistributorDelegate.sol:RewardsDistributorDelegate",
        "label": "compBorrowSpeeds",
        "offset": 0,
        "slot": "6",
        "type": "t_mapping(t_address,t_uint256)"
      },
      {
        "astId": 28743,
        "contract": "contracts/compound/RewardsDistributorDelegate.sol:RewardsDistributorDelegate",
        "label": "compSupplyState",
        "offset": 0,
        "slot": "7",
        "type": "t_mapping(t_address,t_struct(CompMarketState)28724_storage)"
      },
      {
        "astId": 28748,
        "contract": "contracts/compound/RewardsDistributorDelegate.sol:RewardsDistributorDelegate",
        "label": "compBorrowState",
        "offset": 0,
        "slot": "8",
        "type": "t_mapping(t_address,t_struct(CompMarketState)28724_storage)"
      },
      {
        "astId": 28755,
        "contract": "contracts/compound/RewardsDistributorDelegate.sol:RewardsDistributorDelegate",
        "label": "compSupplierIndex",
        "offset": 0,
        "slot": "9",
        "type": "t_mapping(t_address,t_mapping(t_address,t_uint256))"
      },
      {
        "astId": 28762,
        "contract": "contracts/compound/RewardsDistributorDelegate.sol:RewardsDistributorDelegate",
        "label": "compBorrowerIndex",
        "offset": 0,
        "slot": "10",
        "type": "t_mapping(t_address,t_mapping(t_address,t_uint256))"
      },
      {
        "astId": 28767,
        "contract": "contracts/compound/RewardsDistributorDelegate.sol:RewardsDistributorDelegate",
        "label": "compAccrued",
        "offset": 0,
        "slot": "11",
        "type": "t_mapping(t_address,t_uint256)"
      },
      {
        "astId": 28772,
        "contract": "contracts/compound/RewardsDistributorDelegate.sol:RewardsDistributorDelegate",
        "label": "compContributorSpeeds",
        "offset": 0,
        "slot": "12",
        "type": "t_mapping(t_address,t_uint256)"
      },
      {
        "astId": 28777,
        "contract": "contracts/compound/RewardsDistributorDelegate.sol:RewardsDistributorDelegate",
        "label": "lastContributorBlock",
        "offset": 0,
        "slot": "13",
        "type": "t_mapping(t_address,t_uint256)"
      }
    ],
    "types": {
      "t_address": {
        "encoding": "inplace",
        "label": "address",
        "numberOfBytes": "20"
      },
      "t_array(t_contract(CToken)16046)dyn_storage": {
        "base": "t_contract(CToken)16046",
        "encoding": "dynamic_array",
        "label": "contract CToken[]",
        "numberOfBytes": "32"
      },
      "t_contract(CToken)16046": {
        "encoding": "inplace",
        "label": "contract CToken",
        "numberOfBytes": "20"
      },
      "t_mapping(t_address,t_mapping(t_address,t_uint256))": {
        "encoding": "mapping",
        "key": "t_address",
        "label": "mapping(address => mapping(address => uint256))",
        "numberOfBytes": "32",
        "value": "t_mapping(t_address,t_uint256)"
      },
      "t_mapping(t_address,t_struct(CompMarketState)28724_storage)": {
        "encoding": "mapping",
        "key": "t_address",
        "label": "mapping(address => struct RewardsDistributorDelegateStorageV1.CompMarketState)",
        "numberOfBytes": "32",
        "value": "t_struct(CompMarketState)28724_storage"
      },
      "t_mapping(t_address,t_uint256)": {
        "encoding": "mapping",
        "key": "t_address",
        "label": "mapping(address => uint256)",
        "numberOfBytes": "32",
        "value": "t_uint256"
      },
      "t_struct(CompMarketState)28724_storage": {
        "encoding": "inplace",
        "label": "struct RewardsDistributorDelegateStorageV1.CompMarketState",
        "members": [
          {
            "astId": 28721,
            "contract": "contracts/compound/RewardsDistributorDelegate.sol:RewardsDistributorDelegate",
            "label": "index",
            "offset": 0,
            "slot": "0",
            "type": "t_uint224"
          },
          {
            "astId": 28723,
            "contract": "contracts/compound/RewardsDistributorDelegate.sol:RewardsDistributorDelegate",
            "label": "block",
            "offset": 28,
            "slot": "0",
            "type": "t_uint32"
          }
        ],
        "numberOfBytes": "32"
      },
      "t_uint224": {
        "encoding": "inplace",
        "label": "uint224",
        "numberOfBytes": "28"
      },
      "t_uint256": {
        "encoding": "inplace",
        "label": "uint256",
        "numberOfBytes": "32"
      },
      "t_uint32": {
        "encoding": "inplace",
        "label": "uint32",
        "numberOfBytes": "4"
      }
    }
  }
}