{
  "address": "0x3dF910d92E4A748A063fab7F67c26f15b6Cca522",
  "abi": [
    {
      "inputs": [],
      "name": "MIN_TWAP_TIME",
      "outputs": [
        {
          "internalType": "uint256",
          "name": "",
          "type": "uint256"
        }
      ],
      "stateMutability": "view",
      "type": "function"
    },
    {
      "inputs": [],
      "name": "OBSERVATION_BUFFER",
      "outputs": [
        {
          "internalType": "uint8",
          "name": "",
          "type": "uint8"
        }
      ],
      "stateMutability": "view",
      "type": "function"
    },
    {
      "inputs": [],
      "name": "WETH",
      "outputs": [
        {
          "internalType": "address",
          "name": "",
          "type": "address"
        }
      ],
      "stateMutability": "view",
      "type": "function"
    },
    {
      "inputs": [
        {
          "internalType": "address",
          "name": "",
          "type": "address"
        }
      ],
      "name": "observationCount",
      "outputs": [
        {
          "internalType": "uint256",
          "name": "",
          "type": "uint256"
        }
      ],
      "stateMutability": "view",
      "type": "function"
    },
    {
      "inputs": [
        {
          "internalType": "address",
          "name": "",
          "type": "address"
        },
        {
          "internalType": "uint256",
          "name": "",
          "type": "uint256"
        }
      ],
      "name": "observations",
      "outputs": [
        {
          "internalType": "uint32",
          "name": "timestamp",
          "type": "uint32"
        },
        {
          "internalType": "uint256",
          "name": "price0Cumulative",
          "type": "uint256"
        },
        {
          "internalType": "uint256",
          "name": "price1Cumulative",
          "type": "uint256"
        }
      ],
      "stateMutability": "view",
      "type": "function"
    },
    {
      "inputs": [
        {
          "internalType": "address[]",
          "name": "tokenA",
          "type": "address[]"
        },
        {
          "internalType": "address[]",
          "name": "tokenB",
          "type": "address[]"
        },
        {
          "internalType": "address",
          "name": "factory",
          "type": "address"
        }
      ],
      "name": "pairsFor",
      "outputs": [
        {
          "internalType": "address[]",
          "name": "",
          "type": "address[]"
        }
      ],
      "stateMutability": "view",
      "type": "function"
    },
    {
      "inputs": [
        {
          "internalType": "address",
          "name": "underlying",
          "type": "address"
        },
        {
          "internalType": "address",
          "name": "baseToken",
          "type": "address"
        },
        {
          "internalType": "address",
          "name": "factory",
          "type": "address"
        }
      ],
      "name": "price",
      "outputs": [
        {
          "internalType": "uint256",
          "name": "",
          "type": "uint256"
        }
      ],
      "stateMutability": "view",
      "type": "function"
    },
    {
      "inputs": [
        {
          "internalType": "address",
          "name": "pair",
          "type": "address"
        }
      ],
      "name": "update",
      "outputs": [],
      "stateMutability": "nonpayable",
      "type": "function"
    },
    {
      "inputs": [
        {
          "internalType": "address[]",
          "name": "pairs",
          "type": "address[]"
        }
      ],
      "name": "update",
      "outputs": [],
      "stateMutability": "nonpayable",
      "type": "function"
    },
    {
      "inputs": [
        {
          "internalType": "address[]",
          "name": "pairs",
          "type": "address[]"
        },
        {
          "internalType": "address[]",
          "name": "baseTokens",
          "type": "address[]"
        },
        {
          "internalType": "uint256[]",
          "name": "minPeriods",
          "type": "uint256[]"
        },
        {
          "internalType": "uint256[]",
          "name": "deviationThresholds",
          "type": "uint256[]"
        }
      ],
      "name": "workable",
      "outputs": [
        {
          "internalType": "bool[]",
          "name": "",
          "type": "bool[]"
        }
      ],
      "stateMutability": "view",
      "type": "function"
    }
  ],
  "transactionHash": "0x07a69e9971a90f6e0e8a68e4b343d8b8f29e83bf3d5468c9ca64ba3031b97ba6",
  "args": [],
  "solcInputHash": "f7b1f2c0198a0fc30d3000710310a520",
  "bytecode": "0x608060405234801561001057600080fd5b506118b9806100206000396000f3fe608060405234801561001057600080fd5b506004361061009e5760003560e01c80638eb7938b116100665780638eb7938b146102bf578063ad5c4648146102f7578063af8a9ba51461031b578063b9b2e68f14610323578063de5559421461035b5761009e565b806302459966146100a35780631c1b8772146100f4578063290ad26e1461011c578063317f17dc1461013a578063421cd20c146101a8575b600080fd5b6100cf600480360360408110156100b957600080fd5b506001600160a01b0381351690602001356104b9565b6040805163ffffffff9094168452602084019290925282820152519081900360600190f35b61011a6004803603602081101561010a57600080fd5b50356001600160a01b03166104f6565b005b61012461054c565b6040805160ff9092168252519081900360200190f35b61011a6004803603602081101561015057600080fd5b810190602081018135600160201b81111561016a57600080fd5b82018360208201111561017c57600080fd5b803590602001918460208302840111600160201b8311171561019d57600080fd5b509092509050610551565b61026f600480360360608110156101be57600080fd5b810190602081018135600160201b8111156101d857600080fd5b8201836020820111156101ea57600080fd5b803590602001918460208302840111600160201b8311171561020b57600080fd5b919390929091602081019035600160201b81111561022857600080fd5b82018360208201111561023a57600080fd5b803590602001918460208302840111600160201b8311171561025b57600080fd5b9193509150356001600160a01b03166105eb565b60408051602080825283518183015283519192839290830191858101910280838360005b838110156102ab578181015183820152602001610293565b505050509050019250505060405180910390f35b6102e5600480360360208110156102d557600080fd5b50356001600160a01b0316610780565b60408051918252519081900360200190f35b6102ff610792565b604080516001600160a01b039092168252519081900360200190f35b6102e56107aa565b6102e56004803603606081101561033957600080fd5b506001600160a01b0381358116916020810135821691604090910135166107b0565b61026f6004803603608081101561037157600080fd5b810190602081018135600160201b81111561038b57600080fd5b82018360208201111561039d57600080fd5b803590602001918460208302840111600160201b831117156103be57600080fd5b919390929091602081019035600160201b8111156103db57600080fd5b8201836020820111156103ed57600080fd5b803590602001918460208302840111600160201b8311171561040e57600080fd5b919390929091602081019035600160201b81111561042b57600080fd5b82018360208201111561043d57600080fd5b803590602001918460208302840111600160201b8311171561045e57600080fd5b919390929091602081019035600160201b81111561047b57600080fd5b82018360208201111561048d57600080fd5b803590602001918460208302840111600160201b831117156104ae57600080fd5b509092509050610907565b600160205281600052604060002081600481106104d557600080fd5b600302018054600182015460029092015463ffffffff909116935090915083565b6104ff81610a51565b610549576040805162461bcd60e51b81526020600482015260166024820152752330b4b632b2103a37903ab83230ba32903830b4b91760511b604482015290519081900360640190fd5b50565b600481565b6000805b828110156105935761058184848381811061056c57fe5b905060200201356001600160a01b0316610a51565b1561058b57600191505b600101610555565b50806105e6576040805162461bcd60e51b815260206004820152601e60248201527f4e6f2070616972732063616e20626520757064617465642028796574292e0000604482015290519081900360640190fd5b505050565b606084158015906105fb57508483145b6106365760405162461bcd60e51b81526004018080602001828103825260358152602001806117ff6035913960400191505060405180910390fd5b60008567ffffffffffffffff8111801561064f57600080fd5b50604051908082528060200260200182016040528015610679578160200160208202803683370190505b50905060005b8681101561077557836001600160a01b031663e6a439058989848181106106a257fe5b905060200201356001600160a01b03168888858181106106be57fe5b905060200201356001600160a01b03166040518363ffffffff1660e01b815260040180836001600160a01b03168152602001826001600160a01b031681526020019250505060206040518083038186803b15801561071b57600080fd5b505afa15801561072f573d6000803e3d6000fd5b505050506040513d602081101561074557600080fd5b5051825183908390811061075557fe5b6001600160a01b039092166020928302919091019091015260010161067f565b509695505050505050565b60006020819052908152604090205481565b73c02aaa39b223fe8d0a0e5c4f27ead9083c756cc281565b61038481565b600080826001600160a01b031663e6a4390586866040518363ffffffff1660e01b815260040180836001600160a01b03168152602001826001600160a01b031681526020019250505060206040518083038186803b15801561081157600080fd5b505afa158015610825573d6000803e3d6000fd5b505050506040513d602081101561083b57600080fd5b50516040805163313ce56760e01b815290519192506000916001600160a01b0388169163313ce567916004808301926020929190829003018186803b15801561088357600080fd5b505afa158015610897573d6000803e3d6000fd5b505050506040513d60208110156108ad57600080fd5b505160ff16600a0a90506108fd600160381b6108f1836108f7836001600160a01b03808c16908d16106108e8576108e388610c71565b6108f1565b6108f188610e84565b9061108c565b906110f5565b9695505050505050565b6060871580159061091757508786145b801561092257508784145b801561092d57508782145b6109685760405162461bcd60e51b815260040180806020018281038252602f815260200180611855602f913960400191505060405180910390fd5b60008867ffffffffffffffff8111801561098157600080fd5b506040519080825280602002602001820160405280156109ab578160200160208202803683370190505b50905060005b89811015610a4357610a1f8b8b838181106109c857fe5b905060200201356001600160a01b03168a8a848181106109e457fe5b905060200201356001600160a01b0316898985818110610a0057fe5b90506020020135888886818110610a1357fe5b90506020020135611155565b828281518110610a2b57fe5b911515602092830291909101909101526001016109b1565b509998505050505050505050565b6000610a5c826112ac565b610a6857506000610c6c565b6000826001600160a01b0316635909c0d56040518163ffffffff1660e01b815260040160206040518083038186803b158015610aa357600080fd5b505afa158015610ab7573d6000803e3d6000fd5b505050506040513d6020811015610acd57600080fd5b505160408051635a3d549360e01b815290519192506000916001600160a01b03861691635a3d5493916004808301926020929190829003018186803b158015610b1557600080fd5b505afa158015610b29573d6000803e3d6000fd5b505050506040513d6020811015610b3f57600080fd5b505160408051630240bc6b60e21b815290519192506000916001600160a01b03871691630902f1ac916004808301926060929190829003018186803b158015610b8757600080fd5b505afa158015610b9b573d6000803e3d6000fd5b505050506040513d6060811015610bb157600080fd5b50604090810151815160608101835263ffffffff8216815260208082018790528184018690526001600160a01b038916600090815260018252848120918190529390932054919350919060031660048110610c0857fe5b825160039190910291909101805463ffffffff191663ffffffff9092169190911781556020808301516001808401919091556040938401516002909301929092556001600160a01b0388166000908152908190529190912080548201905593505050505b919050565b6001600160a01b03811660009081526020819052604081205480610cdc576040805162461bcd60e51b815260206004820152601d60248201527f4e6f206c656e6774682d312054574150206f62736572766174696f6e2e000000604482015290519081900360640190fd5b6001600160a01b0383166000908152600160205260408120600460001984010660048110610d0657fe5b6040805160608101825260039290920292909201805463ffffffff16808352600182015460208401526002909101549282019290925291506103831942011015610dff5760018211610d9f576040805162461bcd60e51b815260206004820152601d60248201527f4e6f206c656e6774682d322054574150206f62736572766174696f6e2e000000604482015290519081900360640190fd5b6001600160a01b0384166000908152600160205260409020600460011984010660048110610dc957fe5b6040805160608101825260039290920292909201805463ffffffff16825260018101546020830152600201549181019190915290505b805163ffffffff164203610384811015610e51576040805162461bcd60e51b815260206004820152600e60248201526d2130b2102a2ba0a8103a34b6b29760911b604482015290519081900360640190fd5b6000610e5c8661131a565b9050826000015163ffffffff1642038360400151820381610e7957fe5b049695505050505050565b6001600160a01b03811660009081526020819052604081205480610eef576040805162461bcd60e51b815260206004820152601d60248201527f4e6f206c656e6774682d312054574150206f62736572766174696f6e2e000000604482015290519081900360640190fd5b6001600160a01b0383166000908152600160205260408120600460001984010660048110610f1957fe5b6040805160608101825260039290920292909201805463ffffffff168083526001820154602084015260029091015492820192909252915061038319420110156110125760018211610fb2576040805162461bcd60e51b815260206004820152601d60248201527f4e6f206c656e6774682d322054574150206f62736572766174696f6e2e000000604482015290519081900360640190fd5b6001600160a01b0384166000908152600160205260409020600460011984010660048110610fdc57fe5b6040805160608101825260039290920292909201805463ffffffff16825260018101546020830152600201549181019190915290505b805163ffffffff164203610384811015611064576040805162461bcd60e51b815260206004820152600e60248201526d2130b2102a2ba0a8103a34b6b29760911b604482015290519081900360640190fd5b600061106f86611452565b9050826000015163ffffffff1642038360200151820381610e7957fe5b60008082116110e2576040805162461bcd60e51b815260206004820152601a60248201527f536166654d6174683a206469766973696f6e206279207a65726f000000000000604482015290519081900360640190fd5b8183816110eb57fe5b0490505b92915050565b600082611104575060006110ef565b8282028284828161111157fe5b041461114e5760405162461bcd60e51b81526004018080602001828103825260218152602001806118346021913960400191505060405180910390fd5b9392505050565b6001600160a01b03841660009081526020819052604081205461117a575060016112a4565b6000856001600160a01b0316630902f1ac6040518163ffffffff1660e01b815260040160606040518083038186803b1580156111b557600080fd5b505afa1580156111c9573d6000803e3d6000fd5b505050506040513d60608110156111df57600080fd5b506040015190506103848410156111f8576103846111fa565b835b6001600160a01b0387166000908152600160209081526040808320918390529091205460049060001901066004811061122f57fe5b600302015463ffffffff16420311801561128b57506001600160a01b0386166000908152600160209081526040808320918390529091205460049060001901066004811061127957fe5b600302015463ffffffff828116911614155b80156112a057508261129d8787611576565b10155b9150505b949350505050565b6001600160a01b03811660009081526020819052604081205415806110ef57506001600160a01b03821660009081526001602090815260408083209183905290912054610384919060049060001901066004811061130657fe5b600302015463ffffffff1642031192915050565b600080429050826001600160a01b0316635a3d54936040518163ffffffff1660e01b815260040160206040518083038186803b15801561135957600080fd5b505afa15801561136d573d6000803e3d6000fd5b505050506040513d602081101561138357600080fd5b505160408051630240bc6b60e21b81529051919350600091829182916001600160a01b03881691630902f1ac916004808301926060929190829003018186803b1580156113cf57600080fd5b505afa1580156113e3573d6000803e3d6000fd5b505050506040513d60608110156113f957600080fd5b50805160208201516040909201516001600160701b03918216955091169250905063ffffffff808216908516146114495780840363ffffffff811683607086901b8161144157fe5b040286019550505b50505050919050565b600080429050826001600160a01b0316635909c0d56040518163ffffffff1660e01b815260040160206040518083038186803b15801561149157600080fd5b505afa1580156114a5573d6000803e3d6000fd5b505050506040513d60208110156114bb57600080fd5b505160408051630240bc6b60e21b81529051919350600091829182916001600160a01b03881691630902f1ac916004808301926060929190829003018186803b15801561150757600080fd5b505afa15801561151b573d6000803e3d6000fd5b505050506040513d606081101561153157600080fd5b50805160208201516040909201516001600160701b03918216955091169250905063ffffffff811642146114495780840363ffffffff811684607085901b8161144157fe5b600080836001600160a01b0316630dfe16816040518163ffffffff1660e01b815260040160206040518083038186803b1580156115b257600080fd5b505afa1580156115c6573d6000803e3d6000fd5b505050506040513d60208110156115dc57600080fd5b505190506001600160a01b03808216908416141560008161166157856001600160a01b031663d21220a76040518163ffffffff1660e01b815260040160206040518083038186803b15801561163057600080fd5b505afa158015611644573d6000803e3d6000fd5b505050506040513d602081101561165a57600080fd5b5051611663565b825b90506000816001600160a01b031663313ce5676040518163ffffffff1660e01b815260040160206040518083038186803b1580156116a057600080fd5b505afa1580156116b4573d6000803e3d6000fd5b505050506040513d60208110156116ca57600080fd5b505160ff16600a0a905060006116fd600160381b6108f1846108f783896116f4576108e38e610c71565b6108f18e610e84565b9050600080896001600160a01b0316630902f1ac6040518163ffffffff1660e01b815260040160606040518083038186803b15801561173b57600080fd5b505afa15801561174f573d6000803e3d6000fd5b505050506040513d606081101561176557600080fd5b5080516020909101516001600160701b03918216935016905060008661179857611793826108f185886110f5565b6117a6565b6117a6836108f184886110f5565b905060006117c0856108f184670de0b6b3a76400006110f5565b9050670de0b6b3a76400008110156117e25780670de0b6b3a7640000036117ee565b670de0b6b3a764000081035b9c9b50505050505050505050505056fe546f6b656e206172726179206c656e67746873206d75737420626520657175616c20616e642067726561746572207468616e20302e536166654d6174683a206d756c7469706c69636174696f6e206f766572666c6f774172726179206c656e67746873206d75737420626520657175616c20616e642067726561746572207468616e20302ea264697066735822122042a44d0cfed41ee33c0574d527312460a0213c60da6679d5fa0bef60f9b8cb5164736f6c63430007060033",
  "devdoc": {
    "author": "David Lucid <david@rari.capital> (https://github.com/davidlucid)",
    "kind": "dev",
    "methods": {
      "price(address,address,address)": {
        "details": "Returns the price of `underlying` in terms of `baseToken` given `factory`."
      }
    },
    "stateVariables": {
      "MIN_TWAP_TIME": {
        "details": "Minimum TWAP interval."
      },
      "OBSERVATION_BUFFER": {
        "details": "Length after which observations roll over to index 0."
      },
      "WETH": {
        "details": "WETH token contract address."
      },
      "observationCount": {
        "details": "Total observation count for each pair."
      },
      "observations": {
        "details": "Array of cumulative price observations for each pair."
      }
    },
    "title": "UniswapTwapPriceOracleV2Root",
    "version": 1
  },
  "userdoc": {
    "kind": "user",
    "methods": {
      "pairsFor(address[],address[],address)": {
        "notice": "Get pairs for token combinations."
      },
      "update(address)": {
        "notice": "Update one pair."
      },
      "update(address[])": {
        "notice": "Update multiple pairs at once."
      },
      "workable(address[],address[],uint256[],uint256[])": {
        "notice": "Check which of multiple pairs are workable/updatable."
      }
    },
    "notice": "Stores cumulative prices and returns TWAPs for assets on Uniswap V2 pairs.",
    "version": 1
  },
  "storageLayout": {
    "storage": [
      {
        "astId": 45912,
        "contract": "contracts/oracles/UniswapTwapPriceOracleV2Root.sol:UniswapTwapPriceOracleV2Root",
        "label": "observationCount",
        "offset": 0,
        "slot": "0",
        "type": "t_mapping(t_address,t_uint256)"
      },
      {
        "astId": 45919,
        "contract": "contracts/oracles/UniswapTwapPriceOracleV2Root.sol:UniswapTwapPriceOracleV2Root",
        "label": "observations",
        "offset": 0,
        "slot": "1",
        "type": "t_mapping(t_address,t_array(t_struct(Observation)45903_storage)4_storage)"
      }
    ],
    "types": {
      "t_address": {
        "encoding": "inplace",
        "label": "address",
        "numberOfBytes": "20"
      },
      "t_array(t_struct(Observation)45903_storage)4_storage": {
        "base": "t_struct(Observation)45903_storage",
        "encoding": "inplace",
        "label": "struct UniswapTwapPriceOracleV2Root.Observation[4]",
        "numberOfBytes": "384"
      },
      "t_mapping(t_address,t_array(t_struct(Observation)45903_storage)4_storage)": {
        "encoding": "mapping",
        "key": "t_address",
        "label": "mapping(address => struct UniswapTwapPriceOracleV2Root.Observation[4])",
        "numberOfBytes": "32",
        "value": "t_array(t_struct(Observation)45903_storage)4_storage"
      },
      "t_mapping(t_address,t_uint256)": {
        "encoding": "mapping",
        "key": "t_address",
        "label": "mapping(address => uint256)",
        "numberOfBytes": "32",
        "value": "t_uint256"
      },
      "t_struct(Observation)45903_storage": {
        "encoding": "inplace",
        "label": "struct UniswapTwapPriceOracleV2Root.Observation",
        "members": [
          {
            "astId": 45898,
            "contract": "contracts/oracles/UniswapTwapPriceOracleV2Root.sol:UniswapTwapPriceOracleV2Root",
            "label": "timestamp",
            "offset": 0,
            "slot": "0",
            "type": "t_uint32"
          },
          {
            "astId": 45900,
            "contract": "contracts/oracles/UniswapTwapPriceOracleV2Root.sol:UniswapTwapPriceOracleV2Root",
            "label": "price0Cumulative",
            "offset": 0,
            "slot": "1",
            "type": "t_uint256"
          },
          {
            "astId": 45902,
            "contract": "contracts/oracles/UniswapTwapPriceOracleV2Root.sol:UniswapTwapPriceOracleV2Root",
            "label": "price1Cumulative",
            "offset": 0,
            "slot": "2",
            "type": "t_uint256"
          }
        ],
        "numberOfBytes": "96"
      },
      "t_uint256": {
        "encoding": "inplace",
        "label": "uint256",
        "numberOfBytes": "32"
      },
      "t_uint32": {
        "encoding": "inplace",
        "label": "uint32",
        "numberOfBytes": "4"
      }
    }
  }
}