{
  "address": "0x4DE5d2F7A3FeC252Acc0B30Fb7426219991cc818",
  "abi": [
    {
      "inputs": [],
      "name": "WETH",
      "outputs": [
        {
          "internalType": "address",
          "name": "",
          "type": "address"
        }
      ],
      "stateMutability": "view",
      "type": "function"
    },
    {
      "inputs": [],
      "name": "baseToken",
      "outputs": [
        {
          "internalType": "address",
          "name": "",
          "type": "address"
        }
      ],
      "stateMutability": "view",
      "type": "function"
    },
    {
      "inputs": [
        {
          "internalType": "contract ICToken",
          "name": "cToken",
          "type": "address"
        }
      ],
      "name": "getUnderlyingPrice",
      "outputs": [
        {
          "internalType": "uint256",
          "name": "",
          "type": "uint256"
        }
      ],
      "stateMutability": "view",
      "type": "function"
    },
    {
      "inputs": [
        {
          "internalType": "address",
          "name": "_rootOracle",
          "type": "address"
        },
        {
          "internalType": "address",
          "name": "_uniswapV2Factory",
          "type": "address"
        },
        {
          "internalType": "address",
          "name": "_baseToken",
          "type": "address"
        }
      ],
      "name": "initialize",
      "outputs": [],
      "stateMutability": "nonpayable",
      "type": "function"
    },
    {
      "inputs": [
        {
          "internalType": "address",
          "name": "underlying",
          "type": "address"
        }
      ],
      "name": "price",
      "outputs": [
        {
          "internalType": "uint256",
          "name": "",
          "type": "uint256"
        }
      ],
      "stateMutability": "view",
      "type": "function"
    },
    {
      "inputs": [],
      "name": "rootOracle",
      "outputs": [
        {
          "internalType": "contract UniswapTwapPriceOracleV2Root",
          "name": "",
          "type": "address"
        }
      ],
      "stateMutability": "view",
      "type": "function"
    },
    {
      "inputs": [],
      "name": "uniswapV2Factory",
      "outputs": [
        {
          "internalType": "address",
          "name": "",
          "type": "address"
        }
      ],
      "stateMutability": "view",
      "type": "function"
    }
  ],
  "transactionHash": "0xf642ce7669b05c825ff4d321dc1b288134f89307fca0ff0965bafa8641b6a0a1",
  "args": [],
  "numDeployments": 1,
  "solcInputHash": "18e44b6e6c01c64f1351338fa657b2bb",
  "bytecode": "0x608060405234801561001057600080fd5b50610890806100206000396000f3fe608060405234801561001057600080fd5b506004361061007d5760003560e01c8063c0c53b8b1161005b578063c0c53b8b146100e6578063c55dae6314610120578063e3cb23a514610128578063fc57d4df146101305761007d565b806359d0f71314610082578063ad5c4648146100a6578063aea91078146100ae575b600080fd5b61008a610156565b604080516001600160a01b039092168252519081900360200190f35b61008a610165565b6100d4600480360360208110156100c457600080fd5b50356001600160a01b031661017d565b60408051918252519081900360200190f35b61011e600480360360608110156100fc57600080fd5b506001600160a01b038135811691602081013582169160409091013516610190565b005b61008a610356565b61008a610365565b6100d46004803603602081101561014657600080fd5b50356001600160a01b031661037a565b6001546001600160a01b031681565b73c02aaa39b223fe8d0a0e5c4f27ead9083c756cc281565b600061018882610503565b90505b919050565b600054610100900460ff16806101a957506101a9610702565b806101b7575060005460ff16155b6101f25760405162461bcd60e51b815260040180806020018281038252602e81526020018061080c602e913960400191505060405180910390fd5b600054610100900460ff1615801561021d576000805460ff1961ff0019909116610100171660011790555b6001600160a01b0384166102625760405162461bcd60e51b81526004018080602001828103825260298152602001806107e36029913960400191505060405180910390fd5b6001600160a01b0383166102bd576040805162461bcd60e51b815260206004820152601d60248201527f556e69737761705632466163746f7279206e6f7420646566696e65642e000000604482015290519081900360640190fd5b6000805462010000600160b01b031916620100006001600160a01b038781169190910291909117909155600180546001600160a01b031916858316179055821615610308578161031e565b73c02aaa39b223fe8d0a0e5c4f27ead9083c756cc25b600280546001600160a01b0319166001600160a01b03929092169190911790558015610350576000805461ff00191690555b50505050565b6002546001600160a01b031681565b6000546201000090046001600160a01b031681565b6000816001600160a01b031663ac784ddc6040518163ffffffff1660e01b815260040160206040518083038186803b1580156103b557600080fd5b505afa1580156103c9573d6000803e3d6000fd5b505050506040513d60208110156103df57600080fd5b5051156103f55750670de0b6b3a764000061018b565b6000826001600160a01b0316636f307dc36040518163ffffffff1660e01b815260040160206040518083038186803b15801561043057600080fd5b505afa158015610444573d6000803e3d6000fd5b505050506040513d602081101561045a57600080fd5b50516040805163313ce56760e01b815290519192506000916001600160a01b0384169163313ce567916004808301926020929190829003018186803b1580156104a257600080fd5b505afa1580156104b6573d6000803e3d6000fd5b505050506040513d60208110156104cc57600080fd5b505160ff16600a0a90506104fb816104f5670de0b6b3a76400006104ef86610503565b90610713565b90610775565b949350505050565b60006001600160a01b03821673c02aaa39b223fe8d0a0e5c4f27ead9083c756cc214156105395750670de0b6b3a764000061018b565b600080546002546001546040805163b9b2e68f60e01b81526001600160a01b0388811660048301529384166024820152918316604483015251620100009093049091169163b9b2e68f91606480820192602092909190829003018186803b1580156105a357600080fd5b505afa1580156105b7573d6000803e3d6000fd5b505050506040513d60208110156105cd57600080fd5b50516002549091506001600160a01b031673c02aaa39b223fe8d0a0e5c4f27ead9083c756cc2146106f9576002546040805163313ce56760e01b815290516106f4926001600160a01b03169163313ce567916004808301926020929190829003018186803b15801561063e57600080fd5b505afa158015610652573d6000803e3d6000fd5b505050506040513d602081101561066857600080fd5b5051600254604080516315d5220f60e31b81526001600160a01b0390921660048301525160ff909216600a0a916104f591339163aea9107891602480820192602092909190829003018186803b1580156106c157600080fd5b505afa1580156106d5573d6000803e3d6000fd5b505050506040513d60208110156106eb57600080fd5b50518490610713565b6106fb565b805b9392505050565b600061070d306107dc565b15905090565b6000826107225750600061076f565b8282028284828161072f57fe5b041461076c5760405162461bcd60e51b815260040180806020018281038252602181526020018061083a6021913960400191505060405180910390fd5b90505b92915050565b60008082116107cb576040805162461bcd60e51b815260206004820152601a60248201527f536166654d6174683a206469766973696f6e206279207a65726f000000000000604482015290519081900360640190fd5b8183816107d457fe5b049392505050565b3b15159056fe556e69737761705477617050726963654f7261636c655632526f6f74206e6f7420646566696e65642e496e697469616c697a61626c653a20636f6e747261637420697320616c726561647920696e697469616c697a6564536166654d6174683a206d756c7469706c69636174696f6e206f766572666c6f77a26469706673582212201306242b06f115006d9c0312a5787d0085729cdce9abab33fb1abb88cdb99e0464736f6c63430007060033",
  "devdoc": {
    "author": "David Lucid <david@rari.capital> (https://github.com/davidlucid)",
    "details": "Implements `PriceOracle` and `BasePriceOracle`.",
    "kind": "dev",
    "methods": {
      "getUnderlyingPrice(address)": {
        "details": "Implements the `PriceOracle` interface for Fuse pools (and Compound v2).",
        "returns": {
          "_0": "Price in ETH of the token underlying `cToken`, scaled by `10 ** (36 - underlyingDecimals)`."
        }
      },
      "initialize(address,address,address)": {
        "details": "Constructor that sets the UniswapTwapPriceOracleV2Root, UniswapV2Factory, and base token."
      },
      "price(address)": {
        "details": "Returns the price in ETH of `underlying` (implements `BasePriceOracle`)."
      }
    },
    "stateVariables": {
      "WETH": {
        "details": "WETH token contract address."
      },
      "baseToken": {
        "details": "The token on which to base TWAPs (its price must be available via `msg.sender`)."
      },
      "rootOracle": {
        "details": "UniswapTwapPriceOracleV2Root contract address."
      },
      "uniswapV2Factory": {
        "details": "UniswapV2Factory contract address."
      }
    },
    "title": "UniswapTwapPriceOracleV2",
    "version": 1
  },
  "userdoc": {
    "kind": "user",
    "methods": {
      "getUnderlyingPrice(address)": {
        "notice": "Returns the price in ETH of the token underlying `cToken`."
      }
    },
    "notice": "Stores cumulative prices and returns TWAPs for assets on Uniswap V2 pairs.",
    "version": 1
  },
  "storageLayout": {
    "storage": [
      {
        "astId": 572,
        "contract": "contracts/oracles/UniswapTwapPriceOracleV2.sol:UniswapTwapPriceOracleV2",
        "label": "_initialized",
        "offset": 0,
        "slot": "0",
        "type": "t_bool"
      },
      {
        "astId": 575,
        "contract": "contracts/oracles/UniswapTwapPriceOracleV2.sol:UniswapTwapPriceOracleV2",
        "label": "_initializing",
        "offset": 1,
        "slot": "0",
        "type": "t_bool"
      },
      {
        "astId": 45125,
        "contract": "contracts/oracles/UniswapTwapPriceOracleV2.sol:UniswapTwapPriceOracleV2",
        "label": "rootOracle",
        "offset": 2,
        "slot": "0",
        "type": "t_contract(UniswapTwapPriceOracleV2Root)46395"
      },
      {
        "astId": 45128,
        "contract": "contracts/oracles/UniswapTwapPriceOracleV2.sol:UniswapTwapPriceOracleV2",
        "label": "uniswapV2Factory",
        "offset": 0,
        "slot": "1",
        "type": "t_address"
      },
      {
        "astId": 45131,
        "contract": "contracts/oracles/UniswapTwapPriceOracleV2.sol:UniswapTwapPriceOracleV2",
        "label": "baseToken",
        "offset": 0,
        "slot": "2",
        "type": "t_address"
      }
    ],
    "types": {
      "t_address": {
        "encoding": "inplace",
        "label": "address",
        "numberOfBytes": "20"
      },
      "t_bool": {
        "encoding": "inplace",
        "label": "bool",
        "numberOfBytes": "1"
      },
      "t_contract(UniswapTwapPriceOracleV2Root)46395": {
        "encoding": "inplace",
        "label": "contract UniswapTwapPriceOracleV2Root",
        "numberOfBytes": "20"
      }
    }
  }
}