{
  "abi": [
    {
      "inputs": [],
      "name": "resolver",
      "outputs": [
        {
          "internalType": "contract AddressResolver",
          "name": "",
          "type": "address"
        }
      ],
      "stateMutability": "view",
      "type": "function"
    }
  ],
  "bytecode": {
    "object": "0x6080604052348015600f57600080fd5b5060918061001e6000396000f3fe6080604052348015600f57600080fd5b506004361060285760003560e01c806304f3bcec14602d575b600080fd5b600054603f906001600160a01b031681565b6040516001600160a01b03909116815260200160405180910390f3fea26469706673582212201c2641c36f41e0864b034a52bc2c155146f73e32e04a1bf684b2ce4ee490f8e864736f6c634300080a0033",
    "linkReferences": {}
  },
  "methodIdentifiers": {
    "resolver()": "04f3bcec"
  },
  "id": 112
}