{
  "abi": [
    {
      "anonymous": false,
      "inputs": [
        {
          "indexed": false,
          "internalType": "uint8",
          "name": "version",
          "type": "uint8"
        }
      ],
      "name": "Initialized",
      "type": "event"
    },
    {
      "inputs": [],
      "name": "directory",
      "outputs": [
        {
          "internalType": "contract FusePoolDirectory",
          "name": "",
          "type": "address"
        }
      ],
      "stateMutability": "view",
      "type": "function"
    },
    {
      "inputs": [
        {
          "internalType": "contract IComptroller",
          "name": "comptroller",
          "type": "address"
        },
        {
          "internalType": "address",
          "name": "user",
          "type": "address"
        }
      ],
      "name": "getPoolAssetsByUser",
      "outputs": [
        {
          "components": [
            {
              "internalType": "address",
              "name": "cToken",
              "type": "address"
            },
            {
              "internalType": "address",
              "name": "underlyingToken",
              "type": "address"
            },
            {
              "internalType": "string",
              "name": "underlyingName",
              "type": "string"
            },
            {
              "internalType": "string",
              "name": "underlyingSymbol",
              "type": "string"
            },
            {
              "internalType": "uint256",
              "name": "underlyingDecimals",
              "type": "uint256"
            },
            {
              "internalType": "uint256",
              "name": "underlyingBalance",
              "type": "uint256"
            },
            {
              "internalType": "uint256",
              "name": "supplyRatePerBlock",
              "type": "uint256"
            },
            {
              "internalType": "uint256",
              "name": "borrowRatePerBlock",
              "type": "uint256"
            },
            {
              "internalType": "uint256",
              "name": "totalSupply",
              "type": "uint256"
            },
            {
              "internalType": "uint256",
              "name": "totalBorrow",
              "type": "uint256"
            },
            {
              "internalType": "uint256",
              "name": "supplyBalance",
              "type": "uint256"
            },
            {
              "internalType": "uint256",
              "name": "borrowBalance",
              "type": "uint256"
            },
            {
              "internalType": "uint256",
              "name": "liquidity",
              "type": "uint256"
            },
            {
              "internalType": "bool",
              "name": "membership",
              "type": "bool"
            },
            {
              "internalType": "uint256",
              "name": "exchangeRate",
              "type": "uint256"
            },
            {
              "internalType": "uint256",
              "name": "underlyingPrice",
              "type": "uint256"
            },
            {
              "internalType": "address",
              "name": "oracle",
              "type": "address"
            },
            {
              "internalType": "uint256",
              "name": "collateralFactor",
              "type": "uint256"
            },
            {
              "internalType": "uint256",
              "name": "reserveFactor",
              "type": "uint256"
            },
            {
              "internalType": "uint256",
              "name": "adminFee",
              "type": "uint256"
            },
            {
              "internalType": "uint256",
              "name": "fuseFee",
              "type": "uint256"
            },
            {
              "internalType": "bool",
              "name": "borrowGuardianPaused",
              "type": "bool"
            }
          ],
          "internalType": "struct FusePoolLens.FusePoolAsset[]",
          "name": "",
          "type": "tuple[]"
        }
      ],
      "stateMutability": "nonpayable",
      "type": "function"
    },
    {
      "inputs": [
        {
          "internalType": "contract IComptroller",
          "name": "comptroller",
          "type": "address"
        }
      ],
      "name": "getPoolAssetsWithData",
      "outputs": [
        {
          "components": [
            {
              "internalType": "address",
              "name": "cToken",
              "type": "address"
            },
            {
              "internalType": "address",
              "name": "underlyingToken",
              "type": "address"
            },
            {
              "internalType": "string",
              "name": "underlyingName",
              "type": "string"
            },
            {
              "internalType": "string",
              "name": "underlyingSymbol",
              "type": "string"
            },
            {
              "internalType": "uint256",
              "name": "underlyingDecimals",
              "type": "uint256"
            },
            {
              "internalType": "uint256",
              "name": "underlyingBalance",
              "type": "uint256"
            },
            {
              "internalType": "uint256",
              "name": "supplyRatePerBlock",
              "type": "uint256"
            },
            {
              "internalType": "uint256",
              "name": "borrowRatePerBlock",
              "type": "uint256"
            },
            {
              "internalType": "uint256",
              "name": "totalSupply",
              "type": "uint256"
            },
            {
              "internalType": "uint256",
              "name": "totalBorrow",
              "type": "uint256"
            },
            {
              "internalType": "uint256",
              "name": "supplyBalance",
              "type": "uint256"
            },
            {
              "internalType": "uint256",
              "name": "borrowBalance",
              "type": "uint256"
            },
            {
              "internalType": "uint256",
              "name": "liquidity",
              "type": "uint256"
            },
            {
              "internalType": "bool",
              "name": "membership",
              "type": "bool"
            },
            {
              "internalType": "uint256",
              "name": "exchangeRate",
              "type": "uint256"
            },
            {
              "internalType": "uint256",
              "name": "underlyingPrice",
              "type": "uint256"
            },
            {
              "internalType": "address",
              "name": "oracle",
              "type": "address"
            },
            {
              "internalType": "uint256",
              "name": "collateralFactor",
              "type": "uint256"
            },
            {
              "internalType": "uint256",
              "name": "reserveFactor",
              "type": "uint256"
            },
            {
              "internalType": "uint256",
              "name": "adminFee",
              "type": "uint256"
            },
            {
              "internalType": "uint256",
              "name": "fuseFee",
              "type": "uint256"
            },
            {
              "internalType": "bool",
              "name": "borrowGuardianPaused",
              "type": "bool"
            }
          ],
          "internalType": "struct FusePoolLens.FusePoolAsset[]",
          "name": "",
          "type": "tuple[]"
        }
      ],
      "stateMutability": "nonpayable",
      "type": "function"
    },
    {
      "inputs": [
        {
          "internalType": "contract IComptroller",
          "name": "comptroller",
          "type": "address"
        }
      ],
      "name": "getPoolSummary",
      "outputs": [
        {
          "internalType": "uint256",
          "name": "",
          "type": "uint256"
        },
        {
          "internalType": "uint256",
          "name": "",
          "type": "uint256"
        },
        {
          "internalType": "address[]",
          "name": "",
          "type": "address[]"
        },
        {
          "internalType": "string[]",
          "name": "",
          "type": "string[]"
        },
        {
          "internalType": "bool",
          "name": "",
          "type": "bool"
        }
      ],
      "stateMutability": "nonpayable",
      "type": "function"
    },
    {
      "inputs": [
        {
          "internalType": "contract IComptroller[]",
          "name": "comptrollers",
          "type": "address[]"
        },
        {
          "internalType": "uint256",
          "name": "maxHealth",
          "type": "uint256"
        }
      ],
      "name": "getPoolUsersWithData",
      "outputs": [
        {
          "components": [
            {
              "internalType": "address",
              "name": "account",
              "type": "address"
            },
            {
              "internalType": "uint256",
              "name": "totalBorrow",
              "type": "uint256"
            },
            {
              "internalType": "uint256",
              "name": "totalCollateral",
              "type": "uint256"
            },
            {
              "internalType": "uint256",
              "name": "health",
              "type": "uint256"
            }
          ],
          "internalType": "struct FusePoolLens.FusePoolUser[][]",
          "name": "",
          "type": "tuple[][]"
        },
        {
          "internalType": "uint256[]",
          "name": "",
          "type": "uint256[]"
        },
        {
          "internalType": "uint256[]",
          "name": "",
          "type": "uint256[]"
        },
        {
          "internalType": "bool[]",
          "name": "",
          "type": "bool[]"
        }
      ],
      "stateMutability": "nonpayable",
      "type": "function"
    },
    {
      "inputs": [
        {
          "internalType": "contract IComptroller",
          "name": "comptroller",
          "type": "address"
        },
        {
          "internalType": "uint256",
          "name": "maxHealth",
          "type": "uint256"
        }
      ],
      "name": "getPoolUsersWithData",
      "outputs": [
        {
          "components": [
            {
              "internalType": "address",
              "name": "account",
              "type": "address"
            },
            {
              "internalType": "uint256",
              "name": "totalBorrow",
              "type": "uint256"
            },
            {
              "internalType": "uint256",
              "name": "totalCollateral",
              "type": "uint256"
            },
            {
              "internalType": "uint256",
              "name": "health",
              "type": "uint256"
            }
          ],
          "internalType": "struct FusePoolLens.FusePoolUser[]",
          "name": "",
          "type": "tuple[]"
        },
        {
          "internalType": "uint256",
          "name": "",
          "type": "uint256"
        },
        {
          "internalType": "uint256",
          "name": "",
          "type": "uint256"
        }
      ],
      "stateMutability": "nonpayable",
      "type": "function"
    },
    {
      "inputs": [
        {
          "internalType": "address",
          "name": "account",
          "type": "address"
        }
      ],
      "name": "getPoolsByAccountWithData",
      "outputs": [
        {
          "internalType": "uint256[]",
          "name": "",
          "type": "uint256[]"
        },
        {
          "components": [
            {
              "internalType": "string",
              "name": "name",
              "type": "string"
            },
            {
              "internalType": "address",
              "name": "creator",
              "type": "address"
            },
            {
              "internalType": "address",
              "name": "comptroller",
              "type": "address"
            },
            {
              "internalType": "uint256",
              "name": "blockPosted",
              "type": "uint256"
            },
            {
              "internalType": "uint256",
              "name": "timestampPosted",
              "type": "uint256"
            }
          ],
          "internalType": "struct FusePoolDirectory.FusePool[]",
          "name": "",
          "type": "tuple[]"
        },
        {
          "components": [
            {
              "internalType": "uint256",
              "name": "totalSupply",
              "type": "uint256"
            },
            {
              "internalType": "uint256",
              "name": "totalBorrow",
              "type": "uint256"
            },
            {
              "internalType": "address[]",
              "name": "underlyingTokens",
              "type": "address[]"
            },
            {
              "internalType": "string[]",
              "name": "underlyingSymbols",
              "type": "string[]"
            },
            {
              "internalType": "bool",
              "name": "whitelistedAdmin",
              "type": "bool"
            }
          ],
          "internalType": "struct FusePoolLens.FusePoolData[]",
          "name": "",
          "type": "tuple[]"
        },
        {
          "internalType": "bool[]",
          "name": "",
          "type": "bool[]"
        }
      ],
      "stateMutability": "nonpayable",
      "type": "function"
    },
    {
      "inputs": [
        {
          "internalType": "address",
          "name": "account",
          "type": "address"
        }
      ],
      "name": "getPoolsBySupplier",
      "outputs": [
        {
          "internalType": "uint256[]",
          "name": "",
          "type": "uint256[]"
        },
        {
          "components": [
            {
              "internalType": "string",
              "name": "name",
              "type": "string"
            },
            {
              "internalType": "address",
              "name": "creator",
              "type": "address"
            },
            {
              "internalType": "address",
              "name": "comptroller",
              "type": "address"
            },
            {
              "internalType": "uint256",
              "name": "blockPosted",
              "type": "uint256"
            },
            {
              "internalType": "uint256",
              "name": "timestampPosted",
              "type": "uint256"
            }
          ],
          "internalType": "struct FusePoolDirectory.FusePool[]",
          "name": "",
          "type": "tuple[]"
        }
      ],
      "stateMutability": "view",
      "type": "function"
    },
    {
      "inputs": [
        {
          "internalType": "address",
          "name": "account",
          "type": "address"
        }
      ],
      "name": "getPoolsBySupplierWithData",
      "outputs": [
        {
          "internalType": "uint256[]",
          "name": "",
          "type": "uint256[]"
        },
        {
          "components": [
            {
              "internalType": "string",
              "name": "name",
              "type": "string"
            },
            {
              "internalType": "address",
              "name": "creator",
              "type": "address"
            },
            {
              "internalType": "address",
              "name": "comptroller",
              "type": "address"
            },
            {
              "internalType": "uint256",
              "name": "blockPosted",
              "type": "uint256"
            },
            {
              "internalType": "uint256",
              "name": "timestampPosted",
              "type": "uint256"
            }
          ],
          "internalType": "struct FusePoolDirectory.FusePool[]",
          "name": "",
          "type": "tuple[]"
        },
        {
          "components": [
            {
              "internalType": "uint256",
              "name": "totalSupply",
              "type": "uint256"
            },
            {
              "internalType": "uint256",
              "name": "totalBorrow",
              "type": "uint256"
            },
            {
              "internalType": "address[]",
              "name": "underlyingTokens",
              "type": "address[]"
            },
            {
              "internalType": "string[]",
              "name": "underlyingSymbols",
              "type": "string[]"
            },
            {
              "internalType": "bool",
              "name": "whitelistedAdmin",
              "type": "bool"
            }
          ],
          "internalType": "struct FusePoolLens.FusePoolData[]",
          "name": "",
          "type": "tuple[]"
        },
        {
          "internalType": "bool[]",
          "name": "",
          "type": "bool[]"
        }
      ],
      "stateMutability": "nonpayable",
      "type": "function"
    },
    {
      "inputs": [
        {
          "internalType": "uint256",
          "name": "maxHealth",
          "type": "uint256"
        }
      ],
      "name": "getPublicPoolUsersWithData",
      "outputs": [
        {
          "internalType": "contract IComptroller[]",
          "name": "",
          "type": "address[]"
        },
        {
          "components": [
            {
              "internalType": "address",
              "name": "account",
              "type": "address"
            },
            {
              "internalType": "uint256",
              "name": "totalBorrow",
              "type": "uint256"
            },
            {
              "internalType": "uint256",
              "name": "totalCollateral",
              "type": "uint256"
            },
            {
              "internalType": "uint256",
              "name": "health",
              "type": "uint256"
            }
          ],
          "internalType": "struct FusePoolLens.FusePoolUser[][]",
          "name": "",
          "type": "tuple[][]"
        },
        {
          "internalType": "uint256[]",
          "name": "",
          "type": "uint256[]"
        },
        {
          "internalType": "uint256[]",
          "name": "",
          "type": "uint256[]"
        },
        {
          "internalType": "bool[]",
          "name": "",
          "type": "bool[]"
        }
      ],
      "stateMutability": "nonpayable",
      "type": "function"
    },
    {
      "inputs": [
        {
          "internalType": "bool",
          "name": "whitelistedAdmin",
          "type": "bool"
        }
      ],
      "name": "getPublicPoolsByVerificationWithData",
      "outputs": [
        {
          "internalType": "uint256[]",
          "name": "",
          "type": "uint256[]"
        },
        {
          "components": [
            {
              "internalType": "string",
              "name": "name",
              "type": "string"
            },
            {
              "internalType": "address",
              "name": "creator",
              "type": "address"
            },
            {
              "internalType": "address",
              "name": "comptroller",
              "type": "address"
            },
            {
              "internalType": "uint256",
              "name": "blockPosted",
              "type": "uint256"
            },
            {
              "internalType": "uint256",
              "name": "timestampPosted",
              "type": "uint256"
            }
          ],
          "internalType": "struct FusePoolDirectory.FusePool[]",
          "name": "",
          "type": "tuple[]"
        },
        {
          "components": [
            {
              "internalType": "uint256",
              "name": "totalSupply",
              "type": "uint256"
            },
            {
              "internalType": "uint256",
              "name": "totalBorrow",
              "type": "uint256"
            },
            {
              "internalType": "address[]",
              "name": "underlyingTokens",
              "type": "address[]"
            },
            {
              "internalType": "string[]",
              "name": "underlyingSymbols",
              "type": "string[]"
            },
            {
              "internalType": "bool",
              "name": "whitelistedAdmin",
              "type": "bool"
            }
          ],
          "internalType": "struct FusePoolLens.FusePoolData[]",
          "name": "",
          "type": "tuple[]"
        },
        {
          "internalType": "bool[]",
          "name": "",
          "type": "bool[]"
        }
      ],
      "stateMutability": "nonpayable",
      "type": "function"
    },
    {
      "inputs": [],
      "name": "getPublicPoolsWithData",
      "outputs": [
        {
          "internalType": "uint256[]",
          "name": "",
          "type": "uint256[]"
        },
        {
          "components": [
            {
              "internalType": "string",
              "name": "name",
              "type": "string"
            },
            {
              "internalType": "address",
              "name": "creator",
              "type": "address"
            },
            {
              "internalType": "address",
              "name": "comptroller",
              "type": "address"
            },
            {
              "internalType": "uint256",
              "name": "blockPosted",
              "type": "uint256"
            },
            {
              "internalType": "uint256",
              "name": "timestampPosted",
              "type": "uint256"
            }
          ],
          "internalType": "struct FusePoolDirectory.FusePool[]",
          "name": "",
          "type": "tuple[]"
        },
        {
          "components": [
            {
              "internalType": "uint256",
              "name": "totalSupply",
              "type": "uint256"
            },
            {
              "internalType": "uint256",
              "name": "totalBorrow",
              "type": "uint256"
            },
            {
              "internalType": "address[]",
              "name": "underlyingTokens",
              "type": "address[]"
            },
            {
              "internalType": "string[]",
              "name": "underlyingSymbols",
              "type": "string[]"
            },
            {
              "internalType": "bool",
              "name": "whitelistedAdmin",
              "type": "bool"
            }
          ],
          "internalType": "struct FusePoolLens.FusePoolData[]",
          "name": "",
          "type": "tuple[]"
        },
        {
          "internalType": "bool[]",
          "name": "",
          "type": "bool[]"
        }
      ],
      "stateMutability": "nonpayable",
      "type": "function"
    },
    {
      "inputs": [
        {
          "internalType": "address",
          "name": "account",
          "type": "address"
        }
      ],
      "name": "getWhitelistedPoolsByAccount",
      "outputs": [
        {
          "internalType": "uint256[]",
          "name": "",
          "type": "uint256[]"
        },
        {
          "components": [
            {
              "internalType": "string",
              "name": "name",
              "type": "string"
            },
            {
              "internalType": "address",
              "name": "creator",
              "type": "address"
            },
            {
              "internalType": "address",
              "name": "comptroller",
              "type": "address"
            },
            {
              "internalType": "uint256",
              "name": "blockPosted",
              "type": "uint256"
            },
            {
              "internalType": "uint256",
              "name": "timestampPosted",
              "type": "uint256"
            }
          ],
          "internalType": "struct FusePoolDirectory.FusePool[]",
          "name": "",
          "type": "tuple[]"
        }
      ],
      "stateMutability": "view",
      "type": "function"
    },
    {
      "inputs": [
        {
          "internalType": "address",
          "name": "account",
          "type": "address"
        }
      ],
      "name": "getWhitelistedPoolsByAccountWithData",
      "outputs": [
        {
          "internalType": "uint256[]",
          "name": "",
          "type": "uint256[]"
        },
        {
          "components": [
            {
              "internalType": "string",
              "name": "name",
              "type": "string"
            },
            {
              "internalType": "address",
              "name": "creator",
              "type": "address"
            },
            {
              "internalType": "address",
              "name": "comptroller",
              "type": "address"
            },
            {
              "internalType": "uint256",
              "name": "blockPosted",
              "type": "uint256"
            },
            {
              "internalType": "uint256",
              "name": "timestampPosted",
              "type": "uint256"
            }
          ],
          "internalType": "struct FusePoolDirectory.FusePool[]",
          "name": "",
          "type": "tuple[]"
        },
        {
          "components": [
            {
              "internalType": "uint256",
              "name": "totalSupply",
              "type": "uint256"
            },
            {
              "internalType": "uint256",
              "name": "totalBorrow",
              "type": "uint256"
            },
            {
              "internalType": "address[]",
              "name": "underlyingTokens",
              "type": "address[]"
            },
            {
              "internalType": "string[]",
              "name": "underlyingSymbols",
              "type": "string[]"
            },
            {
              "internalType": "bool",
              "name": "whitelistedAdmin",
              "type": "bool"
            }
          ],
          "internalType": "struct FusePoolLens.FusePoolData[]",
          "name": "",
          "type": "tuple[]"
        },
        {
          "internalType": "bool[]",
          "name": "",
          "type": "bool[]"
        }
      ],
      "stateMutability": "nonpayable",
      "type": "function"
    },
    {
      "inputs": [
        {
          "internalType": "contract FusePoolDirectory",
          "name": "_directory",
          "type": "address"
        },
        {
          "internalType": "string",
          "name": "_name",
          "type": "string"
        },
        {
          "internalType": "string",
          "name": "_symbol",
          "type": "string"
        },
        {
          "internalType": "address[]",
          "name": "_hardcodedAddresses",
          "type": "address[]"
        },
        {
          "internalType": "string[]",
          "name": "_hardcodedNames",
          "type": "string[]"
        },
        {
          "internalType": "string[]",
          "name": "_hardcodedSymbols",
          "type": "string[]"
        },
        {
          "internalType": "string[]",
          "name": "_uniswapLPTokenNames",
          "type": "string[]"
        },
        {
          "internalType": "string[]",
          "name": "_uniswapLPTokenSymbols",
          "type": "string[]"
        },
        {
          "internalType": "string[]",
          "name": "_uniswapLPTokenDisplayNames",
          "type": "string[]"
        }
      ],
      "name": "initialize",
      "outputs": [],
      "stateMutability": "nonpayable",
      "type": "function"
    },
    {
      "inputs": [],
      "name": "name",
      "outputs": [
        {
          "internalType": "string",
          "name": "",
          "type": "string"
        }
      ],
      "stateMutability": "view",
      "type": "function"
    },
    {
      "inputs": [],
      "name": "symbol",
      "outputs": [
        {
          "internalType": "string",
          "name": "",
          "type": "string"
        }
      ],
      "stateMutability": "view",
      "type": "function"
    },
    {
      "inputs": [
        {
          "internalType": "contract ICToken",
          "name": "cToken",
          "type": "address"
        },
        {
          "components": [
            {
              "internalType": "bytes",
              "name": "block",
              "type": "bytes"
            },
            {
              "internalType": "bytes",
              "name": "accountProofNodesRlp",
              "type": "bytes"
            },
            {
              "internalType": "bytes",
              "name": "reserveAndTimestampProofNodesRlp",
              "type": "bytes"
            },
            {
              "internalType": "bytes",
              "name": "priceAccumulatorProofNodesRlp",
              "type": "bytes"
            }
          ],
          "internalType": "struct UniswapOracle.ProofData",
          "name": "proofData",
          "type": "tuple"
        }
      ],
      "name": "verifyPrice",
      "outputs": [
        {
          "internalType": "uint256",
          "name": "",
          "type": "uint256"
        },
        {
          "internalType": "uint256",
          "name": "",
          "type": "uint256"
        }
      ],
      "stateMutability": "nonpayable",
      "type": "function"
    }
  ],
  "bytecode": {
    "object": "0x608060405234801561001057600080fd5b5061554c806100206000396000f3fe608060405234801561001057600080fd5b50600436106101165760003560e01c806370733375116100a2578063c41c2f2411610071578063c41c2f241461026f578063cd344be81461029a578063d0a164fb146102c2578063d64996e5146102ca578063dedfe22f146102dd57600080fd5b8063707333751461021f57806395d89b41146102325780639c00a3d41461023a578063c3530a631461025c57600080fd5b80633a1eb656116100e95780633a1eb6561461018d57806351678684146101a2578063586f6c10146101c557806359d2fea6146101e8578063635629e61461020c57600080fd5b806306fdde031461011b5780630b9c80bd146101395780630c5eb5a41461015a57806327e16c1f1461017a575b600080fd5b610123610301565b604051610130919061404a565b60405180910390f35b61014c61014736600461407c565b61038f565b60405161013092919061416e565b61016d61016836600461419c565b610908565b60405161013091906141d5565b61016d61018836600461407c565b610990565b6101a061019b36600461457e565b610a08565b005b6101b56101b036600461407c565b610d08565b6040516101309493929190614781565b6101d86101d3366004614861565b610dab565b60405161013094939291906149a1565b6101fb6101f636600461407c565b61102e565b6040516101309594939291906149f9565b6101b561021a36600461407c565b611877565b6101b561022d36600461407c565b611889565b61012361189b565b61024d610248366004614a3f565b6118a8565b60405161013093929190614a6b565b61014c61026a36600461407c565b611fdc565b600554610282906001600160a01b031681565b6040516001600160a01b039091168152602001610130565b6102ad6102a8366004614a90565b6122f9565b60408051928352602083019190915201610130565b6101b5612441565b6101b56102d8366004614ae9565b6124e6565b6102f06102eb366004614b06565b612526565b604051610130959493929190614b1f565b6001805461030e90614bbe565b80601f016020809104026020016040519081016040528092919081815260200182805461033a90614bbe565b80156103875780601f1061035c57610100808354040283529160200191610387565b820191906000526020600020905b81548152906001019060200180831161036a57829003601f168201915b505050505081565b6060806000600560009054906101000a90046001600160a01b03166001600160a01b031663d88ff1f46040518163ffffffff1660e01b8152600401600060405180830381865afa1580156103e7573d6000803e3d6000fd5b505050506040513d6000823e601f3d908101601f1916820160405261040f9190810190614d33565b90506000805b825181101561060557600083828151811061043257610432614d67565b6020026020010151604001519050806001600160a01b03166316dc15fe886040518263ffffffff1660e01b815260040161047b91906001600160a01b0391909116815260200190565b602060405180830381865afa9250505080156104b4575060408051601f3d908101601f191682019092526104b191810190614d88565b60015b6104bd576105f2565b80156105f0576000826001600160a01b031663b0772d0b6040518163ffffffff1660e01b8152600401600060405180830381865afa158015610503573d6000803e3d6000fd5b505050506040513d6000823e601f3d908101601f1916820160405261052b9190810190614da5565b905060005b81518110156105ed57600082828151811061054d5761054d614d67565b60209081029190910101516040516370a0823160e01b81526001600160a01b038d81166004830152909116906370a0823190602401602060405180830381865afa15801561059f573d6000803e3d6000fd5b505050506040513d601f19601f820116820180604052508101906105c39190614e33565b11156105db57856105d381614e62565b9650506105ed565b806105e581614e62565b915050610530565b50505b505b50806105fd81614e62565b915050610415565b506000816001600160401b0381111561062057610620614360565b604051908082528060200260200182016040528015610649578160200160208202803683370190505b5090506000826001600160401b0381111561066657610666614360565b60405190808252806020026020018201604052801561069f57816020015b61068c613e4e565b8152602001906001900390816106845790505b5090506000805b85518110156108fa5760008682815181106106c3576106c3614d67565b6020026020010151604001519050806001600160a01b03166316dc15fe8b6040518263ffffffff1660e01b815260040161070c91906001600160a01b0391909116815260200190565b602060405180830381865afa925050508015610745575060408051601f3d908101601f1916820190925261074291810190614d88565b60015b61074e576108e7565b80156108e5576000826001600160a01b031663b0772d0b6040518163ffffffff1660e01b8152600401600060405180830381865afa158015610794573d6000803e3d6000fd5b505050506040513d6000823e601f3d908101601f191682016040526107bc9190810190614da5565b905060005b81518110156108e25760008282815181106107de576107de614d67565b60200260200101516001600160a01b03166370a082318f6040518263ffffffff1660e01b815260040161082091906001600160a01b0391909116815260200190565b602060405180830381865afa15801561083d573d6000803e3d6000fd5b505050506040513d601f19601f820116820180604052508101906108619190614e33565b11156108d0578488878151811061087a5761087a614d67565b60200260200101818152505089858151811061089857610898614d67565b60200260200101518787815181106108b2576108b2614d67565b602002602001018190525085806108c890614e62565b9650506108e2565b806108da81614e62565b9150506107c1565b50505b505b50806108f281614e62565b9150506106a6565b509197909650945050505050565b604051632aff3bff60e21b81526001600160a01b03828116600483015260609160009161098891869182169063abfceffc90602401600060405180830381865afa15801561095a573d6000803e3d6000fd5b505050506040513d6000823e601f3d908101601f191682016040526109829190810190614da5565b85612683565b949350505050565b6060610a0282836001600160a01b031663b0772d0b6040518163ffffffff1660e01b8152600401600060405180830381865afa1580156109d4573d6000803e3d6000fd5b505050506040513d6000823e601f3d908101601f191682016040526109fc9190810190614da5565b33612683565b92915050565b6000610a1460016133e3565b90508015610a2c576000805461ff0019166101001790555b6001600160a01b038a16610aa65760405162461bcd60e51b815260206004820152603660248201527f46757365506f6f6c4469726563746f727920696e7374616e63652063616e6e6f6044820152753a103132903a3432903d32b9379030b2323932b9b99760511b60648201526084015b60405180910390fd5b600580546001600160a01b0319166001600160a01b038c161790558851610ad49060019060208c0190613e8f565b508751610ae89060029060208b0190613e8f565b5060005b8751811015610bc6576040518060400160405280888381518110610b1257610b12614d67565b60200260200101518152602001878381518110610b3157610b31614d67565b6020026020010151815250600360008a8481518110610b5257610b52614d67565b60200260200101516001600160a01b03166001600160a01b031681526020019081526020016000206000820151816000019080519060200190610b96929190613e8f565b506020828101518051610baf9260018501920190613e8f565b509050508080610bbe90614e62565b915050610aec565b5060005b8451811015610cb55760046040518060600160405280878481518110610bf257610bf2614d67565b60200260200101518152602001868481518110610c1157610c11614d67565b60200260200101518152602001858481518110610c3057610c30614d67565b602090810291909101810151909152825460018101845560009384529281902082518051939460030290910192610c6a9284920190613e8f565b506020828101518051610c839260018501920190613e8f565b5060408201518051610c9f916002840191602090910190613e8f565b5050508080610cad90614e62565b915050610bca565b508015610cfc576000805461ff0019169055604051600181527f7f26b83ff96e1f2b6a682f133852f6798a09c465da95921460cefb38474024989060200160405180910390a15b50505050505050505050565b6005546040516351f6c8e360e11b81526001600160a01b03838116600483015260609283928392839260009283929091169063a3ed91c6906024015b600060405180830381865afa158015610d61573d6000803e3d6000fd5b505050506040513d6000823e601f3d908101601f19168201604052610d899190810190614e7d565b91509150600080610d9983613470565b949a9399509750929550909350505050565b606080606080600086516001600160401b03811115610dcc57610dcc614360565b604051908082528060200260200182016040528015610dff57816020015b6060815260200190600190039081610dea5790505b509050600087516001600160401b03811115610e1d57610e1d614360565b604051908082528060200260200182016040528015610e46578160200160208202803683370190505b509050600088516001600160401b03811115610e6457610e64614360565b604051908082528060200260200182016040528015610e8d578160200160208202803683370190505b509050600089516001600160401b03811115610eab57610eab614360565b604051908082528060200260200182016040528015610ed4578160200160208202803683370190505b50905060005b8a5181101561101d57306001600160a01b0316639c00a3d48c8381518110610f0457610f04614d67565b60200260200101518c6040518363ffffffff1660e01b8152600401610f3e9291906001600160a01b03929092168252602082015260400190565b6000604051808303816000875af1925050508015610f7e57506040513d6000823e601f3d908101601f19168201604052610f7b9190810190614f38565b60015b610fab576001828281518110610f9657610f96614d67565b9115156020928302919091019091015261100b565b82888581518110610fbe57610fbe614d67565b602002602001018190525081878581518110610fdc57610fdc614d67565b60200260200101818152505080868581518110610ffb57610ffb614d67565b6020026020010181815250505050505b8061101581614e62565b915050610eda565b509299919850965090945092505050565b60008060608060008060009050600080886001600160a01b031663b0772d0b6040518163ffffffff1660e01b8152600401600060405180830381865afa15801561107c573d6000803e3d6000fd5b505050506040513d6000823e601f3d908101601f191682016040526110a49190810190614da5565b9050600081516001600160401b038111156110c1576110c1614360565b6040519080825280602002602001820160405280156110ea578160200160208202803683370190505b509050600082516001600160401b0381111561110857611108614360565b60405190808252806020026020018201604052801561113b57816020015b60608152602001906001900390816111265790505b50905060008b6001600160a01b0316637dc0d1d06040518163ffffffff1660e01b8152600401602060405180830381865afa15801561117e573d6000803e3d6000fd5b505050506040513d601f19601f820116820180604052508101906111a2919061501d565b905060005b845181101561176f5760008582815181106111c4576111c4614d67565b6020026020010151905060008e6001600160a01b0316638e8f294b836040518263ffffffff1660e01b815260040161120b91906001600160a01b0391909116815260200190565b6040805180830381865afa158015611227573d6000803e3d6000fd5b505050506040513d601f19601f8201168201806040525081019061124b919061503a565b5090508061125a57505061175d565b6000826001600160a01b03166373acee986040518163ffffffff1660e01b81526004016020604051808303816000875af115801561129c573d6000803e3d6000fd5b505050506040513d601f19601f820116820180604052508101906112c09190614e33565b90506000836001600160a01b031663dc028ab16040518163ffffffff1660e01b8152600401602060405180830381865afa158015611302573d6000803e3d6000fd5b505050506040513d601f19601f820116820180604052508101906113269190614e33565b846001600160a01b03166361feacff6040518163ffffffff1660e01b8152600401602060405180830381865afa158015611364573d6000803e3d6000fd5b505050506040513d601f19601f820116820180604052508101906113889190614e33565b856001600160a01b0316638f840ddd6040518163ffffffff1660e01b8152600401602060405180830381865afa1580156113c6573d6000803e3d6000fd5b505050506040513d601f19601f820116820180604052508101906113ea9190614e33565b6113f49190615068565b6113fe9190615068565b82856001600160a01b0316633b1d21a26040518163ffffffff1660e01b8152600401602060405180830381865afa15801561143d573d6000803e3d6000fd5b505050506040513d601f19601f820116820180604052508101906114619190614e33565b61146b9190615068565b6114759190615080565b60405163fc57d4df60e01b81526001600160a01b03868116600483015291925060009188169063fc57d4df90602401602060405180830381865afa1580156114c1573d6000803e3d6000fd5b505050506040513d601f19601f820116820180604052508101906114e59190614e33565b9050670de0b6b3a76400006114fa8285615097565b61150491906150b6565b61150e908d615068565b9b50670de0b6b3a76400006115238284615097565b61152d91906150b6565b611537908c615068565b9a50846001600160a01b031663ac784ddc6040518163ffffffff1660e01b8152600401602060405180830381865afa158015611577573d6000803e3d6000fd5b505050506040513d601f19601f8201168201806040525081019061159b9190614d88565b156116815760008987815181106115b4576115b4614d67565b60200260200101906001600160a01b031690816001600160a01b031681525050600280546115e190614bbe565b80601f016020809104026020016040519081016040528092919081815260200182805461160d90614bbe565b801561165a5780601f1061162f5761010080835404028352916020019161165a565b820191906000526020600020905b81548152906001019060200180831161163d57829003601f168201915b505050505088878151811061167157611671614d67565b6020026020010181905250611757565b846001600160a01b0316636f307dc36040518163ffffffff1660e01b8152600401602060405180830381865afa1580156116bf573d6000803e3d6000fd5b505050506040513d601f19601f820116820180604052508101906116e3919061501d565b8987815181106116f5576116f5614d67565b60200260200101906001600160a01b031690816001600160a01b03168152505061173789878151811061172a5761172a614d67565b6020026020010151613677565b905088878151811061174b5761174b614d67565b60200260200101819052505b50505050505b8061176781614e62565b9150506111a7565b506000600560009054906101000a90046001600160a01b03166001600160a01b03166343e20a1d8e6001600160a01b031663f851a4406040518163ffffffff1660e01b8152600401602060405180830381865afa1580156117d4573d6000803e3d6000fd5b505050506040513d601f19601f820116820180604052508101906117f8919061501d565b6040516001600160e01b031960e084901b1681526001600160a01b039091166004820152602401602060405180830381865afa15801561183c573d6000803e3d6000fd5b505050506040513d601f19601f820116820180604052508101906118609190614d88565b959d969c50929a5090985092965092945050505050565b606080606080600080610d898761038f565b606080606080600080610d8987611fdc565b6002805461030e90614bbe565b60606000806000856001600160a01b03166332abcdbe6040518163ffffffff1660e01b8152600401600060405180830381865afa1580156118ed573d6000803e3d6000fd5b505050506040513d6000823e601f3d908101601f19168201604052611915919081019061513c565b90506000805b8251811015611b9e5760008060006119e58b8c6001600160a01b031663abfceffc89888151811061194e5761194e614d67565b60200260200101516040518263ffffffff1660e01b815260040161198191906001600160a01b0391909116815260200190565b600060405180830381865afa15801561199e573d6000803e3d6000fd5b505050506040513d6000823e601f3d908101601f191682016040526119c69190810190614da5565b8887815181106119d8576119d8614d67565b6020026020010151612683565b905060005b8151811015611b3457670de0b6b3a7640000828281518110611a0e57611a0e614d67565b60200260200101516101e00151838381518110611a2d57611a2d614d67565b60200260200101516101600151611a449190615097565b611a4e91906150b6565b611a589085615068565b9350818181518110611a6c57611a6c614d67565b60200260200101516101a0015115611b2257670de0b6b3a7640000828281518110611a9957611a99614d67565b60200260200101516102200151670de0b6b3a7640000848481518110611ac157611ac1614d67565b60200260200101516101e00151858581518110611ae057611ae0614d67565b60200260200101516101400151611af79190615097565b611b0191906150b6565b611b0b9190615097565b611b1591906150b6565b611b1f9084615068565b92505b80611b2c81614e62565b9150506119ea565b506000808411611b53576ec097ce7bc90715b34b9f1000000000611b70565b83611b6684670de0b6b3a7640000615097565b611b7091906150b6565b90508a8111611b875785611b8381614e62565b9650505b505050508080611b9690614e62565b91505061191b565b506000816001600160401b03811115611bb957611bb9614360565b604051908082528060200260200182016040528015611c1e57816020015b611c0b604051806080016040528060006001600160a01b031681526020016000815260200160008152602001600081525090565b815260200190600190039081611bd75790505b5090506000805b8451811015611f05576000806000611ce28d8e6001600160a01b031663abfceffc8b8881518110611c5857611c58614d67565b60200260200101516040518263ffffffff1660e01b8152600401611c8b91906001600160a01b0391909116815260200190565b600060405180830381865afa158015611ca8573d6000803e3d6000fd5b505050506040513d6000823e601f3d908101601f19168201604052611cd09190810190614da5565b8a87815181106119d8576119d8614d67565b905060005b8151811015611e3157670de0b6b3a7640000828281518110611d0b57611d0b614d67565b60200260200101516101e00151838381518110611d2a57611d2a614d67565b60200260200101516101600151611d419190615097565b611d4b91906150b6565b611d559085615068565b9350818181518110611d6957611d69614d67565b60200260200101516101a0015115611e1f57670de0b6b3a7640000828281518110611d9657611d96614d67565b60200260200101516102200151670de0b6b3a7640000848481518110611dbe57611dbe614d67565b60200260200101516101e00151858581518110611ddd57611ddd614d67565b60200260200101516101400151611df49190615097565b611dfe91906150b6565b611e089190615097565b611e1291906150b6565b611e1c9084615068565b92505b80611e2981614e62565b915050611ce7565b506000808411611e50576ec097ce7bc90715b34b9f1000000000611e6d565b83611e6384670de0b6b3a7640000615097565b611e6d91906150b6565b90508c811115611e805750505050611ef3565b60405180608001604052808a8781518110611e9d57611e9d614d67565b60200260200101516001600160a01b0316815260200185815260200184815260200182815250878781518110611ed557611ed5614d67565b60200260200101819052508580611eeb90614e62565b965050505050505b80611efd81614e62565b915050611c25565b5081896001600160a01b031663e87554466040518163ffffffff1660e01b8152600401602060405180830381865afa158015611f45573d6000803e3d6000fd5b505050506040513d601f19601f82011682018060405250810190611f699190614e33565b8a6001600160a01b0316634ada90af6040518163ffffffff1660e01b8152600401602060405180830381865afa158015611fa7573d6000803e3d6000fd5b505050506040513d601f19601f82011682018060405250810190611fcb9190614e33565b965096509650505050509250925092565b6060806000600560009054906101000a90046001600160a01b03166001600160a01b031663d88ff1f46040518163ffffffff1660e01b8152600401600060405180830381865afa158015612034573d6000803e3d6000fd5b505050506040513d6000823e601f3d908101601f1916820160405261205c9190810190614d33565b90506000805b825181101561212f57600083828151811061207f5761207f614d67565b6020026020010151604001519050806001600160a01b0316639b19251a886040518263ffffffff1660e01b81526004016120c891906001600160a01b0391909116815260200190565b602060405180830381865afa1580156120e5573d6000803e3d6000fd5b505050506040513d601f19601f820116820180604052508101906121099190614d88565b1561211c578261211881614e62565b9350505b508061212781614e62565b915050612062565b506000816001600160401b0381111561214a5761214a614360565b604051908082528060200260200182016040528015612173578160200160208202803683370190505b5090506000826001600160401b0381111561219057612190614360565b6040519080825280602002602001820160405280156121c957816020015b6121b6613e4e565b8152602001906001900390816121ae5790505b5090506000805b85518110156108fa5760008682815181106121ed576121ed614d67565b6020026020010151604001519050806001600160a01b0316639b19251a8b6040518263ffffffff1660e01b815260040161223691906001600160a01b0391909116815260200190565b602060405180830381865afa158015612253573d6000803e3d6000fd5b505050506040513d601f19601f820116820180604052508101906122779190614d88565b156122e6578185848151811061228f5761228f614d67565b6020026020010181815250508682815181106122ad576122ad614d67565b60200260200101518484815181106122c7576122c7614d67565b602002602001018190525082806122dd90614e62565b935050506108fa565b50806122f181614e62565b9150506121d0565b6000806000846001600160a01b0316635fe3b5676040518163ffffffff1660e01b8152600401602060405180830381865afa15801561233c573d6000803e3d6000fd5b505050506040513d601f19601f82011682018060405250810190612360919061501d565b6001600160a01b0316637dc0d1d06040518163ffffffff1660e01b8152600401602060405180830381865afa15801561239d573d6000803e3d6000fd5b505050506040513d601f19601f820116820180604052508101906123c1919061501d565b6040516319a6897d60e31b81529091506001600160a01b0382169063cd344be8906123f290889088906004016151de565b60408051808303816000875af1158015612410573d6000803e3d6000fd5b505050506040513d601f19601f82011682018060405250810190612434919061528b565b92509250505b9250929050565b606080606080600080600560009054906101000a90046001600160a01b03166001600160a01b0316634ae26ea16040518163ffffffff1660e01b8152600401600060405180830381865afa15801561249d573d6000803e3d6000fd5b505050506040513d6000823e601f3d908101601f191682016040526124c59190810190614e7d565b915091506000806124d583613470565b949993985096509294509092505050565b6005546040516310c51ddf60e11b8152821515600482015260609182918291829160009182916001600160a01b039091169063218a3bbe90602401610d44565b6060806060806060806000600560009054906101000a90046001600160a01b03166001600160a01b0316634ae26ea16040518163ffffffff1660e01b8152600401600060405180830381865afa158015612584573d6000803e3d6000fd5b505050506040513d6000823e601f3d908101601f191682016040526125ac9190810190614e7d565b91505080516001600160401b038111156125c8576125c8614360565b6040519080825280602002602001820160405280156125f1578160200160208202803683370190505b50915060005b815181101561265a5781818151811061261257612612614d67565b60200260200101516040015183828151811061263057612630614d67565b6001600160a01b03909216602092830291909101909101528061265281614e62565b9150506125f7565b505060008060008061266c858c610dab565b979e929d50909b5099509497509395505050505050565b60606000805b8451811015612752576000866001600160a01b0316638e8f294b8784815181106126b5576126b5614d67565b60200260200101516040518263ffffffff1660e01b81526004016126e891906001600160a01b0391909116815260200190565b6040805180830381865afa158015612704573d6000803e3d6000fd5b505050506040513d601f19601f82011682018060405250810190612728919061503a565b509050801561273f578261273b81614e62565b9350505b508061274a81614e62565b915050612689565b506000816001600160401b0381111561276d5761276d614360565b6040519080825280602002602001820160405280156127a657816020015b612793613f13565b81526020019060019003908161278b5790505b509050600080876001600160a01b0316637dc0d1d06040518163ffffffff1660e01b8152600401602060405180830381865afa1580156127ea573d6000803e3d6000fd5b505050506040513d601f19601f8201168201806040525081019061280e919061501d565b905060005b87518110156133d6576000808a6001600160a01b0316638e8f294b8b858151811061284057612840614d67565b60200260200101516040518263ffffffff1660e01b815260040161287391906001600160a01b0391909116815260200190565b6040805180830381865afa15801561288f573d6000803e3d6000fd5b505050506040513d601f19601f820116820180604052508101906128b3919061503a565b91509150816128c35750506133c4565b6128cb613f13565b60008b85815181106128df576128df614d67565b6020908102919091018101516001600160a01b03811680855260408051632b1e137760e21b81529051929450909263ac784ddc926004808401938290030181865afa158015612932573d6000803e3d6000fd5b505050506040513d601f19601f820116820180604052508101906129569190614d88565b15612a9a576001805461296890614bbe565b80601f016020809104026020016040519081016040528092919081815260200182805461299490614bbe565b80156129e15780601f106129b6576101008083540402835291602001916129e1565b820191906000526020600020905b8154815290600101906020018083116129c457829003601f168201915b50505050508260400181905250600280546129fb90614bbe565b80601f0160208091040260200160405190810160405280929190818152602001828054612a2790614bbe565b8015612a745780601f10612a4957610100808354040283529160200191612a74565b820191906000526020600020905b815481529060010190602001808311612a5757829003601f168201915b50505050506060830152601260808301526001600160a01b038b163160a0830152612c00565b806001600160a01b0316636f307dc36040518163ffffffff1660e01b8152600401602060405180830381865afa158015612ad8573d6000803e3d6000fd5b505050506040513d601f19601f82011682018060405250810190612afc919061501d565b6001600160a01b031660208301819052612b1581613677565b84604001856060018290528290525050806001600160a01b031663313ce5676040518163ffffffff1660e01b8152600401602060405180830381865afa158015612b63573d6000803e3d6000fd5b505050506040513d601f19601f82011682018060405250810190612b8791906152af565b60ff1660808401526040516370a0823160e01b81526001600160a01b038d811660048301528216906370a0823190602401602060405180830381865afa158015612bd5573d6000803e3d6000fd5b505050506040513d601f19601f82011682018060405250810190612bf99190614e33565b60a0840152505b806001600160a01b031663ae9d70b06040518163ffffffff1660e01b8152600401602060405180830381865afa158015612c3e573d6000803e3d6000fd5b505050506040513d601f19601f82011682018060405250810190612c629190614e33565b8260c0018181525050806001600160a01b031663f8f9da286040518163ffffffff1660e01b8152600401602060405180830381865afa158015612ca9573d6000803e3d6000fd5b505050506040513d601f19601f82011682018060405250810190612ccd9190614e33565b8260e0018181525050806001600160a01b0316633b1d21a26040518163ffffffff1660e01b8152600401602060405180830381865afa158015612d14573d6000803e3d6000fd5b505050506040513d601f19601f82011682018060405250810190612d389190614e33565b82610180018181525050806001600160a01b03166373acee986040518163ffffffff1660e01b81526004016020604051808303816000875af1158015612d82573d6000803e3d6000fd5b505050506040513d601f19601f82011682018060405250810190612da69190614e33565b82610120018181525050806001600160a01b031663dc028ab16040518163ffffffff1660e01b8152600401602060405180830381865afa158015612dee573d6000803e3d6000fd5b505050506040513d601f19601f82011682018060405250810190612e129190614e33565b816001600160a01b03166361feacff6040518163ffffffff1660e01b8152600401602060405180830381865afa158015612e50573d6000803e3d6000fd5b505050506040513d601f19601f82011682018060405250810190612e749190614e33565b826001600160a01b0316638f840ddd6040518163ffffffff1660e01b8152600401602060405180830381865afa158015612eb2573d6000803e3d6000fd5b505050506040513d601f19601f82011682018060405250810190612ed69190614e33565b612ee09190615068565b612eea9190615068565b826101200151836101800151612f009190615068565b612f0a9190615080565b610100830152604051633af9e66960e01b81526001600160a01b038c81166004830152821690633af9e669906024016020604051808303816000875af1158015612f58573d6000803e3d6000fd5b505050506040513d601f19601f82011682018060405250810190612f7c9190614e33565b6101408301526040516395dd919360e01b81526001600160a01b038c811660048301528216906395dd919390602401602060405180830381865afa158015612fc8573d6000803e3d6000fd5b505050506040513d601f19601f82011682018060405250810190612fec9190614e33565b61016083015260405163929fe9a160e01b81526001600160a01b038c8116600483015282811660248301528e169063929fe9a190604401602060405180830381865afa158015613040573d6000803e3d6000fd5b505050506040513d601f19601f820116820180604052508101906130649190614d88565b15156101a08301526040805163182df0f560e01b815290516001600160a01b0383169163182df0f59160048083019260209291908290030181865afa1580156130b1573d6000803e3d6000fd5b505050506040513d601f19601f820116820180604052508101906130d59190614e33565b6101c083015260405163fc57d4df60e01b81526001600160a01b03828116600483015287169063fc57d4df90602401602060405180830381865afa158015613121573d6000803e3d6000fd5b505050506040513d601f19601f820116820180604052508101906131459190614e33565b6101e08301526001600160a01b038681166102008401819052602084015160405163addd509960e01b8152921660048301529063addd509990602401602060405180830381865afa9250505080156131ba575060408051601f3d908101601f191682019092526131b79181019061501d565b60015b6131c3576131d3565b6001600160a01b03166102008301525b8282610220018181525050806001600160a01b031663173b99046040518163ffffffff1660e01b8152600401602060405180830381865afa15801561321c573d6000803e3d6000fd5b505050506040513d601f19601f820116820180604052508101906132409190614e33565b82610240018181525050806001600160a01b0316638d02d9a16040518163ffffffff1660e01b8152600401602060405180830381865afa158015613288573d6000803e3d6000fd5b505050506040513d601f19601f820116820180604052508101906132ac9190614e33565b82610260018181525050806001600160a01b031663dbfe7c196040518163ffffffff1660e01b8152600401602060405180830381865afa1580156132f4573d6000803e3d6000fd5b505050506040513d601f19601f820116820180604052508101906133189190614e33565b610280830152604051636d154ea560e01b81526001600160a01b0382811660048301528e1690636d154ea590602401602060405180830381865afa158015613364573d6000803e3d6000fd5b505050506040513d601f19601f820116820180604052508101906133889190614d88565b15156102a0830152875182908990899081106133a6576133a6614d67565b602002602001018190525086806133bc90614e62565b975050505050505b806133ce81614e62565b915050612813565b5091979650505050505050565b60008054610100900460ff161561342a578160ff1660011480156134065750303b155b6134225760405162461bcd60e51b8152600401610a9d906152d2565b506000919050565b60005460ff8084169116106134515760405162461bcd60e51b8152600401610a9d906152d2565b506000805460ff191660ff92909216919091179055600190565b919050565b606080600083516001600160401b0381111561348e5761348e614360565b6040519080825280602002602001820160405280156134f357816020015b6134e06040518060a00160405280600081526020016000815260200160608152602001606081526020016000151581525090565b8152602001906001900390816134ac5790505b509050600084516001600160401b0381111561351157613511614360565b60405190808252806020026020018201604052801561353a578160200160208202803683370190505b50905060005b855181101561366c57306001600160a01b03166359d2fea687838151811061356a5761356a614d67565b6020026020010151604001516040518263ffffffff1660e01b81526004016135a191906001600160a01b0391909116815260200190565b6000604051808303816000875af19250505080156135e157506040513d6000823e601f3d908101601f191682016040526135de9190810190615320565b60015b61360e5760018282815181106135f9576135f9614d67565b9115156020928302919091019091015261365a565b6040518060a0016040528086815260200185815260200184815260200183815260200182151581525088878151811061364957613649614d67565b602002602001018190525050505050505b8061366481614e62565b915050613540565b509094909350915050565b6001600160a01b0381166000908152600360205260409020600101805460609182916136a290614bbe565b1590506137e8576001600160a01b03831660009081526003602052604090208054600182019082906136d390614bbe565b80601f01602080910402602001604051908101604052809291908181526020018280546136ff90614bbe565b801561374c5780601f106137215761010080835404028352916020019161374c565b820191906000526020600020905b81548152906001019060200180831161372f57829003601f168201915b5050505050915080805461375f90614bbe565b80601f016020809104026020016040519081016040528092919081815260200182805461378b90614bbe565b80156137d85780601f106137ad576101008083540402835291602001916137d8565b820191906000526020600020905b8154815290600101906020018083116137bb57829003601f168201915b5050505050905091509150915091565b60008390506000816001600160a01b03166306fdde036040518163ffffffff1660e01b8152600401600060405180830381865afa15801561382d573d6000803e3d6000fd5b505050506040513d6000823e601f3d908101601f19168201604052613855919081019061541b565b90506000826001600160a01b03166395d89b416040518163ffffffff1660e01b8152600401600060405180830381865afa158015613897573d6000803e3d6000fd5b505050506040513d6000823e601f3d908101601f191682016040526138bf919081019061541b565b905060005b600454811015613e4257866001600160a01b0316630dfe16816040518163ffffffff1660e01b8152600401602060405180830381865afa925050508015613928575060408051601f3d908101601f191682019092526139259181019061501d565b60015b61393157613e30565b60006004838154811061394657613946614d67565b906000526020600020906003020160405180606001604052908160008201805461396f90614bbe565b80601f016020809104026020016040519081016040528092919081815260200182805461399b90614bbe565b80156139e85780601f106139bd576101008083540402835291602001916139e8565b820191906000526020600020905b8154815290600101906020018083116139cb57829003601f168201915b50505050508152602001600182018054613a0190614bbe565b80601f0160208091040260200160405190810160405280929190818152602001828054613a2d90614bbe565b8015613a7a5780601f10613a4f57610100808354040283529160200191613a7a565b820191906000526020600020905b815481529060010190602001808311613a5d57829003601f168201915b50505050508152602001600282018054613a9390614bbe565b80601f0160208091040260200160405190810160405280929190818152602001828054613abf90614bbe565b8015613b0c5780601f10613ae157610100808354040283529160200191613b0c565b820191906000526020600020905b815481529060010190602001808311613aef57829003601f168201915b505050505081525050905060008160000151604051602001613b2e919061544f565b6040516020818303038152906040528051906020012086604051602001613b55919061544f565b60405160208183030381529060405280519060200120148015613bc55750602080830151604051613b86920161544f565b6040516020818303038152906040528051906020012085604051602001613bad919061544f565b60405160208183030381529060405280519060200120145b90508015613e2c57600083905060008b6001600160a01b031663d21220a76040518163ffffffff1660e01b8152600401602060405180830381865afa158015613c12573d6000803e3d6000fd5b505050506040513d601f19601f82011682018060405250810190613c36919061501d565b90508360400151826001600160a01b03166395d89b416040518163ffffffff1660e01b8152600401600060405180830381865afa158015613c7b573d6000803e3d6000fd5b505050506040513d6000823e601f3d908101601f19168201604052613ca3919081019061541b565b826001600160a01b03166395d89b416040518163ffffffff1660e01b8152600401600060405180830381865afa158015613ce1573d6000803e3d6000fd5b505050506040513d6000823e601f3d908101601f19168201604052613d09919081019061541b565b604051602001613d1b9392919061546b565b6040516020818303038152906040529750816001600160a01b03166395d89b416040518163ffffffff1660e01b8152600401600060405180830381865afa158015613d6a573d6000803e3d6000fd5b505050506040513d6000823e601f3d908101601f19168201604052613d92919081019061541b565b816001600160a01b03166395d89b416040518163ffffffff1660e01b8152600401600060405180830381865afa158015613dd0573d6000803e3d6000fd5b505050506040513d6000823e601f3d908101601f19168201604052613df8919081019061541b565b604051602001613e099291906154da565b60408051601f19818403018152919052979c979b50969950505050505050505050565b5050505b80613e3a81614e62565b9150506138c4565b50909590945092505050565b6040518060a001604052806060815260200160006001600160a01b0316815260200160006001600160a01b0316815260200160008152602001600081525090565b828054613e9b90614bbe565b90600052602060002090601f016020900481019282613ebd5760008555613f03565b82601f10613ed657805160ff1916838001178555613f03565b82800160010185558215613f03579182015b82811115613f03578251825591602001919060010190613ee8565b50613f0f929150613fd9565b5090565b604051806102c0016040528060006001600160a01b0316815260200160006001600160a01b031681526020016060815260200160608152602001600081526020016000815260200160008152602001600081526020016000815260200160008152602001600081526020016000815260200160008152602001600015158152602001600081526020016000815260200160006001600160a01b03168152602001600081526020016000815260200160008152602001600081526020016000151581525090565b5b80821115613f0f5760008155600101613fda565b60005b83811015614009578181015183820152602001613ff1565b83811115614018576000848401525b50505050565b60008151808452614036816020860160208601613fee565b601f01601f19169290920160200192915050565b60208152600061405d602083018461401e565b9392505050565b6001600160a01b038116811461407957600080fd5b50565b60006020828403121561408e57600080fd5b813561405d81614064565b600081518084526020808501945080840160005b838110156140c9578151875295820195908201906001016140ad565b509495945050505050565b600082825180855260208086019550808260051b84010181860160005b8481101561416157601f19868403018952815160a081518186526141178287018261401e565b838801516001600160a01b03908116888a015260408086015190911690880152606080850151908801526080938401519390960192909252505097830197908301906001016140f1565b5090979650505050505050565b6040815260006141816040830185614099565b828103602084015261419381856140d4565b95945050505050565b600080604083850312156141af57600080fd5b82356141ba81614064565b915060208301356141ca81614064565b809150509250929050565b60006020808301818452808551808352604092508286019150828160051b87010184880160005b8381101561434757888303603f19018552815180516001600160a01b031684526102c0818901516001600160a01b038116868b0152508782015181898701526142478287018261401e565b91505060608083015186830382880152614261838261401e565b6080858101519089015260a0808601519089015260c0808601519089015260e08086015190890152610100808601519089015261012080860151908901526101408086015190890152610160808601519089015261018080860151908901526101a0808601511515908901526101c080860151908901526101e08086015190890152610200808601516001600160a01b03169089015261022080860151908901526102408086015190890152610260808601519089015261028080860151908901526102a0948501511515949097019390935250505093860193908601906001016141fc565b509098975050505050505050565b803561346b81614064565b634e487b7160e01b600052604160045260246000fd5b60405160a081016001600160401b038111828210171561439857614398614360565b60405290565b604051608081016001600160401b038111828210171561439857614398614360565b604051601f8201601f191681016001600160401b03811182821017156143e8576143e8614360565b604052919050565b60006001600160401b0382111561440957614409614360565b50601f01601f191660200190565b600082601f83011261442857600080fd5b813561443b614436826143f0565b6143c0565b81815284602083860101111561445057600080fd5b816020850160208301376000918101602001919091529392505050565b60006001600160401b0382111561448657614486614360565b5060051b60200190565b600082601f8301126144a157600080fd5b813560206144b16144368361446d565b82815260059290921b840181019181810190868411156144d057600080fd5b8286015b848110156144f45780356144e781614064565b83529183019183016144d4565b509695505050505050565b600082601f83011261451057600080fd5b813560206145206144368361446d565b82815260059290921b8401810191818101908684111561453f57600080fd5b8286015b848110156144f45780356001600160401b038111156145625760008081fd5b6145708986838b0101614417565b845250918301918301614543565b60008060008060008060008060006101208a8c03121561459d57600080fd5b6145a68a614355565b985060208a01356001600160401b03808211156145c257600080fd5b6145ce8d838e01614417565b995060408c01359150808211156145e457600080fd5b6145f08d838e01614417565b985060608c013591508082111561460657600080fd5b6146128d838e01614490565b975060808c013591508082111561462857600080fd5b6146348d838e016144ff565b965060a08c013591508082111561464a57600080fd5b6146568d838e016144ff565b955060c08c013591508082111561466c57600080fd5b6146788d838e016144ff565b945060e08c013591508082111561468e57600080fd5b61469a8d838e016144ff565b93506101008c01359150808211156146b157600080fd5b506146be8c828d016144ff565b9150509295985092959850929598565b600081518084526020808501945080840160005b838110156140c95781516001600160a01b0316875295820195908201906001016146e2565b600081518084526020808501808196508360051b8101915082860160005b858110156133d657828403895261473d84835161401e565b98850198935090840190600101614725565b600081518084526020808501945080840160005b838110156140c9578151151587529582019590820190600101614763565b6000608080835261479481840188614099565b6020848203818601526147a782896140d4565b91506040858303818701528288518085528385019150838160051b860101848b0160005b8381101561483c57601f19888403018552815160a0815185528882015189860152878201518189870152614801828701826146ce565b9150506060808301518683038288015261481b8382614707565b938d01511515968d01969096525050948701949250908601906001016147cb565b505088810360608a0152614850818b61474f565b9d9c50505050505050505050505050565b6000806040838503121561487457600080fd5b82356001600160401b0381111561488a57600080fd5b8301601f8101851361489b57600080fd5b803560206148ab6144368361446d565b82815260059290921b830181019181810190888411156148ca57600080fd5b938201935b838510156148f15784356148e281614064565b825293820193908201906148cf565b98969091013596505050505050565b600081518084526020808501945080840160005b838110156140c957815180516001600160a01b031688528381015184890152604080820151908901526060908101519088015260809096019590820190600101614914565b600081518084526020808501808196508360051b8101915082860160005b858110156133d657828403895261498f848351614900565b98850198935090840190600101614977565b6080815260006149b46080830187614959565b82810360208401526149c68187614099565b905082810360408401526149da8186614099565b905082810360608401526149ee818561474f565b979650505050505050565b85815284602082015260a060408201526000614a1860a08301866146ce565b8281036060840152614a2a8186614707565b91505082151560808301529695505050505050565b60008060408385031215614a5257600080fd5b8235614a5d81614064565b946020939093013593505050565b606081526000614a7e6060830186614900565b60208301949094525060400152919050565b60008060408385031215614aa357600080fd5b8235614aae81614064565b915060208301356001600160401b03811115614ac957600080fd5b8301608081860312156141ca57600080fd5b801515811461407957600080fd5b600060208284031215614afb57600080fd5b813561405d81614adb565b600060208284031215614b1857600080fd5b5035919050565b60a0808252865190820181905260009060209060c0840190828a01845b82811015614b615781516001600160a01b031684529284019290840190600101614b3c565b50505083810382850152614b758189614959565b9150508281036040840152614b8a8187614099565b90508281036060840152614b9e8186614099565b90508281036080840152614bb2818561474f565b98975050505050505050565b600181811c90821680614bd257607f821691505b60208210811415614bf357634e487b7160e01b600052602260045260246000fd5b50919050565b600082601f830112614c0a57600080fd5b8151614c18614436826143f0565b818152846020838601011115614c2d57600080fd5b610988826020830160208701613fee565b600082601f830112614c4f57600080fd5b81516020614c5f6144368361446d565b82815260059290921b84018101918181019086841115614c7e57600080fd5b8286015b848110156144f45780516001600160401b0380821115614ca25760008081fd5b9088019060a0828b03601f1901811315614cbc5760008081fd5b614cc4614376565b8784015183811115614cd65760008081fd5b614ce48d8a83880101614bf9565b8252506040925082840151614cf881614064565b81890152606084810151614d0b81614064565b9382019390935260808481015193820193909352920151908201528352918301918301614c82565b600060208284031215614d4557600080fd5b81516001600160401b03811115614d5b57600080fd5b61098884828501614c3e565b634e487b7160e01b600052603260045260246000fd5b805161346b81614adb565b600060208284031215614d9a57600080fd5b815161405d81614adb565b60006020808385031215614db857600080fd5b82516001600160401b03811115614dce57600080fd5b8301601f81018513614ddf57600080fd5b8051614ded6144368261446d565b81815260059190911b82018301908381019087831115614e0c57600080fd5b928401925b828410156149ee578351614e2481614064565b82529284019290840190614e11565b600060208284031215614e4557600080fd5b5051919050565b634e487b7160e01b600052601160045260246000fd5b6000600019821415614e7657614e76614e4c565b5060010190565b60008060408385031215614e9057600080fd5b82516001600160401b0380821115614ea757600080fd5b818501915085601f830112614ebb57600080fd5b81516020614ecb6144368361446d565b82815260059290921b84018101918181019089841115614eea57600080fd5b948201945b83861015614f0857855182529482019490820190614eef565b91880151919650909350505080821115614f2157600080fd5b50614f2e85828601614c3e565b9150509250929050565b60008060006060808587031215614f4e57600080fd5b84516001600160401b03811115614f6457600080fd5b8501601f81018713614f7557600080fd5b80516020614f856144368361446d565b82815260079290921b8301810191818101908a841115614fa457600080fd5b938201935b83851015615002576080858c031215614fc25760008081fd5b614fca61439e565b8551614fd581614064565b81528584015184820152604080870151908201528686015187820152825260809094019390820190614fa9565b91890151604090990151919a98995090979650505050505050565b60006020828403121561502f57600080fd5b815161405d81614064565b6000806040838503121561504d57600080fd5b825161505881614adb565b6020939093015192949293505050565b6000821982111561507b5761507b614e4c565b500190565b60008282101561509257615092614e4c565b500390565b60008160001904831182151516156150b1576150b1614e4c565b500290565b6000826150d357634e487b7160e01b600052601260045260246000fd5b500490565b600082601f8301126150e957600080fd5b815160206150f96144368361446d565b82815260059290921b8401810191818101908684111561511857600080fd5b8286015b848110156144f457805161512f81614064565b835291830191830161511c565b60006020828403121561514e57600080fd5b81516001600160401b0381111561516457600080fd5b610988848285016150d8565b6000808335601e1984360301811261518757600080fd5b83016020810192503590506001600160401b038111156151a657600080fd5b80360383131561243a57600080fd5b81835281816020850137506000828201602090810191909152601f909101601f19169091010190565b6001600160a01b03831681526040602082015260006151fd8380615170565b6080604085015261521260c0850182846151b5565b9150506152226020850185615170565b603f198086850301606087015261523a8483856151b5565b93506152496040880188615170565b93509150808685030160808701526152628484846151b5565b93506152716060880188615170565b93509150808685030160a0870152506149ee8383836151b5565b6000806040838503121561529e57600080fd5b505080516020909101519092909150565b6000602082840312156152c157600080fd5b815160ff8116811461405d57600080fd5b6020808252602e908201527f496e697469616c697a61626c653a20636f6e747261637420697320616c72656160408201526d191e481a5b9a5d1a585b1a5e995960921b606082015260800190565b600080600080600060a0868803121561533857600080fd5b85519450602080870151945060408701516001600160401b038082111561535e57600080fd5b61536a8a838b016150d8565b9550606089015191508082111561538057600080fd5b818901915089601f83011261539457600080fd5b81516153a26144368261446d565b81815260059190911b8301840190848101908c8311156153c157600080fd5b8585015b838110156153f9578051858111156153dd5760008081fd5b6153eb8f89838a0101614bf9565b8452509186019186016153c5565b5080975050505050505061540f60808701614d7d565b90509295509295909350565b60006020828403121561542d57600080fd5b81516001600160401b0381111561544357600080fd5b61098884828501614bf9565b60008251615461818460208701613fee565b9190910192915050565b6000845161547d818460208901613fee565b600160fd1b908301908152845161549b816001840160208901613fee565b602f60f81b6001929091019182015283516154bd816002840160208801613fee565b620204c560ec1b6002929091019182015260050195945050505050565b600083516154ec818460208801613fee565b602d60f81b908301908152835161550a816001840160208801613fee565b0160010194935050505056fea26469706673582212208f2f51dfdec0316c33bff8a2fcff4d921df89769f5e164120ef0f567154df3d264736f6c634300080a0033",
    "linkReferences": {}
  }
}