{
  "abi": [
    {
      "anonymous": false,
      "inputs": [
        {
          "indexed": false,
          "internalType": "uint8",
          "name": "version",
          "type": "uint8"
        }
      ],
      "name": "Initialized",
      "type": "event"
    },
    {
      "inputs": [],
      "name": "directory",
      "outputs": [
        {
          "internalType": "contract FusePoolDirectory",
          "name": "",
          "type": "address"
        }
      ],
      "stateMutability": "view",
      "type": "function"
    },
    {
      "inputs": [
        {
          "internalType": "contract IComptroller",
          "name": "comptroller",
          "type": "address"
        },
        {
          "internalType": "address",
          "name": "user",
          "type": "address"
        }
      ],
      "name": "getPoolAssetsByUser",
      "outputs": [
        {
          "components": [
            {
              "internalType": "address",
              "name": "cToken",
              "type": "address"
            },
            {
              "internalType": "address",
              "name": "underlyingToken",
              "type": "address"
            },
            {
              "internalType": "string",
              "name": "underlyingName",
              "type": "string"
            },
            {
              "internalType": "string",
              "name": "underlyingSymbol",
              "type": "string"
            },
            {
              "internalType": "uint256",
              "name": "underlyingDecimals",
              "type": "uint256"
            },
            {
              "internalType": "uint256",
              "name": "underlyingBalance",
              "type": "uint256"
            },
            {
              "internalType": "uint256",
              "name": "supplyRatePerBlock",
              "type": "uint256"
            },
            {
              "internalType": "uint256",
              "name": "borrowRatePerBlock",
              "type": "uint256"
            },
            {
              "internalType": "uint256",
              "name": "totalSupply",
              "type": "uint256"
            },
            {
              "internalType": "uint256",
              "name": "totalBorrow",
              "type": "uint256"
            },
            {
              "internalType": "uint256",
              "name": "supplyBalance",
              "type": "uint256"
            },
            {
              "internalType": "uint256",
              "name": "borrowBalance",
              "type": "uint256"
            },
            {
              "internalType": "uint256",
              "name": "liquidity",
              "type": "uint256"
            },
            {
              "internalType": "bool",
              "name": "membership",
              "type": "bool"
            },
            {
              "internalType": "uint256",
              "name": "exchangeRate",
              "type": "uint256"
            },
            {
              "internalType": "uint256",
              "name": "underlyingPrice",
              "type": "uint256"
            },
            {
              "internalType": "address",
              "name": "oracle",
              "type": "address"
            },
            {
              "internalType": "uint256",
              "name": "collateralFactor",
              "type": "uint256"
            },
            {
              "internalType": "uint256",
              "name": "reserveFactor",
              "type": "uint256"
            },
            {
              "internalType": "uint256",
              "name": "adminFee",
              "type": "uint256"
            },
            {
              "internalType": "uint256",
              "name": "fuseFee",
              "type": "uint256"
            },
            {
              "internalType": "bool",
              "name": "borrowGuardianPaused",
              "type": "bool"
            }
          ],
          "internalType": "struct FusePoolLens.FusePoolAsset[]",
          "name": "",
          "type": "tuple[]"
        }
      ],
      "stateMutability": "nonpayable",
      "type": "function"
    },
    {
      "inputs": [
        {
          "internalType": "contract IComptroller",
          "name": "comptroller",
          "type": "address"
        }
      ],
      "name": "getPoolAssetsWithData",
      "outputs": [
        {
          "components": [
            {
              "internalType": "address",
              "name": "cToken",
              "type": "address"
            },
            {
              "internalType": "address",
              "name": "underlyingToken",
              "type": "address"
            },
            {
              "internalType": "string",
              "name": "underlyingName",
              "type": "string"
            },
            {
              "internalType": "string",
              "name": "underlyingSymbol",
              "type": "string"
            },
            {
              "internalType": "uint256",
              "name": "underlyingDecimals",
              "type": "uint256"
            },
            {
              "internalType": "uint256",
              "name": "underlyingBalance",
              "type": "uint256"
            },
            {
              "internalType": "uint256",
              "name": "supplyRatePerBlock",
              "type": "uint256"
            },
            {
              "internalType": "uint256",
              "name": "borrowRatePerBlock",
              "type": "uint256"
            },
            {
              "internalType": "uint256",
              "name": "totalSupply",
              "type": "uint256"
            },
            {
              "internalType": "uint256",
              "name": "totalBorrow",
              "type": "uint256"
            },
            {
              "internalType": "uint256",
              "name": "supplyBalance",
              "type": "uint256"
            },
            {
              "internalType": "uint256",
              "name": "borrowBalance",
              "type": "uint256"
            },
            {
              "internalType": "uint256",
              "name": "liquidity",
              "type": "uint256"
            },
            {
              "internalType": "bool",
              "name": "membership",
              "type": "bool"
            },
            {
              "internalType": "uint256",
              "name": "exchangeRate",
              "type": "uint256"
            },
            {
              "internalType": "uint256",
              "name": "underlyingPrice",
              "type": "uint256"
            },
            {
              "internalType": "address",
              "name": "oracle",
              "type": "address"
            },
            {
              "internalType": "uint256",
              "name": "collateralFactor",
              "type": "uint256"
            },
            {
              "internalType": "uint256",
              "name": "reserveFactor",
              "type": "uint256"
            },
            {
              "internalType": "uint256",
              "name": "adminFee",
              "type": "uint256"
            },
            {
              "internalType": "uint256",
              "name": "fuseFee",
              "type": "uint256"
            },
            {
              "internalType": "bool",
              "name": "borrowGuardianPaused",
              "type": "bool"
            }
          ],
          "internalType": "struct FusePoolLens.FusePoolAsset[]",
          "name": "",
          "type": "tuple[]"
        }
      ],
      "stateMutability": "nonpayable",
      "type": "function"
    },
    {
      "inputs": [
        {
          "internalType": "contract IComptroller",
          "name": "comptroller",
          "type": "address"
        }
      ],
      "name": "getPoolSummary",
      "outputs": [
        {
          "internalType": "uint256",
          "name": "",
          "type": "uint256"
        },
        {
          "internalType": "uint256",
          "name": "",
          "type": "uint256"
        },
        {
          "internalType": "address[]",
          "name": "",
          "type": "address[]"
        },
        {
          "internalType": "string[]",
          "name": "",
          "type": "string[]"
        },
        {
          "internalType": "bool",
          "name": "",
          "type": "bool"
        }
      ],
      "stateMutability": "nonpayable",
      "type": "function"
    },
    {
      "inputs": [
        {
          "internalType": "address",
          "name": "account",
          "type": "address"
        }
      ],
      "name": "getPoolsByAccountWithData",
      "outputs": [
        {
          "internalType": "uint256[]",
          "name": "",
          "type": "uint256[]"
        },
        {
          "components": [
            {
              "internalType": "string",
              "name": "name",
              "type": "string"
            },
            {
              "internalType": "address",
              "name": "creator",
              "type": "address"
            },
            {
              "internalType": "address",
              "name": "comptroller",
              "type": "address"
            },
            {
              "internalType": "uint256",
              "name": "blockPosted",
              "type": "uint256"
            },
            {
              "internalType": "uint256",
              "name": "timestampPosted",
              "type": "uint256"
            }
          ],
          "internalType": "struct FusePoolDirectory.FusePool[]",
          "name": "",
          "type": "tuple[]"
        },
        {
          "components": [
            {
              "internalType": "uint256",
              "name": "totalSupply",
              "type": "uint256"
            },
            {
              "internalType": "uint256",
              "name": "totalBorrow",
              "type": "uint256"
            },
            {
              "internalType": "address[]",
              "name": "underlyingTokens",
              "type": "address[]"
            },
            {
              "internalType": "string[]",
              "name": "underlyingSymbols",
              "type": "string[]"
            },
            {
              "internalType": "bool",
              "name": "whitelistedAdmin",
              "type": "bool"
            }
          ],
          "internalType": "struct FusePoolLens.FusePoolData[]",
          "name": "",
          "type": "tuple[]"
        },
        {
          "internalType": "bool[]",
          "name": "",
          "type": "bool[]"
        }
      ],
      "stateMutability": "nonpayable",
      "type": "function"
    },
    {
      "inputs": [
        {
          "internalType": "bool",
          "name": "whitelistedAdmin",
          "type": "bool"
        }
      ],
      "name": "getPublicPoolsByVerificationWithData",
      "outputs": [
        {
          "internalType": "uint256[]",
          "name": "",
          "type": "uint256[]"
        },
        {
          "components": [
            {
              "internalType": "string",
              "name": "name",
              "type": "string"
            },
            {
              "internalType": "address",
              "name": "creator",
              "type": "address"
            },
            {
              "internalType": "address",
              "name": "comptroller",
              "type": "address"
            },
            {
              "internalType": "uint256",
              "name": "blockPosted",
              "type": "uint256"
            },
            {
              "internalType": "uint256",
              "name": "timestampPosted",
              "type": "uint256"
            }
          ],
          "internalType": "struct FusePoolDirectory.FusePool[]",
          "name": "",
          "type": "tuple[]"
        },
        {
          "components": [
            {
              "internalType": "uint256",
              "name": "totalSupply",
              "type": "uint256"
            },
            {
              "internalType": "uint256",
              "name": "totalBorrow",
              "type": "uint256"
            },
            {
              "internalType": "address[]",
              "name": "underlyingTokens",
              "type": "address[]"
            },
            {
              "internalType": "string[]",
              "name": "underlyingSymbols",
              "type": "string[]"
            },
            {
              "internalType": "bool",
              "name": "whitelistedAdmin",
              "type": "bool"
            }
          ],
          "internalType": "struct FusePoolLens.FusePoolData[]",
          "name": "",
          "type": "tuple[]"
        },
        {
          "internalType": "bool[]",
          "name": "",
          "type": "bool[]"
        }
      ],
      "stateMutability": "nonpayable",
      "type": "function"
    },
    {
      "inputs": [],
      "name": "getPublicPoolsWithData",
      "outputs": [
        {
          "internalType": "uint256[]",
          "name": "",
          "type": "uint256[]"
        },
        {
          "components": [
            {
              "internalType": "string",
              "name": "name",
              "type": "string"
            },
            {
              "internalType": "address",
              "name": "creator",
              "type": "address"
            },
            {
              "internalType": "address",
              "name": "comptroller",
              "type": "address"
            },
            {
              "internalType": "uint256",
              "name": "blockPosted",
              "type": "uint256"
            },
            {
              "internalType": "uint256",
              "name": "timestampPosted",
              "type": "uint256"
            }
          ],
          "internalType": "struct FusePoolDirectory.FusePool[]",
          "name": "",
          "type": "tuple[]"
        },
        {
          "components": [
            {
              "internalType": "uint256",
              "name": "totalSupply",
              "type": "uint256"
            },
            {
              "internalType": "uint256",
              "name": "totalBorrow",
              "type": "uint256"
            },
            {
              "internalType": "address[]",
              "name": "underlyingTokens",
              "type": "address[]"
            },
            {
              "internalType": "string[]",
              "name": "underlyingSymbols",
              "type": "string[]"
            },
            {
              "internalType": "bool",
              "name": "whitelistedAdmin",
              "type": "bool"
            }
          ],
          "internalType": "struct FusePoolLens.FusePoolData[]",
          "name": "",
          "type": "tuple[]"
        },
        {
          "internalType": "bool[]",
          "name": "",
          "type": "bool[]"
        }
      ],
      "stateMutability": "nonpayable",
      "type": "function"
    },
    {
      "inputs": [
        {
          "internalType": "address",
          "name": "account",
          "type": "address"
        }
      ],
      "name": "getWhitelistedPoolsByAccount",
      "outputs": [
        {
          "internalType": "uint256[]",
          "name": "",
          "type": "uint256[]"
        },
        {
          "components": [
            {
              "internalType": "string",
              "name": "name",
              "type": "string"
            },
            {
              "internalType": "address",
              "name": "creator",
              "type": "address"
            },
            {
              "internalType": "address",
              "name": "comptroller",
              "type": "address"
            },
            {
              "internalType": "uint256",
              "name": "blockPosted",
              "type": "uint256"
            },
            {
              "internalType": "uint256",
              "name": "timestampPosted",
              "type": "uint256"
            }
          ],
          "internalType": "struct FusePoolDirectory.FusePool[]",
          "name": "",
          "type": "tuple[]"
        }
      ],
      "stateMutability": "view",
      "type": "function"
    },
    {
      "inputs": [
        {
          "internalType": "address",
          "name": "account",
          "type": "address"
        }
      ],
      "name": "getWhitelistedPoolsByAccountWithData",
      "outputs": [
        {
          "internalType": "uint256[]",
          "name": "",
          "type": "uint256[]"
        },
        {
          "components": [
            {
              "internalType": "string",
              "name": "name",
              "type": "string"
            },
            {
              "internalType": "address",
              "name": "creator",
              "type": "address"
            },
            {
              "internalType": "address",
              "name": "comptroller",
              "type": "address"
            },
            {
              "internalType": "uint256",
              "name": "blockPosted",
              "type": "uint256"
            },
            {
              "internalType": "uint256",
              "name": "timestampPosted",
              "type": "uint256"
            }
          ],
          "internalType": "struct FusePoolDirectory.FusePool[]",
          "name": "",
          "type": "tuple[]"
        },
        {
          "components": [
            {
              "internalType": "uint256",
              "name": "totalSupply",
              "type": "uint256"
            },
            {
              "internalType": "uint256",
              "name": "totalBorrow",
              "type": "uint256"
            },
            {
              "internalType": "address[]",
              "name": "underlyingTokens",
              "type": "address[]"
            },
            {
              "internalType": "string[]",
              "name": "underlyingSymbols",
              "type": "string[]"
            },
            {
              "internalType": "bool",
              "name": "whitelistedAdmin",
              "type": "bool"
            }
          ],
          "internalType": "struct FusePoolLens.FusePoolData[]",
          "name": "",
          "type": "tuple[]"
        },
        {
          "internalType": "bool[]",
          "name": "",
          "type": "bool[]"
        }
      ],
      "stateMutability": "nonpayable",
      "type": "function"
    },
    {
      "inputs": [
        {
          "internalType": "contract FusePoolDirectory",
          "name": "_directory",
          "type": "address"
        },
        {
          "internalType": "string",
          "name": "_name",
          "type": "string"
        },
        {
          "internalType": "string",
          "name": "_symbol",
          "type": "string"
        },
        {
          "internalType": "address[]",
          "name": "_hardcodedAddresses",
          "type": "address[]"
        },
        {
          "internalType": "string[]",
          "name": "_hardcodedNames",
          "type": "string[]"
        },
        {
          "internalType": "string[]",
          "name": "_hardcodedSymbols",
          "type": "string[]"
        },
        {
          "internalType": "string[]",
          "name": "_uniswapLPTokenNames",
          "type": "string[]"
        },
        {
          "internalType": "string[]",
          "name": "_uniswapLPTokenSymbols",
          "type": "string[]"
        },
        {
          "internalType": "string[]",
          "name": "_uniswapLPTokenDisplayNames",
          "type": "string[]"
        }
      ],
      "name": "initialize",
      "outputs": [],
      "stateMutability": "nonpayable",
      "type": "function"
    },
    {
      "inputs": [],
      "name": "name",
      "outputs": [
        {
          "internalType": "string",
          "name": "",
          "type": "string"
        }
      ],
      "stateMutability": "view",
      "type": "function"
    },
    {
      "inputs": [],
      "name": "symbol",
      "outputs": [
        {
          "internalType": "string",
          "name": "",
          "type": "string"
        }
      ],
      "stateMutability": "view",
      "type": "function"
    },
    {
      "inputs": [
        {
          "internalType": "contract ICToken",
          "name": "cToken",
          "type": "address"
        },
        {
          "components": [
            {
              "internalType": "bytes",
              "name": "block",
              "type": "bytes"
            },
            {
              "internalType": "bytes",
              "name": "accountProofNodesRlp",
              "type": "bytes"
            },
            {
              "internalType": "bytes",
              "name": "reserveAndTimestampProofNodesRlp",
              "type": "bytes"
            },
            {
              "internalType": "bytes",
              "name": "priceAccumulatorProofNodesRlp",
              "type": "bytes"
            }
          ],
          "internalType": "struct UniswapOracle.ProofData",
          "name": "proofData",
          "type": "tuple"
        }
      ],
      "name": "verifyPrice",
      "outputs": [
        {
          "internalType": "uint256",
          "name": "",
          "type": "uint256"
        },
        {
          "internalType": "uint256",
          "name": "",
          "type": "uint256"
        }
      ],
      "stateMutability": "nonpayable",
      "type": "function"
    }
  ],
  "bytecode": {
    "object": "0x608060405234801561001057600080fd5b50613a72806100206000396000f3fe608060405234801561001057600080fd5b50600436106100cf5760003560e01c8063707333751161008c578063c41c2f2411610066578063c41c2f24146101bd578063cd344be8146101e8578063d0a164fb14610210578063d64996e51461021857600080fd5b8063707333751461018157806395d89b4114610194578063c3530a631461019c57600080fd5b806306fdde03146100d45780630c5eb5a4146100f257806327e16c1f146101125780633a1eb65614610125578063516786841461013a57806359d2fea61461015d575b600080fd5b6100dc61022b565b6040516100e99190612a39565b60405180910390f35b610105610100366004612a6b565b6102b9565b6040516100e99190612aa4565b610105610120366004612c24565b610341565b610138610133366004612e48565b6103b9565b005b61014d610148366004612c24565b610796565b6040516100e99493929190613110565b61017061016b366004612c24565b610839565b6040516100e99594939291906131f0565b61014d61018f366004612c24565b611082565b6100dc611094565b6101af6101aa366004612c24565b6110a1565b6040516100e9929190613236565b6005546101d0906001600160a01b031681565b6040516001600160a01b0390911681526020016100e9565b6101fb6101f6366004613264565b611408565b604080519283526020830191909152016100e9565b61014d611550565b61014d6102263660046132bd565b6115f5565b60018054610238906132da565b80601f0160208091040260200160405190810160405280929190818152602001828054610264906132da565b80156102b15780601f10610286576101008083540402835291602001916102b1565b820191906000526020600020905b81548152906001019060200180831161029457829003601f168201915b505050505081565b604051632aff3bff60e21b81526001600160a01b03828116600483015260609160009161033991869182169063abfceffc90602401600060405180830381865afa15801561030b573d6000803e3d6000fd5b505050506040513d6000823e601f3d908101601f191682016040526103339190810190613315565b85611635565b949350505050565b60606103b382836001600160a01b031663b0772d0b6040518163ffffffff1660e01b8152600401600060405180830381865afa158015610385573d6000803e3d6000fd5b505050506040513d6000823e601f3d908101601f191682016040526103ad9190810190613315565b33611635565b92915050565b60006103c56001612395565b905080156103dd576000805461ff0019166101001790555b6001600160a01b038a166104575760405162461bcd60e51b815260206004820152603660248201527f46757365506f6f6c4469726563746f727920696e7374616e63652063616e6e6f6044820152753a103132903a3432903d32b9379030b2323932b9b99760511b60648201526084015b60405180910390fd5b85518751148015610469575084518751145b6104c45760405162461bcd60e51b815260206004820152602660248201527f48617264636f64656420616464726573736573206c656e67746873206e6f742060448201526532b8bab0b61760d11b606482015260840161044e565b825184511480156104d6575081518451145b6105345760405162461bcd60e51b815260206004820152602960248201527f556e6973776170204c5020746f6b656e206e616d6573206c656e67746873206e60448201526837ba1032b8bab0b61760b91b606482015260840161044e565b600580546001600160a01b0319166001600160a01b038c1617905588516105629060019060208c019061287e565b5087516105769060029060208b019061287e565b5060005b87518110156106545760405180604001604052808883815181106105a0576105a06133ae565b602002602001015181526020018783815181106105bf576105bf6133ae565b6020026020010151815250600360008a84815181106105e0576105e06133ae565b60200260200101516001600160a01b03166001600160a01b03168152602001908152602001600020600082015181600001908051906020019061062492919061287e565b50602082810151805161063d926001850192019061287e565b50905050808061064c906133da565b91505061057a565b5060005b84518110156107435760046040518060600160405280878481518110610680576106806133ae565b6020026020010151815260200186848151811061069f5761069f6133ae565b602002602001015181526020018584815181106106be576106be6133ae565b6020908102919091018101519091528254600181018455600093845292819020825180519394600302909101926106f8928492019061287e565b506020828101518051610711926001850192019061287e565b506040820151805161072d91600284019160209091019061287e565b505050808061073b906133da565b915050610658565b50801561078a576000805461ff0019169055604051600181527f7f26b83ff96e1f2b6a682f133852f6798a09c465da95921460cefb38474024989060200160405180910390a15b50505050505050505050565b6005546040516351f6c8e360e11b81526001600160a01b03838116600483015260609283928392839260009283929091169063a3ed91c6906024015b600060405180830381865afa1580156107ef573d6000803e3d6000fd5b505050506040513d6000823e601f3d908101601f19168201604052610817919081019061352f565b9150915060008061082783612422565b949a9399509750929550909350505050565b60008060608060008060009050600080886001600160a01b031663b0772d0b6040518163ffffffff1660e01b8152600401600060405180830381865afa158015610887573d6000803e3d6000fd5b505050506040513d6000823e601f3d908101601f191682016040526108af9190810190613315565b9050600081516001600160401b038111156108cc576108cc612c4c565b6040519080825280602002602001820160405280156108f5578160200160208202803683370190505b509050600082516001600160401b0381111561091357610913612c4c565b60405190808252806020026020018201604052801561094657816020015b60608152602001906001900390816109315790505b50905060008b6001600160a01b0316637dc0d1d06040518163ffffffff1660e01b8152600401602060405180830381865afa158015610989573d6000803e3d6000fd5b505050506040513d601f19601f820116820180604052508101906109ad91906135ea565b905060005b8451811015610f7a5760008582815181106109cf576109cf6133ae565b6020026020010151905060008e6001600160a01b0316638e8f294b836040518263ffffffff1660e01b8152600401610a1691906001600160a01b0391909116815260200190565b6040805180830381865afa158015610a32573d6000803e3d6000fd5b505050506040513d601f19601f82011682018060405250810190610a569190613612565b50905080610a65575050610f68565b6000826001600160a01b03166373acee986040518163ffffffff1660e01b81526004016020604051808303816000875af1158015610aa7573d6000803e3d6000fd5b505050506040513d601f19601f82011682018060405250810190610acb9190613640565b90506000836001600160a01b031663dc028ab16040518163ffffffff1660e01b8152600401602060405180830381865afa158015610b0d573d6000803e3d6000fd5b505050506040513d601f19601f82011682018060405250810190610b319190613640565b846001600160a01b03166361feacff6040518163ffffffff1660e01b8152600401602060405180830381865afa158015610b6f573d6000803e3d6000fd5b505050506040513d601f19601f82011682018060405250810190610b939190613640565b856001600160a01b0316638f840ddd6040518163ffffffff1660e01b8152600401602060405180830381865afa158015610bd1573d6000803e3d6000fd5b505050506040513d601f19601f82011682018060405250810190610bf59190613640565b610bff9190613659565b610c099190613659565b82856001600160a01b0316633b1d21a26040518163ffffffff1660e01b8152600401602060405180830381865afa158015610c48573d6000803e3d6000fd5b505050506040513d601f19601f82011682018060405250810190610c6c9190613640565b610c769190613659565b610c809190613671565b60405163fc57d4df60e01b81526001600160a01b03868116600483015291925060009188169063fc57d4df90602401602060405180830381865afa158015610ccc573d6000803e3d6000fd5b505050506040513d601f19601f82011682018060405250810190610cf09190613640565b9050670de0b6b3a7640000610d058285613688565b610d0f91906136a7565b610d19908d613659565b9b50670de0b6b3a7640000610d2e8284613688565b610d3891906136a7565b610d42908c613659565b9a50846001600160a01b031663ac784ddc6040518163ffffffff1660e01b8152600401602060405180830381865afa158015610d82573d6000803e3d6000fd5b505050506040513d601f19601f82011682018060405250810190610da691906136c9565b15610e8c576000898781518110610dbf57610dbf6133ae565b60200260200101906001600160a01b031690816001600160a01b03168152505060028054610dec906132da565b80601f0160208091040260200160405190810160405280929190818152602001828054610e18906132da565b8015610e655780601f10610e3a57610100808354040283529160200191610e65565b820191906000526020600020905b815481529060010190602001808311610e4857829003601f168201915b5050505050888781518110610e7c57610e7c6133ae565b6020026020010181905250610f62565b846001600160a01b0316636f307dc36040518163ffffffff1660e01b8152600401602060405180830381865afa158015610eca573d6000803e3d6000fd5b505050506040513d601f19601f82011682018060405250810190610eee91906135ea565b898781518110610f0057610f006133ae565b60200260200101906001600160a01b031690816001600160a01b031681525050610f42898781518110610f3557610f356133ae565b6020026020010151612629565b9050888781518110610f5657610f566133ae565b60200260200101819052505b50505050505b80610f72816133da565b9150506109b2565b506000600560009054906101000a90046001600160a01b03166001600160a01b03166343e20a1d8e6001600160a01b031663f851a4406040518163ffffffff1660e01b8152600401602060405180830381865afa158015610fdf573d6000803e3d6000fd5b505050506040513d601f19601f8201168201806040525081019061100391906135ea565b6040516001600160e01b031960e084901b1681526001600160a01b039091166004820152602401602060405180830381865afa158015611047573d6000803e3d6000fd5b505050506040513d601f19601f8201168201806040525081019061106b91906136c9565b959d969c50929a5090985092965092945050505050565b606080606080600080610817876110a1565b60028054610238906132da565b6060806000600560009054906101000a90046001600160a01b03166001600160a01b031663d88ff1f46040518163ffffffff1660e01b8152600401600060405180830381865afa1580156110f9573d6000803e3d6000fd5b505050506040513d6000823e601f3d908101601f1916820160405261112191908101906136e6565b90506000805b82518110156111f4576000838281518110611144576111446133ae565b6020026020010151604001519050806001600160a01b0316639b19251a886040518263ffffffff1660e01b815260040161118d91906001600160a01b0391909116815260200190565b602060405180830381865afa1580156111aa573d6000803e3d6000fd5b505050506040513d601f19601f820116820180604052508101906111ce91906136c9565b156111e157826111dd816133da565b9350505b50806111ec816133da565b915050611127565b506000816001600160401b0381111561120f5761120f612c4c565b604051908082528060200260200182016040528015611238578160200160208202803683370190505b5090506000826001600160401b0381111561125557611255612c4c565b6040519080825280602002602001820160405280156112ca57816020015b6112b76040518060a001604052806060815260200160006001600160a01b0316815260200160006001600160a01b0316815260200160008152602001600081525090565b8152602001906001900390816112735790505b5090506000805b85518110156113fa5760008682815181106112ee576112ee6133ae565b6020026020010151604001519050806001600160a01b0316639b19251a8b6040518263ffffffff1660e01b815260040161133791906001600160a01b0391909116815260200190565b602060405180830381865afa158015611354573d6000803e3d6000fd5b505050506040513d601f19601f8201168201806040525081019061137891906136c9565b156113e75781858481518110611390576113906133ae565b6020026020010181815250508682815181106113ae576113ae6133ae565b60200260200101518484815181106113c8576113c86133ae565b602002602001018190525082806113de906133da565b935050506113fa565b50806113f2816133da565b9150506112d1565b509197909650945050505050565b6000806000846001600160a01b0316635fe3b5676040518163ffffffff1660e01b8152600401602060405180830381865afa15801561144b573d6000803e3d6000fd5b505050506040513d601f19601f8201168201806040525081019061146f91906135ea565b6001600160a01b0316637dc0d1d06040518163ffffffff1660e01b8152600401602060405180830381865afa1580156114ac573d6000803e3d6000fd5b505050506040513d601f19601f820116820180604052508101906114d091906135ea565b6040516319a6897d60e31b81529091506001600160a01b0382169063cd344be8906115019088908890600401613788565b60408051808303816000875af115801561151f573d6000803e3d6000fd5b505050506040513d601f19601f820116820180604052508101906115439190613835565b92509250505b9250929050565b606080606080600080600560009054906101000a90046001600160a01b03166001600160a01b0316634ae26ea16040518163ffffffff1660e01b8152600401600060405180830381865afa1580156115ac573d6000803e3d6000fd5b505050506040513d6000823e601f3d908101601f191682016040526115d4919081019061352f565b915091506000806115e483612422565b949993985096509294509092505050565b6005546040516310c51ddf60e11b8152821515600482015260609182918291829160009182916001600160a01b039091169063218a3bbe906024016107d2565b60606000805b8451811015611704576000866001600160a01b0316638e8f294b878481518110611667576116676133ae565b60200260200101516040518263ffffffff1660e01b815260040161169a91906001600160a01b0391909116815260200190565b6040805180830381865afa1580156116b6573d6000803e3d6000fd5b505050506040513d601f19601f820116820180604052508101906116da9190613612565b50905080156116f157826116ed816133da565b9350505b50806116fc816133da565b91505061163b565b506000816001600160401b0381111561171f5761171f612c4c565b60405190808252806020026020018201604052801561175857816020015b611745612902565b81526020019060019003908161173d5790505b509050600080876001600160a01b0316637dc0d1d06040518163ffffffff1660e01b8152600401602060405180830381865afa15801561179c573d6000803e3d6000fd5b505050506040513d601f19601f820116820180604052508101906117c091906135ea565b905060005b8751811015612388576000808a6001600160a01b0316638e8f294b8b85815181106117f2576117f26133ae565b60200260200101516040518263ffffffff1660e01b815260040161182591906001600160a01b0391909116815260200190565b6040805180830381865afa158015611841573d6000803e3d6000fd5b505050506040513d601f19601f820116820180604052508101906118659190613612565b9150915081611875575050612376565b61187d612902565b60008b8581518110611891576118916133ae565b6020908102919091018101516001600160a01b03811680855260408051632b1e137760e21b81529051929450909263ac784ddc926004808401938290030181865afa1580156118e4573d6000803e3d6000fd5b505050506040513d601f19601f8201168201806040525081019061190891906136c9565b15611a4c576001805461191a906132da565b80601f0160208091040260200160405190810160405280929190818152602001828054611946906132da565b80156119935780601f1061196857610100808354040283529160200191611993565b820191906000526020600020905b81548152906001019060200180831161197657829003601f168201915b50505050508260400181905250600280546119ad906132da565b80601f01602080910402602001604051908101604052809291908181526020018280546119d9906132da565b8015611a265780601f106119fb57610100808354040283529160200191611a26565b820191906000526020600020905b815481529060010190602001808311611a0957829003601f168201915b50505050506060830152601260808301526001600160a01b038b163160a0830152611bb2565b806001600160a01b0316636f307dc36040518163ffffffff1660e01b8152600401602060405180830381865afa158015611a8a573d6000803e3d6000fd5b505050506040513d601f19601f82011682018060405250810190611aae91906135ea565b6001600160a01b031660208301819052611ac781612629565b84604001856060018290528290525050806001600160a01b031663313ce5676040518163ffffffff1660e01b8152600401602060405180830381865afa158015611b15573d6000803e3d6000fd5b505050506040513d601f19601f82011682018060405250810190611b399190613859565b60ff1660808401526040516370a0823160e01b81526001600160a01b038d811660048301528216906370a0823190602401602060405180830381865afa158015611b87573d6000803e3d6000fd5b505050506040513d601f19601f82011682018060405250810190611bab9190613640565b60a0840152505b806001600160a01b031663ae9d70b06040518163ffffffff1660e01b8152600401602060405180830381865afa158015611bf0573d6000803e3d6000fd5b505050506040513d601f19601f82011682018060405250810190611c149190613640565b8260c0018181525050806001600160a01b031663f8f9da286040518163ffffffff1660e01b8152600401602060405180830381865afa158015611c5b573d6000803e3d6000fd5b505050506040513d601f19601f82011682018060405250810190611c7f9190613640565b8260e0018181525050806001600160a01b0316633b1d21a26040518163ffffffff1660e01b8152600401602060405180830381865afa158015611cc6573d6000803e3d6000fd5b505050506040513d601f19601f82011682018060405250810190611cea9190613640565b82610180018181525050806001600160a01b03166373acee986040518163ffffffff1660e01b81526004016020604051808303816000875af1158015611d34573d6000803e3d6000fd5b505050506040513d601f19601f82011682018060405250810190611d589190613640565b82610120018181525050806001600160a01b031663dc028ab16040518163ffffffff1660e01b8152600401602060405180830381865afa158015611da0573d6000803e3d6000fd5b505050506040513d601f19601f82011682018060405250810190611dc49190613640565b816001600160a01b03166361feacff6040518163ffffffff1660e01b8152600401602060405180830381865afa158015611e02573d6000803e3d6000fd5b505050506040513d601f19601f82011682018060405250810190611e269190613640565b826001600160a01b0316638f840ddd6040518163ffffffff1660e01b8152600401602060405180830381865afa158015611e64573d6000803e3d6000fd5b505050506040513d601f19601f82011682018060405250810190611e889190613640565b611e929190613659565b611e9c9190613659565b826101200151836101800151611eb29190613659565b611ebc9190613671565b610100830152604051633af9e66960e01b81526001600160a01b038c81166004830152821690633af9e669906024016020604051808303816000875af1158015611f0a573d6000803e3d6000fd5b505050506040513d601f19601f82011682018060405250810190611f2e9190613640565b6101408301526040516395dd919360e01b81526001600160a01b038c811660048301528216906395dd919390602401602060405180830381865afa158015611f7a573d6000803e3d6000fd5b505050506040513d601f19601f82011682018060405250810190611f9e9190613640565b61016083015260405163929fe9a160e01b81526001600160a01b038c8116600483015282811660248301528e169063929fe9a190604401602060405180830381865afa158015611ff2573d6000803e3d6000fd5b505050506040513d601f19601f8201168201806040525081019061201691906136c9565b15156101a08301526040805163182df0f560e01b815290516001600160a01b0383169163182df0f59160048083019260209291908290030181865afa158015612063573d6000803e3d6000fd5b505050506040513d601f19601f820116820180604052508101906120879190613640565b6101c083015260405163fc57d4df60e01b81526001600160a01b03828116600483015287169063fc57d4df90602401602060405180830381865afa1580156120d3573d6000803e3d6000fd5b505050506040513d601f19601f820116820180604052508101906120f79190613640565b6101e08301526001600160a01b038681166102008401819052602084015160405163addd509960e01b8152921660048301529063addd509990602401602060405180830381865afa92505050801561216c575060408051601f3d908101601f19168201909252612169918101906135ea565b60015b61217557612185565b6001600160a01b03166102008301525b8282610220018181525050806001600160a01b031663173b99046040518163ffffffff1660e01b8152600401602060405180830381865afa1580156121ce573d6000803e3d6000fd5b505050506040513d601f19601f820116820180604052508101906121f29190613640565b82610240018181525050806001600160a01b0316638d02d9a16040518163ffffffff1660e01b8152600401602060405180830381865afa15801561223a573d6000803e3d6000fd5b505050506040513d601f19601f8201168201806040525081019061225e9190613640565b82610260018181525050806001600160a01b031663dbfe7c196040518163ffffffff1660e01b8152600401602060405180830381865afa1580156122a6573d6000803e3d6000fd5b505050506040513d601f19601f820116820180604052508101906122ca9190613640565b610280830152604051636d154ea560e01b81526001600160a01b0382811660048301528e1690636d154ea590602401602060405180830381865afa158015612316573d6000803e3d6000fd5b505050506040513d601f19601f8201168201806040525081019061233a91906136c9565b15156102a083015287518290899089908110612358576123586133ae565b6020026020010181905250868061236e906133da565b975050505050505b80612380816133da565b9150506117c5565b5091979650505050505050565b60008054610100900460ff16156123dc578160ff1660011480156123b85750303b155b6123d45760405162461bcd60e51b815260040161044e9061387c565b506000919050565b60005460ff8084169116106124035760405162461bcd60e51b815260040161044e9061387c565b506000805460ff191660ff92909216919091179055600190565b919050565b606080600083516001600160401b0381111561244057612440612c4c565b6040519080825280602002602001820160405280156124a557816020015b6124926040518060a00160405280600081526020016000815260200160608152602001606081526020016000151581525090565b81526020019060019003908161245e5790505b509050600084516001600160401b038111156124c3576124c3612c4c565b6040519080825280602002602001820160405280156124ec578160200160208202803683370190505b50905060005b855181101561261e57306001600160a01b03166359d2fea687838151811061251c5761251c6133ae565b6020026020010151604001516040518263ffffffff1660e01b815260040161255391906001600160a01b0391909116815260200190565b6000604051808303816000875af192505050801561259357506040513d6000823e601f3d908101601f191682016040526125909190810190613949565b60015b6125c05760018282815181106125ab576125ab6133ae565b9115156020928302919091019091015261260c565b6040518060a001604052808681526020018581526020018481526020018381526020018215158152508887815181106125fb576125fb6133ae565b602002602001018190525050505050505b80612616816133da565b9150506124f2565b509094909350915050565b6001600160a01b038116600090815260036020526040902060010180546060918291612654906132da565b15905061279a576001600160a01b0383166000908152600360205260409020805460018201908290612685906132da565b80601f01602080910402602001604051908101604052809291908181526020018280546126b1906132da565b80156126fe5780601f106126d3576101008083540402835291602001916126fe565b820191906000526020600020905b8154815290600101906020018083116126e157829003601f168201915b50505050509150808054612711906132da565b80601f016020809104026020016040519081016040528092919081815260200182805461273d906132da565b801561278a5780601f1061275f5761010080835404028352916020019161278a565b820191906000526020600020905b81548152906001019060200180831161276d57829003601f168201915b5050505050905091509150915091565b60008390506000816001600160a01b03166306fdde036040518163ffffffff1660e01b8152600401600060405180830381865afa1580156127df573d6000803e3d6000fd5b505050506040513d6000823e601f3d908101601f191682016040526128079190810190613a31565b90506000826001600160a01b03166395d89b416040518163ffffffff1660e01b8152600401600060405180830381865afa158015612849573d6000803e3d6000fd5b505050506040513d6000823e601f3d908101601f191682016040526128719190810190613a31565b9196919550909350505050565b82805461288a906132da565b90600052602060002090601f0160209004810192826128ac57600085556128f2565b82601f106128c557805160ff19168380011785556128f2565b828001600101855582156128f2579182015b828111156128f25782518255916020019190600101906128d7565b506128fe9291506129c8565b5090565b604051806102c0016040528060006001600160a01b0316815260200160006001600160a01b031681526020016060815260200160608152602001600081526020016000815260200160008152602001600081526020016000815260200160008152602001600081526020016000815260200160008152602001600015158152602001600081526020016000815260200160006001600160a01b03168152602001600081526020016000815260200160008152602001600081526020016000151581525090565b5b808211156128fe57600081556001016129c9565b60005b838110156129f85781810151838201526020016129e0565b83811115612a07576000848401525b50505050565b60008151808452612a258160208601602086016129dd565b601f01601f19169290920160200192915050565b602081526000612a4c6020830184612a0d565b9392505050565b6001600160a01b0381168114612a6857600080fd5b50565b60008060408385031215612a7e57600080fd5b8235612a8981612a53565b91506020830135612a9981612a53565b809150509250929050565b60006020808301818452808551808352604092508286019150828160051b87010184880160005b83811015612c1657888303603f19018552815180516001600160a01b031684526102c0818901516001600160a01b038116868b015250878201518189870152612b1682870182612a0d565b91505060608083015186830382880152612b308382612a0d565b6080858101519089015260a0808601519089015260c0808601519089015260e08086015190890152610100808601519089015261012080860151908901526101408086015190890152610160808601519089015261018080860151908901526101a0808601511515908901526101c080860151908901526101e08086015190890152610200808601516001600160a01b03169089015261022080860151908901526102408086015190890152610260808601519089015261028080860151908901526102a094850151151594909701939093525050509386019390860190600101612acb565b509098975050505050505050565b600060208284031215612c3657600080fd5b8135612a4c81612a53565b803561241d81612a53565b634e487b7160e01b600052604160045260246000fd5b60405160a081016001600160401b0381118282101715612c8457612c84612c4c565b60405290565b604051601f8201601f191681016001600160401b0381118282101715612cb257612cb2612c4c565b604052919050565b60006001600160401b03821115612cd357612cd3612c4c565b50601f01601f191660200190565b600082601f830112612cf257600080fd5b8135612d05612d0082612cba565b612c8a565b818152846020838601011115612d1a57600080fd5b816020850160208301376000918101602001919091529392505050565b60006001600160401b03821115612d5057612d50612c4c565b5060051b60200190565b600082601f830112612d6b57600080fd5b81356020612d7b612d0083612d37565b82815260059290921b84018101918181019086841115612d9a57600080fd5b8286015b84811015612dbe578035612db181612a53565b8352918301918301612d9e565b509695505050505050565b600082601f830112612dda57600080fd5b81356020612dea612d0083612d37565b82815260059290921b84018101918181019086841115612e0957600080fd5b8286015b84811015612dbe5780356001600160401b03811115612e2c5760008081fd5b612e3a8986838b0101612ce1565b845250918301918301612e0d565b60008060008060008060008060006101208a8c031215612e6757600080fd5b612e708a612c41565b985060208a01356001600160401b0380821115612e8c57600080fd5b612e988d838e01612ce1565b995060408c0135915080821115612eae57600080fd5b612eba8d838e01612ce1565b985060608c0135915080821115612ed057600080fd5b612edc8d838e01612d5a565b975060808c0135915080821115612ef257600080fd5b612efe8d838e01612dc9565b965060a08c0135915080821115612f1457600080fd5b612f208d838e01612dc9565b955060c08c0135915080821115612f3657600080fd5b612f428d838e01612dc9565b945060e08c0135915080821115612f5857600080fd5b612f648d838e01612dc9565b93506101008c0135915080821115612f7b57600080fd5b50612f888c828d01612dc9565b9150509295985092959850929598565b600081518084526020808501945080840160005b83811015612fc857815187529582019590820190600101612fac565b509495945050505050565b600081518084526020808501808196508360051b8101915082860160005b85811015612388578284038952815160a0815181875261301382880182612a0d565b838901516001600160a01b03908116898b01526040808601519091169089015260608085015190890152608093840151939097019290925250509784019790840190600101612ff1565b600081518084526020808501945080840160005b83811015612fc85781516001600160a01b031687529582019590820190600101613071565b600081518084526020808501808196508360051b8101915082860160005b858110156123885782840389526130cc848351612a0d565b988501989350908401906001016130b4565b600081518084526020808501945080840160005b83811015612fc85781511515875295820195908201906001016130f2565b6000608080835261312381840188612f98565b6020848203818601526131368289612fd3565b91506040858303818701528288518085528385019150838160051b860101848b0160005b838110156131cb57601f19888403018552815160a08151855288820151898601528782015181898701526131908287018261305d565b915050606080830151868303828801526131aa8382613096565b938d01511515968d019690965250509487019492509086019060010161315a565b505088810360608a01526131df818b6130de565b9d9c50505050505050505050505050565b85815284602082015260a06040820152600061320f60a083018661305d565b82810360608401526132218186613096565b91505082151560808301529695505050505050565b6040815260006132496040830185612f98565b828103602084015261325b8185612fd3565b95945050505050565b6000806040838503121561327757600080fd5b823561328281612a53565b915060208301356001600160401b0381111561329d57600080fd5b830160808186031215612a9957600080fd5b8015158114612a6857600080fd5b6000602082840312156132cf57600080fd5b8135612a4c816132af565b600181811c908216806132ee57607f821691505b6020821081141561330f57634e487b7160e01b600052602260045260246000fd5b50919050565b6000602080838503121561332857600080fd5b82516001600160401b0381111561333e57600080fd5b8301601f8101851361334f57600080fd5b805161335d612d0082612d37565b81815260059190911b8201830190838101908783111561337c57600080fd5b928401925b828410156133a357835161339481612a53565b82529284019290840190613381565b979650505050505050565b634e487b7160e01b600052603260045260246000fd5b634e487b7160e01b600052601160045260246000fd5b60006000198214156133ee576133ee6133c4565b5060010190565b600082601f83011261340657600080fd5b8151613414612d0082612cba565b81815284602083860101111561342957600080fd5b6103398260208301602087016129dd565b600082601f83011261344b57600080fd5b8151602061345b612d0083612d37565b82815260059290921b8401810191818101908684111561347a57600080fd5b8286015b84811015612dbe5780516001600160401b038082111561349e5760008081fd5b9088019060a0828b03601f19018113156134b85760008081fd5b6134c0612c62565b87840151838111156134d25760008081fd5b6134e08d8a838801016133f5565b82525060409250828401516134f481612a53565b8189015260608481015161350781612a53565b938201939093526080848101519382019390935292015190820152835291830191830161347e565b6000806040838503121561354257600080fd5b82516001600160401b038082111561355957600080fd5b818501915085601f83011261356d57600080fd5b8151602061357d612d0083612d37565b82815260059290921b8401810191818101908984111561359c57600080fd5b948201945b838610156135ba578551825294820194908201906135a1565b918801519196509093505050808211156135d357600080fd5b506135e08582860161343a565b9150509250929050565b6000602082840312156135fc57600080fd5b8151612a4c81612a53565b805161241d816132af565b6000806040838503121561362557600080fd5b8251613630816132af565b6020939093015192949293505050565b60006020828403121561365257600080fd5b5051919050565b6000821982111561366c5761366c6133c4565b500190565b600082821015613683576136836133c4565b500390565b60008160001904831182151516156136a2576136a26133c4565b500290565b6000826136c457634e487b7160e01b600052601260045260246000fd5b500490565b6000602082840312156136db57600080fd5b8151612a4c816132af565b6000602082840312156136f857600080fd5b81516001600160401b0381111561370e57600080fd5b6103398482850161343a565b6000808335601e1984360301811261373157600080fd5b83016020810192503590506001600160401b0381111561375057600080fd5b80360383131561154957600080fd5b81835281816020850137506000828201602090810191909152601f909101601f19169091010190565b6001600160a01b03831681526040602082015260006137a7838061371a565b608060408501526137bc60c08501828461375f565b9150506137cc602085018561371a565b603f19808685030160608701526137e484838561375f565b93506137f3604088018861371a565b935091508086850301608087015261380c84848461375f565b935061381b606088018861371a565b93509150808685030160a0870152506133a383838361375f565b6000806040838503121561384857600080fd5b505080516020909101519092909150565b60006020828403121561386b57600080fd5b815160ff81168114612a4c57600080fd5b6020808252602e908201527f496e697469616c697a61626c653a20636f6e747261637420697320616c72656160408201526d191e481a5b9a5d1a585b1a5e995960921b606082015260800190565b600082601f8301126138db57600080fd5b815160206138eb612d0083612d37565b82815260059290921b8401810191818101908684111561390a57600080fd5b8286015b84811015612dbe5780516001600160401b0381111561392d5760008081fd5b61393b8986838b01016133f5565b84525091830191830161390e565b600080600080600060a0868803121561396157600080fd5b85519450602080870151945060408701516001600160401b038082111561398757600080fd5b818901915089601f83011261399b57600080fd5b81516139a9612d0082612d37565b81815260059190911b8301840190848101908c8311156139c857600080fd5b938501935b828510156139ef5784516139e081612a53565b825293850193908501906139cd565b60608c01519098509450505080831115613a0857600080fd5b5050613a16888289016138ca565b925050613a2560808701613607565b90509295509295909350565b600060208284031215613a4357600080fd5b81516001600160401b03811115613a5957600080fd5b610339848285016133f556fea164736f6c634300080a000a",
    "linkReferences": {}
  }
}