{
  "abi": [
    {
      "anonymous": false,
      "inputs": [
        {
          "indexed": false,
          "internalType": "uint8",
          "name": "version",
          "type": "uint8"
        }
      ],
      "name": "Initialized",
      "type": "event"
    },
    {
      "inputs": [],
      "name": "directory",
      "outputs": [
        {
          "internalType": "contract FusePoolDirectory",
          "name": "",
          "type": "address"
        }
      ],
      "stateMutability": "view",
      "type": "function"
    },
    {
      "inputs": [
        {
          "internalType": "contract IComptroller",
          "name": "comptroller",
          "type": "address"
        },
        {
          "internalType": "address",
          "name": "user",
          "type": "address"
        }
      ],
      "name": "getPoolAssetsByUser",
      "outputs": [
        {
          "components": [
            {
              "internalType": "address",
              "name": "cToken",
              "type": "address"
            },
            {
              "internalType": "address",
              "name": "underlyingToken",
              "type": "address"
            },
            {
              "internalType": "string",
              "name": "underlyingName",
              "type": "string"
            },
            {
              "internalType": "string",
              "name": "underlyingSymbol",
              "type": "string"
            },
            {
              "internalType": "uint256",
              "name": "underlyingDecimals",
              "type": "uint256"
            },
            {
              "internalType": "uint256",
              "name": "underlyingBalance",
              "type": "uint256"
            },
            {
              "internalType": "uint256",
              "name": "supplyRatePerBlock",
              "type": "uint256"
            },
            {
              "internalType": "uint256",
              "name": "borrowRatePerBlock",
              "type": "uint256"
            },
            {
              "internalType": "uint256",
              "name": "totalSupply",
              "type": "uint256"
            },
            {
              "internalType": "uint256",
              "name": "totalBorrow",
              "type": "uint256"
            },
            {
              "internalType": "uint256",
              "name": "supplyBalance",
              "type": "uint256"
            },
            {
              "internalType": "uint256",
              "name": "borrowBalance",
              "type": "uint256"
            },
            {
              "internalType": "uint256",
              "name": "liquidity",
              "type": "uint256"
            },
            {
              "internalType": "bool",
              "name": "membership",
              "type": "bool"
            },
            {
              "internalType": "uint256",
              "name": "exchangeRate",
              "type": "uint256"
            },
            {
              "internalType": "uint256",
              "name": "underlyingPrice",
              "type": "uint256"
            },
            {
              "internalType": "address",
              "name": "oracle",
              "type": "address"
            },
            {
              "internalType": "uint256",
              "name": "collateralFactor",
              "type": "uint256"
            },
            {
              "internalType": "uint256",
              "name": "reserveFactor",
              "type": "uint256"
            },
            {
              "internalType": "uint256",
              "name": "adminFee",
              "type": "uint256"
            },
            {
              "internalType": "uint256",
              "name": "fuseFee",
              "type": "uint256"
            },
            {
              "internalType": "bool",
              "name": "borrowGuardianPaused",
              "type": "bool"
            }
          ],
          "internalType": "struct FusePoolLens.FusePoolAsset[]",
          "name": "",
          "type": "tuple[]"
        }
      ],
      "stateMutability": "nonpayable",
      "type": "function"
    },
    {
      "inputs": [
        {
          "internalType": "contract IComptroller",
          "name": "comptroller",
          "type": "address"
        }
      ],
      "name": "getPoolAssetsWithData",
      "outputs": [
        {
          "components": [
            {
              "internalType": "address",
              "name": "cToken",
              "type": "address"
            },
            {
              "internalType": "address",
              "name": "underlyingToken",
              "type": "address"
            },
            {
              "internalType": "string",
              "name": "underlyingName",
              "type": "string"
            },
            {
              "internalType": "string",
              "name": "underlyingSymbol",
              "type": "string"
            },
            {
              "internalType": "uint256",
              "name": "underlyingDecimals",
              "type": "uint256"
            },
            {
              "internalType": "uint256",
              "name": "underlyingBalance",
              "type": "uint256"
            },
            {
              "internalType": "uint256",
              "name": "supplyRatePerBlock",
              "type": "uint256"
            },
            {
              "internalType": "uint256",
              "name": "borrowRatePerBlock",
              "type": "uint256"
            },
            {
              "internalType": "uint256",
              "name": "totalSupply",
              "type": "uint256"
            },
            {
              "internalType": "uint256",
              "name": "totalBorrow",
              "type": "uint256"
            },
            {
              "internalType": "uint256",
              "name": "supplyBalance",
              "type": "uint256"
            },
            {
              "internalType": "uint256",
              "name": "borrowBalance",
              "type": "uint256"
            },
            {
              "internalType": "uint256",
              "name": "liquidity",
              "type": "uint256"
            },
            {
              "internalType": "bool",
              "name": "membership",
              "type": "bool"
            },
            {
              "internalType": "uint256",
              "name": "exchangeRate",
              "type": "uint256"
            },
            {
              "internalType": "uint256",
              "name": "underlyingPrice",
              "type": "uint256"
            },
            {
              "internalType": "address",
              "name": "oracle",
              "type": "address"
            },
            {
              "internalType": "uint256",
              "name": "collateralFactor",
              "type": "uint256"
            },
            {
              "internalType": "uint256",
              "name": "reserveFactor",
              "type": "uint256"
            },
            {
              "internalType": "uint256",
              "name": "adminFee",
              "type": "uint256"
            },
            {
              "internalType": "uint256",
              "name": "fuseFee",
              "type": "uint256"
            },
            {
              "internalType": "bool",
              "name": "borrowGuardianPaused",
              "type": "bool"
            }
          ],
          "internalType": "struct FusePoolLens.FusePoolAsset[]",
          "name": "",
          "type": "tuple[]"
        }
      ],
      "stateMutability": "nonpayable",
      "type": "function"
    },
    {
      "inputs": [
        {
          "internalType": "contract IComptroller",
          "name": "comptroller",
          "type": "address"
        }
      ],
      "name": "getPoolSummary",
      "outputs": [
        {
          "internalType": "uint256",
          "name": "",
          "type": "uint256"
        },
        {
          "internalType": "uint256",
          "name": "",
          "type": "uint256"
        },
        {
          "internalType": "address[]",
          "name": "",
          "type": "address[]"
        },
        {
          "internalType": "string[]",
          "name": "",
          "type": "string[]"
        },
        {
          "internalType": "bool",
          "name": "",
          "type": "bool"
        }
      ],
      "stateMutability": "nonpayable",
      "type": "function"
    },
    {
      "inputs": [
        {
          "internalType": "contract IComptroller[]",
          "name": "comptrollers",
          "type": "address[]"
        },
        {
          "internalType": "uint256",
          "name": "maxHealth",
          "type": "uint256"
        }
      ],
      "name": "getPoolUsersWithData",
      "outputs": [
        {
          "components": [
            {
              "internalType": "address",
              "name": "account",
              "type": "address"
            },
            {
              "internalType": "uint256",
              "name": "totalBorrow",
              "type": "uint256"
            },
            {
              "internalType": "uint256",
              "name": "totalCollateral",
              "type": "uint256"
            },
            {
              "internalType": "uint256",
              "name": "health",
              "type": "uint256"
            }
          ],
          "internalType": "struct FusePoolLens.FusePoolUser[][]",
          "name": "",
          "type": "tuple[][]"
        },
        {
          "internalType": "uint256[]",
          "name": "",
          "type": "uint256[]"
        },
        {
          "internalType": "uint256[]",
          "name": "",
          "type": "uint256[]"
        },
        {
          "internalType": "bool[]",
          "name": "",
          "type": "bool[]"
        }
      ],
      "stateMutability": "nonpayable",
      "type": "function"
    },
    {
      "inputs": [
        {
          "internalType": "contract IComptroller",
          "name": "comptroller",
          "type": "address"
        },
        {
          "internalType": "uint256",
          "name": "maxHealth",
          "type": "uint256"
        }
      ],
      "name": "getPoolUsersWithData",
      "outputs": [
        {
          "components": [
            {
              "internalType": "address",
              "name": "account",
              "type": "address"
            },
            {
              "internalType": "uint256",
              "name": "totalBorrow",
              "type": "uint256"
            },
            {
              "internalType": "uint256",
              "name": "totalCollateral",
              "type": "uint256"
            },
            {
              "internalType": "uint256",
              "name": "health",
              "type": "uint256"
            }
          ],
          "internalType": "struct FusePoolLens.FusePoolUser[]",
          "name": "",
          "type": "tuple[]"
        },
        {
          "internalType": "uint256",
          "name": "",
          "type": "uint256"
        },
        {
          "internalType": "uint256",
          "name": "",
          "type": "uint256"
        }
      ],
      "stateMutability": "nonpayable",
      "type": "function"
    },
    {
      "inputs": [
        {
          "internalType": "address",
          "name": "account",
          "type": "address"
        }
      ],
      "name": "getPoolsByAccountWithData",
      "outputs": [
        {
          "internalType": "uint256[]",
          "name": "",
          "type": "uint256[]"
        },
        {
          "components": [
            {
              "internalType": "string",
              "name": "name",
              "type": "string"
            },
            {
              "internalType": "address",
              "name": "creator",
              "type": "address"
            },
            {
              "internalType": "address",
              "name": "comptroller",
              "type": "address"
            },
            {
              "internalType": "uint256",
              "name": "blockPosted",
              "type": "uint256"
            },
            {
              "internalType": "uint256",
              "name": "timestampPosted",
              "type": "uint256"
            }
          ],
          "internalType": "struct FusePoolDirectory.FusePool[]",
          "name": "",
          "type": "tuple[]"
        },
        {
          "components": [
            {
              "internalType": "uint256",
              "name": "totalSupply",
              "type": "uint256"
            },
            {
              "internalType": "uint256",
              "name": "totalBorrow",
              "type": "uint256"
            },
            {
              "internalType": "address[]",
              "name": "underlyingTokens",
              "type": "address[]"
            },
            {
              "internalType": "string[]",
              "name": "underlyingSymbols",
              "type": "string[]"
            },
            {
              "internalType": "bool",
              "name": "whitelistedAdmin",
              "type": "bool"
            }
          ],
          "internalType": "struct FusePoolLens.FusePoolData[]",
          "name": "",
          "type": "tuple[]"
        },
        {
          "internalType": "bool[]",
          "name": "",
          "type": "bool[]"
        }
      ],
      "stateMutability": "nonpayable",
      "type": "function"
    },
    {
      "inputs": [
        {
          "internalType": "address",
          "name": "account",
          "type": "address"
        }
      ],
      "name": "getPoolsBySupplier",
      "outputs": [
        {
          "internalType": "uint256[]",
          "name": "",
          "type": "uint256[]"
        },
        {
          "components": [
            {
              "internalType": "string",
              "name": "name",
              "type": "string"
            },
            {
              "internalType": "address",
              "name": "creator",
              "type": "address"
            },
            {
              "internalType": "address",
              "name": "comptroller",
              "type": "address"
            },
            {
              "internalType": "uint256",
              "name": "blockPosted",
              "type": "uint256"
            },
            {
              "internalType": "uint256",
              "name": "timestampPosted",
              "type": "uint256"
            }
          ],
          "internalType": "struct FusePoolDirectory.FusePool[]",
          "name": "",
          "type": "tuple[]"
        }
      ],
      "stateMutability": "view",
      "type": "function"
    },
    {
      "inputs": [
        {
          "internalType": "address",
          "name": "account",
          "type": "address"
        }
      ],
      "name": "getPoolsBySupplierWithData",
      "outputs": [
        {
          "internalType": "uint256[]",
          "name": "",
          "type": "uint256[]"
        },
        {
          "components": [
            {
              "internalType": "string",
              "name": "name",
              "type": "string"
            },
            {
              "internalType": "address",
              "name": "creator",
              "type": "address"
            },
            {
              "internalType": "address",
              "name": "comptroller",
              "type": "address"
            },
            {
              "internalType": "uint256",
              "name": "blockPosted",
              "type": "uint256"
            },
            {
              "internalType": "uint256",
              "name": "timestampPosted",
              "type": "uint256"
            }
          ],
          "internalType": "struct FusePoolDirectory.FusePool[]",
          "name": "",
          "type": "tuple[]"
        },
        {
          "components": [
            {
              "internalType": "uint256",
              "name": "totalSupply",
              "type": "uint256"
            },
            {
              "internalType": "uint256",
              "name": "totalBorrow",
              "type": "uint256"
            },
            {
              "internalType": "address[]",
              "name": "underlyingTokens",
              "type": "address[]"
            },
            {
              "internalType": "string[]",
              "name": "underlyingSymbols",
              "type": "string[]"
            },
            {
              "internalType": "bool",
              "name": "whitelistedAdmin",
              "type": "bool"
            }
          ],
          "internalType": "struct FusePoolLens.FusePoolData[]",
          "name": "",
          "type": "tuple[]"
        },
        {
          "internalType": "bool[]",
          "name": "",
          "type": "bool[]"
        }
      ],
      "stateMutability": "nonpayable",
      "type": "function"
    },
    {
      "inputs": [
        {
          "internalType": "uint256",
          "name": "maxHealth",
          "type": "uint256"
        }
      ],
      "name": "getPublicPoolUsersWithData",
      "outputs": [
        {
          "internalType": "contract IComptroller[]",
          "name": "",
          "type": "address[]"
        },
        {
          "components": [
            {
              "internalType": "address",
              "name": "account",
              "type": "address"
            },
            {
              "internalType": "uint256",
              "name": "totalBorrow",
              "type": "uint256"
            },
            {
              "internalType": "uint256",
              "name": "totalCollateral",
              "type": "uint256"
            },
            {
              "internalType": "uint256",
              "name": "health",
              "type": "uint256"
            }
          ],
          "internalType": "struct FusePoolLens.FusePoolUser[][]",
          "name": "",
          "type": "tuple[][]"
        },
        {
          "internalType": "uint256[]",
          "name": "",
          "type": "uint256[]"
        },
        {
          "internalType": "uint256[]",
          "name": "",
          "type": "uint256[]"
        },
        {
          "internalType": "bool[]",
          "name": "",
          "type": "bool[]"
        }
      ],
      "stateMutability": "nonpayable",
      "type": "function"
    },
    {
      "inputs": [
        {
          "internalType": "bool",
          "name": "whitelistedAdmin",
          "type": "bool"
        }
      ],
      "name": "getPublicPoolsByVerificationWithData",
      "outputs": [
        {
          "internalType": "uint256[]",
          "name": "",
          "type": "uint256[]"
        },
        {
          "components": [
            {
              "internalType": "string",
              "name": "name",
              "type": "string"
            },
            {
              "internalType": "address",
              "name": "creator",
              "type": "address"
            },
            {
              "internalType": "address",
              "name": "comptroller",
              "type": "address"
            },
            {
              "internalType": "uint256",
              "name": "blockPosted",
              "type": "uint256"
            },
            {
              "internalType": "uint256",
              "name": "timestampPosted",
              "type": "uint256"
            }
          ],
          "internalType": "struct FusePoolDirectory.FusePool[]",
          "name": "",
          "type": "tuple[]"
        },
        {
          "components": [
            {
              "internalType": "uint256",
              "name": "totalSupply",
              "type": "uint256"
            },
            {
              "internalType": "uint256",
              "name": "totalBorrow",
              "type": "uint256"
            },
            {
              "internalType": "address[]",
              "name": "underlyingTokens",
              "type": "address[]"
            },
            {
              "internalType": "string[]",
              "name": "underlyingSymbols",
              "type": "string[]"
            },
            {
              "internalType": "bool",
              "name": "whitelistedAdmin",
              "type": "bool"
            }
          ],
          "internalType": "struct FusePoolLens.FusePoolData[]",
          "name": "",
          "type": "tuple[]"
        },
        {
          "internalType": "bool[]",
          "name": "",
          "type": "bool[]"
        }
      ],
      "stateMutability": "nonpayable",
      "type": "function"
    },
    {
      "inputs": [],
      "name": "getPublicPoolsWithData",
      "outputs": [
        {
          "internalType": "uint256[]",
          "name": "",
          "type": "uint256[]"
        },
        {
          "components": [
            {
              "internalType": "string",
              "name": "name",
              "type": "string"
            },
            {
              "internalType": "address",
              "name": "creator",
              "type": "address"
            },
            {
              "internalType": "address",
              "name": "comptroller",
              "type": "address"
            },
            {
              "internalType": "uint256",
              "name": "blockPosted",
              "type": "uint256"
            },
            {
              "internalType": "uint256",
              "name": "timestampPosted",
              "type": "uint256"
            }
          ],
          "internalType": "struct FusePoolDirectory.FusePool[]",
          "name": "",
          "type": "tuple[]"
        },
        {
          "components": [
            {
              "internalType": "uint256",
              "name": "totalSupply",
              "type": "uint256"
            },
            {
              "internalType": "uint256",
              "name": "totalBorrow",
              "type": "uint256"
            },
            {
              "internalType": "address[]",
              "name": "underlyingTokens",
              "type": "address[]"
            },
            {
              "internalType": "string[]",
              "name": "underlyingSymbols",
              "type": "string[]"
            },
            {
              "internalType": "bool",
              "name": "whitelistedAdmin",
              "type": "bool"
            }
          ],
          "internalType": "struct FusePoolLens.FusePoolData[]",
          "name": "",
          "type": "tuple[]"
        },
        {
          "internalType": "bool[]",
          "name": "",
          "type": "bool[]"
        }
      ],
      "stateMutability": "nonpayable",
      "type": "function"
    },
    {
      "inputs": [
        {
          "internalType": "address",
          "name": "account",
          "type": "address"
        }
      ],
      "name": "getWhitelistedPoolsByAccount",
      "outputs": [
        {
          "internalType": "uint256[]",
          "name": "",
          "type": "uint256[]"
        },
        {
          "components": [
            {
              "internalType": "string",
              "name": "name",
              "type": "string"
            },
            {
              "internalType": "address",
              "name": "creator",
              "type": "address"
            },
            {
              "internalType": "address",
              "name": "comptroller",
              "type": "address"
            },
            {
              "internalType": "uint256",
              "name": "blockPosted",
              "type": "uint256"
            },
            {
              "internalType": "uint256",
              "name": "timestampPosted",
              "type": "uint256"
            }
          ],
          "internalType": "struct FusePoolDirectory.FusePool[]",
          "name": "",
          "type": "tuple[]"
        }
      ],
      "stateMutability": "view",
      "type": "function"
    },
    {
      "inputs": [
        {
          "internalType": "address",
          "name": "account",
          "type": "address"
        }
      ],
      "name": "getWhitelistedPoolsByAccountWithData",
      "outputs": [
        {
          "internalType": "uint256[]",
          "name": "",
          "type": "uint256[]"
        },
        {
          "components": [
            {
              "internalType": "string",
              "name": "name",
              "type": "string"
            },
            {
              "internalType": "address",
              "name": "creator",
              "type": "address"
            },
            {
              "internalType": "address",
              "name": "comptroller",
              "type": "address"
            },
            {
              "internalType": "uint256",
              "name": "blockPosted",
              "type": "uint256"
            },
            {
              "internalType": "uint256",
              "name": "timestampPosted",
              "type": "uint256"
            }
          ],
          "internalType": "struct FusePoolDirectory.FusePool[]",
          "name": "",
          "type": "tuple[]"
        },
        {
          "components": [
            {
              "internalType": "uint256",
              "name": "totalSupply",
              "type": "uint256"
            },
            {
              "internalType": "uint256",
              "name": "totalBorrow",
              "type": "uint256"
            },
            {
              "internalType": "address[]",
              "name": "underlyingTokens",
              "type": "address[]"
            },
            {
              "internalType": "string[]",
              "name": "underlyingSymbols",
              "type": "string[]"
            },
            {
              "internalType": "bool",
              "name": "whitelistedAdmin",
              "type": "bool"
            }
          ],
          "internalType": "struct FusePoolLens.FusePoolData[]",
          "name": "",
          "type": "tuple[]"
        },
        {
          "internalType": "bool[]",
          "name": "",
          "type": "bool[]"
        }
      ],
      "stateMutability": "nonpayable",
      "type": "function"
    },
    {
      "inputs": [
        {
          "internalType": "contract FusePoolDirectory",
          "name": "_directory",
          "type": "address"
        },
        {
          "internalType": "string",
          "name": "_name",
          "type": "string"
        },
        {
          "internalType": "string",
          "name": "_symbol",
          "type": "string"
        },
        {
          "internalType": "address[]",
          "name": "_hardcodedAddresses",
          "type": "address[]"
        },
        {
          "internalType": "string[]",
          "name": "_hardcodedNames",
          "type": "string[]"
        },
        {
          "internalType": "string[]",
          "name": "_hardcodedSymbols",
          "type": "string[]"
        },
        {
          "internalType": "string[]",
          "name": "_uniswapLPTokenNames",
          "type": "string[]"
        },
        {
          "internalType": "string[]",
          "name": "_uniswapLPTokenSymbols",
          "type": "string[]"
        },
        {
          "internalType": "string[]",
          "name": "_uniswapLPTokenDisplayNames",
          "type": "string[]"
        }
      ],
      "name": "initialize",
      "outputs": [],
      "stateMutability": "nonpayable",
      "type": "function"
    },
    {
      "inputs": [],
      "name": "name",
      "outputs": [
        {
          "internalType": "string",
          "name": "",
          "type": "string"
        }
      ],
      "stateMutability": "view",
      "type": "function"
    },
    {
      "inputs": [],
      "name": "symbol",
      "outputs": [
        {
          "internalType": "string",
          "name": "",
          "type": "string"
        }
      ],
      "stateMutability": "view",
      "type": "function"
    },
    {
      "inputs": [
        {
          "internalType": "contract ICToken",
          "name": "cToken",
          "type": "address"
        },
        {
          "components": [
            {
              "internalType": "bytes",
              "name": "block",
              "type": "bytes"
            },
            {
              "internalType": "bytes",
              "name": "accountProofNodesRlp",
              "type": "bytes"
            },
            {
              "internalType": "bytes",
              "name": "reserveAndTimestampProofNodesRlp",
              "type": "bytes"
            },
            {
              "internalType": "bytes",
              "name": "priceAccumulatorProofNodesRlp",
              "type": "bytes"
            }
          ],
          "internalType": "struct UniswapOracle.ProofData",
          "name": "proofData",
          "type": "tuple"
        }
      ],
      "name": "verifyPrice",
      "outputs": [
        {
          "internalType": "uint256",
          "name": "",
          "type": "uint256"
        },
        {
          "internalType": "uint256",
          "name": "",
          "type": "uint256"
        }
      ],
      "stateMutability": "nonpayable",
      "type": "function"
    }
  ],
  "bytecode": {
    "object": "0x608060405234801561001057600080fd5b50614fb7806100206000396000f3fe608060405234801561001057600080fd5b50600436106101165760003560e01c806370733375116100a2578063c41c2f2411610071578063c41c2f241461026f578063cd344be81461029a578063d0a164fb146102c2578063d64996e5146102ca578063dedfe22f146102dd57600080fd5b8063707333751461021f57806395d89b41146102325780639c00a3d41461023a578063c3530a631461025c57600080fd5b80633a1eb656116100e95780633a1eb6561461018d57806351678684146101a2578063586f6c10146101c557806359d2fea6146101e8578063635629e61461020c57600080fd5b806306fdde031461011b5780630b9c80bd146101395780630c5eb5a41461015a57806327e16c1f1461017a575b600080fd5b610123610301565b6040516101309190613ba5565b60405180910390f35b61014c610147366004613bd7565b61038f565b604051610130929190613cc9565b61016d610168366004613cf7565b610908565b6040516101309190613d30565b61016d610188366004613bd7565b610990565b6101a061019b3660046140d9565b610a08565b005b6101b56101b0366004613bd7565b610de5565b60405161013094939291906142dc565b6101d86101d33660046143bc565b610e88565b60405161013094939291906144fc565b6101fb6101f6366004613bd7565b61110b565b604051610130959493929190614554565b6101b561021a366004613bd7565b611954565b6101b561022d366004613bd7565b611966565b610123611978565b61024d61024836600461459a565b611985565b604051610130939291906145c6565b61014c61026a366004613bd7565b6120b9565b600554610282906001600160a01b031681565b6040516001600160a01b039091168152602001610130565b6102ad6102a83660046145eb565b6123d6565b60408051928352602083019190915201610130565b6101b561251e565b6101b56102d8366004614644565b6125c3565b6102f06102eb366004614661565b612603565b60405161013095949392919061467a565b6001805461030e90614719565b80601f016020809104026020016040519081016040528092919081815260200182805461033a90614719565b80156103875780601f1061035c57610100808354040283529160200191610387565b820191906000526020600020905b81548152906001019060200180831161036a57829003601f168201915b505050505081565b6060806000600560009054906101000a90046001600160a01b03166001600160a01b031663d88ff1f46040518163ffffffff1660e01b8152600401600060405180830381865afa1580156103e7573d6000803e3d6000fd5b505050506040513d6000823e601f3d908101601f1916820160405261040f919081019061488e565b90506000805b8251811015610605576000838281518110610432576104326148c2565b6020026020010151604001519050806001600160a01b03166316dc15fe886040518263ffffffff1660e01b815260040161047b91906001600160a01b0391909116815260200190565b602060405180830381865afa9250505080156104b4575060408051601f3d908101601f191682019092526104b1918101906148e3565b60015b6104bd576105f2565b80156105f0576000826001600160a01b031663b0772d0b6040518163ffffffff1660e01b8152600401600060405180830381865afa158015610503573d6000803e3d6000fd5b505050506040513d6000823e601f3d908101601f1916820160405261052b9190810190614900565b905060005b81518110156105ed57600082828151811061054d5761054d6148c2565b60209081029190910101516040516370a0823160e01b81526001600160a01b038d81166004830152909116906370a0823190602401602060405180830381865afa15801561059f573d6000803e3d6000fd5b505050506040513d601f19601f820116820180604052508101906105c3919061498e565b11156105db57856105d3816149bd565b9650506105ed565b806105e5816149bd565b915050610530565b50505b505b50806105fd816149bd565b915050610415565b506000816001600160401b0381111561062057610620613ebb565b604051908082528060200260200182016040528015610649578160200160208202803683370190505b5090506000826001600160401b0381111561066657610666613ebb565b60405190808252806020026020018201604052801561069f57816020015b61068c6139a9565b8152602001906001900390816106845790505b5090506000805b85518110156108fa5760008682815181106106c3576106c36148c2565b6020026020010151604001519050806001600160a01b03166316dc15fe8b6040518263ffffffff1660e01b815260040161070c91906001600160a01b0391909116815260200190565b602060405180830381865afa925050508015610745575060408051601f3d908101601f19168201909252610742918101906148e3565b60015b61074e576108e7565b80156108e5576000826001600160a01b031663b0772d0b6040518163ffffffff1660e01b8152600401600060405180830381865afa158015610794573d6000803e3d6000fd5b505050506040513d6000823e601f3d908101601f191682016040526107bc9190810190614900565b905060005b81518110156108e25760008282815181106107de576107de6148c2565b60200260200101516001600160a01b03166370a082318f6040518263ffffffff1660e01b815260040161082091906001600160a01b0391909116815260200190565b602060405180830381865afa15801561083d573d6000803e3d6000fd5b505050506040513d601f19601f82011682018060405250810190610861919061498e565b11156108d0578488878151811061087a5761087a6148c2565b602002602001018181525050898581518110610898576108986148c2565b60200260200101518787815181106108b2576108b26148c2565b602002602001018190525085806108c8906149bd565b9650506108e2565b806108da816149bd565b9150506107c1565b50505b505b50806108f2816149bd565b9150506106a6565b509197909650945050505050565b604051632aff3bff60e21b81526001600160a01b03828116600483015260609160009161098891869182169063abfceffc90602401600060405180830381865afa15801561095a573d6000803e3d6000fd5b505050506040513d6000823e601f3d908101601f191682016040526109829190810190614900565b85612760565b949350505050565b6060610a0282836001600160a01b031663b0772d0b6040518163ffffffff1660e01b8152600401600060405180830381865afa1580156109d4573d6000803e3d6000fd5b505050506040513d6000823e601f3d908101601f191682016040526109fc9190810190614900565b33612760565b92915050565b6000610a1460016134c0565b90508015610a2c576000805461ff0019166101001790555b6001600160a01b038a16610aa65760405162461bcd60e51b815260206004820152603660248201527f46757365506f6f6c4469726563746f727920696e7374616e63652063616e6e6f6044820152753a103132903a3432903d32b9379030b2323932b9b99760511b60648201526084015b60405180910390fd5b85518751148015610ab8575084518751145b610b135760405162461bcd60e51b815260206004820152602660248201527f48617264636f64656420616464726573736573206c656e67746873206e6f742060448201526532b8bab0b61760d11b6064820152608401610a9d565b82518451148015610b25575081518451145b610b835760405162461bcd60e51b815260206004820152602960248201527f556e6973776170204c5020746f6b656e206e616d6573206c656e67746873206e60448201526837ba1032b8bab0b61760b91b6064820152608401610a9d565b600580546001600160a01b0319166001600160a01b038c161790558851610bb19060019060208c01906139ea565b508751610bc59060029060208b01906139ea565b5060005b8751811015610ca3576040518060400160405280888381518110610bef57610bef6148c2565b60200260200101518152602001878381518110610c0e57610c0e6148c2565b6020026020010151815250600360008a8481518110610c2f57610c2f6148c2565b60200260200101516001600160a01b03166001600160a01b031681526020019081526020016000206000820151816000019080519060200190610c739291906139ea565b506020828101518051610c8c92600185019201906139ea565b509050508080610c9b906149bd565b915050610bc9565b5060005b8451811015610d925760046040518060600160405280878481518110610ccf57610ccf6148c2565b60200260200101518152602001868481518110610cee57610cee6148c2565b60200260200101518152602001858481518110610d0d57610d0d6148c2565b602090810291909101810151909152825460018101845560009384529281902082518051939460030290910192610d4792849201906139ea565b506020828101518051610d6092600185019201906139ea565b5060408201518051610d7c9160028401916020909101906139ea565b5050508080610d8a906149bd565b915050610ca7565b508015610dd9576000805461ff0019169055604051600181527f7f26b83ff96e1f2b6a682f133852f6798a09c465da95921460cefb38474024989060200160405180910390a15b50505050505050505050565b6005546040516351f6c8e360e11b81526001600160a01b03838116600483015260609283928392839260009283929091169063a3ed91c6906024015b600060405180830381865afa158015610e3e573d6000803e3d6000fd5b505050506040513d6000823e601f3d908101601f19168201604052610e6691908101906149d8565b91509150600080610e768361354d565b949a9399509750929550909350505050565b606080606080600086516001600160401b03811115610ea957610ea9613ebb565b604051908082528060200260200182016040528015610edc57816020015b6060815260200190600190039081610ec75790505b509050600087516001600160401b03811115610efa57610efa613ebb565b604051908082528060200260200182016040528015610f23578160200160208202803683370190505b509050600088516001600160401b03811115610f4157610f41613ebb565b604051908082528060200260200182016040528015610f6a578160200160208202803683370190505b509050600089516001600160401b03811115610f8857610f88613ebb565b604051908082528060200260200182016040528015610fb1578160200160208202803683370190505b50905060005b8a518110156110fa57306001600160a01b0316639c00a3d48c8381518110610fe157610fe16148c2565b60200260200101518c6040518363ffffffff1660e01b815260040161101b9291906001600160a01b03929092168252602082015260400190565b6000604051808303816000875af192505050801561105b57506040513d6000823e601f3d908101601f191682016040526110589190810190614a93565b60015b611088576001828281518110611073576110736148c2565b911515602092830291909101909101526110e8565b8288858151811061109b5761109b6148c2565b6020026020010181905250818785815181106110b9576110b96148c2565b602002602001018181525050808685815181106110d8576110d86148c2565b6020026020010181815250505050505b806110f2816149bd565b915050610fb7565b509299919850965090945092505050565b60008060608060008060009050600080886001600160a01b031663b0772d0b6040518163ffffffff1660e01b8152600401600060405180830381865afa158015611159573d6000803e3d6000fd5b505050506040513d6000823e601f3d908101601f191682016040526111819190810190614900565b9050600081516001600160401b0381111561119e5761119e613ebb565b6040519080825280602002602001820160405280156111c7578160200160208202803683370190505b509050600082516001600160401b038111156111e5576111e5613ebb565b60405190808252806020026020018201604052801561121857816020015b60608152602001906001900390816112035790505b50905060008b6001600160a01b0316637dc0d1d06040518163ffffffff1660e01b8152600401602060405180830381865afa15801561125b573d6000803e3d6000fd5b505050506040513d601f19601f8201168201806040525081019061127f9190614b78565b905060005b845181101561184c5760008582815181106112a1576112a16148c2565b6020026020010151905060008e6001600160a01b0316638e8f294b836040518263ffffffff1660e01b81526004016112e891906001600160a01b0391909116815260200190565b6040805180830381865afa158015611304573d6000803e3d6000fd5b505050506040513d601f19601f820116820180604052508101906113289190614b95565b5090508061133757505061183a565b6000826001600160a01b03166373acee986040518163ffffffff1660e01b81526004016020604051808303816000875af1158015611379573d6000803e3d6000fd5b505050506040513d601f19601f8201168201806040525081019061139d919061498e565b90506000836001600160a01b031663dc028ab16040518163ffffffff1660e01b8152600401602060405180830381865afa1580156113df573d6000803e3d6000fd5b505050506040513d601f19601f82011682018060405250810190611403919061498e565b846001600160a01b03166361feacff6040518163ffffffff1660e01b8152600401602060405180830381865afa158015611441573d6000803e3d6000fd5b505050506040513d601f19601f82011682018060405250810190611465919061498e565b856001600160a01b0316638f840ddd6040518163ffffffff1660e01b8152600401602060405180830381865afa1580156114a3573d6000803e3d6000fd5b505050506040513d601f19601f820116820180604052508101906114c7919061498e565b6114d19190614bc3565b6114db9190614bc3565b82856001600160a01b0316633b1d21a26040518163ffffffff1660e01b8152600401602060405180830381865afa15801561151a573d6000803e3d6000fd5b505050506040513d601f19601f8201168201806040525081019061153e919061498e565b6115489190614bc3565b6115529190614bdb565b60405163fc57d4df60e01b81526001600160a01b03868116600483015291925060009188169063fc57d4df90602401602060405180830381865afa15801561159e573d6000803e3d6000fd5b505050506040513d601f19601f820116820180604052508101906115c2919061498e565b9050670de0b6b3a76400006115d78285614bf2565b6115e19190614c11565b6115eb908d614bc3565b9b50670de0b6b3a76400006116008284614bf2565b61160a9190614c11565b611614908c614bc3565b9a50846001600160a01b031663ac784ddc6040518163ffffffff1660e01b8152600401602060405180830381865afa158015611654573d6000803e3d6000fd5b505050506040513d601f19601f8201168201806040525081019061167891906148e3565b1561175e576000898781518110611691576116916148c2565b60200260200101906001600160a01b031690816001600160a01b031681525050600280546116be90614719565b80601f01602080910402602001604051908101604052809291908181526020018280546116ea90614719565b80156117375780601f1061170c57610100808354040283529160200191611737565b820191906000526020600020905b81548152906001019060200180831161171a57829003601f168201915b505050505088878151811061174e5761174e6148c2565b6020026020010181905250611834565b846001600160a01b0316636f307dc36040518163ffffffff1660e01b8152600401602060405180830381865afa15801561179c573d6000803e3d6000fd5b505050506040513d601f19601f820116820180604052508101906117c09190614b78565b8987815181106117d2576117d26148c2565b60200260200101906001600160a01b031690816001600160a01b031681525050611814898781518110611807576118076148c2565b6020026020010151613754565b9050888781518110611828576118286148c2565b60200260200101819052505b50505050505b80611844816149bd565b915050611284565b506000600560009054906101000a90046001600160a01b03166001600160a01b03166343e20a1d8e6001600160a01b031663f851a4406040518163ffffffff1660e01b8152600401602060405180830381865afa1580156118b1573d6000803e3d6000fd5b505050506040513d601f19601f820116820180604052508101906118d59190614b78565b6040516001600160e01b031960e084901b1681526001600160a01b039091166004820152602401602060405180830381865afa158015611919573d6000803e3d6000fd5b505050506040513d601f19601f8201168201806040525081019061193d91906148e3565b959d969c50929a5090985092965092945050505050565b606080606080600080610e668761038f565b606080606080600080610e66876120b9565b6002805461030e90614719565b60606000806000856001600160a01b03166332abcdbe6040518163ffffffff1660e01b8152600401600060405180830381865afa1580156119ca573d6000803e3d6000fd5b505050506040513d6000823e601f3d908101601f191682016040526119f29190810190614c97565b90506000805b8251811015611c7b576000806000611ac28b8c6001600160a01b031663abfceffc898881518110611a2b57611a2b6148c2565b60200260200101516040518263ffffffff1660e01b8152600401611a5e91906001600160a01b0391909116815260200190565b600060405180830381865afa158015611a7b573d6000803e3d6000fd5b505050506040513d6000823e601f3d908101601f19168201604052611aa39190810190614900565b888781518110611ab557611ab56148c2565b6020026020010151612760565b905060005b8151811015611c1157670de0b6b3a7640000828281518110611aeb57611aeb6148c2565b60200260200101516101e00151838381518110611b0a57611b0a6148c2565b60200260200101516101600151611b219190614bf2565b611b2b9190614c11565b611b359085614bc3565b9350818181518110611b4957611b496148c2565b60200260200101516101a0015115611bff57670de0b6b3a7640000828281518110611b7657611b766148c2565b60200260200101516102200151670de0b6b3a7640000848481518110611b9e57611b9e6148c2565b60200260200101516101e00151858581518110611bbd57611bbd6148c2565b60200260200101516101400151611bd49190614bf2565b611bde9190614c11565b611be89190614bf2565b611bf29190614c11565b611bfc9084614bc3565b92505b80611c09816149bd565b915050611ac7565b506000808411611c30576ec097ce7bc90715b34b9f1000000000611c4d565b83611c4384670de0b6b3a7640000614bf2565b611c4d9190614c11565b90508a8111611c645785611c60816149bd565b9650505b505050508080611c73906149bd565b9150506119f8565b506000816001600160401b03811115611c9657611c96613ebb565b604051908082528060200260200182016040528015611cfb57816020015b611ce8604051806080016040528060006001600160a01b031681526020016000815260200160008152602001600081525090565b815260200190600190039081611cb45790505b5090506000805b8451811015611fe2576000806000611dbf8d8e6001600160a01b031663abfceffc8b8881518110611d3557611d356148c2565b60200260200101516040518263ffffffff1660e01b8152600401611d6891906001600160a01b0391909116815260200190565b600060405180830381865afa158015611d85573d6000803e3d6000fd5b505050506040513d6000823e601f3d908101601f19168201604052611dad9190810190614900565b8a8781518110611ab557611ab56148c2565b905060005b8151811015611f0e57670de0b6b3a7640000828281518110611de857611de86148c2565b60200260200101516101e00151838381518110611e0757611e076148c2565b60200260200101516101600151611e1e9190614bf2565b611e289190614c11565b611e329085614bc3565b9350818181518110611e4657611e466148c2565b60200260200101516101a0015115611efc57670de0b6b3a7640000828281518110611e7357611e736148c2565b60200260200101516102200151670de0b6b3a7640000848481518110611e9b57611e9b6148c2565b60200260200101516101e00151858581518110611eba57611eba6148c2565b60200260200101516101400151611ed19190614bf2565b611edb9190614c11565b611ee59190614bf2565b611eef9190614c11565b611ef99084614bc3565b92505b80611f06816149bd565b915050611dc4565b506000808411611f2d576ec097ce7bc90715b34b9f1000000000611f4a565b83611f4084670de0b6b3a7640000614bf2565b611f4a9190614c11565b90508c811115611f5d5750505050611fd0565b60405180608001604052808a8781518110611f7a57611f7a6148c2565b60200260200101516001600160a01b0316815260200185815260200184815260200182815250878781518110611fb257611fb26148c2565b60200260200101819052508580611fc8906149bd565b965050505050505b80611fda816149bd565b915050611d02565b5081896001600160a01b031663e87554466040518163ffffffff1660e01b8152600401602060405180830381865afa158015612022573d6000803e3d6000fd5b505050506040513d601f19601f82011682018060405250810190612046919061498e565b8a6001600160a01b0316634ada90af6040518163ffffffff1660e01b8152600401602060405180830381865afa158015612084573d6000803e3d6000fd5b505050506040513d601f19601f820116820180604052508101906120a8919061498e565b965096509650505050509250925092565b6060806000600560009054906101000a90046001600160a01b03166001600160a01b031663d88ff1f46040518163ffffffff1660e01b8152600401600060405180830381865afa158015612111573d6000803e3d6000fd5b505050506040513d6000823e601f3d908101601f19168201604052612139919081019061488e565b90506000805b825181101561220c57600083828151811061215c5761215c6148c2565b6020026020010151604001519050806001600160a01b0316639b19251a886040518263ffffffff1660e01b81526004016121a591906001600160a01b0391909116815260200190565b602060405180830381865afa1580156121c2573d6000803e3d6000fd5b505050506040513d601f19601f820116820180604052508101906121e691906148e3565b156121f957826121f5816149bd565b9350505b5080612204816149bd565b91505061213f565b506000816001600160401b0381111561222757612227613ebb565b604051908082528060200260200182016040528015612250578160200160208202803683370190505b5090506000826001600160401b0381111561226d5761226d613ebb565b6040519080825280602002602001820160405280156122a657816020015b6122936139a9565b81526020019060019003908161228b5790505b5090506000805b85518110156108fa5760008682815181106122ca576122ca6148c2565b6020026020010151604001519050806001600160a01b0316639b19251a8b6040518263ffffffff1660e01b815260040161231391906001600160a01b0391909116815260200190565b602060405180830381865afa158015612330573d6000803e3d6000fd5b505050506040513d601f19601f8201168201806040525081019061235491906148e3565b156123c3578185848151811061236c5761236c6148c2565b60200260200101818152505086828151811061238a5761238a6148c2565b60200260200101518484815181106123a4576123a46148c2565b602002602001018190525082806123ba906149bd565b935050506108fa565b50806123ce816149bd565b9150506122ad565b6000806000846001600160a01b0316635fe3b5676040518163ffffffff1660e01b8152600401602060405180830381865afa158015612419573d6000803e3d6000fd5b505050506040513d601f19601f8201168201806040525081019061243d9190614b78565b6001600160a01b0316637dc0d1d06040518163ffffffff1660e01b8152600401602060405180830381865afa15801561247a573d6000803e3d6000fd5b505050506040513d601f19601f8201168201806040525081019061249e9190614b78565b6040516319a6897d60e31b81529091506001600160a01b0382169063cd344be8906124cf9088908890600401614d39565b60408051808303816000875af11580156124ed573d6000803e3d6000fd5b505050506040513d601f19601f820116820180604052508101906125119190614de6565b92509250505b9250929050565b606080606080600080600560009054906101000a90046001600160a01b03166001600160a01b0316634ae26ea16040518163ffffffff1660e01b8152600401600060405180830381865afa15801561257a573d6000803e3d6000fd5b505050506040513d6000823e601f3d908101601f191682016040526125a291908101906149d8565b915091506000806125b28361354d565b949993985096509294509092505050565b6005546040516310c51ddf60e11b8152821515600482015260609182918291829160009182916001600160a01b039091169063218a3bbe90602401610e21565b6060806060806060806000600560009054906101000a90046001600160a01b03166001600160a01b0316634ae26ea16040518163ffffffff1660e01b8152600401600060405180830381865afa158015612661573d6000803e3d6000fd5b505050506040513d6000823e601f3d908101601f1916820160405261268991908101906149d8565b91505080516001600160401b038111156126a5576126a5613ebb565b6040519080825280602002602001820160405280156126ce578160200160208202803683370190505b50915060005b8151811015612737578181815181106126ef576126ef6148c2565b60200260200101516040015183828151811061270d5761270d6148c2565b6001600160a01b03909216602092830291909101909101528061272f816149bd565b9150506126d4565b5050600080600080612749858c610e88565b979e929d50909b5099509497509395505050505050565b60606000805b845181101561282f576000866001600160a01b0316638e8f294b878481518110612792576127926148c2565b60200260200101516040518263ffffffff1660e01b81526004016127c591906001600160a01b0391909116815260200190565b6040805180830381865afa1580156127e1573d6000803e3d6000fd5b505050506040513d601f19601f820116820180604052508101906128059190614b95565b509050801561281c5782612818816149bd565b9350505b5080612827816149bd565b915050612766565b506000816001600160401b0381111561284a5761284a613ebb565b60405190808252806020026020018201604052801561288357816020015b612870613a6e565b8152602001906001900390816128685790505b509050600080876001600160a01b0316637dc0d1d06040518163ffffffff1660e01b8152600401602060405180830381865afa1580156128c7573d6000803e3d6000fd5b505050506040513d601f19601f820116820180604052508101906128eb9190614b78565b905060005b87518110156134b3576000808a6001600160a01b0316638e8f294b8b858151811061291d5761291d6148c2565b60200260200101516040518263ffffffff1660e01b815260040161295091906001600160a01b0391909116815260200190565b6040805180830381865afa15801561296c573d6000803e3d6000fd5b505050506040513d601f19601f820116820180604052508101906129909190614b95565b91509150816129a05750506134a1565b6129a8613a6e565b60008b85815181106129bc576129bc6148c2565b6020908102919091018101516001600160a01b03811680855260408051632b1e137760e21b81529051929450909263ac784ddc926004808401938290030181865afa158015612a0f573d6000803e3d6000fd5b505050506040513d601f19601f82011682018060405250810190612a3391906148e3565b15612b775760018054612a4590614719565b80601f0160208091040260200160405190810160405280929190818152602001828054612a7190614719565b8015612abe5780601f10612a9357610100808354040283529160200191612abe565b820191906000526020600020905b815481529060010190602001808311612aa157829003601f168201915b5050505050826040018190525060028054612ad890614719565b80601f0160208091040260200160405190810160405280929190818152602001828054612b0490614719565b8015612b515780601f10612b2657610100808354040283529160200191612b51565b820191906000526020600020905b815481529060010190602001808311612b3457829003601f168201915b50505050506060830152601260808301526001600160a01b038b163160a0830152612cdd565b806001600160a01b0316636f307dc36040518163ffffffff1660e01b8152600401602060405180830381865afa158015612bb5573d6000803e3d6000fd5b505050506040513d601f19601f82011682018060405250810190612bd99190614b78565b6001600160a01b031660208301819052612bf281613754565b84604001856060018290528290525050806001600160a01b031663313ce5676040518163ffffffff1660e01b8152600401602060405180830381865afa158015612c40573d6000803e3d6000fd5b505050506040513d601f19601f82011682018060405250810190612c649190614e0a565b60ff1660808401526040516370a0823160e01b81526001600160a01b038d811660048301528216906370a0823190602401602060405180830381865afa158015612cb2573d6000803e3d6000fd5b505050506040513d601f19601f82011682018060405250810190612cd6919061498e565b60a0840152505b806001600160a01b031663ae9d70b06040518163ffffffff1660e01b8152600401602060405180830381865afa158015612d1b573d6000803e3d6000fd5b505050506040513d601f19601f82011682018060405250810190612d3f919061498e565b8260c0018181525050806001600160a01b031663f8f9da286040518163ffffffff1660e01b8152600401602060405180830381865afa158015612d86573d6000803e3d6000fd5b505050506040513d601f19601f82011682018060405250810190612daa919061498e565b8260e0018181525050806001600160a01b0316633b1d21a26040518163ffffffff1660e01b8152600401602060405180830381865afa158015612df1573d6000803e3d6000fd5b505050506040513d601f19601f82011682018060405250810190612e15919061498e565b82610180018181525050806001600160a01b03166373acee986040518163ffffffff1660e01b81526004016020604051808303816000875af1158015612e5f573d6000803e3d6000fd5b505050506040513d601f19601f82011682018060405250810190612e83919061498e565b82610120018181525050806001600160a01b031663dc028ab16040518163ffffffff1660e01b8152600401602060405180830381865afa158015612ecb573d6000803e3d6000fd5b505050506040513d601f19601f82011682018060405250810190612eef919061498e565b816001600160a01b03166361feacff6040518163ffffffff1660e01b8152600401602060405180830381865afa158015612f2d573d6000803e3d6000fd5b505050506040513d601f19601f82011682018060405250810190612f51919061498e565b826001600160a01b0316638f840ddd6040518163ffffffff1660e01b8152600401602060405180830381865afa158015612f8f573d6000803e3d6000fd5b505050506040513d601f19601f82011682018060405250810190612fb3919061498e565b612fbd9190614bc3565b612fc79190614bc3565b826101200151836101800151612fdd9190614bc3565b612fe79190614bdb565b610100830152604051633af9e66960e01b81526001600160a01b038c81166004830152821690633af9e669906024016020604051808303816000875af1158015613035573d6000803e3d6000fd5b505050506040513d601f19601f82011682018060405250810190613059919061498e565b6101408301526040516395dd919360e01b81526001600160a01b038c811660048301528216906395dd919390602401602060405180830381865afa1580156130a5573d6000803e3d6000fd5b505050506040513d601f19601f820116820180604052508101906130c9919061498e565b61016083015260405163929fe9a160e01b81526001600160a01b038c8116600483015282811660248301528e169063929fe9a190604401602060405180830381865afa15801561311d573d6000803e3d6000fd5b505050506040513d601f19601f8201168201806040525081019061314191906148e3565b15156101a08301526040805163182df0f560e01b815290516001600160a01b0383169163182df0f59160048083019260209291908290030181865afa15801561318e573d6000803e3d6000fd5b505050506040513d601f19601f820116820180604052508101906131b2919061498e565b6101c083015260405163fc57d4df60e01b81526001600160a01b03828116600483015287169063fc57d4df90602401602060405180830381865afa1580156131fe573d6000803e3d6000fd5b505050506040513d601f19601f82011682018060405250810190613222919061498e565b6101e08301526001600160a01b038681166102008401819052602084015160405163addd509960e01b8152921660048301529063addd509990602401602060405180830381865afa925050508015613297575060408051601f3d908101601f1916820190925261329491810190614b78565b60015b6132a0576132b0565b6001600160a01b03166102008301525b8282610220018181525050806001600160a01b031663173b99046040518163ffffffff1660e01b8152600401602060405180830381865afa1580156132f9573d6000803e3d6000fd5b505050506040513d601f19601f8201168201806040525081019061331d919061498e565b82610240018181525050806001600160a01b0316638d02d9a16040518163ffffffff1660e01b8152600401602060405180830381865afa158015613365573d6000803e3d6000fd5b505050506040513d601f19601f82011682018060405250810190613389919061498e565b82610260018181525050806001600160a01b031663dbfe7c196040518163ffffffff1660e01b8152600401602060405180830381865afa1580156133d1573d6000803e3d6000fd5b505050506040513d601f19601f820116820180604052508101906133f5919061498e565b610280830152604051636d154ea560e01b81526001600160a01b0382811660048301528e1690636d154ea590602401602060405180830381865afa158015613441573d6000803e3d6000fd5b505050506040513d601f19601f8201168201806040525081019061346591906148e3565b15156102a083015287518290899089908110613483576134836148c2565b60200260200101819052508680613499906149bd565b975050505050505b806134ab816149bd565b9150506128f0565b5091979650505050505050565b60008054610100900460ff1615613507578160ff1660011480156134e35750303b155b6134ff5760405162461bcd60e51b8152600401610a9d90614e2d565b506000919050565b60005460ff80841691161061352e5760405162461bcd60e51b8152600401610a9d90614e2d565b506000805460ff191660ff92909216919091179055600190565b919050565b606080600083516001600160401b0381111561356b5761356b613ebb565b6040519080825280602002602001820160405280156135d057816020015b6135bd6040518060a00160405280600081526020016000815260200160608152602001606081526020016000151581525090565b8152602001906001900390816135895790505b509050600084516001600160401b038111156135ee576135ee613ebb565b604051908082528060200260200182016040528015613617578160200160208202803683370190505b50905060005b855181101561374957306001600160a01b03166359d2fea6878381518110613647576136476148c2565b6020026020010151604001516040518263ffffffff1660e01b815260040161367e91906001600160a01b0391909116815260200190565b6000604051808303816000875af19250505080156136be57506040513d6000823e601f3d908101601f191682016040526136bb9190810190614e7b565b60015b6136eb5760018282815181106136d6576136d66148c2565b91151560209283029190910190910152613737565b6040518060a00160405280868152602001858152602001848152602001838152602001821515815250888781518110613726576137266148c2565b602002602001018190525050505050505b80613741816149bd565b91505061361d565b509094909350915050565b6001600160a01b03811660009081526003602052604090206001018054606091829161377f90614719565b1590506138c5576001600160a01b03831660009081526003602052604090208054600182019082906137b090614719565b80601f01602080910402602001604051908101604052809291908181526020018280546137dc90614719565b80156138295780601f106137fe57610100808354040283529160200191613829565b820191906000526020600020905b81548152906001019060200180831161380c57829003601f168201915b5050505050915080805461383c90614719565b80601f016020809104026020016040519081016040528092919081815260200182805461386890614719565b80156138b55780601f1061388a576101008083540402835291602001916138b5565b820191906000526020600020905b81548152906001019060200180831161389857829003601f168201915b5050505050905091509150915091565b60008390506000816001600160a01b03166306fdde036040518163ffffffff1660e01b8152600401600060405180830381865afa15801561390a573d6000803e3d6000fd5b505050506040513d6000823e601f3d908101601f191682016040526139329190810190614f76565b90506000826001600160a01b03166395d89b416040518163ffffffff1660e01b8152600401600060405180830381865afa158015613974573d6000803e3d6000fd5b505050506040513d6000823e601f3d908101601f1916820160405261399c9190810190614f76565b9196919550909350505050565b6040518060a001604052806060815260200160006001600160a01b0316815260200160006001600160a01b0316815260200160008152602001600081525090565b8280546139f690614719565b90600052602060002090601f016020900481019282613a185760008555613a5e565b82601f10613a3157805160ff1916838001178555613a5e565b82800160010185558215613a5e579182015b82811115613a5e578251825591602001919060010190613a43565b50613a6a929150613b34565b5090565b604051806102c0016040528060006001600160a01b0316815260200160006001600160a01b031681526020016060815260200160608152602001600081526020016000815260200160008152602001600081526020016000815260200160008152602001600081526020016000815260200160008152602001600015158152602001600081526020016000815260200160006001600160a01b03168152602001600081526020016000815260200160008152602001600081526020016000151581525090565b5b80821115613a6a5760008155600101613b35565b60005b83811015613b64578181015183820152602001613b4c565b83811115613b73576000848401525b50505050565b60008151808452613b91816020860160208601613b49565b601f01601f19169290920160200192915050565b602081526000613bb86020830184613b79565b9392505050565b6001600160a01b0381168114613bd457600080fd5b50565b600060208284031215613be957600080fd5b8135613bb881613bbf565b600081518084526020808501945080840160005b83811015613c2457815187529582019590820190600101613c08565b509495945050505050565b600082825180855260208086019550808260051b84010181860160005b84811015613cbc57601f19868403018952815160a08151818652613c7282870182613b79565b838801516001600160a01b03908116888a01526040808601519091169088015260608085015190880152608093840151939096019290925250509783019790830190600101613c4c565b5090979650505050505050565b604081526000613cdc6040830185613bf4565b8281036020840152613cee8185613c2f565b95945050505050565b60008060408385031215613d0a57600080fd5b8235613d1581613bbf565b91506020830135613d2581613bbf565b809150509250929050565b60006020808301818452808551808352604092508286019150828160051b87010184880160005b83811015613ea257888303603f19018552815180516001600160a01b031684526102c0818901516001600160a01b038116868b015250878201518189870152613da282870182613b79565b91505060608083015186830382880152613dbc8382613b79565b6080858101519089015260a0808601519089015260c0808601519089015260e08086015190890152610100808601519089015261012080860151908901526101408086015190890152610160808601519089015261018080860151908901526101a0808601511515908901526101c080860151908901526101e08086015190890152610200808601516001600160a01b03169089015261022080860151908901526102408086015190890152610260808601519089015261028080860151908901526102a094850151151594909701939093525050509386019390860190600101613d57565b509098975050505050505050565b803561354881613bbf565b634e487b7160e01b600052604160045260246000fd5b60405160a081016001600160401b0381118282101715613ef357613ef3613ebb565b60405290565b604051608081016001600160401b0381118282101715613ef357613ef3613ebb565b604051601f8201601f191681016001600160401b0381118282101715613f4357613f43613ebb565b604052919050565b60006001600160401b03821115613f6457613f64613ebb565b50601f01601f191660200190565b600082601f830112613f8357600080fd5b8135613f96613f9182613f4b565b613f1b565b818152846020838601011115613fab57600080fd5b816020850160208301376000918101602001919091529392505050565b60006001600160401b03821115613fe157613fe1613ebb565b5060051b60200190565b600082601f830112613ffc57600080fd5b8135602061400c613f9183613fc8565b82815260059290921b8401810191818101908684111561402b57600080fd5b8286015b8481101561404f57803561404281613bbf565b835291830191830161402f565b509695505050505050565b600082601f83011261406b57600080fd5b8135602061407b613f9183613fc8565b82815260059290921b8401810191818101908684111561409a57600080fd5b8286015b8481101561404f5780356001600160401b038111156140bd5760008081fd5b6140cb8986838b0101613f72565b84525091830191830161409e565b60008060008060008060008060006101208a8c0312156140f857600080fd5b6141018a613eb0565b985060208a01356001600160401b038082111561411d57600080fd5b6141298d838e01613f72565b995060408c013591508082111561413f57600080fd5b61414b8d838e01613f72565b985060608c013591508082111561416157600080fd5b61416d8d838e01613feb565b975060808c013591508082111561418357600080fd5b61418f8d838e0161405a565b965060a08c01359150808211156141a557600080fd5b6141b18d838e0161405a565b955060c08c01359150808211156141c757600080fd5b6141d38d838e0161405a565b945060e08c01359150808211156141e957600080fd5b6141f58d838e0161405a565b93506101008c013591508082111561420c57600080fd5b506142198c828d0161405a565b9150509295985092959850929598565b600081518084526020808501945080840160005b83811015613c245781516001600160a01b03168752958201959082019060010161423d565b600081518084526020808501808196508360051b8101915082860160005b858110156134b3578284038952614298848351613b79565b98850198935090840190600101614280565b600081518084526020808501945080840160005b83811015613c245781511515875295820195908201906001016142be565b600060808083526142ef81840188613bf4565b6020848203818601526143028289613c2f565b91506040858303818701528288518085528385019150838160051b860101848b0160005b8381101561439757601f19888403018552815160a081518552888201518986015287820151818987015261435c82870182614229565b915050606080830151868303828801526143768382614262565b938d01511515968d0196909652505094870194925090860190600101614326565b505088810360608a01526143ab818b6142aa565b9d9c50505050505050505050505050565b600080604083850312156143cf57600080fd5b82356001600160401b038111156143e557600080fd5b8301601f810185136143f657600080fd5b80356020614406613f9183613fc8565b82815260059290921b8301810191818101908884111561442557600080fd5b938201935b8385101561444c57843561443d81613bbf565b8252938201939082019061442a565b98969091013596505050505050565b600081518084526020808501945080840160005b83811015613c2457815180516001600160a01b03168852838101518489015260408082015190890152606090810151908801526080909601959082019060010161446f565b600081518084526020808501808196508360051b8101915082860160005b858110156134b35782840389526144ea84835161445b565b988501989350908401906001016144d2565b60808152600061450f60808301876144b4565b82810360208401526145218187613bf4565b905082810360408401526145358186613bf4565b9050828103606084015261454981856142aa565b979650505050505050565b85815284602082015260a06040820152600061457360a0830186614229565b82810360608401526145858186614262565b91505082151560808301529695505050505050565b600080604083850312156145ad57600080fd5b82356145b881613bbf565b946020939093013593505050565b6060815260006145d9606083018661445b565b60208301949094525060400152919050565b600080604083850312156145fe57600080fd5b823561460981613bbf565b915060208301356001600160401b0381111561462457600080fd5b830160808186031215613d2557600080fd5b8015158114613bd457600080fd5b60006020828403121561465657600080fd5b8135613bb881614636565b60006020828403121561467357600080fd5b5035919050565b60a0808252865190820181905260009060209060c0840190828a01845b828110156146bc5781516001600160a01b031684529284019290840190600101614697565b505050838103828501526146d081896144b4565b91505082810360408401526146e58187613bf4565b905082810360608401526146f98186613bf4565b9050828103608084015261470d81856142aa565b98975050505050505050565b600181811c9082168061472d57607f821691505b6020821081141561474e57634e487b7160e01b600052602260045260246000fd5b50919050565b600082601f83011261476557600080fd5b8151614773613f9182613f4b565b81815284602083860101111561478857600080fd5b610988826020830160208701613b49565b600082601f8301126147aa57600080fd5b815160206147ba613f9183613fc8565b82815260059290921b840181019181810190868411156147d957600080fd5b8286015b8481101561404f5780516001600160401b03808211156147fd5760008081fd5b9088019060a0828b03601f19018113156148175760008081fd5b61481f613ed1565b87840151838111156148315760008081fd5b61483f8d8a83880101614754565b825250604092508284015161485381613bbf565b8189015260608481015161486681613bbf565b93820193909352608084810151938201939093529201519082015283529183019183016147dd565b6000602082840312156148a057600080fd5b81516001600160401b038111156148b657600080fd5b61098884828501614799565b634e487b7160e01b600052603260045260246000fd5b805161354881614636565b6000602082840312156148f557600080fd5b8151613bb881614636565b6000602080838503121561491357600080fd5b82516001600160401b0381111561492957600080fd5b8301601f8101851361493a57600080fd5b8051614948613f9182613fc8565b81815260059190911b8201830190838101908783111561496757600080fd5b928401925b8284101561454957835161497f81613bbf565b8252928401929084019061496c565b6000602082840312156149a057600080fd5b5051919050565b634e487b7160e01b600052601160045260246000fd5b60006000198214156149d1576149d16149a7565b5060010190565b600080604083850312156149eb57600080fd5b82516001600160401b0380821115614a0257600080fd5b818501915085601f830112614a1657600080fd5b81516020614a26613f9183613fc8565b82815260059290921b84018101918181019089841115614a4557600080fd5b948201945b83861015614a6357855182529482019490820190614a4a565b91880151919650909350505080821115614a7c57600080fd5b50614a8985828601614799565b9150509250929050565b60008060006060808587031215614aa957600080fd5b84516001600160401b03811115614abf57600080fd5b8501601f81018713614ad057600080fd5b80516020614ae0613f9183613fc8565b82815260079290921b8301810191818101908a841115614aff57600080fd5b938201935b83851015614b5d576080858c031215614b1d5760008081fd5b614b25613ef9565b8551614b3081613bbf565b81528584015184820152604080870151908201528686015187820152825260809094019390820190614b04565b91890151604090990151919a98995090979650505050505050565b600060208284031215614b8a57600080fd5b8151613bb881613bbf565b60008060408385031215614ba857600080fd5b8251614bb381614636565b6020939093015192949293505050565b60008219821115614bd657614bd66149a7565b500190565b600082821015614bed57614bed6149a7565b500390565b6000816000190483118215151615614c0c57614c0c6149a7565b500290565b600082614c2e57634e487b7160e01b600052601260045260246000fd5b500490565b600082601f830112614c4457600080fd5b81516020614c54613f9183613fc8565b82815260059290921b84018101918181019086841115614c7357600080fd5b8286015b8481101561404f578051614c8a81613bbf565b8352918301918301614c77565b600060208284031215614ca957600080fd5b81516001600160401b03811115614cbf57600080fd5b61098884828501614c33565b6000808335601e19843603018112614ce257600080fd5b83016020810192503590506001600160401b03811115614d0157600080fd5b80360383131561251757600080fd5b81835281816020850137506000828201602090810191909152601f909101601f19169091010190565b6001600160a01b0383168152604060208201526000614d588380614ccb565b60806040850152614d6d60c085018284614d10565b915050614d7d6020850185614ccb565b603f1980868503016060870152614d95848385614d10565b9350614da46040880188614ccb565b9350915080868503016080870152614dbd848484614d10565b9350614dcc6060880188614ccb565b93509150808685030160a087015250614549838383614d10565b60008060408385031215614df957600080fd5b505080516020909101519092909150565b600060208284031215614e1c57600080fd5b815160ff81168114613bb857600080fd5b6020808252602e908201527f496e697469616c697a61626c653a20636f6e747261637420697320616c72656160408201526d191e481a5b9a5d1a585b1a5e995960921b606082015260800190565b600080600080600060a08688031215614e9357600080fd5b85519450602080870151945060408701516001600160401b0380821115614eb957600080fd5b614ec58a838b01614c33565b95506060890151915080821115614edb57600080fd5b818901915089601f830112614eef57600080fd5b8151614efd613f9182613fc8565b81815260059190911b8301840190848101908c831115614f1c57600080fd5b8585015b83811015614f5457805185811115614f385760008081fd5b614f468f89838a0101614754565b845250918601918601614f20565b50809750505050505050614f6a608087016148d8565b90509295509295909350565b600060208284031215614f8857600080fd5b81516001600160401b03811115614f9e57600080fd5b6109888482850161475456fea164736f6c634300080a000a",
    "linkReferences": {}
  },
  "methodIdentifiers": {
    "directory()": "c41c2f24",
    "getPoolAssetsByUser(address,address)": "0c5eb5a4",
    "getPoolAssetsWithData(address)": "27e16c1f",
    "getPoolSummary(address)": "59d2fea6",
    "getPoolUsersWithData(address,uint256)": "9c00a3d4",
    "getPoolUsersWithData(address[],uint256)": "586f6c10",
    "getPoolsByAccountWithData(address)": "51678684",
    "getPoolsBySupplier(address)": "0b9c80bd",
    "getPoolsBySupplierWithData(address)": "635629e6",
    "getPublicPoolUsersWithData(uint256)": "dedfe22f",
    "getPublicPoolsByVerificationWithData(bool)": "d64996e5",
    "getPublicPoolsWithData()": "d0a164fb",
    "getWhitelistedPoolsByAccount(address)": "c3530a63",
    "getWhitelistedPoolsByAccountWithData(address)": "70733375",
    "initialize(address,string,string,address[],string[],string[],string[],string[],string[])": "3a1eb656",
    "name()": "06fdde03",
    "symbol()": "95d89b41",
    "verifyPrice(address,(bytes,bytes,bytes,bytes))": "cd344be8"
  },
  "id": 2
}