{
  "abi": [
    {
      "inputs": [
        {
          "internalType": "address",
          "name": "_rewardDestination",
          "type": "address"
        },
        {
          "internalType": "contract ERC20[]",
          "name": "_rewardTokens",
          "type": "address[]"
        }
      ],
      "stateMutability": "nonpayable",
      "type": "constructor"
    },
    {
      "anonymous": false,
      "inputs": [
        {
          "indexed": true,
          "internalType": "address",
          "name": "rewardToken",
          "type": "address"
        },
        {
          "indexed": false,
          "internalType": "uint256",
          "name": "amount",
          "type": "uint256"
        }
      ],
      "name": "ClaimRewards",
      "type": "event"
    },
    {
      "anonymous": false,
      "inputs": [
        {
          "indexed": true,
          "internalType": "address",
          "name": "newDestination",
          "type": "address"
        }
      ],
      "name": "RewardDestinationUpdate",
      "type": "event"
    },
    {
      "inputs": [],
      "name": "claimRewards",
      "outputs": [],
      "stateMutability": "nonpayable",
      "type": "function"
    },
    {
      "inputs": [],
      "name": "rewardDestination",
      "outputs": [
        {
          "internalType": "address",
          "name": "",
          "type": "address"
        }
      ],
      "stateMutability": "view",
      "type": "function"
    },
    {
      "inputs": [
        {
          "internalType": "uint256",
          "name": "",
          "type": "uint256"
        }
      ],
      "name": "rewardTokens",
      "outputs": [
        {
          "internalType": "contract ERC20",
          "name": "",
          "type": "address"
        }
      ],
      "stateMutability": "view",
      "type": "function"
    },
    {
      "inputs": [
        {
          "internalType": "address",
          "name": "newDestination",
          "type": "address"
        }
      ],
      "name": "setRewardDestination",
      "outputs": [],
      "stateMutability": "nonpayable",
      "type": "function"
    }
  ],
  "bytecode": {
    "object": "0x608060405234801561001057600080fd5b506040516105c03803806105c083398101604081905261002f9161011d565b600080546001600160a01b0319166001600160a01b038416179055805161005d906001906020840190610065565b5050506101f8565b8280548282559060005260206000209081019282156100ba579160200282015b828111156100ba57825182546001600160a01b0319166001600160a01b03909116178255602090920191600190910190610085565b506100c69291506100ca565b5090565b5b808211156100c657600081556001016100cb565b6001600160a01b03811681146100f457600080fd5b50565b634e487b7160e01b600052604160045260246000fd5b8051610118816100df565b919050565b6000806040838503121561013057600080fd5b825161013b816100df565b602084810151919350906001600160401b038082111561015a57600080fd5b818601915086601f83011261016e57600080fd5b815181811115610180576101806100f7565b8060051b604051601f19603f830116810181811085821117156101a5576101a56100f7565b6040529182528482019250838101850191898311156101c357600080fd5b938501935b828510156101e8576101d98561010d565b845293850193928501926101c8565b8096505050505050509250929050565b6103b9806102076000396000f3fe608060405234801561001057600080fd5b506004361061004c5760003560e01c8063372500ab146100515780637bb7bed11461005b5780638457d0671461008a578063fda45d861461009d575b600080fd5b6100596100b0565b005b61006e61006936600461030b565b610143565b6040516001600160a01b03909116815260200160405180910390f35b610059610098366004610324565b61016d565b60005461006e906001600160a01b031681565b60005b600154811015610140576000600182815481106100d2576100d2610354565b600091825260208220015490546001600160a01b03918216925082917f1f89f96333d3133000ee447473151fa9606543368f02271c9d95ae14f13bcc679161011c91849116610203565b60405190815260200160405180910390a250806101388161036a565b9150506100b3565b50565b6001818154811061015357600080fd5b6000918252602090912001546001600160a01b0316905081565b6000546001600160a01b031633146101bb5760405162461bcd60e51b815260206004820152600c60248201526b15539055551213d49256915160a21b60448201526064015b60405180910390fd5b600080546001600160a01b0319166001600160a01b038316908117825560405190917fb7e97ad603f12568684fc43c82127d953e94f3954cf36344cbbfa34d67b0b0cf91a250565b6040516370a0823160e01b81523060048201526000906102879083906001600160a01b038616906370a0823190602401602060405180830381865afa158015610250573d6000803e3d6000fd5b505050506040513d601f19601f820116820180604052508101906102749190610393565b92506001600160a01b038516908361028d565b92915050565b600060405163a9059cbb60e01b8152836004820152826024820152602060006044836000895af13d15601f3d11600160005114161716915050806103055760405162461bcd60e51b815260206004820152600f60248201526e1514905394d1915497d19052531151608a1b60448201526064016101b2565b50505050565b60006020828403121561031d57600080fd5b5035919050565b60006020828403121561033657600080fd5b81356001600160a01b038116811461034d57600080fd5b9392505050565b634e487b7160e01b600052603260045260246000fd5b600060001982141561038c57634e487b7160e01b600052601160045260246000fd5b5060010190565b6000602082840312156103a557600080fd5b505191905056fea164736f6c634300080a000a",
    "linkReferences": {}
  },
  "methodIdentifiers": {
    "claimRewards()": "372500ab",
    "rewardDestination()": "fda45d86",
    "rewardTokens(uint256)": "7bb7bed1",
    "setRewardDestination(address)": "8457d067"
  },
  "id": 238
}