{
  "abi": [
    {
      "inputs": [
        {
          "internalType": "contract ERC20",
          "name": "_asset",
          "type": "address"
        },
        {
          "internalType": "address",
          "name": "_xbombAddress",
          "type": "address"
        }
      ],
      "stateMutability": "nonpayable",
      "type": "constructor"
    },
    {
      "anonymous": false,
      "inputs": [
        {
          "indexed": true,
          "internalType": "address",
          "name": "owner",
          "type": "address"
        },
        {
          "indexed": true,
          "internalType": "address",
          "name": "spender",
          "type": "address"
        },
        {
          "indexed": false,
          "internalType": "uint256",
          "name": "amount",
          "type": "uint256"
        }
      ],
      "name": "Approval",
      "type": "event"
    },
    {
      "anonymous": false,
      "inputs": [
        {
          "indexed": true,
          "internalType": "address",
          "name": "caller",
          "type": "address"
        },
        {
          "indexed": true,
          "internalType": "address",
          "name": "owner",
          "type": "address"
        },
        {
          "indexed": false,
          "internalType": "uint256",
          "name": "assets",
          "type": "uint256"
        },
        {
          "indexed": false,
          "internalType": "uint256",
          "name": "shares",
          "type": "uint256"
        }
      ],
      "name": "Deposit",
      "type": "event"
    },
    {
      "anonymous": false,
      "inputs": [
        {
          "indexed": true,
          "internalType": "address",
          "name": "from",
          "type": "address"
        },
        {
          "indexed": true,
          "internalType": "address",
          "name": "to",
          "type": "address"
        },
        {
          "indexed": false,
          "internalType": "uint256",
          "name": "amount",
          "type": "uint256"
        }
      ],
      "name": "Transfer",
      "type": "event"
    },
    {
      "anonymous": false,
      "inputs": [
        {
          "indexed": true,
          "internalType": "address",
          "name": "caller",
          "type": "address"
        },
        {
          "indexed": true,
          "internalType": "address",
          "name": "receiver",
          "type": "address"
        },
        {
          "indexed": true,
          "internalType": "address",
          "name": "owner",
          "type": "address"
        },
        {
          "indexed": false,
          "internalType": "uint256",
          "name": "assets",
          "type": "uint256"
        },
        {
          "indexed": false,
          "internalType": "uint256",
          "name": "shares",
          "type": "uint256"
        }
      ],
      "name": "Withdraw",
      "type": "event"
    },
    {
      "inputs": [],
      "name": "DOMAIN_SEPARATOR",
      "outputs": [
        {
          "internalType": "bytes32",
          "name": "",
          "type": "bytes32"
        }
      ],
      "stateMutability": "view",
      "type": "function"
    },
    {
      "inputs": [
        {
          "internalType": "address",
          "name": "",
          "type": "address"
        },
        {
          "internalType": "address",
          "name": "",
          "type": "address"
        }
      ],
      "name": "allowance",
      "outputs": [
        {
          "internalType": "uint256",
          "name": "",
          "type": "uint256"
        }
      ],
      "stateMutability": "view",
      "type": "function"
    },
    {
      "inputs": [
        {
          "internalType": "address",
          "name": "spender",
          "type": "address"
        },
        {
          "internalType": "uint256",
          "name": "amount",
          "type": "uint256"
        }
      ],
      "name": "approve",
      "outputs": [
        {
          "internalType": "bool",
          "name": "",
          "type": "bool"
        }
      ],
      "stateMutability": "nonpayable",
      "type": "function"
    },
    {
      "inputs": [],
      "name": "asset",
      "outputs": [
        {
          "internalType": "contract ERC20",
          "name": "",
          "type": "address"
        }
      ],
      "stateMutability": "view",
      "type": "function"
    },
    {
      "inputs": [
        {
          "internalType": "address",
          "name": "",
          "type": "address"
        }
      ],
      "name": "balanceOf",
      "outputs": [
        {
          "internalType": "uint256",
          "name": "",
          "type": "uint256"
        }
      ],
      "stateMutability": "view",
      "type": "function"
    },
    {
      "inputs": [
        {
          "internalType": "address",
          "name": "account",
          "type": "address"
        }
      ],
      "name": "balanceOfUnderlying",
      "outputs": [
        {
          "internalType": "uint256",
          "name": "",
          "type": "uint256"
        }
      ],
      "stateMutability": "view",
      "type": "function"
    },
    {
      "inputs": [
        {
          "internalType": "uint256",
          "name": "shares",
          "type": "uint256"
        }
      ],
      "name": "convertToAssets",
      "outputs": [
        {
          "internalType": "uint256",
          "name": "",
          "type": "uint256"
        }
      ],
      "stateMutability": "view",
      "type": "function"
    },
    {
      "inputs": [
        {
          "internalType": "uint256",
          "name": "assets",
          "type": "uint256"
        }
      ],
      "name": "convertToShares",
      "outputs": [
        {
          "internalType": "uint256",
          "name": "",
          "type": "uint256"
        }
      ],
      "stateMutability": "view",
      "type": "function"
    },
    {
      "inputs": [],
      "name": "decimals",
      "outputs": [
        {
          "internalType": "uint8",
          "name": "",
          "type": "uint8"
        }
      ],
      "stateMutability": "view",
      "type": "function"
    },
    {
      "inputs": [
        {
          "internalType": "uint256",
          "name": "assets",
          "type": "uint256"
        },
        {
          "internalType": "address",
          "name": "receiver",
          "type": "address"
        }
      ],
      "name": "deposit",
      "outputs": [
        {
          "internalType": "uint256",
          "name": "shares",
          "type": "uint256"
        }
      ],
      "stateMutability": "nonpayable",
      "type": "function"
    },
    {
      "inputs": [
        {
          "internalType": "address",
          "name": "",
          "type": "address"
        }
      ],
      "name": "maxDeposit",
      "outputs": [
        {
          "internalType": "uint256",
          "name": "",
          "type": "uint256"
        }
      ],
      "stateMutability": "view",
      "type": "function"
    },
    {
      "inputs": [
        {
          "internalType": "address",
          "name": "",
          "type": "address"
        }
      ],
      "name": "maxMint",
      "outputs": [
        {
          "internalType": "uint256",
          "name": "",
          "type": "uint256"
        }
      ],
      "stateMutability": "view",
      "type": "function"
    },
    {
      "inputs": [
        {
          "internalType": "address",
          "name": "owner",
          "type": "address"
        }
      ],
      "name": "maxRedeem",
      "outputs": [
        {
          "internalType": "uint256",
          "name": "",
          "type": "uint256"
        }
      ],
      "stateMutability": "view",
      "type": "function"
    },
    {
      "inputs": [
        {
          "internalType": "address",
          "name": "owner",
          "type": "address"
        }
      ],
      "name": "maxWithdraw",
      "outputs": [
        {
          "internalType": "uint256",
          "name": "",
          "type": "uint256"
        }
      ],
      "stateMutability": "view",
      "type": "function"
    },
    {
      "inputs": [
        {
          "internalType": "uint256",
          "name": "shares",
          "type": "uint256"
        },
        {
          "internalType": "address",
          "name": "receiver",
          "type": "address"
        }
      ],
      "name": "mint",
      "outputs": [
        {
          "internalType": "uint256",
          "name": "assets",
          "type": "uint256"
        }
      ],
      "stateMutability": "nonpayable",
      "type": "function"
    },
    {
      "inputs": [],
      "name": "name",
      "outputs": [
        {
          "internalType": "string",
          "name": "",
          "type": "string"
        }
      ],
      "stateMutability": "view",
      "type": "function"
    },
    {
      "inputs": [
        {
          "internalType": "address",
          "name": "",
          "type": "address"
        }
      ],
      "name": "nonces",
      "outputs": [
        {
          "internalType": "uint256",
          "name": "",
          "type": "uint256"
        }
      ],
      "stateMutability": "view",
      "type": "function"
    },
    {
      "inputs": [
        {
          "internalType": "address",
          "name": "owner",
          "type": "address"
        },
        {
          "internalType": "address",
          "name": "spender",
          "type": "address"
        },
        {
          "internalType": "uint256",
          "name": "value",
          "type": "uint256"
        },
        {
          "internalType": "uint256",
          "name": "deadline",
          "type": "uint256"
        },
        {
          "internalType": "uint8",
          "name": "v",
          "type": "uint8"
        },
        {
          "internalType": "bytes32",
          "name": "r",
          "type": "bytes32"
        },
        {
          "internalType": "bytes32",
          "name": "s",
          "type": "bytes32"
        }
      ],
      "name": "permit",
      "outputs": [],
      "stateMutability": "nonpayable",
      "type": "function"
    },
    {
      "inputs": [
        {
          "internalType": "uint256",
          "name": "bombAssets",
          "type": "uint256"
        }
      ],
      "name": "previewDeposit",
      "outputs": [
        {
          "internalType": "uint256",
          "name": "",
          "type": "uint256"
        }
      ],
      "stateMutability": "view",
      "type": "function"
    },
    {
      "inputs": [
        {
          "internalType": "uint256",
          "name": "shares",
          "type": "uint256"
        }
      ],
      "name": "previewMint",
      "outputs": [
        {
          "internalType": "uint256",
          "name": "",
          "type": "uint256"
        }
      ],
      "stateMutability": "view",
      "type": "function"
    },
    {
      "inputs": [
        {
          "internalType": "uint256",
          "name": "shares",
          "type": "uint256"
        }
      ],
      "name": "previewRedeem",
      "outputs": [
        {
          "internalType": "uint256",
          "name": "",
          "type": "uint256"
        }
      ],
      "stateMutability": "view",
      "type": "function"
    },
    {
      "inputs": [
        {
          "internalType": "uint256",
          "name": "assets",
          "type": "uint256"
        }
      ],
      "name": "previewWithdraw",
      "outputs": [
        {
          "internalType": "uint256",
          "name": "",
          "type": "uint256"
        }
      ],
      "stateMutability": "view",
      "type": "function"
    },
    {
      "inputs": [
        {
          "internalType": "uint256",
          "name": "shares",
          "type": "uint256"
        },
        {
          "internalType": "address",
          "name": "receiver",
          "type": "address"
        },
        {
          "internalType": "address",
          "name": "owner",
          "type": "address"
        }
      ],
      "name": "redeem",
      "outputs": [
        {
          "internalType": "uint256",
          "name": "assets",
          "type": "uint256"
        }
      ],
      "stateMutability": "nonpayable",
      "type": "function"
    },
    {
      "inputs": [],
      "name": "symbol",
      "outputs": [
        {
          "internalType": "string",
          "name": "",
          "type": "string"
        }
      ],
      "stateMutability": "view",
      "type": "function"
    },
    {
      "inputs": [],
      "name": "totalAssets",
      "outputs": [
        {
          "internalType": "uint256",
          "name": "",
          "type": "uint256"
        }
      ],
      "stateMutability": "view",
      "type": "function"
    },
    {
      "inputs": [],
      "name": "totalSupply",
      "outputs": [
        {
          "internalType": "uint256",
          "name": "",
          "type": "uint256"
        }
      ],
      "stateMutability": "view",
      "type": "function"
    },
    {
      "inputs": [
        {
          "internalType": "address",
          "name": "to",
          "type": "address"
        },
        {
          "internalType": "uint256",
          "name": "amount",
          "type": "uint256"
        }
      ],
      "name": "transfer",
      "outputs": [
        {
          "internalType": "bool",
          "name": "",
          "type": "bool"
        }
      ],
      "stateMutability": "nonpayable",
      "type": "function"
    },
    {
      "inputs": [
        {
          "internalType": "address",
          "name": "from",
          "type": "address"
        },
        {
          "internalType": "address",
          "name": "to",
          "type": "address"
        },
        {
          "internalType": "uint256",
          "name": "amount",
          "type": "uint256"
        }
      ],
      "name": "transferFrom",
      "outputs": [
        {
          "internalType": "bool",
          "name": "",
          "type": "bool"
        }
      ],
      "stateMutability": "nonpayable",
      "type": "function"
    },
    {
      "inputs": [
        {
          "internalType": "uint256",
          "name": "assets",
          "type": "uint256"
        },
        {
          "internalType": "address",
          "name": "receiver",
          "type": "address"
        },
        {
          "internalType": "address",
          "name": "owner",
          "type": "address"
        }
      ],
      "name": "withdraw",
      "outputs": [
        {
          "internalType": "uint256",
          "name": "shares",
          "type": "uint256"
        }
      ],
      "stateMutability": "nonpayable",
      "type": "function"
    },
    {
      "inputs": [],
      "name": "xbomb",
      "outputs": [
        {
          "internalType": "contract IXBomb",
          "name": "",
          "type": "address"
        }
      ],
      "stateMutability": "view",
      "type": "function"
    }
  ],
  "bytecode": {
    "object": "0x6101006040523480156200001257600080fd5b5060405162001d1938038062001d198339810160408190526200003591620003f3565b81826001600160a01b03166306fdde036040518163ffffffff1660e01b8152600401600060405180830381865afa15801562000075573d6000803e3d6000fd5b505050506040513d6000823e601f3d908101601f191682016040526200009f91908101906200047b565b604051602001620000b1919062000533565b604051602081830303815290604052836001600160a01b03166395d89b416040518163ffffffff1660e01b8152600401600060405180830381865afa158015620000ff573d6000803e3d6000fd5b505050506040513d6000823e601f3d908101601f191682016040526200012991908101906200047b565b6040516020016200013b919062000573565b6040516020818303038152906040528181846001600160a01b031663313ce5676040518163ffffffff1660e01b8152600401602060405180830381865afa1580156200018b573d6000803e3d6000fd5b505050506040513d601f19601f82011682018060405250810190620001b191906200059f565b8251620001c690600090602086019062000334565b508151620001dc90600190602085019062000334565b5060ff81166080524660a052620001f262000298565b60c052505050506001600160a01b0391821660e05250600680546001600160a01b03191683831690811790915560405163095ea7b360e01b8152600481019190915260001960248201529083169063095ea7b3906044016020604051808303816000875af115801562000269573d6000803e3d6000fd5b505050506040513d601f19601f820116820180604052508101906200028f9190620005cb565b505050620006d0565b60007f8b73c3c69bb8fe3d512ecc4cf759cc79239f7b179b0ffacaa9a75d522b39400f6000604051620002cc91906200062c565b6040805191829003822060208301939093528101919091527fc89efdaa54c0f20c7adf612882df0950f5a951637e0307cdcb4c672f298b8bc660608201524660808201523060a082015260c00160405160208183030381529060405280519060200120905090565b8280546200034290620005ef565b90600052602060002090601f016020900481019282620003665760008555620003b1565b82601f106200038157805160ff1916838001178555620003b1565b82800160010185558215620003b1579182015b82811115620003b157825182559160200191906001019062000394565b50620003bf929150620003c3565b5090565b5b80821115620003bf5760008155600101620003c4565b6001600160a01b0381168114620003f057600080fd5b50565b600080604083850312156200040757600080fd5b82516200041481620003da565b60208401519092506200042781620003da565b809150509250929050565b634e487b7160e01b600052604160045260246000fd5b60005b83811015620004655781810151838201526020016200044b565b8381111562000475576000848401525b50505050565b6000602082840312156200048e57600080fd5b81516001600160401b0380821115620004a657600080fd5b818401915084601f830112620004bb57600080fd5b815181811115620004d057620004d062000432565b604051601f8201601f19908116603f01168101908382118183101715620004fb57620004fb62000432565b816040528281528760208487010111156200051557600080fd5b6200052883602083016020880162000448565b979650505050505050565b65026b4b230b9960d51b8152600082516200055681600685016020870162000448565b650815985d5b1d60d21b6006939091019283015250600c01919050565b6136bb60f11b8152600082516200059281600285016020870162000448565b9190910160020192915050565b600060208284031215620005b257600080fd5b815160ff81168114620005c457600080fd5b9392505050565b600060208284031215620005de57600080fd5b81518015158114620005c457600080fd5b600181811c908216806200060457607f821691505b602082108114156200062657634e487b7160e01b600052602260045260246000fd5b50919050565b600080835481600182811c9150808316806200064957607f831692505b60208084108214156200066a57634e487b7160e01b86526022600452602486fd5b8180156200068157600181146200069357620006c2565b60ff19861689528489019650620006c2565b60008a81526020902060005b86811015620006ba5781548b8201529085019083016200069f565b505084890196505b509498975050505050505050565b60805160a05160c05160e0516115f362000726600039600081816102ba015281816108690152818161090501528181610b000152610c49015260006107c0015260006107900152600061027901526115f36000f3fe608060405234801561001057600080fd5b50600436106101da5760003560e01c80637ecebe0011610104578063ba087652116100a2578063d505accf11610071578063d505accf1461040f578063d905777e14610424578063dd62ed3e1461044d578063ef8b30f71461047857600080fd5b8063ba087652146103e9578063c63d75b614610307578063c6e6f592146103fc578063ce96cb77146102f457600080fd5b8063a32b0d5d116100de578063a32b0d5d1461039d578063a9059cbb146103b0578063b3d7f6b9146103c3578063b460af94146103d657600080fd5b80637ecebe001461036257806394bf804d1461038257806395d89b411461039557600080fd5b8063313ce5671161017c578063402d267d1161014b578063402d267d146103075780634cdad5061461031c5780636e553f651461032f57806370a082311461034257600080fd5b8063313ce567146102745780633644e515146102ad57806338d52e0f146102b55780633af9e669146102f457600080fd5b8063095ea7b3116101b8578063095ea7b3146102225780630a28a4771461024557806318160ddd1461025857806323b872dd1461026157600080fd5b806301e1d114146101df57806306fdde03146101fa57806307a2d13a1461020f575b600080fd5b6101e761048b565b6040519081526020015b60405180910390f35b610202610564565b6040516101f19190611281565b6101e761021d3660046112d6565b6105f2565b61023561023036600461130b565b61061f565b60405190151581526020016101f1565b6101e76102533660046112d6565b61068c565b6101e760025481565b61023561026f366004611335565b6106ac565b61029b7f000000000000000000000000000000000000000000000000000000000000000081565b60405160ff90911681526020016101f1565b6101e761078c565b6102dc7f000000000000000000000000000000000000000000000000000000000000000081565b6040516001600160a01b0390911681526020016101f1565b6101e7610302366004611371565b6107e2565b6101e7610315366004611371565b5060001990565b6101e761032a3660046112d6565b610804565b6101e761033d36600461138c565b61080f565b6101e7610350366004611371565b60036020526000908152604090205481565b6101e7610370366004611371565b60056020526000908152604090205481565b6101e761039036600461138c565b6108eb565b610202610987565b6006546102dc906001600160a01b031681565b6102356103be36600461130b565b610994565b6101e76103d13660046112d6565b6109fa565b6101e76103e43660046113b8565b610a19565b6101e76103f73660046113b8565b610b27565b6101e761040a3660046112d6565b610c70565b61042261041d3660046113f4565b610c90565b005b6101e7610432366004611371565b6001600160a01b031660009081526003602052604090205490565b6101e761045b366004611467565b600460209081526000928352604080842090915290825290205481565b6101e76104863660046112d6565b610ed4565b6006546040516370a0823160e01b81523060048201526000916001600160a01b03169063067e4b9e9082906370a0823190602401602060405180830381865afa1580156104dc573d6000803e3d6000fd5b505050506040513d601f19601f820116820180604052508101906105009190611491565b6040518263ffffffff1660e01b815260040161051e91815260200190565b602060405180830381865afa15801561053b573d6000803e3d6000fd5b505050506040513d601f19601f8201168201806040525081019061055f9190611491565b905090565b60008054610571906114aa565b80601f016020809104026020016040519081016040528092919081815260200182805461059d906114aa565b80156105ea5780601f106105bf576101008083540402835291602001916105ea565b820191906000526020600020905b8154815290600101906020018083116105cd57829003601f168201915b505050505081565b60025460009080156106165761061161060961048b565b849083610f42565b610618565b825b9392505050565b3360008181526004602090815260408083206001600160a01b038716808552925280832085905551919290917f8c5be1e5ebec7d5bd14f71427d1e84f3dd0314c0f7b2291e5b200ac8c7c3b9259061067a9086815260200190565b60405180910390a35060015b92915050565b600254600090801561061657610611816106a461048b565b859190610f61565b6001600160a01b03831660009081526004602090815260408083203384529091528120546000198114610708576106e383826114fb565b6001600160a01b03861660009081526004602090815260408083203384529091529020555b6001600160a01b038516600090815260036020526040812080548592906107309084906114fb565b90915550506001600160a01b03808516600081815260036020526040908190208054870190555190918716906000805160206115c7833981519152906107799087815260200190565b60405180910390a3506001949350505050565b60007f000000000000000000000000000000000000000000000000000000000000000046146107bd5761055f610f8f565b507f000000000000000000000000000000000000000000000000000000000000000090565b6001600160a01b038116600090815260036020526040812054610686906105f2565b6000610686826105f2565b600061081a83610ed4565b90508061085c5760405162461bcd60e51b815260206004820152600b60248201526a5a45524f5f53484152455360a81b60448201526064015b60405180910390fd5b6108916001600160a01b037f000000000000000000000000000000000000000000000000000000000000000016333086611029565b61089b82826110b3565b60408051848152602081018390526001600160a01b0384169133917fdcbc1c05240f31ff3ad067ef1ee35ce4997762752e3a095284754544f4c709d7910160405180910390a3610686838261110d565b60006108f6836109fa565b905061092d6001600160a01b037f000000000000000000000000000000000000000000000000000000000000000016333084611029565b61093782846110b3565b60408051828152602081018590526001600160a01b0384169133917fdcbc1c05240f31ff3ad067ef1ee35ce4997762752e3a095284754544f4c709d7910160405180910390a3610686818461110d565b60018054610571906114aa565b336000908152600360205260408120805483919083906109b59084906114fb565b90915550506001600160a01b038316600081815260036020526040908190208054850190555133906000805160206115c78339815191529061067a9086815260200190565b600254600090801561061657610611610a1161048b565b849083610f61565b6000610a248461068c565b9050336001600160a01b03831614610a94576001600160a01b03821660009081526004602090815260408083203384529091529020546000198114610a9257610a6d82826114fb565b6001600160a01b03841660009081526004602090815260408083203384529091529020555b505b610a9e8482611170565b610aa882826111a1565b60408051858152602081018390526001600160a01b03808516929086169133917ffbde797d201c681b91056529119e0b02407c7bb96a4a2c75c01fc9667232c8db910160405180910390a46106186001600160a01b037f0000000000000000000000000000000000000000000000000000000000000000168486611203565b6000336001600160a01b03831614610b97576001600160a01b03821660009081526004602090815260408083203384529091529020546000198114610b9557610b7085826114fb565b6001600160a01b03841660009081526004602090815260408083203384529091529020555b505b610ba084610804565b905080610bdd5760405162461bcd60e51b815260206004820152600b60248201526a5a45524f5f41535345545360a81b6044820152606401610853565b610be78185611170565b610bf182856111a1565b60408051828152602081018690526001600160a01b03808516929086169133917ffbde797d201c681b91056529119e0b02407c7bb96a4a2c75c01fc9667232c8db910160405180910390a46106186001600160a01b037f0000000000000000000000000000000000000000000000000000000000000000168483611203565b60025460009080156106165761061181610c8861048b565b859190610f42565b42841015610ce05760405162461bcd60e51b815260206004820152601760248201527f5045524d49545f444541444c494e455f455850495245440000000000000000006044820152606401610853565b60006001610cec61078c565b6001600160a01b038a811660008181526005602090815260409182902080546001810190915582517f6e71edae12b1b97f4d1f60370fef10105fa2faae0126114a169c64845d6126c98184015280840194909452938d166060840152608083018c905260a083019390935260c08083018b90528151808403909101815260e08301909152805192019190912061190160f01b6101008301526101028201929092526101228101919091526101420160408051601f198184030181528282528051602091820120600084529083018083525260ff871690820152606081018590526080810184905260a0016020604051602081039080840390855afa158015610df8573d6000803e3d6000fd5b5050604051601f1901519150506001600160a01b03811615801590610e2e5750876001600160a01b0316816001600160a01b0316145b610e6b5760405162461bcd60e51b815260206004820152600e60248201526d24a72b20a624a22fa9a4a3a722a960911b6044820152606401610853565b6001600160a01b0390811660009081526004602090815260408083208a8516808552908352928190208990555188815291928a16917f8c5be1e5ebec7d5bd14f71427d1e84f3dd0314c0f7b2291e5b200ac8c7c3b925910160405180910390a350505050505050565b600654604051636be2be9560e01b8152600481018390526000916001600160a01b031690636be2be9590602401602060405180830381865afa158015610f1e573d6000803e3d6000fd5b505050506040513d601f19601f820116820180604052508101906106869190611491565b828202811515841585830485141716610f5a57600080fd5b0492915050565b828202811515841585830485141716610f7957600080fd5b6001826001830304018115150290509392505050565b60007f8b73c3c69bb8fe3d512ecc4cf759cc79239f7b179b0ffacaa9a75d522b39400f6000604051610fc19190611512565b6040805191829003822060208301939093528101919091527fc89efdaa54c0f20c7adf612882df0950f5a951637e0307cdcb4c672f298b8bc660608201524660808201523060a082015260c00160405160208183030381529060405280519060200120905090565b60006040516323b872dd60e01b81528460048201528360248201528260448201526020600060648360008a5af13d15601f3d11600160005114161716915050806110ac5760405162461bcd60e51b81526020600482015260146024820152731514905394d1915497d19493d357d1905253115160621b6044820152606401610853565b5050505050565b80600260008282546110c591906115ae565b90915550506001600160a01b0382166000818152600360209081526040808320805486019055518481526000805160206115c783398151915291015b60405180910390a35050565b600654604051632967cf8360e21b8152600481018490526001600160a01b039091169063a59f3e0c906024015b600060405180830381600087803b15801561115457600080fd5b505af1158015611168573d6000803e3d6000fd5b505050505050565b6006546040516367dfd4c960e01b8152600481018390526001600160a01b03909116906367dfd4c99060240161113a565b6001600160a01b038216600090815260036020526040812080548392906111c99084906114fb565b90915550506002805482900390556040518181526000906001600160a01b038416906000805160206115c783398151915290602001611101565b600060405163a9059cbb60e01b8152836004820152826024820152602060006044836000895af13d15601f3d116001600051141617169150508061127b5760405162461bcd60e51b815260206004820152600f60248201526e1514905394d1915497d19052531151608a1b6044820152606401610853565b50505050565b600060208083528351808285015260005b818110156112ae57858101830151858201604001528201611292565b818111156112c0576000604083870101525b50601f01601f1916929092016040019392505050565b6000602082840312156112e857600080fd5b5035919050565b80356001600160a01b038116811461130657600080fd5b919050565b6000806040838503121561131e57600080fd5b611327836112ef565b946020939093013593505050565b60008060006060848603121561134a57600080fd5b611353846112ef565b9250611361602085016112ef565b9150604084013590509250925092565b60006020828403121561138357600080fd5b610618826112ef565b6000806040838503121561139f57600080fd5b823591506113af602084016112ef565b90509250929050565b6000806000606084860312156113cd57600080fd5b833592506113dd602085016112ef565b91506113eb604085016112ef565b90509250925092565b600080600080600080600060e0888a03121561140f57600080fd5b611418886112ef565b9650611426602089016112ef565b95506040880135945060608801359350608088013560ff8116811461144a57600080fd5b9699959850939692959460a0840135945060c09093013592915050565b6000806040838503121561147a57600080fd5b611483836112ef565b91506113af602084016112ef565b6000602082840312156114a357600080fd5b5051919050565b600181811c908216806114be57607f821691505b602082108114156114df57634e487b7160e01b600052602260045260246000fd5b50919050565b634e487b7160e01b600052601160045260246000fd5b60008282101561150d5761150d6114e5565b500390565b600080835481600182811c91508083168061152e57607f831692505b602080841082141561154e57634e487b7160e01b86526022600452602486fd5b8180156115625760018114611573576115a0565b60ff198616895284890196506115a0565b60008a81526020902060005b868110156115985781548b82015290850190830161157f565b505084890196505b509498975050505050505050565b600082198211156115c1576115c16114e5565b50019056feddf252ad1be2c89b69c2b068fc378daa952ba7f163c4a11628f55a4df523b3efa164736f6c634300080a000a",
    "linkReferences": {}
  },
  "methodIdentifiers": {
    "DOMAIN_SEPARATOR()": "3644e515",
    "allowance(address,address)": "dd62ed3e",
    "approve(address,uint256)": "095ea7b3",
    "asset()": "38d52e0f",
    "balanceOf(address)": "70a08231",
    "balanceOfUnderlying(address)": "3af9e669",
    "convertToAssets(uint256)": "07a2d13a",
    "convertToShares(uint256)": "c6e6f592",
    "decimals()": "313ce567",
    "deposit(uint256,address)": "6e553f65",
    "maxDeposit(address)": "402d267d",
    "maxMint(address)": "c63d75b6",
    "maxRedeem(address)": "d905777e",
    "maxWithdraw(address)": "ce96cb77",
    "mint(uint256,address)": "94bf804d",
    "name()": "06fdde03",
    "nonces(address)": "7ecebe00",
    "permit(address,address,uint256,uint256,uint8,bytes32,bytes32)": "d505accf",
    "previewDeposit(uint256)": "ef8b30f7",
    "previewMint(uint256)": "b3d7f6b9",
    "previewRedeem(uint256)": "4cdad506",
    "previewWithdraw(uint256)": "0a28a477",
    "redeem(uint256,address,address)": "ba087652",
    "symbol()": "95d89b41",
    "totalAssets()": "01e1d114",
    "totalSupply()": "18160ddd",
    "transfer(address,uint256)": "a9059cbb",
    "transferFrom(address,address,uint256)": "23b872dd",
    "withdraw(uint256,address,address)": "b460af94",
    "xbomb()": "a32b0d5d"
  },
  "id": 51
}