{
  "abi": [
    {
      "inputs": [],
      "name": "BADGER_ETH_FEED",
      "outputs": [
        {
          "internalType": "contract AggregatorV3Interface",
          "name": "",
          "type": "address"
        }
      ],
      "stateMutability": "view",
      "type": "function"
    },
    {
      "inputs": [],
      "name": "BBADGER",
      "outputs": [
        {
          "internalType": "contract IXToken",
          "name": "",
          "type": "address"
        }
      ],
      "stateMutability": "view",
      "type": "function"
    },
    {
      "inputs": [],
      "name": "BDIGG",
      "outputs": [
        {
          "internalType": "contract DiggSett",
          "name": "",
          "type": "address"
        }
      ],
      "stateMutability": "view",
      "type": "function"
    },
    {
      "inputs": [],
      "name": "BTC_ETH_FEED",
      "outputs": [
        {
          "internalType": "contract AggregatorV3Interface",
          "name": "",
          "type": "address"
        }
      ],
      "stateMutability": "view",
      "type": "function"
    },
    {
      "inputs": [],
      "name": "DIGG_BTC_FEED",
      "outputs": [
        {
          "internalType": "contract AggregatorV3Interface",
          "name": "",
          "type": "address"
        }
      ],
      "stateMutability": "view",
      "type": "function"
    },
    {
      "inputs": [],
      "name": "IBBTC",
      "outputs": [
        {
          "internalType": "contract IXToken",
          "name": "",
          "type": "address"
        }
      ],
      "stateMutability": "view",
      "type": "function"
    },
    {
      "inputs": [
        {
          "internalType": "contract ICToken",
          "name": "cToken",
          "type": "address"
        }
      ],
      "name": "getUnderlyingPrice",
      "outputs": [
        {
          "internalType": "uint256",
          "name": "",
          "type": "uint256"
        }
      ],
      "stateMutability": "view",
      "type": "function"
    },
    {
      "inputs": [
        {
          "internalType": "address",
          "name": "underlying",
          "type": "address"
        }
      ],
      "name": "price",
      "outputs": [
        {
          "internalType": "uint256",
          "name": "",
          "type": "uint256"
        }
      ],
      "stateMutability": "view",
      "type": "function"
    }
  ],
  "bytecode": {
    "object": "0x608060405234801561001057600080fd5b50610c63806100206000396000f3fe608060405234801561001057600080fd5b50600436106100885760003560e01c8063aea910781161005b578063aea9107814610116578063e564763514610137578063fc57d4df14610152578063ff8a24a71461016557600080fd5b80633e49cd791461008d5780635c7fdafc146100c557806376d4dc85146100e05780638babb28d146100fb575b600080fd5b6100a87319d97d8fa813ee2f51ad4b4e04ea08baf4dffc2881565b6040516001600160a01b0390911681526020015b60405180910390f35b6100a873c4e15973e6ff2a35cc804c2cf9d2a1b817a8b40f81565b6100a873deb288f737066589598e9214e782fa5a8ed689e881565b6100a87358921ac140522867bf50b9e009599da0ca4a237981565b6101296101243660046109d2565b610180565b6040519081526020016100bc565b6100a873418a6c98cd5b8275955f08f0b8c1c6838c8b168581565b6101296101603660046109d2565b610191565b6100a8737e7e112a68d8d2e221e11047a72ffc1065c38e1a81565b600061018b82610294565b92915050565b600080826001600160a01b0316636f307dc36040518163ffffffff1660e01b8152600401602060405180830381865afa1580156101d2573d6000803e3d6000fd5b505050506040513d601f19601f820116820180604052508101906101f691906109ef565b9050806001600160a01b031663313ce5676040518163ffffffff1660e01b8152600401602060405180830381865afa158015610236573d6000803e3d6000fd5b505050506040513d601f19601f8201168201806040525081019061025a9190610a0c565b6102689060ff16600a610b29565b61027182610294565b61028390670de0b6b3a7640000610b35565b61028d9190610b54565b9392505050565b60006001600160a01b0382167319d97d8fa813ee2f51ad4b4e04ea08baf4dffc2814156104235760008060007358921ac140522867bf50b9e009599da0ca4a23796001600160a01b031663feaf968c6040518163ffffffff1660e01b815260040160a060405180830381865afa158015610312573d6000803e3d6000fd5b505050506040513d601f19601f820116820180604052508101906103369190610b8d565b9450505092509250826001600160501b0316816001600160501b0316146103785760405162461bcd60e51b815260040161036f90610bdd565b60405180910390fd5b6000821361038757600061041a565b670de0b6b3a76400007319d97d8fa813ee2f51ad4b4e04ea08baf4dffc286001600160a01b03166377c7b8fc6040518163ffffffff1660e01b8152600401602060405180830381865afa1580156103e2573d6000803e3d6000fd5b505050506040513d601f19601f820116820180604052508101906104069190610c14565b6104109084610b35565b61041a9190610b54565b95945050505050565b6001600160a01b038216737e7e112a68d8d2e221e11047a72ffc1065c38e1a141561080f57600080600073418a6c98cd5b8275955f08f0b8c1c6838c8b16856001600160a01b031663feaf968c6040518163ffffffff1660e01b815260040160a060405180830381865afa15801561049f573d6000803e3d6000fd5b505050506040513d601f19601f820116820180604052508101906104c39190610b8d565b9450505092509250826001600160501b0316816001600160501b0316146104fc5760405162461bcd60e51b815260040161036f90610bdd565b600082121561051057506000949350505050565b600073deb288f737066589598e9214e782fa5a8ed689e86001600160a01b031663feaf968c6040518163ffffffff1660e01b815260040160a060405180830381865afa158015610564573d6000803e3d6000fd5b505050506040513d601f19601f820116820180604052508101906105889190610b8d565b93975092945090925050506001600160501b03808316908516146105be5760405162461bcd60e51b815260040161036f90610bdd565b60008112156105d35750600095945050505050565b6000737e7e112a68d8d2e221e11047a72ffc1065c38e1a6001600160a01b031663fc0c546a6040518163ffffffff1660e01b8152600401602060405180830381865afa158015610627573d6000803e3d6000fd5b505050506040513d601f19601f8201168201806040525081019061064b91906109ef565b6001600160a01b0316635d2dde1d737e7e112a68d8d2e221e11047a72ffc1065c38e1a6001600160a01b03166318160ddd6040518163ffffffff1660e01b8152600401602060405180830381865afa1580156106ab573d6000803e3d6000fd5b505050506040513d601f19601f820116820180604052508101906106cf9190610c14565b737e7e112a68d8d2e221e11047a72ffc1065c38e1a6001600160a01b03166303314efa6040518163ffffffff1660e01b8152600401602060405180830381865afa158015610721573d6000803e3d6000fd5b505050506040513d601f19601f820116820180604052508101906107459190610c14565b61075790670de0b6b3a7640000610b35565b6107619190610b54565b6040518263ffffffff1660e01b815260040161077f91815260200190565b602060405180830381865afa15801561079c573d6000803e3d6000fd5b505050506040513d601f19601f820116820180604052508101906107c09190610c14565b9050600081116107d1576000610804565b633b9aca00816305f5e1006107e68588610b35565b6107f09190610b54565b6107fa9190610b35565b6108049190610b54565b979650505050505050565b6001600160a01b03821673c4e15973e6ff2a35cc804c2cf9d2a1b817a8b40f141561095257600080600073deb288f737066589598e9214e782fa5a8ed689e86001600160a01b031663feaf968c6040518163ffffffff1660e01b815260040160a060405180830381865afa15801561088b573d6000803e3d6000fd5b505050506040513d601f19601f820116820180604052508101906108af9190610b8d565b9450505092509250826001600160501b0316816001600160501b0316146108e85760405162461bcd60e51b815260040161036f90610bdd565b600082136108f757600061041a565b670de0b6b3a764000073c4e15973e6ff2a35cc804c2cf9d2a1b817a8b40f6001600160a01b03166399530b066040518163ffffffff1660e01b8152600401602060405180830381865afa1580156103e2573d6000803e3d6000fd5b60405162461bcd60e51b815260206004820152603260248201527f496e76616c696420746f6b656e20616464726573732070617373656420746f206044820152712130b233b2b9283934b1b2a7b930b1b6329760711b606482015260840161036f565b919050565b6001600160a01b03811681146109cf57600080fd5b50565b6000602082840312156109e457600080fd5b813561028d816109ba565b600060208284031215610a0157600080fd5b815161028d816109ba565b600060208284031215610a1e57600080fd5b815160ff8116811461028d57600080fd5b634e487b7160e01b600052601160045260246000fd5b600181815b80851115610a80578160001904821115610a6657610a66610a2f565b80851615610a7357918102915b93841c9390800290610a4a565b509250929050565b600082610a975750600161018b565b81610aa45750600061018b565b8160018114610aba5760028114610ac457610ae0565b600191505061018b565b60ff841115610ad557610ad5610a2f565b50506001821b61018b565b5060208310610133831016604e8410600b8410161715610b03575081810a61018b565b610b0d8383610a45565b8060001904821115610b2157610b21610a2f565b029392505050565b600061028d8383610a88565b6000816000190483118215151615610b4f57610b4f610a2f565b500290565b600082610b7157634e487b7160e01b600052601260045260246000fd5b500490565b80516001600160501b03811681146109b557600080fd5b600080600080600060a08688031215610ba557600080fd5b610bae86610b76565b9450602086015193506040860151925060608601519150610bd160808701610b76565b90509295509295909350565b6020808252601a908201527f436861696e6c696e6b20726f756e642074696d6564206f75742e000000000000604082015260600190565b600060208284031215610c2657600080fd5b505191905056fea26469706673582212204ff8e0a53a14db25e7f7911c334633f66d2f121f522252f1bf26c3daf234ed3664736f6c634300080a0033",
    "linkReferences": {}
  }
}