{
  "abi": [
    {
      "inputs": [
        {
          "internalType": "address",
          "name": "_admin",
          "type": "address"
        },
        {
          "internalType": "bool",
          "name": "canAdminOverwrite",
          "type": "bool"
        },
        {
          "internalType": "address",
          "name": "wtoken",
          "type": "address"
        },
        {
          "internalType": "contract CLV2V3Interface",
          "name": "nativeTokenUsd",
          "type": "address"
        },
        {
          "internalType": "contract MasterPriceOracle",
          "name": "masterPriceOracle",
          "type": "address"
        },
        {
          "internalType": "address",
          "name": "usdToken",
          "type": "address"
        }
      ],
      "stateMutability": "nonpayable",
      "type": "constructor"
    },
    {
      "anonymous": false,
      "inputs": [
        {
          "indexed": false,
          "internalType": "address",
          "name": "oldAdmin",
          "type": "address"
        },
        {
          "indexed": false,
          "internalType": "address",
          "name": "newAdmin",
          "type": "address"
        }
      ],
      "name": "NewAdmin",
      "type": "event"
    },
    {
      "inputs": [],
      "name": "CAN_ADMIN_OVERWRITE",
      "outputs": [
        {
          "internalType": "bool",
          "name": "",
          "type": "bool"
        }
      ],
      "stateMutability": "view",
      "type": "function"
    },
    {
      "inputs": [],
      "name": "MASTER_PRICE_ORACLE",
      "outputs": [
        {
          "internalType": "contract MasterPriceOracle",
          "name": "",
          "type": "address"
        }
      ],
      "stateMutability": "view",
      "type": "function"
    },
    {
      "inputs": [],
      "name": "NATIVE_TOKEN_USD_PRICE_FEED",
      "outputs": [
        {
          "internalType": "contract CLV2V3Interface",
          "name": "",
          "type": "address"
        }
      ],
      "stateMutability": "view",
      "type": "function"
    },
    {
      "inputs": [],
      "name": "USD_TOKEN",
      "outputs": [
        {
          "internalType": "address",
          "name": "",
          "type": "address"
        }
      ],
      "stateMutability": "view",
      "type": "function"
    },
    {
      "inputs": [],
      "name": "WTOKEN",
      "outputs": [
        {
          "internalType": "address",
          "name": "",
          "type": "address"
        }
      ],
      "stateMutability": "view",
      "type": "function"
    },
    {
      "inputs": [],
      "name": "admin",
      "outputs": [
        {
          "internalType": "address",
          "name": "",
          "type": "address"
        }
      ],
      "stateMutability": "view",
      "type": "function"
    },
    {
      "inputs": [
        {
          "internalType": "address",
          "name": "newAdmin",
          "type": "address"
        }
      ],
      "name": "changeAdmin",
      "outputs": [],
      "stateMutability": "nonpayable",
      "type": "function"
    },
    {
      "inputs": [
        {
          "internalType": "contract ICToken",
          "name": "cToken",
          "type": "address"
        }
      ],
      "name": "getUnderlyingPrice",
      "outputs": [
        {
          "internalType": "uint256",
          "name": "",
          "type": "uint256"
        }
      ],
      "stateMutability": "view",
      "type": "function"
    },
    {
      "inputs": [
        {
          "internalType": "address",
          "name": "underlying",
          "type": "address"
        }
      ],
      "name": "price",
      "outputs": [
        {
          "internalType": "uint256",
          "name": "",
          "type": "uint256"
        }
      ],
      "stateMutability": "view",
      "type": "function"
    },
    {
      "inputs": [
        {
          "internalType": "address",
          "name": "",
          "type": "address"
        }
      ],
      "name": "priceFeeds",
      "outputs": [
        {
          "internalType": "contract CLV2V3Interface",
          "name": "",
          "type": "address"
        }
      ],
      "stateMutability": "view",
      "type": "function"
    },
    {
      "inputs": [
        {
          "internalType": "address[]",
          "name": "underlyings",
          "type": "address[]"
        },
        {
          "internalType": "contract CLV2V3Interface[]",
          "name": "feeds",
          "type": "address[]"
        }
      ],
      "name": "setPriceFeeds",
      "outputs": [],
      "stateMutability": "nonpayable",
      "type": "function"
    }
  ],
  "bytecode": {
    "object": "0x6101206040523480156200001257600080fd5b50604051620010403803806200104083398101604081905262000035916200008b565b600180546001600160a01b0319166001600160a01b0397881617905593151560805291841660a052831660c052821660e052166101005262000123565b6001600160a01b03811681146200008857600080fd5b50565b60008060008060008060c08789031215620000a557600080fd5b8651620000b28162000072565b60208801519096508015158114620000c957600080fd5b6040880151909550620000dc8162000072565b6060880151909450620000ef8162000072565b6080880151909350620001028162000072565b60a0880151909250620001158162000072565b809150509295509295509295565b60805160a05160c05160e05161010051610eb062000190600039600081816101a4015261081001526000818161012e015261083b01526000818160ef015281816107cd015261096c01526000818161015501526106e401526000818160b301526103f60152610eb06000f3fe608060405234801561001057600080fd5b50600436106100a95760003560e01c806392aeb53a1161007157806392aeb53a1461018c5780639d23c8121461019f5780639dcb511a146101c6578063aea91078146101ef578063f851a44014610210578063fc57d4df1461022357600080fd5b806319983c85146100ae5780633a750685146100ea5780635381c2ae146101295780635bcf1f76146101505780638f28397014610177575b600080fd5b6100d57f000000000000000000000000000000000000000000000000000000000000000081565b60405190151581526020015b60405180910390f35b6101117f000000000000000000000000000000000000000000000000000000000000000081565b6040516001600160a01b0390911681526020016100e1565b6101117f000000000000000000000000000000000000000000000000000000000000000081565b6101117f000000000000000000000000000000000000000000000000000000000000000081565b61018a610185366004610aab565b610236565b005b61018a61019a366004610bae565b6102f1565b6101117f000000000000000000000000000000000000000000000000000000000000000081565b6101116101d4366004610aab565b6000602081905290815260409020546001600160a01b031681565b6102026101fd366004610aab565b610524565b6040519081526020016100e1565b600154610111906001600160a01b031681565b610202610231366004610aab565b610535565b6001546001600160a01b031633146102905760405162461bcd60e51b815260206004820152601860248201527729b2b73232b91034b9903737ba103a34329030b236b4b71760411b60448201526064015b60405180910390fd5b600180546001600160a01b038381166001600160a01b031983168117909355604080519190921680825260208201939093527ff9ffabca9c8276e99321725bcb43fb076a6c66a54b7f21c4e8146d8519b417dc910160405180910390a15050565b6001546001600160a01b031633146103465760405162461bcd60e51b815260206004820152601860248201527729b2b73232b91034b9903737ba103a34329030b236b4b71760411b6044820152606401610287565b60008251118015610358575080518251145b6103ca5760405162461bcd60e51b815260206004820152603860248201527f4c656e67746873206f6620626f746820617272617973206d757374206265206560448201527f7175616c20616e642067726561746572207468616e20302e00000000000000006064820152608401610287565b60005b825181101561051f5760008382815181106103ea576103ea610c70565b602002602001015190507f00000000000000000000000000000000000000000000000000000000000000006104c0576001600160a01b0381811660009081526020819052604090205416156104c05760405162461bcd60e51b815260206004820152605060248201527f41646d696e2063616e6e6f74206f7665727772697465206578697374696e672060448201527f61737369676e6d656e7473206f6620707269636520666565647320746f20756e60648201526f3232b9363cb4b733903a37b5b2b7399760811b608482015260a401610287565b8282815181106104d2576104d2610c70565b6020908102919091018101516001600160a01b03928316600090815291829052604090912080546001600160a01b031916929091169190911790558061051781610c9c565b9150506103cd565b505050565b600061052f826106e0565b92915050565b6000816001600160a01b031663ac784ddc6040518163ffffffff1660e01b8152600401602060405180830381865afa158015610575573d6000803e3d6000fd5b505050506040513d601f19601f820116820180604052508101906105999190610cb7565b156105ad5750670de0b6b3a7640000919050565b6000826001600160a01b0316636f307dc36040518163ffffffff1660e01b8152600401602060405180830381865afa1580156105ed573d6000803e3d6000fd5b505050506040513d601f19601f820116820180604052508101906106119190610cd9565b9050600061061e826106e0565b90506000826001600160a01b031663313ce5676040518163ffffffff1660e01b8152600401602060405180830381865afa158015610660573d6000803e3d6000fd5b505050506040513d601f19601f820116820180604052508101906106849190610cf6565b60ff16905060128111156106b75761069d601282610d19565b6106a890600a610e14565b6106b29083610e20565b6106d7565b6106c2816012610d19565b6106cd90600a610e14565b6106d79083610e42565b95945050505050565b60007f00000000000000000000000000000000000000000000000000000000000000006001600160a01b0316826001600160a01b0316148061072957506001600160a01b038216155b1561073d5750670de0b6b3a7640000919050565b6001600160a01b0380831660009081526020819052604090205416806107cb5760405162461bcd60e51b815260206004820152603960248201527f4e6f20466c7578207072696365206665656420666f756e6420666f722074686960448201527f7320756e6465726c79696e6720455243323020746f6b656e2e000000000000006064820152608401610287565b7f00000000000000000000000000000000000000000000000000000000000000006001600160a01b0316610968576040516315d5220f60e31b81526001600160a01b037f0000000000000000000000000000000000000000000000000000000000000000811660048301526000917f00000000000000000000000000000000000000000000000000000000000000009091169063aea9107890602401602060405180830381865afa158015610884573d6000803e3d6000fd5b505050506040513d601f19601f820116820180604052508101906108a89190610e61565b905060006108c5826ec097ce7bc90715b34b9f1000000000610e20565b90506000836001600160a01b03166350d25bcd6040518163ffffffff1660e01b8152600401602060405180830381865afa158015610907573d6000803e3d6000fd5b505050506040513d601f19601f8201168201806040525081019061092b9190610e61565b9050600081121561093d57600061095e565b81610954826b204fce5e3e25026110000000610e42565b61095e9190610e20565b9695505050505050565b60007f00000000000000000000000000000000000000000000000000000000000000006001600160a01b03166350d25bcd6040518163ffffffff1660e01b8152600401602060405180830381865afa1580156109c8573d6000803e3d6000fd5b505050506040513d601f19601f820116820180604052508101906109ec9190610e61565b905060008113610a00575060009392505050565b6000826001600160a01b03166350d25bcd6040518163ffffffff1660e01b8152600401602060405180830381865afa158015610a40573d6000803e3d6000fd5b505050506040513d601f19601f82011682018060405250810190610a649190610e61565b90506000811215610a765760006106d7565b81610a8982670de0b6b3a7640000610e42565b6106d79190610e20565b6001600160a01b0381168114610aa857600080fd5b50565b600060208284031215610abd57600080fd5b8135610ac881610a93565b9392505050565b634e487b7160e01b600052604160045260246000fd5b604051601f8201601f1916810167ffffffffffffffff81118282101715610b0e57610b0e610acf565b604052919050565b600067ffffffffffffffff821115610b3057610b30610acf565b5060051b60200190565b600082601f830112610b4b57600080fd5b81356020610b60610b5b83610b16565b610ae5565b82815260059290921b84018101918181019086841115610b7f57600080fd5b8286015b84811015610ba3578035610b9681610a93565b8352918301918301610b83565b509695505050505050565b60008060408385031215610bc157600080fd5b823567ffffffffffffffff80821115610bd957600080fd5b818501915085601f830112610bed57600080fd5b81356020610bfd610b5b83610b16565b82815260059290921b84018101918181019089841115610c1c57600080fd5b948201945b83861015610c43578535610c3481610a93565b82529482019490820190610c21565b96505086013592505080821115610c5957600080fd5b50610c6685828601610b3a565b9150509250929050565b634e487b7160e01b600052603260045260246000fd5b634e487b7160e01b600052601160045260246000fd5b6000600019821415610cb057610cb0610c86565b5060010190565b600060208284031215610cc957600080fd5b81518015158114610ac857600080fd5b600060208284031215610ceb57600080fd5b8151610ac881610a93565b600060208284031215610d0857600080fd5b815160ff81168114610ac857600080fd5b600082821015610d2b57610d2b610c86565b500390565b600181815b80851115610d6b578160001904821115610d5157610d51610c86565b80851615610d5e57918102915b93841c9390800290610d35565b509250929050565b600082610d825750600161052f565b81610d8f5750600061052f565b8160018114610da55760028114610daf57610dcb565b600191505061052f565b60ff841115610dc057610dc0610c86565b50506001821b61052f565b5060208310610133831016604e8410600b8410161715610dee575081810a61052f565b610df88383610d30565b8060001904821115610e0c57610e0c610c86565b029392505050565b6000610ac88383610d73565b600082610e3d57634e487b7160e01b600052601260045260246000fd5b500490565b6000816000190483118215151615610e5c57610e5c610c86565b500290565b600060208284031215610e7357600080fd5b505191905056fea2646970667358221220375bca6ba26dd5b7d1fd0efce81f16bf71bf0b04294740d23f7041c4d5a7673464736f6c634300080a0033",
    "linkReferences": {}
  }
}