{
  "abi": [
    {
      "inputs": [],
      "name": "IBETH",
      "outputs": [
        {
          "internalType": "contract Bank",
          "name": "",
          "type": "address"
        }
      ],
      "stateMutability": "view",
      "type": "function"
    },
    {
      "inputs": [
        {
          "internalType": "contract ICToken",
          "name": "cToken",
          "type": "address"
        }
      ],
      "name": "getUnderlyingPrice",
      "outputs": [
        {
          "internalType": "uint256",
          "name": "",
          "type": "uint256"
        }
      ],
      "stateMutability": "view",
      "type": "function"
    }
  ],
  "bytecode": {
    "object": "0x608060405234801561001057600080fd5b50610305806100206000396000f3fe608060405234801561001057600080fd5b50600436106100365760003560e01c806378cd49e91461003b578063fc57d4df14610073575b600080fd5b6100567367b66c99d3eb37fa76aa3ed1ff33e8e39f0b9c7a81565b6040516001600160a01b0390911681526020015b60405180910390f35b61008661008136600461024f565b610094565b60405190815260200161006a565b60007367b66c99d3eb37fa76aa3ed1ff33e8e39f0b9c7a6001600160a01b0316826001600160a01b0316636f307dc36040518163ffffffff1660e01b8152600401602060405180830381865afa1580156100f2573d6000803e3d6000fd5b505050506040513d601f19601f820116820180604052508101906101169190610273565b6001600160a01b03161461012957600080fd5b7367b66c99d3eb37fa76aa3ed1ff33e8e39f0b9c7a6001600160a01b03166318160ddd6040518163ffffffff1660e01b8152600401602060405180830381865afa15801561017b573d6000803e3d6000fd5b505050506040513d601f19601f8201168201806040525081019061019f9190610290565b7367b66c99d3eb37fa76aa3ed1ff33e8e39f0b9c7a6001600160a01b03166336bdee746040518163ffffffff1660e01b8152600401602060405180830381865afa1580156101f1573d6000803e3d6000fd5b505050506040513d601f19601f820116820180604052508101906102159190610290565b61022790670de0b6b3a76400006102a9565b61023191906102d6565b92915050565b6001600160a01b038116811461024c57600080fd5b50565b60006020828403121561026157600080fd5b813561026c81610237565b9392505050565b60006020828403121561028557600080fd5b815161026c81610237565b6000602082840312156102a257600080fd5b5051919050565b60008160001904831182151516156102d157634e487b7160e01b600052601160045260246000fd5b500290565b6000826102f357634e487b7160e01b600052601260045260246000fd5b50049056fea164736f6c634300080a000a",
    "linkReferences": {}
  },
  "methodIdentifiers": {
    "IBETH()": "78cd49e9",
    "getUnderlyingPrice(address)": "fc57d4df"
  },
  "id": 183
}