{
  "abi": [
    {
      "inputs": [],
      "name": "FARM",
      "outputs": [
        {
          "internalType": "contract IERC20Upgradeable",
          "name": "",
          "type": "address"
        }
      ],
      "stateMutability": "view",
      "type": "function"
    },
    {
      "inputs": [],
      "name": "IFARM",
      "outputs": [
        {
          "internalType": "contract IFarmVault",
          "name": "",
          "type": "address"
        }
      ],
      "stateMutability": "view",
      "type": "function"
    },
    {
      "inputs": [
        {
          "internalType": "contract IERC20Upgradeable",
          "name": "inputToken",
          "type": "address"
        },
        {
          "internalType": "uint256",
          "name": "inputAmount",
          "type": "uint256"
        },
        {
          "internalType": "bytes",
          "name": "strategyData",
          "type": "bytes"
        }
      ],
      "name": "redeem",
      "outputs": [
        {
          "internalType": "contract IERC20Upgradeable",
          "name": "outputToken",
          "type": "address"
        },
        {
          "internalType": "uint256",
          "name": "outputAmount",
          "type": "uint256"
        }
      ],
      "stateMutability": "nonpayable",
      "type": "function"
    }
  ],
  "bytecode": {
    "object": "0x608060405234801561001057600080fd5b5061035b806100206000396000f3fe608060405234801561001057600080fd5b50600436106100415760003560e01c806310badf4e146100465780634eac22eb1461007d578063b3a9992e146100b0575b600080fd5b61005961005436600461025c565b6100cb565b604080516001600160a01b0390931683526020830191909152015b60405180910390f35b610098731571ed0bed4d987fe2b498ddbae7dfa19519f65181565b6040516001600160a01b039091168152602001610074565b61009873a0246c9032bc3a600820415ae600c6388619a14d81565b6000806001600160a01b038516731571ed0bed4d987fe2b498ddbae7dfa19519f65114156101d757731571ed0bed4d987fe2b498ddbae7dfa19519f6516001600160a01b031663853828b66040518163ffffffff1660e01b8152600401600060405180830381600087803b15801561014257600080fd5b505af1158015610156573d6000803e3d6000fd5b50506040516370a0823160e01b815230600482015273a0246c9032bc3a600820415ae600c6388619a14d94508492506370a082319150602401602060405180830381865afa1580156101ac573d6000803e3d6000fd5b505050506040513d601f19601f820116820180604052508101906101d09190610335565b905061023e565b60405162461bcd60e51b815260206004820152603260248201527f496e76616c696420746f6b656e20616464726573732070617373656420746f206044820152712430b93b32b9ba2634b8bab4b230ba37b91760711b606482015260840160405180910390fd5b935093915050565b634e487b7160e01b600052604160045260246000fd5b60008060006060848603121561027157600080fd5b83356001600160a01b038116811461028857600080fd5b925060208401359150604084013567ffffffffffffffff808211156102ac57600080fd5b818601915086601f8301126102c057600080fd5b8135818111156102d2576102d2610246565b604051601f8201601f19908116603f011681019083821181831017156102fa576102fa610246565b8160405282815289602084870101111561031357600080fd5b8260208601602083013760006020848301015280955050505050509250925092565b60006020828403121561034757600080fd5b505191905056fea164736f6c634300080a000a",
    "linkReferences": {}
  },
  "methodIdentifiers": {
    "FARM()": "b3a9992e",
    "IFARM()": "4eac22eb",
    "redeem(address,uint256,bytes)": "10badf4e"
  },
  "id": 141
}