{
  "abi": [
    {
      "inputs": [],
      "name": "SYNTHETIX",
      "outputs": [
        {
          "internalType": "contract ISynthetix",
          "name": "",
          "type": "address"
        }
      ],
      "stateMutability": "view",
      "type": "function"
    },
    {
      "inputs": [
        {
          "internalType": "contract IERC20Upgradeable",
          "name": "inputToken",
          "type": "address"
        },
        {
          "internalType": "uint256",
          "name": "inputAmount",
          "type": "uint256"
        },
        {
          "internalType": "bytes",
          "name": "strategyData",
          "type": "bytes"
        }
      ],
      "name": "redeem",
      "outputs": [
        {
          "internalType": "contract IERC20Upgradeable",
          "name": "outputToken",
          "type": "address"
        },
        {
          "internalType": "uint256",
          "name": "outputAmount",
          "type": "uint256"
        }
      ],
      "stateMutability": "nonpayable",
      "type": "function"
    }
  ],
  "bytecode": {
    "object": "0x608060405234801561001057600080fd5b5061049b806100206000396000f3fe608060405234801561001057600080fd5b50600436106100365760003560e01c806310badf4e1461003b5780637d1c307114610072575b600080fd5b61004e610049366004610384565b6100a5565b604080516001600160a01b0390931683526020830191909152015b60405180910390f35b61008d7397767d7d04fd0db0a1a2478dcd4ba85290556b4881565b6040516001600160a01b039091168152602001610069565b600080828060200190518101906100bc9190610451565b91506000856001600160a01b031663d4b839926040518163ffffffff1660e01b8152600401602060405180830381865afa1580156100fe573d6000803e3d6000fd5b505050506040513d601f19601f820116820180604052508101906101229190610451565b90506000836001600160a01b031663d4b839926040518163ffffffff1660e01b8152600401602060405180830381865afa158015610164573d6000803e3d6000fd5b505050506040513d601f19601f820116820180604052508101906101889190610451565b90507397767d7d04fd0db0a1a2478dcd4ba85290556b486001600160a01b031663ee52a2f3836001600160a01b031663dbd06c856040518163ffffffff1660e01b8152600401602060405180830381865afa1580156101eb573d6000803e3d6000fd5b505050506040513d601f19601f8201168201806040525081019061020f9190610475565b88846001600160a01b031663dbd06c856040518163ffffffff1660e01b8152600401602060405180830381865afa15801561024e573d6000803e3d6000fd5b505050506040513d601f19601f820116820180604052508101906102729190610475565b6040516001600160e01b031960e086901b1681526004810193909352602483019190915260448201526064016020604051808303816000875af11580156102bd573d6000803e3d6000fd5b505050506040513d601f19601f820116820180604052508101906102e19190610475565b506040516370a0823160e01b81523060048201526001600160a01b038516906370a0823190602401602060405180830381865afa158015610326573d6000803e3d6000fd5b505050506040513d601f19601f8201168201806040525081019061034a9190610475565b92505050935093915050565b6001600160a01b038116811461036b57600080fd5b50565b634e487b7160e01b600052604160045260246000fd5b60008060006060848603121561039957600080fd5b83356103a481610356565b925060208401359150604084013567ffffffffffffffff808211156103c857600080fd5b818601915086601f8301126103dc57600080fd5b8135818111156103ee576103ee61036e565b604051601f8201601f19908116603f011681019083821181831017156104165761041661036e565b8160405282815289602084870101111561042f57600080fd5b8260208601602083013760006020848301015280955050505050509250925092565b60006020828403121561046357600080fd5b815161046e81610356565b9392505050565b60006020828403121561048757600080fd5b505191905056fea164736f6c634300080a000a",
    "linkReferences": {}
  },
  "methodIdentifiers": {
    "SYNTHETIX()": "7d1c3071",
    "redeem(address,uint256,bytes)": "10badf4e"
  },
  "id": 149
}