{
  "abi": [
    {
      "inputs": [
        {
          "internalType": "contract FlywheelCore",
          "name": "_flywheel",
          "type": "address"
        },
        {
          "internalType": "uint32",
          "name": "_cycleLength",
          "type": "uint32"
        }
      ],
      "stateMutability": "nonpayable",
      "type": "constructor"
    },
    {
      "inputs": [],
      "name": "FlywheelError",
      "type": "error"
    },
    {
      "anonymous": false,
      "inputs": [
        {
          "indexed": true,
          "internalType": "uint32",
          "name": "start",
          "type": "uint32"
        },
        {
          "indexed": true,
          "internalType": "uint32",
          "name": "end",
          "type": "uint32"
        },
        {
          "indexed": false,
          "internalType": "uint192",
          "name": "reward",
          "type": "uint192"
        }
      ],
      "name": "NewRewardsCycle",
      "type": "event"
    },
    {
      "inputs": [],
      "name": "flywheel",
      "outputs": [
        {
          "internalType": "contract FlywheelCore",
          "name": "",
          "type": "address"
        }
      ],
      "stateMutability": "view",
      "type": "function"
    },
    {
      "inputs": [
        {
          "internalType": "contract ERC20",
          "name": "strategy",
          "type": "address"
        },
        {
          "internalType": "uint32",
          "name": "lastUpdatedTimestamp",
          "type": "uint32"
        }
      ],
      "name": "getAccruedRewards",
      "outputs": [
        {
          "internalType": "uint256",
          "name": "amount",
          "type": "uint256"
        }
      ],
      "stateMutability": "nonpayable",
      "type": "function"
    },
    {
      "inputs": [],
      "name": "rewardToken",
      "outputs": [
        {
          "internalType": "contract ERC20",
          "name": "",
          "type": "address"
        }
      ],
      "stateMutability": "view",
      "type": "function"
    },
    {
      "inputs": [
        {
          "internalType": "contract ERC20",
          "name": "",
          "type": "address"
        }
      ],
      "name": "rewardsCycle",
      "outputs": [
        {
          "internalType": "uint32",
          "name": "start",
          "type": "uint32"
        },
        {
          "internalType": "uint32",
          "name": "end",
          "type": "uint32"
        },
        {
          "internalType": "uint192",
          "name": "reward",
          "type": "uint192"
        }
      ],
      "stateMutability": "view",
      "type": "function"
    },
    {
      "inputs": [],
      "name": "rewardsCycleLength",
      "outputs": [
        {
          "internalType": "uint32",
          "name": "",
          "type": "uint32"
        }
      ],
      "stateMutability": "view",
      "type": "function"
    }
  ],
  "bytecode": {
    "object": "0x60e060405234801561001057600080fd5b50604051610a8e380380610a8e83398101604081905261002f91610187565b818181806001600160a01b031660a0816001600160a01b0316815250506000816001600160a01b031663f7c618c16040518163ffffffff1660e01b8152600401602060405180830381865afa15801561008c573d6000803e3d6000fd5b505050506040513d601f19601f820116820180604052508101906100b091906101ca565b6001600160a01b03811660808190529091506100da90836000196100ee602090811b6104a017901c565b505063ffffffff1660c052506101ee915050565b600060405163095ea7b360e01b8152836004820152826024820152602060006044836000895af13d15601f3d11600160005114161716915050806101695760405162461bcd60e51b815260206004820152600e60248201526d1054141493d59157d1905253115160921b604482015260640160405180910390fd5b50505050565b6001600160a01b038116811461018457600080fd5b50565b6000806040838503121561019a57600080fd5b82516101a58161016f565b602084015190925063ffffffff811681146101bf57600080fd5b809150509250929050565b6000602082840312156101dc57600080fd5b81516101e78161016f565b9392505050565b60805160a05160c051610857610237600039600081816061015261032001526000818160a201526101a20152600081816101020152818161055d01526105dd01526108576000f3fe608060405234801561001057600080fd5b50600436106100575760003560e01c80636fcf5e5f1461005c5780637acf5b921461009d578063b334db7b146100dc578063f7c618c1146100fd578063faa6c3c814610124575b600080fd5b6100837f000000000000000000000000000000000000000000000000000000000000000081565b60405163ffffffff90911681526020015b60405180910390f35b6100c47f000000000000000000000000000000000000000000000000000000000000000081565b6040516001600160a01b039091168152602001610094565b6100ef6100ea3660046106b1565b610195565b604051908152602001610094565b6100c47f000000000000000000000000000000000000000000000000000000000000000081565b6101696101323660046106f1565b60006020819052908152604090205463ffffffff80821691640100000000810490911690600160401b90046001600160c01b031683565b6040805163ffffffff94851681529390921660208401526001600160c01b031690820152606001610094565b6000336001600160a01b037f000000000000000000000000000000000000000000000000000000000000000016146101e05760405163739e221160e01b815260040160405180910390fd5b6001600160a01b0383166000908152602081815260408083208151606081018352905463ffffffff808216835264010000000082041693820193909352600160401b9092046001600160c01b0316908201529061023c42610522565b90506000826020015163ffffffff168263ffffffff16101561025e5781610264565b82602001515b90506000836000015163ffffffff168663ffffffff1611156102865785610289565b83515b9050836020015163ffffffff1660001461030557835160208501516102ae9190610729565b63ffffffff166102be8284610729565b63ffffffff1685604001516102d3919061074e565b6102dd9190610793565b6001600160c01b0316945083604001516001600160c01b0316851115610305576103056107b9565b836020015163ffffffff168363ffffffff16106104965760007f00000000000000000000000000000000000000000000000000000000000000008061034a81876107cf565b61035491906107f7565b61035e919061080e565b9050600061036b89610539565b905060405180606001604052808663ffffffff1681526020018363ffffffff168152602001826001600160c01b03168152506000808b6001600160a01b03166001600160a01b0316815260200190815260200160002060008201518160000160006101000a81548163ffffffff021916908363ffffffff16021790555060208201518160000160046101000a81548163ffffffff021916908363ffffffff16021790555060408201518160000160086101000a8154816001600160c01b0302191690836001600160c01b031602179055509050508163ffffffff168563ffffffff167f2bc72eed7f7ea7cb3bf6969b33e204748849532a1f8e4ca68ba1bc97c4cf2e008360405161048b91906001600160c01b0391909116815260200190565b60405180910390a350505b5050505092915050565b600060405163095ea7b360e01b8152836004820152826024820152602060006044836000895af13d15601f3d116001600051141617169150508061051c5760405162461bcd60e51b815260206004820152600e60248201526d1054141493d59157d1905253115160921b60448201526064015b60405180910390fd5b50505050565b6000640100000000821061053557600080fd5b5090565b6040516370a0823160e01b81526001600160a01b03828116600483015260009182917f000000000000000000000000000000000000000000000000000000000000000016906370a0823190602401602060405180830381865afa1580156105a4573d6000803e3d6000fd5b505050506040513d601f19601f820116820180604052508101906105c89190610831565b90508015610605576106056001600160a01b037f00000000000000000000000000000000000000000000000000000000000000001684308461060b565b92915050565b60006040516323b872dd60e01b81528460048201528360248201528260448201526020600060648360008a5af13d15601f3d116001600051141617169150508061068e5760405162461bcd60e51b81526020600482015260146024820152731514905394d1915497d19493d357d1905253115160621b6044820152606401610513565b5050505050565b80356001600160a01b03811681146106ac57600080fd5b919050565b600080604083850312156106c457600080fd5b6106cd83610695565b9150602083013563ffffffff811681146106e657600080fd5b809150509250929050565b60006020828403121561070357600080fd5b61070c82610695565b9392505050565b634e487b7160e01b600052601160045260246000fd5b600063ffffffff8381169083168181101561074657610746610713565b039392505050565b60006001600160c01b038281168482168115158284048211161561077457610774610713565b02949350505050565b634e487b7160e01b600052601260045260246000fd5b60006001600160c01b03838116806107ad576107ad61077d565b92169190910492915050565b634e487b7160e01b600052600160045260246000fd5b600063ffffffff8083168185168083038211156107ee576107ee610713565b01949350505050565b600063ffffffff808416806107ad576107ad61077d565b600063ffffffff8083168185168183048111821515161561077457610774610713565b60006020828403121561084357600080fd5b505191905056fea164736f6c634300080a000a",
    "linkReferences": {}
  },
  "methodIdentifiers": {
    "flywheel()": "7acf5b92",
    "getAccruedRewards(address,uint32)": "b334db7b",
    "rewardToken()": "f7c618c1",
    "rewardsCycle(address)": "faa6c3c8",
    "rewardsCycleLength()": "6fcf5e5f"
  },
  "id": 257
}