{
  "abi": [
    {
      "inputs": [
        {
          "internalType": "bool",
          "name": "sushiSwap",
          "type": "bool"
        }
      ],
      "stateMutability": "nonpayable",
      "type": "constructor"
    },
    {
      "inputs": [],
      "name": "MAX_TWAP_TIME",
      "outputs": [
        {
          "internalType": "uint256",
          "name": "",
          "type": "uint256"
        }
      ],
      "stateMutability": "view",
      "type": "function"
    },
    {
      "inputs": [],
      "name": "MIN_TWAP_TIME",
      "outputs": [
        {
          "internalType": "uint256",
          "name": "",
          "type": "uint256"
        }
      ],
      "stateMutability": "view",
      "type": "function"
    },
    {
      "inputs": [],
      "name": "WETH_ADDRESS",
      "outputs": [
        {
          "internalType": "address",
          "name": "",
          "type": "address"
        }
      ],
      "stateMutability": "view",
      "type": "function"
    },
    {
      "inputs": [
        {
          "internalType": "contract ICToken",
          "name": "cToken",
          "type": "address"
        }
      ],
      "name": "getUnderlyingPrice",
      "outputs": [
        {
          "internalType": "uint256",
          "name": "",
          "type": "uint256"
        }
      ],
      "stateMutability": "view",
      "type": "function"
    },
    {
      "inputs": [
        {
          "internalType": "address",
          "name": "underlying",
          "type": "address"
        }
      ],
      "name": "price",
      "outputs": [
        {
          "internalType": "uint256",
          "name": "",
          "type": "uint256"
        }
      ],
      "stateMutability": "view",
      "type": "function"
    },
    {
      "inputs": [],
      "name": "rootOracle",
      "outputs": [
        {
          "internalType": "contract Keep3rV1Oracle",
          "name": "",
          "type": "address"
        }
      ],
      "stateMutability": "view",
      "type": "function"
    },
    {
      "inputs": [],
      "name": "uniswapV2Factory",
      "outputs": [
        {
          "internalType": "contract IUniswapV2Factory",
          "name": "",
          "type": "address"
        }
      ],
      "stateMutability": "view",
      "type": "function"
    }
  ],
  "bytecode": {
    "object": "0x60c060405234801561001057600080fd5b5060405161118f38038061118f83398101604081905261002f916100f8565b600081610050577373353801921417f465377c8d898c6f4c0270282c610066565b73f67ab1c914dee06ba0f264031885ea7b276a7cda5b9050806001600160a01b03166080816001600160a01b031681525050806001600160a01b031663c45a01556040518163ffffffff1660e01b8152600401602060405180830381865afa1580156100c0573d6000803e3d6000fd5b505050506040513d601f19601f820116820180604052508101906100e49190610121565b6001600160a01b031660a0525061014a9050565b60006020828403121561010a57600080fd5b8151801515811461011a57600080fd5b9392505050565b60006020828403121561013357600080fd5b81516001600160a01b038116811461011a57600080fd5b60805160a051610ff061019f6000396000818160d60152610351015260008181610119015281816104b20152818161057b01528181610687015281816107db0152818161089f01526109aa0152610ff06000f3fe608060405234801561001057600080fd5b506004361061007d5760003560e01c8063aea910781161005b578063aea91078146100f8578063af8a9ba51461010b578063e3cb23a514610114578063fc57d4df1461013b57600080fd5b8063040141e51461008257806309cd510e146100ba57806359d0f713146100d1575b600080fd5b61009d73c02aaa39b223fe8d0a0e5c4f27ead9083c756cc281565b6040516001600160a01b0390911681526020015b60405180910390f35b6100c3610e1081565b6040519081526020016100b1565b61009d7f000000000000000000000000000000000000000000000000000000000000000081565b6100c3610106366004610d0d565b61014e565b6100c361038481565b61009d7f000000000000000000000000000000000000000000000000000000000000000081565b6100c3610149366004610d0d565b61015f565b6000610159826102df565b92915050565b6000816001600160a01b031663ac784ddc6040518163ffffffff1660e01b8152600401602060405180830381865afa15801561019f573d6000803e3d6000fd5b505050506040513d601f19601f820116820180604052508101906101c39190610d31565b156101d75750670de0b6b3a7640000919050565b6000826001600160a01b0316636f307dc36040518163ffffffff1660e01b8152600401602060405180830381865afa158015610217573d6000803e3d6000fd5b505050506040513d601f19601f8201168201806040525081019061023b9190610d53565b90506000816001600160a01b031663313ce5676040518163ffffffff1660e01b8152600401602060405180830381865afa15801561027d573d6000803e3d6000fd5b505050506040513d601f19601f820116820180604052508101906102a19190610d70565b6102af9060ff16600a610e8d565b9050806102bb836102df565b6102cd90670de0b6b3a7640000610e99565b6102d79190610ece565b949350505050565b60006001600160a01b03821673c02aaa39b223fe8d0a0e5c4f27ead9083c756cc214156103155750670de0b6b3a7640000919050565b60405163e6a4390560e01b81526001600160a01b03838116600483015273c02aaa39b223fe8d0a0e5c4f27ead9083c756cc260248301526000917f00000000000000000000000000000000000000000000000000000000000000009091169063e6a4390590604401602060405180830381865afa15801561039a573d6000803e3d6000fd5b505050506040513d601f19601f820116820180604052508101906103be9190610d53565b90506000836001600160a01b031663313ce5676040518163ffffffff1660e01b8152600401602060405180830381865afa158015610400573d6000803e3d6000fd5b505050506040513d601f19601f820116820180604052508101906104249190610d70565b6104329060ff16600a610e8d565b9050670100000000000000818173c02aaa39b223fe8d0a0e5c4f27ead9083c756cc26001600160a01b038816106104715761046c8561048e565b61047a565b61047a856107b7565b6104849190610ece565b6102cd9190610e99565b6040516381bfb88560e01b81526001600160a01b03828116600483015260009182917f000000000000000000000000000000000000000000000000000000000000000016906381bfb88590602401602060405180830381865afa1580156104f9573d6000803e3d6000fd5b505050506040513d601f19601f8201168201806040525081019061051d9190610ef0565b90506000811161056e5760405162461bcd60e51b81526020600482015260176024820152763737903632b733ba3416989037b139b2b93b30ba34b7b760491b60448201526064015b60405180910390fd5b6000806001600160a01b037f0000000000000000000000000000000000000000000000000000000000000000166302459966866105ac600187610f09565b6040516001600160e01b031960e085901b1681526001600160a01b0390921660048301526024820152604401606060405180830381865afa1580156105f5573d6000803e3d6000fd5b505050506040513d601f19601f820116820180604052508101906106199190610f20565b92505091506103844261062c9190610f09565b82111561072d576001831161067d5760405162461bcd60e51b81526020600482015260176024820152763737903632b733ba3416991037b139b2b93b30ba34b7b760491b6044820152606401610565565b6001600160a01b037f0000000000000000000000000000000000000000000000000000000000000000166302459966866106b8600287610f09565b6040516001600160e01b031960e085901b1681526001600160a01b0390921660048301526024820152604401606060405180830381865afa158015610701573d6000803e3d6000fd5b505050506040513d601f19601f820116820180604052508101906107259190610f20565b919350909150505b60006107398342610f09565b9050610384811015801561074f5750610e108111155b61078b5760405162461bcd60e51b815260206004820152600d60248201526c62616420545741502074696d6560981b6044820152606401610565565b600061079687610ab8565b9050834203838203816107ab576107ab610eb8565b04979650505050505050565b6040516381bfb88560e01b81526001600160a01b03828116600483015260009182917f000000000000000000000000000000000000000000000000000000000000000016906381bfb88590602401602060405180830381865afa158015610822573d6000803e3d6000fd5b505050506040513d601f19601f820116820180604052508101906108469190610ef0565b9050600081116108925760405162461bcd60e51b81526020600482015260176024820152763737903632b733ba3416989037b139b2b93b30ba34b7b760491b6044820152606401610565565b6000806001600160a01b037f0000000000000000000000000000000000000000000000000000000000000000166302459966866108d0600187610f09565b6040516001600160e01b031960e085901b1681526001600160a01b0390921660048301526024820152604401606060405180830381865afa158015610919573d6000803e3d6000fd5b505050506040513d601f19601f8201168201806040525081019061093d9190610f20565b50909250905061094f61038442610f09565b821115610a4f57600183116109a05760405162461bcd60e51b81526020600482015260176024820152763737903632b733ba3416991037b139b2b93b30ba34b7b760491b6044820152606401610565565b6001600160a01b037f0000000000000000000000000000000000000000000000000000000000000000166302459966866109db600287610f09565b6040516001600160e01b031960e085901b1681526001600160a01b0390921660048301526024820152604401606060405180830381865afa158015610a24573d6000803e3d6000fd5b505050506040513d601f19601f82011682018060405250810190610a489190610f20565b5090925090505b6000610a5b8342610f09565b90506103848110158015610a715750610e108111155b610aad5760405162461bcd60e51b815260206004820152600d60248201526c62616420545741502074696d6560981b6044820152606401610565565b600061079687610be2565b600080429050826001600160a01b0316635a3d54936040518163ffffffff1660e01b8152600401602060405180830381865afa158015610afc573d6000803e3d6000fd5b505050506040513d601f19601f82011682018060405250810190610b209190610ef0565b91506000806000856001600160a01b0316630902f1ac6040518163ffffffff1660e01b8152600401606060405180830381865afa158015610b65573d6000803e3d6000fd5b505050506040513d601f19601f82011682018060405250810190610b899190610f6a565b92506001600160701b031692506001600160701b031692508363ffffffff168163ffffffff1614610bd95780840363ffffffff811683607086901b81610bd157610bd1610eb8565b040286019550505b50505050919050565b600080429050826001600160a01b0316635909c0d56040518163ffffffff1660e01b8152600401602060405180830381865afa158015610c26573d6000803e3d6000fd5b505050506040513d601f19601f82011682018060405250810190610c4a9190610ef0565b91506000806000856001600160a01b0316630902f1ac6040518163ffffffff1660e01b8152600401606060405180830381865afa158015610c8f573d6000803e3d6000fd5b505050506040513d601f19601f82011682018060405250810190610cb39190610f6a565b92506001600160701b031692506001600160701b03169250428163ffffffff1614610bd95780840363ffffffff811684607085901b81610bd157610bd1610eb8565b6001600160a01b0381168114610d0a57600080fd5b50565b600060208284031215610d1f57600080fd5b8135610d2a81610cf5565b9392505050565b600060208284031215610d4357600080fd5b81518015158114610d2a57600080fd5b600060208284031215610d6557600080fd5b8151610d2a81610cf5565b600060208284031215610d8257600080fd5b815160ff81168114610d2a57600080fd5b634e487b7160e01b600052601160045260246000fd5b600181815b80851115610de4578160001904821115610dca57610dca610d93565b80851615610dd757918102915b93841c9390800290610dae565b509250929050565b600082610dfb57506001610159565b81610e0857506000610159565b8160018114610e1e5760028114610e2857610e44565b6001915050610159565b60ff841115610e3957610e39610d93565b50506001821b610159565b5060208310610133831016604e8410600b8410161715610e67575081810a610159565b610e718383610da9565b8060001904821115610e8557610e85610d93565b029392505050565b6000610d2a8383610dec565b6000816000190483118215151615610eb357610eb3610d93565b500290565b634e487b7160e01b600052601260045260246000fd5b600082610eeb57634e487b7160e01b600052601260045260246000fd5b500490565b600060208284031215610f0257600080fd5b5051919050565b600082821015610f1b57610f1b610d93565b500390565b600080600060608486031215610f3557600080fd5b8351925060208401519150604084015190509250925092565b80516001600160701b0381168114610f6557600080fd5b919050565b600080600060608486031215610f7f57600080fd5b610f8884610f4e565b9250610f9660208501610f4e565b9150604084015163ffffffff81168114610faf57600080fd5b80915050925092509256fea2646970667358221220131c69ea8b3b3471a15edcf34b498661eb6bfd8eb02ebdce82a6b5d4d8f30bce64736f6c634300080a0033",
    "linkReferences": {}
  }
}