{
  "abi": [
    {
      "anonymous": false,
      "inputs": [
        {
          "indexed": false,
          "internalType": "uint8",
          "name": "version",
          "type": "uint8"
        }
      ],
      "name": "Initialized",
      "type": "event"
    },
    {
      "inputs": [],
      "name": "baseToken",
      "outputs": [
        {
          "internalType": "address",
          "name": "",
          "type": "address"
        }
      ],
      "stateMutability": "view",
      "type": "function"
    },
    {
      "inputs": [
        {
          "internalType": "contract ICToken",
          "name": "cToken",
          "type": "address"
        }
      ],
      "name": "getUnderlyingPrice",
      "outputs": [
        {
          "internalType": "uint256",
          "name": "",
          "type": "uint256"
        }
      ],
      "stateMutability": "view",
      "type": "function"
    },
    {
      "inputs": [
        {
          "internalType": "address",
          "name": "_rootOracle",
          "type": "address"
        },
        {
          "internalType": "address",
          "name": "_uniswapV2Factory",
          "type": "address"
        },
        {
          "internalType": "address",
          "name": "_baseToken",
          "type": "address"
        },
        {
          "internalType": "address",
          "name": "_wtoken",
          "type": "address"
        }
      ],
      "name": "initialize",
      "outputs": [],
      "stateMutability": "nonpayable",
      "type": "function"
    },
    {
      "inputs": [
        {
          "internalType": "address",
          "name": "underlying",
          "type": "address"
        }
      ],
      "name": "price",
      "outputs": [
        {
          "internalType": "uint256",
          "name": "",
          "type": "uint256"
        }
      ],
      "stateMutability": "view",
      "type": "function"
    },
    {
      "inputs": [],
      "name": "rootOracle",
      "outputs": [
        {
          "internalType": "contract UniswapTwapPriceOracleV2Root",
          "name": "",
          "type": "address"
        }
      ],
      "stateMutability": "view",
      "type": "function"
    },
    {
      "inputs": [],
      "name": "uniswapV2Factory",
      "outputs": [
        {
          "internalType": "address",
          "name": "",
          "type": "address"
        }
      ],
      "stateMutability": "view",
      "type": "function"
    },
    {
      "inputs": [],
      "name": "wtoken",
      "outputs": [
        {
          "internalType": "address",
          "name": "",
          "type": "address"
        }
      ],
      "stateMutability": "view",
      "type": "function"
    }
  ],
  "bytecode": {
    "object": "0x608060405234801561001057600080fd5b506109d0806100206000396000f3fe608060405234801561001057600080fd5b506004361061007d5760003560e01c8063c55dae631161005b578063c55dae63146100ec578063e3cb23a5146100ff578063f8c8765e14610112578063fc57d4df1461012757600080fd5b806359d0f713146100825780639c0591c8146100b2578063aea91078146100cb575b600080fd5b600254610095906001600160a01b031681565b6040516001600160a01b0390911681526020015b60405180910390f35b600054610095906201000090046001600160a01b031681565b6100de6100d9366004610711565b61013a565b6040519081526020016100a9565b600354610095906001600160a01b031681565b600154610095906001600160a01b031681565b61012561012036600461072e565b61014b565b005b6100de610135366004610711565b610309565b600061014582610489565b92915050565b60006101576001610671565b9050801561016f576000805461ff0019166101001790555b6001600160a01b0385166101dc5760405162461bcd60e51b815260206004820152602960248201527f556e69737761705477617050726963654f7261636c655632526f6f74206e6f74604482015268103232b334b732b21760b91b60648201526084015b60405180910390fd5b6001600160a01b0384166102325760405162461bcd60e51b815260206004820152601d60248201527f556e69737761705632466163746f7279206e6f7420646566696e65642e00000060448201526064016101d3565b600180546001600160a01b03199081166001600160a01b0388811691909117909255600280549091168683161790556000805462010000600160b01b0319166201000085841602179055831615610289578261029c565b6000546201000090046001600160a01b03165b600380546001600160a01b0319166001600160a01b03929092169190911790558015610302576000805461ff0019169055604051600181527f7f26b83ff96e1f2b6a682f133852f6798a09c465da95921460cefb38474024989060200160405180910390a15b5050505050565b6000816001600160a01b031663ac784ddc6040518163ffffffff1660e01b8152600401602060405180830381865afa158015610349573d6000803e3d6000fd5b505050506040513d601f19601f8201168201806040525081019061036d919061078a565b156103815750670de0b6b3a7640000919050565b6000826001600160a01b0316636f307dc36040518163ffffffff1660e01b8152600401602060405180830381865afa1580156103c1573d6000803e3d6000fd5b505050506040513d601f19601f820116820180604052508101906103e591906107ac565b90506000816001600160a01b031663313ce5676040518163ffffffff1660e01b8152600401602060405180830381865afa158015610427573d6000803e3d6000fd5b505050506040513d601f19601f8201168201806040525081019061044b91906107c9565b6104599060ff16600a6108e6565b90508061046583610489565b61047790670de0b6b3a76400006108f2565b6104819190610911565b949350505050565b600080546001600160a01b03838116620100009092041614156104b55750670de0b6b3a7640000919050565b60015460035460025460405163b9b2e68f60e01b81526001600160a01b03868116600483015292831660248201529082166044820152600092919091169063b9b2e68f90606401602060405180830381865afa158015610519573d6000803e3d6000fd5b505050506040513d601f19601f8201168201806040525081019061053d9190610933565b6000546003549192506201000090046001600160a01b0390811691161461066857600360009054906101000a90046001600160a01b03166001600160a01b031663313ce5676040518163ffffffff1660e01b8152600401602060405180830381865afa1580156105b1573d6000803e3d6000fd5b505050506040513d601f19601f820116820180604052508101906105d591906107c9565b6105e39060ff16600a6108e6565b6003546040516315d5220f60e31b81526001600160a01b039091166004820152339063aea9107890602401602060405180830381865afa15801561062b573d6000803e3d6000fd5b505050506040513d601f19601f8201168201806040525081019061064f9190610933565b61065990836108f2565b6106639190610911565b61066a565b805b9392505050565b60008054610100900460ff16156106b8578160ff1660011480156106945750303b155b6106b05760405162461bcd60e51b81526004016101d39061094c565b506000919050565b60005460ff8084169116106106df5760405162461bcd60e51b81526004016101d39061094c565b506000805460ff191660ff92909216919091179055600190565b6001600160a01b038116811461070e57600080fd5b50565b60006020828403121561072357600080fd5b813561066a816106f9565b6000806000806080858703121561074457600080fd5b843561074f816106f9565b9350602085013561075f816106f9565b9250604085013561076f816106f9565b9150606085013561077f816106f9565b939692955090935050565b60006020828403121561079c57600080fd5b8151801515811461066a57600080fd5b6000602082840312156107be57600080fd5b815161066a816106f9565b6000602082840312156107db57600080fd5b815160ff8116811461066a57600080fd5b634e487b7160e01b600052601160045260246000fd5b600181815b8085111561083d578160001904821115610823576108236107ec565b8085161561083057918102915b93841c9390800290610807565b509250929050565b60008261085457506001610145565b8161086157506000610145565b816001811461087757600281146108815761089d565b6001915050610145565b60ff841115610892576108926107ec565b50506001821b610145565b5060208310610133831016604e8410600b84101617156108c0575081810a610145565b6108ca8383610802565b80600019048211156108de576108de6107ec565b029392505050565b600061066a8383610845565b600081600019048311821515161561090c5761090c6107ec565b500290565b60008261092e57634e487b7160e01b600052601260045260246000fd5b500490565b60006020828403121561094557600080fd5b5051919050565b6020808252602e908201527f496e697469616c697a61626c653a20636f6e747261637420697320616c72656160408201526d191e481a5b9a5d1a585b1a5e995960921b60608201526080019056fea2646970667358221220db1f239eb25e340ddd2930182b56010b39323ffa226af7782f155af28b3d93de64736f6c634300080a0033",
    "linkReferences": {}
  }
}