{
  "abi": [
    {
      "anonymous": false,
      "inputs": [
        {
          "indexed": false,
          "internalType": "uint8",
          "name": "version",
          "type": "uint8"
        }
      ],
      "name": "Initialized",
      "type": "event"
    },
    {
      "inputs": [],
      "name": "BTC_TOKEN",
      "outputs": [
        {
          "internalType": "address",
          "name": "",
          "type": "address"
        }
      ],
      "stateMutability": "view",
      "type": "function"
    },
    {
      "inputs": [],
      "name": "STABLE_TOKEN",
      "outputs": [
        {
          "internalType": "address",
          "name": "",
          "type": "address"
        }
      ],
      "stateMutability": "view",
      "type": "function"
    },
    {
      "inputs": [],
      "name": "UNISWAP_V2_ROUTER_02",
      "outputs": [
        {
          "internalType": "contract IUniswapV2Router02",
          "name": "",
          "type": "address"
        }
      ],
      "stateMutability": "view",
      "type": "function"
    },
    {
      "inputs": [],
      "name": "UNISWAP_V2_ROUTER_02_ADDRESS",
      "outputs": [
        {
          "internalType": "address",
          "name": "",
          "type": "address"
        }
      ],
      "stateMutability": "view",
      "type": "function"
    },
    {
      "inputs": [],
      "name": "W_NATIVE",
      "outputs": [
        {
          "internalType": "contract IW_NATIVE",
          "name": "",
          "type": "address"
        }
      ],
      "stateMutability": "view",
      "type": "function"
    },
    {
      "inputs": [],
      "name": "W_NATIVE_ADDRESS",
      "outputs": [
        {
          "internalType": "address",
          "name": "",
          "type": "address"
        }
      ],
      "stateMutability": "view",
      "type": "function"
    },
    {
      "inputs": [
        {
          "internalType": "address",
          "name": "_wtoken",
          "type": "address"
        },
        {
          "internalType": "address",
          "name": "_uniswapV2router",
          "type": "address"
        },
        {
          "internalType": "address",
          "name": "_stableToken",
          "type": "address"
        },
        {
          "internalType": "address",
          "name": "_btcToken",
          "type": "address"
        },
        {
          "internalType": "bytes",
          "name": "_uniswapPairInitHashCode",
          "type": "bytes"
        }
      ],
      "name": "initialize",
      "outputs": [],
      "stateMutability": "nonpayable",
      "type": "function"
    },
    {
      "inputs": [
        {
          "internalType": "address",
          "name": "sender",
          "type": "address"
        },
        {
          "internalType": "uint256",
          "name": "amount0",
          "type": "uint256"
        },
        {
          "internalType": "uint256",
          "name": "amount1",
          "type": "uint256"
        },
        {
          "internalType": "bytes",
          "name": "data",
          "type": "bytes"
        }
      ],
      "name": "pancakeCall",
      "outputs": [],
      "stateMutability": "nonpayable",
      "type": "function"
    },
    {
      "inputs": [
        {
          "internalType": "contract IERC20Upgradeable",
          "name": "underlyingCollateral",
          "type": "address"
        },
        {
          "internalType": "uint256",
          "name": "underlyingCollateralSeized",
          "type": "uint256"
        },
        {
          "internalType": "contract IRedemptionStrategy",
          "name": "strategy",
          "type": "address"
        },
        {
          "internalType": "bytes",
          "name": "strategyData",
          "type": "bytes"
        }
      ],
      "name": "redeemCustomCollateral",
      "outputs": [
        {
          "internalType": "contract IERC20Upgradeable",
          "name": "",
          "type": "address"
        },
        {
          "internalType": "uint256",
          "name": "",
          "type": "uint256"
        }
      ],
      "stateMutability": "nonpayable",
      "type": "function"
    },
    {
      "inputs": [
        {
          "internalType": "address",
          "name": "borrower",
          "type": "address"
        },
        {
          "internalType": "contract ICEther",
          "name": "cEther",
          "type": "address"
        },
        {
          "internalType": "contract ICErc20",
          "name": "cErc20Collateral",
          "type": "address"
        },
        {
          "internalType": "uint256",
          "name": "minOutputAmount",
          "type": "uint256"
        },
        {
          "internalType": "address",
          "name": "exchangeSeizedTo",
          "type": "address"
        },
        {
          "internalType": "contract IUniswapV2Router02",
          "name": "uniswapV2Router",
          "type": "address"
        },
        {
          "internalType": "contract IRedemptionStrategy[]",
          "name": "redemptionStrategies",
          "type": "address[]"
        },
        {
          "internalType": "bytes[]",
          "name": "strategyData",
          "type": "bytes[]"
        }
      ],
      "name": "safeLiquidate",
      "outputs": [
        {
          "internalType": "uint256",
          "name": "",
          "type": "uint256"
        }
      ],
      "stateMutability": "payable",
      "type": "function"
    },
    {
      "inputs": [
        {
          "internalType": "address",
          "name": "borrower",
          "type": "address"
        },
        {
          "internalType": "uint256",
          "name": "repayAmount",
          "type": "uint256"
        },
        {
          "internalType": "contract ICErc20",
          "name": "cErc20",
          "type": "address"
        },
        {
          "internalType": "contract ICToken",
          "name": "cTokenCollateral",
          "type": "address"
        },
        {
          "internalType": "uint256",
          "name": "minOutputAmount",
          "type": "uint256"
        },
        {
          "internalType": "address",
          "name": "exchangeSeizedTo",
          "type": "address"
        },
        {
          "internalType": "contract IUniswapV2Router02",
          "name": "uniswapV2Router",
          "type": "address"
        },
        {
          "internalType": "contract IRedemptionStrategy[]",
          "name": "redemptionStrategies",
          "type": "address[]"
        },
        {
          "internalType": "bytes[]",
          "name": "strategyData",
          "type": "bytes[]"
        }
      ],
      "name": "safeLiquidate",
      "outputs": [
        {
          "internalType": "uint256",
          "name": "",
          "type": "uint256"
        }
      ],
      "stateMutability": "nonpayable",
      "type": "function"
    },
    {
      "inputs": [
        {
          "internalType": "address",
          "name": "borrower",
          "type": "address"
        },
        {
          "internalType": "uint256",
          "name": "repayAmount",
          "type": "uint256"
        },
        {
          "internalType": "contract ICEther",
          "name": "cEther",
          "type": "address"
        },
        {
          "internalType": "contract ICErc20",
          "name": "cErc20Collateral",
          "type": "address"
        },
        {
          "internalType": "uint256",
          "name": "minProfitAmount",
          "type": "uint256"
        },
        {
          "internalType": "address",
          "name": "exchangeProfitTo",
          "type": "address"
        },
        {
          "internalType": "contract IUniswapV2Router02",
          "name": "uniswapV2RouterForCollateral",
          "type": "address"
        },
        {
          "internalType": "contract IRedemptionStrategy[]",
          "name": "redemptionStrategies",
          "type": "address[]"
        },
        {
          "internalType": "bytes[]",
          "name": "strategyData",
          "type": "bytes[]"
        },
        {
          "internalType": "uint256",
          "name": "ethToCoinbase",
          "type": "uint256"
        }
      ],
      "name": "safeLiquidateToEthWithFlashLoan",
      "outputs": [
        {
          "internalType": "uint256",
          "name": "",
          "type": "uint256"
        }
      ],
      "stateMutability": "nonpayable",
      "type": "function"
    },
    {
      "inputs": [
        {
          "internalType": "address",
          "name": "borrower",
          "type": "address"
        },
        {
          "internalType": "uint256",
          "name": "repayAmount",
          "type": "uint256"
        },
        {
          "internalType": "contract ICErc20",
          "name": "cErc20",
          "type": "address"
        },
        {
          "internalType": "contract ICToken",
          "name": "cTokenCollateral",
          "type": "address"
        },
        {
          "internalType": "uint256",
          "name": "minProfitAmount",
          "type": "uint256"
        },
        {
          "internalType": "address",
          "name": "exchangeProfitTo",
          "type": "address"
        },
        {
          "internalType": "contract IUniswapV2Router02",
          "name": "uniswapV2RouterForBorrow",
          "type": "address"
        },
        {
          "internalType": "contract IUniswapV2Router02",
          "name": "uniswapV2RouterForCollateral",
          "type": "address"
        },
        {
          "internalType": "contract IRedemptionStrategy[]",
          "name": "redemptionStrategies",
          "type": "address[]"
        },
        {
          "internalType": "bytes[]",
          "name": "strategyData",
          "type": "bytes[]"
        },
        {
          "internalType": "uint256",
          "name": "ethToCoinbase",
          "type": "uint256"
        }
      ],
      "name": "safeLiquidateToTokensWithFlashLoan",
      "outputs": [
        {
          "internalType": "uint256",
          "name": "",
          "type": "uint256"
        }
      ],
      "stateMutability": "nonpayable",
      "type": "function"
    },
    {
      "inputs": [
        {
          "internalType": "address",
          "name": "sender",
          "type": "address"
        },
        {
          "internalType": "uint256",
          "name": "amount0",
          "type": "uint256"
        },
        {
          "internalType": "uint256",
          "name": "amount1",
          "type": "uint256"
        },
        {
          "internalType": "bytes",
          "name": "data",
          "type": "bytes"
        }
      ],
      "name": "uniswapV2Call",
      "outputs": [],
      "stateMutability": "nonpayable",
      "type": "function"
    },
    {
      "stateMutability": "payable",
      "type": "receive"
    }
  ],
  "bytecode": {
    "object": "0x608060405234801561001057600080fd5b5061532c806100206000396000f3fe6080604052600436106100e15760003560e01c8063848008121161007f578063b596625811610059578063b5966258146102a4578063b798d3ff146102e3578063ba8bca5a14610303578063c8348b541461032357600080fd5b80638480081214610244578063a68ee11914610264578063a94c12bc1461028457600080fd5b8063700d5dd7116100bb578063700d5dd7146101a65780637754f887146101c6578063789fc9ad146101fe57806381738f131461021e57600080fd5b80630d1b27631461014057806310d1e85c146101665780634a9364171461018657600080fd5b3661013b57333b6101395760405162461bcd60e51b815260206004820152601960248201527f53656e646572206973206e6f74206120636f6e74726163742e0000000000000060448201526064015b60405180910390fd5b005b600080fd5b61015361014e3660046144c2565b610343565b6040519081526020015b60405180910390f35b34801561017257600080fd5b5061013961018136600461458c565b6106d3565b34801561019257600080fd5b506101396101a1366004614621565b6108e7565b3480156101b257600080fd5b506101536101c13660046146a8565b610a3d565b3480156101d257600080fd5b506003546101e6906001600160a01b031681565b6040516001600160a01b03909116815260200161015d565b34801561020a57600080fd5b506004546101e6906001600160a01b031681565b34801561022a57600080fd5b506000546101e6906201000090046001600160a01b031681565b34801561025057600080fd5b5061013961025f36600461458c565b610cbe565b34801561027057600080fd5b5061015361027f366004614794565b610cd2565b34801561029057600080fd5b506002546101e6906001600160a01b031681565b3480156102b057600080fd5b506102c46102bf366004614862565b611155565b604080516001600160a01b03909316835260208301919091520161015d565b3480156102ef57600080fd5b506001546101e6906001600160a01b031681565b34801561030f57600080fd5b506006546101e6906001600160a01b031681565b34801561032f57600080fd5b5061015361033e3660046148cd565b6111d6565b60008034116103645760405162461bcd60e51b8152600401610130906149a2565b604051635572051560e11b81526001600160a01b038a81166004830152888116602483015289169063aae40a2a9034906044016000604051808303818588803b1580156103b057600080fd5b505af11580156103c4573d6000803e3d6000fd5b5050505050866001600160a01b0316856001600160a01b0316146106bc576040516370a0823160e01b81523060048201526000906001600160a01b038916906370a0823190602401602060405180830381865afa158015610429573d6000803e3d6000fd5b505050506040513d601f19601f8201168201806040525081019061044d91906149ff565b905080156106ba5760405163db006a7560e01b8152600481018290526000906001600160a01b038a169063db006a75906024016020604051808303816000875af115801561049f573d6000803e3d6000fd5b505050506040513d601f19601f820116820180604052508101906104c391906149ff565b905080156104e35760405162461bcd60e51b815260040161013090614a18565b6000896001600160a01b0316636f307dc36040518163ffffffff1660e01b8152600401602060405180830381865afa158015610523573d6000803e3d6000fd5b505050506040513d601f19601f820116820180604052508101906105479190614a76565b8651909150156106ab5784518651146105725760405162461bcd60e51b815260040161013090614a93565b6040516370a0823160e01b81523060048201526000906001600160a01b038316906370a0823190602401602060405180830381865afa1580156105b9573d6000803e3d6000fd5b505050506040513d601f19601f820116820180604052508101906105dd91906149ff565b905060005b87518110156106a857306001600160a01b031663b596625884848b858151811061060e5761060e614b16565b60200260200101518b868151811061062857610628614b16565b60200260200101516040518563ffffffff1660e01b815260040161064f9493929190614b84565b60408051808303816000875af115801561066d573d6000803e3d6000fd5b505050506040513d601f19601f820116820180604052508101906106919190614bb7565b9093509150806106a081614bfb565b9150506105e2565b50505b6106b781898b8a6114fc565b50505b505b6106c68587611960565b9998505050505050505050565b60006106e3606460448486614c16565b8101906106f09190614c40565b9050806001600160a01b031663ac784ddc6040518163ffffffff1660e01b8152600401602060405180830381865afa158015610730573d6000803e3d6000fd5b505050506040513d601f19601f820116820180604052508101906107549190614c5d565b1561081c5760008080808080808061076f8a6004818e614c16565b81019061077c9190614ce3565b985098509850985098509850509750975060006103e5886103e86107a09190614d7d565b6107aa9190614db2565b905060006103e56107bd8a6103e8614d7d565b6107c79190614dc6565b11156107db57806107d781614bfb565b9150505b6107ed89898c8a8a8a878b8b8b611b85565b600780546001600160a01b0319166001600160a01b0392909216919091179055506108df975050505050505050565b600080808080808080806108338b6004818f614c16565b8101906108409190614dda565b9950995099509950995099509950509850985060006103e5896103e86108669190614d7d565b6108709190614db2565b905060006103e56108838b6103e8614d7d565b61088d9190614dc6565b11156108a1578061089d81614bfb565b9150505b6108b48a8a8d8b8b8b878c8c8c8c611d98565b600780546001600160a01b0319166001600160a01b0392909216919091179055505050505050505050505b505050505050565b60006108f3600161202c565b9050801561090b576000805461ff0019166101001790555b6001600160a01b0385166109615760405162461bcd60e51b815260206004820152601d60248201527f556e69737761705632466163746f7279206e6f7420646566696e65642e0000006044820152606401610130565b6000805462010000600160b01b031916620100006001600160a01b0389811682029290921792839055600280546001600160a01b03199081168a85169081179092556003805482168a861617905560048054821689861617905560018054939095049093169183169190911790925560068054909116909117905581516109ef90600590602085019061423b565b5080156108df576000805461ff0019169055604051600181527f7f26b83ff96e1f2b6a682f133852f6798a09c465da95921460cefb38474024989060200160405180910390a1505050505050565b6000808b11610a5e5760405162461bcd60e51b815260040161013090614eb6565b60008060008c6001600160a01b0316636f307dc36040518163ffffffff1660e01b8152600401602060405180830381865afa158015610aa1573d6000803e3d6000fd5b505050506040513d601f19601f82011682018060405250810190610ac59190614a76565b9050886001600160a01b031663c45a01556040518163ffffffff1660e01b8152600401602060405180830381865afa158015610b05573d6000803e3d6000fd5b505050506040513d601f19601f82011682018060405250810190610b299190614a76565b60005460405163e6a4390560e01b81526001600160a01b038481166004830152620100009092048216602482015291169063e6a4390590604401602060405180830381865afa158015610b80573d6000803e3d6000fd5b505050506040513d601f19601f82011682018060405250810190610ba49190614a76565b9250806001600160a01b0316836001600160a01b0316630dfe16816040518163ffffffff1660e01b8152600401602060405180830381865afa158015610bee573d6000803e3d6000fd5b505050506040513d601f19601f82011682018060405250810190610c129190614a76565b6001600160a01b031614915050816001600160a01b031663022c0d9f82610c3a576000610c3c565b8e5b8315610c49576000610c4b565b8f5b306000366040518663ffffffff1660e01b8152600401610c6f959493929190614efa565b600060405180830381600087803b158015610c8957600080fd5b505af1158015610c9d573d6000803e3d6000fd5b50505050610cac898b866120b9565b9e9d5050505050505050505050505050565b610ccb85858585856106d3565b5050505050565b6000808911610cf35760405162461bcd60e51b8152600401610130906149a2565b6000886001600160a01b0316636f307dc36040518163ffffffff1660e01b8152600401602060405180830381865afa158015610d33573d6000803e3d6000fd5b505050506040513d601f19601f82011682018060405250810190610d579190614a76565b9050610d6e6001600160a01b03821633308d6121dd565b610d79818a8c612248565b604051637af1e23160e11b81526001600160a01b038c81166004830152602482018c905289811660448301528a169063f5e3c462906064016020604051808303816000875af1158015610dd0573d6000803e3d6000fd5b505050506040513d601f19601f82011682018060405250810190610df491906149ff565b15610e375760405162461bcd60e51b81526020600482015260136024820152722634b8bab4b230ba34b7b7103330b4b632b21760691b6044820152606401610130565b876001600160a01b0316866001600160a01b03161461113c576040516370a0823160e01b81523060048201526000906001600160a01b038a16906370a0823190602401602060405180830381865afa158015610e97573d6000803e3d6000fd5b505050506040513d601f19601f82011682018060405250810190610ebb91906149ff565b9050801561113a5760405163db006a7560e01b8152600481018290526000906001600160a01b038b169063db006a75906024016020604051808303816000875af1158015610f0d573d6000803e3d6000fd5b505050506040513d601f19601f82011682018060405250810190610f3191906149ff565b90508015610f515760405162461bcd60e51b815260040161013090614a18565b896001600160a01b031663ac784ddc6040518163ffffffff1660e01b8152600401602060405180830381865afa158015610f8f573d6000803e3d6000fd5b505050506040513d601f19601f82011682018060405250810190610fb39190614c5d565b15610fca57610fc56000898b8a6114fc565b611138565b60008a6001600160a01b0316636f307dc36040518163ffffffff1660e01b8152600401602060405180830381865afa15801561100a573d6000803e3d6000fd5b505050506040513d601f19601f8201168201806040525081019061102e9190614a76565b87519091501561112a5785518751146110595760405162461bcd60e51b815260040161013090614a93565b6040516370a0823160e01b81523060048201526000906001600160a01b038316906370a0823190602401602060405180830381865afa1580156110a0573d6000803e3d6000fd5b505050506040513d601f19601f820116820180604052508101906110c491906149ff565b905060005b88518110156111275761111083838b84815181106110e9576110e9614b16565b60200260200101518b858151811061110357611103614b16565b6020026020010151611155565b90935091508061111f81614bfb565b9150506110c9565b50505b611136818a8c8b6114fc565b505b505b505b6111468688611960565b9b9a5050505050505050505050565b60008060006111b2856310badf4e60e01b89898860405160240161117b93929190614f49565b60408051601f198184030181529190526020810180516001600160e01b03166001600160e01b0319909316929092179091526122f7565b9050808060200190518101906111c89190614bb7565b925092505094509492505050565b6000808a116111f75760405162461bcd60e51b815260040161013090614eb6565b60006113ce600660009054906101000a90046001600160a01b03166001600160a01b031663c45a01556040518163ffffffff1660e01b8152600401602060405180830381865afa15801561124f573d6000803e3d6000fd5b505050506040513d601f19601f820116820180604052508101906112739190614a76565b6002546001600160a01b038981169116148015611306575060035460408051636f307dc360e01b815290516001600160a01b03928316928e1691636f307dc39160048083019260209291908290030181865afa1580156112d7573d6000803e3d6000fd5b505050506040513d601f19601f820116820180604052508101906112fb9190614a76565b6001600160a01b0316145b61131b576003546001600160a01b0316611328565b6004546001600160a01b03165b600060029054906101000a90046001600160a01b03166005805461134b90614f70565b80601f016020809104026020016040519081016040528092919081815260200182805461137790614f70565b80156113c45780601f10611399576101008083540402835291602001916113c4565b820191906000526020600020905b8154815290600101906020018083116113a757829003601f168201915b50505050506123eb565b90506000816001600160a01b0316630dfe16816040518163ffffffff1660e01b8152600401602060405180830381865afa158015611410573d6000803e3d6000fd5b505050506040513d601f19601f820116820180604052508101906114349190614a76565b6000549091506001600160a01b038084169163022c0d9f91808516620100009092041614611463576000611465565b8d5b6000546001600160a01b038581166201000090920416141561148857600061148a565b8e5b306000366040518663ffffffff1660e01b81526004016114ae959493929190614efa565b600060405180830381600087803b1580156114c857600080fd5b505af11580156114dc573d6000803e3d6000fd5b505050506114eb888a866120b9565b9d9c50505050505050505050505050565b836001600160a01b0316836001600160a01b0316141561151b5761195a565b6001600160a01b038416611651576000546001600160a01b03848116620100009092041614156115b357600160009054906101000a90046001600160a01b03166001600160a01b031663d0e30db0476040518263ffffffff1660e01b81526004016000604051808303818588803b15801561159557600080fd5b505af11580156115a9573d6000803e3d6000fd5b505050505061195a565b806001600160a01b0316637ff36ab547846115e3600060029054906101000a90046001600160a01b031688612476565b30426040518663ffffffff1660e01b81526004016116049493929190614fef565b60006040518083038185885af1158015611622573d6000803e3d6000fd5b50505050506040513d6000823e601f3d908101601f1916820160405261164b9190810190615024565b5061195a565b6000546001600160a01b03858116620100009092041614801561167b57506001600160a01b038316155b15611752576001546000546040516370a0823160e01b81523060048201526001600160a01b0392831692632e1a7d4d9262010000900416906370a0823190602401602060405180830381865afa1580156116d9573d6000803e3d6000fd5b505050506040513d601f19601f820116820180604052508101906116fd91906149ff565b6040518263ffffffff1660e01b815260040161171b91815260200190565b600060405180830381600087803b15801561173557600080fd5b505af1158015611749573d6000803e3d6000fd5b5050505061195a565b6040516370a0823160e01b815230600482015284906000906001600160a01b038316906370a0823190602401602060405180830381865afa15801561179b573d6000803e3d6000fd5b505050506040513d601f19601f820116820180604052508101906117bf91906149ff565b90506117cc828483612248565b6001600160a01b03851661187957826001600160a01b03166318cbafe5828661180a8a600060029054906101000a90046001600160a01b0316612476565b30426040518663ffffffff1660e01b815260040161182c9594939291906150a9565b6000604051808303816000875af115801561184b573d6000803e3d6000fd5b505050506040513d6000823e601f3d908101601f191682016040526118739190810190615024565b506108df565b6000546001600160a01b03808516916338ed173991849188918b8116620100009092041614806118bc57506000546001600160a01b038a81166201000090920416145b6118e3576000546118de908b906201000090046001600160a01b03168b612503565b6118ed565b6118ed8a8a612476565b30426040518663ffffffff1660e01b815260040161190f9594939291906150a9565b6000604051808303816000875af115801561192e573d6000803e3d6000fd5b505050506040513d6000823e601f3d908101601f191682016040526119569190810190615024565b5050505b50505050565b6000806001600160a01b038416611a94575047828110156119d75760405162461bcd60e51b815260206004820152602b60248201527f4d696e696d756d204e4154495645206f757470757420616d6f756e74206e6f7460448201526a1039b0ba34b9b334b2b21760a91b6064820152608401610130565b8015611a8f57604051600090339083908381818185875af1925050503d8060008114611a1f576040519150601f19603f3d011682016040523d82523d6000602084013e611a24565b606091505b5050905080611a8d5760405162461bcd60e51b815260206004820152602f60248201527f4661696c656420746f207472616e73666572206f7574707574204e415449564560448201526e103a379036b9b39739b2b73232b91760891b6064820152608401610130565b505b611b7e565b6040516370a0823160e01b815230600482015284906001600160a01b038216906370a0823190602401602060405180830381865afa158015611ada573d6000803e3d6000fd5b505050506040513d601f19601f82011682018060405250810190611afe91906149ff565b915083821015611b625760405162461bcd60e51b815260206004820152602960248201527f4d696e696d756d20746f6b656e206f757470757420616d6f756e74206e6f742060448201526839b0ba34b334b2b21760b91b6064820152608401610130565b8115611b7c57611b7c6001600160a01b03821633846125c6565b505b9392505050565b600154604051632e1a7d4d60e01b8152600481018b90526000916001600160a01b031690632e1a7d4d90602401600060405180830381600087803b158015611bcc57600080fd5b505af1158015611be0573d6000803e3d6000fd5b5050604051635572051560e11b81526001600160a01b038e811660048301528b811660248301528c16925063aae40a2a91508c906044016000604051808303818588803b158015611c3057600080fd5b505af1158015611c44573d6000803e3d6000fd5b50506040516370a0823160e01b8152306004820152600093506001600160a01b038c1692506370a082319150602401602060405180830381865afa158015611c90573d6000803e3d6000fd5b505050506040513d601f19601f82011682018060405250810190611cb491906149ff565b905060008111611cfb5760405162461bcd60e51b815260206004820152601260248201527127379031aa37b5b2b7399039b2b4bd32b21760711b6044820152606401610130565b60405163db006a7560e01b8152600481018290526000906001600160a01b038b169063db006a75906024016020604051808303816000875af1158015611d45573d6000803e3d6000fd5b505050506040513d601f19601f82011682018060405250810190611d6991906149ff565b90508015611d895760405162461bcd60e51b815260040161013090614a18565b6114eb8c8b8a8a8a8a8a6125fb565b6000808a6001600160a01b0316636f307dc36040518163ffffffff1660e01b8152600401602060405180830381865afa158015611dd9573d6000803e3d6000fd5b505050506040513d601f19601f82011682018060405250810190611dfd9190614a76565b9050611e0a818c8e612248565b604051637af1e23160e11b81526001600160a01b038e81166004830152602482018e90528b811660448301528c169063f5e3c462906064016020604051808303816000875af1158015611e61573d6000803e3d6000fd5b505050506040513d601f19601f82011682018060405250810190611e8591906149ff565b15611ec85760405162461bcd60e51b81526020600482015260136024820152722634b8bab4b230ba34b7b7103330b4b632b21760691b6044820152606401610130565b6040516370a0823160e01b81523060048201526000906001600160a01b038c16906370a0823190602401602060405180830381865afa158015611f0f573d6000803e3d6000fd5b505050506040513d601f19601f82011682018060405250810190611f3391906149ff565b905060008111611f7a5760405162461bcd60e51b815260206004820152601260248201527127379031aa37b5b2b7399039b2b4bd32b21760711b6044820152606401610130565b60405163db006a7560e01b8152600481018290526000906001600160a01b038d169063db006a75906024016020604051808303816000875af1158015611fc4573d6000803e3d6000fd5b505050506040513d601f19601f82011682018060405250810190611fe891906149ff565b905080156120085760405162461bcd60e51b815260040161013090614a18565b6120198e8d8c8c8c8c8c8c8b612e13565b9f9e505050505050505050505050505050565b60008054610100900460ff1615612073578160ff16600114801561204f5750303b155b61206b5760405162461bcd60e51b8152600401610130906150e5565b506000919050565b60005460ff80841691161061209a5760405162461bcd60e51b8152600401610130906150e5565b506000805460ff191660ff92909216919091179055600190565b919050565b60006001600160a01b038416612155576007546120f5906001600160a01b0316856120e48587615133565b6006546001600160a01b03166114fc565b81156121445760405141908390600081818185875af1925050503d806000811461213b576040519150601f19603f3d011682016040523d82523d6000602084013e612140565b606091505b5050505b61214e8484611960565b9050611b7e565b81156121c257600754600654612179916001600160a01b039081169185911661385d565b60405141908390600081818185875af1925050503d80600081146121b9576040519150601f19603f3d011682016040523d82523d6000602084013e6121be565b606091505b5050505b600754612144906001600160a01b0316856120e48587615133565b6040516001600160a01b038085166024830152831660448201526064810182905261195a9085906323b872dd60e01b906084015b60408051601f198184030181529190526020810180516001600160e01b03166001600160e01b0319909316929092179091526139f9565b604051636eb1769f60e11b81523060048201526001600160a01b0383811660248301526000919085169063dd62ed3e90604401602060405180830381865afa158015612298573d6000803e3d6000fd5b505050506040513d601f19601f820116820180604052508101906122bc91906149ff565b90508181101561195a5780156122e1576122e16001600160a01b038516846000613acb565b61195a6001600160a01b03851684600019613acb565b60606001600160a01b0383163b61235f5760405162461bcd60e51b815260206004820152602660248201527f416464726573733a2064656c65676174652063616c6c20746f206e6f6e2d636f6044820152651b9d1c9858dd60d21b6064820152608401610130565b600080846001600160a01b03168460405161237a919061514b565b600060405180830381855af49150503d80600081146123b5576040519150601f19603f3d011682016040523d82523d6000602084013e6123ba565b606091505b50915091506123e282826040518060600160405280602781526020016152d060279139613be0565b95945050505050565b60008060006123fa8686613c19565b6040516bffffffffffffffffffffffff19606084811b8216602084015283901b16603482015291935091508790604801604051602081830303815290604052805190602001208560405160200161245393929190615167565b60408051601f198184030181529190528051602090910120979650505050505050565b6040805160028082526060808301845292600092919060208301908036833701905050905083816000815181106124af576124af614b16565b60200260200101906001600160a01b031690816001600160a01b03168152505082816001815181106124e3576124e3614b16565b6001600160a01b0390921660209283029190910190910152905092915050565b6040805160038082526080820190925260609160009190602082018480368337019050509050848160008151811061253d5761253d614b16565b60200260200101906001600160a01b031690816001600160a01b031681525050838160018151811061257157612571614b16565b60200260200101906001600160a01b031690816001600160a01b03168152505082816002815181106125a5576125a5614b16565b6001600160a01b039092166020928302919091019091015290509392505050565b6040516001600160a01b0383166024820152604481018290526125f690849063a9059cbb60e01b90606401612211565b505050565b600080876001600160a01b0316636f307dc36040518163ffffffff1660e01b8152600401602060405180830381865afa15801561263c573d6000803e3d6000fd5b505050506040513d601f19601f820116820180604052508101906126609190614a76565b6040516370a0823160e01b81523060048201529091506000906001600160a01b038316906370a0823190602401602060405180830381865afa1580156126aa573d6000803e3d6000fd5b505050506040513d601f19601f820116820180604052508101906126ce91906149ff565b85519091501561274f5783518551146126f95760405162461bcd60e51b815260040161013090614a93565b60005b855181101561274d57612736838388848151811061271c5761271c614b16565b602002602001015188858151811061110357611103614b16565b90935091508061274581614bfb565b9150506126fc565b505b6002546001600160a01b038781169116148015612818575060035460408051636f307dc360e01b815290516001600160a01b03928316928c1691636f307dc39160048083019260209291908290030181865afa1580156127b3573d6000803e3d6000fd5b505050506040513d601f19601f820116820180604052508101906127d79190614a76565b6001600160a01b0316146127f6576003546001600160a01b0316612803565b6004546001600160a01b03165b6001600160a01b0316826001600160a01b0316145b15612a245760006128a9876001600160a01b031663c45a01556040518163ffffffff1660e01b8152600401602060405180830381865afa158015612860573d6000803e3d6000fd5b505050506040513d601f19601f820116820180604052508101906128849190614a76565b8c6128a486600060029054906101000a90046001600160a01b0316612476565b613d0f565b6000815181106128bb576128bb614b16565b602002602001015190508181111561293b5760405162461bcd60e51b815260206004820152603760248201527f466c6173686c6f616e2072657475726e20616d6f756e7420677265617465722060448201527f7468616e207365697a656420636f6c6c61746572616c2e0000000000000000006064820152608401610130565b60405163a9059cbb60e01b8152336004820152602481018290526001600160a01b0384169063a9059cbb906044016020604051808303816000875af1158015612988573d6000803e3d6000fd5b505050506040513d601f19601f820116820180604052508101906129ac9190614c5d565b612a1e5760405162461bcd60e51b815260206004820152603b60248201527f4661696c656420746f207472616e73666572206e6f6e2d575f4e41544956452060448201527f746f6b656e73206261636b20746f20666c6173686c656e6465722e00000000006064820152608401610130565b50612e06565b6000546001600160a01b03838116620100009092041614612c2e576001600160a01b038216612abb57600160009054906101000a90046001600160a01b03166001600160a01b031663d0e30db0886040518263ffffffff1660e01b81526004016000604051808303818588803b158015612a9d57600080fd5b505af1158015612ab1573d6000803e3d6000fd5b5050505050612c2e565b612ac6828783612248565b816001600160a01b0316886001600160a01b03161415612b7f57856001600160a01b0316638803dbee8883612b1086600060029054906101000a90046001600160a01b0316612476565b30426040518663ffffffff1660e01b8152600401612b329594939291906150a9565b6000604051808303816000875af1158015612b51573d6000803e3d6000fd5b505050506040513d6000823e601f3d908101601f19168201604052612b799190810190615024565b50612c2e565b856001600160a01b03166338ed17398289612baf86600060029054906101000a90046001600160a01b0316612476565b30426040518663ffffffff1660e01b8152600401612bd19594939291906150a9565b6000604051808303816000875af1158015612bf0573d6000803e3d6000fd5b505050506040513d6000823e601f3d908101601f19168201604052612c189190810190615024565b506000546201000090046001600160a01b031691505b6000546040516370a0823160e01b8152306004820152620100009091046001600160a01b0316906370a0823190602401602060405180830381865afa158015612c7b573d6000803e3d6000fd5b505050506040513d601f19601f82011682018060405250810190612c9f91906149ff565b871115612d2c5760405162461bcd60e51b815260206004820152604f60248201527f466c6173686c6f616e2072657475726e20616d6f756e7420677265617465722060448201527f7468616e20575f4e41544956452065786368616e6765642066726f6d2073656960648201526e3d32b21031b7b63630ba32b930b61760891b608482015260a401610130565b60015460405163a9059cbb60e01b8152336004820152602481018990526001600160a01b039091169063a9059cbb906044016020604051808303816000875af1158015612d7d573d6000803e3d6000fd5b505050506040513d601f19601f82011682018060405250810190612da19190614c5d565b612e065760405162461bcd60e51b815260206004820152603060248201527f4661696c656420746f207472616e7366657220575f4e4154495645206261636b60448201526f103a3790333630b9b43632b73232b91760811b6064820152608401610130565b5098975050505050505050565b6000886001600160a01b031663ac784ddc6040518163ffffffff1660e01b8152600401602060405180830381865afa158015612e53573d6000803e3d6000fd5b505050506040513d601f19601f82011682018060405250810190612e779190614c5d565b1561309e5760004790506000612f06886001600160a01b031663c45a01556040518163ffffffff1660e01b8152600401602060405180830381865afa158015612ec4573d6000803e3d6000fd5b505050506040513d601f19601f82011682018060405250810190612ee89190614a76565b6000548e906128a4906201000090046001600160a01b031688612476565b600081518110612f1857612f18614b16565b6020026020010151905081811115612f985760405162461bcd60e51b815260206004820152603760248201527f5365697a6564204e415449564520636f6c6c61746572616c206e6f7420656e6f60448201527f75676820746f20726570617920666c6173686c6f616e2e0000000000000000006064820152608401610130565b600160009054906101000a90046001600160a01b03166001600160a01b031663d0e30db0826040518263ffffffff1660e01b81526004016000604051808303818588803b158015612fe857600080fd5b505af1158015612ffc573d6000803e3d6000fd5b505060015460405163a9059cbb60e01b8152336004820152602481018690526001600160a01b03909116935063a9059cbb925060440190506020604051808303816000875af1158015613053573d6000803e3d6000fd5b505050506040513d601f19601f820116820180604052508101906130779190614c5d565b6130935760405162461bcd60e51b8152600401610130906151b0565b6000925050506106c6565b6000896001600160a01b0316636f307dc36040518163ffffffff1660e01b8152600401602060405180830381865afa1580156130de573d6000803e3d6000fd5b505050506040513d601f19601f820116820180604052508101906131029190614a76565b6040516370a0823160e01b81523060048201529091506000906001600160a01b038316906370a0823190602401602060405180830381865afa15801561314c573d6000803e3d6000fd5b505050506040513d601f19601f8201168201806040525081019061317091906149ff565b86519091501561326d5784518651146132175760405162461bcd60e51b815260206004820152605b60248201527f49526564656d7074696f6e537472617465677920636f6e74726163742061727260448201527f617920616e64207374726174656779206461746120627974657320617272617960648201527f206d6e75737420746865207468652073616d65206c656e6774682e0000000000608482015260a401610130565b60005b865181101561326b57613254838389848151811061323a5761323a614b16565b602002602001015189858151811061110357611103614b16565b90935091508061326381614bfb565b91505061321a565b505b836001600160a01b0316826001600160a01b0316141561346b576040516370a0823160e01b81523060048201526001600160a01b038516906370a0823190602401602060405180830381865afa1580156132cb573d6000803e3d6000fd5b505050506040513d601f19601f820116820180604052508101906132ef91906149ff565b8911156133805760405162461bcd60e51b815260206004820152605360248201527f546f6b656e20666c6173686c6f616e2072657475726e20616d6f756e7420677260448201527f6561746572207468616e20746f6b656e732065786368616e6765642066726f6d6064820152721039b2b4bd32b21031b7b63630ba32b930b61760691b608482015260a401610130565b60405163a9059cbb60e01b8152336004820152602481018a90526001600160a01b0385169063a9059cbb906044016020604051808303816000875af11580156133cd573d6000803e3d6000fd5b505050506040513d601f19601f820116820180604052508101906133f19190614c5d565b6134635760405162461bcd60e51b815260206004820152603e60248201527f4661696c656420746f20726570617920746f6b656e20666c6173686c6f616e2060448201527f6f6e20626f72726f7720286e6f6e2d575f4e41544956452920736964652e00006064820152608401610130565b5090506106c6565b60006134f0896001600160a01b031663c45a01556040518163ffffffff1660e01b8152600401602060405180830381865afa1580156134ae573d6000803e3d6000fd5b505050506040513d601f19601f820116820180604052508101906134d29190614a76565b6000548f906128a4906201000090046001600160a01b031689612476565b60008151811061350257613502614b16565b60200260200101519050600060029054906101000a90046001600160a01b03166001600160a01b0316836001600160a01b03161461369957613545838984612248565b826001600160a01b03168b6001600160a01b031614156135fe57876001600160a01b0316638803dbee828461358f87600060029054906101000a90046001600160a01b0316612476565b30426040518663ffffffff1660e01b81526004016135b19594939291906150a9565b6000604051808303816000875af11580156135d0573d6000803e3d6000fd5b505050506040513d6000823e601f3d908101601f191682016040526135f89190810190615024565b50613699565b876001600160a01b03166338ed1739838361362e87600060029054906101000a90046001600160a01b0316612476565b30426040518663ffffffff1660e01b81526004016136509594939291906150a9565b6000604051808303816000875af115801561366f573d6000803e3d6000fd5b505050506040513d6000823e601f3d908101601f191682016040526136979190810190615024565b505b6000546040516370a0823160e01b8152306004820152620100009091046001600160a01b0316906370a0823190602401602060405180830381865afa1580156136e6573d6000803e3d6000fd5b505050506040513d601f19601f8201168201806040525081019061370a91906149ff565b8111156137905760405162461bcd60e51b815260206004820152604860248201527f4e6f7420656e6f75676820575f4e41544956452065786368616e67656420667260448201527f6f6d207365697a656420636f6c6c61746572616c20746f20726570617920666c60648201526730b9b43637b0b71760c11b608482015260a401610130565b60015460405163a9059cbb60e01b8152336004820152602481018390526001600160a01b039091169063a9059cbb906044016020604051808303816000875af11580156137e1573d6000803e3d6000fd5b505050506040513d601f19601f820116820180604052508101906138059190614c5d565b6138215760405162461bcd60e51b8152600401610130906151b0565b826001600160a01b03168b6001600160a01b031614613851576000546201000090046001600160a01b0316613853565b825b93505050506106c6565b6001600160a01b03831661387057505050565b6000546001600160a01b03848116620100009092041614156138e657600154604051632e1a7d4d60e01b8152600481018490526001600160a01b0390911690632e1a7d4d90602401600060405180830381600087803b1580156138d257600080fd5b505af1158015611956573d6000803e3d6000fd5b6040516370a0823160e01b815230600482015283906000906001600160a01b038316906370a0823190602401602060405180830381865afa15801561392f573d6000803e3d6000fd5b505050506040513d601f19601f8201168201806040525081019061395391906149ff565b9050613960828483612248565b826001600160a01b0316634a25d94a858361399089600060029054906101000a90046001600160a01b0316612476565b30426040518663ffffffff1660e01b81526004016139b29594939291906150a9565b6000604051808303816000875af11580156139d1573d6000803e3d6000fd5b505050506040513d6000823e601f3d908101601f191682016040526108df9190810190615024565b6000613a4e826040518060400160405280602081526020017f5361666545524332303a206c6f772d6c6576656c2063616c6c206661696c6564815250856001600160a01b0316613e9c9092919063ffffffff16565b8051909150156125f65780806020019051810190613a6c9190614c5d565b6125f65760405162461bcd60e51b815260206004820152602a60248201527f5361666545524332303a204552433230206f7065726174696f6e20646964206e6044820152691bdd081cdd58d8d9595960b21b6064820152608401610130565b801580613b455750604051636eb1769f60e11b81523060048201526001600160a01b03838116602483015284169063dd62ed3e90604401602060405180830381865afa158015613b1f573d6000803e3d6000fd5b505050506040513d601f19601f82011682018060405250810190613b4391906149ff565b155b613bb05760405162461bcd60e51b815260206004820152603660248201527f5361666545524332303a20617070726f76652066726f6d206e6f6e2d7a65726f60448201527520746f206e6f6e2d7a65726f20616c6c6f77616e636560501b6064820152608401610130565b6040516001600160a01b0383166024820152604481018290526125f690849063095ea7b360e01b90606401612211565b60608315613bef575081611b7e565b825115613bff5782518084602001fd5b8160405162461bcd60e51b81526004016101309190615227565b600080826001600160a01b0316846001600160a01b03161415613c8a5760405162461bcd60e51b815260206004820152602360248201527f50616e63616b654c6962726172793a204944454e544943414c5f41444452455360448201526253455360e81b6064820152608401610130565b826001600160a01b0316846001600160a01b031610613caa578284613cad565b83835b90925090506001600160a01b038216613d085760405162461bcd60e51b815260206004820152601c60248201527f50616e63616b654c6962726172793a205a45524f5f41444452455353000000006044820152606401610130565b9250929050565b6060600282511015613d635760405162461bcd60e51b815260206004820152601c60248201527f50616e63616b654c6962726172793a20494e56414c49445f50415448000000006044820152606401610130565b81516001600160401b03811115613d7c57613d7c6142f7565b604051908082528060200260200182016040528015613da5578160200160208202803683370190505b509050828160018351613db8919061523a565b81518110613dc857613dc8614b16565b602002602001018181525050600060018351613de4919061523a565b90505b8015611b7c57600080613e378786613e0060018761523a565b81518110613e1057613e10614b16565b6020026020010151878681518110613e2a57613e2a614b16565b6020026020010151613eb3565b91509150613e5f848481518110613e5057613e50614b16565b60200260200101518383613fe8565b84613e6b60018661523a565b81518110613e7b57613e7b614b16565b60200260200101818152505050508080613e9490615251565b915050613de7565b6060613eab848460008561410a565b949350505050565b6000806000613ec28585613c19565b5060405163e6a4390560e01b81526001600160a01b038781166004830152868116602483015291925060009182919089169063e6a4390590604401602060405180830381865afa158015613f1a573d6000803e3d6000fd5b505050506040513d601f19601f82011682018060405250810190613f3e9190614a76565b6001600160a01b0316630902f1ac6040518163ffffffff1660e01b8152600401606060405180830381865afa158015613f7b573d6000803e3d6000fd5b505050506040513d601f19601f82011682018060405250810190613f9f919061527f565b506001600160701b031691506001600160701b03169150826001600160a01b0316876001600160a01b031614613fd6578082613fd9565b81815b90999098509650505050505050565b600080841161404c5760405162461bcd60e51b815260206004820152602a60248201527f50616e63616b654c6962726172793a20494e53554646494349454e545f4f555460448201526914155517d05353d5539560b21b6064820152608401610130565b60008311801561405c5750600082115b6140b75760405162461bcd60e51b815260206004820152602660248201527f50616e63616b654c6962726172793a20494e53554646494349454e545f4c495160448201526555494449545960d01b6064820152608401610130565b60006140c38585614d7d565b6140cf906103e8614d7d565b905060006140dd868561523a565b6140e9906103e5614d7d565b90506140f58183614db2565b614100906001615133565b9695505050505050565b60608247101561416b5760405162461bcd60e51b815260206004820152602660248201527f416464726573733a20696e73756666696369656e742062616c616e636520666f6044820152651c8818d85b1b60d21b6064820152608401610130565b6001600160a01b0385163b6141c25760405162461bcd60e51b815260206004820152601d60248201527f416464726573733a2063616c6c20746f206e6f6e2d636f6e74726163740000006044820152606401610130565b600080866001600160a01b031685876040516141de919061514b565b60006040518083038185875af1925050503d806000811461421b576040519150601f19603f3d011682016040523d82523d6000602084013e614220565b606091505b5091509150614230828286613be0565b979650505050505050565b82805461424790614f70565b90600052602060002090601f01602090048101928261426957600085556142af565b82601f1061428257805160ff19168380011785556142af565b828001600101855582156142af579182015b828111156142af578251825591602001919060010190614294565b506142bb9291506142bf565b5090565b5b808211156142bb57600081556001016142c0565b6001600160a01b03811681146142e957600080fd5b50565b80356120b4816142d4565b634e487b7160e01b600052604160045260246000fd5b604051601f8201601f191681016001600160401b0381118282101715614335576143356142f7565b604052919050565b60006001600160401b03821115614356576143566142f7565b5060051b60200190565b600082601f83011261437157600080fd5b813560206143866143818361433d565b61430d565b82815260059290921b840181019181810190868411156143a557600080fd5b8286015b848110156143c95780356143bc816142d4565b83529183019183016143a9565b509695505050505050565b600082601f8301126143e557600080fd5b81356001600160401b038111156143fe576143fe6142f7565b614411601f8201601f191660200161430d565b81815284602083860101111561442657600080fd5b816020850160208301376000918101602001919091529392505050565b600082601f83011261445457600080fd5b813560206144646143818361433d565b82815260059290921b8401810191818101908684111561448357600080fd5b8286015b848110156143c95780356001600160401b038111156144a65760008081fd5b6144b48986838b01016143d4565b845250918301918301614487565b600080600080600080600080610100898b0312156144df57600080fd5b88356144ea816142d4565b975060208901356144fa816142d4565b9650604089013561450a816142d4565b9550606089013594506080890135614521816142d4565b935060a0890135614531816142d4565b925060c08901356001600160401b038082111561454d57600080fd5b6145598c838d01614360565b935060e08b013591508082111561456f57600080fd5b5061457c8b828c01614443565b9150509295985092959890939650565b6000806000806000608086880312156145a457600080fd5b85356145af816142d4565b9450602086013593506040860135925060608601356001600160401b03808211156145d957600080fd5b818801915088601f8301126145ed57600080fd5b8135818111156145fc57600080fd5b89602082850101111561460e57600080fd5b9699959850939650602001949392505050565b600080600080600060a0868803121561463957600080fd5b8535614644816142d4565b94506020860135614654816142d4565b93506040860135614664816142d4565b92506060860135614674816142d4565b915060808601356001600160401b0381111561468f57600080fd5b61469b888289016143d4565b9150509295509295909350565b60008060008060008060008060008060006101608c8e0312156146ca57600080fd5b6146d38c6142ec565b9a5060208c013599506146e860408d016142ec565b98506146f660608d016142ec565b975060808c0135965061470b60a08d016142ec565b955061471960c08d016142ec565b945061472760e08d016142ec565b93506001600160401b03806101008e0135111561474357600080fd5b6147548e6101008f01358f01614360565b9350806101208e0135111561476857600080fd5b5061477a8d6101208e01358e01614443565b91506101408c013590509295989b509295989b9093969950565b60008060008060008060008060006101208a8c0312156147b357600080fd5b89356147be816142d4565b985060208a0135975060408a01356147d5816142d4565b96506147e360608b016142ec565b955060808a013594506147f860a08b016142ec565b935061480660c08b016142ec565b925060e08a01356001600160401b038082111561482257600080fd5b61482e8d838e01614360565b93506101008c013591508082111561484557600080fd5b506148528c828d01614443565b9150509295985092959850929598565b6000806000806080858703121561487857600080fd5b8435614883816142d4565b935060208501359250604085013561489a816142d4565b915060608501356001600160401b038111156148b557600080fd5b6148c1878288016143d4565b91505092959194509250565b6000806000806000806000806000806101408b8d0312156148ed57600080fd5b6148f68b6142ec565b995060208b0135985061490b60408c016142ec565b975061491960608c016142ec565b965060808b0135955061492e60a08c016142ec565b945061493c60c08c016142ec565b935060e08b01356001600160401b038082111561495857600080fd5b6149648e838f01614360565b94506101008d013591508082111561497b57600080fd5b506149888d828e01614443565b9250506101208b013590509295989b9194979a5092959850565b60208082526038908201527f526570617920616d6f756e7420287472616e73616374696f6e2076616c75652960408201527f206d7573742062652067726561746572207468616e20302e0000000000000000606082015260800190565b600060208284031215614a1157600080fd5b5051919050565b602080825260409082018190527f4572726f722063616c6c696e672072656465656d696e67207365697a65642063908201527f546f6b656e3a206572726f7220636f6465206e6f7420657175616c20746f2030606082015260800190565b600060208284031215614a8857600080fd5b8151611b7e816142d4565b60208082526059908201527f49526564656d7074696f6e537472617465677920636f6e74726163742061727260408201527f617920616e64207374726174656779206461746120627974657320617272617960608201527f206d757374206265207468652073616d65206c656e6774682e00000000000000608082015260a00190565b634e487b7160e01b600052603260045260246000fd5b60005b83811015614b47578181015183820152602001614b2f565b8381111561195a5750506000910152565b60008151808452614b70816020860160208601614b2c565b601f01601f19169290920160200192915050565b6001600160a01b038581168252602082018590528316604082015260806060820181905260009061410090830184614b58565b60008060408385031215614bca57600080fd5b8251614bd5816142d4565b6020939093015192949293505050565b634e487b7160e01b600052601160045260246000fd5b6000600019821415614c0f57614c0f614be5565b5060010190565b60008085851115614c2657600080fd5b83861115614c3357600080fd5b5050820193919092039150565b600060208284031215614c5257600080fd5b8135611b7e816142d4565b600060208284031215614c6f57600080fd5b81518015158114611b7e57600080fd5b600082601f830112614c9057600080fd5b81356020614ca06143818361433d565b82815260059290921b84018101918181019086841115614cbf57600080fd5b8286015b848110156143c9578035614cd6816142d4565b8352918301918301614cc3565b60008060008060008060008060006101208a8c031215614d0257600080fd5b8935614d0d816142d4565b985060208a0135975060408a0135614d24816142d4565b9650614d3260608b016142ec565b955060808a01359450614d4760a08b016142ec565b9350614d5560c08b016142ec565b925060e08a01356001600160401b0380821115614d7157600080fd5b61482e8d838e01614c7f565b6000816000190483118215151615614d9757614d97614be5565b500290565b634e487b7160e01b600052601260045260246000fd5b600082614dc157614dc1614d9c565b500490565b600082614dd557614dd5614d9c565b500690565b6000806000806000806000806000806101408b8d031215614dfa57600080fd5b614e038b6142ec565b995060208b01359850614e1860408c016142ec565b9750614e2660608c016142ec565b965060808b01359550614e3b60a08c016142ec565b9450614e4960c08c016142ec565b9350614e5760e08c016142ec565b92506101008b01356001600160401b0380821115614e7457600080fd5b614e808e838f01614c7f565b93506101208d0135915080821115614e9757600080fd5b50614ea48d828e01614443565b9150509295989b9194979a5092959850565b60208082526024908201527f526570617920616d6f756e74206d7573742062652067726561746572207468616040820152633710181760e11b606082015260800190565b858152602081018590526001600160a01b03841660408201526080606082018190528101829052818360a0830137600081830160a090810191909152601f909201601f19160101949350505050565b60018060a01b03841681528260208201526060604082015260006123e26060830184614b58565b600181811c90821680614f8457607f821691505b60208210811415614fa557634e487b7160e01b600052602260045260246000fd5b50919050565b600081518084526020808501945080840160005b83811015614fe45781516001600160a01b031687529582019590820190600101614fbf565b509495945050505050565b8481526080602082015260006150086080830186614fab565b6001600160a01b03949094166040830152506060015292915050565b6000602080838503121561503757600080fd5b82516001600160401b0381111561504d57600080fd5b8301601f8101851361505e57600080fd5b805161506c6143818261433d565b81815260059190911b8201830190838101908783111561508b57600080fd5b928401925b8284101561423057835182529284019290840190615090565b85815284602082015260a0604082015260006150c860a0830186614fab565b6001600160a01b0394909416606083015250608001529392505050565b6020808252602e908201527f496e697469616c697a61626c653a20636f6e747261637420697320616c72656160408201526d191e481a5b9a5d1a585b1a5e995960921b606082015260800190565b6000821982111561514657615146614be5565b500190565b6000825161515d818460208701614b2c565b9190910192915050565b60ff60f81b81526bffffffffffffffffffffffff198460601b166001820152826015820152600082516151a1816035850160208701614b2c565b91909101603501949350505050565b60208082526051908201527f4661696c656420746f20726570617920556e697377617020666c6173686c6f6160408201527f6e207769746820575f4e41544956452065786368616e6765642066726f6d207360608201527032b4bd32b21031b7b63630ba32b930b61760791b608082015260a00190565b602081526000611b7e6020830184614b58565b60008282101561524c5761524c614be5565b500390565b60008161526057615260614be5565b506000190190565b80516001600160701b03811681146120b457600080fd5b60008060006060848603121561529457600080fd5b61529d84615268565b92506152ab60208501615268565b9150604084015163ffffffff811681146152c457600080fd5b80915050925092509256fe416464726573733a206c6f772d6c6576656c2064656c65676174652063616c6c206661696c6564a2646970667358221220a1b1fcda80d7de6dff2d052f3e09f863ed997ffc90635008ec9177b0a9d51dac64736f6c634300080a0033",
    "linkReferences": {}
  }
}