{
  "abi": [
    {
      "anonymous": false,
      "inputs": [
        {
          "indexed": false,
          "internalType": "uint8",
          "name": "version",
          "type": "uint8"
        }
      ],
      "name": "Initialized",
      "type": "event"
    },
    {
      "anonymous": false,
      "inputs": [
        {
          "indexed": true,
          "internalType": "address",
          "name": "previousOwner",
          "type": "address"
        },
        {
          "indexed": true,
          "internalType": "address",
          "name": "newOwner",
          "type": "address"
        }
      ],
      "name": "OwnershipTransferred",
      "type": "event"
    },
    {
      "inputs": [],
      "name": "BTC_TOKEN",
      "outputs": [
        {
          "internalType": "address",
          "name": "",
          "type": "address"
        }
      ],
      "stateMutability": "view",
      "type": "function"
    },
    {
      "inputs": [],
      "name": "STABLE_TOKEN",
      "outputs": [
        {
          "internalType": "address",
          "name": "",
          "type": "address"
        }
      ],
      "stateMutability": "view",
      "type": "function"
    },
    {
      "inputs": [],
      "name": "UNISWAP_V2_ROUTER_02",
      "outputs": [
        {
          "internalType": "contract IUniswapV2Router02",
          "name": "",
          "type": "address"
        }
      ],
      "stateMutability": "view",
      "type": "function"
    },
    {
      "inputs": [],
      "name": "UNISWAP_V2_ROUTER_02_ADDRESS",
      "outputs": [
        {
          "internalType": "address",
          "name": "",
          "type": "address"
        }
      ],
      "stateMutability": "view",
      "type": "function"
    },
    {
      "inputs": [],
      "name": "W_NATIVE",
      "outputs": [
        {
          "internalType": "contract IW_NATIVE",
          "name": "",
          "type": "address"
        }
      ],
      "stateMutability": "view",
      "type": "function"
    },
    {
      "inputs": [],
      "name": "W_NATIVE_ADDRESS",
      "outputs": [
        {
          "internalType": "address",
          "name": "",
          "type": "address"
        }
      ],
      "stateMutability": "view",
      "type": "function"
    },
    {
      "inputs": [
        {
          "internalType": "contract IRedemptionStrategy[]",
          "name": "strategies",
          "type": "address[]"
        },
        {
          "internalType": "bool[]",
          "name": "whitelisted",
          "type": "bool[]"
        }
      ],
      "name": "_whitelistRedemptionStrategies",
      "outputs": [],
      "stateMutability": "nonpayable",
      "type": "function"
    },
    {
      "inputs": [
        {
          "internalType": "contract IRedemptionStrategy",
          "name": "strategy",
          "type": "address"
        },
        {
          "internalType": "bool",
          "name": "whitelisted",
          "type": "bool"
        }
      ],
      "name": "_whitelistRedemptionStrategy",
      "outputs": [],
      "stateMutability": "nonpayable",
      "type": "function"
    },
    {
      "inputs": [
        {
          "internalType": "address",
          "name": "_wtoken",
          "type": "address"
        },
        {
          "internalType": "address",
          "name": "_uniswapV2router",
          "type": "address"
        },
        {
          "internalType": "address",
          "name": "_stableToken",
          "type": "address"
        },
        {
          "internalType": "address",
          "name": "_btcToken",
          "type": "address"
        },
        {
          "internalType": "bytes",
          "name": "_uniswapPairInitHashCode",
          "type": "bytes"
        }
      ],
      "name": "initialize",
      "outputs": [],
      "stateMutability": "nonpayable",
      "type": "function"
    },
    {
      "inputs": [],
      "name": "owner",
      "outputs": [
        {
          "internalType": "address",
          "name": "",
          "type": "address"
        }
      ],
      "stateMutability": "view",
      "type": "function"
    },
    {
      "inputs": [
        {
          "internalType": "address",
          "name": "sender",
          "type": "address"
        },
        {
          "internalType": "uint256",
          "name": "amount0",
          "type": "uint256"
        },
        {
          "internalType": "uint256",
          "name": "amount1",
          "type": "uint256"
        },
        {
          "internalType": "bytes",
          "name": "data",
          "type": "bytes"
        }
      ],
      "name": "pancakeCall",
      "outputs": [],
      "stateMutability": "nonpayable",
      "type": "function"
    },
    {
      "inputs": [
        {
          "internalType": "contract IERC20Upgradeable",
          "name": "underlyingCollateral",
          "type": "address"
        },
        {
          "internalType": "uint256",
          "name": "underlyingCollateralSeized",
          "type": "uint256"
        },
        {
          "internalType": "contract IRedemptionStrategy",
          "name": "strategy",
          "type": "address"
        },
        {
          "internalType": "bytes",
          "name": "strategyData",
          "type": "bytes"
        }
      ],
      "name": "redeemCustomCollateral",
      "outputs": [
        {
          "internalType": "contract IERC20Upgradeable",
          "name": "",
          "type": "address"
        },
        {
          "internalType": "uint256",
          "name": "",
          "type": "uint256"
        }
      ],
      "stateMutability": "nonpayable",
      "type": "function"
    },
    {
      "inputs": [
        {
          "internalType": "address",
          "name": "",
          "type": "address"
        }
      ],
      "name": "redemptionStrategiesWhitelist",
      "outputs": [
        {
          "internalType": "bool",
          "name": "",
          "type": "bool"
        }
      ],
      "stateMutability": "view",
      "type": "function"
    },
    {
      "inputs": [],
      "name": "renounceOwnership",
      "outputs": [],
      "stateMutability": "nonpayable",
      "type": "function"
    },
    {
      "inputs": [
        {
          "internalType": "address",
          "name": "borrower",
          "type": "address"
        },
        {
          "internalType": "contract ICEther",
          "name": "cEther",
          "type": "address"
        },
        {
          "internalType": "contract ICErc20",
          "name": "cErc20Collateral",
          "type": "address"
        },
        {
          "internalType": "uint256",
          "name": "minOutputAmount",
          "type": "uint256"
        },
        {
          "internalType": "address",
          "name": "exchangeSeizedTo",
          "type": "address"
        },
        {
          "internalType": "contract IUniswapV2Router02",
          "name": "uniswapV2Router",
          "type": "address"
        },
        {
          "internalType": "contract IRedemptionStrategy[]",
          "name": "redemptionStrategies",
          "type": "address[]"
        },
        {
          "internalType": "bytes[]",
          "name": "strategyData",
          "type": "bytes[]"
        }
      ],
      "name": "safeLiquidate",
      "outputs": [
        {
          "internalType": "uint256",
          "name": "",
          "type": "uint256"
        }
      ],
      "stateMutability": "payable",
      "type": "function"
    },
    {
      "inputs": [
        {
          "internalType": "address",
          "name": "borrower",
          "type": "address"
        },
        {
          "internalType": "uint256",
          "name": "repayAmount",
          "type": "uint256"
        },
        {
          "internalType": "contract ICErc20",
          "name": "cErc20",
          "type": "address"
        },
        {
          "internalType": "contract ICToken",
          "name": "cTokenCollateral",
          "type": "address"
        },
        {
          "internalType": "uint256",
          "name": "minOutputAmount",
          "type": "uint256"
        },
        {
          "internalType": "address",
          "name": "exchangeSeizedTo",
          "type": "address"
        },
        {
          "internalType": "contract IUniswapV2Router02",
          "name": "uniswapV2Router",
          "type": "address"
        },
        {
          "internalType": "contract IRedemptionStrategy[]",
          "name": "redemptionStrategies",
          "type": "address[]"
        },
        {
          "internalType": "bytes[]",
          "name": "strategyData",
          "type": "bytes[]"
        }
      ],
      "name": "safeLiquidate",
      "outputs": [
        {
          "internalType": "uint256",
          "name": "",
          "type": "uint256"
        }
      ],
      "stateMutability": "nonpayable",
      "type": "function"
    },
    {
      "inputs": [
        {
          "internalType": "address",
          "name": "borrower",
          "type": "address"
        },
        {
          "internalType": "uint256",
          "name": "repayAmount",
          "type": "uint256"
        },
        {
          "internalType": "contract ICEther",
          "name": "cEther",
          "type": "address"
        },
        {
          "internalType": "contract ICErc20",
          "name": "cErc20Collateral",
          "type": "address"
        },
        {
          "internalType": "uint256",
          "name": "minProfitAmount",
          "type": "uint256"
        },
        {
          "internalType": "address",
          "name": "exchangeProfitTo",
          "type": "address"
        },
        {
          "internalType": "contract IUniswapV2Router02",
          "name": "uniswapV2RouterForCollateral",
          "type": "address"
        },
        {
          "internalType": "contract IRedemptionStrategy[]",
          "name": "redemptionStrategies",
          "type": "address[]"
        },
        {
          "internalType": "bytes[]",
          "name": "strategyData",
          "type": "bytes[]"
        },
        {
          "internalType": "uint256",
          "name": "ethToCoinbase",
          "type": "uint256"
        }
      ],
      "name": "safeLiquidateToEthWithFlashLoan",
      "outputs": [
        {
          "internalType": "uint256",
          "name": "",
          "type": "uint256"
        }
      ],
      "stateMutability": "nonpayable",
      "type": "function"
    },
    {
      "inputs": [
        {
          "internalType": "address",
          "name": "borrower",
          "type": "address"
        },
        {
          "internalType": "uint256",
          "name": "repayAmount",
          "type": "uint256"
        },
        {
          "internalType": "contract ICErc20",
          "name": "cErc20",
          "type": "address"
        },
        {
          "internalType": "contract ICToken",
          "name": "cTokenCollateral",
          "type": "address"
        },
        {
          "internalType": "uint256",
          "name": "minProfitAmount",
          "type": "uint256"
        },
        {
          "internalType": "address",
          "name": "exchangeProfitTo",
          "type": "address"
        },
        {
          "internalType": "contract IUniswapV2Router02",
          "name": "uniswapV2RouterForBorrow",
          "type": "address"
        },
        {
          "internalType": "contract IUniswapV2Router02",
          "name": "uniswapV2RouterForCollateral",
          "type": "address"
        },
        {
          "internalType": "contract IRedemptionStrategy[]",
          "name": "redemptionStrategies",
          "type": "address[]"
        },
        {
          "internalType": "bytes[]",
          "name": "strategyData",
          "type": "bytes[]"
        },
        {
          "internalType": "uint256",
          "name": "ethToCoinbase",
          "type": "uint256"
        }
      ],
      "name": "safeLiquidateToTokensWithFlashLoan",
      "outputs": [
        {
          "internalType": "uint256",
          "name": "",
          "type": "uint256"
        }
      ],
      "stateMutability": "nonpayable",
      "type": "function"
    },
    {
      "inputs": [
        {
          "internalType": "address",
          "name": "newOwner",
          "type": "address"
        }
      ],
      "name": "transferOwnership",
      "outputs": [],
      "stateMutability": "nonpayable",
      "type": "function"
    },
    {
      "inputs": [
        {
          "internalType": "address",
          "name": "sender",
          "type": "address"
        },
        {
          "internalType": "uint256",
          "name": "amount0",
          "type": "uint256"
        },
        {
          "internalType": "uint256",
          "name": "amount1",
          "type": "uint256"
        },
        {
          "internalType": "bytes",
          "name": "data",
          "type": "bytes"
        }
      ],
      "name": "uniswapV2Call",
      "outputs": [],
      "stateMutability": "nonpayable",
      "type": "function"
    },
    {
      "stateMutability": "payable",
      "type": "receive"
    }
  ],
  "bytecode": {
    "object": "0x608060405234801561001057600080fd5b5061575480620000216000396000f3fe6080604052600436106101235760003560e01c806384800812116100a0578063b596625811610064578063b596625814610393578063b798d3ff146103d2578063ba8bca5a146103f2578063c8348b5414610412578063f2fde38b1461043257600080fd5b806384800812146102f55780638a0b9090146103155780638da5cb5b14610335578063a68ee11914610353578063a94c12bc1461037357600080fd5b8063700d5dd7116100e7578063700d5dd714610248578063715018a6146102685780637754f8871461027d578063789fc9ad146102b557806381738f13146102d557600080fd5b80630d1b27631461018257806310d1e85c146101a85780634a936417146101c85780635a431365146101e85780635b6723711461020857600080fd5b3661017d57333b61017b5760405162461bcd60e51b815260206004820152601960248201527f53656e646572206973206e6f74206120636f6e74726163742e0000000000000060448201526064015b60405180910390fd5b005b600080fd5b610195610190366004614883565b610452565b6040519081526020015b60405180910390f35b3480156101b457600080fd5b5061017b6101c336600461494d565b6107e2565b3480156101d457600080fd5b5061017b6101e33660046149e2565b6109f6565b3480156101f457600080fd5b5061017b610203366004614a77565b610b3c565b34801561021457600080fd5b50610238610223366004614ab0565b606d6020526000908152604090205460ff1681565b604051901515815260200161019f565b34801561025457600080fd5b50610195610263366004614acd565b610b91565b34801561027457600080fd5b5061017b610e0c565b34801561028957600080fd5b5060685461029d906001600160a01b031681565b6040516001600160a01b03909116815260200161019f565b3480156102c157600080fd5b5060695461029d906001600160a01b031681565b3480156102e157600080fd5b5060655461029d906001600160a01b031681565b34801561030157600080fd5b5061017b61031036600461494d565b610e42565b34801561032157600080fd5b5061017b610330366004614bfd565b610e56565b34801561034157600080fd5b506033546001600160a01b031661029d565b34801561035f57600080fd5b5061019561036e366004614c68565b610f97565b34801561037f57600080fd5b5060675461029d906001600160a01b031681565b34801561039f57600080fd5b506103b36103ae366004614d36565b61141a565b604080516001600160a01b03909316835260208301919091520161019f565b3480156103de57600080fd5b5060665461029d906001600160a01b031681565b3480156103fe57600080fd5b50606b5461029d906001600160a01b031681565b34801561041e57600080fd5b5061019561042d366004614da1565b61151d565b34801561043e57600080fd5b5061017b61044d366004614ab0565b611830565b60008034116104735760405162461bcd60e51b815260040161017290614e76565b604051635572051560e11b81526001600160a01b038a81166004830152888116602483015289169063aae40a2a9034906044016000604051808303818588803b1580156104bf57600080fd5b505af11580156104d3573d6000803e3d6000fd5b5050505050866001600160a01b0316856001600160a01b0316146107cb576040516370a0823160e01b81523060048201526000906001600160a01b038916906370a0823190602401602060405180830381865afa158015610538573d6000803e3d6000fd5b505050506040513d601f19601f8201168201806040525081019061055c9190614ed3565b905080156107c95760405163db006a7560e01b8152600481018290526000906001600160a01b038a169063db006a75906024016020604051808303816000875af11580156105ae573d6000803e3d6000fd5b505050506040513d601f19601f820116820180604052508101906105d29190614ed3565b905080156105f25760405162461bcd60e51b815260040161017290614eec565b6000896001600160a01b0316636f307dc36040518163ffffffff1660e01b8152600401602060405180830381865afa158015610632573d6000803e3d6000fd5b505050506040513d601f19601f820116820180604052508101906106569190614f4a565b8651909150156107ba5784518651146106815760405162461bcd60e51b815260040161017290614f67565b6040516370a0823160e01b81523060048201526000906001600160a01b038316906370a0823190602401602060405180830381865afa1580156106c8573d6000803e3d6000fd5b505050506040513d601f19601f820116820180604052508101906106ec9190614ed3565b905060005b87518110156107b757306001600160a01b031663b596625884848b858151811061071d5761071d614fea565b60200260200101518b868151811061073757610737614fea565b60200260200101516040518563ffffffff1660e01b815260040161075e9493929190615058565b60408051808303816000875af115801561077c573d6000803e3d6000fd5b505050506040513d601f19601f820116820180604052508101906107a0919061508b565b9093509150806107af816150cf565b9150506106f1565b50505b6107c681898b8a6118cb565b50505b505b6107d58587611cf4565b9998505050505050505050565b60006107f26064604484866150ea565b8101906107ff9190614ab0565b9050806001600160a01b031663ac784ddc6040518163ffffffff1660e01b8152600401602060405180830381865afa15801561083f573d6000803e3d6000fd5b505050506040513d601f19601f820116820180604052508101906108639190615114565b1561092b5760008080808080808061087e8a6004818e6150ea565b81019061088b9190614c68565b985098509850985098509850509750975060006103e5886103e86108af9190615131565b6108b99190615166565b905060006103e56108cc8a6103e8615131565b6108d6919061517a565b11156108ea57806108e6816150cf565b9150505b6108fc89898c8a8a8a878b8b8b611f19565b606c80546001600160a01b0319166001600160a01b0392909216919091179055506109ee975050505050505050565b600080808080808080806109428b6004818f6150ea565b81019061094f919061518e565b9950995099509950995099509950509850985060006103e5896103e86109759190615131565b61097f9190615166565b905060006103e56109928b6103e8615131565b61099c919061517a565b11156109b057806109ac816150cf565b9150505b6109c38a8a8d8b8b8b878c8c8c8c61212c565b606c80546001600160a01b0319166001600160a01b0392909216919091179055505050505050505050505b505050505050565b6000610a0260016123c0565b90508015610a1a576000805461ff0019166101001790555b610a2261244d565b6001600160a01b038516610a785760405162461bcd60e51b815260206004820152601d60248201527f556e69737761705632466163746f7279206e6f7420646566696e65642e0000006044820152606401610172565b606580546001600160a01b03199081166001600160a01b03898116918217909355606780548316898516908117909155606880548416898616179055606980548416948816949094179093556066805483169091179055606b805490911690911790558151610aee90606a9060208501906145ff565b5080156109ee576000805461ff0019169055604051600181527f7f26b83ff96e1f2b6a682f133852f6798a09c465da95921460cefb38474024989060200160405180910390a1505050505050565b6033546001600160a01b03163314610b665760405162461bcd60e51b81526004016101729061526a565b6001600160a01b03919091166000908152606d60205260409020805460ff1916911515919091179055565b6000808b11610bb25760405162461bcd60e51b81526004016101729061529f565b60008060008c6001600160a01b0316636f307dc36040518163ffffffff1660e01b8152600401602060405180830381865afa158015610bf5573d6000803e3d6000fd5b505050506040513d601f19601f82011682018060405250810190610c199190614f4a565b9050886001600160a01b031663c45a01556040518163ffffffff1660e01b8152600401602060405180830381865afa158015610c59573d6000803e3d6000fd5b505050506040513d601f19601f82011682018060405250810190610c7d9190614f4a565b60655460405163e6a4390560e01b81526001600160a01b038481166004830152918216602482015291169063e6a4390590604401602060405180830381865afa158015610cce573d6000803e3d6000fd5b505050506040513d601f19601f82011682018060405250810190610cf29190614f4a565b9250806001600160a01b0316836001600160a01b0316630dfe16816040518163ffffffff1660e01b8152600401602060405180830381865afa158015610d3c573d6000803e3d6000fd5b505050506040513d601f19601f82011682018060405250810190610d609190614f4a565b6001600160a01b031614915050816001600160a01b031663022c0d9f82610d88576000610d8a565b8e5b8315610d97576000610d99565b8f5b306000366040518663ffffffff1660e01b8152600401610dbd9594939291906152e3565b600060405180830381600087803b158015610dd757600080fd5b505af1158015610deb573d6000803e3d6000fd5b50505050610dfa898b8661247c565b9e9d5050505050505050505050505050565b6033546001600160a01b03163314610e365760405162461bcd60e51b81526004016101729061526a565b610e4060006125a0565b565b610e4f85858585856107e2565b5050505050565b6033546001600160a01b03163314610e805760405162461bcd60e51b81526004016101729061526a565b8215801590610e8e57508281145b610f005760405162461bcd60e51b815260206004820152603f60248201527f6c697374206f66207374726174656769657320656d707479206f72207768697460448201527f656c69737420646f6573206e6f74206d6174636820697473206c656e677468006064820152608401610172565b60005b83811015610e4f57828282818110610f1d57610f1d614fea565b9050602002016020810190610f329190615332565b606d6000878785818110610f4857610f48614fea565b9050602002016020810190610f5d9190614ab0565b6001600160a01b031681526020810191909152604001600020805460ff191691151591909117905580610f8f816150cf565b915050610f03565b6000808911610fb85760405162461bcd60e51b815260040161017290614e76565b6000886001600160a01b0316636f307dc36040518163ffffffff1660e01b8152600401602060405180830381865afa158015610ff8573d6000803e3d6000fd5b505050506040513d601f19601f8201168201806040525081019061101c9190614f4a565b90506110336001600160a01b03821633308d6125f2565b61103e818a8c61265d565b604051637af1e23160e11b81526001600160a01b038c81166004830152602482018c905289811660448301528a169063f5e3c462906064016020604051808303816000875af1158015611095573d6000803e3d6000fd5b505050506040513d601f19601f820116820180604052508101906110b99190614ed3565b156110fc5760405162461bcd60e51b81526020600482015260136024820152722634b8bab4b230ba34b7b7103330b4b632b21760691b6044820152606401610172565b876001600160a01b0316866001600160a01b031614611401576040516370a0823160e01b81523060048201526000906001600160a01b038a16906370a0823190602401602060405180830381865afa15801561115c573d6000803e3d6000fd5b505050506040513d601f19601f820116820180604052508101906111809190614ed3565b905080156113ff5760405163db006a7560e01b8152600481018290526000906001600160a01b038b169063db006a75906024016020604051808303816000875af11580156111d2573d6000803e3d6000fd5b505050506040513d601f19601f820116820180604052508101906111f69190614ed3565b905080156112165760405162461bcd60e51b815260040161017290614eec565b896001600160a01b031663ac784ddc6040518163ffffffff1660e01b8152600401602060405180830381865afa158015611254573d6000803e3d6000fd5b505050506040513d601f19601f820116820180604052508101906112789190615114565b1561128f5761128a6000898b8a6118cb565b6113fd565b60008a6001600160a01b0316636f307dc36040518163ffffffff1660e01b8152600401602060405180830381865afa1580156112cf573d6000803e3d6000fd5b505050506040513d601f19601f820116820180604052508101906112f39190614f4a565b8751909150156113ef57855187511461131e5760405162461bcd60e51b815260040161017290614f67565b6040516370a0823160e01b81523060048201526000906001600160a01b038316906370a0823190602401602060405180830381865afa158015611365573d6000803e3d6000fd5b505050506040513d601f19601f820116820180604052508101906113899190614ed3565b905060005b88518110156113ec576113d583838b84815181106113ae576113ae614fea565b60200260200101518b85815181106113c8576113c8614fea565b602002602001015161141a565b9093509150806113e4816150cf565b91505061138e565b50505b6113fb818a8c8b6118cb565b505b505b505b61140b8688611cf4565b9b9a5050505050505050505050565b6001600160a01b0382166000908152606d6020526040812054819060ff1661149f5760405162461bcd60e51b815260206004820152603260248201527f6f6e6c792077686974656c697374656420726564656d7074696f6e20737472616044820152711d1959da595cc818d85b881899481d5cd95960721b6064820152608401610172565b60006114f9856310badf4e60e01b8989886040516024016114c29392919061534f565b60408051601f198184030181529190526020810180516001600160e01b03166001600160e01b03199093169290921790915261270c565b90508080602001905181019061150f919061508b565b925092505094509492505050565b6000808a1161153e5760405162461bcd60e51b81526004016101729061529f565b600061170e606b60009054906101000a90046001600160a01b03166001600160a01b031663c45a01556040518163ffffffff1660e01b8152600401602060405180830381865afa158015611596573d6000803e3d6000fd5b505050506040513d601f19601f820116820180604052508101906115ba9190614f4a565b6067546001600160a01b03898116911614801561164d575060685460408051636f307dc360e01b815290516001600160a01b03928316928e1691636f307dc39160048083019260209291908290030181865afa15801561161e573d6000803e3d6000fd5b505050506040513d601f19601f820116820180604052508101906116429190614f4a565b6001600160a01b0316145b611662576068546001600160a01b031661166f565b6069546001600160a01b03165b606554606a80546001600160a01b039092169161168b90615376565b80601f01602080910402602001604051908101604052809291908181526020018280546116b790615376565b80156117045780601f106116d957610100808354040283529160200191611704565b820191906000526020600020905b8154815290600101906020018083116116e757829003601f168201915b5050505050612800565b90506000816001600160a01b0316630dfe16816040518163ffffffff1660e01b8152600401602060405180830381865afa158015611750573d6000803e3d6000fd5b505050506040513d601f19601f820116820180604052508101906117749190614f4a565b6065549091506001600160a01b038084169163022c0d9f9180851691161461179d57600061179f565b8d5b6065546001600160a01b03858116911614156117bc5760006117be565b8e5b306000366040518663ffffffff1660e01b81526004016117e29594939291906152e3565b600060405180830381600087803b1580156117fc57600080fd5b505af1158015611810573d6000803e3d6000fd5b5050505061181f888a8661247c565b9d9c50505050505050505050505050565b6033546001600160a01b0316331461185a5760405162461bcd60e51b81526004016101729061526a565b6001600160a01b0381166118bf5760405162461bcd60e51b815260206004820152602660248201527f4f776e61626c653a206e6577206f776e657220697320746865207a65726f206160448201526564647265737360d01b6064820152608401610172565b6118c8816125a0565b50565b836001600160a01b0316836001600160a01b031614156118ea57611cee565b6001600160a01b038416611a0e576065546001600160a01b038481169116141561197c57606660009054906101000a90046001600160a01b03166001600160a01b031663d0e30db0476040518263ffffffff1660e01b81526004016000604051808303818588803b15801561195e57600080fd5b505af1158015611972573d6000803e3d6000fd5b5050505050611cee565b6065546001600160a01b0380831691637ff36ab591479186916119a091168861288b565b30426040518663ffffffff1660e01b81526004016119c194939291906153f5565b60006040518083038185885af11580156119df573d6000803e3d6000fd5b50505050506040513d6000823e601f3d908101601f19168201604052611a08919081019061542a565b50611cee565b6065546001600160a01b038581169116148015611a3257506001600160a01b038316155b15611b03576066546065546040516370a0823160e01b81523060048201526001600160a01b0392831692632e1a7d4d9216906370a0823190602401602060405180830381865afa158015611a8a573d6000803e3d6000fd5b505050506040513d601f19601f82011682018060405250810190611aae9190614ed3565b6040518263ffffffff1660e01b8152600401611acc91815260200190565b600060405180830381600087803b158015611ae657600080fd5b505af1158015611afa573d6000803e3d6000fd5b50505050611cee565b6040516370a0823160e01b815230600482015284906000906001600160a01b038316906370a0823190602401602060405180830381865afa158015611b4c573d6000803e3d6000fd5b505050506040513d601f19601f82011682018060405250810190611b709190614ed3565b9050611b7d82848361265d565b6001600160a01b038516611c1f576065546001600160a01b03808516916318cbafe59184918891611bb0918c911661288b565b30426040518663ffffffff1660e01b8152600401611bd29594939291906154af565b6000604051808303816000875af1158015611bf1573d6000803e3d6000fd5b505050506040513d6000823e601f3d908101601f19168201604052611c19919081019061542a565b506109ee565b6065546001600160a01b03808516916338ed173991849188918b811691161480611c5657506065546001600160a01b038a81169116145b611c7757606554611c72908b906001600160a01b03168b612918565b611c81565b611c818a8a61288b565b30426040518663ffffffff1660e01b8152600401611ca39594939291906154af565b6000604051808303816000875af1158015611cc2573d6000803e3d6000fd5b505050506040513d6000823e601f3d908101601f19168201604052611cea919081019061542a565b5050505b50505050565b6000806001600160a01b038416611e2857504782811015611d6b5760405162461bcd60e51b815260206004820152602b60248201527f4d696e696d756d204e4154495645206f757470757420616d6f756e74206e6f7460448201526a1039b0ba34b9b334b2b21760a91b6064820152608401610172565b8015611e2357604051600090339083908381818185875af1925050503d8060008114611db3576040519150601f19603f3d011682016040523d82523d6000602084013e611db8565b606091505b5050905080611e215760405162461bcd60e51b815260206004820152602f60248201527f4661696c656420746f207472616e73666572206f7574707574204e415449564560448201526e103a379036b9b39739b2b73232b91760891b6064820152608401610172565b505b611f12565b6040516370a0823160e01b815230600482015284906001600160a01b038216906370a0823190602401602060405180830381865afa158015611e6e573d6000803e3d6000fd5b505050506040513d601f19601f82011682018060405250810190611e929190614ed3565b915083821015611ef65760405162461bcd60e51b815260206004820152602960248201527f4d696e696d756d20746f6b656e206f757470757420616d6f756e74206e6f742060448201526839b0ba34b334b2b21760b91b6064820152608401610172565b8115611f1057611f106001600160a01b03821633846129db565b505b9392505050565b606654604051632e1a7d4d60e01b8152600481018b90526000916001600160a01b031690632e1a7d4d90602401600060405180830381600087803b158015611f6057600080fd5b505af1158015611f74573d6000803e3d6000fd5b5050604051635572051560e11b81526001600160a01b038e811660048301528b811660248301528c16925063aae40a2a91508c906044016000604051808303818588803b158015611fc457600080fd5b505af1158015611fd8573d6000803e3d6000fd5b50506040516370a0823160e01b8152306004820152600093506001600160a01b038c1692506370a082319150602401602060405180830381865afa158015612024573d6000803e3d6000fd5b505050506040513d601f19601f820116820180604052508101906120489190614ed3565b90506000811161208f5760405162461bcd60e51b815260206004820152601260248201527127379031aa37b5b2b7399039b2b4bd32b21760711b6044820152606401610172565b60405163db006a7560e01b8152600481018290526000906001600160a01b038b169063db006a75906024016020604051808303816000875af11580156120d9573d6000803e3d6000fd5b505050506040513d601f19601f820116820180604052508101906120fd9190614ed3565b9050801561211d5760405162461bcd60e51b815260040161017290614eec565b61181f8c8b8a8a8a8a8a612a10565b6000808a6001600160a01b0316636f307dc36040518163ffffffff1660e01b8152600401602060405180830381865afa15801561216d573d6000803e3d6000fd5b505050506040513d601f19601f820116820180604052508101906121919190614f4a565b905061219e818c8e61265d565b604051637af1e23160e11b81526001600160a01b038e81166004830152602482018e90528b811660448301528c169063f5e3c462906064016020604051808303816000875af11580156121f5573d6000803e3d6000fd5b505050506040513d601f19601f820116820180604052508101906122199190614ed3565b1561225c5760405162461bcd60e51b81526020600482015260136024820152722634b8bab4b230ba34b7b7103330b4b632b21760691b6044820152606401610172565b6040516370a0823160e01b81523060048201526000906001600160a01b038c16906370a0823190602401602060405180830381865afa1580156122a3573d6000803e3d6000fd5b505050506040513d601f19601f820116820180604052508101906122c79190614ed3565b90506000811161230e5760405162461bcd60e51b815260206004820152601260248201527127379031aa37b5b2b7399039b2b4bd32b21760711b6044820152606401610172565b60405163db006a7560e01b8152600481018290526000906001600160a01b038d169063db006a75906024016020604051808303816000875af1158015612358573d6000803e3d6000fd5b505050506040513d601f19601f8201168201806040525081019061237c9190614ed3565b9050801561239c5760405162461bcd60e51b815260040161017290614eec565b6123ad8e8d8c8c8c8c8c8c8b6131fa565b9f9e505050505050505050505050505050565b60008054610100900460ff1615612407578160ff1660011480156123e35750303b155b6123ff5760405162461bcd60e51b8152600401610172906154eb565b506000919050565b60005460ff80841691161061242e5760405162461bcd60e51b8152600401610172906154eb565b506000805460ff191660ff92909216919091179055600190565b919050565b600054610100900460ff166124745760405162461bcd60e51b815260040161017290615539565b610e40613c02565b60006001600160a01b03841661251857606c546124b8906001600160a01b0316856124a78587615584565b606b546001600160a01b03166118cb565b81156125075760405141908390600081818185875af1925050503d80600081146124fe576040519150601f19603f3d011682016040523d82523d6000602084013e612503565b606091505b5050505b6125118484611cf4565b9050611f12565b811561258557606c54606b5461253c916001600160a01b0390811691859116613c32565b60405141908390600081818185875af1925050503d806000811461257c576040519150601f19603f3d011682016040523d82523d6000602084013e612581565b606091505b5050505b606c54612507906001600160a01b0316856124a78587615584565b603380546001600160a01b038381166001600160a01b0319831681179093556040519116919082907f8be0079c531659141344cd1fd0a4f28419497f9722a3daafe3b4186f6b6457e090600090a35050565b6040516001600160a01b0380851660248301528316604482015260648101829052611cee9085906323b872dd60e01b906084015b60408051601f198184030181529190526020810180516001600160e01b03166001600160e01b031990931692909217909152613dbd565b604051636eb1769f60e11b81523060048201526001600160a01b0383811660248301526000919085169063dd62ed3e90604401602060405180830381865afa1580156126ad573d6000803e3d6000fd5b505050506040513d601f19601f820116820180604052508101906126d19190614ed3565b905081811015611cee5780156126f6576126f66001600160a01b038516846000613e8f565b611cee6001600160a01b03851684600019613e8f565b60606001600160a01b0383163b6127745760405162461bcd60e51b815260206004820152602660248201527f416464726573733a2064656c65676174652063616c6c20746f206e6f6e2d636f6044820152651b9d1c9858dd60d21b6064820152608401610172565b600080846001600160a01b03168460405161278f919061559c565b600060405180830381855af49150503d80600081146127ca576040519150601f19603f3d011682016040523d82523d6000602084013e6127cf565b606091505b50915091506127f7828260405180606001604052806027815260200161572160279139613fa4565b95945050505050565b600080600061280f8686613fdd565b6040516bffffffffffffffffffffffff19606084811b8216602084015283901b166034820152919350915087906048016040516020818303038152906040528051906020012085604051602001612868939291906155b8565b60408051601f198184030181529190528051602090910120979650505050505050565b6040805160028082526060808301845292600092919060208301908036833701905050905083816000815181106128c4576128c4614fea565b60200260200101906001600160a01b031690816001600160a01b03168152505082816001815181106128f8576128f8614fea565b6001600160a01b0390921660209283029190910190910152905092915050565b6040805160038082526080820190925260609160009190602082018480368337019050509050848160008151811061295257612952614fea565b60200260200101906001600160a01b031690816001600160a01b031681525050838160018151811061298657612986614fea565b60200260200101906001600160a01b031690816001600160a01b03168152505082816002815181106129ba576129ba614fea565b6001600160a01b039092166020928302919091019091015290509392505050565b6040516001600160a01b038316602482015260448101829052612a0b90849063a9059cbb60e01b90606401612626565b505050565b600080876001600160a01b0316636f307dc36040518163ffffffff1660e01b8152600401602060405180830381865afa158015612a51573d6000803e3d6000fd5b505050506040513d601f19601f82011682018060405250810190612a759190614f4a565b6040516370a0823160e01b81523060048201529091506000906001600160a01b038316906370a0823190602401602060405180830381865afa158015612abf573d6000803e3d6000fd5b505050506040513d601f19601f82011682018060405250810190612ae39190614ed3565b855190915015612b64578351855114612b0e5760405162461bcd60e51b815260040161017290614f67565b60005b8551811015612b6257612b4b8383888481518110612b3157612b31614fea565b60200260200101518885815181106113c8576113c8614fea565b909350915080612b5a816150cf565b915050612b11565b505b6067546001600160a01b038781169116148015612c2d575060685460408051636f307dc360e01b815290516001600160a01b03928316928c1691636f307dc39160048083019260209291908290030181865afa158015612bc8573d6000803e3d6000fd5b505050506040513d601f19601f82011682018060405250810190612bec9190614f4a565b6001600160a01b031614612c0b576068546001600160a01b0316612c18565b6069546001600160a01b03165b6001600160a01b0316826001600160a01b0316145b15612e32576000612cb7876001600160a01b031663c45a01556040518163ffffffff1660e01b8152600401602060405180830381865afa158015612c75573d6000803e3d6000fd5b505050506040513d601f19601f82011682018060405250810190612c999190614f4a565b6065548d90612cb29087906001600160a01b031661288b565b6140d3565b600081518110612cc957612cc9614fea565b6020026020010151905081811115612d495760405162461bcd60e51b815260206004820152603760248201527f466c6173686c6f616e2072657475726e20616d6f756e7420677265617465722060448201527f7468616e207365697a656420636f6c6c61746572616c2e0000000000000000006064820152608401610172565b60405163a9059cbb60e01b8152336004820152602481018290526001600160a01b0384169063a9059cbb906044016020604051808303816000875af1158015612d96573d6000803e3d6000fd5b505050506040513d601f19601f82011682018060405250810190612dba9190615114565b612e2c5760405162461bcd60e51b815260206004820152603b60248201527f4661696c656420746f207472616e73666572206e6f6e2d575f4e41544956452060448201527f746f6b656e73206261636b20746f20666c6173686c656e6465722e00000000006064820152608401610172565b506131ed565b6065546001600160a01b0383811691161461301a576001600160a01b038216612ec357606660009054906101000a90046001600160a01b03166001600160a01b031663d0e30db0886040518263ffffffff1660e01b81526004016000604051808303818588803b158015612ea557600080fd5b505af1158015612eb9573d6000803e3d6000fd5b505050505061301a565b612ece82878361265d565b816001600160a01b0316886001600160a01b03161415612f7c576065546001600160a01b0380881691638803dbee918a918591612f0d9188911661288b565b30426040518663ffffffff1660e01b8152600401612f2f9594939291906154af565b6000604051808303816000875af1158015612f4e573d6000803e3d6000fd5b505050506040513d6000823e601f3d908101601f19168201604052612f76919081019061542a565b5061301a565b6065546001600160a01b03808816916338ed17399184918b91612fa19188911661288b565b30426040518663ffffffff1660e01b8152600401612fc39594939291906154af565b6000604051808303816000875af1158015612fe2573d6000803e3d6000fd5b505050506040513d6000823e601f3d908101601f1916820160405261300a919081019061542a565b506065546001600160a01b031691505b6065546040516370a0823160e01b81523060048201526001600160a01b03909116906370a0823190602401602060405180830381865afa158015613062573d6000803e3d6000fd5b505050506040513d601f19601f820116820180604052508101906130869190614ed3565b8711156131135760405162461bcd60e51b815260206004820152604f60248201527f466c6173686c6f616e2072657475726e20616d6f756e7420677265617465722060448201527f7468616e20575f4e41544956452065786368616e6765642066726f6d2073656960648201526e3d32b21031b7b63630ba32b930b61760891b608482015260a401610172565b60665460405163a9059cbb60e01b8152336004820152602481018990526001600160a01b039091169063a9059cbb906044016020604051808303816000875af1158015613164573d6000803e3d6000fd5b505050506040513d601f19601f820116820180604052508101906131889190615114565b6131ed5760405162461bcd60e51b815260206004820152603060248201527f4661696c656420746f207472616e7366657220575f4e4154495645206261636b60448201526f103a3790333630b9b43632b73232b91760811b6064820152608401610172565b5098975050505050505050565b6000886001600160a01b031663ac784ddc6040518163ffffffff1660e01b8152600401602060405180830381865afa15801561323a573d6000803e3d6000fd5b505050506040513d601f19601f8201168201806040525081019061325e9190615114565b1561347f57600047905060006132e7886001600160a01b031663c45a01556040518163ffffffff1660e01b8152600401602060405180830381865afa1580156132ab573d6000803e3d6000fd5b505050506040513d601f19601f820116820180604052508101906132cf9190614f4a565b6065548e90612cb2906001600160a01b03168861288b565b6000815181106132f9576132f9614fea565b60200260200101519050818111156133795760405162461bcd60e51b815260206004820152603760248201527f5365697a6564204e415449564520636f6c6c61746572616c206e6f7420656e6f60448201527f75676820746f20726570617920666c6173686c6f616e2e0000000000000000006064820152608401610172565b606660009054906101000a90046001600160a01b03166001600160a01b031663d0e30db0826040518263ffffffff1660e01b81526004016000604051808303818588803b1580156133c957600080fd5b505af11580156133dd573d6000803e3d6000fd5b505060665460405163a9059cbb60e01b8152336004820152602481018690526001600160a01b03909116935063a9059cbb925060440190506020604051808303816000875af1158015613434573d6000803e3d6000fd5b505050506040513d601f19601f820116820180604052508101906134589190615114565b6134745760405162461bcd60e51b815260040161017290615601565b6000925050506107d5565b6000896001600160a01b0316636f307dc36040518163ffffffff1660e01b8152600401602060405180830381865afa1580156134bf573d6000803e3d6000fd5b505050506040513d601f19601f820116820180604052508101906134e39190614f4a565b6040516370a0823160e01b81523060048201529091506000906001600160a01b038316906370a0823190602401602060405180830381865afa15801561352d573d6000803e3d6000fd5b505050506040513d601f19601f820116820180604052508101906135519190614ed3565b86519091501561364e5784518651146135f85760405162461bcd60e51b815260206004820152605b60248201527f49526564656d7074696f6e537472617465677920636f6e74726163742061727260448201527f617920616e64207374726174656779206461746120627974657320617272617960648201527f206d6e75737420746865207468652073616d65206c656e6774682e0000000000608482015260a401610172565b60005b865181101561364c57613635838389848151811061361b5761361b614fea565b60200260200101518985815181106113c8576113c8614fea565b909350915080613644816150cf565b9150506135fb565b505b836001600160a01b0316826001600160a01b0316141561384c576040516370a0823160e01b81523060048201526001600160a01b038516906370a0823190602401602060405180830381865afa1580156136ac573d6000803e3d6000fd5b505050506040513d601f19601f820116820180604052508101906136d09190614ed3565b8911156137615760405162461bcd60e51b815260206004820152605360248201527f546f6b656e20666c6173686c6f616e2072657475726e20616d6f756e7420677260448201527f6561746572207468616e20746f6b656e732065786368616e6765642066726f6d6064820152721039b2b4bd32b21031b7b63630ba32b930b61760691b608482015260a401610172565b60405163a9059cbb60e01b8152336004820152602481018a90526001600160a01b0385169063a9059cbb906044016020604051808303816000875af11580156137ae573d6000803e3d6000fd5b505050506040513d601f19601f820116820180604052508101906137d29190615114565b6138445760405162461bcd60e51b815260206004820152603e60248201527f4661696c656420746f20726570617920746f6b656e20666c6173686c6f616e2060448201527f6f6e20626f72726f7720286e6f6e2d575f4e41544956452920736964652e00006064820152608401610172565b5090506107d5565b60006138cb896001600160a01b031663c45a01556040518163ffffffff1660e01b8152600401602060405180830381865afa15801561388f573d6000803e3d6000fd5b505050506040513d601f19601f820116820180604052508101906138b39190614f4a565b6065548f90612cb2906001600160a01b03168961288b565b6000815181106138dd576138dd614fea565b60209081029190910101516065549091506001600160a01b03848116911614613a495761390b83898461265d565b826001600160a01b03168b6001600160a01b031614156139b9576065546001600160a01b03808a1691638803dbee918491869161394a9189911661288b565b30426040518663ffffffff1660e01b815260040161396c9594939291906154af565b6000604051808303816000875af115801561398b573d6000803e3d6000fd5b505050506040513d6000823e601f3d908101601f191682016040526139b3919081019061542a565b50613a49565b6065546001600160a01b03808a16916338ed173991859185916139de9189911661288b565b30426040518663ffffffff1660e01b8152600401613a009594939291906154af565b6000604051808303816000875af1158015613a1f573d6000803e3d6000fd5b505050506040513d6000823e601f3d908101601f19168201604052613a47919081019061542a565b505b6065546040516370a0823160e01b81523060048201526001600160a01b03909116906370a0823190602401602060405180830381865afa158015613a91573d6000803e3d6000fd5b505050506040513d601f19601f82011682018060405250810190613ab59190614ed3565b811115613b3b5760405162461bcd60e51b815260206004820152604860248201527f4e6f7420656e6f75676820575f4e41544956452065786368616e67656420667260448201527f6f6d207365697a656420636f6c6c61746572616c20746f20726570617920666c60648201526730b9b43637b0b71760c11b608482015260a401610172565b60665460405163a9059cbb60e01b8152336004820152602481018390526001600160a01b039091169063a9059cbb906044016020604051808303816000875af1158015613b8c573d6000803e3d6000fd5b505050506040513d601f19601f82011682018060405250810190613bb09190615114565b613bcc5760405162461bcd60e51b815260040161017290615601565b826001600160a01b03168b6001600160a01b031614613bf6576065546001600160a01b0316613bf8565b825b93505050506107d5565b600054610100900460ff16613c295760405162461bcd60e51b815260040161017290615539565b610e40336125a0565b6001600160a01b038316613c4557505050565b6065546001600160a01b0384811691161415613cb557606654604051632e1a7d4d60e01b8152600481018490526001600160a01b0390911690632e1a7d4d90602401600060405180830381600087803b158015613ca157600080fd5b505af1158015611cea573d6000803e3d6000fd5b6040516370a0823160e01b815230600482015283906000906001600160a01b038316906370a0823190602401602060405180830381865afa158015613cfe573d6000803e3d6000fd5b505050506040513d601f19601f82011682018060405250810190613d229190614ed3565b9050613d2f82848361265d565b6065546001600160a01b0380851691634a25d94a9187918591613d54918b911661288b565b30426040518663ffffffff1660e01b8152600401613d769594939291906154af565b6000604051808303816000875af1158015613d95573d6000803e3d6000fd5b505050506040513d6000823e601f3d908101601f191682016040526109ee919081019061542a565b6000613e12826040518060400160405280602081526020017f5361666545524332303a206c6f772d6c6576656c2063616c6c206661696c6564815250856001600160a01b03166142609092919063ffffffff16565b805190915015612a0b5780806020019051810190613e309190615114565b612a0b5760405162461bcd60e51b815260206004820152602a60248201527f5361666545524332303a204552433230206f7065726174696f6e20646964206e6044820152691bdd081cdd58d8d9595960b21b6064820152608401610172565b801580613f095750604051636eb1769f60e11b81523060048201526001600160a01b03838116602483015284169063dd62ed3e90604401602060405180830381865afa158015613ee3573d6000803e3d6000fd5b505050506040513d601f19601f82011682018060405250810190613f079190614ed3565b155b613f745760405162461bcd60e51b815260206004820152603660248201527f5361666545524332303a20617070726f76652066726f6d206e6f6e2d7a65726f60448201527520746f206e6f6e2d7a65726f20616c6c6f77616e636560501b6064820152608401610172565b6040516001600160a01b038316602482015260448101829052612a0b90849063095ea7b360e01b90606401612626565b60608315613fb3575081611f12565b825115613fc35782518084602001fd5b8160405162461bcd60e51b81526004016101729190615678565b600080826001600160a01b0316846001600160a01b0316141561404e5760405162461bcd60e51b815260206004820152602360248201527f50616e63616b654c6962726172793a204944454e544943414c5f41444452455360448201526253455360e81b6064820152608401610172565b826001600160a01b0316846001600160a01b03161061406e578284614071565b83835b90925090506001600160a01b0382166140cc5760405162461bcd60e51b815260206004820152601c60248201527f50616e63616b654c6962726172793a205a45524f5f41444452455353000000006044820152606401610172565b9250929050565b60606002825110156141275760405162461bcd60e51b815260206004820152601c60248201527f50616e63616b654c6962726172793a20494e56414c49445f50415448000000006044820152606401610172565b81516001600160401b03811115614140576141406146b8565b604051908082528060200260200182016040528015614169578160200160208202803683370190505b50905082816001835161417c919061568b565b8151811061418c5761418c614fea565b6020026020010181815250506000600183516141a8919061568b565b90505b8015611f10576000806141fb87866141c460018761568b565b815181106141d4576141d4614fea565b60200260200101518786815181106141ee576141ee614fea565b6020026020010151614277565b9150915061422384848151811061421457614214614fea565b602002602001015183836143ac565b8461422f60018661568b565b8151811061423f5761423f614fea565b60200260200101818152505050508080614258906156a2565b9150506141ab565b606061426f84846000856144ce565b949350505050565b60008060006142868585613fdd565b5060405163e6a4390560e01b81526001600160a01b038781166004830152868116602483015291925060009182919089169063e6a4390590604401602060405180830381865afa1580156142de573d6000803e3d6000fd5b505050506040513d601f19601f820116820180604052508101906143029190614f4a565b6001600160a01b0316630902f1ac6040518163ffffffff1660e01b8152600401606060405180830381865afa15801561433f573d6000803e3d6000fd5b505050506040513d601f19601f8201168201806040525081019061436391906156d0565b506001600160701b031691506001600160701b03169150826001600160a01b0316876001600160a01b03161461439a57808261439d565b81815b90999098509650505050505050565b60008084116144105760405162461bcd60e51b815260206004820152602a60248201527f50616e63616b654c6962726172793a20494e53554646494349454e545f4f555460448201526914155517d05353d5539560b21b6064820152608401610172565b6000831180156144205750600082115b61447b5760405162461bcd60e51b815260206004820152602660248201527f50616e63616b654c6962726172793a20494e53554646494349454e545f4c495160448201526555494449545960d01b6064820152608401610172565b60006144878585615131565b614493906103e8615131565b905060006144a1868561568b565b6144ad906103e5615131565b90506144b98183615166565b6144c4906001615584565b9695505050505050565b60608247101561452f5760405162461bcd60e51b815260206004820152602660248201527f416464726573733a20696e73756666696369656e742062616c616e636520666f6044820152651c8818d85b1b60d21b6064820152608401610172565b6001600160a01b0385163b6145865760405162461bcd60e51b815260206004820152601d60248201527f416464726573733a2063616c6c20746f206e6f6e2d636f6e74726163740000006044820152606401610172565b600080866001600160a01b031685876040516145a2919061559c565b60006040518083038185875af1925050503d80600081146145df576040519150601f19603f3d011682016040523d82523d6000602084013e6145e4565b606091505b50915091506145f4828286613fa4565b979650505050505050565b82805461460b90615376565b90600052602060002090601f01602090048101928261462d5760008555614673565b82601f1061464657805160ff1916838001178555614673565b82800160010185558215614673579182015b82811115614673578251825591602001919060010190614658565b5061467f929150614683565b5090565b5b8082111561467f5760008155600101614684565b6001600160a01b03811681146118c857600080fd5b803561244881614698565b634e487b7160e01b600052604160045260246000fd5b604051601f8201601f191681016001600160401b03811182821017156146f6576146f66146b8565b604052919050565b60006001600160401b03821115614717576147176146b8565b5060051b60200190565b600082601f83011261473257600080fd5b81356020614747614742836146fe565b6146ce565b82815260059290921b8401810191818101908684111561476657600080fd5b8286015b8481101561478a57803561477d81614698565b835291830191830161476a565b509695505050505050565b600082601f8301126147a657600080fd5b81356001600160401b038111156147bf576147bf6146b8565b6147d2601f8201601f19166020016146ce565b8181528460208386010111156147e757600080fd5b816020850160208301376000918101602001919091529392505050565b600082601f83011261481557600080fd5b81356020614825614742836146fe565b82815260059290921b8401810191818101908684111561484457600080fd5b8286015b8481101561478a5780356001600160401b038111156148675760008081fd5b6148758986838b0101614795565b845250918301918301614848565b600080600080600080600080610100898b0312156148a057600080fd5b88356148ab81614698565b975060208901356148bb81614698565b965060408901356148cb81614698565b95506060890135945060808901356148e281614698565b935060a08901356148f281614698565b925060c08901356001600160401b038082111561490e57600080fd5b61491a8c838d01614721565b935060e08b013591508082111561493057600080fd5b5061493d8b828c01614804565b9150509295985092959890939650565b60008060008060006080868803121561496557600080fd5b853561497081614698565b9450602086013593506040860135925060608601356001600160401b038082111561499a57600080fd5b818801915088601f8301126149ae57600080fd5b8135818111156149bd57600080fd5b8960208285010111156149cf57600080fd5b9699959850939650602001949392505050565b600080600080600060a086880312156149fa57600080fd5b8535614a0581614698565b94506020860135614a1581614698565b93506040860135614a2581614698565b92506060860135614a3581614698565b915060808601356001600160401b03811115614a5057600080fd5b614a5c88828901614795565b9150509295509295909350565b80151581146118c857600080fd5b60008060408385031215614a8a57600080fd5b8235614a9581614698565b91506020830135614aa581614a69565b809150509250929050565b600060208284031215614ac257600080fd5b8135611f1281614698565b60008060008060008060008060008060006101608c8e031215614aef57600080fd5b614af88c6146ad565b9a5060208c01359950614b0d60408d016146ad565b9850614b1b60608d016146ad565b975060808c01359650614b3060a08d016146ad565b9550614b3e60c08d016146ad565b9450614b4c60e08d016146ad565b93506001600160401b03806101008e01351115614b6857600080fd5b614b798e6101008f01358f01614721565b9350806101208e01351115614b8d57600080fd5b50614b9f8d6101208e01358e01614804565b91506101408c013590509295989b509295989b9093969950565b60008083601f840112614bcb57600080fd5b5081356001600160401b03811115614be257600080fd5b6020830191508360208260051b85010111156140cc57600080fd5b60008060008060408587031215614c1357600080fd5b84356001600160401b0380821115614c2a57600080fd5b614c3688838901614bb9565b90965094506020870135915080821115614c4f57600080fd5b50614c5c87828801614bb9565b95989497509550505050565b60008060008060008060008060006101208a8c031215614c8757600080fd5b8935614c9281614698565b985060208a0135975060408a0135614ca981614698565b9650614cb760608b016146ad565b955060808a01359450614ccc60a08b016146ad565b9350614cda60c08b016146ad565b925060e08a01356001600160401b0380821115614cf657600080fd5b614d028d838e01614721565b93506101008c0135915080821115614d1957600080fd5b50614d268c828d01614804565b9150509295985092959850929598565b60008060008060808587031215614d4c57600080fd5b8435614d5781614698565b9350602085013592506040850135614d6e81614698565b915060608501356001600160401b03811115614d8957600080fd5b614d9587828801614795565b91505092959194509250565b6000806000806000806000806000806101408b8d031215614dc157600080fd5b614dca8b6146ad565b995060208b01359850614ddf60408c016146ad565b9750614ded60608c016146ad565b965060808b01359550614e0260a08c016146ad565b9450614e1060c08c016146ad565b935060e08b01356001600160401b0380821115614e2c57600080fd5b614e388e838f01614721565b94506101008d0135915080821115614e4f57600080fd5b50614e5c8d828e01614804565b9250506101208b013590509295989b9194979a5092959850565b60208082526038908201527f526570617920616d6f756e7420287472616e73616374696f6e2076616c75652960408201527f206d7573742062652067726561746572207468616e20302e0000000000000000606082015260800190565b600060208284031215614ee557600080fd5b5051919050565b602080825260409082018190527f4572726f722063616c6c696e672072656465656d696e67207365697a65642063908201527f546f6b656e3a206572726f7220636f6465206e6f7420657175616c20746f2030606082015260800190565b600060208284031215614f5c57600080fd5b8151611f1281614698565b60208082526059908201527f49526564656d7074696f6e537472617465677920636f6e74726163742061727260408201527f617920616e64207374726174656779206461746120627974657320617272617960608201527f206d757374206265207468652073616d65206c656e6774682e00000000000000608082015260a00190565b634e487b7160e01b600052603260045260246000fd5b60005b8381101561501b578181015183820152602001615003565b83811115611cee5750506000910152565b60008151808452615044816020860160208601615000565b601f01601f19169290920160200192915050565b6001600160a01b03858116825260208201859052831660408201526080606082018190526000906144c49083018461502c565b6000806040838503121561509e57600080fd5b82516150a981614698565b6020939093015192949293505050565b634e487b7160e01b600052601160045260246000fd5b60006000198214156150e3576150e36150b9565b5060010190565b600080858511156150fa57600080fd5b8386111561510757600080fd5b5050820193919092039150565b60006020828403121561512657600080fd5b8151611f1281614a69565b600081600019048311821515161561514b5761514b6150b9565b500290565b634e487b7160e01b600052601260045260246000fd5b60008261517557615175615150565b500490565b60008261518957615189615150565b500690565b6000806000806000806000806000806101408b8d0312156151ae57600080fd5b6151b78b6146ad565b995060208b013598506151cc60408c016146ad565b97506151da60608c016146ad565b965060808b013595506151ef60a08c016146ad565b94506151fd60c08c016146ad565b935061520b60e08c016146ad565b92506101008b01356001600160401b038082111561522857600080fd5b6152348e838f01614721565b93506101208d013591508082111561524b57600080fd5b506152588d828e01614804565b9150509295989b9194979a5092959850565b6020808252818101527f4f776e61626c653a2063616c6c6572206973206e6f7420746865206f776e6572604082015260600190565b60208082526024908201527f526570617920616d6f756e74206d7573742062652067726561746572207468616040820152633710181760e11b606082015260800190565b858152602081018590526001600160a01b03841660408201526080606082018190528101829052818360a0830137600081830160a090810191909152601f909201601f19160101949350505050565b60006020828403121561534457600080fd5b8135611f1281614a69565b60018060a01b03841681528260208201526060604082015260006127f7606083018461502c565b600181811c9082168061538a57607f821691505b602082108114156153ab57634e487b7160e01b600052602260045260246000fd5b50919050565b600081518084526020808501945080840160005b838110156153ea5781516001600160a01b0316875295820195908201906001016153c5565b509495945050505050565b84815260806020820152600061540e60808301866153b1565b6001600160a01b03949094166040830152506060015292915050565b6000602080838503121561543d57600080fd5b82516001600160401b0381111561545357600080fd5b8301601f8101851361546457600080fd5b8051615472614742826146fe565b81815260059190911b8201830190838101908783111561549157600080fd5b928401925b828410156145f457835182529284019290840190615496565b85815284602082015260a0604082015260006154ce60a08301866153b1565b6001600160a01b0394909416606083015250608001529392505050565b6020808252602e908201527f496e697469616c697a61626c653a20636f6e747261637420697320616c72656160408201526d191e481a5b9a5d1a585b1a5e995960921b606082015260800190565b6020808252602b908201527f496e697469616c697a61626c653a20636f6e7472616374206973206e6f74206960408201526a6e697469616c697a696e6760a81b606082015260800190565b60008219821115615597576155976150b9565b500190565b600082516155ae818460208701615000565b9190910192915050565b60ff60f81b81526bffffffffffffffffffffffff198460601b166001820152826015820152600082516155f2816035850160208701615000565b91909101603501949350505050565b60208082526051908201527f4661696c656420746f20726570617920556e697377617020666c6173686c6f6160408201527f6e207769746820575f4e41544956452065786368616e6765642066726f6d207360608201527032b4bd32b21031b7b63630ba32b930b61760791b608082015260a00190565b602081526000611f12602083018461502c565b60008282101561569d5761569d6150b9565b500390565b6000816156b1576156b16150b9565b506000190190565b80516001600160701b038116811461244857600080fd5b6000806000606084860312156156e557600080fd5b6156ee846156b9565b92506156fc602085016156b9565b9150604084015163ffffffff8116811461571557600080fd5b80915050925092509256fe416464726573733a206c6f772d6c6576656c2064656c65676174652063616c6c206661696c6564a164736f6c634300080a000a",
    "linkReferences": {}
  }
}