{
  "abi": [
    {
      "inputs": [
        {
          "internalType": "address",
          "name": "_rootOracle",
          "type": "address"
        },
        {
          "internalType": "address",
          "name": "_logic",
          "type": "address"
        },
        {
          "internalType": "address",
          "name": "_wtoken",
          "type": "address"
        }
      ],
      "stateMutability": "nonpayable",
      "type": "constructor"
    },
    {
      "inputs": [
        {
          "internalType": "address",
          "name": "uniswapV2Factory",
          "type": "address"
        },
        {
          "internalType": "address",
          "name": "baseToken",
          "type": "address"
        }
      ],
      "name": "deploy",
      "outputs": [
        {
          "internalType": "address",
          "name": "",
          "type": "address"
        }
      ],
      "stateMutability": "nonpayable",
      "type": "function"
    },
    {
      "inputs": [],
      "name": "logic",
      "outputs": [
        {
          "internalType": "address",
          "name": "",
          "type": "address"
        }
      ],
      "stateMutability": "view",
      "type": "function"
    },
    {
      "inputs": [
        {
          "internalType": "address",
          "name": "",
          "type": "address"
        },
        {
          "internalType": "address",
          "name": "",
          "type": "address"
        }
      ],
      "name": "oracles",
      "outputs": [
        {
          "internalType": "contract UniswapTwapPriceOracleV2",
          "name": "",
          "type": "address"
        }
      ],
      "stateMutability": "view",
      "type": "function"
    },
    {
      "inputs": [],
      "name": "rootOracle",
      "outputs": [
        {
          "internalType": "address",
          "name": "",
          "type": "address"
        }
      ],
      "stateMutability": "view",
      "type": "function"
    },
    {
      "inputs": [],
      "name": "wtoken",
      "outputs": [
        {
          "internalType": "address",
          "name": "",
          "type": "address"
        }
      ],
      "stateMutability": "view",
      "type": "function"
    }
  ],
  "bytecode": {
    "object": "0x60e060405234801561001057600080fd5b5060405161061438038061061483398101604081905261002f9161015d565b6001600160a01b03831661009c5760405162461bcd60e51b815260206004820152602960248201527f556e69737761705477617050726963654f7261636c655632526f6f74206e6f74604482015268103232b334b732b21760b91b60648201526084015b60405180910390fd5b6001600160a01b0382166101245760405162461bcd60e51b815260206004820152604360248201527f556e69737761705477617050726963654f7261636c65563220696d706c656d6560448201527f6e746174696f6e2f6c6f67696320636f6e7472616374206e6f7420646566696e60648201526232b21760e91b608482015260a401610093565b6001600160a01b0392831660a05290821660c052166080526101a0565b80516001600160a01b038116811461015857600080fd5b919050565b60008060006060848603121561017257600080fd5b61017b84610141565b925061018960208501610141565b915061019760408501610141565b90509250925092565b60805160a05160c05161042b6101e96000396000818160e801526101e301526000818161010f015261021f01526000818160c1015281816101430152610257015261042b6000f3fe608060405234801561001057600080fd5b50600436106100575760003560e01c806352a03c031461005c578063545e7c61146100a95780639c0591c8146100bc578063d7dfa0dd146100e3578063e3cb23a51461010a575b600080fd5b61008d61006a3660046103c2565b60006020818152928152604080822090935290815220546001600160a01b031681565b6040516001600160a01b03909116815260200160405180910390f35b61008d6100b73660046103c2565b610131565b61008d7f000000000000000000000000000000000000000000000000000000000000000081565b61008d7f000000000000000000000000000000000000000000000000000000000000000081565b61008d7f000000000000000000000000000000000000000000000000000000000000000081565b60006001600160a01b038216610165577f000000000000000000000000000000000000000000000000000000000000000091505b6001600160a01b0380841660009081526020818152604080832086851684529091529020541680156101985790506102fd565b6040516bffffffffffffffffffffffff19606086811b8216602084015285901b16603482015260009060480160405160208183030381529060405280519060200120905060006102087f000000000000000000000000000000000000000000000000000000000000000083610303565b604051637c643b2f60e11b81526001600160a01b037f000000000000000000000000000000000000000000000000000000000000000081166004830152888116602483015287811660448301527f0000000000000000000000000000000000000000000000000000000000000000811660648301529192509082169063f8c8765e90608401600060405180830381600087803b1580156102a757600080fd5b505af11580156102bb573d6000803e3d6000fd5b505050506001600160a01b038681166000908152602081815260408083208985168452909152902080546001600160a01b031916918316919091179055925050505b92915050565b600060405172602d8060093d393df3363d3d373d3d3d363d7360681b81528360601b60138201526e5af43d82803e903d91602b57fd5bf360881b6027820152826036826000f59150506001600160a01b0381166102fd5760405162461bcd60e51b815260206004820152601760248201527f455243313136373a2063726561746532206661696c6564000000000000000000604482015260640160405180910390fd5b80356001600160a01b03811681146103bd57600080fd5b919050565b600080604083850312156103d557600080fd5b6103de836103a6565b91506103ec602084016103a6565b9050925092905056fea2646970667358221220977f807eb779960b448a22e31df1c6a6889ff3ddda5c5530db5af53c0d0880a764736f6c634300080a0033",
    "linkReferences": {}
  }
}