{
  "abi": [
    {
      "inputs": [
        {
          "internalType": "contract ICToken",
          "name": "cToken",
          "type": "address"
        }
      ],
      "name": "getUnderlyingPrice",
      "outputs": [
        {
          "internalType": "uint256",
          "name": "",
          "type": "uint256"
        }
      ],
      "stateMutability": "view",
      "type": "function"
    }
  ],
  "bytecode": {
    "object": "0x608060405234801561001057600080fd5b506104cb806100206000396000f3fe608060405234801561001057600080fd5b506004361061002b5760003560e01c8063fc57d4df14610030575b600080fd5b61004361003e3660046102cf565b610055565b60405190815260200160405180910390f35b600080826001600160a01b0316636f307dc36040518163ffffffff1660e01b8152600401602060405180830381865afa158015610096573d6000803e3d6000fd5b505050506040513d601f19601f820116820180604052508101906100ba91906102f3565b90506000816001600160a01b031663fc0c546a6040518163ffffffff1660e01b8152600401602060405180830381865afa1580156100fc573d6000803e3d6000fd5b505050506040513d601f19601f8201168201806040525081019061012091906102f3565b9050600073c02aaa39b223fe8d0a0e5c4f27ead9083c756cc26001600160a01b038316146101b5576040516315d5220f60e31b81526001600160a01b0383166004820152339063aea9107890602401602060405180830381865afa15801561018c573d6000803e3d6000fd5b505050506040513d601f19601f820116820180604052508101906101b09190610310565b6101bf565b670de0b6b3a76400005b90506000836001600160a01b031663313ce5676040518163ffffffff1660e01b8152600401602060405180830381865afa158015610201573d6000803e3d6000fd5b505050506040513d601f19601f820116820180604052508101906102259190610329565b6102339060ff16600a610448565b90508082856001600160a01b03166377c7b8fc6040518163ffffffff1660e01b8152600401602060405180830381865afa158015610275573d6000803e3d6000fd5b505050506040513d601f19601f820116820180604052508101906102999190610310565b6102a39190610454565b6102ad9190610473565b9695505050505050565b6001600160a01b03811681146102cc57600080fd5b50565b6000602082840312156102e157600080fd5b81356102ec816102b7565b9392505050565b60006020828403121561030557600080fd5b81516102ec816102b7565b60006020828403121561032257600080fd5b5051919050565b60006020828403121561033b57600080fd5b815160ff811681146102ec57600080fd5b634e487b7160e01b600052601160045260246000fd5b600181815b8085111561039d5781600019048211156103835761038361034c565b8085161561039057918102915b93841c9390800290610367565b509250929050565b6000826103b457506001610442565b816103c157506000610442565b81600181146103d757600281146103e1576103fd565b6001915050610442565b60ff8411156103f2576103f261034c565b50506001821b610442565b5060208310610133831016604e8410600b8410161715610420575081810a610442565b61042a8383610362565b806000190482111561043e5761043e61034c565b0290505b92915050565b60006102ec83836103a5565b600081600019048311821515161561046e5761046e61034c565b500290565b60008261049057634e487b7160e01b600052601260045260246000fd5b50049056fea26469706673582212204746b66996cac06ca15851b359e64e4c0b3ebaa912227eeac485ed8664e21d3e64736f6c634300080a0033",
    "linkReferences": {}
  },
  "methodIdentifiers": {
    "getUnderlyingPrice(address)": "fc57d4df"
  },
  "id": 197
}