{
  "abi": [
    {
      "inputs": [
        {
          "internalType": "contract IERC20Upgradeable",
          "name": "inputToken",
          "type": "address"
        },
        {
          "internalType": "uint256",
          "name": "inputAmount",
          "type": "uint256"
        },
        {
          "internalType": "bytes",
          "name": "strategyData",
          "type": "bytes"
        }
      ],
      "name": "redeem",
      "outputs": [
        {
          "internalType": "contract IERC20Upgradeable",
          "name": "outputToken",
          "type": "address"
        },
        {
          "internalType": "uint256",
          "name": "outputAmount",
          "type": "uint256"
        }
      ],
      "stateMutability": "nonpayable",
      "type": "function"
    }
  ],
  "bytecode": {
    "object": "0x608060405234801561001057600080fd5b5061027b806100206000396000f3fe608060405234801561001057600080fd5b506004361061002b5760003560e01c806310badf4e14610030575b600080fd5b61004361003e36600461016c565b610066565b604080516001600160a01b03909316835260208301919091520160405180910390f35b604051632e1a7d4d60e01b815260048101839052600090819085906001600160a01b03821690632e1a7d4d90602401600060405180830381600087803b1580156100af57600080fd5b505af11580156100c3573d6000803e3d6000fd5b505050506000925047915073c02aaa39b223fe8d0a0e5c4f27ead9083c756cc26001600160a01b031663d0e30db0836040518263ffffffff1660e01b81526004016000604051808303818588803b15801561011d57600080fd5b505af1158015610131573d6000803e3d6000fd5b505050505073c02aaa39b223fe8d0a0e5c4f27ead9083c756cc2925050935093915050565b634e487b7160e01b600052604160045260246000fd5b60008060006060848603121561018157600080fd5b83356001600160a01b038116811461019857600080fd5b925060208401359150604084013567ffffffffffffffff808211156101bc57600080fd5b818601915086601f8301126101d057600080fd5b8135818111156101e2576101e2610156565b604051601f8201601f19908116603f0116810190838211818310171561020a5761020a610156565b8160405282815289602084870101111561022357600080fd5b826020860160208301376000602084830101528095505050505050925092509256fea2646970667358221220d3ae17f32a543df91c9221c1dbb999800466aea1fe6584d1875d65f485f8e47c64736f6c634300080a0033",
    "linkReferences": {}
  }
}