{
  "abi": [
    {
      "inputs": [],
      "name": "admin",
      "outputs": [
        {
          "internalType": "address",
          "name": "",
          "type": "address"
        }
      ],
      "stateMutability": "view",
      "type": "function"
    },
    {
      "inputs": [],
      "name": "implementation",
      "outputs": [
        {
          "internalType": "address",
          "name": "",
          "type": "address"
        }
      ],
      "stateMutability": "view",
      "type": "function"
    },
    {
      "inputs": [],
      "name": "pendingAdmin",
      "outputs": [
        {
          "internalType": "address",
          "name": "",
          "type": "address"
        }
      ],
      "stateMutability": "view",
      "type": "function"
    }
  ],
  "bytecode": {
    "object": "0x608060405234801561001057600080fd5b5060c98061001f6000396000f3fe6080604052348015600f57600080fd5b5060043610603c5760003560e01c8063267822471460415780635c60da1b14606f578063f851a440146081575b600080fd5b6001546053906001600160a01b031681565b6040516001600160a01b03909116815260200160405180910390f35b6002546053906001600160a01b031681565b6000546053906001600160a01b03168156fea26469706673582212204b55f7170c1bf5ecfb19f4d025c857846b8bf30e91196466c7cd0188c6c82fe964736f6c634300080a0033",
    "linkReferences": {}
  }
}