{
  "abi": [
    {
      "inputs": [],
      "name": "admin",
      "outputs": [
        {
          "internalType": "address",
          "name": "",
          "type": "address"
        }
      ],
      "stateMutability": "view",
      "type": "function"
    },
    {
      "inputs": [
        {
          "internalType": "uint256",
          "name": "",
          "type": "uint256"
        }
      ],
      "name": "allMarkets",
      "outputs": [
        {
          "internalType": "contract CToken",
          "name": "",
          "type": "address"
        }
      ],
      "stateMutability": "view",
      "type": "function"
    },
    {
      "inputs": [
        {
          "internalType": "address",
          "name": "",
          "type": "address"
        }
      ],
      "name": "compAccrued",
      "outputs": [
        {
          "internalType": "uint256",
          "name": "",
          "type": "uint256"
        }
      ],
      "stateMutability": "view",
      "type": "function"
    },
    {
      "inputs": [
        {
          "internalType": "address",
          "name": "",
          "type": "address"
        }
      ],
      "name": "compBorrowSpeeds",
      "outputs": [
        {
          "internalType": "uint256",
          "name": "",
          "type": "uint256"
        }
      ],
      "stateMutability": "view",
      "type": "function"
    },
    {
      "inputs": [
        {
          "internalType": "address",
          "name": "",
          "type": "address"
        }
      ],
      "name": "compBorrowState",
      "outputs": [
        {
          "internalType": "uint224",
          "name": "index",
          "type": "uint224"
        },
        {
          "internalType": "uint32",
          "name": "block",
          "type": "uint32"
        }
      ],
      "stateMutability": "view",
      "type": "function"
    },
    {
      "inputs": [
        {
          "internalType": "address",
          "name": "",
          "type": "address"
        },
        {
          "internalType": "address",
          "name": "",
          "type": "address"
        }
      ],
      "name": "compBorrowerIndex",
      "outputs": [
        {
          "internalType": "uint256",
          "name": "",
          "type": "uint256"
        }
      ],
      "stateMutability": "view",
      "type": "function"
    },
    {
      "inputs": [
        {
          "internalType": "address",
          "name": "",
          "type": "address"
        }
      ],
      "name": "compContributorSpeeds",
      "outputs": [
        {
          "internalType": "uint256",
          "name": "",
          "type": "uint256"
        }
      ],
      "stateMutability": "view",
      "type": "function"
    },
    {
      "inputs": [
        {
          "internalType": "address",
          "name": "",
          "type": "address"
        },
        {
          "internalType": "address",
          "name": "",
          "type": "address"
        }
      ],
      "name": "compSupplierIndex",
      "outputs": [
        {
          "internalType": "uint256",
          "name": "",
          "type": "uint256"
        }
      ],
      "stateMutability": "view",
      "type": "function"
    },
    {
      "inputs": [
        {
          "internalType": "address",
          "name": "",
          "type": "address"
        }
      ],
      "name": "compSupplySpeeds",
      "outputs": [
        {
          "internalType": "uint256",
          "name": "",
          "type": "uint256"
        }
      ],
      "stateMutability": "view",
      "type": "function"
    },
    {
      "inputs": [
        {
          "internalType": "address",
          "name": "",
          "type": "address"
        }
      ],
      "name": "compSupplyState",
      "outputs": [
        {
          "internalType": "uint224",
          "name": "index",
          "type": "uint224"
        },
        {
          "internalType": "uint32",
          "name": "block",
          "type": "uint32"
        }
      ],
      "stateMutability": "view",
      "type": "function"
    },
    {
      "inputs": [],
      "name": "implementation",
      "outputs": [
        {
          "internalType": "address",
          "name": "",
          "type": "address"
        }
      ],
      "stateMutability": "view",
      "type": "function"
    },
    {
      "inputs": [
        {
          "internalType": "address",
          "name": "",
          "type": "address"
        }
      ],
      "name": "lastContributorBlock",
      "outputs": [
        {
          "internalType": "uint256",
          "name": "",
          "type": "uint256"
        }
      ],
      "stateMutability": "view",
      "type": "function"
    },
    {
      "inputs": [],
      "name": "pendingAdmin",
      "outputs": [
        {
          "internalType": "address",
          "name": "",
          "type": "address"
        }
      ],
      "stateMutability": "view",
      "type": "function"
    },
    {
      "inputs": [],
      "name": "rewardToken",
      "outputs": [
        {
          "internalType": "address",
          "name": "",
          "type": "address"
        }
      ],
      "stateMutability": "view",
      "type": "function"
    }
  ],
  "bytecode": {
    "object": "0x608060405234801561001057600080fd5b506103c4806100206000396000f3fe608060405234801561001057600080fd5b50600436106100ea5760003560e01c8063b21be7fd1161008c578063cc7ebdc411610066578063cc7ebdc41461029d578063f4a433c0146102bd578063f7c618c1146102dd578063f851a440146102f057600080fd5b8063b21be7fd14610227578063bea6b8b814610252578063ca0af0431461027257600080fd5b80636aa875b5116100c85780636aa875b5146101455780636b79c38d146101735780638c57804e146101cf578063986ab8381461020757600080fd5b806326782247146100ef57806352d84d1e1461011f5780635c60da1b14610132575b600080fd5b600154610102906001600160a01b031681565b6040516001600160a01b0390911681526020015b60405180910390f35b61010261012d36600461032d565b610303565b600254610102906001600160a01b031681565b610165610153366004610362565b60056020526000908152604090205481565b604051908152602001610116565b6101ab610181366004610362565b6007602052600090815260409020546001600160e01b03811690600160e01b900463ffffffff1682565b604080516001600160e01b03909316835263ffffffff909116602083015201610116565b6101ab6101dd366004610362565b6008602052600090815260409020546001600160e01b03811690600160e01b900463ffffffff1682565b610165610215366004610362565b600c6020526000908152604090205481565b610165610235366004610384565b600960209081526000928352604080842090915290825290205481565b610165610260366004610362565b600d6020526000908152604090205481565b610165610280366004610384565b600a60209081526000928352604080842090915290825290205481565b6101656102ab366004610362565b600b6020526000908152604090205481565b6101656102cb366004610362565b60066020526000908152604090205481565b600354610102906001600160a01b031681565b600054610102906001600160a01b031681565b6004818154811061031357600080fd5b6000918252602090912001546001600160a01b0316905081565b60006020828403121561033f57600080fd5b5035919050565b80356001600160a01b038116811461035d57600080fd5b919050565b60006020828403121561037457600080fd5b61037d82610346565b9392505050565b6000806040838503121561039757600080fd5b6103a083610346565b91506103ae60208401610346565b9050925092905056fea164736f6c634300080a000a",
    "linkReferences": {}
  },
  "methodIdentifiers": {
    "admin()": "f851a440",
    "allMarkets(uint256)": "52d84d1e",
    "compAccrued(address)": "cc7ebdc4",
    "compBorrowSpeeds(address)": "f4a433c0",
    "compBorrowState(address)": "8c57804e",
    "compBorrowerIndex(address,address)": "ca0af043",
    "compContributorSpeeds(address)": "986ab838",
    "compSupplierIndex(address,address)": "b21be7fd",
    "compSupplySpeeds(address)": "6aa875b5",
    "compSupplyState(address)": "6b79c38d",
    "implementation()": "5c60da1b",
    "lastContributorBlock(address)": "bea6b8b8",
    "pendingAdmin()": "26782247",
    "rewardToken()": "f7c618c1"
  },
  "id": 42
}