{
  "abi": [
    {
      "anonymous": false,
      "inputs": [
        {
          "indexed": false,
          "internalType": "uint256",
          "name": "cashPrior",
          "type": "uint256"
        },
        {
          "indexed": false,
          "internalType": "uint256",
          "name": "interestAccumulated",
          "type": "uint256"
        },
        {
          "indexed": false,
          "internalType": "uint256",
          "name": "borrowIndex",
          "type": "uint256"
        },
        {
          "indexed": false,
          "internalType": "uint256",
          "name": "totalBorrows",
          "type": "uint256"
        }
      ],
      "name": "AccrueInterest",
      "type": "event"
    },
    {
      "anonymous": false,
      "inputs": [
        {
          "indexed": true,
          "internalType": "address",
          "name": "owner",
          "type": "address"
        },
        {
          "indexed": true,
          "internalType": "address",
          "name": "spender",
          "type": "address"
        },
        {
          "indexed": false,
          "internalType": "uint256",
          "name": "amount",
          "type": "uint256"
        }
      ],
      "name": "Approval",
      "type": "event"
    },
    {
      "anonymous": false,
      "inputs": [
        {
          "indexed": false,
          "internalType": "address",
          "name": "borrower",
          "type": "address"
        },
        {
          "indexed": false,
          "internalType": "uint256",
          "name": "borrowAmount",
          "type": "uint256"
        },
        {
          "indexed": false,
          "internalType": "uint256",
          "name": "accountBorrows",
          "type": "uint256"
        },
        {
          "indexed": false,
          "internalType": "uint256",
          "name": "totalBorrows",
          "type": "uint256"
        }
      ],
      "name": "Borrow",
      "type": "event"
    },
    {
      "anonymous": false,
      "inputs": [
        {
          "indexed": false,
          "internalType": "uint256",
          "name": "error",
          "type": "uint256"
        },
        {
          "indexed": false,
          "internalType": "uint256",
          "name": "info",
          "type": "uint256"
        },
        {
          "indexed": false,
          "internalType": "uint256",
          "name": "detail",
          "type": "uint256"
        }
      ],
      "name": "Failure",
      "type": "event"
    },
    {
      "anonymous": false,
      "inputs": [
        {
          "indexed": false,
          "internalType": "address",
          "name": "liquidator",
          "type": "address"
        },
        {
          "indexed": false,
          "internalType": "address",
          "name": "borrower",
          "type": "address"
        },
        {
          "indexed": false,
          "internalType": "uint256",
          "name": "repayAmount",
          "type": "uint256"
        },
        {
          "indexed": false,
          "internalType": "address",
          "name": "cTokenCollateral",
          "type": "address"
        },
        {
          "indexed": false,
          "internalType": "uint256",
          "name": "seizeTokens",
          "type": "uint256"
        }
      ],
      "name": "LiquidateBorrow",
      "type": "event"
    },
    {
      "anonymous": false,
      "inputs": [
        {
          "indexed": false,
          "internalType": "address",
          "name": "minter",
          "type": "address"
        },
        {
          "indexed": false,
          "internalType": "uint256",
          "name": "mintAmount",
          "type": "uint256"
        },
        {
          "indexed": false,
          "internalType": "uint256",
          "name": "mintTokens",
          "type": "uint256"
        }
      ],
      "name": "Mint",
      "type": "event"
    },
    {
      "anonymous": false,
      "inputs": [
        {
          "indexed": false,
          "internalType": "uint256",
          "name": "oldAdminFeeMantissa",
          "type": "uint256"
        },
        {
          "indexed": false,
          "internalType": "uint256",
          "name": "newAdminFeeMantissa",
          "type": "uint256"
        }
      ],
      "name": "NewAdminFee",
      "type": "event"
    },
    {
      "anonymous": false,
      "inputs": [
        {
          "indexed": false,
          "internalType": "contract ComptrollerInterface",
          "name": "oldComptroller",
          "type": "address"
        },
        {
          "indexed": false,
          "internalType": "contract ComptrollerInterface",
          "name": "newComptroller",
          "type": "address"
        }
      ],
      "name": "NewComptroller",
      "type": "event"
    },
    {
      "anonymous": false,
      "inputs": [
        {
          "indexed": false,
          "internalType": "uint256",
          "name": "oldFuseFeeMantissa",
          "type": "uint256"
        },
        {
          "indexed": false,
          "internalType": "uint256",
          "name": "newFuseFeeMantissa",
          "type": "uint256"
        }
      ],
      "name": "NewFuseFee",
      "type": "event"
    },
    {
      "anonymous": false,
      "inputs": [
        {
          "indexed": false,
          "internalType": "contract InterestRateModel",
          "name": "oldInterestRateModel",
          "type": "address"
        },
        {
          "indexed": false,
          "internalType": "contract InterestRateModel",
          "name": "newInterestRateModel",
          "type": "address"
        }
      ],
      "name": "NewMarketInterestRateModel",
      "type": "event"
    },
    {
      "anonymous": false,
      "inputs": [
        {
          "indexed": false,
          "internalType": "uint256",
          "name": "oldReserveFactorMantissa",
          "type": "uint256"
        },
        {
          "indexed": false,
          "internalType": "uint256",
          "name": "newReserveFactorMantissa",
          "type": "uint256"
        }
      ],
      "name": "NewReserveFactor",
      "type": "event"
    },
    {
      "anonymous": false,
      "inputs": [
        {
          "indexed": false,
          "internalType": "address",
          "name": "redeemer",
          "type": "address"
        },
        {
          "indexed": false,
          "internalType": "uint256",
          "name": "redeemAmount",
          "type": "uint256"
        },
        {
          "indexed": false,
          "internalType": "uint256",
          "name": "redeemTokens",
          "type": "uint256"
        }
      ],
      "name": "Redeem",
      "type": "event"
    },
    {
      "anonymous": false,
      "inputs": [
        {
          "indexed": false,
          "internalType": "address",
          "name": "payer",
          "type": "address"
        },
        {
          "indexed": false,
          "internalType": "address",
          "name": "borrower",
          "type": "address"
        },
        {
          "indexed": false,
          "internalType": "uint256",
          "name": "repayAmount",
          "type": "uint256"
        },
        {
          "indexed": false,
          "internalType": "uint256",
          "name": "accountBorrows",
          "type": "uint256"
        },
        {
          "indexed": false,
          "internalType": "uint256",
          "name": "totalBorrows",
          "type": "uint256"
        }
      ],
      "name": "RepayBorrow",
      "type": "event"
    },
    {
      "anonymous": false,
      "inputs": [
        {
          "indexed": false,
          "internalType": "address",
          "name": "benefactor",
          "type": "address"
        },
        {
          "indexed": false,
          "internalType": "uint256",
          "name": "addAmount",
          "type": "uint256"
        },
        {
          "indexed": false,
          "internalType": "uint256",
          "name": "newTotalReserves",
          "type": "uint256"
        }
      ],
      "name": "ReservesAdded",
      "type": "event"
    },
    {
      "anonymous": false,
      "inputs": [
        {
          "indexed": false,
          "internalType": "address",
          "name": "admin",
          "type": "address"
        },
        {
          "indexed": false,
          "internalType": "uint256",
          "name": "reduceAmount",
          "type": "uint256"
        },
        {
          "indexed": false,
          "internalType": "uint256",
          "name": "newTotalReserves",
          "type": "uint256"
        }
      ],
      "name": "ReservesReduced",
      "type": "event"
    },
    {
      "anonymous": false,
      "inputs": [
        {
          "indexed": true,
          "internalType": "address",
          "name": "from",
          "type": "address"
        },
        {
          "indexed": true,
          "internalType": "address",
          "name": "to",
          "type": "address"
        },
        {
          "indexed": false,
          "internalType": "uint256",
          "name": "amount",
          "type": "uint256"
        }
      ],
      "name": "Transfer",
      "type": "event"
    },
    {
      "inputs": [
        {
          "internalType": "uint256",
          "name": "reduceAmount",
          "type": "uint256"
        }
      ],
      "name": "_reduceReserves",
      "outputs": [
        {
          "internalType": "uint256",
          "name": "",
          "type": "uint256"
        }
      ],
      "stateMutability": "nonpayable",
      "type": "function"
    },
    {
      "inputs": [
        {
          "internalType": "uint256",
          "name": "newAdminFeeMantissa",
          "type": "uint256"
        }
      ],
      "name": "_setAdminFee",
      "outputs": [
        {
          "internalType": "uint256",
          "name": "",
          "type": "uint256"
        }
      ],
      "stateMutability": "nonpayable",
      "type": "function"
    },
    {
      "inputs": [
        {
          "internalType": "contract InterestRateModel",
          "name": "newInterestRateModel",
          "type": "address"
        }
      ],
      "name": "_setInterestRateModel",
      "outputs": [
        {
          "internalType": "uint256",
          "name": "",
          "type": "uint256"
        }
      ],
      "stateMutability": "nonpayable",
      "type": "function"
    },
    {
      "inputs": [
        {
          "internalType": "string",
          "name": "_name",
          "type": "string"
        },
        {
          "internalType": "string",
          "name": "_symbol",
          "type": "string"
        }
      ],
      "name": "_setNameAndSymbol",
      "outputs": [],
      "stateMutability": "nonpayable",
      "type": "function"
    },
    {
      "inputs": [
        {
          "internalType": "uint256",
          "name": "newReserveFactorMantissa",
          "type": "uint256"
        }
      ],
      "name": "_setReserveFactor",
      "outputs": [
        {
          "internalType": "uint256",
          "name": "",
          "type": "uint256"
        }
      ],
      "stateMutability": "nonpayable",
      "type": "function"
    },
    {
      "inputs": [
        {
          "internalType": "uint256",
          "name": "withdrawAmount",
          "type": "uint256"
        }
      ],
      "name": "_withdrawAdminFees",
      "outputs": [
        {
          "internalType": "uint256",
          "name": "",
          "type": "uint256"
        }
      ],
      "stateMutability": "nonpayable",
      "type": "function"
    },
    {
      "inputs": [
        {
          "internalType": "uint256",
          "name": "withdrawAmount",
          "type": "uint256"
        }
      ],
      "name": "_withdrawFuseFees",
      "outputs": [
        {
          "internalType": "uint256",
          "name": "",
          "type": "uint256"
        }
      ],
      "stateMutability": "nonpayable",
      "type": "function"
    },
    {
      "inputs": [],
      "name": "accrualBlockNumber",
      "outputs": [
        {
          "internalType": "uint256",
          "name": "",
          "type": "uint256"
        }
      ],
      "stateMutability": "view",
      "type": "function"
    },
    {
      "inputs": [],
      "name": "accrueInterest",
      "outputs": [
        {
          "internalType": "uint256",
          "name": "",
          "type": "uint256"
        }
      ],
      "stateMutability": "nonpayable",
      "type": "function"
    },
    {
      "inputs": [],
      "name": "adminFeeMantissa",
      "outputs": [
        {
          "internalType": "uint256",
          "name": "",
          "type": "uint256"
        }
      ],
      "stateMutability": "view",
      "type": "function"
    },
    {
      "inputs": [
        {
          "internalType": "address",
          "name": "owner",
          "type": "address"
        },
        {
          "internalType": "address",
          "name": "spender",
          "type": "address"
        }
      ],
      "name": "allowance",
      "outputs": [
        {
          "internalType": "uint256",
          "name": "",
          "type": "uint256"
        }
      ],
      "stateMutability": "view",
      "type": "function"
    },
    {
      "inputs": [
        {
          "internalType": "address",
          "name": "spender",
          "type": "address"
        },
        {
          "internalType": "uint256",
          "name": "amount",
          "type": "uint256"
        }
      ],
      "name": "approve",
      "outputs": [
        {
          "internalType": "bool",
          "name": "",
          "type": "bool"
        }
      ],
      "stateMutability": "nonpayable",
      "type": "function"
    },
    {
      "inputs": [
        {
          "internalType": "address",
          "name": "owner",
          "type": "address"
        }
      ],
      "name": "balanceOf",
      "outputs": [
        {
          "internalType": "uint256",
          "name": "",
          "type": "uint256"
        }
      ],
      "stateMutability": "view",
      "type": "function"
    },
    {
      "inputs": [
        {
          "internalType": "address",
          "name": "owner",
          "type": "address"
        }
      ],
      "name": "balanceOfUnderlying",
      "outputs": [
        {
          "internalType": "uint256",
          "name": "",
          "type": "uint256"
        }
      ],
      "stateMutability": "nonpayable",
      "type": "function"
    },
    {
      "inputs": [
        {
          "internalType": "uint256",
          "name": "borrowAmount",
          "type": "uint256"
        }
      ],
      "name": "borrow",
      "outputs": [
        {
          "internalType": "uint256",
          "name": "",
          "type": "uint256"
        }
      ],
      "stateMutability": "nonpayable",
      "type": "function"
    },
    {
      "inputs": [
        {
          "internalType": "address",
          "name": "account",
          "type": "address"
        }
      ],
      "name": "borrowBalanceCurrent",
      "outputs": [
        {
          "internalType": "uint256",
          "name": "",
          "type": "uint256"
        }
      ],
      "stateMutability": "nonpayable",
      "type": "function"
    },
    {
      "inputs": [
        {
          "internalType": "address",
          "name": "account",
          "type": "address"
        }
      ],
      "name": "borrowBalanceStored",
      "outputs": [
        {
          "internalType": "uint256",
          "name": "",
          "type": "uint256"
        }
      ],
      "stateMutability": "view",
      "type": "function"
    },
    {
      "inputs": [],
      "name": "borrowIndex",
      "outputs": [
        {
          "internalType": "uint256",
          "name": "",
          "type": "uint256"
        }
      ],
      "stateMutability": "view",
      "type": "function"
    },
    {
      "inputs": [],
      "name": "borrowRatePerBlock",
      "outputs": [
        {
          "internalType": "uint256",
          "name": "",
          "type": "uint256"
        }
      ],
      "stateMutability": "view",
      "type": "function"
    },
    {
      "inputs": [],
      "name": "comptroller",
      "outputs": [
        {
          "internalType": "contract ComptrollerInterface",
          "name": "",
          "type": "address"
        }
      ],
      "stateMutability": "view",
      "type": "function"
    },
    {
      "inputs": [],
      "name": "decimals",
      "outputs": [
        {
          "internalType": "uint8",
          "name": "",
          "type": "uint8"
        }
      ],
      "stateMutability": "view",
      "type": "function"
    },
    {
      "inputs": [],
      "name": "exchangeRateCurrent",
      "outputs": [
        {
          "internalType": "uint256",
          "name": "",
          "type": "uint256"
        }
      ],
      "stateMutability": "nonpayable",
      "type": "function"
    },
    {
      "inputs": [],
      "name": "exchangeRateStored",
      "outputs": [
        {
          "internalType": "uint256",
          "name": "",
          "type": "uint256"
        }
      ],
      "stateMutability": "view",
      "type": "function"
    },
    {
      "inputs": [],
      "name": "feeSeizeShareMantissa",
      "outputs": [
        {
          "internalType": "uint256",
          "name": "",
          "type": "uint256"
        }
      ],
      "stateMutability": "view",
      "type": "function"
    },
    {
      "inputs": [],
      "name": "fuseAdmin",
      "outputs": [
        {
          "internalType": "address payable",
          "name": "",
          "type": "address"
        }
      ],
      "stateMutability": "view",
      "type": "function"
    },
    {
      "inputs": [],
      "name": "fuseFeeMantissa",
      "outputs": [
        {
          "internalType": "uint256",
          "name": "",
          "type": "uint256"
        }
      ],
      "stateMutability": "view",
      "type": "function"
    },
    {
      "inputs": [
        {
          "internalType": "address",
          "name": "account",
          "type": "address"
        }
      ],
      "name": "getAccountSnapshot",
      "outputs": [
        {
          "internalType": "uint256",
          "name": "",
          "type": "uint256"
        },
        {
          "internalType": "uint256",
          "name": "",
          "type": "uint256"
        },
        {
          "internalType": "uint256",
          "name": "",
          "type": "uint256"
        },
        {
          "internalType": "uint256",
          "name": "",
          "type": "uint256"
        }
      ],
      "stateMutability": "view",
      "type": "function"
    },
    {
      "inputs": [],
      "name": "getCash",
      "outputs": [
        {
          "internalType": "uint256",
          "name": "",
          "type": "uint256"
        }
      ],
      "stateMutability": "view",
      "type": "function"
    },
    {
      "inputs": [
        {
          "internalType": "contract ComptrollerInterface",
          "name": "comptroller_",
          "type": "address"
        },
        {
          "internalType": "address payable",
          "name": "fuseAdmin_",
          "type": "address"
        },
        {
          "internalType": "contract InterestRateModel",
          "name": "interestRateModel_",
          "type": "address"
        },
        {
          "internalType": "uint256",
          "name": "initialExchangeRateMantissa_",
          "type": "uint256"
        },
        {
          "internalType": "string",
          "name": "name_",
          "type": "string"
        },
        {
          "internalType": "string",
          "name": "symbol_",
          "type": "string"
        },
        {
          "internalType": "uint8",
          "name": "decimals_",
          "type": "uint8"
        },
        {
          "internalType": "uint256",
          "name": "reserveFactorMantissa_",
          "type": "uint256"
        },
        {
          "internalType": "uint256",
          "name": "adminFeeMantissa_",
          "type": "uint256"
        }
      ],
      "name": "initialize",
      "outputs": [],
      "stateMutability": "nonpayable",
      "type": "function"
    },
    {
      "inputs": [
        {
          "internalType": "contract ComptrollerInterface",
          "name": "comptroller_",
          "type": "address"
        },
        {
          "internalType": "address payable",
          "name": "fuseAdmin_",
          "type": "address"
        },
        {
          "internalType": "contract InterestRateModel",
          "name": "interestRateModel_",
          "type": "address"
        },
        {
          "internalType": "string",
          "name": "name_",
          "type": "string"
        },
        {
          "internalType": "string",
          "name": "symbol_",
          "type": "string"
        },
        {
          "internalType": "uint256",
          "name": "reserveFactorMantissa_",
          "type": "uint256"
        },
        {
          "internalType": "uint256",
          "name": "adminFeeMantissa_",
          "type": "uint256"
        }
      ],
      "name": "initialize",
      "outputs": [],
      "stateMutability": "nonpayable",
      "type": "function"
    },
    {
      "inputs": [],
      "name": "interestRateModel",
      "outputs": [
        {
          "internalType": "contract InterestRateModel",
          "name": "",
          "type": "address"
        }
      ],
      "stateMutability": "view",
      "type": "function"
    },
    {
      "inputs": [],
      "name": "isCEther",
      "outputs": [
        {
          "internalType": "bool",
          "name": "",
          "type": "bool"
        }
      ],
      "stateMutability": "view",
      "type": "function"
    },
    {
      "inputs": [],
      "name": "isCToken",
      "outputs": [
        {
          "internalType": "bool",
          "name": "",
          "type": "bool"
        }
      ],
      "stateMutability": "nonpayable",
      "type": "function"
    },
    {
      "inputs": [
        {
          "internalType": "address",
          "name": "borrower",
          "type": "address"
        },
        {
          "internalType": "contract CToken",
          "name": "cTokenCollateral",
          "type": "address"
        }
      ],
      "name": "liquidateBorrow",
      "outputs": [],
      "stateMutability": "payable",
      "type": "function"
    },
    {
      "inputs": [],
      "name": "mint",
      "outputs": [],
      "stateMutability": "payable",
      "type": "function"
    },
    {
      "inputs": [],
      "name": "name",
      "outputs": [
        {
          "internalType": "string",
          "name": "",
          "type": "string"
        }
      ],
      "stateMutability": "view",
      "type": "function"
    },
    {
      "inputs": [],
      "name": "protocolSeizeShareMantissa",
      "outputs": [
        {
          "internalType": "uint256",
          "name": "",
          "type": "uint256"
        }
      ],
      "stateMutability": "view",
      "type": "function"
    },
    {
      "inputs": [
        {
          "internalType": "uint256",
          "name": "redeemTokens",
          "type": "uint256"
        }
      ],
      "name": "redeem",
      "outputs": [
        {
          "internalType": "uint256",
          "name": "",
          "type": "uint256"
        }
      ],
      "stateMutability": "nonpayable",
      "type": "function"
    },
    {
      "inputs": [
        {
          "internalType": "uint256",
          "name": "redeemAmount",
          "type": "uint256"
        }
      ],
      "name": "redeemUnderlying",
      "outputs": [
        {
          "internalType": "uint256",
          "name": "",
          "type": "uint256"
        }
      ],
      "stateMutability": "nonpayable",
      "type": "function"
    },
    {
      "inputs": [],
      "name": "repayBorrow",
      "outputs": [],
      "stateMutability": "payable",
      "type": "function"
    },
    {
      "inputs": [
        {
          "internalType": "address",
          "name": "borrower",
          "type": "address"
        }
      ],
      "name": "repayBorrowBehalf",
      "outputs": [],
      "stateMutability": "payable",
      "type": "function"
    },
    {
      "inputs": [],
      "name": "reserveFactorMantissa",
      "outputs": [
        {
          "internalType": "uint256",
          "name": "",
          "type": "uint256"
        }
      ],
      "stateMutability": "view",
      "type": "function"
    },
    {
      "inputs": [
        {
          "internalType": "address",
          "name": "liquidator",
          "type": "address"
        },
        {
          "internalType": "address",
          "name": "borrower",
          "type": "address"
        },
        {
          "internalType": "uint256",
          "name": "seizeTokens",
          "type": "uint256"
        }
      ],
      "name": "seize",
      "outputs": [
        {
          "internalType": "uint256",
          "name": "",
          "type": "uint256"
        }
      ],
      "stateMutability": "nonpayable",
      "type": "function"
    },
    {
      "inputs": [],
      "name": "supplyRatePerBlock",
      "outputs": [
        {
          "internalType": "uint256",
          "name": "",
          "type": "uint256"
        }
      ],
      "stateMutability": "view",
      "type": "function"
    },
    {
      "inputs": [],
      "name": "symbol",
      "outputs": [
        {
          "internalType": "string",
          "name": "",
          "type": "string"
        }
      ],
      "stateMutability": "view",
      "type": "function"
    },
    {
      "inputs": [],
      "name": "totalAdminFees",
      "outputs": [
        {
          "internalType": "uint256",
          "name": "",
          "type": "uint256"
        }
      ],
      "stateMutability": "view",
      "type": "function"
    },
    {
      "inputs": [],
      "name": "totalBorrows",
      "outputs": [
        {
          "internalType": "uint256",
          "name": "",
          "type": "uint256"
        }
      ],
      "stateMutability": "view",
      "type": "function"
    },
    {
      "inputs": [],
      "name": "totalBorrowsCurrent",
      "outputs": [
        {
          "internalType": "uint256",
          "name": "",
          "type": "uint256"
        }
      ],
      "stateMutability": "nonpayable",
      "type": "function"
    },
    {
      "inputs": [],
      "name": "totalFuseFees",
      "outputs": [
        {
          "internalType": "uint256",
          "name": "",
          "type": "uint256"
        }
      ],
      "stateMutability": "view",
      "type": "function"
    },
    {
      "inputs": [],
      "name": "totalReserves",
      "outputs": [
        {
          "internalType": "uint256",
          "name": "",
          "type": "uint256"
        }
      ],
      "stateMutability": "view",
      "type": "function"
    },
    {
      "inputs": [],
      "name": "totalSupply",
      "outputs": [
        {
          "internalType": "uint256",
          "name": "",
          "type": "uint256"
        }
      ],
      "stateMutability": "view",
      "type": "function"
    },
    {
      "inputs": [
        {
          "internalType": "address",
          "name": "dst",
          "type": "address"
        },
        {
          "internalType": "uint256",
          "name": "amount",
          "type": "uint256"
        }
      ],
      "name": "transfer",
      "outputs": [
        {
          "internalType": "bool",
          "name": "",
          "type": "bool"
        }
      ],
      "stateMutability": "nonpayable",
      "type": "function"
    },
    {
      "inputs": [
        {
          "internalType": "address",
          "name": "src",
          "type": "address"
        },
        {
          "internalType": "address",
          "name": "dst",
          "type": "address"
        },
        {
          "internalType": "uint256",
          "name": "amount",
          "type": "uint256"
        }
      ],
      "name": "transferFrom",
      "outputs": [
        {
          "internalType": "bool",
          "name": "",
          "type": "bool"
        }
      ],
      "stateMutability": "nonpayable",
      "type": "function"
    },
    {
      "inputs": [],
      "name": "underlying",
      "outputs": [
        {
          "internalType": "address",
          "name": "",
          "type": "address"
        }
      ],
      "stateMutability": "view",
      "type": "function"
    },
    {
      "stateMutability": "payable",
      "type": "receive"
    }
  ],
  "bytecode": {
    "object": "0x608060405234801561001057600080fd5b506157c580620000216000396000f3fe6080604052600436106103395760003560e01c806391dd36c6116101ab578063bd6d894d116100f7578063dd62ed3e11610095578063f3fdb15a1161006f578063f3fdb15a1461095d578063f8f9da281461097d578063fca7820b14610992578063fe9c44ae146109b257600080fd5b8063dd62ed3e146108e4578063e59746191461092a578063f2b3abbd1461093d57600080fd5b8063c5ebeaec116100d1578063c5ebeaec14610878578063db006a7514610898578063dbfe7c19146108b8578063dc028ab1146108ce57600080fd5b8063bd6d894d14610807578063be99f1191461081c578063c37f68e21461083857600080fd5b8063a7b820df11610164578063aae40a2a1161013e578063aae40a2a146107aa578063ac784ddc146107bd578063ae9d70b0146107d2578063b2a02ff1146107e757600080fd5b8063a7b820df14610754578063a9059cbb14610774578063aa5af0fd1461079457600080fd5b806391dd36c6146106aa57806395d89b41146106ca57806395dd9193146106df578063a03dce8d146106ff578063a0b0d2891461071f578063a6afed951461073f57600080fd5b80633b1d21a2116102855780636c540baf1161022357806373acee98116101fd57806373acee9814610649578063852a12e31461065e5780638d02d9a11461067e5780638f840ddd1461069457600080fd5b80636c540baf146105dd5780636f307dc3146105f357806370a082311461061357600080fd5b80635fe3b5671161025f5780635fe3b5671461056c578063601a0bf11461058c57806361feacff146105ac5780636752e702146105c257600080fd5b80633b1d21a21461053957806347bd37181461054e5780634e4d9fea1461056457600080fd5b806318160ddd116102f257806323b872dd116102cc57806323b872dd146104ad578063313ce567146104cd57806334154d4c146104f95780633af9e6691461051957600080fd5b806318160ddd14610462578063182df0f514610478578063219ef65c1461048d57600080fd5b806306fdde0314610381578063095ea7b3146103ac5780631249c58b146103dc57806315761d51146103e6578063173b99041461041e57806317bfdfbc1461044257600080fd5b3661037c576000610349346109c6565b509050610379816040518060400160405280600b81526020016a1b5a5b9d0819985a5b195960aa1b815250610a2d565b50005b600080fd5b34801561038d57600080fd5b50610396610d0f565b6040516103a39190615137565b60405180910390f35b3480156103b857600080fd5b506103cc6103c736600461517f565b610d9d565b60405190151581526020016103a3565b6103e4610e0d565b005b3480156103f257600080fd5b50600054610406906001600160a01b031681565b6040516001600160a01b0390911681526020016103a3565b34801561042a57600080fd5b50610434600a5481565b6040519081526020016103a3565b34801561044e57600080fd5b5061043461045d3660046151ab565b610e4b565b34801561046e57600080fd5b5061043460115481565b34801561048457600080fd5b50610434610e99565b34801561049957600080fd5b506103e46104a836600461528c565b610f2a565b3480156104b957600080fd5b506103cc6104c8366004615354565b611259565b3480156104d957600080fd5b506004546104e79060ff1681565b60405160ff90911681526020016103a3565b34801561050557600080fd5b506103e46105143660046153d7565b611287565b34801561052557600080fd5b506104346105343660046151ab565b6112e7565b34801561054557600080fd5b50610434611397565b34801561055a57600080fd5b50610434600d5481565b6103e46113a6565b34801561057857600080fd5b50600554610406906001600160a01b031681565b34801561059857600080fd5b506104346105a7366004615443565b6113e8565b3480156105b857600080fd5b50610434600f5481565b3480156105ce57600080fd5b50610434666379da05b6000081565b3480156105e957600080fd5b50610434600b5481565b3480156105ff57600080fd5b50601554610406906001600160a01b031681565b34801561061f57600080fd5b5061043461062e3660046151ab565b6001600160a01b031660009081526012602052604090205490565b34801561065557600080fd5b5061043461143f565b34801561066a57600080fd5b50610434610679366004615443565b611484565b34801561068a57600080fd5b5061043460085481565b3480156106a057600080fd5b50610434600e5481565b3480156106b657600080fd5b506104346106c5366004615443565b61148f565b3480156106d657600080fd5b506103966114d2565b3480156106eb57600080fd5b506104346106fa3660046151ab565b6114df565b34801561070b57600080fd5b5061043461071a366004615443565b611580565b34801561072b57600080fd5b506103e461073a36600461545c565b6115c3565b34801561074b57600080fd5b506104346115ea565b34801561076057600080fd5b5061043461076f366004615443565b6117a1565b34801561078057600080fd5b506103cc61078f36600461517f565b6117e4565b3480156107a057600080fd5b50610434600c5481565b6103e46107b836600461550b565b611811565b3480156107c957600080fd5b506103cc600181565b3480156107de57600080fd5b5061043461185e565b3480156107f357600080fd5b50610434610802366004615354565b611921565b34801561081357600080fd5b50610434611945565b34801561082857600080fd5b5061043467016345785d8a000081565b34801561084457600080fd5b506108586108533660046151ab565b61198b565b6040805194855260208501939093529183015260608201526080016103a3565b34801561088457600080fd5b50610434610893366004615443565b611a2c565b3480156108a457600080fd5b506104346108b3366004615443565b611a37565b3480156108c457600080fd5b5061043460095481565b3480156108da57600080fd5b5061043460105481565b3480156108f057600080fd5b506104346108ff36600461550b565b6001600160a01b03918216600090815260136020908152604080832093909416825291909152205490565b6103e46109383660046151ab565b611a42565b34801561094957600080fd5b506104346109583660046151ab565b611a94565b34801561096957600080fd5b50600654610406906001600160a01b031681565b34801561098957600080fd5b50610434611acc565b34801561099e57600080fd5b506104346109ad366004615443565b611b30565b3480156109be57600080fd5b5060016103cc565b60008060006109d481611b73565b60006109de6115ea565b90508015610a0e57610a028160118111156109fb576109fb615544565b6020611c37565b60009350935050610a1e565b610a183386611cb0565b93509350505b610a2781612074565b50915091565b81610a36575050565b600081516007610a469190615570565b67ffffffffffffffff811115610a5e57610a5e6151d8565b6040519080825280601f01601f191660200182016040528015610a88576020820181803683370190505b50905060005b8251811015610aef57828181518110610aa957610aa9615588565b602001015160f81c60f81b828281518110610ac657610ac6615588565b60200101906001600160f81b031916908160001a90535080610ae78161559e565b915050610a8e565b600160fd1b82610b00836000615570565b81518110610b1057610b10615588565b60200101906001600160f81b031916908160001a905350600560fb1b82610b38836001615570565b81518110610b4857610b48615588565b60200101906001600160f81b031916908160001a905350610b6b6103e8856155cf565b610b76906030615570565b60f81b82610b85836002615570565b81518110610b9557610b95615588565b60200101906001600160f81b031916908160001a905350600a610bb96064866155cf565b610bc391906155e3565b610bce906030615570565b60f81b82610bdd836003615570565b81518110610bed57610bed615588565b60200101906001600160f81b031916908160001a905350600a610c1081866155cf565b610c1a91906155e3565b610c25906030615570565b60f81b82610c34836004615570565b81518110610c4457610c44615588565b60200101906001600160f81b031916908160001a905350610c66600a856155e3565b610c71906030615570565b60f81b82610c80836005615570565b81518110610c9057610c90615588565b60200101906001600160f81b031916908160001a905350602960f81b82610cb8836006615570565b81518110610cc857610cc8615588565b60200101906001600160f81b031916908160001a905350818415610d085760405162461bcd60e51b8152600401610cff9190615137565b60405180910390fd5b5050505050565b60028054610d1c906155f7565b80601f0160208091040260200160405190810160405280929190818152602001828054610d48906155f7565b8015610d955780601f10610d6a57610100808354040283529160200191610d95565b820191906000526020600020905b815481529060010190602001808311610d7857829003601f168201915b505050505081565b3360008181526013602090815260408083206001600160a01b03871680855292528083208590555191929182907f8c5be1e5ebec7d5bd14f71427d1e84f3dd0314c0f7b2291e5b200ac8c7c3b92590610df99087815260200190565b60405180910390a360019150505b92915050565b6000610e18346109c6565b509050610e48816040518060400160405280600b81526020016a1b5a5b9d0819985a5b195960aa1b815250610a2d565b50565b600080610e5781611b73565b6000610e616115ea565b14610e7e5760405162461bcd60e51b8152600401610cff9061562c565b610e87836114df565b91505b610e9381612074565b50919050565b6000806000610ea66120f0565b90925090506000826003811115610ebf57610ebf615544565b14610e075760405162461bcd60e51b815260206004820152603560248201527f65786368616e67655261746553746f7265643a2065786368616e67655261746560448201527414dd1bdc9959125b9d195c9b985b0819985a5b1959605a1b6064820152608401610cff565b336001600160a01b03891614610f945760405162461bcd60e51b815260206004820152602960248201527f6f6e6c7920467573652061646d696e206d617920696e697469616c697a6520746044820152681a19481b585c9ad95d60ba1b6064820152608401610cff565b600b54158015610fa45750600c54155b610ffc5760405162461bcd60e51b815260206004820152602360248201527f6d61726b6574206d6179206f6e6c7920626520696e697469616c697a6564206f6044820152626e636560e81b6064820152608401610cff565b600080546001600160a01b0319166001600160a01b038a161790556007869055856110825760405162461bcd60e51b815260206004820152603060248201527f696e697469616c2065786368616e67652072617465206d75737420626520677260448201526f32b0ba32b9103a3430b7103d32b9379760811b6064820152608401610cff565b600061108d8a6121bd565b905080156110dd5760405162461bcd60e51b815260206004820152601a60248201527f73657474696e6720636f6d7074726f6c6c6572206661696c65640000000000006044820152606401610cff565b43600b55670de0b6b3a7640000600c556110f6886122e8565b905080156111515760405162461bcd60e51b815260206004820152602260248201527f73657474696e6720696e7465726573742072617465206d6f64656c206661696c604482015261195960f21b6064820152608401610cff565b8551611164906002906020890190614ffe565b508451611178906003906020880190614ffe565b506004805460ff191660ff861617905561119183612558565b905080156111e15760405162461bcd60e51b815260206004820152601d60248201527f73657474696e67207265736572766520666163746f72206661696c65640000006044820152606401610cff565b6111ea826125f7565b9050801561123a5760405162461bcd60e51b815260206004820152601860248201527f73657474696e672061646d696e20666565206661696c656400000000000000006044820152606401610cff565b50506001805460ff60b01b1916600160b01b1790555050505050505050565b60008061126581611b73565b600061127333878787612711565b14915061127f81612074565b509392505050565b61128f6129af565b6112ce5760405162461bcd60e51b815260206004820152601060248201526f31b0b63632b9103737ba1030b236b4b760811b6044820152606401610cff565b6112da6002858561507e565b50610d086003838361507e565b60008060405180602001604052806112fd611945565b90526001600160a01b038416600090815260126020526040812054919250908190611329908490612b1a565b9092509050600082600381111561134257611342615544565b1461138f5760405162461bcd60e51b815260206004820152601f60248201527f62616c616e636520636f756c64206e6f742062652063616c63756c61746564006044820152606401610cff565b949350505050565b60006113a1612b6c565b905090565b60006113b134612b9e565b509050610e4881604051806040016040528060128152602001711c995c185e509bdc9c9bddc819985a5b195960721b815250610a2d565b6000806113f481611b73565b60006113fe6115ea565b9050801561142a5761142281601181111561141b5761141b615544565b603b611c37565b925050610e8a565b61143384612be5565b925050610e9381612074565b60008061144b81611b73565b60006114556115ea565b146114725760405162461bcd60e51b8152600401610cff9061562c565b600d54915061148081612074565b5090565b6000610e0782612c96565b60008061149b81611b73565b60006114a56115ea565b905080156114c9576114228160118111156114c2576114c2615544565b6052611c37565b611433846125f7565b60038054610d1c906155f7565b60008060006114ed84612cdc565b9092509050600082600381111561150657611506615544565b146115795760405162461bcd60e51b815260206004820152603760248201527f626f72726f7742616c616e636553746f7265643a20626f72726f7742616c616e60448201527f636553746f726564496e7465726e616c206661696c65640000000000000000006064820152608401610cff565b9392505050565b60008061158c81611b73565b60006115966115ea565b905080156115ba576114228160118111156115b3576115b3615544565b6033611c37565b61143384612d95565b6702c68af0bb14000060126115df898989858a8a878b8b610f2a565b505050505050505050565b600b5460009043908114156116025760005b91505090565b600061160c612b6c565b90506000600660009054906101000a90046001600160a01b03166001600160a01b03166315f2405383600d54611651600e5461164c600f54601054612e08565b612e08565b6040516001600160e01b031960e086901b168152600481019390935260248301919091526044820152606401602060405180830381865afa15801561169a573d6000803e3d6000fd5b505050506040513d601f19601f820116820180604052508101906116be919061565c565b905065048c273950008111156117165760405162461bcd60e51b815260206004820152601c60248201527f626f72726f772072617465206973206162737572646c792068696768000000006044820152606401610cff565b60008061172585600b54612e3e565b9092509050600082600381111561173e5761173e615544565b1461178b5760405162461bcd60e51b815260206004820152601f60248201527f636f756c64206e6f742063616c63756c61746520626c6f636b2064656c7461006044820152606401610cff565b61179785858584612e69565b9550505050505090565b6000806117ad81611b73565b60006117b76115ea565b905080156117db576114228160118111156117d4576117d4615544565b6037611c37565b61143384612f95565b6000806117f081611b73565b60006117fe33338787612711565b14915061180a81612074565b5092915050565b600061181e833484613073565b50905061185981604051806040016040528060168152602001751b1a5c5d5a59185d19509bdc9c9bddc819985a5b195960521b815250610a2d565b505050565b6006546000906001600160a01b031663b816881661187a612b6c565b600d54611891600e5461164c600f54601054612e08565b600854600954600a546118a49190615570565b6118ae9190615570565b6040516001600160e01b031960e087901b16815260048101949094526024840192909252604483015260648201526084015b602060405180830381865afa1580156118fd573d6000803e3d6000fd5b505050506040513d601f19601f820116820180604052508101906113a1919061565c565b6000600161192e81611b73565b61193a33868686613167565b915061127f81612074565b60008061195181611b73565b600061195b6115ea565b146119785760405162461bcd60e51b8152600401610cff9061562c565b611980610e99565b915061148081612074565b6001600160a01b0381166000908152601260205260408120548190819081908180806119b689612cdc565b9350905060008160038111156119ce576119ce615544565b146119ec5760095b6000806000975097509750975050505050611a25565b6119f46120f0565b925090506000816003811115611a0c57611a0c615544565b14611a185760096119d6565b5060009650919450925090505b9193509193565b6000610e078261365f565b6000610e07826136a3565b6000611a4e82346136e2565b509050611a90816040518060400160405280601881526020017f7265706179426f72726f77426568616c66206661696c65640000000000000000815250610a2d565b5050565b600080611a9f6115ea565b90508015611ac357611579816011811115611abc57611abc615544565b604b611c37565b611579836122e8565b6006546000906001600160a01b03166315f24053611ae8612b6c565b600d54611aff600e5461164c600f54601054612e08565b6040516001600160e01b031960e086901b1681526004810193909352602483019190915260448201526064016118e0565b600080611b3c81611b73565b6000611b466115ea565b90508015611b6a57611422816011811115611b6357611b63615544565b6059611c37565b61143384612558565b600154600160b01b900460ff16611bb95760405162461bcd60e51b815260206004820152600a6024820152691c994b595b9d195c995960b21b6044820152606401610cff565b80611c2757600560009054906101000a90046001600160a01b03166001600160a01b031663c90c20b16040518163ffffffff1660e01b8152600401600060405180830381600087803b158015611c0e57600080fd5b505af1158015611c22573d6000803e3d6000fd5b505050505b506001805460ff60b01b19169055565b60007f45b96fe442630264581b197e84bbada861235052c5a1aadfff9ea4e40a969aa0836011811115611c6c57611c6c615544565b836063811115611c7e57611c7e615544565b60408051928352602083019190915260009082015260600160405180910390a182601181111561157957611579615544565b600554604051634ef4c3e160e01b8152600091829182916001600160a01b031690634ef4c3e190611ce990309089908990600401615675565b6020604051808303816000875af1158015611d08573d6000803e3d6000fd5b505050506040513d601f19601f82011682018060405250810190611d2c919061565c565b90508015611d4d57611d41600360218361374c565b6000925092505061206d565b43600b5414611d6257611d41600a6024611c37565b611da36040805160e0810190915280600081526020016000815260200160008152602001600081526020016000815260200160008152602001600081525090565b611dab6120f0565b6040830181905260208301826003811115611dc857611dc8615544565b6003811115611dd957611dd9615544565b9052506000905081602001516003811115611df657611df6615544565b14611e2a57611e1d6009602383602001516003811115611e1857611e18615544565b61374c565b600093509350505061206d565b611e3486866137ee565b60c0820181905260408051602081018252908301518152611e55919061387a565b6060830181905260208301826003811115611e7257611e72615544565b6003811115611e8357611e83615544565b9052506000905081602001516003811115611ea057611ea0615544565b14611eed5760405162461bcd60e51b815260206004820181905260248201527f4d494e545f45584348414e47455f43414c43554c4154494f4e5f4641494c45446044820152606401610cff565b611efd6011548260600151612e08565b60808201526001600160a01b0386166000908152601260205260409020546060820151611f2a9190612e08565b60a0820181905260808201516011556001600160a01b038716600090815260126020526040908190209190915560c0820151606083015191517f4c209b5fc8ad50758f13e2e1088ba56a560dff690a1c6fef26394f4c03821c4f92611f93928a92909190615699565b60405180910390a1856001600160a01b0316306001600160a01b03166000805160206157708339815191528360600151604051611fd291815260200190565b60405180910390a360055460c082015160608301516040516341c728b960e01b81523060048201526001600160a01b038a81166024830152604482019390935260648101919091529116906341c728b990608401600060405180830381600087803b15801561204057600080fd5b505af1158015612054573d6000803e3d6000fd5b5060009250612061915050565b8160c001519350935050505b9250929050565b6001805460ff60b01b1916600160b01b17905580610e4857600560009054906101000a90046001600160a01b03166001600160a01b031663632e51426040518163ffffffff1660e01b8152600401600060405180830381600087803b1580156120dc57600080fd5b505af1158015610d08573d6000803e3d6000fd5b60115460009081908061210a575050600754600092909150565b6000612114612b6c565b9050600061212e6040518060200160405280600081525090565b600061215084600d5461214b600e5461164c600f54601054612e08565b61388a565b93509050600081600381111561216857612168615544565b1461217a579660009650945050505050565b61218483866138dd565b92509050600081600381111561219c5761219c615544565b146121ae579660009650945050505050565b50516000969095509350505050565b600080600560009054906101000a90046001600160a01b03169050826001600160a01b0316627e3dd26040518163ffffffff1660e01b8152600401602060405180830381865afa158015612215573d6000803e3d6000fd5b505050506040513d601f19601f8201168201806040525081019061223991906156ba565b6122855760405162461bcd60e51b815260206004820152601c60248201527f6d61726b6572206d6574686f642072657475726e65642066616c7365000000006044820152606401610cff565b600580546001600160a01b0319166001600160a01b0385811691821790925560408051928416835260208301919091527f7ac369dbd14fa5ea3f473ed67cc9d598964a77501540ba6751eb0b3decf5870d91015b60405180910390a16000611579565b6000806122f36129af565b612303576115796001604d611c37565b43600b541461231857611579600a604c611c37565b600660009054906101000a90046001600160a01b03169050826001600160a01b0316632191f92a6040518163ffffffff1660e01b8152600401602060405180830381865afa15801561236e573d6000803e3d6000fd5b505050506040513d601f19601f8201168201806040525081019061239291906156ba565b6123de5760405162461bcd60e51b815260206004820152601c60248201527f6d61726b6572206d6574686f642072657475726e65642066616c7365000000006044820152606401610cff565b600680546001600160a01b0319166001600160a01b0385811691821790925560408051928416835260208301919091527fedffc32e068c7c95dfd4bdfd5c4d939a084d6b11c4199eac8436ed234d72f926910160405180910390a16001600160a01b038116156124cc5760408051600481526024810182526020810180516001600160e01b0316636cc1140b60e11b17905290516001600160a01b03831691612486916156dc565b6000604051808303816000865af19150503d80600081146124c3576040519150601f19603f3d011682016040523d82523d6000602084013e6124c8565b606091505b5050505b60408051600481526024810182526020810180516001600160e01b031663742a137b60e11b17905290516001600160a01b0385169161250a916156dc565b6000604051808303816000865af19150503d8060008114612547576040519150601f19603f3d011682016040523d82523d6000602084013e61254c565b606091505b50600091506115799050565b60006125626129af565b61257257610e076001605a611c37565b43600b541461258757610e07600a605b611c37565b670de0b6b3a76400006125a761259f84600854612e08565b600954612e08565b11156125b957610e076002605c611c37565b600a80549083905560408051828152602081018590527faaa68312e2ea9d50e16af5068410ab56e1a1fd06037b1a35664812c30f82146091016122d9565b600043600b541461260e57610e07600a6054611c37565b60001982141561261e5760085491505b60006126286139a8565b9050670de0b6b3a7640000612648612642600a5486612e08565b83612e08565b111561265a5761157960026055611c37565b82600854146126be5761266b6129af565b61267b5761157960016053611c37565b600880549084905560408051828152602081018690527fcdd0b588250e1398549f79cfdb8217c186688822905d6715b0834ea1c865594a910160405180910390a1505b806009541461270a57600980549082905560408051828152602081018490527f92eef861b6533b7d3417f39c2ad7b460eed4e88a32fa3604f30e718b7602e7dc910160405180910390a1505b6000611579565b6005546040516317b9b84b60e31b81523060048201526001600160a01b038581166024830152848116604483015260648201849052600092839291169063bdcdc258906084016020604051808303816000875af1158015612776573d6000803e3d6000fd5b505050506040513d601f19601f8201168201806040525081019061279a919061565c565b905080156127b7576127af6003605d8361374c565b91505061138f565b836001600160a01b0316856001600160a01b031614156127dd576127af6002605e611c37565b6000856001600160a01b0316876001600160a01b03161415612802575060001961282a565b506001600160a01b038086166000908152601360209081526040808320938a16835292905220545b60008060008061283a8589612e3e565b9094509250600084600381111561285357612853615544565b14612871576128646009605e611c37565b965050505050505061138f565b6001600160a01b038a166000908152601260205260409020546128949089612e3e565b909450915060008460038111156128ad576128ad615544565b146128be576128646009605f611c37565b6001600160a01b0389166000908152601260205260409020546128e190896139fc565b909450905060008460038111156128fa576128fa615544565b1461290b5761286460096060611c37565b6001600160a01b03808b16600090815260126020526040808220859055918b168152208190556000198514612963576001600160a01b03808b166000908152601360209081526040808320938f168352929052208390555b886001600160a01b03168a6001600160a01b03166000805160206157708339815191528a60405161299691815260200190565b60405180910390a35060009a9950505050505050505050565b600554604080516303e1469160e61b815290516000926001600160a01b031691829163f851a440916004808201926020929091908290030181865afa1580156129fc573d6000803e3d6000fd5b505050506040513d601f19601f82011682018060405250810190612a2091906156f8565b6001600160a01b0316336001600160a01b0316148015612a9d5750806001600160a01b0316630a755ec26040518163ffffffff1660e01b8152600401602060405180830381865afa158015612a79573d6000803e3d6000fd5b505050506040513d601f19601f82011682018060405250810190612a9d91906156ba565b806115fc57506000546001600160a01b0316331480156115fc5750806001600160a01b0316632f1069ba6040518163ffffffff1660e01b8152600401602060405180830381865afa158015612af6573d6000803e3d6000fd5b505050506040513d601f19601f820116820180604052508101906115fc91906156ba565b600080600080612b2a8686613a2c565b90925090506000826003811115612b4357612b43615544565b14612b54575091506000905061206d565b6000612b5f82613aa8565b9350935050509250929050565b6000806000612b7b4734612e3e565b90925090506000826003811115612b9457612b94615544565b14610e0757600080fd5b6000806000612bac81611b73565b6000612bb66115ea565b90508015612bda57610a02816011811115612bd357612bd3615544565b6041611c37565b610a18333387613ac0565b600080612bf06129af565b612c00576115796001603c611c37565b43600b5414612c1557611579600a603e611c37565b82612c1e612b6c565b1015612c3057611579600e603d611c37565b600e54831115612c46576115796002603f611c37565b612c52600e5484613ed8565b600e8190559050612c633384613f12565b7f3bad0c59cf2f06e7314077049f48a93578cd16f5ef92329f1dab1420a99c177e3384836040516122d993929190615699565b600080612ca281611b73565b6000612cac6115ea565b90508015612cd057611422816011811115612cc957612cc9615544565b602a611c37565b61143333600086613fac565b6001600160a01b038116600090815260146020526040812080548291829182918291612d115750600096879650945050505050565b612d218160000154600c54614532565b90945092506000846003811115612d3a57612d3a615544565b14612d4d57509195600095509350505050565b612d5b83826001015461457c565b90945091506000846003811115612d7457612d74615544565b14612d8757509195600095509350505050565b506000969095509350505050565b60008043600b5414612dad57611579600a6035611c37565b82612db6612b6c565b1015612dc857611579600e6034611c37565b601054831115612dde5761157960026036611c37565b612dea60105484613ed8565b601081905560005490915061270a906001600160a01b031684613f12565b60006115798383604051806040016040528060118152602001706164646974696f6e206f766572666c6f7760781b8152506145a7565b600080838311612e5d576000612e548486615715565b9150915061206d565b5060039050600061206d565b600080612e84604051806020016040528086815250846145e1565b90506000612e9482600d54614612565b90506000612ea482600d54612e08565b90506000612ec56040518060200160405280600a5481525084600e5461462a565b90506000612ee660405180602001604052806009548152508560105461462a565b90506000612f07604051806020016040528060085481525086600f5461462a565b90506000612f1a87600c54600c5461462a565b600b8d9055600c819055600d869055600e8590556010849055600f839055604080518d815260208101899052908101829052606081018790529091507f4dec04e750ca11537cabcd8a9eab06494de08da3735bc8871cd41250e190bc049060800160405180910390a160009c9b505050505050505050505050565b60008043600b5414612fad57611579600a6039611c37565b82612fb6612b6c565b1015612fc857611579600e6038611c37565b600f54831115612fde576115796002603a611c37565b612fea600f5484613ed8565b905080600f8190555061270a600560009054906101000a90046001600160a01b03166001600160a01b031663f851a4406040518163ffffffff1660e01b8152600401602060405180830381865afa158015613049573d6000803e3d6000fd5b505050506040513d601f19601f8201168201806040525081019061306d91906156f8565b84613f12565b600080600061308181611b73565b600061308b6115ea565b905080156130bb576130af8160118111156130a8576130a8615544565b6011611c37565b60009350935050613155565b846001600160a01b031663a6afed956040518163ffffffff1660e01b81526004016020604051808303816000875af11580156130fb573d6000803e3d6000fd5b505050506040513d601f19601f8201168201806040525081019061311f919061565c565b90508015613143576130af81601181111561313c5761313c615544565b6012611c37565b61314f33888888614654565b93509350505b61315e81612074565b50935093915050565b60055460405163d02f735160e01b81523060048201526001600160a01b0386811660248301528581166044830152848116606483015260848201849052600092839291169063d02f73519060a4016020604051808303816000875af11580156131d4573d6000803e3d6000fd5b505050506040513d601f19601f820116820180604052508101906131f8919061565c565b9050801561320d576127af6003601d8361374c565b846001600160a01b0316846001600160a01b03161415613233576127af6006601e611c37565b613298604080516101808101909152806000815260200160008152602001600081526020016000815260200160008152602001600081526020016000815260200160008152602001600081526020016000815260200160008152602001600081525090565b6001600160a01b0385166000908152601260205260409020546132bb9085612e3e565b60208301819052828260038111156132d5576132d5615544565b60038111156132e6576132e6615544565b905250600090508151600381111561330057613300615544565b1461332b576133226009601c83600001516003811115611e1857611e18615544565b9250505061138f565b61334a846040518060200160405280666379da05b60000815250614b15565b6080820152604080516020810190915267016345785d8a00008152613370908590614b15565b61014082015260808101516133959061338a908690613ed8565b826101400151613ed8565b60608201526133a26120f0565b60c08301819052828260038111156133bc576133bc615544565b60038111156133cd576133cd615544565b90525060009050815160038111156133e7576133e7615544565b146134345760405162461bcd60e51b815260206004820152601860248201527f65786368616e67652072617465206d617468206572726f7200000000000000006044820152606401610cff565b61345460405180602001604052808360c001518152508260800151614612565b60a0820152604080516020810190915260c0820151815261014082015161347b9190614612565b610160820152600e5460a08201516134939190612e08565b60e082015260115460808201516134ad9161338a91613ed8565b6101208201526010546101608201516134c69190612e08565b6101008201526001600160a01b03861660009081526012602052604090205460608201516134f491906139fc565b604083018190528282600381111561350e5761350e615544565b600381111561351f5761351f615544565b905250600090508151600381111561353957613539615544565b1461355b576133226009601b83600001516003811115611e1857611e18615544565b60e0810151600e556101208101516011556101008101516010556020808201516001600160a01b0387811660008181526012855260408082209490945583860151928b1680825290849020929092556060850151925192835290929091600080516020615770833981519152910160405180910390a3306001600160a01b0316856001600160a01b0316600080516020615770833981519152836080015160405161360891815260200190565b60405180910390a360a081015160e08201516040517fa91e67c5ea634cd43a12c5a482724b03de01e85ca68702a53d0c2f45cb7c1dc59261364a923092615699565b60405180910390a16000979650505050505050565b60008061366b81611b73565b60006136756115ea565b905080156136995761142281601181111561369257613692615544565b600a611c37565b6114333385614b38565b6000806136af81611b73565b60006136b96115ea565b905080156136d657611422816011811115612cc957612cc9615544565b61143333856000613fac565b60008060006136f081611b73565b60006136fa6115ea565b9050801561372a5761371e81601181111561371757613717615544565b6040611c37565b6000935093505061373b565b613735338787613ac0565b93509350505b61374481612074565b509250929050565b60007f45b96fe442630264581b197e84bbada861235052c5a1aadfff9ea4e40a969aa084601181111561378157613781615544565b84606381111561379357613793615544565b604080519283526020830191909152810184905260600160405180910390a160038460118111156137c6576137c6615544565b146137e2578360118111156137dd576137dd615544565b61138f565b61138f826103e8615570565b6000336001600160a01b0384161461383a5760405162461bcd60e51b815260206004820152600f60248201526e0e6cadcc8cae440dad2e6dac2e8c6d608b1b6044820152606401610cff565b813414610e935760405162461bcd60e51b815260206004820152600e60248201526d0ecc2d8eaca40dad2e6dac2e8c6d60931b6044820152606401610cff565b600080600080612b2a8686614ecc565b60008060008061389a87876139fc565b909250905060008260038111156138b3576138b3615544565b146138c457509150600090506138d5565b6138ce8186612e3e565b9350935050505b935093915050565b60006138f56040518060200160405280600081525090565b60008061390a86670de0b6b3a7640000614532565b9092509050600082600381111561392357613923615544565b146139425750604080516020810190915260008152909250905061206d565b60008061394f838861457c565b9092509050600082600381111561396857613968615544565b1461398b578160405180602001604052806000815250955095505050505061206d565b604080516020810190915290815260009890975095505050505050565b60008060009054906101000a90046001600160a01b03166001600160a01b031663dd86fea16040518163ffffffff1660e01b8152600401602060405180830381865afa1580156118fd573d6000803e3d6000fd5b60008080613a0a8486615570565b9050848110613a1e5760009250905061206d565b60026000925092505061206d565b6000613a446040518060200160405280600081525090565b600080613a55866000015186614532565b90925090506000826003811115613a6e57613a6e615544565b14613a8d5750604080516020810190915260008152909250905061206d565b60408051602081019091529081526000969095509350505050565b8051600090610e0790670de0b6b3a7640000906155cf565b600554604051631200453160e11b81523060048201526001600160a01b03858116602483015284811660448301526064820184905260009283928392909116906324008a62906084016020604051808303816000875af1158015613b28573d6000803e3d6000fd5b505050506040513d601f19601f82011682018060405250810190613b4c919061565c565b90508015613b6d57613b61600360438361374c565b600092509250506138d5565b43600b5414613b8257613b61600a6044611c37565b613bcb6040805161010081019091528060008152602001600081526020016000815260200160008152602001600081526020016000815260200160008152602001600081525090565b6001600160a01b0386166000908152601460205260409020600101546060820152613bf586612cdc565b6080830181905260208301826003811115613c1257613c12615544565b6003811115613c2357613c23615544565b9052506000905081602001516003811115613c4057613c40615544565b14613c6f57613c626009604283602001516003811115611e1857611e18615544565b60009350935050506138d5565b600019851415613c885760808101516040820152613c90565b604081018590525b613c9e8782604001516137ee565b60e082018190526080820151613cb391612e3e565b60a0830181905260208301826003811115613cd057613cd0615544565b6003811115613ce157613ce1615544565b9052506000905081602001516003811115613cfe57613cfe615544565b14613d715760405162461bcd60e51b815260206004820152603a60248201527f52455041595f424f52524f575f4e45575f4143434f554e545f424f52524f575f60448201527f42414c414e43455f43414c43554c4154494f4e5f4641494c45440000000000006064820152608401610cff565b613d81600d548260e00151612e3e565b60c0830181905260208301826003811115613d9e57613d9e615544565b6003811115613daf57613daf615544565b9052506000905081602001516003811115613dcc57613dcc615544565b14613e335760405162461bcd60e51b815260206004820152603160248201527f52455041595f424f52524f575f4e45575f544f54414c5f42414c414e43455f43604482015270105310d55310551253d397d19052531151607a1b6064820152608401610cff565b60a081810180516001600160a01b03898116600081815260146020908152604091829020948555600c5460019095019490945560c0870151600d81905560e088015195518251948f16855294840192909252820193909352606081019190915260808101919091527f1a2a22cb034d26d1854bdc6666a5b91fe25efbbb5dcad3b0355478d6f5c362a1910160405180910390a160e00151600097909650945050505050565b60006115798383604051806040016040528060158152602001747375627472616374696f6e20756e646572666c6f7760581b815250614f3f565b6000826001600160a01b03168260405160006040518083038185875af1925050503d8060008114613f5f576040519150601f19603f3d011682016040523d82523d6000602084013e613f64565b606091505b50509050806118595760405162461bcd60e51b8152602060048201526014602482015273191bd51c985b9cd9995c93dd5d0819985a5b195960621b6044820152606401610cff565b6000821580613fb9575081155b6140225760405162461bcd60e51b815260206004820152603460248201527f6f6e65206f662072656465656d546f6b656e73496e206f722072656465656d416044820152736d6f756e74496e206d757374206265207a65726f60601b6064820152608401610cff565b6140636040805160e0810190915280600081526020016000815260200160008152602001600081526020016000815260200160008152602001600081525090565b61406b6120f0565b604083018190526020830182600381111561408857614088615544565b600381111561409957614099615544565b90525060009050816020015160038111156140b6576140b6615544565b146140e0576140d86009602e83602001516003811115611e1857611e18615544565b915050611579565b83156141795760608101849052604080516020810182529082015181526141079085612b1a565b608083018190526020830182600381111561412457614124615544565b600381111561413557614135615544565b905250600090508160200151600381111561415257614152615544565b14614174576140d86009602c83602001516003811115611e1857611e18615544565b61420a565b614195836040518060200160405280846040015181525061387a565b60608301819052602083018260038111156141b2576141b2615544565b60038111156141c3576141c3615544565b90525060009050816020015160038111156141e0576141e0615544565b14614202576140d86009602d83602001516003811115611e1857611e18615544565b608081018390525b600554606082015160405163eabe7d9160e01b81526000926001600160a01b03169163eabe7d91916142439130918b9190600401615675565b6020604051808303816000875af1158015614262573d6000803e3d6000fd5b505050506040513d601f19601f82011682018060405250810190614286919061565c565b905080156142a45761429b6003602b8361374c565b92505050611579565b43600b54146142b95761429b600a602f611c37565b6142c96011548360600151612e3e565b60a08401819052602084018260038111156142e6576142e6615544565b60038111156142f7576142f7615544565b905250600090508260200151600381111561431457614314615544565b146143365761429b6009603184602001516003811115611e1857611e18615544565b6001600160a01b038616600090815260126020526040902054606083015161435e9190612e3e565b60c084018190526020840182600381111561437b5761437b615544565b600381111561438c5761438c615544565b90525060009050826020015160038111156143a9576143a9615544565b146143cb5761429b6009603084602001516003811115611e1857611e18615544565b81608001516143d8612b6c565b10156143ea5761429b600e6032611c37565b60a082015160115560c08201516001600160a01b0387166000908152601260205260409020556080820151614420908790613f12565b306001600160a01b0316866001600160a01b0316600080516020615770833981519152846060015160405161445791815260200190565b60405180910390a3608082015160608301516040517fe5b754fb1abb7f01b499791d0b820ae3b6af3424ac1c59768edb53f4ec31a92992614499928a92615699565b60405180910390a1600554608083015160608401516040516351dff98960e01b81523060048201526001600160a01b038a81166024830152604482019390935260648101919091529116906351dff98990608401600060405180830381600087803b15801561450757600080fd5b505af115801561451b573d6000803e3d6000fd5b5060009250614528915050565b9695505050505050565b600080836145455750600090508061206d565b6000614551848661572c565b90508361455e86836155cf565b146145715760026000925092505061206d565b60009250905061206d565b60008082614590575060019050600061206d565b600061459c84866155cf565b915091509250929050565b6000806145b48486615570565b905082858210156145d85760405162461bcd60e51b8152600401610cff9190615137565b50949350505050565b6040805160208101909152600081526040518060200160405280614609856000015185614f6e565b90529392505050565b60008061461f84846145e1565b905061138f81613aa8565b60008061463785856145e1565b905061464b61464582613aa8565b84612e08565b95945050505050565b600554604051632fe3f38f60e11b81523060048201526001600160a01b03838116602483015286811660448301528581166064830152608482018590526000928392839290911690635fc7e71e9060a4016020604051808303816000875af11580156146c4573d6000803e3d6000fd5b505050506040513d601f19601f820116820180604052508101906146e8919061565c565b90508015614709576146fd600360148361374c565b60009250925050614b0c565b43600b541461471e576146fd600a6018611c37565b43846001600160a01b0316636c540baf6040518163ffffffff1660e01b8152600401602060405180830381865afa15801561475d573d6000803e3d6000fd5b505050506040513d601f19601f82011682018060405250810190614781919061565c565b14614792576146fd600a6013611c37565b866001600160a01b0316866001600160a01b031614156147b8576146fd60066019611c37565b846147c9576146fd60076017611c37565b6000198514156147df576146fd60076016611c37565b6000806147ed898989613ac0565b909250905081156148225761481482601181111561480d5761480d615544565b601a611c37565b600094509450505050614b0c565b60055460405163c488847b60e01b815260009182916001600160a01b039091169063c488847b9061485b9030908c908890600401615675565b6040805180830381865afa158015614877573d6000803e3d6000fd5b505050506040513d601f19601f8201168201806040525081019061489b919061574b565b9092509050811561490a5760405162461bcd60e51b815260206004820152603360248201527f4c49515549444154455f434f4d5054524f4c4c45525f43414c43554c4154455f604482015272105353d5539517d4d152569157d19052531151606a1b6064820152608401610cff565b6040516370a0823160e01b81526001600160a01b038b811660048301528291908a16906370a0823190602401602060405180830381865afa158015614953573d6000803e3d6000fd5b505050506040513d601f19601f82011682018060405250810190614977919061565c565b10156149c55760405162461bcd60e51b815260206004820152601860248201527f4c49515549444154455f5345495a455f544f4f5f4d55434800000000000000006044820152606401610cff565b60006001600160a01b0389163014156149eb576149e4308d8d85613167565b9050614a61565b60405163b2a02ff160e01b81526001600160a01b038a169063b2a02ff190614a1b908f908f908790600401615675565b6020604051808303816000875af1158015614a3a573d6000803e3d6000fd5b505050506040513d601f19601f82011682018060405250810190614a5e919061565c565b90505b8015614aa65760405162461bcd60e51b81526020600482015260146024820152731d1bdad95b881cd95a5e9d5c994819985a5b195960621b6044820152606401610cff565b604080516001600160a01b038e811682528d811660208301528183018790528b1660608201526080810184905290517f298637f684da70674f26509b10f07ec2fbc77a335ab1e7d6215a4b2484d8bb529181900360a00190a16000975092955050505050505b94509492505050565b6000670de0b6b3a7640000614b2e848460000151614f6e565b61157991906155cf565b60055460405163368f515360e21b815260009182916001600160a01b039091169063da3d454c90614b7190309088908890600401615675565b6020604051808303816000875af1158015614b90573d6000803e3d6000fd5b505050506040513d601f19601f82011682018060405250810190614bb4919061565c565b90508015614bd157614bc9600360108361374c565b915050610e07565b43600b5414614be657614bc9600a600c611c37565b6000614bf0612b6c565b905083811015614c0f57614c06600e600b611c37565b92505050610e07565b614c3b604080516080810190915280600081526020016000815260200160008152602001600081525090565b614c4486612cdc565b6020830181905282826003811115614c5e57614c5e615544565b6003811115614c6f57614c6f615544565b9052506000905081516003811115614c8957614c89615544565b14614cb457614caa60098083600001516003811115611e1857611e18615544565b9350505050610e07565b614cc28160200151866139fc565b6040830181905282826003811115614cdc57614cdc615544565b6003811115614ced57614ced615544565b9052506000905081516003811115614d0757614d07615544565b14614d2957614caa6009600e83600001516003811115611e1857611e18615544565b6005546040828101519051631de6c8a560e21b815230600482015260248101919091526001600160a01b039091169063779b2294906044016020604051808303816000875af1158015614d80573d6000803e3d6000fd5b505050506040513d601f19601f82011682018060405250810190614da4919061565c565b92508215614db957614caa600360108561374c565b614dc5600d54866139fc565b6060830181905282826003811115614ddf57614ddf615544565b6003811115614df057614df0615544565b9052506000905081516003811115614e0a57614e0a615544565b14614e2c57614caa6009600d83600001516003811115611e1857611e18615544565b6040808201516001600160a01b0388166000908152601460205291909120908155600c546001909101556060810151600d55614e688686613f12565b60408082015160608084015183516001600160a01b038b168152602081018a9052938401929092528201527f13ed6866d4e1ee6da46f845c46d7e54120883d75c5ea9a2dacc1c4ca8984ab809060800160405180910390a160009695505050505050565b6000614ee46040518060200160405280600081525090565b600080614ef9670de0b6b3a764000087614532565b90925090506000826003811115614f1257614f12615544565b14614f315750604080516020810190915260008152909250905061206d565b612b5f8186600001516138dd565b60008184841115614f635760405162461bcd60e51b8152600401610cff9190615137565b5061138f8385615715565b600061157983836040518060400160405280601781526020017f6d756c7469706c69636174696f6e206f766572666c6f770000000000000000008152506000831580614fb8575082155b15614fc557506000611579565b6000614fd1848661572c565b905083614fde86836155cf565b1483906145d85760405162461bcd60e51b8152600401610cff9190615137565b82805461500a906155f7565b90600052602060002090601f01602090048101928261502c5760008555615072565b82601f1061504557805160ff1916838001178555615072565b82800160010185558215615072579182015b82811115615072578251825591602001919060010190615057565b506114809291506150f2565b82805461508a906155f7565b90600052602060002090601f0160209004810192826150ac5760008555615072565b82601f106150c55782800160ff19823516178555615072565b82800160010185558215615072579182015b828111156150725782358255916020019190600101906150d7565b5b8082111561148057600081556001016150f3565b60005b8381101561512257818101518382015260200161510a565b83811115615131576000848401525b50505050565b6020815260008251806020840152615156816040850160208701615107565b601f01601f19169190910160400192915050565b6001600160a01b0381168114610e4857600080fd5b6000806040838503121561519257600080fd5b823561519d8161516a565b946020939093013593505050565b6000602082840312156151bd57600080fd5b81356115798161516a565b80356151d38161516a565b919050565b634e487b7160e01b600052604160045260246000fd5b600082601f8301126151ff57600080fd5b813567ffffffffffffffff8082111561521a5761521a6151d8565b604051601f8301601f19908116603f01168101908282118183101715615242576152426151d8565b8160405283815286602085880101111561525b57600080fd5b836020870160208301376000602085830101528094505050505092915050565b803560ff811681146151d357600080fd5b60008060008060008060008060006101208a8c0312156152ab57600080fd5b89356152b68161516a565b985060208a01356152c68161516a565b97506152d460408b016151c8565b965060608a0135955060808a013567ffffffffffffffff808211156152f857600080fd5b6153048d838e016151ee565b965060a08c013591508082111561531a57600080fd5b506153278c828d016151ee565b94505061533660c08b0161527b565b925060e08a013591506101008a013590509295985092959850929598565b60008060006060848603121561536957600080fd5b83356153748161516a565b925060208401356153848161516a565b929592945050506040919091013590565b60008083601f8401126153a757600080fd5b50813567ffffffffffffffff8111156153bf57600080fd5b60208301915083602082850101111561206d57600080fd5b600080600080604085870312156153ed57600080fd5b843567ffffffffffffffff8082111561540557600080fd5b61541188838901615395565b9096509450602087013591508082111561542a57600080fd5b5061543787828801615395565b95989497509550505050565b60006020828403121561545557600080fd5b5035919050565b600080600080600080600060e0888a03121561547757600080fd5b87356154828161516a565b965060208801356154928161516a565b955060408801356154a28161516a565b9450606088013567ffffffffffffffff808211156154bf57600080fd5b6154cb8b838c016151ee565b955060808a01359150808211156154e157600080fd5b506154ee8a828b016151ee565b93505060a0880135915060c0880135905092959891949750929550565b6000806040838503121561551e57600080fd5b82356155298161516a565b915060208301356155398161516a565b809150509250929050565b634e487b7160e01b600052602160045260246000fd5b634e487b7160e01b600052601160045260246000fd5b600082198211156155835761558361555a565b500190565b634e487b7160e01b600052603260045260246000fd5b60006000198214156155b2576155b261555a565b5060010190565b634e487b7160e01b600052601260045260246000fd5b6000826155de576155de6155b9565b500490565b6000826155f2576155f26155b9565b500690565b600181811c9082168061560b57607f821691505b60208210811415610e9357634e487b7160e01b600052602260045260246000fd5b6020808252601690820152751858d8dc9d59481a5b9d195c995cdd0819985a5b195960521b604082015260600190565b60006020828403121561566e57600080fd5b5051919050565b6001600160a01b039384168152919092166020820152604081019190915260600190565b6001600160a01b039390931683526020830191909152604082015260600190565b6000602082840312156156cc57600080fd5b8151801515811461157957600080fd5b600082516156ee818460208701615107565b9190910192915050565b60006020828403121561570a57600080fd5b81516115798161516a565b6000828210156157275761572761555a565b500390565b60008160001904831182151516156157465761574661555a565b500290565b6000806040838503121561575e57600080fd5b50508051602090910151909290915056feddf252ad1be2c89b69c2b068fc378daa952ba7f163c4a11628f55a4df523b3efa26469706673582212205c6b2ac9b1c4d9033de8a1ababcc1d91725095cd6361f39e07198b4194155fbf64736f6c634300080a0033",
    "linkReferences": {}
  }
}