{
  "abi": [
    {
      "inputs": [
        {
          "internalType": "address",
          "name": "_wtoken",
          "type": "address"
        }
      ],
      "stateMutability": "nonpayable",
      "type": "constructor"
    },
    {
      "inputs": [
        {
          "internalType": "contract ICToken",
          "name": "cToken",
          "type": "address"
        }
      ],
      "name": "getUnderlyingPrice",
      "outputs": [
        {
          "internalType": "uint256",
          "name": "",
          "type": "uint256"
        }
      ],
      "stateMutability": "view",
      "type": "function"
    },
    {
      "inputs": [
        {
          "internalType": "address",
          "name": "underlying",
          "type": "address"
        }
      ],
      "name": "price",
      "outputs": [
        {
          "internalType": "uint256",
          "name": "",
          "type": "uint256"
        }
      ],
      "stateMutability": "view",
      "type": "function"
    },
    {
      "inputs": [],
      "name": "wtoken",
      "outputs": [
        {
          "internalType": "address",
          "name": "",
          "type": "address"
        }
      ],
      "stateMutability": "view",
      "type": "function"
    }
  ],
  "bytecode": {
    "object": "0x60a060405234801561001057600080fd5b50604051610b47380380610b4783398101604081905261002f91610040565b6001600160a01b0316608052610070565b60006020828403121561005257600080fd5b81516001600160a01b038116811461006957600080fd5b9392505050565b608051610aaf61009860003960008181604b0152818161039901526104d90152610aaf6000f3fe608060405234801561001057600080fd5b50600436106100415760003560e01c80639c0591c814610046578063aea910781461008a578063fc57d4df146100ab575b600080fd5b61006d7f000000000000000000000000000000000000000000000000000000000000000081565b6040516001600160a01b0390911681526020015b60405180910390f35b61009d610098366004610838565b6100be565b604051908152602001610081565b61009d6100b9366004610838565b6100cf565b60006100c9826101d2565b92915050565b600080826001600160a01b0316636f307dc36040518163ffffffff1660e01b8152600401602060405180830381865afa158015610110573d6000803e3d6000fd5b505050506040513d601f19601f820116820180604052508101906101349190610855565b9050806001600160a01b031663313ce5676040518163ffffffff1660e01b8152600401602060405180830381865afa158015610174573d6000803e3d6000fd5b505050506040513d601f19601f820116820180604052508101906101989190610872565b6101a69060ff16600a61098f565b6101af826101d2565b6101c190670de0b6b3a764000061099b565b6101cb91906109ba565b9392505050565b6000808290506000816001600160a01b03166318160ddd6040518163ffffffff1660e01b8152600401602060405180830381865afa158015610218573d6000803e3d6000fd5b505050506040513d601f19601f8201168201806040525081019061023c91906109dc565b90508061024d575060009392505050565b600080836001600160a01b0316630902f1ac6040518163ffffffff1660e01b8152600401606060405180830381865afa15801561028e573d6000803e3d6000fd5b505050506040513d601f19601f820116820180604052508101906102b29190610a11565b506001600160701b031691506001600160701b031691506000846001600160a01b0316630dfe16816040518163ffffffff1660e01b8152600401602060405180830381865afa158015610309573d6000803e3d6000fd5b505050506040513d601f19601f8201168201806040525081019061032d9190610855565b90506000856001600160a01b031663d21220a76040518163ffffffff1660e01b8152600401602060405180830381865afa15801561036f573d6000803e3d6000fd5b505050506040513d601f19601f820116820180604052508101906103939190610855565b905060007f00000000000000000000000000000000000000000000000000000000000000006001600160a01b0316836001600160a01b0316146104c957826001600160a01b031663313ce5676040518163ffffffff1660e01b8152600401602060405180830381865afa15801561040e573d6000803e3d6000fd5b505050506040513d601f19601f820116820180604052508101906104329190610872565b6104409060ff16600a61098f565b6040516315d5220f60e31b81526001600160a01b0385166004820152339063aea9107890602401602060405180830381865afa158015610484573d6000803e3d6000fd5b505050506040513d601f19601f820116820180604052508101906104a891906109dc565b6104ba90670de0b6b3a764000061099b565b6104c491906109ba565b6104d3565b670de0b6b3a76400005b905060007f00000000000000000000000000000000000000000000000000000000000000006001600160a01b0316836001600160a01b03161461060957826001600160a01b031663313ce5676040518163ffffffff1660e01b8152600401602060405180830381865afa15801561054e573d6000803e3d6000fd5b505050506040513d601f19601f820116820180604052508101906105729190610872565b6105809060ff16600a61098f565b6040516315d5220f60e31b81526001600160a01b0385166004820152339063aea9107890602401602060405180830381865afa1580156105c4573d6000803e3d6000fd5b505050506040513d601f19601f820116820180604052508101906105e891906109dc565b6105fa90670de0b6b3a764000061099b565b61060491906109ba565b610613565b670de0b6b3a76400005b905060008761062a610625888a61099b565b6106a2565b61063890600160701b61099b565b61064291906109ba565b9050600160381b610652836106a2565b600160381b610660866106a2565b61066b85600261099b565b610675919061099b565b61067f91906109ba565b610689919061099b565b61069391906109ba565b9b9a5050505050505050505050565b6000816106b157506000919050565b816001600160801b82106106ca5760809190911c9060401b5b6801000000000000000082106106e55760409190911c9060201b5b64010000000082106106fc5760209190911c9060101b5b6201000082106107115760109190911c9060081b5b61010082106107255760089190911c9060041b5b601082106107385760049190911c9060021b5b600882106107445760011b5b600161075082866109ba565b61075a9083610a61565b901c9050600161076a82866109ba565b6107749083610a61565b901c9050600161078482866109ba565b61078e9083610a61565b901c9050600161079e82866109ba565b6107a89083610a61565b901c905060016107b882866109ba565b6107c29083610a61565b901c905060016107d282866109ba565b6107dc9083610a61565b901c905060016107ec82866109ba565b6107f69083610a61565b901c9050600061080682866109ba565b90508082106108155780610817565b815b95945050505050565b6001600160a01b038116811461083557600080fd5b50565b60006020828403121561084a57600080fd5b81356101cb81610820565b60006020828403121561086757600080fd5b81516101cb81610820565b60006020828403121561088457600080fd5b815160ff811681146101cb57600080fd5b634e487b7160e01b600052601160045260246000fd5b600181815b808511156108e65781600019048211156108cc576108cc610895565b808516156108d957918102915b93841c93908002906108b0565b509250929050565b6000826108fd575060016100c9565b8161090a575060006100c9565b8160018114610920576002811461092a57610946565b60019150506100c9565b60ff84111561093b5761093b610895565b50506001821b6100c9565b5060208310610133831016604e8410600b8410161715610969575081810a6100c9565b61097383836108ab565b806000190482111561098757610987610895565b029392505050565b60006101cb83836108ee565b60008160001904831182151516156109b5576109b5610895565b500290565b6000826109d757634e487b7160e01b600052601260045260246000fd5b500490565b6000602082840312156109ee57600080fd5b5051919050565b80516001600160701b0381168114610a0c57600080fd5b919050565b600080600060608486031215610a2657600080fd5b610a2f846109f5565b9250610a3d602085016109f5565b9150604084015163ffffffff81168114610a5657600080fd5b809150509250925092565b60008219821115610a7457610a74610895565b50019056fea264697066735822122096926f6f42ece46bad7d1e4c42e52fdd68bcc1d2f06abe7062b1015c0dacfa8964736f6c634300080a0033",
    "linkReferences": {}
  }
}