{
  "abi": [
    {
      "inputs": [
        {
          "internalType": "contract ERC20",
          "name": "_asset",
          "type": "address"
        },
        {
          "internalType": "contract FlywheelCore",
          "name": "_flywheel",
          "type": "address"
        },
        {
          "internalType": "contract ILpTokenStaker",
          "name": "_lpTokenStaker",
          "type": "address"
        }
      ],
      "stateMutability": "nonpayable",
      "type": "constructor"
    },
    {
      "anonymous": false,
      "inputs": [
        {
          "indexed": true,
          "internalType": "address",
          "name": "owner",
          "type": "address"
        },
        {
          "indexed": true,
          "internalType": "address",
          "name": "spender",
          "type": "address"
        },
        {
          "indexed": false,
          "internalType": "uint256",
          "name": "amount",
          "type": "uint256"
        }
      ],
      "name": "Approval",
      "type": "event"
    },
    {
      "anonymous": false,
      "inputs": [
        {
          "indexed": true,
          "internalType": "address",
          "name": "caller",
          "type": "address"
        },
        {
          "indexed": true,
          "internalType": "address",
          "name": "owner",
          "type": "address"
        },
        {
          "indexed": false,
          "internalType": "uint256",
          "name": "assets",
          "type": "uint256"
        },
        {
          "indexed": false,
          "internalType": "uint256",
          "name": "shares",
          "type": "uint256"
        }
      ],
      "name": "Deposit",
      "type": "event"
    },
    {
      "anonymous": false,
      "inputs": [
        {
          "indexed": true,
          "internalType": "address",
          "name": "from",
          "type": "address"
        },
        {
          "indexed": true,
          "internalType": "address",
          "name": "to",
          "type": "address"
        },
        {
          "indexed": false,
          "internalType": "uint256",
          "name": "amount",
          "type": "uint256"
        }
      ],
      "name": "Transfer",
      "type": "event"
    },
    {
      "anonymous": false,
      "inputs": [
        {
          "indexed": true,
          "internalType": "address",
          "name": "caller",
          "type": "address"
        },
        {
          "indexed": true,
          "internalType": "address",
          "name": "receiver",
          "type": "address"
        },
        {
          "indexed": true,
          "internalType": "address",
          "name": "owner",
          "type": "address"
        },
        {
          "indexed": false,
          "internalType": "uint256",
          "name": "assets",
          "type": "uint256"
        },
        {
          "indexed": false,
          "internalType": "uint256",
          "name": "shares",
          "type": "uint256"
        }
      ],
      "name": "Withdraw",
      "type": "event"
    },
    {
      "inputs": [],
      "name": "DOMAIN_SEPARATOR",
      "outputs": [
        {
          "internalType": "bytes32",
          "name": "",
          "type": "bytes32"
        }
      ],
      "stateMutability": "view",
      "type": "function"
    },
    {
      "inputs": [
        {
          "internalType": "address",
          "name": "",
          "type": "address"
        },
        {
          "internalType": "address",
          "name": "",
          "type": "address"
        }
      ],
      "name": "allowance",
      "outputs": [
        {
          "internalType": "uint256",
          "name": "",
          "type": "uint256"
        }
      ],
      "stateMutability": "view",
      "type": "function"
    },
    {
      "inputs": [
        {
          "internalType": "address",
          "name": "spender",
          "type": "address"
        },
        {
          "internalType": "uint256",
          "name": "amount",
          "type": "uint256"
        }
      ],
      "name": "approve",
      "outputs": [
        {
          "internalType": "bool",
          "name": "",
          "type": "bool"
        }
      ],
      "stateMutability": "nonpayable",
      "type": "function"
    },
    {
      "inputs": [],
      "name": "asset",
      "outputs": [
        {
          "internalType": "contract ERC20",
          "name": "",
          "type": "address"
        }
      ],
      "stateMutability": "view",
      "type": "function"
    },
    {
      "inputs": [
        {
          "internalType": "address",
          "name": "",
          "type": "address"
        }
      ],
      "name": "balanceOf",
      "outputs": [
        {
          "internalType": "uint256",
          "name": "",
          "type": "uint256"
        }
      ],
      "stateMutability": "view",
      "type": "function"
    },
    {
      "inputs": [
        {
          "internalType": "address",
          "name": "account",
          "type": "address"
        }
      ],
      "name": "balanceOfUnderlying",
      "outputs": [
        {
          "internalType": "uint256",
          "name": "",
          "type": "uint256"
        }
      ],
      "stateMutability": "view",
      "type": "function"
    },
    {
      "inputs": [
        {
          "internalType": "uint256",
          "name": "shares",
          "type": "uint256"
        }
      ],
      "name": "convertToAssets",
      "outputs": [
        {
          "internalType": "uint256",
          "name": "",
          "type": "uint256"
        }
      ],
      "stateMutability": "view",
      "type": "function"
    },
    {
      "inputs": [
        {
          "internalType": "uint256",
          "name": "assets",
          "type": "uint256"
        }
      ],
      "name": "convertToShares",
      "outputs": [
        {
          "internalType": "uint256",
          "name": "",
          "type": "uint256"
        }
      ],
      "stateMutability": "view",
      "type": "function"
    },
    {
      "inputs": [],
      "name": "decimals",
      "outputs": [
        {
          "internalType": "uint8",
          "name": "",
          "type": "uint8"
        }
      ],
      "stateMutability": "view",
      "type": "function"
    },
    {
      "inputs": [
        {
          "internalType": "uint256",
          "name": "assets",
          "type": "uint256"
        },
        {
          "internalType": "address",
          "name": "receiver",
          "type": "address"
        }
      ],
      "name": "deposit",
      "outputs": [
        {
          "internalType": "uint256",
          "name": "shares",
          "type": "uint256"
        }
      ],
      "stateMutability": "nonpayable",
      "type": "function"
    },
    {
      "inputs": [],
      "name": "flywheel",
      "outputs": [
        {
          "internalType": "contract FlywheelCore",
          "name": "",
          "type": "address"
        }
      ],
      "stateMutability": "view",
      "type": "function"
    },
    {
      "inputs": [],
      "name": "lpTokenStaker",
      "outputs": [
        {
          "internalType": "contract ILpTokenStaker",
          "name": "",
          "type": "address"
        }
      ],
      "stateMutability": "view",
      "type": "function"
    },
    {
      "inputs": [
        {
          "internalType": "address",
          "name": "",
          "type": "address"
        }
      ],
      "name": "maxDeposit",
      "outputs": [
        {
          "internalType": "uint256",
          "name": "",
          "type": "uint256"
        }
      ],
      "stateMutability": "view",
      "type": "function"
    },
    {
      "inputs": [
        {
          "internalType": "address",
          "name": "",
          "type": "address"
        }
      ],
      "name": "maxMint",
      "outputs": [
        {
          "internalType": "uint256",
          "name": "",
          "type": "uint256"
        }
      ],
      "stateMutability": "view",
      "type": "function"
    },
    {
      "inputs": [
        {
          "internalType": "address",
          "name": "owner",
          "type": "address"
        }
      ],
      "name": "maxRedeem",
      "outputs": [
        {
          "internalType": "uint256",
          "name": "",
          "type": "uint256"
        }
      ],
      "stateMutability": "view",
      "type": "function"
    },
    {
      "inputs": [
        {
          "internalType": "address",
          "name": "owner",
          "type": "address"
        }
      ],
      "name": "maxWithdraw",
      "outputs": [
        {
          "internalType": "uint256",
          "name": "",
          "type": "uint256"
        }
      ],
      "stateMutability": "view",
      "type": "function"
    },
    {
      "inputs": [
        {
          "internalType": "uint256",
          "name": "shares",
          "type": "uint256"
        },
        {
          "internalType": "address",
          "name": "receiver",
          "type": "address"
        }
      ],
      "name": "mint",
      "outputs": [
        {
          "internalType": "uint256",
          "name": "assets",
          "type": "uint256"
        }
      ],
      "stateMutability": "nonpayable",
      "type": "function"
    },
    {
      "inputs": [],
      "name": "name",
      "outputs": [
        {
          "internalType": "string",
          "name": "",
          "type": "string"
        }
      ],
      "stateMutability": "view",
      "type": "function"
    },
    {
      "inputs": [
        {
          "internalType": "address",
          "name": "",
          "type": "address"
        }
      ],
      "name": "nonces",
      "outputs": [
        {
          "internalType": "uint256",
          "name": "",
          "type": "uint256"
        }
      ],
      "stateMutability": "view",
      "type": "function"
    },
    {
      "inputs": [
        {
          "internalType": "address",
          "name": "owner",
          "type": "address"
        },
        {
          "internalType": "address",
          "name": "spender",
          "type": "address"
        },
        {
          "internalType": "uint256",
          "name": "value",
          "type": "uint256"
        },
        {
          "internalType": "uint256",
          "name": "deadline",
          "type": "uint256"
        },
        {
          "internalType": "uint8",
          "name": "v",
          "type": "uint8"
        },
        {
          "internalType": "bytes32",
          "name": "r",
          "type": "bytes32"
        },
        {
          "internalType": "bytes32",
          "name": "s",
          "type": "bytes32"
        }
      ],
      "name": "permit",
      "outputs": [],
      "stateMutability": "nonpayable",
      "type": "function"
    },
    {
      "inputs": [
        {
          "internalType": "uint256",
          "name": "assets",
          "type": "uint256"
        }
      ],
      "name": "previewDeposit",
      "outputs": [
        {
          "internalType": "uint256",
          "name": "",
          "type": "uint256"
        }
      ],
      "stateMutability": "view",
      "type": "function"
    },
    {
      "inputs": [
        {
          "internalType": "uint256",
          "name": "shares",
          "type": "uint256"
        }
      ],
      "name": "previewMint",
      "outputs": [
        {
          "internalType": "uint256",
          "name": "",
          "type": "uint256"
        }
      ],
      "stateMutability": "view",
      "type": "function"
    },
    {
      "inputs": [
        {
          "internalType": "uint256",
          "name": "shares",
          "type": "uint256"
        }
      ],
      "name": "previewRedeem",
      "outputs": [
        {
          "internalType": "uint256",
          "name": "",
          "type": "uint256"
        }
      ],
      "stateMutability": "view",
      "type": "function"
    },
    {
      "inputs": [
        {
          "internalType": "uint256",
          "name": "assets",
          "type": "uint256"
        }
      ],
      "name": "previewWithdraw",
      "outputs": [
        {
          "internalType": "uint256",
          "name": "",
          "type": "uint256"
        }
      ],
      "stateMutability": "view",
      "type": "function"
    },
    {
      "inputs": [
        {
          "internalType": "uint256",
          "name": "shares",
          "type": "uint256"
        },
        {
          "internalType": "address",
          "name": "receiver",
          "type": "address"
        },
        {
          "internalType": "address",
          "name": "owner",
          "type": "address"
        }
      ],
      "name": "redeem",
      "outputs": [
        {
          "internalType": "uint256",
          "name": "assets",
          "type": "uint256"
        }
      ],
      "stateMutability": "nonpayable",
      "type": "function"
    },
    {
      "inputs": [],
      "name": "symbol",
      "outputs": [
        {
          "internalType": "string",
          "name": "",
          "type": "string"
        }
      ],
      "stateMutability": "view",
      "type": "function"
    },
    {
      "inputs": [],
      "name": "totalAssets",
      "outputs": [
        {
          "internalType": "uint256",
          "name": "",
          "type": "uint256"
        }
      ],
      "stateMutability": "view",
      "type": "function"
    },
    {
      "inputs": [],
      "name": "totalSupply",
      "outputs": [
        {
          "internalType": "uint256",
          "name": "",
          "type": "uint256"
        }
      ],
      "stateMutability": "view",
      "type": "function"
    },
    {
      "inputs": [
        {
          "internalType": "address",
          "name": "to",
          "type": "address"
        },
        {
          "internalType": "uint256",
          "name": "amount",
          "type": "uint256"
        }
      ],
      "name": "transfer",
      "outputs": [
        {
          "internalType": "bool",
          "name": "",
          "type": "bool"
        }
      ],
      "stateMutability": "nonpayable",
      "type": "function"
    },
    {
      "inputs": [
        {
          "internalType": "address",
          "name": "from",
          "type": "address"
        },
        {
          "internalType": "address",
          "name": "to",
          "type": "address"
        },
        {
          "internalType": "uint256",
          "name": "amount",
          "type": "uint256"
        }
      ],
      "name": "transferFrom",
      "outputs": [
        {
          "internalType": "bool",
          "name": "",
          "type": "bool"
        }
      ],
      "stateMutability": "nonpayable",
      "type": "function"
    },
    {
      "inputs": [
        {
          "internalType": "uint256",
          "name": "assets",
          "type": "uint256"
        },
        {
          "internalType": "address",
          "name": "receiver",
          "type": "address"
        },
        {
          "internalType": "address",
          "name": "owner",
          "type": "address"
        }
      ],
      "name": "withdraw",
      "outputs": [
        {
          "internalType": "uint256",
          "name": "shares",
          "type": "uint256"
        }
      ],
      "stateMutability": "nonpayable",
      "type": "function"
    }
  ],
  "bytecode": {
    "object": "0x6101406040523480156200001257600080fd5b5060405162001f7138038062001f71833981016040819052620000359162000540565b82836001600160a01b03166306fdde036040518163ffffffff1660e01b8152600401600060405180830381865afa15801562000075573d6000803e3d6000fd5b505050506040513d6000823e601f3d908101601f191682016040526200009f9190810190620005dd565b604051602001620000b1919062000695565b604051602081830303815290604052846001600160a01b03166395d89b416040518163ffffffff1660e01b8152600401600060405180830381865afa158015620000ff573d6000803e3d6000fd5b505050506040513d6000823e601f3d908101601f19168201604052620001299190810190620005dd565b6040516020016200013b9190620006d5565b6040516020818303038152906040528181846001600160a01b031663313ce5676040518163ffffffff1660e01b8152600401602060405180830381865afa1580156200018b573d6000803e3d6000fd5b505050506040513d601f19601f82011682018060405250810190620001b1919062000701565b8251620001c690600090602086019062000481565b508151620001dc90600190602085019062000481565b5060ff81166080524660a052620001f2620003e5565b60c052505050506001600160a01b0391821660e08190528383166101008190529285166101205260405163095ea7b360e01b8152600481019390935260001960248401529163095ea7b391506044016020604051808303816000875af115801562000261573d6000803e3d6000fd5b505050506040513d601f19601f820116820180604052508101906200028791906200072d565b50610100516001600160a01b031663f7c618c16040518163ffffffff1660e01b8152600401602060405180830381865afa158015620002ca573d6000803e3d6000fd5b505050506040513d601f19601f82011682018060405250810190620002f0919062000751565b6001600160a01b031663095ea7b3610120516001600160a01b031663f046ee5c6040518163ffffffff1660e01b8152600401602060405180830381865afa15801562000340573d6000803e3d6000fd5b505050506040513d601f19601f8201168201806040525081019062000366919062000751565b6040516001600160e01b031960e084901b1681526001600160a01b03909116600482015260001960248201526044016020604051808303816000875af1158015620003b5573d6000803e3d6000fd5b505050506040513d601f19601f82011682018060405250810190620003db91906200072d565b5050505062000852565b60007f8b73c3c69bb8fe3d512ecc4cf759cc79239f7b179b0ffacaa9a75d522b39400f6000604051620004199190620007ae565b6040805191829003822060208301939093528101919091527fc89efdaa54c0f20c7adf612882df0950f5a951637e0307cdcb4c672f298b8bc660608201524660808201523060a082015260c00160405160208183030381529060405280519060200120905090565b8280546200048f9062000771565b90600052602060002090601f016020900481019282620004b35760008555620004fe565b82601f10620004ce57805160ff1916838001178555620004fe565b82800160010185558215620004fe579182015b82811115620004fe578251825591602001919060010190620004e1565b506200050c92915062000510565b5090565b5b808211156200050c576000815560010162000511565b6001600160a01b03811681146200053d57600080fd5b50565b6000806000606084860312156200055657600080fd5b8351620005638162000527565b6020850151909350620005768162000527565b6040850151909250620005898162000527565b809150509250925092565b634e487b7160e01b600052604160045260246000fd5b60005b83811015620005c7578181015183820152602001620005ad565b83811115620005d7576000848401525b50505050565b600060208284031215620005f057600080fd5b81516001600160401b03808211156200060857600080fd5b818401915084601f8301126200061d57600080fd5b81518181111562000632576200063262000594565b604051601f8201601f19908116603f011681019083821181831017156200065d576200065d62000594565b816040528281528760208487010111156200067757600080fd5b6200068a836020830160208801620005aa565b979650505050505050565b65026b4b230b9960d51b815260008251620006b8816006850160208701620005aa565b650815985d5b1d60d21b6006939091019283015250600c01919050565b6136bb60f11b815260008251620006f4816002850160208701620005aa565b9190910160020192915050565b6000602082840312156200071457600080fd5b815160ff811681146200072657600080fd5b9392505050565b6000602082840312156200074057600080fd5b815180151581146200072657600080fd5b6000602082840312156200076457600080fd5b8151620007268162000527565b600181811c908216806200078657607f821691505b60208210811415620007a857634e487b7160e01b600052602260045260246000fd5b50919050565b600080835481600182811c915080831680620007cb57607f831692505b6020808410821415620007ec57634e487b7160e01b86526022600452602486fd5b818015620008035760018114620008155762000844565b60ff1986168952848901965062000844565b60008a81526020902060005b868110156200083c5781548b82015290850190830162000821565b505084890196505b509498975050505050505050565b60805160a05160c05160e0516101005161012051611689620008e8600039600061039901526000818161032c0152818161051b0152818161112401526111e40152600081816102c5015281816104e8015281816108960152818161093201528181610b2d01528181610c76015281816110ee01526111ae015260006107ed015260006107b80152600061028401526116896000f3fe608060405234801561001057600080fd5b50600436106101e55760003560e01c806370a082311161010f578063ba087652116100a2578063d505accf11610071578063d505accf14610455578063d905777e1461046a578063dd62ed3e14610493578063ef8b30f7146104be57600080fd5b8063ba0876521461042f578063c63d75b614610312578063c6e6f59214610442578063ce96cb77146102ff57600080fd5b806395d89b41116100de57806395d89b41146103ee578063a9059cbb146103f6578063b3d7f6b914610409578063b460af941461041c57600080fd5b806370a08231146103745780637acf5b92146103945780637ecebe00146103bb57806394bf804d146103db57600080fd5b8063313ce56711610187578063402d267d11610156578063402d267d1461031257806348439e7e146103275780634cdad5061461034e5780636e553f651461036157600080fd5b8063313ce5671461027f5780633644e515146102b857806338d52e0f146102c05780633af9e669146102ff57600080fd5b8063095ea7b3116101c3578063095ea7b31461022d5780630a28a4771461025057806318160ddd1461026357806323b872dd1461026c57600080fd5b806301e1d114146101ea57806306fdde031461020557806307a2d13a1461021a575b600080fd5b6101f26104d1565b6040519081526020015b60405180910390f35b61020d61058c565b6040516101fc91906112f3565b6101f2610228366004611348565b61061a565b61024061023b36600461137d565b610647565b60405190151581526020016101fc565b6101f261025e366004611348565b6106b4565b6101f260025481565b61024061027a3660046113a7565b6106d4565b6102a67f000000000000000000000000000000000000000000000000000000000000000081565b60405160ff90911681526020016101fc565b6101f26107b4565b6102e77f000000000000000000000000000000000000000000000000000000000000000081565b6040516001600160a01b0390911681526020016101fc565b6101f261030d3660046113e3565b61080f565b6101f26103203660046113e3565b5060001990565b6102e77f000000000000000000000000000000000000000000000000000000000000000081565b6101f261035c366004611348565b610831565b6101f261036f3660046113fe565b61083c565b6101f26103823660046113e3565b60036020526000908152604090205481565b6102e77f000000000000000000000000000000000000000000000000000000000000000081565b6101f26103c93660046113e3565b60056020526000908152604090205481565b6101f26103e93660046113fe565b610918565b61020d6109b4565b61024061040436600461137d565b6109c1565b6101f2610417366004611348565b610a27565b6101f261042a36600461142a565b610a46565b6101f261043d36600461142a565b610b54565b6101f2610450366004611348565b610c9d565b610468610463366004611466565b610cbd565b005b6101f26104783660046113e3565b6001600160a01b031660009081526003602052604090205490565b6101f26104a13660046114d9565b600460209081526000928352604080842090915290825290205481565b6101f26104cc366004611348565b610f01565b604051630f208beb60e01b81526001600160a01b037f00000000000000000000000000000000000000000000000000000000000000008116600483015230602483015260009182917f00000000000000000000000000000000000000000000000000000000000000001690630f208beb906044016040805180830381865afa158015610561573d6000803e3d6000fd5b505050506040513d601f19601f820116820180604052508101906105859190611503565b5092915050565b6000805461059990611527565b80601f01602080910402602001604051908101604052809291908181526020018280546105c590611527565b80156106125780601f106105e757610100808354040283529160200191610612565b820191906000526020600020905b8154815290600101906020018083116105f557829003601f168201915b505050505081565b600254600090801561063e576106396106316104d1565b849083610f0c565b610640565b825b9392505050565b3360008181526004602090815260408083206001600160a01b038716808552925280832085905551919290917f8c5be1e5ebec7d5bd14f71427d1e84f3dd0314c0f7b2291e5b200ac8c7c3b925906106a29086815260200190565b60405180910390a35060015b92915050565b600254600090801561063e57610639816106cc6104d1565b859190610f2b565b6001600160a01b038316600090815260046020908152604080832033845290915281205460001981146107305761070b8382611578565b6001600160a01b03861660009081526004602090815260408083203384529091529020555b6001600160a01b03851660009081526003602052604081208054859290610758908490611578565b90915550506001600160a01b038085166000818152600360205260409081902080548701905551909187169060008051602061165d833981519152906107a19087815260200190565b60405180910390a3506001949350505050565b60007f000000000000000000000000000000000000000000000000000000000000000046146107ea576107e5610f59565b905090565b507f000000000000000000000000000000000000000000000000000000000000000090565b6001600160a01b0381166000908152600360205260408120546106ae9061061a565b60006106ae8261061a565b600061084783610f01565b9050806108895760405162461bcd60e51b815260206004820152600b60248201526a5a45524f5f53484152455360a81b60448201526064015b60405180910390fd5b6108be6001600160a01b037f000000000000000000000000000000000000000000000000000000000000000016333086610ff3565b6108c8828261107d565b60408051848152602081018390526001600160a01b0384169133917fdcbc1c05240f31ff3ad067ef1ee35ce4997762752e3a095284754544f4c709d7910160405180910390a36106ae83826110d7565b600061092383610a27565b905061095a6001600160a01b037f000000000000000000000000000000000000000000000000000000000000000016333084610ff3565b610964828461107d565b60408051828152602081018590526001600160a01b0384169133917fdcbc1c05240f31ff3ad067ef1ee35ce4997762752e3a095284754544f4c709d7910160405180910390a36106ae81846110d7565b6001805461059990611527565b336000908152600360205260408120805483919083906109e2908490611578565b90915550506001600160a01b0383166000818152600360205260409081902080548501905551339060008051602061165d833981519152906106a29086815260200190565b600254600090801561063e57610639610a3e6104d1565b849083610f2b565b6000610a51846106b4565b9050336001600160a01b03831614610ac1576001600160a01b03821660009081526004602090815260408083203384529091529020546000198114610abf57610a9a8282611578565b6001600160a01b03841660009081526004602090815260408083203384529091529020555b505b610acb8482611197565b610ad58282611213565b60408051858152602081018390526001600160a01b03808516929086169133917ffbde797d201c681b91056529119e0b02407c7bb96a4a2c75c01fc9667232c8db910160405180910390a46106406001600160a01b037f0000000000000000000000000000000000000000000000000000000000000000168486611275565b6000336001600160a01b03831614610bc4576001600160a01b03821660009081526004602090815260408083203384529091529020546000198114610bc257610b9d8582611578565b6001600160a01b03841660009081526004602090815260408083203384529091529020555b505b610bcd84610831565b905080610c0a5760405162461bcd60e51b815260206004820152600b60248201526a5a45524f5f41535345545360a81b6044820152606401610880565b610c148185611197565b610c1e8285611213565b60408051828152602081018690526001600160a01b03808516929086169133917ffbde797d201c681b91056529119e0b02407c7bb96a4a2c75c01fc9667232c8db910160405180910390a46106406001600160a01b037f0000000000000000000000000000000000000000000000000000000000000000168483611275565b600254600090801561063e5761063981610cb56104d1565b859190610f0c565b42841015610d0d5760405162461bcd60e51b815260206004820152601760248201527f5045524d49545f444541444c494e455f455850495245440000000000000000006044820152606401610880565b60006001610d196107b4565b6001600160a01b038a811660008181526005602090815260409182902080546001810190915582517f6e71edae12b1b97f4d1f60370fef10105fa2faae0126114a169c64845d6126c98184015280840194909452938d166060840152608083018c905260a083019390935260c08083018b90528151808403909101815260e08301909152805192019190912061190160f01b6101008301526101028201929092526101228101919091526101420160408051601f198184030181528282528051602091820120600084529083018083525260ff871690820152606081018590526080810184905260a0016020604051602081039080840390855afa158015610e25573d6000803e3d6000fd5b5050604051601f1901519150506001600160a01b03811615801590610e5b5750876001600160a01b0316816001600160a01b0316145b610e985760405162461bcd60e51b815260206004820152600e60248201526d24a72b20a624a22fa9a4a3a722a960911b6044820152606401610880565b6001600160a01b0390811660009081526004602090815260408083208a8516808552908352928190208990555188815291928a16917f8c5be1e5ebec7d5bd14f71427d1e84f3dd0314c0f7b2291e5b200ac8c7c3b925910160405180910390a350505050505050565b60006106ae82610c9d565b828202811515841585830485141716610f2457600080fd5b0492915050565b828202811515841585830485141716610f4357600080fd5b6001826001830304018115150290509392505050565b60007f8b73c3c69bb8fe3d512ecc4cf759cc79239f7b179b0ffacaa9a75d522b39400f6000604051610f8b919061158f565b6040805191829003822060208301939093528101919091527fc89efdaa54c0f20c7adf612882df0950f5a951637e0307cdcb4c672f298b8bc660608201524660808201523060a082015260c00160405160208183030381529060405280519060200120905090565b60006040516323b872dd60e01b81528460048201528360248201528260448201526020600060648360008a5af13d15601f3d11600160005114161716915050806110765760405162461bcd60e51b81526020600482015260146024820152731514905394d1915497d19493d357d1905253115160621b6044820152606401610880565b5050505050565b806002600082825461108f919061162b565b90915550506001600160a01b03821660008181526003602090815260408083208054860190555184815260008051602061165d83398151915291015b60405180910390a35050565b6040516307dba22560e31b81526001600160a01b037f00000000000000000000000000000000000000000000000000000000000000008116600483015260248201849052600160448301527f00000000000000000000000000000000000000000000000000000000000000001690633edd1128906064015b6020604051808303816000875af115801561116e573d6000803e3d6000fd5b505050506040513d601f19601f820116820180604052508101906111929190611643565b505050565b60405163ead5d35960e01b81526001600160a01b037f00000000000000000000000000000000000000000000000000000000000000008116600483015260248201849052600160448301527f0000000000000000000000000000000000000000000000000000000000000000169063ead5d3599060640161114f565b6001600160a01b0382166000908152600360205260408120805483929061123b908490611578565b90915550506002805482900390556040518181526000906001600160a01b0384169060008051602061165d833981519152906020016110cb565b600060405163a9059cbb60e01b8152836004820152826024820152602060006044836000895af13d15601f3d11600160005114161716915050806112ed5760405162461bcd60e51b815260206004820152600f60248201526e1514905394d1915497d19052531151608a1b6044820152606401610880565b50505050565b600060208083528351808285015260005b8181101561132057858101830151858201604001528201611304565b81811115611332576000604083870101525b50601f01601f1916929092016040019392505050565b60006020828403121561135a57600080fd5b5035919050565b80356001600160a01b038116811461137857600080fd5b919050565b6000806040838503121561139057600080fd5b61139983611361565b946020939093013593505050565b6000806000606084860312156113bc57600080fd5b6113c584611361565b92506113d360208501611361565b9150604084013590509250925092565b6000602082840312156113f557600080fd5b61064082611361565b6000806040838503121561141157600080fd5b8235915061142160208401611361565b90509250929050565b60008060006060848603121561143f57600080fd5b8335925061144f60208501611361565b915061145d60408501611361565b90509250925092565b600080600080600080600060e0888a03121561148157600080fd5b61148a88611361565b965061149860208901611361565b95506040880135945060608801359350608088013560ff811681146114bc57600080fd5b9699959850939692959460a0840135945060c09093013592915050565b600080604083850312156114ec57600080fd5b6114f583611361565b915061142160208401611361565b6000806040838503121561151657600080fd5b505080516020909101519092909150565b600181811c9082168061153b57607f821691505b6020821081141561155c57634e487b7160e01b600052602260045260246000fd5b50919050565b634e487b7160e01b600052601160045260246000fd5b60008282101561158a5761158a611562565b500390565b600080835481600182811c9150808316806115ab57607f831692505b60208084108214156115cb57634e487b7160e01b86526022600452602486fd5b8180156115df57600181146115f05761161d565b60ff1986168952848901965061161d565b60008a81526020902060005b868110156116155781548b8201529085019083016115fc565b505084890196505b509498975050505050505050565b6000821982111561163e5761163e611562565b500190565b60006020828403121561165557600080fd5b505191905056feddf252ad1be2c89b69c2b068fc378daa952ba7f163c4a11628f55a4df523b3efa164736f6c634300080a000a",
    "linkReferences": {}
  },
  "methodIdentifiers": {
    "DOMAIN_SEPARATOR()": "3644e515",
    "allowance(address,address)": "dd62ed3e",
    "approve(address,uint256)": "095ea7b3",
    "asset()": "38d52e0f",
    "balanceOf(address)": "70a08231",
    "balanceOfUnderlying(address)": "3af9e669",
    "convertToAssets(uint256)": "07a2d13a",
    "convertToShares(uint256)": "c6e6f592",
    "decimals()": "313ce567",
    "deposit(uint256,address)": "6e553f65",
    "flywheel()": "7acf5b92",
    "lpTokenStaker()": "48439e7e",
    "maxDeposit(address)": "402d267d",
    "maxMint(address)": "c63d75b6",
    "maxRedeem(address)": "d905777e",
    "maxWithdraw(address)": "ce96cb77",
    "mint(uint256,address)": "94bf804d",
    "name()": "06fdde03",
    "nonces(address)": "7ecebe00",
    "permit(address,address,uint256,uint256,uint8,bytes32,bytes32)": "d505accf",
    "previewDeposit(uint256)": "ef8b30f7",
    "previewMint(uint256)": "b3d7f6b9",
    "previewRedeem(uint256)": "4cdad506",
    "previewWithdraw(uint256)": "0a28a477",
    "redeem(uint256,address,address)": "ba087652",
    "symbol()": "95d89b41",
    "totalAssets()": "01e1d114",
    "totalSupply()": "18160ddd",
    "transfer(address,uint256)": "a9059cbb",
    "transferFrom(address,address,uint256)": "23b872dd",
    "withdraw(uint256,address,address)": "b460af94"
  },
  "id": 53
}