{
  "abi": [
    {
      "anonymous": false,
      "inputs": [
        {
          "indexed": false,
          "internalType": "uint256",
          "name": "cashPrior",
          "type": "uint256"
        },
        {
          "indexed": false,
          "internalType": "uint256",
          "name": "interestAccumulated",
          "type": "uint256"
        },
        {
          "indexed": false,
          "internalType": "uint256",
          "name": "borrowIndex",
          "type": "uint256"
        },
        {
          "indexed": false,
          "internalType": "uint256",
          "name": "totalBorrows",
          "type": "uint256"
        }
      ],
      "name": "AccrueInterest",
      "type": "event"
    },
    {
      "anonymous": false,
      "inputs": [
        {
          "indexed": true,
          "internalType": "address",
          "name": "owner",
          "type": "address"
        },
        {
          "indexed": true,
          "internalType": "address",
          "name": "spender",
          "type": "address"
        },
        {
          "indexed": false,
          "internalType": "uint256",
          "name": "amount",
          "type": "uint256"
        }
      ],
      "name": "Approval",
      "type": "event"
    },
    {
      "anonymous": false,
      "inputs": [
        {
          "indexed": false,
          "internalType": "address",
          "name": "borrower",
          "type": "address"
        },
        {
          "indexed": false,
          "internalType": "uint256",
          "name": "borrowAmount",
          "type": "uint256"
        },
        {
          "indexed": false,
          "internalType": "uint256",
          "name": "accountBorrows",
          "type": "uint256"
        },
        {
          "indexed": false,
          "internalType": "uint256",
          "name": "totalBorrows",
          "type": "uint256"
        }
      ],
      "name": "Borrow",
      "type": "event"
    },
    {
      "anonymous": false,
      "inputs": [
        {
          "indexed": false,
          "internalType": "uint256",
          "name": "error",
          "type": "uint256"
        },
        {
          "indexed": false,
          "internalType": "uint256",
          "name": "info",
          "type": "uint256"
        },
        {
          "indexed": false,
          "internalType": "uint256",
          "name": "detail",
          "type": "uint256"
        }
      ],
      "name": "Failure",
      "type": "event"
    },
    {
      "anonymous": false,
      "inputs": [
        {
          "indexed": false,
          "internalType": "address",
          "name": "liquidator",
          "type": "address"
        },
        {
          "indexed": false,
          "internalType": "address",
          "name": "borrower",
          "type": "address"
        },
        {
          "indexed": false,
          "internalType": "uint256",
          "name": "repayAmount",
          "type": "uint256"
        },
        {
          "indexed": false,
          "internalType": "address",
          "name": "cTokenCollateral",
          "type": "address"
        },
        {
          "indexed": false,
          "internalType": "uint256",
          "name": "seizeTokens",
          "type": "uint256"
        }
      ],
      "name": "LiquidateBorrow",
      "type": "event"
    },
    {
      "anonymous": false,
      "inputs": [
        {
          "indexed": false,
          "internalType": "address",
          "name": "minter",
          "type": "address"
        },
        {
          "indexed": false,
          "internalType": "uint256",
          "name": "mintAmount",
          "type": "uint256"
        },
        {
          "indexed": false,
          "internalType": "uint256",
          "name": "mintTokens",
          "type": "uint256"
        }
      ],
      "name": "Mint",
      "type": "event"
    },
    {
      "anonymous": false,
      "inputs": [
        {
          "indexed": false,
          "internalType": "uint256",
          "name": "oldAdminFeeMantissa",
          "type": "uint256"
        },
        {
          "indexed": false,
          "internalType": "uint256",
          "name": "newAdminFeeMantissa",
          "type": "uint256"
        }
      ],
      "name": "NewAdminFee",
      "type": "event"
    },
    {
      "anonymous": false,
      "inputs": [
        {
          "indexed": false,
          "internalType": "contract ComptrollerInterface",
          "name": "oldComptroller",
          "type": "address"
        },
        {
          "indexed": false,
          "internalType": "contract ComptrollerInterface",
          "name": "newComptroller",
          "type": "address"
        }
      ],
      "name": "NewComptroller",
      "type": "event"
    },
    {
      "anonymous": false,
      "inputs": [
        {
          "indexed": false,
          "internalType": "uint256",
          "name": "oldFuseFeeMantissa",
          "type": "uint256"
        },
        {
          "indexed": false,
          "internalType": "uint256",
          "name": "newFuseFeeMantissa",
          "type": "uint256"
        }
      ],
      "name": "NewFuseFee",
      "type": "event"
    },
    {
      "anonymous": false,
      "inputs": [
        {
          "indexed": false,
          "internalType": "address",
          "name": "oldImplementation",
          "type": "address"
        },
        {
          "indexed": false,
          "internalType": "address",
          "name": "newImplementation",
          "type": "address"
        }
      ],
      "name": "NewImplementation",
      "type": "event"
    },
    {
      "anonymous": false,
      "inputs": [
        {
          "indexed": false,
          "internalType": "contract InterestRateModel",
          "name": "oldInterestRateModel",
          "type": "address"
        },
        {
          "indexed": false,
          "internalType": "contract InterestRateModel",
          "name": "newInterestRateModel",
          "type": "address"
        }
      ],
      "name": "NewMarketInterestRateModel",
      "type": "event"
    },
    {
      "anonymous": false,
      "inputs": [
        {
          "indexed": false,
          "internalType": "uint256",
          "name": "oldReserveFactorMantissa",
          "type": "uint256"
        },
        {
          "indexed": false,
          "internalType": "uint256",
          "name": "newReserveFactorMantissa",
          "type": "uint256"
        }
      ],
      "name": "NewReserveFactor",
      "type": "event"
    },
    {
      "anonymous": false,
      "inputs": [
        {
          "indexed": false,
          "internalType": "address",
          "name": "redeemer",
          "type": "address"
        },
        {
          "indexed": false,
          "internalType": "uint256",
          "name": "redeemAmount",
          "type": "uint256"
        },
        {
          "indexed": false,
          "internalType": "uint256",
          "name": "redeemTokens",
          "type": "uint256"
        }
      ],
      "name": "Redeem",
      "type": "event"
    },
    {
      "anonymous": false,
      "inputs": [
        {
          "indexed": false,
          "internalType": "address",
          "name": "payer",
          "type": "address"
        },
        {
          "indexed": false,
          "internalType": "address",
          "name": "borrower",
          "type": "address"
        },
        {
          "indexed": false,
          "internalType": "uint256",
          "name": "repayAmount",
          "type": "uint256"
        },
        {
          "indexed": false,
          "internalType": "uint256",
          "name": "accountBorrows",
          "type": "uint256"
        },
        {
          "indexed": false,
          "internalType": "uint256",
          "name": "totalBorrows",
          "type": "uint256"
        }
      ],
      "name": "RepayBorrow",
      "type": "event"
    },
    {
      "anonymous": false,
      "inputs": [
        {
          "indexed": false,
          "internalType": "address",
          "name": "benefactor",
          "type": "address"
        },
        {
          "indexed": false,
          "internalType": "uint256",
          "name": "addAmount",
          "type": "uint256"
        },
        {
          "indexed": false,
          "internalType": "uint256",
          "name": "newTotalReserves",
          "type": "uint256"
        }
      ],
      "name": "ReservesAdded",
      "type": "event"
    },
    {
      "anonymous": false,
      "inputs": [
        {
          "indexed": false,
          "internalType": "address",
          "name": "admin",
          "type": "address"
        },
        {
          "indexed": false,
          "internalType": "uint256",
          "name": "reduceAmount",
          "type": "uint256"
        },
        {
          "indexed": false,
          "internalType": "uint256",
          "name": "newTotalReserves",
          "type": "uint256"
        }
      ],
      "name": "ReservesReduced",
      "type": "event"
    },
    {
      "anonymous": false,
      "inputs": [
        {
          "indexed": true,
          "internalType": "address",
          "name": "from",
          "type": "address"
        },
        {
          "indexed": true,
          "internalType": "address",
          "name": "to",
          "type": "address"
        },
        {
          "indexed": false,
          "internalType": "uint256",
          "name": "amount",
          "type": "uint256"
        }
      ],
      "name": "Transfer",
      "type": "event"
    },
    {
      "inputs": [],
      "name": "PRECISION",
      "outputs": [
        {
          "internalType": "uint256",
          "name": "",
          "type": "uint256"
        }
      ],
      "stateMutability": "view",
      "type": "function"
    },
    {
      "inputs": [
        {
          "internalType": "bytes",
          "name": "data",
          "type": "bytes"
        }
      ],
      "name": "_becomeImplementation",
      "outputs": [],
      "stateMutability": "nonpayable",
      "type": "function"
    },
    {
      "inputs": [
        {
          "internalType": "address",
          "name": "compLikeDelegatee",
          "type": "address"
        }
      ],
      "name": "_delegateCompLikeTo",
      "outputs": [],
      "stateMutability": "nonpayable",
      "type": "function"
    },
    {
      "inputs": [],
      "name": "_prepare",
      "outputs": [],
      "stateMutability": "payable",
      "type": "function"
    },
    {
      "inputs": [
        {
          "internalType": "uint256",
          "name": "reduceAmount",
          "type": "uint256"
        }
      ],
      "name": "_reduceReserves",
      "outputs": [
        {
          "internalType": "uint256",
          "name": "",
          "type": "uint256"
        }
      ],
      "stateMutability": "nonpayable",
      "type": "function"
    },
    {
      "inputs": [
        {
          "internalType": "uint256",
          "name": "newAdminFeeMantissa",
          "type": "uint256"
        }
      ],
      "name": "_setAdminFee",
      "outputs": [
        {
          "internalType": "uint256",
          "name": "",
          "type": "uint256"
        }
      ],
      "stateMutability": "nonpayable",
      "type": "function"
    },
    {
      "inputs": [
        {
          "internalType": "address",
          "name": "implementation_",
          "type": "address"
        },
        {
          "internalType": "bool",
          "name": "allowResign",
          "type": "bool"
        },
        {
          "internalType": "bytes",
          "name": "becomeImplementationData",
          "type": "bytes"
        }
      ],
      "name": "_setImplementationSafe",
      "outputs": [],
      "stateMutability": "nonpayable",
      "type": "function"
    },
    {
      "inputs": [
        {
          "internalType": "contract InterestRateModel",
          "name": "newInterestRateModel",
          "type": "address"
        }
      ],
      "name": "_setInterestRateModel",
      "outputs": [
        {
          "internalType": "uint256",
          "name": "",
          "type": "uint256"
        }
      ],
      "stateMutability": "nonpayable",
      "type": "function"
    },
    {
      "inputs": [
        {
          "internalType": "string",
          "name": "_name",
          "type": "string"
        },
        {
          "internalType": "string",
          "name": "_symbol",
          "type": "string"
        }
      ],
      "name": "_setNameAndSymbol",
      "outputs": [],
      "stateMutability": "nonpayable",
      "type": "function"
    },
    {
      "inputs": [
        {
          "internalType": "uint256",
          "name": "newReserveFactorMantissa",
          "type": "uint256"
        }
      ],
      "name": "_setReserveFactor",
      "outputs": [
        {
          "internalType": "uint256",
          "name": "",
          "type": "uint256"
        }
      ],
      "stateMutability": "nonpayable",
      "type": "function"
    },
    {
      "inputs": [
        {
          "internalType": "uint256",
          "name": "withdrawAmount",
          "type": "uint256"
        }
      ],
      "name": "_withdrawAdminFees",
      "outputs": [
        {
          "internalType": "uint256",
          "name": "",
          "type": "uint256"
        }
      ],
      "stateMutability": "nonpayable",
      "type": "function"
    },
    {
      "inputs": [
        {
          "internalType": "uint256",
          "name": "withdrawAmount",
          "type": "uint256"
        }
      ],
      "name": "_withdrawFuseFees",
      "outputs": [
        {
          "internalType": "uint256",
          "name": "",
          "type": "uint256"
        }
      ],
      "stateMutability": "nonpayable",
      "type": "function"
    },
    {
      "inputs": [],
      "name": "accrualBlockNumber",
      "outputs": [
        {
          "internalType": "uint256",
          "name": "",
          "type": "uint256"
        }
      ],
      "stateMutability": "view",
      "type": "function"
    },
    {
      "inputs": [],
      "name": "accrueInterest",
      "outputs": [
        {
          "internalType": "uint256",
          "name": "",
          "type": "uint256"
        }
      ],
      "stateMutability": "nonpayable",
      "type": "function"
    },
    {
      "inputs": [],
      "name": "adminFeeMantissa",
      "outputs": [
        {
          "internalType": "uint256",
          "name": "",
          "type": "uint256"
        }
      ],
      "stateMutability": "view",
      "type": "function"
    },
    {
      "inputs": [
        {
          "internalType": "address",
          "name": "owner",
          "type": "address"
        },
        {
          "internalType": "address",
          "name": "spender",
          "type": "address"
        }
      ],
      "name": "allowance",
      "outputs": [
        {
          "internalType": "uint256",
          "name": "",
          "type": "uint256"
        }
      ],
      "stateMutability": "view",
      "type": "function"
    },
    {
      "inputs": [
        {
          "internalType": "address",
          "name": "spender",
          "type": "address"
        },
        {
          "internalType": "uint256",
          "name": "amount",
          "type": "uint256"
        }
      ],
      "name": "approve",
      "outputs": [
        {
          "internalType": "bool",
          "name": "",
          "type": "bool"
        }
      ],
      "stateMutability": "nonpayable",
      "type": "function"
    },
    {
      "inputs": [
        {
          "internalType": "address",
          "name": "_token",
          "type": "address"
        },
        {
          "internalType": "address",
          "name": "_spender",
          "type": "address"
        }
      ],
      "name": "approve",
      "outputs": [],
      "stateMutability": "nonpayable",
      "type": "function"
    },
    {
      "inputs": [
        {
          "internalType": "address",
          "name": "owner",
          "type": "address"
        }
      ],
      "name": "balanceOf",
      "outputs": [
        {
          "internalType": "uint256",
          "name": "",
          "type": "uint256"
        }
      ],
      "stateMutability": "view",
      "type": "function"
    },
    {
      "inputs": [
        {
          "internalType": "address",
          "name": "owner",
          "type": "address"
        }
      ],
      "name": "balanceOfUnderlying",
      "outputs": [
        {
          "internalType": "uint256",
          "name": "",
          "type": "uint256"
        }
      ],
      "stateMutability": "nonpayable",
      "type": "function"
    },
    {
      "inputs": [
        {
          "internalType": "uint256",
          "name": "borrowAmount",
          "type": "uint256"
        }
      ],
      "name": "borrow",
      "outputs": [
        {
          "internalType": "uint256",
          "name": "",
          "type": "uint256"
        }
      ],
      "stateMutability": "nonpayable",
      "type": "function"
    },
    {
      "inputs": [
        {
          "internalType": "address",
          "name": "account",
          "type": "address"
        }
      ],
      "name": "borrowBalanceCurrent",
      "outputs": [
        {
          "internalType": "uint256",
          "name": "",
          "type": "uint256"
        }
      ],
      "stateMutability": "nonpayable",
      "type": "function"
    },
    {
      "inputs": [
        {
          "internalType": "address",
          "name": "account",
          "type": "address"
        }
      ],
      "name": "borrowBalanceStored",
      "outputs": [
        {
          "internalType": "uint256",
          "name": "",
          "type": "uint256"
        }
      ],
      "stateMutability": "view",
      "type": "function"
    },
    {
      "inputs": [],
      "name": "borrowIndex",
      "outputs": [
        {
          "internalType": "uint256",
          "name": "",
          "type": "uint256"
        }
      ],
      "stateMutability": "view",
      "type": "function"
    },
    {
      "inputs": [],
      "name": "borrowRatePerBlock",
      "outputs": [
        {
          "internalType": "uint256",
          "name": "",
          "type": "uint256"
        }
      ],
      "stateMutability": "view",
      "type": "function"
    },
    {
      "inputs": [],
      "name": "claim",
      "outputs": [],
      "stateMutability": "nonpayable",
      "type": "function"
    },
    {
      "inputs": [],
      "name": "comptroller",
      "outputs": [
        {
          "internalType": "contract ComptrollerInterface",
          "name": "",
          "type": "address"
        }
      ],
      "stateMutability": "view",
      "type": "function"
    },
    {
      "inputs": [],
      "name": "decimals",
      "outputs": [
        {
          "internalType": "uint8",
          "name": "",
          "type": "uint8"
        }
      ],
      "stateMutability": "view",
      "type": "function"
    },
    {
      "inputs": [],
      "name": "exchangeRateCurrent",
      "outputs": [
        {
          "internalType": "uint256",
          "name": "",
          "type": "uint256"
        }
      ],
      "stateMutability": "nonpayable",
      "type": "function"
    },
    {
      "inputs": [],
      "name": "exchangeRateStored",
      "outputs": [
        {
          "internalType": "uint256",
          "name": "",
          "type": "uint256"
        }
      ],
      "stateMutability": "view",
      "type": "function"
    },
    {
      "inputs": [],
      "name": "feeSeizeShareMantissa",
      "outputs": [
        {
          "internalType": "uint256",
          "name": "",
          "type": "uint256"
        }
      ],
      "stateMutability": "view",
      "type": "function"
    },
    {
      "inputs": [],
      "name": "fuseAdmin",
      "outputs": [
        {
          "internalType": "address payable",
          "name": "",
          "type": "address"
        }
      ],
      "stateMutability": "view",
      "type": "function"
    },
    {
      "inputs": [],
      "name": "fuseFeeMantissa",
      "outputs": [
        {
          "internalType": "uint256",
          "name": "",
          "type": "uint256"
        }
      ],
      "stateMutability": "view",
      "type": "function"
    },
    {
      "inputs": [
        {
          "internalType": "address",
          "name": "account",
          "type": "address"
        }
      ],
      "name": "getAccountSnapshot",
      "outputs": [
        {
          "internalType": "uint256",
          "name": "",
          "type": "uint256"
        },
        {
          "internalType": "uint256",
          "name": "",
          "type": "uint256"
        },
        {
          "internalType": "uint256",
          "name": "",
          "type": "uint256"
        },
        {
          "internalType": "uint256",
          "name": "",
          "type": "uint256"
        }
      ],
      "stateMutability": "view",
      "type": "function"
    },
    {
      "inputs": [],
      "name": "getCash",
      "outputs": [
        {
          "internalType": "uint256",
          "name": "",
          "type": "uint256"
        }
      ],
      "stateMutability": "view",
      "type": "function"
    },
    {
      "inputs": [],
      "name": "implementation",
      "outputs": [
        {
          "internalType": "address",
          "name": "",
          "type": "address"
        }
      ],
      "stateMutability": "view",
      "type": "function"
    },
    {
      "inputs": [
        {
          "internalType": "address",
          "name": "underlying_",
          "type": "address"
        },
        {
          "internalType": "contract ComptrollerInterface",
          "name": "comptroller_",
          "type": "address"
        },
        {
          "internalType": "address payable",
          "name": "fuseAdmin_",
          "type": "address"
        },
        {
          "internalType": "contract InterestRateModel",
          "name": "interestRateModel_",
          "type": "address"
        },
        {
          "internalType": "string",
          "name": "name_",
          "type": "string"
        },
        {
          "internalType": "string",
          "name": "symbol_",
          "type": "string"
        },
        {
          "internalType": "uint256",
          "name": "reserveFactorMantissa_",
          "type": "uint256"
        },
        {
          "internalType": "uint256",
          "name": "adminFeeMantissa_",
          "type": "uint256"
        }
      ],
      "name": "initialize",
      "outputs": [],
      "stateMutability": "nonpayable",
      "type": "function"
    },
    {
      "inputs": [
        {
          "internalType": "contract ComptrollerInterface",
          "name": "comptroller_",
          "type": "address"
        },
        {
          "internalType": "address payable",
          "name": "fuseAdmin_",
          "type": "address"
        },
        {
          "internalType": "contract InterestRateModel",
          "name": "interestRateModel_",
          "type": "address"
        },
        {
          "internalType": "uint256",
          "name": "initialExchangeRateMantissa_",
          "type": "uint256"
        },
        {
          "internalType": "string",
          "name": "name_",
          "type": "string"
        },
        {
          "internalType": "string",
          "name": "symbol_",
          "type": "string"
        },
        {
          "internalType": "uint8",
          "name": "decimals_",
          "type": "uint8"
        },
        {
          "internalType": "uint256",
          "name": "reserveFactorMantissa_",
          "type": "uint256"
        },
        {
          "internalType": "uint256",
          "name": "adminFeeMantissa_",
          "type": "uint256"
        }
      ],
      "name": "initialize",
      "outputs": [],
      "stateMutability": "nonpayable",
      "type": "function"
    },
    {
      "inputs": [],
      "name": "interestRateModel",
      "outputs": [
        {
          "internalType": "contract InterestRateModel",
          "name": "",
          "type": "address"
        }
      ],
      "stateMutability": "view",
      "type": "function"
    },
    {
      "inputs": [],
      "name": "isCEther",
      "outputs": [
        {
          "internalType": "bool",
          "name": "",
          "type": "bool"
        }
      ],
      "stateMutability": "nonpayable",
      "type": "function"
    },
    {
      "inputs": [],
      "name": "isCToken",
      "outputs": [
        {
          "internalType": "bool",
          "name": "",
          "type": "bool"
        }
      ],
      "stateMutability": "nonpayable",
      "type": "function"
    },
    {
      "inputs": [
        {
          "internalType": "address",
          "name": "borrower",
          "type": "address"
        },
        {
          "internalType": "uint256",
          "name": "repayAmount",
          "type": "uint256"
        },
        {
          "internalType": "contract CTokenInterface",
          "name": "cTokenCollateral",
          "type": "address"
        }
      ],
      "name": "liquidateBorrow",
      "outputs": [
        {
          "internalType": "uint256",
          "name": "",
          "type": "uint256"
        }
      ],
      "stateMutability": "nonpayable",
      "type": "function"
    },
    {
      "inputs": [
        {
          "internalType": "uint256",
          "name": "mintAmount",
          "type": "uint256"
        }
      ],
      "name": "mint",
      "outputs": [
        {
          "internalType": "uint256",
          "name": "",
          "type": "uint256"
        }
      ],
      "stateMutability": "nonpayable",
      "type": "function"
    },
    {
      "inputs": [],
      "name": "name",
      "outputs": [
        {
          "internalType": "string",
          "name": "",
          "type": "string"
        }
      ],
      "stateMutability": "view",
      "type": "function"
    },
    {
      "inputs": [],
      "name": "plugin",
      "outputs": [
        {
          "internalType": "contract IERC4626",
          "name": "",
          "type": "address"
        }
      ],
      "stateMutability": "view",
      "type": "function"
    },
    {
      "inputs": [],
      "name": "protocolSeizeShareMantissa",
      "outputs": [
        {
          "internalType": "uint256",
          "name": "",
          "type": "uint256"
        }
      ],
      "stateMutability": "view",
      "type": "function"
    },
    {
      "inputs": [
        {
          "internalType": "uint256",
          "name": "redeemTokens",
          "type": "uint256"
        }
      ],
      "name": "redeem",
      "outputs": [
        {
          "internalType": "uint256",
          "name": "",
          "type": "uint256"
        }
      ],
      "stateMutability": "nonpayable",
      "type": "function"
    },
    {
      "inputs": [
        {
          "internalType": "uint256",
          "name": "redeemAmount",
          "type": "uint256"
        }
      ],
      "name": "redeemUnderlying",
      "outputs": [
        {
          "internalType": "uint256",
          "name": "",
          "type": "uint256"
        }
      ],
      "stateMutability": "nonpayable",
      "type": "function"
    },
    {
      "inputs": [
        {
          "internalType": "uint256",
          "name": "repayAmount",
          "type": "uint256"
        }
      ],
      "name": "repayBorrow",
      "outputs": [
        {
          "internalType": "uint256",
          "name": "",
          "type": "uint256"
        }
      ],
      "stateMutability": "nonpayable",
      "type": "function"
    },
    {
      "inputs": [
        {
          "internalType": "address",
          "name": "borrower",
          "type": "address"
        },
        {
          "internalType": "uint256",
          "name": "repayAmount",
          "type": "uint256"
        }
      ],
      "name": "repayBorrowBehalf",
      "outputs": [
        {
          "internalType": "uint256",
          "name": "",
          "type": "uint256"
        }
      ],
      "stateMutability": "nonpayable",
      "type": "function"
    },
    {
      "inputs": [],
      "name": "reserveFactorMantissa",
      "outputs": [
        {
          "internalType": "uint256",
          "name": "",
          "type": "uint256"
        }
      ],
      "stateMutability": "view",
      "type": "function"
    },
    {
      "inputs": [
        {
          "internalType": "address",
          "name": "liquidator",
          "type": "address"
        },
        {
          "internalType": "address",
          "name": "borrower",
          "type": "address"
        },
        {
          "internalType": "uint256",
          "name": "seizeTokens",
          "type": "uint256"
        }
      ],
      "name": "seize",
      "outputs": [
        {
          "internalType": "uint256",
          "name": "",
          "type": "uint256"
        }
      ],
      "stateMutability": "nonpayable",
      "type": "function"
    },
    {
      "inputs": [],
      "name": "supplyRatePerBlock",
      "outputs": [
        {
          "internalType": "uint256",
          "name": "",
          "type": "uint256"
        }
      ],
      "stateMutability": "view",
      "type": "function"
    },
    {
      "inputs": [],
      "name": "symbol",
      "outputs": [
        {
          "internalType": "string",
          "name": "",
          "type": "string"
        }
      ],
      "stateMutability": "view",
      "type": "function"
    },
    {
      "inputs": [],
      "name": "totalAdminFees",
      "outputs": [
        {
          "internalType": "uint256",
          "name": "",
          "type": "uint256"
        }
      ],
      "stateMutability": "view",
      "type": "function"
    },
    {
      "inputs": [],
      "name": "totalBorrows",
      "outputs": [
        {
          "internalType": "uint256",
          "name": "",
          "type": "uint256"
        }
      ],
      "stateMutability": "view",
      "type": "function"
    },
    {
      "inputs": [],
      "name": "totalBorrowsCurrent",
      "outputs": [
        {
          "internalType": "uint256",
          "name": "",
          "type": "uint256"
        }
      ],
      "stateMutability": "nonpayable",
      "type": "function"
    },
    {
      "inputs": [],
      "name": "totalFuseFees",
      "outputs": [
        {
          "internalType": "uint256",
          "name": "",
          "type": "uint256"
        }
      ],
      "stateMutability": "view",
      "type": "function"
    },
    {
      "inputs": [],
      "name": "totalReserves",
      "outputs": [
        {
          "internalType": "uint256",
          "name": "",
          "type": "uint256"
        }
      ],
      "stateMutability": "view",
      "type": "function"
    },
    {
      "inputs": [],
      "name": "totalSupply",
      "outputs": [
        {
          "internalType": "uint256",
          "name": "",
          "type": "uint256"
        }
      ],
      "stateMutability": "view",
      "type": "function"
    },
    {
      "inputs": [
        {
          "internalType": "address",
          "name": "dst",
          "type": "address"
        },
        {
          "internalType": "uint256",
          "name": "amount",
          "type": "uint256"
        }
      ],
      "name": "transfer",
      "outputs": [
        {
          "internalType": "bool",
          "name": "",
          "type": "bool"
        }
      ],
      "stateMutability": "nonpayable",
      "type": "function"
    },
    {
      "inputs": [
        {
          "internalType": "address",
          "name": "src",
          "type": "address"
        },
        {
          "internalType": "address",
          "name": "dst",
          "type": "address"
        },
        {
          "internalType": "uint256",
          "name": "amount",
          "type": "uint256"
        }
      ],
      "name": "transferFrom",
      "outputs": [
        {
          "internalType": "bool",
          "name": "",
          "type": "bool"
        }
      ],
      "stateMutability": "nonpayable",
      "type": "function"
    },
    {
      "inputs": [],
      "name": "underlying",
      "outputs": [
        {
          "internalType": "address",
          "name": "",
          "type": "address"
        }
      ],
      "stateMutability": "view",
      "type": "function"
    }
  ],
  "bytecode": {
    "object": "0x608060405234801561001057600080fd5b5061613480620000216000396000f3fe6080604052600436106103b85760003560e01c80637f1e06be116101f2578063b2a02ff11161010d578063dd62ed3e116100a0578063f5e3c4621161006f578063f5e3c46214610ad5578063f8f9da2814610af5578063fca7820b14610b0a578063fe9c44ae14610b2a57600080fd5b8063dd62ed3e14610a2f578063ef01df4f14610a75578063f2b3abbd14610a95578063f3fdb15a14610ab557600080fd5b8063c5ebeaec116100dc578063c5ebeaec146109c3578063db006a75146109e3578063dbfe7c1914610a03578063dc028ab114610a1957600080fd5b8063b2a02ff114610932578063bd6d894d14610952578063be99f11914610967578063c37f68e21461098357600080fd5b8063a0712d6811610185578063aa5af0fd11610154578063aa5af0fd146108d7578063aaf5eb68146108ed578063ac784ddc14610909578063ae9d70b01461091d57600080fd5b8063a0712d6814610862578063a6afed9514610882578063a7b820df14610897578063a9059cbb146108b757600080fd5b806391dd36c6116101c157806391dd36c6146107ed57806395d89b411461080d57806395dd919314610822578063a03dce8d1461084257600080fd5b80637f1e06be14610781578063852a12e3146107a15780638d02d9a1146107c15780638f840ddd146107d757600080fd5b80633af9e669116102e2578063601a0bf1116102755780636f307dc3116102445780636f307dc3146106f657806370a082311461071657806373acee981461074c5780637e5465ba1461076157600080fd5b8063601a0bf11461068f57806361feacff146106af5780636752e702146106c55780636c540baf146106e057600080fd5b806350d85b73116102b157806350d85b731461060f57806356e677281461062f5780635c60da1b1461064f5780635fe3b5671461066f57600080fd5b80633af9e669146105b55780633b1d21a2146105d557806347bd3718146105ea5780634e71d92d1461060057600080fd5b806318160ddd1161035a57806323b872dd1161032957806323b872dd146105295780632608f81814610549578063313ce5671461056957806334154d4c1461059557600080fd5b806318160ddd146104d6578063182df0f5146104ec5780631db7894414610501578063219ef65c1461050957600080fd5b80630e752702116103965780630e7527021461043a57806315761d5114610468578063173b9904146104a057806317bfdfbc146104b657600080fd5b806306db3ecd146103bd57806306fdde03146103df578063095ea7b31461040a575b600080fd5b3480156103c957600080fd5b506103dd6103d83660046159ed565b610b3e565b005b3480156103eb57600080fd5b506103f4610c4c565b6040516104019190615b07565b60405180910390f35b34801561041657600080fd5b5061042a610425366004615b1a565b610cda565b6040519015158152602001610401565b34801561044657600080fd5b5061045a610455366004615b46565b610d4a565b604051908152602001610401565b34801561047457600080fd5b50600154610488906001600160a01b031681565b6040516001600160a01b039091168152602001610401565b3480156104ac57600080fd5b5061045a600b5481565b3480156104c257600080fd5b5061045a6104d1366004615b5f565b610d5e565b3480156104e257600080fd5b5061045a60125481565b3480156104f857600080fd5b5061045a610db5565b6103dd610e46565b34801561051557600080fd5b506103dd610524366004615b96565b610f77565b34801561053557600080fd5b5061042a610544366004615c5e565b6112a6565b34801561055557600080fd5b5061045a610564366004615b1a565b6112cc565b34801561057557600080fd5b506005546105839060ff1681565b60405160ff9091168152602001610401565b3480156105a157600080fd5b506103dd6105b0366004615ce1565b6112e2565b3480156105c157600080fd5b5061045a6105d0366004615b5f565b611349565b3480156105e157600080fd5b5061045a6113f9565b3480156105f657600080fd5b5061045a600e5481565b34801561060c57600080fd5b50005b34801561061b57600080fd5b506103dd61062a366004615d5b565b611408565b34801561063b57600080fd5b506103dd61064a366004615db4565b61148c565b34801561065b57600080fd5b50600054610488906001600160a01b031681565b34801561067b57600080fd5b50600654610488906001600160a01b031681565b34801561069b57600080fd5b5061045a6106aa366004615b46565b61176c565b3480156106bb57600080fd5b5061045a60105481565b3480156106d157600080fd5b5061045a666379da05b6000081565b3480156106ec57600080fd5b5061045a600c5481565b34801561070257600080fd5b50601654610488906001600160a01b031681565b34801561072257600080fd5b5061045a610731366004615b5f565b6001600160a01b031660009081526013602052604090205490565b34801561075857600080fd5b5061045a6117c3565b34801561076d57600080fd5b506103dd61077c366004615df6565b611808565b34801561078d57600080fd5b506103dd61079c366004615b5f565b611915565b3480156107ad57600080fd5b5061045a6107bc366004615b46565b6119da565b3480156107cd57600080fd5b5061045a60095481565b3480156107e357600080fd5b5061045a600f5481565b3480156107f957600080fd5b5061045a610808366004615b46565b6119e5565b34801561081957600080fd5b506103f4611a28565b34801561082e57600080fd5b5061045a61083d366004615b5f565b611a35565b34801561084e57600080fd5b5061045a61085d366004615b46565b611ad6565b34801561086e57600080fd5b5061045a61087d366004615b46565b611b19565b34801561088e57600080fd5b5061045a611b25565b3480156108a357600080fd5b5061045a6108b2366004615b46565b611cdc565b3480156108c357600080fd5b5061042a6108d2366004615b1a565b611d1f565b3480156108e357600080fd5b5061045a600d5481565b3480156108f957600080fd5b5061045a670de0b6b3a764000081565b34801561091557600080fd5b50600061042a565b34801561092957600080fd5b5061045a611d4c565b34801561093e57600080fd5b5061045a61094d366004615c5e565b611e0f565b34801561095e57600080fd5b5061045a611e33565b34801561097357600080fd5b5061045a67016345785d8a000081565b34801561098f57600080fd5b506109a361099e366004615b5f565b611e79565b604080519485526020850193909352918301526060820152608001610401565b3480156109cf57600080fd5b5061045a6109de366004615b46565b611f1a565b3480156109ef57600080fd5b5061045a6109fe366004615b46565b611f25565b348015610a0f57600080fd5b5061045a600a5481565b348015610a2557600080fd5b5061045a60115481565b348015610a3b57600080fd5b5061045a610a4a366004615df6565b6001600160a01b03918216600090815260146020908152604080832093909416825291909152205490565b348015610a8157600080fd5b50601754610488906001600160a01b031681565b348015610aa157600080fd5b5061045a610ab0366004615b5f565b611f30565b348015610ac157600080fd5b50600754610488906001600160a01b031681565b348015610ae157600080fd5b5061045a610af0366004615e2f565b611f68565b348015610b0157600080fd5b5061045a611f80565b348015610b1657600080fd5b5061045a610b25366004615b46565b611fe4565b348015610b3657600080fd5b50600161042a565b60006702c68af0bb14000090506000896001600160a01b031663313ce5676040518163ffffffff1660e01b8152600401602060405180830381865afa158015610b8b573d6000803e3d6000fd5b505050506040513d601f19601f82011682018060405250810190610baf9190615e71565b9050610bc2898989858a8a878b8b610f77565b601680546001600160a01b0319166001600160a01b038c16908117909155604080516318160ddd60e01b815290516318160ddd916004808201926020929091908290030181865afa158015610c1b573d6000803e3d6000fd5b505050506040513d601f19601f82011682018060405250810190610c3f9190615e8e565b5050505050505050505050565b60038054610c5990615ea7565b80601f0160208091040260200160405190810160405280929190818152602001828054610c8590615ea7565b8015610cd25780601f10610ca757610100808354040283529160200191610cd2565b820191906000526020600020905b815481529060010190602001808311610cb557829003601f168201915b505050505081565b3360008181526014602090815260408083206001600160a01b03871680855292528083208590555191929182907f8c5be1e5ebec7d5bd14f71427d1e84f3dd0314c0f7b2291e5b200ac8c7c3b92590610d369087815260200190565b60405180910390a360019150505b92915050565b600080610d5683612027565b509392505050565b600080610d6a8161208f565b6000610d74611b25565b14610d9a5760405162461bcd60e51b8152600401610d9190615ef2565b60405180910390fd5b610da383611a35565b91505b610daf81612153565b50919050565b6000806000610dc26121be565b90925090506000826003811115610ddb57610ddb615edc565b14610d445760405162461bcd60e51b815260206004820152603560248201527f65786368616e67655261746553746f7265643a2065786368616e67655261746560448201527414dd1bdc9959125b9d195c9b985b0819985a5b1959605a1b6064820152608401610d91565b333014801590610ec85750600660009054906101000a90046001600160a01b03166001600160a01b031663dd5cd22c6040518163ffffffff1660e01b8152600401602060405180830381865afa158015610ea4573d6000803e3d6000fd5b505050506040513d601f19601f82011682018060405250810190610ec89190615f22565b15610f7557600154600080546040516345cc970560e01b81526001600160a01b039182166004820152919283928392909116906345cc970590602401600060405180830381865afa158015610f21573d6000803e3d6000fd5b505050506040513d6000823e601f3d908101601f19168201604052610f499190810190615f3f565b60005492955090935091506001600160a01b03808516911614610f7157610f7183838361228b565b5050505b565b336001600160a01b03891614610fe15760405162461bcd60e51b815260206004820152602960248201527f6f6e6c7920467573652061646d696e206d617920696e697469616c697a6520746044820152681a19481b585c9ad95d60ba1b6064820152608401610d91565b600c54158015610ff15750600d54155b6110495760405162461bcd60e51b815260206004820152602360248201527f6d61726b6574206d6179206f6e6c7920626520696e697469616c697a6564206f6044820152626e636560e81b6064820152608401610d91565b600180546001600160a01b0319166001600160a01b038a161790556008869055856110cf5760405162461bcd60e51b815260206004820152603060248201527f696e697469616c2065786368616e67652072617465206d75737420626520677260448201526f32b0ba32b9103a3430b7103d32b9379760811b6064820152608401610d91565b60006110da8a612410565b9050801561112a5760405162461bcd60e51b815260206004820152601a60248201527f73657474696e6720636f6d7074726f6c6c6572206661696c65640000000000006044820152606401610d91565b43600c55670de0b6b3a7640000600d556111438861253b565b9050801561119e5760405162461bcd60e51b815260206004820152602260248201527f73657474696e6720696e7465726573742072617465206d6f64656c206661696c604482015261195960f21b6064820152608401610d91565b85516111b19060039060208901906157fa565b5084516111c59060049060208801906157fa565b506005805460ff191660ff86161790556111de836127ab565b9050801561122e5760405162461bcd60e51b815260206004820152601d60248201527f73657474696e67207265736572766520666163746f72206661696c65640000006044820152606401610d91565b6112378261284a565b905080156112875760405162461bcd60e51b815260206004820152601860248201527f73657474696e672061646d696e20666565206661696c656400000000000000006044820152606401610d91565b50506002805460ff60b01b1916600160b01b1790555050505050505050565b6000806112b28161208f565b60006112c033878787612964565b149150610d5681612153565b6000806112d98484612c02565b50949350505050565b6112ea612c6c565b6113295760405162461bcd60e51b815260206004820152601060248201526f31b0b63632b9103737ba1030b236b4b760811b6044820152606401610d91565b6113356003858561587a565b506113426004838361587a565b5050505050565b600080604051806020016040528061135f611e33565b90526001600160a01b03841660009081526013602052604081205491925090819061138b908490612dd7565b909250905060008260038111156113a4576113a4615edc565b146113f15760405162461bcd60e51b815260206004820152601f60248201527f62616c616e636520636f756c64206e6f742062652063616c63756c61746564006044820152606401610d91565b949350505050565b6000611403612e2a565b905090565b611410612c6c565b6114455760405162461bcd60e51b815260206004820152600660248201526510b0b236b4b760d11b6044820152606401610d91565b611486848484848080601f01602080910402602001604051908101604052809392919081815260200183838082843760009201919091525061228b92505050565b50505050565b3330148061149d575061149d612c6c565b6114a657600080fd5b60006114b482840184615b5f565b90506001600160a01b0381166114f05760405162461bcd60e51b81526020600482015260016024820152600360fc1b6044820152606401610d91565b6017546001600160a01b03161580159061157457506017546040516370a0823160e01b81523060048201526001600160a01b03909116906370a0823190602401602060405180830381865afa15801561154d573d6000803e3d6000fd5b505050506040513d601f19601f820116820180604052508101906115719190615e8e565b15155b1561165e576017546040516370a0823160e01b81523060048201526001600160a01b039091169063ba0876529082906370a0823190602401602060405180830381865afa1580156115c9573d6000803e3d6000fd5b505050506040513d601f19601f820116820180604052508101906115ed9190615e8e565b6040516001600160e01b031960e084901b1681526004810191909152306024820181905260448201526064016020604051808303816000875af1158015611638573d6000803e3d6000fd5b505050506040513d601f19601f8201168201806040525081019061165c9190615e8e565b505b601780546001600160a01b0319166001600160a01b0383811691821790925560165460405163095ea7b360e01b8152600481019290925260001960248301529091169063095ea7b3906044016020604051808303816000875af11580156116c9573d6000803e3d6000fd5b505050506040513d601f19601f820116820180604052508101906116ed9190615f22565b506016546040516370a0823160e01b81523060048201526000916001600160a01b0316906370a0823190602401602060405180830381865afa158015611737573d6000803e3d6000fd5b505050506040513d601f19601f8201168201806040525081019061175b9190615e8e565b905080156114865761148681612ebd565b6000806117788161208f565b6000611782611b25565b905080156117ae576117a681601181111561179f5761179f615edc565b603b612f36565b925050610da6565b6117b784612faf565b925050610daf81612153565b6000806117cf8161208f565b60006117d9611b25565b146117f65760405162461bcd60e51b8152600401610d9190615ef2565b600e54915061180481612153565b5090565b611810612c6c565b6118455760405162461bcd60e51b815260206004820152600660248201526510b0b236b4b760d11b6044820152606401610d91565b6016546001600160a01b0383811691161480159061187157506017546001600160a01b03838116911614155b6118a15760405162461bcd60e51b81526020600482015260016024820152602160f81b6044820152606401610d91565b60405163095ea7b360e01b81526001600160a01b038281166004830152600019602483015283169063095ea7b3906044016020604051808303816000875af11580156118f1573d6000803e3d6000fd5b505050506040513d601f19601f82011682018060405250810190610f719190615f22565b61191d612c6c565b61197f5760405162461bcd60e51b815260206004820152602d60248201527f6f6e6c79207468652061646d696e206d6179207365742074686520636f6d702d60448201526c6c696b652064656c656761746560981b6064820152608401610d91565b6016546040516317066a5760e21b81526001600160a01b03838116600483015290911690635c19a95c90602401600060405180830381600087803b1580156119c657600080fd5b505af1158015611342573d6000803e3d6000fd5b6000610d4482613060565b6000806119f18161208f565b60006119fb611b25565b90508015611a1f576117a6816011811115611a1857611a18615edc565b6052612f36565b6117b78461284a565b60048054610c5990615ea7565b6000806000611a43846130a6565b90925090506000826003811115611a5c57611a5c615edc565b14611acf5760405162461bcd60e51b815260206004820152603760248201527f626f72726f7742616c616e636553746f7265643a20626f72726f7742616c616e60448201527f636553746f726564496e7465726e616c206661696c65640000000000000000006064820152608401610d91565b9392505050565b600080611ae28161208f565b6000611aec611b25565b90508015611b10576117a6816011811115611b0957611b09615edc565b6033612f36565b6117b78461315f565b600080610d56836131d2565b600c546000904390811415611b3d5760005b91505090565b6000611b47612e2a565b90506000600760009054906101000a90046001600160a01b03166001600160a01b03166315f2405383600e54611b8c600f54611b87601054601154613218565b613218565b6040516001600160e01b031960e086901b168152600481019390935260248301919091526044820152606401602060405180830381865afa158015611bd5573d6000803e3d6000fd5b505050506040513d601f19601f82011682018060405250810190611bf99190615e8e565b905065048c27395000811115611c515760405162461bcd60e51b815260206004820152601c60248201527f626f72726f772072617465206973206162737572646c792068696768000000006044820152606401610d91565b600080611c6085600c5461324e565b90925090506000826003811115611c7957611c79615edc565b14611cc65760405162461bcd60e51b815260206004820152601f60248201527f636f756c64206e6f742063616c63756c61746520626c6f636b2064656c7461006044820152606401610d91565b611cd285858584613279565b9550505050505090565b600080611ce88161208f565b6000611cf2611b25565b90508015611d16576117a6816011811115611d0f57611d0f615edc565b6037612f36565b6117b7846133a5565b600080611d2b8161208f565b6000611d3933338787612964565b149150611d4581612153565b5092915050565b6007546000906001600160a01b031663b8168816611d68612e2a565b600e54611d7f600f54611b87601054601154613218565b600954600a54600b54611d929190615ff5565b611d9c9190615ff5565b6040516001600160e01b031960e087901b16815260048101949094526024840192909252604483015260648201526084015b602060405180830381865afa158015611deb573d6000803e3d6000fd5b505050506040513d601f19601f820116820180604052508101906114039190615e8e565b60006001611e1c8161208f565b611e2833868686613483565b9150610d5681612153565b600080611e3f8161208f565b6000611e49611b25565b14611e665760405162461bcd60e51b8152600401610d9190615ef2565b611e6e610db5565b915061180481612153565b6001600160a01b038116600090815260136020526040812054819081908190818080611ea4896130a6565b935090506000816003811115611ebc57611ebc615edc565b14611eda5760095b6000806000975097509750975050505050611f13565b611ee26121be565b925090506000816003811115611efa57611efa615edc565b14611f06576009611ec4565b5060009650919450925090505b9193509193565b6000610d4482613980565b6000610d44826139c4565b600080611f3b611b25565b90508015611f5f57611acf816011811115611f5857611f58615edc565b604b612f36565b611acf8361253b565b600080611f76858585613a03565b5095945050505050565b6007546000906001600160a01b03166315f24053611f9c612e2a565b600e54611fb3600f54611b87601054601154613218565b6040516001600160e01b031960e086901b168152600481019390935260248301919091526044820152606401611dce565b600080611ff08161208f565b6000611ffa611b25565b9050801561201e576117a681601181111561201757612017615edc565b6059612f36565b6117b7846127ab565b60008060006120358161208f565b600061203f611b25565b9050801561206f5761206381601181111561205c5761205c615edc565b6041612f36565b60009350935050612080565b61207a333387613af7565b93509350505b61208981612153565b50915091565b600254600160b01b900460ff166120d55760405162461bcd60e51b815260206004820152600a6024820152691c994b595b9d195c995960b21b6044820152606401610d91565b8061214357600660009054906101000a90046001600160a01b03166001600160a01b031663c90c20b16040518163ffffffff1660e01b8152600401600060405180830381600087803b15801561212a57600080fd5b505af115801561213e573d6000803e3d6000fd5b505050505b506002805460ff60b01b19169055565b6002805460ff60b01b1916600160b01b179055806121bb57600660009054906101000a90046001600160a01b03166001600160a01b031663632e51426040518163ffffffff1660e01b8152600401600060405180830381600087803b1580156119c657600080fd5b50565b6012546000908190806121d8575050600854600092909150565b60006121e2612e2a565b905060006121fc6040518060200160405280600081525090565b600061221e84600e54612219600f54611b87601054601154613218565b613f11565b93509050600081600381111561223657612236615edc565b14612248579660009650945050505050565b6122528386613f63565b92509050600081600381111561226a5761226a615edc565b1461227c579660009650945050505050565b50516000969095509350505050565b6001546000546040516338e6a07360e11b81526001600160a01b039182166004820152858216602482015284151560448201529116906371cd40e690606401602060405180830381865afa1580156122e7573d6000803e3d6000fd5b505050506040513d601f19601f8201168201806040525081019061230b9190615f22565b61233f5760405162461bcd60e51b8152602060048201526005602482015264085a5b5c1b60da1b6044820152606401610d91565b600080546001600160a01b038581166001600160a01b03198316179092556040519116906123c2903090612377908590602401615b07565b60408051601f19818403018152918152602080830180516001600160e01b0316630adccee560e31b17905281518083019092526007825266216265636f6d6560c81b9082015261402e565b50600054604080516001600160a01b03808516825290921660208301527fd604de94d45953f9138079ec1b82d533cb2160c906d1076d1f7ed54befbca97a910160405180910390a150505050565b600080600660009054906101000a90046001600160a01b03169050826001600160a01b0316627e3dd26040518163ffffffff1660e01b8152600401602060405180830381865afa158015612468573d6000803e3d6000fd5b505050506040513d601f19601f8201168201806040525081019061248c9190615f22565b6124d85760405162461bcd60e51b815260206004820152601c60248201527f6d61726b6572206d6574686f642072657475726e65642066616c7365000000006044820152606401610d91565b600680546001600160a01b0319166001600160a01b0385811691821790925560408051928416835260208301919091527f7ac369dbd14fa5ea3f473ed67cc9d598964a77501540ba6751eb0b3decf5870d91015b60405180910390a16000611acf565b600080612546612c6c565b61255657611acf6001604d612f36565b43600c541461256b57611acf600a604c612f36565b600760009054906101000a90046001600160a01b03169050826001600160a01b0316632191f92a6040518163ffffffff1660e01b8152600401602060405180830381865afa1580156125c1573d6000803e3d6000fd5b505050506040513d601f19601f820116820180604052508101906125e59190615f22565b6126315760405162461bcd60e51b815260206004820152601c60248201527f6d61726b6572206d6574686f642072657475726e65642066616c7365000000006044820152606401610d91565b600780546001600160a01b0319166001600160a01b0385811691821790925560408051928416835260208301919091527fedffc32e068c7c95dfd4bdfd5c4d939a084d6b11c4199eac8436ed234d72f926910160405180910390a16001600160a01b0381161561271f5760408051600481526024810182526020810180516001600160e01b0316636cc1140b60e11b17905290516001600160a01b038316916126d99161600d565b6000604051808303816000865af19150503d8060008114612716576040519150601f19603f3d011682016040523d82523d6000602084013e61271b565b606091505b5050505b60408051600481526024810182526020810180516001600160e01b031663742a137b60e11b17905290516001600160a01b0385169161275d9161600d565b6000604051808303816000865af19150503d806000811461279a576040519150601f19603f3d011682016040523d82523d6000602084013e61279f565b606091505b5060009150611acf9050565b60006127b5612c6c565b6127c557610d446001605a612f36565b43600c54146127da57610d44600a605b612f36565b670de0b6b3a76400006127fa6127f284600954613218565b600a54613218565b111561280c57610d446002605c612f36565b600b80549083905560408051828152602081018590527faaa68312e2ea9d50e16af5068410ab56e1a1fd06037b1a35664812c30f821460910161252c565b600043600c541461286157610d44600a6054612f36565b6000198214156128715760095491505b600061287b6140ca565b9050670de0b6b3a764000061289b612895600b5486613218565b83613218565b11156128ad57611acf60026055612f36565b8260095414612911576128be612c6c565b6128ce57611acf60016053612f36565b600980549084905560408051828152602081018690527fcdd0b588250e1398549f79cfdb8217c186688822905d6715b0834ea1c865594a910160405180910390a1505b80600a541461295d57600a80549082905560408051828152602081018490527f92eef861b6533b7d3417f39c2ad7b460eed4e88a32fa3604f30e718b7602e7dc910160405180910390a1505b6000611acf565b6006546040516317b9b84b60e31b81523060048201526001600160a01b038581166024830152848116604483015260648201849052600092839291169063bdcdc258906084016020604051808303816000875af11580156129c9573d6000803e3d6000fd5b505050506040513d601f19601f820116820180604052508101906129ed9190615e8e565b90508015612a0a57612a026003605d83614114565b9150506113f1565b836001600160a01b0316856001600160a01b03161415612a3057612a026002605e612f36565b6000856001600160a01b0316876001600160a01b03161415612a555750600019612a7d565b506001600160a01b038086166000908152601460209081526040808320938a16835292905220545b600080600080612a8d858961324e565b90945092506000846003811115612aa657612aa6615edc565b14612ac457612ab76009605e612f36565b96505050505050506113f1565b6001600160a01b038a16600090815260136020526040902054612ae7908961324e565b90945091506000846003811115612b0057612b00615edc565b14612b1157612ab76009605f612f36565b6001600160a01b038916600090815260136020526040902054612b3490896141b6565b90945090506000846003811115612b4d57612b4d615edc565b14612b5e57612ab760096060612f36565b6001600160a01b03808b16600090815260136020526040808220859055918b168152208190556000198514612bb6576001600160a01b03808b166000908152601460209081526040808320938f168352929052208390555b886001600160a01b03168a6001600160a01b03166000805160206161088339815191528a604051612be991815260200190565b60405180910390a35060009a9950505050505050505050565b6000806000612c108161208f565b6000612c1a611b25565b90508015612c4a57612c3e816011811115612c3757612c37615edc565b6040612f36565b60009350935050612c5b565b612c55338787613af7565b93509350505b612c6481612153565b509250929050565b600654604080516303e1469160e61b815290516000926001600160a01b031691829163f851a440916004808201926020929091908290030181865afa158015612cb9573d6000803e3d6000fd5b505050506040513d601f19601f82011682018060405250810190612cdd9190616029565b6001600160a01b0316336001600160a01b0316148015612d5a5750806001600160a01b0316630a755ec26040518163ffffffff1660e01b8152600401602060405180830381865afa158015612d36573d6000803e3d6000fd5b505050506040513d601f19601f82011682018060405250810190612d5a9190615f22565b80611b3757506001546001600160a01b031633148015611b375750806001600160a01b0316632f1069ba6040518163ffffffff1660e01b8152600401602060405180830381865afa158015612db3573d6000803e3d6000fd5b505050506040513d601f19601f82011682018060405250810190611b379190615f22565b600080600080612de786866141e6565b90925090506000826003811115612e0057612e00615edc565b14612e115750915060009050612e23565b6000612e1c82614262565b9350935050505b9250929050565b6017546040516370a0823160e01b81523060048201526000916001600160a01b031690634cdad5069082906370a0823190602401602060405180830381865afa158015612e7b573d6000803e3d6000fd5b505050506040513d601f19601f82011682018060405250810190612e9f9190615e8e565b6040518263ffffffff1660e01b8152600401611dce91815260200190565b601754604051636e553f6560e01b8152600481018390523060248201526001600160a01b0390911690636e553f65906044016020604051808303816000875af1158015612f0e573d6000803e3d6000fd5b505050506040513d601f19601f82011682018060405250810190612f329190615e8e565b5050565b60007f45b96fe442630264581b197e84bbada861235052c5a1aadfff9ea4e40a969aa0836011811115612f6b57612f6b615edc565b836063811115612f7d57612f7d615edc565b60408051928352602083019190915260009082015260600160405180910390a1826011811115611acf57611acf615edc565b600080612fba612c6c565b612fca57611acf6001603c612f36565b43600c5414612fdf57611acf600a603e612f36565b82612fe8612e2a565b1015612ffa57611acf600e603d612f36565b600f5483111561301057611acf6002603f612f36565b61301c600f548461427a565b600f819055905061302d33846142b4565b7f3bad0c59cf2f06e7314077049f48a93578cd16f5ef92329f1dab1420a99c177e33848360405161252c93929190616046565b60008061306c8161208f565b6000613076611b25565b9050801561309a576117a681601181111561309357613093615edc565b602a612f36565b6117b733600086614331565b6001600160a01b0381166000908152601560205260408120805482918291829182916130db5750600096879650945050505050565b6130eb8160000154600d546148b7565b9094509250600084600381111561310457613104615edc565b1461311757509195600095509350505050565b613125838260010154614901565b9094509150600084600381111561313e5761313e615edc565b1461315157509195600095509350505050565b506000969095509350505050565b60008043600c541461317757611acf600a6035612f36565b82613180612e2a565b101561319257611acf600e6034612f36565b6011548311156131a857611acf60026036612f36565b6131b46011548461427a565b601181905560015490915061295d906001600160a01b0316846142b4565b60008060006131e08161208f565b60006131ea611b25565b9050801561320e5761206381601181111561320757613207615edc565b6020612f36565b61207a338661492c565b6000611acf8383604051806040016040528060118152602001706164646974696f6e206f766572666c6f7760781b815250614cea565b60008083831161326d5760006132648486616067565b91509150612e23565b50600390506000612e23565b60008061329460405180602001604052808681525084614d1b565b905060006132a482600e54614d4c565b905060006132b482600e54613218565b905060006132d56040518060200160405280600b5481525084600f54614d64565b905060006132f66040518060200160405280600a5481525085601154614d64565b90506000613317604051806020016040528060095481525086601054614d64565b9050600061332a87600d54600d54614d64565b600c8d9055600d819055600e869055600f85905560118490556010839055604080518d815260208101899052908101829052606081018790529091507f4dec04e750ca11537cabcd8a9eab06494de08da3735bc8871cd41250e190bc049060800160405180910390a160009c9b505050505050505050505050565b60008043600c54146133bd57611acf600a6039612f36565b826133c6612e2a565b10156133d857611acf600e6038612f36565b6010548311156133ee57611acf6002603a612f36565b6133fa6010548461427a565b90508060108190555061295d600660009054906101000a90046001600160a01b03166001600160a01b031663f851a4406040518163ffffffff1660e01b8152600401602060405180830381865afa158015613459573d6000803e3d6000fd5b505050506040513d601f19601f8201168201806040525081019061347d9190616029565b846142b4565b60065460405163d02f735160e01b81523060048201526001600160a01b0386811660248301528581166044830152848116606483015260848201849052600092839291169063d02f73519060a4016020604051808303816000875af11580156134f0573d6000803e3d6000fd5b505050506040513d601f19601f820116820180604052508101906135149190615e8e565b9050801561352957612a026003601d83614114565b846001600160a01b0316846001600160a01b0316141561354f57612a026006601e612f36565b6135b4604080516101808101909152806000815260200160008152602001600081526020016000815260200160008152602001600081526020016000815260200160008152602001600081526020016000815260200160008152602001600081525090565b6001600160a01b0385166000908152601360205260409020546135d7908561324e565b60208301819052828260038111156135f1576135f1615edc565b600381111561360257613602615edc565b905250600090508151600381111561361c5761361c615edc565b1461364c576136436009601c8360000151600381111561363e5761363e615edc565b614114565b925050506113f1565b61366b846040518060200160405280666379da05b60000815250614d85565b6080820152604080516020810190915267016345785d8a00008152613691908590614d85565b61014082015260808101516136b6906136ab90869061427a565b82610140015161427a565b60608201526136c36121be565b60c08301819052828260038111156136dd576136dd615edc565b60038111156136ee576136ee615edc565b905250600090508151600381111561370857613708615edc565b146137555760405162461bcd60e51b815260206004820152601860248201527f65786368616e67652072617465206d617468206572726f7200000000000000006044820152606401610d91565b61377560405180602001604052808360c001518152508260800151614d4c565b60a0820152604080516020810190915260c0820151815261014082015161379c9190614d4c565b610160820152600f5460a08201516137b49190613218565b60e082015260125460808201516137ce916136ab9161427a565b6101208201526011546101608201516137e79190613218565b6101008201526001600160a01b038616600090815260136020526040902054606082015161381591906141b6565b604083018190528282600381111561382f5761382f615edc565b600381111561384057613840615edc565b905250600090508151600381111561385a5761385a615edc565b1461387c576136436009601b8360000151600381111561363e5761363e615edc565b60e0810151600f556101208101516012556101008101516011556020808201516001600160a01b0387811660008181526013855260408082209490945583860151928b1680825290849020929092556060850151925192835290929091600080516020616108833981519152910160405180910390a3306001600160a01b0316856001600160a01b0316600080516020616108833981519152836080015160405161392991815260200190565b60405180910390a360a081015160e08201516040517fa91e67c5ea634cd43a12c5a482724b03de01e85ca68702a53d0c2f45cb7c1dc59261396b923092616046565b60405180910390a16000979650505050505050565b60008061398c8161208f565b6000613996611b25565b905080156139ba576117a68160118111156139b3576139b3615edc565b600a612f36565b6117b73385614da8565b6000806139d08161208f565b60006139da611b25565b905080156139f7576117a681601181111561309357613093615edc565b6117b733856000614331565b6000806000613a118161208f565b6000613a1b611b25565b90508015613a4b57613a3f816011811115613a3857613a38615edc565b6011612f36565b60009350935050613ae5565b846001600160a01b031663a6afed956040518163ffffffff1660e01b81526004016020604051808303816000875af1158015613a8b573d6000803e3d6000fd5b505050506040513d601f19601f82011682018060405250810190613aaf9190615e8e565b90508015613ad357613a3f816011811115613acc57613acc615edc565b6012612f36565b613adf3388888861513c565b93509350505b613aee81612153565b50935093915050565b600654604051631200453160e11b81523060048201526001600160a01b03858116602483015284811660448301526064820184905260009283928392909116906324008a62906084016020604051808303816000875af1158015613b5f573d6000803e3d6000fd5b505050506040513d601f19601f82011682018060405250810190613b839190615e8e565b90508015613ba457613b986003604383614114565b60009250925050613f09565b43600c5414613bb957613b98600a6044612f36565b613c026040805161010081019091528060008152602001600081526020016000815260200160008152602001600081526020016000815260200160008152602001600081525090565b6001600160a01b0386166000908152601560205260409020600101546060820152613c2c866130a6565b6080830181905260208301826003811115613c4957613c49615edc565b6003811115613c5a57613c5a615edc565b9052506000905081602001516003811115613c7757613c77615edc565b14613ca657613c99600960428360200151600381111561363e5761363e615edc565b6000935093505050613f09565b600019851415613cbf5760808101516040820152613cc7565b604081018590525b613cd58782604001516155fd565b60e082018190526080820151613cea9161324e565b60a0830181905260208301826003811115613d0757613d07615edc565b6003811115613d1857613d18615edc565b9052506000905081602001516003811115613d3557613d35615edc565b14613da85760405162461bcd60e51b815260206004820152603a60248201527f52455041595f424f52524f575f4e45575f4143434f554e545f424f52524f575f60448201527f42414c414e43455f43414c43554c4154494f4e5f4641494c45440000000000006064820152608401610d91565b613db8600e548260e0015161324e565b60c0830181905260208301826003811115613dd557613dd5615edc565b6003811115613de657613de6615edc565b9052506000905081602001516003811115613e0357613e03615edc565b14613e6a5760405162461bcd60e51b815260206004820152603160248201527f52455041595f424f52524f575f4e45575f544f54414c5f42414c414e43455f43604482015270105310d55310551253d397d19052531151607a1b6064820152608401610d91565b60a081810180516001600160a01b03898116600081815260156020908152604091829020948555600d5460019095019490945560c0870151600e81905560e088015195518251948f16855294840192909252820193909352606081019190915260808101919091527f1a2a22cb034d26d1854bdc6666a5b91fe25efbbb5dcad3b0355478d6f5c362a1910160405180910390a160e00151600093509150505b935093915050565b600080600080613f2187876141b6565b90925090506000826003811115613f3a57613f3a615edc565b14613f4b5750915060009050613f09565b613f55818661324e565b935093505050935093915050565b6000613f7b6040518060200160405280600081525090565b600080613f9086670de0b6b3a76400006148b7565b90925090506000826003811115613fa957613fa9615edc565b14613fc857506040805160208101909152600081529092509050612e23565b600080613fd58388614901565b90925090506000826003811115613fee57613fee615edc565b146140115781604051806020016040528060008152509550955050505050612e23565b604080516020810190915290815260009890975095505050505050565b6060600080856001600160a01b03168560405161404b919061600d565b6000604051808303816000865af19150503d8060008114614088576040519150601f19603f3d011682016040523d82523d6000602084013e61408d565b606091505b5091509150816140c1578051156140a75780518082602001fd5b8360405162461bcd60e51b8152600401610d919190615b07565b95945050505050565b6001546040805163dd86fea160e01b815290516000926001600160a01b03169163dd86fea19160048083019260209291908290030181865afa158015611deb573d6000803e3d6000fd5b60007f45b96fe442630264581b197e84bbada861235052c5a1aadfff9ea4e40a969aa084601181111561414957614149615edc565b84606381111561415b5761415b615edc565b604080519283526020830191909152810184905260600160405180910390a1600384601181111561418e5761418e615edc565b146141aa578360118111156141a5576141a5615edc565b6113f1565b6113f1826103e8615ff5565b600080806141c48486615ff5565b90508481106141d857600092509050612e23565b600260009250925050612e23565b60006141fe6040518060200160405280600081525090565b60008061420f8660000151866148b7565b9092509050600082600381111561422857614228615edc565b1461424757506040805160208101909152600081529092509050612e23565b60408051602081019091529081526000969095509350505050565b8051600090610d4490670de0b6b3a76400009061607e565b6000611acf8383604051806040016040528060158152602001747375627472616374696f6e20756e646572666c6f7760581b8152506156b3565b601754604051632d182be560e21b8152600481018390526001600160a01b0384811660248301523060448301529091169063b460af94906064016020604051808303816000875af115801561430d573d6000803e3d6000fd5b505050506040513d601f19601f82011682018060405250810190610f719190615e8e565b600082158061433e575081155b6143a75760405162461bcd60e51b815260206004820152603460248201527f6f6e65206f662072656465656d546f6b656e73496e206f722072656465656d416044820152736d6f756e74496e206d757374206265207a65726f60601b6064820152608401610d91565b6143e86040805160e0810190915280600081526020016000815260200160008152602001600081526020016000815260200160008152602001600081525090565b6143f06121be565b604083018190526020830182600381111561440d5761440d615edc565b600381111561441e5761441e615edc565b905250600090508160200151600381111561443b5761443b615edc565b146144655761445d6009602e8360200151600381111561363e5761363e615edc565b915050611acf565b83156144fe57606081018490526040805160208101825290820151815261448c9085612dd7565b60808301819052602083018260038111156144a9576144a9615edc565b60038111156144ba576144ba615edc565b90525060009050816020015160038111156144d7576144d7615edc565b146144f95761445d6009602c8360200151600381111561363e5761363e615edc565b61458f565b61451a83604051806020016040528084604001518152506156e2565b606083018190526020830182600381111561453757614537615edc565b600381111561454857614548615edc565b905250600090508160200151600381111561456557614565615edc565b146145875761445d6009602d8360200151600381111561363e5761363e615edc565b608081018390525b600654606082015160405163eabe7d9160e01b81526000926001600160a01b03169163eabe7d91916145c89130918b91906004016160a0565b6020604051808303816000875af11580156145e7573d6000803e3d6000fd5b505050506040513d601f19601f8201168201806040525081019061460b9190615e8e565b90508015614629576146206003602b83614114565b92505050611acf565b43600c541461463e57614620600a602f612f36565b61464e601254836060015161324e565b60a084018190526020840182600381111561466b5761466b615edc565b600381111561467c5761467c615edc565b905250600090508260200151600381111561469957614699615edc565b146146bb57614620600960318460200151600381111561363e5761363e615edc565b6001600160a01b03861660009081526013602052604090205460608301516146e3919061324e565b60c084018190526020840182600381111561470057614700615edc565b600381111561471157614711615edc565b905250600090508260200151600381111561472e5761472e615edc565b1461475057614620600960308460200151600381111561363e5761363e615edc565b816080015161475d612e2a565b101561476f57614620600e6032612f36565b60a082015160125560c08201516001600160a01b03871660009081526013602052604090205560808201516147a59087906142b4565b306001600160a01b0316866001600160a01b031660008051602061610883398151915284606001516040516147dc91815260200190565b60405180910390a3608082015160608301516040517fe5b754fb1abb7f01b499791d0b820ae3b6af3424ac1c59768edb53f4ec31a9299261481e928a92616046565b60405180910390a1600654608083015160608401516040516351dff98960e01b81523060048201526001600160a01b038a81166024830152604482019390935260648101919091529116906351dff98990608401600060405180830381600087803b15801561488c57600080fd5b505af11580156148a0573d6000803e3d6000fd5b50600092506148ad915050565b9695505050505050565b600080836148ca57506000905080612e23565b60006148d684866160c4565b9050836148e3868361607e565b146148f657600260009250925050612e23565b600092509050612e23565b600080826149155750600190506000612e23565b6000614921848661607e565b915091509250929050565b600654604051634ef4c3e160e01b8152600091829182916001600160a01b031690634ef4c3e190614965903090899089906004016160a0565b6020604051808303816000875af1158015614984573d6000803e3d6000fd5b505050506040513d601f19601f820116820180604052508101906149a89190615e8e565b905080156149c9576149bd6003602183614114565b60009250925050612e23565b43600c54146149de576149bd600a6024612f36565b614a1f6040805160e0810190915280600081526020016000815260200160008152602001600081526020016000815260200160008152602001600081525090565b614a276121be565b6040830181905260208301826003811115614a4457614a44615edc565b6003811115614a5557614a55615edc565b9052506000905081602001516003811115614a7257614a72615edc565b14614aa157614a94600960238360200151600381111561363e5761363e615edc565b6000935093505050612e23565b614aab86866155fd565b60c0820181905260408051602081018252908301518152614acc91906156e2565b6060830181905260208301826003811115614ae957614ae9615edc565b6003811115614afa57614afa615edc565b9052506000905081602001516003811115614b1757614b17615edc565b14614b645760405162461bcd60e51b815260206004820181905260248201527f4d494e545f45584348414e47455f43414c43554c4154494f4e5f4641494c45446044820152606401610d91565b614b746012548260600151613218565b60808201526001600160a01b0386166000908152601360205260409020546060820151614ba19190613218565b60a0820181905260808201516012556001600160a01b038716600090815260136020526040908190209190915560c0820151606083015191517f4c209b5fc8ad50758f13e2e1088ba56a560dff690a1c6fef26394f4c03821c4f92614c0a928a92909190616046565b60405180910390a1856001600160a01b0316306001600160a01b03166000805160206161088339815191528360600151604051614c4991815260200190565b60405180910390a360065460c082015160608301516040516341c728b960e01b81523060048201526001600160a01b038a81166024830152604482019390935260648101919091529116906341c728b990608401600060405180830381600087803b158015614cb757600080fd5b505af1158015614ccb573d6000803e3d6000fd5b5060009250614cd8915050565b8160c001519350935050509250929050565b600080614cf78486615ff5565b905082858210156112d95760405162461bcd60e51b8152600401610d919190615b07565b6040805160208101909152600081526040518060200160405280614d438560000151856156f2565b90529392505050565b600080614d598484614d1b565b90506113f181614262565b600080614d718585614d1b565b90506140c1614d7f82614262565b84613218565b6000670de0b6b3a7640000614d9e8484600001516156f2565b611acf919061607e565b60065460405163368f515360e21b815260009182916001600160a01b039091169063da3d454c90614de1903090889088906004016160a0565b6020604051808303816000875af1158015614e00573d6000803e3d6000fd5b505050506040513d601f19601f82011682018060405250810190614e249190615e8e565b90508015614e4157614e396003601083614114565b915050610d44565b43600c5414614e5657614e39600a600c612f36565b6000614e60612e2a565b905083811015614e7f57614e76600e600b612f36565b92505050610d44565b614eab604080516080810190915280600081526020016000815260200160008152602001600081525090565b614eb4866130a6565b6020830181905282826003811115614ece57614ece615edc565b6003811115614edf57614edf615edc565b9052506000905081516003811115614ef957614ef9615edc565b14614f2457614f1a6009808360000151600381111561363e5761363e615edc565b9350505050610d44565b614f328160200151866141b6565b6040830181905282826003811115614f4c57614f4c615edc565b6003811115614f5d57614f5d615edc565b9052506000905081516003811115614f7757614f77615edc565b14614f9957614f1a6009600e8360000151600381111561363e5761363e615edc565b6006546040828101519051631de6c8a560e21b815230600482015260248101919091526001600160a01b039091169063779b2294906044016020604051808303816000875af1158015614ff0573d6000803e3d6000fd5b505050506040513d601f19601f820116820180604052508101906150149190615e8e565b9250821561502957614f1a6003601085614114565b615035600e54866141b6565b606083018190528282600381111561504f5761504f615edc565b600381111561506057615060615edc565b905250600090508151600381111561507a5761507a615edc565b1461509c57614f1a6009600d8360000151600381111561363e5761363e615edc565b6040808201516001600160a01b0388166000908152601560205291909120908155600d546001909101556060810151600e556150d886866142b4565b60408082015160608084015183516001600160a01b038b168152602081018a9052938401929092528201527f13ed6866d4e1ee6da46f845c46d7e54120883d75c5ea9a2dacc1c4ca8984ab809060800160405180910390a160009695505050505050565b600654604051632fe3f38f60e11b81523060048201526001600160a01b03838116602483015286811660448301528581166064830152608482018590526000928392839290911690635fc7e71e9060a4016020604051808303816000875af11580156151ac573d6000803e3d6000fd5b505050506040513d601f19601f820116820180604052508101906151d09190615e8e565b905080156151f1576151e56003601483614114565b600092509250506155f4565b43600c5414615206576151e5600a6018612f36565b43846001600160a01b0316636c540baf6040518163ffffffff1660e01b8152600401602060405180830381865afa158015615245573d6000803e3d6000fd5b505050506040513d601f19601f820116820180604052508101906152699190615e8e565b1461527a576151e5600a6013612f36565b866001600160a01b0316866001600160a01b031614156152a0576151e560066019612f36565b846152b1576151e560076017612f36565b6000198514156152c7576151e560076016612f36565b6000806152d5898989613af7565b9092509050811561530a576152fc8260118111156152f5576152f5615edc565b601a612f36565b6000945094505050506155f4565b60065460405163c488847b60e01b815260009182916001600160a01b039091169063c488847b906153439030908c9088906004016160a0565b6040805180830381865afa15801561535f573d6000803e3d6000fd5b505050506040513d601f19601f8201168201806040525081019061538391906160e3565b909250905081156153f25760405162461bcd60e51b815260206004820152603360248201527f4c49515549444154455f434f4d5054524f4c4c45525f43414c43554c4154455f604482015272105353d5539517d4d152569157d19052531151606a1b6064820152608401610d91565b6040516370a0823160e01b81526001600160a01b038b811660048301528291908a16906370a0823190602401602060405180830381865afa15801561543b573d6000803e3d6000fd5b505050506040513d601f19601f8201168201806040525081019061545f9190615e8e565b10156154ad5760405162461bcd60e51b815260206004820152601860248201527f4c49515549444154455f5345495a455f544f4f5f4d55434800000000000000006044820152606401610d91565b60006001600160a01b0389163014156154d3576154cc308d8d85613483565b9050615549565b60405163b2a02ff160e01b81526001600160a01b038a169063b2a02ff190615503908f908f9087906004016160a0565b6020604051808303816000875af1158015615522573d6000803e3d6000fd5b505050506040513d601f19601f820116820180604052508101906155469190615e8e565b90505b801561558e5760405162461bcd60e51b81526020600482015260146024820152731d1bdad95b881cd95a5e9d5c994819985a5b195960621b6044820152606401610d91565b604080516001600160a01b038e811682528d811660208301528183018790528b1660608201526080810184905290517f298637f684da70674f26509b10f07ec2fbc77a335ab1e7d6215a4b2484d8bb529181900360a00190a16000975092955050505050505b94509492505050565b6016546040516323b872dd60e01b81526000916001600160a01b0316906323b872dd90615632908690309087906004016160a0565b6020604051808303816000875af1158015615651573d6000803e3d6000fd5b505050506040513d601f19601f820116820180604052508101906156759190615f22565b6156aa5760405162461bcd60e51b8152600401610d91906020808252600490820152631cd95b9960e21b604082015260600190565b610daf82612ebd565b600081848411156156d75760405162461bcd60e51b8152600401610d919190615b07565b506113f18385616067565b600080600080612de78686615734565b6000611acf83836040518060400160405280601781526020017f6d756c7469706c69636174696f6e206f766572666c6f770000000000000000008152506157a7565b600061574c6040518060200160405280600081525090565b600080615761670de0b6b3a7640000876148b7565b9092509050600082600381111561577a5761577a615edc565b1461579957506040805160208101909152600081529092509050612e23565b612e1c818660000151613f63565b60008315806157b4575082155b156157c157506000611acf565b60006157cd84866160c4565b9050836157da868361607e565b1483906112d95760405162461bcd60e51b8152600401610d919190615b07565b82805461580690615ea7565b90600052602060002090601f016020900481019282615828576000855561586e565b82601f1061584157805160ff191683800117855561586e565b8280016001018555821561586e579182015b8281111561586e578251825591602001919060010190615853565b506118049291506158ee565b82805461588690615ea7565b90600052602060002090601f0160209004810192826158a8576000855561586e565b82601f106158c15782800160ff1982351617855561586e565b8280016001018555821561586e579182015b8281111561586e5782358255916020019190600101906158d3565b5b8082111561180457600081556001016158ef565b6001600160a01b03811681146121bb57600080fd5b803561592381615903565b919050565b634e487b7160e01b600052604160045260246000fd5b604051601f8201601f1916810167ffffffffffffffff8111828210171561596757615967615928565b604052919050565b600067ffffffffffffffff82111561598957615989615928565b50601f01601f191660200190565b600082601f8301126159a857600080fd5b81356159bb6159b68261596f565b61593e565b8181528460208386010111156159d057600080fd5b816020850160208301376000918101602001919091529392505050565b600080600080600080600080610100898b031215615a0a57600080fd5b8835615a1581615903565b97506020890135615a2581615903565b96506040890135615a3581615903565b95506060890135615a4581615903565b9450608089013567ffffffffffffffff80821115615a6257600080fd5b615a6e8c838d01615997565b955060a08b0135915080821115615a8457600080fd5b50615a918b828c01615997565b93505060c0890135915060e089013590509295985092959890939650565b60005b83811015615aca578181015183820152602001615ab2565b838111156114865750506000910152565b60008151808452615af3816020860160208601615aaf565b601f01601f19169290920160200192915050565b602081526000611acf6020830184615adb565b60008060408385031215615b2d57600080fd5b8235615b3881615903565b946020939093013593505050565b600060208284031215615b5857600080fd5b5035919050565b600060208284031215615b7157600080fd5b8135611acf81615903565b60ff811681146121bb57600080fd5b803561592381615b7c565b60008060008060008060008060006101208a8c031215615bb557600080fd5b8935615bc081615903565b985060208a0135615bd081615903565b9750615bde60408b01615918565b965060608a0135955060808a013567ffffffffffffffff80821115615c0257600080fd5b615c0e8d838e01615997565b965060a08c0135915080821115615c2457600080fd5b50615c318c828d01615997565b945050615c4060c08b01615b8b565b925060e08a013591506101008a013590509295985092959850929598565b600080600060608486031215615c7357600080fd5b8335615c7e81615903565b92506020840135615c8e81615903565b929592945050506040919091013590565b60008083601f840112615cb157600080fd5b50813567ffffffffffffffff811115615cc957600080fd5b602083019150836020828501011115612e2357600080fd5b60008060008060408587031215615cf757600080fd5b843567ffffffffffffffff80821115615d0f57600080fd5b615d1b88838901615c9f565b90965094506020870135915080821115615d3457600080fd5b50615d4187828801615c9f565b95989497509550505050565b80151581146121bb57600080fd5b60008060008060608587031215615d7157600080fd5b8435615d7c81615903565b93506020850135615d8c81615d4d565b9250604085013567ffffffffffffffff811115615da857600080fd5b615d4187828801615c9f565b60008060208385031215615dc757600080fd5b823567ffffffffffffffff811115615dde57600080fd5b615dea85828601615c9f565b90969095509350505050565b60008060408385031215615e0957600080fd5b8235615e1481615903565b91506020830135615e2481615903565b809150509250929050565b600080600060608486031215615e4457600080fd5b8335615e4f81615903565b9250602084013591506040840135615e6681615903565b809150509250925092565b600060208284031215615e8357600080fd5b8151611acf81615b7c565b600060208284031215615ea057600080fd5b5051919050565b600181811c90821680615ebb57607f821691505b60208210811415610daf57634e487b7160e01b600052602260045260246000fd5b634e487b7160e01b600052602160045260246000fd5b6020808252601690820152751858d8dc9d59481a5b9d195c995cdd0819985a5b195960521b604082015260600190565b600060208284031215615f3457600080fd5b8151611acf81615d4d565b600080600060608486031215615f5457600080fd5b8351615f5f81615903565b6020850151909350615f7081615d4d565b604085015190925067ffffffffffffffff811115615f8d57600080fd5b8401601f81018613615f9e57600080fd5b8051615fac6159b68261596f565b818152876020838501011115615fc157600080fd5b615fd2826020830160208601615aaf565b8093505050509250925092565b634e487b7160e01b600052601160045260246000fd5b6000821982111561600857616008615fdf565b500190565b6000825161601f818460208701615aaf565b9190910192915050565b60006020828403121561603b57600080fd5b8151611acf81615903565b6001600160a01b039390931683526020830191909152604082015260600190565b60008282101561607957616079615fdf565b500390565b60008261609b57634e487b7160e01b600052601260045260246000fd5b500490565b6001600160a01b039384168152919092166020820152604081019190915260600190565b60008160001904831182151516156160de576160de615fdf565b500290565b600080604083850312156160f657600080fd5b50508051602090910151909290915056feddf252ad1be2c89b69c2b068fc378daa952ba7f163c4a11628f55a4df523b3efa164736f6c634300080a000a",
    "linkReferences": {}
  },
  "methodIdentifiers": {
    "PRECISION()": "aaf5eb68",
    "_becomeImplementation(bytes)": "56e67728",
    "_delegateCompLikeTo(address)": "7f1e06be",
    "_prepare()": "1db78944",
    "_reduceReserves(uint256)": "601a0bf1",
    "_setAdminFee(uint256)": "91dd36c6",
    "_setImplementationSafe(address,bool,bytes)": "50d85b73",
    "_setInterestRateModel(address)": "f2b3abbd",
    "_setNameAndSymbol(string,string)": "34154d4c",
    "_setReserveFactor(uint256)": "fca7820b",
    "_withdrawAdminFees(uint256)": "a7b820df",
    "_withdrawFuseFees(uint256)": "a03dce8d",
    "accrualBlockNumber()": "6c540baf",
    "accrueInterest()": "a6afed95",
    "adminFeeMantissa()": "8d02d9a1",
    "allowance(address,address)": "dd62ed3e",
    "approve(address,address)": "7e5465ba",
    "approve(address,uint256)": "095ea7b3",
    "balanceOf(address)": "70a08231",
    "balanceOfUnderlying(address)": "3af9e669",
    "borrow(uint256)": "c5ebeaec",
    "borrowBalanceCurrent(address)": "17bfdfbc",
    "borrowBalanceStored(address)": "95dd9193",
    "borrowIndex()": "aa5af0fd",
    "borrowRatePerBlock()": "f8f9da28",
    "claim()": "4e71d92d",
    "comptroller()": "5fe3b567",
    "decimals()": "313ce567",
    "exchangeRateCurrent()": "bd6d894d",
    "exchangeRateStored()": "182df0f5",
    "feeSeizeShareMantissa()": "be99f119",
    "fuseAdmin()": "15761d51",
    "fuseFeeMantissa()": "dbfe7c19",
    "getAccountSnapshot(address)": "c37f68e2",
    "getCash()": "3b1d21a2",
    "implementation()": "5c60da1b",
    "initialize(address,address,address,address,string,string,uint256,uint256)": "06db3ecd",
    "initialize(address,address,address,uint256,string,string,uint8,uint256,uint256)": "219ef65c",
    "interestRateModel()": "f3fdb15a",
    "isCEther()": "ac784ddc",
    "isCToken()": "fe9c44ae",
    "liquidateBorrow(address,uint256,address)": "f5e3c462",
    "mint(uint256)": "a0712d68",
    "name()": "06fdde03",
    "plugin()": "ef01df4f",
    "protocolSeizeShareMantissa()": "6752e702",
    "redeem(uint256)": "db006a75",
    "redeemUnderlying(uint256)": "852a12e3",
    "repayBorrow(uint256)": "0e752702",
    "repayBorrowBehalf(address,uint256)": "2608f818",
    "reserveFactorMantissa()": "173b9904",
    "seize(address,address,uint256)": "b2a02ff1",
    "supplyRatePerBlock()": "ae9d70b0",
    "symbol()": "95d89b41",
    "totalAdminFees()": "61feacff",
    "totalBorrows()": "47bd3718",
    "totalBorrowsCurrent()": "73acee98",
    "totalFuseFees()": "dc028ab1",
    "totalReserves()": "8f840ddd",
    "totalSupply()": "18160ddd",
    "transfer(address,uint256)": "a9059cbb",
    "transferFrom(address,address,uint256)": "23b872dd",
    "underlying()": "6f307dc3"
  },
  "id": 12
}