{
  "address": "0x659A923259cAF09aceFd258E57EaCAAFD422e8cd",
  "abi": [
    {
      "anonymous": false,
      "inputs": [
        {
          "indexed": true,
          "internalType": "address",
          "name": "previousOwner",
          "type": "address"
        },
        {
          "indexed": true,
          "internalType": "address",
          "name": "newOwner",
          "type": "address"
        }
      ],
      "name": "OwnershipTransferred",
      "type": "event"
    },
    {
      "inputs": [
        {
          "internalType": "contract ICToken",
          "name": "cToken",
          "type": "address"
        }
      ],
      "name": "getUnderlyingPrice",
      "outputs": [
        {
          "internalType": "uint256",
          "name": "",
          "type": "uint256"
        }
      ],
      "stateMutability": "view",
      "type": "function"
    },
    {
      "inputs": [
        {
          "internalType": "address[]",
          "name": "_lpTokens",
          "type": "address[]"
        },
        {
          "internalType": "address[]",
          "name": "_pools",
          "type": "address[]"
        },
        {
          "internalType": "address[][]",
          "name": "_poolUnderlyings",
          "type": "address[][]"
        }
      ],
      "name": "initialize",
      "outputs": [],
      "stateMutability": "nonpayable",
      "type": "function"
    },
    {
      "inputs": [],
      "name": "owner",
      "outputs": [
        {
          "internalType": "address",
          "name": "",
          "type": "address"
        }
      ],
      "stateMutability": "view",
      "type": "function"
    },
    {
      "inputs": [
        {
          "internalType": "address",
          "name": "",
          "type": "address"
        }
      ],
      "name": "poolOf",
      "outputs": [
        {
          "internalType": "address",
          "name": "",
          "type": "address"
        }
      ],
      "stateMutability": "view",
      "type": "function"
    },
    {
      "inputs": [
        {
          "internalType": "address",
          "name": "underlying",
          "type": "address"
        }
      ],
      "name": "price",
      "outputs": [
        {
          "internalType": "uint256",
          "name": "",
          "type": "uint256"
        }
      ],
      "stateMutability": "view",
      "type": "function"
    },
    {
      "inputs": [
        {
          "internalType": "address",
          "name": "_lpToken",
          "type": "address"
        },
        {
          "internalType": "address",
          "name": "_pool",
          "type": "address"
        },
        {
          "internalType": "address[]",
          "name": "_underlyings",
          "type": "address[]"
        }
      ],
      "name": "registerPool",
      "outputs": [],
      "stateMutability": "nonpayable",
      "type": "function"
    },
    {
      "inputs": [],
      "name": "renounceOwnership",
      "outputs": [],
      "stateMutability": "nonpayable",
      "type": "function"
    },
    {
      "inputs": [
        {
          "internalType": "address",
          "name": "newOwner",
          "type": "address"
        }
      ],
      "name": "transferOwnership",
      "outputs": [],
      "stateMutability": "nonpayable",
      "type": "function"
    },
    {
      "inputs": [
        {
          "internalType": "address",
          "name": "",
          "type": "address"
        },
        {
          "internalType": "uint256",
          "name": "",
          "type": "uint256"
        }
      ],
      "name": "underlyingTokens",
      "outputs": [
        {
          "internalType": "address",
          "name": "",
          "type": "address"
        }
      ],
      "stateMutability": "view",
      "type": "function"
    }
  ],
  "transactionHash": "0x728de0e657f08433c9c0bdce6ed8d4e561dafc36ce712bf61ba660d2a3e4e300",
  "args": [],
  "numDeployments": 2,
  "solcInputHash": "ef279da460d9cdb92d75f348cff1bd5e",
  "bytecode": "0x608060405234801561001057600080fd5b50610f57806100206000396000f3fe608060405234801561001057600080fd5b50600436106100935760003560e01c8063904d4d7511610066578063904d4d75146100f6578063988b1fa714610109578063aea9107814610132578063f2fde38b14610153578063fc57d4df1461016657600080fd5b806301eadec41461009857806327a3c201146100c8578063715018a6146100dd5780638da5cb5b146100e5575b600080fd5b6100ab6100a6366004610a4e565b610179565b6040516001600160a01b0390911681526020015b60405180910390f35b6100db6100d6366004610b59565b6101b1565b005b6100db610381565b6033546001600160a01b03166100ab565b6100db610104366004610c51565b6103b7565b6100ab610117366004610cb3565b6066602052600090815260409020546001600160a01b031681565b610145610140366004610cb3565b6104a4565b6040519081526020016100bf565b6100db610161366004610cb3565b6104b5565b610145610174366004610cb3565b610550565b6065602052816000526040600020818154811061019557600080fd5b6000918252602090912001546001600160a01b03169150829050565b600054610100900460ff166101cc5760005460ff16156101d0565b303b155b6102385760405162461bcd60e51b815260206004820152602e60248201527f496e697469616c697a61626c653a20636f6e747261637420697320616c72656160448201526d191e481a5b9a5d1a585b1a5e995960921b60648201526084015b60405180910390fd5b600054610100900460ff1615801561025a576000805461ffff19166101011790555b610262610653565b60005b84518110156103685783818151811061028057610280610cd0565b60200260200101516066600087848151811061029e5761029e610cd0565b60200260200101516001600160a01b03166001600160a01b0316815260200190815260200160002060006101000a8154816001600160a01b0302191690836001600160a01b031602179055508281815181106102fc576102fc610cd0565b60200260200101516065600087848151811061031a5761031a610cd0565b60200260200101516001600160a01b03166001600160a01b0316815260200190815260200160002090805190602001906103559291906109bf565b508061036081610cfc565b915050610265565b50801561037b576000805461ff00191690555b50505050565b6033546001600160a01b031633146103ab5760405162461bcd60e51b815260040161022f90610d17565b6103b5600061068a565b565b6033546001600160a01b031633146103e15760405162461bcd60e51b815260040161022f90610d17565b6001600160a01b038084166000908152606660205260409020541680156104565760405162461bcd60e51b8152602060048201526024808201527f54686973204c5020746f6b656e20697320616c726561647920726567697374656044820152633932b21760e11b606482015260840161022f565b6001600160a01b03848116600090815260666020908152604080832080546001600160a01b0319169488169490941790935560658152919020835161049d928501906109bf565b5050505050565b60006104af826106dc565b92915050565b6033546001600160a01b031633146104df5760405162461bcd60e51b815260040161022f90610d17565b6001600160a01b0381166105445760405162461bcd60e51b815260206004820152602660248201527f4f776e61626c653a206e6577206f776e657220697320746865207a65726f206160448201526564647265737360d01b606482015260840161022f565b61054d8161068a565b50565b600080826001600160a01b0316636f307dc36040518163ffffffff1660e01b8152600401602060405180830381865afa158015610591573d6000803e3d6000fd5b505050506040513d601f19601f820116820180604052508101906105b59190610d4c565b9050806001600160a01b031663313ce5676040518163ffffffff1660e01b8152600401602060405180830381865afa1580156105f5573d6000803e3d6000fd5b505050506040513d601f19601f820116820180604052508101906106199190610d69565b6106279060ff16600a610e70565b610630826106dc565b61064290670de0b6b3a7640000610e7c565b61064c9190610e9b565b9392505050565b600054610100900460ff1661067a5760405162461bcd60e51b815260040161022f90610ebd565b610682610968565b6103b561098f565b603380546001600160a01b038381166001600160a01b0319831681179093556040519116919082907f8be0079c531659141344cd1fd0a4f28419497f9722a3daafe3b4186f6b6457e090600090a35050565b6001600160a01b03808216600090815260666020526040812054909116806107465760405162461bcd60e51b815260206004820152601b60248201527f4c5020746f6b656e206973206e6f7420726567697374657265642e0000000000604482015260640161022f565b6001600160a01b0383166000908152606560209081526040808320805482518185028101850190935280835291929091908301828280156107b057602002820191906000526020600020905b81546001600160a01b03168152600190910190602001808311610792575b5050835193945060001993925060009150505b8181101561087b5760008482815181106107df576107df610cd0565b60209081029190910101516040516315d5220f60e31b81526001600160a01b0382166004820152909150600090339063aea9107890602401602060405180830381865afa158015610834573d6000803e3d6000fd5b505050506040513d601f19601f820116820180604052508101906108589190610f08565b905084811015610866578094505b5050808061087390610cfc565b9150506107c3565b506000198214156108df5760405162461bcd60e51b815260206004820152602860248201527f4e6f206d696e696d756d20756e6465726c79696e6720746f6b656e207072696360448201526732903337bab7321760c11b606482015260840161022f565b670de0b6b3a7640000846001600160a01b031663bb7b8b806040518163ffffffff1660e01b8152600401602060405180830381865afa158015610926573d6000803e3d6000fd5b505050506040513d601f19601f8201168201806040525081019061094a9190610f08565b6109549084610e7c565b61095e9190610e9b565b9695505050505050565b600054610100900460ff166103b55760405162461bcd60e51b815260040161022f90610ebd565b600054610100900460ff166109b65760405162461bcd60e51b815260040161022f90610ebd565b6103b53361068a565b828054828255906000526020600020908101928215610a14579160200282015b82811115610a1457825182546001600160a01b0319166001600160a01b039091161782556020909201916001909101906109df565b50610a20929150610a24565b5090565b5b80821115610a205760008155600101610a25565b6001600160a01b038116811461054d57600080fd5b60008060408385031215610a6157600080fd5b8235610a6c81610a39565b946020939093013593505050565b634e487b7160e01b600052604160045260246000fd5b604051601f8201601f1916810167ffffffffffffffff81118282101715610ab957610ab9610a7a565b604052919050565b600067ffffffffffffffff821115610adb57610adb610a7a565b5060051b60200190565b600082601f830112610af657600080fd5b81356020610b0b610b0683610ac1565b610a90565b82815260059290921b84018101918181019086841115610b2a57600080fd5b8286015b84811015610b4e578035610b4181610a39565b8352918301918301610b2e565b509695505050505050565b600080600060608486031215610b6e57600080fd5b833567ffffffffffffffff80821115610b8657600080fd5b610b9287838801610ae5565b9450602091508186013581811115610ba957600080fd5b610bb588828901610ae5565b945050604086013581811115610bca57600080fd5b8601601f81018813610bdb57600080fd5b8035610be9610b0682610ac1565b81815260059190911b8201840190848101908a831115610c0857600080fd5b8584015b83811015610c4057803586811115610c245760008081fd5b610c328d8983890101610ae5565b845250918601918601610c0c565b508096505050505050509250925092565b600080600060608486031215610c6657600080fd5b8335610c7181610a39565b92506020840135610c8181610a39565b9150604084013567ffffffffffffffff811115610c9d57600080fd5b610ca986828701610ae5565b9150509250925092565b600060208284031215610cc557600080fd5b813561064c81610a39565b634e487b7160e01b600052603260045260246000fd5b634e487b7160e01b600052601160045260246000fd5b6000600019821415610d1057610d10610ce6565b5060010190565b6020808252818101527f4f776e61626c653a2063616c6c6572206973206e6f7420746865206f776e6572604082015260600190565b600060208284031215610d5e57600080fd5b815161064c81610a39565b600060208284031215610d7b57600080fd5b815160ff8116811461064c57600080fd5b600181815b80851115610dc7578160001904821115610dad57610dad610ce6565b80851615610dba57918102915b93841c9390800290610d91565b509250929050565b600082610dde575060016104af565b81610deb575060006104af565b8160018114610e015760028114610e0b57610e27565b60019150506104af565b60ff841115610e1c57610e1c610ce6565b50506001821b6104af565b5060208310610133831016604e8410600b8410161715610e4a575081810a6104af565b610e548383610d8c565b8060001904821115610e6857610e68610ce6565b029392505050565b600061064c8383610dcf565b6000816000190483118215151615610e9657610e96610ce6565b500290565b600082610eb857634e487b7160e01b600052601260045260246000fd5b500490565b6020808252602b908201527f496e697469616c697a61626c653a20636f6e7472616374206973206e6f74206960408201526a6e697469616c697a696e6760a81b606082015260800190565b600060208284031215610f1a57600080fd5b505191905056fea2646970667358221220ab26062d98279d14ab13139c4109f66b209949afd4c902c21b80e47092b91de964736f6c634300080b0033",
  "devdoc": {
    "author": "David Lucid <david@rari.capital> (https://github.com/davidlucid)",
    "details": "Implements the `PriceOracle` interface used by Fuse pools (and Compound v2).",
    "kind": "dev",
    "methods": {
      "getUnderlyingPrice(address)": {
        "details": "Implements the `PriceOracle` interface for Fuse pools (and Compound v2).",
        "returns": {
          "_0": "Price in ETH of the token underlying `cToken`, scaled by `10 ** (36 - underlyingDecimals)`."
        }
      },
      "initialize(address[],address[],address[][])": {
        "details": "Initializes an array of LP tokens and pools if desired.",
        "params": {
          "_lpTokens": "Array of LP token addresses.",
          "_pools": "Array of pool addresses."
        }
      },
      "owner()": {
        "details": "Returns the address of the current owner."
      },
      "price(address)": {
        "params": {
          "underlying": "The underlying token address for which to get the price (set to zero address for ETH)."
        },
        "returns": {
          "_0": "Price denominated in ETH (scaled by 1e18)."
        }
      },
      "registerPool(address,address,address[])": {
        "details": "Register the pool given LP token address and set the pool info.",
        "params": {
          "_lpToken": "LP token to find the corresponding pool.",
          "_pool": "Pool address.",
          "_underlyings": "Underlying addresses."
        }
      },
      "renounceOwnership()": {
        "details": "Leaves the contract without owner. It will not be possible to call `onlyOwner` functions anymore. Can only be called by the current owner. NOTE: Renouncing ownership will leave the contract without an owner, thereby removing any functionality that is only available to the owner."
      },
      "transferOwnership(address)": {
        "details": "Transfers ownership of the contract to a new account (`newOwner`). Can only be called by the current owner."
      }
    },
    "stateVariables": {
      "poolOf": {
        "details": "Maps Curve LP token addresses to pool addresses."
      },
      "underlyingTokens": {
        "details": "Maps Curve LP token addresses to underlying token addresses."
      }
    },
    "title": "CurveLpTokenPriceOracle",
    "version": 1
  },
  "userdoc": {
    "kind": "user",
    "methods": {
      "getUnderlyingPrice(address)": {
        "notice": "Returns the price in ETH of the token underlying `cToken`."
      },
      "price(address)": {
        "notice": "Get the LP token price price for an underlying token address."
      }
    },
    "notice": "CurveLpTokenPriceOracle is a price oracle for Curve LP tokens (using the sender as a root oracle).",
    "version": 1
  },
  "storageLayout": {
    "storage": [
      {
        "astId": 212,
        "contract": "contracts/oracles/default/CurveLpTokenPriceOracleNoRegistry.sol:CurveLpTokenPriceOracleNoRegistry",
        "label": "_initialized",
        "offset": 0,
        "slot": "0",
        "type": "t_bool"
      },
      {
        "astId": 215,
        "contract": "contracts/oracles/default/CurveLpTokenPriceOracleNoRegistry.sol:CurveLpTokenPriceOracleNoRegistry",
        "label": "_initializing",
        "offset": 1,
        "slot": "0",
        "type": "t_bool"
      },
      {
        "astId": 1467,
        "contract": "contracts/oracles/default/CurveLpTokenPriceOracleNoRegistry.sol:CurveLpTokenPriceOracleNoRegistry",
        "label": "__gap",
        "offset": 0,
        "slot": "1",
        "type": "t_array(t_uint256)50_storage"
      },
      {
        "astId": 10,
        "contract": "contracts/oracles/default/CurveLpTokenPriceOracleNoRegistry.sol:CurveLpTokenPriceOracleNoRegistry",
        "label": "_owner",
        "offset": 0,
        "slot": "51",
        "type": "t_address"
      },
      {
        "astId": 124,
        "contract": "contracts/oracles/default/CurveLpTokenPriceOracleNoRegistry.sol:CurveLpTokenPriceOracleNoRegistry",
        "label": "__gap",
        "offset": 0,
        "slot": "52",
        "type": "t_array(t_uint256)49_storage"
      },
      {
        "astId": 40235,
        "contract": "contracts/oracles/default/CurveLpTokenPriceOracleNoRegistry.sol:CurveLpTokenPriceOracleNoRegistry",
        "label": "underlyingTokens",
        "offset": 0,
        "slot": "101",
        "type": "t_mapping(t_address,t_array(t_address)dyn_storage)"
      },
      {
        "astId": 40240,
        "contract": "contracts/oracles/default/CurveLpTokenPriceOracleNoRegistry.sol:CurveLpTokenPriceOracleNoRegistry",
        "label": "poolOf",
        "offset": 0,
        "slot": "102",
        "type": "t_mapping(t_address,t_address)"
      }
    ],
    "types": {
      "t_address": {
        "encoding": "inplace",
        "label": "address",
        "numberOfBytes": "20"
      },
      "t_array(t_address)dyn_storage": {
        "base": "t_address",
        "encoding": "dynamic_array",
        "label": "address[]",
        "numberOfBytes": "32"
      },
      "t_array(t_uint256)49_storage": {
        "base": "t_uint256",
        "encoding": "inplace",
        "label": "uint256[49]",
        "numberOfBytes": "1568"
      },
      "t_array(t_uint256)50_storage": {
        "base": "t_uint256",
        "encoding": "inplace",
        "label": "uint256[50]",
        "numberOfBytes": "1600"
      },
      "t_bool": {
        "encoding": "inplace",
        "label": "bool",
        "numberOfBytes": "1"
      },
      "t_mapping(t_address,t_address)": {
        "encoding": "mapping",
        "key": "t_address",
        "label": "mapping(address => address)",
        "numberOfBytes": "32",
        "value": "t_address"
      },
      "t_mapping(t_address,t_array(t_address)dyn_storage)": {
        "encoding": "mapping",
        "key": "t_address",
        "label": "mapping(address => address[])",
        "numberOfBytes": "32",
        "value": "t_array(t_address)dyn_storage"
      },
      "t_uint256": {
        "encoding": "inplace",
        "label": "uint256",
        "numberOfBytes": "32"
      }
    }
  }
}