{
  "abi": [
    {
      "anonymous": false,
      "inputs": [
        {
          "indexed": false,
          "internalType": "uint8",
          "name": "version",
          "type": "uint8"
        }
      ],
      "name": "Initialized",
      "type": "event"
    },
    {
      "anonymous": false,
      "inputs": [
        {
          "indexed": true,
          "internalType": "address",
          "name": "previousOwner",
          "type": "address"
        },
        {
          "indexed": true,
          "internalType": "address",
          "name": "newOwner",
          "type": "address"
        }
      ],
      "name": "OwnershipTransferred",
      "type": "event"
    },
    {
      "inputs": [
        {
          "internalType": "contract ICToken",
          "name": "cToken",
          "type": "address"
        }
      ],
      "name": "getUnderlyingPrice",
      "outputs": [
        {
          "internalType": "uint256",
          "name": "",
          "type": "uint256"
        }
      ],
      "stateMutability": "view",
      "type": "function"
    },
    {
      "inputs": [
        {
          "internalType": "address[]",
          "name": "_lpTokens",
          "type": "address[]"
        },
        {
          "internalType": "address[]",
          "name": "_pools",
          "type": "address[]"
        },
        {
          "internalType": "address[][]",
          "name": "_poolUnderlyings",
          "type": "address[][]"
        }
      ],
      "name": "initialize",
      "outputs": [],
      "stateMutability": "nonpayable",
      "type": "function"
    },
    {
      "inputs": [],
      "name": "owner",
      "outputs": [
        {
          "internalType": "address",
          "name": "",
          "type": "address"
        }
      ],
      "stateMutability": "view",
      "type": "function"
    },
    {
      "inputs": [
        {
          "internalType": "address",
          "name": "",
          "type": "address"
        }
      ],
      "name": "poolOf",
      "outputs": [
        {
          "internalType": "address",
          "name": "",
          "type": "address"
        }
      ],
      "stateMutability": "view",
      "type": "function"
    },
    {
      "inputs": [
        {
          "internalType": "address",
          "name": "underlying",
          "type": "address"
        }
      ],
      "name": "price",
      "outputs": [
        {
          "internalType": "uint256",
          "name": "",
          "type": "uint256"
        }
      ],
      "stateMutability": "view",
      "type": "function"
    },
    {
      "inputs": [
        {
          "internalType": "address",
          "name": "_lpToken",
          "type": "address"
        },
        {
          "internalType": "address",
          "name": "_pool",
          "type": "address"
        },
        {
          "internalType": "address[]",
          "name": "_underlyings",
          "type": "address[]"
        }
      ],
      "name": "registerPool",
      "outputs": [],
      "stateMutability": "nonpayable",
      "type": "function"
    },
    {
      "inputs": [],
      "name": "renounceOwnership",
      "outputs": [],
      "stateMutability": "nonpayable",
      "type": "function"
    },
    {
      "inputs": [
        {
          "internalType": "address",
          "name": "newOwner",
          "type": "address"
        }
      ],
      "name": "transferOwnership",
      "outputs": [],
      "stateMutability": "nonpayable",
      "type": "function"
    },
    {
      "inputs": [
        {
          "internalType": "address",
          "name": "",
          "type": "address"
        },
        {
          "internalType": "uint256",
          "name": "",
          "type": "uint256"
        }
      ],
      "name": "underlyingTokens",
      "outputs": [
        {
          "internalType": "address",
          "name": "",
          "type": "address"
        }
      ],
      "stateMutability": "view",
      "type": "function"
    }
  ],
  "bytecode": {
    "object": "0x608060405234801561001057600080fd5b50610fb6806100206000396000f3fe608060405234801561001057600080fd5b50600436106100935760003560e01c8063904d4d7511610066578063904d4d75146100f6578063988b1fa714610109578063aea9107814610132578063f2fde38b14610153578063fc57d4df1461016657600080fd5b806301eadec41461009857806327a3c201146100c8578063715018a6146100dd5780638da5cb5b146100e5575b600080fd5b6100ab6100a6366004610a5f565b610179565b6040516001600160a01b0390911681526020015b60405180910390f35b6100db6100d6366004610b6a565b6101b1565b005b6100db610330565b6033546001600160a01b03166100ab565b6100db610104366004610c62565b61036f565b6100ab610117366004610cc4565b6066602052600090815260409020546001600160a01b031681565b610145610140366004610cc4565b61045c565b6040519081526020016100bf565b6100db610161366004610cc4565b61046d565b610145610174366004610cc4565b610508565b6065602052816000526040600020818154811061019557600080fd5b6000918252602090912001546001600160a01b03169150829050565b60006101bd600161060b565b905080156101d5576000805461ff0019166101001790555b6101dd610693565b60005b84518110156102e3578381815181106101fb576101fb610ce1565b60200260200101516066600087848151811061021957610219610ce1565b60200260200101516001600160a01b03166001600160a01b0316815260200190815260200160002060006101000a8154816001600160a01b0302191690836001600160a01b0316021790555082818151811061027757610277610ce1565b60200260200101516065600087848151811061029557610295610ce1565b60200260200101516001600160a01b03166001600160a01b0316815260200190815260200160002090805190602001906102d09291906109d0565b50806102db81610d0d565b9150506101e0565b50801561032a576000805461ff0019169055604051600181527f7f26b83ff96e1f2b6a682f133852f6798a09c465da95921460cefb38474024989060200160405180910390a15b50505050565b6033546001600160a01b031633146103635760405162461bcd60e51b815260040161035a90610d28565b60405180910390fd5b61036d60006106c2565b565b6033546001600160a01b031633146103995760405162461bcd60e51b815260040161035a90610d28565b6001600160a01b0380841660009081526066602052604090205416801561040e5760405162461bcd60e51b8152602060048201526024808201527f54686973204c5020746f6b656e20697320616c726561647920726567697374656044820152633932b21760e11b606482015260840161035a565b6001600160a01b03848116600090815260666020908152604080832080546001600160a01b03191694881694909417909355606581529190208351610455928501906109d0565b5050505050565b600061046782610714565b92915050565b6033546001600160a01b031633146104975760405162461bcd60e51b815260040161035a90610d28565b6001600160a01b0381166104fc5760405162461bcd60e51b815260206004820152602660248201527f4f776e61626c653a206e6577206f776e657220697320746865207a65726f206160448201526564647265737360d01b606482015260840161035a565b610505816106c2565b50565b600080826001600160a01b0316636f307dc36040518163ffffffff1660e01b8152600401602060405180830381865afa158015610549573d6000803e3d6000fd5b505050506040513d601f19601f8201168201806040525081019061056d9190610d5d565b9050806001600160a01b031663313ce5676040518163ffffffff1660e01b8152600401602060405180830381865afa1580156105ad573d6000803e3d6000fd5b505050506040513d601f19601f820116820180604052508101906105d19190610d7a565b6105df9060ff16600a610e81565b6105e882610714565b6105fa90670de0b6b3a7640000610e8d565b6106049190610eac565b9392505050565b60008054610100900460ff1615610652578160ff16600114801561062e5750303b155b61064a5760405162461bcd60e51b815260040161035a90610ece565b506000919050565b60005460ff8084169116106106795760405162461bcd60e51b815260040161035a90610ece565b506000805460ff191660ff92909216919091179055600190565b600054610100900460ff166106ba5760405162461bcd60e51b815260040161035a90610f1c565b61036d6109a0565b603380546001600160a01b038381166001600160a01b0319831681179093556040519116919082907f8be0079c531659141344cd1fd0a4f28419497f9722a3daafe3b4186f6b6457e090600090a35050565b6001600160a01b038082166000908152606660205260408120549091168061077e5760405162461bcd60e51b815260206004820152601b60248201527f4c5020746f6b656e206973206e6f7420726567697374657265642e0000000000604482015260640161035a565b6001600160a01b0383166000908152606560209081526040808320805482518185028101850190935280835291929091908301828280156107e857602002820191906000526020600020905b81546001600160a01b031681526001909101906020018083116107ca575b5050835193945060001993925060009150505b818110156108b357600084828151811061081757610817610ce1565b60209081029190910101516040516315d5220f60e31b81526001600160a01b0382166004820152909150600090339063aea9107890602401602060405180830381865afa15801561086c573d6000803e3d6000fd5b505050506040513d601f19601f820116820180604052508101906108909190610f67565b90508481101561089e578094505b505080806108ab90610d0d565b9150506107fb565b506000198214156109175760405162461bcd60e51b815260206004820152602860248201527f4e6f206d696e696d756d20756e6465726c79696e6720746f6b656e207072696360448201526732903337bab7321760c11b606482015260840161035a565b670de0b6b3a7640000846001600160a01b031663bb7b8b806040518163ffffffff1660e01b8152600401602060405180830381865afa15801561095e573d6000803e3d6000fd5b505050506040513d601f19601f820116820180604052508101906109829190610f67565b61098c9084610e8d565b6109969190610eac565b9695505050505050565b600054610100900460ff166109c75760405162461bcd60e51b815260040161035a90610f1c565b61036d336106c2565b828054828255906000526020600020908101928215610a25579160200282015b82811115610a2557825182546001600160a01b0319166001600160a01b039091161782556020909201916001909101906109f0565b50610a31929150610a35565b5090565b5b80821115610a315760008155600101610a36565b6001600160a01b038116811461050557600080fd5b60008060408385031215610a7257600080fd5b8235610a7d81610a4a565b946020939093013593505050565b634e487b7160e01b600052604160045260246000fd5b604051601f8201601f1916810167ffffffffffffffff81118282101715610aca57610aca610a8b565b604052919050565b600067ffffffffffffffff821115610aec57610aec610a8b565b5060051b60200190565b600082601f830112610b0757600080fd5b81356020610b1c610b1783610ad2565b610aa1565b82815260059290921b84018101918181019086841115610b3b57600080fd5b8286015b84811015610b5f578035610b5281610a4a565b8352918301918301610b3f565b509695505050505050565b600080600060608486031215610b7f57600080fd5b833567ffffffffffffffff80821115610b9757600080fd5b610ba387838801610af6565b9450602091508186013581811115610bba57600080fd5b610bc688828901610af6565b945050604086013581811115610bdb57600080fd5b8601601f81018813610bec57600080fd5b8035610bfa610b1782610ad2565b81815260059190911b8201840190848101908a831115610c1957600080fd5b8584015b83811015610c5157803586811115610c355760008081fd5b610c438d8983890101610af6565b845250918601918601610c1d565b508096505050505050509250925092565b600080600060608486031215610c7757600080fd5b8335610c8281610a4a565b92506020840135610c9281610a4a565b9150604084013567ffffffffffffffff811115610cae57600080fd5b610cba86828701610af6565b9150509250925092565b600060208284031215610cd657600080fd5b813561060481610a4a565b634e487b7160e01b600052603260045260246000fd5b634e487b7160e01b600052601160045260246000fd5b6000600019821415610d2157610d21610cf7565b5060010190565b6020808252818101527f4f776e61626c653a2063616c6c6572206973206e6f7420746865206f776e6572604082015260600190565b600060208284031215610d6f57600080fd5b815161060481610a4a565b600060208284031215610d8c57600080fd5b815160ff8116811461060457600080fd5b600181815b80851115610dd8578160001904821115610dbe57610dbe610cf7565b80851615610dcb57918102915b93841c9390800290610da2565b509250929050565b600082610def57506001610467565b81610dfc57506000610467565b8160018114610e125760028114610e1c57610e38565b6001915050610467565b60ff841115610e2d57610e2d610cf7565b50506001821b610467565b5060208310610133831016604e8410600b8410161715610e5b575081810a610467565b610e658383610d9d565b8060001904821115610e7957610e79610cf7565b029392505050565b60006106048383610de0565b6000816000190483118215151615610ea757610ea7610cf7565b500290565b600082610ec957634e487b7160e01b600052601260045260246000fd5b500490565b6020808252602e908201527f496e697469616c697a61626c653a20636f6e747261637420697320616c72656160408201526d191e481a5b9a5d1a585b1a5e995960921b606082015260800190565b6020808252602b908201527f496e697469616c697a61626c653a20636f6e7472616374206973206e6f74206960408201526a6e697469616c697a696e6760a81b606082015260800190565b600060208284031215610f7957600080fd5b505191905056fea2646970667358221220e770030f867067018877efb41bc0974d99dec908840271016e25ac7e3c3c691d64736f6c634300080a0033",
    "linkReferences": {}
  }
}