{
  "abi": [
    {
      "anonymous": false,
      "inputs": [
        {
          "indexed": false,
          "internalType": "uint256",
          "name": "error",
          "type": "uint256"
        },
        {
          "indexed": false,
          "internalType": "uint256",
          "name": "info",
          "type": "uint256"
        },
        {
          "indexed": false,
          "internalType": "uint256",
          "name": "detail",
          "type": "uint256"
        }
      ],
      "name": "Failure",
      "type": "event"
    },
    {
      "anonymous": false,
      "inputs": [
        {
          "indexed": false,
          "internalType": "uint8",
          "name": "version",
          "type": "uint8"
        }
      ],
      "name": "Initialized",
      "type": "event"
    },
    {
      "anonymous": false,
      "inputs": [
        {
          "indexed": false,
          "internalType": "address",
          "name": "oldAdmin",
          "type": "address"
        },
        {
          "indexed": false,
          "internalType": "address",
          "name": "newAdmin",
          "type": "address"
        }
      ],
      "name": "NewAdmin",
      "type": "event"
    },
    {
      "anonymous": false,
      "inputs": [
        {
          "indexed": false,
          "internalType": "address",
          "name": "oldPendingAdmin",
          "type": "address"
        },
        {
          "indexed": false,
          "internalType": "address",
          "name": "newPendingAdmin",
          "type": "address"
        }
      ],
      "name": "NewPendingAdmin",
      "type": "event"
    },
    {
      "anonymous": false,
      "inputs": [
        {
          "indexed": true,
          "internalType": "address",
          "name": "previousOwner",
          "type": "address"
        },
        {
          "indexed": true,
          "internalType": "address",
          "name": "newOwner",
          "type": "address"
        }
      ],
      "name": "OwnershipTransferred",
      "type": "event"
    },
    {
      "inputs": [],
      "name": "_acceptAdmin",
      "outputs": [
        {
          "internalType": "uint256",
          "name": "",
          "type": "uint256"
        }
      ],
      "stateMutability": "nonpayable",
      "type": "function"
    },
    {
      "inputs": [
        {
          "internalType": "address",
          "name": "newPendingAdmin",
          "type": "address"
        }
      ],
      "name": "_setPendingAdmin",
      "outputs": [
        {
          "internalType": "uint256",
          "name": "",
          "type": "uint256"
        }
      ],
      "stateMutability": "nonpayable",
      "type": "function"
    },
    {
      "inputs": [],
      "name": "admin",
      "outputs": [
        {
          "internalType": "address",
          "name": "",
          "type": "address"
        }
      ],
      "stateMutability": "view",
      "type": "function"
    },
    {
      "inputs": [],
      "name": "adminHasRights",
      "outputs": [
        {
          "internalType": "bool",
          "name": "",
          "type": "bool"
        }
      ],
      "stateMutability": "view",
      "type": "function"
    },
    {
      "inputs": [],
      "name": "comptrollerImplementation",
      "outputs": [
        {
          "internalType": "address",
          "name": "",
          "type": "address"
        }
      ],
      "stateMutability": "view",
      "type": "function"
    },
    {
      "inputs": [],
      "name": "fuseAdmin",
      "outputs": [
        {
          "internalType": "address payable",
          "name": "",
          "type": "address"
        }
      ],
      "stateMutability": "view",
      "type": "function"
    },
    {
      "inputs": [],
      "name": "fuseAdminHasRights",
      "outputs": [
        {
          "internalType": "bool",
          "name": "",
          "type": "bool"
        }
      ],
      "stateMutability": "view",
      "type": "function"
    },
    {
      "inputs": [
        {
          "internalType": "contract ICToken",
          "name": "cToken",
          "type": "address"
        }
      ],
      "name": "getUnderlyingPrice",
      "outputs": [
        {
          "internalType": "uint256",
          "name": "",
          "type": "uint256"
        }
      ],
      "stateMutability": "view",
      "type": "function"
    },
    {
      "inputs": [
        {
          "internalType": "address[]",
          "name": "_lpTokens",
          "type": "address[]"
        },
        {
          "internalType": "address[]",
          "name": "_pools",
          "type": "address[]"
        },
        {
          "internalType": "address[][]",
          "name": "_poolUnderlyings",
          "type": "address[][]"
        }
      ],
      "name": "initialize",
      "outputs": [],
      "stateMutability": "nonpayable",
      "type": "function"
    },
    {
      "inputs": [],
      "name": "owner",
      "outputs": [
        {
          "internalType": "address",
          "name": "",
          "type": "address"
        }
      ],
      "stateMutability": "view",
      "type": "function"
    },
    {
      "inputs": [],
      "name": "pendingAdmin",
      "outputs": [
        {
          "internalType": "address",
          "name": "",
          "type": "address"
        }
      ],
      "stateMutability": "view",
      "type": "function"
    },
    {
      "inputs": [],
      "name": "pendingComptrollerImplementation",
      "outputs": [
        {
          "internalType": "address",
          "name": "",
          "type": "address"
        }
      ],
      "stateMutability": "view",
      "type": "function"
    },
    {
      "inputs": [
        {
          "internalType": "address",
          "name": "",
          "type": "address"
        }
      ],
      "name": "poolOf",
      "outputs": [
        {
          "internalType": "address",
          "name": "",
          "type": "address"
        }
      ],
      "stateMutability": "view",
      "type": "function"
    },
    {
      "inputs": [
        {
          "internalType": "address",
          "name": "underlying",
          "type": "address"
        }
      ],
      "name": "price",
      "outputs": [
        {
          "internalType": "uint256",
          "name": "",
          "type": "uint256"
        }
      ],
      "stateMutability": "view",
      "type": "function"
    },
    {
      "inputs": [
        {
          "internalType": "address",
          "name": "_lpToken",
          "type": "address"
        },
        {
          "internalType": "address",
          "name": "_pool",
          "type": "address"
        },
        {
          "internalType": "address[]",
          "name": "_underlyings",
          "type": "address[]"
        }
      ],
      "name": "registerPool",
      "outputs": [],
      "stateMutability": "nonpayable",
      "type": "function"
    },
    {
      "inputs": [],
      "name": "renounceOwnership",
      "outputs": [],
      "stateMutability": "nonpayable",
      "type": "function"
    },
    {
      "inputs": [
        {
          "internalType": "address",
          "name": "newOwner",
          "type": "address"
        }
      ],
      "name": "transferOwnership",
      "outputs": [],
      "stateMutability": "nonpayable",
      "type": "function"
    },
    {
      "inputs": [
        {
          "internalType": "address",
          "name": "",
          "type": "address"
        },
        {
          "internalType": "uint256",
          "name": "",
          "type": "uint256"
        }
      ],
      "name": "underlyingTokens",
      "outputs": [
        {
          "internalType": "address",
          "name": "",
          "type": "address"
        }
      ],
      "stateMutability": "view",
      "type": "function"
    }
  ],
  "bytecode": {
    "object": "0x60806040526067805461ffff60a01b191661010160a01b17905534801561002557600080fd5b50611371806100356000396000f3fe608060405234801561001057600080fd5b50600436106101165760003560e01c8063988b1fa7116100a2578063dcfbc0c711610071578063dcfbc0c71461025a578063e9c714f21461026d578063f2fde38b14610275578063f851a44014610288578063fc57d4df1461029b57600080fd5b8063988b1fa7146101ea578063aea9107814610213578063b71d1a0c14610234578063bb82aa5e1461024757600080fd5b806327a3c201116100e957806327a3c201146101955780632f1069ba146101aa578063715018a6146101be5780638da5cb5b146101c6578063904d4d75146101d757600080fd5b806301eadec41461011b5780630a755ec21461014b57806315761d511461016f5780632678224714610182575b600080fd5b61012e610129366004610e2d565b6102ae565b6040516001600160a01b0390911681526020015b60405180910390f35b60675461015f90600160a81b900460ff1681565b6040519015158152602001610142565b60655461012e906001600160a01b031681565b60675461012e906001600160a01b031681565b6101a86101a3366004610f38565b6102e6565b005b60675461015f90600160a01b900460ff1681565b6101a86104e2565b6033546001600160a01b031661012e565b6101a86101e5366004611030565b610518565b61012e6101f8366004611092565b606b602052600090815260409020546001600160a01b031681565b610226610221366004611092565b610605565b604051908152602001610142565b610226610242366004611092565b610616565b60685461012e906001600160a01b031681565b60695461012e906001600160a01b031681565b610226610697565b6101a8610283366004611092565b610777565b60665461012e906001600160a01b031681565b6102266102a9366004611092565b610812565b606a60205281600052604060002081815481106102ca57600080fd5b6000918252602090912001546001600160a01b03169150829050565b60006102f2600161090e565b9050801561030a576000805461ff0019166101001790555b8251845114801561031c575081518451145b6103875760405162461bcd60e51b815260206004820152603160248201527f4e6f204c5020746f6b656e7320737570706c696564206f72206172726179206c60448201527032b733ba3439903737ba1032b8bab0b61760791b60648201526084015b60405180910390fd5b61038f610996565b60005b8451811015610495578381815181106103ad576103ad6110af565b6020026020010151606b60008784815181106103cb576103cb6110af565b60200260200101516001600160a01b03166001600160a01b0316815260200190815260200160002060006101000a8154816001600160a01b0302191690836001600160a01b03160217905550828181518110610429576104296110af565b6020026020010151606a6000878481518110610447576104476110af565b60200260200101516001600160a01b03166001600160a01b031681526020019081526020016000209080519060200190610482929190610d9e565b508061048d816110db565b915050610392565b5080156104dc576000805461ff0019169055604051600181527f7f26b83ff96e1f2b6a682f133852f6798a09c465da95921460cefb38474024989060200160405180910390a15b50505050565b6033546001600160a01b0316331461050c5760405162461bcd60e51b815260040161037e906110f6565b61051660006109c5565b565b6033546001600160a01b031633146105425760405162461bcd60e51b815260040161037e906110f6565b6001600160a01b038084166000908152606b60205260409020541680156105b75760405162461bcd60e51b8152602060048201526024808201527f54686973204c5020746f6b656e20697320616c726561647920726567697374656044820152633932b21760e11b606482015260840161037e565b6001600160a01b038481166000908152606b6020908152604080832080546001600160a01b03191694881694909417909355606a815291902083516105fe92850190610d9e565b5050505050565b600061061082610a17565b92915050565b6000610620610ca3565b6106305761061060016010610cf5565b606780546001600160a01b038481166001600160a01b031983168117909355604080519190921680825260208201939093527fca4f2f25d0898edd99413412fb94012f9e54ec8142f9b093e7720646a95b16a9910160405180910390a160005b9392505050565b6067546000906001600160a01b031633146106bd576106b860016000610cf5565b905090565b60668054606780546001600160a01b038082166001600160a01b031980861682179096559490911690915560408051919092168082526020820184905292917ff9ffabca9c8276e99321725bcb43fb076a6c66a54b7f21c4e8146d8519b417dc910160405180910390a1606754604080516001600160a01b03808516825290921660208301527fca4f2f25d0898edd99413412fb94012f9e54ec8142f9b093e7720646a95b16a9910160405180910390a160009250505090565b6033546001600160a01b031633146107a15760405162461bcd60e51b815260040161037e906110f6565b6001600160a01b0381166108065760405162461bcd60e51b815260206004820152602660248201527f4f776e61626c653a206e6577206f776e657220697320746865207a65726f206160448201526564647265737360d01b606482015260840161037e565b61080f816109c5565b50565b600080826001600160a01b0316636f307dc36040518163ffffffff1660e01b8152600401602060405180830381865afa158015610853573d6000803e3d6000fd5b505050506040513d601f19601f820116820180604052508101906108779190611141565b9050806001600160a01b031663313ce5676040518163ffffffff1660e01b8152600401602060405180830381865afa1580156108b7573d6000803e3d6000fd5b505050506040513d601f19601f820116820180604052508101906108db919061115e565b6108e99060ff16600a611265565b6108f282610a17565b61090490670de0b6b3a7640000611271565b6106909190611290565b60008054610100900460ff1615610955578160ff1660011480156109315750303b155b61094d5760405162461bcd60e51b815260040161037e906112b2565b506000919050565b60005460ff80841691161061097c5760405162461bcd60e51b815260040161037e906112b2565b506000805460ff191660ff92909216919091179055600190565b600054610100900460ff166109bd5760405162461bcd60e51b815260040161037e90611300565b610516610d6e565b603380546001600160a01b038381166001600160a01b0319831681179093556040519116919082907f8be0079c531659141344cd1fd0a4f28419497f9722a3daafe3b4186f6b6457e090600090a35050565b6001600160a01b038082166000908152606b602052604081205490911680610a815760405162461bcd60e51b815260206004820152601b60248201527f4c5020746f6b656e206973206e6f7420726567697374657265642e0000000000604482015260640161037e565b6001600160a01b0383166000908152606a6020908152604080832080548251818502810185019093528083529192909190830182828015610aeb57602002820191906000526020600020905b81546001600160a01b03168152600190910190602001808311610acd575b5050835193945060001993925060009150505b81811015610bb6576000848281518110610b1a57610b1a6110af565b60209081029190910101516040516315d5220f60e31b81526001600160a01b0382166004820152909150600090339063aea9107890602401602060405180830381865afa158015610b6f573d6000803e3d6000fd5b505050506040513d601f19601f82011682018060405250810190610b93919061134b565b905084811015610ba1578094505b50508080610bae906110db565b915050610afe565b50600019821415610c1a5760405162461bcd60e51b815260206004820152602860248201527f4e6f206d696e696d756d20756e6465726c79696e6720746f6b656e207072696360448201526732903337bab7321760c11b606482015260840161037e565b670de0b6b3a7640000846001600160a01b031663bb7b8b806040518163ffffffff1660e01b8152600401602060405180830381865afa158015610c61573d6000803e3d6000fd5b505050506040513d601f19601f82011682018060405250810190610c85919061134b565b610c8f9084611271565b610c999190611290565b9695505050505050565b6066546000906001600160a01b031633148015610cc95750606754600160a81b900460ff165b806106b857506065546001600160a01b0316331480156106b8575050606754600160a01b900460ff1690565b60007f45b96fe442630264581b197e84bbada861235052c5a1aadfff9ea4e40a969aa0836015811115610d2a57610d2a61112b565b83601b811115610d3c57610d3c61112b565b60408051928352602083019190915260009082015260600160405180910390a18260158111156106905761069061112b565b600054610100900460ff16610d955760405162461bcd60e51b815260040161037e90611300565b610516336109c5565b828054828255906000526020600020908101928215610df3579160200282015b82811115610df357825182546001600160a01b0319166001600160a01b03909116178255602090920191600190910190610dbe565b50610dff929150610e03565b5090565b5b80821115610dff5760008155600101610e04565b6001600160a01b038116811461080f57600080fd5b60008060408385031215610e4057600080fd5b8235610e4b81610e18565b946020939093013593505050565b634e487b7160e01b600052604160045260246000fd5b604051601f8201601f1916810167ffffffffffffffff81118282101715610e9857610e98610e59565b604052919050565b600067ffffffffffffffff821115610eba57610eba610e59565b5060051b60200190565b600082601f830112610ed557600080fd5b81356020610eea610ee583610ea0565b610e6f565b82815260059290921b84018101918181019086841115610f0957600080fd5b8286015b84811015610f2d578035610f2081610e18565b8352918301918301610f0d565b509695505050505050565b600080600060608486031215610f4d57600080fd5b833567ffffffffffffffff80821115610f6557600080fd5b610f7187838801610ec4565b9450602091508186013581811115610f8857600080fd5b610f9488828901610ec4565b945050604086013581811115610fa957600080fd5b8601601f81018813610fba57600080fd5b8035610fc8610ee582610ea0565b81815260059190911b8201840190848101908a831115610fe757600080fd5b8584015b8381101561101f578035868111156110035760008081fd5b6110118d8983890101610ec4565b845250918601918601610feb565b508096505050505050509250925092565b60008060006060848603121561104557600080fd5b833561105081610e18565b9250602084013561106081610e18565b9150604084013567ffffffffffffffff81111561107c57600080fd5b61108886828701610ec4565b9150509250925092565b6000602082840312156110a457600080fd5b813561069081610e18565b634e487b7160e01b600052603260045260246000fd5b634e487b7160e01b600052601160045260246000fd5b60006000198214156110ef576110ef6110c5565b5060010190565b6020808252818101527f4f776e61626c653a2063616c6c6572206973206e6f7420746865206f776e6572604082015260600190565b634e487b7160e01b600052602160045260246000fd5b60006020828403121561115357600080fd5b815161069081610e18565b60006020828403121561117057600080fd5b815160ff8116811461069057600080fd5b600181815b808511156111bc5781600019048211156111a2576111a26110c5565b808516156111af57918102915b93841c9390800290611186565b509250929050565b6000826111d357506001610610565b816111e057506000610610565b81600181146111f657600281146112005761121c565b6001915050610610565b60ff841115611211576112116110c5565b50506001821b610610565b5060208310610133831016604e8410600b841016171561123f575081810a610610565b6112498383611181565b806000190482111561125d5761125d6110c5565b029392505050565b600061069083836111c4565b600081600019048311821515161561128b5761128b6110c5565b500290565b6000826112ad57634e487b7160e01b600052601260045260246000fd5b500490565b6020808252602e908201527f496e697469616c697a61626c653a20636f6e747261637420697320616c72656160408201526d191e481a5b9a5d1a585b1a5e995960921b606082015260800190565b6020808252602b908201527f496e697469616c697a61626c653a20636f6e7472616374206973206e6f74206960408201526a6e697469616c697a696e6760a81b606082015260800190565b60006020828403121561135d57600080fd5b505191905056fea164736f6c634300080a000a",
    "linkReferences": {}
  },
  "methodIdentifiers": {
    "_acceptAdmin()": "e9c714f2",
    "_setPendingAdmin(address)": "b71d1a0c",
    "admin()": "f851a440",
    "adminHasRights()": "0a755ec2",
    "comptrollerImplementation()": "bb82aa5e",
    "fuseAdmin()": "15761d51",
    "fuseAdminHasRights()": "2f1069ba",
    "getUnderlyingPrice(address)": "fc57d4df",
    "initialize(address[],address[],address[][])": "27a3c201",
    "owner()": "8da5cb5b",
    "pendingAdmin()": "26782247",
    "pendingComptrollerImplementation()": "dcfbc0c7",
    "poolOf(address)": "988b1fa7",
    "price(address)": "aea91078",
    "registerPool(address,address,address[])": "904d4d75",
    "renounceOwnership()": "715018a6",
    "transferOwnership(address)": "f2fde38b",
    "underlyingTokens(address,uint256)": "01eadec4"
  },
  "id": 163
}