{
  "abi": [
    {
      "inputs": [
        {
          "internalType": "contract IERC20Upgradeable",
          "name": "inputToken",
          "type": "address"
        },
        {
          "internalType": "uint256",
          "name": "inputAmount",
          "type": "uint256"
        },
        {
          "internalType": "bytes",
          "name": "strategyData",
          "type": "bytes"
        }
      ],
      "name": "redeem",
      "outputs": [
        {
          "internalType": "contract IERC20Upgradeable",
          "name": "outputToken",
          "type": "address"
        },
        {
          "internalType": "uint256",
          "name": "outputAmount",
          "type": "uint256"
        }
      ],
      "stateMutability": "nonpayable",
      "type": "function"
    }
  ],
  "bytecode": {
    "object": "0x608060405234801561001057600080fd5b50610307806100206000396000f3fe608060405234801561001057600080fd5b506004361061002b5760003560e01c806310badf4e14610030575b600080fd5b61004361003e3660046101c7565b610066565b604080516001600160a01b03909316835260208301919091520160405180910390f35b6000806000859050806001600160a01b031663853828b66040518163ffffffff1660e01b8152600401600060405180830381600087803b1580156100a957600080fd5b505af11580156100bd573d6000803e3d6000fd5b50505050806001600160a01b031663fc0c546a6040518163ffffffff1660e01b8152600401602060405180830381865afa1580156100ff573d6000803e3d6000fd5b505050506040513d601f19601f820116820180604052508101906101239190610294565b6040516370a0823160e01b81523060048201529093506001600160a01b038416906370a0823190602401602060405180830381865afa15801561016a573d6000803e3d6000fd5b505050506040513d601f19601f8201168201806040525081019061018e91906102b8565b915050935093915050565b6001600160a01b03811681146101ae57600080fd5b50565b634e487b7160e01b600052604160045260246000fd5b6000806000606084860312156101dc57600080fd5b83356101e781610199565b925060208401359150604084013567ffffffffffffffff8082111561020b57600080fd5b818601915086601f83011261021f57600080fd5b813581811115610231576102316101b1565b604051601f8201601f19908116603f01168101908382118183101715610259576102596101b1565b8160405282815289602084870101111561027257600080fd5b8260208601602083013760006020848301015280955050505050509250925092565b6000602082840312156102a657600080fd5b81516102b181610199565b9392505050565b6000602082840312156102ca57600080fd5b505191905056fea26469706673582212201495f8735c6bdfaacf1ba31989561f6082a69ef75c7f4f1d56c4fc0c583be28464736f6c634300080a0033",
    "linkReferences": {}
  }
}