{
  "abi": [
    {
      "inputs": [],
      "name": "BONE",
      "outputs": [
        {
          "internalType": "uint256",
          "name": "",
          "type": "uint256"
        }
      ],
      "stateMutability": "view",
      "type": "function"
    },
    {
      "inputs": [],
      "name": "BPOW_PRECISION",
      "outputs": [
        {
          "internalType": "uint256",
          "name": "",
          "type": "uint256"
        }
      ],
      "stateMutability": "view",
      "type": "function"
    },
    {
      "inputs": [],
      "name": "EXIT_FEE",
      "outputs": [
        {
          "internalType": "uint256",
          "name": "",
          "type": "uint256"
        }
      ],
      "stateMutability": "view",
      "type": "function"
    },
    {
      "inputs": [],
      "name": "INIT_POOL_SUPPLY",
      "outputs": [
        {
          "internalType": "uint256",
          "name": "",
          "type": "uint256"
        }
      ],
      "stateMutability": "view",
      "type": "function"
    },
    {
      "inputs": [],
      "name": "MAX_BOUND_TOKENS",
      "outputs": [
        {
          "internalType": "uint256",
          "name": "",
          "type": "uint256"
        }
      ],
      "stateMutability": "view",
      "type": "function"
    },
    {
      "inputs": [],
      "name": "MAX_BPOW_BASE",
      "outputs": [
        {
          "internalType": "uint256",
          "name": "",
          "type": "uint256"
        }
      ],
      "stateMutability": "view",
      "type": "function"
    },
    {
      "inputs": [],
      "name": "MAX_FEE",
      "outputs": [
        {
          "internalType": "uint256",
          "name": "",
          "type": "uint256"
        }
      ],
      "stateMutability": "view",
      "type": "function"
    },
    {
      "inputs": [],
      "name": "MAX_IN_RATIO",
      "outputs": [
        {
          "internalType": "uint256",
          "name": "",
          "type": "uint256"
        }
      ],
      "stateMutability": "view",
      "type": "function"
    },
    {
      "inputs": [],
      "name": "MAX_OUT_RATIO",
      "outputs": [
        {
          "internalType": "uint256",
          "name": "",
          "type": "uint256"
        }
      ],
      "stateMutability": "view",
      "type": "function"
    },
    {
      "inputs": [],
      "name": "MAX_TOTAL_WEIGHT",
      "outputs": [
        {
          "internalType": "uint256",
          "name": "",
          "type": "uint256"
        }
      ],
      "stateMutability": "view",
      "type": "function"
    },
    {
      "inputs": [],
      "name": "MAX_WEIGHT",
      "outputs": [
        {
          "internalType": "uint256",
          "name": "",
          "type": "uint256"
        }
      ],
      "stateMutability": "view",
      "type": "function"
    },
    {
      "inputs": [],
      "name": "MIN_BALANCE",
      "outputs": [
        {
          "internalType": "uint256",
          "name": "",
          "type": "uint256"
        }
      ],
      "stateMutability": "view",
      "type": "function"
    },
    {
      "inputs": [],
      "name": "MIN_BOUND_TOKENS",
      "outputs": [
        {
          "internalType": "uint256",
          "name": "",
          "type": "uint256"
        }
      ],
      "stateMutability": "view",
      "type": "function"
    },
    {
      "inputs": [],
      "name": "MIN_BPOW_BASE",
      "outputs": [
        {
          "internalType": "uint256",
          "name": "",
          "type": "uint256"
        }
      ],
      "stateMutability": "view",
      "type": "function"
    },
    {
      "inputs": [],
      "name": "MIN_FEE",
      "outputs": [
        {
          "internalType": "uint256",
          "name": "",
          "type": "uint256"
        }
      ],
      "stateMutability": "view",
      "type": "function"
    },
    {
      "inputs": [],
      "name": "MIN_WEIGHT",
      "outputs": [
        {
          "internalType": "uint256",
          "name": "",
          "type": "uint256"
        }
      ],
      "stateMutability": "view",
      "type": "function"
    },
    {
      "inputs": [
        {
          "internalType": "contract ICToken",
          "name": "cToken",
          "type": "address"
        }
      ],
      "name": "getUnderlyingPrice",
      "outputs": [
        {
          "internalType": "uint256",
          "name": "",
          "type": "uint256"
        }
      ],
      "stateMutability": "view",
      "type": "function"
    },
    {
      "inputs": [
        {
          "internalType": "address",
          "name": "underlying",
          "type": "address"
        }
      ],
      "name": "price",
      "outputs": [
        {
          "internalType": "uint256",
          "name": "",
          "type": "uint256"
        }
      ],
      "stateMutability": "view",
      "type": "function"
    }
  ],
  "bytecode": {
    "object": "0x608060405234801561001057600080fd5b506113b2806100206000396000f3fe608060405234801561001057600080fd5b50600436106101165760003560e01c8063b7b800a4116100a2578063c36596a611610071578063c36596a61461013d578063c6580d12146101a7578063e4a28a521461011b578063ec093021146101af578063fc57d4df146101b757600080fd5b8063b7b800a414610187578063ba019dab1461018f578063bc063e1a14610197578063bc694ea21461019f57600080fd5b8063867378c5116100e9578063867378c5146101545780639381cd2b1461015c578063992e2a9214610164578063aea910781461016c578063b0e0d1361461017f57600080fd5b806309a3bbe41461011b578063189d00ca14610135578063218b53821461013d57806376c7a3c71461014c575b600080fd5b6101236101ca565b60405190815260200160405180910390f35b6101236101e0565b610123670de0b6b3a764000081565b6101236101f7565b61012361020c565b610123610223565b610123610236565b61012361017a366004611058565b610254565b610123600881565b610123600281565b610123600181565b610123610265565b610123610278565b610123600081565b610123610297565b6101236101c5366004611058565b6102aa565b6101dd670de0b6b3a7640000603261108b565b81565b6101dd6402540be400670de0b6b3a76400006110c0565b6101dd620f4240670de0b6b3a76400006110c0565b6101dd64e8d4a51000670de0b6b3a76400006110c0565b6101dd670de0b6b3a7640000606461108b565b6102496003670de0b6b3a76400006110c0565b6101dd9060016110d4565b600061025f826103ad565b92915050565b6101dd600a670de0b6b3a76400006110c0565b600161028d670de0b6b3a7640000600261108b565b6101dd91906110ec565b6101dd6002670de0b6b3a76400006110c0565b600080826001600160a01b0316636f307dc36040518163ffffffff1660e01b8152600401602060405180830381865afa1580156102eb573d6000803e3d6000fd5b505050506040513d601f19601f8201168201806040525081019061030f9190611113565b9050806001600160a01b031663313ce5676040518163ffffffff1660e01b8152600401602060405180830381865afa15801561034f573d6000803e3d6000fd5b505050506040513d601f19601f820116820180604052508101906103739190611130565b6103819060ff16600a611237565b61038a826103ad565b61039c90670de0b6b3a764000061108b565b6103a691906110c0565b9392505050565b600080829050806001600160a01b031663cd2ed8fb6040518163ffffffff1660e01b8152600401602060405180830381865afa1580156103f1573d6000803e3d6000fd5b505050506040513d601f19601f820116820180604052508101906104159190611243565b60021461047b5760405162461bcd60e51b815260206004820152602960248201527f42616c616e63657220706f6f6c206d75737420686176652065786163746c792060448201526819103a37b5b2b7399760b91b60648201526084015b60405180910390fd5b6000816001600160a01b031663be3bbd2e6040518163ffffffff1660e01b8152600401600060405180830381865afa1580156104bb573d6000803e3d6000fd5b505050506040513d6000823e601f3d908101601f191682016040526104e39190810190611272565b90506000816000815181106104fa576104fa611337565b6020026020010151905060008260018151811061051957610519611337565b60209081029190910101516040516315d5220f60e31b81526001600160a01b0384166004820152909150600090339063aea9107890602401602060405180830381865afa15801561056e573d6000803e3d6000fd5b505050506040513d601f19601f820116820180604052508101906105929190611243565b6040516315d5220f60e31b81526001600160a01b0384166004820152909150600090339063aea9107890602401602060405180830381865afa1580156105dc573d6000803e3d6000fd5b505050506040513d601f19601f820116820180604052508101906106009190611243565b90506000846001600160a01b031663313ce5676040518163ffffffff1660e01b8152600401602060405180830381865afa158015610642573d6000803e3d6000fd5b505050506040513d601f19601f820116820180604052508101906106669190611130565b90506000846001600160a01b031663313ce5676040518163ffffffff1660e01b8152600401602060405180830381865afa1580156106a8573d6000803e3d6000fd5b505050506040513d601f19601f820116820180604052508101906106cc9190611130565b905060128260ff161015610700576106e860ff831660126110ec565b6106f390600a611237565b6106fd908561108b565b93505b60128260ff1611156107325761071a601260ff84166110ec565b61072590600a611237565b61072f90856110c0565b93505b60128160ff1610156107645761074c60ff821660126110ec565b61075790600a611237565b610761908461108b565b92505b60128160ff1611156107965761077e601260ff83166110ec565b61078990600a611237565b61079390846110c0565b92505b60405163f8b2cb4f60e01b81526001600160a01b038781166004830152600091829161094f91908c169063f8b2cb4f90602401602060405180830381865afa1580156107e6573d6000803e3d6000fd5b505050506040513d601f19601f8201168201806040525081019061080a9190611243565b60405163f8b2cb4f60e01b81526001600160a01b038a811660048301528d169063f8b2cb4f90602401602060405180830381865afa158015610850573d6000803e3d6000fd5b505050506040513d601f19601f820116820180604052508101906108749190611243565b60405163f1b8a9b760e01b81526001600160a01b038c811660048301528e169063f1b8a9b790602401602060405180830381865afa1580156108ba573d6000803e3d6000fd5b505050506040513d601f19601f820116820180604052508101906108de9190611243565b60405163f1b8a9b760e01b81526001600160a01b038c811660048301528f169063f1b8a9b790602401602060405180830381865afa158015610924573d6000803e3d6000fd5b505050506040513d601f19601f820116820180604052508101906109489190611243565b8a8a6109ed565b91509150896001600160a01b03166318160ddd6040518163ffffffff1660e01b8152600401602060405180830381865afa158015610991573d6000803e3d6000fd5b505050506040513d601f19601f820116820180604052508101906109b59190611243565b6109bf868361108b565b6109c9888561108b565b6109d391906110d4565b6109dd91906110c0565b9c9b505050505050505050505050565b60008060006109fc8989610a9c565b90506000610a1c610a0d8987610bbe565b610a178989610bbe565b610a9c565b905080821115610a5f576000610a328284610a9c565b9050610a478b610a42838b610c99565b610bbe565b9450610a578a610a17838c610c99565b935050610a8f565b6000610a6b8383610a9c565b9050610a7b8b610a17838b610c99565b9450610a8b8a610a42838c610c99565b9350505b5050965096945050505050565b600081610ada5760405162461bcd60e51b815260206004820152600c60248201526b4552525f4449565f5a45524f60a01b6044820152606401610472565b6000610aee670de0b6b3a76400008561108b565b9050831580610b0d5750670de0b6b3a7640000610b0b85836110c0565b145b610b4c5760405162461bcd60e51b815260206004820152601060248201526f11549497d1125597d25395115493905360821b6044820152606401610472565b6000610b596002856110c0565b610b6390836110d4565b905081811015610ba85760405162461bcd60e51b815260206004820152601060248201526f11549497d1125597d25395115493905360821b6044820152606401610472565b6000610bb485836110c0565b9695505050505050565b600080610bcb838561108b565b9050831580610be2575082610be085836110c0565b145b610c215760405162461bcd60e51b815260206004820152601060248201526f4552525f4d554c5f4f564552464c4f5760801b6044820152606401610472565b6000610c366002670de0b6b3a76400006110c0565b610c4090836110d4565b905081811015610c855760405162461bcd60e51b815260206004820152601060248201526f4552525f4d554c5f4f564552464c4f5760801b6044820152606401610472565b6000610bb4670de0b6b3a7640000836110c0565b60006001831015610ce45760405162461bcd60e51b81526020600482015260156024820152744552525f42504f575f424153455f544f4f5f4c4f5760581b6044820152606401610472565b6001610cf9670de0b6b3a7640000600261108b565b610d0391906110ec565b831115610d4b5760405162461bcd60e51b815260206004820152601660248201527508aa4a4be84a09eaebe8482a68abea89e9ebe90928e960531b6044820152606401610472565b6000610d5683610dc5565b90506000610d648483610de3565b90506000610d7a86610d7585610e40565b610e54565b905081610d8b57925061025f915050565b6000610dae8784610da96402540be400670de0b6b3a76400006110c0565b610ec7565b9050610dba8282610bbe565b979650505050505050565b6000670de0b6b3a7640000610dd983610e40565b61025f919061108b565b6000806000610df28585610fb7565b915091508015610e385760405162461bcd60e51b81526020600482015260116024820152704552525f5355425f554e444552464c4f5760781b6044820152606401610472565b509392505050565b600061025f670de0b6b3a7640000836110c0565b600080610e6260028461134d565b610e7457670de0b6b3a7640000610e76565b835b9050610e836002846110c0565b92505b82156103a657610e968485610bbe565b9350610ea360028461134d565b15610eb557610eb28185610bbe565b90505b610ec06002846110c0565b9250610e86565b6000828180610ede87670de0b6b3a7640000610fb7565b9092509050670de0b6b3a764000080600060015b888410610fa8576000610f0d670de0b6b3a76400008361108b565b9050600080610f2d8a610f2885670de0b6b3a7640000610de3565b610fb7565b91509150610f3f87610a42848c610bbe565b9650610f4b8784610a9c565b965086610f5a57505050610fa8565b8715610f64579315935b8015610f6e579315935b8415610f8557610f7e8688610de3565b9550610f92565b610f8f8688610fee565b95505b5050508080610fa090611361565b915050610ef2565b50909998505050505050505050565b600080828410610fd657610fcb83856110ec565b600091509150610fe7565b610fe084846110ec565b6001915091505b9250929050565b600080610ffb83856110d4565b9050838110156103a65760405162461bcd60e51b815260206004820152601060248201526f4552525f4144445f4f564552464c4f5760801b6044820152606401610472565b6001600160a01b038116811461105557600080fd5b50565b60006020828403121561106a57600080fd5b81356103a681611040565b634e487b7160e01b600052601160045260246000fd5b60008160001904831182151516156110a5576110a5611075565b500290565b634e487b7160e01b600052601260045260246000fd5b6000826110cf576110cf6110aa565b500490565b600082198211156110e7576110e7611075565b500190565b6000828210156110fe576110fe611075565b500390565b805161110e81611040565b919050565b60006020828403121561112557600080fd5b81516103a681611040565b60006020828403121561114257600080fd5b815160ff811681146103a657600080fd5b600181815b8085111561118e57816000190482111561117457611174611075565b8085161561118157918102915b93841c9390800290611158565b509250929050565b6000826111a55750600161025f565b816111b25750600061025f565b81600181146111c857600281146111d2576111ee565b600191505061025f565b60ff8411156111e3576111e3611075565b50506001821b61025f565b5060208310610133831016604e8410600b8410161715611211575081810a61025f565b61121b8383611153565b806000190482111561122f5761122f611075565b029392505050565b60006103a68383611196565b60006020828403121561125557600080fd5b5051919050565b634e487b7160e01b600052604160045260246000fd5b6000602080838503121561128557600080fd5b825167ffffffffffffffff8082111561129d57600080fd5b818501915085601f8301126112b157600080fd5b8151818111156112c3576112c361125c565b8060051b604051601f19603f830116810181811085821117156112e8576112e861125c565b60405291825284820192508381018501918883111561130657600080fd5b938501935b8285101561132b5761131c85611103565b8452938501939285019261130b565b98975050505050505050565b634e487b7160e01b600052603260045260246000fd5b60008261135c5761135c6110aa565b500690565b600060001982141561137557611375611075565b506001019056fea26469706673582212209829b0c684743c6ef81d0e1b060b2285fe64b38eee0f9592781c57cf97bb774464736f6c634300080a0033",
    "linkReferences": {}
  },
  "methodIdentifiers": {
    "BONE()": "c36596a6",
    "BPOW_PRECISION()": "189d00ca",
    "EXIT_FEE()": "c6580d12",
    "INIT_POOL_SUPPLY()": "9381cd2b",
    "MAX_BOUND_TOKENS()": "b0e0d136",
    "MAX_BPOW_BASE()": "bc694ea2",
    "MAX_FEE()": "bc063e1a",
    "MAX_IN_RATIO()": "ec093021",
    "MAX_OUT_RATIO()": "992e2a92",
    "MAX_TOTAL_WEIGHT()": "09a3bbe4",
    "MAX_WEIGHT()": "e4a28a52",
    "MIN_BALANCE()": "867378c5",
    "MIN_BOUND_TOKENS()": "b7b800a4",
    "MIN_BPOW_BASE()": "ba019dab",
    "MIN_FEE()": "76c7a3c7",
    "MIN_WEIGHT()": "218b5382",
    "getUnderlyingPrice(address)": "fc57d4df",
    "price(address)": "aea91078"
  },
  "id": 161
}