{
  "abi": [
    {
      "inputs": [
        {
          "internalType": "address",
          "name": "_admin",
          "type": "address"
        },
        {
          "internalType": "bool",
          "name": "canAdminOverwrite",
          "type": "bool"
        },
        {
          "internalType": "address",
          "name": "wtoken",
          "type": "address"
        },
        {
          "internalType": "contract DIAOracleV2",
          "name": "nativeTokenUsd",
          "type": "address"
        },
        {
          "internalType": "string",
          "name": "nativeTokenUsdKey",
          "type": "string"
        },
        {
          "internalType": "contract MasterPriceOracle",
          "name": "masterPriceOracle",
          "type": "address"
        },
        {
          "internalType": "address",
          "name": "usdToken",
          "type": "address"
        }
      ],
      "stateMutability": "nonpayable",
      "type": "constructor"
    },
    {
      "anonymous": false,
      "inputs": [
        {
          "indexed": false,
          "internalType": "address",
          "name": "oldAdmin",
          "type": "address"
        },
        {
          "indexed": false,
          "internalType": "address",
          "name": "newAdmin",
          "type": "address"
        }
      ],
      "name": "NewAdmin",
      "type": "event"
    },
    {
      "inputs": [],
      "name": "CAN_ADMIN_OVERWRITE",
      "outputs": [
        {
          "internalType": "bool",
          "name": "",
          "type": "bool"
        }
      ],
      "stateMutability": "view",
      "type": "function"
    },
    {
      "inputs": [],
      "name": "MASTER_PRICE_ORACLE",
      "outputs": [
        {
          "internalType": "contract MasterPriceOracle",
          "name": "",
          "type": "address"
        }
      ],
      "stateMutability": "view",
      "type": "function"
    },
    {
      "inputs": [],
      "name": "NATIVE_TOKEN_USD_KEY",
      "outputs": [
        {
          "internalType": "string",
          "name": "",
          "type": "string"
        }
      ],
      "stateMutability": "view",
      "type": "function"
    },
    {
      "inputs": [],
      "name": "NATIVE_TOKEN_USD_PRICE_FEED",
      "outputs": [
        {
          "internalType": "contract DIAOracleV2",
          "name": "",
          "type": "address"
        }
      ],
      "stateMutability": "view",
      "type": "function"
    },
    {
      "inputs": [],
      "name": "USD_TOKEN",
      "outputs": [
        {
          "internalType": "address",
          "name": "",
          "type": "address"
        }
      ],
      "stateMutability": "view",
      "type": "function"
    },
    {
      "inputs": [],
      "name": "WTOKEN",
      "outputs": [
        {
          "internalType": "address",
          "name": "",
          "type": "address"
        }
      ],
      "stateMutability": "view",
      "type": "function"
    },
    {
      "inputs": [],
      "name": "admin",
      "outputs": [
        {
          "internalType": "address",
          "name": "",
          "type": "address"
        }
      ],
      "stateMutability": "view",
      "type": "function"
    },
    {
      "inputs": [
        {
          "internalType": "address",
          "name": "newAdmin",
          "type": "address"
        }
      ],
      "name": "changeAdmin",
      "outputs": [],
      "stateMutability": "nonpayable",
      "type": "function"
    },
    {
      "inputs": [
        {
          "internalType": "contract ICToken",
          "name": "cToken",
          "type": "address"
        }
      ],
      "name": "getUnderlyingPrice",
      "outputs": [
        {
          "internalType": "uint256",
          "name": "",
          "type": "uint256"
        }
      ],
      "stateMutability": "view",
      "type": "function"
    },
    {
      "inputs": [
        {
          "internalType": "address",
          "name": "underlying",
          "type": "address"
        }
      ],
      "name": "price",
      "outputs": [
        {
          "internalType": "uint256",
          "name": "",
          "type": "uint256"
        }
      ],
      "stateMutability": "view",
      "type": "function"
    },
    {
      "inputs": [
        {
          "internalType": "address",
          "name": "",
          "type": "address"
        }
      ],
      "name": "priceFeeds",
      "outputs": [
        {
          "internalType": "contract DIAOracleV2",
          "name": "feed",
          "type": "address"
        },
        {
          "internalType": "string",
          "name": "key",
          "type": "string"
        }
      ],
      "stateMutability": "view",
      "type": "function"
    },
    {
      "inputs": [
        {
          "internalType": "address[]",
          "name": "underlyings",
          "type": "address[]"
        },
        {
          "internalType": "contract DIAOracleV2[]",
          "name": "feeds",
          "type": "address[]"
        },
        {
          "internalType": "string[]",
          "name": "keys",
          "type": "string[]"
        }
      ],
      "name": "setPriceFeeds",
      "outputs": [],
      "stateMutability": "nonpayable",
      "type": "function"
    }
  ],
  "bytecode": {
    "object": "0x6101206040523480156200001257600080fd5b506040516200183e3803806200183e833981016040819052620000359162000182565b600180546001600160a01b0319166001600160a01b038981169190911790915586151560805285811660a052841660c05282516200007b9060029060208601906200009b565b506001600160a01b0391821660e0521661010052506200031e9350505050565b828054620000a990620002e1565b90600052602060002090601f016020900481019282620000cd576000855562000118565b82601f10620000e857805160ff191683800117855562000118565b8280016001018555821562000118579182015b8281111562000118578251825591602001919060010190620000fb565b50620001269291506200012a565b5090565b5b808211156200012657600081556001016200012b565b6001600160a01b03811681146200015757600080fd5b50565b8051620001678162000141565b919050565b634e487b7160e01b600052604160045260246000fd5b600080600080600080600060e0888a0312156200019e57600080fd5b8751620001ab8162000141565b809750506020808901518015158114620001c457600080fd5b60408a0151909750620001d78162000141565b60608a0151909650620001ea8162000141565b60808a01519095506001600160401b03808211156200020857600080fd5b818b0191508b601f8301126200021d57600080fd5b8151818111156200023257620002326200016c565b604051601f8201601f19908116603f011681019083821181831017156200025d576200025d6200016c565b816040528281528e868487010111156200027657600080fd5b600093505b828410156200029a57848401860151818501870152928501926200027b565b82841115620002ac5760008684830101525b809850505050505050620002c360a089016200015a565b9150620002d360c089016200015a565b905092959891949750929550565b600181811c90821680620002f657607f821691505b602082108114156200031857634e487b7160e01b600052602260045260246000fd5b50919050565b60805160a05160c05160e051610100516114b36200038b600039600081816101b10152610a7d01526000818161014e0152610aa801526000818160fa01528181610a3a0152610bfb015260008181610175015261089b01526000818160be015261056901526114b36000f3fe608060405234801561001057600080fd5b50600436106100b45760003560e01c80639d23c812116100715780639d23c812146101ac5780639dcb511a146101d3578063aea91078146101f4578063b48f0a5414610215578063f851a44014610228578063fc57d4df1461023b57600080fd5b806319983c85146100b95780633a750685146100f55780634805e467146101345780635381c2ae146101495780635bcf1f76146101705780638f28397014610197575b600080fd5b6100e07f000000000000000000000000000000000000000000000000000000000000000081565b60405190151581526020015b60405180910390f35b61011c7f000000000000000000000000000000000000000000000000000000000000000081565b6040516001600160a01b0390911681526020016100ec565b61013c61024e565b6040516100ec9190610e23565b61011c7f000000000000000000000000000000000000000000000000000000000000000081565b61011c7f000000000000000000000000000000000000000000000000000000000000000081565b6101aa6101a5366004610e55565b6102dc565b005b61011c7f000000000000000000000000000000000000000000000000000000000000000081565b6101e66101e1366004610e55565b610397565b6040516100ec929190610e72565b610207610202366004610e55565b610446565b6040519081526020016100ec565b6101aa610223366004611061565b610457565b60015461011c906001600160a01b031681565b610207610249366004610e55565b6106ec565b6002805461025b90611147565b80601f016020809104026020016040519081016040528092919081815260200182805461028790611147565b80156102d45780601f106102a9576101008083540402835291602001916102d4565b820191906000526020600020905b8154815290600101906020018083116102b757829003601f168201915b505050505081565b6001546001600160a01b031633146103365760405162461bcd60e51b815260206004820152601860248201527729b2b73232b91034b9903737ba103a34329030b236b4b71760411b60448201526064015b60405180910390fd5b600180546001600160a01b038381166001600160a01b031983168117909355604080519190921680825260208201939093527ff9ffabca9c8276e99321725bcb43fb076a6c66a54b7f21c4e8146d8519b417dc910160405180910390a15050565b600060208190529081526040902080546001820180546001600160a01b0390921692916103c390611147565b80601f01602080910402602001604051908101604052809291908181526020018280546103ef90611147565b801561043c5780601f106104115761010080835404028352916020019161043c565b820191906000526020600020905b81548152906001019060200180831161041f57829003601f168201915b5050505050905082565b600061045182610897565b92915050565b6001546001600160a01b031633146104ac5760405162461bcd60e51b815260206004820152601860248201527729b2b73232b91034b9903737ba103a34329030b236b4b71760411b604482015260640161032d565b600083511180156104be575081518351145b80156104cb575080518351145b61053d5760405162461bcd60e51b815260206004820152603860248201527f4c656e67746873206f6620626f746820617272617973206d757374206265206560448201527f7175616c20616e642067726561746572207468616e20302e0000000000000000606482015260840161032d565b60005b83518110156106e657600084828151811061055d5761055d61117c565b602002602001015190507f0000000000000000000000000000000000000000000000000000000000000000610633576001600160a01b0381811660009081526020819052604090205416156106335760405162461bcd60e51b815260206004820152605060248201527f41646d696e2063616e6e6f74206f7665727772697465206578697374696e672060448201527f61737369676e6d656e7473206f6620707269636520666565647320746f20756e60648201526f3232b9363cb4b733903a37b5b2b7399760811b608482015260a40161032d565b60405180604001604052808584815181106106505761065061117c565b60200260200101516001600160a01b031681526020018484815181106106785761067861117c565b6020908102919091018101519091526001600160a01b03838116600090815280835260409020835181546001600160a01b031916921691909117815582820151805191926106ce92600185019290910190610d3d565b509050505080806106de906111a8565b915050610540565b50505050565b6000816001600160a01b031663ac784ddc6040518163ffffffff1660e01b8152600401602060405180830381865afa15801561072c573d6000803e3d6000fd5b505050506040513d601f19601f8201168201806040525081019061075091906111c3565b156107645750670de0b6b3a7640000919050565b6000826001600160a01b0316636f307dc36040518163ffffffff1660e01b8152600401602060405180830381865afa1580156107a4573d6000803e3d6000fd5b505050506040513d601f19601f820116820180604052508101906107c891906111e5565b905060006107d582610897565b90506000826001600160a01b031663313ce5676040518163ffffffff1660e01b8152600401602060405180830381865afa158015610817573d6000803e3d6000fd5b505050506040513d601f19601f8201168201806040525081019061083b9190611202565b60ff169050601281111561086e57610854601282611225565b61085f90600a611320565b610869908361132c565b61088e565b610879816012611225565b61088490600a611320565b61088e908361134e565b95945050505050565b60007f00000000000000000000000000000000000000000000000000000000000000006001600160a01b0316826001600160a01b031614806108e057506001600160a01b038216155b156108f45750670de0b6b3a7640000919050565b6001600160a01b0380831660009081526020818152604080832081518083019092528054909416815260018401805493949193919284019161093590611147565b80601f016020809104026020016040519081016040528092919081815260200182805461096190611147565b80156109ae5780601f10610983576101008083540402835291602001916109ae565b820191906000526020600020905b81548152906001019060200180831161099157829003601f168201915b5050509190925250508151919250506001600160a01b0316610a385760405162461bcd60e51b815260206004820152603b60248201527f4e6f206f7261636c65207072696365206665656420666f756e6420666f72207460448201527f68697320756e6465726c79696e6720455243323020746f6b656e2e0000000000606482015260840161032d565b7f00000000000000000000000000000000000000000000000000000000000000006001600160a01b0316610be1576040516315d5220f60e31b81526001600160a01b037f0000000000000000000000000000000000000000000000000000000000000000811660048301526000917f00000000000000000000000000000000000000000000000000000000000000009091169063aea9107890602401602060405180830381865afa158015610af1573d6000803e3d6000fd5b505050506040513d601f19601f82011682018060405250810190610b15919061136d565b90506000610b32826ec097ce7bc90715b34b9f100000000061132c565b835160208501516040516304b01c2560e51b81529293506000926001600160a01b039092169163960384a091610b6a91600401610e23565b6040805180830381865afa158015610b86573d6000803e3d6000fd5b505050506040513d601f19601f82011682018060405250810190610baa91906113a2565b50905081610bcd6001600160801b0383166b204fce5e3e2502611000000061134e565b610bd7919061132c565b9695505050505050565b6040516304b01c2560e51b81526000906001600160a01b037f0000000000000000000000000000000000000000000000000000000000000000169063960384a090610c31906002906004016113d5565b6040805180830381865afa158015610c4d573d6000803e3d6000fd5b505050506040513d601f19601f82011682018060405250810190610c7191906113a2565b5090506000816001600160801b031611610c8f575060009392505050565b815160208301516040516304b01c2560e51b81526000926001600160a01b03169163960384a091610cc39190600401610e23565b6040805180830381865afa158015610cdf573d6000803e3d6000fd5b505050506040513d601f19601f82011682018060405250810190610d0391906113a2565b509050816001600160801b0316816001600160801b0316670de0b6b3a7640000610d2d919061134e565b61088e919061132c565b50919050565b828054610d4990611147565b90600052602060002090601f016020900481019282610d6b5760008555610db1565b82601f10610d8457805160ff1916838001178555610db1565b82800160010185558215610db1579182015b82811115610db1578251825591602001919060010190610d96565b50610dbd929150610dc1565b5090565b5b80821115610dbd5760008155600101610dc2565b6000815180845260005b81811015610dfc57602081850181015186830182015201610de0565b81811115610e0e576000602083870101525b50601f01601f19169290920160200192915050565b602081526000610e366020830184610dd6565b9392505050565b6001600160a01b0381168114610e5257600080fd5b50565b600060208284031215610e6757600080fd5b8135610e3681610e3d565b6001600160a01b0383168152604060208201819052600090610e9690830184610dd6565b949350505050565b634e487b7160e01b600052604160045260246000fd5b604051601f8201601f1916810167ffffffffffffffff81118282101715610edd57610edd610e9e565b604052919050565b600067ffffffffffffffff821115610eff57610eff610e9e565b5060051b60200190565b600082601f830112610f1a57600080fd5b81356020610f2f610f2a83610ee5565b610eb4565b82815260059290921b84018101918181019086841115610f4e57600080fd5b8286015b84811015610f72578035610f6581610e3d565b8352918301918301610f52565b509695505050505050565b6000601f8381840112610f8f57600080fd5b82356020610f9f610f2a83610ee5565b82815260059290921b85018101918181019087841115610fbe57600080fd5b8287015b8481101561105557803567ffffffffffffffff80821115610fe35760008081fd5b818a0191508a603f830112610ff85760008081fd5b8582013560408282111561100e5761100e610e9e565b61101f828b01601f19168901610eb4565b92508183528c818386010111156110365760008081fd5b8181850189850137506000908201870152845250918301918301610fc2565b50979650505050505050565b60008060006060848603121561107657600080fd5b833567ffffffffffffffff8082111561108e57600080fd5b818601915086601f8301126110a257600080fd5b813560206110b2610f2a83610ee5565b82815260059290921b8401810191818101908a8411156110d157600080fd5b948201945b838610156110f85785356110e981610e3d565b825294820194908201906110d6565b9750508701359250508082111561110e57600080fd5b61111a87838801610f09565b9350604086013591508082111561113057600080fd5b5061113d86828701610f7d565b9150509250925092565b600181811c9082168061115b57607f821691505b60208210811415610d3757634e487b7160e01b600052602260045260246000fd5b634e487b7160e01b600052603260045260246000fd5b634e487b7160e01b600052601160045260246000fd5b60006000198214156111bc576111bc611192565b5060010190565b6000602082840312156111d557600080fd5b81518015158114610e3657600080fd5b6000602082840312156111f757600080fd5b8151610e3681610e3d565b60006020828403121561121457600080fd5b815160ff81168114610e3657600080fd5b60008282101561123757611237611192565b500390565b600181815b8085111561127757816000190482111561125d5761125d611192565b8085161561126a57918102915b93841c9390800290611241565b509250929050565b60008261128e57506001610451565b8161129b57506000610451565b81600181146112b157600281146112bb576112d7565b6001915050610451565b60ff8411156112cc576112cc611192565b50506001821b610451565b5060208310610133831016604e8410600b84101617156112fa575081810a610451565b611304838361123c565b806000190482111561131857611318611192565b029392505050565b6000610e36838361127f565b60008261134957634e487b7160e01b600052601260045260246000fd5b500490565b600081600019048311821515161561136857611368611192565b500290565b60006020828403121561137f57600080fd5b5051919050565b80516001600160801b038116811461139d57600080fd5b919050565b600080604083850312156113b557600080fd5b6113be83611386565b91506113cc60208401611386565b90509250929050565b600060208083526000845481600182811c9150808316806113f757607f831692505b85831081141561141557634e487b7160e01b85526022600452602485fd5b87860183815260200181801561143257600181146114435761146e565b60ff1986168252878201965061146e565b60008b81526020902060005b868110156114685781548482015290850190890161144f565b83019750505b5094999850505050505050505056fea26469706673582212201275d6f9b906defb199ae009349d1112581d5c9b2d953fe82bf66abedc9fd03a64736f6c634300080a0033",
    "linkReferences": {}
  }
}