{
  "abi": [
    {
      "inputs": [
        {
          "internalType": "contract WETH",
          "name": "wnative",
          "type": "address"
        },
        {
          "internalType": "contract CurveLpTokenPriceOracleNoRegistry",
          "name": "_oracle",
          "type": "address"
        }
      ],
      "stateMutability": "nonpayable",
      "type": "constructor"
    },
    {
      "inputs": [],
      "name": "W_NATIVE",
      "outputs": [
        {
          "internalType": "contract WETH",
          "name": "",
          "type": "address"
        }
      ],
      "stateMutability": "view",
      "type": "function"
    },
    {
      "inputs": [],
      "name": "oracle",
      "outputs": [
        {
          "internalType": "contract CurveLpTokenPriceOracleNoRegistry",
          "name": "",
          "type": "address"
        }
      ],
      "stateMutability": "view",
      "type": "function"
    },
    {
      "inputs": [
        {
          "internalType": "contract IERC20Upgradeable",
          "name": "inputToken",
          "type": "address"
        },
        {
          "internalType": "uint256",
          "name": "inputAmount",
          "type": "uint256"
        },
        {
          "internalType": "bytes",
          "name": "strategyData",
          "type": "bytes"
        }
      ],
      "name": "redeem",
      "outputs": [
        {
          "internalType": "contract IERC20Upgradeable",
          "name": "outputToken",
          "type": "address"
        },
        {
          "internalType": "uint256",
          "name": "outputAmount",
          "type": "uint256"
        }
      ],
      "stateMutability": "nonpayable",
      "type": "function"
    }
  ],
  "bytecode": {
    "object": "0x60c060405234801561001057600080fd5b506040516105c43803806105c483398101604081905261002f9161005e565b6001600160a01b039182166080521660a052610098565b6001600160a01b038116811461005b57600080fd5b50565b6000806040838503121561007157600080fd5b825161007c81610046565b602084015190925061008d81610046565b809150509250929050565b60805160a0516104f46100d0600039600081816082015261012501526000818160c1015281816102c6015261033a01526104f46000f3fe608060405234801561001057600080fd5b50600436106100415760003560e01c806310badf4e146100465780637dc0d1d01461007d578063b798d3ff146100bc575b600080fd5b61005961005436600461039d565b6100e3565b604080516001600160a01b0390931683526020830191909152015b60405180910390f35b6100a47f000000000000000000000000000000000000000000000000000000000000000081565b6040516001600160a01b039091168152602001610074565b6100a47f000000000000000000000000000000000000000000000000000000000000000081565b600080600080848060200190518101906100fd919061046a565b60405163988b1fa760e01b81526001600160a01b038a811660048301529294509092506000917f0000000000000000000000000000000000000000000000000000000000000000169063988b1fa790602401602060405180830381865afa15801561016c573d6000803e3d6000fd5b505050506040513d601f19601f8201168201806040525081019061019091906104aa565b604051630d2680e960e11b815260048101899052600085900b6024820152600160448201529091506001600160a01b03821690631a4d01d290606401600060405180830381600087803b1580156101e657600080fd5b505af11580156101fa573d6000803e3d6000fd5b50505050816001600160a01b031673eeeeeeeeeeeeeeeeeeeeeeeeeeeeeeeeeeeeeeee6001600160a01b0316146102315781610234565b60005b94506001600160a01b038516156102b2576040516370a0823160e01b81523060048201526001600160a01b038616906370a0823190602401602060405180830381865afa158015610289573d6000803e3d6000fd5b505050506040513d601f19601f820116820180604052508101906102ad91906104ce565b6102b4565b475b93506001600160a01b038516610363577f00000000000000000000000000000000000000000000000000000000000000006001600160a01b031663d0e30db0856040518263ffffffff1660e01b81526004016000604051808303818588803b15801561031f57600080fd5b505af1158015610333573d6000803e3d6000fd5b50505050507f00000000000000000000000000000000000000000000000000000000000000009450505050610367565b5050505b935093915050565b6001600160a01b038116811461038457600080fd5b50565b634e487b7160e01b600052604160045260246000fd5b6000806000606084860312156103b257600080fd5b83356103bd8161036f565b925060208401359150604084013567ffffffffffffffff808211156103e157600080fd5b818601915086601f8301126103f557600080fd5b81358181111561040757610407610387565b604051601f8201601f19908116603f0116810190838211818310171561042f5761042f610387565b8160405282815289602084870101111561044857600080fd5b8260208601602083013760006020848301015280955050505050509250925092565b6000806040838503121561047d57600080fd5b825160ff8116811461048e57600080fd5b602084015190925061049f8161036f565b809150509250929050565b6000602082840312156104bc57600080fd5b81516104c78161036f565b9392505050565b6000602082840312156104e057600080fd5b505191905056fea164736f6c634300080a000a",
    "linkReferences": {}
  },
  "methodIdentifiers": {
    "W_NATIVE()": "b798d3ff",
    "oracle()": "7dc0d1d0",
    "redeem(address,uint256,bytes)": "10badf4e"
  },
  "id": 135
}