{
  "abi": [
    {
      "inputs": [
        {
          "internalType": "uint256",
          "name": "_blocksPerYear",
          "type": "uint256"
        },
        {
          "internalType": "uint256",
          "name": "baseRatePerYear",
          "type": "uint256"
        },
        {
          "internalType": "uint256",
          "name": "multiplierPerYear",
          "type": "uint256"
        },
        {
          "internalType": "uint256",
          "name": "jumpMultiplierPerYear",
          "type": "uint256"
        },
        {
          "internalType": "uint256",
          "name": "kink_",
          "type": "uint256"
        }
      ],
      "stateMutability": "nonpayable",
      "type": "constructor"
    },
    {
      "anonymous": false,
      "inputs": [
        {
          "indexed": false,
          "internalType": "uint256",
          "name": "baseRatePerBlock",
          "type": "uint256"
        },
        {
          "indexed": false,
          "internalType": "uint256",
          "name": "multiplierPerBlock",
          "type": "uint256"
        },
        {
          "indexed": false,
          "internalType": "uint256",
          "name": "jumpMultiplierPerBlock",
          "type": "uint256"
        },
        {
          "indexed": false,
          "internalType": "uint256",
          "name": "kink",
          "type": "uint256"
        }
      ],
      "name": "NewInterestParams",
      "type": "event"
    },
    {
      "inputs": [],
      "name": "baseRatePerBlock",
      "outputs": [
        {
          "internalType": "uint256",
          "name": "",
          "type": "uint256"
        }
      ],
      "stateMutability": "view",
      "type": "function"
    },
    {
      "inputs": [],
      "name": "blocksPerYear",
      "outputs": [
        {
          "internalType": "uint256",
          "name": "",
          "type": "uint256"
        }
      ],
      "stateMutability": "view",
      "type": "function"
    },
    {
      "inputs": [
        {
          "internalType": "uint256",
          "name": "cash",
          "type": "uint256"
        },
        {
          "internalType": "uint256",
          "name": "borrows",
          "type": "uint256"
        },
        {
          "internalType": "uint256",
          "name": "reserves",
          "type": "uint256"
        }
      ],
      "name": "getBorrowRate",
      "outputs": [
        {
          "internalType": "uint256",
          "name": "",
          "type": "uint256"
        }
      ],
      "stateMutability": "view",
      "type": "function"
    },
    {
      "inputs": [
        {
          "internalType": "uint256",
          "name": "cash",
          "type": "uint256"
        },
        {
          "internalType": "uint256",
          "name": "borrows",
          "type": "uint256"
        },
        {
          "internalType": "uint256",
          "name": "reserves",
          "type": "uint256"
        },
        {
          "internalType": "uint256",
          "name": "reserveFactorMantissa",
          "type": "uint256"
        }
      ],
      "name": "getSupplyRate",
      "outputs": [
        {
          "internalType": "uint256",
          "name": "",
          "type": "uint256"
        }
      ],
      "stateMutability": "view",
      "type": "function"
    },
    {
      "inputs": [],
      "name": "isInterestRateModel",
      "outputs": [
        {
          "internalType": "bool",
          "name": "",
          "type": "bool"
        }
      ],
      "stateMutability": "view",
      "type": "function"
    },
    {
      "inputs": [],
      "name": "jumpMultiplierPerBlock",
      "outputs": [
        {
          "internalType": "uint256",
          "name": "",
          "type": "uint256"
        }
      ],
      "stateMutability": "view",
      "type": "function"
    },
    {
      "inputs": [],
      "name": "kink",
      "outputs": [
        {
          "internalType": "uint256",
          "name": "",
          "type": "uint256"
        }
      ],
      "stateMutability": "view",
      "type": "function"
    },
    {
      "inputs": [],
      "name": "multiplierPerBlock",
      "outputs": [
        {
          "internalType": "uint256",
          "name": "",
          "type": "uint256"
        }
      ],
      "stateMutability": "view",
      "type": "function"
    },
    {
      "inputs": [
        {
          "internalType": "uint256",
          "name": "cash",
          "type": "uint256"
        },
        {
          "internalType": "uint256",
          "name": "borrows",
          "type": "uint256"
        },
        {
          "internalType": "uint256",
          "name": "reserves",
          "type": "uint256"
        }
      ],
      "name": "utilizationRate",
      "outputs": [
        {
          "internalType": "uint256",
          "name": "",
          "type": "uint256"
        }
      ],
      "stateMutability": "pure",
      "type": "function"
    }
  ],
  "bytecode": {
    "object": "0x608060405234801561001057600080fd5b5060405161082838038061082883398101604081905261002f91610179565b600085905561004984866100ea602090811b6102a217901c565b600281905550610068600054846100ea60201b6102a21790919060201c565b600181905550610087600054836100ea60201b6102a21790919060201c565b60038190556004829055600254600154604080519283526020830191909152810191909152606081018290527f6960ab234c7ef4b0c9197100f5393cfcde7c453ac910a27bd2000aa1dd4c068d9060800160405180910390a15050505050610230565b600061013283836040518060400160405280601a81526020017f536166654d6174683a206469766973696f6e206279207a65726f00000000000081525061013960201b60201c565b9392505050565b600081836101635760405162461bcd60e51b815260040161015a91906101b9565b60405180910390fd5b506000610170848661020e565b95945050505050565b600080600080600060a0868803121561019157600080fd5b5050835160208501516040860151606087015160809097015192989197509594509092509050565b600060208083528351808285015260005b818110156101e6578581018301518582016040015282016101ca565b818111156101f8576000604083870101525b50601f01601f1916929092016040019392505050565b60008261022b57634e487b7160e01b600052601260045260246000fd5b500490565b6105e98061023f6000396000f3fe608060405234801561001057600080fd5b50600436106100935760003560e01c8063a385fb9611610066578063a385fb96146100f2578063b8168816146100fb578063b9f9850a1461010e578063f14039de14610117578063fd2da3391461012057600080fd5b806315f24053146100985780632191f92a146100be5780636e71e2d8146100d65780638726bb89146100e9575b600080fd5b6100ab6100a636600461047a565b610129565b6040519081526020015b60405180910390f35b6100c6600181565b60405190151581526020016100b5565b6100ab6100e436600461047a565b6101f5565b6100ab60015481565b6100ab60005481565b6100ab6101093660046104a6565b610235565b6100ab60035481565b6100ab60025481565b6100ab60045481565b6000806101378585856101f5565b9050600454811161017d5761017560025461016f670de0b6b3a7640000610169600154866102ed90919063ffffffff16565b906102a2565b90610371565b9150506101ee565b60006101a860025461016f670de0b6b3a76400006101696001546004546102ed90919063ffffffff16565b905060006101c1600454846103d090919063ffffffff16565b90506101e88261016f670de0b6b3a7640000610169600354866102ed90919063ffffffff16565b93505050505b9392505050565b600082610204575060006101ee565b61022d61021b836102158787610371565b906103d0565b61016985670de0b6b3a76400006102ed565b949350505050565b60008061024a670de0b6b3a7640000846103d0565b90506000610259878787610129565b90506000610273670de0b6b3a764000061016984866102ed565b9050610296670de0b6b3a7640000610169836102908c8c8c6101f5565b906102ed565b98975050505050505050565b60006102e483836040518060400160405280601a81526020017f536166654d6174683a206469766973696f6e206279207a65726f000000000000815250610412565b90505b92915050565b6000826102fc575060006102e7565b600061030883856104ee565b905082610315858361050d565b146102e45760405162461bcd60e51b815260206004820152602160248201527f536166654d6174683a206d756c7469706c69636174696f6e206f766572666c6f6044820152607760f81b60648201526084015b60405180910390fd5b60008061037e838561052f565b9050838110156102e45760405162461bcd60e51b815260206004820152601b60248201527f536166654d6174683a206164646974696f6e206f766572666c6f7700000000006044820152606401610368565b60006102e483836040518060400160405280601f81526020017f536166654d6174683a207375627472616374696f6e20756e646572666c6f7700815250610449565b600081836104335760405162461bcd60e51b81526004016103689190610547565b506000610440848661050d565b95945050505050565b6000818484111561046d5760405162461bcd60e51b81526004016103689190610547565b506000610440848661059c565b60008060006060848603121561048f57600080fd5b505081359360208301359350604090920135919050565b600080600080608085870312156104bc57600080fd5b5050823594602084013594506040840135936060013592509050565b634e487b7160e01b600052601160045260246000fd5b6000816000190483118215151615610508576105086104d8565b500290565b60008261052a57634e487b7160e01b600052601260045260246000fd5b500490565b60008219821115610542576105426104d8565b500190565b600060208083528351808285015260005b8181101561057457858101830151858201604001528201610558565b81811115610586576000604083870101525b50601f01601f1916929092016040019392505050565b6000828210156105ae576105ae6104d8565b50039056fea2646970667358221220208aa47cee54ab57043784b07d70c5b26fb3c194889d7c22c965a6b6f04e16ff64736f6c634300080a0033",
    "linkReferences": {}
  }
}