{
  "abi": [
    {
      "inputs": [
        {
          "internalType": "address payable",
          "name": "_fuseAdmin",
          "type": "address"
        }
      ],
      "stateMutability": "nonpayable",
      "type": "constructor"
    },
    {
      "anonymous": false,
      "inputs": [
        {
          "indexed": false,
          "internalType": "string",
          "name": "action",
          "type": "string"
        },
        {
          "indexed": false,
          "internalType": "bool",
          "name": "pauseState",
          "type": "bool"
        }
      ],
      "name": "ActionPaused",
      "type": "event"
    },
    {
      "anonymous": false,
      "inputs": [
        {
          "indexed": false,
          "internalType": "contract CToken",
          "name": "cToken",
          "type": "address"
        },
        {
          "indexed": false,
          "internalType": "string",
          "name": "action",
          "type": "string"
        },
        {
          "indexed": false,
          "internalType": "bool",
          "name": "pauseState",
          "type": "bool"
        }
      ],
      "name": "ActionPaused",
      "type": "event"
    },
    {
      "anonymous": false,
      "inputs": [
        {
          "indexed": false,
          "internalType": "address",
          "name": "rewardsDistributor",
          "type": "address"
        }
      ],
      "name": "AddedRewardsDistributor",
      "type": "event"
    },
    {
      "anonymous": false,
      "inputs": [
        {
          "indexed": false,
          "internalType": "bool",
          "name": "enabled",
          "type": "bool"
        }
      ],
      "name": "AutoImplementationsToggled",
      "type": "event"
    },
    {
      "anonymous": false,
      "inputs": [
        {
          "indexed": false,
          "internalType": "uint256",
          "name": "error",
          "type": "uint256"
        },
        {
          "indexed": false,
          "internalType": "uint256",
          "name": "info",
          "type": "uint256"
        },
        {
          "indexed": false,
          "internalType": "uint256",
          "name": "detail",
          "type": "uint256"
        }
      ],
      "name": "Failure",
      "type": "event"
    },
    {
      "anonymous": false,
      "inputs": [
        {
          "indexed": false,
          "internalType": "contract CToken",
          "name": "cToken",
          "type": "address"
        },
        {
          "indexed": false,
          "internalType": "address",
          "name": "account",
          "type": "address"
        }
      ],
      "name": "MarketEntered",
      "type": "event"
    },
    {
      "anonymous": false,
      "inputs": [
        {
          "indexed": false,
          "internalType": "contract CToken",
          "name": "cToken",
          "type": "address"
        },
        {
          "indexed": false,
          "internalType": "address",
          "name": "account",
          "type": "address"
        }
      ],
      "name": "MarketExited",
      "type": "event"
    },
    {
      "anonymous": false,
      "inputs": [
        {
          "indexed": false,
          "internalType": "contract CToken",
          "name": "cToken",
          "type": "address"
        }
      ],
      "name": "MarketListed",
      "type": "event"
    },
    {
      "anonymous": false,
      "inputs": [
        {
          "indexed": false,
          "internalType": "contract CToken",
          "name": "cToken",
          "type": "address"
        }
      ],
      "name": "MarketUnlisted",
      "type": "event"
    },
    {
      "anonymous": false,
      "inputs": [
        {
          "indexed": true,
          "internalType": "contract CToken",
          "name": "cToken",
          "type": "address"
        },
        {
          "indexed": false,
          "internalType": "uint256",
          "name": "newBorrowCap",
          "type": "uint256"
        }
      ],
      "name": "NewBorrowCap",
      "type": "event"
    },
    {
      "anonymous": false,
      "inputs": [
        {
          "indexed": false,
          "internalType": "address",
          "name": "oldBorrowCapGuardian",
          "type": "address"
        },
        {
          "indexed": false,
          "internalType": "address",
          "name": "newBorrowCapGuardian",
          "type": "address"
        }
      ],
      "name": "NewBorrowCapGuardian",
      "type": "event"
    },
    {
      "anonymous": false,
      "inputs": [
        {
          "indexed": false,
          "internalType": "uint256",
          "name": "oldCloseFactorMantissa",
          "type": "uint256"
        },
        {
          "indexed": false,
          "internalType": "uint256",
          "name": "newCloseFactorMantissa",
          "type": "uint256"
        }
      ],
      "name": "NewCloseFactor",
      "type": "event"
    },
    {
      "anonymous": false,
      "inputs": [
        {
          "indexed": false,
          "internalType": "contract CToken",
          "name": "cToken",
          "type": "address"
        },
        {
          "indexed": false,
          "internalType": "uint256",
          "name": "oldCollateralFactorMantissa",
          "type": "uint256"
        },
        {
          "indexed": false,
          "internalType": "uint256",
          "name": "newCollateralFactorMantissa",
          "type": "uint256"
        }
      ],
      "name": "NewCollateralFactor",
      "type": "event"
    },
    {
      "anonymous": false,
      "inputs": [
        {
          "indexed": false,
          "internalType": "uint256",
          "name": "oldLiquidationIncentiveMantissa",
          "type": "uint256"
        },
        {
          "indexed": false,
          "internalType": "uint256",
          "name": "newLiquidationIncentiveMantissa",
          "type": "uint256"
        }
      ],
      "name": "NewLiquidationIncentive",
      "type": "event"
    },
    {
      "anonymous": false,
      "inputs": [
        {
          "indexed": false,
          "internalType": "address",
          "name": "oldPauseGuardian",
          "type": "address"
        },
        {
          "indexed": false,
          "internalType": "address",
          "name": "newPauseGuardian",
          "type": "address"
        }
      ],
      "name": "NewPauseGuardian",
      "type": "event"
    },
    {
      "anonymous": false,
      "inputs": [
        {
          "indexed": false,
          "internalType": "contract PriceOracle",
          "name": "oldPriceOracle",
          "type": "address"
        },
        {
          "indexed": false,
          "internalType": "contract PriceOracle",
          "name": "newPriceOracle",
          "type": "address"
        }
      ],
      "name": "NewPriceOracle",
      "type": "event"
    },
    {
      "anonymous": false,
      "inputs": [
        {
          "indexed": true,
          "internalType": "contract CToken",
          "name": "cToken",
          "type": "address"
        },
        {
          "indexed": false,
          "internalType": "uint256",
          "name": "newSupplyCap",
          "type": "uint256"
        }
      ],
      "name": "NewSupplyCap",
      "type": "event"
    },
    {
      "anonymous": false,
      "inputs": [
        {
          "indexed": false,
          "internalType": "bool",
          "name": "enforce",
          "type": "bool"
        }
      ],
      "name": "WhitelistEnforcementChanged",
      "type": "event"
    },
    {
      "inputs": [
        {
          "internalType": "address",
          "name": "distributor",
          "type": "address"
        }
      ],
      "name": "_addRewardsDistributor",
      "outputs": [
        {
          "internalType": "uint256",
          "name": "",
          "type": "uint256"
        }
      ],
      "stateMutability": "nonpayable",
      "type": "function"
    },
    {
      "inputs": [],
      "name": "_afterNonReentrant",
      "outputs": [],
      "stateMutability": "nonpayable",
      "type": "function"
    },
    {
      "inputs": [
        {
          "internalType": "contract Unitroller",
          "name": "unitroller",
          "type": "address"
        }
      ],
      "name": "_become",
      "outputs": [],
      "stateMutability": "nonpayable",
      "type": "function"
    },
    {
      "inputs": [],
      "name": "_becomeImplementation",
      "outputs": [],
      "stateMutability": "nonpayable",
      "type": "function"
    },
    {
      "inputs": [],
      "name": "_beforeNonReentrant",
      "outputs": [],
      "stateMutability": "nonpayable",
      "type": "function"
    },
    {
      "inputs": [],
      "name": "_borrowGuardianPaused",
      "outputs": [
        {
          "internalType": "bool",
          "name": "",
          "type": "bool"
        }
      ],
      "stateMutability": "view",
      "type": "function"
    },
    {
      "inputs": [
        {
          "internalType": "bool",
          "name": "isCEther",
          "type": "bool"
        },
        {
          "internalType": "bytes",
          "name": "constructorData",
          "type": "bytes"
        },
        {
          "internalType": "uint256",
          "name": "collateralFactorMantissa",
          "type": "uint256"
        }
      ],
      "name": "_deployMarket",
      "outputs": [
        {
          "internalType": "uint256",
          "name": "",
          "type": "uint256"
        }
      ],
      "stateMutability": "nonpayable",
      "type": "function"
    },
    {
      "inputs": [],
      "name": "_mintGuardianPaused",
      "outputs": [
        {
          "internalType": "bool",
          "name": "",
          "type": "bool"
        }
      ],
      "stateMutability": "view",
      "type": "function"
    },
    {
      "inputs": [
        {
          "internalType": "address",
          "name": "newBorrowCapGuardian",
          "type": "address"
        }
      ],
      "name": "_setBorrowCapGuardian",
      "outputs": [],
      "stateMutability": "nonpayable",
      "type": "function"
    },
    {
      "inputs": [
        {
          "internalType": "contract CToken",
          "name": "cToken",
          "type": "address"
        },
        {
          "internalType": "bool",
          "name": "state",
          "type": "bool"
        }
      ],
      "name": "_setBorrowPaused",
      "outputs": [
        {
          "internalType": "bool",
          "name": "",
          "type": "bool"
        }
      ],
      "stateMutability": "nonpayable",
      "type": "function"
    },
    {
      "inputs": [
        {
          "internalType": "uint256",
          "name": "newCloseFactorMantissa",
          "type": "uint256"
        }
      ],
      "name": "_setCloseFactor",
      "outputs": [
        {
          "internalType": "uint256",
          "name": "",
          "type": "uint256"
        }
      ],
      "stateMutability": "nonpayable",
      "type": "function"
    },
    {
      "inputs": [
        {
          "internalType": "contract CToken",
          "name": "cToken",
          "type": "address"
        },
        {
          "internalType": "uint256",
          "name": "newCollateralFactorMantissa",
          "type": "uint256"
        }
      ],
      "name": "_setCollateralFactor",
      "outputs": [
        {
          "internalType": "uint256",
          "name": "",
          "type": "uint256"
        }
      ],
      "stateMutability": "nonpayable",
      "type": "function"
    },
    {
      "inputs": [
        {
          "internalType": "uint256",
          "name": "newLiquidationIncentiveMantissa",
          "type": "uint256"
        }
      ],
      "name": "_setLiquidationIncentive",
      "outputs": [
        {
          "internalType": "uint256",
          "name": "",
          "type": "uint256"
        }
      ],
      "stateMutability": "nonpayable",
      "type": "function"
    },
    {
      "inputs": [
        {
          "internalType": "contract CToken[]",
          "name": "cTokens",
          "type": "address[]"
        },
        {
          "internalType": "uint256[]",
          "name": "newBorrowCaps",
          "type": "uint256[]"
        }
      ],
      "name": "_setMarketBorrowCaps",
      "outputs": [],
      "stateMutability": "nonpayable",
      "type": "function"
    },
    {
      "inputs": [
        {
          "internalType": "contract CToken[]",
          "name": "cTokens",
          "type": "address[]"
        },
        {
          "internalType": "uint256[]",
          "name": "newSupplyCaps",
          "type": "uint256[]"
        }
      ],
      "name": "_setMarketSupplyCaps",
      "outputs": [],
      "stateMutability": "nonpayable",
      "type": "function"
    },
    {
      "inputs": [
        {
          "internalType": "contract CToken",
          "name": "cToken",
          "type": "address"
        },
        {
          "internalType": "bool",
          "name": "state",
          "type": "bool"
        }
      ],
      "name": "_setMintPaused",
      "outputs": [
        {
          "internalType": "bool",
          "name": "",
          "type": "bool"
        }
      ],
      "stateMutability": "nonpayable",
      "type": "function"
    },
    {
      "inputs": [
        {
          "internalType": "address",
          "name": "newPauseGuardian",
          "type": "address"
        }
      ],
      "name": "_setPauseGuardian",
      "outputs": [
        {
          "internalType": "uint256",
          "name": "",
          "type": "uint256"
        }
      ],
      "stateMutability": "nonpayable",
      "type": "function"
    },
    {
      "inputs": [
        {
          "internalType": "contract PriceOracle",
          "name": "newOracle",
          "type": "address"
        }
      ],
      "name": "_setPriceOracle",
      "outputs": [
        {
          "internalType": "uint256",
          "name": "",
          "type": "uint256"
        }
      ],
      "stateMutability": "nonpayable",
      "type": "function"
    },
    {
      "inputs": [
        {
          "internalType": "bool",
          "name": "state",
          "type": "bool"
        }
      ],
      "name": "_setSeizePaused",
      "outputs": [
        {
          "internalType": "bool",
          "name": "",
          "type": "bool"
        }
      ],
      "stateMutability": "nonpayable",
      "type": "function"
    },
    {
      "inputs": [
        {
          "internalType": "bool",
          "name": "state",
          "type": "bool"
        }
      ],
      "name": "_setTransferPaused",
      "outputs": [
        {
          "internalType": "bool",
          "name": "",
          "type": "bool"
        }
      ],
      "stateMutability": "nonpayable",
      "type": "function"
    },
    {
      "inputs": [
        {
          "internalType": "bool",
          "name": "enforce",
          "type": "bool"
        }
      ],
      "name": "_setWhitelistEnforcement",
      "outputs": [
        {
          "internalType": "uint256",
          "name": "",
          "type": "uint256"
        }
      ],
      "stateMutability": "nonpayable",
      "type": "function"
    },
    {
      "inputs": [
        {
          "internalType": "address[]",
          "name": "suppliers",
          "type": "address[]"
        },
        {
          "internalType": "bool[]",
          "name": "statuses",
          "type": "bool[]"
        }
      ],
      "name": "_setWhitelistStatuses",
      "outputs": [
        {
          "internalType": "uint256",
          "name": "",
          "type": "uint256"
        }
      ],
      "stateMutability": "nonpayable",
      "type": "function"
    },
    {
      "inputs": [
        {
          "internalType": "bool",
          "name": "enabled",
          "type": "bool"
        }
      ],
      "name": "_toggleAutoImplementations",
      "outputs": [
        {
          "internalType": "uint256",
          "name": "",
          "type": "uint256"
        }
      ],
      "stateMutability": "nonpayable",
      "type": "function"
    },
    {
      "inputs": [
        {
          "internalType": "contract CToken",
          "name": "cToken",
          "type": "address"
        }
      ],
      "name": "_unsupportMarket",
      "outputs": [
        {
          "internalType": "uint256",
          "name": "",
          "type": "uint256"
        }
      ],
      "stateMutability": "nonpayable",
      "type": "function"
    },
    {
      "inputs": [
        {
          "internalType": "address",
          "name": "",
          "type": "address"
        },
        {
          "internalType": "uint256",
          "name": "",
          "type": "uint256"
        }
      ],
      "name": "accountAssets",
      "outputs": [
        {
          "internalType": "contract CToken",
          "name": "",
          "type": "address"
        }
      ],
      "stateMutability": "view",
      "type": "function"
    },
    {
      "inputs": [],
      "name": "admin",
      "outputs": [
        {
          "internalType": "address",
          "name": "",
          "type": "address"
        }
      ],
      "stateMutability": "view",
      "type": "function"
    },
    {
      "inputs": [],
      "name": "adminHasRights",
      "outputs": [
        {
          "internalType": "bool",
          "name": "",
          "type": "bool"
        }
      ],
      "stateMutability": "view",
      "type": "function"
    },
    {
      "inputs": [
        {
          "internalType": "uint256",
          "name": "",
          "type": "uint256"
        }
      ],
      "name": "allBorrowers",
      "outputs": [
        {
          "internalType": "address",
          "name": "",
          "type": "address"
        }
      ],
      "stateMutability": "view",
      "type": "function"
    },
    {
      "inputs": [
        {
          "internalType": "uint256",
          "name": "",
          "type": "uint256"
        }
      ],
      "name": "allMarkets",
      "outputs": [
        {
          "internalType": "contract CToken",
          "name": "",
          "type": "address"
        }
      ],
      "stateMutability": "view",
      "type": "function"
    },
    {
      "inputs": [],
      "name": "autoImplementation",
      "outputs": [
        {
          "internalType": "bool",
          "name": "",
          "type": "bool"
        }
      ],
      "stateMutability": "view",
      "type": "function"
    },
    {
      "inputs": [
        {
          "internalType": "address",
          "name": "cToken",
          "type": "address"
        },
        {
          "internalType": "address",
          "name": "borrower",
          "type": "address"
        },
        {
          "internalType": "uint256",
          "name": "borrowAmount",
          "type": "uint256"
        }
      ],
      "name": "borrowAllowed",
      "outputs": [
        {
          "internalType": "uint256",
          "name": "",
          "type": "uint256"
        }
      ],
      "stateMutability": "nonpayable",
      "type": "function"
    },
    {
      "inputs": [],
      "name": "borrowCapGuardian",
      "outputs": [
        {
          "internalType": "address",
          "name": "",
          "type": "address"
        }
      ],
      "stateMutability": "view",
      "type": "function"
    },
    {
      "inputs": [
        {
          "internalType": "address",
          "name": "",
          "type": "address"
        }
      ],
      "name": "borrowCaps",
      "outputs": [
        {
          "internalType": "uint256",
          "name": "",
          "type": "uint256"
        }
      ],
      "stateMutability": "view",
      "type": "function"
    },
    {
      "inputs": [
        {
          "internalType": "address",
          "name": "",
          "type": "address"
        }
      ],
      "name": "borrowGuardianPaused",
      "outputs": [
        {
          "internalType": "bool",
          "name": "",
          "type": "bool"
        }
      ],
      "stateMutability": "view",
      "type": "function"
    },
    {
      "inputs": [
        {
          "internalType": "address",
          "name": "cToken",
          "type": "address"
        },
        {
          "internalType": "address",
          "name": "borrower",
          "type": "address"
        },
        {
          "internalType": "uint256",
          "name": "borrowAmount",
          "type": "uint256"
        }
      ],
      "name": "borrowVerify",
      "outputs": [],
      "stateMutability": "nonpayable",
      "type": "function"
    },
    {
      "inputs": [
        {
          "internalType": "address",
          "name": "cToken",
          "type": "address"
        },
        {
          "internalType": "uint256",
          "name": "accountBorrowsNew",
          "type": "uint256"
        }
      ],
      "name": "borrowWithinLimits",
      "outputs": [
        {
          "internalType": "uint256",
          "name": "",
          "type": "uint256"
        }
      ],
      "stateMutability": "nonpayable",
      "type": "function"
    },
    {
      "inputs": [
        {
          "internalType": "address",
          "name": "",
          "type": "address"
        }
      ],
      "name": "cTokensByUnderlying",
      "outputs": [
        {
          "internalType": "contract CToken",
          "name": "",
          "type": "address"
        }
      ],
      "stateMutability": "view",
      "type": "function"
    },
    {
      "inputs": [
        {
          "internalType": "address",
          "name": "account",
          "type": "address"
        },
        {
          "internalType": "contract CToken",
          "name": "cToken",
          "type": "address"
        }
      ],
      "name": "checkMembership",
      "outputs": [
        {
          "internalType": "bool",
          "name": "",
          "type": "bool"
        }
      ],
      "stateMutability": "view",
      "type": "function"
    },
    {
      "inputs": [],
      "name": "closeFactorMantissa",
      "outputs": [
        {
          "internalType": "uint256",
          "name": "",
          "type": "uint256"
        }
      ],
      "stateMutability": "view",
      "type": "function"
    },
    {
      "inputs": [],
      "name": "comptrollerImplementation",
      "outputs": [
        {
          "internalType": "address",
          "name": "",
          "type": "address"
        }
      ],
      "stateMutability": "view",
      "type": "function"
    },
    {
      "inputs": [],
      "name": "enforceWhitelist",
      "outputs": [
        {
          "internalType": "bool",
          "name": "",
          "type": "bool"
        }
      ],
      "stateMutability": "view",
      "type": "function"
    },
    {
      "inputs": [
        {
          "internalType": "address[]",
          "name": "cTokens",
          "type": "address[]"
        }
      ],
      "name": "enterMarkets",
      "outputs": [
        {
          "internalType": "uint256[]",
          "name": "",
          "type": "uint256[]"
        }
      ],
      "stateMutability": "nonpayable",
      "type": "function"
    },
    {
      "inputs": [
        {
          "internalType": "address",
          "name": "cTokenAddress",
          "type": "address"
        }
      ],
      "name": "exitMarket",
      "outputs": [
        {
          "internalType": "uint256",
          "name": "",
          "type": "uint256"
        }
      ],
      "stateMutability": "nonpayable",
      "type": "function"
    },
    {
      "inputs": [],
      "name": "fuseAdmin",
      "outputs": [
        {
          "internalType": "address payable",
          "name": "",
          "type": "address"
        }
      ],
      "stateMutability": "view",
      "type": "function"
    },
    {
      "inputs": [],
      "name": "fuseAdminHasRights",
      "outputs": [
        {
          "internalType": "bool",
          "name": "",
          "type": "bool"
        }
      ],
      "stateMutability": "view",
      "type": "function"
    },
    {
      "inputs": [
        {
          "internalType": "address",
          "name": "account",
          "type": "address"
        }
      ],
      "name": "getAccountLiquidity",
      "outputs": [
        {
          "internalType": "uint256",
          "name": "",
          "type": "uint256"
        },
        {
          "internalType": "uint256",
          "name": "",
          "type": "uint256"
        },
        {
          "internalType": "uint256",
          "name": "",
          "type": "uint256"
        }
      ],
      "stateMutability": "view",
      "type": "function"
    },
    {
      "inputs": [],
      "name": "getAllBorrowers",
      "outputs": [
        {
          "internalType": "address[]",
          "name": "",
          "type": "address[]"
        }
      ],
      "stateMutability": "view",
      "type": "function"
    },
    {
      "inputs": [],
      "name": "getAllMarkets",
      "outputs": [
        {
          "internalType": "contract CToken[]",
          "name": "",
          "type": "address[]"
        }
      ],
      "stateMutability": "view",
      "type": "function"
    },
    {
      "inputs": [
        {
          "internalType": "address",
          "name": "account",
          "type": "address"
        }
      ],
      "name": "getAssetsIn",
      "outputs": [
        {
          "internalType": "contract CToken[]",
          "name": "",
          "type": "address[]"
        }
      ],
      "stateMutability": "view",
      "type": "function"
    },
    {
      "inputs": [
        {
          "internalType": "address",
          "name": "account",
          "type": "address"
        },
        {
          "internalType": "address",
          "name": "cTokenModify",
          "type": "address"
        },
        {
          "internalType": "uint256",
          "name": "redeemTokens",
          "type": "uint256"
        },
        {
          "internalType": "uint256",
          "name": "borrowAmount",
          "type": "uint256"
        }
      ],
      "name": "getHypotheticalAccountLiquidity",
      "outputs": [
        {
          "internalType": "uint256",
          "name": "",
          "type": "uint256"
        },
        {
          "internalType": "uint256",
          "name": "",
          "type": "uint256"
        },
        {
          "internalType": "uint256",
          "name": "",
          "type": "uint256"
        }
      ],
      "stateMutability": "view",
      "type": "function"
    },
    {
      "inputs": [],
      "name": "getRewardsDistributors",
      "outputs": [
        {
          "internalType": "address[]",
          "name": "",
          "type": "address[]"
        }
      ],
      "stateMutability": "view",
      "type": "function"
    },
    {
      "inputs": [],
      "name": "getWhitelist",
      "outputs": [
        {
          "internalType": "address[]",
          "name": "",
          "type": "address[]"
        }
      ],
      "stateMutability": "view",
      "type": "function"
    },
    {
      "inputs": [],
      "name": "isComptroller",
      "outputs": [
        {
          "internalType": "bool",
          "name": "",
          "type": "bool"
        }
      ],
      "stateMutability": "view",
      "type": "function"
    },
    {
      "inputs": [
        {
          "internalType": "contract CToken",
          "name": "cToken",
          "type": "address"
        }
      ],
      "name": "isDeprecated",
      "outputs": [
        {
          "internalType": "bool",
          "name": "",
          "type": "bool"
        }
      ],
      "stateMutability": "view",
      "type": "function"
    },
    {
      "inputs": [
        {
          "internalType": "address",
          "name": "cTokenBorrowed",
          "type": "address"
        },
        {
          "internalType": "address",
          "name": "cTokenCollateral",
          "type": "address"
        },
        {
          "internalType": "address",
          "name": "liquidator",
          "type": "address"
        },
        {
          "internalType": "address",
          "name": "borrower",
          "type": "address"
        },
        {
          "internalType": "uint256",
          "name": "repayAmount",
          "type": "uint256"
        }
      ],
      "name": "liquidateBorrowAllowed",
      "outputs": [
        {
          "internalType": "uint256",
          "name": "",
          "type": "uint256"
        }
      ],
      "stateMutability": "nonpayable",
      "type": "function"
    },
    {
      "inputs": [
        {
          "internalType": "address",
          "name": "cTokenBorrowed",
          "type": "address"
        },
        {
          "internalType": "address",
          "name": "cTokenCollateral",
          "type": "address"
        },
        {
          "internalType": "address",
          "name": "liquidator",
          "type": "address"
        },
        {
          "internalType": "address",
          "name": "borrower",
          "type": "address"
        },
        {
          "internalType": "uint256",
          "name": "actualRepayAmount",
          "type": "uint256"
        },
        {
          "internalType": "uint256",
          "name": "seizeTokens",
          "type": "uint256"
        }
      ],
      "name": "liquidateBorrowVerify",
      "outputs": [],
      "stateMutability": "nonpayable",
      "type": "function"
    },
    {
      "inputs": [
        {
          "internalType": "address",
          "name": "cTokenBorrowed",
          "type": "address"
        },
        {
          "internalType": "address",
          "name": "cTokenCollateral",
          "type": "address"
        },
        {
          "internalType": "uint256",
          "name": "actualRepayAmount",
          "type": "uint256"
        }
      ],
      "name": "liquidateCalculateSeizeTokens",
      "outputs": [
        {
          "internalType": "uint256",
          "name": "",
          "type": "uint256"
        },
        {
          "internalType": "uint256",
          "name": "",
          "type": "uint256"
        }
      ],
      "stateMutability": "view",
      "type": "function"
    },
    {
      "inputs": [],
      "name": "liquidationIncentiveMantissa",
      "outputs": [
        {
          "internalType": "uint256",
          "name": "",
          "type": "uint256"
        }
      ],
      "stateMutability": "view",
      "type": "function"
    },
    {
      "inputs": [
        {
          "internalType": "address",
          "name": "",
          "type": "address"
        }
      ],
      "name": "markets",
      "outputs": [
        {
          "internalType": "bool",
          "name": "isListed",
          "type": "bool"
        },
        {
          "internalType": "uint256",
          "name": "collateralFactorMantissa",
          "type": "uint256"
        }
      ],
      "stateMutability": "view",
      "type": "function"
    },
    {
      "inputs": [
        {
          "internalType": "address",
          "name": "cToken",
          "type": "address"
        },
        {
          "internalType": "address",
          "name": "minter",
          "type": "address"
        },
        {
          "internalType": "uint256",
          "name": "mintAmount",
          "type": "uint256"
        }
      ],
      "name": "mintAllowed",
      "outputs": [
        {
          "internalType": "uint256",
          "name": "",
          "type": "uint256"
        }
      ],
      "stateMutability": "nonpayable",
      "type": "function"
    },
    {
      "inputs": [
        {
          "internalType": "address",
          "name": "",
          "type": "address"
        }
      ],
      "name": "mintGuardianPaused",
      "outputs": [
        {
          "internalType": "bool",
          "name": "",
          "type": "bool"
        }
      ],
      "stateMutability": "view",
      "type": "function"
    },
    {
      "inputs": [
        {
          "internalType": "address",
          "name": "cToken",
          "type": "address"
        },
        {
          "internalType": "address",
          "name": "minter",
          "type": "address"
        },
        {
          "internalType": "uint256",
          "name": "actualMintAmount",
          "type": "uint256"
        },
        {
          "internalType": "uint256",
          "name": "mintTokens",
          "type": "uint256"
        }
      ],
      "name": "mintVerify",
      "outputs": [],
      "stateMutability": "nonpayable",
      "type": "function"
    },
    {
      "inputs": [
        {
          "internalType": "address",
          "name": "cToken",
          "type": "address"
        },
        {
          "internalType": "uint256",
          "name": "exchangeRateMantissa",
          "type": "uint256"
        },
        {
          "internalType": "uint256",
          "name": "accountTokens",
          "type": "uint256"
        },
        {
          "internalType": "uint256",
          "name": "mintAmount",
          "type": "uint256"
        }
      ],
      "name": "mintWithinLimits",
      "outputs": [
        {
          "internalType": "uint256",
          "name": "",
          "type": "uint256"
        }
      ],
      "stateMutability": "nonpayable",
      "type": "function"
    },
    {
      "inputs": [],
      "name": "oracle",
      "outputs": [
        {
          "internalType": "contract PriceOracle",
          "name": "",
          "type": "address"
        }
      ],
      "stateMutability": "view",
      "type": "function"
    },
    {
      "inputs": [],
      "name": "pauseGuardian",
      "outputs": [
        {
          "internalType": "address",
          "name": "",
          "type": "address"
        }
      ],
      "stateMutability": "view",
      "type": "function"
    },
    {
      "inputs": [],
      "name": "pendingAdmin",
      "outputs": [
        {
          "internalType": "address",
          "name": "",
          "type": "address"
        }
      ],
      "stateMutability": "view",
      "type": "function"
    },
    {
      "inputs": [],
      "name": "pendingComptrollerImplementation",
      "outputs": [
        {
          "internalType": "address",
          "name": "",
          "type": "address"
        }
      ],
      "stateMutability": "view",
      "type": "function"
    },
    {
      "inputs": [
        {
          "internalType": "address",
          "name": "cToken",
          "type": "address"
        },
        {
          "internalType": "address",
          "name": "redeemer",
          "type": "address"
        },
        {
          "internalType": "uint256",
          "name": "redeemTokens",
          "type": "uint256"
        }
      ],
      "name": "redeemAllowed",
      "outputs": [
        {
          "internalType": "uint256",
          "name": "",
          "type": "uint256"
        }
      ],
      "stateMutability": "nonpayable",
      "type": "function"
    },
    {
      "inputs": [
        {
          "internalType": "address",
          "name": "cToken",
          "type": "address"
        },
        {
          "internalType": "address",
          "name": "redeemer",
          "type": "address"
        },
        {
          "internalType": "uint256",
          "name": "redeemAmount",
          "type": "uint256"
        },
        {
          "internalType": "uint256",
          "name": "redeemTokens",
          "type": "uint256"
        }
      ],
      "name": "redeemVerify",
      "outputs": [],
      "stateMutability": "nonpayable",
      "type": "function"
    },
    {
      "inputs": [
        {
          "internalType": "address",
          "name": "cToken",
          "type": "address"
        },
        {
          "internalType": "address",
          "name": "payer",
          "type": "address"
        },
        {
          "internalType": "address",
          "name": "borrower",
          "type": "address"
        },
        {
          "internalType": "uint256",
          "name": "repayAmount",
          "type": "uint256"
        }
      ],
      "name": "repayBorrowAllowed",
      "outputs": [
        {
          "internalType": "uint256",
          "name": "",
          "type": "uint256"
        }
      ],
      "stateMutability": "nonpayable",
      "type": "function"
    },
    {
      "inputs": [
        {
          "internalType": "address",
          "name": "cToken",
          "type": "address"
        },
        {
          "internalType": "address",
          "name": "payer",
          "type": "address"
        },
        {
          "internalType": "address",
          "name": "borrower",
          "type": "address"
        },
        {
          "internalType": "uint256",
          "name": "actualRepayAmount",
          "type": "uint256"
        },
        {
          "internalType": "uint256",
          "name": "borrowerIndex",
          "type": "uint256"
        }
      ],
      "name": "repayBorrowVerify",
      "outputs": [],
      "stateMutability": "nonpayable",
      "type": "function"
    },
    {
      "inputs": [
        {
          "internalType": "uint256",
          "name": "",
          "type": "uint256"
        }
      ],
      "name": "rewardsDistributors",
      "outputs": [
        {
          "internalType": "address",
          "name": "",
          "type": "address"
        }
      ],
      "stateMutability": "view",
      "type": "function"
    },
    {
      "inputs": [
        {
          "internalType": "address",
          "name": "cTokenCollateral",
          "type": "address"
        },
        {
          "internalType": "address",
          "name": "cTokenBorrowed",
          "type": "address"
        },
        {
          "internalType": "address",
          "name": "liquidator",
          "type": "address"
        },
        {
          "internalType": "address",
          "name": "borrower",
          "type": "address"
        },
        {
          "internalType": "uint256",
          "name": "seizeTokens",
          "type": "uint256"
        }
      ],
      "name": "seizeAllowed",
      "outputs": [
        {
          "internalType": "uint256",
          "name": "",
          "type": "uint256"
        }
      ],
      "stateMutability": "nonpayable",
      "type": "function"
    },
    {
      "inputs": [],
      "name": "seizeGuardianPaused",
      "outputs": [
        {
          "internalType": "bool",
          "name": "",
          "type": "bool"
        }
      ],
      "stateMutability": "view",
      "type": "function"
    },
    {
      "inputs": [
        {
          "internalType": "address",
          "name": "cTokenCollateral",
          "type": "address"
        },
        {
          "internalType": "address",
          "name": "cTokenBorrowed",
          "type": "address"
        },
        {
          "internalType": "address",
          "name": "liquidator",
          "type": "address"
        },
        {
          "internalType": "address",
          "name": "borrower",
          "type": "address"
        },
        {
          "internalType": "uint256",
          "name": "seizeTokens",
          "type": "uint256"
        }
      ],
      "name": "seizeVerify",
      "outputs": [],
      "stateMutability": "nonpayable",
      "type": "function"
    },
    {
      "inputs": [
        {
          "internalType": "address",
          "name": "",
          "type": "address"
        }
      ],
      "name": "suppliers",
      "outputs": [
        {
          "internalType": "bool",
          "name": "",
          "type": "bool"
        }
      ],
      "stateMutability": "view",
      "type": "function"
    },
    {
      "inputs": [
        {
          "internalType": "address",
          "name": "",
          "type": "address"
        }
      ],
      "name": "supplyCaps",
      "outputs": [
        {
          "internalType": "uint256",
          "name": "",
          "type": "uint256"
        }
      ],
      "stateMutability": "view",
      "type": "function"
    },
    {
      "inputs": [
        {
          "internalType": "address",
          "name": "cToken",
          "type": "address"
        },
        {
          "internalType": "address",
          "name": "src",
          "type": "address"
        },
        {
          "internalType": "address",
          "name": "dst",
          "type": "address"
        },
        {
          "internalType": "uint256",
          "name": "transferTokens",
          "type": "uint256"
        }
      ],
      "name": "transferAllowed",
      "outputs": [
        {
          "internalType": "uint256",
          "name": "",
          "type": "uint256"
        }
      ],
      "stateMutability": "nonpayable",
      "type": "function"
    },
    {
      "inputs": [],
      "name": "transferGuardianPaused",
      "outputs": [
        {
          "internalType": "bool",
          "name": "",
          "type": "bool"
        }
      ],
      "stateMutability": "view",
      "type": "function"
    },
    {
      "inputs": [
        {
          "internalType": "address",
          "name": "cToken",
          "type": "address"
        },
        {
          "internalType": "address",
          "name": "src",
          "type": "address"
        },
        {
          "internalType": "address",
          "name": "dst",
          "type": "address"
        },
        {
          "internalType": "uint256",
          "name": "transferTokens",
          "type": "uint256"
        }
      ],
      "name": "transferVerify",
      "outputs": [],
      "stateMutability": "nonpayable",
      "type": "function"
    },
    {
      "inputs": [
        {
          "internalType": "address",
          "name": "",
          "type": "address"
        }
      ],
      "name": "whitelist",
      "outputs": [
        {
          "internalType": "bool",
          "name": "",
          "type": "bool"
        }
      ],
      "stateMutability": "view",
      "type": "function"
    },
    {
      "inputs": [
        {
          "internalType": "uint256",
          "name": "",
          "type": "uint256"
        }
      ],
      "name": "whitelistArray",
      "outputs": [
        {
          "internalType": "address",
          "name": "",
          "type": "address"
        }
      ],
      "stateMutability": "view",
      "type": "function"
    }
  ],
  "bytecode": {
    "object": "0x60806040526002805461ffff60a01b191661010160a01b1790553480156200002657600080fd5b5060405162005bf438038062005bf483398101604081905262000049916200006f565b600080546001600160a01b0319166001600160a01b0392909216919091179055620000a1565b6000602082840312156200008257600080fd5b81516001600160a01b03811681146200009a57600080fd5b9392505050565b615b4380620000b16000396000f3fe608060405234801561001057600080fd5b50600436106104955760003560e01c80636d154ea511610262578063bb82aa5e11610151578063d5333166116100ce578063e4028eee11610092578063e4028eee14610b4f578063e6653f3d14610b62578063e875544614610b76578063eabe7d9114610b7f578063ede4edd014610b92578063f851a44014610ba557600080fd5b8063d533316614610af6578063da3d454c14610b09578063dce1544914610b1c578063dcfbc0c714610b2f578063dd5cd22c14610b4257600080fd5b8063c8c9c97511610115578063c8c9c97514610aad578063c90c20b114610ac0578063d01f63f514610ac8578063d02f735114610ad0578063d251fefc14610ae357600080fd5b8063bb82aa5e14610a2c578063bdcdc25814610a3f578063c299823814610a52578063c488847b14610a72578063c6c5b0dd14610a9a57600080fd5b8063929fe9a1116101df578063abfceffc116101a3578063abfceffc146109dd578063ac0b0bb7146109f0578063b0772d0b14610a04578063b095721014610a0c578063b9b5b15314610a1957600080fd5b8063929fe9a11461094057806394543c1514610981578063952adf5a146109945780639b19251a146109a7578063aba35b98146109ca57600080fd5b80637dc0d1d0116102265780637dc0d1d0146108af578063819605a8146108c257806387f76303146108d55780638e8f294b146108e95780638ebf63641461092d57600080fd5b80636d154ea5146108355780636d35bf9114610858578063731f0c2b146108665780637515bafa14610889578063779b22941461089c57600080fd5b80633bcf7ec11161038957806351dff989116103065780635ec88c79116102ca5780635ec88c79146107ce5780635f5af1aa146107e15780635fc7e71e146107f4578063607ef6c114610807578063632e51421461081a5780636a56947e1461082257600080fd5b806351dff9891461077a57806352d84d1e1461078d57806355ee1fe1146107a05780635c778605146107b35780635d72de62146107c657600080fd5b80634ada90af1161034d5780634ada90af1461070a5780634e79238f146107135780634ef4c3e1146107415780634fd42e171461075457806351a485e41461076757600080fd5b80633bcf7ec11461067b5780633c94786f1461068e57806341c728b9146106a257806347ef3b3b146106d75780634a584432146106ea57600080fd5b806324008a6211610417578063317b0b77116103db578063317b0b771461060f57806331ff47fa1461062257806332abcdbe1461064b5780633605b51b14610660578063391957d71461066857600080fd5b806324008a62146105af57806324a3d622146105c257806326782247146105d55780632d70db78146105e85780632f1069ba146105fb57600080fd5b806318c882a51161045e57806318c882a5146105475780631d504dc61461055a5780631ededc911461056f57806321af4569146105845780632259192a1461059c57600080fd5b80627e3dd21461049a57806302c3bcbb146104b75780630a755ec2146104e557806315761d51146104f957806316dc15fe14610524575b600080fd5b6104a2600181565b60405190151581526020015b60405180910390f35b6104d76104c5366004615284565b601a6020526000908152604090205481565b6040519081526020016104ae565b6002546104a290600160a81b900460ff1681565b60005461050c906001600160a01b031681565b6040516001600160a01b0390911681526020016104ae565b6104a2610532366004615284565b600f6020526000908152604090205460ff1681565b6104a26105553660046152af565b610bb8565b61056d610568366004615284565b610ced565b005b61056d61057d3660046152e8565b5050505050565b60185461050c9061010090046001600160a01b031681565b6104d76105aa366004615343565b610faa565b6104d76105bd36600461537e565b610fb9565b60155461050c906001600160a01b031681565b60025461050c906001600160a01b031681565b6104a26105f63660046153cf565b610ff4565b6002546104a290600160a01b900460ff1681565b6104d761061d3660046153ec565b6110d7565b61050c610630366004615284565b6010602052600090815260409020546001600160a01b031681565b6106536111ab565b6040516104ae9190615405565b61065361120d565b61056d610676366004615284565b61126d565b6104a26106893660046152af565b611341565b6015546104a290600160a01b900460ff1681565b61056d6106b0366004615452565b50506001600160a01b03166000908152600f60205260409020805460ff1916600117905550565b61056d6106e5366004615498565b61145e565b6104d76106f8366004615284565b60196020526000908152604090205481565b6104d760075481565b610726610721366004615452565b611463565b604080519384526020840192909252908201526060016104ae565b6104d761074f366004615506565b6114a3565b6104d76107623660046153ec565b611876565b61056d61077536600461558c565b611932565b61056d610788366004615452565b611b15565b61050c61079b3660046153ec565b611b6a565b6104d76107ae366004615284565b611b94565b61056d6107c1366004615506565b505050565b61056d611c15565b6107266107dc366004615284565b611cab565b6104d76107ef366004615284565b611ce6565b6104d76108023660046155f8565b611d5a565b61056d61081536600461558c565b611f27565b61056d612101565b61056d61083036600461537e565b612195565b6104a2610843366004615284565b60176020526000908152604090205460ff1681565b61056d61057d3660046155f8565b6104a2610874366004615284565b60166020526000908152604090205460ff1681565b61050c6108973660046153ec565b61219a565b6104d76108aa36600461565c565b6121aa565b60055461050c906001600160a01b031681565b6104d76108d0366004615284565b612305565b6015546104a290600160b01b900460ff1681565b6109166108f7366004615284565b600a602052600090815260409020805460019091015460ff9091169082565b6040805192151583526020830191909152016104ae565b6104a261093b3660046153cf565b6126a7565b6104a261094e366004615688565b6001600160a01b038082166000908152600a60209081526040808320938616835260029093019052205460ff1692915050565b6104a261098f366004615284565b612781565b6104d76109a23660046153cf565b6128eb565b6104a26109b5366004615284565b60126020526000908152604090205460ff1681565b6104d76109d83660046156b6565b612969565b6106536109eb366004615284565b612adb565b6015546104a290600160b81b900460ff1681565b610653612b51565b6011546104a29060ff1681565b6104d7610a27366004615284565b612bb1565b60035461050c906001600160a01b031681565b6104d7610a4d36600461537e565b612da3565b610a65610a60366004615757565b612e28565b6040516104ae9190615810565b610a85610a80366004615506565b612ef0565b604080519283526020830191909152016104ae565b61050c610aa83660046153ec565b61310a565b6104d7610abb36600461558c565b61311a565b61056d6133c1565b6106536134a4565b6104d7610ade3660046155f8565b613504565b61050c610af13660046153ec565b61368d565b6104d7610b043660046153cf565b61369d565b6104d7610b17366004615506565b613710565b61050c610b2a36600461565c565b613ac1565b60045461050c906001600160a01b031681565b6018546104a29060ff1681565b6104d7610b5d36600461565c565b613af9565b6015546104a290600160a81b900460ff1681565b6104d760065481565b6104d7610b8d366004615506565b613c84565b6104d7610ba0366004615284565b613ca1565b60015461050c906001600160a01b031681565b6001600160a01b0382166000908152600a602052604081205460ff16610bf95760405162461bcd60e51b8152600401610bf090615848565b60405180910390fd5b6015546001600160a01b0316331480610c155750610c15614124565b610c315760405162461bcd60e51b8152600401610bf090615890565b610c39614124565b80610c4657506001821515145b610c625760405162461bcd60e51b8152600401610bf0906158d7565b6001600160a01b038316600081815260176020908152604091829020805460ff19168615159081179091558251938452606091840182905260069184019190915265426f72726f7760d01b6080840152908201527f71aec636243f9709bb0007ae15e9afb8150ab01716d75fd7573be5cc096e03b09060a0015b60405180910390a150805b92915050565b6000546001600160a01b031633148015610d645750806001600160a01b0316632f1069ba6040518163ffffffff1660e01b8152600401602060405180830381865afa158015610d40573d6000803e3d6000fd5b505050506040513d601f19601f82011682018060405250810190610d649190615907565b80610e495750806001600160a01b031663f851a4406040518163ffffffff1660e01b8152600401602060405180830381865afa158015610da8573d6000803e3d6000fd5b505050506040513d601f19601f82011682018060405250810190610dcc9190615924565b6001600160a01b0316336001600160a01b0316148015610e495750806001600160a01b0316630a755ec26040518163ffffffff1660e01b8152600401602060405180830381865afa158015610e25573d6000803e3d6000fd5b505050506040513d601f19601f82011682018060405250810190610e499190615907565b610ea55760405162461bcd60e51b815260206004820152602760248201527f6f6e6c7920756e6974726f6c6c65722061646d696e2063616e206368616e676560448201526620627261696e7360c81b6064820152608401610bf0565b6000816001600160a01b031663c1e803346040518163ffffffff1660e01b81526004016020604051808303816000875af1158015610ee7573d6000803e3d6000fd5b505050506040513d601f19601f82011682018060405250810190610f0b9190615941565b90508015610f535760405162461bcd60e51b815260206004820152601560248201527418da185b99d9481b9bdd08185d5d1a1bdc9a5e9959605a1b6044820152606401610bf0565b816001600160a01b0316635d72de626040518163ffffffff1660e01b8152600401600060405180830381600087803b158015610f8e57600080fd5b505af1158015610fa2573d6000803e3d6000fd5b505050505050565b6000805b90505b949350505050565b6001600160a01b0384166000908152600a602052604081205460ff16610fe35760095b9050610fb1565b610fed8584614178565b6000610fae565b6015546000906001600160a01b03163314806110135750611013614124565b61102f5760405162461bcd60e51b8152600401610bf090615890565b611037614124565b8061104457506001821515145b6110605760405162461bcd60e51b8152600401610bf0906158d7565b60158054831515600160b81b0260ff60b81b199091161790556040517fef159d9a32b2472e32b098f954f3ce62d232939f1c207070b584df1814de2de0906110cb9084906040808252600590820152645365697a6560d81b6060820152901515602082015260800190565b60405180910390a15090565b60006110e1614124565b6110f157610ce76001600761421b565b6040805160208082018352848252825190810190925266b1a2bc2ec5000080835281519192911161112857610fb16005600861421b565b6040805160208101909152670c7d713b49da00008082528351111561115c576111536005600861421b565b95945050505050565b600680549086905560408051828152602081018890527f3b9670cf975d26958e754b57098eaa2ac914d8d2a31b83257997b9f346110fd991015b60405180910390a160005b9695505050505050565b6060600d80548060200260200160405190810160405280929190818152602001828054801561120357602002820191906000526020600020905b81546001600160a01b031681526001909101906020018083116111e5575b5050505050905090565b6060601b805480602002602001604051908101604052809291908181526020018280548015611203576020028201919060005260206000209081546001600160a01b031681526001909101906020018083116111e5575050505050905090565b6001546001600160a01b031633146112d65760405162461bcd60e51b815260206004820152602660248201527f6f6e6c792061646d696e2063616e2073657420626f72726f772063617020677560448201526530b93234b0b760d11b6064820152608401610bf0565b601880546001600160a01b03838116610100818102610100600160a81b031985161790945560408051949093049091168084526020840191909152917feda98690e518e9a05f8ec6837663e188211b2da8f4906648b323f2c1d4434e29910160405180910390a15050565b6001600160a01b0382166000908152600a602052604081205460ff166113795760405162461bcd60e51b8152600401610bf090615848565b6015546001600160a01b03163314806113955750611395614124565b6113b15760405162461bcd60e51b8152600401610bf090615890565b6113b9614124565b806113c657506001821515145b6113e25760405162461bcd60e51b8152600401610bf0906158d7565b6001600160a01b038316600081815260166020908152604091829020805460ff19168615159081179091558251938452606091840182905260049184019190915263135a5b9d60e21b6080840152908201527f71aec636243f9709bb0007ae15e9afb8150ab01716d75fd7573be5cc096e03b09060a001610cdc565b610fa2565b6000806000806000806114788a8a8a8a614294565b9250925092508260158111156114905761149061595a565b95509093509150505b9450945094915050565b6001600160a01b03831660009081526016602052604081205460ff16156114fd5760405162461bcd60e51b815260206004820152600e60248201526d1b5a5b9d081a5cc81c185d5cd95960921b6044820152606401610bf0565b6001600160a01b0384166000908152600a602052604090205460ff166115275760095b905061186f565b60115460ff16801561155257506001600160a01b03831660009081526012602052604090205460ff16155b1561155e576012611520565b6001600160a01b0384166000908152601a6020526040902054801561185e576000856001600160a01b0316633b1d21a26040518163ffffffff1660e01b8152600401602060405180830381865afa1580156115bd573d6000803e3d6000fd5b505050506040513d601f19601f820116820180604052508101906115e19190615941565b90506000866001600160a01b03166347bd37186040518163ffffffff1660e01b8152600401602060405180830381865afa158015611623573d6000803e3d6000fd5b505050506040513d601f19601f820116820180604052508101906116479190615941565b90506000876001600160a01b0316638f840ddd6040518163ffffffff1660e01b8152600401602060405180830381865afa158015611689573d6000803e3d6000fd5b505050506040513d601f19601f820116820180604052508101906116ad9190615941565b90506000886001600160a01b031663dc028ab16040518163ffffffff1660e01b8152600401602060405180830381865afa1580156116ef573d6000803e3d6000fd5b505050506040513d601f19601f820116820180604052508101906117139190615941565b90506000896001600160a01b03166361feacff6040518163ffffffff1660e01b8152600401602060405180830381865afa158015611755573d6000803e3d6000fd5b505050506040513d601f19601f820116820180604052508101906117799190615941565b905060008061179b878761179661179089896145c5565b876145c5565b6145fb565b909250905060008260038111156117b4576117b461595a565b146117ca57600b9850505050505050505061186f565b60006117d6828c61464d565b909350905060008360038111156117ef576117ef61595a565b1461180657600b995050505050505050505061186f565b8881106118555760405162461bcd60e51b815260206004820152601960248201527f6d61726b657420737570706c79206361702072656163686564000000000000006044820152606401610bf0565b50505050505050505b6118688585614680565b60005b9150505b9392505050565b6000611880614124565b61189057610ce76001600d61421b565b60408051602080820183528482528251908101909252670de0b6b3a7640000808352815191929110156118c957610fb16007600e61421b565b60408051602081019091526714d1120d7b160000808252835111156118f4576111536007600e61421b565b600780549086905560408051828152602081018890527faeba5a6c40a8ac138134bff1aaa65debf25971188a58804bad717f82f0ec13169101611196565b6001546001600160a01b031633148061195a575060185461010090046001600160a01b031633145b6119c45760405162461bcd60e51b815260206004820152603560248201527f6f6e6c792061646d696e206f7220626f72726f772063617020677561726469616044820152746e2063616e2073657420737570706c79206361707360581b6064820152608401610bf0565b828181158015906119d457508082145b611a105760405162461bcd60e51b815260206004820152600d60248201526c1a5b9d985b1a59081a5b9c1d5d609a1b6044820152606401610bf0565b60005b82811015611b0c57848482818110611a2d57611a2d615970565b90506020020135601a6000898985818110611a4a57611a4a615970565b9050602002016020810190611a5f9190615284565b6001600160a01b03168152602081019190915260400160002055868682818110611a8b57611a8b615970565b9050602002016020810190611aa09190615284565b6001600160a01b03167f9e0ad9cee10bdf36b7fbd38910c0bdff0f275ace679b45b922381c2723d676f8868684818110611adc57611adc615970565b90506020020135604051611af291815260200190565b60405180910390a280611b048161599c565b915050611a13565b50505050505050565b80158015611b235750600082115b15611b645760405162461bcd60e51b815260206004820152601160248201527072656465656d546f6b656e73207a65726f60781b6044820152606401610bf0565b50505050565b600b8181548110611b7a57600080fd5b6000918252602090912001546001600160a01b0316905081565b6000611b9e614124565b611bae57610ce76001601361421b565b600580546001600160a01b038481166001600160a01b031983168117909355604080519190921680825260208201939093527fd52b2b9b7e9ee655fcb95d2e5b9e0c9f69e7ef2b8e9d2d0ea78402d576d22e2291015b60405180910390a160009392505050565b6003546001600160a01b03163314611c8a5760405162461bcd60e51b815260206004820152603260248201527f6f6e6c7920696d706c656d656e746174696f6e206d61792063616c6c205f626560448201527131b7b6b2a4b6b83632b6b2b73a30ba34b7b760711b6064820152608401610bf0565b601c54610100900460ff16611ca957601c805461ffff19166101011790555b565b600080600080600080611cc2876000806000614294565b925092509250826015811115611cda57611cda61595a565b97919650945092505050565b6000611cf0614124565b611d0057610ce76001601861421b565b601580546001600160a01b038481166001600160a01b031983168117909355604080519190921680825260208201939093527f0613b6ee6a04f0d09f390e4d9318894b9f6ac7fd83897cd8d18896ba579c401e9101611c04565b6001600160a01b0385166000908152600a602052604081205460ff161580611d9b57506001600160a01b0385166000908152600a602052604090205460ff16155b15611daa5760095b9050611153565b6040516395dd919360e01b81526001600160a01b038481166004830152600091908816906395dd919390602401602060405180830381865afa158015611df4573d6000803e3d6000fd5b505050506040513d601f19601f82011682018060405250810190611e189190615941565b9050611e2387612781565b15611e8e5782811015611e895760405162461bcd60e51b815260206004820152602860248201527f43616e206e6f74207265706179206d6f7265207468616e2074686520746f74616044820152676c20626f72726f7760c01b6064820152608401610bf0565b611f1a565b600080611e9a86614722565b91935090915060009050826015811115611eb657611eb661595a565b14611ed757816015811115611ecd57611ecd61595a565b9350505050611153565b80611ee3576003611ecd565b6000611eff604051806020016040528060065481525085614742565b905080861115611f16576011945050505050611153565b5050505b5060009695505050505050565b6001546001600160a01b0316331480611f4f575060185461010090046001600160a01b031633145b611fb95760405162461bcd60e51b815260206004820152603560248201527f6f6e6c792061646d696e206f7220626f72726f772063617020677561726469616044820152746e2063616e2073657420626f72726f77206361707360581b6064820152608401610bf0565b82818115801590611fc957508082145b6120055760405162461bcd60e51b815260206004820152600d60248201526c1a5b9d985b1a59081a5b9c1d5d609a1b6044820152606401610bf0565b60005b82811015611b0c5784848281811061202257612022615970565b905060200201356019600089898581811061203f5761203f615970565b90506020020160208101906120549190615284565b6001600160a01b0316815260208101919091526040016000205586868281811061208057612080615970565b90506020020160208101906120959190615284565b6001600160a01b03167f6f1951b2aad10f3fc81b86d91105b413a5b3f847a34bbc5ce1904201b14438f68686848181106120d1576120d1615970565b905060200201356040516120e791815260200190565b60405180910390a2806120f98161599c565b915050612008565b336000908152600a602052604090205460ff166121865760405162461bcd60e51b815260206004820152603b60248201527f436f6d7074726f6c6c65723a5f61667465724e6f6e5265656e7472616e743a2060448201527f63616c6c6572206e6f74206c6973746564206173206d61726b657400000000006064820152608401610bf0565b601c805460ff19166001179055565b611b64565b600d8181548110611b7a57600080fd5b600080546040805163fdb25fb160e01b8152905183926001600160a01b03169163fdb25fb19160048083019260209291908290030181865afa1580156121f4573d6000803e3d6000fd5b505050506040513d601f19601f820116820180604052508101906122189190615941565b905080156122fb5760055460405163fc57d4df60e01b81526001600160a01b038681166004830152600092169063fc57d4df90602401602060405180830381865afa15801561226b573d6000803e3d6000fd5b505050506040513d601f19601f8201168201806040525081019061228f9190615941565b9050806122a157600d92505050610ce7565b6000806122bc6040518060200160405280858152508761475a565b909250905060008260038111156122d5576122d561595a565b146122e857600b5b945050505050610ce7565b838110156122f75760136122dd565b5050505b6000949350505050565b600061230f614124565b61231f57610ce76001601961421b565b6001600160a01b0382166000908152600a602052604090205460ff1661234b57610ce76009601a61421b565b6000826001600160a01b03166318160ddd6040518163ffffffff1660e01b8152600401602060405180830381865afa15801561238b573d6000803e3d6000fd5b505050506040513d601f19601f820116820180604052508101906123af9190615941565b11156123c157610ce76015601b61421b565b6001600160a01b0382166000908152600a60209081526040808320805460ff19168155600101839055600b8054825181850281018501909352808352919290919083018282801561243b57602002820191906000526020600020905b81546001600160a01b0316815260019091019060200180831161241d575b5050835193945083925060009150505b828110156124a057856001600160a01b031684828151811061246f5761246f615970565b60200260200101516001600160a01b0316141561248e578091506124a0565b806124988161599c565b91505061244b565b508181106124b0576124b06159b7565b600b80546124c0906001906159cd565b815481106124d0576124d0615970565b600091825260209091200154600b80546001600160a01b0390921691839081106124fc576124fc615970565b9060005260206000200160006101000a8154816001600160a01b0302191690836001600160a01b03160217905550600b80548061253b5761253b6159e4565b6001900381819060005260206000200160006101000a8154906001600160a01b0302191690559055600060106000876001600160a01b031663ac784ddc6040518163ffffffff1660e01b81526004016020604051808303816000875af11580156125a9573d6000803e3d6000fd5b505050506040513d601f19601f820116820180604052508101906125cd9190615907565b61263857876001600160a01b0316636f307dc36040518163ffffffff1660e01b8152600401602060405180830381865afa15801561260f573d6000803e3d6000fd5b505050506040513d601f19601f820116820180604052508101906126339190615924565b61263b565b60005b6001600160a01b039081168252602080830193909352604091820160002080546001600160a01b031916948216949094179093555191871682527f302feb03efd5741df80efe7f97f5d93d74d46a542a3d312d0faae64fa1f3e0e9910160405180910390a16000611153565b6015546000906001600160a01b03163314806126c657506126c6614124565b6126e25760405162461bcd60e51b8152600401610bf090615890565b6126ea614124565b806126f757506001821515145b6127135760405162461bcd60e51b8152600401610bf0906158d7565b60158054831515600160b01b0260ff60b01b199091161790556040517fef159d9a32b2472e32b098f954f3ce62d232939f1c207070b584df1814de2de0906110cb9084906040808252600890820152672a3930b739b332b960c11b6060820152901515602082015260800190565b6001600160a01b0381166000908152600a60205260408120600101541580156127c757506001600160a01b03821660009081526017602052604090205460ff1615156001145b8015610ce757506128db61289d836001600160a01b031663173b99046040518163ffffffff1660e01b8152600401602060405180830381865afa158015612812573d6000803e3d6000fd5b505050506040513d601f19601f820116820180604052508101906128369190615941565b846001600160a01b0316638d02d9a16040518163ffffffff1660e01b8152600401602060405180830381865afa158015612874573d6000803e3d6000fd5b505050506040513d601f19601f820116820180604052508101906128989190615941565b6145c5565b836001600160a01b031663dbfe7c196040518163ffffffff1660e01b8152600401602060405180830381865afa158015612874573d6000803e3d6000fd5b670de0b6b3a76400001492915050565b60006128f5614124565b61290557610ce76001601461421b565b60115460ff161515821515141561291d576000610ce7565b6011805460ff19168315159081179091556040519081527f84c7d948374a180eddab35d27d2f7a94167a1ff4e79467f1e89c061984190a1e906020015b60405180910390a16000610ce7565b6000612973614124565b61298357610fdc6001601761421b565b60028054600160a01b60ff60a01b19821681179092550460ff16600086612a1e57600054604051638754e4fd60e01b81526001600160a01b0390911690638754e4fd906129d690899089906004016159fa565b6020604051808303816000875af11580156129f5573d6000803e3d6000fd5b505050506040513d601f19601f82011682018060405250810190612a199190615924565b612a93565b600054604051639b86a9b560e01b81526001600160a01b0390911690639b86a9b590612a5090899089906004016159fa565b6020604051808303816000875af1158015612a6f573d6000803e3d6000fd5b505050506040513d601f19601f82011682018060405250810190612a939190615924565b6002805460ff60a01b1916600160a01b8515150217905590506000612ab7826147ac565b90508015612ac55780612acf565b612acf8286613af9565b98975050505050505050565b6001600160a01b0381166000908152600960209081526040808320805482518185028101850190935280835260609493830182828015612b4457602002820191906000526020600020905b81546001600160a01b03168152600190910190602001808311612b26575b5093979650505050505050565b6060600b805480602002602001604051908101604052809291908181526020018280548015611203576020028201919060005260206000209081546001600160a01b031681526001909101906020018083116111e5575050505050905090565b6000612bbb614124565b612bcb57610ce76001600261421b565b816001600160a01b031663abc6d72d6040518163ffffffff1660e01b8152600401602060405180830381865afa158015612c09573d6000803e3d6000fd5b505050506040513d601f19601f82011682018060405250810190612c2d9190615907565b612c795760405162461bcd60e51b815260206004820152601c60248201527f6d61726b6572206d6574686f642072657475726e65642066616c7365000000006044820152606401610bf0565b60005b601b54811015612d2457601b8181548110612c9957612c99615970565b6000918252602090912001546001600160a01b0384811691161415612d125760405162461bcd60e51b815260206004820152602960248201527f526577617264734469737472696275746f7220636f6e747261637420616c726560448201526818591e48185919195960ba1b6064820152608401610bf0565b80612d1c8161599c565b915050612c7c565b50601b80546001810182556000919091527f3ad8aa4f87544323a9d1e5dd902f40c356527a7955687113db5f9a85ad579dc10180546001600160a01b0319166001600160a01b0384169081179091556040519081527f98ef1187fb6fd2bc85f8996489877eb2b5428f9e9bdfc068c9ad6c2ea82eacc79060200161295a565b601554600090600160b01b900460ff1615612df55760405162461bcd60e51b81526020600482015260126024820152711d1c985b9cd9995c881a5cc81c185d5cd95960721b6044820152606401610bf0565b6000612e02868685614b42565b90508015612e11579050610fb1565b612e1c868686614bfa565b60009695505050505050565b805160609060008167ffffffffffffffff811115612e4857612e48615741565b604051908082528060200260200182016040528015612e71578160200160208202803683370190505b50905060005b82811015612ee8576000858281518110612e9357612e93615970565b60200260200101519050612ea78133614ca5565b6015811115612eb857612eb861595a565b838381518110612eca57612eca615970565b60209081029190910101525080612ee08161599c565b915050612e77565b509392505050565b60055460405163fc57d4df60e01b81526001600160a01b038581166004830152600092839283929091169063fc57d4df90602401602060405180830381865afa158015612f41573d6000803e3d6000fd5b505050506040513d601f19601f82011682018060405250810190612f659190615941565b60055460405163fc57d4df60e01b81526001600160a01b0388811660048301529293506000929091169063fc57d4df90602401602060405180830381865afa158015612fb5573d6000803e3d6000fd5b505050506040513d601f19601f82011682018060405250810190612fd99190615941565b9050811580612fe6575080155b15612ffa57600d6000935093505050613102565b6000866001600160a01b031663182df0f56040518163ffffffff1660e01b8152600401602060405180830381865afa15801561303a573d6000803e3d6000fd5b505050506040513d601f19601f8201168201806040525081019061305e9190615941565b905060006130786040518060200160405280600081525090565b6040805160208082018352600080835283518083018552908152835180830185526007548152845192830190945288825291926130b491614e40565b92506130dc604051806020016040528088815250604051806020016040528088815250614e40565b91506130e88383614e88565b90506130f4818b614742565b600099509750505050505050505b935093915050565b601b8181548110611b7a57600080fd5b6000613124614124565b61313457610fdc6001601561421b565b60005b848110156133b957600086868381811061315357613153615970565b90506020020160208101906131689190615284565b905084848381811061317c5761317c615970565b905060200201602081019061319191906153cf565b15613249576001600160a01b03811660009081526012602052604090205460ff16613244576001600160a01b0381166000818152601260205260408120805460ff19166001908117909155601380548083018255928190527f66de8ffda797e3de9c05e8fc57b3bf0ec28a930d40b0d285d93c06501cf6a09090920180546001600160a01b0319169093179092555461322a91906159cd565b6001600160a01b0382166000908152601460205260409020555b6133a6565b6001600160a01b03811660009081526012602052604090205460ff16156133a6576013805461327a906001906159cd565b8154811061328a5761328a615970565b60009182526020808320909101546001600160a01b03848116845260149092526040909220546013805492909316929181106132c8576132c8615970565b9060005260206000200160006101000a8154816001600160a01b0302191690836001600160a01b031602179055506013805480613307576133076159e4565b60008281526020808220830160001990810180546001600160a01b03191690559092019092556001600160a01b03831682526014908190526040822054601380549193918490811061335b5761335b615970565b60009182526020808320909101546001600160a01b039081168452838201949094526040928301822094909455918416825260148352808220829055601290925220805460ff191690555b50806133b18161599c565b915050613137565b506000610fae565b336000908152600a602052604090205460ff166134465760405162461bcd60e51b815260206004820152603c60248201527f436f6d7074726f6c6c65723a5f6265666f72654e6f6e5265656e7472616e743a60448201527f2063616c6c6572206e6f74206c6973746564206173206d61726b6574000000006064820152608401610bf0565b601c5460ff166134985760405162461bcd60e51b815260206004820152601860248201527f72652d656e7465726564206163726f73732061737365747300000000000000006044820152606401610bf0565b601c805460ff19169055565b60606013805480602002602001604051908101604052809291908181526020018280548015611203576020028201919060005260206000209081546001600160a01b031681526001909101906020018083116111e5575050505050905090565b601554600090600160b81b900460ff16156135535760405162461bcd60e51b815260206004820152600f60248201526e1cd95a5e99481a5cc81c185d5cd959608a1b6044820152606401610bf0565b6001600160a01b0386166000908152600a602052604090205460ff16158061359457506001600160a01b0385166000908152600a602052604090205460ff16155b156135a0576009611da3565b846001600160a01b0316635fe3b5676040518163ffffffff1660e01b8152600401602060405180830381865afa1580156135de573d6000803e3d6000fd5b505050506040513d601f19601f820116820180604052508101906136029190615924565b6001600160a01b0316866001600160a01b0316635fe3b5676040518163ffffffff1660e01b8152600401602060405180830381865afa158015613649573d6000803e3d6000fd5b505050506040513d601f19601f8201168201806040525081019061366d9190615924565b6001600160a01b031614613682576002611da3565b612e1c868486614bfa565b60138181548110611b7a57600080fd5b60006136a7614124565b6136b757610ce76001600661421b565b60185460ff16151582151514156136cf576000610ce7565b6018805460ff19168315159081179091556040519081527faa40ee94af55250363b91641a0a615c47690148901505f89b01dafae03fff2819060200161295a565b6001600160a01b03831660009081526017602052604081205460ff161561376c5760405162461bcd60e51b815260206004820152601060248201526f189bdc9c9bddc81a5cc81c185d5cd95960821b6044820152606401610bf0565b6001600160a01b0384166000908152600a602052604090205460ff16613793576009611520565b6001600160a01b038085166000908152600a60209081526040808320938716835260029093019052205460ff1661389057336001600160a01b038516146138145760405162461bcd60e51b815260206004820152601560248201527439b2b73232b91036bab9ba1031329031aa37b5b2b760591b6044820152606401610bf0565b60006138203385614ca5565b905060008160158111156138365761383661595a565b146138555780601581111561384d5761384d61595a565b91505061186f565b6001600160a01b038086166000908152600a60209081526040808320938816835260029093019052205460ff1661388e5761388e6159b7565b505b60055460405163fc57d4df60e01b81526001600160a01b0386811660048301529091169063fc57d4df90602401602060405180830381865afa1580156138da573d6000803e3d6000fd5b505050506040513d601f19601f820116820180604052508101906138fe9190615941565b61390957600d611520565b60115460ff16801561393457506001600160a01b03831660009081526012602052604090205460ff16155b15613940576012611520565b6001600160a01b0384166000908152601960205260409020548015613a50576000856001600160a01b03166347bd37186040518163ffffffff1660e01b8152600401602060405180830381865afa15801561399f573d6000803e3d6000fd5b505050506040513d601f19601f820116820180604052508101906139c39190615941565b90506000806139d2838761464d565b909250905060008260038111156139eb576139eb61595a565b146139fd57600b94505050505061186f565b838110613a4c5760405162461bcd60e51b815260206004820152601960248201527f6d61726b657420626f72726f77206361702072656163686564000000000000006044820152606401610bf0565b5050505b613a5a8585614178565b600080613a6a8688600088614294565b91935090915060009050826015811115613a8657613a8661595a565b14613aa757816015811115613a9d57613a9d61595a565b935050505061186f565b8015613ab4576004613a9d565b6000979650505050505050565b60096020528160005260406000208181548110613add57600080fd5b6000918252602090912001546001600160a01b03169150829050565b6000613b03614124565b613b1a57613b136001600961421b565b9050610ce7565b6001600160a01b0383166000908152600a60205260409020805460ff16613b4f57613b476009600a61421b565b915050610ce7565b60408051602080820183528582528251908101909252670c7d713b49da0000825290613b7d81835190511090565b15613b9857613b8e6006600b61421b565b9350505050610ce7565b8415801590613c12575060055460405163fc57d4df60e01b81526001600160a01b0388811660048301529091169063fc57d4df90602401602060405180830381865afa158015613bec573d6000803e3d6000fd5b505050506040513d601f19601f82011682018060405250810190613c109190615941565b155b15613c2357613b8e600d600c61421b565b60018301805490869055604080516001600160a01b0389168152602081018390529081018790527f70483e6592cd5182d45ac970e05bc62cdcc90e9d8ef2c2dbe686cf383bcd7fc59060600160405180910390a16000979650505050505050565b600080613c92858585614b42565b9050801561185e57905061186f565b6040516361bfb47160e11b815233600482015260009082908290819081906001600160a01b0385169063c37f68e290602401608060405180830381865afa158015613cf0573d6000803e3d6000fd5b505050506040513d601f19601f82011682018060405250810190613d149190615a29565b5092509250925082600014613d795760405162461bcd60e51b815260206004820152602560248201527f657869744d61726b65743a206765744163636f756e74536e617073686f742066604482015264185a5b195960da1b6064820152608401610bf0565b8015613d8b576111a1600c600361421b565b6000613d98873385614b42565b90508015613db857613dad600e600483614ec2565b979650505050505050565b6001600160a01b0385166000908152600a60209081526040808320338452600281019092529091205460ff16613df657600098975050505050505050565b3360009081526002820160209081526040808320805460ff191690556009825280832080548251818502810185019093528083529192909190830182828015613e6857602002820191906000526020600020905b81546001600160a01b03168152600190910190602001808311613e4a575b5050835193945083925060009150505b82811015613ecd57896001600160a01b0316848281518110613e9c57613e9c615970565b60200260200101516001600160a01b03161415613ebb57809150613ecd565b80613ec58161599c565b915050613e78565b50818110613edd57613edd6159b7565b33600090815260096020526040902080548190613efc906001906159cd565b81548110613f0c57613f0c615970565b9060005260206000200160009054906101000a90046001600160a01b0316818381548110613f3c57613f3c615970565b9060005260206000200160006101000a8154816001600160a01b0302191690836001600160a01b0316021790555080805480613f7a57613f7a6159e4565b600082815260209020810160001990810180546001600160a01b031916905501905580546140d157600d8054613fb2906001906159cd565b81548110613fc257613fc2615970565b6000918252602080832090910154338352600e909152604090912054600d80546001600160a01b03909316929091908110613fff57613fff615970565b9060005260206000200160006101000a8154816001600160a01b0302191690836001600160a01b03160217905550600d80548061403e5761403e6159e4565b60008281526020808220830160001990810180546001600160a01b0319169055909201909255338252600e908190526040822054600d80549193918490811061408957614089615970565b60009182526020808320909101546001600160a01b03168352828101939093526040918201812093909355338352600e8252808320839055600c9091529020805460ff191690555b604080516001600160a01b038c1681523360208201527fe699a64c18b07ac5b7301aa273f36a2287239eb9501d81950672794afba29a0d910160405180910390a160009c9b505050505050505050505050565b6001546000906001600160a01b03163314801561414a5750600254600160a81b900460ff165b8061417357506000546001600160a01b0316331480156141735750600254600160a01b900460ff165b905090565b60005b601b548110156107c157601b818154811061419857614198615970565b600091825260209091200154604051631cdc2c5d60e31b81526001600160a01b03858116600483015284811660248301529091169063e6e162e890604401600060405180830381600087803b1580156141f057600080fd5b505af1158015614204573d6000803e3d6000fd5b5050505080806142139061599c565b91505061417b565b60007f45b96fe442630264581b197e84bbada861235052c5a1aadfff9ea4e40a969aa08360158111156142505761425061595a565b83601b8111156142625761426261595a565b60408051928352602083019190915260009082015260600160405180910390a182601581111561186f5761186f61595a565b60008060006142a16151ba565b6001600160a01b03881660009081526009602090815260408083208054825181850281018501909352808352849383018282801561430857602002820191906000526020600020905b81546001600160a01b031681526001909101906020018083116142ea575b5050505050905060005b815181101561456f57600082828151811061432f5761432f615970565b60209081029190910101516040516361bfb47160e11b81526001600160a01b038e811660048301529192509082169063c37f68e290602401608060405180830381865afa158015614384573d6000803e3d6000fd5b505050506040513d601f19601f820116820180604052508101906143a89190615a29565b608089015260608801526040870152935083156143d457600f6000809750975097505050505050611499565b60408051602080820183526001600160a01b038481166000818152600a845285902060010154845260c08a0193909352835191820184526080890151825260e0890191909152600554925163fc57d4df60e01b81526004810192909252919091169063fc57d4df90602401602060405180830381865afa15801561445c573d6000803e3d6000fd5b505050506040513d601f19601f820116820180604052508101906144809190615941565b60a086018190526144a057600d6000809750975097505050505050611499565b604080516020810190915260a0860151815261010086015260c085015160e08601516144da916144cf91614e40565b866101000151614e40565b6101208601819052604086015186516144f4929190614f3a565b855261010085015160608601516020870151614511929190614f3a565b60208601526001600160a01b03818116908c16141561455c5761453e8561012001518b8760200151614f3a565b60208601819052610100860151614556918b90614f3a565b60208601525b50806145678161599c565b915050614312565b506020830151835111156145a05760208301518351600091614590916159cd565b6000955095509550505050611499565b600080846000015185602001516145b791906159cd565b955095509550505050611499565b600061186f8383604051806040016040528060118152602001706164646974696f6e206f766572666c6f7760781b815250614f5b565b60008060008061460b878761464d565b909250905060008260038111156146245761462461595a565b146146355750915060009050613102565b61463f8186614f95565b935093505050935093915050565b6000808061465b8486615a5f565b905084811061466f57600092509050614679565b6002600092509250505b9250929050565b60005b601b548110156107c157601b81815481106146a0576146a0615970565b60009182526020909120015460405162e48b0f60e51b81526001600160a01b038581166004830152848116602483015290911690631c9161e090604401600060405180830381600087803b1580156146f757600080fd5b505af115801561470b573d6000803e3d6000fd5b50505050808061471a9061599c565b915050614683565b6000806000614735846000806000614294565b9250925092509193909250565b60008061474f8484614fc0565b9050610fb181614fe8565b60008060008061476a8686615000565b909250905060008260038111156147835761478361595a565b146147945750915060009050614679565b600061479f82614fe8565b9350935050509250929050565b60006147b6614124565b6147c657610ce76001601761421b565b6001600160a01b0382166000908152600a602052604090205460ff16156147f357610ce7600a601661421b565b816001600160a01b031663fe9c44ae6040518163ffffffff1660e01b81526004016020604051808303816000875af1158015614833573d6000803e3d6000fd5b505050506040513d601f19601f820116820180604052508101906148579190615907565b6148a35760405162461bcd60e51b815260206004820152601c60248201527f6d61726b6572206d6574686f642072657475726e65642066616c7365000000006044820152606401610bf0565b306001600160a01b0316826001600160a01b0316635fe3b5676040518163ffffffff1660e01b8152600401602060405180830381865afa1580156148eb573d6000803e3d6000fd5b505050506040513d601f19601f8201168201806040525081019061490f9190615924565b6001600160a01b0316146149835760405162461bcd60e51b815260206004820152603560248201527f43616e6e6f7420737570706f72742061206d61726b657420776974682061206460448201527434b33332b932b73a1021b7b6b83a3937b63632b91760591b6064820152608401610bf0565b6000826001600160a01b031663ac784ddc6040518163ffffffff1660e01b81526004016020604051808303816000875af11580156149c5573d6000803e3d6000fd5b505050506040513d601f19601f820116820180604052508101906149e99190615907565b614a5457826001600160a01b0316636f307dc36040518163ffffffff1660e01b8152600401602060405180830381865afa158015614a2b573d6000803e3d6000fd5b505050506040513d601f19601f82011682018060405250810190614a4f9190615924565b614a57565b60005b6001600160a01b038082166000908152601060205260409020549192501615614a865761186f600a601661421b565b6001600160a01b038381166000818152600a60209081526040808320805460ff191660019081178255808201859055600b805491820190557f0175b7a638427703f0dbe7bb9bbf987a2551717b34e79f33b5b1008d1fa01db90180546001600160a01b0319908116871790915595871684526010835292819020805490951684179094559251918252917fcf583bb0c569eb967f806b11601c4cb93c10310485c67add5f8362c2f212321f910160405180910390a16000610fb1565b6001600160a01b0383166000908152600a602052604081205460ff16614b69576009611520565b6001600160a01b038085166000908152600a60209081526040808320938716835260029093019052205460ff16614ba1576000611520565b600080614bb18587866000614294565b91935090915060009050826015811115614bcd57614bcd61595a565b14614bed57816015811115614be457614be461595a565b9250505061186f565b8015612e1c576004614be4565b60005b601b54811015611b6457601b8181548110614c1a57614c1a615970565b600091825260209091200154604051634e081c9560e01b81526001600160a01b0386811660048301528581166024830152848116604483015290911690634e081c9590606401600060405180830381600087803b158015614c7a57600080fd5b505af1158015614c8e573d6000803e3d6000fd5b505050508080614c9d9061599c565b915050614bfd565b6001600160a01b0382166000908152600a60205260408120805460ff16614cd0576009915050610ce7565b6001600160a01b038316600090815260028201602052604090205460ff16151560011415614d02576000915050610ce7565b6001600160a01b03838116600081815260028401602090815260408083208054600160ff199091168117909155600983528184208054918201815584528284200180546001600160a01b031916958a1695909517909455918152600c909152205460ff16614df357600d8054600180820183557fd7b6990105719101dabeb77144f2a3385c8033acd3af97e9423a695e81ad1eb590910180546001600160a01b0319166001600160a01b0387169081179091556000908152600c60205260409020805460ff1916821790559054614dd991906159cd565b6001600160a01b0384166000908152600e60205260409020555b604080516001600160a01b038087168252851660208201527f3ab23ab0d51cccc0c3085aec51f99228625aa1a922b3a8ca89a26b0f2027a1a5910160405180910390a15060009392505050565b6040805160208101909152600081526040518060200160405280670de0b6b3a7640000614e758660000151866000015161507c565b614e7f9190615a77565b90529392505050565b6040805160208101909152600081526040518060200160405280614e7f614ebb8660000151670de0b6b3a764000061507c565b85516150be565b60007f45b96fe442630264581b197e84bbada861235052c5a1aadfff9ea4e40a969aa0846015811115614ef757614ef761595a565b84601b811115614f0957614f0961595a565b604080519283526020830191909152810184905260600160405180910390a1836015811115610fb157610fb161595a565b600080614f478585614fc0565b905061186b614f5582614fe8565b846145c5565b600080614f688486615a5f565b90508285821015614f8c5760405162461bcd60e51b8152600401610bf09190615a99565b50949350505050565b600080838311614fb4576000614fab84866159cd565b91509150614679565b50600390506000614679565b6040805160208101909152600081526040518060200160405280614e7f85600001518561507c565b8051600090610ce790670de0b6b3a764000090615a77565b60006150186040518060200160405280600081525090565b6000806150298660000151866150f1565b909250905060008260038111156150425761504261595a565b1461506157506040805160208101909152600081529092509050614679565b60408051602081019091529081526000969095509350505050565b600061186f83836040518060400160405280601781526020017f6d756c7469706c69636174696f6e206f766572666c6f7700000000000000000081525061513b565b600061186f83836040518060400160405280600e81526020016d646976696465206279207a65726f60901b81525061518e565b6000808361510457506000905080614679565b60006151108486615aee565b90508361511d8683615a77565b1461513057600260009250925050614679565b600092509050614679565b6000831580615148575082155b156151555750600061186f565b60006151618486615aee565b90508361516e8683615a77565b148390614f8c5760405162461bcd60e51b8152600401610bf09190615a99565b600081836151af5760405162461bcd60e51b8152600401610bf09190615a99565b50610fb18385615a77565b6040518061014001604052806000815260200160008152602001600081526020016000815260200160008152602001600081526020016152066040518060200160405280600081525090565b81526020016152216040518060200160405280600081525090565b815260200161523c6040518060200160405280600081525090565b81526020016152576040518060200160405280600081525090565b905290565b6001600160a01b038116811461527157600080fd5b50565b803561527f8161525c565b919050565b60006020828403121561529657600080fd5b813561186f8161525c565b801515811461527157600080fd5b600080604083850312156152c257600080fd5b82356152cd8161525c565b915060208301356152dd816152a1565b809150509250929050565b600080600080600060a0868803121561530057600080fd5b853561530b8161525c565b9450602086013561531b8161525c565b9350604086013561532b8161525c565b94979396509394606081013594506080013592915050565b6000806000806080858703121561535957600080fd5b84356153648161525c565b966020860135965060408601359560600135945092505050565b6000806000806080858703121561539457600080fd5b843561539f8161525c565b935060208501356153af8161525c565b925060408501356153bf8161525c565b9396929550929360600135925050565b6000602082840312156153e157600080fd5b813561186f816152a1565b6000602082840312156153fe57600080fd5b5035919050565b6020808252825182820181905260009190848201906040850190845b818110156154465783516001600160a01b031683529284019291840191600101615421565b50909695505050505050565b6000806000806080858703121561546857600080fd5b84356154738161525c565b935060208501356154838161525c565b93969395505050506040820135916060013590565b60008060008060008060c087890312156154b157600080fd5b86356154bc8161525c565b955060208701356154cc8161525c565b945060408701356154dc8161525c565b935060608701356154ec8161525c565b9598949750929560808101359460a0909101359350915050565b60008060006060848603121561551b57600080fd5b83356155268161525c565b925060208401356155368161525c565b929592945050506040919091013590565b60008083601f84011261555957600080fd5b50813567ffffffffffffffff81111561557157600080fd5b6020830191508360208260051b850101111561467957600080fd5b600080600080604085870312156155a257600080fd5b843567ffffffffffffffff808211156155ba57600080fd5b6155c688838901615547565b909650945060208701359150808211156155df57600080fd5b506155ec87828801615547565b95989497509550505050565b600080600080600060a0868803121561561057600080fd5b853561561b8161525c565b9450602086013561562b8161525c565b9350604086013561563b8161525c565b9250606086013561564b8161525c565b949793965091946080013592915050565b6000806040838503121561566f57600080fd5b823561567a8161525c565b946020939093013593505050565b6000806040838503121561569b57600080fd5b82356156a68161525c565b915060208301356152dd8161525c565b600080600080606085870312156156cc57600080fd5b84356156d7816152a1565b9350602085013567ffffffffffffffff808211156156f457600080fd5b818701915087601f83011261570857600080fd5b81358181111561571757600080fd5b88602082850101111561572957600080fd5b95986020929092019750949560400135945092505050565b634e487b7160e01b600052604160045260246000fd5b6000602080838503121561576a57600080fd5b823567ffffffffffffffff8082111561578257600080fd5b818501915085601f83011261579657600080fd5b8135818111156157a8576157a8615741565b8060051b604051601f19603f830116810181811085821117156157cd576157cd615741565b6040529182528482019250838101850191888311156157eb57600080fd5b938501935b82851015612acf5761580185615274565b845293850193928501926157f0565b6020808252825182820181905260009190848201906040850190845b818110156154465783518352928401929184019160010161582c565b60208082526028908201527f63616e6e6f742070617573652061206d61726b65742074686174206973206e6f6040820152671d081b1a5cdd195960c21b606082015260800190565b60208082526027908201527f6f6e6c7920706175736520677561726469616e20616e642061646d696e2063616040820152666e20706175736560c81b606082015260800190565b6020808252601690820152756f6e6c792061646d696e2063616e20756e706175736560501b604082015260600190565b60006020828403121561591957600080fd5b815161186f816152a1565b60006020828403121561593657600080fd5b815161186f8161525c565b60006020828403121561595357600080fd5b5051919050565b634e487b7160e01b600052602160045260246000fd5b634e487b7160e01b600052603260045260246000fd5b634e487b7160e01b600052601160045260246000fd5b60006000198214156159b0576159b0615986565b5060010190565b634e487b7160e01b600052600160045260246000fd5b6000828210156159df576159df615986565b500390565b634e487b7160e01b600052603160045260246000fd5b60208152816020820152818360408301376000818301604090810191909152601f909201601f19160101919050565b60008060008060808587031215615a3f57600080fd5b505082516020840151604085015160609095015191969095509092509050565b60008219821115615a7257615a72615986565b500190565b600082615a9457634e487b7160e01b600052601260045260246000fd5b500490565b600060208083528351808285015260005b81811015615ac657858101830151858201604001528201615aaa565b81811115615ad8576000604083870101525b50601f01601f1916929092016040019392505050565b6000816000190483118215151615615b0857615b08615986565b50029056fea26469706673582212205144ee3ccb8d8dd09126c7cf5ccd1fe174608ae10f2bb266ea6dabdfd5c991f764736f6c634300080a0033",
    "linkReferences": {}
  },
  "methodIdentifiers": {
    "_addRewardsDistributor(address)": "b9b5b153",
    "_afterNonReentrant()": "632e5142",
    "_become(address)": "1d504dc6",
    "_becomeImplementation()": "5d72de62",
    "_beforeNonReentrant()": "c90c20b1",
    "_borrowGuardianPaused()": "e6653f3d",
    "_deployMarket(bool,bytes,uint256)": "aba35b98",
    "_mintGuardianPaused()": "3c94786f",
    "_setBorrowCapGuardian(address)": "391957d7",
    "_setBorrowPaused(address,bool)": "18c882a5",
    "_setCloseFactor(uint256)": "317b0b77",
    "_setCollateralFactor(address,uint256)": "e4028eee",
    "_setLiquidationIncentive(uint256)": "4fd42e17",
    "_setMarketBorrowCaps(address[],uint256[])": "607ef6c1",
    "_setMarketSupplyCaps(address[],uint256[])": "51a485e4",
    "_setMintPaused(address,bool)": "3bcf7ec1",
    "_setPauseGuardian(address)": "5f5af1aa",
    "_setPriceOracle(address)": "55ee1fe1",
    "_setSeizePaused(bool)": "2d70db78",
    "_setTransferPaused(bool)": "8ebf6364",
    "_setWhitelistEnforcement(bool)": "952adf5a",
    "_setWhitelistStatuses(address[],bool[])": "c8c9c975",
    "_toggleAutoImplementations(bool)": "d5333166",
    "_unsupportMarket(address)": "819605a8",
    "accountAssets(address,uint256)": "dce15449",
    "admin()": "f851a440",
    "adminHasRights()": "0a755ec2",
    "allBorrowers(uint256)": "7515bafa",
    "allMarkets(uint256)": "52d84d1e",
    "autoImplementation()": "dd5cd22c",
    "borrowAllowed(address,address,uint256)": "da3d454c",
    "borrowCapGuardian()": "21af4569",
    "borrowCaps(address)": "4a584432",
    "borrowGuardianPaused(address)": "6d154ea5",
    "borrowVerify(address,address,uint256)": "5c778605",
    "borrowWithinLimits(address,uint256)": "779b2294",
    "cTokensByUnderlying(address)": "31ff47fa",
    "checkMembership(address,address)": "929fe9a1",
    "closeFactorMantissa()": "e8755446",
    "comptrollerImplementation()": "bb82aa5e",
    "enforceWhitelist()": "b0957210",
    "enterMarkets(address[])": "c2998238",
    "exitMarket(address)": "ede4edd0",
    "fuseAdmin()": "15761d51",
    "fuseAdminHasRights()": "2f1069ba",
    "getAccountLiquidity(address)": "5ec88c79",
    "getAllBorrowers()": "32abcdbe",
    "getAllMarkets()": "b0772d0b",
    "getAssetsIn(address)": "abfceffc",
    "getHypotheticalAccountLiquidity(address,address,uint256,uint256)": "4e79238f",
    "getRewardsDistributors()": "3605b51b",
    "getWhitelist()": "d01f63f5",
    "isComptroller()": "007e3dd2",
    "isDeprecated(address)": "94543c15",
    "liquidateBorrowAllowed(address,address,address,address,uint256)": "5fc7e71e",
    "liquidateBorrowVerify(address,address,address,address,uint256,uint256)": "47ef3b3b",
    "liquidateCalculateSeizeTokens(address,address,uint256)": "c488847b",
    "liquidationIncentiveMantissa()": "4ada90af",
    "markets(address)": "8e8f294b",
    "mintAllowed(address,address,uint256)": "4ef4c3e1",
    "mintGuardianPaused(address)": "731f0c2b",
    "mintVerify(address,address,uint256,uint256)": "41c728b9",
    "mintWithinLimits(address,uint256,uint256,uint256)": "2259192a",
    "oracle()": "7dc0d1d0",
    "pauseGuardian()": "24a3d622",
    "pendingAdmin()": "26782247",
    "pendingComptrollerImplementation()": "dcfbc0c7",
    "redeemAllowed(address,address,uint256)": "eabe7d91",
    "redeemVerify(address,address,uint256,uint256)": "51dff989",
    "repayBorrowAllowed(address,address,address,uint256)": "24008a62",
    "repayBorrowVerify(address,address,address,uint256,uint256)": "1ededc91",
    "rewardsDistributors(uint256)": "c6c5b0dd",
    "seizeAllowed(address,address,address,address,uint256)": "d02f7351",
    "seizeGuardianPaused()": "ac0b0bb7",
    "seizeVerify(address,address,address,address,uint256)": "6d35bf91",
    "suppliers(address)": "16dc15fe",
    "supplyCaps(address)": "02c3bcbb",
    "transferAllowed(address,address,address,uint256)": "bdcdc258",
    "transferGuardianPaused()": "87f76303",
    "transferVerify(address,address,address,uint256)": "6a56947e",
    "whitelist(address)": "9b19251a",
    "whitelistArray(uint256)": "d251fefc"
  },
  "id": 20
}