{
  "abi": [
    {
      "anonymous": false,
      "inputs": [
        {
          "indexed": false,
          "internalType": "uint256",
          "name": "cashPrior",
          "type": "uint256"
        },
        {
          "indexed": false,
          "internalType": "uint256",
          "name": "interestAccumulated",
          "type": "uint256"
        },
        {
          "indexed": false,
          "internalType": "uint256",
          "name": "borrowIndex",
          "type": "uint256"
        },
        {
          "indexed": false,
          "internalType": "uint256",
          "name": "totalBorrows",
          "type": "uint256"
        }
      ],
      "name": "AccrueInterest",
      "type": "event"
    },
    {
      "anonymous": false,
      "inputs": [
        {
          "indexed": true,
          "internalType": "address",
          "name": "owner",
          "type": "address"
        },
        {
          "indexed": true,
          "internalType": "address",
          "name": "spender",
          "type": "address"
        },
        {
          "indexed": false,
          "internalType": "uint256",
          "name": "amount",
          "type": "uint256"
        }
      ],
      "name": "Approval",
      "type": "event"
    },
    {
      "anonymous": false,
      "inputs": [
        {
          "indexed": false,
          "internalType": "address",
          "name": "borrower",
          "type": "address"
        },
        {
          "indexed": false,
          "internalType": "uint256",
          "name": "borrowAmount",
          "type": "uint256"
        },
        {
          "indexed": false,
          "internalType": "uint256",
          "name": "accountBorrows",
          "type": "uint256"
        },
        {
          "indexed": false,
          "internalType": "uint256",
          "name": "totalBorrows",
          "type": "uint256"
        }
      ],
      "name": "Borrow",
      "type": "event"
    },
    {
      "anonymous": false,
      "inputs": [
        {
          "indexed": false,
          "internalType": "uint256",
          "name": "error",
          "type": "uint256"
        },
        {
          "indexed": false,
          "internalType": "uint256",
          "name": "info",
          "type": "uint256"
        },
        {
          "indexed": false,
          "internalType": "uint256",
          "name": "detail",
          "type": "uint256"
        }
      ],
      "name": "Failure",
      "type": "event"
    },
    {
      "anonymous": false,
      "inputs": [
        {
          "indexed": false,
          "internalType": "address",
          "name": "liquidator",
          "type": "address"
        },
        {
          "indexed": false,
          "internalType": "address",
          "name": "borrower",
          "type": "address"
        },
        {
          "indexed": false,
          "internalType": "uint256",
          "name": "repayAmount",
          "type": "uint256"
        },
        {
          "indexed": false,
          "internalType": "address",
          "name": "cTokenCollateral",
          "type": "address"
        },
        {
          "indexed": false,
          "internalType": "uint256",
          "name": "seizeTokens",
          "type": "uint256"
        }
      ],
      "name": "LiquidateBorrow",
      "type": "event"
    },
    {
      "anonymous": false,
      "inputs": [
        {
          "indexed": false,
          "internalType": "address",
          "name": "minter",
          "type": "address"
        },
        {
          "indexed": false,
          "internalType": "uint256",
          "name": "mintAmount",
          "type": "uint256"
        },
        {
          "indexed": false,
          "internalType": "uint256",
          "name": "mintTokens",
          "type": "uint256"
        }
      ],
      "name": "Mint",
      "type": "event"
    },
    {
      "anonymous": false,
      "inputs": [
        {
          "indexed": false,
          "internalType": "uint256",
          "name": "oldAdminFeeMantissa",
          "type": "uint256"
        },
        {
          "indexed": false,
          "internalType": "uint256",
          "name": "newAdminFeeMantissa",
          "type": "uint256"
        }
      ],
      "name": "NewAdminFee",
      "type": "event"
    },
    {
      "anonymous": false,
      "inputs": [
        {
          "indexed": false,
          "internalType": "contract ComptrollerInterface",
          "name": "oldComptroller",
          "type": "address"
        },
        {
          "indexed": false,
          "internalType": "contract ComptrollerInterface",
          "name": "newComptroller",
          "type": "address"
        }
      ],
      "name": "NewComptroller",
      "type": "event"
    },
    {
      "anonymous": false,
      "inputs": [
        {
          "indexed": false,
          "internalType": "uint256",
          "name": "oldFuseFeeMantissa",
          "type": "uint256"
        },
        {
          "indexed": false,
          "internalType": "uint256",
          "name": "newFuseFeeMantissa",
          "type": "uint256"
        }
      ],
      "name": "NewFuseFee",
      "type": "event"
    },
    {
      "anonymous": false,
      "inputs": [
        {
          "indexed": false,
          "internalType": "contract InterestRateModel",
          "name": "oldInterestRateModel",
          "type": "address"
        },
        {
          "indexed": false,
          "internalType": "contract InterestRateModel",
          "name": "newInterestRateModel",
          "type": "address"
        }
      ],
      "name": "NewMarketInterestRateModel",
      "type": "event"
    },
    {
      "anonymous": false,
      "inputs": [
        {
          "indexed": false,
          "internalType": "uint256",
          "name": "oldReserveFactorMantissa",
          "type": "uint256"
        },
        {
          "indexed": false,
          "internalType": "uint256",
          "name": "newReserveFactorMantissa",
          "type": "uint256"
        }
      ],
      "name": "NewReserveFactor",
      "type": "event"
    },
    {
      "anonymous": false,
      "inputs": [
        {
          "indexed": false,
          "internalType": "address",
          "name": "redeemer",
          "type": "address"
        },
        {
          "indexed": false,
          "internalType": "uint256",
          "name": "redeemAmount",
          "type": "uint256"
        },
        {
          "indexed": false,
          "internalType": "uint256",
          "name": "redeemTokens",
          "type": "uint256"
        }
      ],
      "name": "Redeem",
      "type": "event"
    },
    {
      "anonymous": false,
      "inputs": [
        {
          "indexed": false,
          "internalType": "address",
          "name": "payer",
          "type": "address"
        },
        {
          "indexed": false,
          "internalType": "address",
          "name": "borrower",
          "type": "address"
        },
        {
          "indexed": false,
          "internalType": "uint256",
          "name": "repayAmount",
          "type": "uint256"
        },
        {
          "indexed": false,
          "internalType": "uint256",
          "name": "accountBorrows",
          "type": "uint256"
        },
        {
          "indexed": false,
          "internalType": "uint256",
          "name": "totalBorrows",
          "type": "uint256"
        }
      ],
      "name": "RepayBorrow",
      "type": "event"
    },
    {
      "anonymous": false,
      "inputs": [
        {
          "indexed": false,
          "internalType": "address",
          "name": "benefactor",
          "type": "address"
        },
        {
          "indexed": false,
          "internalType": "uint256",
          "name": "addAmount",
          "type": "uint256"
        },
        {
          "indexed": false,
          "internalType": "uint256",
          "name": "newTotalReserves",
          "type": "uint256"
        }
      ],
      "name": "ReservesAdded",
      "type": "event"
    },
    {
      "anonymous": false,
      "inputs": [
        {
          "indexed": false,
          "internalType": "address",
          "name": "admin",
          "type": "address"
        },
        {
          "indexed": false,
          "internalType": "uint256",
          "name": "reduceAmount",
          "type": "uint256"
        },
        {
          "indexed": false,
          "internalType": "uint256",
          "name": "newTotalReserves",
          "type": "uint256"
        }
      ],
      "name": "ReservesReduced",
      "type": "event"
    },
    {
      "anonymous": false,
      "inputs": [
        {
          "indexed": true,
          "internalType": "address",
          "name": "from",
          "type": "address"
        },
        {
          "indexed": true,
          "internalType": "address",
          "name": "to",
          "type": "address"
        },
        {
          "indexed": false,
          "internalType": "uint256",
          "name": "amount",
          "type": "uint256"
        }
      ],
      "name": "Transfer",
      "type": "event"
    },
    {
      "inputs": [
        {
          "internalType": "address",
          "name": "compLikeDelegatee",
          "type": "address"
        }
      ],
      "name": "_delegateCompLikeTo",
      "outputs": [],
      "stateMutability": "nonpayable",
      "type": "function"
    },
    {
      "inputs": [
        {
          "internalType": "uint256",
          "name": "reduceAmount",
          "type": "uint256"
        }
      ],
      "name": "_reduceReserves",
      "outputs": [
        {
          "internalType": "uint256",
          "name": "",
          "type": "uint256"
        }
      ],
      "stateMutability": "nonpayable",
      "type": "function"
    },
    {
      "inputs": [
        {
          "internalType": "uint256",
          "name": "newAdminFeeMantissa",
          "type": "uint256"
        }
      ],
      "name": "_setAdminFee",
      "outputs": [
        {
          "internalType": "uint256",
          "name": "",
          "type": "uint256"
        }
      ],
      "stateMutability": "nonpayable",
      "type": "function"
    },
    {
      "inputs": [
        {
          "internalType": "contract InterestRateModel",
          "name": "newInterestRateModel",
          "type": "address"
        }
      ],
      "name": "_setInterestRateModel",
      "outputs": [
        {
          "internalType": "uint256",
          "name": "",
          "type": "uint256"
        }
      ],
      "stateMutability": "nonpayable",
      "type": "function"
    },
    {
      "inputs": [
        {
          "internalType": "string",
          "name": "_name",
          "type": "string"
        },
        {
          "internalType": "string",
          "name": "_symbol",
          "type": "string"
        }
      ],
      "name": "_setNameAndSymbol",
      "outputs": [],
      "stateMutability": "nonpayable",
      "type": "function"
    },
    {
      "inputs": [
        {
          "internalType": "uint256",
          "name": "newReserveFactorMantissa",
          "type": "uint256"
        }
      ],
      "name": "_setReserveFactor",
      "outputs": [
        {
          "internalType": "uint256",
          "name": "",
          "type": "uint256"
        }
      ],
      "stateMutability": "nonpayable",
      "type": "function"
    },
    {
      "inputs": [
        {
          "internalType": "uint256",
          "name": "withdrawAmount",
          "type": "uint256"
        }
      ],
      "name": "_withdrawAdminFees",
      "outputs": [
        {
          "internalType": "uint256",
          "name": "",
          "type": "uint256"
        }
      ],
      "stateMutability": "nonpayable",
      "type": "function"
    },
    {
      "inputs": [
        {
          "internalType": "uint256",
          "name": "withdrawAmount",
          "type": "uint256"
        }
      ],
      "name": "_withdrawFuseFees",
      "outputs": [
        {
          "internalType": "uint256",
          "name": "",
          "type": "uint256"
        }
      ],
      "stateMutability": "nonpayable",
      "type": "function"
    },
    {
      "inputs": [],
      "name": "accrualBlockNumber",
      "outputs": [
        {
          "internalType": "uint256",
          "name": "",
          "type": "uint256"
        }
      ],
      "stateMutability": "view",
      "type": "function"
    },
    {
      "inputs": [],
      "name": "accrueInterest",
      "outputs": [
        {
          "internalType": "uint256",
          "name": "",
          "type": "uint256"
        }
      ],
      "stateMutability": "nonpayable",
      "type": "function"
    },
    {
      "inputs": [],
      "name": "adminFeeMantissa",
      "outputs": [
        {
          "internalType": "uint256",
          "name": "",
          "type": "uint256"
        }
      ],
      "stateMutability": "view",
      "type": "function"
    },
    {
      "inputs": [
        {
          "internalType": "address",
          "name": "owner",
          "type": "address"
        },
        {
          "internalType": "address",
          "name": "spender",
          "type": "address"
        }
      ],
      "name": "allowance",
      "outputs": [
        {
          "internalType": "uint256",
          "name": "",
          "type": "uint256"
        }
      ],
      "stateMutability": "view",
      "type": "function"
    },
    {
      "inputs": [
        {
          "internalType": "address",
          "name": "spender",
          "type": "address"
        },
        {
          "internalType": "uint256",
          "name": "amount",
          "type": "uint256"
        }
      ],
      "name": "approve",
      "outputs": [
        {
          "internalType": "bool",
          "name": "",
          "type": "bool"
        }
      ],
      "stateMutability": "nonpayable",
      "type": "function"
    },
    {
      "inputs": [
        {
          "internalType": "address",
          "name": "owner",
          "type": "address"
        }
      ],
      "name": "balanceOf",
      "outputs": [
        {
          "internalType": "uint256",
          "name": "",
          "type": "uint256"
        }
      ],
      "stateMutability": "view",
      "type": "function"
    },
    {
      "inputs": [
        {
          "internalType": "address",
          "name": "owner",
          "type": "address"
        }
      ],
      "name": "balanceOfUnderlying",
      "outputs": [
        {
          "internalType": "uint256",
          "name": "",
          "type": "uint256"
        }
      ],
      "stateMutability": "nonpayable",
      "type": "function"
    },
    {
      "inputs": [
        {
          "internalType": "uint256",
          "name": "borrowAmount",
          "type": "uint256"
        }
      ],
      "name": "borrow",
      "outputs": [
        {
          "internalType": "uint256",
          "name": "",
          "type": "uint256"
        }
      ],
      "stateMutability": "nonpayable",
      "type": "function"
    },
    {
      "inputs": [
        {
          "internalType": "address",
          "name": "account",
          "type": "address"
        }
      ],
      "name": "borrowBalanceCurrent",
      "outputs": [
        {
          "internalType": "uint256",
          "name": "",
          "type": "uint256"
        }
      ],
      "stateMutability": "nonpayable",
      "type": "function"
    },
    {
      "inputs": [
        {
          "internalType": "address",
          "name": "account",
          "type": "address"
        }
      ],
      "name": "borrowBalanceStored",
      "outputs": [
        {
          "internalType": "uint256",
          "name": "",
          "type": "uint256"
        }
      ],
      "stateMutability": "view",
      "type": "function"
    },
    {
      "inputs": [],
      "name": "borrowIndex",
      "outputs": [
        {
          "internalType": "uint256",
          "name": "",
          "type": "uint256"
        }
      ],
      "stateMutability": "view",
      "type": "function"
    },
    {
      "inputs": [],
      "name": "borrowRatePerBlock",
      "outputs": [
        {
          "internalType": "uint256",
          "name": "",
          "type": "uint256"
        }
      ],
      "stateMutability": "view",
      "type": "function"
    },
    {
      "inputs": [],
      "name": "comptroller",
      "outputs": [
        {
          "internalType": "contract ComptrollerInterface",
          "name": "",
          "type": "address"
        }
      ],
      "stateMutability": "view",
      "type": "function"
    },
    {
      "inputs": [],
      "name": "decimals",
      "outputs": [
        {
          "internalType": "uint8",
          "name": "",
          "type": "uint8"
        }
      ],
      "stateMutability": "view",
      "type": "function"
    },
    {
      "inputs": [],
      "name": "exchangeRateCurrent",
      "outputs": [
        {
          "internalType": "uint256",
          "name": "",
          "type": "uint256"
        }
      ],
      "stateMutability": "nonpayable",
      "type": "function"
    },
    {
      "inputs": [],
      "name": "exchangeRateStored",
      "outputs": [
        {
          "internalType": "uint256",
          "name": "",
          "type": "uint256"
        }
      ],
      "stateMutability": "view",
      "type": "function"
    },
    {
      "inputs": [],
      "name": "feeSeizeShareMantissa",
      "outputs": [
        {
          "internalType": "uint256",
          "name": "",
          "type": "uint256"
        }
      ],
      "stateMutability": "view",
      "type": "function"
    },
    {
      "inputs": [],
      "name": "fuseAdmin",
      "outputs": [
        {
          "internalType": "address payable",
          "name": "",
          "type": "address"
        }
      ],
      "stateMutability": "view",
      "type": "function"
    },
    {
      "inputs": [],
      "name": "fuseFeeMantissa",
      "outputs": [
        {
          "internalType": "uint256",
          "name": "",
          "type": "uint256"
        }
      ],
      "stateMutability": "view",
      "type": "function"
    },
    {
      "inputs": [
        {
          "internalType": "address",
          "name": "account",
          "type": "address"
        }
      ],
      "name": "getAccountSnapshot",
      "outputs": [
        {
          "internalType": "uint256",
          "name": "",
          "type": "uint256"
        },
        {
          "internalType": "uint256",
          "name": "",
          "type": "uint256"
        },
        {
          "internalType": "uint256",
          "name": "",
          "type": "uint256"
        },
        {
          "internalType": "uint256",
          "name": "",
          "type": "uint256"
        }
      ],
      "stateMutability": "view",
      "type": "function"
    },
    {
      "inputs": [],
      "name": "getCash",
      "outputs": [
        {
          "internalType": "uint256",
          "name": "",
          "type": "uint256"
        }
      ],
      "stateMutability": "view",
      "type": "function"
    },
    {
      "inputs": [
        {
          "internalType": "address",
          "name": "underlying_",
          "type": "address"
        },
        {
          "internalType": "contract ComptrollerInterface",
          "name": "comptroller_",
          "type": "address"
        },
        {
          "internalType": "address payable",
          "name": "fuseAdmin_",
          "type": "address"
        },
        {
          "internalType": "contract InterestRateModel",
          "name": "interestRateModel_",
          "type": "address"
        },
        {
          "internalType": "string",
          "name": "name_",
          "type": "string"
        },
        {
          "internalType": "string",
          "name": "symbol_",
          "type": "string"
        },
        {
          "internalType": "uint256",
          "name": "reserveFactorMantissa_",
          "type": "uint256"
        },
        {
          "internalType": "uint256",
          "name": "adminFeeMantissa_",
          "type": "uint256"
        }
      ],
      "name": "initialize",
      "outputs": [],
      "stateMutability": "nonpayable",
      "type": "function"
    },
    {
      "inputs": [
        {
          "internalType": "contract ComptrollerInterface",
          "name": "comptroller_",
          "type": "address"
        },
        {
          "internalType": "address payable",
          "name": "fuseAdmin_",
          "type": "address"
        },
        {
          "internalType": "contract InterestRateModel",
          "name": "interestRateModel_",
          "type": "address"
        },
        {
          "internalType": "uint256",
          "name": "initialExchangeRateMantissa_",
          "type": "uint256"
        },
        {
          "internalType": "string",
          "name": "name_",
          "type": "string"
        },
        {
          "internalType": "string",
          "name": "symbol_",
          "type": "string"
        },
        {
          "internalType": "uint8",
          "name": "decimals_",
          "type": "uint8"
        },
        {
          "internalType": "uint256",
          "name": "reserveFactorMantissa_",
          "type": "uint256"
        },
        {
          "internalType": "uint256",
          "name": "adminFeeMantissa_",
          "type": "uint256"
        }
      ],
      "name": "initialize",
      "outputs": [],
      "stateMutability": "nonpayable",
      "type": "function"
    },
    {
      "inputs": [],
      "name": "interestRateModel",
      "outputs": [
        {
          "internalType": "contract InterestRateModel",
          "name": "",
          "type": "address"
        }
      ],
      "stateMutability": "view",
      "type": "function"
    },
    {
      "inputs": [],
      "name": "isCEther",
      "outputs": [
        {
          "internalType": "bool",
          "name": "",
          "type": "bool"
        }
      ],
      "stateMutability": "nonpayable",
      "type": "function"
    },
    {
      "inputs": [],
      "name": "isCToken",
      "outputs": [
        {
          "internalType": "bool",
          "name": "",
          "type": "bool"
        }
      ],
      "stateMutability": "nonpayable",
      "type": "function"
    },
    {
      "inputs": [
        {
          "internalType": "address",
          "name": "borrower",
          "type": "address"
        },
        {
          "internalType": "uint256",
          "name": "repayAmount",
          "type": "uint256"
        },
        {
          "internalType": "contract CTokenInterface",
          "name": "cTokenCollateral",
          "type": "address"
        }
      ],
      "name": "liquidateBorrow",
      "outputs": [
        {
          "internalType": "uint256",
          "name": "",
          "type": "uint256"
        }
      ],
      "stateMutability": "nonpayable",
      "type": "function"
    },
    {
      "inputs": [
        {
          "internalType": "uint256",
          "name": "mintAmount",
          "type": "uint256"
        }
      ],
      "name": "mint",
      "outputs": [
        {
          "internalType": "uint256",
          "name": "",
          "type": "uint256"
        }
      ],
      "stateMutability": "nonpayable",
      "type": "function"
    },
    {
      "inputs": [],
      "name": "name",
      "outputs": [
        {
          "internalType": "string",
          "name": "",
          "type": "string"
        }
      ],
      "stateMutability": "view",
      "type": "function"
    },
    {
      "inputs": [],
      "name": "protocolSeizeShareMantissa",
      "outputs": [
        {
          "internalType": "uint256",
          "name": "",
          "type": "uint256"
        }
      ],
      "stateMutability": "view",
      "type": "function"
    },
    {
      "inputs": [
        {
          "internalType": "uint256",
          "name": "redeemTokens",
          "type": "uint256"
        }
      ],
      "name": "redeem",
      "outputs": [
        {
          "internalType": "uint256",
          "name": "",
          "type": "uint256"
        }
      ],
      "stateMutability": "nonpayable",
      "type": "function"
    },
    {
      "inputs": [
        {
          "internalType": "uint256",
          "name": "redeemAmount",
          "type": "uint256"
        }
      ],
      "name": "redeemUnderlying",
      "outputs": [
        {
          "internalType": "uint256",
          "name": "",
          "type": "uint256"
        }
      ],
      "stateMutability": "nonpayable",
      "type": "function"
    },
    {
      "inputs": [
        {
          "internalType": "uint256",
          "name": "repayAmount",
          "type": "uint256"
        }
      ],
      "name": "repayBorrow",
      "outputs": [
        {
          "internalType": "uint256",
          "name": "",
          "type": "uint256"
        }
      ],
      "stateMutability": "nonpayable",
      "type": "function"
    },
    {
      "inputs": [
        {
          "internalType": "address",
          "name": "borrower",
          "type": "address"
        },
        {
          "internalType": "uint256",
          "name": "repayAmount",
          "type": "uint256"
        }
      ],
      "name": "repayBorrowBehalf",
      "outputs": [
        {
          "internalType": "uint256",
          "name": "",
          "type": "uint256"
        }
      ],
      "stateMutability": "nonpayable",
      "type": "function"
    },
    {
      "inputs": [],
      "name": "reserveFactorMantissa",
      "outputs": [
        {
          "internalType": "uint256",
          "name": "",
          "type": "uint256"
        }
      ],
      "stateMutability": "view",
      "type": "function"
    },
    {
      "inputs": [
        {
          "internalType": "address",
          "name": "liquidator",
          "type": "address"
        },
        {
          "internalType": "address",
          "name": "borrower",
          "type": "address"
        },
        {
          "internalType": "uint256",
          "name": "seizeTokens",
          "type": "uint256"
        }
      ],
      "name": "seize",
      "outputs": [
        {
          "internalType": "uint256",
          "name": "",
          "type": "uint256"
        }
      ],
      "stateMutability": "nonpayable",
      "type": "function"
    },
    {
      "inputs": [],
      "name": "supplyRatePerBlock",
      "outputs": [
        {
          "internalType": "uint256",
          "name": "",
          "type": "uint256"
        }
      ],
      "stateMutability": "view",
      "type": "function"
    },
    {
      "inputs": [],
      "name": "symbol",
      "outputs": [
        {
          "internalType": "string",
          "name": "",
          "type": "string"
        }
      ],
      "stateMutability": "view",
      "type": "function"
    },
    {
      "inputs": [],
      "name": "totalAdminFees",
      "outputs": [
        {
          "internalType": "uint256",
          "name": "",
          "type": "uint256"
        }
      ],
      "stateMutability": "view",
      "type": "function"
    },
    {
      "inputs": [],
      "name": "totalBorrows",
      "outputs": [
        {
          "internalType": "uint256",
          "name": "",
          "type": "uint256"
        }
      ],
      "stateMutability": "view",
      "type": "function"
    },
    {
      "inputs": [],
      "name": "totalBorrowsCurrent",
      "outputs": [
        {
          "internalType": "uint256",
          "name": "",
          "type": "uint256"
        }
      ],
      "stateMutability": "nonpayable",
      "type": "function"
    },
    {
      "inputs": [],
      "name": "totalFuseFees",
      "outputs": [
        {
          "internalType": "uint256",
          "name": "",
          "type": "uint256"
        }
      ],
      "stateMutability": "view",
      "type": "function"
    },
    {
      "inputs": [],
      "name": "totalReserves",
      "outputs": [
        {
          "internalType": "uint256",
          "name": "",
          "type": "uint256"
        }
      ],
      "stateMutability": "view",
      "type": "function"
    },
    {
      "inputs": [],
      "name": "totalSupply",
      "outputs": [
        {
          "internalType": "uint256",
          "name": "",
          "type": "uint256"
        }
      ],
      "stateMutability": "view",
      "type": "function"
    },
    {
      "inputs": [
        {
          "internalType": "address",
          "name": "dst",
          "type": "address"
        },
        {
          "internalType": "uint256",
          "name": "amount",
          "type": "uint256"
        }
      ],
      "name": "transfer",
      "outputs": [
        {
          "internalType": "bool",
          "name": "",
          "type": "bool"
        }
      ],
      "stateMutability": "nonpayable",
      "type": "function"
    },
    {
      "inputs": [
        {
          "internalType": "address",
          "name": "src",
          "type": "address"
        },
        {
          "internalType": "address",
          "name": "dst",
          "type": "address"
        },
        {
          "internalType": "uint256",
          "name": "amount",
          "type": "uint256"
        }
      ],
      "name": "transferFrom",
      "outputs": [
        {
          "internalType": "bool",
          "name": "",
          "type": "bool"
        }
      ],
      "stateMutability": "nonpayable",
      "type": "function"
    },
    {
      "inputs": [],
      "name": "underlying",
      "outputs": [
        {
          "internalType": "address",
          "name": "",
          "type": "address"
        }
      ],
      "stateMutability": "view",
      "type": "function"
    }
  ],
  "bytecode": {
    "object": "0x608060405234801561001057600080fd5b506155b280620000216000396000f3fe608060405234801561001057600080fd5b506004361061035d5760003560e01c80638d02d9a1116101d3578063bd6d894d11610104578063dd62ed3e116100a2578063f5e3c4621161007c578063f5e3c46214610710578063f8f9da2814610723578063fca7820b1461072b578063fe9c44ae1461073e57600080fd5b8063dd62ed3e146106b1578063f2b3abbd146106ea578063f3fdb15a146106fd57600080fd5b8063c5ebeaec116100de578063c5ebeaec14610679578063db006a751461068c578063dbfe7c191461069f578063dc028ab1146106a857600080fd5b8063bd6d894d1461062f578063be99f11914610637578063c37f68e21461064657600080fd5b8063a6afed9511610171578063aa5af0fd1161014b578063aa5af0fd14610604578063ac784ddc1461060d578063ae9d70b014610614578063b2a02ff11461061c57600080fd5b8063a6afed95146105d6578063a7b820df146105de578063a9059cbb146105f157600080fd5b806395d89b41116101ad57806395d89b411461059557806395dd91931461059d578063a03dce8d146105b0578063a0712d68146105c357600080fd5b80638d02d9a1146105705780638f840ddd1461057957806391dd36c61461058257600080fd5b806334154d4c116102ad5780636752e7021161024b57806370a082311161022557806370a082311461051957806373acee98146105425780637f1e06be1461054a578063852a12e31461055d57600080fd5b80636752e702146104ef5780636c540baf146104fd5780636f307dc31461050657600080fd5b806347bd37181161028757806347bd3718146104b75780635fe3b567146104c0578063601a0bf1146104d357806361feacff146104e657600080fd5b806334154d4c146104895780633af9e6691461049c5780633b1d21a2146104af57600080fd5b806317bfdfbc1161031a578063219ef65c116102f4578063219ef65c1461043157806323b872dd146104445780632608f81814610457578063313ce5671461046a57600080fd5b806317bfdfbc1461040d57806318160ddd14610420578063182df0f51461042957600080fd5b806306db3ecd1461036257806306fdde0314610377578063095ea7b3146103955780630e752702146103b857806315761d51146103d9578063173b990414610404575b600080fd5b610375610370366004614f92565b610745565b005b61037f610853565b60405161038c9190615080565b60405180910390f35b6103a86103a33660046150b3565b6108e1565b604051901515815260200161038c565b6103cb6103c63660046150df565b610951565b60405190815260200161038c565b6000546103ec906001600160a01b031681565b6040516001600160a01b03909116815260200161038c565b6103cb600a5481565b6103cb61041b3660046150f8565b610965565b6103cb60115481565b6103cb6109bc565b61037561043f36600461512f565b610a4d565b6103a86104523660046151f7565b610d7c565b6103cb6104653660046150b3565b610da2565b6004546104779060ff1681565b60405160ff909116815260200161038c565b61037561049736600461527a565b610db8565b6103cb6104aa3660046150f8565b610e1f565b6103cb610ecf565b6103cb600d5481565b6005546103ec906001600160a01b031681565b6103cb6104e13660046150df565b610ede565b6103cb600f5481565b6103cb666379da05b6000081565b6103cb600b5481565b6015546103ec906001600160a01b031681565b6103cb6105273660046150f8565b6001600160a01b031660009081526012602052604090205490565b6103cb610f35565b6103756105583660046150f8565b610f7a565b6103cb61056b3660046150df565b61103f565b6103cb60085481565b6103cb600e5481565b6103cb6105903660046150df565b61104a565b61037f61108d565b6103cb6105ab3660046150f8565b61109a565b6103cb6105be3660046150df565b61113b565b6103cb6105d13660046150df565b61117e565b6103cb61118a565b6103cb6105ec3660046150df565b611341565b6103a86105ff3660046150b3565b611384565b6103cb600c5481565b60006103a8565b6103cb6113b1565b6103cb61062a3660046151f7565b611474565b6103cb611498565b6103cb67016345785d8a000081565b6106596106543660046150f8565b6114de565b60408051948552602085019390935291830152606082015260800161038c565b6103cb6106873660046150df565b61157f565b6103cb61069a3660046150df565b61158a565b6103cb60095481565b6103cb60105481565b6103cb6106bf3660046152e6565b6001600160a01b03918216600090815260136020908152604080832093909416825291909152205490565b6103cb6106f83660046150f8565b611595565b6006546103ec906001600160a01b031681565b6103cb61071e36600461531f565b6115cd565b6103cb6115e5565b6103cb6107393660046150df565b611649565b60016103a8565b60006702c68af0bb14000090506000896001600160a01b031663313ce5676040518163ffffffff1660e01b8152600401602060405180830381865afa158015610792573d6000803e3d6000fd5b505050506040513d601f19601f820116820180604052508101906107b69190615361565b90506107c9898989858a8a878b8b610a4d565b601580546001600160a01b0319166001600160a01b038c16908117909155604080516318160ddd60e01b815290516318160ddd916004808201926020929091908290030181865afa158015610822573d6000803e3d6000fd5b505050506040513d601f19601f82011682018060405250810190610846919061537e565b5050505050505050505050565b6002805461086090615397565b80601f016020809104026020016040519081016040528092919081815260200182805461088c90615397565b80156108d95780601f106108ae576101008083540402835291602001916108d9565b820191906000526020600020905b8154815290600101906020018083116108bc57829003601f168201915b505050505081565b3360008181526013602090815260408083206001600160a01b03871680855292528083208590555191929182907f8c5be1e5ebec7d5bd14f71427d1e84f3dd0314c0f7b2291e5b200ac8c7c3b9259061093d9087815260200190565b60405180910390a360019150505b92915050565b60008061095d8361168c565b509392505050565b600080610971816116f4565b600061097b61118a565b146109a15760405162461bcd60e51b8152600401610998906153e2565b60405180910390fd5b6109aa8361109a565b91505b6109b6816117b8565b50919050565b60008060006109c9611823565b909250905060008260038111156109e2576109e26153cc565b1461094b5760405162461bcd60e51b815260206004820152603560248201527f65786368616e67655261746553746f7265643a2065786368616e67655261746560448201527414dd1bdc9959125b9d195c9b985b0819985a5b1959605a1b6064820152608401610998565b336001600160a01b03891614610ab75760405162461bcd60e51b815260206004820152602960248201527f6f6e6c7920467573652061646d696e206d617920696e697469616c697a6520746044820152681a19481b585c9ad95d60ba1b6064820152608401610998565b600b54158015610ac75750600c54155b610b1f5760405162461bcd60e51b815260206004820152602360248201527f6d61726b6574206d6179206f6e6c7920626520696e697469616c697a6564206f6044820152626e636560e81b6064820152608401610998565b600080546001600160a01b0319166001600160a01b038a16179055600786905585610ba55760405162461bcd60e51b815260206004820152603060248201527f696e697469616c2065786368616e67652072617465206d75737420626520677260448201526f32b0ba32b9103a3430b7103d32b9379760811b6064820152608401610998565b6000610bb08a6118f0565b90508015610c005760405162461bcd60e51b815260206004820152601a60248201527f73657474696e6720636f6d7074726f6c6c6572206661696c65640000000000006044820152606401610998565b43600b55670de0b6b3a7640000600c55610c1988611a1b565b90508015610c745760405162461bcd60e51b815260206004820152602260248201527f73657474696e6720696e7465726573742072617465206d6f64656c206661696c604482015261195960f21b6064820152608401610998565b8551610c87906002906020890190614dc1565b508451610c9b906003906020880190614dc1565b506004805460ff191660ff8616179055610cb483611c8b565b90508015610d045760405162461bcd60e51b815260206004820152601d60248201527f73657474696e67207265736572766520666163746f72206661696c65640000006044820152606401610998565b610d0d82611d2a565b90508015610d5d5760405162461bcd60e51b815260206004820152601860248201527f73657474696e672061646d696e20666565206661696c656400000000000000006044820152606401610998565b50506001805460ff60b01b1916600160b01b1790555050505050505050565b600080610d88816116f4565b6000610d9633878787611e44565b14915061095d816117b8565b600080610daf84846120e2565b50949350505050565b610dc061214c565b610dff5760405162461bcd60e51b815260206004820152601060248201526f31b0b63632b9103737ba1030b236b4b760811b6044820152606401610998565b610e0b60028585614e41565b50610e1860038383614e41565b5050505050565b6000806040518060200160405280610e35611498565b90526001600160a01b038416600090815260126020526040812054919250908190610e619084906122b7565b90925090506000826003811115610e7a57610e7a6153cc565b14610ec75760405162461bcd60e51b815260206004820152601f60248201527f62616c616e636520636f756c64206e6f742062652063616c63756c61746564006044820152606401610998565b949350505050565b6000610ed961230a565b905090565b600080610eea816116f4565b6000610ef461118a565b90508015610f2057610f18816011811115610f1157610f116153cc565b603b612379565b9250506109ad565b610f29846123f2565b9250506109b6816117b8565b600080610f41816116f4565b6000610f4b61118a565b14610f685760405162461bcd60e51b8152600401610998906153e2565b600d549150610f76816117b8565b5090565b610f8261214c565b610fe45760405162461bcd60e51b815260206004820152602d60248201527f6f6e6c79207468652061646d696e206d6179207365742074686520636f6d702d60448201526c6c696b652064656c656761746560981b6064820152608401610998565b6015546040516317066a5760e21b81526001600160a01b03838116600483015290911690635c19a95c90602401600060405180830381600087803b15801561102b57600080fd5b505af1158015610e18573d6000803e3d6000fd5b600061094b826124a3565b600080611056816116f4565b600061106061118a565b9050801561108457610f1881601181111561107d5761107d6153cc565b6052612379565b610f2984611d2a565b6003805461086090615397565b60008060006110a8846124e9565b909250905060008260038111156110c1576110c16153cc565b146111345760405162461bcd60e51b815260206004820152603760248201527f626f72726f7742616c616e636553746f7265643a20626f72726f7742616c616e60448201527f636553746f726564496e7465726e616c206661696c65640000000000000000006064820152608401610998565b9392505050565b600080611147816116f4565b600061115161118a565b9050801561117557610f1881601181111561116e5761116e6153cc565b6033612379565b610f29846125a2565b60008061095d83612615565b600b5460009043908114156111a25760005b91505090565b60006111ac61230a565b90506000600660009054906101000a90046001600160a01b03166001600160a01b03166315f2405383600d546111f1600e546111ec600f5460105461265b565b61265b565b6040516001600160e01b031960e086901b168152600481019390935260248301919091526044820152606401602060405180830381865afa15801561123a573d6000803e3d6000fd5b505050506040513d601f19601f8201168201806040525081019061125e919061537e565b905065048c273950008111156112b65760405162461bcd60e51b815260206004820152601c60248201527f626f72726f772072617465206973206162737572646c792068696768000000006044820152606401610998565b6000806112c585600b54612691565b909250905060008260038111156112de576112de6153cc565b1461132b5760405162461bcd60e51b815260206004820152601f60248201527f636f756c64206e6f742063616c63756c61746520626c6f636b2064656c7461006044820152606401610998565b611337858585846126bc565b9550505050505090565b60008061134d816116f4565b600061135761118a565b9050801561137b57610f18816011811115611374576113746153cc565b6037612379565b610f29846127e8565b600080611390816116f4565b600061139e33338787611e44565b1491506113aa816117b8565b5092915050565b6006546000906001600160a01b031663b81688166113cd61230a565b600d546113e4600e546111ec600f5460105461265b565b600854600954600a546113f79190615428565b6114019190615428565b6040516001600160e01b031960e087901b16815260048101949094526024840192909252604483015260648201526084015b602060405180830381865afa158015611450573d6000803e3d6000fd5b505050506040513d601f19601f82011682018060405250810190610ed9919061537e565b60006001611481816116f4565b61148d338686866128c6565b915061095d816117b8565b6000806114a4816116f4565b60006114ae61118a565b146114cb5760405162461bcd60e51b8152600401610998906153e2565b6114d36109bc565b9150610f76816117b8565b6001600160a01b038116600090815260126020526040812054819081908190818080611509896124e9565b935090506000816003811115611521576115216153cc565b1461153f5760095b6000806000975097509750975050505050611578565b611547611823565b92509050600081600381111561155f5761155f6153cc565b1461156b576009611529565b5060009650919450925090505b9193509193565b600061094b82612dc3565b600061094b82612e07565b6000806115a061118a565b905080156115c4576111348160118111156115bd576115bd6153cc565b604b612379565b61113483611a1b565b6000806115db858585612e46565b5095945050505050565b6006546000906001600160a01b03166315f2405361160161230a565b600d54611618600e546111ec600f5460105461265b565b6040516001600160e01b031960e086901b168152600481019390935260248301919091526044820152606401611433565b600080611655816116f4565b600061165f61118a565b9050801561168357610f1881601181111561167c5761167c6153cc565b6059612379565b610f2984611c8b565b600080600061169a816116f4565b60006116a461118a565b905080156116d4576116c88160118111156116c1576116c16153cc565b6041612379565b600093509350506116e5565b6116df333387612f3a565b93509350505b6116ee816117b8565b50915091565b600154600160b01b900460ff1661173a5760405162461bcd60e51b815260206004820152600a6024820152691c994b595b9d195c995960b21b6044820152606401610998565b806117a857600560009054906101000a90046001600160a01b03166001600160a01b031663c90c20b16040518163ffffffff1660e01b8152600401600060405180830381600087803b15801561178f57600080fd5b505af11580156117a3573d6000803e3d6000fd5b505050505b506001805460ff60b01b19169055565b6001805460ff60b01b1916600160b01b1790558061182057600560009054906101000a90046001600160a01b03166001600160a01b031663632e51426040518163ffffffff1660e01b8152600401600060405180830381600087803b15801561102b57600080fd5b50565b60115460009081908061183d575050600754600092909150565b600061184761230a565b905060006118616040518060200160405280600081525090565b600061188384600d5461187e600e546111ec600f5460105461265b565b613354565b93509050600081600381111561189b5761189b6153cc565b146118ad579660009650945050505050565b6118b783866133a6565b9250905060008160038111156118cf576118cf6153cc565b146118e1579660009650945050505050565b50516000969095509350505050565b600080600560009054906101000a90046001600160a01b03169050826001600160a01b0316627e3dd26040518163ffffffff1660e01b8152600401602060405180830381865afa158015611948573d6000803e3d6000fd5b505050506040513d601f19601f8201168201806040525081019061196c9190615440565b6119b85760405162461bcd60e51b815260206004820152601c60248201527f6d61726b6572206d6574686f642072657475726e65642066616c7365000000006044820152606401610998565b600580546001600160a01b0319166001600160a01b0385811691821790925560408051928416835260208301919091527f7ac369dbd14fa5ea3f473ed67cc9d598964a77501540ba6751eb0b3decf5870d91015b60405180910390a16000611134565b600080611a2661214c565b611a36576111346001604d612379565b43600b5414611a4b57611134600a604c612379565b600660009054906101000a90046001600160a01b03169050826001600160a01b0316632191f92a6040518163ffffffff1660e01b8152600401602060405180830381865afa158015611aa1573d6000803e3d6000fd5b505050506040513d601f19601f82011682018060405250810190611ac59190615440565b611b115760405162461bcd60e51b815260206004820152601c60248201527f6d61726b6572206d6574686f642072657475726e65642066616c7365000000006044820152606401610998565b600680546001600160a01b0319166001600160a01b0385811691821790925560408051928416835260208301919091527fedffc32e068c7c95dfd4bdfd5c4d939a084d6b11c4199eac8436ed234d72f926910160405180910390a16001600160a01b03811615611bff5760408051600481526024810182526020810180516001600160e01b0316636cc1140b60e11b17905290516001600160a01b03831691611bb991615462565b6000604051808303816000865af19150503d8060008114611bf6576040519150601f19603f3d011682016040523d82523d6000602084013e611bfb565b606091505b5050505b60408051600481526024810182526020810180516001600160e01b031663742a137b60e11b17905290516001600160a01b03851691611c3d91615462565b6000604051808303816000865af19150503d8060008114611c7a576040519150601f19603f3d011682016040523d82523d6000602084013e611c7f565b606091505b50600091506111349050565b6000611c9561214c565b611ca55761094b6001605a612379565b43600b5414611cba5761094b600a605b612379565b670de0b6b3a7640000611cda611cd28460085461265b565b60095461265b565b1115611cec5761094b6002605c612379565b600a80549083905560408051828152602081018590527faaa68312e2ea9d50e16af5068410ab56e1a1fd06037b1a35664812c30f8214609101611a0c565b600043600b5414611d415761094b600a6054612379565b600019821415611d515760085491505b6000611d5b613471565b9050670de0b6b3a7640000611d7b611d75600a548661265b565b8361265b565b1115611d8d5761113460026055612379565b8260085414611df157611d9e61214c565b611dae5761113460016053612379565b600880549084905560408051828152602081018690527fcdd0b588250e1398549f79cfdb8217c186688822905d6715b0834ea1c865594a910160405180910390a1505b8060095414611e3d57600980549082905560408051828152602081018490527f92eef861b6533b7d3417f39c2ad7b460eed4e88a32fa3604f30e718b7602e7dc910160405180910390a1505b6000611134565b6005546040516317b9b84b60e31b81523060048201526001600160a01b038581166024830152848116604483015260648201849052600092839291169063bdcdc258906084016020604051808303816000875af1158015611ea9573d6000803e3d6000fd5b505050506040513d601f19601f82011682018060405250810190611ecd919061537e565b90508015611eea57611ee26003605d836134c5565b915050610ec7565b836001600160a01b0316856001600160a01b03161415611f1057611ee26002605e612379565b6000856001600160a01b0316876001600160a01b03161415611f355750600019611f5d565b506001600160a01b038086166000908152601360209081526040808320938a16835292905220545b600080600080611f6d8589612691565b90945092506000846003811115611f8657611f866153cc565b14611fa457611f976009605e612379565b9650505050505050610ec7565b6001600160a01b038a16600090815260126020526040902054611fc79089612691565b90945091506000846003811115611fe057611fe06153cc565b14611ff157611f976009605f612379565b6001600160a01b0389166000908152601260205260409020546120149089613567565b9094509050600084600381111561202d5761202d6153cc565b1461203e57611f9760096060612379565b6001600160a01b03808b16600090815260126020526040808220859055918b168152208190556000198514612096576001600160a01b03808b166000908152601360209081526040808320938f168352929052208390555b886001600160a01b03168a6001600160a01b031660008051602061555d8339815191528a6040516120c991815260200190565b60405180910390a35060009a9950505050505050505050565b60008060006120f0816116f4565b60006120fa61118a565b9050801561212a5761211e816011811115612117576121176153cc565b6040612379565b6000935093505061213b565b612135338787612f3a565b93509350505b612144816117b8565b509250929050565b600554604080516303e1469160e61b815290516000926001600160a01b031691829163f851a440916004808201926020929091908290030181865afa158015612199573d6000803e3d6000fd5b505050506040513d601f19601f820116820180604052508101906121bd919061547e565b6001600160a01b0316336001600160a01b031614801561223a5750806001600160a01b0316630a755ec26040518163ffffffff1660e01b8152600401602060405180830381865afa158015612216573d6000803e3d6000fd5b505050506040513d601f19601f8201168201806040525081019061223a9190615440565b8061119c57506000546001600160a01b03163314801561119c5750806001600160a01b0316632f1069ba6040518163ffffffff1660e01b8152600401602060405180830381865afa158015612293573d6000803e3d6000fd5b505050506040513d601f19601f8201168201806040525081019061119c9190615440565b6000806000806122c78686613597565b909250905060008260038111156122e0576122e06153cc565b146122f15750915060009050612303565b60006122fc82613613565b9350935050505b9250929050565b6015546040516370a0823160e01b81523060048201526000916001600160a01b03169081906370a0823190602401602060405180830381865afa158015612355573d6000803e3d6000fd5b505050506040513d601f19601f8201168201806040525081019061119c919061537e565b60007f45b96fe442630264581b197e84bbada861235052c5a1aadfff9ea4e40a969aa08360118111156123ae576123ae6153cc565b8360638111156123c0576123c06153cc565b60408051928352602083019190915260009082015260600160405180910390a1826011811115611134576111346153cc565b6000806123fd61214c565b61240d576111346001603c612379565b43600b541461242257611134600a603e612379565b8261242b61230a565b101561243d57611134600e603d612379565b600e54831115612453576111346002603f612379565b61245f600e548461362b565b600e81905590506124703384613665565b7f3bad0c59cf2f06e7314077049f48a93578cd16f5ef92329f1dab1420a99c177e338483604051611a0c9392919061549b565b6000806124af816116f4565b60006124b961118a565b905080156124dd57610f188160118111156124d6576124d66153cc565b602a612379565b610f29336000866136ea565b6001600160a01b03811660009081526014602052604081208054829182918291829161251e5750600096879650945050505050565b61252e8160000154600c54613c70565b90945092506000846003811115612547576125476153cc565b1461255a57509195600095509350505050565b612568838260010154613cba565b90945091506000846003811115612581576125816153cc565b1461259457509195600095509350505050565b506000969095509350505050565b60008043600b54146125ba57611134600a6035612379565b826125c361230a565b10156125d557611134600e6034612379565b6010548311156125eb5761113460026036612379565b6125f76010548461362b565b6010819055600054909150611e3d906001600160a01b031684613665565b6000806000612623816116f4565b600061262d61118a565b90508015612651576116c881601181111561264a5761264a6153cc565b6020612379565b6116df3386613ce5565b60006111348383604051806040016040528060118152602001706164646974696f6e206f766572666c6f7760781b8152506140a3565b6000808383116126b05760006126a784866154bc565b91509150612303565b50600390506000612303565b6000806126d7604051806020016040528086815250846140d4565b905060006126e782600d54614105565b905060006126f782600d5461265b565b905060006127186040518060200160405280600a5481525084600e5461411d565b9050600061273960405180602001604052806009548152508560105461411d565b9050600061275a604051806020016040528060085481525086600f5461411d565b9050600061276d87600c54600c5461411d565b600b8d9055600c819055600d869055600e8590556010849055600f839055604080518d815260208101899052908101829052606081018790529091507f4dec04e750ca11537cabcd8a9eab06494de08da3735bc8871cd41250e190bc049060800160405180910390a160009c9b505050505050505050505050565b60008043600b541461280057611134600a6039612379565b8261280961230a565b101561281b57611134600e6038612379565b600f54831115612831576111346002603a612379565b61283d600f548461362b565b905080600f81905550611e3d600560009054906101000a90046001600160a01b03166001600160a01b031663f851a4406040518163ffffffff1660e01b8152600401602060405180830381865afa15801561289c573d6000803e3d6000fd5b505050506040513d601f19601f820116820180604052508101906128c0919061547e565b84613665565b60055460405163d02f735160e01b81523060048201526001600160a01b0386811660248301528581166044830152848116606483015260848201849052600092839291169063d02f73519060a4016020604051808303816000875af1158015612933573d6000803e3d6000fd5b505050506040513d601f19601f82011682018060405250810190612957919061537e565b9050801561296c57611ee26003601d836134c5565b846001600160a01b0316846001600160a01b0316141561299257611ee26006601e612379565b6129f7604080516101808101909152806000815260200160008152602001600081526020016000815260200160008152602001600081526020016000815260200160008152602001600081526020016000815260200160008152602001600081525090565b6001600160a01b038516600090815260126020526040902054612a1a9085612691565b6020830181905282826003811115612a3457612a346153cc565b6003811115612a4557612a456153cc565b9052506000905081516003811115612a5f57612a5f6153cc565b14612a8f57612a866009601c83600001516003811115612a8157612a816153cc565b6134c5565b92505050610ec7565b612aae846040518060200160405280666379da05b60000815250614147565b6080820152604080516020810190915267016345785d8a00008152612ad4908590614147565b6101408201526080810151612af990612aee90869061362b565b82610140015161362b565b6060820152612b06611823565b60c0830181905282826003811115612b2057612b206153cc565b6003811115612b3157612b316153cc565b9052506000905081516003811115612b4b57612b4b6153cc565b14612b985760405162461bcd60e51b815260206004820152601860248201527f65786368616e67652072617465206d617468206572726f7200000000000000006044820152606401610998565b612bb860405180602001604052808360c001518152508260800151614105565b60a0820152604080516020810190915260c08201518152610140820151612bdf9190614105565b610160820152600e5460a0820151612bf7919061265b565b60e08201526011546080820151612c1191612aee9161362b565b610120820152601054610160820151612c2a919061265b565b6101008201526001600160a01b0386166000908152601260205260409020546060820151612c589190613567565b6040830181905282826003811115612c7257612c726153cc565b6003811115612c8357612c836153cc565b9052506000905081516003811115612c9d57612c9d6153cc565b14612cbf57612a866009601b83600001516003811115612a8157612a816153cc565b60e0810151600e556101208101516011556101008101516010556020808201516001600160a01b0387811660008181526012855260408082209490945583860151928b168082529084902092909255606085015192519283529092909160008051602061555d833981519152910160405180910390a3306001600160a01b0316856001600160a01b031660008051602061555d8339815191528360800151604051612d6c91815260200190565b60405180910390a360a081015160e08201516040517fa91e67c5ea634cd43a12c5a482724b03de01e85ca68702a53d0c2f45cb7c1dc592612dae92309261549b565b60405180910390a16000979650505050505050565b600080612dcf816116f4565b6000612dd961118a565b90508015612dfd57610f18816011811115612df657612df66153cc565b600a612379565b610f29338561416a565b600080612e13816116f4565b6000612e1d61118a565b90508015612e3a57610f188160118111156124d6576124d66153cc565b610f29338560006136ea565b6000806000612e54816116f4565b6000612e5e61118a565b90508015612e8e57612e82816011811115612e7b57612e7b6153cc565b6011612379565b60009350935050612f28565b846001600160a01b031663a6afed956040518163ffffffff1660e01b81526004016020604051808303816000875af1158015612ece573d6000803e3d6000fd5b505050506040513d601f19601f82011682018060405250810190612ef2919061537e565b90508015612f1657612e82816011811115612f0f57612f0f6153cc565b6012612379565b612f22338888886144fe565b93509350505b612f31816117b8565b50935093915050565b600554604051631200453160e11b81523060048201526001600160a01b03858116602483015284811660448301526064820184905260009283928392909116906324008a62906084016020604051808303816000875af1158015612fa2573d6000803e3d6000fd5b505050506040513d601f19601f82011682018060405250810190612fc6919061537e565b90508015612fe757612fdb60036043836134c5565b6000925092505061334c565b43600b5414612ffc57612fdb600a6044612379565b6130456040805161010081019091528060008152602001600081526020016000815260200160008152602001600081526020016000815260200160008152602001600081525090565b6001600160a01b038616600090815260146020526040902060010154606082015261306f866124e9565b608083018190526020830182600381111561308c5761308c6153cc565b600381111561309d5761309d6153cc565b90525060009050816020015160038111156130ba576130ba6153cc565b146130e9576130dc6009604283602001516003811115612a8157612a816153cc565b600093509350505061334c565b600019851415613102576080810151604082015261310a565b604081018590525b6131188782604001516149bf565b60e08201819052608082015161312d91612691565b60a083018190526020830182600381111561314a5761314a6153cc565b600381111561315b5761315b6153cc565b9052506000905081602001516003811115613178576131786153cc565b146131eb5760405162461bcd60e51b815260206004820152603a60248201527f52455041595f424f52524f575f4e45575f4143434f554e545f424f52524f575f60448201527f42414c414e43455f43414c43554c4154494f4e5f4641494c45440000000000006064820152608401610998565b6131fb600d548260e00151612691565b60c0830181905260208301826003811115613218576132186153cc565b6003811115613229576132296153cc565b9052506000905081602001516003811115613246576132466153cc565b146132ad5760405162461bcd60e51b815260206004820152603160248201527f52455041595f424f52524f575f4e45575f544f54414c5f42414c414e43455f43604482015270105310d55310551253d397d19052531151607a1b6064820152608401610998565b60a081810180516001600160a01b03898116600081815260146020908152604091829020948555600c5460019095019490945560c0870151600d81905560e088015195518251948f16855294840192909252820193909352606081019190915260808101919091527f1a2a22cb034d26d1854bdc6666a5b91fe25efbbb5dcad3b0355478d6f5c362a1910160405180910390a160e00151600093509150505b935093915050565b6000806000806133648787613567565b9092509050600082600381111561337d5761337d6153cc565b1461338e575091506000905061334c565b6133988186612691565b935093505050935093915050565b60006133be6040518060200160405280600081525090565b6000806133d386670de0b6b3a7640000613c70565b909250905060008260038111156133ec576133ec6153cc565b1461340b57506040805160208101909152600081529092509050612303565b6000806134188388613cba565b90925090506000826003811115613431576134316153cc565b146134545781604051806020016040528060008152509550955050505050612303565b604080516020810190915290815260009890975095505050505050565b60008060009054906101000a90046001600160a01b03166001600160a01b031663dd86fea16040518163ffffffff1660e01b8152600401602060405180830381865afa158015611450573d6000803e3d6000fd5b60007f45b96fe442630264581b197e84bbada861235052c5a1aadfff9ea4e40a969aa08460118111156134fa576134fa6153cc565b84606381111561350c5761350c6153cc565b604080519283526020830191909152810184905260600160405180910390a1600384601181111561353f5761353f6153cc565b1461355b57836011811115613556576135566153cc565b610ec7565b610ec7826103e8615428565b600080806135758486615428565b905084811061358957600092509050612303565b600260009250925050612303565b60006135af6040518060200160405280600081525090565b6000806135c0866000015186613c70565b909250905060008260038111156135d9576135d96153cc565b146135f857506040805160208101909152600081529092509050612303565b60408051602081019091529081526000969095509350505050565b805160009061094b90670de0b6b3a7640000906154d3565b60006111348383604051806040016040528060158152602001747375627472616374696f6e20756e646572666c6f7760581b815250614b89565b604080516001600160a01b038416602482015260448082018490528251808303909101815260649091018252602080820180516001600160e01b031663a9059cbb60e01b1790528251808401909352601983527f544f4b454e5f5452414e534645525f4f55545f4641494c454400000000000000908301526136e691614bb8565b5050565b60008215806136f7575081155b6137605760405162461bcd60e51b815260206004820152603460248201527f6f6e65206f662072656465656d546f6b656e73496e206f722072656465656d416044820152736d6f756e74496e206d757374206265207a65726f60601b6064820152608401610998565b6137a16040805160e0810190915280600081526020016000815260200160008152602001600081526020016000815260200160008152602001600081525090565b6137a9611823565b60408301819052602083018260038111156137c6576137c66153cc565b60038111156137d7576137d76153cc565b90525060009050816020015160038111156137f4576137f46153cc565b1461381e576138166009602e83602001516003811115612a8157612a816153cc565b915050611134565b83156138b757606081018490526040805160208101825290820151815261384590856122b7565b6080830181905260208301826003811115613862576138626153cc565b6003811115613873576138736153cc565b9052506000905081602001516003811115613890576138906153cc565b146138b2576138166009602c83602001516003811115612a8157612a816153cc565b613948565b6138d38360405180602001604052808460400151815250614c16565b60608301819052602083018260038111156138f0576138f06153cc565b6003811115613901576139016153cc565b905250600090508160200151600381111561391e5761391e6153cc565b14613940576138166009602d83602001516003811115612a8157612a816153cc565b608081018390525b600554606082015160405163eabe7d9160e01b81526000926001600160a01b03169163eabe7d91916139819130918b91906004016154f5565b6020604051808303816000875af11580156139a0573d6000803e3d6000fd5b505050506040513d601f19601f820116820180604052508101906139c4919061537e565b905080156139e2576139d96003602b836134c5565b92505050611134565b43600b54146139f7576139d9600a602f612379565b613a076011548360600151612691565b60a0840181905260208401826003811115613a2457613a246153cc565b6003811115613a3557613a356153cc565b9052506000905082602001516003811115613a5257613a526153cc565b14613a74576139d96009603184602001516003811115612a8157612a816153cc565b6001600160a01b0386166000908152601260205260409020546060830151613a9c9190612691565b60c0840181905260208401826003811115613ab957613ab96153cc565b6003811115613aca57613aca6153cc565b9052506000905082602001516003811115613ae757613ae76153cc565b14613b09576139d96009603084602001516003811115612a8157612a816153cc565b8160800151613b1661230a565b1015613b28576139d9600e6032612379565b60a082015160115560c08201516001600160a01b0387166000908152601260205260409020556080820151613b5e908790613665565b306001600160a01b0316866001600160a01b031660008051602061555d8339815191528460600151604051613b9591815260200190565b60405180910390a3608082015160608301516040517fe5b754fb1abb7f01b499791d0b820ae3b6af3424ac1c59768edb53f4ec31a92992613bd7928a9261549b565b60405180910390a1600554608083015160608401516040516351dff98960e01b81523060048201526001600160a01b038a81166024830152604482019390935260648101919091529116906351dff98990608401600060405180830381600087803b158015613c4557600080fd5b505af1158015613c59573d6000803e3d6000fd5b5060009250613c66915050565b9695505050505050565b60008083613c8357506000905080612303565b6000613c8f8486615519565b905083613c9c86836154d3565b14613caf57600260009250925050612303565b600092509050612303565b60008082613cce5750600190506000612303565b6000613cda84866154d3565b915091509250929050565b600554604051634ef4c3e160e01b8152600091829182916001600160a01b031690634ef4c3e190613d1e903090899089906004016154f5565b6020604051808303816000875af1158015613d3d573d6000803e3d6000fd5b505050506040513d601f19601f82011682018060405250810190613d61919061537e565b90508015613d8257613d7660036021836134c5565b60009250925050612303565b43600b5414613d9757613d76600a6024612379565b613dd86040805160e0810190915280600081526020016000815260200160008152602001600081526020016000815260200160008152602001600081525090565b613de0611823565b6040830181905260208301826003811115613dfd57613dfd6153cc565b6003811115613e0e57613e0e6153cc565b9052506000905081602001516003811115613e2b57613e2b6153cc565b14613e5a57613e4d6009602383602001516003811115612a8157612a816153cc565b6000935093505050612303565b613e6486866149bf565b60c0820181905260408051602081018252908301518152613e859190614c16565b6060830181905260208301826003811115613ea257613ea26153cc565b6003811115613eb357613eb36153cc565b9052506000905081602001516003811115613ed057613ed06153cc565b14613f1d5760405162461bcd60e51b815260206004820181905260248201527f4d494e545f45584348414e47455f43414c43554c4154494f4e5f4641494c45446044820152606401610998565b613f2d601154826060015161265b565b60808201526001600160a01b0386166000908152601260205260409020546060820151613f5a919061265b565b60a0820181905260808201516011556001600160a01b038716600090815260126020526040908190209190915560c0820151606083015191517f4c209b5fc8ad50758f13e2e1088ba56a560dff690a1c6fef26394f4c03821c4f92613fc3928a9290919061549b565b60405180910390a1856001600160a01b0316306001600160a01b031660008051602061555d833981519152836060015160405161400291815260200190565b60405180910390a360055460c082015160608301516040516341c728b960e01b81523060048201526001600160a01b038a81166024830152604482019390935260648101919091529116906341c728b990608401600060405180830381600087803b15801561407057600080fd5b505af1158015614084573d6000803e3d6000fd5b5060009250614091915050565b8160c001519350935050509250929050565b6000806140b08486615428565b90508285821015610daf5760405162461bcd60e51b81526004016109989190615080565b60408051602081019091526000815260405180602001604052806140fc856000015185614c26565b90529392505050565b60008061411284846140d4565b9050610ec781613613565b60008061412a85856140d4565b905061413e61413882613613565b8461265b565b95945050505050565b6000670de0b6b3a7640000614160848460000151614c26565b61113491906154d3565b60055460405163368f515360e21b815260009182916001600160a01b039091169063da3d454c906141a3903090889088906004016154f5565b6020604051808303816000875af11580156141c2573d6000803e3d6000fd5b505050506040513d601f19601f820116820180604052508101906141e6919061537e565b90508015614203576141fb60036010836134c5565b91505061094b565b43600b5414614218576141fb600a600c612379565b600061422261230a565b90508381101561424157614238600e600b612379565b9250505061094b565b61426d604080516080810190915280600081526020016000815260200160008152602001600081525090565b614276866124e9565b6020830181905282826003811115614290576142906153cc565b60038111156142a1576142a16153cc565b90525060009050815160038111156142bb576142bb6153cc565b146142e6576142dc60098083600001516003811115612a8157612a816153cc565b935050505061094b565b6142f4816020015186613567565b604083018190528282600381111561430e5761430e6153cc565b600381111561431f5761431f6153cc565b9052506000905081516003811115614339576143396153cc565b1461435b576142dc6009600e83600001516003811115612a8157612a816153cc565b6005546040828101519051631de6c8a560e21b815230600482015260248101919091526001600160a01b039091169063779b2294906044016020604051808303816000875af11580156143b2573d6000803e3d6000fd5b505050506040513d601f19601f820116820180604052508101906143d6919061537e565b925082156143eb576142dc60036010856134c5565b6143f7600d5486613567565b6060830181905282826003811115614411576144116153cc565b6003811115614422576144226153cc565b905250600090508151600381111561443c5761443c6153cc565b1461445e576142dc6009600d83600001516003811115612a8157612a816153cc565b6040808201516001600160a01b0388166000908152601460205291909120908155600c546001909101556060810151600d5561449a8686613665565b60408082015160608084015183516001600160a01b038b168152602081018a9052938401929092528201527f13ed6866d4e1ee6da46f845c46d7e54120883d75c5ea9a2dacc1c4ca8984ab809060800160405180910390a160009695505050505050565b600554604051632fe3f38f60e11b81523060048201526001600160a01b03838116602483015286811660448301528581166064830152608482018590526000928392839290911690635fc7e71e9060a4016020604051808303816000875af115801561456e573d6000803e3d6000fd5b505050506040513d601f19601f82011682018060405250810190614592919061537e565b905080156145b3576145a760036014836134c5565b600092509250506149b6565b43600b54146145c8576145a7600a6018612379565b43846001600160a01b0316636c540baf6040518163ffffffff1660e01b8152600401602060405180830381865afa158015614607573d6000803e3d6000fd5b505050506040513d601f19601f8201168201806040525081019061462b919061537e565b1461463c576145a7600a6013612379565b866001600160a01b0316866001600160a01b03161415614662576145a760066019612379565b84614673576145a760076017612379565b600019851415614689576145a760076016612379565b600080614697898989612f3a565b909250905081156146cc576146be8260118111156146b7576146b76153cc565b601a612379565b6000945094505050506149b6565b60055460405163c488847b60e01b815260009182916001600160a01b039091169063c488847b906147059030908c9088906004016154f5565b6040805180830381865afa158015614721573d6000803e3d6000fd5b505050506040513d601f19601f820116820180604052508101906147459190615538565b909250905081156147b45760405162461bcd60e51b815260206004820152603360248201527f4c49515549444154455f434f4d5054524f4c4c45525f43414c43554c4154455f604482015272105353d5539517d4d152569157d19052531151606a1b6064820152608401610998565b6040516370a0823160e01b81526001600160a01b038b811660048301528291908a16906370a0823190602401602060405180830381865afa1580156147fd573d6000803e3d6000fd5b505050506040513d601f19601f82011682018060405250810190614821919061537e565b101561486f5760405162461bcd60e51b815260206004820152601860248201527f4c49515549444154455f5345495a455f544f4f5f4d55434800000000000000006044820152606401610998565b60006001600160a01b0389163014156148955761488e308d8d856128c6565b905061490b565b60405163b2a02ff160e01b81526001600160a01b038a169063b2a02ff1906148c5908f908f9087906004016154f5565b6020604051808303816000875af11580156148e4573d6000803e3d6000fd5b505050506040513d601f19601f82011682018060405250810190614908919061537e565b90505b80156149505760405162461bcd60e51b81526020600482015260146024820152731d1bdad95b881cd95a5e9d5c994819985a5b195960621b6044820152606401610998565b604080516001600160a01b038e811682528d811660208301528183018790528b1660608201526080810184905290517f298637f684da70674f26509b10f07ec2fbc77a335ab1e7d6215a4b2484d8bb529181900360a00190a16000975092955050505050505b94509492505050565b6015546040516370a0823160e01b815230600482015260009182916001600160a01b03909116906370a0823190602401602060405180830381865afa158015614a0c573d6000803e3d6000fd5b505050506040513d601f19601f82011682018060405250810190614a30919061537e565b9050614ac06323b872dd60e01b853086604051602401614a52939291906154f5565b604051602081830303815290604052906001600160e01b0319166020820180516001600160e01b0383818316178352505050506040518060400160405280601881526020017f544f4b454e5f5452414e534645525f494e5f4641494c45440000000000000000815250614bb8565b6015546040516370a0823160e01b81523060048201526000916001600160a01b0316906370a0823190602401602060405180830381865afa158015614b09573d6000803e3d6000fd5b505050506040513d601f19601f82011682018060405250810190614b2d919061537e565b905081811015614b7f5760405162461bcd60e51b815260206004820152601a60248201527f544f4b454e5f5452414e534645525f494e5f4f564552464c4f570000000000006044820152606401610998565b61413e82826154bc565b60008184841115614bad5760405162461bcd60e51b81526004016109989190615080565b50610ec783856154bc565b601554600090614bd2906001600160a01b03168484614c68565b805190915015614c115780806020019051810190614bf09190615440565b8290614c0f5760405162461bcd60e51b81526004016109989190615080565b505b505050565b6000806000806122c78686614cfb565b600061113483836040518060400160405280601781526020017f6d756c7469706c69636174696f6e206f766572666c6f77000000000000000000815250614d6e565b6060600080856001600160a01b031685604051614c859190615462565b6000604051808303816000865af19150503d8060008114614cc2576040519150601f19603f3d011682016040523d82523d6000602084013e614cc7565b606091505b50915091508161413e57805115614ce15780518082602001fd5b8360405162461bcd60e51b81526004016109989190615080565b6000614d136040518060200160405280600081525090565b600080614d28670de0b6b3a764000087613c70565b90925090506000826003811115614d4157614d416153cc565b14614d6057506040805160208101909152600081529092509050612303565b6122fc8186600001516133a6565b6000831580614d7b575082155b15614d8857506000611134565b6000614d948486615519565b905083614da186836154d3565b148390610daf5760405162461bcd60e51b81526004016109989190615080565b828054614dcd90615397565b90600052602060002090601f016020900481019282614def5760008555614e35565b82601f10614e0857805160ff1916838001178555614e35565b82800160010185558215614e35579182015b82811115614e35578251825591602001919060010190614e1a565b50610f76929150614eb5565b828054614e4d90615397565b90600052602060002090601f016020900481019282614e6f5760008555614e35565b82601f10614e885782800160ff19823516178555614e35565b82800160010185558215614e35579182015b82811115614e35578235825591602001919060010190614e9a565b5b80821115610f765760008155600101614eb6565b6001600160a01b038116811461182057600080fd5b8035614eea81614eca565b919050565b634e487b7160e01b600052604160045260246000fd5b600082601f830112614f1657600080fd5b813567ffffffffffffffff80821115614f3157614f31614eef565b604051601f8301601f19908116603f01168101908282118183101715614f5957614f59614eef565b81604052838152866020858801011115614f7257600080fd5b836020870160208301376000602085830101528094505050505092915050565b600080600080600080600080610100898b031215614faf57600080fd5b8835614fba81614eca565b97506020890135614fca81614eca565b96506040890135614fda81614eca565b95506060890135614fea81614eca565b9450608089013567ffffffffffffffff8082111561500757600080fd5b6150138c838d01614f05565b955060a08b013591508082111561502957600080fd5b506150368b828c01614f05565b93505060c0890135915060e089013590509295985092959890939650565b60005b8381101561506f578181015183820152602001615057565b83811115614c0f5750506000910152565b602081526000825180602084015261509f816040850160208701615054565b601f01601f19169190910160400192915050565b600080604083850312156150c657600080fd5b82356150d181614eca565b946020939093013593505050565b6000602082840312156150f157600080fd5b5035919050565b60006020828403121561510a57600080fd5b813561113481614eca565b60ff8116811461182057600080fd5b8035614eea81615115565b60008060008060008060008060006101208a8c03121561514e57600080fd5b893561515981614eca565b985060208a013561516981614eca565b975061517760408b01614edf565b965060608a0135955060808a013567ffffffffffffffff8082111561519b57600080fd5b6151a78d838e01614f05565b965060a08c01359150808211156151bd57600080fd5b506151ca8c828d01614f05565b9450506151d960c08b01615124565b925060e08a013591506101008a013590509295985092959850929598565b60008060006060848603121561520c57600080fd5b833561521781614eca565b9250602084013561522781614eca565b929592945050506040919091013590565b60008083601f84011261524a57600080fd5b50813567ffffffffffffffff81111561526257600080fd5b60208301915083602082850101111561230357600080fd5b6000806000806040858703121561529057600080fd5b843567ffffffffffffffff808211156152a857600080fd5b6152b488838901615238565b909650945060208701359150808211156152cd57600080fd5b506152da87828801615238565b95989497509550505050565b600080604083850312156152f957600080fd5b823561530481614eca565b9150602083013561531481614eca565b809150509250929050565b60008060006060848603121561533457600080fd5b833561533f81614eca565b925060208401359150604084013561535681614eca565b809150509250925092565b60006020828403121561537357600080fd5b815161113481615115565b60006020828403121561539057600080fd5b5051919050565b600181811c908216806153ab57607f821691505b602082108114156109b657634e487b7160e01b600052602260045260246000fd5b634e487b7160e01b600052602160045260246000fd5b6020808252601690820152751858d8dc9d59481a5b9d195c995cdd0819985a5b195960521b604082015260600190565b634e487b7160e01b600052601160045260246000fd5b6000821982111561543b5761543b615412565b500190565b60006020828403121561545257600080fd5b8151801515811461113457600080fd5b60008251615474818460208701615054565b9190910192915050565b60006020828403121561549057600080fd5b815161113481614eca565b6001600160a01b039390931683526020830191909152604082015260600190565b6000828210156154ce576154ce615412565b500390565b6000826154f057634e487b7160e01b600052601260045260246000fd5b500490565b6001600160a01b039384168152919092166020820152604081019190915260600190565b600081600019048311821515161561553357615533615412565b500290565b6000806040838503121561554b57600080fd5b50508051602090910151909290915056feddf252ad1be2c89b69c2b068fc378daa952ba7f163c4a11628f55a4df523b3efa2646970667358221220ff2db95804e6afba0514524e48ab19164f714d441505ea327a38a2b1084366fe64736f6c634300080a0033",
    "linkReferences": {}
  },
  "methodIdentifiers": {
    "_delegateCompLikeTo(address)": "7f1e06be",
    "_reduceReserves(uint256)": "601a0bf1",
    "_setAdminFee(uint256)": "91dd36c6",
    "_setInterestRateModel(address)": "f2b3abbd",
    "_setNameAndSymbol(string,string)": "34154d4c",
    "_setReserveFactor(uint256)": "fca7820b",
    "_withdrawAdminFees(uint256)": "a7b820df",
    "_withdrawFuseFees(uint256)": "a03dce8d",
    "accrualBlockNumber()": "6c540baf",
    "accrueInterest()": "a6afed95",
    "adminFeeMantissa()": "8d02d9a1",
    "allowance(address,address)": "dd62ed3e",
    "approve(address,uint256)": "095ea7b3",
    "balanceOf(address)": "70a08231",
    "balanceOfUnderlying(address)": "3af9e669",
    "borrow(uint256)": "c5ebeaec",
    "borrowBalanceCurrent(address)": "17bfdfbc",
    "borrowBalanceStored(address)": "95dd9193",
    "borrowIndex()": "aa5af0fd",
    "borrowRatePerBlock()": "f8f9da28",
    "comptroller()": "5fe3b567",
    "decimals()": "313ce567",
    "exchangeRateCurrent()": "bd6d894d",
    "exchangeRateStored()": "182df0f5",
    "feeSeizeShareMantissa()": "be99f119",
    "fuseAdmin()": "15761d51",
    "fuseFeeMantissa()": "dbfe7c19",
    "getAccountSnapshot(address)": "c37f68e2",
    "getCash()": "3b1d21a2",
    "initialize(address,address,address,address,string,string,uint256,uint256)": "06db3ecd",
    "initialize(address,address,address,uint256,string,string,uint8,uint256,uint256)": "219ef65c",
    "interestRateModel()": "f3fdb15a",
    "isCEther()": "ac784ddc",
    "isCToken()": "fe9c44ae",
    "liquidateBorrow(address,uint256,address)": "f5e3c462",
    "mint(uint256)": "a0712d68",
    "name()": "06fdde03",
    "protocolSeizeShareMantissa()": "6752e702",
    "redeem(uint256)": "db006a75",
    "redeemUnderlying(uint256)": "852a12e3",
    "repayBorrow(uint256)": "0e752702",
    "repayBorrowBehalf(address,uint256)": "2608f818",
    "reserveFactorMantissa()": "173b9904",
    "seize(address,address,uint256)": "b2a02ff1",
    "supplyRatePerBlock()": "ae9d70b0",
    "symbol()": "95d89b41",
    "totalAdminFees()": "61feacff",
    "totalBorrows()": "47bd3718",
    "totalBorrowsCurrent()": "73acee98",
    "totalFuseFees()": "dc028ab1",
    "totalReserves()": "8f840ddd",
    "totalSupply()": "18160ddd",
    "transfer(address,uint256)": "a9059cbb",
    "transferFrom(address,address,uint256)": "23b872dd",
    "underlying()": "6f307dc3"
  },
  "id": 8
}