{
  "abi": [
    {
      "anonymous": false,
      "inputs": [
        {
          "indexed": false,
          "internalType": "uint256",
          "name": "cashPrior",
          "type": "uint256"
        },
        {
          "indexed": false,
          "internalType": "uint256",
          "name": "interestAccumulated",
          "type": "uint256"
        },
        {
          "indexed": false,
          "internalType": "uint256",
          "name": "borrowIndex",
          "type": "uint256"
        },
        {
          "indexed": false,
          "internalType": "uint256",
          "name": "totalBorrows",
          "type": "uint256"
        }
      ],
      "name": "AccrueInterest",
      "type": "event"
    },
    {
      "anonymous": false,
      "inputs": [
        {
          "indexed": true,
          "internalType": "address",
          "name": "owner",
          "type": "address"
        },
        {
          "indexed": true,
          "internalType": "address",
          "name": "spender",
          "type": "address"
        },
        {
          "indexed": false,
          "internalType": "uint256",
          "name": "amount",
          "type": "uint256"
        }
      ],
      "name": "Approval",
      "type": "event"
    },
    {
      "anonymous": false,
      "inputs": [
        {
          "indexed": false,
          "internalType": "address",
          "name": "borrower",
          "type": "address"
        },
        {
          "indexed": false,
          "internalType": "uint256",
          "name": "borrowAmount",
          "type": "uint256"
        },
        {
          "indexed": false,
          "internalType": "uint256",
          "name": "accountBorrows",
          "type": "uint256"
        },
        {
          "indexed": false,
          "internalType": "uint256",
          "name": "totalBorrows",
          "type": "uint256"
        }
      ],
      "name": "Borrow",
      "type": "event"
    },
    {
      "anonymous": false,
      "inputs": [
        {
          "indexed": false,
          "internalType": "uint256",
          "name": "error",
          "type": "uint256"
        },
        {
          "indexed": false,
          "internalType": "uint256",
          "name": "info",
          "type": "uint256"
        },
        {
          "indexed": false,
          "internalType": "uint256",
          "name": "detail",
          "type": "uint256"
        }
      ],
      "name": "Failure",
      "type": "event"
    },
    {
      "anonymous": false,
      "inputs": [
        {
          "indexed": false,
          "internalType": "address",
          "name": "liquidator",
          "type": "address"
        },
        {
          "indexed": false,
          "internalType": "address",
          "name": "borrower",
          "type": "address"
        },
        {
          "indexed": false,
          "internalType": "uint256",
          "name": "repayAmount",
          "type": "uint256"
        },
        {
          "indexed": false,
          "internalType": "address",
          "name": "cTokenCollateral",
          "type": "address"
        },
        {
          "indexed": false,
          "internalType": "uint256",
          "name": "seizeTokens",
          "type": "uint256"
        }
      ],
      "name": "LiquidateBorrow",
      "type": "event"
    },
    {
      "anonymous": false,
      "inputs": [
        {
          "indexed": false,
          "internalType": "address",
          "name": "minter",
          "type": "address"
        },
        {
          "indexed": false,
          "internalType": "uint256",
          "name": "mintAmount",
          "type": "uint256"
        },
        {
          "indexed": false,
          "internalType": "uint256",
          "name": "mintTokens",
          "type": "uint256"
        }
      ],
      "name": "Mint",
      "type": "event"
    },
    {
      "anonymous": false,
      "inputs": [
        {
          "indexed": false,
          "internalType": "uint256",
          "name": "oldAdminFeeMantissa",
          "type": "uint256"
        },
        {
          "indexed": false,
          "internalType": "uint256",
          "name": "newAdminFeeMantissa",
          "type": "uint256"
        }
      ],
      "name": "NewAdminFee",
      "type": "event"
    },
    {
      "anonymous": false,
      "inputs": [
        {
          "indexed": false,
          "internalType": "contract ComptrollerInterface",
          "name": "oldComptroller",
          "type": "address"
        },
        {
          "indexed": false,
          "internalType": "contract ComptrollerInterface",
          "name": "newComptroller",
          "type": "address"
        }
      ],
      "name": "NewComptroller",
      "type": "event"
    },
    {
      "anonymous": false,
      "inputs": [
        {
          "indexed": false,
          "internalType": "uint256",
          "name": "oldFuseFeeMantissa",
          "type": "uint256"
        },
        {
          "indexed": false,
          "internalType": "uint256",
          "name": "newFuseFeeMantissa",
          "type": "uint256"
        }
      ],
      "name": "NewFuseFee",
      "type": "event"
    },
    {
      "anonymous": false,
      "inputs": [
        {
          "indexed": false,
          "internalType": "contract InterestRateModel",
          "name": "oldInterestRateModel",
          "type": "address"
        },
        {
          "indexed": false,
          "internalType": "contract InterestRateModel",
          "name": "newInterestRateModel",
          "type": "address"
        }
      ],
      "name": "NewMarketInterestRateModel",
      "type": "event"
    },
    {
      "anonymous": false,
      "inputs": [
        {
          "indexed": false,
          "internalType": "uint256",
          "name": "oldReserveFactorMantissa",
          "type": "uint256"
        },
        {
          "indexed": false,
          "internalType": "uint256",
          "name": "newReserveFactorMantissa",
          "type": "uint256"
        }
      ],
      "name": "NewReserveFactor",
      "type": "event"
    },
    {
      "anonymous": false,
      "inputs": [
        {
          "indexed": false,
          "internalType": "address",
          "name": "redeemer",
          "type": "address"
        },
        {
          "indexed": false,
          "internalType": "uint256",
          "name": "redeemAmount",
          "type": "uint256"
        },
        {
          "indexed": false,
          "internalType": "uint256",
          "name": "redeemTokens",
          "type": "uint256"
        }
      ],
      "name": "Redeem",
      "type": "event"
    },
    {
      "anonymous": false,
      "inputs": [
        {
          "indexed": false,
          "internalType": "address",
          "name": "payer",
          "type": "address"
        },
        {
          "indexed": false,
          "internalType": "address",
          "name": "borrower",
          "type": "address"
        },
        {
          "indexed": false,
          "internalType": "uint256",
          "name": "repayAmount",
          "type": "uint256"
        },
        {
          "indexed": false,
          "internalType": "uint256",
          "name": "accountBorrows",
          "type": "uint256"
        },
        {
          "indexed": false,
          "internalType": "uint256",
          "name": "totalBorrows",
          "type": "uint256"
        }
      ],
      "name": "RepayBorrow",
      "type": "event"
    },
    {
      "anonymous": false,
      "inputs": [
        {
          "indexed": false,
          "internalType": "address",
          "name": "benefactor",
          "type": "address"
        },
        {
          "indexed": false,
          "internalType": "uint256",
          "name": "addAmount",
          "type": "uint256"
        },
        {
          "indexed": false,
          "internalType": "uint256",
          "name": "newTotalReserves",
          "type": "uint256"
        }
      ],
      "name": "ReservesAdded",
      "type": "event"
    },
    {
      "anonymous": false,
      "inputs": [
        {
          "indexed": false,
          "internalType": "address",
          "name": "admin",
          "type": "address"
        },
        {
          "indexed": false,
          "internalType": "uint256",
          "name": "reduceAmount",
          "type": "uint256"
        },
        {
          "indexed": false,
          "internalType": "uint256",
          "name": "newTotalReserves",
          "type": "uint256"
        }
      ],
      "name": "ReservesReduced",
      "type": "event"
    },
    {
      "anonymous": false,
      "inputs": [
        {
          "indexed": true,
          "internalType": "address",
          "name": "from",
          "type": "address"
        },
        {
          "indexed": true,
          "internalType": "address",
          "name": "to",
          "type": "address"
        },
        {
          "indexed": false,
          "internalType": "uint256",
          "name": "amount",
          "type": "uint256"
        }
      ],
      "name": "Transfer",
      "type": "event"
    },
    {
      "inputs": [
        {
          "internalType": "address",
          "name": "compLikeDelegatee",
          "type": "address"
        }
      ],
      "name": "_delegateCompLikeTo",
      "outputs": [],
      "stateMutability": "nonpayable",
      "type": "function"
    },
    {
      "inputs": [
        {
          "internalType": "uint256",
          "name": "reduceAmount",
          "type": "uint256"
        }
      ],
      "name": "_reduceReserves",
      "outputs": [
        {
          "internalType": "uint256",
          "name": "",
          "type": "uint256"
        }
      ],
      "stateMutability": "nonpayable",
      "type": "function"
    },
    {
      "inputs": [
        {
          "internalType": "uint256",
          "name": "newAdminFeeMantissa",
          "type": "uint256"
        }
      ],
      "name": "_setAdminFee",
      "outputs": [
        {
          "internalType": "uint256",
          "name": "",
          "type": "uint256"
        }
      ],
      "stateMutability": "nonpayable",
      "type": "function"
    },
    {
      "inputs": [
        {
          "internalType": "contract InterestRateModel",
          "name": "newInterestRateModel",
          "type": "address"
        }
      ],
      "name": "_setInterestRateModel",
      "outputs": [
        {
          "internalType": "uint256",
          "name": "",
          "type": "uint256"
        }
      ],
      "stateMutability": "nonpayable",
      "type": "function"
    },
    {
      "inputs": [
        {
          "internalType": "string",
          "name": "_name",
          "type": "string"
        },
        {
          "internalType": "string",
          "name": "_symbol",
          "type": "string"
        }
      ],
      "name": "_setNameAndSymbol",
      "outputs": [],
      "stateMutability": "nonpayable",
      "type": "function"
    },
    {
      "inputs": [
        {
          "internalType": "uint256",
          "name": "newReserveFactorMantissa",
          "type": "uint256"
        }
      ],
      "name": "_setReserveFactor",
      "outputs": [
        {
          "internalType": "uint256",
          "name": "",
          "type": "uint256"
        }
      ],
      "stateMutability": "nonpayable",
      "type": "function"
    },
    {
      "inputs": [
        {
          "internalType": "uint256",
          "name": "withdrawAmount",
          "type": "uint256"
        }
      ],
      "name": "_withdrawAdminFees",
      "outputs": [
        {
          "internalType": "uint256",
          "name": "",
          "type": "uint256"
        }
      ],
      "stateMutability": "nonpayable",
      "type": "function"
    },
    {
      "inputs": [
        {
          "internalType": "uint256",
          "name": "withdrawAmount",
          "type": "uint256"
        }
      ],
      "name": "_withdrawFuseFees",
      "outputs": [
        {
          "internalType": "uint256",
          "name": "",
          "type": "uint256"
        }
      ],
      "stateMutability": "nonpayable",
      "type": "function"
    },
    {
      "inputs": [],
      "name": "accrualBlockNumber",
      "outputs": [
        {
          "internalType": "uint256",
          "name": "",
          "type": "uint256"
        }
      ],
      "stateMutability": "view",
      "type": "function"
    },
    {
      "inputs": [],
      "name": "accrueInterest",
      "outputs": [
        {
          "internalType": "uint256",
          "name": "",
          "type": "uint256"
        }
      ],
      "stateMutability": "nonpayable",
      "type": "function"
    },
    {
      "inputs": [],
      "name": "adminFeeMantissa",
      "outputs": [
        {
          "internalType": "uint256",
          "name": "",
          "type": "uint256"
        }
      ],
      "stateMutability": "view",
      "type": "function"
    },
    {
      "inputs": [
        {
          "internalType": "address",
          "name": "owner",
          "type": "address"
        },
        {
          "internalType": "address",
          "name": "spender",
          "type": "address"
        }
      ],
      "name": "allowance",
      "outputs": [
        {
          "internalType": "uint256",
          "name": "",
          "type": "uint256"
        }
      ],
      "stateMutability": "view",
      "type": "function"
    },
    {
      "inputs": [
        {
          "internalType": "address",
          "name": "spender",
          "type": "address"
        },
        {
          "internalType": "uint256",
          "name": "amount",
          "type": "uint256"
        }
      ],
      "name": "approve",
      "outputs": [
        {
          "internalType": "bool",
          "name": "",
          "type": "bool"
        }
      ],
      "stateMutability": "nonpayable",
      "type": "function"
    },
    {
      "inputs": [
        {
          "internalType": "address",
          "name": "owner",
          "type": "address"
        }
      ],
      "name": "balanceOf",
      "outputs": [
        {
          "internalType": "uint256",
          "name": "",
          "type": "uint256"
        }
      ],
      "stateMutability": "view",
      "type": "function"
    },
    {
      "inputs": [
        {
          "internalType": "address",
          "name": "owner",
          "type": "address"
        }
      ],
      "name": "balanceOfUnderlying",
      "outputs": [
        {
          "internalType": "uint256",
          "name": "",
          "type": "uint256"
        }
      ],
      "stateMutability": "nonpayable",
      "type": "function"
    },
    {
      "inputs": [
        {
          "internalType": "uint256",
          "name": "borrowAmount",
          "type": "uint256"
        }
      ],
      "name": "borrow",
      "outputs": [
        {
          "internalType": "uint256",
          "name": "",
          "type": "uint256"
        }
      ],
      "stateMutability": "nonpayable",
      "type": "function"
    },
    {
      "inputs": [
        {
          "internalType": "address",
          "name": "account",
          "type": "address"
        }
      ],
      "name": "borrowBalanceCurrent",
      "outputs": [
        {
          "internalType": "uint256",
          "name": "",
          "type": "uint256"
        }
      ],
      "stateMutability": "nonpayable",
      "type": "function"
    },
    {
      "inputs": [
        {
          "internalType": "address",
          "name": "account",
          "type": "address"
        }
      ],
      "name": "borrowBalanceStored",
      "outputs": [
        {
          "internalType": "uint256",
          "name": "",
          "type": "uint256"
        }
      ],
      "stateMutability": "view",
      "type": "function"
    },
    {
      "inputs": [],
      "name": "borrowIndex",
      "outputs": [
        {
          "internalType": "uint256",
          "name": "",
          "type": "uint256"
        }
      ],
      "stateMutability": "view",
      "type": "function"
    },
    {
      "inputs": [],
      "name": "borrowRatePerBlock",
      "outputs": [
        {
          "internalType": "uint256",
          "name": "",
          "type": "uint256"
        }
      ],
      "stateMutability": "view",
      "type": "function"
    },
    {
      "inputs": [],
      "name": "comptroller",
      "outputs": [
        {
          "internalType": "contract ComptrollerInterface",
          "name": "",
          "type": "address"
        }
      ],
      "stateMutability": "view",
      "type": "function"
    },
    {
      "inputs": [],
      "name": "decimals",
      "outputs": [
        {
          "internalType": "uint8",
          "name": "",
          "type": "uint8"
        }
      ],
      "stateMutability": "view",
      "type": "function"
    },
    {
      "inputs": [],
      "name": "exchangeRateCurrent",
      "outputs": [
        {
          "internalType": "uint256",
          "name": "",
          "type": "uint256"
        }
      ],
      "stateMutability": "nonpayable",
      "type": "function"
    },
    {
      "inputs": [],
      "name": "exchangeRateStored",
      "outputs": [
        {
          "internalType": "uint256",
          "name": "",
          "type": "uint256"
        }
      ],
      "stateMutability": "view",
      "type": "function"
    },
    {
      "inputs": [],
      "name": "feeSeizeShareMantissa",
      "outputs": [
        {
          "internalType": "uint256",
          "name": "",
          "type": "uint256"
        }
      ],
      "stateMutability": "view",
      "type": "function"
    },
    {
      "inputs": [],
      "name": "fuseAdmin",
      "outputs": [
        {
          "internalType": "address payable",
          "name": "",
          "type": "address"
        }
      ],
      "stateMutability": "view",
      "type": "function"
    },
    {
      "inputs": [],
      "name": "fuseFeeMantissa",
      "outputs": [
        {
          "internalType": "uint256",
          "name": "",
          "type": "uint256"
        }
      ],
      "stateMutability": "view",
      "type": "function"
    },
    {
      "inputs": [
        {
          "internalType": "address",
          "name": "account",
          "type": "address"
        }
      ],
      "name": "getAccountSnapshot",
      "outputs": [
        {
          "internalType": "uint256",
          "name": "",
          "type": "uint256"
        },
        {
          "internalType": "uint256",
          "name": "",
          "type": "uint256"
        },
        {
          "internalType": "uint256",
          "name": "",
          "type": "uint256"
        },
        {
          "internalType": "uint256",
          "name": "",
          "type": "uint256"
        }
      ],
      "stateMutability": "view",
      "type": "function"
    },
    {
      "inputs": [],
      "name": "getCash",
      "outputs": [
        {
          "internalType": "uint256",
          "name": "",
          "type": "uint256"
        }
      ],
      "stateMutability": "view",
      "type": "function"
    },
    {
      "inputs": [
        {
          "internalType": "address",
          "name": "underlying_",
          "type": "address"
        },
        {
          "internalType": "contract ComptrollerInterface",
          "name": "comptroller_",
          "type": "address"
        },
        {
          "internalType": "address payable",
          "name": "fuseAdmin_",
          "type": "address"
        },
        {
          "internalType": "contract InterestRateModel",
          "name": "interestRateModel_",
          "type": "address"
        },
        {
          "internalType": "string",
          "name": "name_",
          "type": "string"
        },
        {
          "internalType": "string",
          "name": "symbol_",
          "type": "string"
        },
        {
          "internalType": "uint256",
          "name": "reserveFactorMantissa_",
          "type": "uint256"
        },
        {
          "internalType": "uint256",
          "name": "adminFeeMantissa_",
          "type": "uint256"
        }
      ],
      "name": "initialize",
      "outputs": [],
      "stateMutability": "nonpayable",
      "type": "function"
    },
    {
      "inputs": [
        {
          "internalType": "contract ComptrollerInterface",
          "name": "comptroller_",
          "type": "address"
        },
        {
          "internalType": "address payable",
          "name": "fuseAdmin_",
          "type": "address"
        },
        {
          "internalType": "contract InterestRateModel",
          "name": "interestRateModel_",
          "type": "address"
        },
        {
          "internalType": "uint256",
          "name": "initialExchangeRateMantissa_",
          "type": "uint256"
        },
        {
          "internalType": "string",
          "name": "name_",
          "type": "string"
        },
        {
          "internalType": "string",
          "name": "symbol_",
          "type": "string"
        },
        {
          "internalType": "uint8",
          "name": "decimals_",
          "type": "uint8"
        },
        {
          "internalType": "uint256",
          "name": "reserveFactorMantissa_",
          "type": "uint256"
        },
        {
          "internalType": "uint256",
          "name": "adminFeeMantissa_",
          "type": "uint256"
        }
      ],
      "name": "initialize",
      "outputs": [],
      "stateMutability": "nonpayable",
      "type": "function"
    },
    {
      "inputs": [],
      "name": "interestRateModel",
      "outputs": [
        {
          "internalType": "contract InterestRateModel",
          "name": "",
          "type": "address"
        }
      ],
      "stateMutability": "view",
      "type": "function"
    },
    {
      "inputs": [],
      "name": "isCEther",
      "outputs": [
        {
          "internalType": "bool",
          "name": "",
          "type": "bool"
        }
      ],
      "stateMutability": "nonpayable",
      "type": "function"
    },
    {
      "inputs": [],
      "name": "isCToken",
      "outputs": [
        {
          "internalType": "bool",
          "name": "",
          "type": "bool"
        }
      ],
      "stateMutability": "nonpayable",
      "type": "function"
    },
    {
      "inputs": [
        {
          "internalType": "address",
          "name": "borrower",
          "type": "address"
        },
        {
          "internalType": "uint256",
          "name": "repayAmount",
          "type": "uint256"
        },
        {
          "internalType": "contract CTokenInterface",
          "name": "cTokenCollateral",
          "type": "address"
        }
      ],
      "name": "liquidateBorrow",
      "outputs": [
        {
          "internalType": "uint256",
          "name": "",
          "type": "uint256"
        }
      ],
      "stateMutability": "nonpayable",
      "type": "function"
    },
    {
      "inputs": [
        {
          "internalType": "uint256",
          "name": "mintAmount",
          "type": "uint256"
        }
      ],
      "name": "mint",
      "outputs": [
        {
          "internalType": "uint256",
          "name": "",
          "type": "uint256"
        }
      ],
      "stateMutability": "nonpayable",
      "type": "function"
    },
    {
      "inputs": [],
      "name": "name",
      "outputs": [
        {
          "internalType": "string",
          "name": "",
          "type": "string"
        }
      ],
      "stateMutability": "view",
      "type": "function"
    },
    {
      "inputs": [],
      "name": "protocolSeizeShareMantissa",
      "outputs": [
        {
          "internalType": "uint256",
          "name": "",
          "type": "uint256"
        }
      ],
      "stateMutability": "view",
      "type": "function"
    },
    {
      "inputs": [
        {
          "internalType": "uint256",
          "name": "redeemTokens",
          "type": "uint256"
        }
      ],
      "name": "redeem",
      "outputs": [
        {
          "internalType": "uint256",
          "name": "",
          "type": "uint256"
        }
      ],
      "stateMutability": "nonpayable",
      "type": "function"
    },
    {
      "inputs": [
        {
          "internalType": "uint256",
          "name": "redeemAmount",
          "type": "uint256"
        }
      ],
      "name": "redeemUnderlying",
      "outputs": [
        {
          "internalType": "uint256",
          "name": "",
          "type": "uint256"
        }
      ],
      "stateMutability": "nonpayable",
      "type": "function"
    },
    {
      "inputs": [
        {
          "internalType": "uint256",
          "name": "repayAmount",
          "type": "uint256"
        }
      ],
      "name": "repayBorrow",
      "outputs": [
        {
          "internalType": "uint256",
          "name": "",
          "type": "uint256"
        }
      ],
      "stateMutability": "nonpayable",
      "type": "function"
    },
    {
      "inputs": [
        {
          "internalType": "address",
          "name": "borrower",
          "type": "address"
        },
        {
          "internalType": "uint256",
          "name": "repayAmount",
          "type": "uint256"
        }
      ],
      "name": "repayBorrowBehalf",
      "outputs": [
        {
          "internalType": "uint256",
          "name": "",
          "type": "uint256"
        }
      ],
      "stateMutability": "nonpayable",
      "type": "function"
    },
    {
      "inputs": [],
      "name": "reserveFactorMantissa",
      "outputs": [
        {
          "internalType": "uint256",
          "name": "",
          "type": "uint256"
        }
      ],
      "stateMutability": "view",
      "type": "function"
    },
    {
      "inputs": [
        {
          "internalType": "address",
          "name": "liquidator",
          "type": "address"
        },
        {
          "internalType": "address",
          "name": "borrower",
          "type": "address"
        },
        {
          "internalType": "uint256",
          "name": "seizeTokens",
          "type": "uint256"
        }
      ],
      "name": "seize",
      "outputs": [
        {
          "internalType": "uint256",
          "name": "",
          "type": "uint256"
        }
      ],
      "stateMutability": "nonpayable",
      "type": "function"
    },
    {
      "inputs": [],
      "name": "supplyRatePerBlock",
      "outputs": [
        {
          "internalType": "uint256",
          "name": "",
          "type": "uint256"
        }
      ],
      "stateMutability": "view",
      "type": "function"
    },
    {
      "inputs": [],
      "name": "symbol",
      "outputs": [
        {
          "internalType": "string",
          "name": "",
          "type": "string"
        }
      ],
      "stateMutability": "view",
      "type": "function"
    },
    {
      "inputs": [],
      "name": "totalAdminFees",
      "outputs": [
        {
          "internalType": "uint256",
          "name": "",
          "type": "uint256"
        }
      ],
      "stateMutability": "view",
      "type": "function"
    },
    {
      "inputs": [],
      "name": "totalBorrows",
      "outputs": [
        {
          "internalType": "uint256",
          "name": "",
          "type": "uint256"
        }
      ],
      "stateMutability": "view",
      "type": "function"
    },
    {
      "inputs": [],
      "name": "totalBorrowsCurrent",
      "outputs": [
        {
          "internalType": "uint256",
          "name": "",
          "type": "uint256"
        }
      ],
      "stateMutability": "nonpayable",
      "type": "function"
    },
    {
      "inputs": [],
      "name": "totalFuseFees",
      "outputs": [
        {
          "internalType": "uint256",
          "name": "",
          "type": "uint256"
        }
      ],
      "stateMutability": "view",
      "type": "function"
    },
    {
      "inputs": [],
      "name": "totalReserves",
      "outputs": [
        {
          "internalType": "uint256",
          "name": "",
          "type": "uint256"
        }
      ],
      "stateMutability": "view",
      "type": "function"
    },
    {
      "inputs": [],
      "name": "totalSupply",
      "outputs": [
        {
          "internalType": "uint256",
          "name": "",
          "type": "uint256"
        }
      ],
      "stateMutability": "view",
      "type": "function"
    },
    {
      "inputs": [
        {
          "internalType": "address",
          "name": "dst",
          "type": "address"
        },
        {
          "internalType": "uint256",
          "name": "amount",
          "type": "uint256"
        }
      ],
      "name": "transfer",
      "outputs": [
        {
          "internalType": "bool",
          "name": "",
          "type": "bool"
        }
      ],
      "stateMutability": "nonpayable",
      "type": "function"
    },
    {
      "inputs": [
        {
          "internalType": "address",
          "name": "src",
          "type": "address"
        },
        {
          "internalType": "address",
          "name": "dst",
          "type": "address"
        },
        {
          "internalType": "uint256",
          "name": "amount",
          "type": "uint256"
        }
      ],
      "name": "transferFrom",
      "outputs": [
        {
          "internalType": "bool",
          "name": "",
          "type": "bool"
        }
      ],
      "stateMutability": "nonpayable",
      "type": "function"
    },
    {
      "inputs": [],
      "name": "underlying",
      "outputs": [
        {
          "internalType": "address",
          "name": "",
          "type": "address"
        }
      ],
      "stateMutability": "view",
      "type": "function"
    }
  ],
  "bytecode": {
    "object": "0x608060405234801561001057600080fd5b50615435806100206000396000f3fe608060405234801561001057600080fd5b506004361061027d5760003560e01c806306db3ecd1461028257806306fdde0314610297578063095ea7b3146102b55780630e752702146102d857806315761d51146102f9578063173b99041461031957806317bfdfbc1461032257806318160ddd14610335578063182df0f51461033e578063219ef65c1461034657806323b872dd146103595780632608f8181461036c578063313ce5671461037f57806334154d4c1461039e5780633af9e669146103b15780633b1d21a2146103c457806347bd3718146103cc5780635fe3b567146103d5578063601a0bf1146103e857806361feacff146103fb5780636752e702146104045780636c540baf146104125780636f307dc31461041b57806370a082311461042e57806373acee98146104575780637f1e06be1461045f578063852a12e3146104725780638d02d9a1146104855780638f840ddd1461048e57806391dd36c61461049757806395d89b41146104aa57806395dd9193146104b2578063a03dce8d146104c5578063a0712d68146104d8578063a6afed95146104eb578063a7b820df146104f3578063a9059cbb14610506578063aa5af0fd14610519578063ac784ddc14610522578063ae9d70b014610529578063b2a02ff114610531578063bd6d894d14610544578063be99f1191461054c578063c37f68e21461055b578063c5ebeaec1461057e578063db006a7514610591578063dbfe7c19146105a4578063dc028ab1146105ad578063dd62ed3e146105b6578063f2b3abbd146105ef578063f3fdb15a14610602578063f5e3c46214610615578063f8f9da2814610628578063fca7820b14610630578063fe9c44ae14610643575b600080fd5b610295610290366004614cee565b61064a565b005b61029f610758565b6040516102ac9190614ddb565b60405180910390f35b6102c86102c3366004614e0e565b6107e6565b60405190151581526020016102ac565b6102eb6102e6366004614e3a565b610856565b6040519081526020016102ac565b60005461030c906001600160a01b031681565b6040516102ac9190614e53565b6102eb600a5481565b6102eb610330366004614e67565b61086a565b6102eb60115481565b6102eb6108c1565b610295610354366004614e9e565b610952565b6102c8610367366004614f65565b610c79565b6102eb61037a366004614e0e565b610c9f565b60045461038c9060ff1681565b60405160ff90911681526020016102ac565b6102956103ac366004614fe7565b610cb5565b6102eb6103bf366004614e67565b610d1c565b6102eb610dcc565b6102eb600d5481565b60055461030c906001600160a01b031681565b6102eb6103f6366004614e3a565b610ddb565b6102eb600f5481565b6102eb666379da05b6000081565b6102eb600b5481565b60155461030c906001600160a01b031681565b6102eb61043c366004614e67565b6001600160a01b031660009081526012602052604090205490565b6102eb610e32565b61029561046d366004614e67565b610e77565b6102eb610480366004614e3a565b610f3f565b6102eb60085481565b6102eb600e5481565b6102eb6104a5366004614e3a565b610f4a565b61029f610f8d565b6102eb6104c0366004614e67565b610f9a565b6102eb6104d3366004614e3a565b611035565b6102eb6104e6366004614e3a565b611078565b6102eb611084565b6102eb610501366004614e3a565b61122c565b6102c8610514366004614e0e565b61126f565b6102eb600c5481565b60006102c8565b6102eb61129c565b6102eb61053f366004614f65565b61134c565b6102eb611370565b6102eb67016345785d8a000081565b61056e610569366004614e67565b6113b6565b6040516102ac9493929190615052565b6102eb61058c366004614e3a565b611457565b6102eb61059f366004614e3a565b611462565b6102eb60095481565b6102eb60105481565b6102eb6105c436600461506d565b6001600160a01b03918216600090815260136020908152604080832093909416825291909152205490565b6102eb6105fd366004614e67565b61146d565b60065461030c906001600160a01b031681565b6102eb6106233660046150a6565b6114a5565b6102eb6114bd565b6102eb61063e366004614e3a565b61150e565b60016102c8565b60006702c68af0bb14000090506000896001600160a01b031663313ce5676040518163ffffffff1660e01b8152600401602060405180830381865afa158015610697573d6000803e3d6000fd5b505050506040513d601f19601f820116820180604052508101906106bb91906150e8565b90506106ce898989858a8a878b8b610952565b601580546001600160a01b0319166001600160a01b038c16908117909155604080516318160ddd60e01b815290516318160ddd916004808201926020929091908290030181865afa158015610727573d6000803e3d6000fd5b505050506040513d601f19601f8201168201806040525081019061074b9190615105565b5050505050505050505050565b600280546107659061511e565b80601f01602080910402602001604051908101604052809291908181526020018280546107919061511e565b80156107de5780601f106107b3576101008083540402835291602001916107de565b820191906000526020600020905b8154815290600101906020018083116107c157829003601f168201915b505050505081565b3360008181526013602090815260408083206001600160a01b03871680855292528083208590555191929182907f8c5be1e5ebec7d5bd14f71427d1e84f3dd0314c0f7b2291e5b200ac8c7c3b925906108429087815260200190565b60405180910390a360019150505b92915050565b60008061086283611551565b509392505050565b600080610876816115b9565b6000610880611084565b146108a65760405162461bcd60e51b815260040161089d90615169565b60405180910390fd5b6108af83610f9a565b91505b6108bb8161167d565b50919050565b60008060006108ce6116e8565b909250905060008260038111156108e7576108e7615153565b146108505760405162461bcd60e51b815260206004820152603560248201527f65786368616e67655261746553746f7265643a2065786368616e67655261746560448201527414dd1bdc9959125b9d195c9b985b0819985a5b1959605a1b606482015260840161089d565b336001600160a01b038916146109bc5760405162461bcd60e51b815260206004820152602960248201527f6f6e6c7920467573652061646d696e206d617920696e697469616c697a6520746044820152681a19481b585c9ad95d60ba1b606482015260840161089d565b600b541580156109cc5750600c54155b610a245760405162461bcd60e51b815260206004820152602360248201527f6d61726b6574206d6179206f6e6c7920626520696e697469616c697a6564206f6044820152626e636560e81b606482015260840161089d565b600080546001600160a01b0319166001600160a01b038a16179055600786905585610aaa5760405162461bcd60e51b815260206004820152603060248201527f696e697469616c2065786368616e67652072617465206d75737420626520677260448201526f32b0ba32b9103a3430b7103d32b9379760811b606482015260840161089d565b6000610ab58a6117a7565b90508015610b025760405162461bcd60e51b815260206004820152601a6024820152791cd95d1d1a5b99c818dbdb5c1d1c9bdb1b195c8819985a5b195960321b604482015260640161089d565b43600b55670de0b6b3a7640000600c55610b1b8861189b565b90508015610b765760405162461bcd60e51b815260206004820152602260248201527f73657474696e6720696e7465726573742072617465206d6f64656c206661696c604482015261195960f21b606482015260840161089d565b8551610b89906002906020890190614acd565b508451610b9d906003906020880190614acd565b506004805460ff191660ff8616179055610bb683611ad5565b90508015610c065760405162461bcd60e51b815260206004820152601d60248201527f73657474696e67207265736572766520666163746f72206661696c6564000000604482015260640161089d565b610c0f82611b74565b90508015610c5a5760405162461bcd60e51b81526020600482015260186024820152771cd95d1d1a5b99c818591b5a5b881999594819985a5b195960421b604482015260640161089d565b50506001805460ff60b01b1916600160b01b1790555050505050505050565b600080610c85816115b9565b6000610c9333878787611c8e565b1491506108628161167d565b600080610cac8484611f21565b50949350505050565b610cbd611f8b565b610cfc5760405162461bcd60e51b815260206004820152601060248201526f31b0b63632b9103737ba1030b236b4b760811b604482015260640161089d565b610d0860028585614b4d565b50610d1560038383614b4d565b5050505050565b6000806040518060200160405280610d32611370565b90526001600160a01b038416600090815260126020526040812054919250908190610d5e9084906120f6565b90925090506000826003811115610d7757610d77615153565b14610dc45760405162461bcd60e51b815260206004820152601f60248201527f62616c616e636520636f756c64206e6f742062652063616c63756c6174656400604482015260640161089d565b949350505050565b6000610dd6612149565b905090565b600080610de7816115b9565b6000610df1611084565b90508015610e1d57610e15816011811115610e0e57610e0e615153565b603b6121bd565b9250506108b2565b610e268461221d565b9250506108bb8161167d565b600080610e3e816115b9565b6000610e48611084565b14610e655760405162461bcd60e51b815260040161089d90615169565b600d549150610e738161167d565b5090565b610e7f611f8b565b610ee15760405162461bcd60e51b815260206004820152602d60248201527f6f6e6c79207468652061646d696e206d6179207365742074686520636f6d702d60448201526c6c696b652064656c656761746560981b606482015260840161089d565b6015546040516317066a5760e21b81526001600160a01b0390911690635c19a95c90610f11908490600401614e53565b600060405180830381600087803b158015610f2b57600080fd5b505af1158015610d15573d6000803e3d6000fd5b6000610850826122ce565b600080610f56816115b9565b6000610f60611084565b90508015610f8457610e15816011811115610f7d57610f7d615153565b60526121bd565b610e2684611b74565b600380546107659061511e565b6000806000610fa884612314565b90925090506000826003811115610fc157610fc1615153565b1461102e5760405162461bcd60e51b815260206004820152603760248201527f626f72726f7742616c616e636553746f7265643a20626f72726f7742616c616e60448201527618d954dd1bdc9959125b9d195c9b985b0819985a5b1959604a1b606482015260840161089d565b9392505050565b600080611041816115b9565b600061104b611084565b9050801561106f57610e1581601181111561106857611068615153565b60336121bd565b610e26846123cd565b60008061086283612440565b600b54600090439081141561109c5760005b91505090565b60006110a6612149565b90506000600660009054906101000a90046001600160a01b03166001600160a01b03166315f2405383600d546110eb600e546110e6600f54601054612486565b612486565b6040518463ffffffff1660e01b815260040161110993929190615199565b602060405180830381865afa158015611126573d6000803e3d6000fd5b505050506040513d601f19601f8201168201806040525081019061114a9190615105565b905065048c273950008111156111a15760405162461bcd60e51b815260206004820152601c60248201527b0c4dee4e4deee40e4c2e8ca40d2e640c2c4e6eae4c8d8f240d0d2ced60231b604482015260640161089d565b6000806111b085600b546124bc565b909250905060008260038111156111c9576111c9615153565b146112165760405162461bcd60e51b815260206004820152601f60248201527f636f756c64206e6f742063616c63756c61746520626c6f636b2064656c746100604482015260640161089d565b611222858585846124e7565b9550505050505090565b600080611238816115b9565b6000611242611084565b9050801561126657610e1581601181111561125f5761125f615153565b60376121bd565b610e2684612609565b60008061127b816115b9565b600061128933338787611c8e565b1491506112958161167d565b5092915050565b6006546000906001600160a01b031663b81688166112b8612149565b600d546112cf600e546110e6600f54601054612486565b600854600954600a546112e291906151c5565b6112ec91906151c5565b6040518563ffffffff1660e01b815260040161130b9493929190615052565b602060405180830381865afa158015611328573d6000803e3d6000fd5b505050506040513d601f19601f82011682018060405250810190610dd69190615105565b60006001611359816115b9565b611365338686866126e7565b91506108628161167d565b60008061137c816115b9565b6000611386611084565b146113a35760405162461bcd60e51b815260040161089d90615169565b6113ab6108c1565b9150610e738161167d565b6001600160a01b0381166000908152601260205260408120548190819081908180806113e189612314565b9350905060008160038111156113f9576113f9615153565b146114175760095b6000806000975097509750975050505050611450565b61141f6116e8565b92509050600081600381111561143757611437615153565b14611443576009611401565b5060009650919450925090505b9193509193565b600061085082612bce565b600061085082612c12565b600080611478611084565b9050801561149c5761102e81601181111561149557611495615153565b604b6121bd565b61102e8361189b565b6000806114b3858585612c51565b5095945050505050565b6006546000906001600160a01b03166315f240536114d9612149565b600d546114f0600e546110e6600f54601054612486565b6040518463ffffffff1660e01b815260040161130b93929190615199565b60008061151a816115b9565b6000611524611084565b9050801561154857610e1581601181111561154157611541615153565b60596121bd565b610e2684611ad5565b600080600061155f816115b9565b6000611569611084565b905080156115995761158d81601181111561158657611586615153565b60416121bd565b600093509350506115aa565b6115a4333387612d45565b93509350505b6115b38161167d565b50915091565b600154600160b01b900460ff166115ff5760405162461bcd60e51b815260206004820152600a6024820152691c994b595b9d195c995960b21b604482015260640161089d565b8061166d57600560009054906101000a90046001600160a01b03166001600160a01b031663c90c20b16040518163ffffffff1660e01b8152600401600060405180830381600087803b15801561165457600080fd5b505af1158015611668573d6000803e3d6000fd5b505050505b506001805460ff60b01b19169055565b6001805460ff60b01b1916600160b01b179055806116e557600560009054906101000a90046001600160a01b03166001600160a01b031663632e51426040518163ffffffff1660e01b8152600401600060405180830381600087803b158015610f2b57600080fd5b50565b601154600090819080611702575050600754600092909150565b600061170c612149565b90506000611718614bc1565b600061173a84600d54611735600e546110e6600f54601054612486565b61314e565b93509050600081600381111561175257611752615153565b14611764579660009650945050505050565b61176e83866131a0565b92509050600081600381111561178657611786615153565b14611798579660009650945050505050565b50516000969095509350505050565b600080600560009054906101000a90046001600160a01b03169050826001600160a01b0316627e3dd26040518163ffffffff1660e01b8152600401602060405180830381865afa1580156117ff573d6000803e3d6000fd5b505050506040513d601f19601f8201168201806040525081019061182391906151dd565b61183f5760405162461bcd60e51b815260040161089d906151ff565b600580546001600160a01b0319166001600160a01b0385161790556040517f7ac369dbd14fa5ea3f473ed67cc9d598964a77501540ba6751eb0b3decf5870d9061188c9083908690615235565b60405180910390a1600061102e565b6000806118a6611f8b565b6118b65761102e6001604d6121bd565b43600b54146118cb5761102e600a604c6121bd565b600660009054906101000a90046001600160a01b03169050826001600160a01b0316632191f92a6040518163ffffffff1660e01b8152600401602060405180830381865afa158015611921573d6000803e3d6000fd5b505050506040513d601f19601f8201168201806040525081019061194591906151dd565b6119615760405162461bcd60e51b815260040161089d906151ff565b600680546001600160a01b0319166001600160a01b0385161790556040517fedffc32e068c7c95dfd4bdfd5c4d939a084d6b11c4199eac8436ed234d72f926906119ae9083908690615235565b60405180910390a16001600160a01b03811615611a495760408051600481526024810182526020810180516001600160e01b0316636cc1140b60e11b17905290516001600160a01b03831691611a039161524f565b6000604051808303816000865af19150503d8060008114611a40576040519150601f19603f3d011682016040523d82523d6000602084013e611a45565b606091505b5050505b60408051600481526024810182526020810180516001600160e01b031663742a137b60e11b17905290516001600160a01b03851691611a879161524f565b6000604051808303816000865af19150503d8060008114611ac4576040519150601f19603f3d011682016040523d82523d6000602084013e611ac9565b606091505b506000915061102e9050565b6000611adf611f8b565b611aef576108506001605a6121bd565b43600b5414611b0457610850600a605b6121bd565b670de0b6b3a7640000611b24611b1c84600854612486565b600954612486565b1115611b36576108506002605c6121bd565b600a80549083905560408051828152602081018590527faaa68312e2ea9d50e16af5068410ab56e1a1fd06037b1a35664812c30f821460910161188c565b600043600b5414611b8b57610850600a60546121bd565b600019821415611b9b5760085491505b6000611ba561325d565b9050670de0b6b3a7640000611bc5611bbf600a5486612486565b83612486565b1115611bd75761102e600260556121bd565b8260085414611c3b57611be8611f8b565b611bf85761102e600160536121bd565b600880549084905560408051828152602081018690527fcdd0b588250e1398549f79cfdb8217c186688822905d6715b0834ea1c865594a910160405180910390a1505b8060095414611c8757600980549082905560408051828152602081018490527f92eef861b6533b7d3417f39c2ad7b460eed4e88a32fa3604f30e718b7602e7dc910160405180910390a1505b600061102e565b6005546040516317b9b84b60e31b815260009182916001600160a01b039091169063bdcdc25890611cc990309089908990899060040161526b565b6020604051808303816000875af1158015611ce8573d6000803e3d6000fd5b505050506040513d601f19601f82011682018060405250810190611d0c9190615105565b90508015611d2957611d216003605d836132b1565b915050610dc4565b836001600160a01b0316856001600160a01b03161415611d4f57611d216002605e6121bd565b6000856001600160a01b0316876001600160a01b03161415611d745750600019611d9c565b506001600160a01b038086166000908152601360209081526040808320938a16835292905220545b600080600080611dac85896124bc565b90945092506000846003811115611dc557611dc5615153565b14611de357611dd66009605e6121bd565b9650505050505050610dc4565b6001600160a01b038a16600090815260126020526040902054611e0690896124bc565b90945091506000846003811115611e1f57611e1f615153565b14611e3057611dd66009605f6121bd565b6001600160a01b038916600090815260126020526040902054611e53908961333a565b90945090506000846003811115611e6c57611e6c615153565b14611e7d57611dd6600960606121bd565b6001600160a01b03808b16600090815260126020526040808220859055918b168152208190556000198514611ed5576001600160a01b03808b166000908152601360209081526040808320938f168352929052208390555b886001600160a01b03168a6001600160a01b03166000805160206154098339815191528a604051611f0891815260200190565b60405180910390a35060009a9950505050505050505050565b6000806000611f2f816115b9565b6000611f39611084565b90508015611f6957611f5d816011811115611f5657611f56615153565b60406121bd565b60009350935050611f7a565b611f74338787612d45565b93509350505b611f838161167d565b509250929050565b600554604080516303e1469160e61b815290516000926001600160a01b031691829163f851a440916004808201926020929091908290030181865afa158015611fd8573d6000803e3d6000fd5b505050506040513d601f19601f82011682018060405250810190611ffc9190615295565b6001600160a01b0316336001600160a01b03161480156120795750806001600160a01b0316630a755ec26040518163ffffffff1660e01b8152600401602060405180830381865afa158015612055573d6000803e3d6000fd5b505050506040513d601f19601f8201168201806040525081019061207991906151dd565b8061109657506000546001600160a01b0316331480156110965750806001600160a01b0316632f1069ba6040518163ffffffff1660e01b8152600401602060405180830381865afa1580156120d2573d6000803e3d6000fd5b505050506040513d601f19601f8201168201806040525081019061109691906151dd565b600080600080612106868661336a565b9092509050600082600381111561211f5761211f615153565b146121305750915060009050612142565b600061213b826133d8565b9350935050505b9250929050565b6015546040516370a0823160e01b81526000916001600160a01b03169081906370a082319061217c903090600401614e53565b602060405180830381865afa158015612199573d6000803e3d6000fd5b505050506040513d601f19601f820116820180604052508101906110969190615105565b60006000805160206153e98339815191528360118111156121e0576121e0615153565b8360638111156121f2576121f2615153565b600060405161220393929190615199565b60405180910390a182601181111561102e5761102e615153565b600080612228611f8b565b6122385761102e6001603c6121bd565b43600b541461224d5761102e600a603e6121bd565b82612256612149565b10156122685761102e600e603d6121bd565b600e5483111561227e5761102e6002603f6121bd565b61228a600e54846133f0565b600e819055905061229b338461342a565b7f3bad0c59cf2f06e7314077049f48a93578cd16f5ef92329f1dab1420a99c177e33848360405161188c939291906152b2565b6000806122da816115b9565b60006122e4611084565b9050801561230857610e1581601181111561230157612301615153565b602a6121bd565b610e26336000866134b6565b6001600160a01b0381166000908152601460205260408120805482918291829182916123495750600096879650945050505050565b6123598160000154600c546139f5565b9094509250600084600381111561237257612372615153565b1461238557509195600095509350505050565b612393838260010154613a3f565b909450915060008460038111156123ac576123ac615153565b146123bf57509195600095509350505050565b506000969095509350505050565b60008043600b54146123e55761102e600a60356121bd565b826123ee612149565b10156124005761102e600e60346121bd565b6010548311156124165761102e600260366121bd565b612422601054846133f0565b6010819055600054909150611c87906001600160a01b03168461342a565b600080600061244e816115b9565b6000612458611084565b9050801561247c5761158d81601181111561247557612475615153565b60206121bd565b6115a43386613a6a565b600061102e8383604051806040016040528060118152602001706164646974696f6e206f766572666c6f7760781b815250613de1565b6000808383116124db5760006124d284866152d3565b91509150612142565b50600390506000612142565b60008061250260405180602001604052808681525084613e12565b9050600061251282600d54613e3c565b9050600061252282600d54612486565b905060006125436040518060200160405280600a5481525084600e54613e54565b90506000612564604051806020016040528060095481525085601054613e54565b90506000612585604051806020016040528060085481525086600f54613e54565b9050600061259887600c54600c54613e54565b600b8d9055600c819055600d869055600e8590556010849055600f8390556040519091507f4dec04e750ca11537cabcd8a9eab06494de08da3735bc8871cd41250e190bc04906125ef908d90899085908a90615052565b60405180910390a160009c9b505050505050505050505050565b60008043600b54146126215761102e600a60396121bd565b8261262a612149565b101561263c5761102e600e60386121bd565b600f548311156126525761102e6002603a6121bd565b61265e600f54846133f0565b905080600f81905550611c87600560009054906101000a90046001600160a01b03166001600160a01b031663f851a4406040518163ffffffff1660e01b8152600401602060405180830381865afa1580156126bd573d6000803e3d6000fd5b505050506040513d601f19601f820116820180604052508101906126e19190615295565b8461342a565b60055460405163d02f735160e01b815260009182916001600160a01b039091169063d02f7351906127249030908a908a908a908a906004016152ea565b6020604051808303816000875af1158015612743573d6000803e3d6000fd5b505050506040513d601f19601f820116820180604052508101906127679190615105565b9050801561277c57611d216003601d836132b1565b846001600160a01b0316846001600160a01b031614156127a257611d216006601e6121bd565b612807604080516101808101909152806000815260200160008152602001600081526020016000815260200160008152602001600081526020016000815260200160008152602001600081526020016000815260200160008152602001600081525090565b6001600160a01b03851660009081526012602052604090205461282a90856124bc565b602083018190528282600381111561284457612844615153565b600381111561285557612855615153565b905250600090508151600381111561286f5761286f615153565b1461289f576128966009601c8360000151600381111561289157612891615153565b6132b1565b92505050610dc4565b6128be846040518060200160405280666379da05b60000815250613e7e565b6080820152604080516020810190915267016345785d8a000081526128e4908590613e7e565b6101408201526080810151612909906128fe9086906133f0565b8261014001516133f0565b60608201526129166116e8565b60c083018190528282600381111561293057612930615153565b600381111561294157612941615153565b905250600090508151600381111561295b5761295b615153565b146129a35760405162461bcd60e51b815260206004820152601860248201527732bc31b430b733b2903930ba329036b0ba341032b93937b960411b604482015260640161089d565b6129c360405180602001604052808360c001518152508260800151613e3c565b60a0820152604080516020810190915260c082015181526101408201516129ea9190613e3c565b610160820152600e5460a0820151612a029190612486565b60e08201526011546080820151612a1c916128fe916133f0565b610120820152601054610160820151612a359190612486565b6101008201526001600160a01b0386166000908152601260205260409020546060820151612a63919061333a565b6040830181905282826003811115612a7d57612a7d615153565b6003811115612a8e57612a8e615153565b9052506000905081516003811115612aa857612aa8615153565b14612aca576128966009601b8360000151600381111561289157612891615153565b60e0810151600e556101208101516011556101008101516010556020808201516001600160a01b0387811660008181526012855260408082209490945583860151928b1680825290849020929092556060850151925192835290929091600080516020615409833981519152910160405180910390a3306001600160a01b0316856001600160a01b03166000805160206154098339815191528360800151604051612b7791815260200190565b60405180910390a360a081015160e08201516040517fa91e67c5ea634cd43a12c5a482724b03de01e85ca68702a53d0c2f45cb7c1dc592612bb99230926152b2565b60405180910390a16000979650505050505050565b600080612bda816115b9565b6000612be4611084565b90508015612c0857610e15816011811115612c0157612c01615153565b600a6121bd565b610e263385613ea1565b600080612c1e816115b9565b6000612c28611084565b90508015612c4557610e1581601181111561230157612301615153565b610e26338560006134b6565b6000806000612c5f816115b9565b6000612c69611084565b90508015612c9957612c8d816011811115612c8657612c86615153565b60116121bd565b60009350935050612d33565b846001600160a01b031663a6afed956040518163ffffffff1660e01b81526004016020604051808303816000875af1158015612cd9573d6000803e3d6000fd5b505050506040513d601f19601f82011682018060405250810190612cfd9190615105565b90508015612d2157612c8d816011811115612d1a57612d1a615153565b60126121bd565b612d2d33888888614233565b93509350505b612d3c8161167d565b50935093915050565b600554604051631200453160e11b8152600091829182916001600160a01b0316906324008a6290612d809030908a908a908a9060040161526b565b6020604051808303816000875af1158015612d9f573d6000803e3d6000fd5b505050506040513d601f19601f82011682018060405250810190612dc39190615105565b90508015612de457612dd860036043836132b1565b60009250925050613146565b43600b5414612df957612dd8600a60446121bd565b612e426040805161010081019091528060008152602001600081526020016000815260200160008152602001600081526020016000815260200160008152602001600081525090565b6001600160a01b0386166000908152601460205260409020600101546060820152612e6c86612314565b6080830181905260208301826003811115612e8957612e89615153565b6003811115612e9a57612e9a615153565b9052506000905081602001516003811115612eb757612eb7615153565b14612ee657612ed9600960428360200151600381111561289157612891615153565b6000935093505050613146565b600019851415612eff5760808101516040820152612f07565b604081018590525b612f158782604001516146dd565b60e082018190526080820151612f2a916124bc565b60a0830181905260208301826003811115612f4757612f47615153565b6003811115612f5857612f58615153565b9052506000905081602001516003811115612f7557612f75615153565b14612fe55760405162461bcd60e51b815260206004820152603a60248201527f52455041595f424f52524f575f4e45575f4143434f554e545f424f52524f575f604482015279109053105390d157d0d05310d55310551253d397d1905253115160321b606482015260840161089d565b612ff5600d548260e001516124bc565b60c083018190526020830182600381111561301257613012615153565b600381111561302357613023615153565b905250600090508160200151600381111561304057613040615153565b146130a75760405162461bcd60e51b815260206004820152603160248201527f52455041595f424f52524f575f4e45575f544f54414c5f42414c414e43455f43604482015270105310d55310551253d397d19052531151607a1b606482015260840161089d565b60a081810180516001600160a01b03898116600081815260146020908152604091829020948555600c5460019095019490945560c0870151600d81905560e088015195518251948f16855294840192909252820193909352606081019190915260808101919091527f1a2a22cb034d26d1854bdc6666a5b91fe25efbbb5dcad3b0355478d6f5c362a1910160405180910390a160e00151600093509150505b935093915050565b60008060008061315e878761333a565b9092509050600082600381111561317757613177615153565b146131885750915060009050613146565b61319281866124bc565b935093505050935093915050565b60006131aa614bc1565b6000806131bf86670de0b6b3a76400006139f5565b909250905060008260038111156131d8576131d8615153565b146131f757506040805160208101909152600081529092509050612142565b6000806132048388613a3f565b9092509050600082600381111561321d5761321d615153565b146132405781604051806020016040528060008152509550955050505050612142565b604080516020810190915290815260009890975095505050505050565b60008060009054906101000a90046001600160a01b03166001600160a01b031663dd86fea16040518163ffffffff1660e01b8152600401602060405180830381865afa158015611328573d6000803e3d6000fd5b60006000805160206153e98339815191528460118111156132d4576132d4615153565b8460638111156132e6576132e6615153565b846040516132f693929190615199565b60405180910390a1600384601181111561331257613312615153565b1461332e5783601181111561332957613329615153565b610dc4565b610dc4826103e86151c5565b6000808061334884866151c5565b905084811061335c57600092509050612142565b600260009250925050612142565b6000613374614bc1565b6000806133858660000151866139f5565b9092509050600082600381111561339e5761339e615153565b146133bd57506040805160208101909152600081529092509050612142565b60408051602081019091529081526000969095509350505050565b805160009061085090670de0b6b3a76400009061531d565b600061102e8383604051806040016040528060158152602001747375627472616374696f6e20756e646572666c6f7760581b8152506148a9565b6134b263a9059cbb60e01b838360405160240161344892919061533f565b604051602081830303815290604052906001600160e01b0319166020820180516001600160e01b038381831617835250505050604051806040016040528060198152602001781513d2d15397d514905394d1915497d3d55517d19052531151603a1b8152506148d8565b5050565b60008215806134c3575081155b61352c5760405162461bcd60e51b815260206004820152603460248201527f6f6e65206f662072656465656d546f6b656e73496e206f722072656465656d416044820152736d6f756e74496e206d757374206265207a65726f60601b606482015260840161089d565b613534614bd4565b61353c6116e8565b604083018190526020830182600381111561355957613559615153565b600381111561356a5761356a615153565b905250600090508160200151600381111561358757613587615153565b146135b1576135a96009602e8360200151600381111561289157612891615153565b91505061102e565b831561364a5760608101849052604080516020810182529082015181526135d890856120f6565b60808301819052602083018260038111156135f5576135f5615153565b600381111561360657613606615153565b905250600090508160200151600381111561362357613623615153565b14613645576135a96009602c8360200151600381111561289157612891615153565b6136db565b6136668360405180602001604052808460400151815250614936565b606083018190526020830182600381111561368357613683615153565b600381111561369457613694615153565b90525060009050816020015160038111156136b1576136b1615153565b146136d3576135a96009602d8360200151600381111561289157612891615153565b608081018390525b600554606082015160405163eabe7d9160e01b81526000926001600160a01b03169163eabe7d91916137149130918b9190600401615358565b6020604051808303816000875af1158015613733573d6000803e3d6000fd5b505050506040513d601f19601f820116820180604052508101906137579190615105565b905080156137755761376c6003602b836132b1565b9250505061102e565b43600b541461378a5761376c600a602f6121bd565b61379a60115483606001516124bc565b60a08401819052602084018260038111156137b7576137b7615153565b60038111156137c8576137c8615153565b90525060009050826020015160038111156137e5576137e5615153565b146138075761376c600960318460200151600381111561289157612891615153565b6001600160a01b038616600090815260126020526040902054606083015161382f91906124bc565b60c084018190526020840182600381111561384c5761384c615153565b600381111561385d5761385d615153565b905250600090508260200151600381111561387a5761387a615153565b1461389c5761376c600960308460200151600381111561289157612891615153565b81608001516138a9612149565b10156138bb5761376c600e60326121bd565b60a082015160115560c08201516001600160a01b03871660009081526012602052604090205560808201516138f190879061342a565b306001600160a01b0316866001600160a01b0316600080516020615409833981519152846060015160405161392891815260200190565b60405180910390a3608082015160608301516040517fe5b754fb1abb7f01b499791d0b820ae3b6af3424ac1c59768edb53f4ec31a9299261396a928a926152b2565b60405180910390a1600554608083015160608401516040516351dff98960e01b81526001600160a01b03909316926351dff989926139b09230928c92919060040161537c565b600060405180830381600087803b1580156139ca57600080fd5b505af11580156139de573d6000803e3d6000fd5b50600092506139eb915050565b9695505050505050565b60008083613a0857506000905080612142565b6000613a1484866153a5565b905083613a21868361531d565b14613a3457600260009250925050612142565b600092509050612142565b60008082613a535750600190506000612142565b6000613a5f848661531d565b915091509250929050565b600554604051634ef4c3e160e01b8152600091829182916001600160a01b031690634ef4c3e190613aa390309089908990600401615358565b6020604051808303816000875af1158015613ac2573d6000803e3d6000fd5b505050506040513d601f19601f82011682018060405250810190613ae69190615105565b90508015613b0757613afb60036021836132b1565b60009250925050612142565b43600b5414613b1c57613afb600a60246121bd565b613b24614bd4565b613b2c6116e8565b6040830181905260208301826003811115613b4957613b49615153565b6003811115613b5a57613b5a615153565b9052506000905081602001516003811115613b7757613b77615153565b14613ba657613b99600960238360200151600381111561289157612891615153565b6000935093505050612142565b613bb086866146dd565b60c0820181905260408051602081018252908301518152613bd19190614936565b6060830181905260208301826003811115613bee57613bee615153565b6003811115613bff57613bff615153565b9052506000905081602001516003811115613c1c57613c1c615153565b14613c695760405162461bcd60e51b815260206004820181905260248201527f4d494e545f45584348414e47455f43414c43554c4154494f4e5f4641494c4544604482015260640161089d565b613c796011548260600151612486565b60808201526001600160a01b0386166000908152601260205260409020546060820151613ca69190612486565b60a0820181905260808201516011556001600160a01b038716600090815260126020526040908190209190915560c0820151606083015191517f4c209b5fc8ad50758f13e2e1088ba56a560dff690a1c6fef26394f4c03821c4f92613d0f928a929091906152b2565b60405180910390a1856001600160a01b0316306001600160a01b03166000805160206154098339815191528360600151604051613d4e91815260200190565b60405180910390a360055460c082015160608301516040516341c728b960e01b81526001600160a01b03909316926341c728b992613d949230928c92919060040161537c565b600060405180830381600087803b158015613dae57600080fd5b505af1158015613dc2573d6000803e3d6000fd5b5060009250613dcf915050565b8160c001519350935050509250929050565b600080613dee84866151c5565b90508285821015610cac5760405162461bcd60e51b815260040161089d9190614ddb565b613e1a614bc1565b6040518060200160405280613e33856000015185614946565b90529392505050565b600080613e498484613e12565b9050610dc4816133d8565b600080613e618585613e12565b9050613e75613e6f826133d8565b84612486565b95945050505050565b6000670de0b6b3a7640000613e97848460000151614946565b61102e919061531d565b60055460405163368f515360e21b815260009182916001600160a01b039091169063da3d454c90613eda90309088908890600401615358565b6020604051808303816000875af1158015613ef9573d6000803e3d6000fd5b505050506040513d601f19601f82011682018060405250810190613f1d9190615105565b90508015613f3a57613f3260036010836132b1565b915050610850565b43600b5414613f4f57613f32600a600c6121bd565b6000613f59612149565b905083811015613f7857613f6f600e600b6121bd565b92505050610850565b613fa4604080516080810190915280600081526020016000815260200160008152602001600081525090565b613fad86612314565b6020830181905282826003811115613fc757613fc7615153565b6003811115613fd857613fd8615153565b9052506000905081516003811115613ff257613ff2615153565b1461401d576140136009808360000151600381111561289157612891615153565b9350505050610850565b61402b81602001518661333a565b604083018190528282600381111561404557614045615153565b600381111561405657614056615153565b905250600090508151600381111561407057614070615153565b14614092576140136009600e8360000151600381111561289157612891615153565b6005546040808301519051631de6c8a560e21b81526001600160a01b039092169163779b2294916140c89130919060040161533f565b6020604051808303816000875af11580156140e7573d6000803e3d6000fd5b505050506040513d601f19601f8201168201806040525081019061410b9190615105565b925082156141205761401360036010856132b1565b61412c600d548661333a565b606083018190528282600381111561414657614146615153565b600381111561415757614157615153565b905250600090508151600381111561417157614171615153565b14614193576140136009600d8360000151600381111561289157612891615153565b6040808201516001600160a01b0388166000908152601460205291909120908155600c546001909101556060810151600d556141cf868661342a565b60408082015160608084015183516001600160a01b038b168152602081018a9052938401929092528201527f13ed6866d4e1ee6da46f845c46d7e54120883d75c5ea9a2dacc1c4ca8984ab809060800160405180910390a160009695505050505050565b600554604051632fe3f38f60e11b8152600091829182916001600160a01b031690635fc7e71e9061427090309088908c908c908c906004016152ea565b6020604051808303816000875af115801561428f573d6000803e3d6000fd5b505050506040513d601f19601f820116820180604052508101906142b39190615105565b905080156142d4576142c860036014836132b1565b600092509250506146d4565b43600b54146142e9576142c8600a60186121bd565b43846001600160a01b0316636c540baf6040518163ffffffff1660e01b8152600401602060405180830381865afa158015614328573d6000803e3d6000fd5b505050506040513d601f19601f8201168201806040525081019061434c9190615105565b1461435d576142c8600a60136121bd565b866001600160a01b0316866001600160a01b03161415614383576142c8600660196121bd565b84614394576142c8600760176121bd565b6000198514156143aa576142c8600760166121bd565b6000806143b8898989612d45565b909250905081156143ed576143df8260118111156143d8576143d8615153565b601a6121bd565b6000945094505050506146d4565b60055460405163c488847b60e01b815260009182916001600160a01b039091169063c488847b906144269030908c908890600401615358565b6040805180830381865afa158015614442573d6000803e3d6000fd5b505050506040513d601f19601f8201168201806040525081019061446691906153c4565b909250905081156144d55760405162461bcd60e51b815260206004820152603360248201527f4c49515549444154455f434f4d5054524f4c4c45525f43414c43554c4154455f604482015272105353d5539517d4d152569157d19052531151606a1b606482015260840161089d565b6040516370a0823160e01b815281906001600160a01b038a16906370a0823190614503908e90600401614e53565b602060405180830381865afa158015614520573d6000803e3d6000fd5b505050506040513d601f19601f820116820180604052508101906145449190615105565b101561458d5760405162461bcd60e51b815260206004820152601860248201527709892a2aa928882a88abea68a92b48abea89e9ebe9aaa86960431b604482015260640161089d565b60006001600160a01b0389163014156145b3576145ac308d8d856126e7565b9050614629565b60405163b2a02ff160e01b81526001600160a01b038a169063b2a02ff1906145e3908f908f908790600401615358565b6020604051808303816000875af1158015614602573d6000803e3d6000fd5b505050506040513d601f19601f820116820180604052508101906146269190615105565b90505b801561466e5760405162461bcd60e51b81526020600482015260146024820152731d1bdad95b881cd95a5e9d5c994819985a5b195960621b604482015260640161089d565b604080516001600160a01b038e811682528d811660208301528183018790528b1660608201526080810184905290517f298637f684da70674f26509b10f07ec2fbc77a335ab1e7d6215a4b2484d8bb529181900360a00190a16000975092955050505050505b94509492505050565b6015546040516370a0823160e01b815260009182916001600160a01b03909116906370a0823190614712903090600401614e53565b602060405180830381865afa15801561472f573d6000803e3d6000fd5b505050506040513d601f19601f820116820180604052508101906147539190615105565b90506147de6323b872dd60e01b85308660405160240161477593929190615358565b604051602081830303815290604052906001600160e01b0319166020820180516001600160e01b038381831617835250505050604051806040016040528060188152602001771513d2d15397d514905394d1915497d25397d1905253115160421b8152506148d8565b6015546040516370a0823160e01b81526000916001600160a01b0316906370a082319061480f903090600401614e53565b602060405180830381865afa15801561482c573d6000803e3d6000fd5b505050506040513d601f19601f820116820180604052508101906148509190615105565b90508181101561489f5760405162461bcd60e51b815260206004820152601a602482015279544f4b454e5f5452414e534645525f494e5f4f564552464c4f5760301b604482015260640161089d565b613e7582826152d3565b600081848411156148cd5760405162461bcd60e51b815260040161089d9190614ddb565b50610dc483856152d3565b6015546000906148f2906001600160a01b03168484614982565b805190915015614931578080602001905181019061491091906151dd565b829061492f5760405162461bcd60e51b815260040161089d9190614ddb565b505b505050565b6000806000806121068686614a15565b600061102e8383604051806040016040528060178152602001766d756c7469706c69636174696f6e206f766572666c6f7760481b815250614a7a565b6060600080856001600160a01b03168560405161499f919061524f565b6000604051808303816000865af19150503d80600081146149dc576040519150601f19603f3d011682016040523d82523d6000602084013e6149e1565b606091505b509150915081613e75578051156149fb5780518082602001fd5b8360405162461bcd60e51b815260040161089d9190614ddb565b6000614a1f614bc1565b600080614a34670de0b6b3a7640000876139f5565b90925090506000826003811115614a4d57614a4d615153565b14614a6c57506040805160208101909152600081529092509050612142565b61213b8186600001516131a0565b6000831580614a87575082155b15614a945750600061102e565b6000614aa084866153a5565b905083614aad868361531d565b148390610cac5760405162461bcd60e51b815260040161089d9190614ddb565b828054614ad99061511e565b90600052602060002090601f016020900481019282614afb5760008555614b41565b82601f10614b1457805160ff1916838001178555614b41565b82800160010185558215614b41579182015b82811115614b41578251825591602001919060010190614b26565b50610e73929150614c12565b828054614b599061511e565b90600052602060002090601f016020900481019282614b7b5760008555614b41565b82601f10614b945782800160ff19823516178555614b41565b82800160010185558215614b41579182015b82811115614b41578235825591602001919060010190614ba6565b6040518060200160405280600081525090565b6040805160e0810190915280600081526020016000815260200160008152602001600081526020016000815260200160008152602001600081525090565b5b80821115610e735760008155600101614c13565b6001600160a01b03811681146116e557600080fd5b8035614c4781614c27565b919050565b634e487b7160e01b600052604160045260246000fd5b600082601f830112614c7357600080fd5b81356001600160401b0380821115614c8d57614c8d614c4c565b604051601f8301601f19908116603f01168101908282118183101715614cb557614cb5614c4c565b81604052838152866020858801011115614cce57600080fd5b836020870160208301376000602085830101528094505050505092915050565b600080600080600080600080610100898b031215614d0b57600080fd5b8835614d1681614c27565b97506020890135614d2681614c27565b96506040890135614d3681614c27565b95506060890135614d4681614c27565b945060808901356001600160401b0380821115614d6257600080fd5b614d6e8c838d01614c62565b955060a08b0135915080821115614d8457600080fd5b50614d918b828c01614c62565b93505060c0890135915060e089013590509295985092959890939650565b60005b83811015614dca578181015183820152602001614db2565b8381111561492f5750506000910152565b6020815260008251806020840152614dfa816040850160208701614daf565b601f01601f19169190910160400192915050565b60008060408385031215614e2157600080fd5b8235614e2c81614c27565b946020939093013593505050565b600060208284031215614e4c57600080fd5b5035919050565b6001600160a01b0391909116815260200190565b600060208284031215614e7957600080fd5b813561102e81614c27565b60ff811681146116e557600080fd5b8035614c4781614e84565b60008060008060008060008060006101208a8c031215614ebd57600080fd5b8935614ec881614c27565b985060208a0135614ed881614c27565b9750614ee660408b01614c3c565b965060608a0135955060808a01356001600160401b0380821115614f0957600080fd5b614f158d838e01614c62565b965060a08c0135915080821115614f2b57600080fd5b50614f388c828d01614c62565b945050614f4760c08b01614e93565b925060e08a013591506101008a013590509295985092959850929598565b600080600060608486031215614f7a57600080fd5b8335614f8581614c27565b92506020840135614f9581614c27565b929592945050506040919091013590565b60008083601f840112614fb857600080fd5b5081356001600160401b03811115614fcf57600080fd5b60208301915083602082850101111561214257600080fd5b60008060008060408587031215614ffd57600080fd5b84356001600160401b038082111561501457600080fd5b61502088838901614fa6565b9096509450602087013591508082111561503957600080fd5b5061504687828801614fa6565b95989497509550505050565b93845260208401929092526040830152606082015260800190565b6000806040838503121561508057600080fd5b823561508b81614c27565b9150602083013561509b81614c27565b809150509250929050565b6000806000606084860312156150bb57600080fd5b83356150c681614c27565b92506020840135915060408401356150dd81614c27565b809150509250925092565b6000602082840312156150fa57600080fd5b815161102e81614e84565b60006020828403121561511757600080fd5b5051919050565b600181811c9082168061513257607f821691505b602082108114156108bb57634e487b7160e01b600052602260045260246000fd5b634e487b7160e01b600052602160045260246000fd5b6020808252601690820152751858d8dc9d59481a5b9d195c995cdd0819985a5b195960521b604082015260600190565b9283526020830191909152604082015260600190565b634e487b7160e01b600052601160045260246000fd5b600082198211156151d8576151d86151af565b500190565b6000602082840312156151ef57600080fd5b8151801515811461102e57600080fd5b6020808252601c908201527b6d61726b6572206d6574686f642072657475726e65642066616c736560201b604082015260600190565b6001600160a01b0392831681529116602082015260400190565b60008251615261818460208701614daf565b9190910192915050565b6001600160a01b039485168152928416602084015292166040820152606081019190915260800190565b6000602082840312156152a757600080fd5b815161102e81614c27565b6001600160a01b039390931683526020830191909152604082015260600190565b6000828210156152e5576152e56151af565b500390565b6001600160a01b039586168152938516602085015291841660408401529092166060820152608081019190915260a00190565b60008261533a57634e487b7160e01b600052601260045260246000fd5b500490565b6001600160a01b03929092168252602082015260400190565b6001600160a01b039384168152919092166020820152604081019190915260600190565b6001600160a01b0394851681529290931660208301526040820152606081019190915260800190565b60008160001904831182151516156153bf576153bf6151af565b500290565b600080604083850312156153d757600080fd5b50508051602090910151909290915056fe45b96fe442630264581b197e84bbada861235052c5a1aadfff9ea4e40a969aa0ddf252ad1be2c89b69c2b068fc378daa952ba7f163c4a11628f55a4df523b3efa164736f6c634300080a000a",
    "linkReferences": {}
  },
  "methodIdentifiers": {
    "_delegateCompLikeTo(address)": "7f1e06be",
    "_reduceReserves(uint256)": "601a0bf1",
    "_setAdminFee(uint256)": "91dd36c6",
    "_setInterestRateModel(address)": "f2b3abbd",
    "_setNameAndSymbol(string,string)": "34154d4c",
    "_setReserveFactor(uint256)": "fca7820b",
    "_withdrawAdminFees(uint256)": "a7b820df",
    "_withdrawFuseFees(uint256)": "a03dce8d",
    "accrualBlockNumber()": "6c540baf",
    "accrueInterest()": "a6afed95",
    "adminFeeMantissa()": "8d02d9a1",
    "allowance(address,address)": "dd62ed3e",
    "approve(address,uint256)": "095ea7b3",
    "balanceOf(address)": "70a08231",
    "balanceOfUnderlying(address)": "3af9e669",
    "borrow(uint256)": "c5ebeaec",
    "borrowBalanceCurrent(address)": "17bfdfbc",
    "borrowBalanceStored(address)": "95dd9193",
    "borrowIndex()": "aa5af0fd",
    "borrowRatePerBlock()": "f8f9da28",
    "comptroller()": "5fe3b567",
    "decimals()": "313ce567",
    "exchangeRateCurrent()": "bd6d894d",
    "exchangeRateStored()": "182df0f5",
    "feeSeizeShareMantissa()": "be99f119",
    "fuseAdmin()": "15761d51",
    "fuseFeeMantissa()": "dbfe7c19",
    "getAccountSnapshot(address)": "c37f68e2",
    "getCash()": "3b1d21a2",
    "initialize(address,address,address,address,string,string,uint256,uint256)": "06db3ecd",
    "initialize(address,address,address,uint256,string,string,uint8,uint256,uint256)": "219ef65c",
    "interestRateModel()": "f3fdb15a",
    "isCEther()": "ac784ddc",
    "isCToken()": "fe9c44ae",
    "liquidateBorrow(address,uint256,address)": "f5e3c462",
    "mint(uint256)": "a0712d68",
    "name()": "06fdde03",
    "protocolSeizeShareMantissa()": "6752e702",
    "redeem(uint256)": "db006a75",
    "redeemUnderlying(uint256)": "852a12e3",
    "repayBorrow(uint256)": "0e752702",
    "repayBorrowBehalf(address,uint256)": "2608f818",
    "reserveFactorMantissa()": "173b9904",
    "seize(address,address,uint256)": "b2a02ff1",
    "supplyRatePerBlock()": "ae9d70b0",
    "symbol()": "95d89b41",
    "totalAdminFees()": "61feacff",
    "totalBorrows()": "47bd3718",
    "totalBorrowsCurrent()": "73acee98",
    "totalFuseFees()": "dc028ab1",
    "totalReserves()": "8f840ddd",
    "totalSupply()": "18160ddd",
    "transfer(address,uint256)": "a9059cbb",
    "transferFrom(address,address,uint256)": "23b872dd",
    "underlying()": "6f307dc3"
  },
  "id": 1
}