{
  "abi": [
    {
      "inputs": [],
      "name": "BONE",
      "outputs": [
        {
          "internalType": "uint256",
          "name": "",
          "type": "uint256"
        }
      ],
      "stateMutability": "view",
      "type": "function"
    },
    {
      "inputs": [],
      "name": "BPOW_PRECISION",
      "outputs": [
        {
          "internalType": "uint256",
          "name": "",
          "type": "uint256"
        }
      ],
      "stateMutability": "view",
      "type": "function"
    },
    {
      "inputs": [],
      "name": "EXIT_FEE",
      "outputs": [
        {
          "internalType": "uint256",
          "name": "",
          "type": "uint256"
        }
      ],
      "stateMutability": "view",
      "type": "function"
    },
    {
      "inputs": [],
      "name": "INIT_POOL_SUPPLY",
      "outputs": [
        {
          "internalType": "uint256",
          "name": "",
          "type": "uint256"
        }
      ],
      "stateMutability": "view",
      "type": "function"
    },
    {
      "inputs": [],
      "name": "MAX_BOUND_TOKENS",
      "outputs": [
        {
          "internalType": "uint256",
          "name": "",
          "type": "uint256"
        }
      ],
      "stateMutability": "view",
      "type": "function"
    },
    {
      "inputs": [],
      "name": "MAX_BPOW_BASE",
      "outputs": [
        {
          "internalType": "uint256",
          "name": "",
          "type": "uint256"
        }
      ],
      "stateMutability": "view",
      "type": "function"
    },
    {
      "inputs": [],
      "name": "MAX_FEE",
      "outputs": [
        {
          "internalType": "uint256",
          "name": "",
          "type": "uint256"
        }
      ],
      "stateMutability": "view",
      "type": "function"
    },
    {
      "inputs": [],
      "name": "MAX_IN_RATIO",
      "outputs": [
        {
          "internalType": "uint256",
          "name": "",
          "type": "uint256"
        }
      ],
      "stateMutability": "view",
      "type": "function"
    },
    {
      "inputs": [],
      "name": "MAX_OUT_RATIO",
      "outputs": [
        {
          "internalType": "uint256",
          "name": "",
          "type": "uint256"
        }
      ],
      "stateMutability": "view",
      "type": "function"
    },
    {
      "inputs": [],
      "name": "MAX_TOTAL_WEIGHT",
      "outputs": [
        {
          "internalType": "uint256",
          "name": "",
          "type": "uint256"
        }
      ],
      "stateMutability": "view",
      "type": "function"
    },
    {
      "inputs": [],
      "name": "MAX_WEIGHT",
      "outputs": [
        {
          "internalType": "uint256",
          "name": "",
          "type": "uint256"
        }
      ],
      "stateMutability": "view",
      "type": "function"
    },
    {
      "inputs": [],
      "name": "MIN_BALANCE",
      "outputs": [
        {
          "internalType": "uint256",
          "name": "",
          "type": "uint256"
        }
      ],
      "stateMutability": "view",
      "type": "function"
    },
    {
      "inputs": [],
      "name": "MIN_BOUND_TOKENS",
      "outputs": [
        {
          "internalType": "uint256",
          "name": "",
          "type": "uint256"
        }
      ],
      "stateMutability": "view",
      "type": "function"
    },
    {
      "inputs": [],
      "name": "MIN_BPOW_BASE",
      "outputs": [
        {
          "internalType": "uint256",
          "name": "",
          "type": "uint256"
        }
      ],
      "stateMutability": "view",
      "type": "function"
    },
    {
      "inputs": [],
      "name": "MIN_FEE",
      "outputs": [
        {
          "internalType": "uint256",
          "name": "",
          "type": "uint256"
        }
      ],
      "stateMutability": "view",
      "type": "function"
    },
    {
      "inputs": [],
      "name": "MIN_WEIGHT",
      "outputs": [
        {
          "internalType": "uint256",
          "name": "",
          "type": "uint256"
        }
      ],
      "stateMutability": "view",
      "type": "function"
    }
  ],
  "bytecode": {
    "object": "0x608060405234801561001057600080fd5b506102f0806100206000396000f3fe608060405234801561001057600080fd5b50600436106101005760003560e01c8063b7b800a411610097578063c36596a611610066578063c36596a614610127578063c6580d121461017e578063e4a28a5214610105578063ec0930211461018657600080fd5b8063b7b800a41461015e578063ba019dab14610166578063bc063e1a1461016e578063bc694ea21461017657600080fd5b8063867378c5116100d3578063867378c51461013e5780639381cd2b14610146578063992e2a921461014e578063b0e0d1361461015657600080fd5b806309a3bbe414610105578063189d00ca1461011f578063218b53821461012757806376c7a3c714610136575b600080fd5b61010d61018e565b60405190815260200160405180910390f35b61010d6101a4565b61010d670de0b6b3a764000081565b61010d6101bb565b61010d6101d0565b61010d6101e7565b61010d6101fa565b61010d600881565b61010d600281565b61010d600181565b61010d610218565b61010d61022b565b61010d600081565b61010d61024a565b6101a1670de0b6b3a76400006032610273565b81565b6101a16402540be400670de0b6b3a7640000610292565b6101a1620f4240670de0b6b3a7640000610292565b6101a164e8d4a51000670de0b6b3a7640000610292565b6101a1670de0b6b3a76400006064610273565b61020d6003670de0b6b3a7640000610292565b6101a19060016102b4565b6101a1600a670de0b6b3a7640000610292565b6001610240670de0b6b3a76400006002610273565b6101a191906102cc565b6101a16002670de0b6b3a7640000610292565b634e487b7160e01b600052601160045260246000fd5b600081600019048311821515161561028d5761028d61025d565b500290565b6000826102af57634e487b7160e01b600052601260045260246000fd5b500490565b600082198211156102c7576102c761025d565b500190565b6000828210156102de576102de61025d565b50039056fea164736f6c634300080a000a",
    "linkReferences": {}
  },
  "methodIdentifiers": {
    "BONE()": "c36596a6",
    "BPOW_PRECISION()": "189d00ca",
    "EXIT_FEE()": "c6580d12",
    "INIT_POOL_SUPPLY()": "9381cd2b",
    "MAX_BOUND_TOKENS()": "b0e0d136",
    "MAX_BPOW_BASE()": "bc694ea2",
    "MAX_FEE()": "bc063e1a",
    "MAX_IN_RATIO()": "ec093021",
    "MAX_OUT_RATIO()": "992e2a92",
    "MAX_TOTAL_WEIGHT()": "09a3bbe4",
    "MAX_WEIGHT()": "e4a28a52",
    "MIN_BALANCE()": "867378c5",
    "MIN_BOUND_TOKENS()": "b7b800a4",
    "MIN_BPOW_BASE()": "ba019dab",
    "MIN_FEE()": "76c7a3c7",
    "MIN_WEIGHT()": "218b5382"
  },
  "id": 64
}