{
  "address": "0xcdaf7CBA50d9511e6FCdeD625c9039576DeF7932",
  "abi": [
    {
      "inputs": [
        {
          "internalType": "contract ICToken",
          "name": "cToken",
          "type": "address"
        }
      ],
      "name": "getUnderlyingPrice",
      "outputs": [
        {
          "internalType": "uint256",
          "name": "",
          "type": "uint256"
        }
      ],
      "stateMutability": "view",
      "type": "function"
    },
    {
      "inputs": [
        {
          "internalType": "address",
          "name": "underlying",
          "type": "address"
        }
      ],
      "name": "price",
      "outputs": [
        {
          "internalType": "uint256",
          "name": "",
          "type": "uint256"
        }
      ],
      "stateMutability": "view",
      "type": "function"
    }
  ],
  "transactionHash": "0x8fbb334c48858699266e05327034f40ef32f842a8c0f60ab2cd505fb165c96d6",
  "args": [],
  "numDeployments": 1,
  "bytecode": {
    "object": "0x608060405234801561001057600080fd5b5060cf8061001f6000396000f3fe6080604052348015600f57600080fd5b506004361060325760003560e01c8063aea91078146037578063fc57d4df146037575b600080fd5b604f60423660046078565b50670de0b6b3a764000090565b60405190815260200160405180910390f35b6001600160a01b0381168114607557600080fd5b50565b600060208284031215608957600080fd5b81356092816061565b939250505056fea26469706673582212205e46a609f2b9500d1cd67ad68f9983fd3eec52d99b1915e8b09ea53ea15855f664736f6c634300080a0033",
    "linkReferences": {}
  }
}