{
  "address": "0x56bd861Ffc4f5CfB15Ff4028542B0346a5BaF47b",
  "abi": [
    {
      "inputs": [
        {
          "internalType": "contract ICToken",
          "name": "cToken",
          "type": "address"
        }
      ],
      "name": "getUnderlyingPrice",
      "outputs": [
        {
          "internalType": "uint256",
          "name": "",
          "type": "uint256"
        }
      ],
      "stateMutability": "view",
      "type": "function"
    },
    {
      "inputs": [
        {
          "internalType": "address",
          "name": "underlying",
          "type": "address"
        }
      ],
      "name": "price",
      "outputs": [
        {
          "internalType": "uint256",
          "name": "",
          "type": "uint256"
        }
      ],
      "stateMutability": "view",
      "type": "function"
    }
  ],
  "transactionHash": "0xa5ca1fa05eb205ae4e12def5ccc3160847ec48cff6a1e8e5d4a94f847fba5cd9",
  "args": [],
  "numDeployments": 2,
  "bytecode": {
    "object": "0x608060405234801561001057600080fd5b5060cf8061001f6000396000f3fe6080604052348015600f57600080fd5b506004361060325760003560e01c8063aea91078146037578063fc57d4df146037575b600080fd5b604f60423660046078565b50670de0b6b3a764000090565b60405190815260200160405180910390f35b6001600160a01b0381168114607557600080fd5b50565b600060208284031215608957600080fd5b81356092816061565b939250505056fea2646970667358221220cdd9f792698f77e906312c8cb48d08a96d15e44465cda08b96b43c65251ce8ef64736f6c634300080a0033",
    "linkReferences": {}
  }
}