{
  "abi": [
    {
      "inputs": [
        {
          "internalType": "contract ERC20",
          "name": "_asset",
          "type": "address"
        },
        {
          "internalType": "contract FlywheelCore",
          "name": "_flyWheel",
          "type": "address"
        },
        {
          "internalType": "uint256",
          "name": "_poolId",
          "type": "uint256"
        },
        {
          "internalType": "contract ERC20",
          "name": "_rewardToken",
          "type": "address"
        },
        {
          "internalType": "contract IVault",
          "name": "_vault",
          "type": "address"
        }
      ],
      "stateMutability": "nonpayable",
      "type": "constructor"
    },
    {
      "anonymous": false,
      "inputs": [
        {
          "indexed": true,
          "internalType": "address",
          "name": "owner",
          "type": "address"
        },
        {
          "indexed": true,
          "internalType": "address",
          "name": "spender",
          "type": "address"
        },
        {
          "indexed": false,
          "internalType": "uint256",
          "name": "amount",
          "type": "uint256"
        }
      ],
      "name": "Approval",
      "type": "event"
    },
    {
      "anonymous": false,
      "inputs": [
        {
          "indexed": true,
          "internalType": "address",
          "name": "caller",
          "type": "address"
        },
        {
          "indexed": true,
          "internalType": "address",
          "name": "owner",
          "type": "address"
        },
        {
          "indexed": false,
          "internalType": "uint256",
          "name": "assets",
          "type": "uint256"
        },
        {
          "indexed": false,
          "internalType": "uint256",
          "name": "shares",
          "type": "uint256"
        }
      ],
      "name": "Deposit",
      "type": "event"
    },
    {
      "anonymous": false,
      "inputs": [
        {
          "indexed": true,
          "internalType": "address",
          "name": "from",
          "type": "address"
        },
        {
          "indexed": true,
          "internalType": "address",
          "name": "to",
          "type": "address"
        },
        {
          "indexed": false,
          "internalType": "uint256",
          "name": "amount",
          "type": "uint256"
        }
      ],
      "name": "Transfer",
      "type": "event"
    },
    {
      "anonymous": false,
      "inputs": [
        {
          "indexed": true,
          "internalType": "address",
          "name": "caller",
          "type": "address"
        },
        {
          "indexed": true,
          "internalType": "address",
          "name": "receiver",
          "type": "address"
        },
        {
          "indexed": true,
          "internalType": "address",
          "name": "owner",
          "type": "address"
        },
        {
          "indexed": false,
          "internalType": "uint256",
          "name": "assets",
          "type": "uint256"
        },
        {
          "indexed": false,
          "internalType": "uint256",
          "name": "shares",
          "type": "uint256"
        }
      ],
      "name": "Withdraw",
      "type": "event"
    },
    {
      "inputs": [],
      "name": "DOMAIN_SEPARATOR",
      "outputs": [
        {
          "internalType": "bytes32",
          "name": "",
          "type": "bytes32"
        }
      ],
      "stateMutability": "view",
      "type": "function"
    },
    {
      "inputs": [],
      "name": "FLYWHEEL_CORE",
      "outputs": [
        {
          "internalType": "contract FlywheelCore",
          "name": "",
          "type": "address"
        }
      ],
      "stateMutability": "view",
      "type": "function"
    },
    {
      "inputs": [],
      "name": "POOL_ID",
      "outputs": [
        {
          "internalType": "uint256",
          "name": "",
          "type": "uint256"
        }
      ],
      "stateMutability": "view",
      "type": "function"
    },
    {
      "inputs": [],
      "name": "VAULT",
      "outputs": [
        {
          "internalType": "contract IVault",
          "name": "",
          "type": "address"
        }
      ],
      "stateMutability": "view",
      "type": "function"
    },
    {
      "inputs": [
        {
          "internalType": "address",
          "name": "",
          "type": "address"
        },
        {
          "internalType": "address",
          "name": "",
          "type": "address"
        }
      ],
      "name": "allowance",
      "outputs": [
        {
          "internalType": "uint256",
          "name": "",
          "type": "uint256"
        }
      ],
      "stateMutability": "view",
      "type": "function"
    },
    {
      "inputs": [
        {
          "internalType": "address",
          "name": "spender",
          "type": "address"
        },
        {
          "internalType": "uint256",
          "name": "amount",
          "type": "uint256"
        }
      ],
      "name": "approve",
      "outputs": [
        {
          "internalType": "bool",
          "name": "",
          "type": "bool"
        }
      ],
      "stateMutability": "nonpayable",
      "type": "function"
    },
    {
      "inputs": [],
      "name": "asset",
      "outputs": [
        {
          "internalType": "contract ERC20",
          "name": "",
          "type": "address"
        }
      ],
      "stateMutability": "view",
      "type": "function"
    },
    {
      "inputs": [
        {
          "internalType": "address",
          "name": "",
          "type": "address"
        }
      ],
      "name": "balanceOf",
      "outputs": [
        {
          "internalType": "uint256",
          "name": "",
          "type": "uint256"
        }
      ],
      "stateMutability": "view",
      "type": "function"
    },
    {
      "inputs": [
        {
          "internalType": "address",
          "name": "account",
          "type": "address"
        }
      ],
      "name": "balanceOfUnderlying",
      "outputs": [
        {
          "internalType": "uint256",
          "name": "",
          "type": "uint256"
        }
      ],
      "stateMutability": "view",
      "type": "function"
    },
    {
      "inputs": [
        {
          "internalType": "uint256",
          "name": "shares",
          "type": "uint256"
        }
      ],
      "name": "convertToAssets",
      "outputs": [
        {
          "internalType": "uint256",
          "name": "",
          "type": "uint256"
        }
      ],
      "stateMutability": "view",
      "type": "function"
    },
    {
      "inputs": [
        {
          "internalType": "uint256",
          "name": "assets",
          "type": "uint256"
        }
      ],
      "name": "convertToShares",
      "outputs": [
        {
          "internalType": "uint256",
          "name": "",
          "type": "uint256"
        }
      ],
      "stateMutability": "view",
      "type": "function"
    },
    {
      "inputs": [],
      "name": "decimals",
      "outputs": [
        {
          "internalType": "uint8",
          "name": "",
          "type": "uint8"
        }
      ],
      "stateMutability": "view",
      "type": "function"
    },
    {
      "inputs": [
        {
          "internalType": "uint256",
          "name": "assets",
          "type": "uint256"
        },
        {
          "internalType": "address",
          "name": "receiver",
          "type": "address"
        }
      ],
      "name": "deposit",
      "outputs": [
        {
          "internalType": "uint256",
          "name": "shares",
          "type": "uint256"
        }
      ],
      "stateMutability": "nonpayable",
      "type": "function"
    },
    {
      "inputs": [
        {
          "internalType": "address",
          "name": "",
          "type": "address"
        }
      ],
      "name": "maxDeposit",
      "outputs": [
        {
          "internalType": "uint256",
          "name": "",
          "type": "uint256"
        }
      ],
      "stateMutability": "view",
      "type": "function"
    },
    {
      "inputs": [
        {
          "internalType": "address",
          "name": "",
          "type": "address"
        }
      ],
      "name": "maxMint",
      "outputs": [
        {
          "internalType": "uint256",
          "name": "",
          "type": "uint256"
        }
      ],
      "stateMutability": "view",
      "type": "function"
    },
    {
      "inputs": [
        {
          "internalType": "address",
          "name": "owner",
          "type": "address"
        }
      ],
      "name": "maxRedeem",
      "outputs": [
        {
          "internalType": "uint256",
          "name": "",
          "type": "uint256"
        }
      ],
      "stateMutability": "view",
      "type": "function"
    },
    {
      "inputs": [
        {
          "internalType": "address",
          "name": "owner",
          "type": "address"
        }
      ],
      "name": "maxWithdraw",
      "outputs": [
        {
          "internalType": "uint256",
          "name": "",
          "type": "uint256"
        }
      ],
      "stateMutability": "view",
      "type": "function"
    },
    {
      "inputs": [
        {
          "internalType": "uint256",
          "name": "shares",
          "type": "uint256"
        },
        {
          "internalType": "address",
          "name": "receiver",
          "type": "address"
        }
      ],
      "name": "mint",
      "outputs": [
        {
          "internalType": "uint256",
          "name": "assets",
          "type": "uint256"
        }
      ],
      "stateMutability": "nonpayable",
      "type": "function"
    },
    {
      "inputs": [],
      "name": "name",
      "outputs": [
        {
          "internalType": "string",
          "name": "",
          "type": "string"
        }
      ],
      "stateMutability": "view",
      "type": "function"
    },
    {
      "inputs": [
        {
          "internalType": "address",
          "name": "",
          "type": "address"
        }
      ],
      "name": "nonces",
      "outputs": [
        {
          "internalType": "uint256",
          "name": "",
          "type": "uint256"
        }
      ],
      "stateMutability": "view",
      "type": "function"
    },
    {
      "inputs": [
        {
          "internalType": "address",
          "name": "owner",
          "type": "address"
        },
        {
          "internalType": "address",
          "name": "spender",
          "type": "address"
        },
        {
          "internalType": "uint256",
          "name": "value",
          "type": "uint256"
        },
        {
          "internalType": "uint256",
          "name": "deadline",
          "type": "uint256"
        },
        {
          "internalType": "uint8",
          "name": "v",
          "type": "uint8"
        },
        {
          "internalType": "bytes32",
          "name": "r",
          "type": "bytes32"
        },
        {
          "internalType": "bytes32",
          "name": "s",
          "type": "bytes32"
        }
      ],
      "name": "permit",
      "outputs": [],
      "stateMutability": "nonpayable",
      "type": "function"
    },
    {
      "inputs": [
        {
          "internalType": "uint256",
          "name": "assets",
          "type": "uint256"
        }
      ],
      "name": "previewDeposit",
      "outputs": [
        {
          "internalType": "uint256",
          "name": "",
          "type": "uint256"
        }
      ],
      "stateMutability": "view",
      "type": "function"
    },
    {
      "inputs": [
        {
          "internalType": "uint256",
          "name": "shares",
          "type": "uint256"
        }
      ],
      "name": "previewMint",
      "outputs": [
        {
          "internalType": "uint256",
          "name": "",
          "type": "uint256"
        }
      ],
      "stateMutability": "view",
      "type": "function"
    },
    {
      "inputs": [
        {
          "internalType": "uint256",
          "name": "shares",
          "type": "uint256"
        }
      ],
      "name": "previewRedeem",
      "outputs": [
        {
          "internalType": "uint256",
          "name": "",
          "type": "uint256"
        }
      ],
      "stateMutability": "view",
      "type": "function"
    },
    {
      "inputs": [
        {
          "internalType": "uint256",
          "name": "assets",
          "type": "uint256"
        }
      ],
      "name": "previewWithdraw",
      "outputs": [
        {
          "internalType": "uint256",
          "name": "",
          "type": "uint256"
        }
      ],
      "stateMutability": "view",
      "type": "function"
    },
    {
      "inputs": [
        {
          "internalType": "uint256",
          "name": "shares",
          "type": "uint256"
        },
        {
          "internalType": "address",
          "name": "receiver",
          "type": "address"
        },
        {
          "internalType": "address",
          "name": "owner",
          "type": "address"
        }
      ],
      "name": "redeem",
      "outputs": [
        {
          "internalType": "uint256",
          "name": "assets",
          "type": "uint256"
        }
      ],
      "stateMutability": "nonpayable",
      "type": "function"
    },
    {
      "inputs": [],
      "name": "symbol",
      "outputs": [
        {
          "internalType": "string",
          "name": "",
          "type": "string"
        }
      ],
      "stateMutability": "view",
      "type": "function"
    },
    {
      "inputs": [],
      "name": "totalAssets",
      "outputs": [
        {
          "internalType": "uint256",
          "name": "",
          "type": "uint256"
        }
      ],
      "stateMutability": "view",
      "type": "function"
    },
    {
      "inputs": [],
      "name": "totalSupply",
      "outputs": [
        {
          "internalType": "uint256",
          "name": "",
          "type": "uint256"
        }
      ],
      "stateMutability": "view",
      "type": "function"
    },
    {
      "inputs": [
        {
          "internalType": "address",
          "name": "to",
          "type": "address"
        },
        {
          "internalType": "uint256",
          "name": "amount",
          "type": "uint256"
        }
      ],
      "name": "transfer",
      "outputs": [
        {
          "internalType": "bool",
          "name": "",
          "type": "bool"
        }
      ],
      "stateMutability": "nonpayable",
      "type": "function"
    },
    {
      "inputs": [
        {
          "internalType": "address",
          "name": "from",
          "type": "address"
        },
        {
          "internalType": "address",
          "name": "to",
          "type": "address"
        },
        {
          "internalType": "uint256",
          "name": "amount",
          "type": "uint256"
        }
      ],
      "name": "transferFrom",
      "outputs": [
        {
          "internalType": "bool",
          "name": "",
          "type": "bool"
        }
      ],
      "stateMutability": "nonpayable",
      "type": "function"
    },
    {
      "inputs": [
        {
          "internalType": "uint256",
          "name": "assets",
          "type": "uint256"
        },
        {
          "internalType": "address",
          "name": "receiver",
          "type": "address"
        },
        {
          "internalType": "address",
          "name": "owner",
          "type": "address"
        }
      ],
      "name": "withdraw",
      "outputs": [
        {
          "internalType": "uint256",
          "name": "shares",
          "type": "uint256"
        }
      ],
      "stateMutability": "nonpayable",
      "type": "function"
    }
  ],
  "bytecode": {
    "object": "0x6101606040523480156200001257600080fd5b5060405162001e8638038062001e8683398101604081905262000035916200049c565b84856001600160a01b03166306fdde036040518163ffffffff1660e01b8152600401600060405180830381865afa15801562000075573d6000803e3d6000fd5b505050506040513d6000823e601f3d908101601f191682016040526200009f919081019062000526565b866001600160a01b03166395d89b416040518163ffffffff1660e01b8152600401600060405180830381865afa158015620000de573d6000803e3d6000fd5b505050506040513d6000823e601f3d908101601f1916820160405262000108919081019062000526565b8181846001600160a01b031663313ce5676040518163ffffffff1660e01b8152600401602060405180830381865afa15801562000149573d6000803e3d6000fd5b505050506040513d601f19601f820116820180604052508101906200016f919062000602565b825162000184906000906020860190620003dd565b5081516200019a906001906020850190620003dd565b5060ff81166080524660a052620001b062000341565b60c052505050506001600160a01b0391821660e08190528383166101008190526101408790529287166101205260405163095ea7b360e01b8152600481019390935260001960248401529163095ea7b391506044016020604051808303816000875af115801562000225573d6000803e3d6000fd5b505050506040513d601f19601f820116820180604052508101906200024b91906200062e565b50816001600160a01b031663095ea7b3856001600160a01b031663f046ee5c6040518163ffffffff1660e01b8152600401602060405180830381865afa1580156200029a573d6000803e3d6000fd5b505050506040513d601f19601f82011682018060405250810190620002c0919062000652565b6040516001600160e01b031960e084901b1681526001600160a01b03909116600482015260001960248201526044016020604051808303816000875af11580156200030f573d6000803e3d6000fd5b505050506040513d601f19601f820116820180604052508101906200033591906200062e565b50505050505062000753565b60007f8b73c3c69bb8fe3d512ecc4cf759cc79239f7b179b0ffacaa9a75d522b39400f6000604051620003759190620006af565b6040805191829003822060208301939093528101919091527fc89efdaa54c0f20c7adf612882df0950f5a951637e0307cdcb4c672f298b8bc660608201524660808201523060a082015260c00160405160208183030381529060405280519060200120905090565b828054620003eb9062000672565b90600052602060002090601f0160209004810192826200040f57600085556200045a565b82601f106200042a57805160ff19168380011785556200045a565b828001600101855582156200045a579182015b828111156200045a5782518255916020019190600101906200043d565b50620004689291506200046c565b5090565b5b808211156200046857600081556001016200046d565b6001600160a01b03811681146200049957600080fd5b50565b600080600080600060a08688031215620004b557600080fd5b8551620004c28162000483565b6020870151909550620004d58162000483565b604087015160608801519195509350620004ef8162000483565b6080870151909250620005028162000483565b809150509295509295909350565b634e487b7160e01b600052604160045260246000fd5b600060208083850312156200053a57600080fd5b82516001600160401b03808211156200055257600080fd5b818501915085601f8301126200056757600080fd5b8151818111156200057c576200057c62000510565b604051601f8201601f19908116603f01168101908382118183101715620005a757620005a762000510565b816040528281528886848701011115620005c057600080fd5b600093505b82841015620005e45784840186015181850187015292850192620005c5565b82841115620005f65760008684830101525b98975050505050505050565b6000602082840312156200061557600080fd5b815160ff811681146200062757600080fd5b9392505050565b6000602082840312156200064157600080fd5b815180151581146200062757600080fd5b6000602082840312156200066557600080fd5b8151620006278162000483565b600181811c908216806200068757607f821691505b60208210811415620006a957634e487b7160e01b600052602260045260246000fd5b50919050565b600080835481600182811c915080831680620006cc57607f831692505b6020808410821415620006ed57634e487b7160e01b86526022600452602486fd5b818015620007045760018114620007165762000745565b60ff1986168952848901965062000745565b60008a81526020902060005b868110156200073d5781548b82015290850190830162000722565b505084890196505b509498975050505050505050565b60805160a05160c05160e051610100516101205161014051611692620007f4600039600081816104ce015281816105120152818161111a01526111bf0152600061047c0152600081816103370152818161054b0152818161114701526111ec0152600081816102d0015281816108ca0152818161096601528181610b610152610caa01526000610821015260006107ec0152600061028f01526116926000f3fe608060405234801561001057600080fd5b50600436106101f05760003560e01c80637ecebe001161010f578063c6e6f592116100a2578063db62f5ba11610071578063db62f5ba14610477578063dd62ed3e1461049e578063e0d7d0e9146104c9578063ef8b30f7146104f057600080fd5b8063c6e6f59214610426578063ce96cb771461030a578063d505accf14610439578063d905777e1461044e57600080fd5b8063b3d7f6b9116100de578063b3d7f6b9146103ed578063b460af9414610400578063ba08765214610413578063c63d75b61461031d57600080fd5b80637ecebe001461039f57806394bf804d146103bf57806395d89b41146103d2578063a9059cbb146103da57600080fd5b80633644e51511610187578063411557d111610156578063411557d1146103325780634cdad506146103595780636e553f651461036c57806370a082311461037f57600080fd5b80633644e515146102c357806338d52e0f146102cb5780633af9e6691461030a578063402d267d1461031d57600080fd5b80630a28a477116101c35780630a28a4771461025b57806318160ddd1461026e57806323b872dd14610277578063313ce5671461028a57600080fd5b806301e1d114146101f557806306fdde031461021057806307a2d13a14610225578063095ea7b314610238575b600080fd5b6101fd610503565b6040519081526020015b60405180910390f35b6102186105c0565b6040516102079190611303565b6101fd610233366004611358565b61064e565b61024b61024636600461138d565b61067b565b6040519015158152602001610207565b6101fd610269366004611358565b6106e8565b6101fd60025481565b61024b6102853660046113b7565b610708565b6102b17f000000000000000000000000000000000000000000000000000000000000000081565b60405160ff9091168152602001610207565b6101fd6107e8565b6102f27f000000000000000000000000000000000000000000000000000000000000000081565b6040516001600160a01b039091168152602001610207565b6101fd6103183660046113f3565b610843565b6101fd61032b3660046113f3565b5060001990565b6102f27f000000000000000000000000000000000000000000000000000000000000000081565b6101fd610367366004611358565b610865565b6101fd61037a36600461140e565b610870565b6101fd61038d3660046113f3565b60036020526000908152604090205481565b6101fd6103ad3660046113f3565b60056020526000908152604090205481565b6101fd6103cd36600461140e565b61094c565b6102186109e8565b61024b6103e836600461138d565b6109f5565b6101fd6103fb366004611358565b610a5b565b6101fd61040e36600461143a565b610a7a565b6101fd61042136600461143a565b610b88565b6101fd610434366004611358565b610cd1565b61044c610447366004611476565b610cf1565b005b6101fd61045c3660046113f3565b6001600160a01b031660009081526003602052604090205490565b6102f27f000000000000000000000000000000000000000000000000000000000000000081565b6101fd6104ac3660046114e9565b600460209081526000928352604080842090915290825290205481565b6101fd7f000000000000000000000000000000000000000000000000000000000000000081565b6101fd6104fe366004611358565b610f35565b6040516393f1a40b60e01b81527f0000000000000000000000000000000000000000000000000000000000000000600482015230602482015260009081906001600160a01b037f000000000000000000000000000000000000000000000000000000000000000016906393f1a40b90604401608060405180830381865afa158015610592573d6000803e3d6000fd5b505050506040513d601f19601f820116820180604052508101906105b69190611513565b5091949350505050565b600080546105cd90611549565b80601f01602080910402602001604051908101604052809291908181526020018280546105f990611549565b80156106465780601f1061061b57610100808354040283529160200191610646565b820191906000526020600020905b81548152906001019060200180831161062957829003601f168201915b505050505081565b60025460009080156106725761066d610665610503565b849083610f40565b610674565b825b9392505050565b3360008181526004602090815260408083206001600160a01b038716808552925280832085905551919290917f8c5be1e5ebec7d5bd14f71427d1e84f3dd0314c0f7b2291e5b200ac8c7c3b925906106d69086815260200190565b60405180910390a35060015b92915050565b60025460009080156106725761066d81610700610503565b859190610f5f565b6001600160a01b038316600090815260046020908152604080832033845290915281205460001981146107645761073f838261159a565b6001600160a01b03861660009081526004602090815260408083203384529091529020555b6001600160a01b0385166000908152600360205260408120805485929061078c90849061159a565b90915550506001600160a01b0380851660008181526003602052604090819020805487019055519091871690600080516020611666833981519152906107d59087815260200190565b60405180910390a3506001949350505050565b60007f0000000000000000000000000000000000000000000000000000000000000000461461081e57610819610f8d565b905090565b507f000000000000000000000000000000000000000000000000000000000000000090565b6001600160a01b0381166000908152600360205260408120546106e29061064e565b60006106e28261064e565b600061087b83610f35565b9050806108bd5760405162461bcd60e51b815260206004820152600b60248201526a5a45524f5f53484152455360a81b60448201526064015b60405180910390fd5b6108f26001600160a01b037f000000000000000000000000000000000000000000000000000000000000000016333086611027565b6108fc82826110b1565b60408051848152602081018390526001600160a01b0384169133917fdcbc1c05240f31ff3ad067ef1ee35ce4997762752e3a095284754544f4c709d7910160405180910390a36106e2838261110b565b600061095783610a5b565b905061098e6001600160a01b037f000000000000000000000000000000000000000000000000000000000000000016333084611027565b61099882846110b1565b60408051828152602081018590526001600160a01b0384169133917fdcbc1c05240f31ff3ad067ef1ee35ce4997762752e3a095284754544f4c709d7910160405180910390a36106e2818461110b565b600180546105cd90611549565b33600090815260036020526040812080548391908390610a1690849061159a565b90915550506001600160a01b03831660008181526003602052604090819020805485019055513390600080516020611666833981519152906106d69086815260200190565b60025460009080156106725761066d610a72610503565b849083610f5f565b6000610a85846106e8565b9050336001600160a01b03831614610af5576001600160a01b03821660009081526004602090815260408083203384529091529020546000198114610af357610ace828261159a565b6001600160a01b03841660009081526004602090815260408083203384529091529020555b505b610aff84826111b0565b610b098282611223565b60408051858152602081018390526001600160a01b03808516929086169133917ffbde797d201c681b91056529119e0b02407c7bb96a4a2c75c01fc9667232c8db910160405180910390a46106746001600160a01b037f0000000000000000000000000000000000000000000000000000000000000000168486611285565b6000336001600160a01b03831614610bf8576001600160a01b03821660009081526004602090815260408083203384529091529020546000198114610bf657610bd1858261159a565b6001600160a01b03841660009081526004602090815260408083203384529091529020555b505b610c0184610865565b905080610c3e5760405162461bcd60e51b815260206004820152600b60248201526a5a45524f5f41535345545360a81b60448201526064016108b4565b610c4881856111b0565b610c528285611223565b60408051828152602081018690526001600160a01b03808516929086169133917ffbde797d201c681b91056529119e0b02407c7bb96a4a2c75c01fc9667232c8db910160405180910390a46106746001600160a01b037f0000000000000000000000000000000000000000000000000000000000000000168483611285565b60025460009080156106725761066d81610ce9610503565b859190610f40565b42841015610d415760405162461bcd60e51b815260206004820152601760248201527f5045524d49545f444541444c494e455f4558504952454400000000000000000060448201526064016108b4565b60006001610d4d6107e8565b6001600160a01b038a811660008181526005602090815260409182902080546001810190915582517f6e71edae12b1b97f4d1f60370fef10105fa2faae0126114a169c64845d6126c98184015280840194909452938d166060840152608083018c905260a083019390935260c08083018b90528151808403909101815260e08301909152805192019190912061190160f01b6101008301526101028201929092526101228101919091526101420160408051601f198184030181528282528051602091820120600084529083018083525260ff871690820152606081018590526080810184905260a0016020604051602081039080840390855afa158015610e59573d6000803e3d6000fd5b5050604051601f1901519150506001600160a01b03811615801590610e8f5750876001600160a01b0316816001600160a01b0316145b610ecc5760405162461bcd60e51b815260206004820152600e60248201526d24a72b20a624a22fa9a4a3a722a960911b60448201526064016108b4565b6001600160a01b0390811660009081526004602090815260408083208a8516808552908352928190208990555188815291928a16917f8c5be1e5ebec7d5bd14f71427d1e84f3dd0314c0f7b2291e5b200ac8c7c3b925910160405180910390a350505050505050565b60006106e282610cd1565b828202811515841585830485141716610f5857600080fd5b0492915050565b828202811515841585830485141716610f7757600080fd5b6001826001830304018115150290509392505050565b60007f8b73c3c69bb8fe3d512ecc4cf759cc79239f7b179b0ffacaa9a75d522b39400f6000604051610fbf91906115b1565b6040805191829003822060208301939093528101919091527fc89efdaa54c0f20c7adf612882df0950f5a951637e0307cdcb4c672f298b8bc660608201524660808201523060a082015260c00160405160208183030381529060405280519060200120905090565b60006040516323b872dd60e01b81528460048201528360248201528260448201526020600060648360008a5af13d15601f3d11600160005114161716915050806110aa5760405162461bcd60e51b81526020600482015260146024820152731514905394d1915497d19493d357d1905253115160621b60448201526064016108b4565b5050505050565b80600260008282546110c3919061164d565b90915550506001600160a01b03821660008181526003602090815260408083208054860190555184815260008051602061166683398151915291015b60405180910390a35050565b604051631c57762b60e31b81527f00000000000000000000000000000000000000000000000000000000000000006004820152602481018390527f00000000000000000000000000000000000000000000000000000000000000006001600160a01b03169063e2bbb158906044015b600060405180830381600087803b15801561119457600080fd5b505af11580156111a8573d6000803e3d6000fd5b505050505050565b604051630441a3e760e41b81527f00000000000000000000000000000000000000000000000000000000000000006004820152602481018290527f00000000000000000000000000000000000000000000000000000000000000006001600160a01b03169063441a3e709060440161117a565b6001600160a01b0382166000908152600360205260408120805483929061124b90849061159a565b90915550506002805482900390556040518181526000906001600160a01b03841690600080516020611666833981519152906020016110ff565b600060405163a9059cbb60e01b8152836004820152826024820152602060006044836000895af13d15601f3d11600160005114161716915050806112fd5760405162461bcd60e51b815260206004820152600f60248201526e1514905394d1915497d19052531151608a1b60448201526064016108b4565b50505050565b600060208083528351808285015260005b8181101561133057858101830151858201604001528201611314565b81811115611342576000604083870101525b50601f01601f1916929092016040019392505050565b60006020828403121561136a57600080fd5b5035919050565b80356001600160a01b038116811461138857600080fd5b919050565b600080604083850312156113a057600080fd5b6113a983611371565b946020939093013593505050565b6000806000606084860312156113cc57600080fd5b6113d584611371565b92506113e360208501611371565b9150604084013590509250925092565b60006020828403121561140557600080fd5b61067482611371565b6000806040838503121561142157600080fd5b8235915061143160208401611371565b90509250929050565b60008060006060848603121561144f57600080fd5b8335925061145f60208501611371565b915061146d60408501611371565b90509250925092565b600080600080600080600060e0888a03121561149157600080fd5b61149a88611371565b96506114a860208901611371565b95506040880135945060608801359350608088013560ff811681146114cc57600080fd5b9699959850939692959460a0840135945060c09093013592915050565b600080604083850312156114fc57600080fd5b61150583611371565b915061143160208401611371565b6000806000806080858703121561152957600080fd5b505082516020840151604085015160609095015191969095509092509050565b600181811c9082168061155d57607f821691505b6020821081141561157e57634e487b7160e01b600052602260045260246000fd5b50919050565b634e487b7160e01b600052601160045260246000fd5b6000828210156115ac576115ac611584565b500390565b600080835481600182811c9150808316806115cd57607f831692505b60208084108214156115ed57634e487b7160e01b86526022600452602486fd5b81801561160157600181146116125761163f565b60ff1986168952848901965061163f565b60008a81526020902060005b868110156116375781548b82015290850190830161161e565b505084890196505b509498975050505050505050565b6000821982111561166057611660611584565b50019056feddf252ad1be2c89b69c2b068fc378daa952ba7f163c4a11628f55a4df523b3efa164736f6c634300080a000a",
    "linkReferences": {}
  },
  "methodIdentifiers": {
    "DOMAIN_SEPARATOR()": "3644e515",
    "FLYWHEEL_CORE()": "db62f5ba",
    "POOL_ID()": "e0d7d0e9",
    "VAULT()": "411557d1",
    "allowance(address,address)": "dd62ed3e",
    "approve(address,uint256)": "095ea7b3",
    "asset()": "38d52e0f",
    "balanceOf(address)": "70a08231",
    "balanceOfUnderlying(address)": "3af9e669",
    "convertToAssets(uint256)": "07a2d13a",
    "convertToShares(uint256)": "c6e6f592",
    "decimals()": "313ce567",
    "deposit(uint256,address)": "6e553f65",
    "maxDeposit(address)": "402d267d",
    "maxMint(address)": "c63d75b6",
    "maxRedeem(address)": "d905777e",
    "maxWithdraw(address)": "ce96cb77",
    "mint(uint256,address)": "94bf804d",
    "name()": "06fdde03",
    "nonces(address)": "7ecebe00",
    "permit(address,address,uint256,uint256,uint8,bytes32,bytes32)": "d505accf",
    "previewDeposit(uint256)": "ef8b30f7",
    "previewMint(uint256)": "b3d7f6b9",
    "previewRedeem(uint256)": "4cdad506",
    "previewWithdraw(uint256)": "0a28a477",
    "redeem(uint256,address,address)": "ba087652",
    "symbol()": "95d89b41",
    "totalAssets()": "01e1d114",
    "totalSupply()": "18160ddd",
    "transfer(address,uint256)": "a9059cbb",
    "transferFrom(address,address,uint256)": "23b872dd",
    "withdraw(uint256,address,address)": "b460af94"
  },
  "id": 49
}