{
  "abi": [
    {
      "inputs": [],
      "name": "createPool",
      "outputs": [],
      "stateMutability": "nonpayable",
      "type": "function"
    }
  ],
  "bytecode": {
    "object": "0x6080604052348015600f57600080fd5b50606580601d6000396000f3fe6080604052348015600f57600080fd5b506004361060285760003560e01c80639a06b11314602d575b600080fd5b00fea264697066735822122021d8ac512387e5b5dafa5a4c2d186f37098277a92c0a1c1207c73b5e7e77b20764736f6c634300080a0033",
    "linkReferences": {}
  }
}