{
  "abi": [
    {
      "anonymous": false,
      "inputs": [
        {
          "indexed": false,
          "internalType": "uint256",
          "name": "cashPrior",
          "type": "uint256"
        },
        {
          "indexed": false,
          "internalType": "uint256",
          "name": "interestAccumulated",
          "type": "uint256"
        },
        {
          "indexed": false,
          "internalType": "uint256",
          "name": "borrowIndex",
          "type": "uint256"
        },
        {
          "indexed": false,
          "internalType": "uint256",
          "name": "totalBorrows",
          "type": "uint256"
        }
      ],
      "name": "AccrueInterest",
      "type": "event"
    },
    {
      "anonymous": false,
      "inputs": [
        {
          "indexed": true,
          "internalType": "address",
          "name": "owner",
          "type": "address"
        },
        {
          "indexed": true,
          "internalType": "address",
          "name": "spender",
          "type": "address"
        },
        {
          "indexed": false,
          "internalType": "uint256",
          "name": "amount",
          "type": "uint256"
        }
      ],
      "name": "Approval",
      "type": "event"
    },
    {
      "anonymous": false,
      "inputs": [
        {
          "indexed": false,
          "internalType": "address",
          "name": "borrower",
          "type": "address"
        },
        {
          "indexed": false,
          "internalType": "uint256",
          "name": "borrowAmount",
          "type": "uint256"
        },
        {
          "indexed": false,
          "internalType": "uint256",
          "name": "accountBorrows",
          "type": "uint256"
        },
        {
          "indexed": false,
          "internalType": "uint256",
          "name": "totalBorrows",
          "type": "uint256"
        }
      ],
      "name": "Borrow",
      "type": "event"
    },
    {
      "anonymous": false,
      "inputs": [
        {
          "indexed": false,
          "internalType": "uint256",
          "name": "error",
          "type": "uint256"
        },
        {
          "indexed": false,
          "internalType": "uint256",
          "name": "info",
          "type": "uint256"
        },
        {
          "indexed": false,
          "internalType": "uint256",
          "name": "detail",
          "type": "uint256"
        }
      ],
      "name": "Failure",
      "type": "event"
    },
    {
      "anonymous": false,
      "inputs": [
        {
          "indexed": false,
          "internalType": "address",
          "name": "liquidator",
          "type": "address"
        },
        {
          "indexed": false,
          "internalType": "address",
          "name": "borrower",
          "type": "address"
        },
        {
          "indexed": false,
          "internalType": "uint256",
          "name": "repayAmount",
          "type": "uint256"
        },
        {
          "indexed": false,
          "internalType": "address",
          "name": "cTokenCollateral",
          "type": "address"
        },
        {
          "indexed": false,
          "internalType": "uint256",
          "name": "seizeTokens",
          "type": "uint256"
        }
      ],
      "name": "LiquidateBorrow",
      "type": "event"
    },
    {
      "anonymous": false,
      "inputs": [
        {
          "indexed": false,
          "internalType": "address",
          "name": "minter",
          "type": "address"
        },
        {
          "indexed": false,
          "internalType": "uint256",
          "name": "mintAmount",
          "type": "uint256"
        },
        {
          "indexed": false,
          "internalType": "uint256",
          "name": "mintTokens",
          "type": "uint256"
        }
      ],
      "name": "Mint",
      "type": "event"
    },
    {
      "anonymous": false,
      "inputs": [
        {
          "indexed": false,
          "internalType": "uint256",
          "name": "oldAdminFeeMantissa",
          "type": "uint256"
        },
        {
          "indexed": false,
          "internalType": "uint256",
          "name": "newAdminFeeMantissa",
          "type": "uint256"
        }
      ],
      "name": "NewAdminFee",
      "type": "event"
    },
    {
      "anonymous": false,
      "inputs": [
        {
          "indexed": false,
          "internalType": "contract ComptrollerInterface",
          "name": "oldComptroller",
          "type": "address"
        },
        {
          "indexed": false,
          "internalType": "contract ComptrollerInterface",
          "name": "newComptroller",
          "type": "address"
        }
      ],
      "name": "NewComptroller",
      "type": "event"
    },
    {
      "anonymous": false,
      "inputs": [
        {
          "indexed": false,
          "internalType": "uint256",
          "name": "oldFuseFeeMantissa",
          "type": "uint256"
        },
        {
          "indexed": false,
          "internalType": "uint256",
          "name": "newFuseFeeMantissa",
          "type": "uint256"
        }
      ],
      "name": "NewFuseFee",
      "type": "event"
    },
    {
      "anonymous": false,
      "inputs": [
        {
          "indexed": false,
          "internalType": "address",
          "name": "oldImplementation",
          "type": "address"
        },
        {
          "indexed": false,
          "internalType": "address",
          "name": "newImplementation",
          "type": "address"
        }
      ],
      "name": "NewImplementation",
      "type": "event"
    },
    {
      "anonymous": false,
      "inputs": [
        {
          "indexed": false,
          "internalType": "contract InterestRateModel",
          "name": "oldInterestRateModel",
          "type": "address"
        },
        {
          "indexed": false,
          "internalType": "contract InterestRateModel",
          "name": "newInterestRateModel",
          "type": "address"
        }
      ],
      "name": "NewMarketInterestRateModel",
      "type": "event"
    },
    {
      "anonymous": false,
      "inputs": [
        {
          "indexed": false,
          "internalType": "uint256",
          "name": "oldReserveFactorMantissa",
          "type": "uint256"
        },
        {
          "indexed": false,
          "internalType": "uint256",
          "name": "newReserveFactorMantissa",
          "type": "uint256"
        }
      ],
      "name": "NewReserveFactor",
      "type": "event"
    },
    {
      "anonymous": false,
      "inputs": [
        {
          "indexed": false,
          "internalType": "address",
          "name": "redeemer",
          "type": "address"
        },
        {
          "indexed": false,
          "internalType": "uint256",
          "name": "redeemAmount",
          "type": "uint256"
        },
        {
          "indexed": false,
          "internalType": "uint256",
          "name": "redeemTokens",
          "type": "uint256"
        }
      ],
      "name": "Redeem",
      "type": "event"
    },
    {
      "anonymous": false,
      "inputs": [
        {
          "indexed": false,
          "internalType": "address",
          "name": "payer",
          "type": "address"
        },
        {
          "indexed": false,
          "internalType": "address",
          "name": "borrower",
          "type": "address"
        },
        {
          "indexed": false,
          "internalType": "uint256",
          "name": "repayAmount",
          "type": "uint256"
        },
        {
          "indexed": false,
          "internalType": "uint256",
          "name": "accountBorrows",
          "type": "uint256"
        },
        {
          "indexed": false,
          "internalType": "uint256",
          "name": "totalBorrows",
          "type": "uint256"
        }
      ],
      "name": "RepayBorrow",
      "type": "event"
    },
    {
      "anonymous": false,
      "inputs": [
        {
          "indexed": false,
          "internalType": "address",
          "name": "benefactor",
          "type": "address"
        },
        {
          "indexed": false,
          "internalType": "uint256",
          "name": "addAmount",
          "type": "uint256"
        },
        {
          "indexed": false,
          "internalType": "uint256",
          "name": "newTotalReserves",
          "type": "uint256"
        }
      ],
      "name": "ReservesAdded",
      "type": "event"
    },
    {
      "anonymous": false,
      "inputs": [
        {
          "indexed": false,
          "internalType": "address",
          "name": "admin",
          "type": "address"
        },
        {
          "indexed": false,
          "internalType": "uint256",
          "name": "reduceAmount",
          "type": "uint256"
        },
        {
          "indexed": false,
          "internalType": "uint256",
          "name": "newTotalReserves",
          "type": "uint256"
        }
      ],
      "name": "ReservesReduced",
      "type": "event"
    },
    {
      "anonymous": false,
      "inputs": [
        {
          "indexed": true,
          "internalType": "address",
          "name": "from",
          "type": "address"
        },
        {
          "indexed": true,
          "internalType": "address",
          "name": "to",
          "type": "address"
        },
        {
          "indexed": false,
          "internalType": "uint256",
          "name": "amount",
          "type": "uint256"
        }
      ],
      "name": "Transfer",
      "type": "event"
    },
    {
      "inputs": [],
      "name": "PRECISION",
      "outputs": [
        {
          "internalType": "uint256",
          "name": "",
          "type": "uint256"
        }
      ],
      "stateMutability": "view",
      "type": "function"
    },
    {
      "inputs": [
        {
          "internalType": "bytes",
          "name": "data",
          "type": "bytes"
        }
      ],
      "name": "_becomeImplementation",
      "outputs": [],
      "stateMutability": "nonpayable",
      "type": "function"
    },
    {
      "inputs": [
        {
          "internalType": "address",
          "name": "compLikeDelegatee",
          "type": "address"
        }
      ],
      "name": "_delegateCompLikeTo",
      "outputs": [],
      "stateMutability": "nonpayable",
      "type": "function"
    },
    {
      "inputs": [],
      "name": "_prepare",
      "outputs": [],
      "stateMutability": "payable",
      "type": "function"
    },
    {
      "inputs": [
        {
          "internalType": "uint256",
          "name": "reduceAmount",
          "type": "uint256"
        }
      ],
      "name": "_reduceReserves",
      "outputs": [
        {
          "internalType": "uint256",
          "name": "",
          "type": "uint256"
        }
      ],
      "stateMutability": "nonpayable",
      "type": "function"
    },
    {
      "inputs": [
        {
          "internalType": "uint256",
          "name": "newAdminFeeMantissa",
          "type": "uint256"
        }
      ],
      "name": "_setAdminFee",
      "outputs": [
        {
          "internalType": "uint256",
          "name": "",
          "type": "uint256"
        }
      ],
      "stateMutability": "nonpayable",
      "type": "function"
    },
    {
      "inputs": [
        {
          "internalType": "address",
          "name": "implementation_",
          "type": "address"
        },
        {
          "internalType": "bool",
          "name": "allowResign",
          "type": "bool"
        },
        {
          "internalType": "bytes",
          "name": "becomeImplementationData",
          "type": "bytes"
        }
      ],
      "name": "_setImplementationSafe",
      "outputs": [],
      "stateMutability": "nonpayable",
      "type": "function"
    },
    {
      "inputs": [
        {
          "internalType": "contract InterestRateModel",
          "name": "newInterestRateModel",
          "type": "address"
        }
      ],
      "name": "_setInterestRateModel",
      "outputs": [
        {
          "internalType": "uint256",
          "name": "",
          "type": "uint256"
        }
      ],
      "stateMutability": "nonpayable",
      "type": "function"
    },
    {
      "inputs": [
        {
          "internalType": "string",
          "name": "_name",
          "type": "string"
        },
        {
          "internalType": "string",
          "name": "_symbol",
          "type": "string"
        }
      ],
      "name": "_setNameAndSymbol",
      "outputs": [],
      "stateMutability": "nonpayable",
      "type": "function"
    },
    {
      "inputs": [
        {
          "internalType": "uint256",
          "name": "newReserveFactorMantissa",
          "type": "uint256"
        }
      ],
      "name": "_setReserveFactor",
      "outputs": [
        {
          "internalType": "uint256",
          "name": "",
          "type": "uint256"
        }
      ],
      "stateMutability": "nonpayable",
      "type": "function"
    },
    {
      "inputs": [
        {
          "internalType": "uint256",
          "name": "withdrawAmount",
          "type": "uint256"
        }
      ],
      "name": "_withdrawAdminFees",
      "outputs": [
        {
          "internalType": "uint256",
          "name": "",
          "type": "uint256"
        }
      ],
      "stateMutability": "nonpayable",
      "type": "function"
    },
    {
      "inputs": [
        {
          "internalType": "uint256",
          "name": "withdrawAmount",
          "type": "uint256"
        }
      ],
      "name": "_withdrawFuseFees",
      "outputs": [
        {
          "internalType": "uint256",
          "name": "",
          "type": "uint256"
        }
      ],
      "stateMutability": "nonpayable",
      "type": "function"
    },
    {
      "inputs": [],
      "name": "accrualBlockNumber",
      "outputs": [
        {
          "internalType": "uint256",
          "name": "",
          "type": "uint256"
        }
      ],
      "stateMutability": "view",
      "type": "function"
    },
    {
      "inputs": [],
      "name": "accrueInterest",
      "outputs": [
        {
          "internalType": "uint256",
          "name": "",
          "type": "uint256"
        }
      ],
      "stateMutability": "nonpayable",
      "type": "function"
    },
    {
      "inputs": [],
      "name": "adminFeeMantissa",
      "outputs": [
        {
          "internalType": "uint256",
          "name": "",
          "type": "uint256"
        }
      ],
      "stateMutability": "view",
      "type": "function"
    },
    {
      "inputs": [
        {
          "internalType": "address",
          "name": "owner",
          "type": "address"
        },
        {
          "internalType": "address",
          "name": "spender",
          "type": "address"
        }
      ],
      "name": "allowance",
      "outputs": [
        {
          "internalType": "uint256",
          "name": "",
          "type": "uint256"
        }
      ],
      "stateMutability": "view",
      "type": "function"
    },
    {
      "inputs": [
        {
          "internalType": "address",
          "name": "spender",
          "type": "address"
        },
        {
          "internalType": "uint256",
          "name": "amount",
          "type": "uint256"
        }
      ],
      "name": "approve",
      "outputs": [
        {
          "internalType": "bool",
          "name": "",
          "type": "bool"
        }
      ],
      "stateMutability": "nonpayable",
      "type": "function"
    },
    {
      "inputs": [
        {
          "internalType": "address",
          "name": "owner",
          "type": "address"
        }
      ],
      "name": "balanceOf",
      "outputs": [
        {
          "internalType": "uint256",
          "name": "",
          "type": "uint256"
        }
      ],
      "stateMutability": "view",
      "type": "function"
    },
    {
      "inputs": [
        {
          "internalType": "address",
          "name": "owner",
          "type": "address"
        }
      ],
      "name": "balanceOfUnderlying",
      "outputs": [
        {
          "internalType": "uint256",
          "name": "",
          "type": "uint256"
        }
      ],
      "stateMutability": "nonpayable",
      "type": "function"
    },
    {
      "inputs": [
        {
          "internalType": "uint256",
          "name": "borrowAmount",
          "type": "uint256"
        }
      ],
      "name": "borrow",
      "outputs": [
        {
          "internalType": "uint256",
          "name": "",
          "type": "uint256"
        }
      ],
      "stateMutability": "nonpayable",
      "type": "function"
    },
    {
      "inputs": [
        {
          "internalType": "address",
          "name": "account",
          "type": "address"
        }
      ],
      "name": "borrowBalanceCurrent",
      "outputs": [
        {
          "internalType": "uint256",
          "name": "",
          "type": "uint256"
        }
      ],
      "stateMutability": "nonpayable",
      "type": "function"
    },
    {
      "inputs": [
        {
          "internalType": "address",
          "name": "account",
          "type": "address"
        }
      ],
      "name": "borrowBalanceStored",
      "outputs": [
        {
          "internalType": "uint256",
          "name": "",
          "type": "uint256"
        }
      ],
      "stateMutability": "view",
      "type": "function"
    },
    {
      "inputs": [],
      "name": "borrowIndex",
      "outputs": [
        {
          "internalType": "uint256",
          "name": "",
          "type": "uint256"
        }
      ],
      "stateMutability": "view",
      "type": "function"
    },
    {
      "inputs": [],
      "name": "borrowRatePerBlock",
      "outputs": [
        {
          "internalType": "uint256",
          "name": "",
          "type": "uint256"
        }
      ],
      "stateMutability": "view",
      "type": "function"
    },
    {
      "inputs": [],
      "name": "comptroller",
      "outputs": [
        {
          "internalType": "contract ComptrollerInterface",
          "name": "",
          "type": "address"
        }
      ],
      "stateMutability": "view",
      "type": "function"
    },
    {
      "inputs": [],
      "name": "decimals",
      "outputs": [
        {
          "internalType": "uint8",
          "name": "",
          "type": "uint8"
        }
      ],
      "stateMutability": "view",
      "type": "function"
    },
    {
      "inputs": [],
      "name": "exchangeRateCurrent",
      "outputs": [
        {
          "internalType": "uint256",
          "name": "",
          "type": "uint256"
        }
      ],
      "stateMutability": "nonpayable",
      "type": "function"
    },
    {
      "inputs": [],
      "name": "exchangeRateStored",
      "outputs": [
        {
          "internalType": "uint256",
          "name": "",
          "type": "uint256"
        }
      ],
      "stateMutability": "view",
      "type": "function"
    },
    {
      "inputs": [],
      "name": "feeSeizeShareMantissa",
      "outputs": [
        {
          "internalType": "uint256",
          "name": "",
          "type": "uint256"
        }
      ],
      "stateMutability": "view",
      "type": "function"
    },
    {
      "inputs": [],
      "name": "fuseAdmin",
      "outputs": [
        {
          "internalType": "address payable",
          "name": "",
          "type": "address"
        }
      ],
      "stateMutability": "view",
      "type": "function"
    },
    {
      "inputs": [],
      "name": "fuseFeeMantissa",
      "outputs": [
        {
          "internalType": "uint256",
          "name": "",
          "type": "uint256"
        }
      ],
      "stateMutability": "view",
      "type": "function"
    },
    {
      "inputs": [
        {
          "internalType": "address",
          "name": "account",
          "type": "address"
        }
      ],
      "name": "getAccountSnapshot",
      "outputs": [
        {
          "internalType": "uint256",
          "name": "",
          "type": "uint256"
        },
        {
          "internalType": "uint256",
          "name": "",
          "type": "uint256"
        },
        {
          "internalType": "uint256",
          "name": "",
          "type": "uint256"
        },
        {
          "internalType": "uint256",
          "name": "",
          "type": "uint256"
        }
      ],
      "stateMutability": "view",
      "type": "function"
    },
    {
      "inputs": [],
      "name": "getCash",
      "outputs": [
        {
          "internalType": "uint256",
          "name": "",
          "type": "uint256"
        }
      ],
      "stateMutability": "view",
      "type": "function"
    },
    {
      "inputs": [],
      "name": "implementation",
      "outputs": [
        {
          "internalType": "address",
          "name": "",
          "type": "address"
        }
      ],
      "stateMutability": "view",
      "type": "function"
    },
    {
      "inputs": [
        {
          "internalType": "address",
          "name": "underlying_",
          "type": "address"
        },
        {
          "internalType": "contract ComptrollerInterface",
          "name": "comptroller_",
          "type": "address"
        },
        {
          "internalType": "address payable",
          "name": "fuseAdmin_",
          "type": "address"
        },
        {
          "internalType": "contract InterestRateModel",
          "name": "interestRateModel_",
          "type": "address"
        },
        {
          "internalType": "string",
          "name": "name_",
          "type": "string"
        },
        {
          "internalType": "string",
          "name": "symbol_",
          "type": "string"
        },
        {
          "internalType": "uint256",
          "name": "reserveFactorMantissa_",
          "type": "uint256"
        },
        {
          "internalType": "uint256",
          "name": "adminFeeMantissa_",
          "type": "uint256"
        }
      ],
      "name": "initialize",
      "outputs": [],
      "stateMutability": "nonpayable",
      "type": "function"
    },
    {
      "inputs": [
        {
          "internalType": "contract ComptrollerInterface",
          "name": "comptroller_",
          "type": "address"
        },
        {
          "internalType": "address payable",
          "name": "fuseAdmin_",
          "type": "address"
        },
        {
          "internalType": "contract InterestRateModel",
          "name": "interestRateModel_",
          "type": "address"
        },
        {
          "internalType": "uint256",
          "name": "initialExchangeRateMantissa_",
          "type": "uint256"
        },
        {
          "internalType": "string",
          "name": "name_",
          "type": "string"
        },
        {
          "internalType": "string",
          "name": "symbol_",
          "type": "string"
        },
        {
          "internalType": "uint8",
          "name": "decimals_",
          "type": "uint8"
        },
        {
          "internalType": "uint256",
          "name": "reserveFactorMantissa_",
          "type": "uint256"
        },
        {
          "internalType": "uint256",
          "name": "adminFeeMantissa_",
          "type": "uint256"
        }
      ],
      "name": "initialize",
      "outputs": [],
      "stateMutability": "nonpayable",
      "type": "function"
    },
    {
      "inputs": [],
      "name": "interestRateModel",
      "outputs": [
        {
          "internalType": "contract InterestRateModel",
          "name": "",
          "type": "address"
        }
      ],
      "stateMutability": "view",
      "type": "function"
    },
    {
      "inputs": [],
      "name": "isCEther",
      "outputs": [
        {
          "internalType": "bool",
          "name": "",
          "type": "bool"
        }
      ],
      "stateMutability": "nonpayable",
      "type": "function"
    },
    {
      "inputs": [],
      "name": "isCToken",
      "outputs": [
        {
          "internalType": "bool",
          "name": "",
          "type": "bool"
        }
      ],
      "stateMutability": "nonpayable",
      "type": "function"
    },
    {
      "inputs": [
        {
          "internalType": "address",
          "name": "borrower",
          "type": "address"
        },
        {
          "internalType": "uint256",
          "name": "repayAmount",
          "type": "uint256"
        },
        {
          "internalType": "contract CTokenInterface",
          "name": "cTokenCollateral",
          "type": "address"
        }
      ],
      "name": "liquidateBorrow",
      "outputs": [
        {
          "internalType": "uint256",
          "name": "",
          "type": "uint256"
        }
      ],
      "stateMutability": "nonpayable",
      "type": "function"
    },
    {
      "inputs": [
        {
          "internalType": "uint256",
          "name": "mintAmount",
          "type": "uint256"
        }
      ],
      "name": "mint",
      "outputs": [
        {
          "internalType": "uint256",
          "name": "",
          "type": "uint256"
        }
      ],
      "stateMutability": "nonpayable",
      "type": "function"
    },
    {
      "inputs": [],
      "name": "name",
      "outputs": [
        {
          "internalType": "string",
          "name": "",
          "type": "string"
        }
      ],
      "stateMutability": "view",
      "type": "function"
    },
    {
      "inputs": [],
      "name": "plugin",
      "outputs": [
        {
          "internalType": "contract IERC4626",
          "name": "",
          "type": "address"
        }
      ],
      "stateMutability": "view",
      "type": "function"
    },
    {
      "inputs": [],
      "name": "protocolSeizeShareMantissa",
      "outputs": [
        {
          "internalType": "uint256",
          "name": "",
          "type": "uint256"
        }
      ],
      "stateMutability": "view",
      "type": "function"
    },
    {
      "inputs": [
        {
          "internalType": "uint256",
          "name": "redeemTokens",
          "type": "uint256"
        }
      ],
      "name": "redeem",
      "outputs": [
        {
          "internalType": "uint256",
          "name": "",
          "type": "uint256"
        }
      ],
      "stateMutability": "nonpayable",
      "type": "function"
    },
    {
      "inputs": [
        {
          "internalType": "uint256",
          "name": "redeemAmount",
          "type": "uint256"
        }
      ],
      "name": "redeemUnderlying",
      "outputs": [
        {
          "internalType": "uint256",
          "name": "",
          "type": "uint256"
        }
      ],
      "stateMutability": "nonpayable",
      "type": "function"
    },
    {
      "inputs": [
        {
          "internalType": "uint256",
          "name": "repayAmount",
          "type": "uint256"
        }
      ],
      "name": "repayBorrow",
      "outputs": [
        {
          "internalType": "uint256",
          "name": "",
          "type": "uint256"
        }
      ],
      "stateMutability": "nonpayable",
      "type": "function"
    },
    {
      "inputs": [
        {
          "internalType": "address",
          "name": "borrower",
          "type": "address"
        },
        {
          "internalType": "uint256",
          "name": "repayAmount",
          "type": "uint256"
        }
      ],
      "name": "repayBorrowBehalf",
      "outputs": [
        {
          "internalType": "uint256",
          "name": "",
          "type": "uint256"
        }
      ],
      "stateMutability": "nonpayable",
      "type": "function"
    },
    {
      "inputs": [],
      "name": "reserveFactorMantissa",
      "outputs": [
        {
          "internalType": "uint256",
          "name": "",
          "type": "uint256"
        }
      ],
      "stateMutability": "view",
      "type": "function"
    },
    {
      "inputs": [
        {
          "internalType": "address",
          "name": "liquidator",
          "type": "address"
        },
        {
          "internalType": "address",
          "name": "borrower",
          "type": "address"
        },
        {
          "internalType": "uint256",
          "name": "seizeTokens",
          "type": "uint256"
        }
      ],
      "name": "seize",
      "outputs": [
        {
          "internalType": "uint256",
          "name": "",
          "type": "uint256"
        }
      ],
      "stateMutability": "nonpayable",
      "type": "function"
    },
    {
      "inputs": [],
      "name": "supplyRatePerBlock",
      "outputs": [
        {
          "internalType": "uint256",
          "name": "",
          "type": "uint256"
        }
      ],
      "stateMutability": "view",
      "type": "function"
    },
    {
      "inputs": [],
      "name": "symbol",
      "outputs": [
        {
          "internalType": "string",
          "name": "",
          "type": "string"
        }
      ],
      "stateMutability": "view",
      "type": "function"
    },
    {
      "inputs": [],
      "name": "totalAdminFees",
      "outputs": [
        {
          "internalType": "uint256",
          "name": "",
          "type": "uint256"
        }
      ],
      "stateMutability": "view",
      "type": "function"
    },
    {
      "inputs": [],
      "name": "totalBorrows",
      "outputs": [
        {
          "internalType": "uint256",
          "name": "",
          "type": "uint256"
        }
      ],
      "stateMutability": "view",
      "type": "function"
    },
    {
      "inputs": [],
      "name": "totalBorrowsCurrent",
      "outputs": [
        {
          "internalType": "uint256",
          "name": "",
          "type": "uint256"
        }
      ],
      "stateMutability": "nonpayable",
      "type": "function"
    },
    {
      "inputs": [],
      "name": "totalFuseFees",
      "outputs": [
        {
          "internalType": "uint256",
          "name": "",
          "type": "uint256"
        }
      ],
      "stateMutability": "view",
      "type": "function"
    },
    {
      "inputs": [],
      "name": "totalReserves",
      "outputs": [
        {
          "internalType": "uint256",
          "name": "",
          "type": "uint256"
        }
      ],
      "stateMutability": "view",
      "type": "function"
    },
    {
      "inputs": [],
      "name": "totalSupply",
      "outputs": [
        {
          "internalType": "uint256",
          "name": "",
          "type": "uint256"
        }
      ],
      "stateMutability": "view",
      "type": "function"
    },
    {
      "inputs": [
        {
          "internalType": "address",
          "name": "dst",
          "type": "address"
        },
        {
          "internalType": "uint256",
          "name": "amount",
          "type": "uint256"
        }
      ],
      "name": "transfer",
      "outputs": [
        {
          "internalType": "bool",
          "name": "",
          "type": "bool"
        }
      ],
      "stateMutability": "nonpayable",
      "type": "function"
    },
    {
      "inputs": [
        {
          "internalType": "address",
          "name": "src",
          "type": "address"
        },
        {
          "internalType": "address",
          "name": "dst",
          "type": "address"
        },
        {
          "internalType": "uint256",
          "name": "amount",
          "type": "uint256"
        }
      ],
      "name": "transferFrom",
      "outputs": [
        {
          "internalType": "bool",
          "name": "",
          "type": "bool"
        }
      ],
      "stateMutability": "nonpayable",
      "type": "function"
    },
    {
      "inputs": [],
      "name": "underlying",
      "outputs": [
        {
          "internalType": "address",
          "name": "",
          "type": "address"
        }
      ],
      "stateMutability": "view",
      "type": "function"
    }
  ],
  "bytecode": {
    "object": "0x608060405234801561001057600080fd5b5061600b80620000216000396000f3fe6080604052600436106103a25760003560e01c8063852a12e3116101e7578063b2a02ff11161010d578063dd62ed3e116100a0578063f5e3c4621161006f578063f5e3c46214610a90578063f8f9da2814610ab0578063fca7820b14610ac5578063fe9c44ae14610ae557600080fd5b8063dd62ed3e146109ea578063ef01df4f14610a30578063f2b3abbd14610a50578063f3fdb15a14610a7057600080fd5b8063c5ebeaec116100dc578063c5ebeaec1461097e578063db006a751461099e578063dbfe7c19146109be578063dc028ab1146109d457600080fd5b8063b2a02ff1146108ed578063bd6d894d1461090d578063be99f11914610922578063c37f68e21461093e57600080fd5b8063a0712d6811610185578063aa5af0fd11610154578063aa5af0fd14610892578063aaf5eb68146108a8578063ac784ddc146108c4578063ae9d70b0146108d857600080fd5b8063a0712d681461081d578063a6afed951461083d578063a7b820df14610852578063a9059cbb1461087257600080fd5b806391dd36c6116101c157806391dd36c6146107a857806395d89b41146107c857806395dd9193146107dd578063a03dce8d146107fd57600080fd5b8063852a12e31461075c5780638d02d9a11461077c5780638f840ddd1461079257600080fd5b80633af9e669116102cc578063601a0bf11161026a5780636f307dc3116102395780636f307dc3146106d157806370a08231146106f157806373acee98146107275780637f1e06be1461073c57600080fd5b8063601a0bf11461066a57806361feacff1461068a5780636752e702146106a05780636c540baf146106bb57600080fd5b806350d85b73116102a657806350d85b73146105ea57806356e677281461060a5780635c60da1b1461062a5780635fe3b5671461064a57600080fd5b80633af9e6691461059f5780633b1d21a2146105bf57806347bd3718146105d457600080fd5b806318160ddd1161034457806323b872dd1161031357806323b872dd146105135780632608f81814610533578063313ce5671461055357806334154d4c1461057f57600080fd5b806318160ddd146104c0578063182df0f5146104d65780631db78944146104eb578063219ef65c146104f357600080fd5b80630e752702116103805780630e7527021461042457806315761d5114610452578063173b99041461048a57806317bfdfbc146104a057600080fd5b806306db3ecd146103a757806306fdde03146103c9578063095ea7b3146103f4575b600080fd5b3480156103b357600080fd5b506103c76103c236600461589b565b610af9565b005b3480156103d557600080fd5b506103de610c07565b6040516103eb91906159b5565b60405180910390f35b34801561040057600080fd5b5061041461040f3660046159c8565b610c95565b60405190151581526020016103eb565b34801561043057600080fd5b5061044461043f3660046159f4565b610d05565b6040519081526020016103eb565b34801561045e57600080fd5b50600154610472906001600160a01b031681565b6040516001600160a01b0390911681526020016103eb565b34801561049657600080fd5b50610444600b5481565b3480156104ac57600080fd5b506104446104bb366004615a0d565b610d19565b3480156104cc57600080fd5b5061044460125481565b3480156104e257600080fd5b50610444610d70565b6103c7610e01565b3480156104ff57600080fd5b506103c761050e366004615a44565b610f32565b34801561051f57600080fd5b5061041461052e366004615b0c565b611261565b34801561053f57600080fd5b5061044461054e3660046159c8565b611287565b34801561055f57600080fd5b5060055461056d9060ff1681565b60405160ff90911681526020016103eb565b34801561058b57600080fd5b506103c761059a366004615b8f565b61129d565b3480156105ab57600080fd5b506104446105ba366004615a0d565b611304565b3480156105cb57600080fd5b506104446113b4565b3480156105e057600080fd5b50610444600e5481565b3480156105f657600080fd5b506103c7610605366004615c09565b6113c3565b34801561061657600080fd5b506103c7610625366004615c62565b611447565b34801561063657600080fd5b50600054610472906001600160a01b031681565b34801561065657600080fd5b50600654610472906001600160a01b031681565b34801561067657600080fd5b506104446106853660046159f4565b611727565b34801561069657600080fd5b5061044460105481565b3480156106ac57600080fd5b50610444666379da05b6000081565b3480156106c757600080fd5b50610444600c5481565b3480156106dd57600080fd5b50601654610472906001600160a01b031681565b3480156106fd57600080fd5b5061044461070c366004615a0d565b6001600160a01b031660009081526013602052604090205490565b34801561073357600080fd5b5061044461177e565b34801561074857600080fd5b506103c7610757366004615a0d565b6117c3565b34801561076857600080fd5b506104446107773660046159f4565b611888565b34801561078857600080fd5b5061044460095481565b34801561079e57600080fd5b50610444600f5481565b3480156107b457600080fd5b506104446107c33660046159f4565b611893565b3480156107d457600080fd5b506103de6118d6565b3480156107e957600080fd5b506104446107f8366004615a0d565b6118e3565b34801561080957600080fd5b506104446108183660046159f4565b611984565b34801561082957600080fd5b506104446108383660046159f4565b6119c7565b34801561084957600080fd5b506104446119d3565b34801561085e57600080fd5b5061044461086d3660046159f4565b611b8a565b34801561087e57600080fd5b5061041461088d3660046159c8565b611bcd565b34801561089e57600080fd5b50610444600d5481565b3480156108b457600080fd5b50610444670de0b6b3a764000081565b3480156108d057600080fd5b506000610414565b3480156108e457600080fd5b50610444611bfa565b3480156108f957600080fd5b50610444610908366004615b0c565b611cbd565b34801561091957600080fd5b50610444611ce1565b34801561092e57600080fd5b5061044467016345785d8a000081565b34801561094a57600080fd5b5061095e610959366004615a0d565b611d27565b6040805194855260208501939093529183015260608201526080016103eb565b34801561098a57600080fd5b506104446109993660046159f4565b611dc8565b3480156109aa57600080fd5b506104446109b93660046159f4565b611dd3565b3480156109ca57600080fd5b50610444600a5481565b3480156109e057600080fd5b5061044460115481565b3480156109f657600080fd5b50610444610a05366004615ca4565b6001600160a01b03918216600090815260146020908152604080832093909416825291909152205490565b348015610a3c57600080fd5b50601754610472906001600160a01b031681565b348015610a5c57600080fd5b50610444610a6b366004615a0d565b611dde565b348015610a7c57600080fd5b50600754610472906001600160a01b031681565b348015610a9c57600080fd5b50610444610aab366004615cdd565b611e16565b348015610abc57600080fd5b50610444611e2e565b348015610ad157600080fd5b50610444610ae03660046159f4565b611e92565b348015610af157600080fd5b506001610414565b60006702c68af0bb14000090506000896001600160a01b031663313ce5676040518163ffffffff1660e01b8152600401602060405180830381865afa158015610b46573d6000803e3d6000fd5b505050506040513d601f19601f82011682018060405250810190610b6a9190615d1f565b9050610b7d898989858a8a878b8b610f32565b601680546001600160a01b0319166001600160a01b038c16908117909155604080516318160ddd60e01b815290516318160ddd916004808201926020929091908290030181865afa158015610bd6573d6000803e3d6000fd5b505050506040513d601f19601f82011682018060405250810190610bfa9190615d3c565b5050505050505050505050565b60038054610c1490615d55565b80601f0160208091040260200160405190810160405280929190818152602001828054610c4090615d55565b8015610c8d5780601f10610c6257610100808354040283529160200191610c8d565b820191906000526020600020905b815481529060010190602001808311610c7057829003601f168201915b505050505081565b3360008181526014602090815260408083206001600160a01b03871680855292528083208590555191929182907f8c5be1e5ebec7d5bd14f71427d1e84f3dd0314c0f7b2291e5b200ac8c7c3b92590610cf19087815260200190565b60405180910390a360019150505b92915050565b600080610d1183611ed5565b509392505050565b600080610d2581611f3d565b6000610d2f6119d3565b14610d555760405162461bcd60e51b8152600401610d4c90615da0565b60405180910390fd5b610d5e836118e3565b91505b610d6a81612001565b50919050565b6000806000610d7d61206c565b90925090506000826003811115610d9657610d96615d8a565b14610cff5760405162461bcd60e51b815260206004820152603560248201527f65786368616e67655261746553746f7265643a2065786368616e67655261746560448201527414dd1bdc9959125b9d195c9b985b0819985a5b1959605a1b6064820152608401610d4c565b333014801590610e835750600660009054906101000a90046001600160a01b03166001600160a01b031663dd5cd22c6040518163ffffffff1660e01b8152600401602060405180830381865afa158015610e5f573d6000803e3d6000fd5b505050506040513d601f19601f82011682018060405250810190610e839190615dd0565b15610f3057600154600080546040516345cc970560e01b81526001600160a01b039182166004820152919283928392909116906345cc970590602401600060405180830381865afa158015610edc573d6000803e3d6000fd5b505050506040513d6000823e601f3d908101601f19168201604052610f049190810190615ded565b60005492955090935091506001600160a01b03808516911614610f2c57610f2c838383612139565b5050505b565b336001600160a01b03891614610f9c5760405162461bcd60e51b815260206004820152602960248201527f6f6e6c7920467573652061646d696e206d617920696e697469616c697a6520746044820152681a19481b585c9ad95d60ba1b6064820152608401610d4c565b600c54158015610fac5750600d54155b6110045760405162461bcd60e51b815260206004820152602360248201527f6d61726b6574206d6179206f6e6c7920626520696e697469616c697a6564206f6044820152626e636560e81b6064820152608401610d4c565b600180546001600160a01b0319166001600160a01b038a1617905560088690558561108a5760405162461bcd60e51b815260206004820152603060248201527f696e697469616c2065786368616e67652072617465206d75737420626520677260448201526f32b0ba32b9103a3430b7103d32b9379760811b6064820152608401610d4c565b60006110958a6122be565b905080156110e55760405162461bcd60e51b815260206004820152601a60248201527f73657474696e6720636f6d7074726f6c6c6572206661696c65640000000000006044820152606401610d4c565b43600c55670de0b6b3a7640000600d556110fe886123e9565b905080156111595760405162461bcd60e51b815260206004820152602260248201527f73657474696e6720696e7465726573742072617465206d6f64656c206661696c604482015261195960f21b6064820152608401610d4c565b855161116c9060039060208901906156a8565b5084516111809060049060208801906156a8565b506005805460ff191660ff861617905561119983612659565b905080156111e95760405162461bcd60e51b815260206004820152601d60248201527f73657474696e67207265736572766520666163746f72206661696c65640000006044820152606401610d4c565b6111f2826126f8565b905080156112425760405162461bcd60e51b815260206004820152601860248201527f73657474696e672061646d696e20666565206661696c656400000000000000006044820152606401610d4c565b50506002805460ff60b01b1916600160b01b1790555050505050505050565b60008061126d81611f3d565b600061127b33878787612812565b149150610d1181612001565b6000806112948484612ab0565b50949350505050565b6112a5612b1a565b6112e45760405162461bcd60e51b815260206004820152601060248201526f31b0b63632b9103737ba1030b236b4b760811b6044820152606401610d4c565b6112f060038585615728565b506112fd60048383615728565b5050505050565b600080604051806020016040528061131a611ce1565b90526001600160a01b038416600090815260136020526040812054919250908190611346908490612c85565b9092509050600082600381111561135f5761135f615d8a565b146113ac5760405162461bcd60e51b815260206004820152601f60248201527f62616c616e636520636f756c64206e6f742062652063616c63756c61746564006044820152606401610d4c565b949350505050565b60006113be612cd8565b905090565b6113cb612b1a565b6114005760405162461bcd60e51b815260206004820152600660248201526510b0b236b4b760d11b6044820152606401610d4c565b611441848484848080601f01602080910402602001604051908101604052809392919081815260200183838082843760009201919091525061213992505050565b50505050565b333014806114585750611458612b1a565b61146157600080fd5b600061146f82840184615a0d565b90506001600160a01b0381166114ab5760405162461bcd60e51b81526020600482015260016024820152600360fc1b6044820152606401610d4c565b6017546001600160a01b03161580159061152f57506017546040516370a0823160e01b81523060048201526001600160a01b03909116906370a0823190602401602060405180830381865afa158015611508573d6000803e3d6000fd5b505050506040513d601f19601f8201168201806040525081019061152c9190615d3c565b15155b15611619576017546040516370a0823160e01b81523060048201526001600160a01b039091169063ba0876529082906370a0823190602401602060405180830381865afa158015611584573d6000803e3d6000fd5b505050506040513d601f19601f820116820180604052508101906115a89190615d3c565b6040516001600160e01b031960e084901b1681526004810191909152306024820181905260448201526064016020604051808303816000875af11580156115f3573d6000803e3d6000fd5b505050506040513d601f19601f820116820180604052508101906116179190615d3c565b505b601780546001600160a01b0319166001600160a01b0383811691821790925560165460405163095ea7b360e01b8152600481019290925260001960248301529091169063095ea7b3906044016020604051808303816000875af1158015611684573d6000803e3d6000fd5b505050506040513d601f19601f820116820180604052508101906116a89190615dd0565b506016546040516370a0823160e01b81523060048201526000916001600160a01b0316906370a0823190602401602060405180830381865afa1580156116f2573d6000803e3d6000fd5b505050506040513d601f19601f820116820180604052508101906117169190615d3c565b905080156114415761144181612d6b565b60008061173381611f3d565b600061173d6119d3565b905080156117695761176181601181111561175a5761175a615d8a565b603b612de4565b925050610d61565b61177284612e5d565b925050610d6a81612001565b60008061178a81611f3d565b60006117946119d3565b146117b15760405162461bcd60e51b8152600401610d4c90615da0565b600e5491506117bf81612001565b5090565b6117cb612b1a565b61182d5760405162461bcd60e51b815260206004820152602d60248201527f6f6e6c79207468652061646d696e206d6179207365742074686520636f6d702d60448201526c6c696b652064656c656761746560981b6064820152608401610d4c565b6016546040516317066a5760e21b81526001600160a01b03838116600483015290911690635c19a95c90602401600060405180830381600087803b15801561187457600080fd5b505af11580156112fd573d6000803e3d6000fd5b6000610cff82612f0e565b60008061189f81611f3d565b60006118a96119d3565b905080156118cd576117618160118111156118c6576118c6615d8a565b6052612de4565b611772846126f8565b60048054610c1490615d55565b60008060006118f184612f54565b9092509050600082600381111561190a5761190a615d8a565b1461197d5760405162461bcd60e51b815260206004820152603760248201527f626f72726f7742616c616e636553746f7265643a20626f72726f7742616c616e60448201527f636553746f726564496e7465726e616c206661696c65640000000000000000006064820152608401610d4c565b9392505050565b60008061199081611f3d565b600061199a6119d3565b905080156119be576117618160118111156119b7576119b7615d8a565b6033612de4565b6117728461300d565b600080610d1183613080565b600c5460009043908114156119eb5760005b91505090565b60006119f5612cd8565b90506000600760009054906101000a90046001600160a01b03166001600160a01b03166315f2405383600e54611a3a600f54611a356010546011546130c6565b6130c6565b6040516001600160e01b031960e086901b168152600481019390935260248301919091526044820152606401602060405180830381865afa158015611a83573d6000803e3d6000fd5b505050506040513d601f19601f82011682018060405250810190611aa79190615d3c565b905065048c27395000811115611aff5760405162461bcd60e51b815260206004820152601c60248201527f626f72726f772072617465206973206162737572646c792068696768000000006044820152606401610d4c565b600080611b0e85600c546130fc565b90925090506000826003811115611b2757611b27615d8a565b14611b745760405162461bcd60e51b815260206004820152601f60248201527f636f756c64206e6f742063616c63756c61746520626c6f636b2064656c7461006044820152606401610d4c565b611b8085858584613127565b9550505050505090565b600080611b9681611f3d565b6000611ba06119d3565b90508015611bc457611761816011811115611bbd57611bbd615d8a565b6037612de4565b61177284613253565b600080611bd981611f3d565b6000611be733338787612812565b149150611bf381612001565b5092915050565b6007546000906001600160a01b031663b8168816611c16612cd8565b600e54611c2d600f54611a356010546011546130c6565b600954600a54600b54611c409190615ea3565b611c4a9190615ea3565b6040516001600160e01b031960e087901b16815260048101949094526024840192909252604483015260648201526084015b602060405180830381865afa158015611c99573d6000803e3d6000fd5b505050506040513d601f19601f820116820180604052508101906113be9190615d3c565b60006001611cca81611f3d565b611cd633868686613331565b9150610d1181612001565b600080611ced81611f3d565b6000611cf76119d3565b14611d145760405162461bcd60e51b8152600401610d4c90615da0565b611d1c610d70565b91506117bf81612001565b6001600160a01b038116600090815260136020526040812054819081908190818080611d5289612f54565b935090506000816003811115611d6a57611d6a615d8a565b14611d885760095b6000806000975097509750975050505050611dc1565b611d9061206c565b925090506000816003811115611da857611da8615d8a565b14611db4576009611d72565b5060009650919450925090505b9193509193565b6000610cff8261382e565b6000610cff82613872565b600080611de96119d3565b90508015611e0d5761197d816011811115611e0657611e06615d8a565b604b612de4565b61197d836123e9565b600080611e248585856138b1565b5095945050505050565b6007546000906001600160a01b03166315f24053611e4a612cd8565b600e54611e61600f54611a356010546011546130c6565b6040516001600160e01b031960e086901b168152600481019390935260248301919091526044820152606401611c7c565b600080611e9e81611f3d565b6000611ea86119d3565b90508015611ecc57611761816011811115611ec557611ec5615d8a565b6059612de4565b61177284612659565b6000806000611ee381611f3d565b6000611eed6119d3565b90508015611f1d57611f11816011811115611f0a57611f0a615d8a565b6041612de4565b60009350935050611f2e565b611f283333876139a5565b93509350505b611f3781612001565b50915091565b600254600160b01b900460ff16611f835760405162461bcd60e51b815260206004820152600a6024820152691c994b595b9d195c995960b21b6044820152606401610d4c565b80611ff157600660009054906101000a90046001600160a01b03166001600160a01b031663c90c20b16040518163ffffffff1660e01b8152600401600060405180830381600087803b158015611fd857600080fd5b505af1158015611fec573d6000803e3d6000fd5b505050505b506002805460ff60b01b19169055565b6002805460ff60b01b1916600160b01b1790558061206957600660009054906101000a90046001600160a01b03166001600160a01b031663632e51426040518163ffffffff1660e01b8152600401600060405180830381600087803b15801561187457600080fd5b50565b601254600090819080612086575050600854600092909150565b6000612090612cd8565b905060006120aa6040518060200160405280600081525090565b60006120cc84600e546120c7600f54611a356010546011546130c6565b613dbf565b9350905060008160038111156120e4576120e4615d8a565b146120f6579660009650945050505050565b6121008386613e11565b92509050600081600381111561211857612118615d8a565b1461212a579660009650945050505050565b50516000969095509350505050565b6001546000546040516338e6a07360e11b81526001600160a01b039182166004820152858216602482015284151560448201529116906371cd40e690606401602060405180830381865afa158015612195573d6000803e3d6000fd5b505050506040513d601f19601f820116820180604052508101906121b99190615dd0565b6121ed5760405162461bcd60e51b8152602060048201526005602482015264085a5b5c1b60da1b6044820152606401610d4c565b600080546001600160a01b038581166001600160a01b03198316179092556040519116906122709030906122259085906024016159b5565b60408051601f19818403018152918152602080830180516001600160e01b0316630adccee560e31b17905281518083019092526007825266216265636f6d6560c81b90820152613edc565b50600054604080516001600160a01b03808516825290921660208301527fd604de94d45953f9138079ec1b82d533cb2160c906d1076d1f7ed54befbca97a910160405180910390a150505050565b600080600660009054906101000a90046001600160a01b03169050826001600160a01b0316627e3dd26040518163ffffffff1660e01b8152600401602060405180830381865afa158015612316573d6000803e3d6000fd5b505050506040513d601f19601f8201168201806040525081019061233a9190615dd0565b6123865760405162461bcd60e51b815260206004820152601c60248201527f6d61726b6572206d6574686f642072657475726e65642066616c7365000000006044820152606401610d4c565b600680546001600160a01b0319166001600160a01b0385811691821790925560408051928416835260208301919091527f7ac369dbd14fa5ea3f473ed67cc9d598964a77501540ba6751eb0b3decf5870d91015b60405180910390a1600061197d565b6000806123f4612b1a565b6124045761197d6001604d612de4565b43600c54146124195761197d600a604c612de4565b600760009054906101000a90046001600160a01b03169050826001600160a01b0316632191f92a6040518163ffffffff1660e01b8152600401602060405180830381865afa15801561246f573d6000803e3d6000fd5b505050506040513d601f19601f820116820180604052508101906124939190615dd0565b6124df5760405162461bcd60e51b815260206004820152601c60248201527f6d61726b6572206d6574686f642072657475726e65642066616c7365000000006044820152606401610d4c565b600780546001600160a01b0319166001600160a01b0385811691821790925560408051928416835260208301919091527fedffc32e068c7c95dfd4bdfd5c4d939a084d6b11c4199eac8436ed234d72f926910160405180910390a16001600160a01b038116156125cd5760408051600481526024810182526020810180516001600160e01b0316636cc1140b60e11b17905290516001600160a01b0383169161258791615ebb565b6000604051808303816000865af19150503d80600081146125c4576040519150601f19603f3d011682016040523d82523d6000602084013e6125c9565b606091505b5050505b60408051600481526024810182526020810180516001600160e01b031663742a137b60e11b17905290516001600160a01b0385169161260b91615ebb565b6000604051808303816000865af19150503d8060008114612648576040519150601f19603f3d011682016040523d82523d6000602084013e61264d565b606091505b506000915061197d9050565b6000612663612b1a565b61267357610cff6001605a612de4565b43600c541461268857610cff600a605b612de4565b670de0b6b3a76400006126a86126a0846009546130c6565b600a546130c6565b11156126ba57610cff6002605c612de4565b600b80549083905560408051828152602081018590527faaa68312e2ea9d50e16af5068410ab56e1a1fd06037b1a35664812c30f82146091016123da565b600043600c541461270f57610cff600a6054612de4565b60001982141561271f5760095491505b6000612729613f78565b9050670de0b6b3a7640000612749612743600b54866130c6565b836130c6565b111561275b5761197d60026055612de4565b82600954146127bf5761276c612b1a565b61277c5761197d60016053612de4565b600980549084905560408051828152602081018690527fcdd0b588250e1398549f79cfdb8217c186688822905d6715b0834ea1c865594a910160405180910390a1505b80600a541461280b57600a80549082905560408051828152602081018490527f92eef861b6533b7d3417f39c2ad7b460eed4e88a32fa3604f30e718b7602e7dc910160405180910390a1505b600061197d565b6006546040516317b9b84b60e31b81523060048201526001600160a01b038581166024830152848116604483015260648201849052600092839291169063bdcdc258906084016020604051808303816000875af1158015612877573d6000803e3d6000fd5b505050506040513d601f19601f8201168201806040525081019061289b9190615d3c565b905080156128b8576128b06003605d83613fc2565b9150506113ac565b836001600160a01b0316856001600160a01b031614156128de576128b06002605e612de4565b6000856001600160a01b0316876001600160a01b03161415612903575060001961292b565b506001600160a01b038086166000908152601460209081526040808320938a16835292905220545b60008060008061293b85896130fc565b9094509250600084600381111561295457612954615d8a565b14612972576129656009605e612de4565b96505050505050506113ac565b6001600160a01b038a1660009081526013602052604090205461299590896130fc565b909450915060008460038111156129ae576129ae615d8a565b146129bf576129656009605f612de4565b6001600160a01b0389166000908152601360205260409020546129e29089614064565b909450905060008460038111156129fb576129fb615d8a565b14612a0c5761296560096060612de4565b6001600160a01b03808b16600090815260136020526040808220859055918b168152208190556000198514612a64576001600160a01b03808b166000908152601460209081526040808320938f168352929052208390555b886001600160a01b03168a6001600160a01b0316600080516020615fb68339815191528a604051612a9791815260200190565b60405180910390a35060009a9950505050505050505050565b6000806000612abe81611f3d565b6000612ac86119d3565b90508015612af857612aec816011811115612ae557612ae5615d8a565b6040612de4565b60009350935050612b09565b612b033387876139a5565b93509350505b612b1281612001565b509250929050565b600654604080516303e1469160e61b815290516000926001600160a01b031691829163f851a440916004808201926020929091908290030181865afa158015612b67573d6000803e3d6000fd5b505050506040513d601f19601f82011682018060405250810190612b8b9190615ed7565b6001600160a01b0316336001600160a01b0316148015612c085750806001600160a01b0316630a755ec26040518163ffffffff1660e01b8152600401602060405180830381865afa158015612be4573d6000803e3d6000fd5b505050506040513d601f19601f82011682018060405250810190612c089190615dd0565b806119e557506001546001600160a01b0316331480156119e55750806001600160a01b0316632f1069ba6040518163ffffffff1660e01b8152600401602060405180830381865afa158015612c61573d6000803e3d6000fd5b505050506040513d601f19601f820116820180604052508101906119e59190615dd0565b600080600080612c958686614094565b90925090506000826003811115612cae57612cae615d8a565b14612cbf5750915060009050612cd1565b6000612cca82614110565b9350935050505b9250929050565b6017546040516370a0823160e01b81523060048201526000916001600160a01b031690634cdad5069082906370a0823190602401602060405180830381865afa158015612d29573d6000803e3d6000fd5b505050506040513d601f19601f82011682018060405250810190612d4d9190615d3c565b6040518263ffffffff1660e01b8152600401611c7c91815260200190565b601754604051636e553f6560e01b8152600481018390523060248201526001600160a01b0390911690636e553f65906044016020604051808303816000875af1158015612dbc573d6000803e3d6000fd5b505050506040513d601f19601f82011682018060405250810190612de09190615d3c565b5050565b60007f45b96fe442630264581b197e84bbada861235052c5a1aadfff9ea4e40a969aa0836011811115612e1957612e19615d8a565b836063811115612e2b57612e2b615d8a565b60408051928352602083019190915260009082015260600160405180910390a182601181111561197d5761197d615d8a565b600080612e68612b1a565b612e785761197d6001603c612de4565b43600c5414612e8d5761197d600a603e612de4565b82612e96612cd8565b1015612ea85761197d600e603d612de4565b600f54831115612ebe5761197d6002603f612de4565b612eca600f5484614128565b600f8190559050612edb3384614162565b7f3bad0c59cf2f06e7314077049f48a93578cd16f5ef92329f1dab1420a99c177e3384836040516123da93929190615ef4565b600080612f1a81611f3d565b6000612f246119d3565b90508015612f4857611761816011811115612f4157612f41615d8a565b602a612de4565b611772336000866141df565b6001600160a01b038116600090815260156020526040812080548291829182918291612f895750600096879650945050505050565b612f998160000154600d54614765565b90945092506000846003811115612fb257612fb2615d8a565b14612fc557509195600095509350505050565b612fd38382600101546147af565b90945091506000846003811115612fec57612fec615d8a565b14612fff57509195600095509350505050565b506000969095509350505050565b60008043600c54146130255761197d600a6035612de4565b8261302e612cd8565b10156130405761197d600e6034612de4565b6011548311156130565761197d60026036612de4565b61306260115484614128565b601181905560015490915061280b906001600160a01b031684614162565b600080600061308e81611f3d565b60006130986119d3565b905080156130bc57611f118160118111156130b5576130b5615d8a565b6020612de4565b611f2833866147da565b600061197d8383604051806040016040528060118152602001706164646974696f6e206f766572666c6f7760781b815250614b98565b60008083831161311b5760006131128486615f15565b91509150612cd1565b50600390506000612cd1565b60008061314260405180602001604052808681525084614bc9565b9050600061315282600e54614bfa565b9050600061316282600e546130c6565b905060006131836040518060200160405280600b5481525084600f54614c12565b905060006131a46040518060200160405280600a5481525085601154614c12565b905060006131c5604051806020016040528060095481525086601054614c12565b905060006131d887600d54600d54614c12565b600c8d9055600d819055600e869055600f85905560118490556010839055604080518d815260208101899052908101829052606081018790529091507f4dec04e750ca11537cabcd8a9eab06494de08da3735bc8871cd41250e190bc049060800160405180910390a160009c9b505050505050505050505050565b60008043600c541461326b5761197d600a6039612de4565b82613274612cd8565b10156132865761197d600e6038612de4565b60105483111561329c5761197d6002603a612de4565b6132a860105484614128565b90508060108190555061280b600660009054906101000a90046001600160a01b03166001600160a01b031663f851a4406040518163ffffffff1660e01b8152600401602060405180830381865afa158015613307573d6000803e3d6000fd5b505050506040513d601f19601f8201168201806040525081019061332b9190615ed7565b84614162565b60065460405163d02f735160e01b81523060048201526001600160a01b0386811660248301528581166044830152848116606483015260848201849052600092839291169063d02f73519060a4016020604051808303816000875af115801561339e573d6000803e3d6000fd5b505050506040513d601f19601f820116820180604052508101906133c29190615d3c565b905080156133d7576128b06003601d83613fc2565b846001600160a01b0316846001600160a01b031614156133fd576128b06006601e612de4565b613462604080516101808101909152806000815260200160008152602001600081526020016000815260200160008152602001600081526020016000815260200160008152602001600081526020016000815260200160008152602001600081525090565b6001600160a01b03851660009081526013602052604090205461348590856130fc565b602083018190528282600381111561349f5761349f615d8a565b60038111156134b0576134b0615d8a565b90525060009050815160038111156134ca576134ca615d8a565b146134fa576134f16009601c836000015160038111156134ec576134ec615d8a565b613fc2565b925050506113ac565b613519846040518060200160405280666379da05b60000815250614c33565b6080820152604080516020810190915267016345785d8a0000815261353f908590614c33565b610140820152608081015161356490613559908690614128565b826101400151614128565b606082015261357161206c565b60c083018190528282600381111561358b5761358b615d8a565b600381111561359c5761359c615d8a565b90525060009050815160038111156135b6576135b6615d8a565b146136035760405162461bcd60e51b815260206004820152601860248201527f65786368616e67652072617465206d617468206572726f7200000000000000006044820152606401610d4c565b61362360405180602001604052808360c001518152508260800151614bfa565b60a0820152604080516020810190915260c0820151815261014082015161364a9190614bfa565b610160820152600f5460a082015161366291906130c6565b60e0820152601254608082015161367c9161355991614128565b61012082015260115461016082015161369591906130c6565b6101008201526001600160a01b03861660009081526013602052604090205460608201516136c39190614064565b60408301819052828260038111156136dd576136dd615d8a565b60038111156136ee576136ee615d8a565b905250600090508151600381111561370857613708615d8a565b1461372a576134f16009601b836000015160038111156134ec576134ec615d8a565b60e0810151600f556101208101516012556101008101516011556020808201516001600160a01b0387811660008181526013855260408082209490945583860151928b1680825290849020929092556060850151925192835290929091600080516020615fb6833981519152910160405180910390a3306001600160a01b0316856001600160a01b0316600080516020615fb683398151915283608001516040516137d791815260200190565b60405180910390a360a081015160e08201516040517fa91e67c5ea634cd43a12c5a482724b03de01e85ca68702a53d0c2f45cb7c1dc592613819923092615ef4565b60405180910390a16000979650505050505050565b60008061383a81611f3d565b60006138446119d3565b905080156138685761176181601181111561386157613861615d8a565b600a612de4565b6117723385614c56565b60008061387e81611f3d565b60006138886119d3565b905080156138a557611761816011811115612f4157612f41615d8a565b611772338560006141df565b60008060006138bf81611f3d565b60006138c96119d3565b905080156138f9576138ed8160118111156138e6576138e6615d8a565b6011612de4565b60009350935050613993565b846001600160a01b031663a6afed956040518163ffffffff1660e01b81526004016020604051808303816000875af1158015613939573d6000803e3d6000fd5b505050506040513d601f19601f8201168201806040525081019061395d9190615d3c565b90508015613981576138ed81601181111561397a5761397a615d8a565b6012612de4565b61398d33888888614fea565b93509350505b61399c81612001565b50935093915050565b600654604051631200453160e11b81523060048201526001600160a01b03858116602483015284811660448301526064820184905260009283928392909116906324008a62906084016020604051808303816000875af1158015613a0d573d6000803e3d6000fd5b505050506040513d601f19601f82011682018060405250810190613a319190615d3c565b90508015613a5257613a466003604383613fc2565b60009250925050613db7565b43600c5414613a6757613a46600a6044612de4565b613ab06040805161010081019091528060008152602001600081526020016000815260200160008152602001600081526020016000815260200160008152602001600081525090565b6001600160a01b0386166000908152601560205260409020600101546060820152613ada86612f54565b6080830181905260208301826003811115613af757613af7615d8a565b6003811115613b0857613b08615d8a565b9052506000905081602001516003811115613b2557613b25615d8a565b14613b5457613b4760096042836020015160038111156134ec576134ec615d8a565b6000935093505050613db7565b600019851415613b6d5760808101516040820152613b75565b604081018590525b613b838782604001516154ab565b60e082018190526080820151613b98916130fc565b60a0830181905260208301826003811115613bb557613bb5615d8a565b6003811115613bc657613bc6615d8a565b9052506000905081602001516003811115613be357613be3615d8a565b14613c565760405162461bcd60e51b815260206004820152603a60248201527f52455041595f424f52524f575f4e45575f4143434f554e545f424f52524f575f60448201527f42414c414e43455f43414c43554c4154494f4e5f4641494c45440000000000006064820152608401610d4c565b613c66600e548260e001516130fc565b60c0830181905260208301826003811115613c8357613c83615d8a565b6003811115613c9457613c94615d8a565b9052506000905081602001516003811115613cb157613cb1615d8a565b14613d185760405162461bcd60e51b815260206004820152603160248201527f52455041595f424f52524f575f4e45575f544f54414c5f42414c414e43455f43604482015270105310d55310551253d397d19052531151607a1b6064820152608401610d4c565b60a081810180516001600160a01b03898116600081815260156020908152604091829020948555600d5460019095019490945560c0870151600e81905560e088015195518251948f16855294840192909252820193909352606081019190915260808101919091527f1a2a22cb034d26d1854bdc6666a5b91fe25efbbb5dcad3b0355478d6f5c362a1910160405180910390a160e00151600093509150505b935093915050565b600080600080613dcf8787614064565b90925090506000826003811115613de857613de8615d8a565b14613df95750915060009050613db7565b613e0381866130fc565b935093505050935093915050565b6000613e296040518060200160405280600081525090565b600080613e3e86670de0b6b3a7640000614765565b90925090506000826003811115613e5757613e57615d8a565b14613e7657506040805160208101909152600081529092509050612cd1565b600080613e8383886147af565b90925090506000826003811115613e9c57613e9c615d8a565b14613ebf5781604051806020016040528060008152509550955050505050612cd1565b604080516020810190915290815260009890975095505050505050565b6060600080856001600160a01b031685604051613ef99190615ebb565b6000604051808303816000865af19150503d8060008114613f36576040519150601f19603f3d011682016040523d82523d6000602084013e613f3b565b606091505b509150915081613f6f57805115613f555780518082602001fd5b8360405162461bcd60e51b8152600401610d4c91906159b5565b95945050505050565b6001546040805163dd86fea160e01b815290516000926001600160a01b03169163dd86fea19160048083019260209291908290030181865afa158015611c99573d6000803e3d6000fd5b60007f45b96fe442630264581b197e84bbada861235052c5a1aadfff9ea4e40a969aa0846011811115613ff757613ff7615d8a565b84606381111561400957614009615d8a565b604080519283526020830191909152810184905260600160405180910390a1600384601181111561403c5761403c615d8a565b146140585783601181111561405357614053615d8a565b6113ac565b6113ac826103e8615ea3565b600080806140728486615ea3565b905084811061408657600092509050612cd1565b600260009250925050612cd1565b60006140ac6040518060200160405280600081525090565b6000806140bd866000015186614765565b909250905060008260038111156140d6576140d6615d8a565b146140f557506040805160208101909152600081529092509050612cd1565b60408051602081019091529081526000969095509350505050565b8051600090610cff90670de0b6b3a764000090615f2c565b600061197d8383604051806040016040528060158152602001747375627472616374696f6e20756e646572666c6f7760581b815250615561565b601754604051632d182be560e21b8152600481018390526001600160a01b0384811660248301523060448301529091169063b460af94906064016020604051808303816000875af11580156141bb573d6000803e3d6000fd5b505050506040513d601f19601f82011682018060405250810190610f2c9190615d3c565b60008215806141ec575081155b6142555760405162461bcd60e51b815260206004820152603460248201527f6f6e65206f662072656465656d546f6b656e73496e206f722072656465656d416044820152736d6f756e74496e206d757374206265207a65726f60601b6064820152608401610d4c565b6142966040805160e0810190915280600081526020016000815260200160008152602001600081526020016000815260200160008152602001600081525090565b61429e61206c565b60408301819052602083018260038111156142bb576142bb615d8a565b60038111156142cc576142cc615d8a565b90525060009050816020015160038111156142e9576142e9615d8a565b146143135761430b6009602e836020015160038111156134ec576134ec615d8a565b91505061197d565b83156143ac57606081018490526040805160208101825290820151815261433a9085612c85565b608083018190526020830182600381111561435757614357615d8a565b600381111561436857614368615d8a565b905250600090508160200151600381111561438557614385615d8a565b146143a75761430b6009602c836020015160038111156134ec576134ec615d8a565b61443d565b6143c88360405180602001604052808460400151815250615590565b60608301819052602083018260038111156143e5576143e5615d8a565b60038111156143f6576143f6615d8a565b905250600090508160200151600381111561441357614413615d8a565b146144355761430b6009602d836020015160038111156134ec576134ec615d8a565b608081018390525b600654606082015160405163eabe7d9160e01b81526000926001600160a01b03169163eabe7d91916144769130918b9190600401615f4e565b6020604051808303816000875af1158015614495573d6000803e3d6000fd5b505050506040513d601f19601f820116820180604052508101906144b99190615d3c565b905080156144d7576144ce6003602b83613fc2565b9250505061197d565b43600c54146144ec576144ce600a602f612de4565b6144fc60125483606001516130fc565b60a084018190526020840182600381111561451957614519615d8a565b600381111561452a5761452a615d8a565b905250600090508260200151600381111561454757614547615d8a565b14614569576144ce60096031846020015160038111156134ec576134ec615d8a565b6001600160a01b038616600090815260136020526040902054606083015161459191906130fc565b60c08401819052602084018260038111156145ae576145ae615d8a565b60038111156145bf576145bf615d8a565b90525060009050826020015160038111156145dc576145dc615d8a565b146145fe576144ce60096030846020015160038111156134ec576134ec615d8a565b816080015161460b612cd8565b101561461d576144ce600e6032612de4565b60a082015160125560c08201516001600160a01b0387166000908152601360205260409020556080820151614653908790614162565b306001600160a01b0316866001600160a01b0316600080516020615fb6833981519152846060015160405161468a91815260200190565b60405180910390a3608082015160608301516040517fe5b754fb1abb7f01b499791d0b820ae3b6af3424ac1c59768edb53f4ec31a929926146cc928a92615ef4565b60405180910390a1600654608083015160608401516040516351dff98960e01b81523060048201526001600160a01b038a81166024830152604482019390935260648101919091529116906351dff98990608401600060405180830381600087803b15801561473a57600080fd5b505af115801561474e573d6000803e3d6000fd5b506000925061475b915050565b9695505050505050565b6000808361477857506000905080612cd1565b60006147848486615f72565b9050836147918683615f2c565b146147a457600260009250925050612cd1565b600092509050612cd1565b600080826147c35750600190506000612cd1565b60006147cf8486615f2c565b915091509250929050565b600654604051634ef4c3e160e01b8152600091829182916001600160a01b031690634ef4c3e19061481390309089908990600401615f4e565b6020604051808303816000875af1158015614832573d6000803e3d6000fd5b505050506040513d601f19601f820116820180604052508101906148569190615d3c565b905080156148775761486b6003602183613fc2565b60009250925050612cd1565b43600c541461488c5761486b600a6024612de4565b6148cd6040805160e0810190915280600081526020016000815260200160008152602001600081526020016000815260200160008152602001600081525090565b6148d561206c565b60408301819052602083018260038111156148f2576148f2615d8a565b600381111561490357614903615d8a565b905250600090508160200151600381111561492057614920615d8a565b1461494f5761494260096023836020015160038111156134ec576134ec615d8a565b6000935093505050612cd1565b61495986866154ab565b60c082018190526040805160208101825290830151815261497a9190615590565b606083018190526020830182600381111561499757614997615d8a565b60038111156149a8576149a8615d8a565b90525060009050816020015160038111156149c5576149c5615d8a565b14614a125760405162461bcd60e51b815260206004820181905260248201527f4d494e545f45584348414e47455f43414c43554c4154494f4e5f4641494c45446044820152606401610d4c565b614a2260125482606001516130c6565b60808201526001600160a01b0386166000908152601360205260409020546060820151614a4f91906130c6565b60a0820181905260808201516012556001600160a01b038716600090815260136020526040908190209190915560c0820151606083015191517f4c209b5fc8ad50758f13e2e1088ba56a560dff690a1c6fef26394f4c03821c4f92614ab8928a92909190615ef4565b60405180910390a1856001600160a01b0316306001600160a01b0316600080516020615fb68339815191528360600151604051614af791815260200190565b60405180910390a360065460c082015160608301516040516341c728b960e01b81523060048201526001600160a01b038a81166024830152604482019390935260648101919091529116906341c728b990608401600060405180830381600087803b158015614b6557600080fd5b505af1158015614b79573d6000803e3d6000fd5b5060009250614b86915050565b8160c001519350935050509250929050565b600080614ba58486615ea3565b905082858210156112945760405162461bcd60e51b8152600401610d4c91906159b5565b6040805160208101909152600081526040518060200160405280614bf18560000151856155a0565b90529392505050565b600080614c078484614bc9565b90506113ac81614110565b600080614c1f8585614bc9565b9050613f6f614c2d82614110565b846130c6565b6000670de0b6b3a7640000614c4c8484600001516155a0565b61197d9190615f2c565b60065460405163368f515360e21b815260009182916001600160a01b039091169063da3d454c90614c8f90309088908890600401615f4e565b6020604051808303816000875af1158015614cae573d6000803e3d6000fd5b505050506040513d601f19601f82011682018060405250810190614cd29190615d3c565b90508015614cef57614ce76003601083613fc2565b915050610cff565b43600c5414614d0457614ce7600a600c612de4565b6000614d0e612cd8565b905083811015614d2d57614d24600e600b612de4565b92505050610cff565b614d59604080516080810190915280600081526020016000815260200160008152602001600081525090565b614d6286612f54565b6020830181905282826003811115614d7c57614d7c615d8a565b6003811115614d8d57614d8d615d8a565b9052506000905081516003811115614da757614da7615d8a565b14614dd257614dc8600980836000015160038111156134ec576134ec615d8a565b9350505050610cff565b614de0816020015186614064565b6040830181905282826003811115614dfa57614dfa615d8a565b6003811115614e0b57614e0b615d8a565b9052506000905081516003811115614e2557614e25615d8a565b14614e4757614dc86009600e836000015160038111156134ec576134ec615d8a565b6006546040828101519051631de6c8a560e21b815230600482015260248101919091526001600160a01b039091169063779b2294906044016020604051808303816000875af1158015614e9e573d6000803e3d6000fd5b505050506040513d601f19601f82011682018060405250810190614ec29190615d3c565b92508215614ed757614dc86003601085613fc2565b614ee3600e5486614064565b6060830181905282826003811115614efd57614efd615d8a565b6003811115614f0e57614f0e615d8a565b9052506000905081516003811115614f2857614f28615d8a565b14614f4a57614dc86009600d836000015160038111156134ec576134ec615d8a565b6040808201516001600160a01b0388166000908152601560205291909120908155600d546001909101556060810151600e55614f868686614162565b60408082015160608084015183516001600160a01b038b168152602081018a9052938401929092528201527f13ed6866d4e1ee6da46f845c46d7e54120883d75c5ea9a2dacc1c4ca8984ab809060800160405180910390a160009695505050505050565b600654604051632fe3f38f60e11b81523060048201526001600160a01b03838116602483015286811660448301528581166064830152608482018590526000928392839290911690635fc7e71e9060a4016020604051808303816000875af115801561505a573d6000803e3d6000fd5b505050506040513d601f19601f8201168201806040525081019061507e9190615d3c565b9050801561509f576150936003601483613fc2565b600092509250506154a2565b43600c54146150b457615093600a6018612de4565b43846001600160a01b0316636c540baf6040518163ffffffff1660e01b8152600401602060405180830381865afa1580156150f3573d6000803e3d6000fd5b505050506040513d601f19601f820116820180604052508101906151179190615d3c565b1461512857615093600a6013612de4565b866001600160a01b0316866001600160a01b0316141561514e5761509360066019612de4565b8461515f5761509360076017612de4565b6000198514156151755761509360076016612de4565b6000806151838989896139a5565b909250905081156151b8576151aa8260118111156151a3576151a3615d8a565b601a612de4565b6000945094505050506154a2565b60065460405163c488847b60e01b815260009182916001600160a01b039091169063c488847b906151f19030908c908890600401615f4e565b6040805180830381865afa15801561520d573d6000803e3d6000fd5b505050506040513d601f19601f820116820180604052508101906152319190615f91565b909250905081156152a05760405162461bcd60e51b815260206004820152603360248201527f4c49515549444154455f434f4d5054524f4c4c45525f43414c43554c4154455f604482015272105353d5539517d4d152569157d19052531151606a1b6064820152608401610d4c565b6040516370a0823160e01b81526001600160a01b038b811660048301528291908a16906370a0823190602401602060405180830381865afa1580156152e9573d6000803e3d6000fd5b505050506040513d601f19601f8201168201806040525081019061530d9190615d3c565b101561535b5760405162461bcd60e51b815260206004820152601860248201527f4c49515549444154455f5345495a455f544f4f5f4d55434800000000000000006044820152606401610d4c565b60006001600160a01b0389163014156153815761537a308d8d85613331565b90506153f7565b60405163b2a02ff160e01b81526001600160a01b038a169063b2a02ff1906153b1908f908f908790600401615f4e565b6020604051808303816000875af11580156153d0573d6000803e3d6000fd5b505050506040513d601f19601f820116820180604052508101906153f49190615d3c565b90505b801561543c5760405162461bcd60e51b81526020600482015260146024820152731d1bdad95b881cd95a5e9d5c994819985a5b195960621b6044820152606401610d4c565b604080516001600160a01b038e811682528d811660208301528183018790528b1660608201526080810184905290517f298637f684da70674f26509b10f07ec2fbc77a335ab1e7d6215a4b2484d8bb529181900360a00190a16000975092955050505050505b94509492505050565b6016546040516323b872dd60e01b81526000916001600160a01b0316906323b872dd906154e090869030908790600401615f4e565b6020604051808303816000875af11580156154ff573d6000803e3d6000fd5b505050506040513d601f19601f820116820180604052508101906155239190615dd0565b6155585760405162461bcd60e51b8152600401610d4c906020808252600490820152631cd95b9960e21b604082015260600190565b610d6a82612d6b565b600081848411156155855760405162461bcd60e51b8152600401610d4c91906159b5565b506113ac8385615f15565b600080600080612c9586866155e2565b600061197d83836040518060400160405280601781526020017f6d756c7469706c69636174696f6e206f766572666c6f77000000000000000000815250615655565b60006155fa6040518060200160405280600081525090565b60008061560f670de0b6b3a764000087614765565b9092509050600082600381111561562857615628615d8a565b1461564757506040805160208101909152600081529092509050612cd1565b612cca818660000151613e11565b6000831580615662575082155b1561566f5750600061197d565b600061567b8486615f72565b9050836156888683615f2c565b1483906112945760405162461bcd60e51b8152600401610d4c91906159b5565b8280546156b490615d55565b90600052602060002090601f0160209004810192826156d6576000855561571c565b82601f106156ef57805160ff191683800117855561571c565b8280016001018555821561571c579182015b8281111561571c578251825591602001919060010190615701565b506117bf92915061579c565b82805461573490615d55565b90600052602060002090601f016020900481019282615756576000855561571c565b82601f1061576f5782800160ff1982351617855561571c565b8280016001018555821561571c579182015b8281111561571c578235825591602001919060010190615781565b5b808211156117bf576000815560010161579d565b6001600160a01b038116811461206957600080fd5b80356157d1816157b1565b919050565b634e487b7160e01b600052604160045260246000fd5b604051601f8201601f1916810167ffffffffffffffff81118282101715615815576158156157d6565b604052919050565b600067ffffffffffffffff821115615837576158376157d6565b50601f01601f191660200190565b600082601f83011261585657600080fd5b81356158696158648261581d565b6157ec565b81815284602083860101111561587e57600080fd5b816020850160208301376000918101602001919091529392505050565b600080600080600080600080610100898b0312156158b857600080fd5b88356158c3816157b1565b975060208901356158d3816157b1565b965060408901356158e3816157b1565b955060608901356158f3816157b1565b9450608089013567ffffffffffffffff8082111561591057600080fd5b61591c8c838d01615845565b955060a08b013591508082111561593257600080fd5b5061593f8b828c01615845565b93505060c0890135915060e089013590509295985092959890939650565b60005b83811015615978578181015183820152602001615960565b838111156114415750506000910152565b600081518084526159a181602086016020860161595d565b601f01601f19169290920160200192915050565b60208152600061197d6020830184615989565b600080604083850312156159db57600080fd5b82356159e6816157b1565b946020939093013593505050565b600060208284031215615a0657600080fd5b5035919050565b600060208284031215615a1f57600080fd5b813561197d816157b1565b60ff8116811461206957600080fd5b80356157d181615a2a565b60008060008060008060008060006101208a8c031215615a6357600080fd5b8935615a6e816157b1565b985060208a0135615a7e816157b1565b9750615a8c60408b016157c6565b965060608a0135955060808a013567ffffffffffffffff80821115615ab057600080fd5b615abc8d838e01615845565b965060a08c0135915080821115615ad257600080fd5b50615adf8c828d01615845565b945050615aee60c08b01615a39565b925060e08a013591506101008a013590509295985092959850929598565b600080600060608486031215615b2157600080fd5b8335615b2c816157b1565b92506020840135615b3c816157b1565b929592945050506040919091013590565b60008083601f840112615b5f57600080fd5b50813567ffffffffffffffff811115615b7757600080fd5b602083019150836020828501011115612cd157600080fd5b60008060008060408587031215615ba557600080fd5b843567ffffffffffffffff80821115615bbd57600080fd5b615bc988838901615b4d565b90965094506020870135915080821115615be257600080fd5b50615bef87828801615b4d565b95989497509550505050565b801515811461206957600080fd5b60008060008060608587031215615c1f57600080fd5b8435615c2a816157b1565b93506020850135615c3a81615bfb565b9250604085013567ffffffffffffffff811115615c5657600080fd5b615bef87828801615b4d565b60008060208385031215615c7557600080fd5b823567ffffffffffffffff811115615c8c57600080fd5b615c9885828601615b4d565b90969095509350505050565b60008060408385031215615cb757600080fd5b8235615cc2816157b1565b91506020830135615cd2816157b1565b809150509250929050565b600080600060608486031215615cf257600080fd5b8335615cfd816157b1565b9250602084013591506040840135615d14816157b1565b809150509250925092565b600060208284031215615d3157600080fd5b815161197d81615a2a565b600060208284031215615d4e57600080fd5b5051919050565b600181811c90821680615d6957607f821691505b60208210811415610d6a57634e487b7160e01b600052602260045260246000fd5b634e487b7160e01b600052602160045260246000fd5b6020808252601690820152751858d8dc9d59481a5b9d195c995cdd0819985a5b195960521b604082015260600190565b600060208284031215615de257600080fd5b815161197d81615bfb565b600080600060608486031215615e0257600080fd5b8351615e0d816157b1565b6020850151909350615e1e81615bfb565b604085015190925067ffffffffffffffff811115615e3b57600080fd5b8401601f81018613615e4c57600080fd5b8051615e5a6158648261581d565b818152876020838501011115615e6f57600080fd5b615e8082602083016020860161595d565b8093505050509250925092565b634e487b7160e01b600052601160045260246000fd5b60008219821115615eb657615eb6615e8d565b500190565b60008251615ecd81846020870161595d565b9190910192915050565b600060208284031215615ee957600080fd5b815161197d816157b1565b6001600160a01b039390931683526020830191909152604082015260600190565b600082821015615f2757615f27615e8d565b500390565b600082615f4957634e487b7160e01b600052601260045260246000fd5b500490565b6001600160a01b039384168152919092166020820152604081019190915260600190565b6000816000190483118215151615615f8c57615f8c615e8d565b500290565b60008060408385031215615fa457600080fd5b50508051602090910151909290915056feddf252ad1be2c89b69c2b068fc378daa952ba7f163c4a11628f55a4df523b3efa264697066735822122072fb2c078301e226d68333423f290e364213da45640b63cf6b9914fe05120dd864736f6c634300080a0033",
    "linkReferences": {}
  },
  "methodIdentifiers": {
    "PRECISION()": "aaf5eb68",
    "_becomeImplementation(bytes)": "56e67728",
    "_delegateCompLikeTo(address)": "7f1e06be",
    "_prepare()": "1db78944",
    "_reduceReserves(uint256)": "601a0bf1",
    "_setAdminFee(uint256)": "91dd36c6",
    "_setImplementationSafe(address,bool,bytes)": "50d85b73",
    "_setInterestRateModel(address)": "f2b3abbd",
    "_setNameAndSymbol(string,string)": "34154d4c",
    "_setReserveFactor(uint256)": "fca7820b",
    "_withdrawAdminFees(uint256)": "a7b820df",
    "_withdrawFuseFees(uint256)": "a03dce8d",
    "accrualBlockNumber()": "6c540baf",
    "accrueInterest()": "a6afed95",
    "adminFeeMantissa()": "8d02d9a1",
    "allowance(address,address)": "dd62ed3e",
    "approve(address,uint256)": "095ea7b3",
    "balanceOf(address)": "70a08231",
    "balanceOfUnderlying(address)": "3af9e669",
    "borrow(uint256)": "c5ebeaec",
    "borrowBalanceCurrent(address)": "17bfdfbc",
    "borrowBalanceStored(address)": "95dd9193",
    "borrowIndex()": "aa5af0fd",
    "borrowRatePerBlock()": "f8f9da28",
    "comptroller()": "5fe3b567",
    "decimals()": "313ce567",
    "exchangeRateCurrent()": "bd6d894d",
    "exchangeRateStored()": "182df0f5",
    "feeSeizeShareMantissa()": "be99f119",
    "fuseAdmin()": "15761d51",
    "fuseFeeMantissa()": "dbfe7c19",
    "getAccountSnapshot(address)": "c37f68e2",
    "getCash()": "3b1d21a2",
    "implementation()": "5c60da1b",
    "initialize(address,address,address,address,string,string,uint256,uint256)": "06db3ecd",
    "initialize(address,address,address,uint256,string,string,uint8,uint256,uint256)": "219ef65c",
    "interestRateModel()": "f3fdb15a",
    "isCEther()": "ac784ddc",
    "isCToken()": "fe9c44ae",
    "liquidateBorrow(address,uint256,address)": "f5e3c462",
    "mint(uint256)": "a0712d68",
    "name()": "06fdde03",
    "plugin()": "ef01df4f",
    "protocolSeizeShareMantissa()": "6752e702",
    "redeem(uint256)": "db006a75",
    "redeemUnderlying(uint256)": "852a12e3",
    "repayBorrow(uint256)": "0e752702",
    "repayBorrowBehalf(address,uint256)": "2608f818",
    "reserveFactorMantissa()": "173b9904",
    "seize(address,address,uint256)": "b2a02ff1",
    "supplyRatePerBlock()": "ae9d70b0",
    "symbol()": "95d89b41",
    "totalAdminFees()": "61feacff",
    "totalBorrows()": "47bd3718",
    "totalBorrowsCurrent()": "73acee98",
    "totalFuseFees()": "dc028ab1",
    "totalReserves()": "8f840ddd",
    "totalSupply()": "18160ddd",
    "transfer(address,uint256)": "a9059cbb",
    "transferFrom(address,address,uint256)": "23b872dd",
    "underlying()": "6f307dc3"
  },
  "id": 11
}