{
  "abi": [
    {
      "inputs": [],
      "name": "IMBTC",
      "outputs": [
        {
          "internalType": "contract ISavingsContractV2",
          "name": "",
          "type": "address"
        }
      ],
      "stateMutability": "view",
      "type": "function"
    },
    {
      "inputs": [],
      "name": "IMUSD",
      "outputs": [
        {
          "internalType": "contract ISavingsContractV2",
          "name": "",
          "type": "address"
        }
      ],
      "stateMutability": "view",
      "type": "function"
    },
    {
      "inputs": [],
      "name": "MBTC",
      "outputs": [
        {
          "internalType": "contract IMasset",
          "name": "",
          "type": "address"
        }
      ],
      "stateMutability": "view",
      "type": "function"
    },
    {
      "inputs": [],
      "name": "MUSD",
      "outputs": [
        {
          "internalType": "contract IMasset",
          "name": "",
          "type": "address"
        }
      ],
      "stateMutability": "view",
      "type": "function"
    },
    {
      "inputs": [
        {
          "internalType": "contract IERC20Upgradeable",
          "name": "inputToken",
          "type": "address"
        },
        {
          "internalType": "uint256",
          "name": "inputAmount",
          "type": "uint256"
        },
        {
          "internalType": "bytes",
          "name": "strategyData",
          "type": "bytes"
        }
      ],
      "name": "redeem",
      "outputs": [
        {
          "internalType": "contract IERC20Upgradeable",
          "name": "outputToken",
          "type": "address"
        },
        {
          "internalType": "uint256",
          "name": "outputAmount",
          "type": "uint256"
        }
      ],
      "stateMutability": "nonpayable",
      "type": "function"
    }
  ],
  "bytecode": {
    "object": "0x608060405234801561001057600080fd5b5061075b806100206000396000f3fe608060405234801561001057600080fd5b50600436106100575760003560e01c806310badf4e1461005c57806343a82621146100935780635685c387146100c6578063cb5690e5146100e1578063f35d2ab6146100fc575b600080fd5b61006f61006a3660046105b0565b610117565b604080516001600160a01b0390931683526020830191909152015b60405180910390f35b6100ae73e2f2a5c287993345a840db3b0845fbc70f5935a581565b6040516001600160a01b03909116815260200161008a565b6100ae7317d8cbb6bce8cee970a4027d1198f6700a7a6c2481565b6100ae73945facb997494cc2570096c74b5f66a3507330a181565b6100ae7330647a72dc82d7fbb1123ea74716ab8a317eac1981565b60008060008351111561013b5782806020019051810190610138919061067d565b91505b6001600160a01b03851673e2f2a5c287993345a840db3b0845fbc70f5935a5141561020e576001600160a01b0382166101865773a0b86991c6218b36c1d19d4a2e9eb0ce3606eb4891505b6040516321de7d5b60e11b815273e2f2a5c287993345a840db3b0845fbc70f5935a5906343bcfab6906101c4908590889060019030906004016106a1565b6020604051808303816000875af11580156101e3573d6000803e3d6000fd5b505050506040513d601f19601f8201168201806040525081019061020791906106cc565b905061057a565b6001600160a01b0385167330647a72dc82d7fbb1123ea74716ab8a317eac1914156103865760405163c9f18ebd60e01b8152600481018590526000907330647a72dc82d7fbb1123ea74716ab8a317eac199063c9f18ebd906024016020604051808303816000875af1158015610288573d6000803e3d6000fd5b505050506040513d601f19601f820116820180604052508101906102ac91906106cc565b9050600081116102d75760405162461bcd60e51b81526004016102ce906106e5565b60405180910390fd5b6001600160a01b0383166102fd5773a0b86991c6218b36c1d19d4a2e9eb0ce3606eb4892505b6040516321de7d5b60e11b815273e2f2a5c287993345a840db3b0845fbc70f5935a5906343bcfab69061033b908690859060019030906004016106a1565b6020604051808303816000875af115801561035a573d6000803e3d6000fd5b505050506040513d601f19601f8201168201806040525081019061037e91906106cc565b91505061057a565b6001600160a01b03851673945facb997494cc2570096c74b5f66a3507330a1141561040f576001600160a01b0382166103d157732260fac5e5542a773aa44fbcfedf7c193bc2c59991505b6040516321de7d5b60e11b815273945facb997494cc2570096c74b5f66a3507330a1906343bcfab6906101c4908590889060019030906004016106a1565b6001600160a01b0385167317d8cbb6bce8cee970a4027d1198f6700a7a6c24141561057a5760405163c9f18ebd60e01b8152600481018590526000907317d8cbb6bce8cee970a4027d1198f6700a7a6c249063c9f18ebd906024016020604051808303816000875af1158015610489573d6000803e3d6000fd5b505050506040513d601f19601f820116820180604052508101906104ad91906106cc565b9050600081116104cf5760405162461bcd60e51b81526004016102ce906106e5565b6001600160a01b0383166104f557732260fac5e5542a773aa44fbcfedf7c193bc2c59992505b6040516321de7d5b60e11b815273945facb997494cc2570096c74b5f66a3507330a1906343bcfab690610533908690859060019030906004016106a1565b6020604051808303816000875af1158015610552573d6000803e3d6000fd5b505050506040513d601f19601f8201168201806040525081019061057691906106cc565b9150505b935093915050565b6001600160a01b038116811461059757600080fd5b50565b634e487b7160e01b600052604160045260246000fd5b6000806000606084860312156105c557600080fd5b83356105d081610582565b925060208401359150604084013567ffffffffffffffff808211156105f457600080fd5b818601915086601f83011261060857600080fd5b81358181111561061a5761061a61059a565b604051601f8201601f19908116603f011681019083821181831017156106425761064261059a565b8160405282815289602084870101111561065b57600080fd5b8260208601602083013760006020848301015280955050505050509250925092565b60006020828403121561068f57600080fd5b815161069a81610582565b9392505050565b6001600160a01b03948516815260208101939093526040830191909152909116606082015260800190565b6000602082840312156106de57600080fd5b5051919050565b60208082526043908201527f4572726f722063616c6c696e672072656465656d206f6e206d537461626c652060408201527f736176696e677320636f6e74726163743a206e6f206d5553442072657475726e60608201526232b21760e91b608082015260a0019056fea164736f6c634300080a000a",
    "linkReferences": {}
  },
  "methodIdentifiers": {
    "IMBTC()": "5685c387",
    "IMUSD()": "f35d2ab6",
    "MBTC()": "cb5690e5",
    "MUSD()": "43a82621",
    "redeem(address,uint256,bytes)": "10badf4e"
  },
  "id": 144
}