{
  "abi": [
    {
      "inputs": [
        {
          "internalType": "contract MasterPriceOracle",
          "name": "_masterOracle",
          "type": "address"
        },
        {
          "internalType": "contract ChainlinkPriceOracleV2",
          "name": "_chainlinkOracleV2",
          "type": "address"
        },
        {
          "internalType": "contract IPriceOracle",
          "name": "_tertiaryOracle",
          "type": "address"
        },
        {
          "internalType": "address",
          "name": "_wtoken",
          "type": "address"
        }
      ],
      "stateMutability": "nonpayable",
      "type": "constructor"
    },
    {
      "inputs": [],
      "name": "chainlinkOracleV2",
      "outputs": [
        {
          "internalType": "contract ChainlinkPriceOracleV2",
          "name": "",
          "type": "address"
        }
      ],
      "stateMutability": "view",
      "type": "function"
    },
    {
      "inputs": [
        {
          "internalType": "contract ICToken",
          "name": "cToken",
          "type": "address"
        }
      ],
      "name": "getUnderlyingPrice",
      "outputs": [
        {
          "internalType": "uint256",
          "name": "",
          "type": "uint256"
        }
      ],
      "stateMutability": "view",
      "type": "function"
    },
    {
      "inputs": [],
      "name": "masterOracle",
      "outputs": [
        {
          "internalType": "contract MasterPriceOracle",
          "name": "",
          "type": "address"
        }
      ],
      "stateMutability": "view",
      "type": "function"
    },
    {
      "inputs": [
        {
          "internalType": "address",
          "name": "underlying",
          "type": "address"
        }
      ],
      "name": "price",
      "outputs": [
        {
          "internalType": "uint256",
          "name": "",
          "type": "uint256"
        }
      ],
      "stateMutability": "view",
      "type": "function"
    },
    {
      "inputs": [],
      "name": "tertiaryOracle",
      "outputs": [
        {
          "internalType": "contract IPriceOracle",
          "name": "",
          "type": "address"
        }
      ],
      "stateMutability": "view",
      "type": "function"
    },
    {
      "inputs": [],
      "name": "wtoken",
      "outputs": [
        {
          "internalType": "address",
          "name": "",
          "type": "address"
        }
      ],
      "stateMutability": "view",
      "type": "function"
    }
  ],
  "bytecode": {
    "object": "0x608060405234801561001057600080fd5b506040516108aa3803806108aa83398101604081905261002f916101a1565b6001600160a01b03841661008a5760405162461bcd60e51b815260206004820152601a60248201527f4d617374657250726963654f7261636c65206e6f74207365742e00000000000060448201526064015b60405180910390fd5b6001600160a01b0383166100e05760405162461bcd60e51b815260206004820152601f60248201527f436861696e6c696e6b50726963654f7261636c655632206e6f74207365742e006044820152606401610081565b6001600160a01b0382166101365760405162461bcd60e51b815260206004820152601e60248201527f5465727469617279207072696365206f7261636c65206e6f74207365742e00006044820152606401610081565b600080546001600160a01b039586166001600160a01b0319918216179091556001805494861694821694909417909355600280549285169284169290921790915560038054919093169116179055610200565b6001600160a01b038116811461019e57600080fd5b50565b600080600080608085870312156101b757600080fd5b84516101c281610189565b60208601519094506101d381610189565b60408601519093506101e481610189565b60608601519092506101f581610189565b939692955090935050565b61069b8061020f6000396000f3fe608060405234801561001057600080fd5b50600436106100625760003560e01c80639c0591c814610067578063aea9107814610097578063d4c480f7146100b8578063e3cb8649146100cb578063eaada382146100de578063fc57d4df146100f1575b600080fd5b60035461007a906001600160a01b031681565b6040516001600160a01b0390911681526020015b60405180910390f35b6100aa6100a53660046105f0565b610104565b60405190815260200161008e565b60025461007a906001600160a01b031681565b60015461007a906001600160a01b031681565b60005461007a906001600160a01b031681565b6100aa6100ff3660046105f0565b6102ff565b6003546000906001600160a01b038381169116141561012c5750670de0b6b3a7640000919050565b6000805460405163addd509960e01b81526001600160a01b0385811660048301529091169063addd509990602401602060405180830381865afa158015610177573d6000803e3d6000fd5b505050506040513d601f19601f8201168201806040525081019061019b919061060d565b6001600160a01b03161461021e576000546040516315d5220f60e31b81526001600160a01b0384811660048301529091169063aea91078906024015b602060405180830381865afa1580156101f4573d6000803e3d6000fd5b505050506040513d601f19601f82011682018060405250810190610218919061062a565b92915050565b600154604051634ee5a88d60e11b81526001600160a01b0384811660048301526000921690639dcb511a90602401602060405180830381865afa158015610269573d6000803e3d6000fd5b505050506040513d601f19601f8201168201806040525081019061028d919061060d565b6001600160a01b0316146102cd576001546040516315d5220f60e31b81526001600160a01b0384811660048301529091169063aea91078906024016101d7565b6002546040516315d5220f60e31b81526001600160a01b0384811660048301529091169063aea91078906024016101d7565b6000816001600160a01b031663ac784ddc6040518163ffffffff1660e01b8152600401602060405180830381865afa15801561033f573d6000803e3d6000fd5b505050506040513d601f19601f820116820180604052508101906103639190610643565b156103775750670de0b6b3a7640000919050565b6000826001600160a01b0316636f307dc36040518163ffffffff1660e01b8152600401602060405180830381865afa1580156103b7573d6000803e3d6000fd5b505050506040513d601f19601f820116820180604052508101906103db919061060d565b6003549091506001600160a01b03808316911614156104045750670de0b6b3a764000092915050565b6000805460405163addd509960e01b81526001600160a01b0384811660048301529091169063addd509990602401602060405180830381865afa15801561044f573d6000803e3d6000fd5b505050506040513d601f19601f82011682018060405250810190610473919061060d565b6001600160a01b0316146104f75760005460405163fc57d4df60e01b81526001600160a01b0385811660048301529091169063fc57d4df906024015b602060405180830381865afa1580156104cc573d6000803e3d6000fd5b505050506040513d601f19601f820116820180604052508101906104f0919061062a565b9392505050565b600154604051634ee5a88d60e11b81526001600160a01b0383811660048301526000921690639dcb511a90602401602060405180830381865afa158015610542573d6000803e3d6000fd5b505050506040513d601f19601f82011682018060405250810190610566919061060d565b6001600160a01b0316146105a65760015460405163fc57d4df60e01b81526001600160a01b0385811660048301529091169063fc57d4df906024016104af565b60025460405163fc57d4df60e01b81526001600160a01b0385811660048301529091169063fc57d4df906024016104af565b6001600160a01b03811681146105ed57600080fd5b50565b60006020828403121561060257600080fd5b81356104f0816105d8565b60006020828403121561061f57600080fd5b81516104f0816105d8565b60006020828403121561063c57600080fd5b5051919050565b60006020828403121561065557600080fd5b815180151581146104f057600080fdfea2646970667358221220e3284a35c5367701b0f82dbcc8b333e2ae48e3ba4718eb848a2ddf0b813ba9d764736f6c634300080a0033",
    "linkReferences": {}
  }
}