{
  "abi": [
    {
      "inputs": [
        {
          "internalType": "contract ICToken",
          "name": "cToken",
          "type": "address"
        }
      ],
      "name": "getUnderlyingPrice",
      "outputs": [
        {
          "internalType": "uint256",
          "name": "",
          "type": "uint256"
        }
      ],
      "stateMutability": "view",
      "type": "function"
    },
    {
      "inputs": [
        {
          "internalType": "address",
          "name": "",
          "type": "address"
        }
      ],
      "name": "poolOf",
      "outputs": [
        {
          "internalType": "address",
          "name": "",
          "type": "address"
        }
      ],
      "stateMutability": "view",
      "type": "function"
    },
    {
      "inputs": [
        {
          "internalType": "address",
          "name": "underlying",
          "type": "address"
        }
      ],
      "name": "price",
      "outputs": [
        {
          "internalType": "uint256",
          "name": "",
          "type": "uint256"
        }
      ],
      "stateMutability": "view",
      "type": "function"
    },
    {
      "inputs": [
        {
          "internalType": "address",
          "name": "lpToken",
          "type": "address"
        }
      ],
      "name": "registerPool",
      "outputs": [],
      "stateMutability": "nonpayable",
      "type": "function"
    },
    {
      "inputs": [],
      "name": "registry",
      "outputs": [
        {
          "internalType": "contract ICurveRegistry",
          "name": "",
          "type": "address"
        }
      ],
      "stateMutability": "view",
      "type": "function"
    },
    {
      "inputs": [
        {
          "internalType": "address",
          "name": "",
          "type": "address"
        },
        {
          "internalType": "uint256",
          "name": "",
          "type": "uint256"
        }
      ],
      "name": "underlyingTokens",
      "outputs": [
        {
          "internalType": "address",
          "name": "",
          "type": "address"
        }
      ],
      "stateMutability": "view",
      "type": "function"
    }
  ],
  "bytecode": {
    "object": "0x608060405234801561001057600080fd5b50610b36806100206000396000f3fe608060405234801561001057600080fd5b50600436106100625760003560e01c806301eadec4146100675780637b10399914610097578063988b1fa7146100b2578063abd90846146100db578063aea91078146100f0578063fc57d4df14610111575b600080fd5b61007a610075366004610842565b610124565b6040516001600160a01b0390911681526020015b60405180910390f35b61007a737d86446ddb609ed0f5f8684acf30380a356b2b4c81565b61007a6100c036600461086e565b6001602052600090815260409020546001600160a01b031681565b6100ee6100e936600461086e565b61015c565b005b6101036100fe36600461086e565b61048c565b60405190815260200161008e565b61010361011f36600461086e565b61049d565b6000602052816000526040600020818154811061014057600080fd5b6000918252602090912001546001600160a01b03169150829050565b6001600160a01b038082166000908152600160205260409020541680156101d65760405162461bcd60e51b8152602060048201526024808201527f54686973204c5020746f6b656e20697320616c726561647920726567697374656044820152633932b21760e11b60648201526084015b60405180910390fd5b60405163bdf475c360e01b81526001600160a01b0383166004820152737d86446ddb609ed0f5f8684acf30380a356b2b4c9063bdf475c390602401602060405180830381865afa15801561022e573d6000803e3d6000fd5b505050506040513d601f19601f82011682018060405250810190610252919061089b565b90506001600160a01b0381166102de5760405162461bcd60e51b8152602060048201526044602482018190527f4e6f20636f72726573706f6e64696e6720706f6f6c20666f756e6420666f7220908201527f74686973204c5020746f6b656e20696e207468652043757276652072656769736064820152633a393c9760e11b608482015260a4016101cd565b6001600160a01b0382811660009081526001602052604080822080546001600160a01b03191693851693841790555163940494f160e01b8152600481019290925290737d86446ddb609ed0f5f8684acf30380a356b2b4c9063940494f190602401602060405180830381865afa15801561035c573d6000803e3d6000fd5b505050506040513d601f19601f8201168201806040525081019061038091906108b8565b604051639ac90d3d60e01b81526001600160a01b0384166004820152909150600090737d86446ddb609ed0f5f8684acf30380a356b2b4c90639ac90d3d9060240161010060405180830381865afa1580156103df573d6000803e3d6000fd5b505050506040513d601f19601f8201168201806040525081019061040391906108d1565b905060005b82811015610485576001600160a01b038516600090815260208190526040902082826008811061043a5761043a610965565b6020908102919091015182546001810184556000938452919092200180546001600160a01b0319166001600160a01b039092169190911790558061047d81610991565b915050610408565b5050505050565b6000610497826105a0565b92915050565b600080826001600160a01b0316636f307dc36040518163ffffffff1660e01b8152600401602060405180830381865afa1580156104de573d6000803e3d6000fd5b505050506040513d601f19601f82011682018060405250810190610502919061089b565b9050806001600160a01b031663313ce5676040518163ffffffff1660e01b8152600401602060405180830381865afa158015610542573d6000803e3d6000fd5b505050506040513d601f19601f8201168201806040525081019061056691906109ac565b6105749060ff16600a610ab3565b61057d826105a0565b61058f90670de0b6b3a7640000610abf565b6105999190610ade565b9392505050565b6001600160a01b038082166000908152600160205260408120549091168061060a5760405162461bcd60e51b815260206004820152601b60248201527f4c5020746f6b656e206973206e6f7420726567697374657265642e000000000060448201526064016101cd565b6001600160a01b0383166000908152602081815260408083208054825181850281018501909352808352919290919083018282801561067257602002820191906000526020600020905b81546001600160a01b03168152600190910190602001808311610654575b5050835193945060001993925060009150505b8181101561073d5760008482815181106106a1576106a1610965565b60209081029190910101516040516315d5220f60e31b81526001600160a01b0382166004820152909150600090339063aea9107890602401602060405180830381865afa1580156106f6573d6000803e3d6000fd5b505050506040513d601f19601f8201168201806040525081019061071a91906108b8565b905084811015610728578094505b5050808061073590610991565b915050610685565b506000198214156107a15760405162461bcd60e51b815260206004820152602860248201527f4e6f206d696e696d756d20756e6465726c79696e6720746f6b656e207072696360448201526732903337bab7321760c11b60648201526084016101cd565b670de0b6b3a7640000846001600160a01b031663bb7b8b806040518163ffffffff1660e01b8152600401602060405180830381865afa1580156107e8573d6000803e3d6000fd5b505050506040513d601f19601f8201168201806040525081019061080c91906108b8565b6108169084610abf565b6108209190610ade565b9695505050505050565b6001600160a01b038116811461083f57600080fd5b50565b6000806040838503121561085557600080fd5b82356108608161082a565b946020939093013593505050565b60006020828403121561088057600080fd5b81356105998161082a565b80516108968161082a565b919050565b6000602082840312156108ad57600080fd5b81516105998161082a565b6000602082840312156108ca57600080fd5b5051919050565b60006101008083850312156108e557600080fd5b83601f8401126108f457600080fd5b60405181810181811067ffffffffffffffff8211171561092457634e487b7160e01b600052604160045260246000fd5b60405290830190808583111561093957600080fd5b845b8381101561095a5761094c8161088b565b82526020918201910161093b565b509095945050505050565b634e487b7160e01b600052603260045260246000fd5b634e487b7160e01b600052601160045260246000fd5b60006000198214156109a5576109a561097b565b5060010190565b6000602082840312156109be57600080fd5b815160ff8116811461059957600080fd5b600181815b80851115610a0a5781600019048211156109f0576109f061097b565b808516156109fd57918102915b93841c93908002906109d4565b509250929050565b600082610a2157506001610497565b81610a2e57506000610497565b8160018114610a445760028114610a4e57610a6a565b6001915050610497565b60ff841115610a5f57610a5f61097b565b50506001821b610497565b5060208310610133831016604e8410600b8410161715610a8d575081810a610497565b610a9783836109cf565b8060001904821115610aab57610aab61097b565b029392505050565b60006105998383610a12565b6000816000190483118215151615610ad957610ad961097b565b500290565b600082610afb57634e487b7160e01b600052601260045260246000fd5b50049056fea26469706673582212202f1e136f128285b0f0460dedf837d0a9dc6c1e288a95f5632a97a93f256157e764736f6c634300080a0033",
    "linkReferences": {}
  }
}