{
  "abi": [
    {
      "inputs": [
        {
          "internalType": "contract IERC20Mintable",
          "name": "_rewardToken",
          "type": "address"
        },
        {
          "internalType": "uint256",
          "name": "_maxMintable",
          "type": "uint256"
        }
      ],
      "stateMutability": "nonpayable",
      "type": "constructor"
    },
    {
      "anonymous": false,
      "inputs": [
        {
          "indexed": true,
          "internalType": "address",
          "name": "caller",
          "type": "address"
        },
        {
          "indexed": true,
          "internalType": "address",
          "name": "claimer",
          "type": "address"
        },
        {
          "indexed": true,
          "internalType": "address",
          "name": "receiver",
          "type": "address"
        },
        {
          "indexed": false,
          "internalType": "uint256",
          "name": "amount",
          "type": "uint256"
        }
      ],
      "name": "ClaimedReward",
      "type": "event"
    },
    {
      "anonymous": false,
      "inputs": [
        {
          "indexed": true,
          "internalType": "address",
          "name": "user",
          "type": "address"
        },
        {
          "indexed": true,
          "internalType": "address",
          "name": "token",
          "type": "address"
        },
        {
          "indexed": false,
          "internalType": "uint256",
          "name": "amount",
          "type": "uint256"
        }
      ],
      "name": "Deposit",
      "type": "event"
    },
    {
      "anonymous": false,
      "inputs": [
        {
          "indexed": true,
          "internalType": "address",
          "name": "token",
          "type": "address"
        },
        {
          "indexed": true,
          "internalType": "address",
          "name": "user",
          "type": "address"
        },
        {
          "indexed": false,
          "internalType": "uint256",
          "name": "amount",
          "type": "uint256"
        }
      ],
      "name": "EmergencyWithdraw",
      "type": "event"
    },
    {
      "anonymous": false,
      "inputs": [
        {
          "indexed": false,
          "internalType": "address",
          "name": "pool",
          "type": "address"
        }
      ],
      "name": "FeeClaimRevert",
      "type": "event"
    },
    {
      "anonymous": false,
      "inputs": [
        {
          "indexed": false,
          "internalType": "address",
          "name": "pool",
          "type": "address"
        }
      ],
      "name": "FeeClaimSuccess",
      "type": "event"
    },
    {
      "anonymous": false,
      "inputs": [
        {
          "indexed": true,
          "internalType": "address",
          "name": "user",
          "type": "address"
        },
        {
          "indexed": true,
          "internalType": "address",
          "name": "token",
          "type": "address"
        },
        {
          "indexed": false,
          "internalType": "uint256",
          "name": "amount",
          "type": "uint256"
        }
      ],
      "name": "Withdraw",
      "type": "event"
    },
    {
      "inputs": [
        {
          "internalType": "address",
          "name": "_token",
          "type": "address"
        }
      ],
      "name": "addPool",
      "outputs": [
        {
          "internalType": "bool",
          "name": "",
          "type": "bool"
        }
      ],
      "stateMutability": "nonpayable",
      "type": "function"
    },
    {
      "inputs": [
        {
          "internalType": "address",
          "name": "",
          "type": "address"
        }
      ],
      "name": "blockThirdPartyActions",
      "outputs": [
        {
          "internalType": "bool",
          "name": "",
          "type": "bool"
        }
      ],
      "stateMutability": "view",
      "type": "function"
    },
    {
      "inputs": [
        {
          "internalType": "address",
          "name": "_user",
          "type": "address"
        },
        {
          "internalType": "address[]",
          "name": "_tokens",
          "type": "address[]"
        }
      ],
      "name": "claim",
      "outputs": [
        {
          "internalType": "uint256",
          "name": "",
          "type": "uint256"
        }
      ],
      "stateMutability": "nonpayable",
      "type": "function"
    },
    {
      "inputs": [
        {
          "internalType": "address",
          "name": "",
          "type": "address"
        }
      ],
      "name": "claimReceiver",
      "outputs": [
        {
          "internalType": "address",
          "name": "",
          "type": "address"
        }
      ],
      "stateMutability": "view",
      "type": "function"
    },
    {
      "inputs": [
        {
          "internalType": "address",
          "name": "_user",
          "type": "address"
        },
        {
          "internalType": "address[]",
          "name": "_tokens",
          "type": "address[]"
        }
      ],
      "name": "claimableReward",
      "outputs": [
        {
          "internalType": "uint256[]",
          "name": "",
          "type": "uint256[]"
        }
      ],
      "stateMutability": "nonpayable",
      "type": "function"
    },
    {
      "inputs": [
        {
          "internalType": "address",
          "name": "_token",
          "type": "address"
        },
        {
          "internalType": "uint256",
          "name": "_amount",
          "type": "uint256"
        },
        {
          "internalType": "bool",
          "name": "_claimRewards",
          "type": "bool"
        }
      ],
      "name": "deposit",
      "outputs": [
        {
          "internalType": "uint256",
          "name": "",
          "type": "uint256"
        }
      ],
      "stateMutability": "nonpayable",
      "type": "function"
    },
    {
      "inputs": [
        {
          "internalType": "address",
          "name": "_token",
          "type": "address"
        }
      ],
      "name": "emergencyWithdraw",
      "outputs": [],
      "stateMutability": "nonpayable",
      "type": "function"
    },
    {
      "inputs": [
        {
          "internalType": "address",
          "name": "",
          "type": "address"
        }
      ],
      "name": "lastFeeClaim",
      "outputs": [
        {
          "internalType": "uint256",
          "name": "",
          "type": "uint256"
        }
      ],
      "stateMutability": "view",
      "type": "function"
    },
    {
      "inputs": [],
      "name": "maxMintableTokens",
      "outputs": [
        {
          "internalType": "uint256",
          "name": "",
          "type": "uint256"
        }
      ],
      "stateMutability": "view",
      "type": "function"
    },
    {
      "inputs": [],
      "name": "mintedTokens",
      "outputs": [
        {
          "internalType": "uint256",
          "name": "",
          "type": "uint256"
        }
      ],
      "stateMutability": "view",
      "type": "function"
    },
    {
      "inputs": [
        {
          "internalType": "address",
          "name": "",
          "type": "address"
        }
      ],
      "name": "poolInfo",
      "outputs": [
        {
          "internalType": "uint256",
          "name": "adjustedSupply",
          "type": "uint256"
        },
        {
          "internalType": "uint256",
          "name": "rewardsPerSecond",
          "type": "uint256"
        },
        {
          "internalType": "uint256",
          "name": "lastRewardTime",
          "type": "uint256"
        },
        {
          "internalType": "uint256",
          "name": "accRewardPerShare",
          "type": "uint256"
        }
      ],
      "stateMutability": "view",
      "type": "function"
    },
    {
      "inputs": [],
      "name": "poolLength",
      "outputs": [
        {
          "internalType": "uint256",
          "name": "",
          "type": "uint256"
        }
      ],
      "stateMutability": "view",
      "type": "function"
    },
    {
      "inputs": [
        {
          "internalType": "uint256",
          "name": "",
          "type": "uint256"
        }
      ],
      "name": "registeredTokens",
      "outputs": [
        {
          "internalType": "address",
          "name": "",
          "type": "address"
        }
      ],
      "stateMutability": "view",
      "type": "function"
    },
    {
      "inputs": [],
      "name": "rewardToken",
      "outputs": [
        {
          "internalType": "contract IERC20Mintable",
          "name": "",
          "type": "address"
        }
      ],
      "stateMutability": "view",
      "type": "function"
    },
    {
      "inputs": [
        {
          "internalType": "bool",
          "name": "_block",
          "type": "bool"
        }
      ],
      "name": "setBlockThirdPartyActions",
      "outputs": [],
      "stateMutability": "nonpayable",
      "type": "function"
    },
    {
      "inputs": [
        {
          "internalType": "address",
          "name": "_receiver",
          "type": "address"
        }
      ],
      "name": "setClaimReceiver",
      "outputs": [],
      "stateMutability": "nonpayable",
      "type": "function"
    },
    {
      "inputs": [],
      "name": "startTime",
      "outputs": [
        {
          "internalType": "uint256",
          "name": "",
          "type": "uint256"
        }
      ],
      "stateMutability": "view",
      "type": "function"
    },
    {
      "inputs": [
        {
          "internalType": "address",
          "name": "_user",
          "type": "address"
        },
        {
          "internalType": "address[]",
          "name": "_tokens",
          "type": "address[]"
        }
      ],
      "name": "updateUserBoosts",
      "outputs": [],
      "stateMutability": "nonpayable",
      "type": "function"
    },
    {
      "inputs": [
        {
          "internalType": "address",
          "name": "",
          "type": "address"
        },
        {
          "internalType": "address",
          "name": "",
          "type": "address"
        }
      ],
      "name": "userInfo",
      "outputs": [
        {
          "internalType": "uint256",
          "name": "depositAmount",
          "type": "uint256"
        },
        {
          "internalType": "uint256",
          "name": "adjustedAmount",
          "type": "uint256"
        },
        {
          "internalType": "uint256",
          "name": "rewardDebt",
          "type": "uint256"
        },
        {
          "internalType": "uint256",
          "name": "claimable",
          "type": "uint256"
        }
      ],
      "stateMutability": "view",
      "type": "function"
    },
    {
      "inputs": [
        {
          "internalType": "address",
          "name": "_token",
          "type": "address"
        },
        {
          "internalType": "uint256",
          "name": "_amount",
          "type": "uint256"
        },
        {
          "internalType": "bool",
          "name": "_claimRewards",
          "type": "bool"
        }
      ],
      "name": "withdraw",
      "outputs": [
        {
          "internalType": "uint256",
          "name": "",
          "type": "uint256"
        }
      ],
      "stateMutability": "nonpayable",
      "type": "function"
    }
  ],
  "bytecode": {
    "object": "0x60e0604052600880546001600160c01b0319166706f05b59d3b2000017905534801561002a57600080fd5b5060405161193b38038061193b83398101604081905261004991610068565b60016000554260a0526001600160a01b0390911660c0526080526100a2565b6000806040838503121561007b57600080fd5b82516001600160a01b038116811461009257600080fd5b6020939093015192949293505050565b60805160a05160c0516118556100e6600039600081816103e10152610feb0152600061028c0152600081816101ec01528181610f330152610f6801526118556000f3fe608060405234801561001057600080fd5b506004361061012c5760003560e01c80638e2eba09116100ad578063e510563a11610071578063e510563a14610368578063e57030841461037b578063e5b53498146103a9578063ead5d359146103c9578063f7c618c1146103dc57600080fd5b80638e2eba09146102b75780639a0ba2ea146102ca5780639a7b5f11146102f5578063d914cd4b1461032c578063e20c5a8a1461033f57600080fd5b806360d91553116100f457806360d91553146102215780636795616c146102415780636ff1c9bc1461027457806378e97925146102875780638d75fe05146102ae57600080fd5b8063081e3eda146101315780630b5d979d146101485780630f208beb146101875780631a848e01146101e75780633edd11281461020e575b600080fd5b6002545b6040519081526020015b60405180910390f35b6101856101563660046114e7565b33600090815260056020526040902080546001600160a01b0319166001600160a01b0392909216919091179055565b005b6101c7610195366004611504565b600460209081526000928352604080842090915290825290208054600182015460028301546003909301549192909184565b60408051948552602085019390935291830152606082015260800161013f565b6101357f000000000000000000000000000000000000000000000000000000000000000081565b61013561021c36600461154b565b610403565b61013561022f3660046114e7565b60076020526000908152604090205481565b61026461024f3660046114e7565b60066020526000908152604090205460ff1681565b604051901515815260200161013f565b6101856102823660046114e7565b6105c2565b6101357f000000000000000000000000000000000000000000000000000000000000000081565b61013560015481565b6101356102c536600461158d565b6106c4565b6102dd6102d8366004611615565b6109d0565b6040516001600160a01b03909116815260200161013f565b6101c76103033660046114e7565b600360208190526000918252604090912080546001820154600283015492909301549092919084565b61026461033a3660046114e7565b6109fa565b6102dd61034d3660046114e7565b6005602052600090815260409020546001600160a01b031681565b61018561037636600461158d565b610a83565b61018561038936600461162e565b336000908152600660205260409020805460ff1916911515919091179055565b6103bc6103b736600461158d565b610b7b565b60405161013f919061164b565b6101356103d736600461154b565b610cc9565b6102dd7f000000000000000000000000000000000000000000000000000000000000000081565b6000600260005414156104315760405162461bcd60e51b81526004016104289061168f565b60405180910390fd5b6002600055826104795760405162461bcd60e51b815260206004820152601360248201527243616e6e6f74206465706f736974207a65726f60681b6044820152606401610428565b600061048485610eb8565b6001600160a01b038616600090815260046020908152604080832033845290915281206001810154929350911561053c578160020154670de0b6b3a76400008484600101546104d391906116dc565b6104dd91906116fb565b6104e7919061171d565b905084156105185760038201546104fe9082611734565b6000600384015590506105113382610f2b565b905061053c565b801561053c57808260030160008282546105329190611734565b9091555060009150505b6105516001600160a01b0388163330896110a8565b8154600090610561908890611734565b808455905061057233898387611113565b6040518781526001600160a01b0389169033907f5548c837ab068cf56a2c2479df0882a4922fd203edb7517321831d95078c5f629060200160405180910390a35060016000559695505050505050565b600260005414156105e55760405162461bcd60e51b81526004016104289061168f565b600260009081556001600160a01b038216808252600460209081526040808420338552825280842060018101549385526003909252832080549193909161062d90849061171d565b909155505080546001600160a01b0383166000818152600460209081526040808320338085529252822082815560018101839055600281018390556003019190915561067a9190836111b1565b60405181815233906001600160a01b038516907ff24ef89f38eadc1bde50701ad6e4d6d11a2dc24f7cf834a486991f38833285049060200160405180910390a35050600160005550565b6000336001600160a01b0385161461074e576001600160a01b03841660009081526006602052604090205460ff161561074e5760405162461bcd60e51b815260206004820152602660248201527f43616e6e6f7420636c61696d206f6e20626568616c66206f662074686973206160448201526518d8dbdd5b9d60d21b6064820152608401610428565b6000805b838110156109ba57600085858381811061076e5761076e61174c565b905060200201602081019061078391906114e7565b9050600061079082610eb8565b6001600160a01b038084166000908152600460209081526040808320938d168352929052908120600181015492935091670de0b6b3a7640000906107d59085906116dc565b6107df91906116fb565b905081600201548183600301546107f69190611734565b610800919061171d565b61080a9087611734565b600060038401558254909650610824908b90869086611113565b6001600160a01b038416600090815260076020526040902054429061084c9062015180611734565b10156109a3576000846001600160a01b031663075461726040518163ffffffff1660e01b8152600401602060405180830381865afa158015610892573d6000803e3d6000fd5b505050506040513d601f19601f820116820180604052508101906108b69190611762565b9050806001600160a01b03166330c540856040518163ffffffff1660e01b8152600401600060405180830381600087803b1580156108f357600080fd5b505af1925050508015610904575060015b610949576040516001600160a01b03821681527f82a9d8e92b39d35870f6192b03f1a9abd94c469cdee5341bbb66bf84e00028a19060200160405180910390a1610986565b6040516001600160a01b03821681527f0a9a4ea520d59873f6c7d398e2030a6dff11002664af13a2adfc0fcad5a44c529060200160405180910390a15b506001600160a01b03841660009081526007602052604090204290555b5050505080806109b29061177f565b915050610752565b506109c58582610f2b565b9150505b9392505050565b600281815481106109e057600080fd5b6000918252602090912001546001600160a01b0316905081565b6001600160a01b03811660009081526003602052604081206002015415610a2057600080fd5b5060028054600181810183557f405787fa12a823e0f2b7631cc41b3ba8828b3321ca811111fa75cd3aa3bb5ace90910180546001600160a01b039094166001600160a01b0319909416841790556000928352600360205260409092204291015590565b60005b81811015610b75576000838383818110610aa257610aa261174c565b9050602002016020810190610ab791906114e7565b90506000610ac482610eb8565b6001600160a01b038084166000908152600460209081526040808320938b1683529290522060018101549192509015610b4f5760008160020154670de0b6b3a7640000848460010154610b1791906116dc565b610b2191906116fb565b610b2b919061171d565b90508015610b4d5780826003016000828254610b479190611734565b90915550505b505b610b5f8784836000015485611113565b5050508080610b6d9061177f565b915050610a86565b50505050565b606060008267ffffffffffffffff811115610b9857610b9861179a565b604051908082528060200260200182016040528015610bc1578160200160208202803683370190505b50905060005b83811015610cc0576000858583818110610be357610be361174c565b9050602002016020810190610bf891906114e7565b6001600160a01b03808216600090815260036020908152604080832060048352818420948d168452939091528120929350909190610c35846111e6565b509050826003015481610c489190611734565b90508160020154670de0b6b3a7640000828460010154610c6891906116dc565b610c7291906116fb565b8360030154610c819190611734565b610c8b919061171d565b868681518110610c9d57610c9d61174c565b602002602001018181525050505050508080610cb89061177f565b915050610bc7565b50949350505050565b600060026000541415610cee5760405162461bcd60e51b81526004016104289061168f565b600260005582610d375760405162461bcd60e51b815260206004820152601460248201527343616e6e6f74207769746864726177207a65726f60601b6044820152606401610428565b6000610d4285610eb8565b6001600160a01b0386166000908152600460209081526040808320338452909152902080549192509085811015610db05760405162461bcd60e51b81526020600482015260126024820152711dda5d1a191c985dce881b9bdd0819dbdbd960721b6044820152606401610428565b60008260020154670de0b6b3a7640000858560010154610dd091906116dc565b610dda91906116fb565b610de4919061171d565b90508515610e15576003830154610dfb9082611734565b600060038501559050610e0e3382610f2b565b9050610e39565b8015610e395780836003016000828254610e2f9190611734565b9091555060009150505b610e43878361171d565b8084559150610e5433898487611113565b610e686001600160a01b03891633896111b1565b6040518781526001600160a01b0389169033907f9b1bfa7fa9ee420a16e124f794c35ac9f90472acc99140eb2f6447c714cad8eb9060200160405180910390a36001600055979650505050505050565b6001600160a01b03811660009081526003602052604081206002810154428110610ee757506003015492915050565b610ef0846111e6565b6001840155426002840155925082610f0d57506003015492915050565b6003820154610f1c9084611734565b60039092018290555092915050565b6001546000907f0000000000000000000000000000000000000000000000000000000000000000610f5c8483611734565b1115610f8f57610f8c817f000000000000000000000000000000000000000000000000000000000000000061171d565b92505b82156110a057610f9f8382611734565b6001556001600160a01b038085166000908152600560205260409020541680610fc55750835b6040516340c10f1960e01b81526001600160a01b038281166004830152602482018690527f000000000000000000000000000000000000000000000000000000000000000016906340c10f1990604401600060405180830381600087803b15801561102f57600080fd5b505af1158015611043573d6000803e3d6000fd5b50505050806001600160a01b0316856001600160a01b0316336001600160a01b03167faf364d6e5eafbe3b1cbf7d2afdc61e9e2411f17915d3c2eb2fa3ca17f9c767ee8760405161109691815260200190565b60405180910390a4505b509092915050565b6040516001600160a01b0380851660248301528316604482015260648101829052610b759085906323b872dd60e01b906084015b60408051601f198184030181529190526020810180516001600160e01b03166001600160e01b03199093169290921790915261127c565b6001600160a01b038084166000818152600460209081526040808320948916835293815283822060018101549383526003909152928120548593926111579161171d565b60018301869055905061116a8382611734565b6001600160a01b038716600090815260036020526040902055670de0b6b3a764000061119685856116dc565b6111a091906116fb565b826002018190555050505050505050565b6040516001600160a01b0383166024820152604481018290526111e190849063a9059cbb60e01b906064016110dc565b505050565b6001600160a01b03811660009081526003602052604081208054829190806112225750506008546000946001600160c01b039091169350915050565b60028201546001808401549450600061123b834261171d565b905061124786826116dc565b6112519083611734565b91508361126683670de0b6b3a76400006116dc565b61127091906116fb565b96505050505050915091565b60006112d1826040518060400160405280602081526020017f5361666545524332303a206c6f772d6c6576656c2063616c6c206661696c6564815250856001600160a01b031661134e9092919063ffffffff16565b8051909150156111e157808060200190518101906112ef91906117b0565b6111e15760405162461bcd60e51b815260206004820152602a60248201527f5361666545524332303a204552433230206f7065726174696f6e20646964206e6044820152691bdd081cdd58d8d9595960b21b6064820152608401610428565b606061135d8484600085611365565b949350505050565b6060824710156113c65760405162461bcd60e51b815260206004820152602660248201527f416464726573733a20696e73756666696369656e742062616c616e636520666f6044820152651c8818d85b1b60d21b6064820152608401610428565b6001600160a01b0385163b61141d5760405162461bcd60e51b815260206004820152601d60248201527f416464726573733a2063616c6c20746f206e6f6e2d636f6e74726163740000006044820152606401610428565b600080866001600160a01b0316858760405161143991906117f9565b60006040518083038185875af1925050503d8060008114611476576040519150601f19603f3d011682016040523d82523d6000602084013e61147b565b606091505b509150915061148b828286611496565b979650505050505050565b606083156114a55750816109c9565b8251156114b55782518084602001fd5b8160405162461bcd60e51b81526004016104289190611815565b6001600160a01b03811681146114e457600080fd5b50565b6000602082840312156114f957600080fd5b81356109c9816114cf565b6000806040838503121561151757600080fd5b8235611522816114cf565b91506020830135611532816114cf565b809150509250929050565b80151581146114e457600080fd5b60008060006060848603121561156057600080fd5b833561156b816114cf565b92506020840135915060408401356115828161153d565b809150509250925092565b6000806000604084860312156115a257600080fd5b83356115ad816114cf565b9250602084013567ffffffffffffffff808211156115ca57600080fd5b818601915086601f8301126115de57600080fd5b8135818111156115ed57600080fd5b8760208260051b850101111561160257600080fd5b6020830194508093505050509250925092565b60006020828403121561162757600080fd5b5035919050565b60006020828403121561164057600080fd5b81356109c98161153d565b6020808252825182820181905260009190848201906040850190845b8181101561168357835183529284019291840191600101611667565b50909695505050505050565b6020808252601f908201527f5265656e7472616e637947756172643a207265656e7472616e742063616c6c00604082015260600190565b634e487b7160e01b600052601160045260246000fd5b60008160001904831182151516156116f6576116f66116c6565b500290565b60008261171857634e487b7160e01b600052601260045260246000fd5b500490565b60008282101561172f5761172f6116c6565b500390565b60008219821115611747576117476116c6565b500190565b634e487b7160e01b600052603260045260246000fd5b60006020828403121561177457600080fd5b81516109c9816114cf565b6000600019821415611793576117936116c6565b5060010190565b634e487b7160e01b600052604160045260246000fd5b6000602082840312156117c257600080fd5b81516109c98161153d565b60005b838110156117e85781810151838201526020016117d0565b83811115610b755750506000910152565b6000825161180b8184602087016117cd565b9190910192915050565b60208152600082518060208401526118348160408501602087016117cd565b601f01601f1916919091016040019291505056fea164736f6c634300080a000a",
    "linkReferences": {}
  },
  "methodIdentifiers": {
    "addPool(address)": "d914cd4b",
    "blockThirdPartyActions(address)": "6795616c",
    "claim(address,address[])": "8e2eba09",
    "claimReceiver(address)": "e20c5a8a",
    "claimableReward(address,address[])": "e5b53498",
    "deposit(address,uint256,bool)": "3edd1128",
    "emergencyWithdraw(address)": "6ff1c9bc",
    "lastFeeClaim(address)": "60d91553",
    "maxMintableTokens()": "1a848e01",
    "mintedTokens()": "8d75fe05",
    "poolInfo(address)": "9a7b5f11",
    "poolLength()": "081e3eda",
    "registeredTokens(uint256)": "9a0ba2ea",
    "rewardToken()": "f7c618c1",
    "setBlockThirdPartyActions(bool)": "e5703084",
    "setClaimReceiver(address)": "0b5d979d",
    "startTime()": "78e97925",
    "updateUserBoosts(address,address[])": "e510563a",
    "userInfo(address,address)": "0f208beb",
    "withdraw(address,uint256,bool)": "ead5d359"
  },
  "id": 228
}