{
  "abi": [
    {
      "inputs": [
        {
          "internalType": "address",
          "name": "_baseToken",
          "type": "address"
        }
      ],
      "stateMutability": "nonpayable",
      "type": "constructor"
    },
    {
      "inputs": [],
      "name": "baseToken",
      "outputs": [
        {
          "internalType": "address",
          "name": "",
          "type": "address"
        }
      ],
      "stateMutability": "view",
      "type": "function"
    },
    {
      "inputs": [
        {
          "internalType": "contract ICToken",
          "name": "cToken",
          "type": "address"
        }
      ],
      "name": "getUnderlyingPrice",
      "outputs": [
        {
          "internalType": "uint256",
          "name": "",
          "type": "uint256"
        }
      ],
      "stateMutability": "view",
      "type": "function"
    },
    {
      "inputs": [
        {
          "internalType": "address",
          "name": "underlying",
          "type": "address"
        }
      ],
      "name": "price",
      "outputs": [
        {
          "internalType": "uint256",
          "name": "",
          "type": "uint256"
        }
      ],
      "stateMutability": "view",
      "type": "function"
    }
  ],
  "bytecode": {
    "object": "0x60a060405234801561001057600080fd5b506040516104d03803806104d083398101604081905261002f91610040565b6001600160a01b0316608052610070565b60006020828403121561005257600080fd5b81516001600160a01b038116811461006957600080fd5b9392505050565b60805161043f61009160003960008181607101526101e9015261043f6000f3fe608060405234801561001057600080fd5b50600436106100415760003560e01c8063aea9107814610046578063c55dae631461006c578063fc57d4df146100ab575b600080fd5b610059610054366004610275565b6100be565b6040519081526020015b60405180910390f35b6100937f000000000000000000000000000000000000000000000000000000000000000081565b6040516001600160a01b039091168152602001610063565b6100596100b9366004610275565b6100cf565b60006100c9826101d2565b92915050565b600080826001600160a01b0316636f307dc36040518163ffffffff1660e01b8152600401602060405180830381865afa158015610110573d6000803e3d6000fd5b505050506040513d601f19601f820116820180604052508101906101349190610292565b9050806001600160a01b031663313ce5676040518163ffffffff1660e01b8152600401602060405180830381865afa158015610174573d6000803e3d6000fd5b505050506040513d601f19601f8201168201806040525081019061019891906102af565b6101a69060ff16600a6103cc565b6101af826101d2565b6101c190670de0b6b3a76400006103d8565b6101cb91906103f7565b9392505050565b6040516315d5220f60e31b81526001600160a01b037f0000000000000000000000000000000000000000000000000000000000000000166004820152600090339063aea9107890602401602060405180830381865afa158015610239573d6000803e3d6000fd5b505050506040513d601f19601f820116820180604052508101906100c99190610419565b6001600160a01b038116811461027257600080fd5b50565b60006020828403121561028757600080fd5b81356101cb8161025d565b6000602082840312156102a457600080fd5b81516101cb8161025d565b6000602082840312156102c157600080fd5b815160ff811681146101cb57600080fd5b634e487b7160e01b600052601160045260246000fd5b600181815b80851115610323578160001904821115610309576103096102d2565b8085161561031657918102915b93841c93908002906102ed565b509250929050565b60008261033a575060016100c9565b81610347575060006100c9565b816001811461035d576002811461036757610383565b60019150506100c9565b60ff841115610378576103786102d2565b50506001821b6100c9565b5060208310610133831016604e8410600b84101617156103a6575081810a6100c9565b6103b083836102e8565b80600019048211156103c4576103c46102d2565b029392505050565b60006101cb838361032b565b60008160001904831182151516156103f2576103f26102d2565b500290565b60008261041457634e487b7160e01b600052601260045260246000fd5b500490565b60006020828403121561042b57600080fd5b505191905056fea164736f6c634300080a000a",
    "linkReferences": {}
  },
  "methodIdentifiers": {
    "baseToken()": "c55dae63",
    "getUnderlyingPrice(address)": "fc57d4df",
    "price(address)": "aea91078"
  },
  "id": 167
}