{
  "abi": [
    {
      "anonymous": false,
      "inputs": [
        {
          "indexed": true,
          "internalType": "contract CToken",
          "name": "cToken",
          "type": "address"
        },
        {
          "indexed": true,
          "internalType": "address",
          "name": "supplier",
          "type": "address"
        },
        {
          "indexed": false,
          "internalType": "uint256",
          "name": "compDelta",
          "type": "uint256"
        },
        {
          "indexed": false,
          "internalType": "uint256",
          "name": "compSupplyIndex",
          "type": "uint256"
        }
      ],
      "name": "DistributedSupplierComp",
      "type": "event"
    },
    {
      "inputs": [
        {
          "internalType": "address",
          "name": "cToken",
          "type": "address"
        }
      ],
      "name": "_addMarketForRewards",
      "outputs": [],
      "stateMutability": "nonpayable",
      "type": "function"
    },
    {
      "inputs": [],
      "name": "admin",
      "outputs": [
        {
          "internalType": "address",
          "name": "",
          "type": "address"
        }
      ],
      "stateMutability": "view",
      "type": "function"
    },
    {
      "inputs": [
        {
          "internalType": "uint256",
          "name": "",
          "type": "uint256"
        }
      ],
      "name": "allMarkets",
      "outputs": [
        {
          "internalType": "contract CToken",
          "name": "",
          "type": "address"
        }
      ],
      "stateMutability": "view",
      "type": "function"
    },
    {
      "inputs": [
        {
          "internalType": "address",
          "name": "holder",
          "type": "address"
        },
        {
          "internalType": "contract CToken[]",
          "name": "cTokens",
          "type": "address[]"
        }
      ],
      "name": "claimRewards",
      "outputs": [],
      "stateMutability": "nonpayable",
      "type": "function"
    },
    {
      "inputs": [
        {
          "internalType": "address[]",
          "name": "holders",
          "type": "address[]"
        },
        {
          "internalType": "contract CToken[]",
          "name": "cTokens",
          "type": "address[]"
        },
        {
          "internalType": "bool",
          "name": "borrowers",
          "type": "bool"
        },
        {
          "internalType": "bool",
          "name": "suppliers",
          "type": "bool"
        }
      ],
      "name": "claimRewards",
      "outputs": [],
      "stateMutability": "nonpayable",
      "type": "function"
    },
    {
      "inputs": [
        {
          "internalType": "address",
          "name": "holder",
          "type": "address"
        }
      ],
      "name": "claimRewards",
      "outputs": [],
      "stateMutability": "nonpayable",
      "type": "function"
    },
    {
      "inputs": [
        {
          "internalType": "address",
          "name": "",
          "type": "address"
        }
      ],
      "name": "compAccrued",
      "outputs": [
        {
          "internalType": "uint256",
          "name": "",
          "type": "uint256"
        }
      ],
      "stateMutability": "view",
      "type": "function"
    },
    {
      "inputs": [
        {
          "internalType": "address",
          "name": "",
          "type": "address"
        }
      ],
      "name": "compBorrowSpeeds",
      "outputs": [
        {
          "internalType": "uint256",
          "name": "",
          "type": "uint256"
        }
      ],
      "stateMutability": "view",
      "type": "function"
    },
    {
      "inputs": [
        {
          "internalType": "address",
          "name": "",
          "type": "address"
        }
      ],
      "name": "compBorrowState",
      "outputs": [
        {
          "internalType": "uint224",
          "name": "index",
          "type": "uint224"
        },
        {
          "internalType": "uint32",
          "name": "block",
          "type": "uint32"
        }
      ],
      "stateMutability": "view",
      "type": "function"
    },
    {
      "inputs": [
        {
          "internalType": "address",
          "name": "",
          "type": "address"
        },
        {
          "internalType": "address",
          "name": "",
          "type": "address"
        }
      ],
      "name": "compBorrowerIndex",
      "outputs": [
        {
          "internalType": "uint256",
          "name": "",
          "type": "uint256"
        }
      ],
      "stateMutability": "view",
      "type": "function"
    },
    {
      "inputs": [
        {
          "internalType": "address",
          "name": "",
          "type": "address"
        }
      ],
      "name": "compContributorSpeeds",
      "outputs": [
        {
          "internalType": "uint256",
          "name": "",
          "type": "uint256"
        }
      ],
      "stateMutability": "view",
      "type": "function"
    },
    {
      "inputs": [],
      "name": "compInitialIndex",
      "outputs": [
        {
          "internalType": "uint224",
          "name": "",
          "type": "uint224"
        }
      ],
      "stateMutability": "view",
      "type": "function"
    },
    {
      "inputs": [
        {
          "internalType": "address",
          "name": "",
          "type": "address"
        },
        {
          "internalType": "address",
          "name": "",
          "type": "address"
        }
      ],
      "name": "compSupplierIndex",
      "outputs": [
        {
          "internalType": "uint256",
          "name": "",
          "type": "uint256"
        }
      ],
      "stateMutability": "view",
      "type": "function"
    },
    {
      "inputs": [
        {
          "internalType": "address",
          "name": "",
          "type": "address"
        }
      ],
      "name": "compSupplySpeeds",
      "outputs": [
        {
          "internalType": "uint256",
          "name": "",
          "type": "uint256"
        }
      ],
      "stateMutability": "view",
      "type": "function"
    },
    {
      "inputs": [
        {
          "internalType": "address",
          "name": "",
          "type": "address"
        }
      ],
      "name": "compSupplyState",
      "outputs": [
        {
          "internalType": "uint224",
          "name": "index",
          "type": "uint224"
        },
        {
          "internalType": "uint32",
          "name": "block",
          "type": "uint32"
        }
      ],
      "stateMutability": "view",
      "type": "function"
    },
    {
      "inputs": [
        {
          "internalType": "address",
          "name": "cToken",
          "type": "address"
        },
        {
          "internalType": "address",
          "name": "borrower",
          "type": "address"
        }
      ],
      "name": "flywheelPreBorrowerAction",
      "outputs": [],
      "stateMutability": "nonpayable",
      "type": "function"
    },
    {
      "inputs": [
        {
          "internalType": "address",
          "name": "cToken",
          "type": "address"
        },
        {
          "internalType": "address",
          "name": "supplier",
          "type": "address"
        }
      ],
      "name": "flywheelPreSupplierAction",
      "outputs": [],
      "stateMutability": "nonpayable",
      "type": "function"
    },
    {
      "inputs": [
        {
          "internalType": "address",
          "name": "cToken",
          "type": "address"
        },
        {
          "internalType": "address",
          "name": "src",
          "type": "address"
        },
        {
          "internalType": "address",
          "name": "dst",
          "type": "address"
        }
      ],
      "name": "flywheelPreTransferAction",
      "outputs": [],
      "stateMutability": "nonpayable",
      "type": "function"
    },
    {
      "inputs": [],
      "name": "getAllMarkets",
      "outputs": [
        {
          "internalType": "contract CToken[]",
          "name": "",
          "type": "address[]"
        }
      ],
      "stateMutability": "view",
      "type": "function"
    },
    {
      "inputs": [],
      "name": "implementation",
      "outputs": [
        {
          "internalType": "address",
          "name": "",
          "type": "address"
        }
      ],
      "stateMutability": "view",
      "type": "function"
    },
    {
      "inputs": [
        {
          "internalType": "address",
          "name": "_rewardToken",
          "type": "address"
        }
      ],
      "name": "initialize",
      "outputs": [],
      "stateMutability": "nonpayable",
      "type": "function"
    },
    {
      "inputs": [],
      "name": "isRewardsDistributor",
      "outputs": [
        {
          "internalType": "bool",
          "name": "",
          "type": "bool"
        }
      ],
      "stateMutability": "view",
      "type": "function"
    },
    {
      "inputs": [
        {
          "internalType": "address",
          "name": "",
          "type": "address"
        }
      ],
      "name": "lastContributorBlock",
      "outputs": [
        {
          "internalType": "uint256",
          "name": "",
          "type": "uint256"
        }
      ],
      "stateMutability": "view",
      "type": "function"
    },
    {
      "inputs": [],
      "name": "pendingAdmin",
      "outputs": [
        {
          "internalType": "address",
          "name": "",
          "type": "address"
        }
      ],
      "stateMutability": "view",
      "type": "function"
    },
    {
      "inputs": [],
      "name": "rewardToken",
      "outputs": [
        {
          "internalType": "address",
          "name": "",
          "type": "address"
        }
      ],
      "stateMutability": "view",
      "type": "function"
    }
  ],
  "bytecode": {
    "object": "0x608060405234801561001057600080fd5b506116a7806100206000396000f3fe608060405234801561001057600080fd5b50600436106101735760003560e01c8063abc6d72d116100de578063cc7ebdc411610097578063ef5cfb8c11610071578063ef5cfb8c14610427578063f4a433c01461043a578063f7c618c11461045a578063f851a4401461046d57600080fd5b8063cc7ebdc4146103e2578063cef2717814610402578063e6e162e81461041557600080fd5b8063abc6d72d1461032c578063b0772d0b14610344578063b21be7fd14610359578063bea6b8b814610384578063c4d66de8146103a4578063ca0af043146103b757600080fd5b80635c60da1b116101305780635c60da1b146102095780636aa875b51461021c5780636b79c38d1461024a5780638c57804e146102a6578063986ab838146102de578063a7f0e231146102fe57600080fd5b80631c9161e0146101785780632026ffa31461018d57806326782247146101a05780634e081c95146101d057806352d84d1e146101e357806354eb76fa146101f6575b600080fd5b61018b610186366004611247565b610480565b005b61018b61019b36600461135f565b6104ba565b6001546101b3906001600160a01b031681565b6040516001600160a01b0390911681526020015b60405180910390f35b61018b6101de3660046113af565b610522565b6101b36101f13660046113fa565b610566565b61018b610204366004611428565b610590565b6002546101b3906001600160a01b031681565b61023c61022a36600461150b565b60056020526000908152604090205481565b6040519081526020016101c7565b61028261025836600461150b565b6007602052600090815260409020546001600160e01b03811690600160e01b900463ffffffff1682565b604080516001600160e01b03909316835263ffffffff9091166020830152016101c7565b6102826102b436600461150b565b6008602052600090815260409020546001600160e01b03811690600160e01b900463ffffffff1682565b61023c6102ec36600461150b565b600c6020526000908152604090205481565b6103146ec097ce7bc90715b34b9f100000000081565b6040516001600160e01b0390911681526020016101c7565b610334600181565b60405190151581526020016101c7565b61034c61071c565b6040516101c79190611528565b61023c610367366004611247565b600960209081526000928352604080842090915290825290205481565b61023c61039236600461150b565b600d6020526000908152604090205481565b61018b6103b236600461150b565b61077e565b61023c6103c5366004611247565b600a60209081526000928352604080842090915290825290205481565b61023c6103f036600461150b565b600b6020526000908152604090205481565b61018b61041036600461150b565b6108c1565b61018b610423366004611247565b5050565b61018b61043536600461150b565b6109bb565b61023c61044836600461150b565b60066020526000908152604090205481565b6003546101b3906001600160a01b031681565b6000546101b3906001600160a01b031681565b6001600160a01b0382166000908152600760205260409020546001600160e01b031615610423576104b082610a22565b6104238282610cbb565b6040805160018082528183019092526000916020808301908036833701905050905082816000815181106104f0576104f0611575565b60200260200101906001600160a01b031690816001600160a01b03168152505061051d8183600180610590565b505050565b6001600160a01b0383166000908152600760205260409020546001600160e01b03161561051d5761055283610a22565b61055c8383610cbb565b61051d8382610cbb565b6004818154811061057657600080fd5b6000918252602090912001546001600160a01b0316905081565b60005b83518110156106525760008482815181106105b0576105b0611575565b60200260200101519050821515600115151480156105ee57506001600160a01b0381166000908152600760205260409020546001600160e01b031615155b1561063f576105fc81610a22565b60005b865181101561063d5761062b8288838151811061061e5761061e611575565b6020026020010151610cbb565b80610635816115a1565b9150506105ff565b505b508061064a816115a1565b915050610593565b5060005b8451811015610715576106c085828151811061067457610674611575565b6020026020010151600b600088858151811061069257610692611575565b60200260200101516001600160a01b03166001600160a01b0316815260200190815260200160002054610e5f565b600b60008784815181106106d6576106d6611575565b60200260200101516001600160a01b03166001600160a01b0316815260200190815260200160002081905550808061070d906115a1565b915050610656565b5050505050565b6060600480548060200260200160405190810160405280929190818152602001828054801561077457602002820191906000526020600020905b81546001600160a01b03168152600190910190602001808311610756575b5050505050905090565b6000546001600160a01b031633146107dd5760405162461bcd60e51b815260206004820152601a60248201527f4f6e6c792061646d696e2063616e20696e697469616c697a652e00000000000060448201526064015b60405180910390fd5b6003546001600160a01b03161561082d5760405162461bcd60e51b815260206004820152601460248201527320b63932b0b23c9034b734ba34b0b634bd32b21760611b60448201526064016107d4565b6001600160a01b03811661089f5760405162461bcd60e51b815260206004820152603360248201527f43616e6e6f7420696e697469616c697a652072657761726420746f6b656e207460448201527237903a3432903d32b9379030b2323932b9b99760691b60648201526084016107d4565b600380546001600160a01b0319166001600160a01b0392909216919091179055565b6000546001600160a01b0316331461091b5760405162461bcd60e51b815260206004820152601d60248201527f6f6e6c792061646d696e2063616e2073657420636f6d7020737065656400000060448201526064016107d4565b6040805180820182526ec097ce7bc90715b34b9f10000000008152600060208083018281526001600160a01b0390951680835260079091529281209151935163ffffffff16600160e01b026001600160e01b03949094169390931790556004805460018101825592527f8a35acfbc15ff81a39ae7d344fd709f28e8600b4aa8c65c6b64bfe7fe36bd19b90910180546001600160a01b0319169091179055565b610a1f816004805480602002602001604051908101604052809291908181526020018280548015610a1557602002820191906000526020600020905b81546001600160a01b031681526001909101906020018083116109f7575b50505050506104ba565b50565b806001600160a01b0316634e71d92d6040518163ffffffff1660e01b8152600401600060405180830381600087803b158015610a5d57600080fd5b505af1158015610a71573d6000803e3d6000fd5b505050506001600160a01b0381811660008181526007602052604080822060035491516370a0823160e01b8152600481019490945293169182906370a0823190602401602060405180830381865afa158015610ad1573d6000803e3d6000fd5b505050506040513d601f19601f82011682018060405250810190610af591906115bc565b90508015610cb5576040516323b872dd60e01b81526001600160a01b038581166004830152306024830152604482018390528316906323b872dd90606401600060405180830381600087803b158015610b4d57600080fd5b505af1158015610b61573d6000803e3d6000fd5b505050506000846001600160a01b03166318160ddd6040518163ffffffff1660e01b8152600401602060405180830381865afa158015610ba5573d6000803e3d6000fd5b505050506040513d601f19601f82011682018060405250810190610bc991906115bc565b90506000808211610be95760405180602001604052806000815250610bf3565b610bf38383610f60565b604080516020810190915286546001600160e01b03168152909150600090610c1b9083610fa5565b90506040518060400160405280610c6b83600001516040518060400160405280601a81526020017f6e657720696e6465782065786365656473203232342062697473000000000000815250610fd1565b6001600160e01b039081168252600060209283018190526001600160a01b038b16815260078352604090208351939092015163ffffffff16600160e01b0292169190911790555050505b50505050565b6001600160a01b0380831660008181526007602090815260408083208151808401835281546001600160e01b0316815282518085018452958552600984528285209688168086528785529285208054875281519390955295909252909155815190929190158015610d2c5750815115155b15610d44576ec097ce7bc90715b34b9f100000000081525b6000610d508383611000565b6040516370a0823160e01b81526001600160a01b0387811660048301529192506000918816906370a0823190602401602060405180830381865afa158015610d9c573d6000803e3d6000fd5b505050506040513d601f19601f82011682018060405250810190610dc091906115bc565b90506000610dce828461102c565b6001600160a01b0388166000908152600b602052604081205491925090610df5908361105d565b6001600160a01b038981166000818152600b60209081526040918290208590558a518251888152918201529394509092918c16917f2caecd17d02f56fa897705dcc740da2d237c373f70686f4e0d9bd3bf0400ea7a910160405180910390a3505050505050505050565b6003546040516370a0823160e01b81523060048201526000916001600160a01b031690829082906370a0823190602401602060405180830381865afa158015610eac573d6000803e3d6000fd5b505050506040513d601f19601f82011682018060405250810190610ed091906115bc565b9050600084118015610ee25750808411155b15610f545760405163a9059cbb60e01b81526001600160a01b0386811660048301526024820186905283169063a9059cbb90604401600060405180830381600087803b158015610f3157600080fd5b505af1158015610f45573d6000803e3d6000fd5b50505050600092505050610f5a565b83925050505b92915050565b6040805160208101909152600081526040518060200160405280610f9c610f96866ec097ce7bc90715b34b9f1000000000611093565b856110d5565b90529392505050565b6040805160208101909152600081526040518060200160405280610f9c8560000151856000015161105d565b600081600160e01b8410610ff85760405162461bcd60e51b81526004016107d491906115d5565b509192915050565b6040805160208101909152600081526040518060200160405280610f9c85600001518560000151611108565b60006ec097ce7bc90715b34b9f100000000061104c848460000151611093565b611056919061162a565b9392505050565b60006110568383604051806040016040528060118152602001706164646974696f6e206f766572666c6f7760781b815250611142565b600061105683836040518060400160405280601781526020017f6d756c7469706c69636174696f6e206f766572666c6f7700000000000000000081525061117c565b600061105683836040518060400160405280600e81526020016d646976696465206279207a65726f60901b8152506111cf565b60006110568383604051806040016040528060158152602001747375627472616374696f6e20756e646572666c6f7760581b815250611203565b60008061114f848661164c565b905082858210156111735760405162461bcd60e51b81526004016107d491906115d5565b50949350505050565b6000831580611189575082155b1561119657506000611056565b60006111a28486611664565b9050836111af868361162a565b1483906111735760405162461bcd60e51b81526004016107d491906115d5565b600081836111f05760405162461bcd60e51b81526004016107d491906115d5565b506111fb838561162a565b949350505050565b600081848411156112275760405162461bcd60e51b81526004016107d491906115d5565b506111fb8385611683565b6001600160a01b0381168114610a1f57600080fd5b6000806040838503121561125a57600080fd5b823561126581611232565b9150602083013561127581611232565b809150509250929050565b634e487b7160e01b600052604160045260246000fd5b604051601f8201601f1916810167ffffffffffffffff811182821017156112bf576112bf611280565b604052919050565b600067ffffffffffffffff8211156112e1576112e1611280565b5060051b60200190565b600082601f8301126112fc57600080fd5b8135602061131161130c836112c7565b611296565b82815260059290921b8401810191818101908684111561133057600080fd5b8286015b8481101561135457803561134781611232565b8352918301918301611334565b509695505050505050565b6000806040838503121561137257600080fd5b823561137d81611232565b9150602083013567ffffffffffffffff81111561139957600080fd5b6113a5858286016112eb565b9150509250929050565b6000806000606084860312156113c457600080fd5b83356113cf81611232565b925060208401356113df81611232565b915060408401356113ef81611232565b809150509250925092565b60006020828403121561140c57600080fd5b5035919050565b8035801515811461142357600080fd5b919050565b6000806000806080858703121561143e57600080fd5b843567ffffffffffffffff8082111561145657600080fd5b818701915087601f83011261146a57600080fd5b8135602061147a61130c836112c7565b82815260059290921b8401810191818101908b84111561149957600080fd5b948201945b838610156114c05785356114b181611232565b8252948201949082019061149e565b985050880135925050808211156114d657600080fd5b506114e3878288016112eb565b9350506114f260408601611413565b915061150060608601611413565b905092959194509250565b60006020828403121561151d57600080fd5b813561105681611232565b6020808252825182820181905260009190848201906040850190845b818110156115695783516001600160a01b031683529284019291840191600101611544565b50909695505050505050565b634e487b7160e01b600052603260045260246000fd5b634e487b7160e01b600052601160045260246000fd5b60006000198214156115b5576115b561158b565b5060010190565b6000602082840312156115ce57600080fd5b5051919050565b600060208083528351808285015260005b81811015611602578581018301518582016040015282016115e6565b81811115611614576000604083870101525b50601f01601f1916929092016040019392505050565b60008261164757634e487b7160e01b600052601260045260246000fd5b500490565b6000821982111561165f5761165f61158b565b500190565b600081600019048311821515161561167e5761167e61158b565b500290565b6000828210156116955761169561158b565b50039056fea164736f6c634300080a000a",
    "linkReferences": {}
  },
  "methodIdentifiers": {
    "_addMarketForRewards(address)": "cef27178",
    "admin()": "f851a440",
    "allMarkets(uint256)": "52d84d1e",
    "claimRewards(address)": "ef5cfb8c",
    "claimRewards(address,address[])": "2026ffa3",
    "claimRewards(address[],address[],bool,bool)": "54eb76fa",
    "compAccrued(address)": "cc7ebdc4",
    "compBorrowSpeeds(address)": "f4a433c0",
    "compBorrowState(address)": "8c57804e",
    "compBorrowerIndex(address,address)": "ca0af043",
    "compContributorSpeeds(address)": "986ab838",
    "compInitialIndex()": "a7f0e231",
    "compSupplierIndex(address,address)": "b21be7fd",
    "compSupplySpeeds(address)": "6aa875b5",
    "compSupplyState(address)": "6b79c38d",
    "flywheelPreBorrowerAction(address,address)": "e6e162e8",
    "flywheelPreSupplierAction(address,address)": "1c9161e0",
    "flywheelPreTransferAction(address,address,address)": "4e081c95",
    "getAllMarkets()": "b0772d0b",
    "implementation()": "5c60da1b",
    "initialize(address)": "c4d66de8",
    "isRewardsDistributor()": "abc6d72d",
    "lastContributorBlock(address)": "bea6b8b8",
    "pendingAdmin()": "26782247",
    "rewardToken()": "f7c618c1"
  },
  "id": 37
}