{
  "abi": [
    {
      "inputs": [
        {
          "internalType": "contract ICToken",
          "name": "cToken",
          "type": "address"
        }
      ],
      "name": "getUnderlyingPrice",
      "outputs": [
        {
          "internalType": "uint256",
          "name": "",
          "type": "uint256"
        }
      ],
      "stateMutability": "view",
      "type": "function"
    }
  ],
  "bytecode": {
    "object": "0x608060405234801561001057600080fd5b506105f2806100206000396000f3fe608060405234801561001057600080fd5b506004361061002b5760003560e01c8063fc57d4df14610030575b600080fd5b61004361003e3660046103f6565b610055565b60405190815260200160405180910390f35b600080826001600160a01b0316636f307dc36040518163ffffffff1660e01b8152600401602060405180830381865afa158015610096573d6000803e3d6000fd5b505050506040513d601f19601f820116820180604052508101906100ba919061041a565b90506000816001600160a01b031663313ce5676040518163ffffffff1660e01b8152600401602060405180830381865afa1580156100fc573d6000803e3d6000fd5b505050506040513d601f19601f820116820180604052508101906101209190610437565b61012e9060ff16600a610556565b9050816001600160a01b031663d4b839926040518163ffffffff1660e01b8152600401602060405180830381865afa15801561016e573d6000803e3d6000fd5b505050506040513d601f19601f82011682018060405250810190610192919061041a565b91506000826001600160a01b03166304f3bcec6040518163ffffffff1660e01b8152600401602060405180830381865afa1580156101d4573d6000803e3d6000fd5b505050506040513d601f19601f820116820180604052508101906101f8919061041a565b6001600160a01b031663dacb2d016040518163ffffffff1660e01b8152600401610290906c45786368616e6765526174657360981b81526040602082018190526039908201527f4661696c656420746f206765742053796e74686574697827732045786368616e60608201527f6765526174657320636f6e747261637420616464726573732e00000000000000608082015260a00190565b602060405180830381865afa1580156102ad573d6000803e3d6000fd5b505050506040513d601f19601f820116820180604052508101906102d1919061041a565b905081816001600160a01b031663654a60ac856001600160a01b031663dbd06c856040518163ffffffff1660e01b8152600401602060405180830381865afa158015610321573d6000803e3d6000fd5b505050506040513d601f19601f820116820180604052508101906103459190610562565b856040518363ffffffff1660e01b815260040161037892919091825260208201526208aa8960eb1b604082015260600190565b602060405180830381865afa158015610395573d6000803e3d6000fd5b505050506040513d601f19601f820116820180604052508101906103b99190610562565b6103cb90670de0b6b3a764000061057b565b6103d5919061059a565b95945050505050565b6001600160a01b03811681146103f357600080fd5b50565b60006020828403121561040857600080fd5b8135610413816103de565b9392505050565b60006020828403121561042c57600080fd5b8151610413816103de565b60006020828403121561044957600080fd5b815160ff8116811461041357600080fd5b634e487b7160e01b600052601160045260246000fd5b600181815b808511156104ab5781600019048211156104915761049161045a565b8085161561049e57918102915b93841c9390800290610475565b509250929050565b6000826104c257506001610550565b816104cf57506000610550565b81600181146104e557600281146104ef5761050b565b6001915050610550565b60ff8411156105005761050061045a565b50506001821b610550565b5060208310610133831016604e8410600b841016171561052e575081810a610550565b6105388383610470565b806000190482111561054c5761054c61045a565b0290505b92915050565b600061041383836104b3565b60006020828403121561057457600080fd5b5051919050565b60008160001904831182151516156105955761059561045a565b500290565b6000826105b757634e487b7160e01b600052601260045260246000fd5b50049056fea26469706673582212209fcfae3595869cec31c54a4a66a72d519526227246e2fd48a5c1a217512a33eb64736f6c634300080a0033",
    "linkReferences": {}
  }
}