{
  "address": "0xDCC2FeCA9619258b49546B82f9a50E1200FB3b29",
  "abi": [
    {
      "anonymous": false,
      "inputs": [
        {
          "indexed": true,
          "internalType": "address",
          "name": "token",
          "type": "address"
        },
        {
          "indexed": false,
          "internalType": "uint256",
          "name": "price",
          "type": "uint256"
        },
        {
          "indexed": false,
          "internalType": "uint256",
          "name": "block",
          "type": "uint256"
        }
      ],
      "name": "PriceAlreadyVerified",
      "type": "event"
    },
    {
      "anonymous": false,
      "inputs": [
        {
          "indexed": true,
          "internalType": "address",
          "name": "token",
          "type": "address"
        },
        {
          "indexed": false,
          "internalType": "uint256",
          "name": "price",
          "type": "uint256"
        },
        {
          "indexed": false,
          "internalType": "uint256",
          "name": "block",
          "type": "uint256"
        }
      ],
      "name": "PriceVerified",
      "type": "event"
    },
    {
      "inputs": [],
      "name": "denominationToken",
      "outputs": [
        {
          "internalType": "address",
          "name": "",
          "type": "address"
        }
      ],
      "stateMutability": "view",
      "type": "function"
    },
    {
      "inputs": [
        {
          "internalType": "address",
          "name": "uniswapV2Pair",
          "type": "address"
        },
        {
          "components": [
            {
              "internalType": "bytes",
              "name": "block",
              "type": "bytes"
            },
            {
              "internalType": "bytes",
              "name": "accountProofNodesRlp",
              "type": "bytes"
            },
            {
              "internalType": "bytes",
              "name": "reserveAndTimestampProofNodesRlp",
              "type": "bytes"
            },
            {
              "internalType": "bytes",
              "name": "priceAccumulatorProofNodesRlp",
              "type": "bytes"
            }
          ],
          "internalType": "struct UniswapOracle.ProofData",
          "name": "proofData",
          "type": "tuple"
        }
      ],
      "name": "getAccountStorageRoot",
      "outputs": [
        {
          "internalType": "bytes32",
          "name": "storageRootHash",
          "type": "bytes32"
        },
        {
          "internalType": "uint256",
          "name": "blockNumber",
          "type": "uint256"
        },
        {
          "internalType": "uint256",
          "name": "blockTimestamp",
          "type": "uint256"
        }
      ],
      "stateMutability": "view",
      "type": "function"
    },
    {
      "inputs": [
        {
          "internalType": "contract IUniswapV2Pair",
          "name": "uniswapV2Pair",
          "type": "address"
        },
        {
          "internalType": "bool",
          "name": "denominationTokenIs0",
          "type": "bool"
        }
      ],
      "name": "getCurrentPriceCumulativeLast",
      "outputs": [
        {
          "internalType": "uint256",
          "name": "priceCumulativeLast",
          "type": "uint256"
        }
      ],
      "stateMutability": "view",
      "type": "function"
    },
    {
      "inputs": [
        {
          "internalType": "contract IUniswapV2Pair",
          "name": "uniswapV2Pair",
          "type": "address"
        },
        {
          "internalType": "address",
          "name": "denominationToken",
          "type": "address"
        },
        {
          "internalType": "uint8",
          "name": "minBlocksBack",
          "type": "uint8"
        },
        {
          "internalType": "uint8",
          "name": "maxBlocksBack",
          "type": "uint8"
        },
        {
          "components": [
            {
              "internalType": "bytes",
              "name": "block",
              "type": "bytes"
            },
            {
              "internalType": "bytes",
              "name": "accountProofNodesRlp",
              "type": "bytes"
            },
            {
              "internalType": "bytes",
              "name": "reserveAndTimestampProofNodesRlp",
              "type": "bytes"
            },
            {
              "internalType": "bytes",
              "name": "priceAccumulatorProofNodesRlp",
              "type": "bytes"
            }
          ],
          "internalType": "struct UniswapOracle.ProofData",
          "name": "proofData",
          "type": "tuple"
        }
      ],
      "name": "getPrice",
      "outputs": [
        {
          "internalType": "uint256",
          "name": "price",
          "type": "uint256"
        },
        {
          "internalType": "uint256",
          "name": "blockNumber",
          "type": "uint256"
        }
      ],
      "stateMutability": "view",
      "type": "function"
    },
    {
      "inputs": [
        {
          "internalType": "contract IUniswapV2Pair",
          "name": "uniswapV2Pair",
          "type": "address"
        },
        {
          "internalType": "bool",
          "name": "denominationTokenIs0",
          "type": "bool"
        },
        {
          "internalType": "uint8",
          "name": "minBlocksBack",
          "type": "uint8"
        },
        {
          "internalType": "uint8",
          "name": "maxBlocksBack",
          "type": "uint8"
        },
        {
          "components": [
            {
              "internalType": "bytes",
              "name": "block",
              "type": "bytes"
            },
            {
              "internalType": "bytes",
              "name": "accountProofNodesRlp",
              "type": "bytes"
            },
            {
              "internalType": "bytes",
              "name": "reserveAndTimestampProofNodesRlp",
              "type": "bytes"
            },
            {
              "internalType": "bytes",
              "name": "priceAccumulatorProofNodesRlp",
              "type": "bytes"
            }
          ],
          "internalType": "struct UniswapOracle.ProofData",
          "name": "proofData",
          "type": "tuple"
        }
      ],
      "name": "getPriceRaw",
      "outputs": [
        {
          "internalType": "uint256",
          "name": "price",
          "type": "uint256"
        },
        {
          "internalType": "uint256",
          "name": "blockNumber",
          "type": "uint256"
        }
      ],
      "stateMutability": "view",
      "type": "function"
    },
    {
      "inputs": [
        {
          "internalType": "contract ICToken",
          "name": "cToken",
          "type": "address"
        }
      ],
      "name": "getUnderlyingPrice",
      "outputs": [
        {
          "internalType": "uint256",
          "name": "",
          "type": "uint256"
        }
      ],
      "stateMutability": "view",
      "type": "function"
    },
    {
      "inputs": [
        {
          "internalType": "address",
          "name": "_uniswapV2Factory",
          "type": "address"
        },
        {
          "internalType": "address",
          "name": "_denominationToken",
          "type": "address"
        },
        {
          "internalType": "address",
          "name": "_wtoken",
          "type": "address"
        },
        {
          "internalType": "uint8",
          "name": "_minBlocksBack",
          "type": "uint8"
        },
        {
          "internalType": "uint8",
          "name": "_maxBlocksBack",
          "type": "uint8"
        }
      ],
      "name": "initialize",
      "outputs": [],
      "stateMutability": "nonpayable",
      "type": "function"
    },
    {
      "inputs": [],
      "name": "maxBlocksBack",
      "outputs": [
        {
          "internalType": "uint8",
          "name": "",
          "type": "uint8"
        }
      ],
      "stateMutability": "view",
      "type": "function"
    },
    {
      "inputs": [],
      "name": "minBlocksBack",
      "outputs": [
        {
          "internalType": "uint8",
          "name": "",
          "type": "uint8"
        }
      ],
      "stateMutability": "view",
      "type": "function"
    },
    {
      "inputs": [
        {
          "internalType": "address",
          "name": "underlying",
          "type": "address"
        }
      ],
      "name": "price",
      "outputs": [
        {
          "internalType": "uint256",
          "name": "",
          "type": "uint256"
        }
      ],
      "stateMutability": "view",
      "type": "function"
    },
    {
      "inputs": [
        {
          "internalType": "address",
          "name": "",
          "type": "address"
        }
      ],
      "name": "priceVerifications",
      "outputs": [
        {
          "internalType": "uint256",
          "name": "blockNumber",
          "type": "uint256"
        },
        {
          "internalType": "uint256",
          "name": "price",
          "type": "uint256"
        }
      ],
      "stateMutability": "view",
      "type": "function"
    },
    {
      "inputs": [],
      "name": "reserveTimestampSlotHash",
      "outputs": [
        {
          "internalType": "bytes32",
          "name": "",
          "type": "bytes32"
        }
      ],
      "stateMutability": "view",
      "type": "function"
    },
    {
      "inputs": [],
      "name": "token0Slot",
      "outputs": [
        {
          "internalType": "bytes32",
          "name": "",
          "type": "bytes32"
        }
      ],
      "stateMutability": "view",
      "type": "function"
    },
    {
      "inputs": [],
      "name": "token1Slot",
      "outputs": [
        {
          "internalType": "bytes32",
          "name": "",
          "type": "bytes32"
        }
      ],
      "stateMutability": "view",
      "type": "function"
    },
    {
      "inputs": [],
      "name": "uniswapV2Factory",
      "outputs": [
        {
          "internalType": "address",
          "name": "",
          "type": "address"
        }
      ],
      "stateMutability": "view",
      "type": "function"
    },
    {
      "inputs": [
        {
          "internalType": "contract IUniswapV2Pair",
          "name": "uniswapV2Pair",
          "type": "address"
        },
        {
          "internalType": "uint8",
          "name": "minBlocksBack",
          "type": "uint8"
        },
        {
          "internalType": "uint8",
          "name": "maxBlocksBack",
          "type": "uint8"
        },
        {
          "internalType": "bytes32",
          "name": "slotHash",
          "type": "bytes32"
        },
        {
          "components": [
            {
              "internalType": "bytes",
              "name": "block",
              "type": "bytes"
            },
            {
              "internalType": "bytes",
              "name": "accountProofNodesRlp",
              "type": "bytes"
            },
            {
              "internalType": "bytes",
              "name": "reserveAndTimestampProofNodesRlp",
              "type": "bytes"
            },
            {
              "internalType": "bytes",
              "name": "priceAccumulatorProofNodesRlp",
              "type": "bytes"
            }
          ],
          "internalType": "struct UniswapOracle.ProofData",
          "name": "proofData",
          "type": "tuple"
        }
      ],
      "name": "verifyBlockAndExtractReserveData",
      "outputs": [
        {
          "internalType": "uint256",
          "name": "blockTimestamp",
          "type": "uint256"
        },
        {
          "internalType": "uint256",
          "name": "blockNumber",
          "type": "uint256"
        },
        {
          "internalType": "uint256",
          "name": "priceCumulativeLast",
          "type": "uint256"
        },
        {
          "internalType": "uint112",
          "name": "reserve0",
          "type": "uint112"
        },
        {
          "internalType": "uint112",
          "name": "reserve1",
          "type": "uint112"
        },
        {
          "internalType": "uint256",
          "name": "reserveTimestamp",
          "type": "uint256"
        }
      ],
      "stateMutability": "view",
      "type": "function"
    },
    {
      "inputs": [
        {
          "internalType": "contract ICToken",
          "name": "cToken",
          "type": "address"
        },
        {
          "components": [
            {
              "internalType": "bytes",
              "name": "block",
              "type": "bytes"
            },
            {
              "internalType": "bytes",
              "name": "accountProofNodesRlp",
              "type": "bytes"
            },
            {
              "internalType": "bytes",
              "name": "reserveAndTimestampProofNodesRlp",
              "type": "bytes"
            },
            {
              "internalType": "bytes",
              "name": "priceAccumulatorProofNodesRlp",
              "type": "bytes"
            }
          ],
          "internalType": "struct UniswapOracle.ProofData",
          "name": "proofData",
          "type": "tuple"
        }
      ],
      "name": "verifyPrice",
      "outputs": [],
      "stateMutability": "nonpayable",
      "type": "function"
    },
    {
      "inputs": [],
      "name": "wtoken",
      "outputs": [
        {
          "internalType": "address",
          "name": "",
          "type": "address"
        }
      ],
      "stateMutability": "view",
      "type": "function"
    }
  ],
  "transactionHash": "0xb24b46cd3582a6af68f545f0b126c62d8f6d9fc7fe8d8e017512a23567081316",
  "args": [],
  "numDeployments": 1,
  "solcInputHash": "ccd5dc4d18e72e0109f32fc1e32f2d9f",
  "bytecode": "0x608060405234801561001057600080fd5b506127b3806100206000396000f3fe608060405234801561001057600080fd5b50600436106101165760003560e01c8063aea91078116100a2578063e46e268011610071578063e46e26801461029a578063e65d3dcd146102ad578063f3284624146102c0578063f6b9fdfb146102ee578063fc57d4df1461030157600080fd5b8063aea9107814610239578063be0aa53b1461024c578063c4684d9414610273578063cd344be81461028757600080fd5b806372f4262f116100e957806372f4262f1461018f578063903cd3e3146101db57806392f4e5ef146101f05780639c0591c8146101f8578063ad1a9a711461021157600080fd5b80632432a15f1461011b5780632c02b8e214610136578063545f51a41461015c57806359d0f71314610164575b600080fd5b610123610314565b6040519081526020015b60405180910390f35b60025461014a90600160a01b900460ff1681565b60405160ff909116815260200161012d565b61012361033a565b600154610177906001600160a01b031681565b6040516001600160a01b03909116815260200161012d565b6101a261019d3660046121ff565b61034b565b604080519687526020870195909552938501929092526001600160701b03908116606085015216608083015260a082015260c00161012d565b6101ee6101e936600461227e565b6104b7565b005b61012361066b565b600054610177906201000090046001600160a01b031681565b61022461021f3660046122ef565b61067c565b6040805192835260208301919091520161012d565b61012361024736600461235e565b6107eb565b61022461025a36600461235e565b6003602052600090815260409020805460019091015482565b60025461014a90600160a81b900460ff1681565b6101ee61029536600461237b565b6107fc565b6101236102a83660046123d9565b6109d0565b6102246102bb366004612412565b610b7d565b6102d36102ce36600461237b565b610c88565b6040805193845260208401929092529082015260600161012d565b600254610177906001600160a01b031681565b61012361030f36600461235e565b610d32565b6040805160096020820152015b6040516020818303038152906040528051906020012081565b604080516008602082015201610321565b60008060008060008060006103608c89610c88565b98509650905061037360ff8c164361245b565b8611156103d15760405162461bcd60e51b815260206004820152602160248201527f50726f6f6620646f6573206e6f74207370616e20656e6f75676820626c6f636b6044820152607360f81b60648201526084015b60405180910390fd5b6103de60ff8b164361245b565b86101561042d5760405162461bcd60e51b815260206004820152601b60248201527f50726f6f66207370616e7320746f6f206d616e7920626c6f636b73000000000060448201526064016103c8565b61044461043f828b8b60600151610eb2565b61124d565b9450600061048361043f83600860405160200161046391815260200190565b604051602081830303815290604052805190602001208c60400151610eb2565b905060e081901c9250607081901c6001600160701b03169350806001600160701b0316945050509550955095509550955095565b600054610100900460ff166104d25760005460ff16156104d6565b303b155b6105395760405162461bcd60e51b815260206004820152602e60248201527f496e697469616c697a61626c653a20636f6e747261637420697320616c72656160448201526d191e481a5b9a5d1a585b1a5e995960921b60648201526084016103c8565b600054610100900460ff1615801561055b576000805461ffff19166101011790555b6001600160a01b0386166105b15760405162461bcd60e51b815260206004820152601d60248201527f556e69737761705632466163746f7279206e6f7420646566696e65642e00000060448201526064016103c8565b600180546001600160a01b0319166001600160a01b03888116919091179091556000805462010000600160b01b03191662010000878416021790558516156105f9578461060c565b6000546201000090046001600160a01b03165b6002805460ff858116600160a81b0260ff60a81b19918816600160a01b026001600160a81b03199093166001600160a01b03959095169490941791909117169190911790558015610663576000805461ff00191690555b505050505050565b60408051600a602082015201610321565b6000806000866001600160a01b0316886001600160a01b0316630dfe16816040518163ffffffff1660e01b8152600401602060405180830381865afa1580156106c9573d6000803e3d6000fd5b505050506040513d601f19601f820116820180604052508101906106ed9190612472565b6001600160a01b03161415610704575060016107cf565b866001600160a01b0316886001600160a01b031663d21220a76040518163ffffffff1660e01b8152600401602060405180830381865afa15801561074c573d6000803e3d6000fd5b505050506040513d601f19601f820116820180604052508101906107709190612472565b6001600160a01b03161415610787575060006107cf565b60405162461bcd60e51b815260206004820152601960248201527f64656e6f6d696e6174696f6e546f6b656e20696e76616c69640000000000000060448201526064016103c8565b6107dc8882888888610b7d565b92509250509550959350505050565b60006107f682611260565b92915050565b6001600160a01b0382166000908152600360205260409020805483919043141561087757600181015481546040516001600160a01b038516927f1e87aba8dc852fe7408cb5894676b5d0666afa72ba3c1422e7de88f17103eb9a9261086992918252602082015260400190565b60405180910390a250505050565b60015460025460405163e6a4390560e01b81526001600160a01b0385811660048301529182166024820152600092919091169063e6a4390590604401602060405180830381865afa1580156108d0573d6000803e3d6000fd5b505050506040513d601f19601f820116820180604052508101906108f49190612472565b825490915063499602d290439081101561096257600184015484546040516001600160a01b038816927f1e87aba8dc852fe7408cb5894676b5d0666afa72ba3c1422e7de88f17103eb9a9261095192918252602082015260400190565b60405180910390a250505050505050565b60408051808201825282815260208082018581526001600160a01b038916600081815260038452859020935184559051600190930192909255825185815290810184905290917f2a3f0e6025c5701805c81cc828ab538b395e8b7381f3c0c055c6bf488e72e1db9101610951565b600080600080856001600160a01b0316630902f1ac6040518163ffffffff1660e01b8152600401606060405180830381865afa158015610a14573d6000803e3d6000fd5b505050506040513d601f19601f82011682018060405250810190610a3891906124ab565b92509250925084610aaa57856001600160a01b0316635909c0d56040518163ffffffff1660e01b8152600401602060405180830381865afa158015610a81573d6000803e3d6000fd5b505050506040513d601f19601f82011682018060405250810190610aa591906124fb565b610b0c565b856001600160a01b0316635a3d54936040518163ffffffff1660e01b8152600401602060405180830381865afa158015610ae8573d6000803e3d6000fd5b505050506040513d601f19601f82011682018060405250810190610b0c91906124fb565b93506000610b2063ffffffff83164261245b565b9050610b5586610b305784610b32565b835b610b4688610b40578561139b565b8661139b565b6001600160e01b0316906113b4565b610b68906001600160e01b031682612514565b610b729086612533565b979650505050505050565b6000806000806000806000610be38c8b8b8e610bba5760408051600960208201520160405160208183030381529060405280519060200120610bdd565b60408051600a602082015201604051602081830303815290604052805190602001205b8c61034b565b939a50939850909650945090925090506000610bff828761245b565b90508015610c4557610c258c610c155784610c17565b835b610b468e610b40578561139b565b610c38906001600160e01b031682612514565b610c429086612533565b94505b5050505060008242610c57919061245b565b90508082610c658c8c6109d0565b610c6f919061245b565b610c799190612561565b94505050509550959350505050565b600080600080610c9b85600001516113c9565b6040516bffffffffffffffffffffffff1960608b901b166020820152909550909350909150600090610cec908390603401604051602081830303815290604052805190602001208860200151610eb2565b90506000610d01610cfc836114ea565b611539565b9050610d2681600281518110610d1957610d19612575565b6020026020010151611658565b95505050509250925092565b6000816001600160a01b031663ac784ddc6040518163ffffffff1660e01b8152600401602060405180830381865afa158015610d72573d6000803e3d6000fd5b505050506040513d601f19601f82011682018060405250810190610d96919061258b565b15610daa5750670de0b6b3a7640000919050565b6000826001600160a01b0316636f307dc36040518163ffffffff1660e01b8152600401602060405180830381865afa158015610dea573d6000803e3d6000fd5b505050506040513d601f19601f82011682018060405250810190610e0e9190612472565b90506000816001600160a01b031663313ce5676040518163ffffffff1660e01b8152600401602060405180830381865afa158015610e50573d6000803e3d6000fd5b505050506040513d601f19601f82011682018060405250810190610e7491906125a8565b610e829060ff16600a6126a9565b905080610e8e83611260565b610ea090670de0b6b3a7640000612514565b610eaa9190612561565b949350505050565b60606000610ebf836114ea565b90506000610ecc82611539565b60408051602180825260608281019093529293509091829189916000918291602082018180368337019050509050896021820152610f0981611663565b9050610f2e86600081518110610f2157610f21612575565b602002602001015161181b565b945060005b8651811015611204578151831115610f7d5760405162461bcd60e51b815260206004820152600d60248201526c50617468206f766572666c6f7760981b60448201526064016103c8565b610f92878281518110610f2157610f21612575565b955085805190602001208414610fe35760405162461bcd60e51b81526020600482015260166024820152756e6f646520646f65736e2774206d61746368206b657960501b60448201526064016103c8565b611005878281518110610ff857610ff8612575565b6020026020010151611539565b94508451601114156110da57815183141561104c5761103d8560108151811061103057611030612575565b60200260200101516118bf565b98505050505050505050611246565b600082848151811061106057611060612575565b016020015160f81c905060108111156110ad5760405162461bcd60e51b815260206004820152600f60248201526e6e6962626c6520746f6f206c6f6e6760881b60448201526064016103c8565b6110c5868260ff1681518110610d1957610d19612575565b94506110d2600185612533565b9350506111f2565b8451600214156111aa576111046110fd8660008151811061103057611030612575565b8385611936565b61110e9084612533565b9250815183141561112f5761103d8560018151811061103057611030612575565b6111486110fd8660008151811061103057611030612575565b61118d5760405162461bcd60e51b8152602060048201526016602482015275696e76616c696420657874656e73696f6e206e6f646560501b60448201526064016103c8565b6111a385600181518110610d1957610d19612575565b93506111f2565b60405162461bcd60e51b815260206004820152601760248201527f756e6578706563746564206c656e67746820617272617900000000000000000060448201526064016103c8565b806111fc816126b5565b915050610f33565b5060405162461bcd60e51b81526020600482015260166024820152756e6f7420656e6f7567682070726f6f66206e6f64657360501b60448201526064016103c8565b9392505050565b60006107f661125b836114ea565b611a40565b600080546001600160a01b038381166201000090920416141561128c5750670de0b6b3a7640000919050565b6001600160a01b0382166000908152600360209081526040918290208251808401909352805480845260019091015491830191909152158015906112e757506002546112e290600160a81b900460ff164361245b565b815110155b801561130a575060025461130590600160a01b900460ff164361245b565b815111155b15611319576020015192915050565b60405162461bcd60e51b8152602060048201526044602482018190527f4e6f2076616c69642070726f6f662070726f766964656420666f722074686520908201527f72616e6765205b6d696e426c6f636b734261636b3b206d6178426c6f636b734260648201526361636b5d60e01b608482015260a4016103c8565b50919050565b60006107f6600160701b6001600160701b0384166126d0565b60006112466001600160701b038316846126ff565b6000806000611432565b62461bcd60e51b6000526020600452816024528060445250806044016000fd5b600080825160001a608081106001811461141257801561141e5761142b565b8493506001925061142b565b6001850193506080820392505b5050915091565b83516020850194607b81019060009081906101e001611450816113f3565b01905061145c816113f3565b9250925050600080828401611470816113f3565b01905061147c816113f3565b019050611488816113f3565b9250925050835160088402610100031c965086409350858a2095508584146114cc576114cc6014730c4d8dec6d690c2e6d040427a40e4d8e090c2e6d60631b6113d3565b84519850815160088202610100031c97505050505050509193909250565b60408051808201909152600080825260208201528151806115205750506040805180820190915260008082526020820152919050565b6040805180820190915260209384018152928301525090565b606061154482611b3e565b6115875760405162461bcd60e51b8152602060048201526014602482015273526c702e736f6c3a526c703a746f4c6973743a3160601b60448201526064016103c8565b600061159283611b65565b905060008167ffffffffffffffff8111156115af576115af61207a565b6040519080825280602002602001820160405280156115f457816020015b60408051808201909152600080825260208201528152602001906001900390816115cd5790505b509050600061160285611bf7565b905060005b61161082611cb6565b1561164e5761161e82611cda565b83828151811061163057611630612575565b60200260200101819052508080611646906126b5565b915050611607565b5090949350505050565b60006107f682611a40565b6060808251600014156116765792915050565b600080611684600086611d6d565b60f81c9050600181148061169b57508060ff166003145b15611743576001855160026116b09190612514565b6116ba919061245b565b67ffffffffffffffff8111156116d2576116d261207a565b6040519080825280601f01601f1916602001820160405280156116fc576020820181803683370190505b509250600061170c600187611d6d565b9050808460008151811061172257611722612575565b60200101906001600160f81b031916908160001a90535060019250506117a7565b6002855160026117539190612514565b61175d919061245b565b67ffffffffffffffff8111156117755761177561207a565b6040519080825280601f01601f19166020018201604052801561179f576020820181803683370190505b509250600091505b60ff82165b8351811015611811576117d66117c560ff85168361245b565b6117d0906002612533565b87611d6d565b8482815181106117e8576117e8612575565b60200101906001600160f81b031916908160001a90535080611809816126b5565b9150506117ac565b5091949350505050565b6020810151606090806118685760405162461bcd60e51b81526020600482015260156024820152742936381739b7b61d2936381d3a37a13cba32b99d1960591b60448201526064016103c8565b60608167ffffffffffffffff8111156118835761188361207a565b6040519080825280601f01601f1916602001820160405280156118ad576020820181803683370190505b50905061124684600001518284611dee565b60606118ca82611e2c565b6118d357600080fd5b6000806118df84611e52565b9150915060608167ffffffffffffffff8111156118fe576118fe61207a565b6040519080825280601f01601f191660200182016040528015611928576020820181803683370190505b509050610eaa838284611dee565b600080600061194486611663565b90506000815167ffffffffffffffff8111156119625761196261207a565b6040519080825280601f01601f19166020018201604052801561198c576020820181803683370190505b509050845b825161199d9087612533565b811015611a105760008782815181106119b8576119b8612575565b01602001516001600160f81b031916905080836119d5898561245b565b815181106119e5576119e5612575565b60200101906001600160f81b031916908160001a905350508080611a08906126b5565b915050611991565b50808051906020012082805190602001201415611a305781519250611a35565b600092505b509095945050505050565b6000611a4b82611e2c565b611a8e5760405162461bcd60e51b8152602060048201526014602482015273526c702e736f6c3a526c703a746f55696e743a3160601b60448201526064016103c8565b600080611a9a84611e52565b915091506020811115611ae65760405162461bcd60e51b8152602060048201526014602482015273526c702e736f6c3a526c703a746f55696e743a3360601b60448201526064016103c8565b80611b2a5760405162461bcd60e51b8152602060048201526014602482015273149b1c0b9cdbdb0e949b1c0e9d1bd55a5b9d0e8d60621b60448201526064016103c8565b90516020919091036101000a900492915050565b6000816020015160001415611b5557506000919050565b50515160c060009190911a101590565b6000611b7082611b3e565b611b7c57506000919050565b81518051600090811a9190611b9085611f30565b611b9a9083612533565b905060006001866020015184611bb09190612533565b611bba919061245b565b905060005b818311611bed57611bcf83611fb6565b611bd99084612533565b925080611be5816126b5565b915050611bbf565b9695505050505050565b6040805160808101825260009181018281526060820183905281526020810191909152611c2382611b3e565b611c685760405162461bcd60e51b8152602060048201526016602482015275526c702e736f6c3a526c703a6974657261746f723a3160501b60448201526064016103c8565b6000611c7383611f30565b8351611c7f9190612533565b9050611caa604080516080810182526000918101828152606082018390528152602081019190915290565b92835260208301525090565b80516020810151815160009291611ccc91612533565b836020015110915050919050565b6040805180820190915260008082526020820152611cf782611cb6565b611d385760405162461bcd60e51b8152602060048201526012602482015271526c702e736f6c3a526c703a6e6578743a3160701b60448201526064016103c8565b60208201516000611d4882611fb6565b828452602084018190529050611d5e8183612533565b60209094019390935250919050565b6000611d7a600284612725565b15611db457601082611d8d600286612561565b81518110611d9d57611d9d612575565b0160200151611daf919060f81c612739565b611de4565b601082611dc2600286612561565b81518110611dd257611dd2612575565b0160200151611de4919060f81c61275b565b60f81b9392505050565b6020601f820104836020840160005b83811015611e1957602081028381015190830152600101611dfd565b5050505060008251602001830152505050565b6000816020015160001415611e4357506000919050565b50515160c060009190911a1090565b600080611e5e83611e2c565b611ea25760405162461bcd60e51b8152602060048201526015602482015274526c702e736f6c3a526c703a5f6465636f64653a3160581b60448201526064016103c8565b8251805160001a906080821015611ebe57946001945092505050565b60b8821015611eec5760018560200151611ed8919061245b565b9250611ee5816001612533565b935061142b565b602085015160b6198301908190611f059060019061245b565b611f0f919061245b565b9350611f1b8183612533565b611f26906001612533565b9450505050915091565b6000816020015160001415611f4757506000919050565b8151805160001a906080821015611f62575060009392505050565b60b8821080611f7d575060c08210158015611f7d575060f882105b15611f8c575060019392505050565b60c0821015611fab57611fa060b78361245b565b610eaa906001612533565b611fa060f78361245b565b8051600090811a6080811015611fcf5760019150611395565b60b8811015611ff557611fe360808261245b565b611fee906001612533565b9150611395565b60c081101561201e57600183015160b76020839003016101000a9004810160b519019150611395565b60f881101561203257611fe360c08261245b565b6001929092015160f76020849003016101000a900490910160f51901919050565b6001600160a01b038116811461206857600080fd5b50565b60ff8116811461206857600080fd5b634e487b7160e01b600052604160045260246000fd5b6040516080810167ffffffffffffffff811182821017156120b3576120b361207a565b60405290565b600082601f8301126120ca57600080fd5b813567ffffffffffffffff808211156120e5576120e561207a565b604051601f8301601f19908116603f0116810190828211818310171561210d5761210d61207a565b8160405283815286602085880101111561212657600080fd5b836020870160208301376000602085830101528094505050505092915050565b60006080828403121561215857600080fd5b612160612090565b9050813567ffffffffffffffff8082111561217a57600080fd5b612186858386016120b9565b8352602084013591508082111561219c57600080fd5b6121a8858386016120b9565b602084015260408401359150808211156121c157600080fd5b6121cd858386016120b9565b604084015260608401359150808211156121e657600080fd5b506121f3848285016120b9565b60608301525092915050565b600080600080600060a0868803121561221757600080fd5b853561222281612053565b945060208601356122328161206b565b935060408601356122428161206b565b925060608601359150608086013567ffffffffffffffff81111561226557600080fd5b61227188828901612146565b9150509295509295909350565b600080600080600060a0868803121561229657600080fd5b85356122a181612053565b945060208601356122b181612053565b935060408601356122c181612053565b925060608601356122d18161206b565b915060808601356122e18161206b565b809150509295509295909350565b600080600080600060a0868803121561230757600080fd5b853561231281612053565b9450602086013561232281612053565b935060408601356123328161206b565b925060608601356123428161206b565b9150608086013567ffffffffffffffff81111561226557600080fd5b60006020828403121561237057600080fd5b813561124681612053565b6000806040838503121561238e57600080fd5b823561239981612053565b9150602083013567ffffffffffffffff8111156123b557600080fd5b6123c185828601612146565b9150509250929050565b801515811461206857600080fd5b600080604083850312156123ec57600080fd5b82356123f781612053565b91506020830135612407816123cb565b809150509250929050565b600080600080600060a0868803121561242a57600080fd5b853561243581612053565b94506020860135612322816123cb565b634e487b7160e01b600052601160045260246000fd5b60008282101561246d5761246d612445565b500390565b60006020828403121561248457600080fd5b815161124681612053565b80516001600160701b03811681146124a657600080fd5b919050565b6000806000606084860312156124c057600080fd5b6124c98461248f565b92506124d76020850161248f565b9150604084015163ffffffff811681146124f057600080fd5b809150509250925092565b60006020828403121561250d57600080fd5b5051919050565b600081600019048311821515161561252e5761252e612445565b500290565b6000821982111561254657612546612445565b500190565b634e487b7160e01b600052601260045260246000fd5b6000826125705761257061254b565b500490565b634e487b7160e01b600052603260045260246000fd5b60006020828403121561259d57600080fd5b8151611246816123cb565b6000602082840312156125ba57600080fd5b81516112468161206b565b600181815b808511156126005781600019048211156125e6576125e6612445565b808516156125f357918102915b93841c93908002906125ca565b509250929050565b600082612617575060016107f6565b81612624575060006107f6565b816001811461263a576002811461264457612660565b60019150506107f6565b60ff84111561265557612655612445565b50506001821b6107f6565b5060208310610133831016604e8410600b8410161715612683575081810a6107f6565b61268d83836125c5565b80600019048211156126a1576126a1612445565b029392505050565b60006112468383612608565b60006000198214156126c9576126c9612445565b5060010190565b60006001600160e01b03828116848216811515828404821116156126f6576126f6612445565b02949350505050565b60006001600160e01b03838116806127195761271961254b565b92169190910492915050565b6000826127345761273461254b565b500690565b600060ff83168061274c5761274c61254b565b8060ff84160691505092915050565b600060ff83168061276e5761276e61254b565b8060ff8416049150509291505056fea2646970667358221220b7fe2a716bc6b8cc7d91a1242cc41d7d9c26c2b141c7fdd43614bf4b9ff108a964736f6c634300080b0033",
  "devdoc": {
    "author": "vminkov",
    "details": "Implements `PriceOracle` and `BasePriceOracle`.",
    "kind": "dev",
    "methods": {
      "getUnderlyingPrice(address)": {
        "details": "Implements the `PriceOracle` interface for Fuse pools (and Compound v2).",
        "returns": {
          "_0": "Price in ETH of the token underlying `cToken`, scaled by `10 ** (36 - underlyingDecimals)`."
        }
      },
      "initialize(address,address,address,uint8,uint8)": {
        "details": "Constructor that sets the UniswapV2Factory, denomination token and min/max blocks back."
      },
      "price(address)": {
        "details": "Returns the price in ETH of `underlying` (implements `BasePriceOracle`)."
      }
    },
    "stateVariables": {
      "denominationToken": {
        "details": "The token on which to base TWAPs (its price must be available via `msg.sender`)."
      },
      "maxBlocksBack": {
        "details": "the minimum blocks back for the price proof to be accepted; used to take the mean of the current price and the past price"
      },
      "minBlocksBack": {
        "details": "the minimum blocks back for the price proof to be accepted; used to take the mean of the current price and the past price"
      },
      "uniswapV2Factory": {
        "details": "UniswapV2Factory contract address."
      },
      "wtoken": {
        "details": "wtoken token contract address."
      }
    },
    "title": "KeydonixUniswapTwapPriceOracle",
    "version": 1
  },
  "userdoc": {
    "kind": "user",
    "methods": {
      "getUnderlyingPrice(address)": {
        "notice": "Returns the price in ETH of the token underlying `cToken`."
      }
    },
    "notice": "Stores cumulative prices and returns TWAPs for assets on Uniswap V2 pairs.",
    "version": 1
  },
  "storageLayout": {
    "storage": [
      {
        "astId": 210,
        "contract": "contracts/oracles/default/KeydonixUniswapTwapPriceOracle.sol:KeydonixUniswapTwapPriceOracle",
        "label": "_initialized",
        "offset": 0,
        "slot": "0",
        "type": "t_bool"
      },
      {
        "astId": 213,
        "contract": "contracts/oracles/default/KeydonixUniswapTwapPriceOracle.sol:KeydonixUniswapTwapPriceOracle",
        "label": "_initializing",
        "offset": 1,
        "slot": "0",
        "type": "t_bool"
      },
      {
        "astId": 42737,
        "contract": "contracts/oracles/default/KeydonixUniswapTwapPriceOracle.sol:KeydonixUniswapTwapPriceOracle",
        "label": "wtoken",
        "offset": 2,
        "slot": "0",
        "type": "t_address"
      },
      {
        "astId": 42740,
        "contract": "contracts/oracles/default/KeydonixUniswapTwapPriceOracle.sol:KeydonixUniswapTwapPriceOracle",
        "label": "uniswapV2Factory",
        "offset": 0,
        "slot": "1",
        "type": "t_address"
      },
      {
        "astId": 42743,
        "contract": "contracts/oracles/default/KeydonixUniswapTwapPriceOracle.sol:KeydonixUniswapTwapPriceOracle",
        "label": "denominationToken",
        "offset": 0,
        "slot": "2",
        "type": "t_address"
      },
      {
        "astId": 42746,
        "contract": "contracts/oracles/default/KeydonixUniswapTwapPriceOracle.sol:KeydonixUniswapTwapPriceOracle",
        "label": "minBlocksBack",
        "offset": 20,
        "slot": "2",
        "type": "t_uint8"
      },
      {
        "astId": 42749,
        "contract": "contracts/oracles/default/KeydonixUniswapTwapPriceOracle.sol:KeydonixUniswapTwapPriceOracle",
        "label": "maxBlocksBack",
        "offset": 21,
        "slot": "2",
        "type": "t_uint8"
      },
      {
        "astId": 42754,
        "contract": "contracts/oracles/default/KeydonixUniswapTwapPriceOracle.sol:KeydonixUniswapTwapPriceOracle",
        "label": "priceVerifications",
        "offset": 0,
        "slot": "3",
        "type": "t_mapping(t_address,t_struct(PriceVerification)42759_storage)"
      }
    ],
    "types": {
      "t_address": {
        "encoding": "inplace",
        "label": "address",
        "numberOfBytes": "20"
      },
      "t_bool": {
        "encoding": "inplace",
        "label": "bool",
        "numberOfBytes": "1"
      },
      "t_mapping(t_address,t_struct(PriceVerification)42759_storage)": {
        "encoding": "mapping",
        "key": "t_address",
        "label": "mapping(address => struct KeydonixUniswapTwapPriceOracle.PriceVerification)",
        "numberOfBytes": "32",
        "value": "t_struct(PriceVerification)42759_storage"
      },
      "t_struct(PriceVerification)42759_storage": {
        "encoding": "inplace",
        "label": "struct KeydonixUniswapTwapPriceOracle.PriceVerification",
        "members": [
          {
            "astId": 42756,
            "contract": "contracts/oracles/default/KeydonixUniswapTwapPriceOracle.sol:KeydonixUniswapTwapPriceOracle",
            "label": "blockNumber",
            "offset": 0,
            "slot": "0",
            "type": "t_uint256"
          },
          {
            "astId": 42758,
            "contract": "contracts/oracles/default/KeydonixUniswapTwapPriceOracle.sol:KeydonixUniswapTwapPriceOracle",
            "label": "price",
            "offset": 0,
            "slot": "1",
            "type": "t_uint256"
          }
        ],
        "numberOfBytes": "64"
      },
      "t_uint256": {
        "encoding": "inplace",
        "label": "uint256",
        "numberOfBytes": "32"
      },
      "t_uint8": {
        "encoding": "inplace",
        "label": "uint8",
        "numberOfBytes": "1"
      }
    }
  }
}