{
  "address": "0xf992cf65b99A2D6916B357469A0aCD7F4b3F79B0",
  "abi": [
    {
      "anonymous": false,
      "inputs": [
        {
          "indexed": true,
          "internalType": "address",
          "name": "token",
          "type": "address"
        },
        {
          "indexed": false,
          "internalType": "uint256",
          "name": "price",
          "type": "uint256"
        },
        {
          "indexed": false,
          "internalType": "uint256",
          "name": "block",
          "type": "uint256"
        }
      ],
      "name": "PriceAlreadyVerified",
      "type": "event"
    },
    {
      "anonymous": false,
      "inputs": [
        {
          "indexed": true,
          "internalType": "address",
          "name": "token",
          "type": "address"
        },
        {
          "indexed": false,
          "internalType": "uint256",
          "name": "price",
          "type": "uint256"
        },
        {
          "indexed": false,
          "internalType": "uint256",
          "name": "block",
          "type": "uint256"
        }
      ],
      "name": "PriceVerified",
      "type": "event"
    },
    {
      "inputs": [],
      "name": "denominationToken",
      "outputs": [
        {
          "internalType": "address",
          "name": "",
          "type": "address"
        }
      ],
      "stateMutability": "view",
      "type": "function"
    },
    {
      "inputs": [
        {
          "internalType": "address",
          "name": "uniswapV2Pair",
          "type": "address"
        },
        {
          "components": [
            {
              "internalType": "bytes",
              "name": "block",
              "type": "bytes"
            },
            {
              "internalType": "bytes",
              "name": "accountProofNodesRlp",
              "type": "bytes"
            },
            {
              "internalType": "bytes",
              "name": "reserveAndTimestampProofNodesRlp",
              "type": "bytes"
            },
            {
              "internalType": "bytes",
              "name": "priceAccumulatorProofNodesRlp",
              "type": "bytes"
            }
          ],
          "internalType": "struct UniswapOracle.ProofData",
          "name": "proofData",
          "type": "tuple"
        }
      ],
      "name": "getAccountStorageRoot",
      "outputs": [
        {
          "internalType": "bytes32",
          "name": "storageRootHash",
          "type": "bytes32"
        },
        {
          "internalType": "uint256",
          "name": "blockNumber",
          "type": "uint256"
        },
        {
          "internalType": "uint256",
          "name": "blockTimestamp",
          "type": "uint256"
        }
      ],
      "stateMutability": "view",
      "type": "function"
    },
    {
      "inputs": [
        {
          "internalType": "contract IUniswapV2Pair",
          "name": "uniswapV2Pair",
          "type": "address"
        },
        {
          "internalType": "bool",
          "name": "denominationTokenIs0",
          "type": "bool"
        }
      ],
      "name": "getCurrentPriceCumulativeLast",
      "outputs": [
        {
          "internalType": "uint256",
          "name": "priceCumulativeLast",
          "type": "uint256"
        }
      ],
      "stateMutability": "view",
      "type": "function"
    },
    {
      "inputs": [
        {
          "internalType": "contract IUniswapV2Pair",
          "name": "uniswapV2Pair",
          "type": "address"
        },
        {
          "internalType": "address",
          "name": "denominationToken",
          "type": "address"
        },
        {
          "internalType": "uint8",
          "name": "minBlocksBack",
          "type": "uint8"
        },
        {
          "internalType": "uint8",
          "name": "maxBlocksBack",
          "type": "uint8"
        },
        {
          "components": [
            {
              "internalType": "bytes",
              "name": "block",
              "type": "bytes"
            },
            {
              "internalType": "bytes",
              "name": "accountProofNodesRlp",
              "type": "bytes"
            },
            {
              "internalType": "bytes",
              "name": "reserveAndTimestampProofNodesRlp",
              "type": "bytes"
            },
            {
              "internalType": "bytes",
              "name": "priceAccumulatorProofNodesRlp",
              "type": "bytes"
            }
          ],
          "internalType": "struct UniswapOracle.ProofData",
          "name": "proofData",
          "type": "tuple"
        }
      ],
      "name": "getPrice",
      "outputs": [
        {
          "internalType": "uint256",
          "name": "price",
          "type": "uint256"
        },
        {
          "internalType": "uint256",
          "name": "blockNumber",
          "type": "uint256"
        }
      ],
      "stateMutability": "view",
      "type": "function"
    },
    {
      "inputs": [
        {
          "internalType": "contract IUniswapV2Pair",
          "name": "uniswapV2Pair",
          "type": "address"
        },
        {
          "internalType": "bool",
          "name": "denominationTokenIs0",
          "type": "bool"
        },
        {
          "internalType": "uint8",
          "name": "minBlocksBack",
          "type": "uint8"
        },
        {
          "internalType": "uint8",
          "name": "maxBlocksBack",
          "type": "uint8"
        },
        {
          "components": [
            {
              "internalType": "bytes",
              "name": "block",
              "type": "bytes"
            },
            {
              "internalType": "bytes",
              "name": "accountProofNodesRlp",
              "type": "bytes"
            },
            {
              "internalType": "bytes",
              "name": "reserveAndTimestampProofNodesRlp",
              "type": "bytes"
            },
            {
              "internalType": "bytes",
              "name": "priceAccumulatorProofNodesRlp",
              "type": "bytes"
            }
          ],
          "internalType": "struct UniswapOracle.ProofData",
          "name": "proofData",
          "type": "tuple"
        }
      ],
      "name": "getPriceRaw",
      "outputs": [
        {
          "internalType": "uint256",
          "name": "price",
          "type": "uint256"
        },
        {
          "internalType": "uint256",
          "name": "blockNumber",
          "type": "uint256"
        }
      ],
      "stateMutability": "view",
      "type": "function"
    },
    {
      "inputs": [
        {
          "internalType": "contract ICToken",
          "name": "cToken",
          "type": "address"
        }
      ],
      "name": "getUnderlyingPrice",
      "outputs": [
        {
          "internalType": "uint256",
          "name": "",
          "type": "uint256"
        }
      ],
      "stateMutability": "view",
      "type": "function"
    },
    {
      "inputs": [
        {
          "internalType": "address",
          "name": "_uniswapV2Factory",
          "type": "address"
        },
        {
          "internalType": "address",
          "name": "_denominationToken",
          "type": "address"
        },
        {
          "internalType": "address",
          "name": "_wtoken",
          "type": "address"
        },
        {
          "internalType": "uint8",
          "name": "_minBlocksBack",
          "type": "uint8"
        },
        {
          "internalType": "uint8",
          "name": "_maxBlocksBack",
          "type": "uint8"
        }
      ],
      "name": "initialize",
      "outputs": [],
      "stateMutability": "nonpayable",
      "type": "function"
    },
    {
      "inputs": [],
      "name": "maxBlocksBack",
      "outputs": [
        {
          "internalType": "uint8",
          "name": "",
          "type": "uint8"
        }
      ],
      "stateMutability": "view",
      "type": "function"
    },
    {
      "inputs": [],
      "name": "minBlocksBack",
      "outputs": [
        {
          "internalType": "uint8",
          "name": "",
          "type": "uint8"
        }
      ],
      "stateMutability": "view",
      "type": "function"
    },
    {
      "inputs": [
        {
          "internalType": "address",
          "name": "underlying",
          "type": "address"
        }
      ],
      "name": "price",
      "outputs": [
        {
          "internalType": "uint256",
          "name": "",
          "type": "uint256"
        }
      ],
      "stateMutability": "view",
      "type": "function"
    },
    {
      "inputs": [
        {
          "internalType": "address",
          "name": "",
          "type": "address"
        }
      ],
      "name": "priceVerifications",
      "outputs": [
        {
          "internalType": "uint256",
          "name": "blockNumber",
          "type": "uint256"
        },
        {
          "internalType": "uint256",
          "name": "price",
          "type": "uint256"
        }
      ],
      "stateMutability": "view",
      "type": "function"
    },
    {
      "inputs": [],
      "name": "reserveTimestampSlotHash",
      "outputs": [
        {
          "internalType": "bytes32",
          "name": "",
          "type": "bytes32"
        }
      ],
      "stateMutability": "view",
      "type": "function"
    },
    {
      "inputs": [],
      "name": "token0Slot",
      "outputs": [
        {
          "internalType": "bytes32",
          "name": "",
          "type": "bytes32"
        }
      ],
      "stateMutability": "view",
      "type": "function"
    },
    {
      "inputs": [],
      "name": "token1Slot",
      "outputs": [
        {
          "internalType": "bytes32",
          "name": "",
          "type": "bytes32"
        }
      ],
      "stateMutability": "view",
      "type": "function"
    },
    {
      "inputs": [],
      "name": "uniswapV2Factory",
      "outputs": [
        {
          "internalType": "address",
          "name": "",
          "type": "address"
        }
      ],
      "stateMutability": "view",
      "type": "function"
    },
    {
      "inputs": [
        {
          "internalType": "contract IUniswapV2Pair",
          "name": "uniswapV2Pair",
          "type": "address"
        },
        {
          "internalType": "uint8",
          "name": "minBlocksBack",
          "type": "uint8"
        },
        {
          "internalType": "uint8",
          "name": "maxBlocksBack",
          "type": "uint8"
        },
        {
          "internalType": "bytes32",
          "name": "slotHash",
          "type": "bytes32"
        },
        {
          "components": [
            {
              "internalType": "bytes",
              "name": "block",
              "type": "bytes"
            },
            {
              "internalType": "bytes",
              "name": "accountProofNodesRlp",
              "type": "bytes"
            },
            {
              "internalType": "bytes",
              "name": "reserveAndTimestampProofNodesRlp",
              "type": "bytes"
            },
            {
              "internalType": "bytes",
              "name": "priceAccumulatorProofNodesRlp",
              "type": "bytes"
            }
          ],
          "internalType": "struct UniswapOracle.ProofData",
          "name": "proofData",
          "type": "tuple"
        }
      ],
      "name": "verifyBlockAndExtractReserveData",
      "outputs": [
        {
          "internalType": "uint256",
          "name": "blockTimestamp",
          "type": "uint256"
        },
        {
          "internalType": "uint256",
          "name": "blockNumber",
          "type": "uint256"
        },
        {
          "internalType": "uint256",
          "name": "priceCumulativeLast",
          "type": "uint256"
        },
        {
          "internalType": "uint112",
          "name": "reserve0",
          "type": "uint112"
        },
        {
          "internalType": "uint112",
          "name": "reserve1",
          "type": "uint112"
        },
        {
          "internalType": "uint256",
          "name": "reserveTimestamp",
          "type": "uint256"
        }
      ],
      "stateMutability": "view",
      "type": "function"
    },
    {
      "inputs": [
        {
          "internalType": "contract ICToken",
          "name": "cToken",
          "type": "address"
        },
        {
          "components": [
            {
              "internalType": "bytes",
              "name": "block",
              "type": "bytes"
            },
            {
              "internalType": "bytes",
              "name": "accountProofNodesRlp",
              "type": "bytes"
            },
            {
              "internalType": "bytes",
              "name": "reserveAndTimestampProofNodesRlp",
              "type": "bytes"
            },
            {
              "internalType": "bytes",
              "name": "priceAccumulatorProofNodesRlp",
              "type": "bytes"
            }
          ],
          "internalType": "struct UniswapOracle.ProofData",
          "name": "proofData",
          "type": "tuple"
        }
      ],
      "name": "verifyPrice",
      "outputs": [],
      "stateMutability": "nonpayable",
      "type": "function"
    },
    {
      "inputs": [],
      "name": "wtoken",
      "outputs": [
        {
          "internalType": "address",
          "name": "",
          "type": "address"
        }
      ],
      "stateMutability": "view",
      "type": "function"
    }
  ],
  "transactionHash": "0x2fefba8535eb6e4addeefb9a5c833e689ffa229221ec06a08612081031e8df4d",
  "args": [],
  "numDeployments": 1,
  "solcInputHash": "7ae3f18e6ce7453e55837e211c877057",
  "bytecode": "0x608060405234801561001057600080fd5b50612848806100206000396000f3fe608060405234801561001057600080fd5b50600436106101165760003560e01c8063aea91078116100a2578063e46e268011610071578063e46e26801461029a578063e65d3dcd146102ad578063f3284624146102c0578063f6b9fdfb146102ee578063fc57d4df1461030157600080fd5b8063aea9107814610239578063be0aa53b1461024c578063c4684d9414610273578063cd344be81461028757600080fd5b806372f4262f116100e957806372f4262f1461018f578063903cd3e3146101db57806392f4e5ef146101f05780639c0591c8146101f8578063ad1a9a711461021157600080fd5b80632432a15f1461011b5780632c02b8e214610136578063545f51a41461015c57806359d0f71314610164575b600080fd5b610123610314565b6040519081526020015b60405180910390f35b60025461014a90600160a01b900460ff1681565b60405160ff909116815260200161012d565b61012361033a565b600154610177906001600160a01b031681565b6040516001600160a01b03909116815260200161012d565b6101a261019d366004612294565b61034b565b604080519687526020870195909552938501929092526001600160701b03908116606085015216608083015260a082015260c00161012d565b6101ee6101e9366004612313565b6104b7565b005b61012361066b565b600054610177906201000090046001600160a01b031681565b61022461021f366004612384565b61067c565b6040805192835260208301919091520161012d565b6101236102473660046123f3565b6107eb565b61022461025a3660046123f3565b6003602052600090815260409020805460019091015482565b60025461014a90600160a81b900460ff1681565b6101ee610295366004612410565b6107fc565b6101236102a836600461246e565b610a65565b6102246102bb3660046124a7565b610c12565b6102d36102ce366004612410565b610d1d565b6040805193845260208401929092529082015260600161012d565b600254610177906001600160a01b031681565b61012361030f3660046123f3565b610dc7565b6040805160096020820152015b6040516020818303038152906040528051906020012081565b604080516008602082015201610321565b60008060008060008060006103608c89610d1d565b98509650905061037360ff8c16436124f0565b8611156103d15760405162461bcd60e51b815260206004820152602160248201527f50726f6f6620646f6573206e6f74207370616e20656e6f75676820626c6f636b6044820152607360f81b60648201526084015b60405180910390fd5b6103de60ff8b16436124f0565b86101561042d5760405162461bcd60e51b815260206004820152601b60248201527f50726f6f66207370616e7320746f6f206d616e7920626c6f636b73000000000060448201526064016103c8565b61044461043f828b8b60600151610f47565b6112e2565b9450600061048361043f83600860405160200161046391815260200190565b604051602081830303815290604052805190602001208c60400151610f47565b905060e081901c9250607081901c6001600160701b03169350806001600160701b0316945050509550955095509550955095565b600054610100900460ff166104d25760005460ff16156104d6565b303b155b6105395760405162461bcd60e51b815260206004820152602e60248201527f496e697469616c697a61626c653a20636f6e747261637420697320616c72656160448201526d191e481a5b9a5d1a585b1a5e995960921b60648201526084016103c8565b600054610100900460ff1615801561055b576000805461ffff19166101011790555b6001600160a01b0386166105b15760405162461bcd60e51b815260206004820152601d60248201527f556e69737761705632466163746f7279206e6f7420646566696e65642e00000060448201526064016103c8565b600180546001600160a01b0319166001600160a01b03888116919091179091556000805462010000600160b01b03191662010000878416021790558516156105f9578461060c565b6000546201000090046001600160a01b03165b6002805460ff858116600160a81b0260ff60a81b19918816600160a01b026001600160a81b03199093166001600160a01b03959095169490941791909117169190911790558015610663576000805461ff00191690555b505050505050565b60408051600a602082015201610321565b6000806000866001600160a01b0316886001600160a01b0316630dfe16816040518163ffffffff1660e01b8152600401602060405180830381865afa1580156106c9573d6000803e3d6000fd5b505050506040513d601f19601f820116820180604052508101906106ed9190612507565b6001600160a01b03161415610704575060016107cf565b866001600160a01b0316886001600160a01b031663d21220a76040518163ffffffff1660e01b8152600401602060405180830381865afa15801561074c573d6000803e3d6000fd5b505050506040513d601f19601f820116820180604052508101906107709190612507565b6001600160a01b03161415610787575060006107cf565b60405162461bcd60e51b815260206004820152601960248201527f64656e6f6d696e6174696f6e546f6b656e20696e76616c69640000000000000060448201526064016103c8565b6107dc8882888888610c12565b92509250509550959350505050565b60006107f6826112f5565b92915050565b6000826001600160a01b0316636f307dc36040518163ffffffff1660e01b8152600401602060405180830381865afa15801561083c573d6000803e3d6000fd5b505050506040513d601f19601f820116820180604052508101906108609190612507565b6001600160a01b03811660009081526003602052604090208054919250904314156108dc57600181015481546040516001600160a01b038516927f1e87aba8dc852fe7408cb5894676b5d0666afa72ba3c1422e7de88f17103eb9a926108ce92918252602082015260400190565b60405180910390a250505050565b60015460025460405163e6a4390560e01b81526001600160a01b0385811660048301529182166024820152600092919091169063e6a4390590604401602060405180830381865afa158015610935573d6000803e3d6000fd5b505050506040513d601f19601f820116820180604052508101906109599190612507565b600254909150600090819061098f9084906001600160a01b0381169060ff600160a01b8204811691600160a81b9004168a61067c565b855491935091508110156109f757600184015484546040516001600160a01b038816927f1e87aba8dc852fe7408cb5894676b5d0666afa72ba3c1422e7de88f17103eb9a926109e692918252602082015260400190565b60405180910390a250505050505050565b60408051808201825282815260208082018581526001600160a01b038916600081815260038452859020935184559051600190930192909255825185815290810184905290917f2a3f0e6025c5701805c81cc828ab538b395e8b7381f3c0c055c6bf488e72e1db91016109e6565b600080600080856001600160a01b0316630902f1ac6040518163ffffffff1660e01b8152600401606060405180830381865afa158015610aa9573d6000803e3d6000fd5b505050506040513d601f19601f82011682018060405250810190610acd9190612540565b92509250925084610b3f57856001600160a01b0316635909c0d56040518163ffffffff1660e01b8152600401602060405180830381865afa158015610b16573d6000803e3d6000fd5b505050506040513d601f19601f82011682018060405250810190610b3a9190612590565b610ba1565b856001600160a01b0316635a3d54936040518163ffffffff1660e01b8152600401602060405180830381865afa158015610b7d573d6000803e3d6000fd5b505050506040513d601f19601f82011682018060405250810190610ba19190612590565b93506000610bb563ffffffff8316426124f0565b9050610bea86610bc55784610bc7565b835b610bdb88610bd55785611430565b86611430565b6001600160e01b031690611449565b610bfd906001600160e01b0316826125a9565b610c0790866125c8565b979650505050505050565b6000806000806000806000610c788c8b8b8e610c4f5760408051600960208201520160405160208183030381529060405280519060200120610c72565b60408051600a602082015201604051602081830303815290604052805190602001205b8c61034b565b939a50939850909650945090925090506000610c9482876124f0565b90508015610cda57610cba8c610caa5784610cac565b835b610bdb8e610bd55785611430565b610ccd906001600160e01b0316826125a9565b610cd790866125c8565b94505b5050505060008242610cec91906124f0565b90508082610cfa8c8c610a65565b610d0491906124f0565b610d0e91906125f6565b94505050509550959350505050565b600080600080610d30856000015161145e565b6040516bffffffffffffffffffffffff1960608b901b166020820152909550909350909150600090610d81908390603401604051602081830303815290604052805190602001208860200151610f47565b90506000610d96610d918361157f565b6115ce565b9050610dbb81600281518110610dae57610dae61260a565b60200260200101516116ed565b95505050509250925092565b6000816001600160a01b031663ac784ddc6040518163ffffffff1660e01b8152600401602060405180830381865afa158015610e07573d6000803e3d6000fd5b505050506040513d601f19601f82011682018060405250810190610e2b9190612620565b15610e3f5750670de0b6b3a7640000919050565b6000826001600160a01b0316636f307dc36040518163ffffffff1660e01b8152600401602060405180830381865afa158015610e7f573d6000803e3d6000fd5b505050506040513d601f19601f82011682018060405250810190610ea39190612507565b90506000816001600160a01b031663313ce5676040518163ffffffff1660e01b8152600401602060405180830381865afa158015610ee5573d6000803e3d6000fd5b505050506040513d601f19601f82011682018060405250810190610f09919061263d565b610f179060ff16600a61273e565b905080610f23836112f5565b610f3590670de0b6b3a76400006125a9565b610f3f91906125f6565b949350505050565b60606000610f548361157f565b90506000610f61826115ce565b60408051602180825260608281019093529293509091829189916000918291602082018180368337019050509050896021820152610f9e816116f8565b9050610fc386600081518110610fb657610fb661260a565b60200260200101516118b0565b945060005b86518110156112995781518311156110125760405162461bcd60e51b815260206004820152600d60248201526c50617468206f766572666c6f7760981b60448201526064016103c8565b611027878281518110610fb657610fb661260a565b9550858051906020012084146110785760405162461bcd60e51b81526020600482015260166024820152756e6f646520646f65736e2774206d61746368206b657960501b60448201526064016103c8565b61109a87828151811061108d5761108d61260a565b60200260200101516115ce565b945084516011141561116f5781518314156110e1576110d2856010815181106110c5576110c561260a565b6020026020010151611954565b985050505050505050506112db565b60008284815181106110f5576110f561260a565b016020015160f81c905060108111156111425760405162461bcd60e51b815260206004820152600f60248201526e6e6962626c6520746f6f206c6f6e6760881b60448201526064016103c8565b61115a868260ff1681518110610dae57610dae61260a565b94506111676001856125c8565b935050611287565b84516002141561123f57611199611192866000815181106110c5576110c561260a565b83856119cb565b6111a390846125c8565b925081518314156111c4576110d2856001815181106110c5576110c561260a565b6111dd611192866000815181106110c5576110c561260a565b6112225760405162461bcd60e51b8152602060048201526016602482015275696e76616c696420657874656e73696f6e206e6f646560501b60448201526064016103c8565b61123885600181518110610dae57610dae61260a565b9350611287565b60405162461bcd60e51b815260206004820152601760248201527f756e6578706563746564206c656e67746820617272617900000000000000000060448201526064016103c8565b806112918161274a565b915050610fc8565b5060405162461bcd60e51b81526020600482015260166024820152756e6f7420656e6f7567682070726f6f66206e6f64657360501b60448201526064016103c8565b9392505050565b60006107f66112f08361157f565b611ad5565b600080546001600160a01b03838116620100009092041614156113215750670de0b6b3a7640000919050565b6001600160a01b03821660009081526003602090815260409182902082518084019093528054808452600190910154918301919091521580159061137c575060025461137790600160a81b900460ff16436124f0565b815110155b801561139f575060025461139a90600160a01b900460ff16436124f0565b815111155b156113ae576020015192915050565b60405162461bcd60e51b8152602060048201526044602482018190527f4e6f2076616c69642070726f6f662070726f766964656420666f722074686520908201527f72616e6765205b6d696e426c6f636b734261636b3b206d6178426c6f636b734260648201526361636b5d60e01b608482015260a4016103c8565b50919050565b60006107f6600160701b6001600160701b038416612765565b60006112db6001600160701b03831684612794565b60008060006114c7565b62461bcd60e51b6000526020600452816024528060445250806044016000fd5b600080825160001a60808110600181146114a75780156114b3576114c0565b849350600192506114c0565b6001850193506080820392505b5050915091565b83516020850194607b81019060009081906101e0016114e581611488565b0190506114f181611488565b925092505060008082840161150581611488565b01905061151181611488565b01905061151d81611488565b9250925050835160088402610100031c965086409350858a209550858414611561576115616014730c4d8dec6d690c2e6d040427a40e4d8e090c2e6d60631b611468565b84519850815160088202610100031c97505050505050509193909250565b60408051808201909152600080825260208201528151806115b55750506040805180820190915260008082526020820152919050565b6040805180820190915260209384018152928301525090565b60606115d982611bd3565b61161c5760405162461bcd60e51b8152602060048201526014602482015273526c702e736f6c3a526c703a746f4c6973743a3160601b60448201526064016103c8565b600061162783611bfa565b905060008167ffffffffffffffff8111156116445761164461210f565b60405190808252806020026020018201604052801561168957816020015b60408051808201909152600080825260208201528152602001906001900390816116625790505b509050600061169785611c8c565b905060005b6116a582611d4b565b156116e3576116b382611d6f565b8382815181106116c5576116c561260a565b602002602001018190525080806116db9061274a565b91505061169c565b5090949350505050565b60006107f682611ad5565b60608082516000141561170b5792915050565b600080611719600086611e02565b60f81c9050600181148061173057508060ff166003145b156117d85760018551600261174591906125a9565b61174f91906124f0565b67ffffffffffffffff8111156117675761176761210f565b6040519080825280601f01601f191660200182016040528015611791576020820181803683370190505b50925060006117a1600187611e02565b905080846000815181106117b7576117b761260a565b60200101906001600160f81b031916908160001a905350600192505061183c565b6002855160026117e891906125a9565b6117f291906124f0565b67ffffffffffffffff81111561180a5761180a61210f565b6040519080825280601f01601f191660200182016040528015611834576020820181803683370190505b509250600091505b60ff82165b83518110156118a65761186b61185a60ff8516836124f0565b6118659060026125c8565b87611e02565b84828151811061187d5761187d61260a565b60200101906001600160f81b031916908160001a9053508061189e8161274a565b915050611841565b5091949350505050565b6020810151606090806118fd5760405162461bcd60e51b81526020600482015260156024820152742936381739b7b61d2936381d3a37a13cba32b99d1960591b60448201526064016103c8565b60608167ffffffffffffffff8111156119185761191861210f565b6040519080825280601f01601f191660200182016040528015611942576020820181803683370190505b5090506112db84600001518284611e83565b606061195f82611ec1565b61196857600080fd5b60008061197484611ee7565b9150915060608167ffffffffffffffff8111156119935761199361210f565b6040519080825280601f01601f1916602001820160405280156119bd576020820181803683370190505b509050610f3f838284611e83565b60008060006119d9866116f8565b90506000815167ffffffffffffffff8111156119f7576119f761210f565b6040519080825280601f01601f191660200182016040528015611a21576020820181803683370190505b509050845b8251611a3290876125c8565b811015611aa5576000878281518110611a4d57611a4d61260a565b01602001516001600160f81b03191690508083611a6a89856124f0565b81518110611a7a57611a7a61260a565b60200101906001600160f81b031916908160001a905350508080611a9d9061274a565b915050611a26565b50808051906020012082805190602001201415611ac55781519250611aca565b600092505b509095945050505050565b6000611ae082611ec1565b611b235760405162461bcd60e51b8152602060048201526014602482015273526c702e736f6c3a526c703a746f55696e743a3160601b60448201526064016103c8565b600080611b2f84611ee7565b915091506020811115611b7b5760405162461bcd60e51b8152602060048201526014602482015273526c702e736f6c3a526c703a746f55696e743a3360601b60448201526064016103c8565b80611bbf5760405162461bcd60e51b8152602060048201526014602482015273149b1c0b9cdbdb0e949b1c0e9d1bd55a5b9d0e8d60621b60448201526064016103c8565b90516020919091036101000a900492915050565b6000816020015160001415611bea57506000919050565b50515160c060009190911a101590565b6000611c0582611bd3565b611c1157506000919050565b81518051600090811a9190611c2585611fc5565b611c2f90836125c8565b905060006001866020015184611c4591906125c8565b611c4f91906124f0565b905060005b818311611c8257611c648361204b565b611c6e90846125c8565b925080611c7a8161274a565b915050611c54565b9695505050505050565b6040805160808101825260009181018281526060820183905281526020810191909152611cb882611bd3565b611cfd5760405162461bcd60e51b8152602060048201526016602482015275526c702e736f6c3a526c703a6974657261746f723a3160501b60448201526064016103c8565b6000611d0883611fc5565b8351611d1491906125c8565b9050611d3f604080516080810182526000918101828152606082018390528152602081019190915290565b92835260208301525090565b80516020810151815160009291611d61916125c8565b836020015110915050919050565b6040805180820190915260008082526020820152611d8c82611d4b565b611dcd5760405162461bcd60e51b8152602060048201526012602482015271526c702e736f6c3a526c703a6e6578743a3160701b60448201526064016103c8565b60208201516000611ddd8261204b565b828452602084018190529050611df381836125c8565b60209094019390935250919050565b6000611e0f6002846127ba565b15611e4957601082611e226002866125f6565b81518110611e3257611e3261260a565b0160200151611e44919060f81c6127ce565b611e79565b601082611e576002866125f6565b81518110611e6757611e6761260a565b0160200151611e79919060f81c6127f0565b60f81b9392505050565b6020601f820104836020840160005b83811015611eae57602081028381015190830152600101611e92565b5050505060008251602001830152505050565b6000816020015160001415611ed857506000919050565b50515160c060009190911a1090565b600080611ef383611ec1565b611f375760405162461bcd60e51b8152602060048201526015602482015274526c702e736f6c3a526c703a5f6465636f64653a3160581b60448201526064016103c8565b8251805160001a906080821015611f5357946001945092505050565b60b8821015611f815760018560200151611f6d91906124f0565b9250611f7a8160016125c8565b93506114c0565b602085015160b6198301908190611f9a906001906124f0565b611fa491906124f0565b9350611fb081836125c8565b611fbb9060016125c8565b9450505050915091565b6000816020015160001415611fdc57506000919050565b8151805160001a906080821015611ff7575060009392505050565b60b8821080612012575060c08210158015612012575060f882105b15612021575060019392505050565b60c08210156120405761203560b7836124f0565b610f3f9060016125c8565b61203560f7836124f0565b8051600090811a6080811015612064576001915061142a565b60b881101561208a576120786080826124f0565b6120839060016125c8565b915061142a565b60c08110156120b357600183015160b76020839003016101000a9004810160b51901915061142a565b60f88110156120c75761207860c0826124f0565b6001929092015160f76020849003016101000a900490910160f51901919050565b6001600160a01b03811681146120fd57600080fd5b50565b60ff811681146120fd57600080fd5b634e487b7160e01b600052604160045260246000fd5b6040516080810167ffffffffffffffff811182821017156121485761214861210f565b60405290565b600082601f83011261215f57600080fd5b813567ffffffffffffffff8082111561217a5761217a61210f565b604051601f8301601f19908116603f011681019082821181831017156121a2576121a261210f565b816040528381528660208588010111156121bb57600080fd5b836020870160208301376000602085830101528094505050505092915050565b6000608082840312156121ed57600080fd5b6121f5612125565b9050813567ffffffffffffffff8082111561220f57600080fd5b61221b8583860161214e565b8352602084013591508082111561223157600080fd5b61223d8583860161214e565b6020840152604084013591508082111561225657600080fd5b6122628583860161214e565b6040840152606084013591508082111561227b57600080fd5b506122888482850161214e565b60608301525092915050565b600080600080600060a086880312156122ac57600080fd5b85356122b7816120e8565b945060208601356122c781612100565b935060408601356122d781612100565b925060608601359150608086013567ffffffffffffffff8111156122fa57600080fd5b612306888289016121db565b9150509295509295909350565b600080600080600060a0868803121561232b57600080fd5b8535612336816120e8565b94506020860135612346816120e8565b93506040860135612356816120e8565b9250606086013561236681612100565b9150608086013561237681612100565b809150509295509295909350565b600080600080600060a0868803121561239c57600080fd5b85356123a7816120e8565b945060208601356123b7816120e8565b935060408601356123c781612100565b925060608601356123d781612100565b9150608086013567ffffffffffffffff8111156122fa57600080fd5b60006020828403121561240557600080fd5b81356112db816120e8565b6000806040838503121561242357600080fd5b823561242e816120e8565b9150602083013567ffffffffffffffff81111561244a57600080fd5b612456858286016121db565b9150509250929050565b80151581146120fd57600080fd5b6000806040838503121561248157600080fd5b823561248c816120e8565b9150602083013561249c81612460565b809150509250929050565b600080600080600060a086880312156124bf57600080fd5b85356124ca816120e8565b945060208601356123b781612460565b634e487b7160e01b600052601160045260246000fd5b600082821015612502576125026124da565b500390565b60006020828403121561251957600080fd5b81516112db816120e8565b80516001600160701b038116811461253b57600080fd5b919050565b60008060006060848603121561255557600080fd5b61255e84612524565b925061256c60208501612524565b9150604084015163ffffffff8116811461258557600080fd5b809150509250925092565b6000602082840312156125a257600080fd5b5051919050565b60008160001904831182151516156125c3576125c36124da565b500290565b600082198211156125db576125db6124da565b500190565b634e487b7160e01b600052601260045260246000fd5b600082612605576126056125e0565b500490565b634e487b7160e01b600052603260045260246000fd5b60006020828403121561263257600080fd5b81516112db81612460565b60006020828403121561264f57600080fd5b81516112db81612100565b600181815b8085111561269557816000190482111561267b5761267b6124da565b8085161561268857918102915b93841c939080029061265f565b509250929050565b6000826126ac575060016107f6565b816126b9575060006107f6565b81600181146126cf57600281146126d9576126f5565b60019150506107f6565b60ff8411156126ea576126ea6124da565b50506001821b6107f6565b5060208310610133831016604e8410600b8410161715612718575081810a6107f6565b612722838361265a565b8060001904821115612736576127366124da565b029392505050565b60006112db838361269d565b600060001982141561275e5761275e6124da565b5060010190565b60006001600160e01b038281168482168115158284048211161561278b5761278b6124da565b02949350505050565b60006001600160e01b03838116806127ae576127ae6125e0565b92169190910492915050565b6000826127c9576127c96125e0565b500690565b600060ff8316806127e1576127e16125e0565b8060ff84160691505092915050565b600060ff831680612803576128036125e0565b8060ff8416049150509291505056fea2646970667358221220a09b46106b5c8c125334b7deb7de458d46e07f491dcd75b4247bb48b38c094df64736f6c634300080b0033",
  "devdoc": {
    "author": "vminkov",
    "details": "Implements `PriceOracle` and `BasePriceOracle`.",
    "kind": "dev",
    "methods": {
      "getUnderlyingPrice(address)": {
        "details": "Implements the `PriceOracle` interface for Fuse pools (and Compound v2).",
        "returns": {
          "_0": "Price in ETH of the token underlying `cToken`, scaled by `10 ** (36 - underlyingDecimals)`."
        }
      },
      "initialize(address,address,address,uint8,uint8)": {
        "details": "Constructor that sets the UniswapV2Factory, denomination token and min/max blocks back."
      },
      "price(address)": {
        "details": "Returns the price in ETH of `underlying` (implements `BasePriceOracle`)."
      }
    },
    "stateVariables": {
      "denominationToken": {
        "details": "The token on which to base TWAPs (its price must be available via `msg.sender`)."
      },
      "maxBlocksBack": {
        "details": "the minimum blocks back for the price proof to be accepted; used to take the mean of the current price and the past price"
      },
      "minBlocksBack": {
        "details": "the minimum blocks back for the price proof to be accepted; used to take the mean of the current price and the past price"
      },
      "uniswapV2Factory": {
        "details": "UniswapV2Factory contract address."
      },
      "wtoken": {
        "details": "wtoken token contract address."
      }
    },
    "title": "KeydonixUniswapTwapPriceOracle",
    "version": 1
  },
  "userdoc": {
    "kind": "user",
    "methods": {
      "getUnderlyingPrice(address)": {
        "notice": "Returns the price in ETH of the token underlying `cToken`."
      }
    },
    "notice": "Stores cumulative prices and returns TWAPs for assets on Uniswap V2 pairs.",
    "version": 1
  },
  "storageLayout": {
    "storage": [
      {
        "astId": 212,
        "contract": "contracts/oracles/default/KeydonixUniswapTwapPriceOracle.sol:KeydonixUniswapTwapPriceOracle",
        "label": "_initialized",
        "offset": 0,
        "slot": "0",
        "type": "t_bool"
      },
      {
        "astId": 215,
        "contract": "contracts/oracles/default/KeydonixUniswapTwapPriceOracle.sol:KeydonixUniswapTwapPriceOracle",
        "label": "_initializing",
        "offset": 1,
        "slot": "0",
        "type": "t_bool"
      },
      {
        "astId": 41260,
        "contract": "contracts/oracles/default/KeydonixUniswapTwapPriceOracle.sol:KeydonixUniswapTwapPriceOracle",
        "label": "wtoken",
        "offset": 2,
        "slot": "0",
        "type": "t_address"
      },
      {
        "astId": 41263,
        "contract": "contracts/oracles/default/KeydonixUniswapTwapPriceOracle.sol:KeydonixUniswapTwapPriceOracle",
        "label": "uniswapV2Factory",
        "offset": 0,
        "slot": "1",
        "type": "t_address"
      },
      {
        "astId": 41266,
        "contract": "contracts/oracles/default/KeydonixUniswapTwapPriceOracle.sol:KeydonixUniswapTwapPriceOracle",
        "label": "denominationToken",
        "offset": 0,
        "slot": "2",
        "type": "t_address"
      },
      {
        "astId": 41269,
        "contract": "contracts/oracles/default/KeydonixUniswapTwapPriceOracle.sol:KeydonixUniswapTwapPriceOracle",
        "label": "minBlocksBack",
        "offset": 20,
        "slot": "2",
        "type": "t_uint8"
      },
      {
        "astId": 41272,
        "contract": "contracts/oracles/default/KeydonixUniswapTwapPriceOracle.sol:KeydonixUniswapTwapPriceOracle",
        "label": "maxBlocksBack",
        "offset": 21,
        "slot": "2",
        "type": "t_uint8"
      },
      {
        "astId": 41277,
        "contract": "contracts/oracles/default/KeydonixUniswapTwapPriceOracle.sol:KeydonixUniswapTwapPriceOracle",
        "label": "priceVerifications",
        "offset": 0,
        "slot": "3",
        "type": "t_mapping(t_address,t_struct(PriceVerification)41282_storage)"
      }
    ],
    "types": {
      "t_address": {
        "encoding": "inplace",
        "label": "address",
        "numberOfBytes": "20"
      },
      "t_bool": {
        "encoding": "inplace",
        "label": "bool",
        "numberOfBytes": "1"
      },
      "t_mapping(t_address,t_struct(PriceVerification)41282_storage)": {
        "encoding": "mapping",
        "key": "t_address",
        "label": "mapping(address => struct KeydonixUniswapTwapPriceOracle.PriceVerification)",
        "numberOfBytes": "32",
        "value": "t_struct(PriceVerification)41282_storage"
      },
      "t_struct(PriceVerification)41282_storage": {
        "encoding": "inplace",
        "label": "struct KeydonixUniswapTwapPriceOracle.PriceVerification",
        "members": [
          {
            "astId": 41279,
            "contract": "contracts/oracles/default/KeydonixUniswapTwapPriceOracle.sol:KeydonixUniswapTwapPriceOracle",
            "label": "blockNumber",
            "offset": 0,
            "slot": "0",
            "type": "t_uint256"
          },
          {
            "astId": 41281,
            "contract": "contracts/oracles/default/KeydonixUniswapTwapPriceOracle.sol:KeydonixUniswapTwapPriceOracle",
            "label": "price",
            "offset": 0,
            "slot": "1",
            "type": "t_uint256"
          }
        ],
        "numberOfBytes": "64"
      },
      "t_uint256": {
        "encoding": "inplace",
        "label": "uint256",
        "numberOfBytes": "32"
      },
      "t_uint8": {
        "encoding": "inplace",
        "label": "uint8",
        "numberOfBytes": "1"
      }
    }
  }
}