{
  "abi": [
    {
      "inputs": [
        {
          "internalType": "address",
          "name": "timelock_",
          "type": "address"
        },
        {
          "internalType": "address",
          "name": "comp_",
          "type": "address"
        },
        {
          "internalType": "address",
          "name": "guardian_",
          "type": "address"
        }
      ],
      "stateMutability": "nonpayable",
      "type": "constructor"
    },
    {
      "anonymous": false,
      "inputs": [
        {
          "indexed": false,
          "internalType": "uint256",
          "name": "id",
          "type": "uint256"
        }
      ],
      "name": "ProposalCanceled",
      "type": "event"
    },
    {
      "anonymous": false,
      "inputs": [
        {
          "indexed": false,
          "internalType": "uint256",
          "name": "id",
          "type": "uint256"
        },
        {
          "indexed": false,
          "internalType": "address",
          "name": "proposer",
          "type": "address"
        },
        {
          "indexed": false,
          "internalType": "address[]",
          "name": "targets",
          "type": "address[]"
        },
        {
          "indexed": false,
          "internalType": "uint256[]",
          "name": "values",
          "type": "uint256[]"
        },
        {
          "indexed": false,
          "internalType": "string[]",
          "name": "signatures",
          "type": "string[]"
        },
        {
          "indexed": false,
          "internalType": "bytes[]",
          "name": "calldatas",
          "type": "bytes[]"
        },
        {
          "indexed": false,
          "internalType": "uint256",
          "name": "startBlock",
          "type": "uint256"
        },
        {
          "indexed": false,
          "internalType": "uint256",
          "name": "endBlock",
          "type": "uint256"
        },
        {
          "indexed": false,
          "internalType": "string",
          "name": "description",
          "type": "string"
        }
      ],
      "name": "ProposalCreated",
      "type": "event"
    },
    {
      "anonymous": false,
      "inputs": [
        {
          "indexed": false,
          "internalType": "uint256",
          "name": "id",
          "type": "uint256"
        }
      ],
      "name": "ProposalExecuted",
      "type": "event"
    },
    {
      "anonymous": false,
      "inputs": [
        {
          "indexed": false,
          "internalType": "uint256",
          "name": "id",
          "type": "uint256"
        },
        {
          "indexed": false,
          "internalType": "uint256",
          "name": "eta",
          "type": "uint256"
        }
      ],
      "name": "ProposalQueued",
      "type": "event"
    },
    {
      "anonymous": false,
      "inputs": [
        {
          "indexed": false,
          "internalType": "address",
          "name": "voter",
          "type": "address"
        },
        {
          "indexed": false,
          "internalType": "uint256",
          "name": "proposalId",
          "type": "uint256"
        },
        {
          "indexed": false,
          "internalType": "bool",
          "name": "support",
          "type": "bool"
        },
        {
          "indexed": false,
          "internalType": "uint256",
          "name": "votes",
          "type": "uint256"
        }
      ],
      "name": "VoteCast",
      "type": "event"
    },
    {
      "inputs": [],
      "name": "BALLOT_TYPEHASH",
      "outputs": [
        {
          "internalType": "bytes32",
          "name": "",
          "type": "bytes32"
        }
      ],
      "stateMutability": "view",
      "type": "function"
    },
    {
      "inputs": [],
      "name": "DOMAIN_TYPEHASH",
      "outputs": [
        {
          "internalType": "bytes32",
          "name": "",
          "type": "bytes32"
        }
      ],
      "stateMutability": "view",
      "type": "function"
    },
    {
      "inputs": [],
      "name": "__abdicate",
      "outputs": [],
      "stateMutability": "nonpayable",
      "type": "function"
    },
    {
      "inputs": [],
      "name": "__acceptAdmin",
      "outputs": [],
      "stateMutability": "nonpayable",
      "type": "function"
    },
    {
      "inputs": [
        {
          "internalType": "address",
          "name": "newPendingAdmin",
          "type": "address"
        },
        {
          "internalType": "uint256",
          "name": "eta",
          "type": "uint256"
        }
      ],
      "name": "__executeSetTimelockPendingAdmin",
      "outputs": [],
      "stateMutability": "nonpayable",
      "type": "function"
    },
    {
      "inputs": [
        {
          "internalType": "address",
          "name": "newPendingAdmin",
          "type": "address"
        },
        {
          "internalType": "uint256",
          "name": "eta",
          "type": "uint256"
        }
      ],
      "name": "__queueSetTimelockPendingAdmin",
      "outputs": [],
      "stateMutability": "nonpayable",
      "type": "function"
    },
    {
      "inputs": [
        {
          "internalType": "uint256",
          "name": "proposalId",
          "type": "uint256"
        }
      ],
      "name": "cancel",
      "outputs": [],
      "stateMutability": "nonpayable",
      "type": "function"
    },
    {
      "inputs": [
        {
          "internalType": "uint256",
          "name": "proposalId",
          "type": "uint256"
        },
        {
          "internalType": "bool",
          "name": "support",
          "type": "bool"
        }
      ],
      "name": "castVote",
      "outputs": [],
      "stateMutability": "nonpayable",
      "type": "function"
    },
    {
      "inputs": [
        {
          "internalType": "uint256",
          "name": "proposalId",
          "type": "uint256"
        },
        {
          "internalType": "bool",
          "name": "support",
          "type": "bool"
        },
        {
          "internalType": "uint8",
          "name": "v",
          "type": "uint8"
        },
        {
          "internalType": "bytes32",
          "name": "r",
          "type": "bytes32"
        },
        {
          "internalType": "bytes32",
          "name": "s",
          "type": "bytes32"
        }
      ],
      "name": "castVoteBySig",
      "outputs": [],
      "stateMutability": "nonpayable",
      "type": "function"
    },
    {
      "inputs": [],
      "name": "comp",
      "outputs": [
        {
          "internalType": "contract CompInterface",
          "name": "",
          "type": "address"
        }
      ],
      "stateMutability": "view",
      "type": "function"
    },
    {
      "inputs": [
        {
          "internalType": "uint256",
          "name": "proposalId",
          "type": "uint256"
        }
      ],
      "name": "execute",
      "outputs": [],
      "stateMutability": "payable",
      "type": "function"
    },
    {
      "inputs": [
        {
          "internalType": "uint256",
          "name": "proposalId",
          "type": "uint256"
        }
      ],
      "name": "getActions",
      "outputs": [
        {
          "internalType": "address[]",
          "name": "targets",
          "type": "address[]"
        },
        {
          "internalType": "uint256[]",
          "name": "values",
          "type": "uint256[]"
        },
        {
          "internalType": "string[]",
          "name": "signatures",
          "type": "string[]"
        },
        {
          "internalType": "bytes[]",
          "name": "calldatas",
          "type": "bytes[]"
        }
      ],
      "stateMutability": "view",
      "type": "function"
    },
    {
      "inputs": [
        {
          "internalType": "uint256",
          "name": "proposalId",
          "type": "uint256"
        },
        {
          "internalType": "address",
          "name": "voter",
          "type": "address"
        }
      ],
      "name": "getReceipt",
      "outputs": [
        {
          "components": [
            {
              "internalType": "bool",
              "name": "hasVoted",
              "type": "bool"
            },
            {
              "internalType": "bool",
              "name": "support",
              "type": "bool"
            },
            {
              "internalType": "uint96",
              "name": "votes",
              "type": "uint96"
            }
          ],
          "internalType": "struct GovernorAlpha.Receipt",
          "name": "",
          "type": "tuple"
        }
      ],
      "stateMutability": "view",
      "type": "function"
    },
    {
      "inputs": [],
      "name": "guardian",
      "outputs": [
        {
          "internalType": "address",
          "name": "",
          "type": "address"
        }
      ],
      "stateMutability": "view",
      "type": "function"
    },
    {
      "inputs": [
        {
          "internalType": "address",
          "name": "",
          "type": "address"
        }
      ],
      "name": "latestProposalIds",
      "outputs": [
        {
          "internalType": "uint256",
          "name": "",
          "type": "uint256"
        }
      ],
      "stateMutability": "view",
      "type": "function"
    },
    {
      "inputs": [],
      "name": "name",
      "outputs": [
        {
          "internalType": "string",
          "name": "",
          "type": "string"
        }
      ],
      "stateMutability": "view",
      "type": "function"
    },
    {
      "inputs": [],
      "name": "proposalCount",
      "outputs": [
        {
          "internalType": "uint256",
          "name": "",
          "type": "uint256"
        }
      ],
      "stateMutability": "view",
      "type": "function"
    },
    {
      "inputs": [],
      "name": "proposalMaxOperations",
      "outputs": [
        {
          "internalType": "uint256",
          "name": "",
          "type": "uint256"
        }
      ],
      "stateMutability": "pure",
      "type": "function"
    },
    {
      "inputs": [],
      "name": "proposalThreshold",
      "outputs": [
        {
          "internalType": "uint256",
          "name": "",
          "type": "uint256"
        }
      ],
      "stateMutability": "pure",
      "type": "function"
    },
    {
      "inputs": [
        {
          "internalType": "uint256",
          "name": "",
          "type": "uint256"
        }
      ],
      "name": "proposals",
      "outputs": [
        {
          "internalType": "uint256",
          "name": "id",
          "type": "uint256"
        },
        {
          "internalType": "address",
          "name": "proposer",
          "type": "address"
        },
        {
          "internalType": "uint256",
          "name": "eta",
          "type": "uint256"
        },
        {
          "internalType": "uint256",
          "name": "startBlock",
          "type": "uint256"
        },
        {
          "internalType": "uint256",
          "name": "endBlock",
          "type": "uint256"
        },
        {
          "internalType": "uint256",
          "name": "forVotes",
          "type": "uint256"
        },
        {
          "internalType": "uint256",
          "name": "againstVotes",
          "type": "uint256"
        },
        {
          "internalType": "bool",
          "name": "canceled",
          "type": "bool"
        },
        {
          "internalType": "bool",
          "name": "executed",
          "type": "bool"
        }
      ],
      "stateMutability": "view",
      "type": "function"
    },
    {
      "inputs": [
        {
          "internalType": "address[]",
          "name": "targets",
          "type": "address[]"
        },
        {
          "internalType": "uint256[]",
          "name": "values",
          "type": "uint256[]"
        },
        {
          "internalType": "string[]",
          "name": "signatures",
          "type": "string[]"
        },
        {
          "internalType": "bytes[]",
          "name": "calldatas",
          "type": "bytes[]"
        },
        {
          "internalType": "string",
          "name": "description",
          "type": "string"
        }
      ],
      "name": "propose",
      "outputs": [
        {
          "internalType": "uint256",
          "name": "",
          "type": "uint256"
        }
      ],
      "stateMutability": "nonpayable",
      "type": "function"
    },
    {
      "inputs": [
        {
          "internalType": "uint256",
          "name": "proposalId",
          "type": "uint256"
        }
      ],
      "name": "queue",
      "outputs": [],
      "stateMutability": "nonpayable",
      "type": "function"
    },
    {
      "inputs": [],
      "name": "quorumVotes",
      "outputs": [
        {
          "internalType": "uint256",
          "name": "",
          "type": "uint256"
        }
      ],
      "stateMutability": "pure",
      "type": "function"
    },
    {
      "inputs": [
        {
          "internalType": "uint256",
          "name": "proposalId",
          "type": "uint256"
        }
      ],
      "name": "state",
      "outputs": [
        {
          "internalType": "enum GovernorAlpha.ProposalState",
          "name": "",
          "type": "uint8"
        }
      ],
      "stateMutability": "view",
      "type": "function"
    },
    {
      "inputs": [],
      "name": "timelock",
      "outputs": [
        {
          "internalType": "contract TimelockInterface",
          "name": "",
          "type": "address"
        }
      ],
      "stateMutability": "view",
      "type": "function"
    },
    {
      "inputs": [],
      "name": "votingDelay",
      "outputs": [
        {
          "internalType": "uint256",
          "name": "",
          "type": "uint256"
        }
      ],
      "stateMutability": "pure",
      "type": "function"
    },
    {
      "inputs": [],
      "name": "votingPeriod",
      "outputs": [
        {
          "internalType": "uint256",
          "name": "",
          "type": "uint256"
        }
      ],
      "stateMutability": "pure",
      "type": "function"
    }
  ],
  "bytecode": {
    "object": "0x60806040523480156200001157600080fd5b506040516200318e3803806200318e833981016040819052620000349162000094565b600080546001600160a01b039485166001600160a01b031991821617909155600180549385169382169390931790925560028054919093169116179055620000de565b80516001600160a01b03811681146200008f57600080fd5b919050565b600080600060608486031215620000aa57600080fd5b620000b58462000077565b9250620000c56020850162000077565b9150620000d56040850162000077565b90509250925092565b6130a080620000ee6000396000f3fe60806040526004361061019c5760003560e01c8063452a9320116100ec578063d33219b41161008a578063ddf0b00911610064578063ddf0b00914610573578063deaaa7cc14610593578063e23a9a52146105c7578063fe0d94c11461069257600080fd5b8063d33219b41461051d578063da35c6641461053d578063da95691a1461055357600080fd5b80637bdbe4d0116100c65780637bdbe4d0146104b757806391500671146104cb578063b58131b0146104eb578063b9a619611461050857600080fd5b8063452a9320146104625780634634c61f14610482578063760fbc13146104a257600080fd5b806320606b7011610159578063328dd98211610133578063328dd982146103d15780633932abb1146104015780633e4f49e61461041557806340e58ee51461044257600080fd5b806320606b701461036057806321f43e421461039457806324bc1a64146103b457600080fd5b8063013cf08b146101a157806302a251a31461026a57806306fdde0314610289578063109d0af8146102d957806315373e3d1461031157806317977c6114610333575b600080fd5b3480156101ad57600080fd5b506102156101bc366004612619565b6004602052600090815260409020805460018201546002830154600784015460088501546009860154600a870154600b9097015495966001600160a01b0390951695939492939192909160ff8082169161010090041689565b60408051998a526001600160a01b0390981660208a0152968801959095526060870193909352608086019190915260a085015260c0840152151560e08301521515610100820152610120015b60405180910390f35b34801561027657600080fd5b506143805b604051908152602001610261565b34801561029557600080fd5b506102cc60405180604001604052806017815260200176436f6d706f756e6420476f7665726e6f7220416c70686160481b81525081565b604051610261919061268a565b3480156102e557600080fd5b506001546102f9906001600160a01b031681565b6040516001600160a01b039091168152602001610261565b34801561031d57600080fd5b5061033161032c3660046126ab565b6106a5565b005b34801561033f57600080fd5b5061027b61034e3660046126f7565b60056020526000908152604090205481565b34801561036c57600080fd5b5061027b7f8cad95687ba82c2ce50e74f7b754645e5117c3a5bec8151c0726d5857980a86681565b3480156103a057600080fd5b506103316103af366004612712565b6106b4565b3480156103c057600080fd5b506954b40b1f852bda00000061027b565b3480156103dd57600080fd5b506103f16103ec366004612619565b6107ee565b6040516102619493929190612805565b34801561040d57600080fd5b50600161027b565b34801561042157600080fd5b50610435610430366004612619565b610a7f565b6040516102619190612873565b34801561044e57600080fd5b5061033161045d366004612619565b610c3c565b34801561046e57600080fd5b506002546102f9906001600160a01b031681565b34801561048e57600080fd5b5061033161049d36600461289b565b610f60565b3480156104ae57600080fd5b50610331611177565b3480156104c357600080fd5b50600a61027b565b3480156104d757600080fd5b506103316104e6366004612712565b611202565b3480156104f757600080fd5b5069152d02c7e14af680000061027b565b34801561051457600080fd5b5061033161132c565b34801561052957600080fd5b506000546102f9906001600160a01b031681565b34801561054957600080fd5b5061027b60035481565b34801561055f57600080fd5b5061027b61056e366004612bc1565b611407565b34801561057f57600080fd5b5061033161058e366004612619565b6119c0565b34801561059f57600080fd5b5061027b7f8e25870c07e0b0b3884c78da52790939a455c275406c44ae8b434b692fb916ee81565b3480156105d357600080fd5b506106636105e2366004612c93565b60408051606081018252600080825260208201819052918101919091525060009182526004602090815260408084206001600160a01b03939093168452600c9092018152918190208151606081018352905460ff80821615158352610100820416151593820193909352620100009092046001600160601b03169082015290565b60408051825115158152602080840151151590820152918101516001600160601b031690820152606001610261565b6103316106a0366004612619565b611cbf565b6106b0338383611f03565b5050565b6002546001600160a01b0316331461074e5760405162461bcd60e51b815260206004820152604c60248201527f476f7665726e6f72416c7068613a3a5f5f6578656375746553657454696d656c60448201527f6f636b50656e64696e6741646d696e3a2073656e646572206d7573742062652060648201526b33b7bb1033bab0b93234b0b760a11b608482015260a4015b60405180910390fd5b60008054604080516001600160a01b03868116602083015290921692630825f38f92849201604051602081830303815290604052856040518563ffffffff1660e01b81526004016107a29493929190612cbf565b6000604051808303816000875af11580156107c1573d6000803e3d6000fd5b505050506040513d6000823e601f3d908101601f191682016040526107e99190810190612d2b565b505050565b6060806060806000600460008781526020019081526020016000209050806003018160040182600501836006018380548060200260200160405190810160405280929190818152602001828054801561087057602002820191906000526020600020905b81546001600160a01b03168152600190910190602001808311610852575b50505050509350828054806020026020016040519081016040528092919081815260200182805480156108c257602002820191906000526020600020905b8154815260200190600101908083116108ae575b5050505050925081805480602002602001604051908101604052809291908181526020016000905b8282101561099657838290600052602060002001805461090990612da2565b80601f016020809104026020016040519081016040528092919081815260200182805461093590612da2565b80156109825780601f1061095757610100808354040283529160200191610982565b820191906000526020600020905b81548152906001019060200180831161096557829003601f168201915b5050505050815260200190600101906108ea565b50505050915080805480602002602001604051908101604052809291908181526020016000905b82821015610a695783829060005260206000200180546109dc90612da2565b80601f0160208091040260200160405190810160405280929190818152602001828054610a0890612da2565b8015610a555780601f10610a2a57610100808354040283529160200191610a55565b820191906000526020600020905b815481529060010190602001808311610a3857829003601f168201915b5050505050815260200190600101906109bd565b5050505090509450945094509450509193509193565b60008160035410158015610a935750600082115b610af15760405162461bcd60e51b815260206004820152602960248201527f476f7665726e6f72416c7068613a3a73746174653a20696e76616c69642070726044820152681bdc1bdcd85b081a5960ba1b6064820152608401610745565b6000828152600460205260409020600b81015460ff1615610b155750600292915050565b80600701544311610b295750600092915050565b80600801544311610b3d5750600192915050565b80600a01548160090154111580610b6157506954b40b1f852bda0000008160090154105b15610b6f5750600392915050565b6002810154610b815750600492915050565b600b810154610100900460ff1615610b9c5750600792915050565b610c1e816002015460008054906101000a90046001600160a01b03166001600160a01b031663c1a287e26040518163ffffffff1660e01b8152600401602060405180830381865afa158015610bf5573d6000803e3d6000fd5b505050506040513d601f19601f82011682018060405250810190610c199190612dd7565b612173565b4210610c2d5750600692915050565b50600592915050565b50919050565b6000610c4782610a7f565b90506007816007811115610c5d57610c5d61285d565b1415610cca5760405162461bcd60e51b815260206004820152603660248201527f476f7665726e6f72416c7068613a3a63616e63656c3a2063616e6e6f742063616044820152751b98d95b08195e1958dd5d1959081c1c9bdc1bdcd85b60521b6064820152608401610745565b60008281526004602052604090206002546001600160a01b0316331480610d975750600180548282015469152d02c7e14af6800000926001600160a01b039283169263782d6fe1921690610d1f9043906121cd565b6040516001600160e01b031960e085901b1681526001600160a01b0390921660048301526024820152604401602060405180830381865afa158015610d68573d6000803e3d6000fd5b505050506040513d601f19601f82011682018060405250810190610d8c9190612df0565b6001600160601b0316105b610dfb5760405162461bcd60e51b815260206004820152602f60248201527f476f7665726e6f72416c7068613a3a63616e63656c3a2070726f706f7365722060448201526e18589bdd99481d1a1c995cda1bdb19608a1b6064820152608401610745565b600b8101805460ff1916600117905560005b6003820154811015610f26576000546003830180546001600160a01b039092169163591fcdfe919084908110610e4557610e45612e19565b6000918252602090912001546004850180546001600160a01b039092169185908110610e7357610e73612e19565b9060005260206000200154856005018581548110610e9357610e93612e19565b90600052602060002001866006018681548110610eb257610eb2612e19565b9060005260206000200187600201546040518663ffffffff1660e01b8152600401610ee1959493929190612ed0565b600060405180830381600087803b158015610efb57600080fd5b505af1158015610f0f573d6000803e3d6000fd5b505050508080610f1e90612f32565b915050610e0d565b506040518381527f789cf55be980739dad1d0699b93b58e806b51c9d96619bfa8fe0a28abaa7b30c906020015b60405180910390a1505050565b6040805180820182526017815276436f6d706f756e6420476f7665726e6f7220416c70686160481b60209182015281517f8cad95687ba82c2ce50e74f7b754645e5117c3a5bec8151c0726d5857980a866818301527ff5eb22c2e7100465020c98b00537528808db4fec6eb24c550685a92742247bc581840152466060820152306080808301919091528351808303909101815260a0820184528051908301207f8e25870c07e0b0b3884c78da52790939a455c275406c44ae8b434b692fb916ee60c083015260e08201899052871515610100808401919091528451808403909101815261012083019094528351939092019290922061190160f01b6101408401526101428301829052610162830181905290916000906101820160408051601f198184030181528282528051602091820120600080855291840180845281905260ff8a169284019290925260608301889052608083018790529092509060019060a0016020604051602081039080840390855afa1580156110e6573d6000803e3d6000fd5b5050604051601f1901519150506001600160a01b0381166111615760405162461bcd60e51b815260206004820152602f60248201527f476f7665726e6f72416c7068613a3a63617374566f746542795369673a20696e60448201526e76616c6964207369676e617475726560881b6064820152608401610745565b61116c818a8a611f03565b505050505050505050565b6002546001600160a01b031633146111f05760405162461bcd60e51b815260206004820152603660248201527f476f7665726e6f72416c7068613a3a5f5f61626469636174653a2073656e6465604482015275391036bab9ba1031329033b7bb1033bab0b93234b0b760511b6064820152608401610745565b600280546001600160a01b0319169055565b6002546001600160a01b031633146112955760405162461bcd60e51b815260206004820152604a60248201527f476f7665726e6f72416c7068613a3a5f5f717565756553657454696d656c6f6360448201527f6b50656e64696e6741646d696e3a2073656e646572206d75737420626520676f6064820152693b1033bab0b93234b0b760b11b608482015260a401610745565b60008054604080516001600160a01b03868116602083015290921692633a66f90192849201604051602081830303815290604052856040518563ffffffff1660e01b81526004016112e99493929190612cbf565b6020604051808303816000875af1158015611308573d6000803e3d6000fd5b505050506040513d601f19601f820116820180604052508101906107e99190612dd7565b6002546001600160a01b031633146113ac5760405162461bcd60e51b815260206004820152603960248201527f476f7665726e6f72416c7068613a3a5f5f61636365707441646d696e3a20736560448201527f6e646572206d75737420626520676f7620677561726469616e000000000000006064820152608401610745565b6000805460408051630e18b68160e01b815290516001600160a01b0390921692630e18b6819260048084019382900301818387803b1580156113ed57600080fd5b505af1158015611401573d6000803e3d6000fd5b50505050565b600069152d02c7e14af6800000600180546001600160a01b03169063782d6fe19033906114359043906121cd565b6040516001600160e01b031960e085901b1681526001600160a01b0390921660048301526024820152604401602060405180830381865afa15801561147e573d6000803e3d6000fd5b505050506040513d601f19601f820116820180604052508101906114a29190612df0565b6001600160601b03161161151e5760405162461bcd60e51b815260206004820152603f60248201527f476f7665726e6f72416c7068613a3a70726f706f73653a2070726f706f73657260448201527f20766f7465732062656c6f772070726f706f73616c207468726573686f6c64006064820152608401610745565b84518651148015611530575083518651145b801561153d575082518651145b6115bd5760405162461bcd60e51b8152602060048201526044602482018190527f476f7665726e6f72416c7068613a3a70726f706f73653a2070726f706f73616c908201527f2066756e6374696f6e20696e666f726d6174696f6e206172697479206d69736d6064820152630c2e8c6d60e31b608482015260a401610745565b85516116205760405162461bcd60e51b815260206004820152602c60248201527f476f7665726e6f72416c7068613a3a70726f706f73653a206d7573742070726f60448201526b7669646520616374696f6e7360a01b6064820152608401610745565b600a865111156116835760405162461bcd60e51b815260206004820152602860248201527f476f7665726e6f72416c7068613a3a70726f706f73653a20746f6f206d616e7960448201526720616374696f6e7360c01b6064820152608401610745565b3360009081526005602052604090205480156118045760006116a482610a7f565b905060018160078111156116ba576116ba61285d565b14156117545760405162461bcd60e51b815260206004820152605860248201527f476f7665726e6f72416c7068613a3a70726f706f73653a206f6e65206c69766560448201527f2070726f706f73616c207065722070726f706f7365722c20666f756e6420616e60648201527f20616c7265616479206163746976652070726f706f73616c0000000000000000608482015260a401610745565b60008160078111156117685761176861285d565b14156118025760405162461bcd60e51b815260206004820152605960248201527f476f7665726e6f72416c7068613a3a70726f706f73653a206f6e65206c69766560448201527f2070726f706f73616c207065722070726f706f7365722c20666f756e6420616e60648201527f20616c72656164792070656e64696e672070726f706f73616c00000000000000608482015260a401610745565b505b6000611811436001612173565b9050600061182182614380612173565b60038054919250600061183383612f32565b909155505060038054600081815260046020908152604082209283556001830180546001600160a01b0319163317905560028301919091558b51919261187f92908401918d01906123c8565b50885161189590600483019060208c019061242d565b5087516118ab90600583019060208b0190612468565b5086516118c190600683019060208a01906124c1565b5082816007018190555081816008018190555060008160090181905550600081600a0181905550600081600b0160006101000a81548160ff021916908315150217905550600081600b0160016101000a81548160ff0219169083151502179055508060000154600560008360010160009054906101000a90046001600160a01b03166001600160a01b03166001600160a01b03168152602001908152602001600020819055507f7d84a6263ae0d98d3329bd7b46bb4e8d6f98cd35a7adb45c274c8b7fd5ebd5e08160000154338c8c8c8c89898e6040516119aa99989796959493929190612f4d565b60405180910390a1549998505050505050505050565b60046119cb82610a7f565b60078111156119dc576119dc61285d565b14611a5d5760405162461bcd60e51b8152602060048201526044602482018190527f476f7665726e6f72416c7068613a3a71756575653a2070726f706f73616c2063908201527f616e206f6e6c79206265207175657565642069662069742069732073756363656064820152631959195960e21b608482015260a401610745565b600081815260046020818152604080842084548251630d48571f60e31b81529251919594611ab79442946001600160a01b0390931693636a42b8f89380840193908290030181865afa158015610bf5573d6000803e3d6000fd5b905060005b6003830154811015611c8157611c6f836003018281548110611ae057611ae0612e19565b6000918252602090912001546004850180546001600160a01b039092169184908110611b0e57611b0e612e19565b9060005260206000200154856005018481548110611b2e57611b2e612e19565b906000526020600020018054611b4390612da2565b80601f0160208091040260200160405190810160405280929190818152602001828054611b6f90612da2565b8015611bbc5780601f10611b9157610100808354040283529160200191611bbc565b820191906000526020600020905b815481529060010190602001808311611b9f57829003601f168201915b5050505050866006018581548110611bd657611bd6612e19565b906000526020600020018054611beb90612da2565b80601f0160208091040260200160405190810160405280929190818152602001828054611c1790612da2565b8015611c645780601f10611c3957610100808354040283529160200191611c64565b820191906000526020600020905b815481529060010190602001808311611c4757829003601f168201915b505050505086612221565b80611c7981612f32565b915050611abc565b506002820181905560408051848152602081018390527f9a2e42fd6722813d69113e7d0079d3d940171428df7373df9c7f7617cfda28929101610f53565b6005611cca82610a7f565b6007811115611cdb57611cdb61285d565b14611d5c5760405162461bcd60e51b815260206004820152604560248201527f476f7665726e6f72416c7068613a3a657865637574653a2070726f706f73616c60448201527f2063616e206f6e6c7920626520657865637574656420696620697420697320716064820152641d595d595960da1b608482015260a401610745565b6000818152600460205260408120600b8101805461ff001916610100179055905b6003820154811015611ecb576000546004830180546001600160a01b0390921691630825f38f919084908110611db557611db5612e19565b9060005260206000200154846003018481548110611dd557611dd5612e19565b6000918252602090912001546004860180546001600160a01b039092169186908110611e0357611e03612e19565b9060005260206000200154866005018681548110611e2357611e23612e19565b90600052602060002001876006018781548110611e4257611e42612e19565b9060005260206000200188600201546040518763ffffffff1660e01b8152600401611e71959493929190612ed0565b60006040518083038185885af1158015611e8f573d6000803e3d6000fd5b50505050506040513d6000823e601f3d908101601f19168201604052611eb89190810190612d2b565b5080611ec381612f32565b915050611d7d565b506040518281527f712ae1383f79ac853f8d882153778e0260ef8f03b504e2866e0593e04d2b291f9060200160405180910390a15050565b6001611f0e83610a7f565b6007811115611f1f57611f1f61285d565b14611f7f5760405162461bcd60e51b815260206004820152602a60248201527f476f7665726e6f72416c7068613a3a5f63617374566f74653a20766f74696e67604482015269081a5cc818db1bdcd95960b21b6064820152608401610745565b60008281526004602090815260408083206001600160a01b0387168452600c8101909252909120805460ff161561200e5760405162461bcd60e51b815260206004820152602d60248201527f476f7665726e6f72416c7068613a3a5f63617374566f74653a20766f7465722060448201526c185b1c9958591e481d9bdd1959609a1b6064820152608401610745565b600154600783015460405163782d6fe160e01b81526000926001600160a01b03169163782d6fe191612058918a916004016001600160a01b03929092168252602082015260400190565b602060405180830381865afa158015612075573d6000803e3d6000fd5b505050506040513d601f19601f820116820180604052508101906120999190612df0565b905083156120c2576120b88360090154826001600160601b0316612173565b60098401556120df565b6120d983600a0154826001600160601b0316612173565b600a8401555b81546001600160601b0382166201000081026dffffffffffffffffffffffff000019871515610100810261ffff199095169490941760011716178455604080516001600160a01b038a168152602081018990529081019290925260608201527f877856338e13f63d0c36822ff0ef736b80934cd90574a3a5bc9262c39d217c469060800160405180910390a1505050505050565b6000806121808385612fe5565b9050838110156121c65760405162461bcd60e51b81526020600482015260116024820152706164646974696f6e206f766572666c6f7760781b6044820152606401610745565b9392505050565b6000828211156122175760405162461bcd60e51b81526020600482015260156024820152747375627472616374696f6e20756e646572666c6f7760581b6044820152606401610745565b6121c68284612ffd565b6000546040516001600160a01b039091169063f2b065379061224f9088908890889088908890602001613014565b604051602081830303815290604052805190602001206040518263ffffffff1660e01b815260040161228391815260200190565b602060405180830381865afa1580156122a0573d6000803e3d6000fd5b505050506040513d601f19601f820116820180604052508101906122c4919061304d565b156123455760405162461bcd60e51b8152602060048201526044602482018190527f476f7665726e6f72416c7068613a3a5f71756575654f725265766572743a2070908201527f726f706f73616c20616374696f6e20616c7265616479207175657565642061746064820152632065746160e01b608482015260a401610745565b600054604051633a66f90160e01b81526001600160a01b0390911690633a66f9019061237d9088908890889088908890600401613014565b6020604051808303816000875af115801561239c573d6000803e3d6000fd5b505050506040513d601f19601f820116820180604052508101906123c09190612dd7565b505050505050565b82805482825590600052602060002090810192821561241d579160200282015b8281111561241d57825182546001600160a01b0319166001600160a01b039091161782556020909201916001909101906123e8565b5061242992915061251a565b5090565b82805482825590600052602060002090810192821561241d579160200282015b8281111561241d57825182559160200191906001019061244d565b8280548282559060005260206000209081019282156124b5579160200282015b828111156124b557825180516124a591849160209091019061252f565b5091602001919060010190612488565b506124299291506125a2565b82805482825590600052602060002090810192821561250e579160200282015b8281111561250e57825180516124fe91849160209091019061252f565b50916020019190600101906124e1565b506124299291506125bf565b5b80821115612429576000815560010161251b565b82805461253b90612da2565b90600052602060002090601f01602090048101928261255d576000855561241d565b82601f1061257657805160ff191683800117855561241d565b8280016001018555821561241d579182018281111561241d57825182559160200191906001019061244d565b808211156124295760006125b682826125dc565b506001016125a2565b808211156124295760006125d382826125dc565b506001016125bf565b5080546125e890612da2565b6000825580601f106125f8575050565b601f016020900490600052602060002090810190612616919061251a565b50565b60006020828403121561262b57600080fd5b5035919050565b60005b8381101561264d578181015183820152602001612635565b838111156114015750506000910152565b60008151808452612676816020860160208601612632565b601f01601f19169290920160200192915050565b6020815260006121c6602083018461265e565b801515811461261657600080fd5b600080604083850312156126be57600080fd5b8235915060208301356126d08161269d565b809150509250929050565b80356001600160a01b03811681146126f257600080fd5b919050565b60006020828403121561270957600080fd5b6121c6826126db565b6000806040838503121561272557600080fd5b61272e836126db565b946020939093013593505050565b600081518084526020808501945080840160005b838110156127755781516001600160a01b031687529582019590820190600101612750565b509495945050505050565b600081518084526020808501945080840160005b8381101561277557815187529582019590820190600101612794565b600081518084526020808501808196508360051b8101915082860160005b858110156127f85782840389526127e684835161265e565b988501989350908401906001016127ce565b5091979650505050505050565b608081526000612818608083018761273c565b828103602084015261282a8187612780565b9050828103604084015261283e81866127b0565b9050828103606084015261285281856127b0565b979650505050505050565b634e487b7160e01b600052602160045260246000fd5b602081016008831061289557634e487b7160e01b600052602160045260246000fd5b91905290565b600080600080600060a086880312156128b357600080fd5b8535945060208601356128c58161269d565b9350604086013560ff811681146128db57600080fd5b94979396509394606081013594506080013592915050565b634e487b7160e01b600052604160045260246000fd5b604051601f8201601f1916810167ffffffffffffffff81118282101715612932576129326128f3565b604052919050565b600067ffffffffffffffff821115612954576129546128f3565b5060051b60200190565b600082601f83011261296f57600080fd5b8135602061298461297f8361293a565b612909565b82815260059290921b840181019181810190868411156129a357600080fd5b8286015b848110156129c5576129b8816126db565b83529183019183016129a7565b509695505050505050565b600082601f8301126129e157600080fd5b813560206129f161297f8361293a565b82815260059290921b84018101918181019086841115612a1057600080fd5b8286015b848110156129c55780358352918301918301612a14565b600067ffffffffffffffff821115612a4557612a456128f3565b50601f01601f191660200190565b6000612a6161297f84612a2b565b9050828152838383011115612a7557600080fd5b828260208301376000602084830101529392505050565b600082601f830112612a9d57600080fd5b6121c683833560208501612a53565b600082601f830112612abd57600080fd5b81356020612acd61297f8361293a565b82815260059290921b84018101918181019086841115612aec57600080fd5b8286015b848110156129c557803567ffffffffffffffff811115612b105760008081fd5b612b1e8986838b0101612a8c565b845250918301918301612af0565b600082601f830112612b3d57600080fd5b81356020612b4d61297f8361293a565b82815260059290921b84018101918181019086841115612b6c57600080fd5b8286015b848110156129c557803567ffffffffffffffff811115612b905760008081fd5b8701603f81018913612ba25760008081fd5b612bb3898683013560408401612a53565b845250918301918301612b70565b600080600080600060a08688031215612bd957600080fd5b853567ffffffffffffffff80821115612bf157600080fd5b612bfd89838a0161295e565b96506020880135915080821115612c1357600080fd5b612c1f89838a016129d0565b95506040880135915080821115612c3557600080fd5b612c4189838a01612aac565b94506060880135915080821115612c5757600080fd5b612c6389838a01612b2c565b93506080880135915080821115612c7957600080fd5b50612c8688828901612a8c565b9150509295509295909350565b60008060408385031215612ca657600080fd5b82359150612cb6602084016126db565b90509250929050565b60018060a01b038516815283602082015260a06040820152601860a08201527f73657450656e64696e6741646d696e286164647265737329000000000000000060c082015260e060608201526000612d1a60e083018561265e565b905082608083015295945050505050565b600060208284031215612d3d57600080fd5b815167ffffffffffffffff811115612d5457600080fd5b8201601f81018413612d6557600080fd5b8051612d7361297f82612a2b565b818152856020838501011115612d8857600080fd5b612d99826020830160208601612632565b95945050505050565b600181811c90821680612db657607f821691505b60208210811415610c3657634e487b7160e01b600052602260045260246000fd5b600060208284031215612de957600080fd5b5051919050565b600060208284031215612e0257600080fd5b81516001600160601b03811681146121c657600080fd5b634e487b7160e01b600052603260045260246000fd5b8054600090600181811c9080831680612e4957607f831692505b6020808410821415612e6b57634e487b7160e01b600052602260045260246000fd5b838852818015612e825760018114612e9657612ec4565b60ff19861689830152604089019650612ec4565b876000528160002060005b86811015612ebc5781548b8201850152908501908301612ea1565b8a0183019750505b50505050505092915050565b60018060a01b038616815284602082015260a060408201526000612ef760a0830186612e2f565b8281036060840152612f098186612e2f565b9150508260808301529695505050505050565b634e487b7160e01b600052601160045260246000fd5b6000600019821415612f4657612f46612f1c565b5060010190565b8981526001600160a01b038916602082015261012060408201819052600090612f788382018b61273c565b90508281036060840152612f8c818a612780565b90508281036080840152612fa081896127b0565b905082810360a0840152612fb481886127b0565b90508560c08401528460e0840152828103610100840152612fd5818561265e565b9c9b505050505050505050505050565b60008219821115612ff857612ff8612f1c565b500190565b60008282101561300f5761300f612f1c565b500390565b60018060a01b038616815284602082015260a06040820152600061303b60a083018661265e565b8281036060840152612f09818661265e565b60006020828403121561305f57600080fd5b81516121c68161269d56fea26469706673582212200431f56c3387b50d2b0283ad44392c9215215507320447eeeccd79c9080de96f64736f6c634300080a0033",
    "linkReferences": {}
  }
}